BI00B1200    2399T51922     202112177288-6598-70             HOUSING MALE ASS'Y       CCN000074880000033120FY00003312020211101000000000NNMD0720211225105225    4N0N  0000014400000107420000142921200    YCYC    005500360039
BI00A1200    #2399T51B18    202201177289-4200-30             HOUSING FEMALE ASS'Y     PCN000020000000020000FN00000000020220101000020000NNM00020211225123832    2N0N  0000020000000092600000102101200    YCYC    005400370024
BI00A1200    #2399T51B19    202201177289-4200-30             HOUSING FEMALE ASS'Y     PCN000018000000018000FN00000000020220101000018000NNMM0020211225124927    2N0N  0000020000000092600000102101200    YCYC    005400370024
BI00A1200    #2399T51B20    202201247289-4200-30             HOUSING FEMALE ASS'Y     PCN000018000000018000FN00000000020220101000018000NNMD0720211225125025    2N0N  0000020000000092600000102101200    YCYC    005400370024
BI00B1200    2399T51922     202201067288-6598-70             HOUSING MALE ASS'Y       CCN000041760000041760FN00000000020211101000041760NNMD0720211225122521    4N0N  0000014400000107420000142921200    YCYC    005500360039
BI00B32CH    SJ21115SMW     202112307289-3342-30             HOUSING FEMALE ASS'Y     CCN000002400000002400FN00000000020211101000002400NNMD0420211225134625    1N0N  00000240000000686400000901432CH    SJSAMIJF005500360039
BI00A32CH    SJ21124HMW     202201067327-6880-30             MULTI FUSE               PCN000007776000007776FN00000000020211201000007776NNM00020211225130016    4N0N  00000028800001012600001178532CH    SJSAMIJF005400370024
BI00B32CH    SJ21123SMW     202112307289-3342-30             HOUSING FEMALE ASS'Y     CCN000002400000002400FN00000000020211201000002400NNMD0020211225133353    1N0N  00000240000000686400000901432CH    SJSAMIJF005500360039
BI00A32DG    #RL2012        202201147158-3007-10             RUBBER STOPPER           PCN000060000000060000FN00000000020210101000060000NNMM0020211225131212    2H0H  00002000000000308000000362732DG    BFSAIBF 002700430014
BI00A32DG    #RL2013        202201167282-5845                HOUSING MALE ASS'Y       PCN000004000000004000FN00000000020210101000004000NNM00020211225122521    2N0N  00000400000001068000001178032DG    BFSAIBF 005400370024
BI00A32DG    #RL2012        202201077282-5845-30             HOUSING MALE ASS'Y       PCN000004000000004000FN00000000020210101000004000NNMM0020211225122521    2N0N  00000400000001068000001178032DG    BFSAIBF 005400370024
BI00A32DG    #RL2021        202202017282-5845                HOUSING MALE ASS'Y       PCN000004000000004000FN00000000020210201000004000NNMM0020211225122521    2N0N  00000400000001068000001178032DG    BFSAIBF 005400370024
BI00A32DG    #RL2021        202201147282-5845-30             HOUSING MALE ASS'Y       PCN000004000000004000FN00000000020210201000004000NNMM0020211225122521    2N0N  00000400000001068000001178032DG    BFSAIBF 005400370024
BI00A32DG    #RL2021A       202201267282-5845-30             HOUSING MALE ASS'Y       PCN000004000000004000FN00000000020220201000004000NNEM0020211225122521    2N0N  00000400000001068000001178032DG    BFSAIBF 005400370024
BI00A32D2    #DGTC2205      202201047172-5629-80             RUBBER STOPPER           PCN000640000000640000FN00000000020220201000640000NNM00020211225131011    2H0H  00002000000000060000000111132D2    TGYOT-G 004300270014
BI00A32D2    #DGTC2205      202201047172-5630-40             RUBBER STOPPER           PCN000360000000360000FN00000000020220201000360000NNM00020211225131011    2H0H  00002000000000044000000095132D2    TGYOT-G 004300270014
BI00B32D9    I10353         202112277289-3342-30             HOUSING FEMALE ASS'Y     CCN000093600000024000FN00000000020220101000024000NNM00020211225134521    1N0N  00000240000000686400000901432D9    UEHESTO 005500360039
BI00A32G2    SA21123 MW     202201067283-4855                CONNECTOR HOUSING        PCN000002400000002400FN00000000020211201000002400NNM00020211225130512    4N0N  00000240000001188400001400032G2    AISUAI  005500360039
BI00A32G2    SA21124 MW     202201057283-4855                CONNECTOR HOUSING        PCN000002400000002400FN00000000020211201000002400NNM00020211225130421    4N0N  00000240000001188400001400032G2    AISUAI  005500360039
BI00B32G2    #SA22011 MW    202112087157-7812                SEAL RUBBER              CCN000050000000010000FY00001000020220101000000000NNM00020211225130739    2C0C  00001000000000137000000202032G2    AISUAI  002700430014
BI00A32G2    #SA22021JMW    202201147282-5845-30             HOUSING MALE ASS'Y       PCN000004000000004000FN00000000020220201000004000NNMM0020211225122521    2N0N  00000400000001068000001178032G2    AISUAI  005400370024
BI00A32G2    #SA22011 MW    202201177157-7812                SEAL RUBBER              PCN000040000000040000FN00000000020220101000040000NNM00020211225130739    2C0C  00001000000000137000000202032G2    AISUAI  002700430014
BI00A32H2    #TIJ2013       202112287282-5845                HOUSING MALE ASS'Y       PCN000008000000004000FN00000000020220101000004000NNM00020211225122521    2N0N  00000400000001068000001178032H2    HVYHV   005400370024
BI00A32H2    #TIJ2014       202201147282-5845                HOUSING MALE ASS'Y       PCN000008000000008000FN00000000020220101000008000NNM00020211225122521    2N0N  00000400000001068000001178032H2    HVYHV   005400370024
BI00A32H2    #TIJ2013       202201057282-5845-30             HOUSING MALE ASS'Y       PCN000004000000004000FN00000000020220101000004000NNM00020211225122521    2N0N  00000400000001068000001178032H2    HVYHV   005400370024
BI00A32H2    #TIJ2014       202201077282-5845-30             HOUSING MALE ASS'Y       PCN000008000000008000FN00000000020220101000008000NNMM0020211225122521    2N0N  00000400000001068000001178032H2    HVYHV   005400370024
BI00B32M1    TCV1113        202112307289-3342-30             HOUSING FEMALE ASS'Y     CCN000024000000024000FN00000000020211101000024000NNM00020211225134906    1N0N  00000240000000686400000901432M1    VNYEV   005500360039
BI00B32M1    TCV1114        202112307289-3342-30             HOUSING FEMALE ASS'Y     CCN000024000000024000FN00000000020211101000024000NNM00020211225134918    1N0N  00000240000000686400000901432M1    VNYEV   005500360039
BI00A32M4    #TL2011        202201127172-5630-40             RUBBER STOPPER           PCN000100000000100000FN00000000020220101000100000NNM00020211225124458    2H0H  00002000000000044000000095132M4    SISAI   004300270014
BI00A32M8    PM22014TMW     202112287288-6547                CONNECTOR MALE ASS'Y     PCN000003750000003750FN00000000020220101000003750NNMM0020211225155222    4N0N  00000075000001205300001340332M8    PMPEMI  005400370024
BI00B32N1    SBT2112        202112287286-3885-40             CONNECTOR MALE ASS'Y     CCN000007200000007200FN00000000020211201000007200NNM00020211225135420    1N0N  00000120000000910600001130632N1    TAYIPL  005500360039
BI00B32N1    NST2114FCU-REV 202112287158-3169-40             SEALING PLUG             CCN000080000000080000FN00000000020220101000080000NNE00020211225132847    1C0C  00004000000000156000000204132N1    TAYIPL  004300260014
BI00B32N1    NST2114FCU-REV 202112287B58-3070-80             RUBBER STOPPER           CCN000080000000080000FN00000000020220101000080000NNE00020211225132847    1C0C  00004000000000276000000333032N1    TAYIPL  004300270014
BI00B32N1    NST2114FCU-REV 202112257283-5830                CONNECTOR                CCN000024000000006000FY00000600020220101000000000NNE00020211225132921    1N47  00000600000000954000001104032N1    TAYIPL  005500360039
BI00B32N1    NST2114FCU-REV 202112287283-5830-30             CONNECTOR                CCN000018000000018000FN00000000020220101000018000NNE00020211225132921    1N0N  00000600000000954000001104032N1    TAYIPL  005500360039
BI00B32N1    NST2113A 2     202112287116-1180                TERMINAL                 CCN000565500000565500FN00000000020220101000565500NNM00020211225133157    1P0P  00001950000000618200000903432N1    TAYIPL  006400630015
BI00B32N1    NST2113A 2     202112287158-3023                RUBBER STOPPER           CCN000005000000005000FN00000000020220101000005000NNM00020211225133157    1C0C  00000500000000443500000502032N1    TAYIPL  002700430014
BI00B32N1    NST2113A 2     202112287282-1248                HOUSING SUB ASSEMBLY     CCN000009600000009600FN00000000020220101000009600NNM00020211225133157    1N0N  00000060000001167000001372032N1    TAYIPL  005500360039
BI00B32N1    NST2113A 2     202112287283-1144                CONNECTOR                CCN000007200000007200FN00000000020220101000007200NNM00020211225133157    4N0N  00000240000000602200000866132N1    TAYIPL  005500360039
BI00B32N1    NST2113A 2     202112287126-8850-02             TERMINAL                 CCN000297000000297000FN00000000020220101000297000NNM00020211225133157    1P0P  00000900000000672300000957532N1    TAYIPL  006400630015
BI00B32N1    NST2113A 2     202112287126-8851-02             TERMINAL                 CCN000531000000531000FN00000000020220101000531000NNM00020211225133157    1P0P  00000900000000739800001025032N1    TAYIPL  006400630015
BI00B32N1    NST2113A 2     202112287126-8852-02             TERMINAL                 CCN000232500000232500FN00000000020220101000232500NNM00020211225133157    1P0P  00000750000000648000000933232N1    TAYIPL  006400630015
BI00B32N1    NST2113A 2     202112287158-3006-90             RUBBER STOPPER           CCN000200000000200000FN00000000020220101000200000NNM00020211225133157    1C0C  00002000000000330600000386032N1    TAYIPL  002700430014
BI00B32N1    NST2113A 2     202112287158-3022-80             RUBBER STOPPER           CCN000005000000005000FN00000000020220101000005000NNM00020211225133157    1C0C  00000500000000467500000524032N1    TAYIPL  002700430014
BI00B32N1    NST2113A 2     202112287158-3168-80             SEALED                   CCN000020000000020000FN00000000020220101000020000NNM00020211225133157    1C0C  00002000000000044000000092132N1    TAYIPL  004300260014
BI00B32N1    NST2113A 2     202112287183-7665-30             HOUSING                  CCN000002400000002400FN00000000020220101000002400NNM00020211225133157    1F0F  00000120000001103300001247832N1    TAYIPL  005500360039
BI00B32N1    NST2113A 2     202112287282-1248-30             HOUSING SUB ASSEMBLY     CCN000004200000004200FN00000000020220101000004200NNM00020211225133157    1N0N  00000060000001167000001372032N1    TAYIPL  005500360039
BI00B32N1    NST2113A 2     202112287283-1144-30             CONNECTOR                CCN000036000000019200FN00000000020220101000019200NNM00020211225133157    4N0N  00000240000000602200000866132N1    TAYIPL  005500360039
BI00B32N1    NST2114FCU-REV 202112287283-5830                CONNECTOR                CCN000018000000018000FN00000000020220101000018000NNE00020211225132921    1N47  00000600000000954000001104032N1    TAYIPL  005500360039
BI00A32N3    #NBT202 A3     202201287282-5845                HOUSING MALE ASS'Y       PCN000004000000004000FN00000000020220201000004000NNMM0020211225122521    2N0N  00000400000001068000001178032N3    ABYIPL-B005400370024
BI00A32N3    #NBT202 A1     202201067282-5845-30             HOUSING MALE ASS'Y       PCN000004000000004000FN00000000020220201000004000NNMM0020211225122521    2N0N  00000400000001068000001178032N3    ABYIPL-B005400370024
BI00A32N3    #NBT202 A4     202201147282-5845-30             HOUSING MALE ASS'Y       PCN000004000000004000FN00000000020220201000004000NNMM0020211225122521    2N0N  00000400000001068000001178032N3    ABYIPL-B005400370024
BI00A32P8    #TAPI-2013     202201117172-5629-80             RUBBER STOPPER           PCN000140000000140000FN00000000020220101000140000NNMM0020211225124734    2H0H  00002000000000060000000111132P8    YIYTM   004300270014
BI00A32Q8    #EU21114TMW    202112207172-5630-40             RUBBER STOPPER           CCN001740000001040000FY00104000020211101000000000NNM00020211225173735    2H0H  00002000000000044000000095132Q8    EMEMI   004300270014
BI00A32Q8    #EU2111ATMW    202201047289-4200-30             HOUSING FEMALE ASS'Y     PCN000038000000038000FN00000000020211101000038000NNE00020211225175148    2N0N  00000200000000926000001021032Q8    EMEMI   005400370024
BI00A32Q8    #EU21122TMW    202201077289-4200-30             HOUSING FEMALE ASS'Y     PCN000022000000022000FN00000000020211201000022000NNMM0020211225175124    2N0N  00000200000000926000001021032Q8    EMEMI   005400370024
BI00A32Q8    #EU22013TMW    202201117172-5630-40             RUBBER STOPPER           PCN001620000001620000FN00000000020220101001620000NNM00020211225173933    2H0H  00002000000000044000000095132Q8    EMEMI   004300270014
BI00A32Q8    #EU22012TMW    202201137289-4200-30             HOUSING FEMALE ASS'Y     PCN000048000000048000FN00000000020220101000048000NNM00020211225180106    2N0N  00000200000000926000001021032Q8    EMEMI   005400370024
BI00A32Q8    #EU22012TMW    202201187172-5630-40             RUBBER STOPPER           PCN000940000000940000FN00000000020220101000940000NNM00020211225174332    2H0H  00002000000000044000000095132Q8    EMEMI   004300270014
BI00A32Q8    #EU21123TMW    202112287289-4200-30             HOUSING FEMALE ASS'Y     PCN000048000000048000FN00000000020211201000048000NNMD0420211225142930    2N0N  00000200000000926000001021032Q8    EMEMI   005400370024
BI00A32Q8    #EU21114TMW    202201037172-5630-40             RUBBER STOPPER           PCN000700000000000000FY00000000020211101000000000NNMM0020211225173816    2H0H  00002000000000044000000095132Q8    EMEMI   004300270014
BI00A32Q8    #EU21114TMW    202201047172-5630-40             RUBBER STOPPER           PCN000700000000700000FN00000000020211101000700000NNM00020211225173735    2H0H  00002000000000044000000095132Q8    EMEMI   004300270014
BI00B32U5    #DI1050        202112297172-5629-80             RUBBER STOPPER           CCN000140000000140000FN00000000020220201000140000NNM00020211225133320U5  2H0H  00002000000000060000000111132U5    AMAMSD  004300270014
BI00B32W4    #4500186378    202201207282-1030                CONNECTOR MALE ASS'Y     CCN000002000000002000FN00000000020220101000002000NNED0720211225132141W4592N0N  00000100000000365000000487532W459  HJYHK   005400370024
BI00B32X5    TIB1041        202201077289-3342-30             HOUSING FEMALE ASS'Y     CCN000124800000062400FN00000000020211101000062400NNM00020211225125613X5  1N0N  00000240000000686400000901432X5    EPYNA-E 005500360039
BI00B32X5    TIBAD25        202201147288-6547                CONNECTOR MALE ASS'Y     CCN000024750000024750FN00000000020211101000024750NNED0020211225125811X5  4N0N  00000075000001205300001340332X5    EPYNA-E 005400370024
BI00B32X5    TIB1049        202202147289-3342-30             HOUSING FEMALE ASS'Y     CCN000086400000086400FN00000000020220101000086400NNM00020211225125633X5  1N0N  00000240000000686400000901432X5    EPYNA-E 005500360039
BI00B32X5    #TIB1051       202112297158-3007-10             RUBBER STOPPER           CCN000180000000180000FN00000000020220201000180000NNM00020211225134823X5  2H0H  00002000000000308000000362732X5    EPYNA-E 002700430014
BI00A32X5    TIB1041        202201147289-3342-30             HOUSING FEMALE ASS'Y     PCN000062400000062400FN00000000020211101000062400NNM00020211225125613X5  1N0N  00000240000000686400000901432X5    EPYNA-E 005500360039
