BI00B32AF    @TTB1104       20211129181AD2002ZZ              CIVUSAS-S 0.35X2 B       CCN000110250000006750FN00000000020211001000006750NNM24 20211120105548    1W    00000045000001714000000000032AF    HBYHVTB 000000000000UZ41A032
BI00A32AF    @TTB1104       20211203181AD2004ZZ              CIVUSAS-S 0.35X4 B       PCN000012600000012600FN00000000020211001000012600NNM25 20211120105618    1W    00000030000002784000000000032AF    HBYHVTB 000000000000UZ41A034
BI00A32AF    @TTB1123       20211129181AD2008ZZ              CIVUSAS-S 0.5X2 B        PCN000016800000016800FN00000000020211201000016800NNM21 20211120110245    1W    00000040000002028000000000032AF    HBYHVTB 000000000000UY21B024
BI00A32AF    @TTB2012       20211203181AD2007ZZ              CIVUSAS-S 0.5X1 B        PCN000000500000000500FN00000000020220101000000500NNM20 20211120105809    1W    00000050000001714000000000032AF    HBYHVTB 000000000000UZ51B030
BI00B32AG    @XG2201ALMW    20211217181E48031ZZ              CAVSAS-S 0.3X2 GY        CCN000002100000002100FN00000000020220101000002100NNE   20211120165323    1W    00000035000001998600000000032AG    XGXGY   000000000000XU51B001
BI00B32AG    @XG2201BLMW    20211224181E48031ZZ              CAVSAS-S 0.3X2 GY        CCN000002800000002800FN00000000020220101000002800NNE   20211120165324    1W    00000035000001998600000000032AG    XGXGY   000000000000XU11C001
BI00B32B6    W72005         202112301801W003930              IVSSH 0.5F B             CCN000025200000025200FN00000000020220301000025200NNE   20211120164529B6  1W    00000180000000625000000000032B6    AXARNE-M000000000000AR21C002
BI00B32B6    W72005         202112301801W003940              IVSSH 0.5F W             CCN000025200000025200FN00000000020220301000025200NNE   20211120164529B6  1W    00000180000000625000000000032B6    AXARNE-M000000000000AR21C009
BI00B32B6    W72005         202112301801W003941              IVSSH 0.5F GY            CCN000012600000012600FN00000000020220301000012600NNE   20211120164529B6  1W    00000180000000625000000000032B6    AXARNE-M000000000000AR21C004
BI00B32B6    W72005         202112301801W003950              IVSSH 0.5F R             CCN000012600000012600FN00000000020220301000012600NNE   20211120164529B6  1W    00000180000000625000000000032B6    AXARNE-M000000000000AR21C007
BI00B32B6    W72005         202112301801W003952              IVSSH 0.5F P             CCN000025200000025200FN00000000020220301000025200NNE   20211120164529B6  1W    00000180000000625000000000032B6    AXARNE-M000000000000AR21C006
BI00B32B6    W72005         202112301801W003980              IVSSH 0.5F BR            CCN000025200000025200FN00000000020220301000025200NNE   20211120164529B6  1W    00000180000000625000000000032B6    AXARNE-M000000000000AR21C003
BI00B32B6    W72005         202112301801W003990              IVSSH 0.5F L             CCN000025200000025200FN00000000020220301000025200NNE   20211120164529B6  1W    00000180000000625000000000032B6    AXARNE-M000000000000AR21C005
BI00B32B6    W72005         202112301801W003992              IVSSH 0.5F V             CCN000012600000012600FN00000000020220301000012600NNE   20211120164529B6  1W    00000180000000625000000000032B6    AXARNE-M000000000000AR21C008
BI00B32B6    W72005         202112301801W004040              IVSSH 0.75F W            CCN000002600000002600FN00000000020220301000002600NNE   20211120164529B6  1W    00000130000000882000000000032B6    AXARNE-M000000000000AR21C012
BI00B32B6    W72005         202112301801W004052              IVSSH 0.75F P            CCN000002600000002600FN00000000020220301000002600NNE   20211120164529B6  1W    00000130000000882000000000032B6    AXARNE-M000000000000AR21C011
BI00B32B6    W72005         202112301801W004060              IVSSH 0.75F G            CCN000002600000002600FN00000000020220301000002600NNE   20211120164529B6  1W    00000130000000882000000000032B6    AXARNE-M000000000000AR21C010
BI00B32DE    @TT112G        20211125181E50009ZZ              AVSSCS-S 0.5FX2 DGY/W    CCN000000300000000300FN00000000020211201000000300NNE20 20211120153858    1W    00000030000002072000000000032DE    TVYEV-TV000000000000VY31B001
BI00B32D1    DFTW2148       2021102818000004540              AV 8 W                   CCN000005000000003800FY00000380020211101000000000NNE20 20211120081057    1W    00000010000009148000000000032D1    TOYOT-K 000000000000KN21A029
BI00A32D1    DFTW2148       2021102918000004540              AV 8 W                   PCN000001200000001200FY00000120020211101000000000NNE20 20211120081057    1W    00000010000009148000000000032D1    TOYOT-K 000000000000KN21A029
BI00B32H0    TT2201CVMW     20211207180D0204043              AVSSH 0.75F W/B          CCN000001000000001000FN00000000020220101000001000NNE   20211120074048    1W    00000100000000968000000000032H0    TTTJY   000000000000NN41B001
BI00B32H0    TT2201BVMW     20211214180D0204130              AVSSH 1.25F B            CCN000000800000000800FN00000000020220101000000800NNE   20211120152922    1W    00000080000001458000000000032H0    TTTJY   000000000000NN51B006
BI00B32H0    TT2201BVMW     20211214180D0204190              AVSSH 1.25F L            CCN000000800000000800FN00000000020220101000000800NNE   20211120152922    1W    00000080000001458000000000032H0    TTTJY   000000000000NN51B007
BI00B32H0    TT2201BVMW     20211214180D0204150              AVSSH 1.25F R            CCN000000800000000800FN00000000020220101000000800NNE   20211120152922    1W    00000080000001458000000000032H0    TTTJY   000000000000NN51B008
BI00B32H0    TT2201BVMW     20211214180D0204143              AVSSH 1.25F W/B          CCN000000800000000800FN00000000020220101000000800NNE   20211120152922    1W    00000080000001458000000000032H0    TTTJY   000000000000NN51B009
BI00B32M1    @TV111A        20211216181D69009ZZ              AVSSHCS 1.25FX2 B/P      CCN000000200000000200FN00000000020211101000000200NNE   20211120190457    1W    00000020000004432000000000032M1    VNYEV   000000000000VK51B002
BI00B32M1    @TV111A        20211216181F21031ZZ              AVSSHCS-S 1.25FX2 B/P    CCN000000200000000200FN00000000020211101000000200NNE   20211120190457    1W    00000020000004262000000000032M1    VNYEV   000000000000VK51B003
BI00B32M1    @TV111A        20211216181AD2002ZZ              CIVUSAS-S 0.35X2 B       CCN000060300000060300FN00000000020211101000060300NNE   20211120190457    1W    00000045000001714000000000032M1    VNYEV   000000000000VK51B001
BI00B32M1    TV111B         202112231800770375U              AVSS 0.3F BE             CCN000002000000002000FN00000000020211101000002000NNE   20211120190458    1W    00000200000000496000000000032M1    VNYEV   000000000000VB11C001
BI00B32M1    TV111B         2021122318007703780              AVSS 0.3F BR             CCN000002000000002000FN00000000020211101000002000NNE   20211120190458    1W    00000200000000496000000000032M1    VNYEV   000000000000VB11C002
BI00B32M1    TV111B         2021122318007703761              AVSS 0.3F LG             CCN000002000000002000FN00000000020211101000002000NNE   20211120190458    1W    00000200000000496000000000032M1    VNYEV   000000000000VB11C003
BI00B32M1    TV111B         2021122318007703791              AVSS 0.3F SB             CCN000002000000002000FN00000000020211101000002000NNE   20211120190458    1W    00000200000000496000000000032M1    VNYEV   000000000000VB11C004
BI00B32M1    TV111B         2021122318007703740              AVSS 0.3F W              CCN000002000000002000FN00000000020211101000002000NNE   20211120190458    1W    00000200000000496000000000032M1    VNYEV   000000000000VB11C005
BI00B32M1    TV111B         2021122318007703743              AVSS 0.3F W/B            CCN000002000000002000FN00000000020211101000002000NNE   20211120190458    1W    00000200000000496000000000032M1    VNYEV   000000000000VB11C006
BI00B32M1    TV111B         2021122318007703960              AVSS 0.5F G              CCN000001500000001500FN00000000020211101000001500NNE   20211120190458    1W    00000150000000674000000000032M1    VNYEV   000000000000VB11C007
BI00B32M1    TV111B         2021122318007703952              AVSS 0.5F P              CCN000001500000001500FN00000000020211101000001500NNE   20211120190458    1W    00000150000000674000000000032M1    VNYEV   000000000000VB11C008
BI00B32M1    TV111B         2021122318007703950              AVSS 0.5F R              CCN000001500000001500FN00000000020211101000001500NNE   20211120190458    1W    00000150000000674000000000032M1    VNYEV   000000000000VB11C009
BI00B32M1    TV111B         2021122318007703991              AVSS 0.5F SB             CCN000001500000001500FN00000000020211101000001500NNE   20211120190458    1W    00000150000000674000000000032M1    VNYEV   000000000000VB11C010
BI00B32M1    TV111B         2021122318007703992              AVSS 0.5F V              CCN000001500000001500FN00000000020211101000001500NNE   20211120190458    1W    00000150000000674000000000032M1    VNYEV   000000000000VB11C011
BI00B32M1    TV111B         2021122318007703970              AVSS 0.5F Y              CCN000001500000001500FN00000000020211101000001500NNE   20211120190458    1W    00000150000000674000000000032M1    VNYEV   000000000000VB11C012
BI00B32M1    TV111B         2021122318007704161              AVSS 1.25F LG            CCN000000800000000800FN00000000020211101000000800NNE   20211120190458    1W    00000080000001389000000000032M1    VNYEV   000000000000VB11C013
BI00A32M3    SM22013 MW     20211122180D0204030              AVSSH 0.75F B            CCN000001000000001000FN00000000020220101000001000NNM20 20211120075950    1W    00000100000000968000000000032M3    SASAMI  000000000000QM11C011
BI00A32M3    SM22014 MW     20211122180D0204030              AVSSH 0.75F B            CCN000001000000001000FN00000000020220101000001000NNM20 20211120080228    1W    00000100000000968000000000032M3    SASAMI  000000000000QM21C007
BI00B32M3    SM22011 MW     20211209180D0204040              AVSSH 0.75F W            CCN000002000000002000FN00000000020220101000002000NNM00 20211120085718    1W    00000100000000968000000000032M3    SASAMI  000000000000QM41B014
BI00A32M3    @SM22011MMW    20211122181E48041ZZ              CAVSAS-S 0.3X2 GY/R      PCN000000350000000350FN00000000020220101000000350NNM20 20211120085827    1W    00000035000001998600000000032M3    SASAMI  000000000000QN41B001
BI00A32M3    SM22011 MW     20211122180D0204040              AVSSH 0.75F W            PCN000001000000001000FN00000000020220101000001000NNM20 20211120085718    1W    00000100000000968000000000032M3    SASAMI  000000000000QM41B014
BI00A32M8    @PM21104 MW    20211129181D6910230              AVSSHCS 0.5FX2 B         PCN000015600000015600FN00000000020211001000015600NNM23 20211120191824    1W    00000030000002792600000000032M8    PMPEMI  000000000000IM41A009
BI00A32M8    PM21104TMW     202111291801W003943              IVSSH 0.5F W/B           PCN000023400000023400FN00000000020211001000023400NNM24 20211120194502    1W    00000180000000625000000000032M8    PMPEMI  000000000000IT41A014
BI00A32M8    PM21104TMW     202111291801W003952              IVSSH 0.5F P             PCN000009000000009000FN00000000020211001000009000NNM24 20211120193034    1W    00000180000000625000000000032M8    PMPEMI  000000000000IT41A009
BI00A32M8    PM21104TMW     202111291801W003980              IVSSH 0.5F BR            PCN000019800000019800FN00000000020211001000019800NNM24 20211120193158    1W    00000180000000625000000000032M8    PMPEMI  000000000000IT41A004
BI00A32M8    PM21104TMW     202111291801W003990              IVSSH 0.5F L             PCN000037800000037800FN00000000020211001000037800NNM24 20211120193234    1W    00000180000000625000000000032M8    PMPEMI  000000000000IT41A007
BI00A32M8    PM21104TMW     202111291801W003992              IVSSH 0.5F V             PCN000018000000018000FN00000000020211001000018000NNM24 20211120193447    1W    00000180000000625000000000032M8    PMPEMI  000000000000IT41A012
BI00A32M8    PM21104TMW     202111291801W004030              IVSSH 0.75F B            PCN000007800000007800FN00000000020211001000007800NNM24 20211120193629    1W    00000130000000882000000000032M8    PMPEMI  000000000000IT41A016
BI00A32M8    PM21104TMW     202111221801W004040              IVSSH 0.75F W            PCN000002600000002600FN00000000020211001000002600NNM25 20211120193736    1W    00000130000000882000000000032M8    PMPEMI  000000000000IT41A022
BI00A32M8    PM21104TMW     202111291801W004041              IVSSH 0.75F GY           PCN000002600000002600FN00000000020211001000002600NNM24 20211120194644    1W    00000130000000882000000000032M8    PMPEMI  000000000000IT41A018
BI00A32M8    PM21104TMW     202111291801W004092              IVSSH 0.75F V            PCN000003900000003900FN00000000020211001000003900NNM24 20211120194644    1W    00000130000000882000000000032M8    PMPEMI  000000000000IT41A021
BI00A32M8    PM21104TMW     202111291801W006940              IVSSH 0.35F W            PCN000057500000057500FN00000000020211001000057500NNM24 20211120194644    1W    00000250000000452000000000032M8    PMPEMI  000000000000IT41A034
BI00B32M8    PM21104TMW     202112081801W006950              IVSSH 0.35F R            CCN000045000000045000FN00000000020211001000045000NNM20 20211120194644    1W    00000250000000452000000000032M8    PMPEMI  000000000000IT41A031
BI00B32M8    PM21104TMW     202112081801W006952              IVSSH 0.35F P            CCN000015000000015000FN00000000020211001000015000NNM20 20211120194644    1W    00000250000000452000000000032M8    PMPEMI  000000000000IT41A030
BI00B32M8    PM21104TMW     202112081801W006990              IVSSH 0.35F L            CCN000060000000060000FN00000000020211001000060000NNM20 20211120194708    1W    00000250000000452000000000032M8    PMPEMI  000000000000IT41A028
BI00B32M8    PM21104TMW     202112081801W006992              IVSSH 0.35F V            CCN000020000000020000FN00000000020211001000020000NNM20 20211120194656    1W    00000250000000452000000000032M8    PMPEMI  000000000000IT41A033
BI00A32P8    TAPAW-2014     202111221801W006943              IVSSH 0.35F W/B          CCN000005000000005000FN00000000020220101000005000NNM20 20211120172657    1W    00000250000000452000000000032P8    YIYTM   000000000000YM11C123
BI00A32P8    @TAPAW-2014    20211122181CQ7003ZZ              IVSSHCS-S 0.5FX2 B(B,W)  CCN000002500000002700FN00000000020220101000002700NNM20 20211120172725    1W    00000030000002333100000000032P8    YIYTM   000000000000YM11C026
BI00B32R7    R-TAP210568    2021120918018403930              CAVS 0.5 B               CCN000003000000003000FN00000000020211201000003000NNE   20211120160239    1W    00000150000000677000000000032R7    IVYCIC  000000000000SO41B001
BI00B32R7    R-TAP210568    2021120918018403950              CAVS 0.5 R               CCN000003000000003000FN00000000020211201000003000NNE   20211120160239    1W    00000150000000677000000000032R7    IVYCIC  000000000000SO41B002
BI00B32R7    R-TAP210569    2021120918018403930              CAVS 0.5 B               CCN000003000000003000FN00000000020211201000003000NNE   20211120160240    1W    00000150000000677000000000032R7    IVYCIC  000000000000SP41B001
BI00B32R7    R-TAP210569    2021120918018403950              CAVS 0.5 R               CCN000003000000003000FN00000000020211201000003000NNE   20211120160240    1W    00000150000000677000000000032R7    IVYCIC  000000000000SP41B002
BI00B32U5    DW2005         202112301801W003930              IVSSH 0.5F B             CCN000106200000106200FN00000000020220301000106200NNE   20211120164027U5  1W    00000180000000625000000000032U5    ASAMSD  000000000000AU21C013
BI00B32U5    DW2005         202112301801W003940              IVSSH 0.5F W             CCN000045000000045000FN00000000020220301000045000NNE   20211120164027U5  1W    00000180000000625000000000032U5    ASAMSD  000000000000AU21C022
BI00B32U5    DW2005         202112301801W003941              IVSSH 0.5F GY            CCN000016200000016200FN00000000020220301000016200NNE   20211120164027U5  1W    00000180000000625000000000032U5    ASAMSD  000000000000AU21C017
BI00B32U5    DW2005         202112301801W003950              IVSSH 0.5F R             CCN000027000000027000FN00000000020220301000027000NNE   20211120164027U5  1W    00000180000000625000000000032U5    ASAMSD  000000000000AU21C020
BI00B32U5    DW2005         202112301801W003952              IVSSH 0.5F P             CCN000030600000030600FN00000000020220301000030600NNE   20211120164027U5  1W    00000180000000625000000000032U5    ASAMSD  000000000000AU21C019
BI00B32U5    DW2005         202112301801W00395U              IVSSH 0.5F BE            CCN000001800000001800FN00000000020220301000001800NNE   20211120164027U5  1W    00000180000000625000000000032U5    ASAMSD  000000000000AU21C014
BI00B32U5    DW2005         202112301801W003960              IVSSH 0.5F G             CCN000037800000037800FN00000000020220301000037800NNE   20211120164027U5  1W    00000180000000625000000000032U5    ASAMSD  000000000000AU21C016
BI00B32U5    DW2005         202112301801W003970              IVSSH 0.5F Y             CCN000012600000012600FN00000000020220301000012600NNE   20211120164027U5  1W    00000180000000625000000000032U5    ASAMSD  000000000000AU21C023
BI00B32U5    DW2005         202112301801W003980              IVSSH 0.5F BR            CCN000001800000001800FN00000000020220301000001800NNE   20211120164027U5  1W    00000180000000625000000000032U5    ASAMSD  000000000000AU21C015
BI00B32U5    DW2005         202112301801W003990              IVSSH 0.5F L             CCN000072000000072000FN00000000020220301000072000NNE   20211120164027U5  1W    00000180000000625000000000032U5    ASAMSD  000000000000AU21C018
BI00B32U5    DW2005         202112301801W003992              IVSSH 0.5F V             CCN000025200000025200FN00000000020220301000025200NNE   20211120164027U5  1W    00000180000000625000000000032U5    ASAMSD  000000000000AU21C021
BI00B32U5    DW2005         202112301801W004030              IVSSH 0.75F B            CCN000014300000014300FN00000000020220301000014300NNE   20211120164027U5  1W    00000130000000882000000000032U5    ASAMSD  000000000000AU21C024
BI00B32U5    DW2005         202112301801W004040              IVSSH 0.75F W            CCN000005200000005200FN00000000020220301000005200NNE   20211120164027U5  1W    00000130000000882000000000032U5    ASAMSD  000000000000AU21C028
BI00B32U5    DW2005         202112301801W004043              IVSSH 0.75F W/B          CCN000016900000016900FN00000000020220301000016900NNE   20211120164027U5  1W    00000130000000882000000000032U5    ASAMSD  000000000000AU21C029
BI00B32U5    DW2005         202112301801W004052              IVSSH 0.75F P            CCN000002600000002600FN00000000020220301000002600NNE   20211120164027U5  1W    00000130000000882000000000032U5    ASAMSD  000000000000AU21C027
BI00B32U5    DW2005         202112301801W004060              IVSSH 0.75F G            CCN000001300000001300FN00000000020220301000001300NNE   20211120164027U5  1W    00000130000000882000000000032U5    ASAMSD  000000000000AU21C025
BI00B32U5    DW2005         202112301801W004090              IVSSH 0.75F L            CCN000005200000005200FN00000000020220301000005200NNE   20211120164027U5  1W    00000130000000882000000000032U5    ASAMSD  000000000000AU21C026
BI00B32U5    DW2005         202112301801W006950              IVSSH 0.35F R            CCN000120000000120000FN00000000020220301000120000NNE   20211120164027U5  1W    00000250000000452000000000032U5    ASAMSD  000000000000AU21C031
BI00B32U5    DW2005         202112301801W00695U              IVSSH 0.35F BE           CCN000007500000007500FN00000000020220301000007500NNE   20211120164027U5  1W    00000250000000452000000000032U5    ASAMSD  000000000000AU21C030
BI00B32U5    @DW2005        20211230181AD2013ZZ              CIVUSAS-S 1.25X2 B       CCN000001320000001320FN00000000020220301000001320NNE   20211120164026U5  1W    00000022000004000000000000032U5    ASAMSD  000000000000AU21C012
BI00B32X5    TWB2005        202112301801W003930              IVSSH 0.5F B             CCN000001800000001800FN00000000020220301000001800NNE   20211120163543X5  1W    00000180000000625000000000032X5    EPYNA-E 000000000000AH21C009
BI00B32X5    TWB2005        202112301801W004030              IVSSH 0.75F B            CCN000001300000001300FN00000000020220301000001300NNE   20211120163543X5  1W    00000130000000882000000000032X5    EPYNA-E 000000000000AH21C010
BI00B32X5    TWB2005        202112301801W004040              IVSSH 0.75F W            CCN000001300000001300FN00000000020220301000001300NNE   20211120163543X5  1W    00000130000000882000000000032X5    EPYNA-E 000000000000AH21C015
BI00B32X5    TWB2005        202112301801W004052              IVSSH 0.75F P            CCN000001300000001300FN00000000020220301000001300NNE   20211120163543X5  1W    00000130000000882000000000032X5    EPYNA-E 000000000000AH21C013
BI00B32X5    TWB2005        202112301801W004060              IVSSH 0.75F G            CCN000001300000001300FN00000000020220301000001300NNE   20211120163543X5  1W    00000130000000882000000000032X5    EPYNA-E 000000000000AH21C011
BI00B32X5    TWB2005        202112301801W004070              IVSSH 0.75F Y            CCN000002600000002600FN00000000020220301000002600NNE   20211120163543X5  1W    00000130000000882000000000032X5    EPYNA-E 000000000000AH21C016
BI00B32X5    TWB2005        202112301801W004090              IVSSH 0.75F L            CCN000001300000001300FN00000000020220301000001300NNE   20211120163543X5  1W    00000130000000882000000000032X5    EPYNA-E 000000000000AH21C012
BI00B32X5    TWB2005        202112301801W004092              IVSSH 0.75F V            CCN000002600000002600FN00000000020220301000002600NNE   20211120163543X5  1W    00000130000000882000000000032X5    EPYNA-E 000000000000AH21C014
BI00B32X5    TWB2005        202112301801W006940              IVSSH 0.35F W            CCN000027500000027500FN00000000020220301000027500NNE   20211120163543X5  1W    00000250000000452000000000032X5    EPYNA-E 000000000000AH21C018
BI00B32X5    TWB2005        202112301801W006970              IVSSH 0.35F Y            CCN000015000000015000FN00000000020220301000015000NNE   20211120163543X5  1W    00000250000000452000000000032X5    EPYNA-E 000000000000AH21C019
BI00B32X5    TWB2005        202112301801W006980              IVSSH 0.35F BR           CCN000002500000002500FN00000000020220301000002500NNE   20211120163543X5  1W    00000250000000452000000000032X5    EPYNA-E 000000000000AH21C017
