BI00A1200    #2399T51729    202111307289-4200-30             HOUSING FEMALE ASS'Y     PCN000044000000044000FN00000000020210901000044000NNMD0020211120142243    2N0N  0000020000000092600000102101200    YCYC    005400370024
BI00A1200    2399T51815     202112017289-3342-30             HOUSING FEMALE ASS'Y     CCN000004800000004800FN00000000020211001000004800NNM00020211120123952    1N0N  0000024000000068640000090141200    YCYC    005500360039
BI00A1200    2399T51921     202112137289-3342-30             HOUSING FEMALE ASS'Y     CCN000007200000007200FN00000000020211101000007200NNM00020211120124023    1N0N  0000024000000068640000090141200    YCYC    005500360039
BI00A1200    #2399T51920    202112237289-4200-30             HOUSING FEMALE ASS'Y     PCN000082000000082000FN00000000020211101000082000NNMD0020211120142301    2N0N  0000020000000092600000102101200    YCYC    005400370024
BI00A1200    8640T51901     202112137289-3342-30             HOUSING FEMALE ASS'Y     CCN000002400000002400FN00000000020211101000002400NNE00020211120124047    1N0N  0000024000000068640000090141200    YCYC    005500360039
BI00A32AF    JTB1113        202111297289-3342-30             HOUSING FEMALE ASS'Y     PCN000055200000055200FN00000000020211101000055200NNM00020211120130637    1N0N  00000240000000686400000901432AF    HBYHVTB 005500360039
BI00A32AF    JTB1114        202112087289-3342-30             HOUSING FEMALE ASS'Y     PCN000052800000052800FN00000000020211101000052800NNM00020211120130732    1N0N  00000240000000686400000901432AF    HBYHVTB 005500360039
BI00A32AF    #JTB1114       202111267282-5528-70             HOUSING MALE ASS'Y       PCN000010000000010000FN00000000020211101000010000NNMM0020211120130544    2N0N  00000100000000230000000339032AF    HBYHVTB 005400370024
BI00A32BF    TT21121KMW     202111307158-3006-90             RUBBER STOPPER           PCN000040000000040000FN00000000020211201000040000NNM00020211120123335    1C0C  00002000000000330600000386032BF    TTTJYCD 002700430014
BI00B32BF    TT21122KMW     202111307158-3006-90             RUBBER STOPPER           CCN000020000000020000FN00000000020211201000020000NNM00020211120123342    1C0C  00002000000000330600000386032BF    TTTJYCD 002700430014
BI00A32BG    #YY21122CMW    202112037172-5630-40             RUBBER STOPPER           PCN000040000000040000FN00000000020211201000040000NNM00020211120133702    2H0H  00002000000000044000000095132BG    YGYYA   004300270014
BI00B32B1    #A21048        202111167158-3376-50             CONNECTOR WIRE SEAL      CCN000160000000120000FY00012000020220101000000000NNM00020211120165258B1  2C0C  00002000000000184000000240732B1    AXARNE-M002700430014
BI00B32B1    #A21048        202111237158-3376-50             CONNECTOR WIRE SEAL      CCN000040000000040000FN00000000020220101000040000NNM00020211120165258B1  2C0C  00002000000000184000000240732B1    AXARNE-M002700430014
BI00A32CA    PTA32011       202112207289-3342-30             HOUSING FEMALE ASS'Y     PCN000079200000079200FN00000000020220101000079200NNED0420211120152215    1N0N  00000240000000686400000901432CA    YPYPY   005500360039
BI00A32CA    PTA32013       202112277289-3342-30             HOUSING FEMALE ASS'Y     PCN000019200000019200FN00000000020220101000019200NNED0420211120152350    1N0N  00000240000000686400000901432CA    YPYPY   005500360039
BI00B32CH    SJ21104HMW     202111137327-6880-30             MULTI FUSE               CCN000012960000003744FY00000374420211001000000000NNM00020211120105339    4N0N  00000028800001012600001178532CH    SJSAMIJF005400370024
BI00A32CH    SJ21115HMW     202111257327-6870-30             MULTI FUSE               PCN000009216000009216FN00000000020211101000009216NNMD0020211120105759    4N0N  00000028800001015200001181132CH    SJSAMIJF005400370024
BI00A32CH    SJ21115HMW     202112077327-6872-30             MULTI FUSE               PCN000002304000002304FN00000000020211101000002304NNMD0020211120105759    4N0N  00000028800000984500001150432CH    SJSAMIJF005400370024
BI00A32CH    SJ21115HMW     202111257327-6874-30             MULTI FUSE               PCN000008640000008640FN00000000020211101000008640NNMD0020211120105759    4N0N  00000028800000991400001157332CH    SJSAMIJF005400370024
BI00A32CH    SJ21112HMW     202111247327-6880-30             MULTI FUSE               PCN000003744000003744FN00000000020211101000003744NNM00020211120135550    4N0N  00000028800001012600001178532CH    SJSAMIJF005400370024
BI00A32CH    SJ21113HMW     202112017327-6880-30             MULTI FUSE               PCN000009216000009216FN00000000020211101000009216NNM00020211120135743    4N0N  00000028800001012600001178532CH    SJSAMIJF005400370024
BI00A32CH    SJ21115HMW     202111257327-6880-30             MULTI FUSE               PCN000008928000008928FN00000000020211101000008928NNMD0020211120105759    4N0N  00000028800001012600001178532CH    SJSAMIJF005400370024
BI00A32CH    SJ21115HMW     202112257327-6884-30             MULTI FUSE               PCN000009504000009504FN00000000020211101000009504NNMD0020211120105759    4N0N  00000028800000988900001154832CH    SJSAMIJF005400370024
BI00B32CH    SJ21115SMW     202111257289-3342-30             HOUSING FEMALE ASS'Y     CCN000002400000002400FN00000000020211101000002400NNM00020211120105604    1N0N  00000240000000686400000901432CH    SJSAMIJF005500360039
BI00A32CH    SJ21123 MW     202111237114-5748-02             TERMINAL                 PCN000012000000012000FN00000000020211201000012000NNMM0020211120095741    4P0P  00001200000000444000000737632CH    SJSAMIJF006400630015
BI00A32CH    SJ21123 MW     202111237116-5042-02             TERMINAL                 PCN000135000000135000FN00000000020211201000135000NNMM0020211120095948    4P0P  00001350000000560300000845532CH    SJSAMIJF006400630015
BI00A32CH    SJ21123 MW     202111237116-5750-02             TERMINAL                 PCN000345000000345000FN00000000020211201000345000NNMD0420211120095829    4P0P  00001500000000457500000742732CH    SJSAMIJF006400630015
BI00A32CH    SJ21124 MW     202111237116-5750-02             TERMINAL                 PCN000345000000345000FN00000000020211201000345000NNMD0420211120100039    4P0P  00001500000000457500000742732CH    SJSAMIJF006400630015
BI00A32CH    SJ21104HMW     202111237327-6880-30             MULTI FUSE               PCN000009216000009216FN00000000020211001000009216NNM00020211120105339    4N0N  00000028800001012600001178532CH    SJSAMIJF005400370024
BI00A32CJ    JQN1114        202111227289-3342-30             HOUSING FEMALE ASS'Y     PCN000002400000002400FN00000000020211101000002400NNM00020211120130139    1N0N  00000240000000686400000901432CJ    QNYHVQN 005500360039
BI00A32CJ    JQN1114        202112017289-6547                HOUSING FEMALE ASS'Y     PCN000002400000002400FN00000000020211101000002400NNM00020211120130311    1N0N  00000240000001152000001362032CJ    QNYHVQN 005500360039
BI00A32CJ    JQN1121        202112017289-6547                HOUSING FEMALE ASS'Y     PCN000004800000004800FN00000000020211201000004800NNM00020211120130437    1N0N  00000240000001152000001362032CJ    QNYHVQN 005500360039
BI00B32CJ    #JQN1122       202111127282-5528-70             HOUSING MALE ASS'Y       CCN000020000000010000FY00001000020211201000000000NNMQ0020211120125828    2N0N  00000100000000230000000339032CJ    QNYHVQN 005400370024
BI00A32CJ    JQN111M        202111247288-6547                CONNECTOR MALE ASS'Y     PCN000001500000001500FN00000000020211101000001500NNE00020211120130344    4N0N  00000075000001205300001340332CJ    QNYHVQN 005400370024
BI00A32CJ    #JQN1122       202112017282-5528-70             HOUSING MALE ASS'Y       PCN000010000000010000FN00000000020211201000010000NNMM0020211120125828    2N0N  00000100000000230000000339032CJ    QNYHVQN 005400370024
BI00B32DE    TCT1104        202109307158-3165-90             WIRE SEAL                CCN000040000000040000FY00004000020211001000000000NNMQ0820211120124901    1C0C  00004000000000124000000172432DE    TVYEV-TV004300270014
BI00A32DE    TCT1115        202112037289-3342-30             HOUSING FEMALE ASS'Y     PCN000038400000038400FN00000000020211101000038400NNM00020211120125025    1N0N  00000240000000686400000901432DE    TVYEV-TV005500360039
BI00A32DJ    GHT2111B 1     202112017158-3006-90             RUBBER STOPPER           PCN000260000000260000FN00000000020211101000260000NNM00020211120131327    1C0C  00002000000000330600000386032DJ    RBYIPLRB002700430014
BI00A32DJ    GHT2111B 2     202112077158-3006-90             RUBBER STOPPER           PCN000180000000180000FN00000000020211101000180000NNM00020211120131430    1C0C  00002000000000330600000386032DJ    RBYIPLRB002700430014
BI00A32DJ    GHT2111B 2     202112077158-3009-60             RUBBER STOPPER           PCN000060000000060000FN00000000020211101000060000NNM00020211120131430    1C0C  00002000000000338000000386232DJ    RBYIPLRB002700430014
BI00A32DJ    GHT2111B 2     202112077289-3342-30             HOUSING FEMALE ASS'Y     PCN000002400000002400FN00000000020211101000002400NNM00020211120131430    1N0N  00000240000000686400000901432DJ    RBYIPLRB005500360039
BI00A32DJ    GHT2112B 1     202112077158-3009-60             RUBBER STOPPER           PCN000300000000300000FN00000000020211201000300000NNMM0020211120131500    1C0C  00002000000000338000000386232DJ    RBYIPLRB002700430014
BI00A32G0    TZ21113EMW     202111237283-4855                CONNECTOR HOUSING        PCN000009600000009600FN00000000020211101000009600NNM00020211120121223    4N0N  00000240000001188400001400032G0    TTTJY   005500360039
BI00A32G0    TZ21121EMW     202111257288-6547                CONNECTOR MALE ASS'Y     PCN000017250000017250FN00000000020211201000017250NNM00020211120121427    4N0N  00000075000001205300001340332G0    TTTJY   005400370024
BI00A32G0    TZ21122EMW     202112027288-6547                CONNECTOR MALE ASS'Y     PCN000015000000015000FN00000000020211201000015000NNM00020211120121512    4N0N  00000075000001205300001340332G0    TTTJY   005400370024
BI00A32G0    TZ21121EMW     202111257289-6547                HOUSING FEMALE ASS'Y     PCN000019200000019200FN00000000020211201000019200NNM00020211120121427    1N0N  00000240000001152000001362032G0    TTTJY   005500360039
BI00A32G0    TZ21122EMW     202112027289-6547                HOUSING FEMALE ASS'Y     PCN000014400000014400FN00000000020211201000014400NNM00020211120121512    1N0N  00000240000001152000001362032G0    TTTJY   005500360039
BI00A32G0    TZ2112AEMW     202111257158-3006-90             RUBBER STOPPER           PCN000080000000080000FN00000000020211201000080000NNE00020211120121553    1C0C  00002000000000330600000386032G0    TTTJY   002700430014
BI00B32G2    SA21121 MW     202112137158-3009-60             RUBBER STOPPER           CCN000160000000160000FN00000000020211201000160000NNM00020211120120016    1C0C  00002000000000338000000386232G2    AISUAI  002700430014
BI00A32G2    SA21121 MW     202112077289-3342-30             HOUSING FEMALE ASS'Y     PCN000050400000050400FN00000000020211201000050400NNM00020211120120016    1N0N  00000240000000686400000901432G2    AISUAI  005500360039
BI00A32G9    TY21122TMW     202111237288-6547                CONNECTOR MALE ASS'Y     PCN000001500000001500FN00000000020211201000001500NNMM0020211120091022    4N0N  00000075000001205300001340332G9    TYTYC   005400370024
BI00A32G9    TY21122TMW     202112077289-3342-30             HOUSING FEMALE ASS'Y     PCN000002400000002400FN00000000020211201000002400NNMM0420211120123449    1N0N  00000240000000686400000901432G9    TYTYC   005500360039
BI00A32H0    TT21121DMW     202111257158-3006-90             RUBBER STOPPER           PCN000040000000040000FN00000000020211201000040000NNM00020211120121908    1C0C  00002000000000330600000386032H0    TTTJY   002700430014
BI00B32H0    TT21124VMW     202111307158-3006-90             RUBBER STOPPER           CCN000040000000040000FN00000000020211201000040000NNMD0420211120122155    1C0C  00002000000000330600000386032H0    TTTJY   002700430014
BI00A32H0    #TT21124VMW    202112267172-5629-80             RUBBER STOPPER           PCN000180000000180000FN00000000020211201000180000NNM00020211120121640    2H0H  00002000000000060000000111132H0    TTTJY   004300270014
BI00B32H0    TT2112AVMW     202111097327-6731-3W             BATTERY FUSE             CCN000033984000011200FY00001120020211201000000000NNEQ0420211120141716    4N0N  00000006400000697600000843032H0    TTTJY   005400370024
BI00B32H0    TT2112AVMW     202111307327-6731-3W             BATTERY FUSE             CCN000021184000018112FN00000000020211201000018112NNED0420211120141716    4N0N  00000006400000697600000843032H0    TTTJY   005400370024
BI00B32H0    TT2112AVMW     202111237327-6731-3W             BATTERY FUSE             CCN000004672000004672FN00000000020211201000004672NNEQ0420211120141716    4N0N  00000006400000697600000843032H0    TTTJY   005400370024
BI00A32H2    #TIJ1122       202111307172-5629-80             RUBBER STOPPER           PCN000360000000360000FN00000000020211201000360000NNMM0020211120125245    2H0H  00002000000000060000000111132H2    HVYHV   004300270014
BI00A32H2    TIJ111T        202111177289-3342-30             HOUSING FEMALE ASS'Y     PCN000024000000024000FN00000000020211101000024000NNED0020211120125715    1N0N  00000240000000686400000901432H2    HVYHV   005500360039
BI00A32H2    TIJ1114        202112027289-3342-30             HOUSING FEMALE ASS'Y     PCN000062400000062400FN00000000020211101000062400NNM00020211120125614    1N0N  00000240000000686400000901432H2    HVYHV   005500360039
BI00A32H7    FS21121DMW     202112017158-3006-90             RUBBER STOPPER           PCN000080000000080000FN00000000020211201000080000NNM00020211120104429    1C0C  00002000000000330600000386032H7    FYFSY   002700430014
BI00A32H7    FS21121DMW     202112017158-3009-60             RUBBER STOPPER           PCN000460000000460000FN00000000020211201000460000NNM00020211120104429    1C0C  00002000000000338000000386232H7    FYFSY   002700430014
BI00A32H7    FS21121DMW     202112017288-6547                CONNECTOR MALE ASS'Y     PCN000009750000009750FN00000000020211201000009750NNM00020211120104429    4N0N  00000075000001205300001340332H7    FYFSY   005400370024
BI00A32H7    FS21121DMW     202112017289-6547                HOUSING FEMALE ASS'Y     PCN000009600000009600FN00000000020211201000009600NNM00020211120104429    1N0N  00000240000001152000001362032H7    FYFSY   005500360039
BI00A32H7    #FS21122DMW    202112017158-3007-10             RUBBER STOPPER           PCN000160000000160000FN00000000020211201000160000NNMM0020211120144836    2H0H  00002000000000308000000362732H7    FYFSY   002700430014
BI00A32H7    #FS21122DMW    202112017172-5629-80             RUBBER STOPPER           PCN000200000000200000FN00000000020211201000200000NNMM0020211120144836    2H0H  00002000000000060000000111132H7    FYFSY   004300270014
BI00A32H7    #FS21122DMW    202112017172-5630-40             RUBBER STOPPER           PCN000240000000240000FN00000000020211201000240000NNMM0020211120104314    2H0H  00002000000000044000000095132H7    FYFSY   004300270014
BI00A32H8    TY21121 MW     202111307158-3006-90             RUBBER STOPPER           PCN000200000000200000FN00000000020211201000200000NNMD0420211120123525    1C0C  00002000000000330600000386032H8    TYTYC   002700430014
BI00A32J1    387313         202112207196-1461-02             TERMINAL FEMALE          PCN000216000000216000FN00000000020211101000216000NNMM0020211120124516    4P0P  00002400000000386400000671632J1    UKYEL-BL006400630015
BI00A32M1    TCV1114        202112017158-3009-60             RUBBER STOPPER           PCN000700000000700000FN00000000020211101000700000NNM00020211120124742    1C0C  00002000000000338000000386232M1    VNYEV   002700430014
BI00A32M1    #TCVL1121      202112077172-5629-80             RUBBER STOPPER           PCN000220000000060000FN00000000020211201000060000NNMD0220211120124558    2H0H  00002000000000060000000111132M1    VNYEV   004300270014
BI00A32M3    SM21113DMW     202111237172-5403-30             SEALED PACKING           PCN000048000000048000FN00000000020211101000048000NNM00020211120104939    1C0C  00000400000000653600000701732M3    SASAMI  004300270014
BI00A32M3    SM21114DMW     202111237172-5403-30             SEALED PACKING           PCN000048000000048000FN00000000020211101000048000NNM00020211120105002    1C0C  00000400000000653600000701732M3    SASAMI  004300270014
BI00A32M3    SM21115DMW     202111237172-5403-30             SEALED PACKING           PCN000048000000048000FN00000000020211101000048000NNM00020211120105046    1C0C  00000400000000653600000701732M3    SASAMI  004300270014
BI00A32M3    SM21114DMW     202111237289-3342-30             HOUSING FEMALE ASS'Y     PCN000012000000012000FN00000000020211101000012000NNM00020211120105021    1N0N  00000240000000686400000901432M3    SASAMI  005500360039
BI00A32M3    SM21115DMW     202111237289-3342-30             HOUSING FEMALE ASS'Y     PCN000009600000009600FN00000000020211101000009600NNM00020211120105113    1N0N  00000240000000686400000901432M3    SASAMI  005500360039
BI00A32M3    #SM21115DMW    202111247282-5528-70             HOUSING MALE ASS'Y       PCN000001000000001000FN00000000020211101000001000NNMM0020211120104835    2N0N  00000100000000230000000339032M3    SASAMI  005400370024
BI00A32M3    SM21121DMW     202111307172-5403-30             SEALED PACKING           PCN000064000000064000FN00000000020211201000064000NNM00020211120105144    1C0C  00000400000000653600000701732M3    SASAMI  004300270014
BI00A32M3    SM21121DMW     202111307289-3342-30             HOUSING FEMALE ASS'Y     PCN000021600000021600FN00000000020211201000021600NNM00020211120105157    1N0N  00000240000000686400000901432M3    SASAMI  005500360039
BI00A32M3    #SM21121DMW    202111247282-5528-70             HOUSING MALE ASS'Y       PCN000002000000002000FN00000000020211201000002000NNM00020211120104851    2N0N  00000100000000230000000339032M3    SASAMI  005400370024
BI00A32M4    #TL1115        202112017172-5629-80             RUBBER STOPPER           PCN000120000000120000FN00000000020211101000120000NNM00020211120104609    2H0H  00002000000000060000000111132M4    SISAI   004300270014
BI00A32M4    TP1115         202111267289-3342-30             HOUSING FEMALE ASS'Y     PCN000012000000012000FN00000000020211101000012000NNM00020211120104712    1N0N  00000240000000686400000901432M4    SISAI   005500360039
BI00A32N1    NST2111B 1     202111307158-3006-90             RUBBER STOPPER           PCN000020000000020000FN00000000020211101000020000NNM00020211120131026    1C0C  00002000000000330600000386032N1    TAYIPL  002700430014
BI00A32N1    NST2111B 2     202111307158-3006-90             RUBBER STOPPER           PCN000080000000080000FN00000000020211101000080000NNM00020211120131039    1C0C  00002000000000330600000386032N1    TAYIPL  002700430014
BI00A32N1    NST2111HCU     202111307158-3006-90             RUBBER STOPPER           PCN000040000000040000FN00000000020211101000040000NNE00020211120131059    1C0C  00002000000000330600000386032N1    TAYIPL  002700430014
BI00A32N1    NST2112B 1     202111307158-3006-90             RUBBER STOPPER           PCN000040000000040000FN00000000020211201000040000NNMM0020211120131125    1C0C  00002000000000330600000386032N1    TAYIPL  002700430014
BI00A32P8    #TAPI-1122     202111307289-4200-30             HOUSING FEMALE ASS'Y     PCN000006000000006000FN00000000020211201000006000NNM00020211120184604    2N0N  00000200000000926000001021032P8    YIYTM   005400370024
BI00A32Q8    EU2110BTMW     202111297289-3342-30             HOUSING FEMALE ASS'Y     PCN000004800000004800FN00000000020211001000004800NNE00020211120102122    1N0N  00000240000000686400000901432Q8    EMEMI   005500360039
BI00A32Q8    EU21114NMW     202111297196-1461-02             TERMINAL FEMALE          PCN002808000002808000FN00000000020211101002808000NNM00020211120102234    4P0P  00002400000000386400000671632Q8    EMEMI   006400630015
BI00A32Q8    EU21113NMW     202111187298-2278-30             HOUSING FEMALE ASS'Y     CCN000098400000048000FY00004800020211101000000000NNM00020211120103349    4N0N  00000240000001091700001295432Q8    EMEMI   005500360039
BI00A32Q8    EU21113TMW     202112037289-3342-30             HOUSING FEMALE ASS'Y     PCN000007200000007200FN00000000020211101000007200NNM00020211120102202    1N0N  00000240000000686400000901432Q8    EMEMI   005500360039
BI00A32Q8    EU21114TMW     202112037289-3342-30             HOUSING FEMALE ASS'Y     PCN000007200000007200FN00000000020211101000007200NNM00020211120102400    1N0N  00000240000000686400000901432Q8    EMEMI   005500360039
BI00A32Q8    EU21121NMW     202112037196-1461-02             TERMINAL FEMALE          PCN001632000001632000FN00000000020211201001632000NNM00020211120102436    4P0P  00002400000000386400000671632Q8    EMEMI   006400630015
BI00B32Q8    EU21122NMW     202112017196-1461-02             TERMINAL FEMALE          CCN003960000003960000FN00000000020211201003960000NNM00020211120102644    4P0P  00002400000000386400000671632Q8    EMEMI   006400630015
BI00B32Q8    EU21122TMW     202112017196-1103-02             TERMINAL                 CCN001912500001912500FN00000000020211201001912500NNM00020211120102806    4P0P  00002250000000429800000715032Q8    EMEMI   006400630015
BI00A32Q8    #EU21121TMW    202112017282-5528-70             HOUSING MALE ASS'Y       PCN000003000000003000FN00000000020211201000003000NNM00020211120101916    2N0N  00000100000000230000000339032Q8    EMEMI   005400370024
BI00A32Q8    #EU21123TMW    202112017282-5528-70             HOUSING MALE ASS'Y       PCN000005000000005000FN00000000020211201000005000NNM00020211120101928    2N0N  00000100000000230000000339032Q8    EMEMI   005400370024
BI00A32Q8    #EU2112A MW    202111297158-3007-10             RUBBER STOPPER           PCN000200000000200000FN00000000020211201000200000NNE00020211120102040    2H0H  00002000000000308000000362732Q8    EMEMI   002700430014
BI00B32Q8    EU21113NMW     202111247298-2278-30             HOUSING FEMALE ASS'Y     CCN000050400000050400FN00000000020211101000050400NNM00020211120103349    4N0N  00000240000001091700001295432Q8    EMEMI   005500360039
BI00A32R7    R-TAP210515    202111237158-3006-90             RUBBER STOPPER           PCN000020000000020000FN00000000020211101000020000NNEM0020211120124118    1C0C  00002000000000330600000386032R7    IVYCIC  002700430014
BI00A32R8    TT21121AMW     202111307158-3006-90             RUBBER STOPPER           PCN000020000000020000FN00000000020211201000020000NNM00020211120122951    1C0C  00002000000000330600000386032R8    TTTJY   002700430014
BI00A32R8    TT21121TMW     202111307158-3006-90             RUBBER STOPPER           PCN000020000000020000FN00000000020211201000020000NNM00020211120123121    1C0C  00002000000000330600000386032R8    TTTJY   002700430014
BI00A32R8    TT21121TMW     202111307158-3009-60             RUBBER STOPPER           PCN000020000000020000FN00000000020211201000020000NNM00020211120123121    1C0C  00002000000000338000000386232R8    TTTJY   002700430014
BI00B32R8    TT21122TMW     202111307158-3009-60             RUBBER STOPPER           CCN000020000000020000FN00000000020211201000020000NNM00020211120123243    1C0C  00002000000000338000000386232R8    TTTJY   002700430014
BI00A32R8    TT21121TMW     202111267288-6547                CONNECTOR MALE ASS'Y     PCN000001500000001500FN00000000020211201000001500NNM00020211120123149    4N0N  00000075000001205300001340332R8    TTTJY   005400370024
BI00A32R8    TT21122TMW     202112087288-6547                CONNECTOR MALE ASS'Y     PCN000001500000001500FN00000000020211201000001500NNM00020211120123243    4N0N  00000075000001205300001340332R8    TTTJY   005400370024
BI00A32R8    TT2110CTMW     202112017288-6547                CONNECTOR MALE ASS'Y     PCN000000750000000750FN00000000020211001000000750NNED0420211120122551    4N0N  00000075000001205300001340332R8    TTTJY   005400370024
BI00A32U5    DI1045         202112037289-3342-30             HOUSING FEMALE ASS'Y     PCN000028800000028800FN00000000020211201000028800NNM00020211120101617U5  1N0N  00000240000000686400000901432U5    AMAMSD  005500360039
BI00A32U5    DI1046         202112137289-3342-30             HOUSING FEMALE ASS'Y     PCN000024000000024000FN00000000020220101000024000NNM00020211120101740U5  1N0N  00000240000000686400000901432U5    AMAMSD  005500360039
BI00A32U5    DI1047         202112207289-3342-30             HOUSING FEMALE ASS'Y     PCN000024000000024000FN00000000020220101000024000NNM00020211120101823U5  1N0N  00000240000000686400000901432U5    AMAMSD  005500360039
BI00A32U5    #DI1048        202112207158-3007-10             RUBBER STOPPER           PCN000060000000060000FN00000000020220101000060000NNM00020211120101426U5  2H0H  00002000000000308000000362732U5    AMAMSD  002700430014
BI00A32U5    #DI1048        202112207172-5629-80             RUBBER STOPPER           PCN000120000000120000FN00000000020220101000120000NNM00020211120101426U5  2H0H  00002000000000060000000111132U5    AMAMSD  004300270014
BI00A32U5    #DI1048        202112207172-5630-40             RUBBER STOPPER           PCN000360000000360000FN00000000020220101000360000NNM00020211120101426U5  2H0H  00002000000000044000000095132U5    AMAMSD  004300270014
BI00A32U9    TPA147         202112167289-6547                HOUSING FEMALE ASS'Y     PCN000002400000002400FN00000000020211101000002400NNMM0020211120131629U9  1N0N  00000240000001152000001362032U9    YNYNA-E 005500360039
BI00A32W6    SW2111CQMW     202111227327-6870-30             MULTI FUSE               CCN000004320000001440FN00000000020211101000001440NNEQ0820211120090125    4N0N  00000028800001015200001181132W6    SYSYA-WJ005400370024
BI00A32W6    SW21121QMW     202112017288-6547                CONNECTOR MALE ASS'Y     PCN000005250000005250FN00000000020211201000005250NNMD0020211120120158    4N0N  00000075000001205300001340332W6    SYSYA-WJ005400370024
BI00A32W6    SW21121QMW     202111257327-6874-30             MULTI FUSE               CCN000008928000006048FN00000000020211201000006048NNM00020211120120322    4N0N  00000028800000991400001157332W6    SYSYA-WJ005400370024
BI00A32W6    SW21121QMW     202111227327-6880-30             MULTI FUSE               CCN000009504000000864FN00000000020211201000000864NNM00020211120141107    4N0N  00000028800001012600001178532W6    SYSYA-WJ005400370024
BI00A32W6    SW21121QMW     202111197327-6870-30             MULTI FUSE               CCN000002880000001440FY00000144020211201000000000NNMD0020211120120453    4N0N  00000028800001015200001181132W6    SYSYA-WJ005400370024
BI00A32W6    SW21121QMW     202111197327-6874-30             MULTI FUSE               CCN000006048000002880FY00000288020211201000000000NNMD0020211120120322    4N0N  00000028800000991400001157332W6    SYSYA-WJ005400370024
BI00A32W6    SW21121QMW     202111197327-6880-30             MULTI FUSE               CCN000006624000002016FY00000201620211201000000000NNMD0020211120120511    4N0N  00000028800001012600001178532W6    SYSYA-WJ005400370024
BI00A32W6    SW21121QMW     202111197327-6884-30             MULTI FUSE               CCN000005760000002880FY00000288020211201000000000NNMD0020211120120528    4N0N  00000028800000988900001154832W6    SYSYA-WJ005400370024
BI00A32W6    SW21121QMW     202111247327-6870-30             MULTI FUSE               CCN000001440000001440FN00000000020211201000001440NNMD0020211120120453    4N0N  00000028800001015200001181132W6    SYSYA-WJ005400370024
BI00A32W6    SW21121QMW     202111247327-6880-30             MULTI FUSE               CCN000004608000006624FN00000000020211201000006624NNMD0020211120141049    4N0N  00000028800001012600001178532W6    SYSYA-WJ005400370024
BI00A32W6    SW21121QMW     202111247327-6884-30             MULTI FUSE               CCN000002880000002880FN00000000020211201000002880NNMD0020211120120528    4N0N  00000028800000988900001154832W6    SYSYA-WJ005400370024
BI00A32W9    4500178485     202112027289-3342-30             HOUSING FEMALE ASS'Y     PCN000012000000012000FN00000000020211001000012000NNEM0020211120125112W9  1N0N  00000240000000686400000901432W9    HKYHK   005500360039
BI00A32W9    4500180109     202112087289-3342-30             HOUSING FEMALE ASS'Y     PCN000012000000012000FN00000000020211101000012000NNEM0020211120125132W9  1N0N  00000240000000686400000901432W9    HKYHK   005500360039
BI00A32X5    TIB1040        202112037288-6547                CONNECTOR MALE ASS'Y     PCN000020250000020250FN00000000020211101000020250NNM00020211120131814X5  4N0N  00000075000001205300001340332X5    EPYNA-E 005400370024
BI00A32X5    TIB1041        202112147288-6547                CONNECTOR MALE ASS'Y     PCN000019500000019500FN00000000020211101000019500NNM00020211120132021X5  4N0N  00000075000001205300001340332X5    EPYNA-E 005400370024
BI00A32X5    TIB1039A       202112027289-6547                HOUSING FEMALE ASS'Y     PCN000007200000007200FN00000000020211101000007200NNE00020211120131717X5  1N0N  00000240000001152000001362032X5    EPYNA-E 005500360039
BI00A32X5    TIB1045        202112077172-5403-30             SEALED PACKING           PCN000008000000008000FN00000000020211201000008000NNM00020211120132059X5  1C0C  00000400000000653600000701732X5    EPYNA-E 004300270014
BI00B32X5    TIB1046        202111107289-3342-40             HOUSING FEMALE ASS'Y     CCN000139200000076800FY00007680020220101000000000NNM00020211120150419X5  1N0N  00000240000000686400000901432X5    EPYNA-E 005500360039
BI00A32X5    TIB1047        202112077172-5403-30             SEALED PACKING           PCN000012000000012000FN00000000020220101000012000NNM00020211120132130X5  1C0C  00000400000000653600000701732X5    EPYNA-E 004300270014
BI00B32X5    TIB1046        202111227289-3342-40             HOUSING FEMALE ASS'Y     CCN000048000000048000FN00000000020220101000048000NNM00020211120150419X5  1N0N  00000240000000686400000901432X5    EPYNA-E 005500360039
BI00A32Y5    TTA32013       202112227288-6547                CONNECTOR MALE ASS'Y     PCN000006000000006000FN00000000020211201000006000NNMM0020211120123702    4N0N  00000075000001205300001340332Y5    BZYBL   005400370024
BI00A32Y5    TTA32013       202112227289-3342-30             HOUSING FEMALE ASS'Y     PCN000002400000002400FN00000000020211201000002400NNM00020211120123743    1N0N  00000240000000686400000901432Y5    BZYBL   005500360039
BI00A32Y5    TTA32021       202112227288-6547                CONNECTOR MALE ASS'Y     PCN000013500000013500FN00000000020220101000013500NNMD0420211120123816    4N0N  00000075000001205300001340332Y5    BZYBL   005400370024
BI00A32Y5    TTA32021       202112227289-3342-30             HOUSING FEMALE ASS'Y     PCN000019200000019200FN00000000020220101000019200NNMM0420211120123816    1N0N  00000240000000686400000901432Y5    BZYBL   005500360039
