BI00A1200    7360T51816     202201217289-3342                HOUSING FEMALE ASS'Y     CCN000009600000009600FY00000960020210901000000000NNED0420220121132050    1N0N  0000024000000068640000090141200    YCYC    005500360039
BI00A1200    7360T51815     202201217289-3342-90             HOUSING FEMALE ASS'Y     CCN000002400000002400FY00000240020210901000000000NNED0420220121132147    1N0N  0000024000000068640000090141200    YCYC    005500360039
BI00B1200    7860T51A04     202201277289-3342-30             HOUSING FEMALE ASS'Y     CCN000002400000002400FN00000000020211201000002400NNM00020220121130337    1N0N  0000024000000068640000090141200    YCYC    005500360039
BI00B1200    8640T51B03     202201277289-3342-30             HOUSING FEMALE ASS'Y     CCN000002400000002400FN00000000020220201000002400NNE00020220121161819    1N0N  0000024000000068640000090141200    YCYC    005500360039
BI00B1200    7860T51B04     202204077289-3342-30             HOUSING FEMALE ASS'Y     CCN000002400000002400FN00000000020220101000002400NNMD0420220121130337    1N0N  0000024000000068640000090141200    YCYC    005500360039
BI00A1200    #8670T51B01    202201187172-5630-40             RUBBER STOPPER           PCN000020000000020000FN00000000020220201000020000NNE00020220121160936    2H0H  0000200000000004400000009511200    YCYC    004300270014
BI00A1200    #8670T51B02    202202187172-5630-40             RUBBER STOPPER           PCN000020000000020000FN00000000020220201000020000NNE00020220121160943    2H0H  0000200000000004400000009511200    YCYC    004300270014
BI00B1200    8750T51B02     202202037288-6547                CONNECTOR MALE ASS'Y     CCN000000750000000750FN00000000020211201000000750NNMD0420220121130337    4N0N  0000007500000120530000134031200    YCYC    005400370024
BI00B1200    7860T51C06     202203317289-3342-30             HOUSING FEMALE ASS'Y     CCN000002400000002400FN00000000020220201000002400NNMD0420220121130337    1N0N  0000024000000068640000090141200    YCYC    005500360039
BI00A1200    MKH2022-010    202203047327-6985-30             MULTI FUSE               CCN000000288000000288FN00000000020220201000000288NNED0720220121130337    4N0N  0000002880000000000000000001200    YCYC    000000000000
BI00A1200    MKH2022-010    202203047327-6990-30             MULTI FUSE               CCN000000560000000560FN00000000020220201000000560NNED0720220121143439    4NON  0000005600000072400000090701200    YCYC    005400370024
BI00A1200    MKH2022-010    202203047327-6983-30             MAIN FUSE                CCN000000600000000600FN00000000020220201000000600NNED0720220121130337    4N0N  0000006000000000000000000001200    YCYC    000000000000
BI00A1200    CE22-MN-0017   202202287327-6994-3W             BATTERY FUSE             CCN000000072000000072FN00000000020220101000000072NNED0720220121143640    4N0N  0000000720000121510000143011200    YCYC    005500360039
BI00B1200    #BY02674       202203037154-5597-30             CASSETTE R/B             CCN000002400000002400FN00000000020220401000002400NNE   20220121130337    2F0F  0000008000000073600000095201200    YCYC    005500360039
BI00B1200    H722D50008     202203317297-1861-30             HOUSING MALE ASS'Y       CCN000006000000006000FN00000000020220401000006000NNE   20220121130337    4N0N  0000015000000070220000082731200    YCYC    005400370024
BI00B1200    #Y022D50035    202203247154-5597-30             CASSETTE R/B             CCN000001600000001600FN00000000020220401000001600NNE   20220121130337    2F0F  0000008000000073600000095201200    YCYC    005500360039
BI00B1200    #Y022D50036    202203247289-2912-40             HOUSING FEMALE ASS'Y     CCN000002000000002000FN00000000020220401000002000NNE   20220121130337    2N0N  0000020000000080400000093101200    YCYC    005400370024
BI00B1200    CE22-MN-0020   202202177195-1463-06             TERMINAL MALE            CCN000028500000028500FN00000000020220201000028500NNED0720220121151622    4P0P  0000285000000057900000076251200    YCYC    006400630015
BI00B1200    CE22-MN-0020   202202177195-1464-06             TERMINAL MALE            CCN000025500000025500FN00000000020220201000025500NNED0720220121151622    4P0P  0000255000000042080000072731200    YCYC    006400630015
BI00B1200    CE22-MN-0020   202202037196-1461-06             TERMINAL FEMALE          CCN000024000000024000FN00000000020220201000024000NNE   20220121151323    4P0P  0000240000000038640000069291200    YCYC    006400630015
BI00A1200    QA-22-C003     202201267289-0269                HOUSING SUB ASSEMBLY     PNN000022400000022400FN00000000020220101000022400NNED0020220121152041    1N0N  0000016000000100210000123451200    YCYC    005500360039
BI00B32AG    XG22041NMW     202203117158-3165-90             WIRE SEAL                CCN000280000000280000FN00000000020220401000280000NNMD0420220121153829    1C0C  00004000000000124000000172432AG    XGXGY   004300270014
BI00B32AG    XG22042NMW     202203187158-3165-90             WIRE SEAL                CCN000200000000200000FN00000000020220401000200000NNMD0420220121153837    1C0C  00004000000000124000000172432AG    XGXGY   004300270014
BI00B32AG    XG22043NMW     202203257158-3165-90             WIRE SEAL                CCN000160000000160000FN00000000020220401000160000NNMD0420220121153847    1C0C  00004000000000124000000172432AG    XGXGY   004300270014
BI00B32AG    XG22044NMW     202204017158-3165-90             WIRE SEAL                CCN000120000000120000FN00000000020220401000120000NNMD0420220121153857    1C0C  00004000000000124000000172432AG    XGXGY   004300270014
BI00B32AG    XG2203FLMW     202202187289-7615-30             HOUSING FEMALE ASS'Y     CCN000001920000001920FN00000000020220301000001920NNE   20220121130337    4N0N  00000032000000738000000948032AG    XGXGY   005400370024
BI00B32AG    #XG2203FLMW    202202187158-3121-80             WIRE SEAL                CCN000040000000040000FN00000000020220301000040000NNE   20220121130337    2C0C  00002000000000118000000187332AG    XGXGY   002700430014
BI00B32AG    XG2204BLMW     202203117289-4696-30             HOUSING FEMALE ASS'Y     CCN000006000000006000FN00000000020220401000006000NNE   20220121130337    4N0N  00000200000000913400001055432AG    XGXGY   005400370024
BI00B32AG    #XG2204BLMW    202203117158-3654-80             WIRE TUBE                CCN000120000000120000FN00000000020220401000120000NNE   20220121130337    2H0H  00004000000000104000000152232AG    XGXGY   004300270014
BI00B32AG    XG2203AQMW     202202047196-1460-02             TERMINAL FEMALE          CCN000085500000085500FN00000000020220301000085500NNE   20220121130337    4P0P  00002850000000444600000729832AG    XGXGY   006400630015
BI00B32AG    XG2203BQMW     202202187196-1460-02             TERMINAL FEMALE          CCN000085500000085500FN00000000020220301000085500NNE   20220121130337    4P0P  00002850000000444600000729832AG    XGXGY   006400630015
BI00B32AG    XG2203DNMW     202202047116-4120-02             TERMINAL                 CCN000006000000006000FN00000000020220301000006000NNE   20220121130337    4P0P  00000600000000780000001073632AG    XGXGY   006400630015
BI00B32AG    XG2203DNMW     202202047116-4121-02             TERMINAL                 CCN000054000000054000FN00000000020220301000054000NNE   20220121130337    4P0P  00000450000000618800000912432AG    XGXGY   006400630015
BI00B32AG    XG2203ENMW     202202187116-4415-02             TERMINAL                 CCN000152000000152000FN00000000020220301000152000NNE   20220121130337    4P0P  00003800000000596600000925732AG    XGXGY   006400630017
BI00B32AG    XG2203ENMW     202202187126-8853-02             TERMINAL                 CCN000015000000015000FN00000000020220301000015000NNE   20220121130337    4P0P  00000750000000562500000847732AG    XGXGY   006400630015
BI00B32AG    XG2203ENMW     202202187158-3165-90             WIRE SEAL                CCN000240000000240000FN00000000020220301000240000NNE   20220121130337    1C0C  00004000000000124000000172432AG    XGXGY   004300270014
BI00B32AG    XG2203ENMW     202202187158-3167-80             WIRE SEAL                CCN000120000000120000FN00000000020220301000120000NNE   20220121130337    1C0C  00002000000000048000000109032AG    XGXGY   002700430014
BI00B32AG    XG2204BNMW     202203117116-4122-02             TERMINAL                 CCN000009000000009000FN00000000020220401000009000NNE   20220121130337    4P0P  00000450000000656600000950232AG    XGXGY   006400630015
BI00B32AG    XG2204BNMW     202203117126-8855-02             TERMINAL                 CCN000024000000024000FN00000000020220401000024000NNE   20220121130337    4P0P  00000600000000510600000795832AG    XGXGY   006400630015
BI00B32AG    XG2204BNMW     202203117158-3165-90             WIRE SEAL                CCN000280000000280000FN00000000020220401000280000NNE   20220121130337    1C0C  00004000000000124000000172432AG    XGXGY   004300270014
BI00B32AG    XG2204BNMW     202203117158-3167-80             WIRE SEAL                CCN000080000000080000FN00000000020220401000080000NNE   20220121130337    1C0C  00002000000000048000000109032AG    XGXGY   002700430014
BI00B32AG    XG2204BNMW     202203117158-3168-80             SEALED                   CCN000040000000040000FN00000000020220401000040000NNE   20220121130337    1C0C  00002000000000044000000092132AG    XGXGY   004300260014
BI00B32AG    #XG2204BNMW    202203117123-6423-30             CONNECTOR                CCN000004000000004000FN00000000020220401000004000NNE   20220121130337    2F0F  00000200000001002000001167632AG    XGXGY   005600390023
BI00A32A7    ZZ22022BMW     202202117172-5403-30             SEALED PACKING           PCN000028000000028000FN00000000020220201000028000NNM00020220121160812    1C0C  00000400000000653600000701732A7    ZZZZY   004300270014
BI00A32A7    ZZ22022LMW     202202117172-5403-30             SEALED PACKING           PCN000048000000048000FN00000000020220201000048000NNM00020220121160828    1C0C  00000400000000653600000701732A7    ZZZZY   004300270014
BI00B32BG    #YY2203ANMW    202202107158-3007-10             RUBBER STOPPER           CCN000020000000020000FN00000000020220301000020000NNED0720220121145325    2H0H  00002000000000308000000362732BG    YGYYA   002700430014
BI00B32BG    #YY2203ANMW    202202037158-3008-80             RUBBER STOPPER           CCN000020000000020000FN00000000020220301000020000NNE   20220121145216    2C0C  00002000000000288000000343032BG    YGYYA   004300270014
BI00B32BG    YY2204AGMW     202203037116-4100-02             TERMINAL                 CCN000060000000060000FN00000000020220401000060000NNE   20220121152354    4P0P  00001500000000696000000990232BG    YGYYA   006400630015
BI00B32BG    YY2204AGMW     202203037116-4111-02             TERMINAL                 CCN000030000000030000FN00000000020220401000030000NNE   20220121152354    4P0P  00000750000000529500000817732BG    YGYYA   006400630015
BI00B32BG    YY2204AGMW     202203037116-4112-02             TERMINAL                 CCN000030000000030000FN00000000020220401000030000NNE   20220121152354    4P0P  00000600000000450000000738232BG    YGYYA   006400630015
BI00B32BG    YY2204AGMW     202203037158-3006-90             RUBBER STOPPER           CCN000020000000020000FN00000000020220401000020000NNE   20220121152354    1C0C  00002000000000330600000386032BG    YGYYA   002700430014
BI00A32CC    CTA32031       202201247289-3342-30             HOUSING FEMALE ASS'Y     CCN000024000000024000FN00000000020220301000024000NNE00020220121142929    1N0N  00000240000000686400000901432CC    BIYABCBU005500360039
BI00B32CG    S220126-S      202203307116-4025                TERMINAL                 CCN000016000000016000FN00000000020220301000016000NNE   20220121152516    4P0P  00001600000000644800000975132CG    ASASIACO006400630017
BI00B32CG    S220126-S      202203307116-4122-02             TERMINAL                 CCN000004500000004500FN00000000020220301000004500NNE   20220121152516    4P0P  00000450000000656600000950232CG    ASASIACO006400630015
BI00B32CG    S220126-S      202203307116-4120-02             TERMINAL                 CCN000006000000006000FN00000000020220301000006000NNE   20220121152516    4P0P  00000600000000780000001073632CG    ASASIACO006400630015
BI00B32CG    #S220127-S     202203307158-3121-80             WIRE SEAL                CCN000040000000040000FN00000000020220301000040000NNE   20220121152640    2C0C  00002000000000118000000187332CG    ASASIACO002700430014
BI00A32DE    #TCT2021       202202147172-5630-40             RUBBER STOPPER           PCN000060000000060000FN00000000020220201000060000NNM00020220121160723    2H0H  00002000000000044000000095132DE    TVYEV-TV004300270014
BI00B32DE    TCT203C        202202247017-1180-02             TERMINAL                 CCN000072000000072000FN00000000020220301000072000NNE   20220121130337    4P0P  00007200000001065600001229032DE    TVYEV-TV005100280028
BI00B32DE    TCT203C        202202247114-4020                TERMINAL                 CCN000042000000042000FN00000000020220301000042000NNE   20220121130337    4P0P  00002100000000875700001169332DE    TVYEV-TV006400630015
BI00B32DE    TCT203C        202202247114-4110-02             TERMINAL                 CCN000015000000015000FN00000000020220301000015000NNE   20220121130337    4P0P  00001500000000901500001230132DE    TVYEV-TV006400630017
BI00B32DE    TCT203C        202202247114-4112-02             TERMINAL                 CCN000009000000009000FN00000000020220301000009000NNE   20220121130337    4P0P  00000900000000598500000927132DE    TVYEV-TV006400630017
BI00B32DE    TCT203C        202202247114-4624-02             TERMINAL                 CCN000024000000024000FN00000000020220301000024000NNE   20220121130337    4P0P  00002400000000895200001188832DE    TVYEV-TV006400630015
BI00B32DE    TCT203C        202202247114-4728-02             TERMINAL                 CCN000060000000060000FN00000000020220301000060000NNE   20220121130337    4P0P  00003000000000510000000804232DE    TVYEV-TV006400630015
BI00B32DE    TCT203C        202202247116-1685-02             TERMINAL                 CCN000240000000240000FN00000000020220301000240000NNE   20220121130337    4P0P  00002400000000897600001065232DE    TVYEV-TV005100280028
BI00B32DE    TCT203C        202202247116-1686-02             TERMINAL                 CCN000021000000021000FN00000000020220301000021000NNE   20220121130337    4P0P  00002100000000869400001021632DE    TVYEV-TV005100280028
BI00B32DE    TCT203C        202202247116-2640                TERMINAL                 CCN000018000000018000FN00000000020220301000018000NNE   20220121130337    4P0P  00001800000001018800001196632DE    TVYEV-TV005100280028
BI00B32DE    TCT203C        202202247116-2891-02             TERMINAL                 CCN000060000000060000FN00000000020220301000060000NNE   20220121130337    4P0P  00001500000000982500001145932DE    TVYEV-TV005100280028
BI00B32DE    TCT203C        202202247116-2892-02             TERMINAL                 CCN000060000000060000FN00000000020220301000060000NNE   20220121130337    4P0P  00001200000000818400000981832DE    TVYEV-TV005100280028
BI00B32DE    TCT203C        202202247116-2893-02             TERMINAL                 CCN000096000000096000FN00000000020220301000096000NNE   20220121130337    4P0P  00001200000000895200001058632DE    TVYEV-TV005100280028
BI00B32DE    TCT203C        202202247116-3154-08             TERMINAL                 CCN000027000000027000FN00000000020220301000027000NNE   20220121130337    4P0P  00002700000000475200000760432DE    TVYEV-TV006400630015
BI00B32DE    TCT203C        202202247116-4020                TERMINAL                 CCN000027000000027000FN00000000020220301000027000NNE   20220121130337    4P0P  00001350000000513000000798232DE    TVYEV-TV006400630015
BI00B32DE    TCT203C        202202247116-4025                TERMINAL                 CCN000048000000048000FN00000000020220301000048000NNE   20220121130337    4P0P  00001600000000644800000975132DE    TVYEV-TV006400630017
BI00B32DE    TCT203C        202202247116-4032                TERMINAL                 CCN000006000000006000FN00000000020220301000006000NNE   20220121130337    4P0P  00000600000000532800000818032DE    TVYEV-TV006400630015
BI00B32DE    TCT203C        202202247116-4102-02             TERMINAL                 CCN000012000000012000FN00000000020220301000012000NNE   20220121130337    4P0P  00001200000000553200000841432DE    TVYEV-TV006400630015
BI00B32DE    TCT203C        202202247116-4415-02             TERMINAL                 CCN000038000000038000FN00000000020220301000038000NNE   20220121130337    4P0P  00003800000000596600000925732DE    TVYEV-TV006400630017
BI00B32DE    TCT203C        202202247116-4416-02             TERMINAL                 CCN000032000000032000FN00000000020220301000032000NNE   20220121130337    4P0P  00003200000000518400000847132DE    TVYEV-TV006400630017
BI00B32DE    TCT203C        202202247116-5035-02             TERMINAL                 CCN000030000000030000FN00000000020220301000030000NNE   20220121130337    4P0P  00001500000000543000000828232DE    TVYEV-TV006400630015
BI00B32DE    TCT203C        202202247116-5044-02             TERMINAL                 CCN000112000000112000FN00000000020220301000112000NNE   20220121130337    4P0P  00001600000000641600000986332DE    TVYEV-TV006400630017
BI00B32DE    TCT203C        202202247116-5045-02             TERMINAL                 CCN000160000000160000FN00000000020220301000160000NNE   20220121130337    4P0P  00001600000000678400001007132DE    TVYEV-TV006400630017
BI00B32DE    TCT203C        202202247126-8853-02             TERMINAL                 CCN000052500000052500FN00000000020220301000052500NNE   20220121130337    4P0P  00000750000000562500000847732DE    TVYEV-TV006400630015
BI00B32DE    TCT203C        202202247126-8854-02             TERMINAL                 CCN000105000000105000FN00000000020220301000105000NNE   20220121130337    4P0P  00000750000000604500000889732DE    TVYEV-TV006400630015
BI00B32DE    TCT203C        202202247126-8855-02             TERMINAL                 CCN000066000000066000FN00000000020220301000066000NNE   20220121130337    4P0P  00000600000000510600000795832DE    TVYEV-TV006400630015
BI00B32DE    TCT203C        202202247158-3006-90             RUBBER STOPPER           CCN000300000000300000FN00000000020220301000300000NNE   20220121130337    1C0C  00002000000000330600000386032DE    TVYEV-TV002700430014
BI00B32DE    TCT203C        202202247158-3167-80             WIRE SEAL                CCN000020000000020000FN00000000020220301000020000NNE   20220121130337    1C0C  00002000000000048000000109032DE    TVYEV-TV002700430014
BI00B32DE    TCT203C        202202247195-1480-02             TERMINAL MALE            CCN000024000000024000FN00000000020220301000024000NNE   20220121130337    4P0P  00002400000000422400000716632DE    TVYEV-TV006400630015
BI00B32DE    TCT203C        202202247282-4577                HOUSING MALE ASS'Y       CCN000002400000002400FN00000000020220301000002400NNE   20220121130337    4N0N  00000240000000964800001174832DE    TVYEV-TV005500360039
BI00B32DE    TCT203C        202202247283-1288-10             CONNECTOR HOUSING        CCN000006000000006000FN00000000020220301000006000NNE   20220121130337    4N0N  00000120000001381000001637032DE    TVYEV-TV005600390040
BI00B32DE    TCT203C        202202247283-4576                HOUSING FEMALE ASS'Y     CCN000004800000004800FN00000000020220301000004800NNE   20220121130337    4N0N  00000480000000651300000871332DE    TVYEV-TV005500360039
BI00B32DE    TCT203C        202202247283-6120                CONNECTOR HOUSING        CCN000004500000004500FN00000000020220301000004500NNE   20220121130337    1N0N  00000150000000914000001143032DE    TVYEV-TV005600390040
BI00B32DE    TCT203C        202202247283-7449-30             HOUSING FEMALE ASS'Y     CCN000012000000012000FN00000000020220301000012000NNE   20220121130337    4N0N  00000240000001200000001410032DE    TVYEV-TV005500360039
BI00B32DE    TCT203C        202202247283-7449-40             HOUSING FEMALE ASS'Y     CCN000004800000004800FN00000000020220301000004800NNE   20220121130337    4N0N  00000240000001200000001410032DE    TVYEV-TV005500360039
BI00B32DE    TCT203C        202202247286-1900                CONNECTOR HOUSING        CCN000004800000004800FN00000000020220301000004800NNE   20220121130337    4N0N  00000480000001161600001376632DE    TVYEV-TV005500360039
BI00B32DE    TCT203C        202202247287-9234                JOINT CONNECTOR          CCN000019200000019200FN00000000020220301000019200NNE   20220121130337    4N0N  00000960000000893800001184832DE    TVYEV-TV005500360039
BI00B32DE    TCT203C        202202247288-3335-30             HOUSING MALE             CCN000001500000001500FN00000000020220301000001500NNE   20220121130337    4N0N  00000150000000867000001012032DE    TVYEV-TV005400370024
BI00B32DE    TCT203C        202202247382-1481-10             CONNECTOR                CCN000007200000007200FN00000000020220301000007200NNE   20220121130337    4N0N  00000080000001025000001183032DE    TVYEV-TV005600390040
BI00B32DE    #TCT203C       202202247282-7040-40             HOUSING MALE ASS'Y       CCN000001200000001200FN00000000020220301000001200NNE   20220121130337    2N0N  00000120000000620400000731932DE    TVYEV-TV005400370024
BI00B32D1    DFTC2215       202202177288-6547                CONNECTOR MALE ASS'Y     CCN000005250000005250FN00000000020220401000005250NNMD0020220121141940    4N0N  00000075000001205300001340332D1    TOYOT-K 005400370024
BI00B32D1    DFTC2215       202202177289-3342                HOUSING FEMALE ASS'Y     CCN000016800000016800FN00000000020220401000016800NNMD0020220121141940    1N0N  00000240000000686400000901432D1    TOYOT-K 005500360039
BI00B32D1    DFTC2215       202202247289-3342-30             HOUSING FEMALE ASS'Y     CCN000038400000038400FN00000000020220401000038400NNMD0020220121141940    1N0N  00000240000000686400000901432D1    TOYOT-K 005500360039
BI00B32D1    DFTC2215       202202177289-3342-40             HOUSING FEMALE ASS'Y     CCN000004800000004800FN00000000020220401000004800NNMD0020220121141940    1N0N  00000240000000686400000901432D1    TOYOT-K 005500360039
BI00B32D1    DFTC2215       202202177289-3342-90             HOUSING FEMALE ASS'Y     CCN000002400000002400FN00000000020220401000002400NNMD0020220121141940    1N0N  00000240000000686400000901432D1    TOYOT-K 005500360039
BI00B32D1    DFTC2215       202202177289-6547                HOUSING FEMALE ASS'Y     CCN000004800000004800FN00000000020220401000004800NNMD0020220121141940    1N0N  00000240000001152000001362032D1    TOYOT-K 005500360039
BI00A32D2    DGTC2211       202201207296-1024-02             TERMINAL ALUMINIUM       CCN000018000000018000FY00001800020220301000000000NNM00020220121131958    4P0P  00001800000000698400000983632D2    TGYOT-G 006400630015
BI00B32D2    DGTC2216       202203037289-6547                HOUSING FEMALE ASS'Y     CCN000009600000009600FN00000000020220401000009600NNMD0420220121142154    1N0N  00000240000001152000001362032D2    TGYOT-G 005500360039
BI00A32D9    #I20702        202202077172-5630-40             RUBBER STOPPER           PCN000020000000020000FN00000000020220201000020000NNM00020220121163454    2H0H  00002000000000044000000095132D9    UEHESTO 004300270014
BI00B32EJ    T211221P01     202201257158-3070-80             RUBBER STOPPER           CCN000080000000080000FN00000000020220101000080000NNE00020220121143022EJ  1C0C  00004000000000276000000333332EJ    EJYKBO  002700430014
BI00B32EJ    T220117P01     202202247158-3169-40             SEALING PLUG             CCN001040000001040000FN00000000020220201001040000NNED0220220121130337EJ  1C0C  00004000000000156000000204132EJ    EJYKBO  004300260014
BI00B32EJ    T220118P01     202203037158-3169-40             SEALING PLUG             CCN001320000001320000FN00000000020220201001320000NNED0220220121130337EJ  1C0C  00004000000000156000000204132EJ    EJYKBO  004300260014
BI00B32EJ    T220120P01     202203037116-4037                TERMINAL                 CCN000006000000006000FN00000000020220301000006000NNE   20220121130337EJ  4P0P  00000600000000600000000894232EJ    EJYKBO  006400630015
BI00B32EJ    T220120P01     202203037116-4025                TERMINAL                 CCN000016000000016000FN00000000020220301000016000NNE   20220121130337EJ  4P0P  00001600000000644800000975132EJ    EJYKBO  006400630017
BI00B32EJ    T220120P01     202203037116-4102-02             TERMINAL                 CCN000024000000024000FN00000000020220301000024000NNE   20220121130337EJ  4P0P  00001200000000553200000841432EJ    EJYKBO  006400630015
BI00B32EJ    T220120P01     202203037158-3006-90             RUBBER STOPPER           CCN000020000000020000FN00000000020220301000020000NNE   20220121130337EJ  1C0C  00002000000000330600000386032EJ    EJYKBO  002700430014
BI00B32EJ    T220120P01     202203037222-7564-40             CONNECTOR                CCN000000500000000500FN00000000020220301000000500NNE   20220121130337EJ  1N0N  00000050000000967000001097032EJ    EJYKBO  005500360039
BI00B32EJ    T220120P01     202203037283-1968-30             CONNECTOR                CCN000001800000001800FN00000000020220301000001800NNE   20220121130337EJ  1N0N  00000090000001140000001318332EJ    EJYKBO  005600390040
BI00B32EJ    T220120P01     202203037116-4124-02             TERMINAL                 CCN000009000000009000FN00000000020220301000009000NNE   20220121130337EJ  4P0P  00000300000000459900000753532EJ    EJYKBO  006400630015
BI00B32EJ    T220120P01     202203037196-1461-06             TERMINAL FEMALE          CCN000048000000048000FN00000000020220301000048000NNE   20220121130337EJ  4P0P  00002400000000386400000692932EJ    EJYKBO  006400630015
BI00B32EJ    T220120P01     202203037114-4110-02             TERMINAL                 CCN000015000000015000FN00000000020220301000015000NNE   20220121130337EJ  4P0P  00001500000000901500001230132EJ    EJYKBO  006400630017
BI00B32EJ    T220120P01     202203037114-4111-02             TERMINAL                 CCN000012000000012000FN00000000020220301000012000NNE   20220121130337EJ  4P0P  00001200000000758400001087032EJ    EJYKBO  006400630017
BI00B32EJ    T220120P01     202203037114-4112-02             TERMINAL                 CCN000027000000027000FN00000000020220301000027000NNE   20220121130337EJ  4P0P  00000900000000598500000927132EJ    EJYKBO  006400630017
BI00B32EJ    T220120P01     202203037114-4100-02             TERMINAL                 CCN000018000000018000FN00000000020220301000018000NNE   20220121130337EJ  4P0P  00001800000000748800001077432EJ    EJYKBO  006400630017
BI00B32EJ    T220120P01     202203037116-4100-02             TERMINAL                 CCN000060000000060000FN00000000020220301000060000NNE   20220121130337EJ  4P0P  00001500000000696000000990232EJ    EJYKBO  006400630015
BI00B32EJ    T220120P01     202203037116-4101-02             TERMINAL                 CCN000012000000012000FN00000000020220301000012000NNE   20220121130337EJ  4P0P  00001200000000582000000876232EJ    EJYKBO  006400630015
BI00B32EJ    T220120P01     202203037116-4120-02             TERMINAL                 CCN000018000000018000FN00000000020220301000018000NNE   20220121130337EJ  4P0P  00000600000000780000001073632EJ    EJYKBO  006400630015
BI00B32EJ    T220120P01     202203037116-4122-02             TERMINAL                 CCN000027000000027000FN00000000020220301000027000NNE   20220121130337EJ  4P0P  00000450000000656600000950232EJ    EJYKBO  006400630015
BI00B32EJ    T220120P01     202203037116-4121-02             TERMINAL                 CCN000058500000058500FN00000000020220301000058500NNE   20220121130337EJ  4P0P  00000450000000618800000912432EJ    EJYKBO  006400630015
BI00B32EJ    T220120P01     202203037116-4112-02             TERMINAL                 CCN000054000000054000FN00000000020220301000054000NNE   20220121130337EJ  4P0P  00000600000000450000000738232EJ    EJYKBO  006400630015
BI00B32EJ    T220120P01     202203037116-4110-02             TERMINAL                 CCN000036000000036000FN00000000020220301000036000NNE   20220121130337EJ  4P0P  00000900000000594000000882232EJ    EJYKBO  006400630015
BI00B32EJ    T220120P01     202203037116-4111-02             TERMINAL                 CCN000015000000015000FN00000000020220301000015000NNE   20220121130337EJ  4P0P  00000750000000529500000817732EJ    EJYKBO  006400630015
BI00B32EJ    T220120P01     202203037116-2951-02             TERMINAL                 CCN000005400000005400FN00000000020220301000005400NNE   20220121130337EJ  4P0P  00000540000000817600001111832EJ    EJYKBO  006400630015
BI00B32EJ    T220120P01     202203037158-3166-60             WIRE SEAL                CCN000920000000920000FN00000000020220301000920000NNE   20220121130337EJ  1C0C  00004000000000104000000152432EJ    EJYKBO  002700430014
BI00B32EJ    T220120P01     202203037158-3167-80             WIRE SEAL                CCN000580000000580000FN00000000020220301000580000NNE   20220121130337EJ  1C0C  00002000000000048000000109032EJ    EJYKBO  002700430014
BI00B32EJ    T220120P01     202203037158-3168-80             SEALED                   CCN000020000000020000FN00000000020220301000020000NNE   20220121130337EJ  1C0C  00002000000000044000000092132EJ    EJYKBO  004300260014
BI00B32EJ    T220120P01     202203107158-3169-40             SEALING PLUG             CCN000440000000440000FN00000000020220301000440000NNED0220220121130337EJ  1C0C  00004000000000156000000204132EJ    EJYKBO  004300260014
BI00B32EJ    T220120P01     202203037158-3167-61             WIRE SEAL                CCN000020000000020000FN00000000020220301000020000NNE   20220121130337EJ  1C0C  00002000000000048000000096432EJ    EJYKBO  004300270014
BI00B32EJ    #T220120P01    202203037158-3120-90             CONNECTOR WIRE SEAL      CCN000040000000040000FN00000000020220301000040000NNE   20220121130337EJ  2C0C  00002000000000136000000194032EJ    EJYKBO  002700430014
BI00B32EJ    #T220120P01    202203037157-3992-90             CONNECTOR SEALED         CCN000040000000040000FN00000000020220301000040000NNE   20220121130337EJ  2C0C  00004000000000300000000363332EJ    EJYKBO  002700430014
BI00B32EJ    #T220120P01    202203037123-6423-30             CONNECTOR                CCN000004000000004000FN00000000020220301000004000NNE   20220121130337EJ  2F0F  00000200000001002000001167632EJ    EJYKBO  005600390023
BI00B32EJ    #T220120P01    202203037282-6458-40             CONNECTOR                CCN000002000000002000FN00000000020220301000002000NNE   20220121130337EJ  2N0N  00000100000001206000001350532EJ    EJYKBO  005500360039
BI00B32EJ    #T220120P01    202203037157-3952-80             RUBBER STOPPER           CCN000010000000010000FN00000000020220301000010000NNE   20220121130337EJ  2C0C  00001000000000117000000175032EJ    EJYKBO  002700430014
BI00B32EJ    @T220120P01    202203037123-4312-80             HOUSING                  CCN000002400000002400FN00000000020220301000002400NNE   20220121130337EJ  3F0F  00000080000000644200000794032EJ    EJYKBO  005500360039
BI00A32G0    #TZ22021EMW    202202097172-5630-40             RUBBER STOPPER           PCN000360000000360000FN00000000020220201000360000NNM00020220121160636    2H0H  00002000000000044000000095132G0    TTTJY   004300270014
BI00A32G0    #TZ22022EMW    202202027172-5630-40             RUBBER STOPPER           PCN000200000000200000FN00000000020220201000200000NNMD0020220121160619    2H0H  00002000000000044000000095132G0    TTTJY   004300270014
BI00A32G7    #JJ22021MMW    202202017172-5630-40             RUBBER STOPPER           PCN000060000000060000FN00000000020220201000060000NNM00020220121160514    2H0H  00002000000000044000000095132G7    JIJAI   004300270014
BI00A32G7    #JJ2202AMMW    202202017172-5630-40             RUBBER STOPPER           PCN000040000000040000FN00000000020220201000040000NNE00020220121160527    2H0H  00002000000000044000000095132G7    JIJAI   004300270014
BI00A32G7    #JJ2202CMMW    202202017172-5630-40             RUBBER STOPPER           PCN000020000000020000FN00000000020220201000020000NNE00020220121160542    2H0H  00002000000000044000000095132G7    JIJAI   004300270014
BI00B32G7    JJ2202FMMW     202202107126-8889-02             FUSE TERMINAL            CCN000006000000006000FN00000000020220201000006000NNED0620220121130337    4P0P  00000600000000448200000733432G7    JIJAI   006400630015
BI00B32G7    JJ2202FMMW     202202107126-8890-02             FUSE TERMINAL            CCN000006000000006000FN00000000020220201000006000NNED0620220121130337    4P0P  00000600000000465000000750232G7    JIJAI   006400630015
BI00B32G7    JJ2202FMMW     202202107126-8891-02             FUSE TERMINAL            CCN000006000000006000FN00000000020220201000006000NNED0620220121130337    4P0P  00000600000000481800000767032G7    JIJAI   006400630015
BI00B32G7    JJ2202FMMW     202202107126-8892-02             FUSE TERMINAL            CCN000006000000006000FN00000000020220201000006000NNED0620220121130337    4P0P  00000600000000495000000780232G7    JIJAI   006400630015
BI00B32G7    JJ2202FMMW     202202107195-2046-02             TERMINAL MALE            CCN000008400000008400FN00000000020220201000008400NNED0620220121130337    4P0P  00000840000000818200001111832G7    JIJAI   006400630015
BI00B32G7    JJ2202FMMW     202203247196-2024-02             TERMINAL FEMALE          CCN000024000000024000FN00000000020220201000024000NNED0620220121132013    4P0P  00002400000000919200001082632G7    JIJAI   005100280028
BI00B32G7    JJ2202FMMW     202203247196-2027-02             TERMINAL FEMALE          CCN000018000000018000FN00000000020220201000018000NNED0620220121132013    4P0P  00001800000000783000000946432G7    JIJAI   005100280028
BI00B32G7    JJ2202FMMW     202202107196-2032-02             TERMINAL FEMALE          CCN000015000000015000FN00000000020220201000015000NNED0620220121130337    4P0P  00001500000001071000001234432G7    JIJAI   005100280028
BI00B32G7    JJ2203B MW     202202107017-1180-02             TERMINAL                 CCN000072000000072000FN00000000020220301000072000NNE   20220121130337    4P0P  00007200000001065600001229032G7    JIJAI   005100280028
BI00B32G7    JJ2203B MW     202202107116-1685-02             TERMINAL                 CCN000048000000048000FN00000000020220301000048000NNE   20220121130337    4P0P  00002400000000897600001065232G7    JIJAI   005100280028
BI00B32G7    JJ2203B MW     202202107116-2640                TERMINAL                 CCN000018000000018000FN00000000020220301000018000NNE   20220121130337    4P0P  00001800000001018800001196632G7    JIJAI   005100280028
BI00B32G7    JJ2203B MW     202202107116-2892-02             TERMINAL                 CCN000012000000012000FN00000000020220301000012000NNE   20220121130337    4P0P  00001200000000818400000981832G7    JIJAI   005100280028
BI00B32G7    JJ2203B MW     202202107116-4022                TERMINAL                 CCN000013500000013500FN00000000020220301000013500NNE   20220121130337    4P0P  00001350000000618300000903532G7    JIJAI   006400630015
BI00B32G7    JJ2203B MW     202202107116-4025                TERMINAL                 CCN000032000000032000FN00000000020220301000032000NNE   20220121130337    4P0P  00001600000000644800000975132G7    JIJAI   006400630017
BI00B32G7    JJ2203B MW     202202107116-4026                TERMINAL                 CCN000016000000016000FN00000000020220301000016000NNE   20220121130337    4P0P  00001600000000664000000994332G7    JIJAI   006400630017
BI00B32G7    JJ2203B MW     202202107116-4028-08             TERMINAL FEMALE          CCN000112000000112000FN00000000020220301000112000NNE   20220121130337    4P0P  00001600000000652800000981532G7    JIJAI   006400630017
BI00B32G7    JJ2203B MW     202202107116-4416-02             TERMINAL                 CCN000096000000096000FN00000000020220301000096000NNE   20220121130337    4P0P  00003200000000518400000847132G7    JIJAI   006400630017
BI00B32G7    JJ2203B MW     202202107116-4780-02             TERMINAL FEMALE          CCN000015000000015000FN00000000020220301000015000NNE   20220121130337    4P0P  00001500000000691500000985732G7    JIJAI   006400630015
BI00B32G7    JJ2203B MW     202202107116-5045-02             TERMINAL                 CCN000240000000240000FN00000000020220301000240000NNE   20220121130337    4P0P  00001600000000678400001007132G7    JIJAI   006400630017
BI00B32G7    JJ2203B MW     202202107158-3006-90             RUBBER STOPPER           CCN000100000000100000FN00000000020220301000100000NNE   20220121130337    1C0C  00002000000000330600000386032G7    JIJAI   002700430014
BI00B32G7    JJ2203B MW     202202107158-3166-60             WIRE SEAL                CCN000040000000040000FN00000000020220301000040000NNE   20220121130337    1C0C  00004000000000104000000152432G7    JIJAI   002700430014
BI00B32G7    JJ2203B MW     202202107158-3167-80             WIRE SEAL                CCN000020000000020000FN00000000020220301000020000NNE   20220121130337    1C0C  00002000000000048000000109032G7    JIJAI   002700430014
BI00B32G7    JJ2203B MW     202202107282-4854                HOUSING MALE ASS'Y       CCN000001200000001200FN00000000020220301000001200NNE   20220121130337    4N0N  00000120000000698900000908832G7    JIJAI   005500360039
BI00B32G7    #JJ2203B MW    202202107123-6347                CONNECTOR HOUSING        CCN000006400000006400FN00000000020220301000006400NNE   20220121130337    2F0F  00000160000000647000000904832G7    JIJAI   005500360039
BI00B32G7    #JJ2203B MW    202202107157-6826-80             REAR HOLDER              CCN000015000000015000FN00000000020220301000015000NNE   20220121130337    2F0F  00001500000001234500001394132G7    JIJAI   005600390040
BI00B32G7    #JJ2203B MW    202202107158-3003-90             RUBBER STOPPER           CCN000100000000100000FN00000000020220301000100000NNE   20220121130337    2C0C  00002000000000250000000306032G7    JIJAI   002700430014
BI00B32G7    #JJ2203B MW    202202107158-3004-40             RUBBER STOPPER           CCN000160000000160000FN00000000020220301000160000NNE   20220121130337    2C0C  00002000000000234000000306332G7    JIJAI   002700430014
BI00B32G7    #JJ2203B MW    202202107158-3007-10             RUBBER STOPPER           CCN000060000000060000FN00000000020220301000060000NNE   20220121130337    2H0H  00002000000000308000000362732G7    JIJAI   002700430014
BI00B32G7    #JJ2203B MW    202202107158-3008-80             RUBBER STOPPER           CCN000020000000020000FN00000000020220301000020000NNE   20220121130337    2C0C  00002000000000288000000343032G7    JIJAI   004300270014
BI00B32G7    #JJ2203B MW    202202107158-3120-90             CONNECTOR WIRE SEAL      CCN000020000000020000FN00000000020220301000020000NNE   20220121130337    2C0C  00002000000000136000000194032G7    JIJAI   002700430014
BI00B32G7    JJ2203BKMW     202202107116-4415-02             TERMINAL                 CCN000038000000038000FN00000000020220301000038000NNE   20220121130337    4P0P  00003800000000596600000925732G7    JIJAI   006400630017
BI00B32G7    #JJ2203BKMW    202202107182-9631-40             JOINT CONNECTOR          CCN000003000000003000FN00000000020220301000003000NNE   20220121130337    2F0F  00000300000001182000001307432G7    JIJAI   005400370024
BI00B32G7    @JJ2203BKMW    202202107123-4312-30             HOUSING                  CCN000001600000001600FN00000000020220301000001600NNE   20220121130337    3F0F  00000080000000641900000793232G7    JIJAI   005500360039
BI00B32G7    JJ2203BLMW     202202107116-4114-02             TERMINAL                 CCN000010500000010500FN00000000020220301000010500NNE   20220121130337    4P0P  00001050000000693000000981232G7    JIJAI   006400630015
BI00B32G7    #JJ2203BLMW    202202107189-0149                HLC HOUSING FEMALE       CCN000002000000002000FN00000000020220301000002000NNE   20220121130337    2F0F  00000200000000970000001078532G7    JIJAI   005400370024
BI00B32G7    JJ2203BMMW     202202107196-1104-02             TERMINAL                 CCN000090000000090000FN00000000020220301000090000NNE   20220121130337    4P0P  00002250000000441000000726232G7    JIJAI   006400630015
BI00B32G7    #JJ2203BMMW    202202107172-5626-90             RUBBER STOPPER           CCN000080000000080000FN00000000020220301000080000NNE   20220121130337    2H0H  00002000000000076400000127832G7    JIJAI   004300270014
BI00B32G7    #JJ2203BMMW    202202107172-5627-60             RUBBER STOPPER           CCN000080000000080000FN00000000020220301000080000NNE   20220121130337    2H0H  00002000000000070400000121832G7    JIJAI   004300270014
BI00B32G7    #JJ2203BMMW    202202107172-5630-40             RUBBER STOPPER           CCN000340000000340000FN00000000020220301000340000NNE   20220121130337    2H0H  00002000000000044000000095132G7    JIJAI   004300270014
BI00B32G7    #JJ2203BMMW    202202107172-5631-60             RUBBER STOPPER           CCN000080000000080000FN00000000020220301000080000NNE   20220121130337    2H0H  00002000000000042000000093132G7    JIJAI   004300270014
BI00B32G7    @JJ2203BMMW    202202107287-4098                CONNECTOR FEMALE         CCN000000800000002400FN00000000020220301000002400NNE   20220121130337    3N0N  00000240000000668600000908032G7    JIJAI   005500360039
BI00A32H2    #TIJ1124       202201317172-5629-80             RUBBER STOPPER           PCN000240000000240000FN00000000020211201000240000NNM00020220121160301    2H0H  00002000000000060000000111132H2    HVYHV   004300270014
BI00B32H2    TIJ203L        202202047196-2023-02             TERMINAL FEMALE          CCN000024000000024000FN00000000020220201000024000NNE   20220121130337    4P0P  00002400000000897600001061032H2    HVYHV   005100280028
BI00B32H7    #FS22023DMW    202201277114-4022                TERMINAL                 CCN000015000000015000FN00000000020220201000015000NNM00020220121143821    2F0P  00001500000000708000001120632H7    FYFSY   006400630015
BI00A32H7    #FS22031DMW    202201257158-3007-10             RUBBER STOPPER           CCN000180000000180000FN00000000020220301000180000NNMM0020220121130337    2H0H  00002000000000308000000362732H7    FYFSY   002700430014
BI00A32H7    #FS22031DMW    202201257289-4200-30             HOUSING FEMALE ASS'Y     CCN000010000000010000FN00000000020220301000010000NNMM0020220121130337    2N0N  00000200000000926000001021032H7    FYFSY   005400370024
BI00A32H8    #TY22012KMW    202202047172-5629-80             RUBBER STOPPER           PCN000040000000040000FN00000000020220101000040000NNMM0020220121160212    2H0H  00002000000000060000000111132H8    TYTYC   004300270014
BI00A32H8    #TY22013KMW    202202047172-5630-40             RUBBER STOPPER           PCN000020000000020000FN00000000020220101000020000NNMM0020220121160134    2H0H  00002000000000044000000095132H8    TYTYC   004300270014
BI00A32H8    #TY22021KMW    202202097172-5629-80             RUBBER STOPPER           PCN000040000000040000FN00000000020220201000040000NNM00020220121160105    2H0H  00002000000000060000000111132H8    TYTYC   004300270014
BI00A32H8    #TY22021KMW    202202097172-5630-40             RUBBER STOPPER           PCN000020000000020000FN00000000020220201000020000NNM00020220121160105    2H0H  00002000000000044000000095132H8    TYTYC   004300270014
BI00A32H8    #TY22022KMW    202202157172-5630-40             RUBBER STOPPER           PCN000020000000020000FN00000000020220201000020000NNMM0020220121160009    2H0H  00002000000000044000000095132H8    TYTYC   004300270014
BI00B32J1    390382         202202077158-3168-80             SEALED                   CCN001600000001600000FN00000000020220201001600000NNMD0020220121130337    1C0C  00002000000000044000000092132J1    UKYEL-BL004300260014
BI00B32J1    390542         202203077114-1475                TERMINAL                 CCN000013500000013500FN00000000020220301000013500NNE   20220121130337    4P0P  00001350000000480600000774232J1    UKYEL-BL006400630015
BI00B32J1    390542         202203077114-4231-02             TERMINAL                 CCN000090000000090000FN00000000020220301000090000NNE   20220121130337    4P0P  00001800000000554400000848032J1    UKYEL-BL006400630015
BI00B32J1    390542         202203077114-6041                TERMINAL                 CCN000003600000003600FN00000000020220301000003600NNE   20220121130337    4P0P  00000360000000580700000824232J1    UKYEL-BL006400630015
BI00B32J1    390542         202203077116-1180                TERMINAL                 CCN000019500000019500FN00000000020220301000019500NNE   20220121130337    1P0P  00001950000000618200000903432J1    UKYEL-BL006400630015
BI00B32J1    390542         202203077126-8850-02             TERMINAL                 CCN000018000000018000FN00000000020220301000018000NNE   20220121130337    1P0P  00000900000000672300000957532J1    UKYEL-BL006400630015
BI00B32J1    390542         202203077158-3023                RUBBER STOPPER           CCN000005000000005000FN00000000020220301000005000NNE   20220121130337    1C0C  00000500000000443500000502032J1    UKYEL-BL002700430014
BI00B32J1    390542         202203077158-3070-80             RUBBER STOPPER           CCN000080000000080000FN00000000020220301000080000NNE   20220121130337    1C0C  00004000000000276000000333332J1    UKYEL-BL002700430014
BI00B32J1    390542         202203077158-3165-90             WIRE SEAL                CCN000080000000080000FN00000000020220301000080000NNE   20220121130337    1C0C  00004000000000124000000172432J1    UKYEL-BL004300270014
BI00B32J1    390542         202203077283-1968-30             CONNECTOR                CCN000001800000001800FN00000000020220301000001800NNE   20220121130337    1N0N  00000090000001140000001318332J1    UKYEL-BL005600390040
BI00B32J1    390542         202203077289-4696-30             HOUSING FEMALE ASS'Y     CCN000006000000006000FN00000000020220301000006000NNE   20220121130337    4N0N  00000200000000913400001055432J1    UKYEL-BL005400370024
BI00B32J1    #390542        202203077157-3646                RUBBER STOPPER           CCN000020000000020000FN00000000020220301000020000NNE   20220121130337    2H0H  00002000000000184000000255232J1    UKYEL-BL002700430014
BI00B32J1    #390542        202203077158-3003-90             RUBBER STOPPER           CCN000020000000020000FN00000000020220301000020000NNE   20220121130337    2C0C  00002000000000250000000306032J1    UKYEL-BL002700430014
BI00B32J1    #390542        202203077158-3375-80             CONNECTOR WIRE SEAL      CCN000020000000020000FN00000000020220301000020000NNE   20220121130337    2C0C  00002000000000156000000214332J1    UKYEL-BL002700430014
BI00B32J1    #390542        202203077282-6446-30             CONNECTOR                CCN000003000000003000FN00000000020220301000003000NNE   20220121130337    2N0N  00000150000001185000001335032J1    UKYEL-BL005500360039
BI00B32J1    #390542        202203077282-6457-40             CONNECTOR                CCN000000800000000800FN00000000020220301000000800NNE   20220121130337    2N0N  00000080000001137000001421332J1    UKYEL-BL005600390040
BI00B32J1    390541         202202287114-1475                TERMINAL                 CCN000013500000013500FN00000000020220201000013500NNE   20220121130337    4P0P  00001350000000480600000774232J1    UKYEL-BL006400630015
BI00B32J1    390627         202202147017-1180-02             TERMINAL                 CCN000072000000072000FN00000000020220201000072000NNM   20220121130337    4P0P  00007200000001065600001229032J1    UKYEL-BL005100280028
BI00B32J1    390627         202202147017-1181-02             TERMINAL                 CCN000063000000063000FN00000000020220201000063000NNM   20220121130337    4P0P  00006300000001089900001266832J1    UKYEL-BL005100280028
BI00B32J1    390627         202202147116-4020                TERMINAL                 CCN000202500000202500FN00000000020220201000202500NNM   20220121130337    4P0P  00001350000000513000000798232J1    UKYEL-BL006400630015
BI00B32J1    390627         202202147126-8851-02             TERMINAL                 CCN000018000000018000FN00000000020220201000018000NNM   20220121130337    1P0P  00000900000000739800001025032J1    UKYEL-BL006400630015
BI00B32J1    390627         202202147158-3006-90             RUBBER STOPPER           CCN000020000000020000FN00000000020220201000020000NNM   20220121130337    1C0C  00002000000000330600000386032J1    UKYEL-BL002700430014
BI00B32J1    390627         202202147158-3070-80             RUBBER STOPPER           CCN000080000000080000FN00000000020220201000080000NNM   20220121130337    1C0C  00004000000000276000000333332J1    UKYEL-BL002700430014
BI00B32J1    390627         202202147158-3165-90             WIRE SEAL                CCN000080000000080000FN00000000020220201000080000NNM   20220121130337    1C0C  00004000000000124000000172432J1    UKYEL-BL004300270014
BI00B32J1    390627         202202147158-3166-60             WIRE SEAL                CCN002160000002160000FN00000000020220201002160000NNM   20220121130337    1C0C  00004000000000104000000152432J1    UKYEL-BL002700430014
BI00B32J1    390627         202202147158-3167-61             WIRE SEAL                CCN000060000000060000FN00000000020220201000060000NNM   20220121130337    1C0C  00002000000000048000000096432J1    UKYEL-BL004300270014
BI00B32J1    390627         202202147158-3167-80             WIRE SEAL                CCN002640000002640000FN00000000020220201002640000NNM   20220121130337    1C0C  00002000000000048000000109032J1    UKYEL-BL002700430014
BI00B32J1    390627         202202147158-3168-80             SEALED                   CCN001320000001320000FN00000000020220201001320000NNM   20220121130337    1C0C  00002000000000044000000092132J1    UKYEL-BL004300260014
BI00B32J1    390627         202202147196-1461-06             TERMINAL FEMALE          CCN000024000000024000FN00000000020220201000024000NNM   20220121130337    4P0P  00002400000000386400000692932J1    UKYEL-BL006400630015
BI00B32J1    390627         202202147282-5574-10             CONNECTOR                CCN000006400000006400FN00000000020220201000006400NNM   20220121130337    4N0N  00000080000001235000001423032J1    UKYEL-BL005600390040
BI00B32J1    390627         202202147282-6448-40             CONNECTOR                CCN000000800000000800FN00000000020220201000000800NNM   20220121130337    4N0N  00000080000000887000001152732J1    UKYEL-BL005600390040
BI00B32J1    390627         202202147282-6568-40             CONNECTOR                CCN000005000000005000FN00000000020220201000005000NNM   20220121130337    4N0N  00000100000001206000001370732J1    UKYEL-BL005500360039
BI00B32J1    390627         202202147283-1040                CONNECTOR                CCN000008000000008000FN00000000020220201000008000NNM   20220121130337    4N0N  00000200000000396000000670032J1    UKYEL-BL005600390040
BI00B32J1    390627         202202147283-5623-30             CONNECTOR                CCN000006400000006400FN00000000020220201000006400NNM   20220121130337    4N0N  00000160000001520000001804032J1    UKYEL-BL005600390040
BI00B32J1    390627         202202147283-5846                HOUSING                  CCN000001500000001500FN00000000020220201000001500NNM   20220121130337    1N0N  00000150000000885000001102032J1    UKYEL-BL005600390040
BI00B32J1    390627         202202147283-6388-40             CONNECTOR                CCN000002000000002000FN00000000020220201000002000NNM   20220121130337    4N0N  00000200000001029000001173532J1    UKYEL-BL005500360039
BI00B32J1    390627         202202147288-5000                HOUSING MALE ASS'Y       CCN000016800000016128FN00000000020220201000016128NNMQ0020220121130337    1N0N  00000033600000825200001035232J1    UKYEL-BL005400370024
BI00B32J1    390627         202202147288-7969                HYBRID MALE ASS'Y        CCN000005760000005760FN00000000020220201000005760NNM   20220121130337    1N0N  00000032000000876200001101732J1    UKYEL-BL005400370024
BI00B32J1    390627         202202147289-4696-30             HOUSING FEMALE ASS'Y     CCN000002000000002000FN00000000020220201000002000NNM   20220121130337    4N0N  00000200000000913400001055432J1    UKYEL-BL005400370024
BI00B32J1    390627         202202147298-1865-30             HOUSING FEMALE ASS'Y     CCN000165600000165600FN00000000020220201000165600NNM   20220121130337    4N0N  00000240000001003200001204532J1    UKYEL-BL005500360039
BI00B32J1    390627         202202147298-1869-30             HOUSING FEMALE ASS'Y     CCN000032400000032400FN00000000020220201000032400NNM   20220121130337    4N0N  00000120000000737000000939832J1    UKYEL-BL005500360039
BI00B32J1    390627         202202147298-2507-30             HOUSING FEMALE ASS'Y     CCN000002400000002400FN00000000020220201000002400NNM   20220121130337    4N0N  00000120000000713200000914532J1    UKYEL-BL005500360039
BI00B32J1    #390627        202202147047-5344                RETAINER                 CCN000030000000030000FN00000000020220201000030000NNM   20220121130337    2F0F  00001000000000870000001016032J1    UKYEL-BL005600390023
BI00B32J1    #390627        202202147134-4547-30             COVER                    CCN000007500000007500FN00000000020220201000007500NNM   20220121130337    2F0F  00000250000000989000001156732J1    UKYEL-BL005600390040
BI00B32J1    #390627        202202147158-3120-90             CONNECTOR WIRE SEAL      CCN000440000000440000FN00000000020220201000440000NNM   20220121130337    2C0C  00002000000000136000000194032J1    UKYEL-BL002700430014
BI00B32J1    #390627        202202147158-3374-90             CONNECTOR WIRE SEAL      CCN000020000000020000FN00000000020220201000020000NNM   20220121130337    2H0H  00002000000000172000000229332J1    UKYEL-BL002700430014
BI00B32J1    #390627        202202147158-3376-50             CONNECTOR WIRE SEAL      CCN000020000000020000FN00000000020220201000020000NNM   20220121130337    2C0C  00002000000000184000000240732J1    UKYEL-BL002700430014
BI00B32J1    #390627        202202147174-1164                COVER                    CCN000018400000018400FN00000000020220201000018400NNM   20220121130337    2F0F  00000080000000592000000712032J1    UKYEL-BL005500360039
BI00B32J1    #390627        202202147174-1515                FRONT DOOR COVER         CCN000003600000003600FN00000000020220201000003600NNM   20220121130337    2F0F  00000060000000490200000610232J1    UKYEL-BL005500360039
BI00B32J1    #390627        202202147282-3243-40             CONNECTOR                CCN000007200000007200FN00000000020220201000007200NNM   20220121130337    2N0N  00000080000001006000001282332J1    UKYEL-BL005600390040
BI00B32J1    #390627        202202147282-6446-40             CONNECTOR                CCN000006000000006000FN00000000020220201000006000NNM   20220121130337    2N0N  00000150000001185000001368032J1    UKYEL-BL005500360039
BI00B32J1    #390627        202202147282-6457-40             CONNECTOR                CCN000003200000003200FN00000000020220201000003200NNM   20220121130337    2N0N  00000080000001137000001421332J1    UKYEL-BL005600390040
BI00B32J1    #390627        202202147282-8395-40             CONNECTOR                CCN000002000000002000FN00000000020220201000002000NNM   20220121130337    2N0N  00000100000001009000001188032J1    UKYEL-BL005500360039
BI00B32J1    #390627        202202147283-4192-40             CONNECTOR                CCN000006960000006960FN00000000020220201000006960NNM   20220121130337    2N0N  00000024000000846000000986032J1    UKYEL-BL005600390040
BI00B32J1    #390627        202202147283-8226-30             CONNECTOR                CCN000002000000002000FN00000000020220201000002000NNM   20220121130337    2N0N  00000200000000820000001008032J1    UKYEL-BL005400370024
BI00B32J1    #390627        202202147283-8397-40             CONNECTOR                CCN000004620000004620FN00000000020220201000004620NNM   20220121130337    2N0N  00000154000001007000001222732J1    UKYEL-BL005600390023
BI00A32J1    390627         202201317288-5000                HOUSING MALE ASS'Y       CCN000000672000000672FN00000000020220201000000672NNMM0020220121130337    1N0N  00000033600000825200001035232J1    UKYEL-BL005400370024
BI00B32K8    #K1220010118   202202257137-2200                CONNECTOR PACKING        CCN000005000000005000FN00000000020220401000005000NNM   20220121130337    2C0C  00000500000000136000000211332K8    ELELCOM 004300270014
BI00B32K8    #K1220010118   202202257137-2717-50             SEALED CONNECTOR         CCN000024000000024000FN00000000020220401000024000NNM   20220121130337    2C0C  00000400000000212800000284032K8    ELELCOM 002700430014
BI00B32K8    #K1220010118   202202257137-2718-50             SEALED CONNECTOR         CCN000005000000005000FN00000000020220401000005000NNM   20220121130337    2C0C  00000100000000118300000236632K8    ELELCOM 002700430014
BI00A32M1    #TCVL2021      202202047172-5629-80             RUBBER STOPPER           PCN000060000000060000FN00000000020220201000060000NNM00020220121155615    2H0H  00002000000000060000000111132M1    VNYEV   004300270014
BI00B32M1    #QA-22-S002    202202037158-3008-80             RUBBER STOPPER           PNN000040000000040000FN00000000020220101000040000NNEQ0020220121150329    2C0C  00002000000000288000000343032M1    VNYEV   004300270014
BI00B32M1    TCV202A        202202037195-1935-02             TERMINAL MALE            CCN000019500000019500FN00000000020220201000019500NNED0720220121130337    4P0P  00001950000000670800000964432M1    VNYEV   006400630015
BI00B32M1    TCV202A        202202037196-1935-02             TERMINAL FEMALE          CCN000018000000018000FN00000000020220201000018000NNED0720220121130337    4P0P  00001800000000534600000819832M1    VNYEV   006400630015
BI00B32M1    TCV202A        202202037196-1936-02             TERMINAL FEMALE          CCN000040500000040500FN00000000020220201000040500NNED0720220121130337    4P0P  00001350000000441500000726732M1    VNYEV   006400630015
BI00B32M1    TCV202A        202202037196-1937-02             TERMINAL FEMALE          CCN000013500000013500FN00000000020220201000013500NNED0720220121130337    4P0P  00001350000000446900000732132M1    VNYEV   006400630015
BI00B32M3    SM22023MMW     202201187116-4115-02             TERMINAL                 CCN000008400000008400FY00000840020220201000000000NNM00020220121132326    4P0P  00000840000000593000000881232M3    SASAMI  006400630015
BI00B32M3    SM22023MMW     202201187116-4116-02             TERMINAL                 CCN000006900000006900FY00000690020220201000000000NNM00020220121132326    4P0P  00000690000000517500000805732M3    SASAMI  006400630015
BI00B32M3    SM2202AEMW     202202037289-7212-30             HOUSING FEMALE ASS'Y     CCN000000960000000960FN00000000020220201000000960NNE   20220121130337    4N0N  00000024000001388400001593432M3    SASAMI  005500360039
BI00B32M3    SM2202AEMW     202202037289-7213-30             HOUSING FEMALE ASS'Y     CCN000000480000000480FN00000000020220201000000480NNE   20220121130337    4N0N  00000024000001352800001667832M3    SASAMI  005500360039
BI00B32M3    #SM2202AEMW    202202037174-1315-30             SEALED COVER             CCN000001600000001600FN00000000020220201000001600NNE   20220121130337    2F0F  00000080000000782000000902032M3    SASAMI  005500360039
BI00B32M3    #SM2202AEMW    202202037289-2912-30             HOUSING FEMALE ASS'Y     CCN000002000000002000FN00000000020220201000002000NNE   20220121130337    2N0N  00000200000000804000000929032M3    SASAMI  005400370024
BI00B32M3    #SM2202ARMW    202202107137-3319-90             SEALED PACKING           CCN000003000000003000FN00000000020220201000003000NNE   20220121130337    2H0H  00000100000000498000000555132M3    SASAMI  004300270014
BI00B32M3    #SM2202ARMW    202202107172-5937-90             SEAL RUBBER              CCN000008000000008000FN00000000020220201000008000NNE   20220121130337    2H0H  00000100000000620000000666832M3    SASAMI  004300270014
BI00B32M3    #SM2202ARMW    202202107185-1495                HOUSING                  CCN000001848000001848FN00000000020220201000001848NNE   20220121130337    2F0F  00000008400000903800001005532M3    SASAMI  005500360039
BI00B32M3    #SM2202ARMW    202202107185-1496                HOUSING                  CCN000002380000002380FN00000000020220201000002380NNE   20220121130337    2F0F  00000014000000997300001237932M3    SASAMI  005500360039
BI00B32M3    #SM2202ARMW    202202107185-9192                FRONT HOLDER             CCN000003300000003300FN00000000020220201000003300NNE   20220121130337    2F0F  00000030000000527700000808532M3    SASAMI  005500360039
BI00B32M3    #SM2202ARMW    202202107185-9193                REAR HOLDER              CCN000005940000005940FN00000000020220201000005940NNE   20220121130337    2F0F  00000066000000500900000855032M3    SASAMI  005400370024
BI00B32M3    #SM2202ARMW    202202107185-9194                FRONT HOLDER             CCN000001000000001000FN00000000020220201000001000NNE   20220121130337    2F0F  00000100000000551500000674232M3    SASAMI  005400370024
BI00B32M3    #SM2202ARMW    202202107185-9195-40             REAR HOLDER              CCN000001000000001000FN00000000020220201000001000NNE   20220121130337    2F0F  00000100000000692200000815232M3    SASAMI  005400370024
BI00B32M3    SM2202CDMW     202202107282-4578-40             HOUSING MALE ASS'Y       CCN000001200000001200FN00000000020220201000001200NNE   20220121130337    4N0N  00000120000000782600000992632M3    SASAMI  005500360039
BI00B32M3    SM2202CDMW     202202107283-4577-90             CONNECTOR HOUSING        CCN000004800000004800FN00000000020220201000004800NNE   20220121130337    4N0N  00000480000000916800001136832M3    SASAMI  005500360039
BI00B32M3    SM2202CDMW     202202107283-5832-30             CONNECTOR HOUSING        CCN000002400000002400FN00000000020220201000002400NNE   20220121130337    1N0N  00000240000000723800000873832M3    SASAMI  005500360039
BI00B32M3    SM2202CDMW     202202107286-1899                HOUSING SUB ASSEMBLY     CCN000000336000000336FN00000000020220201000000336NNE   20220121130337    4N0N  00000033600000814800001010832M3    SASAMI  005400370024
BI00B32M3    @SM2202CDMW    202202107283-1100-30             CONNECTOR ASS'Y          CCN000001600000001600FN00000000020220201000001600NNE   20220121130337    3N0N  00000160000000561600000803032M3    SASAMI  005500360039
BI00B32M3    SM2202D MW     202202107114-4728-02             TERMINAL                 CCN000060000000060000FN00000000020220201000060000NNE   20220121130337    4P0P  00003000000000510000000804232M3    SASAMI  006400630015
BI00B32M3    SM2202D MW     202202107116-4020                TERMINAL                 CCN000027000000027000FN00000000020220201000027000NNE   20220121130337    4P0P  00001350000000513000000798232M3    SASAMI  006400630015
BI00B32M3    SM2202D MW     202202107116-4025                TERMINAL                 CCN000032000000032000FN00000000020220201000032000NNE   20220121130337    4P0P  00001600000000644800000975132M3    SASAMI  006400630017
BI00B32M3    SM2202D MW     202202107116-4026                TERMINAL                 CCN000016000000016000FN00000000020220201000016000NNE   20220121130337    4P0P  00001600000000664000000994332M3    SASAMI  006400630017
BI00B32M3    SM2202D MW     202202107116-4114-02             TERMINAL                 CCN000010500000010500FN00000000020220201000010500NNE   20220121130337    4P0P  00001050000000693000000981232M3    SASAMI  006400630015
BI00B32M3    SM2202D MW     202202107116-4780-02             TERMINAL FEMALE          CCN000015000000015000FN00000000020220201000015000NNE   20220121130337    4P0P  00001500000000691500000985732M3    SASAMI  006400630015
BI00B32M3    SM2202D MW     202202107116-5035-02             TERMINAL                 CCN000015000000015000FN00000000020220201000015000NNE   20220121130337    4P0P  00001500000000543000000828232M3    SASAMI  006400630015
BI00B32M3    SM2202D MW     202202107116-5750-02             TERMINAL                 CCN000045000000045000FN00000000020220201000045000NNE   20220121130337    4P0P  00001500000000457500000742732M3    SASAMI  006400630015
BI00B32M3    SM2202D MW     202202107158-3006-90             RUBBER STOPPER           CCN000020000000020000FN00000000020220201000020000NNE   20220121130337    1C0C  00002000000000330600000386032M3    SASAMI  002700430014
BI00B32M3    SM2202D MW     202202107158-3009-60             RUBBER STOPPER           CCN000040000000040000FN00000000020220201000040000NNE   20220121130337    1C0C  00002000000000338000000386232M3    SASAMI  002700430014
BI00B32M3    SM2202D MW     202202107283-1968-30             CONNECTOR                CCN000000900000000900FN00000000020220201000000900NNE   20220121130337    1N0N  00000090000001140000001318332M3    SASAMI  005600390040
BI00B32M3    #SM2202D MW    202202107116-4021                TERMINAL                 CCN000013500000013500FN00000000020220201000013500NNE   20220121130337    2F0P  00001350000000534600000868832M3    SASAMI  006400630015
BI00B32M3    #SM2202D MW    202202107183-2414                CONNECTOR HOUSING        CCN000004800000004800FN00000000020220201000004800NNE   20220121130337    2F0F  00000480000000779200001061032M3    SASAMI  005500360039
BI00B32M4    TP2023         202201187017-1180-02             TERMINAL                 CCN000072000000072000FY00007200020220201000000000NNM00020220121132536    4P0P  00007200000001065600001229032M4    SISAI   005100280028
BI00B32M4    TP2023         202201187017-1182-02             TERMINAL                 CCN000045000000045000FY00004500020220201000000000NNM00020220121132536    4P0P  00004500000001165500001318632M4    SISAI   005100280028
BI00B32M4    TP2023         202201187114-4020                TERMINAL                 CCN000042000000042000FY00004200020220201000000000NNM00020220121132536    4P0P  00002100000000875700001169332M4    SISAI   006400630015
BI00B32M4    TP2023         202201187114-4021                TERMINAL                 CCN000030000000030000FY00003000020220201000000000NNM00020220121132536    4P0P  00001500000000670500000964132M4    SISAI   006400630015
BI00B32M4    TP2023         202201187114-4032                TERMINAL                 CCN000037500000037500FY00003750020220201000000000NNM00020220121132536    4P0P  00000750000000735000001063632M4    SISAI   006400630017
BI00B32M4    TP2023         202201187114-4112-02             TERMINAL                 CCN000018000000018000FY00001800020220201000000000NNM00020220121132536    4P0P  00000900000000598500000927132M4    SISAI   006400630017
BI00B32M4    TP2023         202201187114-4728-02             TERMINAL                 CCN000180000000180000FY00018000020220201000000000NNM00020220121132536    4P0P  00003000000000510000000804232M4    SISAI   006400630015
BI00B32M4    TP2023         202201187114-4729-02             TERMINAL                 CCN000150000000150000FY00015000020220201000000000NNM00020220121132536    4P0P  00003000000000516000000810232M4    SISAI   006400630015
BI00B32M4    TP2023         202201187114-5746-02             TERMINAL                 CCN000063000000063000FY00006300020220201000000000NNM00020220121132536    4P0P  00002100000000695100000988732M4    SISAI   006400630015
BI00B32M4    TP2023         202201187114-5747-02             TERMINAL                 CCN000054000000054000FY00005400020220201000000000NNM00020220121132536    4P0P  00001800000000626400000920032M4    SISAI   006400630015
BI00B32M4    TP2023         202201187114-5753-02             TERMINAL                 CCN000081000000081000FY00008100020220201000000000NNM00020220121132536    4P0P  00002700000000847800001141432M4    SISAI   006400630015
BI00B32M4    TP2023         202201187116-1685-02             TERMINAL                 CCN000144000000144000FY00014400020220201000000000NNM00020220121132536    4P0P  00002400000000897600001065232M4    SISAI   005100280028
BI00B32M4    TP2023         202201187116-1686-02             TERMINAL                 CCN000021000000021000FY00002100020220201000000000NNM00020220121132536    4P0P  00002100000000869400001021632M4    SISAI   005100280028
BI00B32M4    TP2023         202201187116-2640                TERMINAL                 CCN000072000000072000FY00007200020220201000000000NNM00020220121132536    4P0P  00001800000001018800001196632M4    SISAI   005100280028
BI00B32M4    TP2023         202201187116-2641                TERMINAL                 CCN000018000000018000FY00001800020220201000000000NNM00020220121132536    4P0P  00001800000001161000001344632M4    SISAI   005100280028
BI00B32M4    TP2023         202201277283-1288                CONNECTOR HOUSING        CCN000002400000002400FN00000000020220201000002400NNM00020220121132711    4N0N  00000120000001381000001637032M4    SISAI   005600390040
BI00B32M4    TP2023         202201187114-4728-08             TERMINAL                 CCN000030000000030000FY00003000020220201000000000NNM00020220121132536    4P0P  00003000000000507000000801232M4    SISAI   006400630015
BI00B32M4    TP2023         202201187114-5096-02             TERMINAL                 CCN000090000000090000FY00009000020220201000000000NNM00020220121132536    4P0P  00003000000000498000000792232M4    SISAI   006400630015
BI00B32M4    TP2023         202201277289-3342-30             HOUSING FEMALE ASS'Y     CCN000031200000031200FN00000000020220201000031200NNM00020220121132656    1N0N  00000240000000686400000901432M4    SISAI   005500360039
BI00B32M4    TP2023         202201187114-5096-08             TERMINAL                 CCN000030000000030000FY00003000020220201000000000NNM00020220121132536    4P0P  00003000000000498000000792232M4    SISAI   006400630015
BI00B32M4    TP2023         202201277288-3340-30             HOUSING MALE             CCN000024000000024000FN00000900020220201000015000NNM00020220121132721    4N0N  00000150000000861500001006432M4    SISAI   005400370024
BI00B32M4    TP2023         202201187114-4729-08             TERMINAL                 CCN000030000000030000FY00003000020220201000000000NNM00020220121132536    4P0P  00003000000000522000000816232M4    SISAI   006400630015
BI00B32M4    TP2023         202201187116-2891-02             TERMINAL                 CCN000180000000180000FY00018000020220201000000000NNM00020220121132536    4P0P  00001500000000982500001145932M4    SISAI   005100280028
BI00B32M4    TP2023         202201187116-2892-02             TERMINAL                 CCN000084000000084000FY00008400020220201000000000NNM00020220121132536    4P0P  00001200000000818400000981832M4    SISAI   005100280028
BI00B32M4    TP2023         202201187116-2893-02             TERMINAL                 CCN000228000000228000FY00022800020220201000000000NNM00020220121132536    4P0P  00001200000000895200001058632M4    SISAI   005100280028
BI00B32M4    TP2023         202201187116-3153-02             TERMINAL FEMALE          CCN001404000001404000FY00140400020220201000000000NNM00020220121132536    4P0P  00002700000000459000000744232M4    SISAI   006400630015
BI00B32M4    TP2032A        202202177288-3339-30             HOUSING MALE             CCN000001500000001500FN00000000020220301000001500NNE   20220121130337    4N0N  00000150000000867000001012032M4    SISAI   005400370024
BI00B32M4    TP2032A        202202177196-1481-02             TERMINAL FEMALE          CCN000008000000024000FN00000000020220301000024000NNE   20220121130337    4P0P  00002400000000422400000707632M4    SISAI   006400630015
BI00B32N1    NST2116ECU     202202177158-3070-80             RUBBER STOPPER           CCN000320000000320000FN00000000020220301000320000NNED0220220121130337    1C0C  00004000000000276000000333332N1    TAYIPL  002700430014
BI00A32P8    #TAPI-2015     202202117172-5629-80             RUBBER STOPPER           PCN000140000000140000FN00000000020220101000140000NNMD0020220121130337    2H0H  00002000000000060000000111132P8    YIYTM   004300270014
BI00A32P8    #TAPI-2014     202202117172-5630-40             RUBBER STOPPER           PCN000100000000100000FN00000000020220101000100000NNM00020220121130337    2H0H  00002000000000044000000095132P8    YIYTM   004300270014
BI00A32P8    #TAPI-2015     202202117172-5630-40             RUBBER STOPPER           PCN000160000000160000FN00000000020220101000160000NNMD0020220121130337    2H0H  00002000000000044000000095132P8    YIYTM   004300270014
BI00A32P8    #TAPI-2021     202202047172-5629-80             RUBBER STOPPER           PCN000600000000600000FN00000000020220201000600000NNMM0020220121130337    2H0H  00002000000000060000000111132P8    YIYTM   004300270014
BI00A32P8    #TAPI-2022     202201287172-5629-80             RUBBER STOPPER           PCN000260000000260000FN00000000020220201000260000NNM00020220121130337    2H0H  00002000000000060000000111132P8    YIYTM   004300270014
BI00A32P8    #TAPI-2021     202202047172-5630-40             RUBBER STOPPER           PCN000340000000340000FN00000000020220201000340000NNMM0020220121130337    2H0H  00002000000000044000000095132P8    YIYTM   004300270014
BI00A32P8    #TAPI-2022     202201287172-5630-40             RUBBER STOPPER           PCN000180000000180000FN00000000020220201000180000NNM00020220121130337    2H0H  00002000000000044000000095132P8    YIYTM   004300270014
BI00B32P8    TAPI-2042      202203097158-3169-40             SEALING PLUG             CCN000080000000080000FN00000000020220401000080000NNM   20220121130337    1C0C  00004000000000156000000204132P8    YIYTM   004300260014
BI00B32P8    TAPI-2043      202203167158-3169-40             SEALING PLUG             CCN000160000000160000FN00000000020220401000160000NNM   20220121130337    1C0C  00004000000000156000000204132P8    YIYTM   004300260014
BI00B32P8    TAPI-2044      202203237158-3169-40             SEALING PLUG             CCN000160000000160000FN00000000020220401000160000NNM   20220121130337    1C0C  00004000000000156000000204132P8    YIYTM   004300260014
BI00B32P8    TAPI-2044      202203237157-6240-30             REAR HOLDER              CCN000005000000005000FN00000000020220401000005000NNM   20220121130337    1F0F  00000500000000545000000716032P8    YIYTM   005500360039
BI00B32P8    TAPI-2041      202203027157-7915-80             REAR HOLDER              CCN000010000000010000FN00000000020220401000010000NNM   20220121130337    1F0F  00001000000001110000001364032P8    YIYTM   005500360039
BI00B32P8    TAPI-2042      202203097157-7915-80             REAR HOLDER              CCN000020000000020000FN00000000020220401000020000NNM   20220121130337    1F0F  00001000000001110000001364032P8    YIYTM   005500360039
BI00B32P8    TAPI-2043      202203167157-7915-80             REAR HOLDER              CCN000010000000010000FN00000000020220401000010000NNM   20220121130337    1F0F  00001000000001110000001364032P8    YIYTM   005500360039
BI00B32P8    TAPI-2044      202203237157-7915-80             REAR HOLDER              CCN000010000000010000FN00000000020220401000010000NNM   20220121130337    1F0F  00001000000001110000001364032P8    YIYTM   005500360039
BI00B32P8    TAPI-2042      202203097158-3006-90             RUBBER STOPPER           CCN000380000000380000FN00000000020220401000380000NNM   20220121130337    1C0C  00002000000000330600000386032P8    YIYTM   002700430014
BI00B32P8    TAPI-2043      202203167158-3006-90             RUBBER STOPPER           CCN000480000000480000FN00000000020220401000480000NNM   20220121130337    1C0C  00002000000000330600000386032P8    YIYTM   002700430014
BI00B32P8    TAPI-2044      202203237158-3006-90             RUBBER STOPPER           CCN000460000000460000FN00000000020220401000460000NNM   20220121130337    1C0C  00002000000000330600000386032P8    YIYTM   002700430014
BI00B32P8    TAPI-2043      202203167158-3009-60             RUBBER STOPPER           CCN000220000000220000FN00000000020220401000220000NNM   20220121130337    1C0C  00002000000000338000000386232P8    YIYTM   002700430014
BI00B32P8    TAPI-2044      202203237158-3009-60             RUBBER STOPPER           CCN000240000000240000FN00000000020220401000240000NNM   20220121130337    1C0C  00002000000000338000000386232P8    YIYTM   002700430014
BI00B32P8    TAPI-2044      202203237158-3165-90             WIRE SEAL                CCN000240000000240000FN00000000020220401000240000NNM   20220121130337    1C0C  00004000000000124000000172432P8    YIYTM   004300270014
BI00B32P8    TAPI-2044      202203237158-3166-60             WIRE SEAL                CCN000080000000080000FN00000000020220401000080000NNM   20220121130337    1C0C  00004000000000104000000152432P8    YIYTM   002700430014
BI00B32P8    TAPI-2042      202203097158-3167-80             WIRE SEAL                CCN000140000000140000FN00000000020220401000140000NNM   20220121130337    1C0C  00002000000000048000000109032P8    YIYTM   002700430014
BI00B32P8    TAPI-2043      202203167158-3167-80             WIRE SEAL                CCN000240000000240000FN00000000020220401000240000NNM   20220121130337    1C0C  00002000000000048000000109032P8    YIYTM   002700430014
BI00B32P8    TAPI-2044      202203237158-3167-80             WIRE SEAL                CCN000240000000240000FN00000000020220401000240000NNM   20220121130337    1C0C  00002000000000048000000109032P8    YIYTM   002700430014
BI00B32P8    TAPI-2042      202203097158-3168-80             SEALED                   CCN000040000000040000FN00000000020220401000040000NNM   20220121130337    1C0C  00002000000000044000000092132P8    YIYTM   004300260014
BI00B32P8    TAPI-2044      202203237158-3168-80             SEALED                   CCN000040000000040000FN00000000020220401000040000NNM   20220121130337    1C0C  00002000000000044000000092132P8    YIYTM   004300260014
BI00B32P8    TAPI-2041      202203027114-1470                TERMINAL                 CCN000198000000198000FN00000000020220401000198000NNM   20220121130337    4P0P  00001650000000544500000838732P8    YIYTM   006400630015
BI00B32P8    TAPI-2042      202203097114-1470                TERMINAL                 CCN000099000000099000FN00000000020220401000099000NNM   20220121130337    4P0P  00001650000000544500000838732P8    YIYTM   006400630015
BI00B32P8    TAPI-2043      202203167114-1470                TERMINAL                 CCN000082500000082500FN00000000020220401000082500NNM   20220121130337    4P0P  00001650000000544500000838732P8    YIYTM   006400630015
BI00B32P8    TAPI-2044      202203237114-1470                TERMINAL                 CCN000099000000099000FN00000000020220401000099000NNM   20220121130337    4P0P  00001650000000544500000838732P8    YIYTM   006400630015
BI00B32P8    TAPI-2042      202203097114-1475                TERMINAL                 CCN000013500000013500FN00000000020220401000013500NNM   20220121130337    4P0P  00001350000000480600000774232P8    YIYTM   006400630015
BI00B32P8    TAPI-2041      202203027114-4020                TERMINAL                 CCN000294000000294000FN00000000020220401000294000NNM   20220121130337    4P0P  00002100000000875700001169332P8    YIYTM   006400630015
BI00B32P8    TAPI-2042      202203097114-4020                TERMINAL                 CCN000126000000126000FN00000000020220401000126000NNM   20220121130337    4P0P  00002100000000875700001169332P8    YIYTM   006400630015
BI00B32P8    TAPI-2043      202203167114-4020                TERMINAL                 CCN000105000000105000FN00000000020220401000105000NNM   20220121130337    4P0P  00002100000000875700001169332P8    YIYTM   006400630015
BI00B32P8    TAPI-2044      202203237114-4020                TERMINAL                 CCN000126000000126000FN00000000020220401000126000NNM   20220121130337    4P0P  00002100000000875700001169332P8    YIYTM   006400630015
BI00B32P8    TAPI-2041      202203027114-4021                TERMINAL                 CCN000165000000165000FN00000000020220401000165000NNM   20220121130337    4P0P  00001500000000670500000964132P8    YIYTM   006400630015
BI00B32P8    TAPI-2042      202203097114-4021                TERMINAL                 CCN000075000000075000FN00000000020220401000075000NNM   20220121130337    4P0P  00001500000000670500000964132P8    YIYTM   006400630015
BI00B32P8    TAPI-2043      202203167114-4021                TERMINAL                 CCN000090000000090000FN00000000020220401000090000NNM   20220121130337    4P0P  00001500000000670500000964132P8    YIYTM   006400630015
BI00B32P8    TAPI-2044      202203237114-4021                TERMINAL                 CCN000075000000075000FN00000000020220401000075000NNM   20220121130337    4P0P  00001500000000670500000964132P8    YIYTM   006400630015
BI00B32P8    TAPI-2044      202203237114-4032                TERMINAL                 CCN000007500000007500FN00000000020220401000007500NNM   20220121130337    4P0P  00000750000000735000001063632P8    YIYTM   006400630017
BI00B32P8    TAPI-2043      202203167114-4110-02             TERMINAL                 CCN000045000000045000FN00000000020220401000045000NNM   20220121130337    4P0P  00001500000000901500001230132P8    YIYTM   006400630017
BI00B32P8    TAPI-2044      202203237114-4110-02             TERMINAL                 CCN000060000000060000FN00000000020220401000060000NNM   20220121130337    4P0P  00001500000000901500001230132P8    YIYTM   006400630017
BI00B32P8    TAPI-2044      202203237114-4111-02             TERMINAL                 CCN000012000000012000FN00000000020220401000012000NNM   20220121130337    4P0P  00001200000000758400001087032P8    YIYTM   006400630017
BI00B32P8    TAPI-2042      202203097114-4231-02             TERMINAL                 CCN000072000000072000FN00000000020220401000072000NNM   20220121130337    4P0P  00001800000000554400000848032P8    YIYTM   006400630015
BI00B32P8    TAPI-2043      202203167114-4231-02             TERMINAL                 CCN000162000000162000FN00000000020220401000162000NNM   20220121130337    4P0P  00001800000000554400000848032P8    YIYTM   006400630015
BI00B32P8    TAPI-2044      202203237114-4231-02             TERMINAL                 CCN000162000000162000FN00000000020220401000162000NNM   20220121130337    4P0P  00001800000000554400000848032P8    YIYTM   006400630015
BI00B32P8    TAPI-2043      202203167114-4415-02             TERMINAL MALE            CCN000054000000054000FN00000000020220401000054000NNM   20220121130337    4P0P  00002700000000429300000717532P8    YIYTM   006400630015
BI00B32P8    TAPI-2044      202203237114-4415-02             TERMINAL MALE            CCN000081000000081000FN00000000020220401000081000NNM   20220121130337    4P0P  00002700000000429300000717532P8    YIYTM   006400630015
BI00B32P8    TAPI-2044      202203237114-4416-02             TERMINAL MALE            CCN000054000000054000FN00000000020220401000054000NNM   20220121130337    4P0P  00002700000000442800000731032P8    YIYTM   006400630015
BI00B32P8    TAPI-2043      202203167114-4728-02             TERMINAL                 CCN000060000000060000FN00000000020220401000060000NNM   20220121130337    4P0P  00003000000000510000000804232P8    YIYTM   006400630015
BI00B32P8    TAPI-2044      202203237114-4728-02             TERMINAL                 CCN000060000000060000FN00000000020220401000060000NNM   20220121130337    4P0P  00003000000000510000000804232P8    YIYTM   006400630015
BI00B32P8    TAPI-2041      202203027114-4728-08             TERMINAL                 CCN000030000000030000FN00000000020220401000030000NNM   20220121130337    4P0P  00003000000000507000000801232P8    YIYTM   006400630015
BI00B32P8    TAPI-2042      202203097114-4729-02             TERMINAL                 CCN000060000000060000FN00000000020220401000060000NNM   20220121130337    4P0P  00003000000000516000000810232P8    YIYTM   006400630015
BI00B32P8    TAPI-2043      202203167114-4729-02             TERMINAL                 CCN000030000000030000FN00000000020220401000030000NNM   20220121130337    4P0P  00003000000000516000000810232P8    YIYTM   006400630015
BI00B32P8    TAPI-2044      202203237114-4729-02             TERMINAL                 CCN000060000000060000FN00000000020220401000060000NNM   20220121130337    4P0P  00003000000000516000000810232P8    YIYTM   006400630015
BI00B32P8    TAPI-2041      202203027114-5096-02             TERMINAL                 CCN000030000000030000FN00000000020220401000030000NNM   20220121130337    4P0P  00003000000000498000000792232P8    YIYTM   006400630015
BI00B32P8    TAPI-2041      202203027114-5746-02             TERMINAL                 CCN000021000000021000FN00000000020220401000021000NNM   20220121130337    4P0P  00002100000000695100000988732P8    YIYTM   006400630015
BI00B32P8    TAPI-2042      202203097114-5746-02             TERMINAL                 CCN000021000000021000FN00000000020220401000021000NNM   20220121130337    4P0P  00002100000000695100000988732P8    YIYTM   006400630015
BI00B32P8    TAPI-2043      202203167114-5747-02             TERMINAL                 CCN000018000000018000FN00000000020220401000018000NNM   20220121130337    4P0P  00001800000000626400000920032P8    YIYTM   006400630015
BI00B32P8    TAPI-2044      202203237114-5748-02             TERMINAL                 CCN000012000000012000FN00000000020220401000012000NNM   20220121130337    4P0P  00001200000000444000000737632P8    YIYTM   006400630015
BI00B32P8    TAPI-2042      202203097114-6041                TERMINAL                 CCN000003600000003600FN00000000020220401000003600NNM   20220121130337    4P0P  00000360000000580700000824232P8    YIYTM   006400630015
BI00B32P8    TAPI-2044      202203237114-6041                TERMINAL                 CCN000003600000003600FN00000000020220401000003600NNM   20220121130337    4P0P  00000360000000580700000824232P8    YIYTM   006400630015
BI00B32P8    TAPI-2042      202203097116-1180                TERMINAL                 CCN000019500000019500FN00000000020220401000019500NNM   20220121130337    1P0P  00001950000000618200000903432P8    YIYTM   006400630015
BI00B32P8    TAPI-2044      202203237116-1180                TERMINAL                 CCN000019500000019500FN00000000020220401000019500NNM   20220121130337    1P0P  00001950000000618200000903432P8    YIYTM   006400630015
BI00B32P8    TAPI-2042      202203097116-1301                TERMINAL                 CCN000015000000015000FN00000000020220401000015000NNM   20220121130337    4P0P  00001500000000487500000772732P8    YIYTM   006400630015
BI00B32P8    TAPI-2041      202203027116-1471                TERMINAL                 CCN000270000000270000FN00000000020220401000270000NNM   20220121130337    4P0P  00001500000000579000000867232P8    YIYTM   006400630015
BI00B32P8    TAPI-2042      202203097116-1471                TERMINAL                 CCN000210000000210000FN00000000020220401000210000NNM   20220121130337    4P0P  00001500000000579000000867232P8    YIYTM   006400630015
BI00B32P8    TAPI-2043      202203167116-1471                TERMINAL                 CCN000210000000210000FN00000000020220401000210000NNM   20220121130337    4P0P  00001500000000579000000867232P8    YIYTM   006400630015
BI00B32P8    TAPI-2044      202203237116-1471                TERMINAL                 CCN000210000000210000FN00000000020220401000210000NNM   20220121130337    4P0P  00001500000000579000000867232P8    YIYTM   006400630015
BI00B32P8    TAPI-2041      202203027116-1486-02             TERMINAL                 CCN000346500000346500FN00000000020220401000346500NNM   20220121130337    4P0P  00001650000000655100000940332P8    YIYTM   006400630015
BI00B32P8    TAPI-2042      202203097116-1486-02             TERMINAL                 CCN000165000000165000FN00000000020220401000165000NNM   20220121130337    4P0P  00001650000000655100000940332P8    YIYTM   006400630015
BI00B32P8    TAPI-2043      202203167116-1486-02             TERMINAL                 CCN000165000000165000FN00000000020220401000165000NNM   20220121130337    4P0P  00001650000000655100000940332P8    YIYTM   006400630015
BI00B32P8    TAPI-2044      202203237116-1486-02             TERMINAL                 CCN000181500000181500FN00000000020220401000181500NNM   20220121130337    4P0P  00001650000000655100000940332P8    YIYTM   006400630015
BI00B32P8    TAPI-2041      202203027116-1685-02             TERMINAL                 CCN000024000000024000FN00000000020220401000024000NNM   20220121130337    4P0P  00002400000000897600001065232P8    YIYTM   005100280028
BI00B32P8    TAPI-2042      202203097116-1685-02             TERMINAL                 CCN000048000000048000FN00000000020220401000048000NNM   20220121130337    4P0P  00002400000000897600001065232P8    YIYTM   005100280028
BI00B32P8    TAPI-2043      202203167116-1685-02             TERMINAL                 CCN000024000000024000FN00000000020220401000024000NNM   20220121130337    4P0P  00002400000000897600001065232P8    YIYTM   005100280028
BI00B32P8    TAPI-2044      202203237116-1685-02             TERMINAL                 CCN000048000000048000FN00000000020220401000048000NNM   20220121130337    4P0P  00002400000000897600001065232P8    YIYTM   005100280028
BI00B32P8    TAPI-2043      202203167116-1686-02             TERMINAL                 CCN000021000000021000FN00000000020220401000021000NNM   20220121130337    4P0P  00002100000000869400001021632P8    YIYTM   005100280028
BI00B32P8    TAPI-2041      202203027116-1687-02             TERMINAL FEMALE          CCN000024000000024000FN00000000020220401000024000NNM   20220121130337    4P0P  00002400000000303200000909632P8    YIYTM   005100280028
BI00B32P8    TAPI-2042      202203097116-1687-02             TERMINAL FEMALE          CCN000024000000024000FN00000000020220401000024000NNM   20220121130337    4P0P  00002400000000303200000909632P8    YIYTM   005100280028
BI00B32P8    TAPI-2043      202203167116-1687-02             TERMINAL FEMALE          CCN000048000000048000FN00000000020220401000048000NNM   20220121130337    4P0P  00002400000000303200000909632P8    YIYTM   005100280028
BI00B32P8    TAPI-2044      202203237116-1687-02             TERMINAL FEMALE          CCN000024000000024000FN00000000020220401000024000NNM   20220121130337    4P0P  00002400000000303200000909632P8    YIYTM   005100280028
BI00B32P8    TAPI-2041      202203027116-2640                TERMINAL                 CCN000126000000126000FN00000000020220401000126000NNM   20220121130337    4P0P  00001800000001018800001196632P8    YIYTM   005100280028
BI00B32P8    TAPI-2042      202203097116-2640                TERMINAL                 CCN000072000000072000FN00000000020220401000072000NNM   20220121130337    4P0P  00001800000001018800001196632P8    YIYTM   005100280028
BI00B32P8    TAPI-2043      202203167116-2640                TERMINAL                 CCN000072000000072000FN00000000020220401000072000NNM   20220121130337    4P0P  00001800000001018800001196632P8    YIYTM   005100280028
BI00B32P8    TAPI-2044      202203237116-2640                TERMINAL                 CCN000054000000054000FN00000000020220401000054000NNM   20220121130337    4P0P  00001800000001018800001196632P8    YIYTM   005100280028
BI00B32P8    TAPI-2041      202203027116-2641                TERMINAL                 CCN000018000000018000FN00000000020220401000018000NNM   20220121130337    4P0P  00001800000001161000001344632P8    YIYTM   005100280028
BI00B32P8    TAPI-2042      202203097116-2641                TERMINAL                 CCN000018000000018000FN00000000020220401000018000NNM   20220121130337    4P0P  00001800000001161000001344632P8    YIYTM   005100280028
BI00B32P8    TAPI-2043      202203167116-2641                TERMINAL                 CCN000036000000036000FN00000000020220401000036000NNM   20220121130337    4P0P  00001800000001161000001344632P8    YIYTM   005100280028
BI00B32P8    TAPI-2044      202203237116-2641                TERMINAL                 CCN000018000000018000FN00000000020220401000018000NNM   20220121130337    4P0P  00001800000001161000001344632P8    YIYTM   005100280028
BI00B32P8    TAPI-2042      202203097116-2870                TERMINAL                 CCN000012000000012000FN00000000020220401000012000NNM   20220121130337    1P0P  00001200000000783600001020232P8    YIYTM   005100280028
BI00B32P8    TAPI-2043      202203167116-2870                TERMINAL                 CCN000012000000012000FN00000000020220401000012000NNM   20220121130337    1P0P  00001200000000783600001020232P8    YIYTM   005100280028
BI00B32P8    TAPI-2044      202203237116-2870                TERMINAL                 CCN000012000000012000FN00000000020220401000012000NNM   20220121130337    1P0P  00001200000000783600001020232P8    YIYTM   005100280028
BI00B32P8    TAPI-2041      202203027116-2871                TERMINAL                 CCN000036000000036000FN00000000020220401000036000NNM   20220121130337    1P0P  00001200000000842400001072632P8    YIYTM   005100280028
BI00B32P8    TAPI-2042      202203097116-2871                TERMINAL                 CCN000012000000012000FN00000000020220401000012000NNM   20220121130337    1P0P  00001200000000842400001072632P8    YIYTM   005100280028
BI00B32P8    TAPI-2043      202203167116-2871                TERMINAL                 CCN000024000000024000FN00000000020220401000024000NNM   20220121130337    1P0P  00001200000000842400001072632P8    YIYTM   005100280028
BI00B32P8    TAPI-2044      202203237116-2871                TERMINAL                 CCN000012000000012000FN00000000020220401000012000NNM   20220121130337    1P0P  00001200000000842400001072632P8    YIYTM   005100280028
BI00B32P8    TAPI-2042      202203097116-2891-02             TERMINAL                 CCN000030000000030000FN00000000020220401000030000NNM   20220121130337    4P0P  00001500000000982500001145932P8    YIYTM   005100280028
BI00B32P8    TAPI-2043      202203167116-2891-02             TERMINAL                 CCN000015000000015000FN00000000020220401000015000NNM   20220121130337    4P0P  00001500000000982500001145932P8    YIYTM   005100280028
BI00B32P8    TAPI-2044      202203237116-2891-02             TERMINAL                 CCN000030000000030000FN00000000020220401000030000NNM   20220121130337    4P0P  00001500000000982500001145932P8    YIYTM   005100280028
BI00B32P8    TAPI-2042      202203097116-2892-02             TERMINAL                 CCN000012000000012000FN00000000020220401000012000NNM   20220121130337    4P0P  00001200000000818400000981832P8    YIYTM   005100280028
BI00B32P8    TAPI-2044      202203237116-2892-02             TERMINAL                 CCN000012000000012000FN00000000020220401000012000NNM   20220121130337    4P0P  00001200000000818400000981832P8    YIYTM   005100280028
BI00B32P8    TAPI-2041      202203027116-2893-02             TERMINAL                 CCN000012000000012000FN00000000020220401000012000NNM   20220121130337    4P0P  00001200000000895200001058632P8    YIYTM   005100280028
BI00B32P8    TAPI-2042      202203097116-2893-02             TERMINAL                 CCN000024000000024000FN00000000020220401000024000NNM   20220121130337    4P0P  00001200000000895200001058632P8    YIYTM   005100280028
BI00B32P8    TAPI-2043      202203167116-2893-02             TERMINAL                 CCN000012000000012000FN00000000020220401000012000NNM   20220121130337    4P0P  00001200000000895200001058632P8    YIYTM   005100280028
BI00B32P8    TAPI-2044      202203237116-2893-02             TERMINAL                 CCN000012000000012000FN00000000020220401000012000NNM   20220121130337    4P0P  00001200000000895200001058632P8    YIYTM   005100280028
BI00B32P8    TAPI-2042      202203097116-2951                TERMINAL                 CCN000005400000005400FN00000000020220401000005400NNM   20220121130337    4P0P  00000540000000815900001110132P8    YIYTM   006400630015
BI00B32P8    TAPI-2043      202203167116-2951                TERMINAL                 CCN000005400000005400FN00000000020220401000005400NNM   20220121130337    4P0P  00000540000000815900001110132P8    YIYTM   006400630015
BI00B32P8    TAPI-2044      202203237116-2951                TERMINAL                 CCN000005400000005400FN00000000020220401000005400NNM   20220121130337    4P0P  00000540000000815900001110132P8    YIYTM   006400630015
BI00B32P8    TAPI-2042      202203097116-3153-08             TERMINAL                 CCN000054000000054000FN00000000020220401000054000NNM   20220121130337    4P0P  00002700000000461700000746932P8    YIYTM   006400630015
BI00B32P8    TAPI-2043      202203167116-3153-08             TERMINAL                 CCN000027000000027000FN00000000020220401000027000NNM   20220121130337    4P0P  00002700000000461700000746932P8    YIYTM   006400630015
BI00B32P8    TAPI-2044      202203237116-3153-08             TERMINAL                 CCN000027000000027000FN00000000020220401000027000NNM   20220121130337    4P0P  00002700000000461700000746932P8    YIYTM   006400630015
BI00B32P8    TAPI-2044      202203237116-3154-08             TERMINAL                 CCN000027000000027000FN00000000020220401000027000NNM   20220121130337    4P0P  00002700000000475200000760432P8    YIYTM   006400630015
BI00B32P8    TAPI-2041      202203027116-4020                TERMINAL                 CCN000027000000027000FN00000000020220401000027000NNM   20220121130337    4P0P  00001350000000513000000798232P8    YIYTM   006400630015
BI00B32P8    TAPI-2042      202203097116-4020                TERMINAL                 CCN000310500000310500FN00000000020220401000310500NNM   20220121130337    4P0P  00001350000000513000000798232P8    YIYTM   006400630015
BI00B32P8    TAPI-2043      202203167116-4020                TERMINAL                 CCN000297000000297000FN00000000020220401000297000NNM   20220121130337    4P0P  00001350000000513000000798232P8    YIYTM   006400630015
BI00B32P8    TAPI-2044      202203237116-4020                TERMINAL                 CCN000310500000310500FN00000000020220401000310500NNM   20220121130337    4P0P  00001350000000513000000798232P8    YIYTM   006400630015
BI00B32P8    TAPI-2042      202203097116-4022                TERMINAL                 CCN000027000000027000FN00000000020220401000027000NNM   20220121130337    4P0P  00001350000000618300000903532P8    YIYTM   006400630015
BI00B32P8    TAPI-2043      202203167116-4022                TERMINAL                 CCN000040500000040500FN00000000020220401000040500NNM   20220121130337    4P0P  00001350000000618300000903532P8    YIYTM   006400630015
BI00B32P8    TAPI-2044      202203237116-4022                TERMINAL                 CCN000040500000040500FN00000000020220401000040500NNM   20220121130337    4P0P  00001350000000618300000903532P8    YIYTM   006400630015
BI00B32P8    TAPI-2042      202203097116-4025                TERMINAL                 CCN000128000000128000FN00000000020220401000128000NNM   20220121130337    4P0P  00001600000000644800000975132P8    YIYTM   006400630017
BI00B32P8    TAPI-2043      202203167116-4025                TERMINAL                 CCN000128000000128000FN00000000020220401000128000NNM   20220121130337    4P0P  00001600000000644800000975132P8    YIYTM   006400630017
BI00B32P8    TAPI-2044      202203237116-4025                TERMINAL                 CCN000144000000144000FN00000000020220401000144000NNM   20220121130337    4P0P  00001600000000644800000975132P8    YIYTM   006400630017
BI00B32P8    TAPI-2041      202203027116-4026                TERMINAL                 CCN000016000000016000FN00000000020220401000016000NNM   20220121130337    4P0P  00001600000000664000000994332P8    YIYTM   006400630017
BI00B32P8    TAPI-2042      202203097116-4026                TERMINAL                 CCN000048000000048000FN00000000020220401000048000NNM   20220121130337    4P0P  00001600000000664000000994332P8    YIYTM   006400630017
BI00B32P8    TAPI-2043      202203167116-4026                TERMINAL                 CCN000064000000064000FN00000000020220401000064000NNM   20220121130337    4P0P  00001600000000664000000994332P8    YIYTM   006400630017
BI00B32P8    TAPI-2044      202203237116-4026                TERMINAL                 CCN000048000000048000FN00000000020220401000048000NNM   20220121130337    4P0P  00001600000000664000000994332P8    YIYTM   006400630017
BI00B32P8    TAPI-2042      202203097116-4028-08             TERMINAL FEMALE          CCN000064000000064000FN00000000020220401000064000NNM   20220121130337    4P0P  00001600000000652800000981532P8    YIYTM   006400630017
