BI00B32AF    TTB2041        2022031118007704150              AVSS 1.25F R             CCN000002400000002400FN00000000020220401000002400NNM   20220201173947    1W    00000080000001389000000000032AF    HBYHVTB 000000000000UZ422030
BI00B32AF    TTB2042        2022031818007704150              AVSS 1.25F R             CCN000007200000007200FN00000000020220401000007200NNM   20220201173947    1W    00000080000001389000000000032AF    HBYHVTB 000000000000UZ123033
BI00B32AF    TTB2043        2022032518007704150              AVSS 1.25F R             CCN000002400000002400FN00000000020220401000002400NNM   20220201173947    1W    00000080000001389000000000032AF    HBYHVTB 000000000000UZ223034
BI00B32AF    TTB2044        2022040118007704150              AVSS 1.25F R             CCN000006400000006400FN00000000020220401000006400NNM   20220201173947    1W    00000080000001389000000000032AF    HBYHVTB 000000000000UZ323037
BI00B32AF    TTB2041        2022031118007704140              AVSS 1.25F W             CCN000002400000002400FN00000000020220401000002400NNM   20220201173947    1W    00000080000001389000000000032AF    HBYHVTB 000000000000UZ422031
BI00B32AF    TTB2042        2022031818007704140              AVSS 1.25F W             CCN000007200000007200FN00000000020220401000007200NNM   20220201173947    1W    00000080000001389000000000032AF    HBYHVTB 000000000000UZ123034
BI00B32AF    TTB2043        2022032518007704140              AVSS 1.25F W             CCN000002400000002400FN00000000020220401000002400NNM   20220201173947    1W    00000080000001389000000000032AF    HBYHVTB 000000000000UZ223035
BI00B32AF    TTB2044        2022040118007704140              AVSS 1.25F W             CCN000006400000006400FN00000000020220401000006400NNM   20220201173947    1W    00000080000001389000000000032AF    HBYHVTB 000000000000UZ323038
BI00B32AF    @TTB2041       20220311181B0911741              CAVSAS 0.3X3 GY          CCN000002000000002000FN00000000020220401000002000NNM   20220201173946    1W    00000025000002843000000000032AF    HBYHVTB 000000000000UZ422028
BI00B32AF    @TTB2042       20220318181B0911741              CAVSAS 0.3X3 GY          CCN000004000000004000FN00000000020220401000004000NNM   20220201173946    1W    00000025000002843000000000032AF    HBYHVTB 000000000000UZ123032
BI00B32AF    @TTB2043       20220325181B0911741              CAVSAS 0.3X3 GY          CCN000002000000002000FN00000000020220401000002000NNM   20220201173946    1W    00000025000002843000000000032AF    HBYHVTB 000000000000UZ223033
BI00B32AF    @TTB2044       20220401181B0911741              CAVSAS 0.3X3 GY          CCN000004000000004000FN00000000020220401000004000NNM   20220201173946    1W    00000025000002843000000000032AF    HBYHVTB 000000000000UZ323036
BI00B32AF    @TTB2041       20220311181E48013ZZ              CAVSAS-S 0.3X3 GY        CCN000000500000000500FN00000000020220401000000500NNM   20220201173946    1W    00000025000002778200000000032AF    HBYHVTB 000000000000UZ422029
BI00B32AF    @TTB2041       20220311181AD2001ZZ              CIVUSAS-S 0.35X1 B       CCN000011550000011550FN00000000020220401000011550NNM   20220201173946    1W    00000055000001540800000000032AF    HBYHVTB 000000000000UZ422025
BI00B32AF    @TTB2042       20220318181AD2001ZZ              CIVUSAS-S 0.35X1 B       CCN000023100000023100FN00000000020220401000023100NNM   20220201173946    1W    00000055000001540800000000032AF    HBYHVTB 000000000000UZ123028
BI00B32AF    @TTB2043       20220325181AD2001ZZ              CIVUSAS-S 0.35X1 B       CCN000025850000025850FN00000000020220401000025850NNM   20220201173946    1W    00000055000001540800000000032AF    HBYHVTB 000000000000UZ223028
BI00B32AF    @TTB2044       20220401181AD2001ZZ              CIVUSAS-S 0.35X1 B       CCN000029700000029700FN00000000020220401000029700NNM   20220201173946    1W    00000055000001540800000000032AF    HBYHVTB 000000000000UZ323030
BI00B32AF    @TTB2044       20220401181AD2002ZZ              CIVUSAS-S 0.35X2 B       CCN000022500000022500FN00000000020220401000022500NNM   20220201173946    1W    00000045000001713700000000032AF    HBYHVTB 000000000000UZ323033
BI00B32AF    @TTB2041       20220311181AD2003ZZ              CIVUSAS-S 0.35X3 B       CCN000025900000025900FN00000000020220401000025900NNM   20220201173946    1W    00000035000002172100000000032AF    HBYHVTB 000000000000UZ422026
BI00B32AF    @TTB2042       20220318181AD2003ZZ              CIVUSAS-S 0.35X3 B       CCN000009800000009800FN00000000020220401000009800NNM   20220201173946    1W    00000035000002172100000000032AF    HBYHVTB 000000000000UZ123030
BI00B32AF    @TTB2043       20220325181AD2003ZZ              CIVUSAS-S 0.35X3 B       CCN000053900000053900FN00000000020220401000053900NNM   20220201173946    1W    00000035000002172100000000032AF    HBYHVTB 000000000000UZ223031
BI00B32AF    @TTB2044       20220401181AD2003ZZ              CIVUSAS-S 0.35X3 B       CCN000060200000060200FN00000000020220401000060200NNM   20220201173946    1W    00000035000002172100000000032AF    HBYHVTB 000000000000UZ323034
BI00B32AF    @TTB2041       20220311181AD2004ZZ              CIVUSAS-S 0.35X4 B       CCN000010800000010800FN00000000020220401000010800NNM   20220201173946    1W    00000030000002799900000000032AF    HBYHVTB 000000000000UZ422027
BI00B32AF    @TTB2042       20220318181AD2004ZZ              CIVUSAS-S 0.35X4 B       CCN000008400000008400FN00000000020220401000008400NNM   20220201173946    1W    00000030000002799900000000032AF    HBYHVTB 000000000000UZ123031
BI00B32AF    @TTB2043       20220325181AD2004ZZ              CIVUSAS-S 0.35X4 B       CCN000020100000020100FN00000000020220401000020100NNM   20220201173946    1W    00000030000002799900000000032AF    HBYHVTB 000000000000UZ223032
BI00B32AF    @TTB2044       20220401181AD2004ZZ              CIVUSAS-S 0.35X4 B       CCN000021900000021900FN00000000020220401000021900NNM   20220201173946    1W    00000030000002799900000000032AF    HBYHVTB 000000000000UZ323035
BI00B32AF    @TTB2043       20220325181AD2008ZZ              CIVUSAS-S 0.5X2 B        CCN000007200000007200FN00000000020220401000007200NNM   20220201173946    1W    00000040000002028000000000032AF    HBYHVTB 000000000000UZ223029
BI00B32AF    @TTB2044       20220401181AD2008ZZ              CIVUSAS-S 0.5X2 B        CCN000024400000024400FN00000000020220401000024400NNM   20220201173946    1W    00000040000002028000000000032AF    HBYHVTB 000000000000UZ323031
BI00B32AF    @TTB2042       20220318181AD2010ZZ              CIVUSAS-S 0.5X4 B        CCN000001750000001750FN00000000020220401000001750NNM   20220201173946    1W    00000025000003214000000000032AF    HBYHVTB 000000000000UZ123029
BI00B32AF    @TTB2043       20220325181AD2010ZZ              CIVUSAS-S 0.5X4 B        CCN000003750000003750FN00000000020220401000003750NNM   20220201173946    1W    00000025000003214000000000032AF    HBYHVTB 000000000000UZ223030
BI00B32AF    @TTB2044       20220401181AD2010ZZ              CIVUSAS-S 0.5X4 B        CCN000004750000004750FN00000000020220401000004750NNM   20220201173946    1W    00000025000003214000000000032AF    HBYHVTB 000000000000UZ323032
BI00A32AF    @TTB202G       20220207181AD2007ZZ              CIVUSAS-S 0.5X1 B        CCN000001000000001000FN00000000020220201000001000NNE   20220201112236    1W    00000050000001639600000000032AF    HBYHVTB 000000000000UY321001
BI00B32A7    ZZ22042LMW     2022030918000004530              AV 8 B                   CCN000005000000005000FN00000000020220401000005000NNM   20220201145121    1W    00000010000010466200000000032A7    ZZZZY   000000000000ZZ422023
BI00B32A7    ZZ22043LMW     2022031618000004530              AV 8 B                   CCN000005200000005200FN00000000020220401000005200NNM   20220201145121    1W    00000010000010466200000000032A7    ZZZZY   000000000000ZZ123023
BI00B32A7    ZZ22044LMW     2022032318000004530              AV 8 B                   CCN000002000000002000FN00000000020220401000002000NNM   20220201145121    1W    00000010000010466200000000032A7    ZZZZY   000000000000ZZ223005
BI00B32A7    ZZ22042LMW     2022030918000004560              AV 8 G                   CCN000000500000000500FN00000000020220401000000500NNM   20220201145121    1W    00000010000010466200000000032A7    ZZZZY   000000000000ZZ422024
BI00B32A7    ZZ22043LMW     2022031618000004560              AV 8 G                   CCN000006800000006800FN00000000020220401000006800NNM   20220201145121    1W    00000010000010466200000000032A7    ZZZZY   000000000000ZZ123024
BI00B32A7    ZZ22044LMW     2022032318000004560              AV 8 G                   CCN000004000000004000FN00000000020220401000004000NNM   20220201145121    1W    00000010000010466200000000032A7    ZZZZY   000000000000ZZ223006
BI00B32A7    ZZ22042LMW     2022030918000004550              AV 8 R                   CCN000011700000011700FN00000000020220401000011700NNM   20220201145121    1W    00000010000010466200000000032A7    ZZZZY   000000000000ZZ422025
BI00B32A7    ZZ22043LMW     2022031618000004550              AV 8 R                   CCN000015100000015100FN00000000020220401000015100NNM   20220201145121    1W    00000010000010466200000000032A7    ZZZZY   000000000000ZZ123025
BI00B32A7    ZZ22044LMW     2022032318000004550              AV 8 R                   CCN000004000000004000FN00000000020220401000004000NNM   20220201145121    1W    00000010000010466200000000032A7    ZZZZY   000000000000ZZ223007
BI00B32A7    ZZ22042LMW     2022030918000004540              AV 8 W                   CCN000005500000005500FN00000000020220401000005500NNM   20220201145121    1W    00000010000010466200000000032A7    ZZZZY   000000000000ZZ422026
BI00B32A7    ZZ22043LMW     2022031618000004540              AV 8 W                   CCN000009800000009800FN00000000020220401000009800NNM   20220201145121    1W    00000010000010466200000000032A7    ZZZZY   000000000000ZZ123026
BI00B32A7    ZZ22044LMW     2022032318000004540              AV 8 W                   CCN000004000000004000FN00000000020220401000004000NNM   20220201145121    1W    00000010000010466200000000032A7    ZZZZY   000000000000ZZ223008
BI00B32A7    ZZ22043LMW     2022031618000004570              AV 8 Y                   CCN000000200000000200FN00000000020220401000000200NNM   20220201145121    1W    00000010000010466200000000032A7    ZZZZY   000000000000ZZ123027
BI00B32A7    ZZ22044LMW     2022032318000004570              AV 8 Y                   CCN000002000000002000FN00000000020220401000002000NNM   20220201145121    1W    00000010000010466200000000032A7    ZZZZY   000000000000ZZ223009
BI00B32A7    @ZZ22041LMW    20220302181E48017ZZ              CAVSAS-S 0.5X1 GY/G      CCN000009200000009200FN00000000020220401000009200NNM   20220201145120    1W    00000040000001900600000000032A7    ZZZZY   000000000000ZZ322013
BI00B32A7    @ZZ22042LMW    20220309181E48017ZZ              CAVSAS-S 0.5X1 GY/G      CCN000006000000006000FN00000000020220401000006000NNM   20220201145120    1W    00000040000001900600000000032A7    ZZZZY   000000000000ZZ422018
BI00B32A7    @ZZ22043LMW    20220316181E48017ZZ              CAVSAS-S 0.5X1 GY/G      CCN000006000000006000FN00000000020220401000006000NNM   20220201145120    1W    00000040000001900600000000032A7    ZZZZY   000000000000ZZ123018
BI00B32A7    @ZZ22042LMW    20220309181E48018ZZ              CAVSAS-S 0.5X2 GY/SB     CCN000001500000001500FN00000000020220401000001500NNM   20220201145120    1W    00000030000002561000000000032A7    ZZZZY   000000000000ZZ422021
BI00B32A7    @ZZ22043LMW    20220316181E48018ZZ              CAVSAS-S 0.5X2 GY/SB     CCN000002400000002400FN00000000020220401000002400NNM   20220201145120    1W    00000030000002561000000000032A7    ZZZZY   000000000000ZZ123021
BI00B32A7    @ZZ22044LMW    20220323181E48018ZZ              CAVSAS-S 0.5X2 GY/SB     CCN000001200000001200FN00000000020220401000001200NNM   20220201145120    1W    00000030000002561000000000032A7    ZZZZY   000000000000ZZ223003
BI00B32A7    @ZZ22041LMW    20220302181E48019ZZ              CAVSAS-S 0.5X1 GY/W      CCN000009600000009600FN00000000020220401000009600NNM   20220201145120    1W    00000040000001900600000000032A7    ZZZZY   000000000000ZZ322014
BI00B32A7    @ZZ22042LMW    20220309181E48019ZZ              CAVSAS-S 0.5X1 GY/W      CCN000005600000005600FN00000000020220401000005600NNM   20220201145120    1W    00000040000001900600000000032A7    ZZZZY   000000000000ZZ422019
BI00B32A7    @ZZ22043LMW    20220316181E48019ZZ              CAVSAS-S 0.5X1 GY/W      CCN000005200000005200FN00000000020220401000005200NNM   20220201145120    1W    00000040000001900600000000032A7    ZZZZY   000000000000ZZ123019
BI00B32A7    @ZZ22044LMW    20220323181E48019ZZ              CAVSAS-S 0.5X1 GY/W      CCN000002000000002000FN00000000020220401000002000NNM   20220201145120    1W    00000040000001900600000000032A7    ZZZZY   000000000000ZZ223001
BI00B32A7    @ZZ22042LMW    20220309181E48027ZZ              CAVSAS-S 0.5X2 GY/P      CCN000001200000001200FN00000000020220401000001200NNM   20220201145120    1W    00000030000002561000000000032A7    ZZZZY   000000000000ZZ422020
BI00B32A7    @ZZ22043LMW    20220316181E48027ZZ              CAVSAS-S 0.5X2 GY/P      CCN000002400000002400FN00000000020220401000002400NNM   20220201145120    1W    00000030000002561000000000032A7    ZZZZY   000000000000ZZ123020
BI00B32A7    @ZZ22044LMW    20220323181E48027ZZ              CAVSAS-S 0.5X2 GY/P      CCN000001200000001200FN00000000020220401000001200NNM   20220201145120    1W    00000030000002561000000000032A7    ZZZZY   000000000000ZZ223002
BI00B32A7    @ZZ22041LMW    20220302181E48040ZZ              CAVSAS-S 0.3X2 GY/V      CCN000011200000011200FN00000000020220401000011200NNM   20220201145120    1W    00000035000002008700000000032A7    ZZZZY   000000000000ZZ322015
BI00B32A7    @ZZ22042LMW    20220309181E48040ZZ              CAVSAS-S 0.3X2 GY/V      CCN000004550000004550FN00000000020220401000004550NNM   20220201145120    1W    00000035000002008700000000032A7    ZZZZY   000000000000ZZ422022
BI00B32A7    @ZZ22043LMW    20220316181E48040ZZ              CAVSAS-S 0.3X2 GY/V      CCN000004550000004550FN00000000020220401000004550NNM   20220201145120    1W    00000035000002008700000000032A7    ZZZZY   000000000000ZZ123022
BI00B32A7    @ZZ22044LMW    20220323181E48040ZZ              CAVSAS-S 0.3X2 GY/V      CCN000001050000001050FN00000000020220401000001050NNM   20220201145120    1W    00000035000002008700000000032A7    ZZZZY   000000000000ZZ223004
BI00B32B6    W72016         202203181801W003940              IVSSH 0.5F W             CCN000018000000018000FN00000000020220601000018000NNE   20220201175305B6  1W    00000180000000625000000000032B6    AXARNE-M000000000000AW123010
BI00B32B6    W72016         202203181801W003941              IVSSH 0.5F GY            CCN000010800000010800FN00000000020220601000010800NNE   20220201175305B6  1W    00000180000000625000000000032B6    AXARNE-M000000000000AW123008
BI00B32B6    W72016         202203181801W003961              IVSSH 0.5F LG            CCN000012600000012600FN00000000020220601000012600NNE   20220201175305B6  1W    00000180000000625000000000032B6    AXARNE-M000000000000AW123009
BI00B32B6    W72016         202203181801W003970              IVSSH 0.5F Y             CCN000012600000012600FN00000000020220601000012600NNE   20220201175305B6  1W    00000180000000625000000000032B6    AXARNE-M000000000000AW123011
BI00B32B6    W72016         202203181801W003980              IVSSH 0.5F BR            CCN000025200000025200FN00000000020220601000025200NNE   20220201175305B6  1W    00000180000000625000000000032B6    AXARNE-M000000000000AW123007
BI00B32B6    W72016         202203181801W00405U              IVSSH 0.75F BE           CCN000002600000002600FN00000000020220601000002600NNE   20220201175305B6  1W    00000130000000882000000000032B6    AXARNE-M000000000000AW123012
BI00B32B6    W72016         202203181801W004060              IVSSH 0.75F G            CCN000002600000002600FN00000000020220601000002600NNE   20220201175305B6  1W    00000130000000882000000000032B6    AXARNE-M000000000000AW123013
BI00B32B6    W72016         202203181801W004061              IVSSH 0.75F LG           CCN000002600000002600FN00000000020220601000002600NNE   20220201175305B6  1W    00000130000000882000000000032B6    AXARNE-M000000000000AW123014
BI00B32B6    @W72016        20220318181B09039H7              CAVSAS 0.5X1 GY/W        CCN000002800000002800FN00000000020220601000002800NNE   20220201175304B6  1W    00000040000002263300000000032B6    AXARNE-M000000000000AW123006
BI00B32CJ    @TTQ203A       20220225181E48027ZZ              CAVSAS-S 0.5X2 GY/P      CCN000001200000001200FN00000000020220301000001200NNE   20220201100547    1W    00000030000002561000000000032CJ    QNYHVQN 000000000000UN222001
BI00B32CJ    @TTQ203A       20220225181E48029ZZ              CAVSAS-S 0.5X4 GY        CCN000001400000001400FN00000000020220301000001400NNE   20220201100547    1W    00000020000003995000000000032CJ    QNYHVQN 000000000000UN222002
BI00B32CJ    TTQ2043        2022032518000004530              AV 8 B                   CCN000000500000000500FN00000000020220401000000500NNM   20220201133234    1W    00000010000010466200000000032CJ    QNYHVQN 000000000000UQ223029
BI00B32CJ    TTQ2044        2022040118000004530              AV 8 B                   CCN000001000000001000FN00000000020220401000001000NNM   20220201133234    1W    00000010000010466200000000032CJ    QNYHVQN 000000000000UQ323029
BI00B32CJ    TTQ2043        2022032518000004550              AV 8 R                   CCN000002000000002000FN00000000020220401000002000NNM   20220201133234    1W    00000010000010466200000000032CJ    QNYHVQN 000000000000UQ223030
BI00B32CJ    TTQ2044        2022040118000004550              AV 8 R                   CCN000002500000002500FN00000000020220401000002500NNM   20220201133234    1W    00000010000010466200000000032CJ    QNYHVQN 000000000000UQ323030
BI00B32CJ    TTQ2043        2022032518007704130              AVSS 1.25F B             CCN000000800000000800FN00000000020220401000000800NNM   20220201133234    1W    00000080000001389000000000032CJ    QNYHVQN 000000000000UQ223031
BI00B32CJ    TTQ2044        2022040118007704130              AVSS 1.25F B             CCN000001600000001600FN00000000020220401000001600NNM   20220201133234    1W    00000080000001389000000000032CJ    QNYHVQN 000000000000UQ323031
BI00B32CJ    TTQ2042        20220318180D0203730              AVSSH 0.3F B             CCN000006000000006000FN00000000020220401000006000NNM   20220201133234    1W    00000200000000515000000000032CJ    QNYHVQN 000000000000UQ123019
BI00B32CJ    TTQ2043        20220325180D0203730              AVSSH 0.3F B             CCN000006000000006000FN00000000020220401000006000NNM   20220201133234    1W    00000200000000515000000000032CJ    QNYHVQN 000000000000UQ223017
BI00B32CJ    TTQ2044        20220401180D0203730              AVSSH 0.3F B             CCN000002000000002000FN00000000020220401000002000NNM   20220201133234    1W    00000200000000515000000000032CJ    QNYHVQN 000000000000UQ323018
BI00B32CJ    TTQ2042        20220318180D0203780              AVSSH 0.3F BR            CCN000018000000018000FN00000000020220401000018000NNM   20220201133234    1W    00000200000000515000000000032CJ    QNYHVQN 000000000000UQ123020
BI00B32CJ    TTQ2043        20220325180D0203780              AVSSH 0.3F BR            CCN000028000000028000FN00000000020220401000028000NNM   20220201133234    1W    00000200000000515000000000032CJ    QNYHVQN 000000000000UQ223018
BI00B32CJ    TTQ2044        20220401180D0203780              AVSSH 0.3F BR            CCN000012000000012000FN00000000020220401000012000NNM   20220201133234    1W    00000200000000515000000000032CJ    QNYHVQN 000000000000UQ323019
BI00B32CJ    TTQ2042        20220318180D0203760              AVSSH 0.3F G             CCN000026000000026000FN00000000020220401000026000NNM   20220201133234    1W    00000200000000515000000000032CJ    QNYHVQN 000000000000UQ123021
BI00B32CJ    TTQ2043        20220325180D0203760              AVSSH 0.3F G             CCN000032000000032000FN00000000020220401000032000NNM   20220201133234    1W    00000200000000515000000000032CJ    QNYHVQN 000000000000UQ223019
BI00B32CJ    TTQ2044        20220401180D0203760              AVSSH 0.3F G             CCN000014000000014000FN00000000020220401000014000NNM   20220201133234    1W    00000200000000515000000000032CJ    QNYHVQN 000000000000UQ323020
BI00B32CJ    TTQ2042        20220318180D0203741              AVSSH 0.3F GY            CCN000010000000010000FN00000000020220401000010000NNM   20220201133234    1W    00000200000000515000000000032CJ    QNYHVQN 000000000000UQ123022
BI00B32CJ    TTQ2043        20220325180D0203741              AVSSH 0.3F GY            CCN000024000000024000FN00000000020220401000024000NNM   20220201133234    1W    00000200000000515000000000032CJ    QNYHVQN 000000000000UQ223020
BI00B32CJ    TTQ2044        20220401180D0203741              AVSSH 0.3F GY            CCN000006000000006000FN00000000020220401000006000NNM   20220201133234    1W    00000200000000515000000000032CJ    QNYHVQN 000000000000UQ323021
BI00B32CJ    TTQ2042        20220318180D0203790              AVSSH 0.3F L             CCN000020000000020000FN00000000020220401000020000NNM   20220201133234    1W    00000200000000515000000000032CJ    QNYHVQN 000000000000UQ123023
BI00B32CJ    TTQ2043        20220325180D0203790              AVSSH 0.3F L             CCN000040000000040000FN00000000020220401000040000NNM   20220201133234    1W    00000200000000515000000000032CJ    QNYHVQN 000000000000UQ223021
BI00B32CJ    TTQ2044        20220401180D0203790              AVSSH 0.3F L             CCN000020000000020000FN00000000020220401000020000NNM   20220201133234    1W    00000200000000515000000000032CJ    QNYHVQN 000000000000UQ323022
BI00B32CJ    TTQ2042        20220318180D0203752              AVSSH 0.3F P             CCN000004000000004000FN00000000020220401000004000NNM   20220201133234    1W    00000200000000515000000000032CJ    QNYHVQN 000000000000UQ123024
BI00B32CJ    TTQ2043        20220325180D0203752              AVSSH 0.3F P             CCN000004000000004000FN00000000020220401000004000NNM   20220201133234    1W    00000200000000515000000000032CJ    QNYHVQN 000000000000UQ223022
BI00B32CJ    TTQ2044        20220401180D0203752              AVSSH 0.3F P             CCN000002000000002000FN00000000020220401000002000NNM   20220201133234    1W    00000200000000515000000000032CJ    QNYHVQN 000000000000UQ323023
BI00B32CJ    TTQ2042        20220318180D0203750              AVSSH 0.3F R             CCN000008000000008000FN00000000020220401000008000NNM   20220201133234    1W    00000200000000515000000000032CJ    QNYHVQN 000000000000UQ123025
BI00B32CJ    TTQ2043        20220325180D0203750              AVSSH 0.3F R             CCN000006000000006000FN00000000020220401000006000NNM   20220201133234    1W    00000200000000515000000000032CJ    QNYHVQN 000000000000UQ223023
BI00B32CJ    TTQ2044        20220401180D0203750              AVSSH 0.3F R             CCN000004000000004000FN00000000020220401000004000NNM   20220201133234    1W    00000200000000515000000000032CJ    QNYHVQN 000000000000UQ323024
BI00B32CJ    TTQ2042        20220318180D0203740              AVSSH 0.3F W             CCN000006000000006000FN00000000020220401000006000NNM   20220201133234    1W    00000200000000515000000000032CJ    QNYHVQN 000000000000UQ123026
BI00B32CJ    TTQ2043        20220325180D0203740              AVSSH 0.3F W             CCN000006000000006000FN00000000020220401000006000NNM   20220201133234    1W    00000200000000515000000000032CJ    QNYHVQN 000000000000UQ223024
BI00B32CJ    TTQ2044        20220401180D0203740              AVSSH 0.3F W             CCN000002000000002000FN00000000020220401000002000NNM   20220201133234    1W    00000200000000515000000000032CJ    QNYHVQN 000000000000UQ323025
BI00B32CJ    TTQ2041        20220311180D0203980              AVSSH 0.5F BR            CCN000016500000016500FN00000000020220401000016500NNM   20220201133234    1W    00000150000000689000000000032CJ    QNYHVQN 000000000000UQ422006
BI00B32CJ    TTQ2042        20220318180D0203980              AVSSH 0.5F BR            CCN000027000000027000FN00000000020220401000027000NNM   20220201133234    1W    00000150000000689000000000032CJ    QNYHVQN 000000000000UQ123027
BI00B32CJ    TTQ2043        20220325180D0203980              AVSSH 0.5F BR            CCN000033000000033000FN00000000020220401000033000NNM   20220201133234    1W    00000150000000689000000000032CJ    QNYHVQN 000000000000UQ223025
BI00B32CJ    TTQ2042        20220318180D0204040              AVSSH 0.75F W            CCN000014000000014000FN00000000020220401000014000NNM   20220201133234    1W    00000100000000934000000000032CJ    QNYHVQN 000000000000UQ123028
BI00B32CJ    TTQ2043        20220325180D0204040              AVSSH 0.75F W            CCN000019000000019000FN00000000020220401000019000NNM   20220201133234    1W    00000100000000934000000000032CJ    QNYHVQN 000000000000UQ223026
BI00B32CJ    TTQ2044        20220401180D0204040              AVSSH 0.75F W            CCN000008000000008000FN00000000020220401000008000NNM   20220201133234    1W    00000100000000934000000000032CJ    QNYHVQN 000000000000UQ323026
BI00B32CJ    TTQ2042        20220318180D0204130              AVSSH 1.25F B            CCN000128000000128000FN00000000020220401000128000NNM   20220201133234    1W    00000080000001458000000000032CJ    QNYHVQN 000000000000UQ123029
BI00B32CJ    TTQ2043        20220325180D0204130              AVSSH 1.25F B            CCN000153600000153600FN00000000020220401000153600NNM   20220201133234    1W    00000080000001458000000000032CJ    QNYHVQN 000000000000UQ223027
BI00B32CJ    TTQ2044        20220401180D0204130              AVSSH 1.25F B            CCN000060800000060800FN00000000020220401000060800NNM   20220201133234    1W    00000080000001458000000000032CJ    QNYHVQN 000000000000UQ323027
BI00B32CJ    TTQ2042        20220318180D0204180              AVSSH 1.25F BR           CCN000019200000019200FN00000000020220401000019200NNM   20220201133234    1W    00000080000001458000000000032CJ    QNYHVQN 000000000000UQ123030
BI00B32CJ    TTQ2043        20220325180D0204180              AVSSH 1.25F BR           CCN000025600000025600FN00000000020220401000025600NNM   20220201133234    1W    00000080000001458000000000032CJ    QNYHVQN 000000000000UQ223028
BI00B32CJ    TTQ2044        20220401180D0204180              AVSSH 1.25F BR           CCN000009600000009600FN00000000020220401000009600NNM   20220201133234    1W    00000080000001458000000000032CJ    QNYHVQN 000000000000UQ323028
BI00B32CJ    TTQ2041        202203111801W006980              IVSSH 0.35F BR           CCN000007500000007500FN00000000020220401000007500NNM   20220201133234    1W    00000250000000452000000000032CJ    QNYHVQN 000000000000UQ422011
BI00B32CJ    TTQ2042        202203181801W006980              IVSSH 0.35F BR           CCN000025000000025000FN00000000020220401000025000NNM   20220201133234    1W    00000250000000452000000000032CJ    QNYHVQN 000000000000UQ123036
BI00B32CJ    TTQ2043        202203251801W006980              IVSSH 0.35F BR           CCN000030000000030000FN00000000020220401000030000NNM   20220201133234    1W    00000250000000452000000000032CJ    QNYHVQN 000000000000UQ223037
BI00B32CJ    TTQ2044        202204011801W006980              IVSSH 0.35F BR           CCN000012500000012500FN00000000020220401000012500NNM   20220201133234    1W    00000250000000452000000000032CJ    QNYHVQN 000000000000UQ323037
BI00B32CJ    TTQ2041        202203111801W006961              IVSSH 0.35F LG           CCN000010000000010000FN00000000020220401000010000NNM   20220201133234    1W    00000250000000452000000000032CJ    QNYHVQN 000000000000UQ422012
BI00B32CJ    TTQ2042        202203181801W006961              IVSSH 0.35F LG           CCN000045000000045000FN00000000020220401000045000NNM   20220201133234    1W    00000250000000452000000000032CJ    QNYHVQN 000000000000UQ123037
BI00B32CJ    TTQ2043        202203251801W006961              IVSSH 0.35F LG           CCN000045000000045000FN00000000020220401000045000NNM   20220201133234    1W    00000250000000452000000000032CJ    QNYHVQN 000000000000UQ223038
BI00B32CJ    TTQ2044        202204011801W006961              IVSSH 0.35F LG           CCN000020000000020000FN00000000020220401000020000NNM   20220201133234    1W    00000250000000452000000000032CJ    QNYHVQN 000000000000UQ323038
BI00B32CJ    TTQ2042        202203181801W006950              IVSSH 0.35F R            CCN000012500000012500FN00000000020220401000012500NNM   20220201133234    1W    00000250000000452000000000032CJ    QNYHVQN 000000000000UQ123038
BI00B32CJ    TTQ2043        202203251801W006950              IVSSH 0.35F R            CCN000015000000015000FN00000000020220401000015000NNM   20220201133234    1W    00000250000000452000000000032CJ    QNYHVQN 000000000000UQ223039
BI00B32CJ    TTQ2044        202204011801W006950              IVSSH 0.35F R            CCN000005000000005000FN00000000020220401000005000NNM   20220201133234    1W    00000250000000452000000000032CJ    QNYHVQN 000000000000UQ323039
BI00B32CJ    TTQ2042        202203181801W006940              IVSSH 0.35F W            CCN000020000000020000FN00000000020220401000020000NNM   20220201133234    1W    00000250000000452000000000032CJ    QNYHVQN 000000000000UQ123039
BI00B32CJ    TTQ2043        202203251801W006940              IVSSH 0.35F W            CCN000015000000015000FN00000000020220401000015000NNM   20220201133234    1W    00000250000000452000000000032CJ    QNYHVQN 000000000000UQ223040
BI00B32CJ    TTQ2044        202204011801W006940              IVSSH 0.35F W            CCN000007500000007500FN00000000020220401000007500NNM   20220201133234    1W    00000250000000452000000000032CJ    QNYHVQN 000000000000UQ323040
BI00B32CJ    TTQ2043        202203251801W006970              IVSSH 0.35F Y            CCN000010000000010000FN00000000020220401000010000NNM   20220201133234    1W    00000250000000452000000000032CJ    QNYHVQN 000000000000UQ223041
BI00B32CJ    TTQ2044        202204011801W006970              IVSSH 0.35F Y            CCN000005000000005000FN00000000020220401000005000NNM   20220201133234    1W    00000250000000452000000000032CJ    QNYHVQN 000000000000UQ323041
BI00B32CJ    TTQ2041        202203111801W003980              IVSSH 0.5F BR            CCN000003600000003600FN00000000020220401000003600NNM   20220201133234    1W    00000180000000625000000000032CJ    QNYHVQN 000000000000UQ422007
BI00B32CJ    TTQ2042        202203181801W003980              IVSSH 0.5F BR            CCN000012600000012600FN00000000020220401000012600NNM   20220201133234    1W    00000180000000625000000000032CJ    QNYHVQN 000000000000UQ123031
BI00B32CJ    TTQ2043        202203251801W003980              IVSSH 0.5F BR            CCN000012600000012600FN00000000020220401000012600NNM   20220201133234    1W    00000180000000625000000000032CJ    QNYHVQN 000000000000UQ223032
BI00B32CJ    TTQ2044        202204011801W003980              IVSSH 0.5F BR            CCN000005400000005400FN00000000020220401000005400NNM   20220201133234    1W    00000180000000625000000000032CJ    QNYHVQN 000000000000UQ323032
BI00B32CJ    TTQ2042        202203181801W003940              IVSSH 0.5F W             CCN000025200000025200FN00000000020220401000025200NNM   20220201133234    1W    00000180000000625000000000032CJ    QNYHVQN 000000000000UQ123032
BI00B32CJ    TTQ2043        202203251801W003940              IVSSH 0.5F W             CCN000030600000030600FN00000000020220401000030600NNM   20220201133234    1W    00000180000000625000000000032CJ    QNYHVQN 000000000000UQ223033
BI00B32CJ    TTQ2044        202204011801W003940              IVSSH 0.5F W             CCN000010800000010800FN00000000020220401000010800NNM   20220201133234    1W    00000180000000625000000000032CJ    QNYHVQN 000000000000UQ323033
BI00B32CJ    TTQ2041        202203111801W004030              IVSSH 0.75F B            CCN000005200000005200FN00000000020220401000005200NNM   20220201133234    1W    00000130000000882000000000032CJ    QNYHVQN 000000000000UQ422008
BI00B32CJ    TTQ2042        202203181801W004030              IVSSH 0.75F B            CCN000042900000042900FN00000000020220401000042900NNM   20220201133234    1W    00000130000000882000000000032CJ    QNYHVQN 000000000000UQ123033
BI00B32CJ    TTQ2043        202203251801W004030              IVSSH 0.75F B            CCN000046800000046800FN00000000020220401000046800NNM   20220201133234    1W    00000130000000882000000000032CJ    QNYHVQN 000000000000UQ223034
BI00B32CJ    TTQ2044        202204011801W004030              IVSSH 0.75F B            CCN000018200000018200FN00000000020220401000018200NNM   20220201133234    1W    00000130000000882000000000032CJ    QNYHVQN 000000000000UQ323034
BI00B32CJ    TTQ2041        202203111801W004050              IVSSH 0.75F R            CCN000016900000016900FN00000000020220401000016900NNM   20220201133234    1W    00000130000000882000000000032CJ    QNYHVQN 000000000000UQ422009
BI00B32CJ    TTQ2042        202203181801W004050              IVSSH 0.75F R            CCN000063700000063700FN00000000020220401000063700NNM   20220201133234    1W    00000130000000882000000000032CJ    QNYHVQN 000000000000UQ123034
BI00B32CJ    TTQ2043        202203251801W004050              IVSSH 0.75F R            CCN000067600000067600FN00000000020220401000067600NNM   20220201133234    1W    00000130000000882000000000032CJ    QNYHVQN 000000000000UQ223035
BI00B32CJ    TTQ2044        202204011801W004050              IVSSH 0.75F R            CCN000027300000027300FN00000000020220401000027300NNM   20220201133234    1W    00000130000000882000000000032CJ    QNYHVQN 000000000000UQ323035
BI00B32CJ    TTQ2041        202203111801W004091              IVSSH 0.75F SB           CCN000005200000005200FN00000000020220401000005200NNM   20220201133234    1W    00000130000000882000000000032CJ    QNYHVQN 000000000000UQ422010
BI00B32CJ    TTQ2042        202203181801W004091              IVSSH 0.75F SB           CCN000016900000016900FN00000000020220401000016900NNM   20220201133234    1W    00000130000000882000000000032CJ    QNYHVQN 000000000000UQ123035
BI00B32CJ    TTQ2043        202203251801W004091              IVSSH 0.75F SB           CCN000020800000020800FN00000000020220401000020800NNM   20220201133234    1W    00000130000000882000000000032CJ    QNYHVQN 000000000000UQ223036
BI00B32CJ    TTQ2044        202204011801W004091              IVSSH 0.75F SB           CCN000020800000020800FN00000000020220401000020800NNM   20220201133234    1W    00000130000000882000000000032CJ    QNYHVQN 000000000000UQ323036
BI00B32CJ    @TTQ2043       20220325181B32012ZZ              AVSSCS 0.3FX2 DGY/BR     CCN000000700000000700FN00000000020220401000000700NNM   20220201133233    1W    00000035000002276000000000032CJ    QNYHVQN 000000000000UQ223015
BI00B32CJ    @TTQ2044       20220401181B32012ZZ              AVSSCS 0.3FX2 DGY/BR     CCN000000700000000700FN00000000020220401000000700NNM   20220201133233    1W    00000035000002276000000000032CJ    QNYHVQN 000000000000UQ323016
BI00B32CJ    @TTQ2041       20220311181E48013ZZ              CAVSAS-S 0.3X3 GY        CCN000019000000019000FN00000000020220401000019000NNM   20220201133233    1W    00000025000002778200000000032CJ    QNYHVQN 000000000000UQ422005
BI00B32CJ    @TTQ2042       20220318181E48013ZZ              CAVSAS-S 0.3X3 GY        CCN000019000000019000FN00000000020220401000019000NNM   20220201133233    1W    00000025000002778200000000032CJ    QNYHVQN 000000000000UQ123018
BI00B32CJ    @TTQ2043       20220325181E48013ZZ              CAVSAS-S 0.3X3 GY        CCN000006000000006000FN00000000020220401000006000NNM   20220201133233    1W    00000025000002778200000000032CJ    QNYHVQN 000000000000UQ223016
BI00B32CJ    @TTQ2044       20220401181E48013ZZ              CAVSAS-S 0.3X3 GY        CCN000019000000019000FN00000000020220401000019000NNM   20220201133233    1W    00000025000002778200000000032CJ    QNYHVQN 000000000000UQ323017
BI00B32CJ    @TTQ2041       20220311181E48027ZZ              CAVSAS-S 0.5X2 GY/P      CCN000002400000002400FN00000000020220401000002400NNM   20220201133233    1W    00000030000002561000000000032CJ    QNYHVQN 000000000000UQ422003
BI00B32CJ    @TTQ2042       20220318181E48027ZZ              CAVSAS-S 0.5X2 GY/P      CCN000000600000000600FN00000000020220401000000600NNM   20220201133233    1W    00000030000002561000000000032CJ    QNYHVQN 000000000000UQ123016
BI00B32CJ    @TTQ2041       20220311181E48029ZZ              CAVSAS-S 0.5X4 GY        CCN000002400000002400FN00000000020220401000002400NNM   20220201133233    1W    00000020000003995000000000032CJ    QNYHVQN 000000000000UQ422004
BI00B32CJ    @TTQ2042       20220318181E48029ZZ              CAVSAS-S 0.5X4 GY        CCN000000600000000600FN00000000020220401000000600NNM   20220201133233    1W    00000020000003995000000000032CJ    QNYHVQN 000000000000UQ123017
BI00B32CJ    @TTQ2041       20220311181AD2007ZZ              CIVUSAS-S 0.5X1 B        CCN000001000000001000FN00000000020220401000001000NNM   20220201133233    1W    00000050000001639600000000032CJ    QNYHVQN 000000000000UQ422002
BI00B32DE    TT203F         20220217180D0204140              AVSSH 1.25F W            CCN000003200000003200FN00000000020220301000003200NNE   20220201090300    1W    00000080000001458000000000032DE    TVYEV-TV000000000000VR122001
BI00B32DE    @TT203F        20220224181E50027ZZ              AVSSCS-S 0.5FX3 DGY/G    CCN000004600000004750FN00000000020220301000004750NNE   20220201090258    1W    00000025000003265000000000032DE    TVYEV-TV000000000000VV222001
BI00B32DE    @TT203F        20220224181F21014ZZ              AVSSHCS-S 0.5FX2 B/L     CCN000001500000001500FN00000000020220301000001500NNE   20220201090258    1W    00000030000002531400000000032DE    TVYEV-TV000000000000VV222002
BI00B32DE    TT203G         20220217180D0203735              AVSSH 0.3F B/R           CCN000002000000002000FN00000000020220301000002000NNE   20220201090300    1W    00000200000000515000000000032DE    TVYEV-TV000000000000VU122001
BI00B32DE    TT203G         20220217180D0203760              AVSSH 0.3F G             CCN000002000000002000FN00000000020220301000002000NNE   20220201090300    1W    00000200000000515000000000032DE    TVYEV-TV000000000000VU122002
BI00B32DE    TT203G         20220217180D0203792              AVSSH 0.3F V             CCN000002000000002000FN00000000020220301000002000NNE   20220201090300    1W    00000200000000515000000000032DE    TVYEV-TV000000000000VU122003
BI00B32DE    TT203G         20220217180D0203940              AVSSH 0.5F W             CCN000009000000009000FN00000000020220301000009000NNE   20220201090300    1W    00000150000000689000000000032DE    TVYEV-TV000000000000VU122004
BI00B32DE    TT203G         20220217180D0204043              AVSSH 0.75F W/B          CCN000007000000007000FN00000000020220301000007000NNE   20220201090300    1W    00000100000000934000000000032DE    TVYEV-TV000000000000VU122005
BI00B32DE    TT203G         20220217180D0204070              AVSSH 0.75F Y            CCN000001000000001000FN00000000020220301000001000NNE   20220201090300    1W    00000100000000934000000000032DE    TVYEV-TV000000000000VU122006
BI00B32DE    TT203G         20220217180D0204130              AVSSH 1.25F B            CCN000003200000003200FN00000000020220301000003200NNE   20220201090300    1W    00000080000001458000000000032DE    TVYEV-TV000000000000VU122007
BI00B32DE    TT203G         20220217180D0204190              AVSSH 1.25F L            CCN000000800000000800FN00000000020220301000000800NNE   20220201090300    1W    00000080000001458000000000032DE    TVYEV-TV000000000000VU122008
BI00B32DE    TT203G         20220217180D0204140              AVSSH 1.25F W            CCN000000800000000800FN00000000020220301000000800NNE   20220201090300    1W    00000080000001458000000000032DE    TVYEV-TV000000000000VU122009
BI00B32DE    @TT203G        20220224181E50009ZZ              AVSSCS-S 0.5FX2 DGY/W    CCN000007500000007500FN00000000020220301000007500NNE   20220201090259    1W    00000030000003096000000000032DE    TVYEV-TV000000000000VW222001
BI00B32DE    @TT203G        20220224181F21014ZZ              AVSSHCS-S 0.5FX2 B/L     CCN000001500000001500FN00000000020220301000001500NNE   20220201090259    1W    00000030000002531400000000032DE    TVYEV-TV000000000000VW222002
BI00B32DJ    GHT2203D       2022021018009604330              AVS 3 B                  CCN000079600000079600FN00000000020220101000079600NNE   20220201131906    1W    00000040000003831600000000032DJ    RBYIPLRB000000000000XL421005
BI00B32DJ    GHT2203D       2022021018009604350              AVS 3 R                  CCN000038000000038000FN00000000020220101000038000NNE   20220201131906    1W    00000040000003831600000000032DJ    RBYIPLRB000000000000XL421009
BI00B32DJ    GHT2203D       2022021018009604360              AVS 3 G                  CCN000038000000038000FN00000000020220101000038000NNE   20220201131906    1W    00000040000003831600000000032DJ    RBYIPLRB000000000000XL421007
BI00B32DJ    GHT2203D       2022021018009604340              AVS 3 W                  CCN000028000000028000FN00000000020220101000028000NNE   20220201131906    1W    00000040000003831600000000032DJ    RBYIPLRB000000000000XL421010
BI00B32DJ    GHT2203D       2022021018009604390              AVS 3 L                  CCN000013600000013600FN00000000020220101000013600NNE   20220201131906    1W    00000040000003831600000000032DJ    RBYIPLRB000000000000XL421008
BI00B32DJ    GHT2203D       2022021018009604450              AVS 5 R                  CCN000008600000008600FN00000000020220101000008600NNE   20220201131906    1W    00000020000005981000000000032DJ    RBYIPLRB000000000000XL421017
BI00B32DJ    GHT2203D       2022021018000004560              AV 8 G                   CCN000008400000008400FN00000000020220101000008400NNE   20220201131906    1W    00000010000010466200000000032DJ    RBYIPLRB000000000000XL421002
BI00B32DJ    GHT2203D       2022021018009604370              AVS 3 Y                  CCN000013200000013200FN00000000020220101000013200NNE   20220201131906    1W    00000040000003831600000000032DJ    RBYIPLRB000000000000XL421012
BI00B32DJ    GHT2203D       2022021018009604490              AVS 5 L                  CCN000005600000005600FN00000000020220101000005600NNE   20220201131906    1W    00000020000005981000000000032DJ    RBYIPLRB000000000000XL421015
BI00B32DJ    GHT2203D       2022021018009604440              AVS 5 W                  CCN000006600000006600FN00000000020220101000006600NNE   20220201131906    1W    00000020000005981000000000032DJ    RBYIPLRB000000000000XL421018
BI00B32DJ    GHT2203D       2022021018000004530              AV 8 B                   CCN000002000000002000FN00000000020220101000002000NNE   20220201131906    1W    00000010000010466200000000032DJ    RBYIPLRB000000000000XL421001
BI00B32DJ    GHT2203D       2022021018000004550              AV 8 R                   CCN000003500000003500FN00000000020220101000003500NNE   20220201131906    1W    00000010000010466200000000032DJ    RBYIPLRB000000000000XL421004
BI00B32DJ    GHT2203D       2022021018009604430              AVS 5 B                  CCN000003000000003000FN00000000020220101000003000NNE   20220201131906    1W    00000020000005981000000000032DJ    RBYIPLRB000000000000XL421013
BI00B32DJ    GHT2203D       2022021018009604452              AVS 5 P                  CCN000002800000002800FN00000000020220101000002800NNE   20220201131906    1W    00000020000005981000000000032DJ    RBYIPLRB000000000000XL421016
BI00B32DJ    GHT2203D       2022021018009604347              AVS 3 W/Y                CCN000000800000000800FN00000000020220101000000800NNE   20220201131906    1W    00000040000003831600000000032DJ    RBYIPLRB000000000000XL421011
BI00B32DJ    GHT2203D       2022021018009604380              AVS 3 BR                 CCN000001600000001600FN00000000020220101000001600NNE   20220201131906    1W    00000040000003831600000000032DJ    RBYIPLRB000000000000XL421006
BI00B32DJ    GHT2203D       2022021018009604460              AVS 5 G                  CCN000000400000000400FN00000000020220101000000400NNE   20220201131906    1W    00000020000005981000000000032DJ    RBYIPLRB000000000000XL421014
BI00B32DJ    GHT2203D       2022021018000004590              AV 8 L                   CCN000000200000000200FN00000000020220101000000200NNE   20220201131906    1W    00000010000010466200000000032DJ    RBYIPLRB000000000000XL421003
BI00B32DJ    GHT2203E       2022021718009604330              AVS 3 B                  CCN000108000000108000FN00000000020220101000108000NNE   20220201132312    1W    00000040000003831600000000032DJ    RBYIPLRB000000000000XK122005
BI00B32DJ    GHT2203E       2022021718009604350              AVS 3 R                  CCN000104800000104800FN00000000020220101000104800NNE   20220201132312    1W    00000040000003831600000000032DJ    RBYIPLRB000000000000XK122009
BI00B32DJ    GHT2203E       2022021718009604360              AVS 3 G                  CCN000074800000074800FN00000000020220101000074800NNE   20220201132312    1W    00000040000003831600000000032DJ    RBYIPLRB000000000000XK122007
BI00B32DJ    GHT2203E       2022021718009604340              AVS 3 W                  CCN000049200000049200FN00000000020220101000049200NNE   20220201132312    1W    00000040000003831600000000032DJ    RBYIPLRB000000000000XK122010
BI00B32DJ    GHT2203E       2022021718009604390              AVS 3 L                  CCN000040400000040400FN00000000020220101000040400NNE   20220201132312    1W    00000040000003831600000000032DJ    RBYIPLRB000000000000XK122008
BI00B32DJ    GHT2203E       2022021718009604450              AVS 5 R                  CCN000021600000021600FN00000000020220101000021600NNE   20220201132312    1W    00000020000005981000000000032DJ    RBYIPLRB000000000000XK122017
BI00B32DJ    GHT2203E       2022021718000004560              AV 8 G                   CCN000013200000013200FN00000000020220101000013200NNE   20220201132312    1W    00000010000010466200000000032DJ    RBYIPLRB000000000000XK122002
BI00B32DJ    GHT2203E       2022021718009604370              AVS 3 Y                  CCN000032400000032400FN00000000020220101000032400NNE   20220201132312    1W    00000040000003831600000000032DJ    RBYIPLRB000000000000XK122012
BI00B32DJ    GHT2203E       2022021718009604490              AVS 5 L                  CCN000018800000018800FN00000000020220101000018800NNE   20220201132312    1W    00000020000005981000000000032DJ    RBYIPLRB000000000000XK122015
BI00B32DJ    GHT2203E       2022021718009604440              AVS 5 W                  CCN000010000000010000FN00000000020220101000010000NNE   20220201132312    1W    00000020000005981000000000032DJ    RBYIPLRB000000000000XK122018
BI00B32DJ    GHT2203E       2022021718000004530              AV 8 B                   CCN000008800000008800FN00000000020220101000008800NNE   20220201132312    1W    00000010000010466200000000032DJ    RBYIPLRB000000000000XK122001
BI00B32DJ    GHT2203E       2022021718000004550              AV 8 R                   CCN000007200000007200FN00000000020220101000007200NNE   20220201132312    1W    00000010000010466200000000032DJ    RBYIPLRB000000000000XK122004
BI00B32DJ    GHT2203E       2022021718009604430              AVS 5 B                  CCN000006000000006000FN00000000020220101000006000NNE   20220201132312    1W    00000020000005981000000000032DJ    RBYIPLRB000000000000XK122013
BI00B32DJ    GHT2203E       2022021718009604452              AVS 5 P                  CCN000004800000004800FN00000000020220101000004800NNE   20220201132312    1W    00000020000005981000000000032DJ    RBYIPLRB000000000000XK122016
BI00B32DJ    GHT2203E       2022021718009604347              AVS 3 W/Y                CCN000008000000008000FN00000000020220101000008000NNE   20220201132312    1W    00000040000003831600000000032DJ    RBYIPLRB000000000000XK122011
BI00B32DJ    GHT2203E       2022021718009604380              AVS 3 BR                 CCN000002800000002800FN00000000020220101000002800NNE   20220201132312    1W    00000040000003831600000000032DJ    RBYIPLRB000000000000XK122006
BI00B32DJ    GHT2203E       2022021718009604460              AVS 5 G                  CCN000002000000002000FN00000000020220101000002000NNE   20220201132312    1W    00000020000005981000000000032DJ    RBYIPLRB000000000000XK122014
BI00B32DJ    GHT2203E       2022021718000004590              AV 8 L                   CCN000000800000000800FN00000000020220101000000800NNE   20220201132312    1W    00000010000010466200000000032DJ    RBYIPLRB000000000000XK122003
BI00B32D1    DFTW2217       2022030318000004530              AV 8 B                   CCN000001300000001300FN00000000020220401000001300NNE   20220201133711    1W    00000010000010466200000000032D1    TOYOT-K 000000000000KO322067
BI00B32D1    DFTW2217       2022030318000004534              AV 8 B/W                 CCN000006900000006900FN00000000020220401000006900NNE   20220201133711    1W    00000010000010466200000000032D1    TOYOT-K 000000000000KO322069
BI00B32D1    DFTW2217       2022030318000004535              AV 8 B/R                 CCN000003500000003500FN00000000020220401000003500NNE   20220201133711    1W    00000010000010466200000000032D1    TOYOT-K 000000000000KO322068
BI00B32D1    DFTW2217       2022030318000004540              AV 8 W                   CCN000007000000007000FN00000000020220401000007000NNE   20220201133711    1W    00000010000010466200000000032D1    TOYOT-K 000000000000KO322071
BI00B32D1    DFTW2217       2022030318000004543              AV 8 W/B                 CCN000010400000010400FN00000000020220401000010400NNE   20220201133711    1W    00000010000010466200000000032D1    TOYOT-K 000000000000KO322072
BI00B32D1    DFTW2217       2022030318000004550              AV 8 R                   CCN000000600000000600FN00000000020220401000000600NNE   20220201133711    1W    00000010000010466200000000032D1    TOYOT-K 000000000000KO322070
BI00B32D1    @DFTW2217      20220303181AD2002ZZ              CIVUSAS-S 0.35X2 B       CCN000013050000013050FN00000000020220401000013050NNE   20220201133709    1W    00000045000001713700000000032D1    TOYOT-K 000000000000KO322039
BI00B32D1    @DFTW2217      20220303181AD2003ZZ              CIVUSAS-S 0.35X3 B       CCN000002100000002100FN00000000020220401000002100NNE   20220201133709    1W    00000035000002172100000000032D1    TOYOT-K 000000000000KO322040
BI00B32D1    @DFTW2217      20220303181AD2004ZZ              CIVUSAS-S 0.35X4 B       CCN000009000000009000FN00000000020220401000009000NNE   20220201133709    1W    00000030000002799900000000032D1    TOYOT-K 000000000000KO322041
BI00B32D1    @DFTW2217      20220303181E48031ZZ              CAVSAS-S 0.3X2 GY        CCN000003500000003500FN00000000020220401000003500NNE   20220201133709    1W    00000035000002008700000000032D1    TOYOT-K 000000000000KO322042
BI00B32D1    @DFTW2217      20220303181E48037ZZ              CAVSAS-S 0.3X4 GY        CCN000005250000005250FN00000000020220401000005250NNE   20220201133709    1W    00000025000003262000000000032D1    TOYOT-K 000000000000KO322045
BI00B32D1    @DFTW2217      20220303181E48041ZZ              CAVSAS-S 0.3X2 GY/R      CCN000006650000006650FN00000000020220401000006650NNE   20220201133709    1W    00000035000002008700000000032D1    TOYOT-K 000000000000KO322044
BI00B32D1    @DFTW2217      20220303181E48072ZZ              CAVSAS-S 0.3X2 GY/G      CCN000000350000000350FN00000000020220401000000350NNE   20220201133709    1W    00000035000002008700000000032D1    TOYOT-K 000000000000KO322043
BI00B32D1    @DFTW2217      20220303181E50002ZZ              AVSSCS-S 0.3FX2 DGY/G    CCN000005950000005950FN00000000020220401000005950NNE   20220201133709    1W    00000035000002165000000000032D1    TOYOT-K 000000000000KO322051
BI00B32D1    @DFTW2217      20220303181E50004ZZ              AVSSCS-S 0.5FX1 DGY      CCN000003600000003600FN00000000020220401000003600NNE   20220201133709    1W    00000040000001909700000000032D1    TOYOT-K 000000000000KO322046
BI00B32D1    @DFTW2217      20220303181E50005ZZ              AVSSCS-S 0.5FX1 DGY/W    CCN000001200000001200FN00000000020220401000001200NNE   20220201133709    1W    00000040000001909700000000032D1    TOYOT-K 000000000000KO322049
BI00B32D1    @DFTW2217      20220303181E50007ZZ              AVSSCS-S 0.5FX1 DGY/L    CCN000000800000000800FN00000000020220401000000800NNE   20220201133709    1W    00000040000001909700000000032D1    TOYOT-K 000000000000KO322047
BI00B32D1    @DFTW2217      20220303181E50014ZZ              AVSSCS-S 0.5FX1 DGY/R    CCN000000400000000400FN00000000020220401000000400NNE   20220201133709    1W    00000040000001909700000000032D1    TOYOT-K 000000000000KO322048
BI00B32D1    @DFTW2217      20220303181E50020ZZ              AVSSCS-S 0.3FX2 DGY/R    CCN000003850000003850FN00000000020220401000003850NNE   20220201133709    1W    00000035000002165000000000032D1    TOYOT-K 000000000000KO322053
BI00B32D1    @DFTW2217      20220303181E50021ZZ              AVSSCS-S 0.3FX2 DGY/P    CCN000003850000003850FN00000000020220401000003850NNE   20220201133709    1W    00000035000002165000000000032D1    TOYOT-K 000000000000KO322052
BI00B32D1    @DFTW2217      20220303181E50036ZZ              AVSSCS-S 0.3FX2 DGY      CCN000003850000003850FN00000000020220401000003850NNE   20220201133709    1W    00000035000002165000000000032D1    TOYOT-K 000000000000KO322050
BI00B32D2    @DGTW2217      20220303181E48037ZZ              CAVSAS-S 0.3X4 GY        CCN000008000000008000FN00000000020220401000008000NNE   20220201135140    1W    00000025000003262000000000032D2    TGYOT-G 000000000000KR322017
BI00B32D2    @DGTW2217      20220303181E50004ZZ              AVSSCS-S 0.5FX1 DGY      CCN000002800000002800FN00000000020220401000002800NNE   20220201135140    1W    00000040000001909700000000032D2    TGYOT-G 000000000000KR322018
BI00B32D2    @DGTW2217      20220303181E50007ZZ              AVSSCS-S 0.5FX1 DGY/L    CCN000002400000002400FN00000000020220401000002400NNE   20220201135140    1W    00000040000001909700000000032D2    TGYOT-G 000000000000KR322019
BI00B32D2    @DGTW2217      20220303181E50016ZZ              AVSSCS-S 0.5FX2 DGY/R    CCN000000600000000600FN00000000020220401000000600NNE   20220201135140    1W    00000030000003096000000000032D2    TGYOT-G 000000000000KR322020
BI00B32D2    @DGTW2217      20220303181F21014ZZ              AVSSHCS-S 0.5FX2 B/L     CCN000004200000004200FN00000000020220401000004200NNE   20220201135140    1W    00000030000002531400000000032D2    TGYOT-G 000000000000KR322022
BI00B32D2    @DGTW2217      20220303181F21016ZZ              AVSSHCS-S 0.5FX2 B/BR    CCN000001800000001800FN00000000020220401000001800NNE   20220201135140    1W    00000030000002531400000000032D2    TGYOT-G 000000000000KR322021
BI00B32D2    @DGTW2217      20220303181F21031ZZ              AVSSHCS-S 1.25FX2 B/P    CCN000002000000002000FN00000000020220401000002000NNE   20220201135140    1W    00000020000004267300000000032D2    TGYOT-G 000000000000KR322023
BI00B32G7    JW2203C MW     2022021718007703930              AVSS 0.5F B              CCN000001500000001500FN00000000020220301000001500NNE   20220201141512    1W    00000150000000674000000000032G7    JIJAI   000000000000JO122002
BI00B32G7    @JW2203C MW    20220217181E48078ZZ              CAVSAS-S 0.3X2 W/R       CCN000000350000000350FN00000000020220301000000350NNE   20220201141511    1W    00000035000002008700000000032G7    JIJAI   000000000000JO122001
BI00B32G7    JW2203CMMW     202202171801W003940              IVSSH 0.5F W             CCN000001800000001800FN00000000020220301000001800NNE   20220201141513    1W    00000180000000625000000000032G7    JIJAI   000000000000JP122002
BI00B32G7    JW2203CMMW     202202171801W003950              IVSSH 0.5F R             CCN000001800000001800FN00000000020220301000001800NNE   20220201141513    1W    00000180000000625000000000032G7    JIJAI   000000000000JP122001
BI00B32G7    JW2203CMMW     202202171801W006930              IVSSH 0.35F B            CCN000002500000002500FN00000000020220301000002500NNE   20220201141513    1W    00000250000000452000000000032G7    JIJAI   000000000000JP122003
BI00B32G7    JW2203CMMW     202202171801W006952              IVSSH 0.35F P            CCN000002500000002500FN00000000020220301000002500NNE   20220201141513    1W    00000250000000452000000000032G7    JIJAI   000000000000JP122004
BI00B32G9    22041TMW       20220304180D0203730              AVSSH 0.3F B             CCN000002000000002000FN00000000020220401000002000NNM   20220201151954    1W    00000200000000515000000000032G9    TYTYC   000000000000LT322033
BI00B32G9    22042TMW       20220311180D0203730              AVSSH 0.3F B             CCN000002000000002000FN00000000020220401000002000NNM   20220201151954    1W    00000200000000515000000000032G9    TYTYC   000000000000LT422024
BI00B32G9    22041TMW       20220304180D0203750              AVSSH 0.3F R             CCN000002000000002000FN00000000020220401000002000NNM   20220201151954    1W    00000200000000515000000000032G9    TYTYC   000000000000LT322039
BI00B32G9    22041TMW       20220304180D0203752              AVSSH 0.3F P             CCN000002000000002000FN00000000020220401000002000NNM   20220201151954    1W    00000200000000515000000000032G9    TYTYC   000000000000LT322038
BI00B32G9    22041TMW       20220304180D0203760              AVSSH 0.3F G             CCN000002000000002000FN00000000020220401000002000NNM   20220201151954    1W    00000200000000515000000000032G9    TYTYC   000000000000LT322035
BI00B32G9    22041TMW       20220304180D0203761              AVSSH 0.3F LG            CCN000002000000002000FN00000000020220401000002000NNM   20220201151954    1W    00000200000000515000000000032G9    TYTYC   000000000000LT322037
BI00B32G9    22041TMW       20220304180D0203770              AVSSH 0.3F Y             CCN000002000000002000FN00000000020220401000002000NNM   20220201151954    1W    00000200000000515000000000032G9    TYTYC   000000000000LT322041
BI00B32G9    22042TMW       20220311180D0203770              AVSSH 0.3F Y             CCN000002000000002000FN00000000020220401000002000NNM   20220201151954    1W    00000200000000515000000000032G9    TYTYC   000000000000LT422025
BI00B32G9    22041TMW       20220304180D0203780              AVSSH 0.3F BR            CCN000002000000002000FN00000000020220401000002000NNM   20220201151954    1W    00000200000000515000000000032G9    TYTYC   000000000000LT322034
BI00B32G9    22041TMW       20220304180D0203790              AVSSH 0.3F L             CCN000002000000002000FN00000000020220401000002000NNM   20220201151954    1W    00000200000000515000000000032G9    TYTYC   000000000000LT322036
BI00B32G9    22041TMW       20220304180D0203792              AVSSH 0.3F V             CCN000002000000002000FN00000000020220401000002000NNM   20220201151954    1W    00000200000000515000000000032G9    TYTYC   000000000000LT322040
BI00B32G9    22041TMW       20220304180D0203930              AVSSH 0.5F B             CCN000001500000001500FN00000000020220401000001500NNM   20220201151954    1W    00000150000000689000000000032G9    TYTYC   000000000000LT322042
BI00B32G9    22041TMW       20220304180D0203943              AVSSH 0.5F W/B           CCN000001500000001500FN00000000020220401000001500NNM   20220201151954    1W    00000150000000689000000000032G9    TYTYC   000000000000LT322047
BI00B32G9    22042TMW       20220311180D0203943              AVSSH 0.5F W/B           CCN000001500000001500FN00000000020220401000001500NNM   20220201151954    1W    00000150000000689000000000032G9    TYTYC   000000000000LT422026
BI00B32G9    22041TMW       20220304180D0203950              AVSSH 0.5F R             CCN000001500000001500FN00000000020220401000001500NNM   20220201151954    1W    00000150000000689000000000032G9    TYTYC   000000000000LT322045
BI00B32G9    22041TMW       20220304180D0203960              AVSSH 0.5F G             CCN000001500000001500FN00000000020220401000001500NNM   20220201151954    1W    00000150000000689000000000032G9    TYTYC   000000000000LT322044
BI00B32G9    22041TMW       20220304180D0203980              AVSSH 0.5F BR            CCN000001500000001500FN00000000020220401000001500NNM   20220201151954    1W    00000150000000689000000000032G9    TYTYC   000000000000LT322043
BI00B32G9    22041TMW       20220304180D0203992              AVSSH 0.5F V             CCN000001500000001500FN00000000020220401000001500NNM   20220201151954    1W    00000150000000689000000000032G9    TYTYC   000000000000LT322046
BI00B32G9    22041TMW       20220304180D0204140              AVSSH 1.25F W            CCN000000800000000800FN00000000020220401000000800NNM   20220201151954    1W    00000080000001458000000000032G9    TYTYC   000000000000LT322048
BI00B32G9    22042TMW       20220311180D0204140              AVSSH 1.25F W            CCN000000800000000800FN00000000020220401000000800NNM   20220201151954    1W    00000080000001458000000000032G9    TYTYC   000000000000LT422027
BI00B32G9    22041TMW       20220304180D0204143              AVSSH 1.25F W/B          CCN000002400000002400FN00000000020220401000002400NNM   20220201151954    1W    00000080000001458000000000032G9    TYTYC   000000000000LT322049
BI00B32G9    22042TMW       20220311180D0204143              AVSSH 1.25F W/B          CCN000001600000001600FN00000000020220401000001600NNM   20220201151954    1W    00000080000001458000000000032G9    TYTYC   000000000000LT422028
BI00B32G9    22041TMW       2022030418007704030              AVSS 0.75F B             CCN000002000000002000FN00000000020220401000002000NNM   20220201151954    1W    00000100000000943000000000032G9    TYTYC   000000000000LT322050
BI00B32G9    22041TMW       202203041801W003930              IVSSH 0.5F B             CCN000003600000003600FN00000000020220401000003600NNM   20220201151954    1W    00000180000000625000000000032G9    TYTYC   000000000000LT322051
BI00B32G9    22042TMW       202203111801W003930              IVSSH 0.5F B             CCN000003600000003600FN00000000020220401000003600NNM   20220201151954    1W    00000180000000625000000000032G9    TYTYC   000000000000LT422029
BI00B32G9    22041TMW       202203041801W003940              IVSSH 0.5F W             CCN000001800000001800FN00000000020220401000001800NNM   20220201151954    1W    00000180000000625000000000032G9    TYTYC   000000000000LT322059
BI00B32G9    22041TMW       202203041801W003941              IVSSH 0.5F GY            CCN000001800000001800FN00000000020220401000001800NNM   20220201151954    1W    00000180000000625000000000032G9    TYTYC   000000000000LT322053
BI00B32G9    22041TMW       202203041801W003943              IVSSH 0.5F W/B           CCN000001800000001800FN00000000020220401000001800NNM   20220201151954    1W    00000180000000625000000000032G9    TYTYC   000000000000LT322060
BI00B32G9    22041TMW       202203041801W003950              IVSSH 0.5F R             CCN000001800000001800FN00000000020220401000001800NNM   20220201151954    1W    00000180000000625000000000032G9    TYTYC   000000000000LT322056
BI00B32G9    22041TMW       202203041801W003952              IVSSH 0.5F P             CCN000001800000001800FN00000000020220401000001800NNM   20220201151954    1W    00000180000000625000000000032G9    TYTYC   000000000000LT322055
BI00B32G9    22041TMW       202203041801W003960              IVSSH 0.5F G             CCN000001800000001800FN00000000020220401000001800NNM   20220201151954    1W    00000180000000625000000000032G9    TYTYC   000000000000LT322052
BI00B32G9    22042TMW       202203111801W003960              IVSSH 0.5F G             CCN000001800000001800FN00000000020220401000001800NNM   20220201151954    1W    00000180000000625000000000032G9    TYTYC   000000000000LT422030
BI00B32G9    22041TMW       202203041801W003990              IVSSH 0.5F L             CCN000001800000001800FN00000000020220401000001800NNM   20220201151954    1W    00000180000000625000000000032G9    TYTYC   000000000000LT322054
BI00B32G9    22042TMW       202203111801W003990              IVSSH 0.5F L             CCN000001800000001800FN00000000020220401000001800NNM   20220201151954    1W    00000180000000625000000000032G9    TYTYC   000000000000LT422031
BI00B32G9    22041TMW       202203041801W003991              IVSSH 0.5F SB            CCN000001800000001800FN00000000020220401000001800NNM   20220201151954    1W    00000180000000625000000000032G9    TYTYC   000000000000LT322057
BI00B32G9    22041TMW       202203041801W003992              IVSSH 0.5F V             CCN000001800000001800FN00000000020220401000001800NNM   20220201151954    1W    00000180000000625000000000032G9    TYTYC   000000000000LT322058
BI00B32G9    22041TMW       202203041801W004060              IVSSH 0.75F G            CCN000002600000002600FN00000000020220401000002600NNM   20220201151954    1W    00000130000000882000000000032G9    TYTYC   000000000000LT322061
BI00B32G9    22042TMW       202203111801W004060              IVSSH 0.75F G            CCN000001300000001300FN00000000020220401000001300NNM   20220201151954    1W    00000130000000882000000000032G9    TYTYC   000000000000LT422032
BI00B32G9    22041TMW       202203041801W004070              IVSSH 0.75F Y            CCN000001300000001300FN00000000020220401000001300NNM   20220201151954    1W    00000130000000882000000000032G9    TYTYC   000000000000LT322062
BI00B32G9    22041TMW       202203041801W006930              IVSSH 0.35F B            CCN000002500000002500FN00000000020220401000002500NNM   20220201151954    1W    00000250000000452000000000032G9    TYTYC   000000000000LT322063
BI00B32G9    22042TMW       202203111801W006930              IVSSH 0.35F B            CCN000002500000002500FN00000000020220401000002500NNM   20220201151954    1W    00000250000000452000000000032G9    TYTYC   000000000000LT422033
BI00B32G9    22041TMW       202203041801W006940              IVSSH 0.35F W            CCN000002500000002500FN00000000020220401000002500NNM   20220201151954    1W    00000250000000452000000000032G9    TYTYC   000000000000LT322070
BI00B32G9    22041TMW       202203041801W006941              IVSSH 0.35F GY           CCN000002500000002500FN00000000020220401000002500NNM   20220201151954    1W    00000250000000452000000000032G9    TYTYC   000000000000LT322066
BI00B32G9    22041TMW       202203041801W006950              IVSSH 0.35F R            CCN000002500000002500FN00000000020220401000002500NNM   20220201151954    1W    00000250000000452000000000032G9    TYTYC   000000000000LT322068
BI00B32G9    22042TMW       202203111801W006950              IVSSH 0.35F R            CCN000002500000002500FN00000000020220401000002500NNM   20220201151954    1W    00000250000000452000000000032G9    TYTYC   000000000000LT422036
BI00B32G9    22041TMW       202203041801W006960              IVSSH 0.35F G            CCN000002500000002500FN00000000020220401000002500NNM   20220201151954    1W    00000250000000452000000000032G9    TYTYC   000000000000LT322065
BI00B32G9    22042TMW       202203111801W006960              IVSSH 0.35F G            CCN000002500000002500FN00000000020220401000002500NNM   20220201151954    1W    00000250000000452000000000032G9    TYTYC   000000000000LT422034
BI00B32G9    22041TMW       202203041801W006970              IVSSH 0.35F Y            CCN000002500000002500FN00000000020220401000002500NNM   20220201151954    1W    00000250000000452000000000032G9    TYTYC   000000000000LT322071
BI00B32G9    22042TMW       202203111801W006970              IVSSH 0.35F Y            CCN000002500000002500FN00000000020220401000002500NNM   20220201151954    1W    00000250000000452000000000032G9    TYTYC   000000000000LT422037
BI00B32G9    22041TMW       202203041801W006980              IVSSH 0.35F BR           CCN000002500000002500FN00000000020220401000002500NNM   20220201151954    1W    00000250000000452000000000032G9    TYTYC   000000000000LT322064
BI00B32G9    22041TMW       202203041801W006990              IVSSH 0.35F L            CCN000002500000002500FN00000000020220401000002500NNM   20220201151954    1W    00000250000000452000000000032G9    TYTYC   000000000000LT322067
BI00B32G9    22042TMW       202203111801W006990              IVSSH 0.35F L            CCN000002500000002500FN00000000020220401000002500NNM   20220201151954    1W    00000250000000452000000000032G9    TYTYC   000000000000LT422035
BI00B32G9    22041TMW       202203041801W006992              IVSSH 0.35F V            CCN000002500000002500FN00000000020220401000002500NNM   20220201151954    1W    00000250000000452000000000032G9    TYTYC   000000000000LT322069
BI00B32G9    @22041TMW      20220304181E50004ZZ              AVSSCS-S 0.5FX1 DGY      CCN000001200000001200FN00000000020220401000001200NNM   20220201151953    1W    00000040000001909700000000032G9    TYTYC   000000000000LT322019
BI00B32G9    @22042TMW      20220311181E50004ZZ              AVSSCS-S 0.5FX1 DGY      CCN000000800000000800FN00000000020220401000000800NNM   20220201151953    1W    00000040000001909700000000032G9    TYTYC   000000000000LT422011
BI00B32H0    TT22051VMW     20220322180D0203980              AVSSH 0.5F BR            CCN000001500000001500FN00000000020220501000001500NNM   20220201175424    1W    00000150000000689000000000032H0    TTTJY   000000000000NV223006
BI00B32H0    TT22051VMW     20220322180D0203950              AVSSH 0.5F R             CCN000052500000052500FN00000000020220501000052500NNM   20220201175424    1W    00000150000000689000000000032H0    TTTJY   000000000000NV223007
BI00B32H0    TT22051VMW     20220322180D0203992              AVSSH 0.5F V             CCN000001500000001500FN00000000020220501000001500NNM   20220201175424    1W    00000150000000689000000000032H0    TTTJY   000000000000NV223008
BI00B32H0    TT22051VMW     20220322180D0204130              AVSSH 1.25F B            CCN000000800000000800FN00000000020220501000000800NNM   20220201175424    1W    00000080000001458000000000032H0    TTTJY   000000000000NV223009
BI00B32H0    TT22051VMW     20220322180D0204160              AVSSH 1.25F G            CCN000000800000000800FN00000000020220501000000800NNM   20220201175424    1W    00000080000001458000000000032H0    TTTJY   000000000000NV223010
BI00B32H0    TT22051VMW     20220322180D0204190              AVSSH 1.25F L            CCN000000800000000800FN00000000020220501000000800NNM   20220201175424    1W    00000080000001458000000000032H0    TTTJY   000000000000NV223011
BI00B32H0    TT22051VMW     20220322180D0204192              AVSSH 1.25F V            CCN000000800000000800FN00000000020220501000000800NNM   20220201175424    1W    00000080000001458000000000032H0    TTTJY   000000000000NV223012
BI00B32H0    TT22051VMW     20220322180D0204140              AVSSH 1.25F W            CCN000001600000001600FN00000000020220501000001600NNM   20220201175424    1W    00000080000001458000000000032H0    TTTJY   000000000000NV223013
BI00B32H0    TT22051VMW     20220322180D0204143              AVSSH 1.25F W/B          CCN000000800000000800FN00000000020220501000000800NNM   20220201175424    1W    00000080000001458000000000032H0    TTTJY   000000000000NV223014
BI00B32H0    @TT22051VMW    20220322181E50002ZZ              AVSSCS-S 0.3FX2 DGY/G    CCN000000350000000350FN00000000020220501000000350NNM   20220201175423    1W    00000035000002165000000000032H0    TTTJY   000000000000NV223003
BI00B32H0    @TT22051VMW    20220322181E50036ZZ              AVSSCS-S 0.3FX2 DGY      CCN000000350000000350FN00000000020220501000000350NNM   20220201175423    1W    00000035000002165000000000032H0    TTTJY   000000000000NV223002
BI00B32H0    TT2203HVMW     20220222180D0203980              AVSSH 0.5F BR            CCN000001500000001500FN00000000020220301000001500NNE   20220201175418    1W    00000150000000689000000000032H0    TTTJY   000000000000NP323006
BI00B32H0    TT2204AVMW     20220222180D0203943              AVSSH 0.5F W/B           CCN000001500000001500FN00000000020220401000001500NNE   20220201175421    1W    00000150000000689000000000032H0    TTTJY   000000000000NJ122001
BI00B32H0    TT2204AVMW     20220222180D0204130              AVSSH 1.25F B            CCN000000800000000800FN00000000020220401000000800NNE   20220201175421    1W    00000080000001458000000000032H0    TTTJY   000000000000NJ122002
BI00B32H0    TT2204AVMW     20220222180D0204160              AVSSH 1.25F G            CCN000000800000000800FN00000000020220401000000800NNE   20220201175421    1W    00000080000001458000000000032H0    TTTJY   000000000000NJ122003
BI00A32H2    @TAW202M       20220208181E48018ZZ              CAVSAS-S 0.5X2 GY/SB     CCN000000600000000600FN00000000020220201000000600NNE   20220201093913    1W    00000030000002561000000000032H2    HVYHV   000000000000UB321003
BI00A32H2    @TAW202M       20220208181E48022ZZ              CAVSAS-S 0.5X2 GY        CCN000000600000000600FN00000000020220201000000600NNE   20220201093913    1W    00000030000002561000000000032H2    HVYHV   000000000000UB321002
BI00B32H2    TAW2041        2022031118000004530              AV 8 B                   CCN000005000000005000FN00000000020220401000005000NNM   20220201095625    1W    00000010000010466200000000032H2    HVYHV   000000000000UH422028
BI00B32H2    TAW2042        2022031818000004530              AV 8 B                   CCN000005000000005000FN00000000020220401000005000NNM   20220201095625    1W    00000010000010466200000000032H2    HVYHV   000000000000UH123037
BI00B32H2    TAW2043        2022032518000004530              AV 8 B                   CCN000004000000004000FN00000000020220401000004000NNM   20220201095625    1W    00000010000010466200000000032H2    HVYHV   000000000000UH223046
BI00B32H2    TAW2044        2022040118000004530              AV 8 B                   CCN000005000000005000FN00000000020220401000005000NNM   20220201095625    1W    00000010000010466200000000032H2    HVYHV   000000000000UH323043
BI00B32H2    TAW2044        2022040118000004540              AV 8 W                   CCN000002500000002500FN00000000020220401000002500NNM   20220201095625    1W    00000010000010466200000000032H2    HVYHV   000000000000UH323044
BI00B32H2    TAW2041        2022031118007704130              AVSS 1.25F B             CCN000000800000000800FN00000000020220401000000800NNM   20220201095625    1W    00000080000001389000000000032H2    HVYHV   000000000000UH422029
BI00B32H2    TAW2042        2022031818007704130              AVSS 1.25F B             CCN000000800000000800FN00000000020220401000000800NNM   20220201095625    1W    00000080000001389000000000032H2    HVYHV   000000000000UH123038
BI00B32H2    TAW2043        2022032518007704130              AVSS 1.25F B             CCN000000800000000800FN00000000020220401000000800NNM   20220201095625    1W    00000080000001389000000000032H2    HVYHV   000000000000UH223047
BI00B32H2    TAW2041        2022031118007704160              AVSS 1.25F G             CCN000000800000000800FN00000000020220401000000800NNM   20220201095625    1W    00000080000001389000000000032H2    HVYHV   000000000000UH422030
BI00B32H2    TAW2042        2022031818007704150              AVSS 1.25F R             CCN000000800000000800FN00000000020220401000000800NNM   20220201095625    1W    00000080000001389000000000032H2    HVYHV   000000000000UH123039
BI00B32H2    TAW2043        2022032518007704150              AVSS 1.25F R             CCN000001600000001600FN00000000020220401000001600NNM   20220201095625    1W    00000080000001389000000000032H2    HVYHV   000000000000UH223048
BI00B32H2    TAW2044        2022040118007704150              AVSS 1.25F R             CCN000001600000001600FN00000000020220401000001600NNM   20220201095625    1W    00000080000001389000000000032H2    HVYHV   000000000000UH323045
BI00B32H2    TAW2042        2022031818007704140              AVSS 1.25F W             CCN000001600000001600FN00000000020220401000001600NNM   20220201095625    1W    00000080000001389000000000032H2    HVYHV   000000000000UH123040
BI00B32H2    TAW2043        2022032518007704140              AVSS 1.25F W             CCN000002400000002400FN00000000020220401000002400NNM   20220201095625    1W    00000080000001389000000000032H2    HVYHV   000000000000UH223049
BI00B32H2    TAW2044        2022040118007704140              AVSS 1.25F W             CCN000002400000002400FN00000000020220401000002400NNM   20220201095625    1W    00000080000001389000000000032H2    HVYHV   000000000000UH323046
BI00B32H2    TAW2042        2022031818007704143              AVSS 1.25F W/B           CCN000000800000000800FN00000000020220401000000800NNM   20220201095625    1W    00000080000001389000000000032H2    HVYHV   000000000000UH123041
BI00B32H2    TAW2043        2022032518007704143              AVSS 1.25F W/B           CCN000000800000000800FN00000000020220401000000800NNM   20220201095625    1W    00000080000001389000000000032H2    HVYHV   000000000000UH223050
BI00B32H2    TAW2041        20220311180D0203930              AVSSH 0.5F B             CCN000003000000003000FN00000000020220401000003000NNM   20220201095625    1W    00000150000000689000000000032H2    HVYHV   000000000000UH422022
BI00B32H2    TAW2042        20220318180D0203930              AVSSH 0.5F B             CCN000003000000003000FN00000000020220401000003000NNM   20220201095625    1W    00000150000000689000000000032H2    HVYHV   000000000000UH123033
BI00B32H2    TAW2043        20220325180D0203930              AVSSH 0.5F B             CCN000003000000003000FN00000000020220401000003000NNM   20220201095625    1W    00000150000000689000000000032H2    HVYHV   000000000000UH223044
BI00B32H2    TAW2044        20220401180D0203930              AVSSH 0.5F B             CCN000003000000003000FN00000000020220401000003000NNM   20220201095625    1W    00000150000000689000000000032H2    HVYHV   000000000000UH323042
BI00B32H2    TAW2041        20220311180D0203980              AVSSH 0.5F BR            CCN000001500000001500FN00000000020220401000001500NNM   20220201095625    1W    00000150000000689000000000032H2    HVYHV   000000000000UH422023
BI00B32H2    TAW2041        20220311180D0203960              AVSSH 0.5F G             CCN000001500000001500FN00000000020220401000001500NNM   20220201095625    1W    00000150000000689000000000032H2    HVYHV   000000000000UH422024
BI00B32H2    TAW2041        20220311180D0203950              AVSSH 0.5F R             CCN000001500000001500FN00000000020220401000001500NNM   20220201095625    1W    00000150000000689000000000032H2    HVYHV   000000000000UH422025
BI00B32H2    TAW2042        20220318180D0203943              AVSSH 0.5F W/B           CCN000001500000001500FN00000000020220401000001500NNM   20220201095625    1W    00000150000000689000000000032H2    HVYHV   000000000000UH123034
BI00B32H2    TAW2043        20220325180D0203943              AVSSH 0.5F W/B           CCN000001500000001500FN00000000020220401000001500NNM   20220201095625    1W    00000150000000689000000000032H2    HVYHV   000000000000UH223045
BI00B32H2    TAW2042        20220318180D0204043              AVSSH 0.75F W/B          CCN000001000000001000FN00000000020220401000001000NNM   20220201095625    1W    00000100000000934000000000032H2    HVYHV   000000000000UH123035
BI00B32H2    TAW2041        20220311180D0204180              AVSSH 1.25F BR           CCN000000800000000800FN00000000020220401000000800NNM   20220201095625    1W    00000080000001458000000000032H2    HVYHV   000000000000UH422026
BI00B32H2    TAW2042        20220318180D0204190              AVSSH 1.25F L            CCN000000800000000800FN00000000020220401000000800NNM   20220201095625    1W    00000080000001458000000000032H2    HVYHV   000000000000UH123036
BI00B32H2    TAW2041        20220311180D0204143              AVSSH 1.25F W/B          CCN000000800000000800FN00000000020220401000000800NNM   20220201095625    1W    00000080000001458000000000032H2    HVYHV   000000000000UH422027
BI00B32H2    @TAW2041       20220311181B32102S1              AVSSCS 0.5FX2 DGY        CCN000006000000006000FN00000000020220401000006000NNM   20220201095621    1W    00000030000002903000000000032H2    HVYHV   000000000000UH422018
BI00B32H2    @TAW2042       20220318181B32102S1              AVSSCS 0.5FX2 DGY        CCN000012000000012000FN00000000020220401000012000NNM   20220201095621    1W    00000030000002903000000000032H2    HVYHV   000000000000UH123028
BI00B32H2    @TAW2043       20220325181B32102S1              AVSSCS 0.5FX2 DGY        CCN000012000000012000FN00000000020220401000012000NNM   20220201095621    1W    00000030000002903000000000032H2    HVYHV   000000000000UH223035
BI00B32H2    @TAW2044       20220401181B32102S1              AVSSCS 0.5FX2 DGY        CCN000006000000006000FN00000000020220401000006000NNM   20220201095621    1W    00000030000002903000000000032H2    HVYHV   000000000000UH323033
BI00B32H2    @TAW2043       20220325181E50014ZZ              AVSSCS-S 0.5FX1 DGY/R    CCN000001200000001200FN00000000020220401000001200NNM   20220201095621    1W    00000040000001909700000000032H2    HVYHV   000000000000UH223042
BI00B32H2    @TAW2044       20220401181E50014ZZ              AVSSCS-S 0.5FX1 DGY/R    CCN000001200000001200FN00000000020220401000001200NNM   20220201095621    1W    00000040000001909700000000032H2    HVYHV   000000000000UH323040
BI00B32H2    @TAW2041       20220311181D6910230              AVSSHCS 0.5FX2 B         CCN000000900000000900FN00000000020220401000000900NNM   20220201095621    1W    00000030000002385000000000032H2    HVYHV   000000000000UH422019
BI00B32H2    @TAW2042       20220318181D6910230              AVSSHCS 0.5FX2 B         CCN000000600000000600FN00000000020220401000000600NNM   20220201095621    1W    00000030000002385000000000032H2    HVYHV   000000000000UH123029
BI00B32H2    @TAW2043       20220325181D6910230              AVSSHCS 0.5FX2 B         CCN000000600000000600FN00000000020220401000000600NNM   20220201095621    1W    00000030000002385000000000032H2    HVYHV   000000000000UH223036
BI00B32H2    @TAW2044       20220401181D6910230              AVSSHCS 0.5FX2 B         CCN000000300000000300FN00000000020220401000000300NNM   20220201095621    1W    00000030000002385000000000032H2    HVYHV   000000000000UH323034
BI00B32H2    @TAW2043       20220325181F21002ZZ              AVSSHCS-S 0.5FX1 B       CCN000004000000004000FN00000000020220401000004000NNM   20220201095621    1W    00000040000001908400000000032H2    HVYHV   000000000000UH223043
BI00B32H2    @TAW2044       20220401181F21002ZZ              AVSSHCS-S 0.5FX1 B       CCN000004000000004000FN00000000020220401000004000NNM   20220201095621    1W    00000040000001908400000000032H2    HVYHV   000000000000UH323041
BI00B32H2    @TAW2041       20220311181E48013ZZ              CAVSAS-S 0.3X3 GY        CCN000000750000000750FN00000000020220401000000750NNM   20220201095621    1W    00000025000002778200000000032H2    HVYHV   000000000000UH422021
BI00B32H2    @TAW2042       20220318181E48013ZZ              CAVSAS-S 0.3X3 GY        CCN000000750000000750FN00000000020220401000000750NNM   20220201095621    1W    00000025000002778200000000032H2    HVYHV   000000000000UH123032
BI00B32H2    @TAW2043       20220325181E48013ZZ              CAVSAS-S 0.3X3 GY        CCN000000500000000500FN00000000020220401000000500NNM   20220201095621    1W    00000025000002778200000000032H2    HVYHV   000000000000UH223041
BI00B32H2    @TAW2044       20220401181E48013ZZ              CAVSAS-S 0.3X3 GY        CCN000000500000000500FN00000000020220401000000500NNM   20220201095621    1W    00000025000002778200000000032H2    HVYHV   000000000000UH323039
BI00B32H2    @TAW2041       20220311181E48015ZZ              CAVSAS-S 0.5X1 GY        CCN000001200000001200FN00000000020220401000001200NNM   20220201095621    1W    00000040000001900600000000032H2    HVYHV   000000000000UH422020
BI00B32H2    @TAW2042       20220318181E48015ZZ              CAVSAS-S 0.5X1 GY        CCN000001200000001200FN00000000020220401000001200NNM   20220201095621    1W    00000040000001900600000000032H2    HVYHV   000000000000UH123030
BI00B32H2    @TAW2043       20220325181E48015ZZ              CAVSAS-S 0.5X1 GY        CCN000002400000002400FN00000000020220401000002400NNM   20220201095621    1W    00000040000001900600000000032H2    HVYHV   000000000000UH223037
BI00B32H2    @TAW2044       20220401181E48015ZZ              CAVSAS-S 0.5X1 GY        CCN000001600000001600FN00000000020220401000001600NNM   20220201095621    1W    00000040000001900600000000032H2    HVYHV   000000000000UH323035
BI00B32H2    @TAW2042       20220318181E48018ZZ              CAVSAS-S 0.5X2 GY/SB     CCN000000300000000300FN00000000020220401000000300NNM   20220201095621    1W    00000030000002561000000000032H2    HVYHV   000000000000UH123031
BI00B32H2    @TAW2043       20220325181E48018ZZ              CAVSAS-S 0.5X2 GY/SB     CCN000000300000000300FN00000000020220401000000300NNM   20220201095621    1W    00000030000002561000000000032H2    HVYHV   000000000000UH223039
BI00B32H2    @TAW2044       20220401181E48018ZZ              CAVSAS-S 0.5X2 GY/SB     CCN000000300000000300FN00000000020220401000000300NNM   20220201095621    1W    00000030000002561000000000032H2    HVYHV   000000000000UH323037
BI00B32H2    @TAW2043       20220325181E48022ZZ              CAVSAS-S 0.5X2 GY        CCN000000300000000300FN00000000020220401000000300NNM   20220201095621    1W    00000030000002561000000000032H2    HVYHV   000000000000UH223038
BI00B32H2    @TAW2044       20220401181E48022ZZ              CAVSAS-S 0.5X2 GY        CCN000000600000000600FN00000000020220401000000600NNM   20220201095621    1W    00000030000002561000000000032H2    HVYHV   000000000000UH323036
BI00B32H2    @TAW2043       20220325181E48031ZZ              CAVSAS-S 0.3X2 GY        CCN000007000000007000FN00000000020220401000007000NNM   20220201095621    1W    00000035000002008700000000032H2    HVYHV   000000000000UH223040
BI00B32H2    @TAW2044       20220401181E48031ZZ              CAVSAS-S 0.3X2 GY        CCN000007000000007000FN00000000020220401000007000NNM   20220201095621    1W    00000035000002008700000000032H2    HVYHV   000000000000UH323038
BI00B32H2    @TAW2041       20220311181AD2001ZZ              CIVUSAS-S 0.35X1 B       CCN000004400000004400FN00000000020220401000004400NNM   20220201095621    1W    00000055000001540800000000032H2    HVYHV   000000000000UH422015
BI00B32H2    @TAW2042       20220318181AD2001ZZ              CIVUSAS-S 0.35X1 B       CCN000008250000008250FN00000000020220401000008250NNM   20220201095621    1W    00000055000001540800000000032H2    HVYHV   000000000000UH123023
BI00B32H2    @TAW2043       20220325181AD2001ZZ              CIVUSAS-S 0.35X1 B       CCN000008800000008800FN00000000020220401000008800NNM   20220201095621    1W    00000055000001540800000000032H2    HVYHV   000000000000UH223030
BI00B32H2    @TAW2044       20220401181AD2001ZZ              CIVUSAS-S 0.35X1 B       CCN000008250000008250FN00000000020220401000008250NNM   20220201095621    1W    00000055000001540800000000032H2    HVYHV   000000000000UH323028
BI00B32H2    @TAW2041       20220311181AD2002ZZ              CIVUSAS-S 0.35X2 B       CCN000005400000005400FN00000000020220401000005400NNM   20220201095621    1W    00000045000001713700000000032H2    HVYHV   000000000000UH422016
BI00B32H2    @TAW2042       20220318181AD2002ZZ              CIVUSAS-S 0.35X2 B       CCN000013500000013500FN00000000020220401000013500NNM   20220201095621    1W    00000045000001713700000000032H2    HVYHV   000000000000UH123025
BI00B32H2    @TAW2043       20220325181AD2002ZZ              CIVUSAS-S 0.35X2 B       CCN000013500000013500FN00000000020220401000013500NNM   20220201095621    1W    00000045000001713700000000032H2    HVYHV   000000000000UH223032
BI00B32H2    @TAW2044       20220401181AD2002ZZ              CIVUSAS-S 0.35X2 B       CCN000013500000013500FN00000000020220401000013500NNM   20220201095621    1W    00000045000001713700000000032H2    HVYHV   000000000000UH323030
BI00B32H2    @TAW2041       20220311181AD2003ZZ              CIVUSAS-S 0.35X3 B       CCN000028000000028000FN00000000020220401000028000NNM   20220201095621    1W    00000035000002172100000000032H2    HVYHV   000000000000UH422017
BI00B32H2    @TAW2042       20220318181AD2003ZZ              CIVUSAS-S 0.35X3 B       CCN000042000000042000FN00000000020220401000042000NNM   20220201095621    1W    00000035000002172100000000032H2    HVYHV   000000000000UH123026
BI00B32H2    @TAW2043       20220325181AD2003ZZ              CIVUSAS-S 0.35X3 B       CCN000042000000042000FN00000000020220401000042000NNM   20220201095621    1W    00000035000002172100000000032H2    HVYHV   000000000000UH223033
BI00B32H2    @TAW2044       20220401181AD2003ZZ              CIVUSAS-S 0.35X3 B       CCN000042000000042000FN00000000020220401000042000NNM   20220201095621    1W    00000035000002172100000000032H2    HVYHV   000000000000UH323031
BI00B32H2    @TAW2042       20220318181AD2004ZZ              CIVUSAS-S 0.35X4 B       CCN000060000000060000FN00000000020220401000060000NNM   20220201095621    1W    00000030000002799900000000032H2    HVYHV   000000000000UH123027
BI00B32H2    @TAW2043       20220325181AD2004ZZ              CIVUSAS-S 0.35X4 B       CCN000066000000066000FN00000000020220401000066000NNM   20220201095621    1W    00000030000002799900000000032H2    HVYHV   000000000000UH223034
BI00B32H2    @TAW2044       20220401181AD2004ZZ              CIVUSAS-S 0.35X4 B       CCN000066000000066000FN00000000020220401000066000NNM   20220201095621    1W    00000030000002799900000000032H2    HVYHV   000000000000UH323032
BI00B32H2    @TAW2042       20220318181AD2008ZZ              CIVUSAS-S 0.5X2 B        CCN000024800000024800FN00000000020220401000024800NNM   20220201095621    1W    00000040000002028000000000032H2    HVYHV   000000000000UH123024
BI00B32H2    @TAW2043       20220325181AD2008ZZ              CIVUSAS-S 0.5X2 B        CCN000028000000028000FN00000000020220401000028000NNM   20220201095621    1W    00000040000002028000000000032H2    HVYHV   000000000000UH223031
BI00B32H2    @TAW2044       20220401181AD2008ZZ              CIVUSAS-S 0.5X2 B        CCN000028000000028000FN00000000020220401000028000NNM   20220201095621    1W    00000040000002028000000000032H2    HVYHV   000000000000UH323029
BI00B32H8    2203A MW       2022021818007703950              AVSS 0.5F R              CCN000003000000003000FN00000000020220301000003000NNE   20220201152923    1W    00000150000000674000000000032H8    TYTYC   000000000000LA122002
BI00B32H8    2203A MW       2022021818007703960              AVSS 0.5F G              CCN000001500000001500FN00000000020220301000001500NNE   20220201152923    1W    00000150000000674000000000032H8    TYTYC   000000000000LA122001
BI00B32H8    2203AKMW       2022021818007703940              AVSS 0.5F W              CCN000003000000003000FN00000000020220301000003000NNE   20220201152924    1W    00000150000000674000000000032H8    TYTYC   000000000000LB122002
BI00B32H8    2203AKMW       2022021818007703992              AVSS 0.5F V              CCN000003000000003000FN00000000020220301000003000NNE   20220201152924    1W    00000150000000674000000000032H8    TYTYC   000000000000LB122001
BI00B32H8    22042 MW       2022031118007703930              AVSS 0.5F B              CCN000004500000004500FN00000000020220401000004500NNM   20220201153242    1W    00000150000000674000000000032H8    TYTYC   000000000000LM422002
BI00B32H8    22043 MW       2022031818007703930              AVSS 0.5F B              CCN000003000000003000FN00000000020220401000003000NNM   20220201153242    1W    00000150000000674000000000032H8    TYTYC   000000000000LM123002
BI00B32H8    22041 MW       2022030418007703935              AVSS 0.5F B/R            CCN000001500000001500FN00000000020220401000001500NNM   20220201153242    1W    00000150000000674000000000032H8    TYTYC   000000000000LM322001
BI00B32H8    22042 MW       2022031118007703937              AVSS 0.5F B/Y            CCN000001500000001500FN00000000020220401000001500NNM   20220201153242    1W    00000150000000674000000000032H8    TYTYC   000000000000LM422003
BI00B32H8    22041 MW       2022030418007703941              AVSS 0.5F GY             CCN000003000000003000FN00000000020220401000003000NNM   20220201153242    1W    00000150000000674000000000032H8    TYTYC   000000000000LM322003
BI00B32H8    22042 MW       2022031118007703941              AVSS 0.5F GY             CCN000004500000004500FN00000000020220401000004500NNM   20220201153242    1W    00000150000000674000000000032H8    TYTYC   000000000000LM422005
BI00B32H8    22043 MW       2022031818007703941              AVSS 0.5F GY             CCN000003000000003000FN00000000020220401000003000NNM   20220201153242    1W    00000150000000674000000000032H8    TYTYC   000000000000LM123004
BI00B32H8    22042 MW       2022031118007703943              AVSS 0.5F W/B            CCN000001500000001500FN00000000020220401000001500NNM   20220201153242    1W    00000150000000674000000000032H8    TYTYC   000000000000LM422010
BI00B32H8    22042 MW       2022031118007703946              AVSS 0.5F W/G            CCN000001500000001500FN00000000020220401000001500NNM   20220201153242    1W    00000150000000674000000000032H8    TYTYC   000000000000LM422011
BI00B32H8    22041 MW       2022030418007703950              AVSS 0.5F R              CCN000004500000004500FN00000000020220401000004500NNM   20220201153242    1W    00000150000000674000000000032H8    TYTYC   000000000000LM322006
BI00B32H8    22042 MW       2022031118007703950              AVSS 0.5F R              CCN000003000000003000FN00000000020220401000003000NNM   20220201153242    1W    00000150000000674000000000032H8    TYTYC   000000000000LM422008
BI00B32H8    22043 MW       2022031818007703950              AVSS 0.5F R              CCN000003000000003000FN00000000020220401000003000NNM   20220201153242    1W    00000150000000674000000000032H8    TYTYC   000000000000LM123006
BI00B32H8    22041 MW       2022030418007703952              AVSS 0.5F P              CCN000001500000001500FN00000000020220401000001500NNM   20220201153242    1W    00000150000000674000000000032H8    TYTYC   000000000000LM322005
BI00B32H8    22042 MW       2022031118007703952              AVSS 0.5F P              CCN000001500000001500FN00000000020220401000001500NNM   20220201153242    1W    00000150000000674000000000032H8    TYTYC   000000000000LM422007
BI00B32H8    22041 MW       2022030418007703954              AVSS 0.5F R/W            CCN000001500000001500FN00000000020220401000001500NNM   20220201153242    1W    00000150000000674000000000032H8    TYTYC   000000000000LM322007
BI00B32H8    22042 MW       2022031118007703954              AVSS 0.5F R/W            CCN000001500000001500FN00000000020220401000001500NNM   20220201153242    1W    00000150000000674000000000032H8    TYTYC   000000000000LM422009
BI00B32H8    22043 MW       2022031818007703954              AVSS 0.5F R/W            CCN000001500000001500FN00000000020220401000001500NNM   20220201153242    1W    00000150000000674000000000032H8    TYTYC   000000000000LM123007
BI00B32H8    22041 MW       2022030418007703960              AVSS 0.5F G              CCN000003000000003000FN00000000020220401000003000NNM   20220201153242    1W    00000150000000674000000000032H8    TYTYC   000000000000LM322002
BI00B32H8    22042 MW       2022031118007703960              AVSS 0.5F G              CCN000001500000001500FN00000000020220401000001500NNM   20220201153242    1W    00000150000000674000000000032H8    TYTYC   000000000000LM422004
BI00B32H8    22043 MW       2022031818007703960              AVSS 0.5F G              CCN000001500000001500FN00000000020220401000001500NNM   20220201153242    1W    00000150000000674000000000032H8    TYTYC   000000000000LM123003
BI00B32H8    22042 MW       2022031118007703970              AVSS 0.5F Y              CCN000003000000003000FN00000000020220401000003000NNM   20220201153242    1W    00000150000000674000000000032H8    TYTYC   000000000000LM422012
BI00B32H8    22043 MW       2022031818007703970              AVSS 0.5F Y              CCN000001500000001500FN00000000020220401000001500NNM   20220201153242    1W    00000150000000674000000000032H8    TYTYC   000000000000LM123008
BI00B32H8    22042 MW       2022031118007703973              AVSS 0.5F Y/B            CCN000001500000001500FN00000000020220401000001500NNM   20220201153242    1W    00000150000000674000000000032H8    TYTYC   000000000000LM422013
BI00B32H8    22042 MW       2022031118007703975              AVSS 0.5F Y/R            CCN000001500000001500FN00000000020220401000001500NNM   20220201153242    1W    00000150000000674000000000032H8    TYTYC   000000000000LM422015
BI00B32H8    22042 MW       2022031118007703976              AVSS 0.5F Y/G            CCN000001500000001500FN00000000020220401000001500NNM   20220201153242    1W    00000150000000674000000000032H8    TYTYC   000000000000LM422014
BI00B32H8    22041 MW       2022030418007703990              AVSS 0.5F L              CCN000003000000003000FN00000000020220401000003000NNM   20220201153242    1W    00000150000000674000000000032H8    TYTYC   000000000000LM322004
BI00B32H8    22042 MW       2022031118007703990              AVSS 0.5F L              CCN000003000000003000FN00000000020220401000003000NNM   20220201153242    1W    00000150000000674000000000032H8    TYTYC   000000000000LM422006
BI00B32H8    22043 MW       2022031818007703990              AVSS 0.5F L              CCN000003000000003000FN00000000020220401000003000NNM   20220201153242    1W    00000150000000674000000000032H8    TYTYC   000000000000LM123005
BI00B32H8    22041 MW       2022030418007704030              AVSS 0.75F B             CCN000005000000005000FN00000000020220401000005000NNM   20220201153242    1W    00000100000000943000000000032H8    TYTYC   000000000000LM322008
BI00B32H8    22042 MW       2022031118007704030              AVSS 0.75F B             CCN000005000000005000FN00000000020220401000005000NNM   20220201153242    1W    00000100000000943000000000032H8    TYTYC   000000000000LM422016
BI00B32H8    22043 MW       2022031818007704030              AVSS 0.75F B             CCN000005000000005000FN00000000020220401000005000NNM   20220201153242    1W    00000100000000943000000000032H8    TYTYC   000000000000LM123009
BI00B32H8    22044 MW       2022032518007704030              AVSS 0.75F B             CCN000005000000005000FN00000000020220401000005000NNM   20220201153242    1W    00000100000000943000000000032H8    TYTYC   000000000000LM223002
BI00B32H8    22042 MW       2022031118007704037              AVSS 0.75F B/Y           CCN000002000000002000FN00000000020220401000002000NNM   20220201153242    1W    00000100000000943000000000032H8    TYTYC   000000000000LM422017
BI00B32H8    22043 MW       2022031818007704037              AVSS 0.75F B/Y           CCN000002000000002000FN00000000020220401000002000NNM   20220201153242    1W    00000100000000943000000000032H8    TYTYC   000000000000LM123010
BI00B32H8    22041 MW       2022030418007704060              AVSS 0.75F G             CCN000001000000001000FN00000000020220401000001000NNM   20220201153242    1W    00000100000000943000000000032H8    TYTYC   000000000000LM322009
BI00B32H8    22042 MW       2022031118007704060              AVSS 0.75F G             CCN000001000000001000FN00000000020220401000001000NNM   20220201153242    1W    00000100000000943000000000032H8    TYTYC   000000000000LM422018
BI00B32H8    22041 MW       2022030418007704063              AVSS 0.75F G/B           CCN000001000000001000FN00000000020220401000001000NNM   20220201153242    1W    00000100000000943000000000032H8    TYTYC   000000000000LM322010
BI00B32H8    22042 MW       2022031118007704063              AVSS 0.75F G/B           CCN000001000000001000FN00000000020220401000001000NNM   20220201153242    1W    00000100000000943000000000032H8    TYTYC   000000000000LM422019
BI00B32H8    @22042 MW      20220311181B32102S1              AVSSCS 0.5FX2 DGY        CCN000001500000001500FN00000000020220401000001500NNM   20220201152955    1W    00000030000002903000000000032H8    TYTYC   000000000000LM422001
