BI00B1200    2399T52215     202206097288-6547                CONNECTOR MALE ASS'Y     CCN000160500000160500FN00000000020220401000160500NNMD0420220201203923    4N0N  0000007500000120530000134031200    YCYC    005400370024
BI00B1200    2399T52216     202206167288-6547                CONNECTOR MALE ASS'Y     CCN000159750000159750FN00000000020220401000159750NNMD0420220201203923    4N0N  0000007500000120530000134031200    YCYC    005400370024
BI00B1200    2399T52217     202206237288-6547                CONNECTOR MALE ASS'Y     CCN000159750000159750FN00000000020220401000159750NNMD0420220201203923    4N0N  0000007500000120530000134031200    YCYC    005400370024
BI00B1200    2399T52218     202206307288-6547                CONNECTOR MALE ASS'Y     CCN000159750000159750FN00000000020220401000159750NNMD0420220201203923    4N0N  0000007500000120530000134031200    YCYC    005400370024
BI00B1200    2399T52216     202203107288-7969                HYBRID MALE ASS'Y        CCN000016960000008320FN00000000020220401000008320NNMQ0220220201203923    1N0N  0000003200000087620000110171200    YCYC    005400370024
BI00B1200    2399T52217     202203247288-7969                HYBRID MALE ASS'Y        CCN000016960000008320FN00000000020220401000008320NNMQ0220220201203923    1N0N  0000003200000087620000110171200    YCYC    005400370024
BI00B1200    2399T52219     202204077288-7969                HYBRID MALE ASS'Y        CCN000016960000016960FN00000000020220401000016960NNMD0220220201203923    1N0N  0000003200000087620000110171200    YCYC    005400370024
BI00B1200    2399T52220     202204217288-7969                HYBRID MALE ASS'Y        CCN000016640000016640FN00000000020220401000016640NNMD0220220201203923    1N0N  0000003200000087620000110171200    YCYC    005400370024
BI00B1200    2399T52220     202207077288-6547                CONNECTOR MALE ASS'Y     CCN000159750000159750FN00000000020220401000159750NNMD0420220201203923    4N0N  0000007500000120530000134031200    YCYC    005400370024
BI00B1200    7360T52201     202207147289-3342-30             HOUSING FEMALE ASS'Y     CCN000043200000043200FN00000000020220401000043200NNMS0020220201203923    1N0N  0000024000000068640000090141200    YCYC    005500360039
BI00B1200    7360T52202     202207217289-3342-30             HOUSING FEMALE ASS'Y     CCN000040800000040800FN00000000020220401000040800NNMS0020220201203923    1N0N  0000024000000068640000090141200    YCYC    005500360039
BI00B1200    7360T52203     202207277289-3342-30             HOUSING FEMALE ASS'Y     CCN000040800000040800FN00000000020220401000040800NNMS0020220201203923    1N0N  0000024000000068640000090141200    YCYC    005500360039
BI00B1200    7860T52205     202208047289-3342-30             HOUSING FEMALE ASS'Y     CCN000002400000002400FN00000000020220401000002400NNMS0020220201203923    1N0N  0000024000000068640000090141200    YCYC    005500360039
BI00B1200    CE22-MN-0028   202202107195-1479-02             TERMINAL MALE            CCN000024000000024000FN00000000020220201000024000NNE   20220201203923    4P0P  0000240000000042000000071421200    YCYC    006400630015
BI00B1200    CE22-MN-0028   202202107195-1480-02             TERMINAL MALE            CCN000024000000024000FN00000000020220201000024000NNE   20220201203923    4P0P  0000240000000042240000071661200    YCYC    006400630015
BI00B1200    CE22-MN-0028   202202107196-1481-02             TERMINAL FEMALE          CCN000024000000024000FN00000000020220201000024000NNE   20220201203923    4P0P  0000240000000042240000070761200    YCYC    006400630015
BI00B1200    CE22-MN-0028   202202107196-1482-02             TERMINAL FEMALE          CCN000024000000024000FN00000000020220201000024000NNE   20220201203923    4P0P  0000240000000042480000071001200    YCYC    006400630015
BI00B1200    2399T52216     202203177288-7969                HYBRID MALE ASS'Y        CCN000008640000008640FN00000000020220401000008640NNMD0220220201203923    1N0N  0000003200000087620000110171200    YCYC    005400370024
BI00B1200    2399T52217     202203317288-7969                HYBRID MALE ASS'Y        CCN000008640000008640FN00000000020220401000008640NNMD0220220201203923    1N0N  0000003200000087620000110171200    YCYC    005400370024
BI00T32AF    @JTB202A-I     202202107282-1060                HOUSING SUB ASSEMBLY     CCN000011200000011200FN00000000020220201000011200NNEM0020220201203923    3N0N  00000160000000955500001169032AF    HBYHVTB 005500360039
BI00T32AF    @JTB2041- I    202204077183-2510                HOUSING                  CCN000018000000018000FN00000000020220401000018000NNM   20220201203923    3F0F  00000300000001063500001159032AF    HBYHVTB 005400370024
BI00T32AF    @JTB2041- I    202204077183-3190                JOINT CONNECTOR          CCN000198000000198000FN00000000020220401000198000NNM   20220201203923    3F0F  00000360000000457600000667832AF    HBYHVTB 005500360039
BI00T32AF    @JTB2041- I    202204077183-7770-40             HOUSING                  CCN000084000000084000FN00000000020220401000084000NNM   20220201203923    3F0F  00000600000001011000001161032AF    HBYHVTB 005400370024
BI00T32AF    @JTB2041- I    202204077282-1060                HOUSING SUB ASSEMBLY     CCN000001600000001600FN00000000020220401000001600NNM   20220201203923    3N0N  00000160000000955500001169032AF    HBYHVTB 005500360039
BI00T32AF    @JTB2041- I    202204077283-1556                CONNECTOR ASS'Y          CCN000098400000098400FN00000000020220401000098400NNM   20220201203923    3N0N  00000240000000755000001014032AF    HBYHVTB 005500360039
BI00T32AF    @JTB2041- I    202204077283-5972                CONNECTOR FEMALE         CCN000048000000048000FN00000000020220401000048000NNM   20220201203923    3N0N  00000480000000550100000763032AF    HBYHVTB 005500360039
BI00T32AF    @JTB2041- I    202204077283-5976                CONNECTOR ASS'Y          CCN000024000000024000FN00000000020220401000024000NNM   20220201203923    3N0N  00000480000000840000001083632AF    HBYHVTB 005500360039
BI00T32AF    @JTB2041- I    202204077283-8179                CONNECTOR HOUSING        CCN000016800000016800FN00000000020220401000016800NNM   20220201203923    3N0N  00000240000000549600000804032AF    HBYHVTB 005500360039
BI00T32AF    @JTB2041- I    202204077287-6634                HOUSING FEMALE ASS'Y     CCN000007200000007200FN00000000020220401000007200NNM   20220201203923    3N0N  00000240000001088400001337032AF    HBYHVTB 005500360039
BI00B32CH    SJ22035 MW     202202177158-3169-40             SEALING PLUG             CCN000200000000000000FY00000000020220301000000000NNMQ0820220201162826    1C0C  00004000000000156000000204132CH    SJSAMIJF004300260014
BI00B32CH    SJ22035 MW     202202177388-0314                CONNECTOR ASS'Y          CCN000007200000000000FY00000000020220301000000000NNMQ0820220201133257    4N0N  00000120000001038000001132332CH    SJSAMIJF005400370024
BI00B32CH    SJ22035 MW     202202177388-0315-40             CONNECTOR ASS'Y          CCN000003600000000000FY00000000020220301000000000NNMQ0820220201133310    4N0N  00000120000000999600001129632CH    SJSAMIJF005400370024
BI00B32CH    SJ22034HMW     202202177C87-7975-4W             SQUIB SUB ASS'Y          CCN000040000000030000FN00000000020220301000030000NNMQ0820220201203923    4N0N  00001000000000837000000991132CH    SJSAMIJF005400370024
BI00B32CH    SJ22035HMW     202202177C87-7975-4W             SQUIB SUB ASS'Y          CCN000020000000000000FY00000000020220301000000000NNMQ0820220201133335    4N0N  00001000000000837000000991132CH    SJSAMIJF005400370024
BI00B32CH    SJ22034HMW     202202177158-3168-80             SEALED                   CCN000022000000000000FY00000000020220301000000000NNMQ0820220201162742    1C0C  00002000000000044000000092132CH    SJSAMIJF004300260014
BI00B32CH    SJ22035HMW     202202177158-3168-80             SEALED                   CCN000012000000000000FY00000000020220301000000000NNMQ0820220201162853    1C0C  00002000000000044000000092132CH    SJSAMIJF004300260014
BI00B32CH    SJ22033HMW     202202107327-6834-80             MAIN FUSE                CCN000006600000000000FY00000000020220301000000000NNMQ0820220201132449    4N0N  00000060000000736800000938332CH    SJSAMIJF005400370024
BI00B32CH    SJ22034HMW     202202177327-6834-80             MAIN FUSE                CCN000003600000000000FY00000000020220301000000000NNMQ0820220201132822    4N0N  00000060000000736800000938332CH    SJSAMIJF005400370024
BI00B32CH    SJ22035HMW     202202177327-6834-80             MAIN FUSE                CCN000001800000000000FY00000000020220301000000000NNMQ0820220201133401    4N0N  00000060000000736800000938332CH    SJSAMIJF005400370024
BI00B32CH    SJ22034HMW     202202177327-6868-30             MULTI FUSE               CCN000000864000000000FY00000000020220301000000000NNMQ0820220201132858    4N0N  00000028800001013500001179432CH    SJSAMIJF005400370024
BI00B32CH    SJ22035HMW     202203107327-6868-30             MULTI FUSE               CCN000000288000000000FY00000000020220301000000000NNMQ0820220201133431    4N0N  00000028800001013500001179432CH    SJSAMIJF005400370024
BI00B32CH    SJ22033HMW     202203037327-6872-30             MULTI FUSE               CCN000008064000002304FN00000000020220301000002304NNMQ0820220201203923    4N0N  00000028800000984500001150432CH    SJSAMIJF005400370024
BI00B32CH    SJ22034HMW     202203107327-6872-30             MULTI FUSE               CCN000004608000000000FY00000000020220301000000000NNMQ0820220201132914    4N0N  00000028800000984500001150432CH    SJSAMIJF005400370024
BI00B32CH    SJ22035HMW     202202177327-6872-30             MULTI FUSE               CCN000002592000000000FY00000000020220301000000000NNMQ0820220201133445    4N0N  00000028800000984500001150432CH    SJSAMIJF005400370024
BI00B32CH    SJ22033HMW     202203037327-6876-30             MULTI FUSE               CCN000006624000002016FN00000000020220301000002016NNMQ0820220201203923    4N0N  00000028800001016400001182332CH    SJSAMIJF005400370024
BI00B32CH    SJ22034HMW     202203247327-6876-30             MULTI FUSE               CCN000004032000000000FY00000000020220301000000000NNMQ0820220201132944    4N0N  00000028800001016400001182332CH    SJSAMIJF005400370024
BI00B32CH    SJ22035HMW     202202177327-6876-30             MULTI FUSE               CCN000002016000000000FY00000000020220301000000000NNMQ0820220201133530    4N0N  00000028800001016400001182332CH    SJSAMIJF005400370024
BI00B32CH    SJ22033HMW     202203037327-6878-30             MULTI FUSE               CCN000008352000002016FN00000000020220301000002016NNMQ0820220201203923    4N0N  00000028800000989700001155632CH    SJSAMIJF005400370024
BI00B32CH    SJ22034HMW     202202177327-6878-30             MULTI FUSE               CCN000004608000000000FY00000000020220301000000000NNMQ0820220201133030    4N0N  00000028800000989700001155632CH    SJSAMIJF005400370024
BI00B32CH    SJ22035HMW     202202177327-6878-30             MULTI FUSE               CCN000002304000000000FY00000000020220301000000000NNMQ0820220201133544    4N0N  00000028800000989700001155632CH    SJSAMIJF005400370024
BI00B32CH    SJ22033HMW     202202107327-6882-30             MULTI FUSE               CCN000008352000002304FN00000000020220301000002304NNMQ0820220201203923    4N0N  00000028800001015900001181832CH    SJSAMIJF005400370024
BI00B32CH    SJ22034HMW     202202177327-6882-30             MULTI FUSE               CCN000004608000000000FY00000000020220301000000000NNMQ0820220201133046    4N0N  00000028800001015900001181832CH    SJSAMIJF005400370024
BI00B32CH    SJ22035HMW     202203107327-6882-30             MULTI FUSE               CCN000002304000000000FY00000000020220301000000000NNMQ0820220201133605    4N0N  00000028800001015900001181832CH    SJSAMIJF005400370024
BI00B32CH    SJ22035HMW     202202177388-0313-30             CONNECTOR ASS'Y          CCN000014400000002400FN00000000020220301000002400NNMQ0820220201203923    4N0N  00000120000000995000001125032CH    SJSAMIJF005400370024
BI00B32CH    #SJ22034HMW    202202177286-8859                HOUSING MALE ASS'Y       CCN000013600000008600FN00000000020220301000008600NNMQ0820220201203923    2N0N  00000080000000573100000733132CH    SJSAMIJF005400370024
BI00B32CH    #SJ22035HMW    202202177286-8859                HOUSING MALE ASS'Y       CCN000008000000000000FY00000000020220301000000000NNMQ0820220201162503    2N0N  00000080000000573100000733132CH    SJSAMIJF005400370024
BI00B32CH    #SJ22035HMW    202202177287-8861                HOUSING FEMALE ASS'Y     CCN000008000000004800FN00000000020220301000004800NNMQ0820220201203923    2N0N  00000160000000769000000929032CH    SJSAMIJF005400370024
BI00B32CJ    JQN2024        202201297017-1180-02             TERMINAL                 CCN000360000000360000FY00036000020220201000000000NNM00020220201135545    4P0P  00007200000001065600001229032CJ    QNYHVQN 005100280028
BI00B32CJ    JQN2024        202201297017-1181-02             TERMINAL                 CCN000063000000063000FY00006300020220201000000000NNM00020220201135545    4P0P  00006300000001089900001266832CJ    QNYHVQN 005100280028
BI00B32CJ    JQN2024        202201297017-1182-02             TERMINAL                 CCN000045000000045000FY00004500020220201000000000NNM00020220201135545    4P0P  00004500000001165500001318632CJ    QNYHVQN 005100280028
BI00B32CJ    JQN2024        202201297017-1183-02             TERMINAL                 CCN000027000000027000FY00002700020220201000000000NNM00020220201135545    4P0P  00002700000001139400001307432CJ    QNYHVQN 005100280028
BI00B32CJ    JQN2024        202201297114-4020                TERMINAL                 CCN000021000000021000FY00002100020220201000000000NNM00020220201135545    4P0P  00002100000000875700001169332CJ    QNYHVQN 006400630015
BI00B32CJ    JQN2024        202201297114-4728-02             TERMINAL                 CCN000030000000030000FY00003000020220201000000000NNM00020220201135545    4P0P  00003000000000510000000804232CJ    QNYHVQN 006400630015
BI00B32CJ    JQN2024        202201297114-4728-08             TERMINAL                 CCN000030000000030000FY00003000020220201000000000NNM00020220201135545    4P0P  00003000000000507000000801232CJ    QNYHVQN 006400630015
BI00B32CJ    JQN2024        202201297114-4729-02             TERMINAL                 CCN000060000000060000FY00006000020220201000000000NNM00020220201135545    4P0P  00003000000000516000000810232CJ    QNYHVQN 006400630015
BI00B32CJ    JQN2024        202201297114-5746-02             TERMINAL                 CCN000021000000021000FY00002100020220201000000000NNM00020220201135545    4P0P  00002100000000695100000988732CJ    QNYHVQN 006400630015
BI00B32CJ    JQN2024        202201297114-5747-02             TERMINAL                 CCN000072000000072000FY00007200020220201000000000NNM00020220201135545    4P0P  00001800000000626400000920032CJ    QNYHVQN 006400630015
BI00B32CJ    JQN2024        202201297114-5748-02             TERMINAL                 CCN000012000000012000FY00001200020220201000000000NNM00020220201135545    4P0P  00001200000000444000000737632CJ    QNYHVQN 006400630015
BI00B32CJ    JQN2024        202201297114-6041                TERMINAL                 CCN000003600000003600FY00000360020220201000000000NNM00020220201135545    4P0P  00000360000000580700000824232CJ    QNYHVQN 006400630015
BI00B32CJ    JQN2024        202201297116-1685-02             TERMINAL                 CCN000024000000024000FY00002400020220201000000000NNM00020220201135545    4P0P  00002400000000897600001065232CJ    QNYHVQN 005100280028
BI00B32CJ    JQN2024        202201297116-1686-02             TERMINAL                 CCN000021000000021000FY00002100020220201000000000NNM00020220201135545    4P0P  00002100000000869400001021632CJ    QNYHVQN 005100280028
BI00B32CJ    JQN2024        202201297116-4020                TERMINAL                 CCN000013500000013500FY00001350020220201000000000NNM00020220201135545    4P0P  00001350000000513000000798232CJ    QNYHVQN 006400630015
BI00B32CJ    JQN2024        202201297116-4026                TERMINAL                 CCN000064000000064000FY00006400020220201000000000NNM00020220201135545    4P0P  00001600000000664000000994332CJ    QNYHVQN 006400630017
BI00B32CJ    JQN2024        202201297116-4031                TERMINAL                 CCN000007500000007500FY00000750020220201000000000NNM00020220201135545    4P0P  00000750000000619500000904732CJ    QNYHVQN 006400630015
BI00B32CJ    JQN2024        202201297116-4032                TERMINAL                 CCN000024000000024000FY00002400020220201000000000NNM00020220201135545    4P0P  00000600000000532800000818032CJ    QNYHVQN 006400630015
BI00B32CJ    JQN2024        202201297116-4037                TERMINAL                 CCN000030000000030000FY00003000020220201000000000NNM00020220201135545    4P0P  00000600000000600000000894232CJ    QNYHVQN 006400630015
BI00B32CJ    JQN2024        202201297116-4231-02             TERMINAL                 CCN000026000000026000FY00002600020220201000000000NNM00020220201135545    4P0P  00002600000000683800001012532CJ    QNYHVQN 006400630017
BI00B32CJ    JQN2024        202201297116-4415-02             TERMINAL                 CCN000190000000190000FY00019000020220201000000000NNM00020220201135545    4P0P  00003800000000596600000925732CJ    QNYHVQN 006400630017
BI00B32CJ    JQN2024        202201297116-4416-02             TERMINAL                 CCN000128000000128000FY00012800020220201000000000NNM00020220201135545    4P0P  00003200000000518400000847132CJ    QNYHVQN 006400630017
BI00B32CJ    JQN2024        202201297116-4486-02             TERMINAL                 CCN000084000000084000FY00008400020220201000000000NNM00020220201135545    4P0P  00002800000000666400000995132CJ    QNYHVQN 006400630017
BI00B32CJ    JQN2024        202201297116-5035-02             TERMINAL                 CCN000060000000060000FY00006000020220201000000000NNM00020220201135545    4P0P  00001500000000543000000828232CJ    QNYHVQN 006400630015
BI00B32CJ    JQN2024        202201297116-5042-02             TERMINAL                 CCN000027000000027000FY00002700020220201000000000NNM00020220201135545    4P0P  00001350000000560300000845532CJ    QNYHVQN 006400630015
BI00B32CJ    JQN2024        202201297116-5043-02             TERMINAL FEMALE          CCN000012000000012000FY00001200020220201000000000NNM00020220201135545    4P0P  00001200000000559200000844432CJ    QNYHVQN 006400630015
BI00B32CJ    JQN2024        202201297116-5044-02             TERMINAL                 CCN000112000000112000FY00011200020220201000000000NNM00020220201135545    4P0P  00001600000000641600000986332CJ    QNYHVQN 006400630017
BI00B32CJ    JQN2024        202201297116-5045-02             TERMINAL                 CCN000016000000016000FY00001600020220201000000000NNM00020220201135545    4P0P  00001600000000678400001007132CJ    QNYHVQN 006400630017
BI00B32CJ    JQN2024        202201297116-5046-02             TERMINAL                 CCN000012000000012000FY00001200020220201000000000NNM00020220201135545    4P0P  00001200000000544800000873532CJ    QNYHVQN 006400630017
BI00B32CJ    JQN2024        202201297116-6041                TERMINAL                 CCN000004500000004500FY00000450020220201000000000NNM00020220201135545    4P0P  00000450000000716000001009632CJ    QNYHVQN 006400630015
BI00B32CJ    JQN2024        202201297116-6042                TERMINAL                 CCN000003000000003000FY00000300020220201000000000NNM00020220201135545    4P0P  00000300000000523800000856132CJ    QNYHVQN 006400630015
BI00B32CJ    JQN2024        202201297126-8853-02             TERMINAL                 CCN000037500000037500FY00003750020220201000000000NNM00020220201135545    4P0P  00000750000000562500000847732CJ    QNYHVQN 006400630015
BI00B32CJ    JQN2024        202201297196-1102-02             TERMINAL                 CCN000022500000022500FY00002250020220201000000000NNM00020220201135545    4P0P  00002250000000405000000690232CJ    QNYHVQN 006400630015
BI00B32CJ    JQN2024        202201297196-1103-02             TERMINAL                 CCN000022500000022500FY00002250020220201000000000NNM00020220201135545    4P0P  00002250000000429800000715032CJ    QNYHVQN 006400630015
BI00B32CJ    JQN2024        202201297196-1104-02             TERMINAL                 CCN000022500000022500FY00002250020220201000000000NNM00020220201135545    4P0P  00002250000000441000000726232CJ    QNYHVQN 006400630015
BI00B32CJ    JQN2024        202201297196-1326-02             TERMINAL FEMALE          CCN000060000000060000FY00006000020220201000000000NNM00020220201135545    4P0P  00006000000000456000000784732CJ    QNYHVQN 006400630017
BI00B32CJ    JQN2024        202201297283-1156                CONNECTOR                CCN000007200000007200FY00000720020220201000000000NNM00020220201135545    4N0N  00000080000000877600001078032CJ    QNYHVQN 005600390040
BI00B32CJ    JQN2024        202201297283-4576                HOUSING FEMALE ASS'Y     CCN000004800000004800FY00000480020220201000000000NNM00020220201135545    4N0N  00000480000000651300000871332CJ    QNYHVQN 005500360039
BI00B32CJ    JQN2024        202201297283-4576-30             HOUSING FEMALE ASS'Y     CCN000004800000004800FY00000480020220201000000000NNM00020220201135545    4N0N  00000480000000651300000871332CJ    QNYHVQN 005500360039
BI00B32CJ    JQN2024        202201297287-1915                CONNECTOR ASS'Y          CCN000002400000002400FY00000240020220201000000000NNM00020220201135545    4N0N  00000240000000666500000923132CJ    QNYHVQN 005500360039
BI00B32CJ    JQN2024        202201297287-1915-30             CONNECTOR ASS'Y          CCN000002400000002400FY00000240020220201000000000NNM00020220201135545    4N0N  00000240000000666500000923132CJ    QNYHVQN 005500360039
BI00B32CJ    JQN2024        202201297287-8642-40             HOUSING FEMALE ASS'Y     CCN000002800000002800FY00000280020220201000000000NNM00020220201135545    4N0N  00000280000000915600001107632CJ    QNYHVQN 005400370024
BI00B32CJ    JQN2024        202201297288-6547                CONNECTOR MALE ASS'Y     CCN000003000000003000FY00000300020220201000000000NNM00020220201135545    4N0N  00000075000001205300001340332CJ    QNYHVQN 005400370024
BI00B32CJ    JQN2024        202201297388-0314                CONNECTOR ASS'Y          CCN000012000000012000FY00001200020220201000000000NNM00020220201135545    4N0N  00000120000001038000001132332CJ    QNYHVQN 005400370024
BI00B32CJ    JQN202C        202201297017-1183-02             TERMINAL                 CCN000027000000027000FY00002700020220201000000000NNE00020220201135623    4P0P  00002700000001139400001307432CJ    QNYHVQN 005100280028
BI00B32CJ    JQN202C        202201297116-4031                TERMINAL                 CCN000007500000007500FY00000750020220201000000000NNE00020220201135623    4P0P  00000750000000619500000904732CJ    QNYHVQN 006400630015
BI00B32CJ    JQN202C        202201297116-5042-02             TERMINAL                 CCN000027000000027000FY00002700020220201000000000NNE00020220201135623    4P0P  00001350000000560300000845532CJ    QNYHVQN 006400630015
BI00B32CJ    JQN203A        202203257327-6987-3W             BATTERY FUSE             CCN000000100000000144FN00000000020220301000000144NNED0720220201203923    4N0N  00000007200000000000000000032CJ    QNYHVQN 000000000000
BI00T32CJ    @JQN2041-I     202204077183-2510                HOUSING                  CCN000012000000012000FN00000000020220401000012000NNM   20220201203923    3F0F  00000300000001063500001159032CJ    QNYHVQN 005400370024
BI00T32CJ    @JQN2041-I     202204077183-3190                JOINT CONNECTOR          CCN000108000000108000FN00000000020220401000108000NNM   20220201203923    3F0F  00000360000000457600000667832CJ    QNYHVQN 005500360039
BI00T32CJ    @JQN2041-I     202204077282-1040                HOUSING SUB ASSEMBLY     CCN000002500000004800FN00000000020220401000004800NNM   20220201203923    3N0N  00000240000001014400001256032CJ    QNYHVQN 005500360039
BI00T32CJ    @JQN2041-I     202204077283-1223-30             HOUSING SUB ASSEMBLY     CCN000014400000014400FN00000000020220401000014400NNM   20220201203923    3N0N  00000480000000749300000998032CJ    QNYHVQN 005500360039
BI00A32D1    DFTC2150       202202087289-3342-40             HOUSING FEMALE ASS'Y     CCN000016800000016800FN00000000020211201000016800NNMD0420220201203923    1N0N  00000240000000686400000901432D1    TOYOT-K 005500360039
BI00A32D1    DFTC2151       202202177289-3342-90             HOUSING FEMALE ASS'Y     CCN000002400000002400FN00000000020211201000002400NNMD0420220201203923    1N0N  00000240000000686400000901432D1    TOYOT-K 005500360039
BI00A32D1    DFTC2203       202202257289-3342-90             HOUSING FEMALE ASS'Y     CCN000012000000012000FN00000000020220101000012000NNMD0420220201203923    1N0N  00000240000000686400000901432D1    TOYOT-K 005500360039
BI00B32D1    DFTC2205       202201267289-3342-30             HOUSING FEMALE ASS'Y     CCN000084000000067200FY00006720020220201000000000NNM00020220201181551    1N0N  00000240000000686400000901432D1    TOYOT-K 005500360039
BI00A32D1    DFTC2207       202202077289-3342-30             HOUSING FEMALE ASS'Y     PCN000172800000086400FN00000000020220201000086400NNM00020220201203923    1N0N  00000240000000686400000901432D1    TOYOT-K 005500360039
BI00A32D1    DFTC2209       202202217289-3342-30             HOUSING FEMALE ASS'Y     PCN000060000000060000FN00001200020220301000048000NNM00020220201203923    1N0N  00000240000000686400000901432D1    TOYOT-K 005500360039
BI00A32D1    DFTC2210       202202287289-3342-30             HOUSING FEMALE ASS'Y     PCN000084000000084000FN00000000020220301000084000NNM00020220201203923    1N0N  00000240000000686400000901432D1    TOYOT-K 005500360039
BI00A32D1    DFTC2211       202202037289-3342-30             HOUSING FEMALE ASS'Y     PCN000067200000067200FN00000000020220301000067200NNM00020220201203923    1N0N  00000240000000686400000901432D1    TOYOT-K 005500360039
BI00A32D1    DFTC2212       202202217289-3342-90             HOUSING FEMALE ASS'Y     CCN000007200000007200FN00000000020220301000007200NNMD0420220201203923    1N0N  00000240000000686400000901432D1    TOYOT-K 005500360039
BI00B32D1    #DFTC2212      202201267172-5625-90             RUBBER STOPPER           CCN000020000000020000FY00002000020220301000000000NNM00020220201135020    2H0H  00002000000000082400000133832D1    TOYOT-K 004300270014
BI00A32D1    DFTC2214       202202107289-3342                HOUSING FEMALE ASS'Y     CCN000040800000040800FN00000000020220401000040800NNMM0020220201203923    1N0N  00000240000000686400000901432D1    TOYOT-K 005500360039
BI00A32D1    DFTC2214       202202147289-3342-40             HOUSING FEMALE ASS'Y     CCN000012000000012000FN00000000020220401000012000NNMM0020220201203923    1N0N  00000240000000686400000901432D1    TOYOT-K 005500360039
BI00A32D1    DFTC2214       202202107289-6547                HOUSING FEMALE ASS'Y     CCN000014400000014400FN00000000020220401000014400NNMD0020220201203923    1N0N  00000240000001152000001362032D1    TOYOT-K 005500360039
BI00A32D1    DFTC2215       202202177289-3342                HOUSING FEMALE ASS'Y     CCN000016800000016800FN00000000020220401000016800NNMD0020220201203923    1N0N  00000240000000686400000901432D1    TOYOT-K 005500360039
BI00A32D1    DFTC2215       202202177289-3342-90             HOUSING FEMALE ASS'Y     CCN000002400000002400FN00000000020220401000002400NNMD0020220201203923    1N0N  00000240000000686400000901432D1    TOYOT-K 005500360039
BI00A32D1    DFTC2215       202202177289-6547                HOUSING FEMALE ASS'Y     CCN000004800000004800FN00000000020220401000004800NNMD0020220201203923    1N0N  00000240000001152000001362032D1    TOYOT-K 005500360039
BI00A32D1    DFTC2216       202202287289-6547                HOUSING FEMALE ASS'Y     CCN000012000000012000FN00000000020220401000012000NNMD0420220201203923    1N0N  00000240000001152000001362032D1    TOYOT-K 005500360039
BI00A32D1    DFTC2217       202202247289-6547                HOUSING FEMALE ASS'Y     CCN000002400000002400FN00000000020220401000002400NNMM0020220201203923    1N0N  00000240000001152000001362032D1    TOYOT-K 005500360039
BI00A32D1    DFTC2205       202202037289-3342-30             HOUSING FEMALE ASS'Y     PCN000016800000016800FN00000000020220201000016800NNM00020220201203923    1N0N  00000240000000686400000901432D1    TOYOT-K 005500360039
BI00A32D1    DFTC2207       202202147289-3342-30             HOUSING FEMALE ASS'Y     PCN000086400000086400FN00000000020220201000086400NNM00020220201203923    1N0N  00000240000000686400000901432D1    TOYOT-K 005500360039
BI00B32D2    DGTC2207       202201257158-3070-80             RUBBER STOPPER           CCN000080000000080000FY00008000020220201000000000NNM00020220201134447    1C0C  00004000000000276000000333332D2    TGYOT-G 002700430014
BI00B32D2    DGTC2207       202201257158-3166-60             WIRE SEAL                CCN000120000000120000FY00012000020220201000000000NNM00020220201134447    1C0C  00004000000000104000000152432D2    TGYOT-G 002700430014
BI00B32D2    DGTC2207       202201257158-3167-80             WIRE SEAL                CCN000140000000140000FY00014000020220201000000000NNM00020220201134447    1C0C  00002000000000048000000109032D2    TGYOT-G 002700430014
BI00B32D2    DGTC2207       202201257173-3291-40             LIF LEVER                CCN000019200000019200FY00001920020220201000000000NNM00020220201134447    1F0F  00000240000000867800001067832D2    TGYOT-G 005500360039
BI00B32D2    DGTC2207       202201257288-6547                CONNECTOR MALE ASS'Y     CCN000024000000003000FY00000300020220201000000000NNM00020220201134529    4N0N  00000075000001205300001340332D2    TGYOT-G 005400370024
BI00B32D2    DGTC2207       202201257289-3342                HOUSING FEMALE ASS'Y     CCN000132000000043200FY00004320020220201000000000NNM00020220201134609    1N0N  00000240000000686400000901432D2    TGYOT-G 005500360039
BI00B32D2    DGTC2207       202201257289-3342-90             HOUSING FEMALE ASS'Y     CCN000055200000012000FY00001200020220201000000000NNM00020220201134622    1N0N  00000240000000686400000901432D2    TGYOT-G 005500360039
BI00B32D2    DGTC2207       202201257289-6518-30             HOUSING FEMALE ASS'Y     CCN000019200000019200FY00001920020220201000000000NNM00020220201134633    1N0N  00000120000000829200001049232D2    TGYOT-G 005500360039
BI00B32D2    DGTC2207       202201257388-2978-30             HOUSING MALE ASS'Y       CCN000040800000040800FY00004080020220201000000000NNM00020220201134827    1N0N  00000048000000742000001122032D2    TGYOT-G 005500360039
BI00B32D2    DGTC2207       202201257289-3342                HOUSING FEMALE ASS'Y     CCN000043200000043200FY00004320020220201000000000NNM00020220201134609    1N0N  00000240000000686400000901432D2    TGYOT-G 005500360039
BI00B32D2    DGTC2207       202201257289-6547                HOUSING FEMALE ASS'Y     CCN000009600000009600FY00000960020220201000000000NNM00020220201134812    1N0N  00000240000001152000001362032D2    TGYOT-G 005500360039
BI00A32D2    #DGTC2212      202201317172-5630-40             RUBBER STOPPER           CCN000600000000600000FY00060000020220301000000000NNM00020220201135049    2H0H  00002000000000044000000095132D2    TGYOT-G 004300270014
BI00B32D9    I10353         202201287289-3342-40             HOUSING FEMALE ASS'Y     CCN000004800000000000FY00000000020220101000000000NNMD0020220201100629    1N0N  00000240000000686400000901432D9    UEHESTO 005500360039
BI00B32D9    I10353         202201267289-3342-40             HOUSING FEMALE ASS'Y     CCN000004800000004800FY00000480020220101000000000NNM00020220201134023    1N0N  00000240000000686400000901432D9    UEHESTO 005500360039
BI00B32D9    I10353         202202047289-3342-40             HOUSING FEMALE ASS'Y     CCN000004800000004800FN00000000020220101000004800NNM00020220201203923    1N0N  00000240000000686400000901432D9    UEHESTO 005500360039
BI00B32D9    I10353         202202107289-3342-40             HOUSING FEMALE ASS'Y     CCN000004800000007200FN00000000020220101000007200NNMD0420220201203923    1N0N  00000240000000686400000901432D9    UEHESTO 005500360039
BI00A32H2    #TIJ1124       202112157172-5629-80             RUBBER STOPPER           PCN000240000000240000FN00024000020211201000000000NNM00020220201203923    2H0H  00002000000000060000000111132H2    HVYHV   004300270014
BI00B32J1    390814         202202217283-8630                CONNECTOR ASS'Y          CCN000006000000000000FY00000000020220201000000000NNMQ0820220201092223    4N0N  00000600000000540000000701332J1    UKYEL-BL005400370024
BI00B32N1    NST2116ECU     202202107116-1180                TERMINAL                 CCN000117000000019500FN00000000020220301000019500NNEQ0020220201203923    1P0P  00001950000000618200000903432N1    TAYIPL  006400630015
BI00A32N1    NST2116ECU     202202027116-1180                TERMINAL                 CCN000097500000097500FN00000000020220301000097500NNEM0020220201203923    1P0P  00001950000000618200000903432N1    TAYIPL  006400630015
BI00B32N3    NBT202 A2      202201287289-3342-30             HOUSING FEMALE ASS'Y     CCN000031200000031200FY00003120020220201000000000NNM00020220201134226    1N0N  00000240000000686400000901432N3    ABYIPL-B005500360039
BI00B32N3    NBT202 A3      202201287289-3342-40             HOUSING FEMALE ASS'Y     CCN000002400000002400FY00000240020220201000000000NNM00020220201134253    1N0N  00000240000000686400000901432N3    ABYIPL-B005500360039
BI00B32N3    NBT202 A3      202201287470-5940                J/B COMPLETE ASS'Y       CCN000000340000000340FY00000034020220201000000000NNM00020220201134314    4J0J  00000001000000494000000661032N3    ABYIPL-B005400370024
BI00B32P8    TAPI-2031      202202097289-0269                HOUSING SUB ASSEMBLY     CCN000001600000001600FN00000000020220301000001600NNMD0320220201203923    1N0N  00000160000001002100001234532P8    YIYTM   005500360039
BI00B32Q8    EU2203E MW     202202237282-4577                HOUSING MALE ASS'Y       CCN000026400000026400FN00000000020220301000026400NNED0220220201203923    4N0N  00000240000000964800001174832Q8    EMEMI   005500360039
BI00B32R7    R-TAP220041    202203177298-1186-40             SQUIB SUB ASS'Y          CCN000020000000020000FN00000000020220301000020000NNED0220220201203923    4N0N  00001000000000650000000774532R7    IVYCIC  005400370024
BI00B32R7    R-TAP220041    202203177298-1186-70             SQUIB SUB ASS'Y          CCN000020000000020000FN00000000020220301000020000NNED0220220201203923    4N0N  00001000000000650000000774532R7    IVYCIC  005400370024
BI00A32W4    #4500188889    202202177189-3038                HOUSING FEMALE           CCN000001600000001600FN00000000020220201000001600NNE   20220201203923W4172F0F  00000160000000817600000850132W417  HJYHK   005500360039
BI00B32W4    4500188893     202203297116-1180                TERMINAL                 CCN000078000000078000FN00000000020220301000078000NNE   20220201203923W41 1P0P  00001950000000618200000903432W41   HJYHK   006400630015
BI00B32W4    4500188893     202203297017-1180-02             TERMINAL                 CCN000072000000072000FN00000000020220301000072000NNE   20220201203923W41 4P0P  00007200000001065600001229032W41   HJYHK   005100280028
BI00B32W4    4500188897     202204077116-4120-02             TERMINAL                 CCN000012000000012000FN00000000020220401000012000NNE   20220201203923W48 4P0P  00000600000000780000001073632W48   HJYHK   006400630015
BI00B32W4    4500188897     202204077116-1230                TERMINAL                 CCN000013500000013500FN00000000020220401000013500NNE   20220201203923W48 4P0P  00001350000000664200000952432W48   HJYHK   006400630015
BI00B32W4    4500188897     202204077116-4025                TERMINAL                 CCN000016000000016000FN00000000020220401000016000NNE   20220201203923W48 4P0P  00001600000000644800000975132W48   HJYHK   006400630017
BI00B32W4    4500188897     202204077116-4121-02             TERMINAL                 CCN000027000000027000FN00000000020220401000027000NNE   20220201203923W48 4P0P  00000450000000618800000912432W48   HJYHK   006400630015
BI00B32W4    4500188897     202204077158-3006-90             RUBBER STOPPER           CCN000020000000020000FN00000000020220401000020000NNE   20220201203923W48 1C0C  00002000000000330600000386032W48   HJYHK   002700430014
BI00B32W4    4500188897     202204077158-3166-60             WIRE SEAL                CCN000080000000080000FN00000000020220401000080000NNE   20220201203923W48 1C0C  00004000000000104000000152432W48   HJYHK   002700430014
BI00B32W4    #4500188897    202204077158-3121-80             WIRE SEAL                CCN000040000000040000FN00000000020220401000040000NNE   20220201203923W48 2C0C  00002000000000118000000187332W48   HJYHK   002700430014
BI00B32W4    #4500188897    202204077123-6423-30             CONNECTOR                CCN000004000000004000FN00000000020220401000004000NNE   20220201203923W48 2F0F  00000200000001002000001167632W48   HJYHK   005600390023
BI00B32W4    @4500188897    202204077123-4312-80             HOUSING                  CCN000005600000005600FN00000000020220401000005600NNE   20220201203923W48 3F0F  00000080000000644200000794032W48   HJYHK   005500360039
BI00B32W4    4500188898     202203317116-4120-02             TERMINAL                 CCN000006000000006000FN00000000020220301000006000NNE   20220201203923W48 4P0P  00000600000000780000001073632W48   HJYHK   006400630015
BI00B32W4    4500188898     202203317116-4122-02             TERMINAL                 CCN000004500000004500FN00000000020220301000004500NNE   20220201203923W48 4P0P  00000450000000656600000950232W48   HJYHK   006400630015
BI00B32W4    4500188898     202203317116-4025                TERMINAL                 CCN000016000000016000FN00000000020220301000016000NNE   20220201203923W48 4P0P  00001600000000644800000975132W48   HJYHK   006400630017
BI00B32W4    4500188898     202203317116-4121-02             TERMINAL                 CCN000027000000027000FN00000000020220301000027000NNE   20220201203923W48 4P0P  00000450000000618800000912432W48   HJYHK   006400630015
BI00B32W4    4500188898     202203317158-3006-90             RUBBER STOPPER           CCN000020000000020000FN00000000020220301000020000NNE   20220201203923W48 1C0C  00002000000000330600000386032W48   HJYHK   002700430014
BI00B32W4    4500188898     202203317158-3166-60             WIRE SEAL                CCN000040000000040000FN00000000020220301000040000NNE   20220201203923W48 1C0C  00004000000000104000000152432W48   HJYHK   002700430014
BI00B32W4    4500188898     202203317222-6244-40             CONNECTOR                CCN000004000000004000FN00000000020220301000004000NNE   20220201203923W48 4N0N  00000080000001239200001422032W48   HJYHK   005600390040
BI00B32W4    4500188898     202203317289-7615-30             HOUSING FEMALE ASS'Y     CCN000003520000003520FN00000000020220301000003520NNE   20220201203923W48 4N0N  00000032000000738000000948032W48   HJYHK   005400370024
BI00B32W4    #4500188898    202203317123-6423-30             CONNECTOR                CCN000004000000004000FN00000000020220301000004000NNE   20220201203923W48 2F0F  00000200000001002000001167632W48   HJYHK   005600390023
BI00B32W4    #4500188898    202203317158-3004-40             RUBBER STOPPER           CCN000020000000020000FN00000000020220301000020000NNE   20220201203923W48 2C0C  00002000000000234000000306332W48   HJYHK   002700430014
BI00B32W4    @4500188898    202203317123-4312-80             HOUSING                  CCN000004000000004000FN00000000020220301000004000NNE   20220201203923W48 3F0F  00000080000000644200000794032W48   HJYHK   005500360039
BI00B32W4    4500188899     202203247116-4122-02             TERMINAL                 CCN000004500000004500FN00000000020220301000004500NNE   20220201203923W48 4P0P  00000450000000656600000950232W48   HJYHK   006400630015
BI00B32W4    4500188899     202203247116-4025                TERMINAL                 CCN000016000000016000FN00000000020220301000016000NNE   20220201203923W48 4P0P  00001600000000644800000975132W48   HJYHK   006400630017
BI00B32W4    4500188899     202203247116-4121-02             TERMINAL                 CCN000009000000009000FN00000000020220301000009000NNE   20220201203923W48 4P0P  00000450000000618800000912432W48   HJYHK   006400630015
BI00B32W4    4500188899     202203247222-6244-40             CONNECTOR                CCN000003200000003200FN00000000020220301000003200NNE   20220201203923W48 4N0N  00000080000001239200001422032W48   HJYHK   005600390040
BI00B32W4    4500188899     202203247289-7615-30             HOUSING FEMALE ASS'Y     CCN000003200000003200FN00000000020220301000003200NNE   20220201203923W48 4N0N  00000032000000738000000948032W48   HJYHK   005400370024
BI00B32W4    4500188899     202203247172-1372-10             FRONT HOLDER             CCN000003900000003900FN00000000020220301000003900NNE   20220201203923W48 4F0F  00000390000000655200000955232W48   HJYHK   005500360039
BI00B32W4    #4500188899    202203247157-3950-80             SEAL RUBBER              CCN000040000000040000FN00000000020220301000040000NNE   20220201203923W48 2C0C  00004000000000154000000440332W48   HJYHK   002700430014
BI00B32W4    #4500188899    202203247157-3952-80             RUBBER STOPPER           CCN000010000000010000FN00000000020220301000010000NNE   20220201203923W48 2C0C  00001000000000117000000175032W48   HJYHK   002700430014
BI00B32W4    4500188900     202203177172-1372-10             FRONT HOLDER             CCN000003900000003900FN00000000020220301000003900NNE   20220201203923W48 4F0F  00000390000000655200000955232W48   HJYHK   005500360039
BI00B32W4    #4500188901    202203107158-3003-90             RUBBER STOPPER           CCN000060000000060000FN00000000020220301000060000NNE   20220201203923W48 2C0C  00002000000000250000000306032W48   HJYHK   002700430014
BI00B32W4    #4500188909    202202227157-7812                SEAL RUBBER              CCN000200000000200000FN00000000020220201000200000NNE   20220201203923W42 2C0C  00001000000000137000000202032W42   HJYHK   002700430014
BI00B32W9    4500188886     202202227116-1180                TERMINAL                 CCN000019500000019500FN00000000020220201000019500NNM   20220201203923W93 1P0P  00001950000000618200000903432W93   HKYHK   006400630015
BI00B32W9    4500188886     202202227126-8850-02             TERMINAL                 CCN000009000000009000FN00000000020220201000009000NNM   20220201203923W93 1P0P  00000900000000672300000957532W93   HKYHK   006400630015
BI00B32W9    4500188886     202202227116-4025                TERMINAL                 CCN000016000000016000FN00000000020220201000016000NNM   20220201203923W93 4P0P  00001600000000644800000975132W93   HKYHK   006400630017
BI00B32W9    4500188886     202202227116-1685-02             TERMINAL                 CCN000024000000024000FN00000000020220201000024000NNM   20220201203923W93 4P0P  00002400000000897600001065232W93   HKYHK   005100280028
BI00B32W9    4500188886     202202227116-4026                TERMINAL                 CCN000016000000016000FN00000000020220201000016000NNM   20220201203923W93 4P0P  00001600000000664000000994332W93   HKYHK   006400630017
BI00B32W9    4500188886     202202227116-4022                TERMINAL                 CCN000013500000013500FN00000000020220201000013500NNM   20220201203923W93 4P0P  00001350000000618300000903532W93   HKYHK   006400630015
BI00B32W9    4500188886     202202227126-8851-02             TERMINAL                 CCN000009000000009000FN00000000020220201000009000NNM   20220201203923W93 1P0P  00000900000000739800001025032W93   HKYHK   006400630015
BI00B32W9    4500188886     202202227126-8852-02             TERMINAL                 CCN000007500000007500FN00000000020220201000007500NNM   20220201203923W93 1P0P  00000750000000648000000933232W93   HKYHK   006400630015
BI00B32W9    4500188886     202202227116-4032                TERMINAL                 CCN000006000000006000FN00000000020220201000006000NNM   20220201203923W93 4P0P  00000600000000532800000818032W93   HKYHK   006400630015
BI00B32W9    4500188886     202202227114-4231-02             TERMINAL                 CCN000018000000018000FN00000000020220201000018000NNM   20220201203923W93 4P0P  00001800000000554400000848032W93   HKYHK   006400630015
BI00B32W9    4500188886     202202227222-7484-40             CONNECTOR                CCN000001000000001000FN00000000020220201000001000NNM   20220201203923W93 4N0N  00000100000001030000001176032W93   HKYHK   005500360039
BI00B32W9    4500188886     202202227158-3166-60             WIRE SEAL                CCN000080000000080000FN00000000020220201000080000NNM   20220201203923W93 1C0C  00004000000000104000000152432W93   HKYHK   002700430014
BI00B32W9    4500188886     202202227158-3167-80             WIRE SEAL                CCN000020000000020000FN00000000020220201000020000NNM   20220201203923W93 1C0C  00002000000000048000000109032W93   HKYHK   002700430014
BI00B32W9    #4500188886    202202227282-2090-30             CONNECTOR MALE ASS'Y     CCN000002400000002400FN00000000020220201000002400NNM   20220201203923W93 2N0N  00000240000000794000001073032W93   HKYHK   005500360039
BI00B32W9    #4500188886    202202227123-7484-40             CONNECTOR                CCN000002000000002000FN00000000020220201000002000NNM   20220201203923W93 2F0F  00000200000001393800001541032W93   HKYHK   005500360039
BI00B32X5    TAPCOR01C      202202047289-3342-40             HOUSING FEMALE ASS'Y     CCN000004800000002400FN00000000020210801000002400NNED0720220201203923X5  1N0N  00000240000000686400000901432X5    EPYNA-E 005500360039
BI00B32X5    TIB1046        202202037289-3342                HOUSING FEMALE ASS'Y     CCN000012000000000000FY00000000020220101000000000NNM00020220201134202X5  1N0N  00000240000000686400000901432X5    EPYNA-E 005500360039
BI00B32X5    TIB1046        202202047289-3342                HOUSING FEMALE ASS'Y     CCN000012000000024000FN00000000020220101000024000NNMD0420220201203923X5  1N0N  00000240000000686400000901432X5    EPYNA-E 005500360039
