BI00A1200    2399T51A21     202201317289-5979-30             HOUSING FEMALE ASS'Y     PCN000016632000010584FY00001058420211201000000000NNMD0420220131150501    1N0N  0000002520000085470000106471200    YCYC    005400370024
BI00A1200    2399T52227     202202017298-3822-70             HOUSING FEMALE ASS'Y     CCN000002520000002520FN00000000020220201000002520NNE   20220201080836    4N0N  0000025200000077620000107701200    YCYC    005500360039
BI00B1200    H322E50004     202204077298-4094-10             HOUSING FEMALE ASS'Y     CCN000003380000003380FN00000000020220501000003380NNE   20220201080836    4N0N  0000033800000109740000135871200    YCYC    005400370024
BI00B1200    H322E50006     202204077289-9553-30             SEALED ASSY FEMALE       CCN000005880000005880FN00000000020220501000005880NNE   20220201080836    4N0N  0000029400000110900000152151200    YCYC    005500360039
BI00B1200    H322E50007     202204077289-9553-50             SEALED ASSY FEMALE       CCN000002940000002940FN00000000020220501000002940NNE   20220201080836    4N0N  0000029400000110810000152061200    YCYC    005500360039
BI00B1200    H322E50008     202204077289-9553-50             SEALED ASSY FEMALE       CCN000005880000005880FN00000000020220501000005880NNE   20220201080836    4N0N  0000029400000110810000152061200    YCYC    005500360039
BI00B1200    H722E50002     202204077297-1861-30             HOUSING MALE ASS'Y       CCN000004500000004500FN00000000020220501000004500NNE   20220201080836    4N0N  0000015000000070220000082731200    YCYC    005400370024
BI00B1200    H722E50003     202204077297-1861-30             HOUSING MALE ASS'Y       CCN000003000000003000FN00000000020220501000003000NNE   20220201080836    4N0N  0000015000000070220000082731200    YCYC    005400370024
BI00B1200    H722E50004     202204077297-1861-30             HOUSING MALE ASS'Y       CCN000006000000006000FN00000000020220501000006000NNE   20220201080836    4N0N  0000015000000070220000082731200    YCYC    005400370024
BI00B1200    #O022C50689    202203107154-5597-30             CASSETTE R/B             CCN000000800000000800FN00000000020220401000000800NNE   20220201080836    2F0F  0000008000000073600000095201200    YCYC    005500360039
BI00B1200    O022F50005     202205057116-4100-02             TERMINAL                 CCN000090000000090000FN00000000020220501000090000NNE   20220201080836    4P0P  0000150000000069600000099021200    YCYC    006400630015
BI00A1200    2399T51A21     202202027289-5979-30             HOUSING FEMALE ASS'Y     PCN000000252000000252FN00000000020211201000000252NNMD0420220201080836    1N0N  0000002520000085470000106471200    YCYC    005400370024
BI00B32AF    JTB2024        202202047289-3342-30             HOUSING FEMALE ASS'Y     CCN000055200000055200FN00000000020220201000055200NNM00020220201080836    1N0N  00000240000000686400000901432AF    HBYHVTB 005500360039
BI00B32B1    A22016         202203187114-4032                TERMINAL                 CCN000007500000007500FN00000000020220601000007500NNM   20220201080836B1  4P0P  00000750000000735000001063632B1    AXARNE-M006400630017
BI00B32B1    A22016         202203187158-3167-80             WIRE SEAL                CCN000040000000040000FN00000000020220601000040000NNM   20220201080836B1  1C0C  00002000000000048000000109032B1    AXARNE-M002700430014
BI00B32B1    A22016         202203187158-3169-40             SEALING PLUG             CCN000040000000040000FN00000000020220601000040000NNM   20220201080836B1  1C0C  00004000000000156000000204132B1    AXARNE-M004300260014
BI00B32B1    A22016         202203187282-5553-30             CONNECTOR                CCN000001000000001000FN00000000020220601000001000NNM   20220201080836B1  4N0N  00000100000001010000001187332B1    AXARNE-M005500360039
BI00B32B1    A22016         202203187282-5574-10             CONNECTOR                CCN000000800000000800FN00000000020220601000000800NNM   20220201080836B1  4N0N  00000080000001235000001423032B1    AXARNE-M005600390040
BI00B32B1    #A22016        202203187158-3376-50             CONNECTOR WIRE SEAL      CCN000040000000040000FN00000000020220601000040000NNM   20220201080836B1  2C0C  00002000000000184000000240732B1    AXARNE-M002700430014
BI00B32B1    #A22016        202203187283-8226-30             CONNECTOR                CCN000008000000008000FN00000000020220601000008000NNM   20220201080836B1  2N0N  00000200000000820000001008032B1    AXARNE-M005400370024
BI00B32B1    #A22016        202203187283-8397-40             CONNECTOR                CCN000001540000001540FN00000000020220601000001540NNM   20220201080836B1  2N0N  00000154000001007000001222732B1    AXARNE-M005600390023
BI00B32B6    A72016         202203187116-4037                TERMINAL                 CCN000012000000012000FN00000000020220601000012000NNM   20220201080836B6  4P0P  00000600000000600000000894232B6    AXARNE-M006400630015
BI00B32B6    A72016         202203187017-1182-02             TERMINAL                 CCN000045000000045000FN00000000020220601000045000NNM   20220201080836B6  4P0P  00004500000001165500001318632B6    AXARNE-M005100280028
BI00B32B6    A72016         202203187017-1183-02             TERMINAL                 CCN000027000000027000FN00000000020220601000027000NNM   20220201080836B6  4P0P  00002700000001139400001307432B6    AXARNE-M005100280028
BI00B32B6    A72016         202203187116-5045-02             TERMINAL                 CCN000032000000032000FN00000000020220601000032000NNM   20220201080836B6  4P0P  00001600000000678400001007132B6    AXARNE-M006400630017
BI00B32B6    A72016         202203187287-0192-40             SEALED HOUSING ASS'Y     CCN000002400000002400FN00000000020220601000002400NNM   20220201080836B6  4N0N  00000048000001092000001322032B6    AXARNE-M005600390040
BI00B32B7    A82016         202203187158-3166-60             WIRE SEAL                CCN000120000000120000FN00000000020220601000120000NNM   20220201080836B7  1C0C  00004000000000104000000152432B7    AXARNE-M002700430014
BI00B32B7    A82016         202203187158-3167-80             WIRE SEAL                CCN000040000000040000FN00000000020220601000040000NNM   20220201080836B7  1C0C  00002000000000048000000109032B7    AXARNE-M002700430014
BI00B32B7    A82016         202203187158-3168-80             SEALED                   CCN000020000000020000FN00000000020220601000020000NNM   20220201080836B7  1C0C  00002000000000044000000092132B7    AXARNE-M004300260014
BI00B32B7    A82016         202203187158-3169-40             SEALING PLUG             CCN000080000000080000FN00000000020220601000080000NNM   20220201080836B7  1C0C  00004000000000156000000204132B7    AXARNE-M004300260014
BI00B32B7    A82016         202203187282-6448-40             CONNECTOR                CCN000011200000011200FN00000000020220601000011200NNM   20220201080836B7  4N0N  00000080000000887000001152732B7    AXARNE-M005600390040
BI00B32B7    A82016         202203187283-8599-30             CONNECTOR                CCN000001540000001540FN00000000020220601000001540NNM   20220201080836B7  4N0N  00000154000000947100001157032B7    AXARNE-M005600390023
BI00B32B7    #A82016        202203187135-7031                GROMMET                  CCN000002100000002100FN00000000020220601000002100NNM   20220201080836B7  2H0H  00000010000000634200000744232B7    AXARNE-M005400370024
BI00B32B7    #A82016        202203187158-3376-50             CONNECTOR WIRE SEAL      CCN000040000000040000FN00000000020220601000040000NNM   20220201080836B7  2C0C  00002000000000184000000240732B7    AXARNE-M002700430014
BI00B32B7    #A82016        202203187282-8395-40             CONNECTOR                CCN000003000000003000FN00000000020220601000003000NNM   20220201080836B7  2N0N  00000100000001009000001188032B7    AXARNE-M005500360039
BI00B32B7    #A82016        202203187283-8397-40             CONNECTOR                CCN000007700000007700FN00000000020220601000007700NNM   20220201080836B7  2N0N  00000154000001007000001222732B7    AXARNE-M005600390023
BI00B32B7    #A82016        202203187283-8398-40             CONNECTOR                CCN000006160000006160FN00000000020220601000006160NNM   20220201080836B7  2N0N  00000154000001007000001171332B7    AXARNE-M005600390023
BI00B32CH    SJ22031HMW     202202037327-6868-30             MULTI FUSE               CCN000001152000001152FN00000000020220301000001152NNM00020220201080836    4N0N  00000028800001013500001179432CH    SJSAMIJF005400370024
BI00B32CH    SJ22031HMW     202201287327-6872-30             MULTI FUSE               CCN000006912000002880FY00000288020220301000000000NNM00020220131083112    4N0N  00000028800000984500001150432CH    SJSAMIJF005400370024
BI00B32CH    SJ22031HMW     202201287327-6878-30             MULTI FUSE               CCN000007200000000288FY00000028820220301000000000NNM00020220131083142    4N0N  00000028800000989700001155632CH    SJSAMIJF005400370024
BI00B32CH    SJ22031HMW     202202037327-6872-30             MULTI FUSE               CCN000004032000004032FN00000000020220301000004032NNM00020220201080836    4N0N  00000028800000984500001150432CH    SJSAMIJF005400370024
BI00B32CH    SJ22031HMW     202202037327-6878-30             MULTI FUSE               CCN000006912000006912FN00000000020220301000006912NNM00020220201080836    4N0N  00000028800000989700001155632CH    SJSAMIJF005400370024
BI00B32CJ    JQN203A        202202187327-6987-3W             BATTERY FUSE             CCN000000100000000144FN00000000020220301000000144NNE   20220201080836    4N0N  00000007200000000000000000032CJ    QNYHVQN 000000000000
BI00B32CJ    #JQN203A       202202187287-7022                CONNECTOR FEMALE         CCN000001200000001200FN00000000020220301000001200NNE   20220201080836    2NON  00000120000000742800000853032CJ    QNYHVQN 005400370024
BI00B32CJ    JQN2042        202203187017-1180-02             TERMINAL                 CCN000072000000072000FN00000000020220401000072000NNM   20220201080836    4P0P  00007200000001065600001229032CJ    QNYHVQN 005100280028
BI00B32CJ    JQN2043        202203257017-1180-02             TERMINAL                 CCN000072000000072000FN00000000020220401000072000NNM   20220201080836    4P0P  00007200000001065600001229032CJ    QNYHVQN 005100280028
BI00B32CJ    JQN2044        202204017017-1180-02             TERMINAL                 CCN000216000000216000FN00000000020220401000216000NNM   20220201080836    4P0P  00007200000001065600001229032CJ    QNYHVQN 005100280028
BI00B32CJ    JQN2043        202203257017-1181-02             TERMINAL                 CCN000063000000063000FN00000000020220401000063000NNM   20220201080836    4P0P  00006300000001089900001266832CJ    QNYHVQN 005100280028
BI00B32CJ    JQN2043        202203257017-1182-02             TERMINAL                 CCN000045000000045000FN00000000020220401000045000NNM   20220201080836    4P0P  00004500000001165500001318632CJ    QNYHVQN 005100280028
BI00B32CJ    JQN2042        202203187017-1183-02             TERMINAL                 CCN000054000000054000FN00000000020220401000054000NNM   20220201080836    4P0P  00002700000001139400001307432CJ    QNYHVQN 005100280028
BI00B32CJ    JQN2043        202203257017-1183-02             TERMINAL                 CCN000054000000054000FN00000000020220401000054000NNM   20220201080836    4P0P  00002700000001139400001307432CJ    QNYHVQN 005100280028
BI00B32CJ    JQN2043        202203257114-4729-02             TERMINAL                 CCN000060000000060000FN00000000020220401000060000NNM   20220201080836    4P0P  00003000000000516000000810232CJ    QNYHVQN 006400630015
BI00B32CJ    JQN2043        202203257114-5748-02             TERMINAL                 CCN000024000000024000FN00000000020220401000024000NNM   20220201080836    4P0P  00001200000000444000000737632CJ    QNYHVQN 006400630015
BI00B32CJ    JQN2043        202203257114-5753-02             TERMINAL                 CCN000027000000027000FN00000000020220401000027000NNM   20220201080836    4P0P  00002700000000847800001141432CJ    QNYHVQN 006400630015
BI00B32CJ    JQN2043        202203257116-1180                TERMINAL                 CCN000019500000019500FN00000000020220401000019500NNM   20220201080836    1P0P  00001950000000618200000903432CJ    QNYHVQN 006400630015
BI00B32CJ    JQN2044        202204017116-1180                TERMINAL                 CCN000019500000019500FN00000000020220401000019500NNM   20220201080836    1P0P  00001950000000618200000903432CJ    QNYHVQN 006400630015
BI00B32CJ    JQN2044        202204017116-1685-02             TERMINAL                 CCN000024000000024000FN00000000020220401000024000NNM   20220201080836    4P0P  00002400000000897600001065232CJ    QNYHVQN 005100280028
BI00B32CJ    JQN2043        202203257116-4025                TERMINAL                 CCN000016000000016000FN00000000020220401000016000NNM   20220201080836    4P0P  00001600000000644800000975132CJ    QNYHVQN 006400630017
BI00B32CJ    JQN2042        202203187116-4026                TERMINAL                 CCN000064000000064000FN00000000020220401000064000NNM   20220201080836    4P0P  00001600000000664000000994332CJ    QNYHVQN 006400630017
BI00B32CJ    JQN2043        202203257116-4026                TERMINAL                 CCN000064000000064000FN00000000020220401000064000NNM   20220201080836    4P0P  00001600000000664000000994332CJ    QNYHVQN 006400630017
BI00B32CJ    JQN2044        202204017116-4026                TERMINAL                 CCN000048000000048000FN00000000020220401000048000NNM   20220201080836    4P0P  00001600000000664000000994332CJ    QNYHVQN 006400630017
BI00B32CJ    JQN2042        202203187116-4037                TERMINAL                 CCN000006000000006000FN00000000020220401000006000NNM   20220201080836    4P0P  00000600000000600000000894232CJ    QNYHVQN 006400630015
BI00B32CJ    JQN2043        202203257116-4037                TERMINAL                 CCN000030000000030000FN00000000020220401000030000NNM   20220201080836    4P0P  00000600000000600000000894232CJ    QNYHVQN 006400630015
BI00B32CJ    JQN2044        202204017116-4037                TERMINAL                 CCN000030000000030000FN00000000020220401000030000NNM   20220201080836    4P0P  00000600000000600000000894232CJ    QNYHVQN 006400630015
BI00B32CJ    JQN2042        202203187116-4231-02             TERMINAL                 CCN000026000000026000FN00000000020220401000026000NNM   20220201080836    4P0P  00002600000000683800001012532CJ    QNYHVQN 006400630017
BI00B32CJ    JQN2044        202204017116-4415-02             TERMINAL                 CCN000038000000038000FN00000000020220401000038000NNM   20220201080836    4P0P  00003800000000596600000925732CJ    QNYHVQN 006400630017
BI00B32CJ    JQN2041        202203117116-4416-02             TERMINAL                 CCN000128000000128000FN00000000020220401000128000NNM   20220201080836    4P0P  00003200000000518400000847132CJ    QNYHVQN 006400630017
BI00B32CJ    JQN2042        202203187116-4416-02             TERMINAL                 CCN000096000000096000FN00000000020220401000096000NNM   20220201080836    4P0P  00003200000000518400000847132CJ    QNYHVQN 006400630017
BI00B32CJ    JQN2043        202203257116-4416-02             TERMINAL                 CCN000096000000096000FN00000000020220401000096000NNM   20220201080836    4P0P  00003200000000518400000847132CJ    QNYHVQN 006400630017
BI00B32CJ    JQN2044        202204017116-4416-02             TERMINAL                 CCN000032000000032000FN00000000020220401000032000NNM   20220201080836    4P0P  00003200000000518400000847132CJ    QNYHVQN 006400630017
BI00B32CJ    JQN2043        202203257116-4486-02             TERMINAL                 CCN000084000000084000FN00000000020220401000084000NNM   20220201080836    4P0P  00002800000000666400000995132CJ    QNYHVQN 006400630017
BI00B32CJ    JQN2044        202204017116-4486-02             TERMINAL                 CCN000084000000084000FN00000000020220401000084000NNM   20220201080836    4P0P  00002800000000666400000995132CJ    QNYHVQN 006400630017
BI00B32CJ    JQN2041        202203117116-5042-02             TERMINAL                 CCN000013500000013500FN00000000020220401000013500NNM   20220201080836    4P0P  00001350000000560300000845532CJ    QNYHVQN 006400630015
BI00B32CJ    JQN2042        202203187116-5042-02             TERMINAL                 CCN000027000000027000FN00000000020220401000027000NNM   20220201080836    4P0P  00001350000000560300000845532CJ    QNYHVQN 006400630015
BI00B32CJ    JQN2043        202203257116-5042-02             TERMINAL                 CCN000027000000027000FN00000000020220401000027000NNM   20220201080836    4P0P  00001350000000560300000845532CJ    QNYHVQN 006400630015
BI00B32CJ    JQN2043        202203257126-8853-02             TERMINAL                 CCN000022500000022500FN00000000020220401000022500NNM   20220201080836    4P0P  00000750000000562500000847732CJ    QNYHVQN 006400630015
BI00B32CJ    JQN2041        202203117158-3006-90             RUBBER STOPPER           CCN000040000000040000FN00000000020220401000040000NNM   20220201080836    1C0C  00002000000000330600000386032CJ    QNYHVQN 002700430014
BI00B32CJ    JQN2042        202203187158-3006-90             RUBBER STOPPER           CCN000080000000080000FN00000000020220401000080000NNM   20220201080836    1C0C  00002000000000330600000386032CJ    QNYHVQN 002700430014
BI00B32CJ    JQN2043        202203257158-3006-90             RUBBER STOPPER           CCN000080000000080000FN00000000020220401000080000NNM   20220201080836    1C0C  00002000000000330600000386032CJ    QNYHVQN 002700430014
BI00B32CJ    JQN2044        202204017158-3006-90             RUBBER STOPPER           CCN000080000000080000FN00000000020220401000080000NNM   20220201080836    1C0C  00002000000000330600000386032CJ    QNYHVQN 002700430014
BI00B32CJ    JQN2041        202203117158-3009-60             RUBBER STOPPER           CCN000080000000080000FN00000000020220401000080000NNM   20220201080836    1C0C  00002000000000338000000386232CJ    QNYHVQN 002700430014
BI00B32CJ    JQN2042        202203187158-3009-60             RUBBER STOPPER           CCN000100000000100000FN00000000020220401000100000NNM   20220201080836    1C0C  00002000000000338000000386232CJ    QNYHVQN 002700430014
BI00B32CJ    JQN2043        202203257158-3009-60             RUBBER STOPPER           CCN000080000000080000FN00000000020220401000080000NNM   20220201080836    1C0C  00002000000000338000000386232CJ    QNYHVQN 002700430014
BI00B32CJ    JQN2044        202204017158-3009-60             RUBBER STOPPER           CCN000060000000060000FN00000000020220401000060000NNM   20220201080836    1C0C  00002000000000338000000386232CJ    QNYHVQN 002700430014
BI00B32CJ    JQN2042        202203187158-3070-80             RUBBER STOPPER           CCN000040000000040000FN00000000020220401000040000NNM   20220201080836    1C0C  00004000000000276000000333332CJ    QNYHVQN 002700430014
BI00B32CJ    JQN2043        202203257158-3070-80             RUBBER STOPPER           CCN000040000000040000FN00000000020220401000040000NNM   20220201080836    1C0C  00004000000000276000000333332CJ    QNYHVQN 002700430014
BI00B32CJ    JQN2044        202204017282-4576                HOUSING MALE ASS'Y       CCN000002400000002400FN00000000020220401000002400NNM   20220201080836    4N0N  00000240000000808800001028832CJ    QNYHVQN 005500360039
BI00B32CJ    JQN2043        202203257283-4577                CONNECTOR HOUSING        CCN000009600000009600FN00000000020220401000009600NNM   20220201080836    4N0N  00000480000000916800001136832CJ    QNYHVQN 005500360039
BI00B32CJ    JQN2043        202203257287-3885                HYBRID FEMALE ASS'Y      CCN000004800000004800FN00000000020220401000004800NNM   20220201080836    1N0N  00000240000001029600001249632CJ    QNYHVQN 005500360039
BI00B32CJ    JQN2044        202204017289-3342                HOUSING FEMALE ASS'Y     CCN000004800000004800FN00000000020220401000004800NNM   20220201080836    1N0N  00000240000000686400000901432CJ    QNYHVQN 005500360039
BI00B32CJ    JQN2041        202203117289-3342-30             HOUSING FEMALE ASS'Y     CCN000024000000024000FN00000000020220401000024000NNM   20220201080836    1N0N  00000240000000686400000901432CJ    QNYHVQN 005500360039
BI00B32CJ    JQN2042        202203187289-3342-30             HOUSING FEMALE ASS'Y     CCN000021600000021600FN00000000020220401000021600NNM   20220201080836    1N0N  00000240000000686400000901432CJ    QNYHVQN 005500360039
BI00B32CJ    JQN2042        202203187298-4094-10             HOUSING FEMALE ASS'Y     CCN000003380000003380FN00000000020220401000003380NNM   20220201080836    4N0N  00000338000001097400001358732CJ    QNYHVQN 005400370024
BI00B32CJ    JQN2041        202203117327-6987-3W             BATTERY FUSE             CCN000002000000002016FN00000000020220401000002016NNM   20220201080836    4N0N  00000007200000000000000000032CJ    QNYHVQN 000000000000
BI00B32CJ    #JQN2043       202203257047-5654-30             CLIP                     CCN000005000000005000FN00000000020220401000005000NNM   20220201080836    2F0F  00000500000000657000000825332CJ    QNYHVQN 005500360039
BI00B32CJ    #JQN2041       202203117157-3992-90             CONNECTOR SEALED         CCN000040000000040000FN00000000020220401000040000NNM   20220201080836    2C0C  00004000000000300000000363332CJ    QNYHVQN 002700430014
BI00B32CJ    #JQN2041       202203117158-3004-40             RUBBER STOPPER           CCN000020000000020000FN00000000020220401000020000NNM   20220201080836    2C0C  00002000000000234000000306332CJ    QNYHVQN 002700430014
BI00B32CJ    #JQN2042       202203187158-3004-40             RUBBER STOPPER           CCN000040000000040000FN00000000020220401000040000NNM   20220201080836    2C0C  00002000000000234000000306332CJ    QNYHVQN 002700430014
BI00B32CJ    #JQN2043       202203257158-3004-40             RUBBER STOPPER           CCN000040000000040000FN00000000020220401000040000NNM   20220201080836    2C0C  00002000000000234000000306332CJ    QNYHVQN 002700430014
BI00B32CJ    #JQN2044       202204017158-3004-40             RUBBER STOPPER           CCN000040000000040000FN00000000020220401000040000NNM   20220201080836    2C0C  00002000000000234000000306332CJ    QNYHVQN 002700430014
BI00B32CJ    #JQN2042       202203187158-3015-10             RUBBER STOPPER           CCN000010000000010000FN00000000020220401000010000NNM   20220201080836    2C0C  00001000000000419500000474032CJ    QNYHVQN 002700430014
BI00B32CJ    #JQN2043       202203257158-3015-10             RUBBER STOPPER           CCN000010000000010000FN00000000020220401000010000NNM   20220201080836    2C0C  00001000000000419500000474032CJ    QNYHVQN 002700430014
BI00B32CJ    #JQN2041       202203117158-3017                RUBBER STOPPER           CCN000010000000010000FN00000000020220401000010000NNM   20220201080836    2C0C  00001000000000375500000435032CJ    QNYHVQN 002700430014
BI00B32CJ    #JQN2042       202203187158-3017                RUBBER STOPPER           CCN000010000000010000FN00000000020220401000010000NNM   20220201080836    2C0C  00001000000000375500000435032CJ    QNYHVQN 002700430014
BI00B32CJ    #JQN2043       202203257158-3017                RUBBER STOPPER           CCN000020000000020000FN00000000020220401000020000NNM   20220201080836    2C0C  00001000000000375500000435032CJ    QNYHVQN 002700430014
BI00B32CJ    #JQN2044       202204017158-3017                RUBBER STOPPER           CCN000020000000020000FN00000000020220401000020000NNM   20220201080836    2C0C  00001000000000375500000435032CJ    QNYHVQN 002700430014
BI00B32CJ    #JQN2041       202203117158-3120-90             CONNECTOR WIRE SEAL      CCN000020000000020000FN00000000020220401000020000NNM   20220201080836    2C0C  00002000000000136000000194032CJ    QNYHVQN 002700430014
BI00B32CJ    #JQN2042       202203187158-3120-90             CONNECTOR WIRE SEAL      CCN000040000000040000FN00000000020220401000040000NNM   20220201080836    2C0C  00002000000000136000000194032CJ    QNYHVQN 002700430014
BI00B32CJ    #JQN2043       202203257158-3120-90             CONNECTOR WIRE SEAL      CCN000060000000060000FN00000000020220401000060000NNM   20220201080836    2C0C  00002000000000136000000194032CJ    QNYHVQN 002700430014
BI00B32CJ    #JQN2044       202204017158-3120-90             CONNECTOR WIRE SEAL      CCN000060000000060000FN00000000020220401000060000NNM   20220201080836    2C0C  00002000000000136000000194032CJ    QNYHVQN 002700430014
BI00B32CJ    #JQN2042       202203187158-3121-80             WIRE SEAL                CCN000020000000020000FN00000000020220401000020000NNM   20220201080836    2C0C  00002000000000118000000187332CJ    QNYHVQN 002700430014
BI00B32CJ    #JQN2043       202203257158-3121-80             WIRE SEAL                CCN000040000000040000FN00000000020220401000040000NNM   20220201080836    2C0C  00002000000000118000000187332CJ    QNYHVQN 002700430014
BI00B32CJ    #JQN2044       202204017158-3121-80             WIRE SEAL                CCN000040000000040000FN00000000020220401000040000NNM   20220201080836    2C0C  00002000000000118000000187332CJ    QNYHVQN 002700430014
BI00B32CJ    #JQN2044       202204017183-2419                HOUSING                  CCN000004800000004800FN00000000020220401000004800NNM   20220201080836    2F0F  00000480000001065600001352732CJ    QNYHVQN 005500360039
BI00B32CJ    #JQN2043       202203257187-8856-60             HLC HOUSING FEMALE       CCN000022000000022000FN00000000020220401000022000NNM   20220201080836    2F0F  00000200000000820000000931532CJ    QNYHVQN 005400370024
BI00B32CJ    #JQN2042       202203187287-1669                HOUSING FEMALE ASS'Y     CCN000006000000006000FN00000000020220401000006000NNM   20220201080836    2N0N  00000200000000788800000980832CJ    QNYHVQN 005400370024
BI00B32CJ    #JQN2043       202203257287-1669                HOUSING FEMALE ASS'Y     CCN000010000000010000FN00000000020220401000010000NNM   20220201080836    2N0N  00000200000000788800000980832CJ    QNYHVQN 005400370024
BI00B32CJ    #JQN2041       202203117287-1670                HOUSING FEMALE ASS'Y     CCN000002800000002800FN00000000020220401000002800NNM   20220201080836    2N0N  00000280000000953100001145132CJ    QNYHVQN 005400370024
BI00B32CJ    #JQN2042       202203187287-1670                HOUSING FEMALE ASS'Y     CCN000011200000011200FN00000000020220401000011200NNM   20220201080836    2N0N  00000280000000953100001145132CJ    QNYHVQN 005400370024
BI00B32CJ    #JQN2043       202203257287-1670                HOUSING FEMALE ASS'Y     CCN000008400000008400FN00000000020220401000008400NNM   20220201080836    2N0N  00000280000000953100001145132CJ    QNYHVQN 005400370024
BI00B32CJ    #JQN2044       202204017287-1670                HOUSING FEMALE ASS'Y     CCN000011200000011200FN00000000020220401000011200NNM   20220201080836    2N0N  00000280000000953100001145132CJ    QNYHVQN 005400370024
BI00B32CJ    #JQN2041       202203117287-1671                HOUSING FEMALE ASS'Y     CCN000004000000004000FN00000000020220401000004000NNM   20220201080836    2N0N  00000200000000782600000974632CJ    QNYHVQN 005400370024
BI00B32CJ    #JQN2042       202203187287-1671                HOUSING FEMALE ASS'Y     CCN000008000000008000FN00000000020220401000008000NNM   20220201080836    2N0N  00000200000000782600000974632CJ    QNYHVQN 005400370024
BI00B32CJ    #JQN2043       202203257287-1671                HOUSING FEMALE ASS'Y     CCN000012000000012000FN00000000020220401000012000NNM   20220201080836    2N0N  00000200000000782600000974632CJ    QNYHVQN 005400370024
BI00B32CJ    #JQN2044       202204017287-1671                HOUSING FEMALE ASS'Y     CCN000012000000012000FN00000000020220401000012000NNM   20220201080836    2N0N  00000200000000782600000974632CJ    QNYHVQN 005400370024
BI00B32CJ    #JQN2041       202203117287-1674                HYBRID FEMALE ASS'Y      CCN000004000000004000FN00000000020220401000004000NNM   20220201080836    2N0N  00000200000000810800001002832CJ    QNYHVQN 005400370024
BI00B32CJ    #JQN2042       202203187287-1674                HYBRID FEMALE ASS'Y      CCN000010000000010000FN00000000020220401000010000NNM   20220201080836    2N0N  00000200000000810800001002832CJ    QNYHVQN 005400370024
BI00B32CJ    #JQN2043       202203257287-1674                HYBRID FEMALE ASS'Y      CCN000012000000012000FN00000000020220401000012000NNM   20220201080836    2N0N  00000200000000810800001002832CJ    QNYHVQN 005400370024
BI00B32CJ    #JQN2044       202204017287-1674                HYBRID FEMALE ASS'Y      CCN000010000000010000FN00000000020220401000010000NNM   20220201080836    2N0N  00000200000000810800001002832CJ    QNYHVQN 005400370024
BI00B32CJ    #JQN2041       202203117287-7022                CONNECTOR FEMALE         CCN000001200000001200FN00000000020220401000001200NNM   20220201080836    2NON  00000120000000742800000853032CJ    QNYHVQN 005400370024
BI00B32CJ    #JQN2042       202203187287-7022                CONNECTOR FEMALE         CCN000001200000001200FN00000000020220401000001200NNM   20220201080836    2NON  00000120000000742800000853032CJ    QNYHVQN 005400370024
BI00B32CJ    #JQN2043       202203257287-7022                CONNECTOR FEMALE         CCN000001200000001200FN00000000020220401000001200NNM   20220201080836    2NON  00000120000000742800000853032CJ    QNYHVQN 005400370024
BI00B32DA    SBT2204        202202247114-4020                TERMINAL                 CCN000063000000063000FN00000000020220401000063000NNM   20220201080836    4P0P  00002100000000875700001169332DA    GBYIPLGB006400630015
BI00B32DA    SBT2204A       202203037114-4020                TERMINAL                 CCN000021000000021000FN00000000020220401000021000NNM   20220201080836    4P0P  00002100000000875700001169332DA    GBYIPLGB006400630015
BI00B32DA    SBT2204        202202247114-4021                TERMINAL                 CCN000090000000090000FN00000000020220401000090000NNM   20220201080836    4P0P  00001500000000670500000964132DA    GBYIPLGB006400630015
BI00B32DA    SBT2204A       202203037114-4021                TERMINAL                 CCN000060000000060000FN00000000020220401000060000NNM   20220201080836    4P0P  00001500000000670500000964132DA    GBYIPLGB006400630015
BI00B32DA    SBT2204        202202247114-4032                TERMINAL                 CCN000015000000015000FN00000000020220401000015000NNM   20220201080836    4P0P  00000750000000735000001063632DA    GBYIPLGB006400630017
BI00B32DA    SBT2204A       202203037114-4032                TERMINAL                 CCN000007500000007500FN00000000020220401000007500NNM   20220201080836    4P0P  00000750000000735000001063632DA    GBYIPLGB006400630017
BI00B32DA    SBT2204        202202247116-1301                TERMINAL                 CCN000015000000015000FN00000000020220401000015000NNM   20220201080836    4P0P  00001500000000487500000772732DA    GBYIPLGB006400630015
BI00B32DA    SBT2204        202202247116-4020                TERMINAL                 CCN000108000000108000FN00000000020220401000108000NNM   20220201080836    4P0P  00001350000000513000000798232DA    GBYIPLGB006400630015
BI00B32DA    SBT2204A       202203037116-4020                TERMINAL                 CCN000040500000040500FN00000000020220401000040500NNM   20220201080836    4P0P  00001350000000513000000798232DA    GBYIPLGB006400630015
BI00B32DA    SBT2204        202202247116-4022                TERMINAL                 CCN000040500000040500FN00000000020220401000040500NNM   20220201080836    4P0P  00001350000000618300000903532DA    GBYIPLGB006400630015
BI00B32DA    SBT2204A       202203037116-4022                TERMINAL                 CCN000013500000013500FN00000000020220401000013500NNM   20220201080836    4P0P  00001350000000618300000903532DA    GBYIPLGB006400630015
BI00B32DA    SBT2204        202202247116-4025                TERMINAL                 CCN000192000000192000FN00000000020220401000192000NNM   20220201080836    4P0P  00001600000000644800000975132DA    GBYIPLGB006400630017
BI00B32DA    SBT2204A       202203037116-4025                TERMINAL                 CCN000128000000128000FN00000000020220401000128000NNM   20220201080836    4P0P  00001600000000644800000975132DA    GBYIPLGB006400630017
BI00B32DA    SBT2204        202202247116-4026                TERMINAL                 CCN000144000000144000FN00000000020220401000144000NNM   20220201080836    4P0P  00001600000000664000000994332DA    GBYIPLGB006400630017
BI00B32DA    SBT2204A       202203037116-4026                TERMINAL                 CCN000048000000048000FN00000000020220401000048000NNM   20220201080836    4P0P  00001600000000664000000994332DA    GBYIPLGB006400630017
BI00B32DA    SBT2204        202202247116-4032                TERMINAL                 CCN000090000000090000FN00000000020220401000090000NNM   20220201080836    4P0P  00000600000000532800000818032DA    GBYIPLGB006400630015
BI00B32DA    SBT2204A       202203037116-4032                TERMINAL                 CCN000042000000042000FN00000000020220401000042000NNM   20220201080836    4P0P  00000600000000532800000818032DA    GBYIPLGB006400630015
BI00B32DA    SBT2204        202202247116-4037                TERMINAL                 CCN000042000000042000FN00000000020220401000042000NNM   20220201080836    4P0P  00000600000000600000000894232DA    GBYIPLGB006400630015
BI00B32DA    SBT2204A       202203037116-4037                TERMINAL                 CCN000030000000030000FN00000000020220401000030000NNM   20220201080836    4P0P  00000600000000600000000894232DA    GBYIPLGB006400630015
BI00B32DA    SBT2204        202202247116-6042                TERMINAL                 CCN000018000000018000FN00000000020220401000018000NNM   20220201080836    4P0P  00000300000000523800000856132DA    GBYIPLGB006400630015
BI00B32DA    SBT2204A       202203037116-6042                TERMINAL                 CCN000015000000015000FN00000000020220401000015000NNM   20220201080836    4P0P  00000300000000523800000856132DA    GBYIPLGB006400630015
BI00B32DA    SBT2204        202202247283-5830                CONNECTOR                CCN000036000000036000FN00000000020220401000036000NNM   20220201080836    1N47  00000600000000954000001104032DA    GBYIPLGB005500360039
BI00B32DA    SBT2204        202202247283-5845                CONNECTOR HOUSING        CCN000030000000030000FN00000000020220401000030000NNM   20220201080836    1N0N  00000600000000444000000606332DA    GBYIPLGB005400370024
BI00B32DA    SBT2204A       202203037283-5845                CONNECTOR HOUSING        CCN000006000000006000FN00000000020220401000006000NNM   20220201080836    1N0N  00000600000000444000000606332DA    GBYIPLGB005400370024
BI00B32DA    SBT2204        202202247287-9234                JOINT CONNECTOR          CCN000096000000096000FN00000000020220401000096000NNM   20220201080836    4N0N  00000960000000893800001184832DA    GBYIPLGB005500360039
BI00B32DA    SBT2204A       202203037287-9234                JOINT CONNECTOR          CCN000038400000038400FN00000000020220401000038400NNM   20220201080836    4N0N  00000960000000893800001184832DA    GBYIPLGB005500360039
BI00B32DA    SBT2204        202202247017-1180-02             TERMINAL                 CCN000216000000216000FN00000000020220401000216000NNM   20220201080836    4P0P  00007200000001065600001229032DA    GBYIPLGB005100280028
BI00B32DA    SBT2204        202202247114-4624-02             TERMINAL                 CCN000024000000024000FN00000000020220401000024000NNM   20220201080836    4P0P  00002400000000895200001188832DA    GBYIPLGB006400630015
BI00B32DA    SBT2204A       202203037114-4624-02             TERMINAL                 CCN000024000000024000FN00000000020220401000024000NNM   20220201080836    4P0P  00002400000000895200001188832DA    GBYIPLGB006400630015
BI00B32DA    SBT2204        202202247114-4728-02             TERMINAL                 CCN000900000000900000FN00000000020220401000900000NNM   20220201080836    4P0P  00003000000000510000000804232DA    GBYIPLGB006400630015
BI00B32DA    SBT2204A       202203037114-4728-02             TERMINAL                 CCN000390000000390000FN00000000020220401000390000NNM   20220201080836    4P0P  00003000000000510000000804232DA    GBYIPLGB006400630015
BI00B32DA    SBT2204        202202247114-4729-02             TERMINAL                 CCN000030000000030000FN00000000020220401000030000NNM   20220201080836    4P0P  00003000000000516000000810232DA    GBYIPLGB006400630015
BI00B32DA    SBT2204A       202203037114-4729-02             TERMINAL                 CCN000030000000030000FN00000000020220401000030000NNM   20220201080836    4P0P  00003000000000516000000810232DA    GBYIPLGB006400630015
BI00B32DA    SBT2204        202202247114-5746-02             TERMINAL                 CCN000126000000126000FN00000000020220401000126000NNM   20220201080836    4P0P  00002100000000695100000988732DA    GBYIPLGB006400630015
BI00B32DA    SBT2204A       202203037114-5746-02             TERMINAL                 CCN000021000000021000FN00000000020220401000021000NNM   20220201080836    4P0P  00002100000000695100000988732DA    GBYIPLGB006400630015
BI00B32DA    SBT2204        202202247114-5747-02             TERMINAL                 CCN000162000000162000FN00000000020220401000162000NNM   20220201080836    4P0P  00001800000000626400000920032DA    GBYIPLGB006400630015
BI00B32DA    SBT2204A       202203037114-5747-02             TERMINAL                 CCN000054000000054000FN00000000020220401000054000NNM   20220201080836    4P0P  00001800000000626400000920032DA    GBYIPLGB006400630015
BI00B32DA    SBT2204        202202247114-5748-02             TERMINAL                 CCN000180000000180000FN00000000020220401000180000NNM   20220201080836    4P0P  00001200000000444000000737632DA    GBYIPLGB006400630015
BI00B32DA    SBT2204A       202203037114-5748-02             TERMINAL                 CCN000072000000072000FN00000000020220401000072000NNM   20220201080836    4P0P  00001200000000444000000737632DA    GBYIPLGB006400630015
BI00B32DA    SBT2204        202202247114-5753-02             TERMINAL                 CCN000135000000135000FN00000000020220401000135000NNM   20220201080836    4P0P  00002700000000847800001141432DA    GBYIPLGB006400630015
BI00B32DA    SBT2204A       202203037114-5753-02             TERMINAL                 CCN000054000000054000FN00000000020220401000054000NNM   20220201080836    4P0P  00002700000000847800001141432DA    GBYIPLGB006400630015
BI00B32DA    SBT2204        202202247116-1257-02             TERMINAL                 CCN000048000000048000FN00000000020220401000048000NNM   20220201080836    1P0P  00002400000000518400000847132DA    GBYIPLGB006400630017
BI00B32DA    SBT2204A       202203037116-1257-02             TERMINAL                 CCN000024000000024000FN00000000020220401000024000NNM   20220201080836    1P0P  00002400000000518400000847132DA    GBYIPLGB006400630017
BI00B32DA    SBT2204        202202247116-4231-02             TERMINAL                 CCN000026000000026000FN00000000020220401000026000NNM   20220201080836    4P0P  00002600000000683800001012532DA    GBYIPLGB006400630017
BI00B32DA    SBT2204        202202247116-4415-02             TERMINAL                 CCN000038000000038000FN00000000020220401000038000NNM   20220201080836    4P0P  00003800000000596600000925732DA    GBYIPLGB006400630017
BI00B32DA    SBT2204A       202203037116-4415-02             TERMINAL                 CCN000038000000038000FN00000000020220401000038000NNM   20220201080836    4P0P  00003800000000596600000925732DA    GBYIPLGB006400630017
BI00B32DA    SBT2204        202202247116-4486-02             TERMINAL                 CCN000364000000364000FN00000000020220401000364000NNM   20220201080836    4P0P  00002800000000666400000995132DA    GBYIPLGB006400630017
BI00B32DA    SBT2204A       202203037116-4486-02             TERMINAL                 CCN000084000000084000FN00000000020220401000084000NNM   20220201080836    4P0P  00002800000000666400000995132DA    GBYIPLGB006400630017
BI00B32DA    SBT2204        202202247116-5045-02             TERMINAL                 CCN000016000000016000FN00000000020220401000016000NNM   20220201080836    4P0P  00001600000000678400001007132DA    GBYIPLGB006400630017
BI00B32DA    SBT2204A       202203037116-5045-02             TERMINAL                 CCN000032000000032000FN00000000020220401000032000NNM   20220201080836    4P0P  00001600000000678400001007132DA    GBYIPLGB006400630017
BI00B32DA    SBT2204        202202247116-5750-02             TERMINAL                 CCN000120000000120000FN00000000020220401000120000NNM   20220201080836    4P0P  00001500000000457500000742732DA    GBYIPLGB006400630015
BI00B32DA    SBT2204A       202203037116-5750-02             TERMINAL                 CCN000120000000120000FN00000000020220401000120000NNM   20220201080836    4P0P  00001500000000457500000742732DA    GBYIPLGB006400630015
BI00B32DA    SBT2204        202202247158-3006-90             RUBBER STOPPER           CCN000220000000220000FN00000000020220401000220000NNM   20220201080836    1C0C  00002000000000330600000386032DA    GBYIPLGB002700430014
BI00B32DA    SBT2204A       202203037158-3006-90             RUBBER STOPPER           CCN000120000000120000FN00000000020220401000120000NNM   20220201080836    1C0C  00002000000000330600000386032DA    GBYIPLGB002700430014
BI00B32DA    SBT2204        202202247158-3009-60             RUBBER STOPPER           CCN000260000000260000FN00000000020220401000260000NNM   20220201080836    1C0C  00002000000000338000000386232DA    GBYIPLGB002700430014
BI00B32DA    SBT2204A       202203037158-3009-60             RUBBER STOPPER           CCN000080000000080000FN00000000020220401000080000NNM   20220201080836    1C0C  00002000000000338000000386232DA    GBYIPLGB002700430014
BI00B32DA    SBT2204        202202247158-3166-60             WIRE SEAL                CCN000080000000080000FN00000000020220401000080000NNM   20220201080836    1C0C  00004000000000104000000152432DA    GBYIPLGB002700430014
BI00B32DA    SBT2204        202202247172-5540-80             SEALED WIRE SEAL         CCN000020000000020000FN00000000020220401000020000NNM   20220201080836    1C0C  00002000000000186000000234432DA    GBYIPLGB004300270014
BI00B32DA    SBT2204A       202203037172-5540-80             SEALED WIRE SEAL         CCN000020000000020000FN00000000020220401000020000NNM   20220201080836    1C0C  00002000000000186000000234432DA    GBYIPLGB004300270014
BI00B32DA    SBT2204        202202247196-0805-02             TERMINAL FEMALE          CCN000022500000022500FN00000000020220401000022500NNM   20220201080836    4P0P  00002250000000558000000843232DA    GBYIPLGB006400630015
BI00B32DA    SBT2204A       202203037196-0805-02             TERMINAL FEMALE          CCN000022500000022500FN00000000020220401000022500NNM   20220201080836    4P0P  00002250000000558000000843232DA    GBYIPLGB006400630015
BI00B32DA    SBT2204        202202247283-5830-30             CONNECTOR                CCN000018000000018000FN00000000020220401000018000NNM   20220201080836    1N0N  00000600000000954000001104032DA    GBYIPLGB005500360039
BI00B32DA    SBT2204A       202203037283-5830-30             CONNECTOR                CCN000012000000012000FN00000000020220401000012000NNM   20220201080836    1N0N  00000600000000954000001104032DA    GBYIPLGB005500360039
BI00B32DA    SBT2204        202202247288-3329-30             HOUSING MALE             CCN000016500000016500FN00000000020220401000016500NNM   20220201080836    4N0N  00000150000000866100001011132DA    GBYIPLGB005400370024
BI00B32DA    SBT2204A       202203037288-3329-30             HOUSING MALE             CCN000007500000007500FN00000000020220401000007500NNM   20220201080836    4N0N  00000150000000866100001011132DA    GBYIPLGB005400370024
BI00B32DA    SBT2204        202202247288-3331-30             HOUSING MALE             CCN000016500000016500FN00000000020220401000016500NNM   20220201080836    4N0N  00000150000000866000001010932DA    GBYIPLGB005400370024
BI00B32DA    SBT2204A       202203037288-3331-30             HOUSING MALE             CCN000007500000007500FN00000000020220401000007500NNM   20220201080836    4N0N  00000150000000866000001010932DA    GBYIPLGB005400370024
BI00B32DA    SBT2204        202202247288-3336-30             HOUSING MALE             CCN000012000000012000FN00000000020220401000012000NNM   20220201080836    4N0N  00000150000000867000001012032DA    GBYIPLGB005400370024
BI00B32DA    SBT2204A       202203037288-3336-30             HOUSING MALE             CCN000006000000006000FN00000000020220401000006000NNM   20220201080836    4N0N  00000150000000867000001012032DA    GBYIPLGB005400370024
BI00B32DA    SBT2204        202202247288-3337-30             HOUSING MALE             CCN000019500000019500FN00000000020220401000019500NNM   20220201080836    4N0N  00000150000000867000001012032DA    GBYIPLGB005400370024
BI00B32DA    SBT2204A       202203037288-3337-30             HOUSING MALE             CCN000007500000007500FN00000000020220401000007500NNM   20220201080836    4N0N  00000150000000867000001012032DA    GBYIPLGB005400370024
BI00B32DA    SBT2204        202202247289-3342-30             HOUSING FEMALE ASS'Y     CCN000043200000043200FN00000000020220401000043200NNM   20220201080836    1N0N  00000240000000686400000901432DA    GBYIPLGB005500360039
BI00B32DA    SBT2204A       202203037289-3342-30             HOUSING FEMALE ASS'Y     CCN000026400000026400FN00000000020220401000026400NNM   20220201080836    1N0N  00000240000000686400000901432DA    GBYIPLGB005500360039
BI00B32DA    SBT2204        202202247286-3885-40             CONNECTOR MALE ASS'Y     CCN000041750000042000FN00000000020220401000042000NNM   20220201080836    1N0N  00000120000000910600001130632DA    GBYIPLGB005500360039
BI00B32DA    SBT2204A       202203037286-3885-40             CONNECTOR MALE ASS'Y     CCN000021600000021600FN00000000020220401000021600NNM   20220201080836    1N0N  00000120000000910600001130632DA    GBYIPLGB005500360039
BI00B32DA    SBT2204        202202247287-3885-40             HYBRID FEMALE ASS'Y      CCN000003600000004800FN00000000020220401000004800NNM   20220201080836    1N0N  00000240000001029600001249632DA    GBYIPLGB005500360039
BI00B32DA    SBT2204A       202203037287-3885-40             HYBRID FEMALE ASS'Y      CCN000007650000009600FN00000000020220401000009600NNM   20220201080836    1N0N  00000240000001029600001249632DA    GBYIPLGB005500360039
BI00B32DA    SBT2204        202202247114-4415-02             TERMINAL MALE            CCN000027000000027000FN00000000020220401000027000NNM   20220201080836    4P0P  00002700000000429300000717532DA    GBYIPLGB006400630015
BI00B32DA    SBT2204        202202247158-3169-40             SEALING PLUG             CCN000040000000040000FN00000000020220401000040000NNM   20220201080836    1C0C  00004000000000156000000204132DA    GBYIPLGB004300260014
BI00B32DA    #SBT2204       202202247114-4022                TERMINAL                 CCN000045000000045000FN00000000020220401000045000NNM   20220201080836    2F0P  00001500000000708000001120632DA    GBYIPLGB006400630015
BI00B32DA    #SBT2204A      202203037114-4022                TERMINAL                 CCN000015000000015000FN00000000020220401000015000NNM   20220201080836    2F0P  00001500000000708000001120632DA    GBYIPLGB006400630015
BI00B32DA    #SBT2204       202202247116-4021                TERMINAL                 CCN000081000000081000FN00000000020220401000081000NNM   20220201080836    2F0P  00001350000000534600000868832DA    GBYIPLGB006400630015
BI00B32DA    #SBT2204A      202203037116-4021                TERMINAL                 CCN000040500000040500FN00000000020220401000040500NNM   20220201080836    2F0P  00001350000000534600000868832DA    GBYIPLGB006400630015
BI00B32DA    #SBT2204       202202247183-2414                CONNECTOR HOUSING        CCN000024000000024000FN00000000020220401000024000NNM   20220201080836    2F0F  00000480000000779200001061032DA    GBYIPLGB005500360039
BI00B32DA    #SBT2204A      202203037183-2414                CONNECTOR HOUSING        CCN000004800000004800FN00000000020220401000004800NNM   20220201080836    2F0F  00000480000000779200001061032DA    GBYIPLGB005500360039
BI00B32DA    #SBT2204       202202247189-3037                HOUSING FEMALE           CCN000014400000014400FN00000000020220401000014400NNM   20220201080836    2F0F  00000480000000806400001066432DA    GBYIPLGB005500360039
BI00B32DA    #SBT2204       202202247157-6826-80             REAR HOLDER              CCN000015000000015000FN00000000020220401000015000NNM   20220201080836    2F0F  00001500000001234500001394132DA    GBYIPLGB005600390040
BI00B32DA    #SBT2204A      202203037157-6826-80             REAR HOLDER              CCN000015000000015000FN00000000020220401000015000NNM   20220201080836    2F0F  00001500000001234500001394132DA    GBYIPLGB005600390040
BI00B32DA    #SBT2204       202202247158-3015-10             RUBBER STOPPER           CCN000050000000050000FN00000000020220401000050000NNM   20220201080836    2C0C  00001000000000419500000474032DA    GBYIPLGB002700430014
BI00B32DA    #SBT2204A      202203037158-3015-10             RUBBER STOPPER           CCN000030000000030000FN00000000020220401000030000NNM   20220201080836    2C0C  00001000000000419500000474032DA    GBYIPLGB002700430014
BI00B32DA    #SBT2204       202202247183-1616-30             CONNECTOR HOUSING        CCN000019200000019200FN00000000020220401000019200NNM   20220201080836    2F0F  00000240000000557500000837132DA    GBYIPLGB005500360039
BI00B32DA    #SBT2204A      202203037183-1616-30             CONNECTOR HOUSING        CCN000004800000004800FN00000000020220401000004800NNM   20220201080836    2F0F  00000240000000557500000837132DA    GBYIPLGB005500360039
BI00B32DA    #SBT2204       202202247183-2414-40             CONNECTOR HOUSING        CCN000014400000014400FN00000000020220401000014400NNM   20220201080836    2F0F  00000480000000777600000963632DA    GBYIPLGB005500360039
BI00B32DA    #SBT2204       202202247183-7725-40             HOUSING                  CCN000024000000024000FN00000000020220401000024000NNM   20220201080836    2F0F  00000600000000840000001040032DA    GBYIPLGB005600390040
BI00B32DA    #SBT2204A      202203037183-7725-40             HOUSING                  CCN000006000000006000FN00000000020220401000006000NNM   20220201080836    2F0F  00000600000000840000001040032DA    GBYIPLGB005600390040
BI00B32DE    TCT203D        202202247283-1020-30             CONNECTOR                CCN000006000000006000FN00000000020220301000006000NNE   20220201080836    4N0N  00000600000000840000001064032DE    TVYEV-TV005600390040
BI00B32DE    TCT2043        202203247017-1180-02             TERMINAL                 CCN000072000000072000FN00000000020220401000072000NNM   20220201080836    4P0P  00007200000001065600001229032DE    TVYEV-TV005100280028
BI00B32DE    TCT2044        202203317017-1180-02             TERMINAL                 CCN000072000000072000FN00000000020220401000072000NNM   20220201080836    4P0P  00007200000001065600001229032DE    TVYEV-TV005100280028
BI00B32DE    TCT2043        202203247017-1181-02             TERMINAL                 CCN000063000000063000FN00000000020220401000063000NNM   20220201080836    4P0P  00006300000001089900001266832DE    TVYEV-TV005100280028
BI00B32DE    TCT2042        202203177114-4020                TERMINAL                 CCN000063000000063000FN00000000020220401000063000NNM   20220201080836    4P0P  00002100000000875700001169332DE    TVYEV-TV006400630015
BI00B32DE    TCT2043        202203247114-4020                TERMINAL                 CCN000042000000042000FN00000000020220401000042000NNM   20220201080836    4P0P  00002100000000875700001169332DE    TVYEV-TV006400630015
BI00B32DE    TCT2044        202203317114-4020                TERMINAL                 CCN000021000000021000FN00000000020220401000021000NNM   20220201080836    4P0P  00002100000000875700001169332DE    TVYEV-TV006400630015
BI00B32DE    TCT2042        202203177114-4021                TERMINAL                 CCN000060000000060000FN00000000020220401000060000NNM   20220201080836    4P0P  00001500000000670500000964132DE    TVYEV-TV006400630015
BI00B32DE    TCT2043        202203247114-4021                TERMINAL                 CCN000060000000060000FN00000000020220401000060000NNM   20220201080836    4P0P  00001500000000670500000964132DE    TVYEV-TV006400630015
BI00B32DE    TCT2044        202203317114-4021                TERMINAL                 CCN000015000000015000FN00000000020220401000015000NNM   20220201080836    4P0P  00001500000000670500000964132DE    TVYEV-TV006400630015
BI00B32DE    TCT2042        202203177114-4032                TERMINAL                 CCN000007500000007500FN00000000020220401000007500NNM   20220201080836    4P0P  00000750000000735000001063632DE    TVYEV-TV006400630017
BI00B32DE    TCT2043        202203247114-4032                TERMINAL                 CCN000007500000007500FN00000000020220401000007500NNM   20220201080836    4P0P  00000750000000735000001063632DE    TVYEV-TV006400630017
BI00B32DE    TCT2043        202203247114-4231-02             TERMINAL                 CCN000018000000018000FN00000000020220401000018000NNM   20220201080836    4P0P  00001800000000554400000848032DE    TVYEV-TV006400630015
BI00B32DE    TCT2044        202203317114-4486-02             TERMINAL                 CCN000024000000024000FN00000000020220401000024000NNM   20220201080836    4P0P  00002400000000662400000956032DE    TVYEV-TV006400630015
BI00B32DE    TCT2043        202203247114-4624-02             TERMINAL                 CCN000024000000024000FN00000000020220401000024000NNM   20220201080836    4P0P  00002400000000895200001188832DE    TVYEV-TV006400630015
BI00B32DE    TCT2042        202203177114-4728-02             TERMINAL                 CCN000150000000150000FN00000000020220401000150000NNM   20220201080836    4P0P  00003000000000510000000804232DE    TVYEV-TV006400630015
BI00B32DE    TCT2043        202203247114-4728-02             TERMINAL                 CCN000420000000420000FN00000000020220401000420000NNM   20220201080836    4P0P  00003000000000510000000804232DE    TVYEV-TV006400630015
BI00B32DE    TCT2044        202203317114-4728-02             TERMINAL                 CCN000180000000180000FN00000000020220401000180000NNM   20220201080836    4P0P  00003000000000510000000804232DE    TVYEV-TV006400630015
BI00B32DE    TCT2042        202203177114-4729-02             TERMINAL                 CCN000150000000150000FN00000000020220401000150000NNM   20220201080836    4P0P  00003000000000516000000810232DE    TVYEV-TV006400630015
BI00B32DE    TCT2043        202203247114-4729-02             TERMINAL                 CCN000180000000180000FN00000000020220401000180000NNM   20220201080836    4P0P  00003000000000516000000810232DE    TVYEV-TV006400630015
BI00B32DE    TCT2044        202203317114-4729-02             TERMINAL                 CCN000060000000060000FN00000000020220401000060000NNM   20220201080836    4P0P  00003000000000516000000810232DE    TVYEV-TV006400630015
BI00B32DE    TCT2041        202203107114-5746-02             TERMINAL                 CCN000021000000021000FN00000000020220401000021000NNM   20220201080836    4P0P  00002100000000695100000988732DE    TVYEV-TV006400630015
BI00B32DE    TCT2042        202203177114-5746-02             TERMINAL                 CCN000105000000105000FN00000000020220401000105000NNM   20220201080836    4P0P  00002100000000695100000988732DE    TVYEV-TV006400630015
BI00B32DE    TCT2043        202203247114-5746-02             TERMINAL                 CCN000084000000084000FN00000000020220401000084000NNM   20220201080836    4P0P  00002100000000695100000988732DE    TVYEV-TV006400630015
BI00B32DE    TCT2044        202203317114-5746-02             TERMINAL                 CCN000021000000021000FN00000000020220401000021000NNM   20220201080836    4P0P  00002100000000695100000988732DE    TVYEV-TV006400630015
BI00B32DE    TCT2042        202203177114-5747-02             TERMINAL                 CCN000018000000018000FN00000000020220401000018000NNM   20220201080836    4P0P  00001800000000626400000920032DE    TVYEV-TV006400630015
BI00B32DE    TCT2043        202203247114-5747-02             TERMINAL                 CCN000018000000018000FN00000000020220401000018000NNM   20220201080836    4P0P  00001800000000626400000920032DE    TVYEV-TV006400630015
BI00B32DE    TCT2042        202203177114-5748-02             TERMINAL                 CCN000012000000012000FN00000000020220401000012000NNM   20220201080836    4P0P  00001200000000444000000737632DE    TVYEV-TV006400630015
BI00B32DE    TCT2043        202203247114-5748-02             TERMINAL                 CCN000024000000024000FN00000000020220401000024000NNM   20220201080836    4P0P  00001200000000444000000737632DE    TVYEV-TV006400630015
BI00B32DE    TCT2042        202203177114-5753-02             TERMINAL                 CCN000027000000027000FN00000000020220401000027000NNM   20220201080836    4P0P  00002700000000847800001141432DE    TVYEV-TV006400630015
BI00B32DE    TCT2043        202203247114-5753-02             TERMINAL                 CCN000054000000054000FN00000000020220401000054000NNM   20220201080836    4P0P  00002700000000847800001141432DE    TVYEV-TV006400630015
BI00B32DE    TCT2042        202203177116-1685-02             TERMINAL                 CCN000744000000744000FN00000000020220401000744000NNM   20220201080836    4P0P  00002400000000897600001065232DE    TVYEV-TV005100280028
BI00B32DE    TCT2043        202203247116-1685-02             TERMINAL                 CCN000696000000696000FN00000000020220401000696000NNM   20220201080836    4P0P  00002400000000897600001065232DE    TVYEV-TV005100280028
BI00B32DE    TCT2044        202203317116-1685-02             TERMINAL                 CCN000240000000240000FN00000000020220401000240000NNM   20220201080836    4P0P  00002400000000897600001065232DE    TVYEV-TV005100280028
BI00B32DE    TCT2042        202203177116-1686-02             TERMINAL                 CCN000105000000105000FN00000000020220401000105000NNM   20220201080836    4P0P  00002100000000869400001021632DE    TVYEV-TV005100280028
BI00B32DE    TCT2043        202203247116-1686-02             TERMINAL                 CCN000084000000084000FN00000000020220401000084000NNM   20220201080836    4P0P  00002100000000869400001021632DE    TVYEV-TV005100280028
BI00B32DE    TCT2044        202203317116-1686-02             TERMINAL                 CCN000021000000021000FN00000000020220401000021000NNM   20220201080836    4P0P  00002100000000869400001021632DE    TVYEV-TV005100280028
BI00B32DE    TCT2042        202203177116-1688-02             TERMINAL FEMALE          CCN000021000000021000FN00000000020220401000021000NNM   20220201080836    4P0P  00002100000000299600000898832DE    TVYEV-TV005100280028
BI00B32DE    TCT2043        202203247116-1688-02             TERMINAL FEMALE          CCN000021000000021000FN00000000020220401000021000NNM   20220201080836    4P0P  00002100000000299600000898832DE    TVYEV-TV005100280028
BI00B32DE    TCT2042        202203177116-2640                TERMINAL                 CCN000036000000036000FN00000000020220401000036000NNM   20220201080836    4P0P  00001800000001018800001196632DE    TVYEV-TV005100280028
BI00B32DE    TCT2043        202203247116-2640                TERMINAL                 CCN000036000000036000FN00000000020220401000036000NNM   20220201080836    4P0P  00001800000001018800001196632DE    TVYEV-TV005100280028
BI00B32DE    TCT2042        202203177116-2641                TERMINAL                 CCN000018000000018000FN00000000020220401000018000NNM   20220201080836    4P0P  00001800000001161000001344632DE    TVYEV-TV005100280028
BI00B32DE    TCT2043        202203247116-2641                TERMINAL                 CCN000054000000054000FN00000000020220401000054000NNM   20220201080836    4P0P  00001800000001161000001344632DE    TVYEV-TV005100280028
BI00B32DE    TCT2044        202203317116-2641                TERMINAL                 CCN000018000000018000FN00000000020220401000018000NNM   20220201080836    4P0P  00001800000001161000001344632DE    TVYEV-TV005100280028
BI00B32DE    TCT2042        202203177116-2891-02             TERMINAL                 CCN000240000000240000FN00000000020220401000240000NNM   20220201080836    4P0P  00001500000000982500001145932DE    TVYEV-TV005100280028
BI00B32DE    TCT2043        202203247116-2891-02             TERMINAL                 CCN000240000000240000FN00000000020220401000240000NNM   20220201080836    4P0P  00001500000000982500001145932DE    TVYEV-TV005100280028
BI00B32DE    TCT2044        202203317116-2891-02             TERMINAL                 CCN000090000000090000FN00000000020220401000090000NNM   20220201080836    4P0P  00001500000000982500001145932DE    TVYEV-TV005100280028
BI00B32DE    TCT2042        202203177116-2892-02             TERMINAL                 CCN000216000000216000FN00000000020220401000216000NNM   20220201080836    4P0P  00001200000000818400000981832DE    TVYEV-TV005100280028
BI00B32DE    TCT2043        202203247116-2892-02             TERMINAL                 CCN000228000000228000FN00000000020220401000228000NNM   20220201080836    4P0P  00001200000000818400000981832DE    TVYEV-TV005100280028
BI00B32DE    TCT2044        202203317116-2892-02             TERMINAL                 CCN000084000000084000FN00000000020220401000084000NNM   20220201080836    4P0P  00001200000000818400000981832DE    TVYEV-TV005100280028
BI00B32DE    TCT2042        202203177116-2893-02             TERMINAL                 CCN000408000000408000FN00000000020220401000408000NNM   20220201080836    4P0P  00001200000000895200001058632DE    TVYEV-TV005100280028
BI00B32DE    TCT2043        202203247116-2893-02             TERMINAL                 CCN000384000000384000FN00000000020220401000384000NNM   20220201080836    4P0P  00001200000000895200001058632DE    TVYEV-TV005100280028
BI00B32DE    TCT2044        202203317116-2893-02             TERMINAL                 CCN000132000000132000FN00000000020220401000132000NNM   20220201080836    4P0P  00001200000000895200001058632DE    TVYEV-TV005100280028
BI00B32DE    TCT2044        202203317116-3153-08             TERMINAL                 CCN000027000000027000FN00000000020220401000027000NNM   20220201080836    4P0P  00002700000000461700000746932DE    TVYEV-TV006400630015
BI00B32DE    TCT2042        202203177116-4025                TERMINAL                 CCN000080000000080000FN00000000020220401000080000NNM   20220201080836    4P0P  00001600000000644800000975132DE    TVYEV-TV006400630017
BI00B32DE    TCT2043        202203247116-4025                TERMINAL                 CCN000176000000176000FN00000000020220401000176000NNM   20220201080836    4P0P  00001600000000644800000975132DE    TVYEV-TV006400630017
BI00B32DE    TCT2044        202203317116-4025                TERMINAL                 CCN000064000000064000FN00000000020220401000064000NNM   20220201080836    4P0P  00001600000000644800000975132DE    TVYEV-TV006400630017
BI00B32DE    TCT2042        202203177116-4026                TERMINAL                 CCN000160000000160000FN00000000020220401000160000NNM   20220201080836    4P0P  00001600000000664000000994332DE    TVYEV-TV006400630017
BI00B32DE    TCT2043        202203247116-4026                TERMINAL                 CCN000128000000128000FN00000000020220401000128000NNM   20220201080836    4P0P  00001600000000664000000994332DE    TVYEV-TV006400630017
BI00B32DE    TCT2044        202203317116-4026                TERMINAL                 CCN000048000000048000FN00000000020220401000048000NNM   20220201080836    4P0P  00001600000000664000000994332DE    TVYEV-TV006400630017
BI00B32DE    TCT2041        202203107116-4028-08             TERMINAL FEMALE          CCN000128000000128000FN00000000020220401000128000NNM   20220201080836    4P0P  00001600000000652800000981532DE    TVYEV-TV006400630017
BI00B32DE    TCT2042        202203177116-4028-08             TERMINAL FEMALE          CCN000160000000160000FN00000000020220401000160000NNM   20220201080836    4P0P  00001600000000652800000981532DE    TVYEV-TV006400630017
BI00B32DE    TCT2043        202203247116-4028-08             TERMINAL FEMALE          CCN000144000000144000FN00000000020220401000144000NNM   20220201080836    4P0P  00001600000000652800000981532DE    TVYEV-TV006400630017
BI00B32DE    TCT2044        202203317116-4028-08             TERMINAL FEMALE          CCN000048000000048000FN00000000020220401000048000NNM   20220201080836    4P0P  00001600000000652800000981532DE    TVYEV-TV006400630017
BI00B32DE    TCT2043        202203247116-4031                TERMINAL                 CCN000007500000007500FN00000000020220401000007500NNM   20220201080836    4P0P  00000750000000619500000904732DE    TVYEV-TV006400630015
BI00B32DE    TCT2042        202203177116-4032                TERMINAL                 CCN000030000000030000FN00000000020220401000030000NNM   20220201080836    4P0P  00000600000000532800000818032DE    TVYEV-TV006400630015
BI00B32DE    TCT2043        202203247116-4032                TERMINAL                 CCN000048000000048000FN00000000020220401000048000NNM   20220201080836    4P0P  00000600000000532800000818032DE    TVYEV-TV006400630015
BI00B32DE    TCT2044        202203317116-4032                TERMINAL                 CCN000018000000018000FN00000000020220401000018000NNM   20220201080836    4P0P  00000600000000532800000818032DE    TVYEV-TV006400630015
BI00B32DE    TCT2042        202203177116-4037                TERMINAL                 CCN000024000000024000FN00000000020220401000024000NNM   20220201080836    4P0P  00000600000000600000000894232DE    TVYEV-TV006400630015
BI00B32DE    TCT2043        202203247116-4037                TERMINAL                 CCN000042000000042000FN00000000020220401000042000NNM   20220201080836    4P0P  00000600000000600000000894232DE    TVYEV-TV006400630015
BI00B32DE    TCT2044        202203317116-4037                TERMINAL                 CCN000018000000018000FN00000000020220401000018000NNM   20220201080836    4P0P  00000600000000600000000894232DE    TVYEV-TV006400630015
BI00B32DE    TCT2042        202203177116-4102-02             TERMINAL                 CCN000012000000012000FN00000000020220401000012000NNM   20220201080836    4P0P  00001200000000553200000841432DE    TVYEV-TV006400630015
BI00B32DE    TCT2043        202203247116-4102-02             TERMINAL                 CCN000012000000012000FN00000000020220401000012000NNM   20220201080836    4P0P  00001200000000553200000841432DE    TVYEV-TV006400630015
BI00B32DE    TCT2042        202203177116-4114-02             TERMINAL                 CCN000010500000010500FN00000000020220401000010500NNM   20220201080836    4P0P  00001050000000693000000981232DE    TVYEV-TV006400630015
BI00B32DE    TCT2043        202203247116-4114-02             TERMINAL                 CCN000021000000021000FN00000000020220401000021000NNM   20220201080836    4P0P  00001050000000693000000981232DE    TVYEV-TV006400630015
BI00B32DE    TCT2043        202203247116-4115-02             TERMINAL                 CCN000008400000008400FN00000000020220401000008400NNM   20220201080836    4P0P  00000840000000593000000881232DE    TVYEV-TV006400630015
BI00B32DE    TCT2041        202203107116-4116-02             TERMINAL                 CCN000020700000020700FN00000000020220401000020700NNM   20220201080836    4P0P  00000690000000517500000805732DE    TVYEV-TV006400630015
BI00B32DE    TCT2042        202203177116-4116-02             TERMINAL                 CCN000020700000020700FN00000000020220401000020700NNM   20220201080836    4P0P  00000690000000517500000805732DE    TVYEV-TV006400630015
BI00B32DE    TCT2043        202203247116-4116-02             TERMINAL                 CCN000020700000020700FN00000000020220401000020700NNM   20220201080836    4P0P  00000690000000517500000805732DE    TVYEV-TV006400630015
BI00B32DE    TCT2044        202203317116-4116-02             TERMINAL                 CCN000006900000006900FN00000000020220401000006900NNM   20220201080836    4P0P  00000690000000517500000805732DE    TVYEV-TV006400630015
BI00B32DE    TCT2041        202203107116-4231-02             TERMINAL                 CCN000130000000130000FN00000000020220401000130000NNM   20220201080836    4P0P  00002600000000683800001012532DE    TVYEV-TV006400630017
BI00B32DE    TCT2042        202203177116-4231-02             TERMINAL                 CCN000260000000260000FN00000000020220401000260000NNM   20220201080836    4P0P  00002600000000683800001012532DE    TVYEV-TV006400630017
BI00B32DE    TCT2043        202203247116-4231-02             TERMINAL                 CCN000208000000208000FN00000000020220401000208000NNM   20220201080836    4P0P  00002600000000683800001012532DE    TVYEV-TV006400630017
BI00B32DE    TCT2044        202203317116-4231-02             TERMINAL                 CCN000104000000104000FN00000000020220401000104000NNM   20220201080836    4P0P  00002600000000683800001012532DE    TVYEV-TV006400630017
BI00B32DE    TCT2041        202203107116-4415-02             TERMINAL                 CCN000038000000038000FN00000000020220401000038000NNM   20220201080836    4P0P  00003800000000596600000925732DE    TVYEV-TV006400630017
BI00B32DE    TCT2042        202203177116-4415-02             TERMINAL                 CCN000152000000152000FN00000000020220401000152000NNM   20220201080836    4P0P  00003800000000596600000925732DE    TVYEV-TV006400630017
BI00B32DE    TCT2043        202203247116-4415-02             TERMINAL                 CCN000152000000152000FN00000000020220401000152000NNM   20220201080836    4P0P  00003800000000596600000925732DE    TVYEV-TV006400630017
BI00B32DE    TCT2044        202203317116-4415-02             TERMINAL                 CCN000038000000038000FN00000000020220401000038000NNM   20220201080836    4P0P  00003800000000596600000925732DE    TVYEV-TV006400630017
BI00B32DE    TCT2042        202203177116-4416-02             TERMINAL                 CCN000032000000032000FN00000000020220401000032000NNM   20220201080836    4P0P  00003200000000518400000847132DE    TVYEV-TV006400630017
BI00B32DE    TCT2043        202203247116-4416-02             TERMINAL                 CCN000064000000064000FN00000000020220401000064000NNM   20220201080836    4P0P  00003200000000518400000847132DE    TVYEV-TV006400630017
BI00B32DE    TCT2044        202203317116-4416-02             TERMINAL                 CCN000032000000032000FN00000000020220401000032000NNM   20220201080836    4P0P  00003200000000518400000847132DE    TVYEV-TV006400630017
BI00B32DE    TCT2043        202203247116-4486-02             TERMINAL                 CCN000084000000084000FN00000000020220401000084000NNM   20220201080836    4P0P  00002800000000666400000995132DE    TVYEV-TV006400630017
BI00B32DE    TCT2044        202203317116-4486-02             TERMINAL                 CCN000028000000028000FN00000000020220401000028000NNM   20220201080836    4P0P  00002800000000666400000995132DE    TVYEV-TV006400630017
BI00B32DE    TCT2042        202203177116-5035-02             TERMINAL                 CCN000075000000075000FN00000000020220401000075000NNM   20220201080836    4P0P  00001500000000543000000828232DE    TVYEV-TV006400630015
BI00B32DE    TCT2043        202203247116-5035-02             TERMINAL                 CCN000105000000105000FN00000000020220401000105000NNM   20220201080836    4P0P  00001500000000543000000828232DE    TVYEV-TV006400630015
BI00B32DE    TCT2044        202203317116-5035-02             TERMINAL                 CCN000045000000045000FN00000000020220401000045000NNM   20220201080836    4P0P  00001500000000543000000828232DE    TVYEV-TV006400630015
BI00B32DE    TCT2042        202203177116-5041-02             TERMINAL                 CCN000195000000195000FN00000000020220401000195000NNM   20220201080836    4P0P  00001500000000583500000868732DE    TVYEV-TV006400630015
BI00B32DE    TCT2043        202203247116-5041-02             TERMINAL                 CCN000255000000255000FN00000000020220401000255000NNM   20220201080836    4P0P  00001500000000583500000868732DE    TVYEV-TV006400630015
BI00B32DE    TCT2044        202203317116-5041-02             TERMINAL                 CCN000090000000090000FN00000000020220401000090000NNM   20220201080836    4P0P  00001500000000583500000868732DE    TVYEV-TV006400630015
BI00B32DE    TCT2042        202203177116-5042-02             TERMINAL                 CCN000054000000054000FN00000000020220401000054000NNM   20220201080836    4P0P  00001350000000560300000845532DE    TVYEV-TV006400630015
BI00B32DE    TCT2043        202203247116-5042-02             TERMINAL                 CCN000108000000108000FN00000000020220401000108000NNM   20220201080836    4P0P  00001350000000560300000845532DE    TVYEV-TV006400630015
BI00B32DE    TCT2044        202203317116-5042-02             TERMINAL                 CCN000040500000040500FN00000000020220401000040500NNM   20220201080836    4P0P  00001350000000560300000845532DE    TVYEV-TV006400630015
BI00B32DE    TCT2042        202203177116-5043-02             TERMINAL FEMALE          CCN000012000000012000FN00000000020220401000012000NNM   20220201080836    4P0P  00001200000000559200000844432DE    TVYEV-TV006400630015
BI00B32DE    TCT2043        202203247116-5043-02             TERMINAL FEMALE          CCN000108000000108000FN00000000020220401000108000NNM   20220201080836    4P0P  00001200000000559200000844432DE    TVYEV-TV006400630015
BI00B32DE    TCT2044        202203317116-5043-02             TERMINAL FEMALE          CCN000036000000036000FN00000000020220401000036000NNM   20220201080836    4P0P  00001200000000559200000844432DE    TVYEV-TV006400630015
BI00B32DE    TCT2043        202203247116-5044-02             TERMINAL                 CCN000192000000192000FN00000000020220401000192000NNM   20220201080836    4P0P  00001600000000641600000986332DE    TVYEV-TV006400630017
BI00B32DE    TCT2044        202203317116-5044-02             TERMINAL                 CCN000096000000096000FN00000000020220401000096000NNM   20220201080836    4P0P  00001600000000641600000986332DE    TVYEV-TV006400630017
BI00B32DE    TCT2043        202203247116-5045-02             TERMINAL                 CCN000128000000128000FN00000000020220401000128000NNM   20220201080836    4P0P  00001600000000678400001007132DE    TVYEV-TV006400630017
BI00B32DE    TCT2044        202203317116-5045-02             TERMINAL                 CCN000048000000048000FN00000000020220401000048000NNM   20220201080836    4P0P  00001600000000678400001007132DE    TVYEV-TV006400630017
BI00B32DE    TCT2042        202203177116-5046-02             TERMINAL                 CCN000012000000012000FN00000000020220401000012000NNM   20220201080836    4P0P  00001200000000544800000873532DE    TVYEV-TV006400630017
BI00B32DE    TCT2043        202203247116-5046-02             TERMINAL                 CCN000024000000024000FN00000000020220401000024000NNM   20220201080836    4P0P  00001200000000544800000873532DE    TVYEV-TV006400630017
BI00B32DE    TCT2044        202203317116-5046-02             TERMINAL                 CCN000012000000012000FN00000000020220401000012000NNM   20220201080836    4P0P  00001200000000544800000873532DE    TVYEV-TV006400630017
BI00B32DE    TCT2042        202203177116-5750-02             TERMINAL                 CCN000015000000015000FN00000000020220401000015000NNM   20220201080836    4P0P  00001500000000457500000742732DE    TVYEV-TV006400630015
BI00B32DE    TCT2043        202203247116-5750-02             TERMINAL                 CCN000045000000045000FN00000000020220401000045000NNM   20220201080836    4P0P  00001500000000457500000742732DE    TVYEV-TV006400630015
BI00B32DE    TCT2044        202203317116-5750-02             TERMINAL                 CCN000030000000030000FN00000000020220401000030000NNM   20220201080836    4P0P  00001500000000457500000742732DE    TVYEV-TV006400630015
BI00B32DE    TCT2043        202203247116-5752-02             TERMINAL                 CCN000021000000021000FN00000000020220401000021000NNM   20220201080836    4P0P  00002100000000571200000856432DE    TVYEV-TV006400630015
BI00B32DE    TCT2044        202203317116-5752-02             TERMINAL                 CCN000021000000021000FN00000000020220401000021000NNM   20220201080836    4P0P  00002100000000571200000856432DE    TVYEV-TV006400630015
BI00B32DE    TCT2043        202203247116-6041                TERMINAL                 CCN000004500000004500FN00000000020220401000004500NNM   20220201080836    4P0P  00000450000000716000001009632DE    TVYEV-TV006400630015
BI00B32DE    TCT2044        202203317116-6041                TERMINAL                 CCN000004500000004500FN00000000020220401000004500NNM   20220201080836    4P0P  00000450000000716000001009632DE    TVYEV-TV006400630015
BI00B32DE    TCT2043        202203247116-6042                TERMINAL                 CCN000018000000018000FN00000000020220401000018000NNM   20220201080836    4P0P  00000300000000523800000856132DE    TVYEV-TV006400630015
BI00B32DE    TCT2044        202203317116-6042                TERMINAL                 CCN000006000000006000FN00000000020220401000006000NNM   20220201080836    4P0P  00000300000000523800000856132DE    TVYEV-TV006400630015
BI00B32DE    TCT2042        202203177126-8853-02             TERMINAL                 CCN000240000000240000FN00000000020220401000240000NNM   20220201080836    4P0P  00000750000000562500000847732DE    TVYEV-TV006400630015
BI00B32DE    TCT2043        202203247126-8853-02             TERMINAL                 CCN000232500000232500FN00000000020220401000232500NNM   20220201080836    4P0P  00000750000000562500000847732DE    TVYEV-TV006400630015
BI00B32DE    TCT2044        202203317126-8853-02             TERMINAL                 CCN000075000000075000FN00000000020220401000075000NNM   20220201080836    4P0P  00000750000000562500000847732DE    TVYEV-TV006400630015
BI00B32DE    TCT2041        202203107126-8854-02             TERMINAL                 CCN000030000000030000FN00000000020220401000030000NNM   20220201080836    4P0P  00000750000000604500000889732DE    TVYEV-TV006400630015
BI00B32DE    TCT2042        202203177126-8854-02             TERMINAL                 CCN000345000000345000FN00000000020220401000345000NNM   20220201080836    4P0P  00000750000000604500000889732DE    TVYEV-TV006400630015
BI00B32DE    TCT2043        202203247126-8854-02             TERMINAL                 CCN000285000000285000FN00000000020220401000285000NNM   20220201080836    4P0P  00000750000000604500000889732DE    TVYEV-TV006400630015
BI00B32DE    TCT2044        202203317126-8854-02             TERMINAL                 CCN000097500000097500FN00000000020220401000097500NNM   20220201080836    4P0P  00000750000000604500000889732DE    TVYEV-TV006400630015
BI00B32DE    TCT2041        202203107126-8855-02             TERMINAL                 CCN000018000000018000FN00000000020220401000018000NNM   20220201080836    4P0P  00000600000000510600000795832DE    TVYEV-TV006400630015
BI00B32DE    TCT2042        202203177126-8855-02             TERMINAL                 CCN000354000000354000FN00000000020220401000354000NNM   20220201080836    4P0P  00000600000000510600000795832DE    TVYEV-TV006400630015
BI00B32DE    TCT2043        202203247126-8855-02             TERMINAL                 CCN000294000000294000FN00000000020220401000294000NNM   20220201080836    4P0P  00000600000000510600000795832DE    TVYEV-TV006400630015
BI00B32DE    TCT2044        202203317126-8855-02             TERMINAL                 CCN000102000000102000FN00000000020220401000102000NNM   20220201080836    4P0P  00000600000000510600000795832DE    TVYEV-TV006400630015
BI00B32DE    TCT2042        202203177158-3006-90             RUBBER STOPPER           CCN000280000000280000FN00000000020220401000280000NNM   20220201080836    1C0C  00002000000000330600000386032DE    TVYEV-TV002700430014
BI00B32DE    TCT2043        202203247158-3006-90             RUBBER STOPPER           CCN000400000000400000FN00000000020220401000400000NNM   20220201080836    1C0C  00002000000000330600000386032DE    TVYEV-TV002700430014
BI00B32DE    TCT2044        202203317158-3006-90             RUBBER STOPPER           CCN000200000000200000FN00000000020220401000200000NNM   20220201080836    1C0C  00002000000000330600000386032DE    TVYEV-TV002700430014
BI00B32DE    TCT2044        202203317158-3022-80             RUBBER STOPPER           CCN000005000000005000FN00000000020220401000005000NNM   20220201080836    1C0C  00000500000000467500000524032DE    TVYEV-TV002700430014
BI00B32DE    TCT2042        202203177158-3070-80             RUBBER STOPPER           CCN000040000000040000FN00000000020220401000040000NNM   20220201080836    1C0C  00004000000000276000000333332DE    TVYEV-TV002700430014
BI00B32DE    TCT2043        202203247158-3070-80             RUBBER STOPPER           CCN000080000000080000FN00000000020220401000080000NNM   20220201080836    1C0C  00004000000000276000000333332DE    TVYEV-TV002700430014
BI00B32DE    TCT2041        202203107158-3165-90             WIRE SEAL                CCN000040000000040000FN00000000020220401000040000NNM   20220201080836    1C0C  00004000000000124000000172432DE    TVYEV-TV004300270014
BI00B32DE    TCT2042        202203177158-3165-90             WIRE SEAL                CCN000080000000080000FN00000000020220401000080000NNM   20220201080836    1C0C  00004000000000124000000172432DE    TVYEV-TV004300270014
BI00B32DE    TCT2043        202203247158-3165-90             WIRE SEAL                CCN000080000000080000FN00000000020220401000080000NNM   20220201080836    1C0C  00004000000000124000000172432DE    TVYEV-TV004300270014
BI00B32DE    TCT2044        202203317158-3165-90             WIRE SEAL                CCN000040000000040000FN00000000020220401000040000NNM   20220201080836    1C0C  00004000000000124000000172432DE    TVYEV-TV004300270014
BI00B32DE    TCT2041        202203107158-3166-60             WIRE SEAL                CCN000040000000040000FN00000000020220401000040000NNM   20220201080836    1C0C  00004000000000104000000152432DE    TVYEV-TV002700430014
BI00B32DE    TCT2042        202203177158-3166-60             WIRE SEAL                CCN000080000000080000FN00000000020220401000080000NNM   20220201080836    1C0C  00004000000000104000000152432DE    TVYEV-TV002700430014
BI00B32DE    TCT2043        202203247158-3166-60             WIRE SEAL                CCN000080000000080000FN00000000020220401000080000NNM   20220201080836    1C0C  00004000000000104000000152432DE    TVYEV-TV002700430014
BI00B32DE    TCT2042        202203177158-3167-80             WIRE SEAL                CCN000040000000040000FN00000000020220401000040000NNM   20220201080836    1C0C  00002000000000048000000109032DE    TVYEV-TV002700430014
BI00B32DE    TCT2043        202203247158-3167-80             WIRE SEAL                CCN000060000000060000FN00000000020220401000060000NNM   20220201080836    1C0C  00002000000000048000000109032DE    TVYEV-TV002700430014
BI00B32DE    TCT2044        202203317158-3167-80             WIRE SEAL                CCN000020000000020000FN00000000020220401000020000NNM   20220201080836    1C0C  00002000000000048000000109032DE    TVYEV-TV002700430014
BI00B32DE    TCT2043        202203247195-1479-02             TERMINAL MALE            CCN000048000000048000FN00000000020220401000048000NNM   20220201080836    4P0P  00002400000000420000000714232DE    TVYEV-TV006400630015
BI00B32DE    TCT2044        202203317195-1479-02             TERMINAL MALE            CCN000024000000024000FN00000000020220401000024000NNM   20220201080836    4P0P  00002400000000420000000714232DE    TVYEV-TV006400630015
BI00B32DE    TCT2042        202203177196-0510-02             TERMINAL                 CCN000048000000048000FN00000000020220401000048000NNM   20220201080836    4P0P  00002400000000871200001034632DE    TVYEV-TV002800510028
BI00B32DE    TCT2044        202203317196-0510-02             TERMINAL                 CCN000048000000048000FN00000000020220401000048000NNM   20220201080836    4P0P  00002400000000871200001034632DE    TVYEV-TV002800510028
BI00B32DE    TCT2044        202203317196-0511-02             TERMINAL                 CCN000024000000024000FN00000000020220401000024000NNM   20220201080836    4P0P  00002400000000916800001080232DE    TVYEV-TV002800510028
BI00B32DE    TCT2043        202203247196-0550-02             TERMINAL ALUMINIUM       CCN000032000000032000FN00000000020220401000032000NNM   20220201080836    4P0P  00003200000000515200000901632DE    TVYEV-TV006400630017
BI00B32DE    TCT2043        202203247196-1481-02             TERMINAL FEMALE          CCN000192000000192000FN00000000020220401000192000NNM   20220201080836    4P0P  00002400000000422400000707632DE    TVYEV-TV006400630015
BI00B32DE    TCT2044        202203317196-1481-02             TERMINAL FEMALE          CCN000072000000072000FN00000000020220401000072000NNM   20220201080836    4P0P  00002400000000422400000707632DE    TVYEV-TV006400630015
BI00B32DE    TCT2043        202203247196-1934-02             TERMINAL FEMALE          CCN000039000000039000FN00000000020220401000039000NNM   20220201080836    4P0P  00001950000000561600000846832DE    TVYEV-TV006400630015
BI00B32DE    TCT2044        202203317196-1934-02             TERMINAL FEMALE          CCN000019500000019500FN00000000020220401000019500NNM   20220201080836    4P0P  00001950000000561600000846832DE    TVYEV-TV006400630015
BI00B32DE    TCT2043        202203247196-1936-02             TERMINAL FEMALE          CCN000054000000054000FN00000000020220401000054000NNM   20220201080836    4P0P  00001350000000441500000726732DE    TVYEV-TV006400630015
BI00B32DE    TCT2044        202203317196-1936-02             TERMINAL FEMALE          CCN000027000000027000FN00000000020220401000027000NNM   20220201080836    4P0P  00001350000000441500000726732DE    TVYEV-TV006400630015
BI00B32DE    TCT2043        202203247282-4576                HOUSING MALE ASS'Y       CCN000002400000002400FN00000000020220401000002400NNM   20220201080836    4N0N  00000240000000808800001028832DE    TVYEV-TV005500360039
BI00B32DE    TCT2043        202203247282-4577                HOUSING MALE ASS'Y       CCN000004800000004800FN00000000020220401000004800NNM   20220201080836    4N0N  00000240000000964800001174832DE    TVYEV-TV005500360039
BI00B32DE    TCT2044        202203317282-4577                HOUSING MALE ASS'Y       CCN000002400000002400FN00000000020220401000002400NNM   20220201080836    4N0N  00000240000000964800001174832DE    TVYEV-TV005500360039
BI00B32DE    TCT2043        202203247283-1020-30             CONNECTOR                CCN000006000000006000FN00000000020220401000006000NNM   20220201080836    4N0N  00000600000000840000001064032DE    TVYEV-TV005600390040
BI00B32DE    TCT2042        202203177283-1057-30             CONNECTOR HOUSING        CCN000000960000000960FN00000000020220401000000960NNM   20220201080836    4N0N  00000096000000925400001075432DE    TVYEV-TV005500360039
BI00B32DE    TCT2042        202203177283-1222-40             CONNECTOR HOUSING        CCN000002400000002400FN00000000020220401000002400NNM   20220201080836    4N0N  00000120000000858000001032732DE    TVYEV-TV005500360039
BI00B32DE    TCT2043        202203247283-1222-40             CONNECTOR HOUSING        CCN000002400000002400FN00000000020220401000002400NNM   20220201080836    4N0N  00000120000000858000001032732DE    TVYEV-TV005500360039
BI00B32DE    TCT2044        202203317283-1222-40             CONNECTOR HOUSING        CCN000001200000001200FN00000000020220401000001200NNM   20220201080836    4N0N  00000120000000858000001032732DE    TVYEV-TV005500360039
BI00B32DE    TCT2043        202203247283-1288-10             CONNECTOR HOUSING        CCN000016800000016800FN00000000020220401000016800NNM   20220201080836    4N0N  00000120000001381000001637032DE    TVYEV-TV005600390040
BI00B32DE    TCT2044        202203317283-1288-10             CONNECTOR HOUSING        CCN000007200000007200FN00000000020220401000007200NNM   20220201080836    4N0N  00000120000001381000001637032DE    TVYEV-TV005600390040
BI00B32DE    TCT2042        202203177283-1288-40             CONNECTOR HOUSING        CCN000002400000002400FN00000000020220401000002400NNM   20220201080836    4N0N  00000120000001382000001640732DE    TVYEV-TV005600390040
BI00B32DE    TCT2043        202203247283-1288-40             CONNECTOR HOUSING        CCN000002400000002400FN00000000020220401000002400NNM   20220201080836    4N0N  00000120000001382000001640732DE    TVYEV-TV005600390040
BI00B32DE    TCT2044        202203317283-1288-40             CONNECTOR HOUSING        CCN000001200000001200FN00000000020220401000001200NNM   20220201080836    4N0N  00000120000001382000001640732DE    TVYEV-TV005600390040
BI00B32DE    TCT2043        202203247283-1289-30             CONNECTOR HOUSING        CCN000000600000000600FN00000000020220401000000600NNM   20220201080836    1N0N  00000060000000675600000820632DE    TVYEV-TV005400370024
BI00B32DE    TCT2044        202203317283-1289-30             CONNECTOR HOUSING        CCN000000600000000600FN00000000020220401000000600NNM   20220201080836    1N0N  00000060000000675600000820632DE    TVYEV-TV005400370024
BI00B32DE    TCT2043        202203247283-1289-40             CONNECTOR HOUSING        CCN000002400000002400FN00000000020220401000002400NNM   20220201080836    1N0N  00000060000000679800000824832DE    TVYEV-TV005400370024
BI00B32DE    TCT2044        202203317283-1289-40             CONNECTOR HOUSING        CCN000001800000001800FN00000000020220401000001800NNM   20220201080836    1N0N  00000060000000679800000824832DE    TVYEV-TV005400370024
BI00B32DE    TCT2044        202203317283-3013-30             CONNECTOR                CCN000002000000002000FN00000000020220401000002000NNM   20220201080836    4N0N  00000200000001138000001284032DE    TVYEV-TV005600390040
BI00B32DE    TCT2043        202203247283-4576                HOUSING FEMALE ASS'Y     CCN000004800000004800FN00000000020220401000004800NNM   20220201080836    4N0N  00000480000000651300000871332DE    TVYEV-TV005500360039
BI00B32DE    TCT2044        202203317283-4576                HOUSING FEMALE ASS'Y     CCN000004800000004800FN00000000020220401000004800NNM   20220201080836    4N0N  00000480000000651300000871332DE    TVYEV-TV005500360039
BI00B32DE    TCT2042        202203177283-4576-30             HOUSING FEMALE ASS'Y     CCN000004800000004800FN00000000020220401000004800NNM   20220201080836    4N0N  00000480000000651300000871332DE    TVYEV-TV005500360039
BI00B32DE    TCT2043        202203247283-4576-30             HOUSING FEMALE ASS'Y     CCN000004800000004800FN00000000020220401000004800NNM   20220201080836    4N0N  00000480000000651300000871332DE    TVYEV-TV005500360039
BI00B32DE    TCT2044        202203317283-4576-30             HOUSING FEMALE ASS'Y     CCN000004800000004800FN00000000020220401000004800NNM   20220201080836    4N0N  00000480000000651300000871332DE    TVYEV-TV005500360039
BI00B32DE    TCT2043        202203247283-4576-40             HOUSING FEMALE ASS'Y     CCN000004800000004800FN00000000020220401000004800NNM   20220201080836    4N0N  00000480000000651300000871332DE    TVYEV-TV005500360039
BI00B32DE    TCT2042        202203177283-4576-90             HOUSING FEMALE ASS'Y     CCN000004800000004800FN00000000020220401000004800NNM   20220201080836    4N0N  00000480000000651300000871332DE    TVYEV-TV005500360039
BI00B32DE    TCT2043        202203247283-4577-30             CONNECTOR HOUSING        CCN000009600000009600FN00000000020220401000009600NNM   20220201080836    4N0N  00000480000000916800001136832DE    TVYEV-TV005500360039
BI00B32DE    TCT2043        202203247283-4577-40             CONNECTOR HOUSING        CCN000004800000004800FN00000000020220401000004800NNM   20220201080836    4N0N  00000480000000916800001136832DE    TVYEV-TV005500360039
BI00B32DE    TCT2042        202203177283-4855-40             CONNECTOR HOUSING        CCN000004800000004800FN00000000020220401000004800NNM   20220201080836    4N0N  00000240000001188400001400032DE    TVYEV-TV005600360039
BI00B32DE    TCT2043        202203247283-4855-40             CONNECTOR HOUSING        CCN000002400000002400FN00000000020220401000002400NNM   20220201080836    4N0N  00000240000001188400001400032DE    TVYEV-TV005600360039
BI00B32DE    TCT2044        202203317283-4855-40             CONNECTOR HOUSING        CCN000002400000002400FN00000000020220401000002400NNM   20220201080836    4N0N  00000240000001188400001400032DE    TVYEV-TV005600360039
BI00B32DE    TCT2042        202203177283-5830                CONNECTOR                CCN000006000000006000FN00000000020220401000006000NNM   20220201080836    1N47  00000600000000954000001104032DE    TVYEV-TV005500360039
BI00B32DE    TCT2043        202203247283-6120                CONNECTOR HOUSING        CCN000003000000003000FN00000000020220401000003000NNM   20220201080836    1N0N  00000150000000914000001143032DE    TVYEV-TV005600390040
BI00B32DE    TCT2044        202203317283-6120                CONNECTOR HOUSING        CCN000001500000001500FN00000000020220401000001500NNM   20220201080836    1N0N  00000150000000914000001143032DE    TVYEV-TV005600390040
BI00B32DE    TCT2043        202203247283-7449-30             HOUSING FEMALE ASS'Y     CCN000004800000004800FN00000000020220401000004800NNM   20220201080836    4N0N  00000240000001200000001410032DE    TVYEV-TV005500360039
BI00B32DE    TCT2044        202203317283-7449-30             HOUSING FEMALE ASS'Y     CCN000002400000002400FN00000000020220401000002400NNM   20220201080836    4N0N  00000240000001200000001410032DE    TVYEV-TV005500360039
BI00B32DE    TCT2043        202203247283-7449-40             HOUSING FEMALE ASS'Y     CCN000002400000002400FN00000000020220401000002400NNM   20220201080836    4N0N  00000240000001200000001410032DE    TVYEV-TV005500360039
BI00B32DE    TCT2044        202203317283-7449-40             HOUSING FEMALE ASS'Y     CCN000002400000002400FN00000000020220401000002400NNM   20220201080836    4N0N  00000240000001200000001410032DE    TVYEV-TV005500360039
BI00B32DE    TCT2044        202203317283-7526-30             CONNECTOR HOUSING        CCN000001960000001960FN00000000020220401000001960NNM   20220201080836    4N0N  00000196000000989800001248632DE    TVYEV-TV005500360039
BI00B32DE    TCT2042        202203177283-7526-40             CONNECTOR HOUSING        CCN000001960000001960FN00000000020220401000001960NNM   20220201080836    4N0N  00000196000000989800001248632DE    TVYEV-TV005500360039
BI00B32DE    TCT2043        202203247283-7526-40             CONNECTOR HOUSING        CCN000001960000001960FN00000000020220401000001960NNM   20220201080836    4N0N  00000196000000989800001248632DE    TVYEV-TV005500360039
BI00B32DE    TCT2043        202203247283-8228-40             CONNECTOR                CCN000003000000003000FN00000000020220401000003000NNM   20220201080836    4N0N  00000300000001215000001361032DE    TVYEV-TV005600390040
BI00B32DE    TCT2043        202203247287-1915                CONNECTOR ASS'Y          CCN000002400000002400FN00000000020220401000002400NNM   20220201080836    4N0N  00000240000000666500000923132DE    TVYEV-TV005500360039
BI00B32DE    TCT2044        202203317287-1915                CONNECTOR ASS'Y          CCN000002400000002400FN00000000020220401000002400NNM   20220201080836    4N0N  00000240000000666500000923132DE    TVYEV-TV005500360039
BI00B32DE    TCT2043        202203247287-1915-40             CONNECTOR ASS'Y          CCN000002400000002400FN00000000020220401000002400NNM   20220201080836    4N0N  00000240000000666500000923132DE    TVYEV-TV005500360039
BI00B32DE    TCT2044        202203317287-1915-40             CONNECTOR ASS'Y          CCN000002400000002400FN00000000020220401000002400NNM   20220201080836    4N0N  00000240000000666500000923132DE    TVYEV-TV005500360039
BI00B32DE    TCT2044        202203317287-1915-90             CONNECTOR ASS'Y          CCN000004800000004800FN00000000020220401000004800NNM   20220201080836    4N0N  00000240000000666500000923132DE    TVYEV-TV005500360039
BI00B32DE    TCT2042        202203177287-7599-10             HOUSING FEMALE ASS'Y     CCN000003200000003200FN00000000020220401000003200NNM   20220201080836    4N0N  00000160000001233600001445632DE    TVYEV-TV005500360039
BI00B32DE    TCT2043        202203247287-7599-10             HOUSING FEMALE ASS'Y     CCN000003200000003200FN00000000020220401000003200NNM   20220201080836    4N0N  00000160000001233600001445632DE    TVYEV-TV005500360039
BI00B32DE    TCT2042        202203177287-9234                JOINT CONNECTOR          CCN000048000000048000FN00000000020220401000048000NNM   20220201080836    4N0N  00000960000000893800001184832DE    TVYEV-TV005500360039
BI00B32DE    TCT2043        202203247287-9234                JOINT CONNECTOR          CCN000048000000048000FN00000000020220401000048000NNM   20220201080836    4N0N  00000960000000893800001184832DE    TVYEV-TV005500360039
BI00B32DE    TCT2044        202203317287-9234                JOINT CONNECTOR          CCN000038400000038400FN00000000020220401000038400NNM   20220201080836    4N0N  00000960000000893800001184832DE    TVYEV-TV005500360039
BI00B32DE    TCT2041        202203107288-3335-30             HOUSING MALE             CCN000003000000003000FN00000000020220401000003000NNM   20220201080836    4N0N  00000150000000867000001012032DE    TVYEV-TV005400370024
BI00B32DE    TCT2042        202203177288-3335-30             HOUSING MALE             CCN000006000000006000FN00000000020220401000006000NNM   20220201080836    4N0N  00000150000000867000001012032DE    TVYEV-TV005400370024
BI00B32DE    TCT2043        202203247288-3335-30             HOUSING MALE             CCN000006000000006000FN00000000020220401000006000NNM   20220201080836    4N0N  00000150000000867000001012032DE    TVYEV-TV005400370024
BI00B32DE    TCT2044        202203317288-3335-30             HOUSING MALE             CCN000001500000001500FN00000000020220401000001500NNM   20220201080836    4N0N  00000150000000867000001012032DE    TVYEV-TV005400370024
BI00B32DE    TCT2041        202203107288-6547                CONNECTOR MALE ASS'Y     CCN000000750000000750FN00000000020220401000000750NNM   20220201080836    4N0N  00000075000001205300001340332DE    TVYEV-TV005400370024
BI00B32DE    TCT2042        202203177288-6547                CONNECTOR MALE ASS'Y     CCN000000750000000750FN00000000020220401000000750NNM   20220201080836    4N0N  00000075000001205300001340332DE    TVYEV-TV005400370024
BI00B32DE    TCT2043        202203247288-6547                CONNECTOR MALE ASS'Y     CCN000001500000001500FN00000000020220401000001500NNM   20220201080836    4N0N  00000075000001205300001340332DE    TVYEV-TV005400370024
BI00B32DE    TCT2044        202203317288-6547                CONNECTOR MALE ASS'Y     CCN000000750000000750FN00000000020220401000000750NNM   20220201080836    4N0N  00000075000001205300001340332DE    TVYEV-TV005400370024
BI00B32DE    TCT2042        202203177289-3342                HOUSING FEMALE ASS'Y     CCN000002400000002400FN00000000020220401000002400NNM   20220201080836    1N0N  00000240000000686400000901432DE    TVYEV-TV005500360039
BI00B32DE    TCT2043        202203247289-3342                HOUSING FEMALE ASS'Y     CCN000002400000002400FN00000000020220401000002400NNM   20220201080836    1N0N  00000240000000686400000901432DE    TVYEV-TV005500360039
BI00B32DE    TCT2041        202203107289-3342-30             HOUSING FEMALE ASS'Y     CCN000012000000012000FN00000000020220401000012000NNM   20220201080836    1N0N  00000240000000686400000901432DE    TVYEV-TV005500360039
BI00B32DE    TCT2042        202203177289-3342-30             HOUSING FEMALE ASS'Y     CCN000014400000014400FN00000000020220401000014400NNM   20220201080836    1N0N  00000240000000686400000901432DE    TVYEV-TV005500360039
BI00B32DE    TCT2043        202203247289-3342-30             HOUSING FEMALE ASS'Y     CCN000014400000014400FN00000000020220401000014400NNM   20220201080836    1N0N  00000240000000686400000901432DE    TVYEV-TV005500360039
BI00B32DE    TCT2044        202203317289-3342-30             HOUSING FEMALE ASS'Y     CCN000012000000012000FN00000000020220401000012000NNM   20220201080836    1N0N  00000240000000686400000901432DE    TVYEV-TV005500360039
