BI00A32AF    @TTB1104       20211213181AD2002ZZ              CIVUSAS-S 0.35X2 B       PCN000110250000006750FN00000000020211001000006750NNM24 20211210161659    1W    00000045000001714000000000032AF    HBYHVTB 000000000000UZ41A032
BI00B32AF    @TTB1104       20211015181AD2003ZZ              CIVUSAS-S 0.35X3 B       CCN000061600000049700FY00004970020211001000000000NNM20 20211210123755    1W    00000035000002209700000000032AF    HBYHVTB 000000000000UZ41A033
BI00A32AF    @TTB1104       20211215181AD2004ZZ              CIVUSAS-S 0.35X4 B       PCN000012600000006600FN00000000020211001000006600NNM27 20211210163558    1W    00000030000002784000000000032AF    HBYHVTB 000000000000UZ41A034
BI00B32AF    @TTB1112       20211022181AD2002ZZ              CIVUSAS-S 0.35X2 B       CCN000035550000033750FY00003375020211101000000000NNM20 20211210115505    1W    00000045000001714000000000032AF    HBYHVTB 000000000000UY11A031
BI00A32AF    @TTB1104       20211213181AD2004ZZ              CIVUSAS-S 0.35X4 B       PCN000006000000006000FN00000000020211001000006000NNM26 20211210161659    1W    00000030000002784000000000032AF    HBYHVTB 000000000000UZ41A034
BI00A32AF    @TTB1112       20211213181AD2002ZZ              CIVUSAS-S 0.35X2 B       PCN000001800000001800FN00000000020211101000001800NNM21 20211210161659    1W    00000045000001714000000000032AF    HBYHVTB 000000000000UY11A031
BI00A32AF    @TTB1104       20211217181AD2003ZZ              CIVUSAS-S 0.35X3 B       PCN000011900000011900FN00000000020211001000011900NNM28 20211210123755    1W    00000035000002209700000000032AF    HBYHVTB 000000000000UZ41A033
BI00B32BF    TT22031BMW     20220118180D0203730              AVSSH 0.3F B             CCN000002000000002000FN00000000020220301000002000NNM   20211210132122    1W    00000200000000515000000000032BF    TTTJY   000000000000NB121025
BI00B32BF    TT22031BMW     20220118180D0203734              AVSSH 0.3F B/W           CCN000002000000002000FN00000000020220301000002000NNM   20211210132122    1W    00000200000000515000000000032BF    TTTJY   000000000000NB121026
BI00B32BF    TT22031BMW     20220118180D0203737              AVSSH 0.3F B/Y           CCN000002000000002000FN00000000020220301000002000NNM   20211210132122    1W    00000200000000515000000000032BF    TTTJY   000000000000NB121027
BI00B32BF    TT22031BMW     20220118180D0203790              AVSSH 0.3F L             CCN000004000000004000FN00000000020220301000004000NNM   20211210132122    1W    00000200000000515000000000032BF    TTTJY   000000000000NB121028
BI00B32BF    TT22031BMW     20220118180D0203795              AVSSH 0.3F L/R           CCN000002000000002000FN00000000020220301000002000NNM   20211210132122    1W    00000200000000515000000000032BF    TTTJY   000000000000NB121029
BI00B32BF    TT22031BMW     20220118180D0203794              AVSSH 0.3F L/W           CCN000002000000002000FN00000000020220301000002000NNM   20211210132122    1W    00000200000000515000000000032BF    TTTJY   000000000000NB121030
BI00B32BF    TT22031BMW     20220118180D0203761              AVSSH 0.3F LG            CCN000002000000002000FN00000000020220301000002000NNM   20211210132122    1W    00000200000000515000000000032BF    TTTJY   000000000000NB121031
BI00B32BF    TT22031BMW     20220118180D0203750              AVSSH 0.3F R             CCN000002000000002000FN00000000020220301000002000NNM   20211210132122    1W    00000200000000515000000000032BF    TTTJY   000000000000NB121032
BI00B32BF    TT22031BMW     20220118180D0203792              AVSSH 0.3F V             CCN000002000000002000FN00000000020220301000002000NNM   20211210132122    1W    00000200000000515000000000032BF    TTTJY   000000000000NB121033
BI00B32BF    TT22031BMW     20220118180D0203773              AVSSH 0.3F Y/B           CCN000002000000002000FN00000000020220301000002000NNM   20211210132122    1W    00000200000000515000000000032BF    TTTJY   000000000000NB121034
BI00B32BF    TT22031BMW     20220118180D0203930              AVSSH 0.5F B             CCN000001500000001500FN00000000020220301000001500NNM   20211210132122    1W    00000150000000689000000000032BF    TTTJY   000000000000NB121035
BI00B32BF    TT22031BMW     20220118180D0203935              AVSSH 0.5F B/R           CCN000001500000001500FN00000000020220301000001500NNM   20211210132122    1W    00000150000000689000000000032BF    TTTJY   000000000000NB121036
BI00B32BF    TT22031BMW     20220118180D0203937              AVSSH 0.5F B/Y           CCN000001500000001500FN00000000020220301000001500NNM   20211210132122    1W    00000150000000689000000000032BF    TTTJY   000000000000NB121037
BI00B32BF    TT22031BMW     20220118180D0203960              AVSSH 0.5F G             CCN000001500000001500FN00000000020220301000001500NNM   20211210132122    1W    00000150000000689000000000032BF    TTTJY   000000000000NB121038
BI00B32BF    TT22031BMW     20220118180D0203963              AVSSH 0.5F G/B           CCN000001500000001500FN00000000020220301000001500NNM   20211210132122    1W    00000150000000689000000000032BF    TTTJY   000000000000NB121039
BI00B32BF    TT22031BMW     20220118180D0203964              AVSSH 0.5F G/W           CCN000001500000001500FN00000000020220301000001500NNM   20211210132122    1W    00000150000000689000000000032BF    TTTJY   000000000000NB121040
BI00B32BF    TT22031BMW     20220118180D0203941              AVSSH 0.5F GY            CCN000003000000003000FN00000000020220301000003000NNM   20211210132122    1W    00000150000000689000000000032BF    TTTJY   000000000000NB121041
BI00B32BF    TT22032BMW     20220125180D0203941              AVSSH 0.5F GY            CCN000001500000001500FN00000000020220301000001500NNM   20211210132122    1W    00000150000000689000000000032BF    TTTJY   000000000000NB221022
BI00B32BF    TT22031BMW     20220118180D0203990              AVSSH 0.5F L             CCN000001500000001500FN00000000020220301000001500NNM   20211210132122    1W    00000150000000689000000000032BF    TTTJY   000000000000NB121042
BI00B32BF    TT22032BMW     20220125180D0203990              AVSSH 0.5F L             CCN000001500000001500FN00000000020220301000001500NNM   20211210132122    1W    00000150000000689000000000032BF    TTTJY   000000000000NB221023
BI00B32BF    TT22033BMW     20220201180D0203990              AVSSH 0.5F L             CCN000001500000001500FN00000000020220301000001500NNM   20211210132122    1W    00000150000000689000000000032BF    TTTJY   000000000000NB321015
BI00B32BF    TT22034BMW     20220208180D0203990              AVSSH 0.5F L             CCN000001500000001500FN00000000020220301000001500NNM   20211210132122    1W    00000150000000689000000000032BF    TTTJY   000000000000NB421011
BI00B32BF    TT22031BMW     20220118180D0203995              AVSSH 0.5F L/R           CCN000001500000001500FN00000000020220301000001500NNM   20211210132122    1W    00000150000000689000000000032BF    TTTJY   000000000000NB121043
BI00B32BF    TT22031BMW     20220118180D0203997              AVSSH 0.5F L/Y           CCN000001500000001500FN00000000020220301000001500NNM   20211210132122    1W    00000150000000689000000000032BF    TTTJY   000000000000NB121044
BI00B32BF    TT22031BMW     20220118180D0203961              AVSSH 0.5F LG            CCN000001500000001500FN00000000020220301000001500NNM   20211210132122    1W    00000150000000689000000000032BF    TTTJY   000000000000NB121045
BI00B32BF    TT22031BMW     20220118180D0203952              AVSSH 0.5F P             CCN000001500000001500FN00000000020220301000001500NNM   20211210132122    1W    00000150000000689000000000032BF    TTTJY   000000000000NB121046
BI00B32BF    TT22031BMW     20220118180D02039G6              AVSSH 0.5F P/L           CCN000001500000001500FN00000000020220301000001500NNM   20211210132122    1W    00000150000000689000000000032BF    TTTJY   000000000000NB121047
BI00B32BF    TT22031BMW     20220118180D0203950              AVSSH 0.5F R             CCN000001500000001500FN00000000020220301000001500NNM   20211210132122    1W    00000150000000689000000000032BF    TTTJY   000000000000NB121048
BI00B32BF    TT22033BMW     20220201180D0203950              AVSSH 0.5F R             CCN000001500000001500FN00000000020220301000001500NNM   20211210132122    1W    00000150000000689000000000032BF    TTTJY   000000000000NB321016
BI00B32BF    TT22031BMW     20220118180D0203959              AVSSH 0.5F R/L           CCN000001500000001500FN00000000020220301000001500NNM   20211210132122    1W    00000150000000689000000000032BF    TTTJY   000000000000NB121049
BI00B32BF    TT22031BMW     20220118180D0203992              AVSSH 0.5F V             CCN000001500000001500FN00000000020220301000001500NNM   20211210132122    1W    00000150000000689000000000032BF    TTTJY   000000000000NB121050
BI00B32BF    TT22031BMW     20220118180D0203940              AVSSH 0.5F W             CCN000001500000001500FN00000000020220301000001500NNM   20211210132122    1W    00000150000000689000000000032BF    TTTJY   000000000000NB121051
BI00B32BF    TT22031BMW     20220118180D0203943              AVSSH 0.5F W/B           CCN000001500000001500FN00000000020220301000001500NNM   20211210132122    1W    00000150000000689000000000032BF    TTTJY   000000000000NB121052
BI00B32BF    TT22032BMW     20220125180D0203943              AVSSH 0.5F W/B           CCN000001500000001500FN00000000020220301000001500NNM   20211210132122    1W    00000150000000689000000000032BF    TTTJY   000000000000NB221024
BI00B32BF    TT22031BMW     20220118180D0203949              AVSSH 0.5F W/L           CCN000001500000001500FN00000000020220301000001500NNM   20211210132122    1W    00000150000000689000000000032BF    TTTJY   000000000000NB121053
BI00B32BF    TT22031BMW     20220118180D0203945              AVSSH 0.5F W/R           CCN000001500000001500FN00000000020220301000001500NNM   20211210132122    1W    00000150000000689000000000032BF    TTTJY   000000000000NB121054
BI00B32BF    TT22033BMW     20220201180D0203945              AVSSH 0.5F W/R           CCN000001500000001500FN00000000020220301000001500NNM   20211210132122    1W    00000150000000689000000000032BF    TTTJY   000000000000NB321017
BI00B32BF    TT22031BMW     20220118180D0203970              AVSSH 0.5F Y             CCN000001500000001500FN00000000020220301000001500NNM   20211210132122    1W    00000150000000689000000000032BF    TTTJY   000000000000NB121055
BI00B32BF    TT22031BMW     20220118180D0203973              AVSSH 0.5F Y/B           CCN000001500000001500FN00000000020220301000001500NNM   20211210132122    1W    00000150000000689000000000032BF    TTTJY   000000000000NB121056
BI00B32BF    TT22031BMW     20220118180D0203976              AVSSH 0.5F Y/G           CCN000001500000001500FN00000000020220301000001500NNM   20211210132122    1W    00000150000000689000000000032BF    TTTJY   000000000000NB121057
BI00B32BF    TT22031BMW     20220118180D0204030              AVSSH 0.75F B            CCN000001000000001000FN00000000020220301000001000NNM   20211210132122    1W    00000100000000968000000000032BF    TTTJY   000000000000NB121058
BI00B32BF    TT22031BMW     20220118180D0204035              AVSSH 0.75F B/R          CCN000001000000001000FN00000000020220301000001000NNM   20211210132122    1W    00000100000000968000000000032BF    TTTJY   000000000000NB121059
BI00B32BF    TT22031BMW     20220118180D0204034              AVSSH 0.75F B/W          CCN000001000000001000FN00000000020220301000001000NNM   20211210132122    1W    00000100000000968000000000032BF    TTTJY   000000000000NB121060
BI00B32BF    TT22031BMW     20220118180D0204080              AVSSH 0.75F BR           CCN000001000000001000FN00000000020220301000001000NNM   20211210132122    1W    00000100000000968000000000032BF    TTTJY   000000000000NB121061
BI00B32BF    TT22031BMW     20220118180D0204060              AVSSH 0.75F G            CCN000001000000001000FN00000000020220301000001000NNM   20211210132122    1W    00000100000000968000000000032BF    TTTJY   000000000000NB121062
BI00B32BF    TT22032BMW     20220125180D0204060              AVSSH 0.75F G            CCN000001000000001000FN00000000020220301000001000NNM   20211210132122    1W    00000100000000968000000000032BF    TTTJY   000000000000NB221025
BI00B32BF    TT22033BMW     20220201180D0204060              AVSSH 0.75F G            CCN000001000000001000FN00000000020220301000001000NNM   20211210132122    1W    00000100000000968000000000032BF    TTTJY   000000000000NB321018
BI00B32BF    TT22034BMW     20220208180D0204060              AVSSH 0.75F G            CCN000001000000001000FN00000000020220301000001000NNM   20211210132122    1W    00000100000000968000000000032BF    TTTJY   000000000000NB421012
BI00B32BF    TT22031BMW     20220118180D0204050              AVSSH 0.75F R            CCN000001000000001000FN00000000020220301000001000NNM   20211210132122    1W    00000100000000968000000000032BF    TTTJY   000000000000NB121063
BI00B32BF    TT22031BMW     20220118180D0204043              AVSSH 0.75F W/B          CCN000001000000001000FN00000000020220301000001000NNM   20211210132122    1W    00000100000000968000000000032BF    TTTJY   000000000000NB121064
BI00B32BF    TT22031BMW     20220118180D0204130              AVSSH 1.25F B            CCN000000800000000800FN00000000020220301000000800NNM   20211210132122    1W    00000080000001458000000000032BF    TTTJY   000000000000NB121065
BI00B32BF    TT22033BMW     20220201180D0204130              AVSSH 1.25F B            CCN000000800000000800FN00000000020220301000000800NNM   20211210132122    1W    00000080000001458000000000032BF    TTTJY   000000000000NB321019
BI00B32BF    TT22031BMW     20220118180D0204134              AVSSH 1.25F B/W          CCN000000800000000800FN00000000020220301000000800NNM   20211210132122    1W    00000080000001458000000000032BF    TTTJY   000000000000NB121066
BI00B32BF    TT22031BMW     20220118180D0204180              AVSSH 1.25F BR           CCN000000800000000800FN00000000020220301000000800NNM   20211210132122    1W    00000080000001458000000000032BF    TTTJY   000000000000NB121067
BI00B32BF    TT22031BMW     20220118180D0204190              AVSSH 1.25F L            CCN000000800000000800FN00000000020220301000000800NNM   20211210132122    1W    00000080000001458000000000032BF    TTTJY   000000000000NB121068
BI00B32BF    TT22032BMW     20220125180D0204190              AVSSH 1.25F L            CCN000000800000000800FN00000000020220301000000800NNM   20211210132122    1W    00000080000001458000000000032BF    TTTJY   000000000000NB221026
BI00B32BF    TT22033BMW     20220201180D0204190              AVSSH 1.25F L            CCN000000800000000800FN00000000020220301000000800NNM   20211210132122    1W    00000080000001458000000000032BF    TTTJY   000000000000NB321020
BI00B32BF    TT22031BMW     20220118180D0204150              AVSSH 1.25F R            CCN000001600000001600FN00000000020220301000001600NNM   20211210132122    1W    00000080000001458000000000032BF    TTTJY   000000000000NB121069
BI00B32BF    TT22032BMW     20220125180D0204150              AVSSH 1.25F R            CCN000000800000000800FN00000000020220301000000800NNM   20211210132122    1W    00000080000001458000000000032BF    TTTJY   000000000000NB221027
BI00B32BF    TT22031BMW     20220118180D0204159              AVSSH 1.25F R/L          CCN000000800000000800FN00000000020220301000000800NNM   20211210132122    1W    00000080000001458000000000032BF    TTTJY   000000000000NB121070
BI00B32BF    TT22031BMW     20220118180D0204143              AVSSH 1.25F W/B          CCN000000800000000800FN00000000020220301000000800NNM   20211210132122    1W    00000080000001458000000000032BF    TTTJY   000000000000NB121071
BI00B32BF    TT22032BMW     20220125180D0204143              AVSSH 1.25F W/B          CCN000000800000000800FN00000000020220301000000800NNM   20211210132122    1W    00000080000001458000000000032BF    TTTJY   000000000000NB221028
BI00B32BF    TT22033BMW     20220201180D0204143              AVSSH 1.25F W/B          CCN000000800000000800FN00000000020220301000000800NNM   20211210132122    1W    00000080000001458000000000032BF    TTTJY   000000000000NB321021
BI00B32BF    TT22034BMW     20220208180D0204143              AVSSH 1.25F W/B          CCN000000800000000800FN00000000020220301000000800NNM   20211210132122    1W    00000080000001458000000000032BF    TTTJY   000000000000NB421013
BI00B32BF    TT22031BMW     20220118180D0204170              AVSSH 1.25F Y            CCN000000800000000800FN00000000020220301000000800NNM   20211210132122    1W    00000080000001458000000000032BF    TTTJY   000000000000NB121072
BI00B32BF    TT22032BMW     20220125180D0204170              AVSSH 1.25F Y            CCN000000800000000800FN00000000020220301000000800NNM   20211210132122    1W    00000080000001458000000000032BF    TTTJY   000000000000NB221029
BI00B32BF    TT22033BMW     20220201180D0204170              AVSSH 1.25F Y            CCN000000800000000800FN00000000020220301000000800NNM   20211210132122    1W    00000080000001458000000000032BF    TTTJY   000000000000NB321022
BI00B32BF    TT22034BMW     20220208180D0204170              AVSSH 1.25F Y            CCN000000800000000800FN00000000020220301000000800NNM   20211210132122    1W    00000080000001458000000000032BF    TTTJY   000000000000NB421014
BI00B32BF    TT22031KMW     2022011818009604056              AVS 0.85 R/G             CCN000002000000002000FN00000000020220301000002000NNM   20211210132124    1W    00000100000001148000000000032BF    TTTJY   000000000000NK121001
BI00B32DE    TT202A         2022011318000004540              AV 8 W                   CCN000001800000001800FN00000000020220201000001800NNE   20211210134500    1W    00000010000009148000000000032DE    TVYEV-TV000000000000VX41C005
BI00B32DE    TT202A         2022011318007703992              AVSS 0.5F V              CCN000001500000001500FN00000000020220201000001500NNE   20211210134500    1W    00000150000000674000000000032DE    TVYEV-TV000000000000VX41C006
BI00B32DE    TT202A         2022011318007703945              AVSS 0.5F W/R            CCN000001500000001500FN00000000020220201000001500NNE   20211210134500    1W    00000150000000674000000000032DE    TVYEV-TV000000000000VX41C007
BI00B32DE    TT202A         2022011318007703973              AVSS 0.5F Y/B            CCN000001500000001500FN00000000020220201000001500NNE   20211210134500    1W    00000150000000674000000000032DE    TVYEV-TV000000000000VX41C008
BI00B32DE    TT202A         2022011318007704160              AVSS 1.25F G             CCN000000800000000800FN00000000020220201000000800NNE   20211210134500    1W    00000080000001389000000000032DE    TVYEV-TV000000000000VX41C009
BI00B32DE    TT202A         2022011318007704140              AVSS 1.25F W             CCN000001600000001600FN00000000020220201000001600NNE   20211210134500    1W    00000080000001389000000000032DE    TVYEV-TV000000000000VX41C010
BI00B32DE    TT202A         2022011318007704143              AVSS 1.25F W/B           CCN000000800000000800FN00000000020220201000000800NNE   20211210134500    1W    00000080000001389000000000032DE    TVYEV-TV000000000000VX41C011
BI00B32DE    TT202A         20220113180D0203959              AVSSH 0.5F R/L           CCN000003000000003000FN00000000020220201000003000NNE   20211210134500    1W    00000150000000689000000000032DE    TVYEV-TV000000000000VX41C003
BI00B32DE    TT202A         20220113180D0204149              AVSSH 1.25F W/L          CCN000000800000000800FN00000000020220201000000800NNE   20211210134500    1W    00000080000001458000000000032DE    TVYEV-TV000000000000VX41C004
BI00B32DE    @TT202A        20220113181E50013ZZ              AVSSCS-S 0.5FX1 DGY/G    CCN000000400000000400FN00000000020220201000000400NNE   20211210134459    1W    00000040000001817000000000032DE    TVYEV-TV000000000000VX11C004
BI00B32DE    @TT202A        20220113181F21002ZZ              AVSSHCS-S 0.5FX1 B       CCN000001200000001200FN00000000020220201000001200NNE   20211210134459    1W    00000040000001847000000000032DE    TVYEV-TV000000000000VX11C005
BI00B32DE    @TT202A        20220113181F21004ZZ              AVSSHCS-S 0.5FX1 B/R     CCN000000800000000800FN00000000020220201000000800NNE   20211210134459    1W    00000040000001847000000000032DE    TVYEV-TV000000000000VX11C006
BI00B32DE    @TT202A        20220113181F21006ZZ              AVSSHCS-S 0.5FX1 B/Y     CCN000000400000000400FN00000000020220201000000400NNE   20211210134459    1W    00000040000001847000000000032DE    TVYEV-TV000000000000VX11C007
BI00B32DE    @TT202A        20220113181F21010ZZ              AVSSHCS-S 0.5FX2 B/W     CCN000000300000000300FN00000000020220201000000300NNE   20211210134459    1W    00000030000002505800000000032DE    TVYEV-TV000000000000VX11C008
BI00B32DE    @TT202A        20220113181AD2002ZZ              CIVUSAS-S 0.35X2 B       CCN000003150000003150FN00000000020220201000003150NNE   20211210134459    1W    00000045000001714000000000032DE    TVYEV-TV000000000000VX11C001
BI00B32DE    @TT202A        20220113181AD2003ZZ              CIVUSAS-S 0.35X3 B       CCN000003150000003150FN00000000020220201000003150NNE   20211210134459    1W    00000035000002209700000000032DE    TVYEV-TV000000000000VX11C002
BI00B32DE    @TT202A        20220113181AD2004ZZ              CIVUSAS-S 0.35X4 B       CCN000002700000002700FN00000000020220201000002700NNE   20211210134459    1W    00000030000002784000000000032DE    TVYEV-TV000000000000VX11C003
BI00A32W9    4500185062     2021121018007704290              AVSS 2F L                CCN000000500000000500FN00000000020211201000000500NNE20 20211210100556W93 1W    00000050000002126400000000032W93   HKYHK   000000000000ZD21C014
BI00B32Y6    @STAC32041     20220106181AD2017ZZ              CIVUSAS-S 0.22X3 B       CCN000016770000016770FN00000000020220401000016770NNE   20211210140332    1W    00000043000001678200000000032Y6    BSYBL-S 000000000000KH31C010
