BI00A1200    2399T51615     202112157289-6547                HOUSING FEMALE ASS'Y     PCN000144000000148800FN00000000020210801000148800NNMD0420211210162851    1N0N  0000024000000115200000136201200    YCYC    005500360039
BI00B1200    8750T51C02     202202107196-1104-02             TERMINAL                 CCN000180000000180000FN00000000020220301000180000NNM   20211210121517    4P0P  0000225000000044100000072621200    YCYC    006400630015
BI00B1200    #8750T51C02    202202107172-5630-40             RUBBER STOPPER           CCN000300000000300000FN00000000020220301000300000NNM   20211210121517    2H0H  0000200000000004400000009511200    YCYC    004300270014
BI00B1200    #8750T51C02    202202107172-5631-60             RUBBER STOPPER           CCN000600000000600000FN00000000020220301000600000NNM   20211210121517    2H0H  0000200000000004200000009311200    YCYC    004300270014
BI00B1200    #30BT-100      202201207189-3034-30             HOUSING FEMALE           CCN000001600000001600FN00000000020220201000001600NNE   20211210133345    2F0F  0000016000000097280000119281200    YCYC    005500360039
BI00A32AG    XG21125CMW     202112207327-6870-30             MULTI FUSE               CCN000004608000004608FN00000000020211201000004608NNMM0020211210121517    4N0N  00000028800001015200001181132AG    XGXGY   005400370024
BI00B32AG    XG21125CMW     202111307327-6874-30             MULTI FUSE               CCN000004608000004320FY00000432020211201000000000NNM00020211210111014    4N0N  00000028800000991400001157332AG    XGXGY   005400370024
BI00A32AG    XG21125CMW     202112207327-6880-30             MULTI FUSE               CCN000004608000004608FN00000000020211201000004608NNMM0020211210121517    4N0N  00000028800001012600001178532AG    XGXGY   005400370024
BI00B32AG    XG21125CMW     202111307327-6884-30             MULTI FUSE               CCN000004608000003456FY00000345620211201000000000NNM00020211210112255    4N0N  00000028800000988900001154832AG    XGXGY   005400370024
BI00A32AG    XG22013CMW     202112237327-6874-30             MULTI FUSE               CCN000000864000000864FN00000000020220101000000864NNMM0020211210121517    4N0N  00000028800000991400001157332AG    XGXGY   005400370024
BI00A32AG    XG22013CMW     202112237327-6884-30             MULTI FUSE               CCN000000864000000864FN00000000020220101000000864NNMM0020211210121517    4N0N  00000028800000988900001154832AG    XGXGY   005400370024
BI00A32AG    XG22022CMW     202112237327-6874-30             MULTI FUSE               CCN000000288000000288FN00000000020220201000000288NNMM0020211210121517    4N0N  00000028800000991400001157332AG    XGXGY   005400370024
BI00B32AG    XG22023CMW     202201217327-6874-30             MULTI FUSE               CCN000002592000001152FN00000000020220201000001152NNMD0020211210121517    4N0N  00000028800000991400001157332AG    XGXGY   005400370024
BI00A32AG    XG22022CMW     202112237327-6884-30             MULTI FUSE               CCN000000288000000288FN00000000020220201000000288NNMM0020211210121517    4N0N  00000028800000988900001154832AG    XGXGY   005400370024
BI00B32AG    XG22023CMW     202201217327-6884-30             MULTI FUSE               CCN000002592000002304FN00000000020220201000002304NNMD0020211210121517    4N0N  00000028800000988900001154832AG    XGXGY   005400370024
BI00B32AG    XG2202ACMW     202203047327-6870-30             MULTI FUSE               CCN000004320000004320FN00000000020220201000004320NNED0420211210121517    4N0N  00000028800001015200001181132AG    XGXGY   005400370024
BI00B32AG    XG2202ACMW     202203047327-6874-30             MULTI FUSE               CCN000004320000004320FN00000000020220201000004320NNED0420211210121517    4N0N  00000028800000991400001157332AG    XGXGY   005400370024
BI00B32AG    XG2202ACMW     202203047327-6880-30             MULTI FUSE               CCN000004320000004320FN00000000020220201000004320NNED0420211210121517    4N0N  00000028800001012600001178532AG    XGXGY   005400370024
BI00B32AG    XG2202ACMW     202203047327-6884-30             MULTI FUSE               CCN000004320000004320FN00000000020220201000004320NNED0420211210121517    4N0N  00000028800000988900001154832AG    XGXGY   005400370024
BI00B32AG    XG2202BCMW     202203117327-6832-60             MAIN FUSE                CCN000003600000003600FN00000000020220201000003600NNED0420211210121517    4N0N  00000060000000729200000930732AG    XGXGY   005400370024
BI00A32AG    XG21125CMW     202112237327-6874-30             MULTI FUSE               CCN000000288000000288FN00000000020211201000000288NNMM0020211210121517    4N0N  00000028800000991400001157332AG    XGXGY   005400370024
BI00A32AG    XG22023CMW     202112237327-6874-30             MULTI FUSE               CCN000001440000001440FN00000000020220201000001440NNMM0020211210121517    4N0N  00000028800000991400001157332AG    XGXGY   005400370024
BI00A32AG    XG21125CMW     202112237327-6884-30             MULTI FUSE               CCN000001152000001152FN00000000020211201000001152NNMM0020211210121517    4N0N  00000028800000988900001154832AG    XGXGY   005400370024
BI00A32AG    XG22023CMW     202112237327-6884-30             MULTI FUSE               CCN000000288000000288FN00000000020220201000000288NNMM0020211210121517    4N0N  00000028800000988900001154832AG    XGXGY   005400370024
BI00B32BF    TT22022RMW     202112217116-4102-02             TERMINAL                 CCN000024000000024000FN00000000020220201000024000NNMD0020211210155858    4P0P  00001200000000553200000841432BF    TTTJYCD 006400630015
BI00B32BF    TT22022BMW     202112217126-8853-02             TERMINAL                 CCN000007500000007500FN00000000020220201000007500NNMD0020211210155836    4P0P  00000750000000562500000847732BF    TTTJYCD 006400630015
BI00B32BF    TT22022BMW     202112217158-3006-90             RUBBER STOPPER           CCN000020000000020000FN00000000020220201000020000NNMD0020211210155836    1C0C  00002000000000330600000386032BF    TTTJYCD 002700430014
BI00B32DE    TCT2021        202201137116-4028-08             TERMINAL FEMALE          CCN000192000000000000FY00000000020220201000000000NNMQ0820211210160331    4P0P  00001600000000652800000981532DE    TVYEV-TV006400630017
BI00B32DE    TCT2022        202201207116-4028-08             TERMINAL FEMALE          CCN000032000000000000FY00000000020220201000000000NNMQ0820211210160342    4P0P  00001600000000652800000981532DE    TVYEV-TV006400630017
BI00B32DE    TCT2023        202201277116-4028-08             TERMINAL FEMALE          CCN000096000000000000FY00000000020220201000000000NNMQ0820211210160353    4P0P  00001600000000652800000981532DE    TVYEV-TV006400630017
BI00B32DE    TCT2024        202202037116-4028-08             TERMINAL FEMALE          CCN000128000000000000FY00000000020220201000000000NNMQ0820211210160402    4P0P  00001600000000652800000981532DE    TVYEV-TV006400630017
BI00B32DE    TCT201A        202201067114-4728-02             TERMINAL                 CCN000060000000060000FN00000000020220101000060000NNE   20211210121517    4P0P  00003000000000510000000804232DE    TVYEV-TV006400630015
BI00B32DE    TCT201A        202201067114-5748-02             TERMINAL                 CCN000024000000024000FN00000000020220101000024000NNE   20211210121517    4P0P  00001200000000444000000737632DE    TVYEV-TV006400630015
BI00B32DE    TCT201A        202201067116-4486-02             TERMINAL                 CCN000028000000028000FN00000000020220101000028000NNE   20211210121517    4P0P  00002800000000666400000995132DE    TVYEV-TV006400630017
BI00B32DE    TCT201A        202201067116-5750-02             TERMINAL                 CCN000015000000015000FN00000000020220101000015000NNE   20211210121517    4P0P  00001500000000457500000742732DE    TVYEV-TV006400630015
BI00B32DE    TCT201A        202201067116-5752-02             TERMINAL                 CCN000042000000042000FN00000000020220101000042000NNE   20211210121517    4P0P  00002100000000571200000856432DE    TVYEV-TV006400630015
BI00B32DE    TCT201A        202201067195-1479-02             TERMINAL MALE            CCN000048000000048000FN00000000020220101000048000NNE   20211210121517    4P0P  00002400000000420000000714232DE    TVYEV-TV006400630015
BI00B32DE    TCT201A        202201067196-1103-02             TERMINAL                 CCN000022500000022500FN00000000020220101000022500NNE   20211210121517    4P0P  00002250000000429800000715032DE    TVYEV-TV006400630015
BI00B32DE    TCT201A        202201067196-1481-02             TERMINAL FEMALE          CCN000096000000096000FN00000000020220101000096000NNE   20211210121517    4P0P  00002400000000422400000707632DE    TVYEV-TV006400630015
BI00B32DE    TCT201A        202201067196-1934-02             TERMINAL FEMALE          CCN000039000000039000FN00000000020220101000039000NNE   20211210121517    4P0P  00001950000000561600000846832DE    TVYEV-TV006400630015
BI00B32DE    TCT201A        202201067196-1936-02             TERMINAL FEMALE          CCN000027000000027000FN00000000020220101000027000NNE   20211210121517    4P0P  00001350000000441500000726732DE    TVYEV-TV006400630015
BI00B32DE    TCT201A        202201067196-1939-02             TERMINAL FEMALE          CCN000015000000015000FN00000000020220101000015000NNE   20211210121517    4P0P  00001500000000574500000862732DE    TVYEV-TV006400630015
BI00B32DE    TCT201A        202201067282-4577                HOUSING MALE ASS'Y       CCN000002400000002400FN00000000020220101000002400NNE   20211210121517    4N0N  00000240000000964800001174832DE    TVYEV-TV005500360039
BI00B32DE    TCT201A        202201067283-1289-40             CONNECTOR HOUSING        CCN000001200000001200FN00000000020220101000001200NNE   20211210121517    1N0N  00000060000000679800000824832DE    TVYEV-TV005400370024
BI00B32DE    TCT201A        202201067283-4577-30             CONNECTOR HOUSING        CCN000009600000009600FN00000000020220101000009600NNE   20211210121517    4N0N  00000480000000916800001136832DE    TVYEV-TV005500360039
BI00B32DE    TCT201A        202201067287-1915-40             CONNECTOR ASS'Y          CCN000002400000002400FN00000000020220101000002400NNE   20211210121517    4N0N  00000240000000666500000923132DE    TVYEV-TV005500360039
BI00B32DE    TCT201A        202201067288-6547                CONNECTOR MALE ASS'Y     CCN000001500000001500FN00000000020220101000001500NNE   20211210121517    4N0N  00000075000001205300001340332DE    TVYEV-TV005400370024
BI00B32DE    TCT201A        202201067289-3342-30             HOUSING FEMALE ASS'Y     CCN000014400000014400FN00000000020220101000014400NNE   20211210121517    1N0N  00000240000000686400000901432DE    TVYEV-TV005500360039
BI00B32DE    TCT202A        202201137196-1481-02             TERMINAL FEMALE          CCN000072000000072000FN00000000020220201000072000NNE   20211210121517    4P0P  00002400000000422400000707632DE    TVYEV-TV006400630015
BI00B32DE    TCT202A        202201137196-1934-02             TERMINAL FEMALE          CCN000039000000039000FN00000000020220201000039000NNE   20211210121517    4P0P  00001950000000561600000846832DE    TVYEV-TV006400630015
BI00B32DE    TCT202A        202201137196-1936-02             TERMINAL FEMALE          CCN000013500000013500FN00000000020220201000013500NNE   20211210121517    4P0P  00001350000000441500000726732DE    TVYEV-TV006400630015
BI00B32DE    TCT202A        202201137282-4576                HOUSING MALE ASS'Y       CCN000002400000002400FN00000000020220201000002400NNE   20211210121517    4N0N  00000240000000808800001028832DE    TVYEV-TV005500360039
BI00B32DE    TCT202A        202201137282-4577                HOUSING MALE ASS'Y       CCN000002400000002400FN00000000020220201000002400NNE   20211210121517    4N0N  00000240000000964800001174832DE    TVYEV-TV005500360039
BI00B32DE    TCT202A        202201137283-1289-30             CONNECTOR HOUSING        CCN000000600000000600FN00000000020220201000000600NNE   20211210121517    1N0N  00000060000000675600000820632DE    TVYEV-TV005400370024
BI00B32DE    TCT202A        202201137283-1289-40             CONNECTOR HOUSING        CCN000000600000000600FN00000000020220201000000600NNE   20211210121517    1N0N  00000060000000679800000824832DE    TVYEV-TV005400370024
BI00B32DE    TCT202A        202201137283-4576                HOUSING FEMALE ASS'Y     CCN000004800000004800FN00000000020220201000004800NNE   20211210121517    4N0N  00000480000000651300000871332DE    TVYEV-TV005500360039
BI00B32DE    TCT202A        202201137283-4576-30             HOUSING FEMALE ASS'Y     CCN000004800000004800FN00000000020220201000004800NNE   20211210121517    4N0N  00000480000000651300000871332DE    TVYEV-TV005500360039
BI00B32DE    TCT202A        202201137283-4577-30             CONNECTOR HOUSING        CCN000004800000004800FN00000000020220201000004800NNE   20211210121517    4N0N  00000480000000916800001136832DE    TVYEV-TV005500360039
BI00B32DE    TCT202A        202201137283-8228-40             CONNECTOR                CCN000003000000003000FN00000000020220201000003000NNE   20211210121517    4N0N  00000300000001215000001361032DE    TVYEV-TV005600390040
BI00B32DE    TCT202A        202201137287-1915                CONNECTOR ASS'Y          CCN000002400000002400FN00000000020220201000002400NNE   20211210121517    4N0N  00000240000000666500000923132DE    TVYEV-TV005500360039
BI00B32DE    TCT202A        202201137287-1915-40             CONNECTOR ASS'Y          CCN000002400000002400FN00000000020220201000002400NNE   20211210121517    4N0N  00000240000000666500000923132DE    TVYEV-TV005500360039
BI00B32DE    TCT202A        202201137288-6547                CONNECTOR MALE ASS'Y     CCN000001500000001500FN00000000020220201000001500NNE   20211210121517    4N0N  00000075000001205300001340332DE    TVYEV-TV005400370024
BI00B32DE    TCT202A        202201137289-3342                HOUSING FEMALE ASS'Y     CCN000002400000002400FN00000000020220201000002400NNE   20211210121517    1N0N  00000240000000686400000901432DE    TVYEV-TV005500360039
BI00B32DE    TCT202A        202201137289-3342-30             HOUSING FEMALE ASS'Y     CCN000016800000016800FN00000000020220201000016800NNE   20211210121517    1N0N  00000240000000686400000901432DE    TVYEV-TV005500360039
BI00B32DE    TCT202A        202201137289-3342-90             HOUSING FEMALE ASS'Y     CCN000002400000002400FN00000000020220201000002400NNE   20211210121517    1N0N  00000240000000686400000901432DE    TVYEV-TV005500360039
BI00B32DE    TCT202A        202201137289-6547                HOUSING FEMALE ASS'Y     CCN000002400000002400FN00000000020220201000002400NNE   20211210121517    1N0N  00000240000001152000001362032DE    TVYEV-TV005500360039
BI00B32DE    @ICT201A       202201037183-8049                CONNECTOR HOUSING        CCN000004000000004000FN00000000020220101000004000NNE   20211210133944    3F0F  00000400000000583600000740032DE    TVYEV-TV005400370024
BI00B32D1    DFTC2209       202201067288-6547                CONNECTOR MALE ASS'Y     CCN000006750000006750FN00000000020220301000006750NNMD0020211210121517    4N0N  00000075000001205300001340332D1    TOYOT-K 005400370024
BI00B32D1    DFTC2209       202201067289-3342                HOUSING FEMALE ASS'Y     CCN000021600000021600FN00000000020220301000021600NNMD0020211210121517    1N0N  00000240000000686400000901432D1    TOYOT-K 005500360039
BI00B32D1    DFTC2209       202201067289-3342-30             HOUSING FEMALE ASS'Y     CCN000060000000060000FN00000000020220301000060000NNMD0020211210121517    1N0N  00000240000000686400000901432D1    TOYOT-K 005500360039
BI00B32D1    DFTC2209       202201067289-3342-40             HOUSING FEMALE ASS'Y     CCN000004800000004800FN00000000020220301000004800NNMD0020211210121517    1N0N  00000240000000686400000901432D1    TOYOT-K 005500360039
BI00B32D1    DFTC2209       202201067289-3342-90             HOUSING FEMALE ASS'Y     CCN000004800000004800FN00000000020220301000004800NNMD0020211210121517    1N0N  00000240000000686400000901432D1    TOYOT-K 005500360039
BI00B32D1    DFTC2209       202201067289-6547                HOUSING FEMALE ASS'Y     CCN000007200000007200FN00000000020220301000007200NNMD0020211210121517    1N0N  00000240000001152000001362032D1    TOYOT-K 005500360039
BI00B32D1    DFTC2209       202201067327-6731-3W             BATTERY FUSE             CCN000001152000001152FN00000000020220301000001152NNMD0020211210121517    4N0N  00000006400000697600000843032D1    TOYOT-K 005400370024
BI00B32D1    DFTC2209       202201067388-2978-30             HOUSING MALE ASS'Y       CCN000009120000009120FN00000000020220301000009120NNMD0020211210121517    1N0N  00000048000000742000001122032D1    TOYOT-K 005500360039
BI00B32D1    #DFTC2209      202201067172-5629-80             RUBBER STOPPER           CCN000140000000140000FN00000000020220301000140000NNMD0020211210121517    2H0H  00002000000000060000000111132D1    TOYOT-K 004300270014
BI00B32D2    DGTC2209       202201067288-6547                CONNECTOR MALE ASS'Y     CCN000012750000012750FN00000000020220301000012750NNMD0020211210121517    4N0N  00000075000001205300001340332D2    TGYOT-G 005400370024
BI00B32D2    DGTC2209       202201067289-3342                HOUSING FEMALE ASS'Y     CCN000021600000021600FN00000000020220301000021600NNMD0020211210121517    1N0N  00000240000000686400000901432D2    TGYOT-G 005500360039
BI00B32D2    DGTC2209       202201067289-3342-30             HOUSING FEMALE ASS'Y     CCN000021600000021600FN00000000020220301000021600NNMD0020211210121517    1N0N  00000240000000686400000901432D2    TGYOT-G 005500360039
BI00B32D2    DGTC2209       202201067289-3342-40             HOUSING FEMALE ASS'Y     CCN000024000000024000FN00000000020220301000024000NNMD0020211210121517    1N0N  00000240000000686400000901432D2    TGYOT-G 005500360039
BI00B32D2    DGTC2209       202201067289-3342-90             HOUSING FEMALE ASS'Y     CCN000004800000004800FN00000000020220301000004800NNMD0020211210121517    1N0N  00000240000000686400000901432D2    TGYOT-G 005500360039
BI00B32D2    DGTC2209       202201067289-6547                HOUSING FEMALE ASS'Y     CCN000012000000012000FN00000000020220301000012000NNMD0020211210121517    1N0N  00000240000001152000001362032D2    TGYOT-G 005500360039
BI00B32D2    DGTC2210       202201137114-4032                TERMINAL                 CCN000022500000022500FN00000000020220301000022500NNM   20211210121517    4P0P  00000750000000735000001063632D2    TGYOT-G 006400630017
BI00B32D2    DGTC2210       202201137114-5748-02             TERMINAL                 CCN000096000000096000FN00000000020220301000096000NNM   20211210121517    4P0P  00001200000000444000000737632D2    TGYOT-G 006400630015
BI00B32D2    DGTC2210       202201137114-5753-02             TERMINAL                 CCN000216000000216000FN00000000020220301000216000NNM   20211210121517    4P0P  00002700000000847800001141432D2    TGYOT-G 006400630015
BI00B32D2    DGTC2210       202201137116-4486-02             TERMINAL                 CCN000224000000224000FN00000000020220301000224000NNM   20211210121517    4P0P  00002800000000666400000995132D2    TGYOT-G 006400630017
BI00B32D2    DGTC2210       202201137116-5045-02             TERMINAL                 CCN000032000000032000FN00000000020220301000032000NNM   20211210121517    4P0P  00001600000000678400001007132D2    TGYOT-G 006400630017
BI00B32D2    DGTC2210       202201137116-5046-02             TERMINAL                 CCN000036000000036000FN00000000020220301000036000NNM   20211210121517    4P0P  00001200000000544800000873532D2    TGYOT-G 006400630017
BI00B32D2    DGTC2210       202201137116-6042                TERMINAL                 CCN000069000000069000FN00000000020220301000069000NNM   20211210121517    4P0P  00000300000000523800000856132D2    TGYOT-G 006400630015
BI00B32D2    DGTC2210       202201137126-8853-02             TERMINAL                 CCN000052500000052500FN00000000020220301000052500NNM   20211210121517    4P0P  00000750000000562500000847732D2    TGYOT-G 006400630015
BI00B32D2    DGTC2210       202201137126-8854-02             TERMINAL                 CCN000052500000052500FN00000000020220301000052500NNM   20211210121517    4P0P  00000750000000604500000889732D2    TGYOT-G 006400630015
BI00B32D2    DGTC2210       202201137126-8855-02             TERMINAL                 CCN000078000000078000FN00000000020220301000078000NNM   20211210121517    4P0P  00000600000000510600000795832D2    TGYOT-G 006400630015
BI00B32D2    DGTC2210       202201137158-3070-80             RUBBER STOPPER           CCN000080000000080000FN00000000020220301000080000NNM   20211210121517    1C0C  00004000000000276000000333332D2    TGYOT-G 002700430014
BI00B32D2    DGTC2210       202201137158-3166-60             WIRE SEAL                CCN000160000000160000FN00000000020220301000160000NNM   20211210121517    1C0C  00004000000000104000000152432D2    TGYOT-G 002700430014
BI00B32D2    DGTC2210       202201137158-3167-80             WIRE SEAL                CCN000120000000120000FN00000000020220301000120000NNM   20211210121517    1C0C  00002000000000048000000109032D2    TGYOT-G 002700430014
BI00B32D2    DGTC2210       202201137173-3291-40             LIF LEVER                CCN000009600000009600FN00000000020220301000009600NNM   20211210121517    1F0F  00000240000000867800001067832D2    TGYOT-G 005500360039
BI00B32D2    DGTC2210       202201137196-1325-02             TERMINAL FEMALE          CCN000780000000780000FN00000000020220301000780000NNM   20211210121517    4P0P  00006000000000450000000778732D2    TGYOT-G 006400630017
BI00B32D2    DGTC2210       202201137196-1326-02             TERMINAL FEMALE          CCN001560000001560000FN00000000020220301001560000NNM   20211210121517    4P0P  00006000000000456000000784732D2    TGYOT-G 006400630017
BI00B32D2    DGTC2210       202201137196-1327-02             TERMINAL FEMALE          CCN000104000000104000FN00000000020220301000104000NNM   20211210121517    4P0P  00005200000000336000000739532D2    TGYOT-G 006400630017
BI00B32D2    DGTC2210       202201137288-6547                CONNECTOR MALE ASS'Y     CCN000006750000006750FN00000000020220301000006750NNM   20211210121517    4N0N  00000075000001205300001340332D2    TGYOT-G 005400370024
BI00B32D2    DGTC2210       202201137289-3342                HOUSING FEMALE ASS'Y     CCN000122400000122400FN00000000020220301000122400NNM   20211210121517    1N0N  00000240000000686400000901432D2    TGYOT-G 005500360039
BI00B32D2    DGTC2210       202201137289-3342-30             HOUSING FEMALE ASS'Y     CCN000036000000036000FN00000000020220301000036000NNM   20211210121517    1N0N  00000240000000686400000901432D2    TGYOT-G 005500360039
BI00B32D2    DGTC2210       202201137289-3342-40             HOUSING FEMALE ASS'Y     CCN000038400000038400FN00000000020220301000038400NNM   20211210121517    1N0N  00000240000000686400000901432D2    TGYOT-G 005500360039
BI00B32D2    DGTC2210       202201137289-3342-90             HOUSING FEMALE ASS'Y     CCN000043200000043200FN00000000020220301000043200NNM   20211210121517    1N0N  00000240000000686400000901432D2    TGYOT-G 005500360039
BI00B32D2    DGTC2210       202201137289-6518-30             HOUSING FEMALE ASS'Y     CCN000009600000009600FN00000000020220301000009600NNM   20211210121517    1N0N  00000120000000829200001049232D2    TGYOT-G 005500360039
BI00B32D2    DGTC2210       202201137289-6547                HOUSING FEMALE ASS'Y     CCN000004800000004800FN00000000020220301000004800NNM   20211210121517    1N0N  00000240000001152000001362032D2    TGYOT-G 005500360039
BI00B32D2    DGTC2210       202201137296-0784-02             TERMINAL ALUMINIUM       CCN000144000000144000FN00000000020220301000144000NNM   20211210121517    4P0P  00002400000000480000000765232D2    TGYOT-G 006400630015
BI00B32D2    DGTC2210       202201137296-1020-02             TERMINAL ALUMINIUM       CCN000022500000022500FN00000000020220301000022500NNM   20211210121517    4P0P  00002250000000699800000985032D2    TGYOT-G 006400630015
BI00B32D2    DGTC2210       202201137296-1024-02             TERMINAL ALUMINIUM       CCN000018000000018000FN00000000020220301000018000NNM   20211210121517    4P0P  00001800000000698400000983632D2    TGYOT-G 006400630015
BI00B32D2    DGTC2210       202201137327-6801-3W             BATTERY FUSE             CCN000003840000003840FN00000000020220301000003840NNM   20211210121517    4N0N  00000009600000928400001143432D2    TGYOT-G 005500360039
BI00B32D2    DGTC2210       202201137327-6803                MULTI FUSE               CCN000001120000001120FN00000000020220301000001120NNM   20211210121517    4N0N  00000056000000854600001067032D2    TGYOT-G 005400370024
BI00B32D2    DGTC2210       202201137327-6806                MULTI FUSE               CCN000004480000004480FN00000000020220301000004480NNM   20211210121517    4N0N  00000056000000851500001063932D2    TGYOT-G 005400370024
BI00B32D2    DGTC2210       202201137327-6809                MULTI FUSE               CCN000003360000003360FN00000000020220301000003360NNM   20211210121517    4N0N  00000056000000849300001061732D2    TGYOT-G 005400370024
BI00B32D2    DGTC2210       202201137327-6930                MULTI FUSE               CCN000001120000001120FN00000000020220301000001120NNM   20211210121517    4N0N  00000056000000848900001031932D2    TGYOT-G 005400370024
BI00B32D2    DGTC2210       202201137388-2978-30             HOUSING MALE ASS'Y       CCN000013920000013920FN00000000020220301000013920NNM   20211210121517    1N0N  00000048000000742000001122032D2    TGYOT-G 005500360039
BI00B32D2    #DGTC2210      202201137158-3003-90             RUBBER STOPPER           CCN000200000000200000FN00000000020220301000200000NNM   20211210121517    2C0C  00002000000000250000000306032D2    TGYOT-G 002700430014
BI00B32D2    #DGTC2210      202201137158-3008-80             RUBBER STOPPER           CCN000060000000060000FN00000000020220301000060000NNM   20211210121517    2C0C  00002000000000288000000343032D2    TGYOT-G 004300270014
BI00B32D2    #DGTC2210      202201137158-3015-10             RUBBER STOPPER           CCN000020000000020000FN00000000020220301000020000NNM   20211210121517    2C0C  00001000000000419500000474032D2    TGYOT-G 002700430014
BI00B32D2    #DGTC2210      202201137158-3017                RUBBER STOPPER           CCN000040000000040000FN00000000020220301000040000NNM   20211210121517    2C0C  00001000000000375500000435032D2    TGYOT-G 002700430014
BI00B32D2    #DGTC2210      202201137158-3374-90             CONNECTOR WIRE SEAL      CCN000020000000020000FN00000000020220301000020000NNM   20211210121517    2H0H  00002000000000172000000229332D2    TGYOT-G 002700430014
BI00B32D2    #DGTC2210      202201137172-5629-80             RUBBER STOPPER           CCN000260000000260000FN00000000020220301000260000NNM   20211210121517    2H0H  00002000000000060000000111132D2    TGYOT-G 004300270014
BI00B32D2    #DGTC2210      202201137172-5630-40             RUBBER STOPPER           CCN000140000000140000FN00000000020220301000140000NNM   20211210121517    2H0H  00002000000000044000000095132D2    TGYOT-G 004300270014
BI00B32D2    #DGTC2210      202201137172-5631-60             RUBBER STOPPER           CCN000060000000060000FN00000000020220301000060000NNM   20211210121517    2H0H  00002000000000042000000093132D2    TGYOT-G 004300270014
BI00B32D2    #DGTC2210      202201137172-5632-10             DUMMY PLUG               CCN000160000000160000FN00000000020220301000160000NNM   20211210121517    2H0H  00002000000000080400000131832D2    TGYOT-G 004300270014
BI00B32D2    #DGTC2210      202201137189-3033                HOUSING FEMALE           CCN000004800000004800FN00000000020220301000004800NNM   20211210121517    2F0F  00000160000001211200001431232D2    TGYOT-G 005500360039
BI00B32D2    #DGTC2210      202201137189-3036                HOUSING FEMALE           CCN000003200000003200FN00000000020220301000003200NNM   20211210121517    2F0F  00000160000000921600001141632D2    TGYOT-G 005500360039
BI00B32D2    #DGTC2210      202201137283-1485-30             CONNECTOR                CCN000002000000002000FN00000000020220301000002000NNM   20211210121517    2N0N  00000200000001166800001316832D2    TGYOT-G 005500360039
BI00B32D2    #DGTC2210      202201137283-8226-30             CONNECTOR                CCN000008000000008000FN00000000020220301000008000NNM   20211210121517    2N0N  00000200000000820000001008032D2    TGYOT-G 005400370024
BI00B32D2    #DGTC2210      202201137289-2912-40             HOUSING FEMALE ASS'Y     CCN000002000000002000FN00000000020220301000002000NNM   20211210121517    2N0N  00000200000000804000000931032D2    TGYOT-G 005400370024
BI00B32D2    #DGTC2210      202201137289-3622-30             HOUSING FEMALE ASS'Y     CCN000001296000001296FN00000000020220301000001296NNM   20211210121517    2N0N  00000043200000839400001038432D2    TGYOT-G 005400370024
BI00B32D2    #DGTC2210      202201137289-4200-30             HOUSING FEMALE ASS'Y     CCN000002000000002000FN00000000020220301000002000NNM   20211210121517    2N0N  00000200000000926000001021032D2    TGYOT-G 005400370024
BI00B32D9    I10353         202112137289-3342-40             HOUSING FEMALE ASS'Y     CCN000004800000004800FN00000000020220101000004800NNM00020211210165527    1N0N  00000240000000686400000901432D9    UEHESTO 005500360039
BI00A32EJ    4500185158     202201067158-3167-61             WIRE SEAL                CCN000080000000080000FN00000000020220101000080000NNEM0020211210142020EJ  1C0C  00002000000000048000000096432EJ    EJYKBO  004300270014
BI00B32EJ    4500185673     202201067158-3166-60             WIRE SEAL                CCN000080000000080000FN00000000020220101000080000NNE   20211210121517EJ  1C0C  00004000000000104000000152432EJ    EJYKBO  002700430014
BI00B32EJ    4500185673     202201067158-3167-80             WIRE SEAL                CCN000040000000040000FN00000000020220101000040000NNE   20211210121517EJ  1C0C  00002000000000048000000109032EJ    EJYKBO  002700430014
BI00B32EJ    4500185627     202201067158-3070-80             RUBBER STOPPER           CCN000080000000080000FN00000000020220101000080000NNE   20211210121517EJ  1C0C  00004000000000276000000333332EJ    EJYKBO  002700430014
BI00B32EJ    #4500185627    202201067158-3120-90             CONNECTOR WIRE SEAL      CCN000060000000060000FN00000000020220101000060000NNE   20211210121517EJ  2C0C  00002000000000136000000194032EJ    EJYKBO  002700430014
BI00B32EJ    4500185624     202201067116-4025                TERMINAL                 CCN000016000000016000FN00000000020220101000016000NNE   20211210121517EJ  4P0P  00001600000000644800000975132EJ    EJYKBO  006400630017
BI00B32EJ    4500185624     202201067283-7449-40             HOUSING FEMALE ASS'Y     CCN000002400000002400FN00000000020220101000002400NNE   20211210121517EJ  4N0N  00000240000001200000001410032EJ    EJYKBO  005500360039
BI00B32EJ    4500185624     202201067283-1968-30             CONNECTOR                CCN000000900000000900FN00000000020220101000000900NNE   20211210121517EJ  1N0N  00000090000001140000001318332EJ    EJYKBO  005600390040
BI00B32EJ    4500185624     202201067116-4124-02             TERMINAL                 CCN000006000000006000FN00000000020220101000006000NNE   20211210121517EJ  4P0P  00000300000000459900000753532EJ    EJYKBO  006400630015
BI00B32EJ    4500185624     202201067196-1461-06             TERMINAL FEMALE          CCN000024000000024000FN00000000020220101000024000NNE   20211210121517EJ  4P0P  00002400000000386400000692932EJ    EJYKBO  006400630015
BI00B32EJ    4500185624     202201067116-4122-02             TERMINAL                 CCN000009000000009000FN00000000020220101000009000NNE   20211210121517EJ  4P0P  00000450000000656600000950232EJ    EJYKBO  006400630015
BI00B32EJ    4500185624     202201067116-4121-02             TERMINAL                 CCN000036000000036000FN00000000020220101000036000NNE   20211210121517EJ  4P0P  00000450000000618800000912432EJ    EJYKBO  006400630015
BI00B32EJ    4500185624     202201067126-8854-02             TERMINAL                 CCN000007500000007500FN00000000020220101000007500NNE   20211210121517EJ  4P0P  00000750000000604500000889732EJ    EJYKBO  006400630015
BI00B32EJ    4500185624     202201067126-8855-02             TERMINAL                 CCN000006000000006000FN00000000020220101000006000NNE   20211210121517EJ  4P0P  00000600000000510600000795832EJ    EJYKBO  006400630015
BI00B32EJ    4500185624     202201067158-3166-60             WIRE SEAL                CCN000480000000480000FN00000000020220101000480000NNE   20211210121517EJ  1C0C  00004000000000104000000152432EJ    EJYKBO  002700430014
BI00B32EJ    4500185624     202201067158-3167-80             WIRE SEAL                CCN000440000000440000FN00000000020220101000440000NNE   20211210121517EJ  1C0C  00002000000000048000000109032EJ    EJYKBO  002700430014
BI00B32EJ    4500185624     202201067158-3168-80             SEALED                   CCN000020000000020000FN00000000020220101000020000NNE   20211210121517EJ  1C0C  00002000000000044000000092132EJ    EJYKBO  004300260014
BI00B32EJ    4500185624     202201067158-3169-40             SEALING PLUG             CCN000200000000200000FN00000000020220101000200000NNE   20211210121517EJ  1C0C  00004000000000156000000204132EJ    EJYKBO  004300260014
BI00B32EJ    #4500185624    202201067157-3992-90             CONNECTOR SEALED         CCN000040000000040000FN00000000020220101000040000NNE   20211210121517EJ  2C0C  00004000000000300000000363332EJ    EJYKBO  002700430014
BI00B32EJ    #4500185624    202201067123-6423-30             CONNECTOR                CCN000004000000004000FN00000000020220101000004000NNE   20211210121517EJ  2F0F  00000200000001002000001167632EJ    EJYKBO  005600390023
BI00B32EJ    #4500185624    202201067282-6458-40             CONNECTOR                CCN000001000000001000FN00000000020220101000001000NNE   20211210121517EJ  2N0N  00000100000001206000001350532EJ    EJYKBO  005500360039
BI00B32EJ    4500185625     202201067158-3070-80             RUBBER STOPPER           CCN000040000000040000FN00000000020220101000040000NNE   20211210121517EJ  1C0C  00004000000000276000000333332EJ    EJYKBO  002700430014
BI00B32EJ    4500185626     202201067158-3070-80             RUBBER STOPPER           CCN000040000000040000FN00000000020220101000040000NNE   20211210121517EJ  1C0C  00004000000000276000000333332EJ    EJYKBO  002700430014
BI00B32EJ    4500185628     202201067158-3070-80             RUBBER STOPPER           CCN000040000000040000FN00000000020220101000040000NNE   20211210121517EJ  1C0C  00004000000000276000000333332EJ    EJYKBO  002700430014
BI00B32EJ    4500185628     202201067B58-3070-80             RUBBER STOPPER           CCN000040000000040000FN00000000020220101000040000NNE   20211210121517EJ  1C0C  00004000000000276000000333032EJ    EJYKBO  004300270014
BI00B32EJ    4500185628     202201067116-4101-02             TERMINAL                 CCN000012000000012000FN00000000020220101000012000NNE   20211210121517EJ  4P0P  00001200000000582000000876232EJ    EJYKBO  006400630015
BI00B32EJ    4500185628     202201067116-4111-02             TERMINAL                 CCN000015000000015000FN00000000020220101000015000NNE   20211210121517EJ  4P0P  00000750000000529500000817732EJ    EJYKBO  006400630015
BI00B32EJ    4500185628     202201067158-3166-60             WIRE SEAL                CCN000040000000040000FN00000000020220101000040000NNE   20211210121517EJ  1C0C  00004000000000104000000152432EJ    EJYKBO  002700430014
BI00B32EJ    4500185628     202201067158-3165-90             WIRE SEAL                CCN000040000000040000FN00000000020220101000040000NNE   20211210121517EJ  1C0C  00004000000000124000000172432EJ    EJYKBO  004300270014
BI00B32EJ    #4500185628    202201067158-3120-90             CONNECTOR WIRE SEAL      CCN000120000000120000FN00000000020220101000120000NNE   20211210121517EJ  2C0C  00002000000000136000000194032EJ    EJYKBO  002700430014
BI00B32EJ    #4500185628    202201067283-8398-40             CONNECTOR                CCN000001540000001540FN00000000020220101000001540NNE   20211210121517EJ  2N0N  00000154000001007000001171332EJ    EJYKBO  005600390023
BI00B32G2    SA21113 MW     202112227287-1917                CONNECTOR FEMALE         CCN000016800000016800FN00000000020211101000016800NNMD0020211210121517    4N0N  00000240000001060800001312532G2    AISUAI  005500360039
BI00B32G2    SA22013 MW     202112227114-4728-02             TERMINAL                 CCN001500000001500000FN00000000020220101001500000NNMD0420211210121517    4P0P  00003000000000510000000804232G2    AISUAI  006400630015
BI00B32G2    SA22013 MW     202112167116-5041-02             TERMINAL                 CCN001170000001170000FN00000000020220101001170000NNMD0020211210121517    4P0P  00001500000000583500000868732G2    AISUAI  006400630015
BI00B32G2    SA22013 MW     202112167116-5042-02             TERMINAL                 CCN000418500000418500FN00000000020220101000418500NNMD0020211210121517    4P0P  00001350000000560300000845532G2    AISUAI  006400630015
BI00B32G2    SA22013 MW     202112167116-5044-02             TERMINAL                 CCN000640000000640000FN00000000020220101000640000NNMD0020211210121517    4P0P  00001600000000641600000986332G2    AISUAI  006400630017
BI00B32G2    SA22013 MW     202112167116-5750-02             TERMINAL                 CCN000945000000945000FN00000000020220101000945000NNMD0020211210121517    4P0P  00001500000000457500000742732G2    AISUAI  006400630015
BI00B32G8    PATA2021       202201127017-1180-02             TERMINAL                 CCN000189000000216000FN00000000020220201000216000NNM   20211210132653    4P0P  00007200000001065600001229032G8    PSPASI  005100280028
BI00B32G8    PATA2021       202201127273-3570-0W             CASSETTE BRACKET         CCN000004800000004800FN00000000020220201000004800NNM   20211210132653    4N0N  00000010000000144100000196632G8    PSPASI  004300270014
BI00B32G8    PATA2021       202201127273-3573-0W             CASSETTE BRACKET         CCN000016800000016800FN00000000020220201000016800NNM   20211210132653    4N0N  00000010000000087700000140232G8    PSPASI  004300270014
BI00B32G8    PATA2021       202201127273-3571-0W             CASSETTE BRACKET         CCN000006600000006600FN00000000020220201000006600NNM   20211210132653    4N0N  00000010000000134600000187132G8    PSPASI  004300270014
BI00B32G8    PATA2021       202201127470-5302                J/B COMPLETE ASS'Y       CCN000004200000004200FN00000000020220201000004200NNM   20211210132653    4J0J  00000001000000494000000661032G8    PSPASI  005400370024
BI00B32G8    PATA2021       202201127470-5945                J/B COMPLETE ASS'Y       CCN000002400000002400FN00000000020220201000002400NNM   20211210132653    4J0J  00000001000000494000000661032G8    PSPASI  005400370024
BI00B32G8    PATA2021       202201127470-5938                J/B COMPLETE ASS'Y       CCN000000080000000080FN00000000020220201000000080NNM   20211210132653    4J0J  00000001000000494000000661032G8    PSPASI  005400370024
BI00B32G8    PATA2021       202201127470-5946                J/B COMPLETE ASS'Y       CCN000001350000001350FN00000000020220201000001350NNM   20211210132653    4J0J  00000001000000494000000661032G8    PSPASI  005400370024
BI00B32H2    TIJ1124        202112177283-4577-30             CONNECTOR HOUSING        CCN000014400000014400FN00000480020211201000009600NNM00020211210151759    4N0N  00000480000000916800001136832H2    HVYHV   005500360039
BI00B32H2    TIJ1124        202112177283-4855                CONNECTOR HOUSING        CCN000004800000004800FN00000000020211201000004800NNM00020211210151748    4N0N  00000240000001188400001400032H2    HVYHV   005500360039
BI00B32H2    TIJ1124        202112177289-6547                HOUSING FEMALE ASS'Y     CCN000007200000007200FN00000000020211201000007200NNM00020211210151808    1N0N  00000240000001152000001362032H2    HVYHV   005500360039
BI00A32H2    TIJ2014        202112137158-3006-90             RUBBER STOPPER           PCN000100000000100000FN00000000020220101000100000NNMD0020211210135239    1C0C  00002000000000330600000386032H2    HVYHV   002700430014
BI00B32H2    TIJ2011        202112177289-3342-30             HOUSING FEMALE ASS'Y     CCN000052800000052800FN00000000020220101000052800NNM00020211210151900    1N0N  00000240000000686400000901432H2    HVYHV   005500360039
BI00B32H2    TIJ2011        202112177289-6547                HOUSING FEMALE ASS'Y     CCN000009600000009600FN00000000020220101000009600NNM00020211210151849    1N0N  00000240000001152000001362032H2    HVYHV   005500360039
BI00B32H7    FS22013DMW     202112157283-4855                CONNECTOR HOUSING        CCN000004800000000000FY00000000020220101000000000NNMQ0820211210154151    4N0N  00000240000001188400001400032H7    FYFSY   005500360039
BI00B32H7    FS22014DMW     202112227283-4855                CONNECTOR HOUSING        CCN000004800000000000FY00000000020220101000000000NNMQ0820211210154204    4N0N  00000240000001188400001400032H7    FYFSY   005500360039
BI00B32H7    FS22012DMW     202112107289-6547                HOUSING FEMALE ASS'Y     CCN000009600000000000FY00000000020220101000000000NNMQ0820211210154002    1N0N  00000240000001152000001362032H7    FYFSY   005500360039
BI00B32H7    FS22013DMW     202112157289-6547                HOUSING FEMALE ASS'Y     CCN000009600000000000FY00000000020220101000000000NNMQ0820211210154050    1N0N  00000240000001152000001362032H7    FYFSY   005500360039
BI00B32H7    FS22014DMW     202112227289-6547                HOUSING FEMALE ASS'Y     CCN000004800000000000FY00000000020220101000000000NNMQ0820211210154106    1N0N  00000240000001152000001362032H7    FYFSY   005500360039
BI00B32H7    FS22013DMW     202112157289-6597-70             HOUSING FEMALE ASS'Y     CCN000002160000000000FY00000000020220101000000000NNMQ0820211210154328    4N0N  00000216000001289500001539532H7    FYFSY   005500360039
BI00B32H7    FS22014DMW     202112227289-6597-70             HOUSING FEMALE ASS'Y     CCN000002160000000000FY00000000020220101000000000NNMQ0820211210154421    4N0N  00000216000001289500001539532H7    FYFSY   005500360039
BI00B32H7    FS22014DMW     202112227327-6627-3W             BATTERY FUSE             CCN000001632000000000FY00000000020220101000000000NNMQ0820211210154448    4N0N  00000009600001332300001534632H7    FYFSY   005500360039
BI00B32H7    FS22013DMW     202112157327-6731-3W             BATTERY FUSE             CCN000003200000000000FY00000000020220101000000000NNMQ0820211210154522    4N0N  00000006400000697600000843032H7    FYFSY   005400370024
BI00B32H7    FS22014DMW     202112227327-6731-3W             BATTERY FUSE             CCN000001280000000000FY00000000020220101000000000NNMQ0820211210154636    4N0N  00000006400000697600000843032H7    FYFSY   005400370024
BI00B32H7    FS22014DMW     202112227388-2978-30             HOUSING MALE ASS'Y       CCN000017760000000000FY00000000020220101000000000NNMQ0820211210154656    1N0N  00000048000000742000001122032H7    FYFSY   005500360039
BI00B32H7    FS22021DMW     202201127297-3482                JOINT CONNECTOR          CCN000001500000001600FN00000000020220201000001600NNMD0420211210121517    4N0N  00000080000000621000000730532H7    FYFSY   005400370024
BI00B32H7    FS22021DMW     202201127298-3484                HOUSING FEMALE ASS'Y     CCN000002700000002700FN00000000020220201000002700NNMD0420211210121517    4N0N  00000270000000742500001028732H7    FYFSY   005400370024
BI00B32H7    FS22021DMW     202201127327-6949-30             MULTI FUSE               CCN000000576000000576FN00000000020220201000000576NNMD0420211210121517    4N00  00000028800000886700001052632H7    FYFSY   005400370024
BI00B32H7    FS22021DMW     202201127327-6950-30             MULTI FUSE               CCN000000576000000576FN00000000020220201000000576NNMD0420211210121517    4N00  00000028800000888700001054632H7    FYFSY   005400370024
BI00B32H7    FS22021DMW     202201127327-6954-30             MULTI FUSE               CCN000000600000000600FN00000000020220201000000600NNMD0420211210121517    4N00  00000060000000751600000954332H7    FYFSY   005400370024
BI00B32J1    388935         202112207116-5045-02             TERMINAL                 CCN000032000000032000FN00000000020220101000032000NNED0020211210121517    4P0P  00001600000000678400001007132J1    UKYEL-BL006400630017
BI00B32J1    388981         202112277158-3166-60             WIRE SEAL                CCN002160000002160000FN00000000020211201002160000NNMD0020211210155703    1C0C  00004000000000104000000152432J1    UKYEL-BL002700430014
BI00B32J1    388981         202112277158-3167-80             WIRE SEAL                CCN002640000002640000FN00000000020211201002640000NNMD0020211210155703    1C0C  00002000000000048000000109032J1    UKYEL-BL002700430014
BI00B32J1    388981         202112277158-3168-80             SEALED                   CCN000940000000940000FN00000000020211201000940000NNMD0020211210155703    1C0C  00002000000000044000000092132J1    UKYEL-BL004300260014
BI00B32J1    389306         202201047114-4231-02             TERMINAL                 CCN000072000000072000FN00000000020220101000072000NNM   20211210121517    4P0P  00001800000000554400000848032J1    UKYEL-BL006400630015
BI00B32J1    389306         202201047116-4020                TERMINAL                 CCN000013500000013500FN00000000020220101000013500NNM   20211210121517    4P0P  00001350000000513000000798232J1    UKYEL-BL006400630015
BI00B32J1    389306         202201047116-6042                TERMINAL                 CCN000015000000015000FN00000000020220101000015000NNM   20211210121517    4P0P  00000300000000523800000856132J1    UKYEL-BL006400630015
BI00B32J1    389306         202201047158-3165-90             WIRE SEAL                CCN000320000000320000FN00000000020220101000320000NNM   20211210121517    1C0C  00004000000000124000000172432J1    UKYEL-BL004300270014
BI00B32J1    389306         202201047158-3166-60             WIRE SEAL                CCN002160000002160000FN00000000020220101002160000NNM   20211210121517    1C0C  00004000000000104000000152432J1    UKYEL-BL002700430014
BI00B32J1    389306         202201047158-3167-61             WIRE SEAL                CCN000060000000060000FN00000000020220101000060000NNM   20211210121517    1C0C  00002000000000048000000096432J1    UKYEL-BL004300270014
BI00B32J1    389306         202201047158-3167-80             WIRE SEAL                CCN002640000002640000FN00000000020220101002640000NNM   20211210121517    1C0C  00002000000000048000000109032J1    UKYEL-BL002700430014
BI00B32J1    389306         202201047158-3168-80             SEALED                   CCN002160000002160000FN00000000020220101002160000NNM   20211210121517    1C0C  00002000000000044000000092132J1    UKYEL-BL004300260014
BI00B32J1    389306         202201047196-0104-02             TERMINAL                 CCN000038000000038000FN00000000020220101000038000NNM   20211210121517    4P0P  00003800000000570000000956432J1    UKYEL-BL006400630017
BI00B32J1    389306         202201047282-5574-10             CONNECTOR                CCN000009600000009600FN00000000020220101000009600NNM   20211210121517    4N0N  00000080000001235000001423032J1    UKYEL-BL005600390040
BI00B32J1    389306         202201047282-5684-10             CONNECTOR                CCN000003600000003600FN00000000020220101000003600NNM   20211210121517    4N0N  00000120000001477000001656032J1    UKYEL-BL005600390040
BI00B32J1    389306         202201047282-6448-40             CONNECTOR                CCN000003200000003200FN00000000020220101000003200NNM   20211210121517    4N0N  00000080000000887000001152732J1    UKYEL-BL005600390040
BI00B32J1    389306         202201047282-6568-40             CONNECTOR                CCN000004000000004000FN00000000020220101000004000NNM   20211210121517    4N0N  00000100000001206000001370732J1    UKYEL-BL005500360039
BI00B32J1    389306         202201047283-5830                CONNECTOR                CCN000030000000030000FN00000000020220101000030000NNM   20211210121517    1N47  00000600000000954000001104032J1    UKYEL-BL005500360039
BI00B32J1    389306         202201047283-5846                HOUSING                  CCN000027000000027000FN00000000020220101000027000NNM   20211210121517    1N0N  00000150000000885000001102032J1    UKYEL-BL005600390040
BI00B32J1    389306         202201047283-6448-40             CONNECTOR                CCN000007500000007500FN00000000020220101000007500NNM   20211210121517    4N0N  00000150000001087000001329032J1    UKYEL-BL005600390040
BI00B32J1    389306         202201047288-7969                HYBRID MALE ASS'Y        CCN000005120000005120FN00000000020220101000005120NNM   20211210121517    1N0N  00000032000000876200001101732J1    UKYEL-BL005400370024
BI00B32J1    389306         202201047298-1869-30             HOUSING FEMALE ASS'Y     CCN000008400000008400FN00000000020220101000008400NNM   20211210121517    4N0N  00000120000000737000000939832J1    UKYEL-BL005500360039
BI00B32J1    389306         202201047298-2507-30             HOUSING FEMALE ASS'Y     CCN000002400000002400FN00000000020220101000002400NNM   20211210121517    4N0N  00000120000000713200000914532J1    UKYEL-BL005500360039
BI00B32J1    #389306        202201047047-5344                RETAINER                 CCN000090000000090000FN00000000020220101000090000NNM   20211210121517    2F0F  00001000000000870000001016032J1    UKYEL-BL005600390023
BI00B32J1    #389306        202201047134-4547-30             COVER                    CCN000007500000007500FN00000000020220101000007500NNM   20211210121517    2F0F  00000250000000989000001156732J1    UKYEL-BL005600390040
BI00B32J1    #389306        202201047147-8717-30             CLIP                     CCN000020000000020000FN00000000020220101000020000NNM   20211210121517    2F0F  00000500000000660000000875032J1    UKYEL-BL005600390040
BI00B32J1    #389306        202201047157-3950-80             SEAL RUBBER              CCN000040000000040000FN00000000020220101000040000NNM   20211210121517    2C0C  00004000000000154000000440332J1    UKYEL-BL002700430014
BI00B32J1    #389306        202201047158-3003-90             RUBBER STOPPER           CCN000060000000060000FN00000000020220101000060000NNM   20211210121517    2C0C  00002000000000250000000306032J1    UKYEL-BL002700430014
BI00B32J1    #389306        202201047158-3120-90             CONNECTOR WIRE SEAL      CCN000420000000420000FN00000000020220101000420000NNM   20211210121517    2C0C  00002000000000136000000194032J1    UKYEL-BL002700430014
BI00B32J1    #389306        202201047158-3121-80             WIRE SEAL                CCN000080000000080000FN00000000020220101000080000NNM   20211210121517    2C0C  00002000000000118000000187332J1    UKYEL-BL002700430014
BI00B32J1    #389306        202201047174-1515                FRONT DOOR COVER         CCN000004200000004200FN00000000020220101000004200NNM   20211210121517    2F0F  00000060000000490200000610232J1    UKYEL-BL005500360039
BI00B32J1    #389306        202201047282-3243-40             CONNECTOR                CCN000012000000012000FN00000000020220101000012000NNM   20211210121517    2N0N  00000080000001006000001282332J1    UKYEL-BL005600390040
BI00B32J1    #389306        202201047282-4192-40             CONNECTOR                CCN000000720000000720FN00000000020220101000000720NNM   20211210121517    2N0N  00000024000000801000001083732J1    UKYEL-BL005600390040
BI00B32J1    #389306        202201047282-5545-10             CONNECTOR                CCN000028000000028000FN00000000020220101000028000NNM   20211210121517    2N0N  00000080000001293600001465332J1    UKYEL-BL005500360039
BI00B32J1    #389306        202201047282-6446-40             CONNECTOR                CCN000012000000012000FN00000000020220101000012000NNM   20211210121517    2N0N  00000150000001185000001368032J1    UKYEL-BL005500360039
BI00B32J1    #389306        202201047282-8395-40             CONNECTOR                CCN000002000000002000FN00000000020220101000002000NNM   20211210121517    2N0N  00000100000001009000001188032J1    UKYEL-BL005500360039
BI00B32J1    #389306        202201047283-4192-40             CONNECTOR                CCN000006240000006240FN00000000020220101000006240NNM   20211210121517    2N0N  00000024000000846000000986032J1    UKYEL-BL005600390040
BI00B32J1    #389306        202201047283-8397-40             CONNECTOR                CCN000003080000003080FN00000000020220101000003080NNM   20211210121517    2N0N  00000154000001007000001222732J1    UKYEL-BL005600390023
BI00B32J1    389343         202201247158-3070-80             RUBBER STOPPER           CCN000040000000040000FN00000000020220101000040000NNE   20211210121517    1C0C  00004000000000276000000333332J1    UKYEL-BL002700430014
BI00B32J1    #389343        202201247158-3120-90             CONNECTOR WIRE SEAL      CCN000020000000020000FN00000000020220101000020000NNE   20211210121517    2C0C  00002000000000136000000194032J1    UKYEL-BL002700430014
BI00A32J1    #389341        202112207147-8717-30             CLIP                     CCN000005000000005000FN00000000020211201000005000NNED0720211210121517    2F0F  00000500000000660000000875032J1    UKYEL-BL005600390040
BI00B32J1    389344         202202077283-7023-10             CONNECTOR                CCN000002500000002500FN00000000020220201000002500NNE   20211210121517    4N0N  00000250000001360000001550032J1    UKYEL-BL005500360039
BI00B32M1    TCV201A        202201067196-1102-02             TERMINAL                 CCN000022500000022500FN00000000020220101000022500NNE   20211210121517    4P0P  00002250000000405000000690232M1    VNYEV   006400630015
BI00B32M3    SM22013DMW     202112237287-1915-30             CONNECTOR ASS'Y          CCN000002400000002400FN00000000020220101000002400NNMD0620211210164611    4N0N  00000240000000666500000923132M3    SASAMI  005500360039
BI00B32M3    SM22014DMW     202201067287-1915-30             CONNECTOR ASS'Y          CCN000002400000002400FN00000000020220101000002400NNMD0620211210164635    4N0N  00000240000000666500000923132M3    SASAMI  005500360039
BI00B32M4    TP2021         202201137388-2978-30             HOUSING MALE ASS'Y       CCN000038400000038400FN00000000020220201000038400NNMD0420211210121517    1N0N  00000048000000742000001122032M4    SISAI   005500360039
BI00B32M4    TP2022         202201207388-2978-30             HOUSING MALE ASS'Y       CCN000038400000038400FN00000000020220201000038400NNMD0420211210121517    1N0N  00000048000000742000001122032M4    SISAI   005500360039
BI00B32M4    TP2023         202201277388-2978-30             HOUSING MALE ASS'Y       CCN000030720000030720FN00000000020220201000030720NNMD0420211210121517    1N0N  00000048000000742000001122032M4    SISAI   005500360039
BI00B32M4    TP2024         202202037388-2978-30             HOUSING MALE ASS'Y       CCN000023040000023040FN00000000020220201000023040NNMD0420211210121517    1N0N  00000048000000742000001122032M4    SISAI   005500360039
BI00B32M4    TP2025         202202107388-2978-30             HOUSING MALE ASS'Y       CCN000022560000022560FN00000000020220201000022560NNMD0420211210121517    1N0N  00000048000000742000001122032M4    SISAI   005500360039
BI00B32M4    TP2021         202201137327-6731-3W             BATTERY FUSE             CCN000003072000003072FN00000000020220201000003072NNMD0420211210121517    4N0N  00000006400000697600000843032M4    SISAI   005400370024
BI00B32M4    TP2022         202201207327-6731-3W             BATTERY FUSE             CCN000003072000003072FN00000000020220201000003072NNMD0420211210121517    4N0N  00000006400000697600000843032M4    SISAI   005400370024
BI00B32M4    TP2023         202201277327-6731-3W             BATTERY FUSE             CCN000002496000002496FN00000000020220201000002496NNMD0420211210121517    4N0N  00000006400000697600000843032M4    SISAI   005400370024
BI00B32M4    TP2024         202202037327-6731-3W             BATTERY FUSE             CCN000001856000001856FN00000000020220201000001856NNMD0420211210121517    4N0N  00000006400000697600000843032M4    SISAI   005400370024
BI00B32M4    TP2025         202202107327-6731-3W             BATTERY FUSE             CCN000001792000001792FN00000000020220201000001792NNMD0420211210121517    4N0N  00000006400000697600000843032M4    SISAI   005400370024
BI00B32M4    TP2021         202201137288-6598-70             HOUSING MALE ASS'Y       CCN000001440000001440FN00000000020220201000001440NNMD0420211210121517    4N0N  00000144000001074200001429232M4    SISAI   005500360039
BI00B32M4    TP2022         202201207288-6598-70             HOUSING MALE ASS'Y       CCN000001440000001440FN00000000020220201000001440NNMD0420211210121517    4N0N  00000144000001074200001429232M4    SISAI   005500360039
BI00B32M4    TP2023         202201277288-6598-70             HOUSING MALE ASS'Y       CCN000001440000001440FN00000000020220201000001440NNMD0420211210121517    4N0N  00000144000001074200001429232M4    SISAI   005500360039
BI00B32M4    TP2024         202202037288-6598-70             HOUSING MALE ASS'Y       CCN000001440000001440FN00000000020220201000001440NNMD0420211210121517    4N0N  00000144000001074200001429232M4    SISAI   005500360039
BI00B32M4    TP1123         202112137286-1915                CONNECTOR SUB ASSY       CCN000016000000016000FN00000000020211201000016000NNM00020211210140306    4N0N  00000160000000965600001165632M4    SISAI   005500360039
BI00B32M4    TP1123         202112137283-4854-40             CONNECTOR HOUSING        CCN000012000000012000FN00000000020211201000012000NNM00020211210140357    4N0N  00000240000000694100000914132M4    SISAI   005500360039
BI00B32N3    NBT202 A2      202112237286-3885                CONNECTOR MALE ASS'Y     CCN000004800000003600FN00000000020220201000003600NNMQ0820211210170429    1N0N  00000120000000910600001130632N3    ABYIPL-B005500360039
BI00B32Q8    EU2201BDMW     202201057C89-6868-30             SEALED ASSY FEMALE       CCN000005040000005040FN00000000020220101000005040NNED0420211210121517    4N0N  00000252000000839200001119232Q8    EMEMI   005500360039
BI00B32Q8    EU2201FTMW     202201057327-6950-30             MULTI FUSE               CCN000001152000001152FN00000000020220101000001152NNED0720211210121517    4N00  00000028800000888700001054632Q8    EMEMI   005400370024
BI00B32Q8    EU2201FTMW     202201057327-6954-30             MULTI FUSE               CCN000001200000001200FN00000000020220101000001200NNED0720211210121517    4N00  00000060000000751600000954332Q8    EMEMI   005400370024
BI00B32Q8    #EU2201FTMW    202112227189-3033-30             HOUSING FEMALE           CCN000003200000003200FN00000000020220101000003200NNE   20211210121517    2F0F  00000160000001208000001428032Q8    EMEMI   005500360039
BI00B32Q8    EU2202A MW     202201057114-4020                TERMINAL                 CCN000063000000063000FN00000000020220201000063000NNE   20211210121517    4P0P  00002100000000875700001169332Q8    EMEMI   006400630015
BI00B32Q8    EU2202A MW     202201057114-4021                TERMINAL                 CCN000030000000030000FN00000000020220201000030000NNE   20211210121517    4P0P  00001500000000670500000964132Q8    EMEMI   006400630015
BI00B32Q8    EU2202A MW     202201057114-4031                TERMINAL                 CCN000010500000010500FN00000000020220201000010500NNE   20211210121517    4P0P  00001050000000966000001294632Q8    EMEMI   006400630017
BI00B32Q8    EU2202A MW     202201057114-5747-02             TERMINAL                 CCN000018000000018000FN00000000020220201000018000NNE   20211210121517    4P0P  00001800000000626400000920032Q8    EMEMI   006400630015
BI00B32Q8    EU2202A MW     202201057114-5748-02             TERMINAL                 CCN000012000000012000FN00000000020220201000012000NNE   20211210121517    4P0P  00001200000000444000000737632Q8    EMEMI   006400630015
BI00B32Q8    EU2202A MW     202201057116-1685-02             TERMINAL                 CCN000048000000048000FN00000000020220201000048000NNE   20211210121517    4P0P  00002400000000897600001065232Q8    EMEMI   005100280028
BI00B32Q8    EU2202A MW     202201057116-1686-02             TERMINAL                 CCN000021000000021000FN00000000020220201000021000NNE   20211210121517    4P0P  00002100000000869400001021632Q8    EMEMI   005100280028
BI00B32Q8    EU2202A MW     202201057116-4028-08             TERMINAL FEMALE          CCN000032000000032000FN00000000020220201000032000NNE   20211210121517    4P0P  00001600000000652800000981532Q8    EMEMI   006400630017
BI00B32Q8    EU2202A MW     202201057116-5045-02             TERMINAL                 CCN000608000000608000FN00000000020220201000608000NNE   20211210121517    4P0P  00001600000000678400001007132Q8    EMEMI   006400630017
BI00B32Q8    EU2202A MW     202201057158-3009-60             RUBBER STOPPER           CCN000380000000380000FN00000000020220201000380000NNE   20211210121517    1C0C  00002000000000338000000386232Q8    EMEMI   002700430014
BI00B32Q8    EU2202A MW     202201057158-3070-80             RUBBER STOPPER           CCN000120000000120000FN00000000020220201000120000NNE   20211210121517    1C0C  00004000000000276000000333332Q8    EMEMI   002700430014
BI00B32Q8    EU2202A MW     202201057158-3165-90             WIRE SEAL                CCN000080000000080000FN00000000020220201000080000NNE   20211210121517    1C0C  00004000000000124000000172432Q8    EMEMI   004300270014
BI00B32Q8    EU2202A MW     202201057282-1065                CONNECTOR                CCN000009000000009000FN00000000020220201000009000NNE   20211210121517    1N0N  00000150000000795000001012032Q8    EMEMI   005600390040
BI00B32Q8    EU2202A MW     202201057282-7028-30             CONNECTOR                CCN000002000000002000FN00000000020220201000002000NNE   20211210121517    1N0N  00000200000001124000001212532Q8    EMEMI   005600390040
BI00B32Q8    EU2202A MW     202201057283-1028                CONNECTOR HOUSING        CCN000006000000006000FN00000000020220201000006000NNE   20211210121517    4N0N  00000600000000779000001019332Q8    EMEMI   005600390040
BI00B32Q8    EU2202A MW     202201057283-5845                CONNECTOR HOUSING        CCN000006000000006000FN00000000020220201000006000NNE   20211210121517    1N0N  00000600000000444000000606332Q8    EMEMI   005400370024
BI00B32Q8    EU2202A MW     202201057283-7526-30             CONNECTOR HOUSING        CCN000003920000003920FN00000000020220201000003920NNE   20211210121517    4N0N  00000196000000989800001248632Q8    EMEMI   005500360039
BI00B32Q8    EU2202A MW     202201057283-7526-40             CONNECTOR HOUSING        CCN000005880000005880FN00000000020220201000005880NNE   20211210121517    4N0N  00000196000000989800001248632Q8    EMEMI   005500360039
BI00B32Q8    EU2202A MW     202201057283-8630                CONNECTOR ASS'Y          CCN000006000000006000FN00000000020220201000006000NNE   20211210121517    4N0N  00000600000000540000000701332Q8    EMEMI   005400370024
BI00B32Q8    #EU2202A MW    202201057157-3952-80             RUBBER STOPPER           CCN000010000000010000FN00000000020220201000010000NNE   20211210121517    2C0C  00001000000000117000000175032Q8    EMEMI   002700430014
BI00B32Q8    #EU2202A MW    202201057158-3004-40             RUBBER STOPPER           CCN000040000000040000FN00000000020220201000040000NNE   20211210121517    2C0C  00002000000000234000000306332Q8    EMEMI   002700430014
BI00B32Q8    #EU2202A MW    202201057158-3007-10             RUBBER STOPPER           CCN000140000000140000FN00000000020220201000140000NNE   20211210121517    2H0H  00002000000000308000000362732Q8    EMEMI   002700430014
BI00B32Q8    #EU2202A MW    202201057183-2412                HOUSING                  CCN000008000000008000FN00000000020220201000008000NNE   20211210121517    2F0F  00000160000001059200001245632Q8    EMEMI   005500360039
BI00B32Q8    #EU2202A MW    202201057183-2412-30             HOUSING                  CCN000003200000003200FN00000000020220201000003200NNE   20211210121517    2F0F  00000160000001059700001059732Q8    EMEMI   005500360039
BI00B32Q8    #EU2202A MW    202201057283-1065                CONNECTOR                CCN000002500000002500FN00000000020220201000002500NNE   20211210121517    2N0N  00000250000001152500001310432Q8    EMEMI   005500360039
BI00B32Q8    #EU2202A MW    202201057283-1161                CONNECTOR FEMALE         CCN000004000000004000FN00000000020220201000004000NNE   20211210121517    2N0N  00000100000000602000000711032Q8    EMEMI   005400370024
BI00B32Q8    #EU2202A MW    202201057283-5834-30             CONNECTOR ASS'Y          CCN000006480000006480FN00000000020220201000006480NNE   20211210121517    2N0N  00000324000001296000001853432Q8    EMEMI   005600390040
BI00B32Q8    #EU2202A MW    202201057283-8123                CONNECTOR HOUSING        CCN000004000000004000FN00000000020220201000004000NNE   20211210121517    2N0N  00000400000000380000000531732Q8    EMEMI   005600390023
BI00B32Q8    @EU2202A MW    202201057283-1223-30             HOUSING SUB ASSEMBLY     CCN000009600000009600FN00000000020220201000009600NNE   20211210121517    3N0N  00000480000000749300000998032Q8    EMEMI   005500360039
BI00B32Q8    EU2202ADMW     202201057B72-5540-80             SEALED WIRE SEAL         CCN000020000000020000FN00000000020220201000020000NNE   20211210121517    1C0C  00002000000000186000000234432Q8    EMEMI   004300270014
BI00B32Q8    EU2202ADMW     202201057B74-1849-70             COVER                    CCN000050000000050000FN00000000020220201000050000NNE   20211210121517    1F0F  00002500000000622500000761932Q8    EMEMI   005400370024
BI00B32Q8    EU2202ADMW     202201057B96-0805-02             TERMINAL FEMALE          CCN000022500000022500FN00000000020220201000022500NNE   20211210121517    4P0P  00002250000000558000000843232Q8    EMEMI   006400630015
BI00B32Q8    EU2202ADMW     202201057C89-6868-30             SEALED ASSY FEMALE       CCN000015120000015120FN00000000020220201000015120NNE   20211210121517    4N0N  00000252000000839200001119232Q8    EMEMI   005500360039
BI00B32Q8    EU2202ADMW     202201057C98-1145-4W             SQUIB SUB ASS'Y          CCN000010000000010000FN00000000020220201000010000NNE   20211210121517    4N0N  00001000000000787900000944932Q8    EMEMI   005400370024
BI00B32Q8    EU2202ADMW     202201057388-0314                CONNECTOR ASS'Y          CCN000009600000009600FN00000000020220201000009600NNE   20211210121517    4N0N  00000120000001038000001132332Q8    EMEMI   005400370024
BI00B32Q8    #EU2202ADMW    202201057183-8251-40             HOUSING                  CCN000009600000009600FN00000000020220201000009600NNE   20211210121517    2F0F  00000240000000357600000640032Q8    EMEMI   005500360039
BI00B32Q8    #EU2202ADMW    202201057287-8860                HOUSING FEMALE ASS'Y     CCN000011200000011200FN00000000020220201000011200NNE   20211210121517    2N0N  00000160000000693400000853432Q8    EMEMI   005400370024
BI00B32Q8    #EU2202ADMW    202201057287-8861                HOUSING FEMALE ASS'Y     CCN000003200000003200FN00000000020220201000003200NNE   20211210121517    2N0N  00000160000000769000000929032Q8    EMEMI   005400370024
BI00B32Q8    EU2202ANMW     202201057287-0192-40             SEALED HOUSING ASS'Y     CCN000000480000000480FN00000000020220201000000480NNE   20211210121517    4N0N  00000048000001092000001322032Q8    EMEMI   005600390040
BI00B32Q8    #EU2202ANMW    202201057183-9954                CONNECTOR HOUSING        CCN000002500000002500FN00000000020220201000002500NNE   20211210121517    2F0F  00000250000001304000001478032Q8    EMEMI   005500360039
BI00B32Q8    EU2202ETMW     202201057327-6950-30             MULTI FUSE               CCN000000864000000864FN00000000020220201000000864NNE00020211210121517    4N00  00000028800000888700001054632Q8    EMEMI   005400370024
BI00B32Q8    EU2202ETMW     202201057327-6952-30             MULTI FUSE               CCN000000560000000560FN00000000020220201000000560NNE00020211210121517    4N0N  00000056000000848500001031532Q8    EMEMI   005400370024
BI00B32Q8    EU2202ETMW     202201057327-6954-30             MULTI FUSE               CCN000000600000000600FN00000000020220201000000600NNE00020211210121517    4N00  00000060000000751600000954332Q8    EMEMI   005400370024
BI00B32Q8    EU2202FTMW     202201057114-4728-02             TERMINAL                 CCN000300000000300000FN00000000020220201000300000NNE   20211210121517    4P0P  00003000000000510000000804232Q8    EMEMI   006400630015
BI00B32Q8    EU2202FTMW     202201057114-4728-08             TERMINAL                 CCN000060000000060000FN00000000020220201000060000NNE   20211210121517    4P0P  00003000000000507000000801232Q8    EMEMI   006400630015
BI00B32Q8    EU2202FTMW     202201057116-5041-02             TERMINAL                 CCN000120000000120000FN00000000020220201000120000NNE   20211210121517    4P0P  00001500000000583500000868732Q8    EMEMI   006400630015
BI00B32Q8    EU2202FTMW     202201057116-5097-02             TERMINAL                 CCN000045000000045000FN00000000020220201000045000NNE   20211210121517    4P0P  00002250000000531000000816232Q8    EMEMI   006400630015
BI00B32Q8    EU2202FTMW     202201057282-8120-40             CONNECTOR HOUSING        CCN000003000000003000FN00000000020220201000003000NNE   20211210121517    1N0N  00000300000001356000001520032Q8    EMEMI   005500360039
BI00B32Q8    EU2202FTMW     202201057283-4576-30             HOUSING FEMALE ASS'Y     CCN000004800000004800FN00000000020220201000004800NNE   20211210121517    4N0N  00000480000000651300000871332Q8    EMEMI   005500360039
BI00B32Q8    EU2202FTMW     202201057283-4855                CONNECTOR HOUSING        CCN000002400000002400FN00000000020220201000002400NNE   20211210121517    4N0N  00000240000001188400001400032Q8    EMEMI   005500360039
BI00B32Q8    EU2202FTMW     202201057286-1900                CONNECTOR HOUSING        CCN000004800000004800FN00000000020220201000004800NNE   20211210121517    4N0N  00000480000001161600001376632Q8    EMEMI   005500360039
BI00B32Q8    EU2202FTMW     202201057286-3885-40             CONNECTOR MALE ASS'Y     CCN000002400000002400FN00000000020220201000002400NNE   20211210121517    1N0N  00000120000000910600001130632Q8    EMEMI   005500360039
BI00B32Q8    EU2202FTMW     202201057287-1915                CONNECTOR ASS'Y          CCN000004800000004800FN00000000020220201000004800NNE   20211210121517    4N0N  00000240000000666500000923132Q8    EMEMI   005500360039
BI00B32Q8    EU2202FTMW     202201057287-3885                HYBRID FEMALE ASS'Y      CCN000002400000002400FN00000000020220201000002400NNE   20211210121517    1N0N  00000240000001029600001249632Q8    EMEMI   005500360039
BI00B32Q8    EU2202FTMW     202201057287-9234                JOINT CONNECTOR          CCN000009600000009600FN00000000020220201000009600NNE   20211210121517    4N0N  00000960000000893800001184832Q8    EMEMI   005500360039
BI00B32Q8    EU2202FTMW     202201057288-3336-30             HOUSING MALE             CCN000003000000003000FN00000000020220201000003000NNE   20211210121517    4N0N  00000150000000867000001012032Q8    EMEMI   005400370024
BI00B32Q8    EU2202FTMW     202201057288-3340-30             HOUSING MALE             CCN000003000000003000FN00000000020220201000003000NNE   20211210121517    4N0N  00000150000000861500001006432Q8    EMEMI   005400370024
BI00B32Q8    EU2202FTMW     202201057288-6547                CONNECTOR MALE ASS'Y     CCN000003000000003000FN00000000020220201000003000NNE   20211210121517    4N0N  00000075000001205300001340332Q8    EMEMI   005400370024
BI00B32Q8    EU2202FTMW     202201057327-6806                MULTI FUSE               CCN000008400000008400FN00000000020220201000008400NNE   20211210121517    4N0N  00000056000000851500001063932Q8    EMEMI   005400370024
BI00B32Q8    EU2202FTMW     202201057327-6809                MULTI FUSE               CCN000007280000007280FN00000000020220201000007280NNE   20211210121517    4N0N  00000056000000849300001061732Q8    EMEMI   005400370024
BI00B32Q8    EU2202FTMW     202201057327-6949-30             MULTI FUSE               CCN000000864000000864FN00000000020220201000000864NNE   20211210121517    4N00  00000028800000886700001052632Q8    EMEMI   005400370024
BI00B32Q8    EU2202FTMW     202201057327-6950-30             MULTI FUSE               CCN000000288000000288FN00000000020220201000000288NNE   20211210121517    4N00  00000028800000888700001054632Q8    EMEMI   005400370024
BI00B32Q8    EU2202FTMW     202201057327-6952-30             MULTI FUSE               CCN000001120000001120FN00000000020220201000001120NNE   20211210121517    4N0N  00000056000000848500001031532Q8    EMEMI   005400370024
BI00B32Q8    EU2202FTMW     202201057327-6954-30             MULTI FUSE               CCN000000600000000600FN00000000020220201000000600NNE   20211210121517    4N00  00000060000000751600000954332Q8    EMEMI   005400370024
BI00B32Q8    #EU2202FTMW    202201057154-5597-30             CASSETTE R/B             CCN000001600000001600FN00000000020220201000001600NNE   20211210121517    2F0F  00000080000000736000000952032Q8    EMEMI   005500360039
BI00B32Q8    #EU2202FTMW    202201057158-7586-30             BLOCK LIF                CCN000001600000001600FN00000000020220201000001600NNE   20211210121517    2F0F  00000080000000617400000844232Q8    EMEMI   005500360039
BI00B32Q8    #EU2202FTMW    202201057172-5625-90             RUBBER STOPPER           CCN000140000000140000FN00000000020220201000140000NNE   20211210121517    2H0H  00002000000000082400000133832Q8    EMEMI   004300270014
BI00B32Q8    #EU2202FTMW    202201057172-5631-60             RUBBER STOPPER           CCN000340000000340000FN00000000020220201000340000NNE   20211210121517    2H0H  00002000000000042000000093132Q8    EMEMI   004300270014
BI00B32Q8    #EU2202FTMW    202201057183-1616-30             CONNECTOR HOUSING        CCN000004800000004800FN00000000020220201000004800NNE   20211210121517    2F0F  00000240000000557500000837132Q8    EMEMI   005500360039
BI00B32Q8    #EU2202FTMW    202201057183-2412-90             HOUSING                  CCN000003200000003200FN00000000020220201000003200NNE   20211210121517    2F0F  00000160000001065300001224432Q8    EMEMI   005500360039
BI00B32Q8    #EU2202FTMW    202201057183-2416                HOUSING                  CCN000012000000012000FN00000000020220201000012000NNE   20211210121517    2F0F  00000240000001495200001771032Q8    EMEMI   005500360039
BI00B32Q8    #EU2202FTMW    202201057189-3033-30             HOUSING FEMALE           CCN000001600000001600FN00000000020220201000001600NNE   20211210121517    2F0F  00000160000001208000001428032Q8    EMEMI   005500360039
BI00B32Q8    #EU2202FTMW    202201057282-5528-70             HOUSING MALE ASS'Y       CCN000005000000005000FN00000000020220201000005000NNE   20211210121517    2N0N  00000100000000230000000339032Q8    EMEMI   005400370024
BI00B32Q8    #EU2202FTMW    202201057282-7064-40             HOUSING MALE ASS'Y       CCN000001200000001200FN00000000020220201000001200NNE   20211210121517    2N00  00000060000000599400000766432Q8    EMEMI   005400370024
BI00B32Q8    #EU2202FTMW    202201057287-1670                HOUSING FEMALE ASS'Y     CCN000005600000005600FN00000000020220201000005600NNE   20211210121517    2N0N  00000280000000953100001145132Q8    EMEMI   005400370024
BI00B32Q8    #EU2202FTMW    202201057287-1671                HOUSING FEMALE ASS'Y     CCN000004000000004000FN00000000020220201000004000NNE   20211210121517    2N0N  00000200000000782600000974632Q8    EMEMI   005400370024
BI00B32Q8    #EU2202FTMW    202201057287-7859                HYBRID FEMALE ASS'Y      CCN000003600000003600FN00000000020220201000003600NNE   20211210121517    2N0N  00000120000000461600000671632Q8    EMEMI   005500360039
BI00B32Q8    #EU2202FTMW    202201057287-7860                HYBRID FEMALE ASS'Y      CCN000004800000004800FN00000000020220201000004800NNE   20211210121517    2N0N  00000120000000644000000650432Q8    EMEMI   005500360039
BI00B32Q8    #EU2202FTMW    202201057289-2918-40             HOUSING FEMALE ASS'Y     CCN000003000000003000FN00000000020220201000003000NNE   20211210121517    2N0N  00000100000001020000001147032Q8    EMEMI   005400360024
BI00B32Q8    #EU2202FTMW    202201057298-4919-30             HOUSING FEMALE ASS'Y     CCN000012600000012600FN00000000020220201000012600NNE   20211210121517    2N0N  00000060000000727200000837932Q8    EMEMI   005400370024
BI00B32Q8    EU2202GTMW     202201127327-6949-30             MULTI FUSE               CCN000000288000000288FN00000000020220201000000288NNE   20211210121517    4N00  00000028800000886700001052632Q8    EMEMI   005400370024
BI00B32Q8    EU2202GTMW     202201127327-6950-30             MULTI FUSE               CCN000000576000000576FN00000000020220201000000576NNE   20211210121517    4N00  00000028800000888700001054632Q8    EMEMI   005400370024
BI00B32Q8    EU2202GTMW     202201127327-6952-30             MULTI FUSE               CCN000000560000000560FN00000000020220201000000560NNE   20211210121517    4N0N  00000056000000848500001031532Q8    EMEMI   005400370024
BI00B32Q8    EU2202GTMW     202201127327-6954-30             MULTI FUSE               CCN000000600000000600FN00000000020220201000000600NNE   20211210121517    4N00  00000060000000751600000954332Q8    EMEMI   005400370024
BI00B32Q8    EU2202HTMW     202201197327-6949-30             MULTI FUSE               CCN000000576000000576FN00000000020220201000000576NNE   20211210121517    4N00  00000028800000886700001052632Q8    EMEMI   005400370024
BI00B32Q8    EU2202HTMW     202201197327-6950-30             MULTI FUSE               CCN000001728000001728FN00000000020220201000001728NNE   20211210121517    4N00  00000028800000888700001054632Q8    EMEMI   005400370024
BI00B32Q8    EU2202HTMW     202201197327-6952-30             MULTI FUSE               CCN000001120000001120FN00000000020220201000001120NNE   20211210121517    4N0N  00000056000000848500001031532Q8    EMEMI   005400370024
BI00B32Q8    EU2202HTMW     202201197327-6954-30             MULTI FUSE               CCN000001200000001200FN00000000020220201000001200NNE   20211210121517    4N00  00000060000000751600000954332Q8    EMEMI   005400370024
BI00B32Q8    #EU2202HTMW    202201197189-3033-30             HOUSING FEMALE           CCN000001600000001600FN00000000020220201000001600NNE   20211210121517    2F0F  00000160000001208000001428032Q8    EMEMI   005500360039
BI00B32Q8    #EU2202HTMW    202201197287-1918-40             HOUSING FEMALE ASS'Y     CCN000001800000001980FN00000000020220201000001980NNE   20211210121517    2N0N  00000198000001015500001212032Q8    EMEMI   005400370024
BI00B32Q8    EU22034 MW     202202237017-1180-02             TERMINAL                 CCN000288000000288000FN00000000020220301000288000NNM   20211210130005    4P0P  00007200000001065600001229032Q8    EMEMI   005100280028
BI00B32Q8    EU22031 MW     202202027114-4020                TERMINAL                 CCN000063000000063000FN00000000020220301000063000NNM   20211210130005    4P0P  00002100000000875700001169332Q8    EMEMI   006400630015
BI00B32Q8    EU22032 MW     202202097114-4020                TERMINAL                 CCN000042000000042000FN00000000020220301000042000NNM   20211210130005    4P0P  00002100000000875700001169332Q8    EMEMI   006400630015
BI00B32Q8    EU22033 MW     202202167114-4020                TERMINAL                 CCN000021000000021000FN00000000020220301000021000NNM   20211210130005    4P0P  00002100000000875700001169332Q8    EMEMI   006400630015
BI00B32Q8    EU22034 MW     202202237114-4020                TERMINAL                 CCN000042000000042000FN00000000020220301000042000NNM   20211210130005    4P0P  00002100000000875700001169332Q8    EMEMI   006400630015
BI00B32Q8    EU22031 MW     202202027114-4021                TERMINAL                 CCN000045000000045000FN00000000020220301000045000NNM   20211210130005    4P0P  00001500000000670500000964132Q8    EMEMI   006400630015
BI00B32Q8    EU22032 MW     202202097114-4021                TERMINAL                 CCN000045000000045000FN00000000020220301000045000NNM   20211210130005    4P0P  00001500000000670500000964132Q8    EMEMI   006400630015
BI00B32Q8    EU22034 MW     202202237114-4021                TERMINAL                 CCN000045000000045000FN00000000020220301000045000NNM   20211210130005    4P0P  00001500000000670500000964132Q8    EMEMI   006400630015
BI00B32Q8    EU22031 MW     202202027114-4031                TERMINAL                 CCN000010500000010500FN00000000020220301000010500NNM   20211210130005    4P0P  00001050000000966000001294632Q8    EMEMI   006400630017
BI00B32Q8    EU22034 MW     202202237114-4416-02             TERMINAL MALE            CCN000027000000027000FN00000000020220301000027000NNM   20211210130005    4P0P  00002700000000442800000731032Q8    EMEMI   006400630015
BI00B32Q8    EU22031 MW     202202027114-4729-02             TERMINAL                 CCN000240000000240000FN00000000020220301000240000NNM   20211210130005    4P0P  00003000000000516000000810232Q8    EMEMI   006400630015
BI00B32Q8    EU22032 MW     202202097114-4729-02             TERMINAL                 CCN000120000000120000FN00000000020220301000120000NNM   20211210130005    4P0P  00003000000000516000000810232Q8    EMEMI   006400630015
BI00B32Q8    EU22033 MW     202202167114-4729-02             TERMINAL                 CCN000150000000150000FN00000000020220301000150000NNM   20211210130005    4P0P  00003000000000516000000810232Q8    EMEMI   006400630015
BI00B32Q8    EU22034 MW     202202237114-4729-02             TERMINAL                 CCN000150000000150000FN00000000020220301000150000NNM   20211210130005    4P0P  00003000000000516000000810232Q8    EMEMI   006400630015
BI00B32Q8    EU22031 MW     202202027114-5747-02             TERMINAL                 CCN000036000000036000FN00000000020220301000036000NNM   20211210130005    4P0P  00001800000000626400000920032Q8    EMEMI   006400630015
BI00B32Q8    EU22032 MW     202202097114-5747-02             TERMINAL                 CCN000036000000036000FN00000000020220301000036000NNM   20211210130005    4P0P  00001800000000626400000920032Q8    EMEMI   006400630015
BI00B32Q8    EU22033 MW     202202167114-5747-02             TERMINAL                 CCN000018000000018000FN00000000020220301000018000NNM   20211210130005    4P0P  00001800000000626400000920032Q8    EMEMI   006400630015
BI00B32Q8    EU22034 MW     202202237114-5747-02             TERMINAL                 CCN000036000000036000FN00000000020220301000036000NNM   20211210130005    4P0P  00001800000000626400000920032Q8    EMEMI   006400630015
BI00B32Q8    EU22031 MW     202202027114-5748-02             TERMINAL                 CCN000036000000036000FN00000000020220301000036000NNM   20211210130005    4P0P  00001200000000444000000737632Q8    EMEMI   006400630015
BI00B32Q8    EU22032 MW     202202097114-5748-02             TERMINAL                 CCN000048000000048000FN00000000020220301000048000NNM   20211210130005    4P0P  00001200000000444000000737632Q8    EMEMI   006400630015
BI00B32Q8    EU22033 MW     202202167114-5748-02             TERMINAL                 CCN000036000000036000FN00000000020220301000036000NNM   20211210130005    4P0P  00001200000000444000000737632Q8    EMEMI   006400630015
BI00B32Q8    EU22034 MW     202202237114-5748-02             TERMINAL                 CCN000048000000048000FN00000000020220301000048000NNM   20211210130005    4P0P  00001200000000444000000737632Q8    EMEMI   006400630015
BI00B32Q8    EU22031 MW     202202027116-1685-02             TERMINAL                 CCN000024000000024000FN00000000020220301000024000NNM   20211210130005    4P0P  00002400000000897600001065232Q8    EMEMI   005100280028
BI00B32Q8    EU22032 MW     202202097116-1685-02             TERMINAL                 CCN000024000000024000FN00000000020220301000024000NNM   20211210130005    4P0P  00002400000000897600001065232Q8    EMEMI   005100280028
BI00B32Q8    EU22031 MW     202202027116-1686-02             TERMINAL                 CCN000021000000021000FN00000000020220301000021000NNM   20211210130005    4P0P  00002100000000869400001021632Q8    EMEMI   005100280028
BI00B32Q8    EU22031 MW     202202027116-2891-02             TERMINAL                 CCN000015000000015000FN00000000020220301000015000NNM   20211210130005    4P0P  00001500000000982500001145932Q8    EMEMI   005100280028
BI00B32Q8    EU22032 MW     202202097116-2891-02             TERMINAL                 CCN000060000000060000FN00000000020220301000060000NNM   20211210130005    4P0P  00001500000000982500001145932Q8    EMEMI   005100280028
BI00B32Q8    EU22033 MW     202202167116-2891-02             TERMINAL                 CCN000060000000060000FN00000000020220301000060000NNM   20211210130005    4P0P  00001500000000982500001145932Q8    EMEMI   005100280028
BI00B32Q8    EU22034 MW     202202237116-2891-02             TERMINAL                 CCN000060000000060000FN00000000020220301000060000NNM   20211210130005    4P0P  00001500000000982500001145932Q8    EMEMI   005100280028
BI00B32Q8    EU22031 MW     202202027116-2892-02             TERMINAL                 CCN000048000000048000FN00000000020220301000048000NNM   20211210130005    4P0P  00001200000000818400000981832Q8    EMEMI   005100280028
BI00B32Q8    EU22032 MW     202202097116-2892-02             TERMINAL                 CCN000048000000048000FN00000000020220301000048000NNM   20211210130005    4P0P  00001200000000818400000981832Q8    EMEMI   005100280028
BI00B32Q8    EU22033 MW     202202167116-2892-02             TERMINAL                 CCN000048000000048000FN00000000020220301000048000NNM   20211210130005    4P0P  00001200000000818400000981832Q8    EMEMI   005100280028
BI00B32Q8    EU22034 MW     202202237116-2892-02             TERMINAL                 CCN000048000000048000FN00000000020220301000048000NNM   20211210130005    4P0P  00001200000000818400000981832Q8    EMEMI   005100280028
BI00B32Q8    EU22031 MW     202202027116-2893-02             TERMINAL                 CCN000216000000216000FN00000000020220301000216000NNM   20211210130005    4P0P  00001200000000895200001058632Q8    EMEMI   005100280028
BI00B32Q8    EU22032 MW     202202097116-2893-02             TERMINAL                 CCN000144000000144000FN00000000020220301000144000NNM   20211210130005    4P0P  00001200000000895200001058632Q8    EMEMI   005100280028
BI00B32Q8    EU22033 MW     202202167116-2893-02             TERMINAL                 CCN000144000000144000FN00000000020220301000144000NNM   20211210130005    4P0P  00001200000000895200001058632Q8    EMEMI   005100280028
BI00B32Q8    EU22034 MW     202202237116-2893-02             TERMINAL                 CCN000132000000132000FN00000000020220301000132000NNM   20211210130005    4P0P  00001200000000895200001058632Q8    EMEMI   005100280028
BI00B32Q8    EU22031 MW     202202027116-3154-08             TERMINAL                 CCN000027000000027000FN00000000020220301000027000NNM   20211210130005    4P0P  00002700000000475200000760432Q8    EMEMI   006400630015
BI00B32Q8    EU22033 MW     202202167116-3154-08             TERMINAL                 CCN000027000000027000FN00000000020220301000027000NNM   20211210130005    4P0P  00002700000000475200000760432Q8    EMEMI   006400630015
BI00B32Q8    EU22033 MW     202202167116-4025                TERMINAL                 CCN000112000000112000FN00000000020220301000112000NNM   20211210130005    4P0P  00001600000000644800000975132Q8    EMEMI   006400630017
BI00B32Q8    EU22034 MW     202202237116-4025                TERMINAL                 CCN000160000000160000FN00000000020220301000160000NNM   20211210130005    4P0P  00001600000000644800000975132Q8    EMEMI   006400630017
BI00B32Q8    EU22031 MW     202202027116-4028-08             TERMINAL FEMALE          CCN000288000000288000FN00000000020220301000288000NNM   20211210130005    4P0P  00001600000000652800000981532Q8    EMEMI   006400630017
BI00B32Q8    EU22032 MW     202202097116-4028-08             TERMINAL FEMALE          CCN000272000000272000FN00000000020220301000272000NNM   20211210130005    4P0P  00001600000000652800000981532Q8    EMEMI   006400630017
BI00B32Q8    EU22033 MW     202202167116-4028-08             TERMINAL FEMALE          CCN000272000000272000FN00000000020220301000272000NNM   20211210130005    4P0P  00001600000000652800000981532Q8    EMEMI   006400630017
BI00B32Q8    EU22034 MW     202202237116-4028-08             TERMINAL FEMALE          CCN000336000000336000FN00000000020220301000336000NNM   20211210130005    4P0P  00001600000000652800000981532Q8    EMEMI   006400630017
BI00B32Q8    EU22033 MW     202202167116-4031                TERMINAL                 CCN000007500000007500FN00000000020220301000007500NNM   20211210130005    4P0P  00000750000000619500000904732Q8    EMEMI   006400630015
BI00B32Q8    EU22034 MW     202202237116-4031                TERMINAL                 CCN000007500000007500FN00000000020220301000007500NNM   20211210130005    4P0P  00000750000000619500000904732Q8    EMEMI   006400630015
BI00B32Q8    EU22031 MW     202202027116-4032                TERMINAL                 CCN000006000000006000FN00000000020220301000006000NNM   20211210130005    4P0P  00000600000000532800000818032Q8    EMEMI   006400630015
BI00B32Q8    EU22032 MW     202202097116-4032                TERMINAL                 CCN000054000000054000FN00000000020220301000054000NNM   20211210130005    4P0P  00000600000000532800000818032Q8    EMEMI   006400630015
BI00B32Q8    EU22033 MW     202202167116-4032                TERMINAL                 CCN000060000000060000FN00000000020220301000060000NNM   20211210130005    4P0P  00000600000000532800000818032Q8    EMEMI   006400630015
BI00B32Q8    EU22034 MW     202202237116-4032                TERMINAL                 CCN000066000000066000FN00000000020220301000066000NNM   20211210130005    4P0P  00000600000000532800000818032Q8    EMEMI   006400630015
BI00B32Q8    EU22033 MW     202202167116-4037                TERMINAL                 CCN000114000000114000FN00000000020220301000114000NNM   20211210130005    4P0P  00000600000000600000000894232Q8    EMEMI   006400630015
BI00B32Q8    EU22034 MW     202202237116-4037                TERMINAL                 CCN000132000000132000FN00000000020220301000132000NNM   20211210130005    4P0P  00000600000000600000000894232Q8    EMEMI   006400630015
BI00B32Q8    EU22031 MW     202202027116-4231-02             TERMINAL                 CCN000052000000052000FN00000000020220301000052000NNM   20211210130005    4P0P  00002600000000683800001012532Q8    EMEMI   006400630017
BI00B32Q8    EU22032 MW     202202097116-4231-02             TERMINAL                 CCN000026000000026000FN00000000020220301000026000NNM   20211210130005    4P0P  00002600000000683800001012532Q8    EMEMI   006400630017
BI00B32Q8    EU22033 MW     202202167116-4231-02             TERMINAL                 CCN000078000000078000FN00000000020220301000078000NNM   20211210130005    4P0P  00002600000000683800001012532Q8    EMEMI   006400630017
BI00B32Q8    EU22034 MW     202202237116-4231-02             TERMINAL                 CCN000104000000104000FN00000000020220301000104000NNM   20211210130005    4P0P  00002600000000683800001012532Q8    EMEMI   006400630017
BI00B32Q8    EU22031 MW     202202027116-4416-02             TERMINAL                 CCN000064000000064000FN00000000020220301000064000NNM   20211210130005    4P0P  00003200000000518400000847132Q8    EMEMI   006400630017
BI00B32Q8    EU22032 MW     202202097116-4416-02             TERMINAL                 CCN000032000000032000FN00000000020220301000032000NNM   20211210130005    4P0P  00003200000000518400000847132Q8    EMEMI   006400630017
BI00B32Q8    EU22033 MW     202202167116-4416-02             TERMINAL                 CCN000224000000224000FN00000000020220301000224000NNM   20211210130005    4P0P  00003200000000518400000847132Q8    EMEMI   006400630017
BI00B32Q8    EU22034 MW     202202237116-4416-02             TERMINAL                 CCN000224000000224000FN00000000020220301000224000NNM   20211210130005    4P0P  00003200000000518400000847132Q8    EMEMI   006400630017
BI00B32Q8    EU22031 MW     202202027116-5045-02             TERMINAL                 CCN000224000000224000FN00000000020220301000224000NNM   20211210130005    4P0P  00001600000000678400001007132Q8    EMEMI   006400630017
BI00B32Q8    EU22032 MW     202202097116-5045-02             TERMINAL                 CCN000112000000112000FN00000000020220301000112000NNM   20211210130005    4P0P  00001600000000678400001007132Q8    EMEMI   006400630017
BI00B32Q8    EU22033 MW     202202167116-5045-02             TERMINAL                 CCN000112000000112000FN00000000020220301000112000NNM   20211210130005    4P0P  00001600000000678400001007132Q8    EMEMI   006400630017
BI00B32Q8    EU22034 MW     202202237116-5045-02             TERMINAL                 CCN000112000000112000FN00000000020220301000112000NNM   20211210130005    4P0P  00001600000000678400001007132Q8    EMEMI   006400630017
BI00B32Q8    EU22031 MW     202202027116-5751-02             TERMINAL                 CCN000120000000120000FN00000000020220301000120000NNM   20211210130005    4P0P  00001200000000379200000664432Q8    EMEMI   006400630015
BI00B32Q8    EU22032 MW     202202097116-5751-02             TERMINAL                 CCN000120000000120000FN00000000020220301000120000NNM   20211210130005    4P0P  00001200000000379200000664432Q8    EMEMI   006400630015
BI00B32Q8    EU22033 MW     202202167116-5751-02             TERMINAL                 CCN000228000000228000FN00000000020220301000228000NNM   20211210130005    4P0P  00001200000000379200000664432Q8    EMEMI   006400630015
BI00B32Q8    EU22034 MW     202202237116-5751-02             TERMINAL                 CCN000252000000252000FN00000000020220301000252000NNM   20211210130005    4P0P  00001200000000379200000664432Q8    EMEMI   006400630015
BI00B32Q8    EU22031 MW     202202027116-6041                TERMINAL                 CCN000009000000009000FN00000000020220301000009000NNM   20211210130005    4P0P  00000450000000716000001009632Q8    EMEMI   006400630015
BI00B32Q8    EU22032 MW     202202097116-6041                TERMINAL                 CCN000009000000009000FN00000000020220301000009000NNM   20211210130005    4P0P  00000450000000716000001009632Q8    EMEMI   006400630015
BI00B32Q8    EU22033 MW     202202167116-6041                TERMINAL                 CCN000009000000009000FN00000000020220301000009000NNM   20211210130005    4P0P  00000450000000716000001009632Q8    EMEMI   006400630015
BI00B32Q8    EU22034 MW     202202237116-6041                TERMINAL                 CCN000009000000009000FN00000000020220301000009000NNM   20211210130005    4P0P  00000450000000716000001009632Q8    EMEMI   006400630015
BI00B32Q8    EU22031 MW     202202027116-6042                TERMINAL                 CCN000045000000045000FN00000000020220301000045000NNM   20211210130005    4P0P  00000300000000523800000856132Q8    EMEMI   006400630015
BI00B32Q8    EU22032 MW     202202097116-6042                TERMINAL                 CCN000063000000063000FN00000000020220301000063000NNM   20211210130005    4P0P  00000300000000523800000856132Q8    EMEMI   006400630015
BI00B32Q8    EU22033 MW     202202167116-6042                TERMINAL                 CCN000060000000060000FN00000000020220301000060000NNM   20211210130005    4P0P  00000300000000523800000856132Q8    EMEMI   006400630015
BI00B32Q8    EU22034 MW     202202237116-6042                TERMINAL                 CCN000066000000066000FN00000000020220301000066000NNM   20211210130005    4P0P  00000300000000523800000856132Q8    EMEMI   006400630015
BI00B32Q8    EU22031 MW     202202027126-8853-02             TERMINAL                 CCN000105000000105000FN00000000020220301000105000NNM   20211210130005    4P0P  00000750000000562500000847732Q8    EMEMI   006400630015
BI00B32Q8    EU22032 MW     202202097126-8853-02             TERMINAL                 CCN000120000000120000FN00000000020220301000120000NNM   20211210130005    4P0P  00000750000000562500000847732Q8    EMEMI   006400630015
BI00B32Q8    EU22033 MW     202202167126-8853-02             TERMINAL                 CCN000127500000127500FN00000000020220301000127500NNM   20211210130005    4P0P  00000750000000562500000847732Q8    EMEMI   006400630015
BI00B32Q8    EU22034 MW     202202237126-8853-02             TERMINAL                 CCN000120000000120000FN00000000020220301000120000NNM   20211210130005    4P0P  00000750000000562500000847732Q8    EMEMI   006400630015
BI00B32Q8    EU22031 MW     202202027126-8854-02             TERMINAL                 CCN000015000000015000FN00000000020220301000015000NNM   20211210130005    4P0P  00000750000000604500000889732Q8    EMEMI   006400630015
BI00B32Q8    EU22032 MW     202202097126-8854-02             TERMINAL                 CCN000090000000090000FN00000000020220301000090000NNM   20211210130005    4P0P  00000750000000604500000889732Q8    EMEMI   006400630015
BI00B32Q8    EU22033 MW     202202167126-8854-02             TERMINAL                 CCN000097500000097500FN00000000020220301000097500NNM   20211210130005    4P0P  00000750000000604500000889732Q8    EMEMI   006400630015
BI00B32Q8    EU22034 MW     202202237126-8854-02             TERMINAL                 CCN000097500000097500FN00000000020220301000097500NNM   20211210130005    4P0P  00000750000000604500000889732Q8    EMEMI   006400630015
BI00B32Q8    EU22031 MW     202202027126-8855-02             TERMINAL                 CCN000018000000018000FN00000000020220301000018000NNM   20211210130005    4P0P  00000600000000510600000795832Q8    EMEMI   006400630015
BI00B32Q8    EU22032 MW     202202097126-8855-02             TERMINAL                 CCN000132000000132000FN00000000020220301000132000NNM   20211210130005    4P0P  00000600000000510600000795832Q8    EMEMI   006400630015
BI00B32Q8    EU22033 MW     202202167126-8855-02             TERMINAL                 CCN000132000000132000FN00000000020220301000132000NNM   20211210130005    4P0P  00000600000000510600000795832Q8    EMEMI   006400630015
BI00B32Q8    EU22034 MW     202202237126-8855-02             TERMINAL                 CCN000126000000126000FN00000000020220301000126000NNM   20211210130005    4P0P  00000600000000510600000795832Q8    EMEMI   006400630015
BI00B32Q8    EU22031 MW     202202027158-3006-90             RUBBER STOPPER           CCN000280000000280000FN00000000020220301000280000NNM   20211210130005    1C0C  00002000000000330600000386032Q8    EMEMI   002700430014
BI00B32Q8    EU22032 MW     202202097158-3006-90             RUBBER STOPPER           CCN000280000000280000FN00000000020220301000280000NNM   20211210130005    1C0C  00002000000000330600000386032Q8    EMEMI   002700430014
BI00B32Q8    EU22033 MW     202202167158-3006-90             RUBBER STOPPER           CCN000920000000920000FN00000000020220301000920000NNM   20211210130005    1C0C  00002000000000330600000386032Q8    EMEMI   002700430014
BI00B32Q8    EU22034 MW     202202237158-3006-90             RUBBER STOPPER           CCN000920000000920000FN00000000020220301000920000NNM   20211210130005    1C0C  00002000000000330600000386032Q8    EMEMI   002700430014
BI00B32Q8    EU22031 MW     202202027158-3009-60             RUBBER STOPPER           CCN000800000000800000FN00000000020220301000800000NNM   20211210130005    1C0C  00002000000000338000000386232Q8    EMEMI   002700430014
BI00B32Q8    EU22032 MW     202202097158-3009-60             RUBBER STOPPER           CCN000800000000800000FN00000000020220301000800000NNM   20211210130005    1C0C  00002000000000338000000386232Q8    EMEMI   002700430014
BI00B32Q8    EU22033 MW     202202167158-3009-60             RUBBER STOPPER           CCN000740000000740000FN00000000020220301000740000NNM   20211210130005    1C0C  00002000000000338000000386232Q8    EMEMI   002700430014
BI00B32Q8    EU22034 MW     202202237158-3009-60             RUBBER STOPPER           CCN000840000000840000FN00000000020220301000840000NNM   20211210130005    1C0C  00002000000000338000000386232Q8    EMEMI   002700430014
