BI00B32AF    @TTB204B       20220408181B0911741              CAVSAS 0.3X3 GY          CCN000018500000018500FN00000000020220401000018500NNE20 20220321162132    1W    00000025000002843000000000032AF    HBYHVTB 000000000000UT124001
BI00B32AF    @TTB204B       20220408181E48013ZZ              CAVSAS-S 0.3X3 GY        CCN000023500000023500FN00000000020220401000023500NNE20 20220321162132    1W    00000025000002778200000000032AF    HBYHVTB 000000000000UT124002
BI00B32DE    @TT2052        20220331181AD2003ZZ              CIVUSAS-S 0.35X3 B       CCN000009100000009100FN00000000020220501000009100NNM22 20220321125917    1W    00000035000002172100000000032DE    TVYEV-TV000000000000VT124013
BI00B32G2    @SA2204ANMW    20220330181B32102Z8              AVSSCS 0.5FX2 DGY/O      CCN000000300000000300FN00000000020220401000000300NNE   20220321113941    1W    00000030000002779000000000032G2    AISUAI  000000000000IP323001
BI00B32G2    SA2204C MW     2022033018007704040              AVSS 0.75F W             CCN000001000000001000FN00000000020220401000001000NNE   20220321113942    1W    00000100000000943000000000032G2    AISUAI  000000000000IQ323002
BI00B32G2    @SA2204C MW    20220330181B32102S1              AVSSCS 0.5FX2 DGY        CCN000000300000000300FN00000000020220401000000300NNE   20220321113942    1W    00000030000002903000000000032G2    AISUAI  000000000000IQ323001
BI00B32G2    SA2204DJMW     202203301801W004070              IVSSH 0.75F Y            CCN000001300000001300FN00000000020220401000001300NNE   20220321113944    1W    00000130000000882000000000032G2    AISUAI  000000000000IS323003
BI00B32H8    2205A MW       2022040818007704037              AVSS 0.75F B/Y           CCN000004000000004000FN00000000020220501000004000NNE   20220321133251    1W    00000100000000943000000000032H8    TYTYC   000000000000LH423002
BI00B32H8    2205A MW       2022040818007704060              AVSS 0.75F G             CCN000002000000002000FN00000000020220501000002000NNE   20220321133251    1W    00000100000000943000000000032H8    TYTYC   000000000000LH423003
BI00B32H8    @2205A MW      20220408181B32102S1              AVSSCS 0.5FX2 DGY        CCN000003900000003900FN00000000020220501000003900NNE   20220321130847    1W    00000030000002903000000000032H8    TYTYC   000000000000LH423001
BI00B32H8    2205AKMW       20220408180D0204039              AVSSH 0.75F B/L          CCN000001000000001000FN00000000020220501000001000NNE   20220321133252    1W    00000100000000934000000000032H8    TYTYC   000000000000LL423001
BI00B32H8    2205AKMW       2022040818007704061              AVSS 0.75F LG            CCN000001000000001000FN00000000020220501000001000NNE   20220321133252    1W    00000100000000943000000000032H8    TYTYC   000000000000LL423002
BI00B32M3    SM2204B MW     20220407180D0203791              AVSSH 0.3F SB            CCN000004000000004000FN00000000020220401000004000NNE   20220321134705    1W    00000200000000515000000000032M3    SASAMI  000000000000QL423001
BI00B32M8    PM2204D MW     2022040618007703930              AVSS 0.5F B              CCN000003000000003000FN00000000020220401000003000NNE   20220321133646    1W    00000150000000674000000000032M8    PMPEMI  000000000000IV423004
BI00B32M8    PM2204D MW     2022040618007703940              AVSS 0.5F W              CCN000001500000001500FN00000000020220401000001500NNE   20220321133646    1W    00000150000000674000000000032M8    PMPEMI  000000000000IV423007
BI00B32M8    PM2204D MW     2022040618007703943              AVSS 0.5F W/B            CCN000001500000001500FN00000000020220401000001500NNE   20220321133646    1W    00000150000000674000000000032M8    PMPEMI  000000000000IV423008
BI00B32M8    PM2204D MW     2022040618007703950              AVSS 0.5F R              CCN000001500000001500FN00000000020220401000001500NNE   20220321133646    1W    00000150000000674000000000032M8    PMPEMI  000000000000IV423006
BI00B32M8    PM2204D MW     2022040618007703952              AVSS 0.5F P              CCN000003000000003000FN00000000020220401000003000NNE   20220321133646    1W    00000150000000674000000000032M8    PMPEMI  000000000000IV423005
BI00B32M8    PM2204D MW     2022040618007704040              AVSS 0.75F W             CCN000001000000001000FN00000000020220401000001000NNE   20220321133646    1W    00000100000000943000000000032M8    PMPEMI  000000000000IV423010
BI00B32M8    PM2204D MW     2022040618007704050              AVSS 0.75F R             CCN000001000000001000FN00000000020220401000001000NNE   20220321133646    1W    00000100000000943000000000032M8    PMPEMI  000000000000IV423009
BI00B32M8    PM2204D MW     2022040618007704170              AVSS 1.25F Y             CCN000002400000002400FN00000000020220401000002400NNE   20220321133646    1W    00000080000001389000000000032M8    PMPEMI  000000000000IV423011
BI00B32M8    @PM2204D MW    20220406181B09102K3              CAVSAS 0.5X2 GY/P        CCN000000600000000600FN00000000020220401000000600NNE   20220321131548    1W    00000030000002680000000000032M8    PMPEMI  000000000000IV423001
BI00B32M8    @PM2204D MW    20220406181F21009ZZ              AVSSHCS-S 0.5FX2 B       CCN000003300000003300FN00000000020220401000003300NNE   20220321131548    1W    00000030000002531400000000032M8    PMPEMI  000000000000IV423002
BI00B32M8    PM2204DTMW     202204061801W003930              IVSSH 0.5F B             CCN000010800000010800FN00000000020220401000010800NNE   20220321133648    1W    00000180000000625000000000032M8    PMPEMI  000000000000IG423001
BI00B32M8    PM2204DTMW     202204061801W003943              IVSSH 0.5F W/B           CCN000014400000014400FN00000000020220401000014400NNE   20220321133648    1W    00000180000000625000000000032M8    PMPEMI  000000000000IG423007
BI00B32M8    PM2204DTMW     202204061801W00395U              IVSSH 0.5F BE            CCN000003600000003600FN00000000020220401000003600NNE   20220321133648    1W    00000180000000625000000000032M8    PMPEMI  000000000000IG423002
BI00B32M8    PM2204DTMW     202204061801W003970              IVSSH 0.5F Y             CCN000018000000018000FN00000000020220401000018000NNE   20220321133648    1W    00000180000000625000000000032M8    PMPEMI  000000000000IG423008
BI00B32M8    PM2204DTMW     202204061801W003980              IVSSH 0.5F BR            CCN000005400000005400FN00000000020220401000005400NNE   20220321133648    1W    00000180000000625000000000032M8    PMPEMI  000000000000IG423003
BI00B32M8    PM2204DTMW     202204061801W003990              IVSSH 0.5F L             CCN000012600000012600FN00000000020220401000012600NNE   20220321133648    1W    00000180000000625000000000032M8    PMPEMI  000000000000IG423004
BI00B32M8    PM2204DTMW     202204061801W003991              IVSSH 0.5F SB            CCN000014400000014400FN00000000020220401000014400NNE   20220321133648    1W    00000180000000625000000000032M8    PMPEMI  000000000000IG423005
BI00B32M8    PM2204DTMW     202204061801W003992              IVSSH 0.5F V             CCN000001800000001800FN00000000020220401000001800NNE   20220321133648    1W    00000180000000625000000000032M8    PMPEMI  000000000000IG423006
BI00B32M8    PM2204DTMW     202204061801W004030              IVSSH 0.75F B            CCN000003900000003900FN00000000020220401000003900NNE   20220321133648    1W    00000130000000882000000000032M8    PMPEMI  000000000000IG423009
BI00B32M8    PM2204DTMW     202204061801W004040              IVSSH 0.75F W            CCN000002600000002600FN00000000020220401000002600NNE   20220321133648    1W    00000130000000882000000000032M8    PMPEMI  000000000000IG423010
BI00B32M8    PM2204DTMW     202204061801W006930              IVSSH 0.35F B            CCN000015000000015000FN00000000020220401000015000NNE   20220321133648    1W    00000250000000452000000000032M8    PMPEMI  000000000000IG423011
BI00B32M8    PM2204DTMW     202204061801W00695U              IVSSH 0.35F BE           CCN000002500000002500FN00000000020220401000002500NNE   20220321133648    1W    00000250000000452000000000032M8    PMPEMI  000000000000IG423012
BI00B32M8    PM2204DTMW     202204061801W006950              IVSSH 0.35F R            CCN000005000000005000FN00000000020220401000005000NNE   20220321133648    1W    00000250000000452000000000032M8    PMPEMI  000000000000IG423013
BI00B32M8    PM2204DTMW     202204061801W006991              IVSSH 0.35F SB           CCN000005000000005000FN00000000020220401000005000NNE   20220321133648    1W    00000250000000452000000000032M8    PMPEMI  000000000000IG423014
BI00B32R7    R-TAP220134    2022040718009603990              AVS 0.5 L                CCN000001000000001000FN00000000020220401000001000NNE   20220321133127    1W    00000100000000850000000000032R7    IVYCIC  000000000000SU423001
BI00B32R7    R-TAP220135    2022040718018403740              CAVS 0.3 W               CCN000002000000002000FN00000000020220401000002000NNE   20220321133128    1W    00000200000000471000000000032R7    IVYCIC  000000000000SV423002
BI00B32R7    R-TAP220135    2022040718018403750              CAVS 0.3 R               CCN000004000000004000FN00000000020220401000004000NNE   20220321133128    1W    00000200000000471000000000032R7    IVYCIC  000000000000SV423001
BI00B32R8    TT2205AAMW     20220405180D0203939              AVSSH 0.5F B/L           CCN000001500000001500FN00000000020220501000001500NNE   20220321135157    1W    00000150000000689000000000032R8    TTTJY   000000000000NX423001
BI00B32R8    TT2205AAMW     20220405180D0203935              AVSSH 0.5F B/R           CCN000003000000003000FN00000000020220501000003000NNE   20220321135157    1W    00000150000000689000000000032R8    TTTJY   000000000000NX423002
BI00B32R8    TT2205AAMW     20220405180D0203980              AVSSH 0.5F BR            CCN000019500000019500FN00000000020220501000019500NNE   20220321135157    1W    00000150000000689000000000032R8    TTTJY   000000000000NX423003
BI00B32R8    TT2205AAMW     20220405180D0203960              AVSSH 0.5F G             CCN000001500000001500FN00000000020220501000001500NNE   20220321135157    1W    00000150000000689000000000032R8    TTTJY   000000000000NX423004
BI00B32R8    TT2205AAMW     20220405180D0203963              AVSSH 0.5F G/B           CCN000004500000004500FN00000000020220501000004500NNE   20220321135157    1W    00000150000000689000000000032R8    TTTJY   000000000000NX423005
BI00B32R8    TT2205AAMW     20220405180D0203965              AVSSH 0.5F G/R           CCN000003000000003000FN00000000020220501000003000NNE   20220321135157    1W    00000150000000689000000000032R8    TTTJY   000000000000NX423006
BI00B32R8    TT2205AAMW     20220405180D0203967              AVSSH 0.5F G/Y           CCN000003000000003000FN00000000020220501000003000NNE   20220321135157    1W    00000150000000689000000000032R8    TTTJY   000000000000NX423007
BI00B32R8    TT2205AAMW     20220405180D0203941              AVSSH 0.5F GY            CCN000001500000001500FN00000000020220501000001500NNE   20220321135157    1W    00000150000000689000000000032R8    TTTJY   000000000000NX423008
BI00B32R8    TT2205AAMW     20220405180D0203990              AVSSH 0.5F L             CCN000001500000001500FN00000000020220501000001500NNE   20220321135157    1W    00000150000000689000000000032R8    TTTJY   000000000000NX423009
BI00B32R8    TT2205AAMW     20220405180D0203993              AVSSH 0.5F L/B           CCN000006000000006000FN00000000020220501000006000NNE   20220321135157    1W    00000150000000689000000000032R8    TTTJY   000000000000NX423010
BI00B32R8    TT2205AAMW     20220405180D0203995              AVSSH 0.5F L/R           CCN000004500000004500FN00000000020220501000004500NNE   20220321135157    1W    00000150000000689000000000032R8    TTTJY   000000000000NX423011
BI00B32R8    TT2205AAMW     20220405180D0203994              AVSSH 0.5F L/W           CCN000003000000003000FN00000000020220501000003000NNE   20220321135157    1W    00000150000000689000000000032R8    TTTJY   000000000000NX423012
BI00B32R8    TT2205AAMW     20220405180D0203997              AVSSH 0.5F L/Y           CCN000003000000003000FN00000000020220501000003000NNE   20220321135157    1W    00000150000000689000000000032R8    TTTJY   000000000000NX423013
BI00B32R8    TT2205AAMW     20220405180D0203961              AVSSH 0.5F LG            CCN000003000000003000FN00000000020220501000003000NNE   20220321135157    1W    00000150000000689000000000032R8    TTTJY   000000000000NX423014
BI00B32R8    TT2205AAMW     20220405180D0203917              AVSSH 0.5F LG/B          CCN000001500000001500FN00000000020220501000001500NNE   20220321135157    1W    00000150000000689000000000032R8    TTTJY   000000000000NX423015
BI00B32R8    TT2205AAMW     20220405180D0203952              AVSSH 0.5F P             CCN000001500000001500FN00000000020220501000001500NNE   20220321135157    1W    00000150000000689000000000032R8    TTTJY   000000000000NX423016
BI00B32R8    TT2205AAMW     20220405180D02039G6              AVSSH 0.5F P/L           CCN000004500000004500FN00000000020220501000004500NNE   20220321135157    1W    00000150000000689000000000032R8    TTTJY   000000000000NX423017
BI00B32R8    TT2205AAMW     20220405180D0203950              AVSSH 0.5F R             CCN000004500000004500FN00000000020220501000004500NNE   20220321135157    1W    00000150000000689000000000032R8    TTTJY   000000000000NX423018
BI00B32R8    TT2205AAMW     20220405180D0203953              AVSSH 0.5F R/B           CCN000003000000003000FN00000000020220501000003000NNE   20220321135157    1W    00000150000000689000000000032R8    TTTJY   000000000000NX423019
BI00B32R8    TT2205AAMW     20220405180D0203959              AVSSH 0.5F R/L           CCN000004500000004500FN00000000020220501000004500NNE   20220321135157    1W    00000150000000689000000000032R8    TTTJY   000000000000NX423020
BI00B32R8    TT2205AAMW     20220405180D0203957              AVSSH 0.5F R/Y           CCN000003000000003000FN00000000020220501000003000NNE   20220321135157    1W    00000150000000689000000000032R8    TTTJY   000000000000NX423021
BI00B32R8    TT2205AAMW     20220405180D0203992              AVSSH 0.5F V             CCN000003000000003000FN00000000020220501000003000NNE   20220321135157    1W    00000150000000689000000000032R8    TTTJY   000000000000NX423022
BI00B32R8    TT2205AAMW     20220405180D0203943              AVSSH 0.5F W/B           CCN000015000000015000FN00000000020220501000015000NNE   20220321135157    1W    00000150000000689000000000032R8    TTTJY   000000000000NX423023
BI00B32R8    TT2205AAMW     20220405180D0203949              AVSSH 0.5F W/L           CCN000001500000001500FN00000000020220501000001500NNE   20220321135157    1W    00000150000000689000000000032R8    TTTJY   000000000000NX423024
BI00B32R8    TT2205AAMW     20220405180D0203945              AVSSH 0.5F W/R           CCN000003000000003000FN00000000020220501000003000NNE   20220321135157    1W    00000150000000689000000000032R8    TTTJY   000000000000NX423025
BI00B32R8    TT2205AAMW     20220405180D0203970              AVSSH 0.5F Y             CCN000001500000001500FN00000000020220501000001500NNE   20220321135157    1W    00000150000000689000000000032R8    TTTJY   000000000000NX423026
BI00B32R8    TT2205AAMW     20220405180D0203973              AVSSH 0.5F Y/B           CCN000001500000001500FN00000000020220501000001500NNE   20220321135157    1W    00000150000000689000000000032R8    TTTJY   000000000000NX423027
BI00B32R8    TT2205AAMW     20220405180D0203976              AVSSH 0.5F Y/G           CCN000006000000006000FN00000000020220501000006000NNE   20220321135157    1W    00000150000000689000000000032R8    TTTJY   000000000000NX423028
BI00B32R8    TT2205AAMW     20220405180D0203975              AVSSH 0.5F Y/R           CCN000003000000003000FN00000000020220501000003000NNE   20220321135157    1W    00000150000000689000000000032R8    TTTJY   000000000000NX423029
BI00B32R8    TT2205AAMW     20220405180D0204034              AVSSH 0.75F B/W          CCN000003000000003000FN00000000020220501000003000NNE   20220321135157    1W    00000100000000934000000000032R8    TTTJY   000000000000NX423030
BI00B32R8    TT2205AAMW     20220405180D0204080              AVSSH 0.75F BR           CCN000001000000001000FN00000000020220501000001000NNE   20220321135157    1W    00000100000000934000000000032R8    TTTJY   000000000000NX423031
BI00B32R8    TT2205AAMW     20220405180D0204043              AVSSH 0.75F W/B          CCN000004000000004000FN00000000020220501000004000NNE   20220321135157    1W    00000100000000934000000000032R8    TTTJY   000000000000NX423032
BI00B32R8    TT2205AAMW     20220405180D0204180              AVSSH 1.25F BR           CCN000001600000001600FN00000000020220501000001600NNE   20220321135157    1W    00000080000001458000000000032R8    TTTJY   000000000000NX423033
BI00B32R8    TT2205AAMW     20220405180D0204159              AVSSH 1.25F R/L          CCN000003200000003200FN00000000020220501000003200NNE   20220321135157    1W    00000080000001458000000000032R8    TTTJY   000000000000NX423034
BI00B32R8    TT2205AAMW     20220405180D0204154              AVSSH 1.25F R/W          CCN000000800000000800FN00000000020220501000000800NNE   20220321135157    1W    00000080000001458000000000032R8    TTTJY   000000000000NX423035
BI00B32R8    TT2205AAMW     20220405180D0204143              AVSSH 1.25F W/B          CCN000001600000001600FN00000000020220501000001600NNE   20220321135157    1W    00000080000001458000000000032R8    TTTJY   000000000000NX423036
BI00B32W4    @4500189120    20220329181D6910239              AVSSHCS 0.5FX2 B/L       CCN000032700000032700FN00000000020220301000032700NNE20 20220321091953W4A21W    00000030000002385000000000032W4A2  HJYHK-J 000000000000OX323001
BI00B32W4    @4500189498    20220405181D6910239              AVSSHCS 0.5FX2 B/L       CCN000015300000015300FN00000000020220401000015300NNE20 20220321091938W4A21W    00000030000002385000000000032W4A2  HJYHK-J 000000000000OJ423001
BI00B32W4    @4500189959    20220412181D6910239              AVSSHCS 0.5FX2 B/L       CCN000007800000007800FN00000000020220401000007800NNE20 20220321092125W4A21W    00000030000002385000000000032W4A2  HJYHK-J 000000000000OY523001
BI00B32W4    @4500190300    20220419181D6910239              AVSSHCS 0.5FX2 B/L       CCN000102000000102000FN00000000020220401000102000NNE20 20220321093610W4A21W    00000030000002385000000000032W4A2  HJYHK-J 000000000000OD124001
