BI00B1200    2399T52317     202204287289-6547                HOUSING FEMALE ASS'Y     CCN000240000000240000FN00000000020220501000240000NNMD0420220321122606    1N0N  0000024000000115200000136201200    YCYC    005500360039
BI00B1200    2399T52319     202205057289-6547                HOUSING FEMALE ASS'Y     CCN000240000000240000FN00000000020220501000240000NNMD0420220321122606    1N0N  0000024000000115200000136201200    YCYC    005500360039
BI00B1200    2399T52317     202205057289-6547                HOUSING FEMALE ASS'Y     CCN000158400000000000FY00000000020220501000000000NNMD0420220321094350    1N0N  0000024000000115200000136201200    YCYC    005500360039
BI00B1200    2399T52319     202205127289-6547                HOUSING FEMALE ASS'Y     CCN000120000000000000FY00000000020220501000000000NNMD0420220321094846    1N0N  0000024000000115200000136201200    YCYC    005500360039
BI00B1200    8100T52308     202208187289-3342-30             HOUSING FEMALE ASS'Y     CCN000002400000002400FN00000000020220501000002400NNED0420220321153235    1N0N  0000024000000068640000090141200    YCYC    005500360039
BI00B1200    7504T52308     202207147254-5840-30             ENG R/B SUB ASS'Y        CCN000004200000004200FN00000000020220801000004200NNMD0220220321122606    4J0J  0000000240000073200000095201200    YCYC    005600390040
BI00A1200    #CE22-MN-0054  202203237189-3033                HOUSING FEMALE           CCN000001600000001600FN00000000020220301000001600NNE   20220321163813    2F0F  0000016000000121120000143121200    YCYC    005500360039
BI00B1200    #O022E50300    202204287154-7040                RELAY BLOCK              CCN000006000000006000FN00000000020220501000006000NNE   20220321155146    2F0F  0000030000000060300000074491200    YCYC    005500360039
BI00B1200    #O022E50301    202204287154-8273                RELAY BLOCK              CCN000003000000003000FN00000000020220501000003000NNE   20220321155207    2F0F  0000010000000052300000067251200    YCYC    005500360039
BI00B1200    #O022E50302    202204287154-5328-30             RELAY BLOCK              CCN000003000000003000FN00000000020220501000003000NNE   20220321155449    2F0F  0000010000000121200000136191200    YCYC    005600390040
BI00B32B1    A22023         202205067157-7925-80             REAR HOLDER              CCN000030000000030000FN00000000020220701000030000NNM   20220321145832B1  1F0F  00003000000000720000000871032B1    AXARNE-M005600390023
BI00B32B1    A22023         202205067282-5574-10             CONNECTOR                CCN000000800000000800FN00000000020220701000000800NNM   20220321145832B1  4N0N  00000080000001235000001423032B1    AXARNE-M005600390040
BI00B32B1    A22023         202205067288-3339-30             HOUSING MALE             CCN000001500000001500FN00000000020220701000001500NNM   20220321145832B1  4N0N  00000150000000867000001012032B1    AXARNE-M005400370024
BI00B32B1    A22023         202205067289-3342-30             HOUSING FEMALE ASS'Y     CCN000002400000002400FN00000000020220701000002400NNM   20220321145832B1  1N0N  00000240000000686400000901432B1    AXARNE-M005500360039
BI00B32B1    A22023         202205067289-3342-90             HOUSING FEMALE ASS'Y     CCN000002400000002400FN00000000020220701000002400NNM   20220321145832B1  1N0N  00000240000000686400000901432B1    AXARNE-M005500360039
BI00B32B1    #A22023        202205067157-3891                RUBBER STOPPER           CCN000010000000010000FN00000000020220701000010000NNM   20220321145836B1  2H0H  00001000000000145000000241732B1    AXARNE-M004300270014
BI00B32B1    #A22023        202205067158-3376-50             CONNECTOR WIRE SEAL      CCN000120000000120000FN00000000020220701000120000NNM   20220321145836B1  2C0C  00002000000000184000000240732B1    AXARNE-M002700430014
BI00B32B1    #A22023        202205067282-8395-40             CONNECTOR                CCN000003000000003000FN00000000020220701000003000NNM   20220321145836B1  2N0N  00000100000001009000001188032B1    AXARNE-M005500360039
BI00B32B1    #A22023        202205067283-8226-30             CONNECTOR                CCN000010000000010000FN00000000020220701000010000NNM   20220321145836B1  2N0N  00000200000000820000001008032B1    AXARNE-M005400370024
BI00B32B1    #A22023        202205067283-8397-40             CONNECTOR                CCN000001540000001540FN00000000020220701000001540NNM   20220321145836B1  2N0N  00000154000001007000001222732B1    AXARNE-M005600390023
BI00A32B6    TAPP13C1K      202203257298-5955                CONNECTOR SUB ASSY       CCN000003000000007200FN00000000020220301000007200NNED0720220321132324B6  4N0N  00000720000001029600001253032B6    AXARNE-M005500360039
BI00A32B6    TAPP13C1K      202203257196-1460-02             TERMINAL FEMALE          CCN000028500000028500FN00000000020220301000028500NNED0720220321132324B6  4P0P  00002850000000444600000729832B6    AXARNE-M006400630015
BI00A32B6    TAPP13C1K      202203257196-1461-02             TERMINAL FEMALE          CCN000048000000048000FN00000000020220301000048000NNED0720220321132324B6  4P0P  00002400000000386400000671632B6    AXARNE-M006400630015
BI00A32B6    TAPP13C1K      202203257298-2278-30             HOUSING FEMALE ASS'Y     CCN000002400000002400FN00000000020220301000002400NNED0720220321132324B6  4N0N  00000240000001091700001295432B6    AXARNE-M005500360039
BI00B32B6    A72023         202205067116-4037                TERMINAL                 CCN000006000000006000FN00000000020220701000006000NNM   20220321150018B6  4P0P  00000600000000600000000894232B6    AXARNE-M006400630015
BI00B32B6    A72023         202205067017-1180-02             TERMINAL                 CCN000144000000144000FN00000000020220701000144000NNM   20220321150018B6  4P0P  00007200000001065600001229032B6    AXARNE-M005100280028
BI00B32B6    A72023         202205067017-1181-02             TERMINAL                 CCN000063000000063000FN00000000020220701000063000NNM   20220321150018B6  4P0P  00006300000001089900001266832B6    AXARNE-M005100280028
BI00B32B6    A72023         202205067017-1182-02             TERMINAL                 CCN000045000000045000FN00000000020220701000045000NNM   20220321150018B6  4P0P  00004500000001165500001318632B6    AXARNE-M005100280028
BI00B32B6    A72023         202205067116-5045-02             TERMINAL                 CCN000016000000016000FN00000000020220701000016000NNM   20220321150018B6  4P0P  00001600000000678400001007132B6    AXARNE-M006400630017
BI00B32B6    A72023         202205067158-3166-60             WIRE SEAL                CCN000240000000240000FN00000000020220701000240000NNM   20220321150018B6  1C0C  00004000000000104000000152432B6    AXARNE-M002700430014
BI00B32B6    A72023         202205067158-3167-80             WIRE SEAL                CCN000040000000040000FN00000000020220701000040000NNM   20220321150018B6  1C0C  00002000000000048000000109032B6    AXARNE-M002700430014
BI00B32B6    A72023         202205067158-3168-80             SEALED                   CCN000020000000020000FN00000000020220701000020000NNM   20220321150018B6  1C0C  00002000000000044000000092132B6    AXARNE-M004300260014
BI00B32B6    A72023         202205067158-3169-40             SEALING PLUG             CCN000080000000080000FN00000000020220701000080000NNM   20220321150018B6  1C0C  00004000000000156000000204132B6    AXARNE-M004300260014
BI00B32B6    A72023         202205067287-0192-40             SEALED HOUSING ASS'Y     CCN000001440000001440FN00000000020220701000001440NNM   20220321150018B6  4N0N  00000048000001092000001322032B6    AXARNE-M005600390040
BI00B32B7    A82023         202205067158-3166-60             WIRE SEAL                CCN000120000000120000FN00000000020220801000120000NNM   20220321150211B7  1C0C  00004000000000104000000152432B7    AXARNE-M002700430014
BI00B32B7    A82023         202205067158-3167-80             WIRE SEAL                CCN000080000000080000FN00000000020220801000080000NNM   20220321150211B7  1C0C  00002000000000048000000109032B7    AXARNE-M002700430014
BI00B32B7    A82023         202205067158-3168-80             SEALED                   CCN000040000000040000FN00000000020220801000040000NNM   20220321150211B7  1C0C  00002000000000044000000092132B7    AXARNE-M004300260014
BI00B32B7    A82023         202205067158-3169-40             SEALING PLUG             CCN000120000000120000FN00000000020220801000120000NNM   20220321150211B7  1C0C  00004000000000156000000204132B7    AXARNE-M004300260014
BI00B32B7    A82023         202205067282-6448-40             CONNECTOR                CCN000014400000014400FN00000000020220801000014400NNM   20220321150211B7  4N0N  00000080000000887000001152732B7    AXARNE-M005600390040
BI00B32B7    A82023         202205067283-8599-30             CONNECTOR                CCN000001540000001540FN00000000020220801000001540NNM   20220321150211B7  4N0N  00000154000000947100001157032B7    AXARNE-M005600390023
BI00B32B7    #A82023        202205067135-7031                GROMMET                  CCN000003800000003800FN00000000020220801000003800NNM   20220321150209B7  2H0H  00000010000000634200000744232B7    AXARNE-M005400370024
BI00B32B7    #A82023        202205067158-3003-90             RUBBER STOPPER           CCN000020000000020000FN00000000020220801000020000NNM   20220321150209B7  2C0C  00002000000000250000000306032B7    AXARNE-M002700430014
BI00B32B7    #A82023        202205067158-3376-50             CONNECTOR WIRE SEAL      CCN000060000000060000FN00000000020220801000060000NNM   20220321150209B7  2C0C  00002000000000184000000240732B7    AXARNE-M002700430014
BI00B32B7    #A82023        202205067282-8395-40             CONNECTOR                CCN000003000000003000FN00000000020220801000003000NNM   20220321150209B7  2N0N  00000100000001009000001188032B7    AXARNE-M005500360039
BI00B32B7    #A82023        202205067283-8397-40             CONNECTOR                CCN000009240000009240FN00000000020220801000009240NNM   20220321150209B7  2N0N  00000154000001007000001222732B7    AXARNE-M005600390023
BI00B32B7    #A82023        202205067283-8398-40             CONNECTOR                CCN000007700000007700FN00000000020220801000007700NNM   20220321150209B7  2N0N  00000154000001007000001171332B7    AXARNE-M005600390023
BI00B32CA    PTA32094       202206027114-5096-08             TERMINAL                 CCN000008000000030000FN00000000020220901000030000NNE   20220321134835    4P0P  00003000000000498000000792232CA    YPYPY   006400630015
BI00B32CA    #PTA32094      202206027154-5597-30             CASSETTE R/B             CCN000000800000000800FN00000000020220901000000800NNE   20220321134831    2F0F  00000080000000736000000952032CA    YPYPY   005500360039
BI00A32CJ    #JQN2053       202203287172-5630-40             RUBBER STOPPER           PCN000020000000020000FN00000000020220501000020000NNMM0020220321130420    2H0H  00002000000000044000000095132CJ    QNYHVQN 004300270014
BI00B32CJ    JQN204B        202205207289-3342                HOUSING FEMALE ASS'Y     CCN000009600000009600FN00000000020220401000009600NNED0420220321153203    1N0N  00000240000000686400000901432CJ    QNYHVQN 005500360039
BI00B32DA    SBT2204        202203217288-3329-30             HOUSING MALE             CCN000004500000000000FY00000000020220401000000000NNM00020220321165548    4N0N  00000150000000866100001011132DA    GBYIPLGB005400370024
BI00B32DA    SBT2204        202203247288-3329-30             HOUSING MALE             CCN000004500000009000FN00000000020220401000009000NNMD0420220321165548    4N0N  00000150000000866100001011132DA    GBYIPLGB005400370024
BI00B32DA    SBT2204        202203217288-3331-30             HOUSING MALE             CCN000004500000000000FY00000000020220401000000000NNM00020220321165612    4N0N  00000150000000866000001010932DA    GBYIPLGB005400370024
BI00B32DA    SBT2204        202203247288-3331-30             HOUSING MALE             CCN000004500000009000FN00000000020220401000009000NNMD0420220321165612    4N0N  00000150000000866000001010932DA    GBYIPLGB005400370024
BI00B32DA    SBT2204        202203217288-3336-30             HOUSING MALE             CCN000003000000001500FY00000150020220401000000000NNM00020220321165645    4N0N  00000150000000867000001012032DA    GBYIPLGB005400370024
BI00B32DA    SBT2204        202203247288-3336-30             HOUSING MALE             CCN000003000000004500FN00000000020220401000004500NNMD0420220321165651    4N0N  00000150000000867000001012032DA    GBYIPLGB005400370024
BI00B32DA    SBT2204        202203217288-3337-30             HOUSING MALE             CCN000004500000001500FY00000150020220401000000000NNM00020220321165736    4N0N  00000150000000867000001012032DA    GBYIPLGB005400370024
BI00B32DA    SBT2204        202203247288-3337-30             HOUSING MALE             CCN000004500000009000FN00000000020220401000009000NNMD0420220321165736    4N0N  00000150000000867000001012032DA    GBYIPLGB005400370024
BI00B32DE    TCT205B        202205197288-6547                CONNECTOR MALE ASS'Y     CCN000001500000001500FN00000000020220501000001500NNED0420220321153112    4N0N  00000075000001205300001340332DE    TVYEV-TV005400370024
BI00B32DE    TCT205B        202206167289-3342-30             HOUSING FEMALE ASS'Y     CCN000014400000014400FN00000000020220501000014400NNED0420220321153307    1N0N  00000240000000686400000901432DE    TVYEV-TV005500360039
BI00B32DE    TCT205B        202205267289-3342-90             HOUSING FEMALE ASS'Y     CCN000002400000002400FN00000000020220501000002400NNED0420220321153307    1N0N  00000240000000686400000901432DE    TVYEV-TV005500360039
BI00A32D1    DFTC2204       202203237289-3342-30             HOUSING FEMALE ASS'Y     PCN000062400000062400FN00000000020220101000062400NNM00020220321165100    1N0N  00000240000000686400000901432D1    TOYOT-K 005500360039
BI00A32D2    DGTC2212       202203247288-6547                CONNECTOR MALE ASS'Y     CCN000004500000000750FN00000000020220301000000750NNM00020220321161558    4N0N  00000075000001205300001340332D2    TGYOT-G 005400370024
BI00B32D2    DGTC2222       202204077289-3342                HOUSING FEMALE ASS'Y     CCN000141600000105600FN00000000020220601000105600NNMD0020220321141612    1N0N  00000240000000686400000901432D2    TGYOT-G 005500360039
BI00B32D2    DGTC2222       202204077289-3342-30             HOUSING FEMALE ASS'Y     CCN000019200000019200FN00000000020220601000019200NNMD0020220321141648    1N0N  00000240000000686400000901432D2    TGYOT-G 005500360039
BI00B32D2    DGTC2222       202204077289-3342-90             HOUSING FEMALE ASS'Y     CCN000024000000024000FN00000000020220601000024000NNMD0020220321141648    1N0N  00000240000000686400000901432D2    TGYOT-G 005500360039
BI00B32D2    #DGTC2222      202204077172-5629-80             RUBBER STOPPER           CCN000700000000700000FN00000000020220601000700000NNMD0020220321141433    2H0H  00002000000000060000000111132D2    TGYOT-G 004300270014
BI00B32D2    #DGTC2222      202204077172-5630-40             RUBBER STOPPER           CCN000440000000440000FN00000000020220601000440000NNMD0020220321141433    2H0H  00002000000000044000000095132D2    TGYOT-G 004300270014
BI00A32D2    DGTC2220       202203247327-6806                MULTI FUSE               CCN000000560000000560FN00000000020220501000000560NNM00020220321161638    4N0N  00000056000000851500001063932D2    TGYOT-G 005400370024
BI00A32D2    DGTC2220       202203247327-6801-3W             BATTERY FUSE             CCN000000960000000960FN00000000020220501000000960NNM00020220321161627    4N0N  00000009600000928400001143432D2    TGYOT-G 005500360039
BI00A32D2    DGTC2221       202203247289-6518-30             HOUSING FEMALE ASS'Y     CCN000001200000001200FN00000000020220501000001200NNM00020220321161613    1N0N  00000120000000829200001049232D2    TGYOT-G 005500360039
BI00B32D2    DGTC2222       202206027289-3342                HOUSING FEMALE ASS'Y     CCN000048000000000000FY00000000020220601000000000NNMQ0020220321141612    1N0N  00000240000000686400000901432D2    TGYOT-G 005500360039
BI00B32D2    DGTC2222       202206097289-3342                HOUSING FEMALE ASS'Y     CCN000045600000000000FY00000000020220601000000000NNMQ0020220321141612    1N0N  00000240000000686400000901432D2    TGYOT-G 005500360039
BI00B32D2    DGTC2222       202204217289-3342-90             HOUSING FEMALE ASS'Y     CCN000012000000000000FY00000000020220601000000000NNMQ0020220321141648    1N0N  00000240000000686400000901432D2    TGYOT-G 005500360039
BI00B32D2    DGTC2224       202204217289-3342                HOUSING FEMALE ASS'Y     CCN000045600000045600FN00000000020220601000045600NNMD0020220321141727    1N0N  00000240000000686400000901432D2    TGYOT-G 005500360039
BI00B32D2    DGTC2224       202204217289-3342-30             HOUSING FEMALE ASS'Y     CCN000014400000014400FN00000000020220601000014400NNMD0020220321141727    1N0N  00000240000000686400000901432D2    TGYOT-G 005500360039
BI00B32D2    DGTC2224       202204217289-3342-40             HOUSING FEMALE ASS'Y     CCN000012000000012000FN00000000020220601000012000NNMD0020220321141727    1N0N  00000240000000686400000901432D2    TGYOT-G 005500360039
BI00B32D2    DGTC2224       202204217289-3342-90             HOUSING FEMALE ASS'Y     CCN000014400000014400FN00000000020220601000014400NNMD0020220321141727    1N0N  00000240000000686400000901432D2    TGYOT-G 005500360039
BI00B32D2    #DGTC2224      202204217172-5630-40             RUBBER STOPPER           CCN000200000000200000FN00000000020220601000200000NNMD0020220321141504    2H0H  00002000000000044000000095132D2    TGYOT-G 004300270014
BI00B32EJ    T220318P01     202204077158-3169-40             SEALING PLUG             CCN000160000000160000FN00000000020220401000160000NNE   20220321122606EJ  1C0C  00004000000000156000000204132EJ    EJYKBO  004300260014
BI00B32EJ    #T220318P01    202204077157-3646                RUBBER STOPPER           CCN000120000000120000FN00000000020220401000120000NNE   20220321122606EJ  2H0H  00002000000000184000000255232EJ    EJYKBO  002700430014
BI00B32EJ    T220318P02     202204077116-1686-02             TERMINAL                 CCN000021000000021000FN00000000020220401000021000NNE   20220321122606EJ  4P0P  00002100000000869400001021632EJ    EJYKBO  005100280028
BI00B32EJ    T220318P02     202204077158-3165-90             WIRE SEAL                CCN000520000000520000FN00000000020220401000520000NNE   20220321122606EJ  1C0C  00004000000000124000000172432EJ    EJYKBO  004300270014
BI00A32E1    NC203E         202203287283-7023-10             CONNECTOR                CCN000000100000002500FN00000000020220301000002500NNED0720220321132459    4N0N  00000250000001360000001550032E1    SPYSE   005500360039
BI00A32E1    NC203E         202203287283-7029                CONNECTOR                CCN000006000000006000FN00000000020220301000006000NNED0720220321132416    1N0N  00000600000001060200001181032E1    SPYSE   005600390023
BI00B32G2    #SA2204BHMW    202204067183-2415-30             CONNECTOR HOUSING        CCN000004800000004800FN00000000020220401000004800NNE   20220321131352    2F0F  00000480000000798200001091432G2    AISUAI  005500360039
BI00B32G2    SA2204E MW     202204067154-7136-30             LOWER COVER              CCN000000120000000120FN00000000020220401000000120NNE   20220321131412    4F0F  00000006000000199000000408032G2    AISUAI  005600390040
BI00B32G2    SA2204E MW     202204067254-5840-30             ENG R/B SUB ASS'Y        CCN000000120000000120FN00000000020220401000000120NNE   20220321131412    4J0J  00000002400000732000000952032G2    AISUAI  005600390040
BI00B32G2    SA2204E MW     202204067283-1144-30             CONNECTOR                CCN000004800000004800FN00000000020220401000004800NNE   20220321131412    4N0N  00000240000000602200000866132G2    AISUAI  005500360039
BI00B32G2    SA2204E MW     202204067283-5832                CONNECTOR HOUSING        CCN000002400000002400FN00000000020220401000002400NNE   20220321131412    1N47  00000240000000723800000873832G2    AISUAI  005500360039
BI00B32G2    @SA2204E MW    202204067283-1061-30             CONNECTOR SUB ASSY       CCN000002400000002400FN00000000020220401000002400NNE   20220321131410    3N0N  00000240000000833500001069032G2    AISUAI  005500360039
BI00B32H2    TIJ205J        202205207283-4855                CONNECTOR HOUSING        CCN000002400000002400FN00000000020220501000002400NNED0420220321153013    4N0N  00000240000001188400001400032H2    HVYHV   005500360039
BI00A32H7    #FS22043DMW    202204017172-5630-40             RUBBER STOPPER           PCN000300000000300000FN00000000020220401000300000NNMM0020220321192132    2H0H  00002000000000044000000095132H7    FYFSY   004300270014
BI00A32H8    TY22042KMW     202203287289-3342                HOUSING FEMALE ASS'Y     PCN000004800000004800FN00000000020220401000004800NNMM0020220321133044    1N0N  00000240000000686400000901432H8    TYTYC   005500360039
BI00A32J1    #392817        202203287134-4547-30             COVER                    CCN000002500000002500FN00000000020220301000002500NNED0720220321131054    2F0F  00000250000000989000001156732J1    UKYEL-BL005600390040
BI00B32J1    #392818        202204257134-4547-30             COVER                    CCN000002500000002500FN00000000020220501000002500NNE   20220321122606    2F0F  00000250000000989000001156732J1    UKYEL-BL005600390040
BI00B32M1    QA-22-P06      202203247196-0510-02             TERMINAL                 PNY000008000000008000FN00000000020220301000008000NNE   20220321122606    4P0P  00002400000000871200001034632M1    VNYEV   002800510028
BI00B32M3    #SM2204ARMW    202203317137-3319-90             SEALED PACKING           CCN000004000000004000FN00000000020220401000004000NNED0720220321134649    2H0H  00000100000000498000000555132M3    SASAMI  004300270014
BI00B32M3    #SM2204ARMW    202203317185-1495                HOUSING                  CCN000000084000000084FN00000000020220401000000084NNED0720220321134649    2F0F  00000008400000903800001005532M3    SASAMI  005500360039
BI00B32M3    #SM2204ARMW    202203317185-1496                HOUSING                  CCN000000700000000700FN00000000020220401000000700NNED0720220321134649    2F0F  00000014000000997300001237932M3    SASAMI  005500360039
BI00B32M3    #SM2204ARMW    202203317185-9195-40             REAR HOLDER              CCN000002000000002000FN00000000020220401000002000NNED0720220321134649    2F0F  00000100000000692200000815232M3    SASAMI  005400370024
BI00B32M4    TP2051         202205127327-6983-30             MAIN FUSE                CCN000003600000003600FN00000000020220501000003600NNMD0020220321122606    4N0N  00000060000000748800000951532M4    SISAI   005400370024
BI00B32M4    TP2051         202205127327-6985-30             MULTI FUSE               CCN000003456000003456FN00000000020220501000003456NNMD0020220321122606    4N0N  00000028800000886100001052032M4    SISAI   005400370024
BI00B32M8    PM2204C MW     202205047288-3335-30             HOUSING MALE             CCN000001500000001500FN00000000020220401000001500NNED0420220321153048    4N0N  00000150000000867000001012032M8    PMPEMI  005400370024
BI00B32N1    NST2117C       202204217283-5845                CONNECTOR HOUSING        CCN000006000000006000FN00000000020220501000006000NNMD0220220321122606    1N0N  00000600000000444000000606332N1    TAYIPL  005400370024
BI00B32N1    NST2117C       202203317283-1144-30             CONNECTOR                CCN000052800000026400FN00000000020220501000026400NNMD0220220321122606    4N0N  00000240000000602200000866132N1    TAYIPL  005500360039
BI00B32N1    NST2117C       202204077283-1144-30             CONNECTOR                CCN000026400000026400FN00000000020220501000026400NNMD0220220321122606    4N0N  00000240000000602200000866132N1    TAYIPL  005500360039
BI00A32N1    @NST2117E      202203227123-4312-80             HOUSING                  CCN000010000000010400FN00000000020220401000010400NNEM0020220321165410    3F0F  00000080000000644200000794032N1    TAYIPL  005500360039
BI00A32P8    TAPI-201E      202203227327-6994-3W             BATTERY FUSE             CCN000000072000000072FN00000000020220301000000072NNED0020220321165305    4N0N  00000007200001215100001430132P8    YIYTM   005500360039
BI00B32Q8    EU2205ATMW     202204067327-6950-30             MULTI FUSE               CCN000001152000001152FN00000000020220501000001152NNED0020220321122606    4N00  00000028800000888700001054632Q8    EMEMI   005400370024
BI00B32Q8    EU2205ATMW     202204127327-6954-30             MULTI FUSE               CCN000001800000001800FN00000000020220501000001800NNED0020220321122606    4N00  00000060000000751600000954332Q8    EMEMI   005400370024
BI00B32Q8    EU2205BTMW     202204127327-6950-30             MULTI FUSE               CCN000001440000001440FN00000000020220501000001440NNED0020220321122606    4N00  00000028800000888700001054632Q8    EMEMI   005400370024
BI00B32Q8    EU2205BTMW     202204067327-6952-30             MULTI FUSE               CCN000001680000001680FN00000000020220501000001680NNED0020220321122606    4N0N  00000056000000848500001031532Q8    EMEMI   005400370024
BI00B32Q8    EU2205BTMW     202204067327-6954-30             MULTI FUSE               CCN000001800000001800FN00000000020220501000001800NNED0020220321122606    4N00  00000060000000751600000954332Q8    EMEMI   005400370024
BI00B32Q8    EU2205CTMW     202204207327-6950-30             MULTI FUSE               CCN000001728000001728FN00000000020220501000001728NNED0020220321122606    4N00  00000028800000888700001054632Q8    EMEMI   005400370024
BI00B32Q8    EU2205CTMW     202204207327-6952-30             MULTI FUSE               CCN000001680000001680FN00000000020220501000001680NNED0020220321122606    4N0N  00000056000000848500001031532Q8    EMEMI   005400370024
BI00B32Q8    EU2205CTMW     202204207327-6954-30             MULTI FUSE               CCN000001200000001200FN00000000020220501000001200NNED0020220321122606    4N00  00000060000000751600000954332Q8    EMEMI   005400370024
BI00B32Q8    EU2205DTMW     202204067327-6950-30             MULTI FUSE               CCN000001728000001728FN00000000020220501000001728NNE   20220321122606    4N00  00000028800000888700001054632Q8    EMEMI   005400370024
BI00B32Q8    EU2205DTMW     202204067327-6952-30             MULTI FUSE               CCN000001680000001680FN00000000020220501000001680NNE   20220321122606    4N0N  00000056000000848500001031532Q8    EMEMI   005400370024
BI00B32Q8    EU2205DTMW     202204067327-6954-30             MULTI FUSE               CCN000002400000002400FN00000000020220501000002400NNE   20220321122606    4N00  00000060000000751600000954332Q8    EMEMI   005400370024
BI00B32Q8    EU22061 MW     202205047114-4020                TERMINAL                 CCN000042000000042000FN00000000020220601000042000NNM   20220321122606    4P0P  00002100000000875700001169332Q8    EMEMI   006400630015
BI00B32Q8    EU22062 MW     202205117114-4020                TERMINAL                 CCN000042000000042000FN00000000020220601000042000NNM   20220321122606    4P0P  00002100000000875700001169332Q8    EMEMI   006400630015
BI00B32Q8    EU22063 MW     202205187114-4020                TERMINAL                 CCN000021000000021000FN00000000020220601000021000NNM   20220321122606    4P0P  00002100000000875700001169332Q8    EMEMI   006400630015
BI00B32Q8    EU22064 MW     202205257114-4020                TERMINAL                 CCN000042000000042000FN00000000020220601000042000NNM   20220321122606    4P0P  00002100000000875700001169332Q8    EMEMI   006400630015
BI00B32Q8    EU22061 MW     202205047114-4021                TERMINAL                 CCN000015000000015000FN00000000020220601000015000NNM   20220321122606    4P0P  00001500000000670500000964132Q8    EMEMI   006400630015
BI00B32Q8    EU22062 MW     202205117114-4021                TERMINAL                 CCN000045000000045000FN00000000020220601000045000NNM   20220321122606    4P0P  00001500000000670500000964132Q8    EMEMI   006400630015
BI00B32Q8    EU22063 MW     202205187114-4021                TERMINAL                 CCN000045000000045000FN00000000020220601000045000NNM   20220321122606    4P0P  00001500000000670500000964132Q8    EMEMI   006400630015
BI00B32Q8    EU22064 MW     202205257114-4021                TERMINAL                 CCN000045000000045000FN00000000020220601000045000NNM   20220321122606    4P0P  00001500000000670500000964132Q8    EMEMI   006400630015
BI00B32Q8    EU22061 MW     202205047114-4031                TERMINAL                 CCN000010500000010500FN00000000020220601000010500NNM   20220321122606    4P0P  00001050000000966000001294632Q8    EMEMI   006400630017
BI00B32Q8    EU22064 MW     202205257114-4032                TERMINAL                 CCN000015000000015000FN00000000020220601000015000NNM   20220321122606    4P0P  00000750000000735000001063632Q8    EMEMI   006400630017
BI00B32Q8    EU22063 MW     202205187114-4100-02             TERMINAL                 CCN000036000000036000FN00000000020220601000036000NNM   20220321122606    4P0P  00001800000000748800001077432Q8    EMEMI   006400630017
BI00B32Q8    EU22064 MW     202205257114-4100-02             TERMINAL                 CCN000054000000054000FN00000000020220601000054000NNM   20220321122606    4P0P  00001800000000748800001077432Q8    EMEMI   006400630017
BI00B32Q8    EU22061 MW     202205047114-4110-02             TERMINAL                 CCN000015000000015000FN00000000020220601000015000NNM   20220321122606    4P0P  00001500000000901500001230132Q8    EMEMI   006400630017
BI00B32Q8    EU22063 MW     202205187114-4110-02             TERMINAL                 CCN000030000000030000FN00000000020220601000030000NNM   20220321122606    4P0P  00001500000000901500001230132Q8    EMEMI   006400630017
BI00B32Q8    EU22063 MW     202205187114-4111-02             TERMINAL                 CCN000024000000024000FN00000000020220601000024000NNM   20220321122606    4P0P  00001200000000758400001087032Q8    EMEMI   006400630017
BI00B32Q8    EU22064 MW     202205257114-4111-02             TERMINAL                 CCN000012000000012000FN00000000020220601000012000NNM   20220321122606    4P0P  00001200000000758400001087032Q8    EMEMI   006400630017
BI00B32Q8    EU22063 MW     202205187114-4112-02             TERMINAL                 CCN000018000000018000FN00000000020220601000018000NNM   20220321122606    4P0P  00000900000000598500000927132Q8    EMEMI   006400630017
BI00B32Q8    EU22064 MW     202205257114-4112-02             TERMINAL                 CCN000018000000018000FN00000000020220601000018000NNM   20220321122606    4P0P  00000900000000598500000927132Q8    EMEMI   006400630017
BI00B32Q8    EU22061 MW     202205047114-4415-02             TERMINAL MALE            CCN000027000000027000FN00000000020220601000027000NNM   20220321122606    4P0P  00002700000000429300000717532Q8    EMEMI   006400630015
BI00B32Q8    EU22063 MW     202205187114-4415-02             TERMINAL MALE            CCN000054000000054000FN00000000020220601000054000NNM   20220321122606    4P0P  00002700000000429300000717532Q8    EMEMI   006400630015
BI00B32Q8    EU22064 MW     202205257114-4729-02             TERMINAL                 CCN000090000000090000FN00000000020220601000090000NNM   20220321122606    4P0P  00003000000000516000000810232Q8    EMEMI   006400630015
BI00B32Q8    EU22062 MW     202205117114-5747-02             TERMINAL                 CCN000036000000036000FN00000000020220601000036000NNM   20220321122606    4P0P  00001800000000626400000920032Q8    EMEMI   006400630015
BI00B32Q8    EU22063 MW     202205187114-5747-02             TERMINAL                 CCN000036000000036000FN00000000020220601000036000NNM   20220321122606    4P0P  00001800000000626400000920032Q8    EMEMI   006400630015
BI00B32Q8    EU22064 MW     202205257114-5747-02             TERMINAL                 CCN000054000000054000FN00000000020220601000054000NNM   20220321122606    4P0P  00001800000000626400000920032Q8    EMEMI   006400630015
BI00B32Q8    EU22061 MW     202205047114-5748-02             TERMINAL                 CCN000036000000036000FN00000000020220601000036000NNM   20220321122606    4P0P  00001200000000444000000737632Q8    EMEMI   006400630015
BI00B32Q8    EU22062 MW     202205117114-5748-02             TERMINAL                 CCN000048000000048000FN00000000020220601000048000NNM   20220321122606    4P0P  00001200000000444000000737632Q8    EMEMI   006400630015
BI00B32Q8    EU22063 MW     202205187114-5748-02             TERMINAL                 CCN000048000000048000FN00000000020220601000048000NNM   20220321122606    4P0P  00001200000000444000000737632Q8    EMEMI   006400630015
BI00B32Q8    EU22064 MW     202205257114-5748-02             TERMINAL                 CCN000048000000048000FN00000000020220601000048000NNM   20220321122606    4P0P  00001200000000444000000737632Q8    EMEMI   006400630015
BI00B32Q8    EU22061 MW     202205047114-6041                TERMINAL                 CCN000007200000007200FN00000000020220601000007200NNM   20220321122606    4P0P  00000360000000580700000824232Q8    EMEMI   006400630015
BI00B32Q8    EU22062 MW     202205117114-6041                TERMINAL                 CCN000003600000003600FN00000000020220601000003600NNM   20220321122606    4P0P  00000360000000580700000824232Q8    EMEMI   006400630015
BI00B32Q8    EU22063 MW     202205187114-6041                TERMINAL                 CCN000003600000003600FN00000000020220601000003600NNM   20220321122606    4P0P  00000360000000580700000824232Q8    EMEMI   006400630015
BI00B32Q8    EU22061 MW     202205047116-1685-02             TERMINAL                 CCN000024000000024000FN00000000020220601000024000NNM   20220321122606    4P0P  00002400000000897600001065232Q8    EMEMI   005100280028
BI00B32Q8    EU22063 MW     202205187116-1685-02             TERMINAL                 CCN000024000000024000FN00000000020220601000024000NNM   20220321122606    4P0P  00002400000000897600001065232Q8    EMEMI   005100280028
BI00B32Q8    EU22063 MW     202205187116-1686-02             TERMINAL                 CCN000021000000021000FN00000000020220601000021000NNM   20220321122606    4P0P  00002100000000869400001021632Q8    EMEMI   005100280028
BI00B32Q8    EU22061 MW     202205047116-2891-02             TERMINAL                 CCN000075000000075000FN00000000020220601000075000NNM   20220321122606    4P0P  00001500000000982500001145932Q8    EMEMI   005100280028
BI00B32Q8    EU22062 MW     202205117116-2891-02             TERMINAL                 CCN000060000000060000FN00000000020220601000060000NNM   20220321122606    4P0P  00001500000000982500001145932Q8    EMEMI   005100280028
BI00B32Q8    EU22063 MW     202205187116-2891-02             TERMINAL                 CCN000075000000075000FN00000000020220601000075000NNM   20220321122606    4P0P  00001500000000982500001145932Q8    EMEMI   005100280028
BI00B32Q8    EU22064 MW     202205257116-2891-02             TERMINAL                 CCN000060000000060000FN00000000020220601000060000NNM   20220321122606    4P0P  00001500000000982500001145932Q8    EMEMI   005100280028
BI00B32Q8    EU22061 MW     202205047116-2892-02             TERMINAL                 CCN000036000000036000FN00000000020220601000036000NNM   20220321122606    4P0P  00001200000000818400000981832Q8    EMEMI   005100280028
BI00B32Q8    EU22062 MW     202205117116-2892-02             TERMINAL                 CCN000048000000048000FN00000000020220601000048000NNM   20220321122606    4P0P  00001200000000818400000981832Q8    EMEMI   005100280028
BI00B32Q8    EU22063 MW     202205187116-2892-02             TERMINAL                 CCN000060000000060000FN00000000020220601000060000NNM   20220321122606    4P0P  00001200000000818400000981832Q8    EMEMI   005100280028
BI00B32Q8    EU22064 MW     202205257116-2892-02             TERMINAL                 CCN000048000000048000FN00000000020220601000048000NNM   20220321122606    4P0P  00001200000000818400000981832Q8    EMEMI   005100280028
BI00B32Q8    EU22062 MW     202205117116-2893-02             TERMINAL                 CCN000132000000132000FN00000000020220601000132000NNM   20220321122606    4P0P  00001200000000895200001058632Q8    EMEMI   005100280028
BI00B32Q8    EU22063 MW     202205187116-2893-02             TERMINAL                 CCN000156000000156000FN00000000020220601000156000NNM   20220321122606    4P0P  00001200000000895200001058632Q8    EMEMI   005100280028
BI00B32Q8    EU22064 MW     202205257116-2893-02             TERMINAL                 CCN000132000000132000FN00000000020220601000132000NNM   20220321122606    4P0P  00001200000000895200001058632Q8    EMEMI   005100280028
BI00B32Q8    EU22064 MW     202205257116-3154-08             TERMINAL                 CCN000027000000027000FN00000000020220601000027000NNM   20220321122606    4P0P  00002700000000475200000760432Q8    EMEMI   006400630015
BI00B32Q8    EU22064 MW     202205257116-4028-08             TERMINAL FEMALE          CCN000080000000080000FN00000000020220601000080000NNM   20220321122606    4P0P  00001600000000652800000981532Q8    EMEMI   006400630017
BI00B32Q8    EU22061 MW     202205047116-4029-08             TERMINAL FEMALE          CCN000016000000016000FN00000000020220601000016000NNM   20220321122606    4P0P  00001600000000670400000999132Q8    EMEMI   006400630017
BI00B32Q8    EU22063 MW     202205187116-4029-08             TERMINAL FEMALE          CCN000016000000016000FN00000000020220601000016000NNM   20220321122606    4P0P  00001600000000670400000999132Q8    EMEMI   006400630017
BI00B32Q8    EU22061 MW     202205047116-4031                TERMINAL                 CCN000007500000007500FN00000000020220601000007500NNM   20220321122606    4P0P  00000750000000619500000904732Q8    EMEMI   006400630015
BI00B32Q8    EU22062 MW     202205117116-4031                TERMINAL                 CCN000007500000007500FN00000000020220601000007500NNM   20220321122606    4P0P  00000750000000619500000904732Q8    EMEMI   006400630015
BI00B32Q8    EU22063 MW     202205187116-4031                TERMINAL                 CCN000007500000007500FN00000000020220601000007500NNM   20220321122606    4P0P  00000750000000619500000904732Q8    EMEMI   006400630015
BI00B32Q8    EU22064 MW     202205257116-4031                TERMINAL                 CCN000007500000007500FN00000000020220601000007500NNM   20220321122606    4P0P  00000750000000619500000904732Q8    EMEMI   006400630015
BI00B32Q8    EU22063 MW     202205187116-4032                TERMINAL                 CCN000042000000042000FN00000000020220601000042000NNM   20220321122606    4P0P  00000600000000532800000818032Q8    EMEMI   006400630015
BI00B32Q8    EU22064 MW     202205257116-4032                TERMINAL                 CCN000048000000048000FN00000000020220601000048000NNM   20220321122606    4P0P  00000600000000532800000818032Q8    EMEMI   006400630015
BI00B32Q8    EU22062 MW     202205117116-4037                TERMINAL                 CCN000114000000114000FN00000000020220601000114000NNM   20220321122606    4P0P  00000600000000600000000894232Q8    EMEMI   006400630015
BI00B32Q8    EU22063 MW     202205187116-4037                TERMINAL                 CCN000144000000144000FN00000000020220601000144000NNM   20220321122606    4P0P  00000600000000600000000894232Q8    EMEMI   006400630015
BI00B32Q8    EU22064 MW     202205257116-4037                TERMINAL                 CCN000120000000120000FN00000000020220601000120000NNM   20220321122606    4P0P  00000600000000600000000894232Q8    EMEMI   006400630015
BI00B32Q8    EU22062 MW     202205117116-4102-02             TERMINAL                 CCN000024000000024000FN00000000020220601000024000NNM   20220321122606    4P0P  00001200000000553200000841432Q8    EMEMI   006400630015
BI00B32Q8    EU22063 MW     202205187116-4102-02             TERMINAL                 CCN000036000000036000FN00000000020220601000036000NNM   20220321122606    4P0P  00001200000000553200000841432Q8    EMEMI   006400630015
BI00B32Q8    EU22064 MW     202205257116-4102-02             TERMINAL                 CCN000012000000012000FN00000000020220601000012000NNM   20220321122606    4P0P  00001200000000553200000841432Q8    EMEMI   006400630015
BI00B32Q8    EU22061 MW     202205047116-4231-02             TERMINAL                 CCN000078000000078000FN00000000020220601000078000NNM   20220321122606    4P0P  00002600000000683800001012532Q8    EMEMI   006400630017
BI00B32Q8    EU22062 MW     202205117116-4231-02             TERMINAL                 CCN000104000000104000FN00000000020220601000104000NNM   20220321122606    4P0P  00002600000000683800001012532Q8    EMEMI   006400630017
BI00B32Q8    EU22063 MW     202205187116-4231-02             TERMINAL                 CCN000078000000078000FN00000000020220601000078000NNM   20220321122606    4P0P  00002600000000683800001012532Q8    EMEMI   006400630017
BI00B32Q8    EU22064 MW     202205257116-4231-02             TERMINAL                 CCN000078000000078000FN00000000020220601000078000NNM   20220321122606    4P0P  00002600000000683800001012532Q8    EMEMI   006400630017
BI00B32Q8    EU22063 MW     202205187116-4415-02             TERMINAL                 CCN000190000000190000FN00000000020220601000190000NNM   20220321122606    4P0P  00003800000000596600000925732Q8    EMEMI   006400630017
BI00B32Q8    EU22064 MW     202205257116-4415-02             TERMINAL                 CCN000266000000266000FN00000000020220601000266000NNM   20220321122606    4P0P  00003800000000596600000925732Q8    EMEMI   006400630017
BI00B32Q8    EU22064 MW     202205257116-5751-02             TERMINAL                 CCN000108000000108000FN00000000020220601000108000NNM   20220321122606    4P0P  00001200000000379200000664432Q8    EMEMI   006400630015
BI00B32Q8    EU22061 MW     202205047116-6041                TERMINAL                 CCN000013500000013500FN00000000020220601000013500NNM   20220321122606    4P0P  00000450000000716000001009632Q8    EMEMI   006400630015
BI00B32Q8    EU22062 MW     202205117116-6041                TERMINAL                 CCN000009000000009000FN00000000020220601000009000NNM   20220321122606    4P0P  00000450000000716000001009632Q8    EMEMI   006400630015
BI00B32Q8    EU22063 MW     202205187116-6041                TERMINAL                 CCN000013500000013500FN00000000020220601000013500NNM   20220321122606    4P0P  00000450000000716000001009632Q8    EMEMI   006400630015
BI00B32Q8    EU22064 MW     202205257116-6041                TERMINAL                 CCN000013500000013500FN00000000020220601000013500NNM   20220321122606    4P0P  00000450000000716000001009632Q8    EMEMI   006400630015
BI00B32Q8    EU22064 MW     202205257116-6042                TERMINAL                 CCN000036000000036000FN00000000020220601000036000NNM   20220321122606    4P0P  00000300000000523800000856132Q8    EMEMI   006400630015
BI00B32Q8    EU22061 MW     202205047126-8853-02             TERMINAL                 CCN000030000000030000FN00000000020220601000030000NNM   20220321122606    4P0P  00000750000000562500000847732Q8    EMEMI   006400630015
BI00B32Q8    EU22062 MW     202205117126-8853-02             TERMINAL                 CCN000112500000112500FN00000000020220601000112500NNM   20220321122606    4P0P  00000750000000562500000847732Q8    EMEMI   006400630015
BI00B32Q8    EU22063 MW     202205187126-8853-02             TERMINAL                 CCN000142500000142500FN00000000020220601000142500NNM   20220321122606    4P0P  00000750000000562500000847732Q8    EMEMI   006400630015
BI00B32Q8    EU22064 MW     202205257126-8853-02             TERMINAL                 CCN000105000000105000FN00000000020220601000105000NNM   20220321122606    4P0P  00000750000000562500000847732Q8    EMEMI   006400630015
BI00B32Q8    EU22061 MW     202205047126-8854-02             TERMINAL                 CCN000112500000112500FN00000000020220601000112500NNM   20220321122606    4P0P  00000750000000604500000889732Q8    EMEMI   006400630015
BI00B32Q8    EU22062 MW     202205117126-8854-02             TERMINAL                 CCN000097500000097500FN00000000020220601000097500NNM   20220321122606    4P0P  00000750000000604500000889732Q8    EMEMI   006400630015
BI00B32Q8    EU22063 MW     202205187126-8854-02             TERMINAL                 CCN000112500000112500FN00000000020220601000112500NNM   20220321122606    4P0P  00000750000000604500000889732Q8    EMEMI   006400630015
BI00B32Q8    EU22064 MW     202205257126-8854-02             TERMINAL                 CCN000097500000097500FN00000000020220601000097500NNM   20220321122606    4P0P  00000750000000604500000889732Q8    EMEMI   006400630015
BI00B32Q8    EU22062 MW     202205117126-8855-02             TERMINAL                 CCN000120000000120000FN00000000020220601000120000NNM   20220321122606    4P0P  00000600000000510600000795832Q8    EMEMI   006400630015
BI00B32Q8    EU22063 MW     202205187126-8855-02             TERMINAL                 CCN000156000000156000FN00000000020220601000156000NNM   20220321122606    4P0P  00000600000000510600000795832Q8    EMEMI   006400630015
BI00B32Q8    EU22064 MW     202205257126-8855-02             TERMINAL                 CCN000120000000120000FN00000000020220601000120000NNM   20220321122606    4P0P  00000600000000510600000795832Q8    EMEMI   006400630015
BI00B32Q8    EU22061 MW     202205047158-3022-80             RUBBER STOPPER           CCN000015000000015000FN00000000020220601000015000NNM   20220321122606    1C0C  00000500000000467500000524032Q8    EMEMI   002700430014
BI00B32Q8    EU22063 MW     202205187158-3022-80             RUBBER STOPPER           CCN000005000000005000FN00000000020220601000005000NNM   20220321122606    1C0C  00000500000000467500000524032Q8    EMEMI   002700430014
BI00B32Q8    EU22064 MW     202205257158-3022-80             RUBBER STOPPER           CCN000010000000010000FN00000000020220601000010000NNM   20220321122606    1C0C  00000500000000467500000524032Q8    EMEMI   002700430014
BI00B32Q8    EU22061 MW     202205047158-3070-80             RUBBER STOPPER           CCN000080000000080000FN00000000020220601000080000NNM   20220321122606    1C0C  00004000000000276000000333332Q8    EMEMI   002700430014
BI00B32Q8    EU22062 MW     202205117158-3070-80             RUBBER STOPPER           CCN000040000000040000FN00000000020220601000040000NNM   20220321122606    1C0C  00004000000000276000000333332Q8    EMEMI   002700430014
BI00B32Q8    EU22063 MW     202205187158-3070-80             RUBBER STOPPER           CCN000040000000040000FN00000000020220601000040000NNM   20220321122606    1C0C  00004000000000276000000333332Q8    EMEMI   002700430014
BI00B32Q8    EU22064 MW     202205257158-3070-80             RUBBER STOPPER           CCN000040000000040000FN00000000020220601000040000NNM   20220321122606    1C0C  00004000000000276000000333332Q8    EMEMI   002700430014
BI00B32Q8    EU22063 MW     202205187158-3165-90             WIRE SEAL                CCN000040000000040000FN00000000020220601000040000NNM   20220321122606    1C0C  00004000000000124000000172432Q8    EMEMI   004300270014
BI00B32Q8    EU22064 MW     202205257158-3165-90             WIRE SEAL                CCN000040000000040000FN00000000020220601000040000NNM   20220321122606    1C0C  00004000000000124000000172432Q8    EMEMI   004300270014
BI00B32Q8    EU22063 MW     202205187183-2417-30             CONNECTOR HOUSING        CCN000002400000002400FN00000000020220601000002400NNM   20220321122606    4F0F  00000240000001137600001297932Q8    EMEMI   005500360039
BI00B32Q8    EU22064 MW     202205257196-0805-02             TERMINAL FEMALE          CCN000022500000022500FN00000000020220601000022500NNM   20220321122606    4P0P  00002250000000558000000843232Q8    EMEMI   006400630015
BI00B32Q8    EU22064 MW     202205257282-1065                CONNECTOR                CCN000001500000001500FN00000000020220601000001500NNM   20220321122606    1N0N  00000150000000795000001012032Q8    EMEMI   005600390040
BI00B32Q8    EU22062 MW     202205117282-4577                HOUSING MALE ASS'Y       CCN000007200000007200FN00000000020220601000007200NNM   20220321122606    4N0N  00000240000000964800001174832Q8    EMEMI   005500360039
BI00B32Q8    EU22063 MW     202205187282-4577                HOUSING MALE ASS'Y       CCN000007200000007200FN00000000020220601000007200NNM   20220321122606    4N0N  00000240000000964800001174832Q8    EMEMI   005500360039
BI00B32Q8    EU22064 MW     202205257282-4577                HOUSING MALE ASS'Y       CCN000007200000007200FN00000000020220601000007200NNM   20220321122606    4N0N  00000240000000964800001174832Q8    EMEMI   005500360039
BI00B32Q8    EU22063 MW     202205187282-7028-30             CONNECTOR                CCN000002000000002000FN00000000020220601000002000NNM   20220321122606    1N0N  00000200000001124000001212532Q8    EMEMI   005600390040
BI00B32Q8    EU22063 MW     202205187283-5843                CONNECTOR                CCN000001500000001500FN00000000020220601000001500NNM   20220321122606    1N0N  00000150000000889000001132032Q8    EMEMI   005600390040
BI00B32Q8    EU22061 MW     202205047283-5845                CONNECTOR HOUSING        CCN000006000000006000FN00000000020220601000006000NNM   20220321122606    1N0N  00000600000000444000000606332Q8    EMEMI   005400370024
BI00B32Q8    EU22064 MW     202205257283-5845                CONNECTOR HOUSING        CCN000006000000006000FN00000000020220601000006000NNM   20220321122606    1N0N  00000600000000444000000606332Q8    EMEMI   005400370024
BI00B32Q8    EU22062 MW     202205117283-6120                CONNECTOR HOUSING        CCN000001500000001500FN00000000020220601000001500NNM   20220321122606    1N0N  00000150000000914000001143032Q8    EMEMI   005600390040
BI00B32Q8    EU22064 MW     202205257283-6120                CONNECTOR HOUSING        CCN000001500000001500FN00000000020220601000001500NNM   20220321122606    1N0N  00000150000000914000001143032Q8    EMEMI   005600390040
BI00B32Q8    EU22061 MW     202205047283-7526-30             CONNECTOR HOUSING        CCN000001960000001960FN00000000020220601000001960NNM   20220321122606    4N0N  00000196000000989800001248632Q8    EMEMI   005500360039
BI00B32Q8    EU22062 MW     202205117283-7526-30             CONNECTOR HOUSING        CCN000001960000001960FN00000000020220601000001960NNM   20220321122606    4N0N  00000196000000989800001248632Q8    EMEMI   005500360039
BI00B32Q8    EU22063 MW     202205187283-7526-30             CONNECTOR HOUSING        CCN000003920000003920FN00000000020220601000003920NNM   20220321122606    4N0N  00000196000000989800001248632Q8    EMEMI   005500360039
BI00B32Q8    EU22064 MW     202205257283-7526-30             CONNECTOR HOUSING        CCN000001960000001960FN00000000020220601000001960NNM   20220321122606    4N0N  00000196000000989800001248632Q8    EMEMI   005500360039
BI00B32Q8    EU22061 MW     202205047283-7526-40             CONNECTOR HOUSING        CCN000001960000001960FN00000000020220601000001960NNM   20220321122606    4N0N  00000196000000989800001248632Q8    EMEMI   005500360039
BI00B32Q8    EU22062 MW     202205117283-7526-40             CONNECTOR HOUSING        CCN000001960000001960FN00000000020220601000001960NNM   20220321122606    4N0N  00000196000000989800001248632Q8    EMEMI   005500360039
BI00B32Q8    EU22063 MW     202205187283-7526-40             CONNECTOR HOUSING        CCN000001960000001960FN00000000020220601000001960NNM   20220321122606    4N0N  00000196000000989800001248632Q8    EMEMI   005500360039
BI00B32Q8    #EU22061 MW    202205047114-4022                TERMINAL                 CCN000060000000060000FN00000000020220601000060000NNM   20220321122606    2F0P  00001500000000708000001120632Q8    EMEMI   006400630015
BI00B32Q8    #EU22062 MW    202205117114-4022                TERMINAL                 CCN000045000000045000FN00000000020220601000045000NNM   20220321122606    2F0P  00001500000000708000001120632Q8    EMEMI   006400630015
BI00B32Q8    #EU22063 MW    202205187114-4022                TERMINAL                 CCN000060000000060000FN00000000020220601000060000NNM   20220321122606    2F0P  00001500000000708000001120632Q8    EMEMI   006400630015
BI00B32Q8    #EU22064 MW    202205257114-4022                TERMINAL                 CCN000060000000060000FN00000000020220601000060000NNM   20220321122606    2F0P  00001500000000708000001120632Q8    EMEMI   006400630015
BI00B32Q8    #EU22064 MW    202205257157-3950-80             SEAL RUBBER              CCN000040000000040000FN00000000020220601000040000NNM   20220321122606    2C0C  00004000000000154000000440332Q8    EMEMI   002700430014
BI00B32Q8    #EU22064 MW    202205257157-7812                SEAL RUBBER              CCN000010000000010000FN00000000020220601000010000NNM   20220321122606    2C0C  00001000000000137000000202032Q8    EMEMI   002700430014
BI00B32Q8    #EU22062 MW    202205117157-7897-60             SEAL RUBBER              CCN000020000000020000FN00000000020220601000020000NNM   20220321122606    2C0C  00001000000000132000000214732Q8    EMEMI   002700430014
BI00B32Q8    #EU22063 MW    202205187157-7897-60             SEAL RUBBER              CCN000030000000030000FN00000000020220601000030000NNM   20220321122606    2C0C  00001000000000132000000214732Q8    EMEMI   002700430014
BI00B32Q8    #EU22064 MW    202205257157-7897-60             SEAL RUBBER              CCN000020000000020000FN00000000020220601000020000NNM   20220321122606    2C0C  00001000000000132000000214732Q8    EMEMI   002700430014
BI00B32Q8    #EU22063 MW    202205187158-3003-90             RUBBER STOPPER           CCN000580000000580000FN00000000020220601000580000NNM   20220321122606    2C0C  00002000000000250000000306032Q8    EMEMI   002700430014
BI00B32Q8    #EU22064 MW    202205257158-3003-90             RUBBER STOPPER           CCN000480000000480000FN00000000020220601000480000NNM   20220321122606    2C0C  00002000000000250000000306032Q8    EMEMI   002700430014
BI00B32Q8    #EU22064 MW    202205257158-3004-40             RUBBER STOPPER           CCN000060000000060000FN00000000020220601000060000NNM   20220321122606    2C0C  00002000000000234000000306332Q8    EMEMI   002700430014
BI00B32Q8    #EU22064 MW    202205257158-3005-80             RUBBER STOPPER           CCN000020000000020000FN00000000020220601000020000NNM   20220321122606    2H0H  00002000000000210000000268732Q8    EMEMI   002700430014
BI00B32Q8    #EU22063 MW    202205187158-3008-80             RUBBER STOPPER           CCN000040000000040000FN00000000020220601000040000NNM   20220321122606    2C0C  00002000000000288000000343032Q8    EMEMI   004300270014
BI00B32Q8    #EU22064 MW    202205257158-3008-80             RUBBER STOPPER           CCN000260000000260000FN00000000020220601000260000NNM   20220321122606    2C0C  00002000000000288000000343032Q8    EMEMI   004300270014
BI00B32Q8    #EU22064 MW    202205257158-3015-10             RUBBER STOPPER           CCN000010000000010000FN00000000020220601000010000NNM   20220321122606    2C0C  00001000000000419500000474032Q8    EMEMI   002700430014
BI00B32Q8    #EU22062 MW    202205117158-3017                RUBBER STOPPER           CCN000010000000010000FN00000000020220601000010000NNM   20220321122606    2C0C  00001000000000375500000435032Q8    EMEMI   002700430014
BI00B32Q8    #EU22063 MW    202205187158-3017                RUBBER STOPPER           CCN000050000000050000FN00000000020220601000050000NNM   20220321122606    2C0C  00001000000000375500000435032Q8    EMEMI   002700430014
BI00B32Q8    #EU22064 MW    202205257158-3017                RUBBER STOPPER           CCN000050000000050000FN00000000020220601000050000NNM   20220321122606    2C0C  00001000000000375500000435032Q8    EMEMI   002700430014
BI00B32Q8    #EU22063 MW    202205187158-3120-90             CONNECTOR WIRE SEAL      CCN000040000000040000FN00000000020220601000040000NNM   20220321122606    2C0C  00002000000000136000000194032Q8    EMEMI   002700430014
BI00B32Q8    #EU22064 MW    202205257158-3120-90             CONNECTOR WIRE SEAL      CCN000140000000140000FN00000000020220601000140000NNM   20220321122606    2C0C  00002000000000136000000194032Q8    EMEMI   002700430014
BI00B32Q8    #EU22063 MW    202205187158-3121-80             WIRE SEAL                CCN000020000000020000FN00000000020220601000020000NNM   20220321122606    2C0C  00002000000000118000000187332Q8    EMEMI   002700430014
BI00B32Q8    #EU22064 MW    202205257158-3121-80             WIRE SEAL                CCN000020000000020000FN00000000020220601000020000NNM   20220321122606    2C0C  00002000000000118000000187332Q8    EMEMI   002700430014
BI00B32Q8    #EU22064 MW    202205257183-2412                HOUSING                  CCN000004800000004800FN00000000020220601000004800NNM   20220321122606    2F0F  00000160000001059200001245632Q8    EMEMI   005500360039
BI00B32Q8    #EU22063 MW    202205187183-2412-30             HOUSING                  CCN000001600000001600FN00000000020220601000001600NNM   20220321122606    2F0F  00000160000001059700001059732Q8    EMEMI   005500360039
BI00B32Q8    #EU22064 MW    202205257183-2412-30             HOUSING                  CCN000003200000003200FN00000000020220601000003200NNM   20220321122606    2F0F  00000160000001059700001059732Q8    EMEMI   005500360039
BI00B32Q8    #EU22061 MW    202205047183-2413                CONNECTOR HOUSING        CCN000004800000004800FN00000000020220601000004800NNM   20220321122606    2F0F  00000480000000478100000760032Q8    EMEMI   005500360039
BI00B32Q8    #EU22062 MW    202205117183-2413                CONNECTOR HOUSING        CCN000004800000004800FN00000000020220601000004800NNM   20220321122606    2F0F  00000480000000478100000760032Q8    EMEMI   005500360039
BI00B32Q8    #EU22064 MW    202205257183-2413                CONNECTOR HOUSING        CCN000004800000004800FN00000000020220601000004800NNM   20220321122606    2F0F  00000480000000478100000760032Q8    EMEMI   005500360039
BI00B32Q8    #EU22064 MW    202205257183-6320                HOUSING                  CCN000004800000004800FN00000000020220601000004800NNM   20220321122606    2F0F  00000480000000820800001103632Q8    EMEMI   005500360039
BI00B32Q8    #EU22063 MW    202205187283-1065                CONNECTOR                CCN000002500000002500FN00000000020220601000002500NNM   20220321122606    2N0N  00000250000001152500001310432Q8    EMEMI   005500360039
BI00B32Q8    #EU22064 MW    202205257283-1065                CONNECTOR                CCN000002500000002500FN00000000020220601000002500NNM   20220321122606    2N0N  00000250000001152500001310432Q8    EMEMI   005500360039
BI00B32Q8    #EU22061 MW    202205047283-1161                CONNECTOR FEMALE         CCN000004000000004000FN00000000020220601000004000NNM   20220321122606    2N0N  00000100000000602000000711032Q8    EMEMI   005400370024
BI00B32Q8    #EU22063 MW    202205187283-1161                CONNECTOR FEMALE         CCN000002000000002000FN00000000020220601000002000NNM   20220321122606    2N0N  00000100000000602000000711032Q8    EMEMI   005400370024
BI00B32Q8    #EU22064 MW    202205257283-1161                CONNECTOR FEMALE         CCN000002000000002000FN00000000020220601000002000NNM   20220321122606    2N0N  00000100000000602000000711032Q8    EMEMI   005400370024
BI00B32Q8    #EU22061 MW    202205047283-5834-30             CONNECTOR ASS'Y          CCN000003240000003240FN00000000020220601000003240NNM   20220321122606    2N0N  00000324000001296000001853432Q8    EMEMI   005600390040
BI00B32Q8    #EU22062 MW    202205117283-5834-30             CONNECTOR ASS'Y          CCN000006480000006480FN00000000020220601000006480NNM   20220321122606    2N0N  00000324000001296000001853432Q8    EMEMI   005600390040
BI00B32Q8    #EU22063 MW    202205187283-5834-30             CONNECTOR ASS'Y          CCN000003240000003240FN00000000020220601000003240NNM   20220321122606    2N0N  00000324000001296000001853432Q8    EMEMI   005600390040
BI00B32Q8    #EU22064 MW    202205257283-5834-30             CONNECTOR ASS'Y          CCN000003240000003240FN00000000020220601000003240NNM   20220321122606    2N0N  00000324000001296000001853432Q8    EMEMI   005600390040
BI00B32Q8    #EU22062 MW    202205117283-8123                CONNECTOR HOUSING        CCN000004000000004000FN00000000020220601000004000NNM   20220321122606    2N0N  00000400000000380000000531732Q8    EMEMI   005600390023
BI00B32Q8    #EU22063 MW    202205187283-8123                CONNECTOR HOUSING        CCN000004000000004000FN00000000020220601000004000NNM   20220321122606    2N0N  00000400000000380000000531732Q8    EMEMI   005600390023
BI00B32Q8    #EU22064 MW    202205257283-8398-40             CONNECTOR                CCN000001540000001540FN00000000020220601000001540NNM   20220321122606    2N0N  00000154000001007000001171332Q8    EMEMI   005600390023
BI00B32Q8    @EU22063 MW    202205187283-1223-30             HOUSING SUB ASSEMBLY     CCN000009600000009600FN00000000020220601000009600NNM   20220321122606    3N0N  00000480000000749300000998032Q8    EMEMI   005500360039
BI00B32Q8    @EU22064 MW    202205257283-1223-30             HOUSING SUB ASSEMBLY     CCN000009600000009600FN00000000020220601000009600NNM   20220321122606    3N0N  00000480000000749300000998032Q8    EMEMI   005500360039
BI00B32Q8    EU22064DMW     202205257B72-5540-80             SEALED WIRE SEAL         CCN000020000000020000FN00000000020220601000020000NNM   20220321122606    1C0C  00002000000000186000000234432Q8    EMEMI   004300270014
BI00B32Q8    EU22064DMW     202205257B74-1849-70             COVER                    CCN000025000000025000FN00000000020220601000025000NNM   20220321122606    1F0F  00002500000000622500000761932Q8    EMEMI   005400370024
BI00B32Q8    EU22062DMW     202205117B96-0805-02             TERMINAL FEMALE          CCN000022500000022500FN00000000020220601000022500NNM   20220321122606    4P0P  00002250000000558000000843232Q8    EMEMI   006400630015
BI00B32Q8    EU22064DMW     202205257B96-0805-02             TERMINAL FEMALE          CCN000022500000022500FN00000000020220601000022500NNM   20220321122606    4P0P  00002250000000558000000843232Q8    EMEMI   006400630015
BI00B32Q8    EU22063DMW     202205187C89-6868-30             SEALED ASSY FEMALE       CCN000002520000002520FN00000000020220601000002520NNM   20220321122606    4N0N  00000252000000839200001119232Q8    EMEMI   005500360039
BI00B32Q8    EU22064DMW     202205257C89-6868-30             SEALED ASSY FEMALE       CCN000005040000005040FN00000000020220601000005040NNM   20220321122606    4N0N  00000252000000839200001119232Q8    EMEMI   005500360039
BI00B32Q8    EU22061DMW     202205047C98-1145-4W             SQUIB SUB ASS'Y          CCN000010000000010000FN00000000020220601000010000NNM   20220321122606    4N0N  00001000000000787900000944932Q8    EMEMI   005400370024
BI00B32Q8    EU22062DMW     202205117C98-1145-4W             SQUIB SUB ASS'Y          CCN000010000000010000FN00000000020220601000010000NNM   20220321122606    4N0N  00001000000000787900000944932Q8    EMEMI   005400370024
BI00B32Q8    EU22063DMW     202205187C98-1145-4W             SQUIB SUB ASS'Y          CCN000010000000010000FN00000000020220601000010000NNM   20220321122606    4N0N  00001000000000787900000944932Q8    EMEMI   005400370024
BI00B32Q8    #EU22064DMW    202205257287-8860                HOUSING FEMALE ASS'Y     CCN000003200000003200FN00000000020220601000003200NNM   20220321122606    2N0N  00000160000000693400000853432Q8    EMEMI   005400370024
BI00B32Q8    EU22062NMW     202205117289-4696-30             HOUSING FEMALE ASS'Y     CCN000012000000012000FN00000000020220601000012000NNM   20220321122606    4N0N  00000200000000913400001055432Q8    EMEMI   005400370024
BI00B32Q8    EU22063NMW     202205187289-4696-30             HOUSING FEMALE ASS'Y     CCN000030000000030000FN00000000020220601000030000NNM   20220321122606    4N0N  00000200000000913400001055432Q8    EMEMI   005400370024
BI00B32Q8    EU22064NMW     202205257289-4696-30             HOUSING FEMALE ASS'Y     CCN000026000000026000FN00000000020220601000026000NNM   20220321122606    4N0N  00000200000000913400001055432Q8    EMEMI   005400370024
BI00B32Q8    EU22062NMW     202205117289-7615-30             HOUSING FEMALE ASS'Y     CCN000005120000005120FN00000000020220601000005120NNM   20220321122606    4N0N  00000032000000738000000948032Q8    EMEMI   005400370024
BI00B32Q8    EU22063NMW     202205187289-7615-30             HOUSING FEMALE ASS'Y     CCN000009920000009920FN00000000020220601000009920NNM   20220321122606    4N0N  00000032000000738000000948032Q8    EMEMI   005400370024
BI00B32Q8    EU22064NMW     202205257289-7615-30             HOUSING FEMALE ASS'Y     CCN000008320000008320FN00000000020220601000008320NNM   20220321122606    4N0N  00000032000000738000000948032Q8    EMEMI   005400370024
BI00B32Q8    EU22063TMW     202205187114-4624-02             TERMINAL                 CCN000024000000024000FN00000000020220601000024000NNM   20220321122606    4P0P  00002400000000895200001188832Q8    EMEMI   006400630015
BI00B32Q8    EU22064TMW     202205257114-4624-02             TERMINAL                 CCN000024000000024000FN00000000020220601000024000NNM   20220321122606    4P0P  00002400000000895200001188832Q8    EMEMI   006400630015
BI00B32Q8    EU22064TMW     202205257114-4728-02             TERMINAL                 CCN000060000000060000FN00000000020220601000060000NNM   20220321122606    4P0P  00003000000000510000000804232Q8    EMEMI   006400630015
BI00B32Q8    EU22061TMW     202205047114-4728-08             TERMINAL                 CCN000030000000030000FN00000000020220601000030000NNM   20220321122606    4P0P  00003000000000507000000801232Q8    EMEMI   006400630015
BI00B32Q8    EU22062TMW     202205117114-4728-08             TERMINAL                 CCN000030000000030000FN00000000020220601000030000NNM   20220321122606    4P0P  00003000000000507000000801232Q8    EMEMI   006400630015
BI00B32Q8    EU22063TMW     202205187114-4728-08             TERMINAL                 CCN000030000000030000FN00000000020220601000030000NNM   20220321122606    4P0P  00003000000000507000000801232Q8    EMEMI   006400630015
BI00B32Q8    EU22064TMW     202205257114-4728-08             TERMINAL                 CCN000030000000030000FN00000000020220601000030000NNM   20220321122606    4P0P  00003000000000507000000801232Q8    EMEMI   006400630015
BI00B32Q8    EU22064TMW     202205257114-5096-02             TERMINAL                 CCN000060000000060000FN00000000020220601000060000NNM   20220321122606    4P0P  00003000000000498000000792232Q8    EMEMI   006400630015
BI00B32Q8    EU22063TMW     202205187114-5096-08             TERMINAL                 CCN000030000000030000FN00000000020220601000030000NNM   20220321122606    4P0P  00003000000000498000000792232Q8    EMEMI   006400630015
BI00B32Q8    EU22064TMW     202205257114-5096-08             TERMINAL                 CCN000030000000030000FN00000000020220601000030000NNM   20220321122606    4P0P  00003000000000498000000792232Q8    EMEMI   006400630015
BI00B32Q8    EU22061TMW     202205047114-5746-02             TERMINAL                 CCN000021000000021000FN00000000020220601000021000NNM   20220321122606    4P0P  00002100000000695100000988732Q8    EMEMI   006400630015
BI00B32Q8    EU22062TMW     202205117114-5746-02             TERMINAL                 CCN000021000000021000FN00000000020220601000021000NNM   20220321122606    4P0P  00002100000000695100000988732Q8    EMEMI   006400630015
BI00B32Q8    EU22063TMW     202205187114-5746-02             TERMINAL                 CCN000042000000042000FN00000000020220601000042000NNM   20220321122606    4P0P  00002100000000695100000988732Q8    EMEMI   006400630015
BI00B32Q8    EU22064TMW     202205257114-5746-02             TERMINAL                 CCN000021000000021000FN00000000020220601000021000NNM   20220321122606    4P0P  00002100000000695100000988732Q8    EMEMI   006400630015
BI00B32Q8    EU22063TMW     202205187114-5753-02             TERMINAL                 CCN000027000000027000FN00000000020220601000027000NNM   20220321122606    4P0P  00002700000000847800001141432Q8    EMEMI   006400630015
BI00B32Q8    EU22064TMW     202205257114-5753-02             TERMINAL                 CCN000027000000027000FN00000000020220601000027000NNM   20220321122606    4P0P  00002700000000847800001141432Q8    EMEMI   006400630015
BI00B32Q8    EU22064TMW     202205257116-3153-08             TERMINAL                 CCN000081000000081000FN00000000020220601000081000NNM   20220321122606    4P0P  00002700000000461700000746932Q8    EMEMI   006400630015
BI00B32Q8    EU22061TMW     202205047116-5035-02             TERMINAL                 CCN000030000000030000FN00000000020220601000030000NNM   20220321122606    4P0P  00001500000000543000000828232Q8    EMEMI   006400630015
BI00B32Q8    EU22062TMW     202205117116-5035-02             TERMINAL                 CCN000045000000045000FN00000000020220601000045000NNM   20220321122606    4P0P  00001500000000543000000828232Q8    EMEMI   006400630015
BI00B32Q8    EU22063TMW     202205187116-5035-02             TERMINAL                 CCN000060000000060000FN00000000020220601000060000NNM   20220321122606    4P0P  00001500000000543000000828232Q8    EMEMI   006400630015
BI00B32Q8    EU22064TMW     202205257116-5035-02             TERMINAL                 CCN000045000000045000FN00000000020220601000045000NNM   20220321122606    4P0P  00001500000000543000000828232Q8    EMEMI   006400630015
BI00B32Q8    EU22061TMW     202205047116-5041-02             TERMINAL                 CCN000105000000105000FN00000000020220601000105000NNM   20220321122606    4P0P  00001500000000583500000868732Q8    EMEMI   006400630015
BI00B32Q8    EU22062TMW     202205117116-5041-02             TERMINAL                 CCN000195000000195000FN00000000020220601000195000NNM   20220321122606    4P0P  00001500000000583500000868732Q8    EMEMI   006400630015
BI00B32Q8    EU22063TMW     202205187116-5041-02             TERMINAL                 CCN000240000000240000FN00000000020220601000240000NNM   20220321122606    4P0P  00001500000000583500000868732Q8    EMEMI   006400630015
BI00B32Q8    EU22064TMW     202205257116-5041-02             TERMINAL                 CCN000225000000225000FN00000000020220601000225000NNM   20220321122606    4P0P  00001500000000583500000868732Q8    EMEMI   006400630015
BI00B32Q8    EU22061TMW     202205047116-5042-02             TERMINAL                 CCN000081000000081000FN00000000020220601000081000NNM   20220321122606    4P0P  00001350000000560300000845532Q8    EMEMI   006400630015
BI00B32Q8    EU22062TMW     202205117116-5042-02             TERMINAL                 CCN000094500000094500FN00000000020220601000094500NNM   20220321122606    4P0P  00001350000000560300000845532Q8    EMEMI   006400630015
BI00B32Q8    EU22063TMW     202205187116-5042-02             TERMINAL                 CCN000121500000121500FN00000000020220601000121500NNM   20220321122606    4P0P  00001350000000560300000845532Q8    EMEMI   006400630015
BI00B32Q8    EU22064TMW     202205257116-5042-02             TERMINAL                 CCN000094500000094500FN00000000020220601000094500NNM   20220321122606    4P0P  00001350000000560300000845532Q8    EMEMI   006400630015
BI00B32Q8    EU22061TMW     202205047116-5043-02             TERMINAL FEMALE          CCN000072000000072000FN00000000020220601000072000NNM   20220321122606    4P0P  00001200000000559200000844432Q8    EMEMI   006400630015
BI00B32Q8    EU22062TMW     202205117116-5043-02             TERMINAL FEMALE          CCN000060000000060000FN00000000020220601000060000NNM   20220321122606    4P0P  00001200000000559200000844432Q8    EMEMI   006400630015
BI00B32Q8    EU22063TMW     202205187116-5043-02             TERMINAL FEMALE          CCN000084000000084000FN00000000020220601000084000NNM   20220321122606    4P0P  00001200000000559200000844432Q8    EMEMI   006400630015
BI00B32Q8    EU22064TMW     202205257116-5043-02             TERMINAL FEMALE          CCN000060000000060000FN00000000020220601000060000NNM   20220321122606    4P0P  00001200000000559200000844432Q8    EMEMI   006400630015
BI00B32Q8    EU22063TMW     202205187116-5044-02             TERMINAL                 CCN001088000001088000FN00000000020220601001088000NNM   20220321122606    4P0P  00001600000000641600000986332Q8    EMEMI   006400630017
BI00B32Q8    EU22064TMW     202205257116-5044-02             TERMINAL                 CCN001120000001120000FN00000000020220601001120000NNM   20220321122606    4P0P  00001600000000641600000986332Q8    EMEMI   006400630017
BI00B32Q8    EU22063TMW     202205187116-5046-02             TERMINAL                 CCN000300000000300000FN00000000020220601000300000NNM   20220321122606    4P0P  00001200000000544800000873532Q8    EMEMI   006400630017
BI00B32Q8    EU22064TMW     202205257116-5046-02             TERMINAL                 CCN000312000000312000FN00000000020220601000312000NNM   20220321122606    4P0P  00001200000000544800000873532Q8    EMEMI   006400630017
BI00B32Q8    EU22062TMW     202205117173-3291-40             LIF LEVER                CCN000009600000009600FN00000000020220601000009600NNM   20220321122606    1F0F  00000240000000867800001067832Q8    EMEMI   005500360039
BI00B32Q8    EU22063TMW     202205187173-3291-40             LIF LEVER                CCN000012000000012000FN00000000020220601000012000NNM   20220321122606    1F0F  00000240000000867800001067832Q8    EMEMI   005500360039
BI00B32Q8    EU22064TMW     202205257173-3291-40             LIF LEVER                CCN000012000000012000FN00000000020220601000012000NNM   20220321122606    1F0F  00000240000000867800001067832Q8    EMEMI   005500360039
BI00B32Q8    EU22062TMW     202205117196-0396-02             TERMINAL                 CCN000015000000015000FN00000000020220601000015000NNM   20220321122606    4P0P  00001500000000949500001112932Q8    EMEMI   002800510028
BI00B32Q8    EU22063TMW     202205187196-0396-02             TERMINAL                 CCN000015000000015000FN00000000020220601000015000NNM   20220321122606    4P0P  00001500000000949500001112932Q8    EMEMI   002800510028
BI00B32Q8    EU22062TMW     202205117196-1064-02             TERMINAL FEMALE          CCN000006000000006000FN00000000020220601000006000NNM   20220321122606    4P0P  00000600000000570000000855232Q8    EMEMI   006400630015
BI00B32Q8    EU22063TMW     202205187196-1064-02             TERMINAL FEMALE          CCN000006000000006000FN00000000020220601000006000NNM   20220321122606    4P0P  00000600000000570000000855232Q8    EMEMI   006400630015
BI00B32Q8    EU22062TMW     202205117196-1102-02             TERMINAL                 CCN000022500000022500FN00000000020220601000022500NNM   20220321122606    4P0P  00002250000000405000000690232Q8    EMEMI   006400630015
BI00B32Q8    EU22063TMW     202205187196-1102-02             TERMINAL                 CCN000112500000112500FN00000000020220601000112500NNM   20220321122606    4P0P  00002250000000405000000690232Q8    EMEMI   006400630015
BI00B32Q8    EU22064TMW     202205257196-1102-02             TERMINAL                 CCN000090000000090000FN00000000020220601000090000NNM   20220321122606    4P0P  00002250000000405000000690232Q8    EMEMI   006400630015
BI00B32Q8    EU22064TMW     202205257196-1103-02             TERMINAL                 CCN000967500000967500FN00000000020220601000967500NNM   20220321122606    4P0P  00002250000000429800000715032Q8    EMEMI   006400630015
BI00B32Q8    EU22062TMW     202205117196-1104-02             TERMINAL                 CCN000630000000630000FN00000000020220601000630000NNM   20220321122606    4P0P  00002250000000441000000726232Q8    EMEMI   006400630015
BI00B32Q8    EU22063TMW     202205187196-1104-02             TERMINAL                 CCN000990000000990000FN00000000020220601000990000NNM   20220321122606    4P0P  00002250000000441000000726232Q8    EMEMI   006400630015
BI00B32Q8    EU22064TMW     202205257196-1104-02             TERMINAL                 CCN000787500000787500FN00000000020220601000787500NNM   20220321122606    4P0P  00002250000000441000000726232Q8    EMEMI   006400630015
BI00B32Q8    EU22061TMW     202205047196-1326-02             TERMINAL FEMALE          CCN000015000000060000FN00000000020220601000060000NNM   20220321122606    4P0P  00006000000000456000000784732Q8    EMEMI   006400630017
BI00B32Q8    EU22062TMW     202205117196-1326-02             TERMINAL FEMALE          CCN000030000000060000FN00000000020220601000060000NNM   20220321122606    4P0P  00006000000000456000000784732Q8    EMEMI   006400630017
BI00B32Q8    EU22063TMW     202205187196-1326-02             TERMINAL FEMALE          CCN000045000000060000FN00000000020220601000060000NNM   20220321122606    4P0P  00006000000000456000000784732Q8    EMEMI   006400630017
BI00B32Q8    EU22064TMW     202205257196-1326-02             TERMINAL FEMALE          CCN000030000000060000FN00000000020220601000060000NNM   20220321122606    4P0P  00006000000000456000000784732Q8    EMEMI   006400630017
BI00B32Q8    EU22061TMW     202205047196-1947-02             TERMINAL FEMALE          CCN000018000000018000FN00000000020220601000018000NNM   20220321122606    4POP  00000900000000407700000692932Q8    EMEMI   006400630015
BI00B32Q8    EU22062TMW     202205117196-1947-02             TERMINAL FEMALE          CCN000018000000018000FN00000000020220601000018000NNM   20220321122606    4POP  00000900000000407700000692932Q8    EMEMI   006400630015
BI00B32Q8    EU22063TMW     202205187196-1947-02             TERMINAL FEMALE          CCN000018000000018000FN00000000020220601000018000NNM   20220321122606    4POP  00000900000000407700000692932Q8    EMEMI   006400630015
BI00B32Q8    EU22064TMW     202205257196-1947-02             TERMINAL FEMALE          CCN000018000000018000FN00000000020220601000018000NNM   20220321122606    4POP  00000900000000407700000692932Q8    EMEMI   006400630015
BI00B32Q8    EU22063TMW     202205187282-0517                HOUSING MALE ASS'Y       CCN000000360000000360FN00000000020220601000000360NNM   20220321122606    4N0N  00000036000000612000000832032Q8    EMEMI   005600390040
BI00B32Q8    EU22064TMW     202205257282-0517                HOUSING MALE ASS'Y       CCN000002880000002880FN00000000020220601000002880NNM   20220321122606    4N0N  00000036000000612000000832032Q8    EMEMI   005600390040
BI00B32Q8    EU22064TMW     202205257282-4578                HOUSING MALE ASS'Y       CCN000001200000001200FN00000000020220601000001200NNM   20220321122606    4N0N  00000120000000782600000992632Q8    EMEMI   005500360039
BI00B32Q8    EU22063TMW     202205187283-1144-90             CONNECTOR                CCN000002400000002400FN00000000020220601000002400NNM   20220321122606    4N0N  00000240000000602200000866132Q8    EMEMI   005500360039
BI00B32Q8    EU22062TMW     202205117283-1288-40             CONNECTOR HOUSING        CCN000002400000002400FN00000000020220601000002400NNM   20220321122606    4N0N  00000120000001382000001640732Q8    EMEMI   005600390040
BI00B32Q8    EU22063TMW     202205187283-1288-40             CONNECTOR HOUSING        CCN000003600000003600FN00000000020220601000003600NNM   20220321122606    4N0N  00000120000001382000001640732Q8    EMEMI   005600390040
BI00B32Q8    EU22064TMW     202205257283-1288-40             CONNECTOR HOUSING        CCN000001200000001200FN00000000020220601000001200NNM   20220321122606    4N0N  00000120000001382000001640732Q8    EMEMI   005600390040
BI00B32Q8    EU22061TMW     202205047283-1289-30             CONNECTOR HOUSING        CCN000000600000000600FN00000000020220601000000600NNM   20220321122606    1N0N  00000060000000675600000820632Q8    EMEMI   005400370024
BI00B32Q8    EU22063TMW     202205187283-1289-30             CONNECTOR HOUSING        CCN000000600000000600FN00000000020220601000000600NNM   20220321122606    1N0N  00000060000000675600000820632Q8    EMEMI   005400370024
BI00B32Q8    EU22064TMW     202205257283-1289-30             CONNECTOR HOUSING        CCN000000600000000600FN00000000020220601000000600NNM   20220321122606    1N0N  00000060000000675600000820632Q8    EMEMI   005400370024
BI00B32Q8    EU22063TMW     202205187283-1928-80             CONNECTOR                CCN000002000000002000FN00000000020220601000002000NNM   20220321122606    4N0N  00000200000001180000001358332Q8    EMEMI   005500360039
BI00B32Q8    EU22064TMW     202205257283-1928-80             CONNECTOR                CCN000002000000002000FN00000000020220601000002000NNM   20220321122606    4N0N  00000200000001180000001358332Q8    EMEMI   005500360039
BI00B32Q8    EU22064TMW     202205257283-4855                CONNECTOR HOUSING        CCN000004800000004800FN00000000020220601000004800NNM   20220321122606    4N0N  00000240000001188400001400032Q8    EMEMI   005500360039
BI00B32Q8    EU22063TMW     202205187287-1915                CONNECTOR ASS'Y          CCN000009600000009600FN00000000020220601000009600NNM   20220321122606    4N0N  00000240000000666500000923132Q8    EMEMI   005500360039
BI00B32Q8    EU22064TMW     202205257287-1915                CONNECTOR ASS'Y          CCN000009600000009600FN00000000020220601000009600NNM   20220321122606    4N0N  00000240000000666500000923132Q8    EMEMI   005500360039
BI00B32Q8    EU22061TMW     202205047287-1915-40             CONNECTOR ASS'Y          CCN000002400000002400FN00000000020220601000002400NNM   20220321122606    4N0N  00000240000000666500000923132Q8    EMEMI   005500360039
BI00B32Q8    EU22062TMW     202205117287-1915-40             CONNECTOR ASS'Y          CCN000002400000002400FN00000000020220601000002400NNM   20220321122606    4N0N  00000240000000666500000923132Q8    EMEMI   005500360039
BI00B32Q8    EU22064TMW     202205257287-1915-40             CONNECTOR ASS'Y          CCN000002400000002400FN00000000020220601000002400NNM   20220321122606    4N0N  00000240000000666500000923132Q8    EMEMI   005500360039
BI00B32Q8    EU22061TMW     202205047287-1917                CONNECTOR FEMALE         CCN000007200000007200FN00000000020220601000007200NNM   20220321122606    4N0N  00000240000001060800001312532Q8    EMEMI   005500360039
BI00B32Q8    EU22062TMW     202205117287-1917                CONNECTOR FEMALE         CCN000012000000012000FN00000000020220601000012000NNM   20220321122606    4N0N  00000240000001060800001312532Q8    EMEMI   005500360039
BI00B32Q8    EU22063TMW     202205187287-1917                CONNECTOR FEMALE         CCN000014400000014400FN00000000020220601000014400NNM   20220321122606    4N0N  00000240000001060800001312532Q8    EMEMI   005500360039
BI00B32Q8    EU22064TMW     202205257287-1917                CONNECTOR FEMALE         CCN000012000000012000FN00000000020220601000012000NNM   20220321122606    4N0N  00000240000001060800001312532Q8    EMEMI   005500360039
BI00B32Q8    EU22062TMW     202205117287-3885                HYBRID FEMALE ASS'Y      CCN000002400000002400FN00000000020220601000002400NNM   20220321122606    1N0N  00000240000001029600001249632Q8    EMEMI   005500360039
BI00B32Q8    EU22064TMW     202205257287-7599-40             HOUSING FEMALE ASS'Y     CCN000003200000003200FN00000000020220601000003200NNM   20220321122606    4N0N  00000160000001233600001445632Q8    EMEMI   005500360039
BI00B32Q8    EU22061TMW     202205047288-3330-30             HOUSING MALE             CCN000003000000003000FN00000000020220601000003000NNM   20220321122606    4N0N  00000150000000866300001011232Q8    EMEMI   005400370024
BI00B32Q8    EU22062TMW     202205117288-3330-30             HOUSING MALE             CCN000003000000003000FN00000000020220601000003000NNM   20220321122606    4N0N  00000150000000866300001011232Q8    EMEMI   005400370024
BI00B32Q8    EU22063TMW     202205187288-3330-30             HOUSING MALE             CCN000006000000006000FN00000000020220601000006000NNM   20220321122606    4N0N  00000150000000866300001011232Q8    EMEMI   005400370024
BI00B32Q8    EU22064TMW     202205257288-3330-30             HOUSING MALE             CCN000003000000003000FN00000000020220601000003000NNM   20220321122606    4N0N  00000150000000866300001011232Q8    EMEMI   005400370024
BI00B32Q8    EU22061TMW     202205047288-3334-30             HOUSING MALE             CCN000018000000018000FN00000000020220601000018000NNM   20220321122606    4N0N  00000150000000867000001012032Q8    EMEMI   005400370024
BI00B32Q8    EU22062TMW     202205117288-3334-30             HOUSING MALE             CCN000024000000024000FN00000000020220601000024000NNM   20220321122606    4N0N  00000150000000867000001012032Q8    EMEMI   005400370024
BI00B32Q8    EU22063TMW     202205187288-3334-30             HOUSING MALE             CCN000030000000030000FN00000000020220601000030000NNM   20220321122606    4N0N  00000150000000867000001012032Q8    EMEMI   005400370024
BI00B32Q8    EU22064TMW     202205257288-3334-30             HOUSING MALE             CCN000025500000025500FN00000000020220601000025500NNM   20220321122606    4N0N  00000150000000867000001012032Q8    EMEMI   005400370024
BI00B32Q8    EU22061TMW     202205047288-3335-30             HOUSING MALE             CCN000007500000007500FN00000000020220601000007500NNM   20220321122606    4N0N  00000150000000867000001012032Q8    EMEMI   005400370024
BI00B32Q8    EU22062TMW     202205117288-3335-30             HOUSING MALE             CCN000001500000001500FN00000000020220601000001500NNM   20220321122606    4N0N  00000150000000867000001012032Q8    EMEMI   005400370024
BI00B32Q8    EU22063TMW     202205187288-3335-30             HOUSING MALE             CCN000004500000004500FN00000000020220601000004500NNM   20220321122606    4N0N  00000150000000867000001012032Q8    EMEMI   005400370024
BI00B32Q8    EU22064TMW     202205257288-3335-30             HOUSING MALE             CCN000003000000003000FN00000000020220601000003000NNM   20220321122606    4N0N  00000150000000867000001012032Q8    EMEMI   005400370024
BI00B32Q8    EU22063TMW     202205187288-3338-30             HOUSING MALE             CCN000001500000001500FN00000000020220601000001500NNM   20220321122606    4N0N  00000150000000866100001012032Q8    EMEMI   005400370024
BI00B32Q8    EU22064TMW     202205257288-3338-30             HOUSING MALE             CCN000001500000001500FN00000000020220601000001500NNM   20220321122606    4N0N  00000150000000866100001012032Q8    EMEMI   005400370024
BI00B32Q8    EU22062TMW     202205117288-3339-30             HOUSING MALE             CCN000001500000001500FN00000000020220601000001500NNM   20220321122606    4N0N  00000150000000867000001012032Q8    EMEMI   005400370024
BI00B32Q8    EU22063TMW     202205187288-3339-30             HOUSING MALE             CCN000006000000006000FN00000000020220601000006000NNM   20220321122606    4N0N  00000150000000867000001012032Q8    EMEMI   005400370024
BI00B32Q8    EU22064TMW     202205257288-3339-30             HOUSING MALE             CCN000006000000006000FN00000000020220601000006000NNM   20220321122606    4N0N  00000150000000867000001012032Q8    EMEMI   005400370024
BI00B32Q8    EU22061TMW     202205047288-3340-30             HOUSING MALE             CCN000006000000006000FN00000000020220601000006000NNM   20220321122606    4N0N  00000150000000861500001006432Q8    EMEMI   005400370024
BI00B32Q8    EU22062TMW     202205117288-3340-30             HOUSING MALE             CCN000004500000004500FN00000000020220601000004500NNM   20220321122606    4N0N  00000150000000861500001006432Q8    EMEMI   005400370024
BI00B32Q8    EU22063TMW     202205187288-3340-30             HOUSING MALE             CCN000006000000006000FN00000000020220601000006000NNM   20220321122606    4N0N  00000150000000861500001006432Q8    EMEMI   005400370024
BI00B32Q8    EU22064TMW     202205257288-3340-30             HOUSING MALE             CCN000006000000006000FN00000000020220601000006000NNM   20220321122606    4N0N  00000150000000861500001006432Q8    EMEMI   005400370024
BI00B32Q8    EU22061TMW     202205047288-6547                CONNECTOR MALE ASS'Y     CCN000000750000000750FN00000000020220601000000750NNM   20220321122606    4N0N  00000075000001205300001340332Q8    EMEMI   005400370024
BI00B32Q8    EU22062TMW     202205117288-6547                CONNECTOR MALE ASS'Y     CCN000000750000000750FN00000000020220601000000750NNM   20220321122606    4N0N  00000075000001205300001340332Q8    EMEMI   005400370024
BI00B32Q8    EU22063TMW     202205187288-6547                CONNECTOR MALE ASS'Y     CCN000001500000001500FN00000000020220601000001500NNM   20220321122606    4N0N  00000075000001205300001340332Q8    EMEMI   005400370024
BI00B32Q8    EU22064TMW     202205257288-6547                CONNECTOR MALE ASS'Y     CCN000003000000003000FN00000000020220601000003000NNM   20220321122606    4N0N  00000075000001205300001340332Q8    EMEMI   005400370024
BI00B32Q8    EU22064TMW     202205257289-3342                HOUSING FEMALE ASS'Y     CCN000019200000019200FN00000000020220601000019200NNM   20220321122606    1N0N  00000240000000686400000901432Q8    EMEMI   005500360039
BI00B32Q8    EU22061TMW     202205047289-3342-30             HOUSING FEMALE ASS'Y     CCN000007200000007200FN00000000020220601000007200NNM   20220321122606    1N0N  00000240000000686400000901432Q8    EMEMI   005500360039
BI00B32Q8    EU22062TMW     202205117289-3342-30             HOUSING FEMALE ASS'Y     CCN000007200000007200FN00000000020220601000007200NNM   20220321122606    1N0N  00000240000000686400000901432Q8    EMEMI   005500360039
BI00B32Q8    EU22063TMW     202205187289-3342-30             HOUSING FEMALE ASS'Y     CCN000009600000009600FN00000000020220601000009600NNM   20220321122606    1N0N  00000240000000686400000901432Q8    EMEMI   005500360039
BI00B32Q8    EU22064TMW     202205257289-3342-30             HOUSING FEMALE ASS'Y     CCN000009600000009600FN00000000020220601000009600NNM   20220321122606    1N0N  00000240000000686400000901432Q8    EMEMI   005500360039
BI00B32Q8    EU22061TMW     202205047289-6518-30             HOUSING FEMALE ASS'Y     CCN000001200000001200FN00000000020220601000001200NNM   20220321122606    1N0N  00000120000000829200001049232Q8    EMEMI   005500360039
BI00B32Q8    EU22062TMW     202205117289-6518-30             HOUSING FEMALE ASS'Y     CCN000010800000010800FN00000000020220601000010800NNM   20220321122606    1N0N  00000120000000829200001049232Q8    EMEMI   005500360039
BI00B32Q8    EU22063TMW     202205187289-6518-30             HOUSING FEMALE ASS'Y     CCN000013200000013200FN00000000020220601000013200NNM   20220321122606    1N0N  00000120000000829200001049232Q8    EMEMI   005500360039
BI00B32Q8    EU22064TMW     202205257289-6518-30             HOUSING FEMALE ASS'Y     CCN000010800000010800FN00000000020220601000010800NNM   20220321122606    1N0N  00000120000000829200001049232Q8    EMEMI   005500360039
BI00B32Q8    EU22062TMW     202205117289-6547                HOUSING FEMALE ASS'Y     CCN000002400000002400FN00000000020220601000002400NNM   20220321122606    1N0N  00000240000001152000001362032Q8    EMEMI   005500360039
BI00B32Q8    EU22063TMW     202205187289-6547                HOUSING FEMALE ASS'Y     CCN000002400000002400FN00000000020220601000002400NNM   20220321122606    1N0N  00000240000001152000001362032Q8    EMEMI   005500360039
BI00B32Q8    EU22064TMW     202205257289-6547                HOUSING FEMALE ASS'Y     CCN000002400000002400FN00000000020220601000002400NNM   20220321122606    1N0N  00000240000001152000001362032Q8    EMEMI   005500360039
BI00B32Q8    EU22061TMW     202205047289-6597-70             HOUSING FEMALE ASS'Y     CCN000002160000002160FN00000000020220601000002160NNM   20220321122606    4N0N  00000216000001289500001539532Q8    EMEMI   005500360039
BI00B32Q8    EU22063TMW     202205187289-6597-70             HOUSING FEMALE ASS'Y     CCN000002160000002160FN00000000020220601000002160NNM   20220321122606    4N0N  00000216000001289500001539532Q8    EMEMI   005500360039
BI00B32Q8    EU22064TMW     202205257289-6597-70             HOUSING FEMALE ASS'Y     CCN000002160000002160FN00000000020220601000002160NNM   20220321122606    4N0N  00000216000001289500001539532Q8    EMEMI   005500360039
BI00B32Q8    EU22061TMW     202205047327-6801-3W             BATTERY FUSE             CCN000003456000003456FN00000000020220601000003456NNM   20220321122606    4N0N  00000009600000928400001143432Q8    EMEMI   005500360039
BI00B32Q8    EU22062TMW     202205117327-6801-3W             BATTERY FUSE             CCN000002112000002112FN00000000020220601000002112NNM   20220321122606    4N0N  00000009600000928400001143432Q8    EMEMI   005500360039
BI00B32Q8    EU22063TMW     202205187327-6801-3W             BATTERY FUSE             CCN000002592000002592FN00000000020220601000002592NNM   20220321122606    4N0N  00000009600000928400001143432Q8    EMEMI   005500360039
BI00B32Q8    EU22064TMW     202205257327-6801-3W             BATTERY FUSE             CCN000002400000002400FN00000000020220601000002400NNM   20220321122606    4N0N  00000009600000928400001143432Q8    EMEMI   005500360039
BI00B32Q8    EU22064TMW     202205257327-6806                MULTI FUSE               CCN000001680000001680FN00000000020220601000001680NNM   20220321122606    4N0N  00000056000000851500001063932Q8    EMEMI   005400370024
BI00B32Q8    EU22061TMW     202205047327-6809                MULTI FUSE               CCN000007840000007840FN00000000020220601000007840NNM   20220321122606    4N0N  00000056000000849300001061732Q8    EMEMI   005400370024
BI00B32Q8    EU22062TMW     202205117327-6809                MULTI FUSE               CCN000005600000005600FN00000000020220601000005600NNM   20220321122606    4N0N  00000056000000849300001061732Q8    EMEMI   005400370024
BI00B32Q8    EU22063TMW     202205187327-6809                MULTI FUSE               CCN000006160000006160FN00000000020220601000006160NNM   20220321122606    4N0N  00000056000000849300001061732Q8    EMEMI   005400370024
BI00B32Q8    EU22064TMW     202205257327-6809                MULTI FUSE               CCN000005040000005040FN00000000020220601000005040NNM   20220321122606    4N0N  00000056000000849300001061732Q8    EMEMI   005400370024
BI00B32Q8    EU22061TMW     202205047327-6950-30             MULTI FUSE               CCN000001152000001152FN00000000020220601000001152NNM   20220321122606    4N00  00000028800000888700001054632Q8    EMEMI   005400370024
BI00B32Q8    EU22062TMW     202205117327-6950-30             MULTI FUSE               CCN000001440000001440FN00000000020220601000001440NNM   20220321122606    4N00  00000028800000888700001054632Q8    EMEMI   005400370024
BI00B32Q8    EU22063TMW     202205187327-6950-30             MULTI FUSE               CCN000002016000002016FN00000000020220601000002016NNM   20220321122606    4N00  00000028800000888700001054632Q8    EMEMI   005400370024
BI00B32Q8    EU22064TMW     202205257327-6950-30             MULTI FUSE               CCN000001440000001440FN00000000020220601000001440NNM   20220321122606    4N00  00000028800000888700001054632Q8    EMEMI   005400370024
BI00B32Q8    EU22061TMW     202205047327-6952-30             MULTI FUSE               CCN000001680000001680FN00000000020220601000001680NNM   20220321122606    4N0N  00000056000000848500001031532Q8    EMEMI   005400370024
BI00B32Q8    EU22062TMW     202205117327-6952-30             MULTI FUSE               CCN000001680000001680FN00000000020220601000001680NNM   20220321122606    4N0N  00000056000000848500001031532Q8    EMEMI   005400370024
BI00B32Q8    EU22063TMW     202205187327-6952-30             MULTI FUSE               CCN000002240000002240FN00000000020220601000002240NNM   20220321122606    4N0N  00000056000000848500001031532Q8    EMEMI   005400370024
BI00B32Q8    EU22064TMW     202205257327-6952-30             MULTI FUSE               CCN000001680000001680FN00000000020220601000001680NNM   20220321122606    4N0N  00000056000000848500001031532Q8    EMEMI   005400370024
BI00B32Q8    EU22061TMW     202205047327-6954-30             MULTI FUSE               CCN000001800000001800FN00000000020220601000001800NNM   20220321122606    4N00  00000060000000751600000954332Q8    EMEMI   005400370024
BI00B32Q8    EU22062TMW     202205117327-6954-30             MULTI FUSE               CCN000000600000000600FN00000000020220601000000600NNM   20220321122606    4N00  00000060000000751600000954332Q8    EMEMI   005400370024
BI00B32Q8    EU22063TMW     202205187327-6954-30             MULTI FUSE               CCN000001800000001800FN00000000020220601000001800NNM   20220321122606    4N00  00000060000000751600000954332Q8    EMEMI   005400370024
BI00B32Q8    EU22064TMW     202205257327-6954-30             MULTI FUSE               CCN000001800000001800FN00000000020220601000001800NNM   20220321122606    4N00  00000060000000751600000954332Q8    EMEMI   005400370024
BI00B32Q8    EU22062TMW     202205117386-6939                CONNECTOR MALE ASS'Y     CCN000000900000000900FN00000000020220601000000900NNM   20220321122606    4N0N  00000090000001359900001486432Q8    EMEMI   005400370024
BI00B32Q8    EU22064TMW     202205257386-6939                CONNECTOR MALE ASS'Y     CCN000000900000000900FN00000000020220601000000900NNM   20220321122606    4N0N  00000090000001359900001486432Q8    EMEMI   005400370024
BI00B32Q8    EU22064TMW     202205257388-2978-30             HOUSING MALE ASS'Y       CCN000023520000023520FN00000000020220601000023520NNM   20220321122606    1N0N  00000048000000742000001122032Q8    EMEMI   005500360039
BI00B32Q8    #EU22061TMW    202205047125-3236-30             HEAD LAMP CONNECTOR      CCN000002800000002800FN00000000020220601000002800NNM   20220321122606    2F0F  00000280000000945000001085932Q8    EMEMI   005500360039
BI00B32Q8    #EU22063TMW    202205187125-3236-30             HEAD LAMP CONNECTOR      CCN000002800000002800FN00000000020220601000002800NNM   20220321122606    2F0F  00000280000000945000001085932Q8    EMEMI   005500360039
BI00B32Q8    #EU22062TMW    202205117154-5597-30             CASSETTE R/B             CCN000000800000000800FN00000000020220601000000800NNM   20220321122606    2F0F  00000080000000736000000952032Q8    EMEMI   005500360039
BI00B32Q8    #EU22063TMW    202205187154-5597-30             CASSETTE R/B             CCN000001600000001600FN00000000020220601000001600NNM   20220321122606    2F0F  00000080000000736000000952032Q8    EMEMI   005500360039
BI00B32Q8    #EU22064TMW    202205257154-5597-30             CASSETTE R/B             CCN000000800000000800FN00000000020220601000000800NNM   20220321122606    2F0F  00000080000000736000000952032Q8    EMEMI   005500360039
BI00B32Q8    #EU22061TMW    202205047158-7586-30             BLOCK LIF                CCN000001600000001600FN00000000020220601000001600NNM   20220321122606    2F0F  00000080000000617400000844232Q8    EMEMI   005500360039
BI00B32Q8    #EU22062TMW    202205117158-7586-30             BLOCK LIF                CCN000000800000000800FN00000000020220601000000800NNM   20220321122606    2F0F  00000080000000617400000844232Q8    EMEMI   005500360039
BI00B32Q8    #EU22063TMW    202205187158-7586-30             BLOCK LIF                CCN000000800000000800FN00000000020220601000000800NNM   20220321122606    2F0F  00000080000000617400000844232Q8    EMEMI   005500360039
BI00B32Q8    #EU22064TMW    202205257158-7586-30             BLOCK LIF                CCN000001600000001600FN00000000020220601000001600NNM   20220321122606    2F0F  00000080000000617400000844232Q8    EMEMI   005500360039
BI00B32Q8    #EU22061TMW    202205047172-5625-90             RUBBER STOPPER           CCN000180000000180000FN00000000020220601000180000NNM   20220321122606    2H0H  00002000000000082400000133832Q8    EMEMI   004300270014
BI00B32Q8    #EU22062TMW    202205117172-5625-90             RUBBER STOPPER           CCN000200000000200000FN00000000020220601000200000NNM   20220321122606    2H0H  00002000000000082400000133832Q8    EMEMI   004300270014
BI00B32Q8    #EU22063TMW    202205187172-5625-90             RUBBER STOPPER           CCN000260000000260000FN00000000020220601000260000NNM   20220321122606    2H0H  00002000000000082400000133832Q8    EMEMI   004300270014
BI00B32Q8    #EU22064TMW    202205257172-5625-90             RUBBER STOPPER           CCN000200000000200000FN00000000020220601000200000NNM   20220321122606    2H0H  00002000000000082400000133832Q8    EMEMI   004300270014
