BI00B1200    O022F50039     202205057116-4100-02             TERMINAL                 CCN000030000000030000FN00000000020220501000030000NNE   20220304121949    4P0P  0000150000000069600000099021200    YCYC    006400630015
BI00B32BG    YY22063CMW     202204287116-3153-08             TERMINAL                 CCN000054000000054000FN00000000020220601000054000NNM   20220304152711    4P0P  00002700000000461700000746932BG    YGYYA   006400630015
BI00B32BG    YY22064CMW     202205127116-3153-08             TERMINAL                 CCN000054000000054000FN00000000020220601000054000NNM   20220304152711    4P0P  00002700000000461700000746932BG    YGYYA   006400630015
BI00B32BG    YY22065CMW     202205127116-3153-08             TERMINAL                 CCN000054000000054000FN00000000020220601000054000NNM   20220304152711    4P0P  00002700000000461700000746932BG    YGYYA   006400630015
BI00B32BG    YY22062CMW     202204217158-3070-80             RUBBER STOPPER           CCN000040000000040000FN00000000020220601000040000NNM   20220304152711    1C0C  00004000000000276000000333332BG    YGYYA   002700430014
BI00B32BG    YY22063CMW     202204287158-3070-80             RUBBER STOPPER           CCN000040000000040000FN00000000020220601000040000NNM   20220304152711    1C0C  00004000000000276000000333332BG    YGYYA   002700430014
BI00B32BG    YY22064CMW     202205127158-3070-80             RUBBER STOPPER           CCN000040000000040000FN00000000020220601000040000NNM   20220304152711    1C0C  00004000000000276000000333332BG    YGYYA   002700430014
BI00B32BG    YY22065CMW     202205127158-3070-80             RUBBER STOPPER           CCN000080000000080000FN00000000020220601000080000NNM   20220304152711    1C0C  00004000000000276000000333332BG    YGYYA   002700430014
BI00B32BG    YY22063CMW     202204287296-1025-02             TERMINAL ALUMINIUM       CCN000072000000072000FN00000000020220601000072000NNM   20220304152711    4P0P  00001800000000635400000920632BG    YGYYA   006400630015
BI00B32BG    YY22064CMW     202205127296-1025-02             TERMINAL ALUMINIUM       CCN000072000000072000FN00000000020220601000072000NNM   20220304152711    4P0P  00001800000000635400000920632BG    YGYYA   006400630015
BI00B32BG    YY22065CMW     202205127296-1025-02             TERMINAL ALUMINIUM       CCN000072000000072000FN00000000020220601000072000NNM   20220304152711    4P0P  00001800000000635400000920632BG    YGYYA   006400630015
BI00B32BG    #YY22063CMW    202204287172-5630-40             RUBBER STOPPER           CCN000020000000020000FN00000000020220601000020000NNM   20220304152707    2H0H  00002000000000044000000095132BG    YGYYA   004300270014
BI00B32BG    #YY22064CMW    202205127172-5630-40             RUBBER STOPPER           CCN000040000000040000FN00000000020220601000040000NNM   20220304152707    2H0H  00002000000000044000000095132BG    YGYYA   004300270014
BI00B32BG    #YY22065CMW    202205127172-5630-40             RUBBER STOPPER           CCN000040000000040000FN00000000020220601000040000NNM   20220304152707    2H0H  00002000000000044000000095132BG    YGYYA   004300270014
BI00B32BG    #YY22061CMW    202204077189-3033                HOUSING FEMALE           CCN000001600000001600FN00000000020220601000001600NNM   20220304152707    2F0F  00000160000001211200001431232BG    YGYYA   005500360039
BI00B32BG    #YY22062CMW    202204217189-3033                HOUSING FEMALE           CCN000001600000001600FN00000000020220601000001600NNM   20220304152707    2F0F  00000160000001211200001431232BG    YGYYA   005500360039
BI00B32BG    #YY22063CMW    202204287189-3033                HOUSING FEMALE           CCN000001600000001600FN00000000020220601000001600NNM   20220304152707    2F0F  00000160000001211200001431232BG    YGYYA   005500360039
BI00B32BG    #YY22064CMW    202205127189-3033                HOUSING FEMALE           CCN000003200000003200FN00000000020220601000003200NNM   20220304152707    2F0F  00000160000001211200001431232BG    YGYYA   005500360039
BI00B32BG    #YY22065CMW    202205127189-3033                HOUSING FEMALE           CCN000003200000003200FN00000000020220601000003200NNM   20220304152707    2F0F  00000160000001211200001431232BG    YGYYA   005500360039
BI00B32BG    #YY22061CMW    202204077189-3036                HOUSING FEMALE           CCN000003200000003200FN00000000020220601000003200NNM   20220304152707    2F0F  00000160000000921600001141632BG    YGYYA   005500360039
BI00B32BG    #YY22062CMW    202204217189-3036                HOUSING FEMALE           CCN000003200000003200FN00000000020220601000003200NNM   20220304152707    2F0F  00000160000000921600001141632BG    YGYYA   005500360039
BI00B32BG    #YY22063CMW    202204287189-3036                HOUSING FEMALE           CCN000001600000001600FN00000000020220601000001600NNM   20220304152707    2F0F  00000160000000921600001141632BG    YGYYA   005500360039
BI00B32BG    #YY22064CMW    202205127189-3036                HOUSING FEMALE           CCN000003200000003200FN00000000020220601000003200NNM   20220304152707    2F0F  00000160000000921600001141632BG    YGYYA   005500360039
BI00B32BG    #YY22065CMW    202205127189-3036                HOUSING FEMALE           CCN000003200000003200FN00000000020220601000003200NNM   20220304152707    2F0F  00000160000000921600001141632BG    YGYYA   005500360039
BI00B32BG    YY22063GMW     202204287114-4110-02             TERMINAL                 CCN000045000000045000FN00000000020220601000045000NNM   20220304152748    4P0P  00001500000000901500001230132BG    YGYYA   006400630017
BI00B32BG    YY22064GMW     202205127114-4110-02             TERMINAL                 CCN000045000000045000FN00000000020220601000045000NNM   20220304152748    4P0P  00001500000000901500001230132BG    YGYYA   006400630017
BI00B32BG    YY22065GMW     202205127114-4110-02             TERMINAL                 CCN000045000000045000FN00000000020220601000045000NNM   20220304152748    4P0P  00001500000000901500001230132BG    YGYYA   006400630017
BI00B32BG    YY22063GMW     202204287114-4111-02             TERMINAL                 CCN000096000000096000FN00000000020220601000096000NNM   20220304152748    4P0P  00001200000000758400001087032BG    YGYYA   006400630017
BI00B32BG    YY22064GMW     202205127114-4111-02             TERMINAL                 CCN000096000000096000FN00000000020220601000096000NNM   20220304152748    4P0P  00001200000000758400001087032BG    YGYYA   006400630017
BI00B32BG    YY22061GMW     202204077114-4112-02             TERMINAL                 CCN000072000000072000FN00000000020220601000072000NNM   20220304152748    4P0P  00000900000000598500000927132BG    YGYYA   006400630017
BI00B32BG    YY22062GMW     202204217114-4112-02             TERMINAL                 CCN000072000000072000FN00000000020220601000072000NNM   20220304152748    4P0P  00000900000000598500000927132BG    YGYYA   006400630017
BI00B32BG    YY22063GMW     202204287114-4112-02             TERMINAL                 CCN000054000000054000FN00000000020220601000054000NNM   20220304152748    4P0P  00000900000000598500000927132BG    YGYYA   006400630017
BI00B32BG    YY22064GMW     202205127114-4112-02             TERMINAL                 CCN000063000000063000FN00000000020220601000063000NNM   20220304152748    4P0P  00000900000000598500000927132BG    YGYYA   006400630017
BI00B32BG    YY22065GMW     202205127114-4112-02             TERMINAL                 CCN000090000000090000FN00000000020220601000090000NNM   20220304152748    4P0P  00000900000000598500000927132BG    YGYYA   006400630017
BI00B32BG    YY22063GMW     202204287116-4100-02             TERMINAL                 CCN000045000000045000FN00000000020220601000045000NNM   20220304152748    4P0P  00001500000000696000000990232BG    YGYYA   006400630015
BI00B32BG    YY22064GMW     202205127116-4100-02             TERMINAL                 CCN000045000000045000FN00000000020220601000045000NNM   20220304152748    4P0P  00001500000000696000000990232BG    YGYYA   006400630015
BI00B32BG    YY22065GMW     202205127116-4100-02             TERMINAL                 CCN000030000000030000FN00000000020220601000030000NNM   20220304152748    4P0P  00001500000000696000000990232BG    YGYYA   006400630015
BI00B32BG    YY22063GMW     202204287116-4102-02             TERMINAL                 CCN000036000000036000FN00000000020220601000036000NNM   20220304152748    4P0P  00001200000000553200000841432BG    YGYYA   006400630015
BI00B32BG    YY22064GMW     202205127116-4102-02             TERMINAL                 CCN000036000000036000FN00000000020220601000036000NNM   20220304152748    4P0P  00001200000000553200000841432BG    YGYYA   006400630015
BI00B32BG    YY22063GMW     202204287116-4104-02             TERMINAL                 CCN000060000000060000FN00000000020220601000060000NNM   20220304152748    4P0P  00001200000000580800000972432BG    YGYYA   006400630015
BI00B32BG    YY22064GMW     202205127116-4104-02             TERMINAL                 CCN000060000000060000FN00000000020220601000060000NNM   20220304152748    4P0P  00001200000000580800000972432BG    YGYYA   006400630015
BI00B32BG    YY22063GMW     202204287116-4110-02             TERMINAL                 CCN000018000000018000FN00000000020220601000018000NNM   20220304152748    4P0P  00000900000000594000000882232BG    YGYYA   006400630015
BI00B32BG    YY22064GMW     202205127116-4110-02             TERMINAL                 CCN000018000000018000FN00000000020220601000018000NNM   20220304152748    4P0P  00000900000000594000000882232BG    YGYYA   006400630015
BI00B32BG    YY22063GMW     202204287116-4111-02             TERMINAL                 CCN000030000000030000FN00000000020220601000030000NNM   20220304152748    4P0P  00000750000000529500000817732BG    YGYYA   006400630015
BI00B32BG    YY22064GMW     202205127116-4111-02             TERMINAL                 CCN000030000000030000FN00000000020220601000030000NNM   20220304152748    4P0P  00000750000000529500000817732BG    YGYYA   006400630015
BI00B32BG    YY22063GMW     202204287116-4120-02             TERMINAL                 CCN000006000000006000FN00000000020220601000006000NNM   20220304152748    4P0P  00000600000000780000001073632BG    YGYYA   006400630015
BI00B32BG    YY22064GMW     202205127116-4120-02             TERMINAL                 CCN000006000000006000FN00000000020220601000006000NNM   20220304152748    4P0P  00000600000000780000001073632BG    YGYYA   006400630015
BI00B32BG    YY22061GMW     202204077116-4121-02             TERMINAL                 CCN000045000000045000FN00000000020220601000045000NNM   20220304152748    4P0P  00000450000000618800000912432BG    YGYYA   006400630015
BI00B32BG    YY22062GMW     202204217116-4121-02             TERMINAL                 CCN000045000000045000FN00000000020220601000045000NNM   20220304152748    4P0P  00000450000000618800000912432BG    YGYYA   006400630015
BI00B32BG    YY22063GMW     202204287116-4121-02             TERMINAL                 CCN000045000000045000FN00000000020220601000045000NNM   20220304152748    4P0P  00000450000000618800000912432BG    YGYYA   006400630015
BI00B32BG    YY22064GMW     202205127116-4121-02             TERMINAL                 CCN000058500000058500FN00000000020220601000058500NNM   20220304152748    4P0P  00000450000000618800000912432BG    YGYYA   006400630015
BI00B32BG    YY22065GMW     202205127116-4121-02             TERMINAL                 CCN000058500000058500FN00000000020220601000058500NNM   20220304152748    4P0P  00000450000000618800000912432BG    YGYYA   006400630015
BI00B32BG    YY22062GMW     202204217116-4122-02             TERMINAL                 CCN000045000000045000FN00000000020220601000045000NNM   20220304152748    4P0P  00000450000000656600000950232BG    YGYYA   006400630015
BI00B32BG    YY22063GMW     202204287116-4122-02             TERMINAL                 CCN000045000000045000FN00000000020220601000045000NNM   20220304152748    4P0P  00000450000000656600000950232BG    YGYYA   006400630015
BI00B32BG    YY22064GMW     202205127116-4122-02             TERMINAL                 CCN000045000000045000FN00000000020220601000045000NNM   20220304152748    4P0P  00000450000000656600000950232BG    YGYYA   006400630015
BI00B32BG    #YY22063GMW    202204287158-3008-80             RUBBER STOPPER           CCN000020000000020000FN00000000020220601000020000NNM   20220304152746    2C0C  00002000000000288000000343032BG    YGYYA   004300270014
BI00B32BG    #YY22063GMW    202204287158-3374-90             CONNECTOR WIRE SEAL      CCN000020000000020000FN00000000020220601000020000NNM   20220304152746    2H0H  00002000000000172000000229332BG    YGYYA   002700430014
BI00B32BG    #YY22063GMW    202204287283-8398-40             CONNECTOR                CCN000001540000001540FN00000000020220601000001540NNM   20220304152746    2N0N  00000154000001007000001171332BG    YGYYA   005600390023
BI00B32BG    #YY22064GMW    202205127283-8398-40             CONNECTOR                CCN000001540000001540FN00000000020220601000001540NNM   20220304152746    2N0N  00000154000001007000001171332BG    YGYYA   005600390023
BI00B32BG    YY22063NMW     202204287158-3165-90             WIRE SEAL                CCN000040000000040000FN00000000020220601000040000NNM   20220304152809    1C0C  00004000000000124000000172432BG    YGYYA   004300270014
BI00B32BG    YY22065NMW     202205127158-3169-40             SEALING PLUG             CCN000040000000040000FN00000000020220601000040000NNM   20220304152809    1C0C  00004000000000156000000204132BG    YGYYA   004300260014
BI00B32CC    CTA32058       202204077289-3342-30             HOUSING FEMALE ASS'Y     CCN000016800000016800FN00000000020220701000016800NNE   20220304121949    1N0N  00000240000000686400000901432CC    BIYABCBU005500360039
BI00B32CC    #CTA32058      202204077283-8226-30             CONNECTOR                CCN000020000000020000FN00000000020220701000020000NNE   20220304121949    2N0N  00000200000000820000001008032CC    BIYABCBU005400370024
BI00B32CC    #CTA32058      202204077147-9094                RETAINER                 CCN000003000000003000FN00000000020220701000003000NNE   20220304121949    2F0F  00000300000000717000000872932CC    BIYABCBU005500360039
BI00B32CG    S220306-S      202205117116-4122-02             TERMINAL                 CCN000009000000009000FN00000000020220501000009000NNE   20220304121949    4P0P  00000450000000656600000950232CG    ASASIACO006400630015
BI00B32CG    S220306-M      202205117114-4111-02             TERMINAL                 CCN000012000000012000FN00000000020220501000012000NNE   20220304121949    4P0P  00001200000000758400001087032CG    ASASIACO006400630017
BI00B32CG    #S220306-M     202205117282-6446-40             CONNECTOR                CCN000001500000001500FN00000000020220501000001500NNE   20220304121949    2N0N  00000150000001185000001368032CG    ASASIACO005500360039
BI00B32CH    SJ22033HMW     202203057C89-6868-30             SEALED ASSY FEMALE       CCN000045360000045360FN00000000020220301000045360NNM00020220304170034    4N0N  00000252000000839200001119232CH    SJSAMIJF005500360039
BI00B32CH    SJ22034HMW     202203057327-6870-30             MULTI FUSE               CCN000015552000015552FN00000000020220301000015552NNM00020220304170207    4N0N  00000028800001015200001181132CH    SJSAMIJF005400370024
BI00B32CH    SJ22033HMW     202203057327-6872-30             MULTI FUSE               CCN000008064000002304FN00000000020220301000002304NNM00020220304170116    4N0N  00000028800000984500001150432CH    SJSAMIJF005400370024
BI00B32CH    SJ22033HMW     202203107327-6876-30             MULTI FUSE               CCN000006624000002016FN00000000020220301000002016NNM00020220304170913    4N0N  00000028800001016400001182332CH    SJSAMIJF005400370024
BI00B32CH    SJ22033HMW     202203107327-6878-30             MULTI FUSE               CCN000008352000002016FN00000000020220301000002016NNM00020220304170929    4N0N  00000028800000989700001155632CH    SJSAMIJF005400370024
BI00B32DE    TCT2034        202203107289-3342-90             HOUSING FEMALE ASS'Y     CCN000004800000004800FN00000000020220301000004800NNM00020220304171017    1N0N  00000240000000686400000901432DE    TVYEV-TV005500360039
BI00B32DE    #TCTL204B      202203177158-3003-90             RUBBER STOPPER           CCN000120000000120000FN00000000020220401000120000NNED0020220304121949    2C0C  00002000000000250000000306032DE    TVYEV-TV002700430014
BI00T32DE    @ICT2041       202204047183-2510                HOUSING                  CCN000006000000006000FN00000000020220401000006000NNM   20220304121949    3F0F  00000300000001063500001159032DE    TVYEV-TV005400370024
BI00T32DE    @ICT2041       202204047183-3190                JOINT CONNECTOR          CCN000028800000028800FN00000000020220401000028800NNM   20220304121949    3F0F  00000360000000457600000667832DE    TVYEV-TV005500360039
BI00T32DE    @ICT2041       202204047283-1223-30             HOUSING SUB ASSEMBLY     CCN000004800000004800FN00000000020220401000004800NNM   20220304121949    3N0N  00000480000000749300000998032DE    TVYEV-TV005500360039
BI00T32DE    @ICT2041       202204047283-1556                CONNECTOR ASS'Y          CCN000014400000014400FN00000000020220401000014400NNM   20220304121949    3N0N  00000240000000755000001014032DE    TVYEV-TV005500360039
BI00B32DG    #RL2051        202204077116-4021                TERMINAL                 CCN000081000000081000FN00000000020220501000081000NNM   20220304152930    2F0P  00001350000000534600000868832DG    BFSAIBF 006400630015
BI00B32DG    #RL2052        202204217116-4021                TERMINAL                 CCN000040500000040500FN00000000020220501000040500NNM   20220304152930    2F0P  00001350000000534600000868832DG    BFSAIBF 006400630015
BI00B32DG    #RL2053        202204287116-4021                TERMINAL                 CCN000040500000040500FN00000000020220501000040500NNM   20220304152930    2F0P  00001350000000534600000868832DG    BFSAIBF 006400630015
BI00B32DG    #RL2054        202205057116-4021                TERMINAL                 CCN000027000000027000FN00000000020220501000027000NNM   20220304152930    2F0P  00001350000000534600000868832DG    BFSAIBF 006400630015
BI00B32DG    #RL2051        202204077283-8123-40             CONNECTOR HOUSING        CCN000004000000004000FN00000000020220501000004000NNM   20220304152930    2N0N  00000400000000380000000530032DG    BFSAIBF 005600390023
BI00B32DG    #RL2051        202204077035-5731                GROMMET                  CCN000000500000000500FN00000000020220501000000500NNM   20220304152930    2H0H  00000050000000808000000918032DG    BFSAIBF 005600390040
BI00B32DG    #RL2052        202204217035-5731                GROMMET                  CCN000000500000000500FN00000000020220501000000500NNM   20220304152930    2H0H  00000050000000808000000918032DG    BFSAIBF 005600390040
BI00B32DG    #RL2051        202204077158-3004-40             RUBBER STOPPER           CCN000040000000040000FN00000000020220501000040000NNM   20220304152930    2C0C  00002000000000234000000306332DG    BFSAIBF 002700430014
BI00B32DG    #RL2052        202204217158-3004-40             RUBBER STOPPER           CCN000020000000020000FN00000000020220501000020000NNM   20220304152930    2C0C  00002000000000234000000306332DG    BFSAIBF 002700430014
BI00B32DG    #RL2053        202204287158-3004-40             RUBBER STOPPER           CCN000020000000020000FN00000000020220501000020000NNM   20220304152930    2C0C  00002000000000234000000306332DG    BFSAIBF 002700430014
BI00B32DG    #RL2051        202204077183-6320                HOUSING                  CCN000009600000009600FN00000000020220501000009600NNM   20220304152930    2F0F  00000480000000820800001103632DG    BFSAIBF 005500360039
BI00B32DG    #RL2052        202204217183-6320                HOUSING                  CCN000004800000004800FN00000000020220501000004800NNM   20220304152930    2F0F  00000480000000820800001103632DG    BFSAIBF 005500360039
BI00B32DG    #RL2053        202204287183-6320                HOUSING                  CCN000004800000004800FN00000000020220501000004800NNM   20220304152930    2F0F  00000480000000820800001103632DG    BFSAIBF 005500360039
BI00B32DG    #RL2054        202205057183-6320                HOUSING                  CCN000004800000004800FN00000000020220501000004800NNM   20220304152930    2F0F  00000480000000820800001103632DG    BFSAIBF 005500360039
BI00B32DG    #RL2051        202204077183-1615                HOUSING                  CCN000004800000004800FN00000000020220501000004800NNM   20220304152930    2F0F  00000480000000757000001042032DG    BFSAIBF 005500360039
BI00B32DG    #RL2051        202204077183-2415                CONNECTOR HOUSING        CCN000014400000014400FN00000000020220501000014400NNM   20220304152930    2F0F  00000480000000798200001091432DG    BFSAIBF 005500360039
BI00B32DG    #RL2052        202204217183-2415                CONNECTOR HOUSING        CCN000009600000009600FN00000000020220501000009600NNM   20220304152930    2F0F  00000480000000798200001091432DG    BFSAIBF 005500360039
BI00B32DG    #RL2053        202204287183-2415                CONNECTOR HOUSING        CCN000009600000009600FN00000000020220501000009600NNM   20220304152930    2F0F  00000480000000798200001091432DG    BFSAIBF 005500360039
BI00B32DG    #RL2051        202204077183-2413-30             CONNECTOR HOUSING        CCN000004800000004800FN00000000020220501000004800NNM   20220304152930    2F0F  00000480000000477600000759532DG    BFSAIBF 005500360039
BI00B32DG    #RL2052        202204217183-2413-30             CONNECTOR HOUSING        CCN000004800000004800FN00000000020220501000004800NNM   20220304152930    2F0F  00000480000000477600000759532DG    BFSAIBF 005500360039
BI00B32DG    #RL2051        202204077114-4022                TERMINAL                 CCN000030000000030000FN00000000020220501000030000NNM   20220304152930    2F0P  00001500000000708000001120632DG    BFSAIBF 006400630015
BI00B32DG    #RL2052        202204217114-4022                TERMINAL                 CCN000015000000015000FN00000000020220501000015000NNM   20220304152930    2F0P  00001500000000708000001120632DG    BFSAIBF 006400630015
BI00B32DG    #RL2053        202204287114-4022                TERMINAL                 CCN000015000000015000FN00000000020220501000015000NNM   20220304152930    2F0P  00001500000000708000001120632DG    BFSAIBF 006400630015
BI00B32DG    #RL2054        202205057114-4022                TERMINAL                 CCN000015000000015000FN00000000020220501000015000NNM   20220304152930    2F0P  00001500000000708000001120632DG    BFSAIBF 006400630015
BI00B32DG    #RL2051        202204077158-3008-80             RUBBER STOPPER           CCN000080000000080000FN00000000020220501000080000NNM   20220304152930    2C0C  00002000000000288000000343032DG    BFSAIBF 004300270014
BI00B32DG    #RL2052        202204217158-3008-80             RUBBER STOPPER           CCN000040000000040000FN00000000020220501000040000NNM   20220304152930    2C0C  00002000000000288000000343032DG    BFSAIBF 004300270014
BI00B32DG    #RL2053        202204287158-3008-80             RUBBER STOPPER           CCN000040000000040000FN00000000020220501000040000NNM   20220304152930    2C0C  00002000000000288000000343032DG    BFSAIBF 004300270014
BI00B32DG    #RL2054        202205057158-3008-80             RUBBER STOPPER           CCN000040000000040000FN00000000020220501000040000NNM   20220304152930    2C0C  00002000000000288000000343032DG    BFSAIBF 004300270014
BI00B32DG    #RL2051        202204077158-3007-10             RUBBER STOPPER           CCN000080000000080000FN00000000020220501000080000NNM   20220304152930    2H0H  00002000000000308000000362732DG    BFSAIBF 002700430014
BI00B32DG    #RL2052        202204217158-3007-10             RUBBER STOPPER           CCN000040000000040000FN00000000020220501000040000NNM   20220304152930    2H0H  00002000000000308000000362732DG    BFSAIBF 002700430014
BI00B32DG    #RL2053        202204287158-3007-10             RUBBER STOPPER           CCN000040000000040000FN00000000020220501000040000NNM   20220304152930    2H0H  00002000000000308000000362732DG    BFSAIBF 002700430014
BI00B32DG    #RL2054        202205057158-3007-10             RUBBER STOPPER           CCN000040000000040000FN00000000020220501000040000NNM   20220304152930    2H0H  00002000000000308000000362732DG    BFSAIBF 002700430014
BI00B32DG    #RL2051        202204077189-3031                HOUSING FEMALE           CCN000002400000002400FN00000000020220501000002400NNM   20220304152930    2F0F  00000240000000928800001365832DG    BFSAIBF 005500360039
BI00B32DG    #RL2051        202204077282-5845                HOUSING MALE ASS'Y       CCN000004000000004000FN00000000020220501000004000NNM   20220304152930    2N0N  00000400000001068000001178032DG    BFSAIBF 005400370024
BI00B32DG    #RL2051        202204077282-1026                CONNECTOR HOUSING        CCN000014000000014000FN00000000020220501000014000NNM   20220304152930    2N0N  00000200000000696000000808532DG    BFSAIBF 005400370024
BI00B32DG    #RL2052        202204217282-1026                CONNECTOR HOUSING        CCN000008000000008000FN00000000020220501000008000NNM   20220304152930    2N0N  00000200000000696000000808532DG    BFSAIBF 005400370024
BI00B32DG    #RL2053        202204287282-1026                CONNECTOR HOUSING        CCN000008000000008000FN00000000020220501000008000NNM   20220304152930    2N0N  00000200000000696000000808532DG    BFSAIBF 005400370024
BI00B32DG    #RL2054        202205057282-1026                CONNECTOR HOUSING        CCN000004000000004000FN00000000020220501000004000NNM   20220304152930    2N0N  00000200000000696000000808532DG    BFSAIBF 005400370024
BI00B32DG    #RL2051        202204077158-3003-90             RUBBER STOPPER           CCN000040000000040000FN00000000020220501000040000NNM   20220304152930    2C0C  00002000000000250000000306032DG    BFSAIBF 002700430014
BI00B32DG    #RL2052        202204217158-3003-90             RUBBER STOPPER           CCN000020000000020000FN00000000020220501000020000NNM   20220304152930    2C0C  00002000000000250000000306032DG    BFSAIBF 002700430014
BI00B32DG    #RL2051        202204077282-3020                CONNECTOR                CCN000001000000001000FN00000000020220501000001000NNM   20220304152930    2N0N  00000100000000984000001145432DG    BFSAIBF 005500360039
BI00B32DG    #RL2052        202204217282-3020                CONNECTOR                CCN000001000000001000FN00000000020220501000001000NNM   20220304152930    2N0N  00000100000000984000001145432DG    BFSAIBF 005500360039
BI00B32DG    #RL2051        202204077158-3075-10             SEALED CONNECTOR         CCN000040000000040000FN00000000020220501000040000NNM   20220304152930    2C0C  00004000000000376000000429732DG    BFSAIBF 002700430014
BI00B32DG    #RL2051        202204077183-1616                CONNECTOR HOUSING        CCN000004800000004800FN00000000020220501000004800NNM   20220304152930    2F0F  00000240000000557500000823332DG    BFSAIBF 005500360039
BI00B32DG    #RL2052        202204217183-1616                CONNECTOR HOUSING        CCN000002400000002400FN00000000020220501000002400NNM   20220304152930    2F0F  00000240000000557500000823332DG    BFSAIBF 005500360039
BI00B32DG    #RL2053        202204287183-1616                CONNECTOR HOUSING        CCN000002400000002400FN00000000020220501000002400NNM   20220304152930    2F0F  00000240000000557500000823332DG    BFSAIBF 005500360039
BI00B32DG    #RL2054        202205057183-1616                CONNECTOR HOUSING        CCN000002400000002400FN00000000020220501000002400NNM   20220304152930    2F0F  00000240000000557500000823332DG    BFSAIBF 005500360039
BI00B32DG    #RL2051        202204077183-2418-30             CONNECTOR HOUSING        CCN000004800000004800FN00000000020220501000004800NNM   20220304152930    2F0F  00000480000000917000001235332DG    BFSAIBF 005500360039
BI00B32DG    #RL2051        202204077172-5632-10             DUMMY PLUG               CCN000040000000040000FN00000000020220501000040000NNM   20220304152930    2H0H  00002000000000080400000131832DG    BFSAIBF 004300270014
BI00B32DG    #RL2052        202204217172-5632-10             DUMMY PLUG               CCN000020000000020000FN00000000020220501000020000NNM   20220304152930    2H0H  00002000000000080400000131832DG    BFSAIBF 004300270014
BI00B32DG    #RL2053        202204287172-5632-10             DUMMY PLUG               CCN000020000000020000FN00000000020220501000020000NNM   20220304152930    2H0H  00002000000000080400000131832DG    BFSAIBF 004300270014
BI00B32DG    #RL2054        202205057172-5632-10             DUMMY PLUG               CCN000020000000020000FN00000000020220501000020000NNM   20220304152930    2H0H  00002000000000080400000131832DG    BFSAIBF 004300270014
BI00B32DG    RP2051         202204077017-1180-02             TERMINAL                 CCN000072000000072000FN00000000020220501000072000NNM   20220304153056    4P0P  00007200000001065600001229032DG    BFSAIBF 005100280028
BI00B32DG    RP2051         202204077017-1183-02             TERMINAL                 CCN000027000000027000FN00000000020220501000027000NNM   20220304153056    4P0P  00002700000001139400001307432DG    BFSAIBF 005100280028
BI00B32DG    RP2051         202204077114-4020                TERMINAL                 CCN000063000000063000FN00000000020220501000063000NNM   20220304153056    4P0P  00002100000000875700001169332DG    BFSAIBF 006400630015
BI00B32DG    RP2052         202204217114-4020                TERMINAL                 CCN000042000000042000FN00000000020220501000042000NNM   20220304153056    4P0P  00002100000000875700001169332DG    BFSAIBF 006400630015
BI00B32DG    RP2053         202204287114-4020                TERMINAL                 CCN000042000000042000FN00000000020220501000042000NNM   20220304153056    4P0P  00002100000000875700001169332DG    BFSAIBF 006400630015
BI00B32DG    RP2051         202204077114-4021                TERMINAL                 CCN000060000000060000FN00000000020220501000060000NNM   20220304153056    4P0P  00001500000000670500000964132DG    BFSAIBF 006400630015
BI00B32DG    RP2052         202204217114-4021                TERMINAL                 CCN000030000000030000FN00000000020220501000030000NNM   20220304153056    4P0P  00001500000000670500000964132DG    BFSAIBF 006400630015
BI00B32DG    RP2053         202204287114-4021                TERMINAL                 CCN000030000000030000FN00000000020220501000030000NNM   20220304153056    4P0P  00001500000000670500000964132DG    BFSAIBF 006400630015
BI00B32DG    RP2054         202205057114-4021                TERMINAL                 CCN000030000000030000FN00000000020220501000030000NNM   20220304153056    4P0P  00001500000000670500000964132DG    BFSAIBF 006400630015
BI00B32DG    RP2051         202204077114-4032                TERMINAL                 CCN000007500000007500FN00000000020220501000007500NNM   20220304153056    4P0P  00000750000000735000001063632DG    BFSAIBF 006400630017
BI00B32DG    RP2051         202204077114-4231-02             TERMINAL                 CCN000054000000054000FN00000000020220501000054000NNM   20220304153056    4P0P  00001800000000554400000848032DG    BFSAIBF 006400630015
BI00B32DG    RP2052         202204217114-4231-02             TERMINAL                 CCN000036000000036000FN00000000020220501000036000NNM   20220304153056    4P0P  00001800000000554400000848032DG    BFSAIBF 006400630015
BI00B32DG    RP2053         202204287114-4231-02             TERMINAL                 CCN000018000000018000FN00000000020220501000018000NNM   20220304153056    4P0P  00001800000000554400000848032DG    BFSAIBF 006400630015
BI00B32DG    RP2051         202204077114-4624-02             TERMINAL                 CCN000048000000048000FN00000000020220501000048000NNM   20220304153056    4P0P  00002400000000895200001188832DG    BFSAIBF 006400630015
BI00B32DG    RP2052         202204217114-4624-02             TERMINAL                 CCN000024000000024000FN00000000020220501000024000NNM   20220304153056    4P0P  00002400000000895200001188832DG    BFSAIBF 006400630015
BI00B32DG    RP2053         202204287114-4624-02             TERMINAL                 CCN000024000000024000FN00000000020220501000024000NNM   20220304153056    4P0P  00002400000000895200001188832DG    BFSAIBF 006400630015
BI00B32DG    RP2051         202204077114-4728-02             TERMINAL                 CCN000600000000600000FN00000000020220501000600000NNM   20220304153056    4P0P  00003000000000510000000804232DG    BFSAIBF 006400630015
BI00B32DG    RP2052         202204217114-4728-02             TERMINAL                 CCN000300000000300000FN00000000020220501000300000NNM   20220304153056    4P0P  00003000000000510000000804232DG    BFSAIBF 006400630015
BI00B32DG    RP2053         202204287114-4728-02             TERMINAL                 CCN000300000000300000FN00000000020220501000300000NNM   20220304153056    4P0P  00003000000000510000000804232DG    BFSAIBF 006400630015
BI00B32DG    RP2054         202205057114-4728-02             TERMINAL                 CCN000300000000300000FN00000000020220501000300000NNM   20220304153056    4P0P  00003000000000510000000804232DG    BFSAIBF 006400630015
BI00B32DG    RP2051         202204077114-4729-02             TERMINAL                 CCN000120000000120000FN00000000020220501000120000NNM   20220304153056    4P0P  00003000000000516000000810232DG    BFSAIBF 006400630015
BI00B32DG    RP2052         202204217114-4729-02             TERMINAL                 CCN000060000000060000FN00000000020220501000060000NNM   20220304153056    4P0P  00003000000000516000000810232DG    BFSAIBF 006400630015
BI00B32DG    RP2053         202204287114-4729-02             TERMINAL                 CCN000060000000060000FN00000000020220501000060000NNM   20220304153056    4P0P  00003000000000516000000810232DG    BFSAIBF 006400630015
BI00B32DG    RP2054         202205057114-4729-02             TERMINAL                 CCN000030000000030000FN00000000020220501000030000NNM   20220304153056    4P0P  00003000000000516000000810232DG    BFSAIBF 006400630015
BI00B32DG    RP2051         202204077114-5746-02             TERMINAL                 CCN000126000000126000FN00000000020220501000126000NNM   20220304153056    4P0P  00002100000000695100000988732DG    BFSAIBF 006400630015
BI00B32DG    RP2052         202204217114-5746-02             TERMINAL                 CCN000063000000063000FN00000000020220501000063000NNM   20220304153056    4P0P  00002100000000695100000988732DG    BFSAIBF 006400630015
BI00B32DG    RP2053         202204287114-5746-02             TERMINAL                 CCN000063000000063000FN00000000020220501000063000NNM   20220304153056    4P0P  00002100000000695100000988732DG    BFSAIBF 006400630015
BI00B32DG    RP2054         202205057114-5746-02             TERMINAL                 CCN000021000000021000FN00000000020220501000021000NNM   20220304153056    4P0P  00002100000000695100000988732DG    BFSAIBF 006400630015
BI00B32DG    RP2051         202204077114-5747-02             TERMINAL                 CCN000234000000234000FN00000000020220501000234000NNM   20220304153056    4P0P  00001800000000626400000920032DG    BFSAIBF 006400630015
BI00B32DG    RP2052         202204217114-5747-02             TERMINAL                 CCN000126000000126000FN00000000020220501000126000NNM   20220304153056    4P0P  00001800000000626400000920032DG    BFSAIBF 006400630015
BI00B32DG    RP2053         202204287114-5747-02             TERMINAL                 CCN000126000000126000FN00000000020220501000126000NNM   20220304153056    4P0P  00001800000000626400000920032DG    BFSAIBF 006400630015
BI00B32DG    RP2054         202205057114-5747-02             TERMINAL                 CCN000090000000090000FN00000000020220501000090000NNM   20220304153056    4P0P  00001800000000626400000920032DG    BFSAIBF 006400630015
BI00B32DG    RP2051         202204077114-5748-02             TERMINAL                 CCN000036000000036000FN00000000020220501000036000NNM   20220304153056    4P0P  00001200000000444000000737632DG    BFSAIBF 006400630015
BI00B32DG    RP2052         202204217114-5748-02             TERMINAL                 CCN000024000000024000FN00000000020220501000024000NNM   20220304153056    4P0P  00001200000000444000000737632DG    BFSAIBF 006400630015
BI00B32DG    RP2053         202204287114-5748-02             TERMINAL                 CCN000024000000024000FN00000000020220501000024000NNM   20220304153056    4P0P  00001200000000444000000737632DG    BFSAIBF 006400630015
BI00B32DG    RP2051         202204077114-5753-02             TERMINAL                 CCN000189000000189000FN00000000020220501000189000NNM   20220304153056    4P0P  00002700000000847800001141432DG    BFSAIBF 006400630015
BI00B32DG    RP2052         202204217114-5753-02             TERMINAL                 CCN000108000000108000FN00000000020220501000108000NNM   20220304153056    4P0P  00002700000000847800001141432DG    BFSAIBF 006400630015
BI00B32DG    RP2053         202204287114-5753-02             TERMINAL                 CCN000108000000108000FN00000000020220501000108000NNM   20220304153056    4P0P  00002700000000847800001141432DG    BFSAIBF 006400630015
BI00B32DG    RP2054         202205057114-5753-02             TERMINAL                 CCN000027000000027000FN00000000020220501000027000NNM   20220304153056    4P0P  00002700000000847800001141432DG    BFSAIBF 006400630015
BI00B32DG    RP2051         202204077116-4020                TERMINAL                 CCN000054000000054000FN00000000020220501000054000NNM   20220304153056    4P0P  00001350000000513000000798232DG    BFSAIBF 006400630015
BI00B32DG    RP2052         202204217116-4020                TERMINAL                 CCN000027000000027000FN00000000020220501000027000NNM   20220304153056    4P0P  00001350000000513000000798232DG    BFSAIBF 006400630015
BI00B32DG    RP2053         202204287116-4020                TERMINAL                 CCN000027000000027000FN00000000020220501000027000NNM   20220304153056    4P0P  00001350000000513000000798232DG    BFSAIBF 006400630015
BI00B32DG    RP2051         202204077116-4025                TERMINAL                 CCN000048000000048000FN00000000020220501000048000NNM   20220304153056    4P0P  00001600000000644800000975132DG    BFSAIBF 006400630017
BI00B32DG    RP2052         202204217116-4025                TERMINAL                 CCN000032000000032000FN00000000020220501000032000NNM   20220304153056    4P0P  00001600000000644800000975132DG    BFSAIBF 006400630017
BI00B32DG    RP2053         202204287116-4025                TERMINAL                 CCN000016000000016000FN00000000020220501000016000NNM   20220304153056    4P0P  00001600000000644800000975132DG    BFSAIBF 006400630017
BI00B32DG    RP2051         202204077116-4032                TERMINAL                 CCN000024000000024000FN00000000020220501000024000NNM   20220304153056    4P0P  00000600000000532800000818032DG    BFSAIBF 006400630015
BI00B32DG    RP2052         202204217116-4032                TERMINAL                 CCN000012000000012000FN00000000020220501000012000NNM   20220304153056    4P0P  00000600000000532800000818032DG    BFSAIBF 006400630015
BI00B32DG    RP2053         202204287116-4032                TERMINAL                 CCN000012000000012000FN00000000020220501000012000NNM   20220304153056    4P0P  00000600000000532800000818032DG    BFSAIBF 006400630015
BI00B32DG    RP2051         202204077116-4231-02             TERMINAL                 CCN000312000000312000FN00000000020220501000312000NNM   20220304153056    4P0P  00002600000000683800001012532DG    BFSAIBF 006400630017
BI00B32DG    RP2052         202204217116-4231-02             TERMINAL                 CCN000156000000156000FN00000000020220501000156000NNM   20220304153056    4P0P  00002600000000683800001012532DG    BFSAIBF 006400630017
BI00B32DG    RP2053         202204287116-4231-02             TERMINAL                 CCN000156000000156000FN00000000020220501000156000NNM   20220304153056    4P0P  00002600000000683800001012532DG    BFSAIBF 006400630017
BI00B32DG    RP2054         202205057116-4231-02             TERMINAL                 CCN000130000000130000FN00000000020220501000130000NNM   20220304153056    4P0P  00002600000000683800001012532DG    BFSAIBF 006400630017
BI00B32DG    RP2051         202204077116-4486-02             TERMINAL                 CCN000476000000476000FN00000000020220501000476000NNM   20220304153056    4P0P  00002800000000666400000995132DG    BFSAIBF 006400630017
BI00B32DG    RP2052         202204217116-4486-02             TERMINAL                 CCN000252000000252000FN00000000020220501000252000NNM   20220304153056    4P0P  00002800000000666400000995132DG    BFSAIBF 006400630017
BI00B32DG    RP2053         202204287116-4486-02             TERMINAL                 CCN000252000000252000FN00000000020220501000252000NNM   20220304153056    4P0P  00002800000000666400000995132DG    BFSAIBF 006400630017
BI00B32DG    RP2054         202205057116-4486-02             TERMINAL                 CCN000196000000196000FN00000000020220501000196000NNM   20220304153056    4P0P  00002800000000666400000995132DG    BFSAIBF 006400630017
BI00B32DG    RP2051         202204077116-5035-02             TERMINAL                 CCN000120000000120000FN00000000020220501000120000NNM   20220304153056    4P0P  00001500000000543000000828232DG    BFSAIBF 006400630015
BI00B32DG    RP2052         202204217116-5035-02             TERMINAL                 CCN000060000000060000FN00000000020220501000060000NNM   20220304153056    4P0P  00001500000000543000000828232DG    BFSAIBF 006400630015
BI00B32DG    RP2053         202204287116-5035-02             TERMINAL                 CCN000060000000060000FN00000000020220501000060000NNM   20220304153056    4P0P  00001500000000543000000828232DG    BFSAIBF 006400630015
BI00B32DG    RP2054         202205057116-5035-02             TERMINAL                 CCN000030000000030000FN00000000020220501000030000NNM   20220304153056    4P0P  00001500000000543000000828232DG    BFSAIBF 006400630015
BI00B32DG    RP2051         202204077116-5036-02             TERMINAL                 CCN000013500000013500FN00000000020220501000013500NNM   20220304153056    4P0P  00001350000000618300001042232DG    BFSAIBF 006400630015
BI00B32DG    RP2051         202204077116-5041-02             TERMINAL                 CCN000030000000030000FN00000000020220501000030000NNM   20220304153056    4P0P  00001500000000583500000868732DG    BFSAIBF 006400630015
BI00B32DG    RP2052         202204217116-5041-02             TERMINAL                 CCN000015000000015000FN00000000020220501000015000NNM   20220304153056    4P0P  00001500000000583500000868732DG    BFSAIBF 006400630015
BI00B32DG    RP2051         202204077116-5042-02             TERMINAL                 CCN000283500000283500FN00000000020220501000283500NNM   20220304153056    4P0P  00001350000000560300000845532DG    BFSAIBF 006400630015
BI00B32DG    RP2052         202204217116-5042-02             TERMINAL                 CCN000148500000148500FN00000000020220501000148500NNM   20220304153056    4P0P  00001350000000560300000845532DG    BFSAIBF 006400630015
BI00B32DG    RP2053         202204287116-5042-02             TERMINAL                 CCN000148500000148500FN00000000020220501000148500NNM   20220304153056    4P0P  00001350000000560300000845532DG    BFSAIBF 006400630015
BI00B32DG    RP2054         202205057116-5042-02             TERMINAL                 CCN000121500000121500FN00000000020220501000121500NNM   20220304153056    4P0P  00001350000000560300000845532DG    BFSAIBF 006400630015
BI00B32DG    RP2051         202204077116-5044-02             TERMINAL                 CCN000224000000224000FN00000000020220501000224000NNM   20220304153056    4P0P  00001600000000641600000986332DG    BFSAIBF 006400630017
BI00B32DG    RP2052         202204217116-5044-02             TERMINAL                 CCN000112000000112000FN00000000020220501000112000NNM   20220304153056    4P0P  00001600000000641600000986332DG    BFSAIBF 006400630017
BI00B32DG    RP2053         202204287116-5044-02             TERMINAL                 CCN000112000000112000FN00000000020220501000112000NNM   20220304153056    4P0P  00001600000000641600000986332DG    BFSAIBF 006400630017
BI00B32DG    RP2054         202205057116-5044-02             TERMINAL                 CCN000096000000096000FN00000000020220501000096000NNM   20220304153056    4P0P  00001600000000641600000986332DG    BFSAIBF 006400630017
BI00B32DG    RP2051         202204077116-5045-02             TERMINAL                 CCN000160000000160000FN00000000020220501000160000NNM   20220304153056    4P0P  00001600000000678400001007132DG    BFSAIBF 006400630017
BI00B32DG    RP2052         202204217116-5045-02             TERMINAL                 CCN000080000000080000FN00000000020220501000080000NNM   20220304153056    4P0P  00001600000000678400001007132DG    BFSAIBF 006400630017
BI00B32DG    RP2053         202204287116-5045-02             TERMINAL                 CCN000080000000080000FN00000000020220501000080000NNM   20220304153056    4P0P  00001600000000678400001007132DG    BFSAIBF 006400630017
BI00B32DG    RP2054         202205057116-5045-02             TERMINAL                 CCN000064000000064000FN00000000020220501000064000NNM   20220304153056    4P0P  00001600000000678400001007132DG    BFSAIBF 006400630017
BI00B32DG    RP2051         202204077116-5046-02             TERMINAL                 CCN000036000000036000FN00000000020220501000036000NNM   20220304153056    4P0P  00001200000000544800000873532DG    BFSAIBF 006400630017
BI00B32DG    RP2052         202204217116-5046-02             TERMINAL                 CCN000024000000024000FN00000000020220501000024000NNM   20220304153056    4P0P  00001200000000544800000873532DG    BFSAIBF 006400630017
BI00B32DG    RP2053         202204287116-5046-02             TERMINAL                 CCN000024000000024000FN00000000020220501000024000NNM   20220304153056    4P0P  00001200000000544800000873532DG    BFSAIBF 006400630017
BI00B32DG    RP2051         202204077158-3006-90             RUBBER STOPPER           CCN000160000000160000FN00000000020220501000160000NNM   20220304153056    1C0C  00002000000000330600000386032DG    BFSAIBF 002700430014
BI00B32DG    RP2052         202204217158-3006-90             RUBBER STOPPER           CCN000080000000080000FN00000000020220501000080000NNM   20220304153056    1C0C  00002000000000330600000386032DG    BFSAIBF 002700430014
BI00B32DG    RP2053         202204287158-3006-90             RUBBER STOPPER           CCN000080000000080000FN00000000020220501000080000NNM   20220304153056    1C0C  00002000000000330600000386032DG    BFSAIBF 002700430014
BI00B32DG    RP2054         202205057158-3006-90             RUBBER STOPPER           CCN000080000000080000FN00000000020220501000080000NNM   20220304153056    1C0C  00002000000000330600000386032DG    BFSAIBF 002700430014
BI00B32DG    RP2051         202204077116-5750-02             TERMINAL                 CCN000150000000150000FN00000000020220501000150000NNM   20220304153056    4P0P  00001500000000457500000742732DG    BFSAIBF 006400630015
BI00B32DG    RP2052         202204217116-5750-02             TERMINAL                 CCN000075000000075000FN00000000020220501000075000NNM   20220304153056    4P0P  00001500000000457500000742732DG    BFSAIBF 006400630015
BI00B32DG    RP2053         202204287116-5750-02             TERMINAL                 CCN000075000000075000FN00000000020220501000075000NNM   20220304153056    4P0P  00001500000000457500000742732DG    BFSAIBF 006400630015
BI00B32DG    RP2054         202205057116-5750-02             TERMINAL                 CCN000060000000060000FN00000000020220501000060000NNM   20220304153056    4P0P  00001500000000457500000742732DG    BFSAIBF 006400630015
BI00B32DG    RP2051         202204077116-5751-02             TERMINAL                 CCN000072000000072000FN00000000020220501000072000NNM   20220304153056    4P0P  00001200000000379200000664432DG    BFSAIBF 006400630015
BI00B32DG    RP2052         202204217116-5751-02             TERMINAL                 CCN000036000000036000FN00000000020220501000036000NNM   20220304153056    4P0P  00001200000000379200000664432DG    BFSAIBF 006400630015
BI00B32DG    RP2053         202204287116-5751-02             TERMINAL                 CCN000036000000036000FN00000000020220501000036000NNM   20220304153056    4P0P  00001200000000379200000664432DG    BFSAIBF 006400630015
BI00B32DG    RP2054         202205057116-5751-02             TERMINAL                 CCN000012000000012000FN00000000020220501000012000NNM   20220304153056    4P0P  00001200000000379200000664432DG    BFSAIBF 006400630015
BI00B32DG    RP2051         202204077283-1156                CONNECTOR                CCN000000800000000800FN00000000020220501000000800NNM   20220304153056    4N0N  00000080000000877600001078032DG    BFSAIBF 005600390040
BI00B32DG    RP2052         202204217283-1156                CONNECTOR                CCN000000800000000800FN00000000020220501000000800NNM   20220304153056    4N0N  00000080000000877600001078032DG    BFSAIBF 005600390040
BI00B32DG    RP2051         202204077287-9234                JOINT CONNECTOR          CCN000028800000028800FN00000000020220501000028800NNM   20220304153056    4N0N  00000960000000893800001184832DG    BFSAIBF 005500360039
BI00B32DG    RP2052         202204217287-9234                JOINT CONNECTOR          CCN000019200000019200FN00000000020220501000019200NNM   20220304153056    4N0N  00000960000000893800001184832DG    BFSAIBF 005500360039
BI00B32DG    RP2053         202204287287-9234                JOINT CONNECTOR          CCN000009600000009600FN00000000020220501000009600NNM   20220304153056    4N0N  00000960000000893800001184832DG    BFSAIBF 005500360039
BI00B32DG    RP2051         202204077114-5096-02             TERMINAL                 CCN000030000000030000FN00000000020220501000030000NNM   20220304153056    4P0P  00003000000000498000000792232DG    BFSAIBF 006400630015
BI00B32DG    RP2051         202204077288-3329-30             HOUSING MALE             CCN000003000000003000FN00000000020220501000003000NNM   20220304153056    4N0N  00000150000000866100001011132DG    BFSAIBF 005400370024
BI00B32DG    RP2052         202204217288-3329-30             HOUSING MALE             CCN000001500000001500FN00000000020220501000001500NNM   20220304153056    4N0N  00000150000000866100001011132DG    BFSAIBF 005400370024
BI00B32DG    RP2053         202204287288-3329-30             HOUSING MALE             CCN000001500000001500FN00000000020220501000001500NNM   20220304153056    4N0N  00000150000000866100001011132DG    BFSAIBF 005400370024
BI00B32DG    RP2051         202204077289-3342-30             HOUSING FEMALE ASS'Y     CCN000014400000014400FN00000000020220501000014400NNM   20220304153056    1N0N  00000240000000686400000901432DG    BFSAIBF 005500360039
BI00B32DG    RP2052         202204217289-3342-30             HOUSING FEMALE ASS'Y     CCN000007200000007200FN00000000020220501000007200NNM   20220304153056    1N0N  00000240000000686400000901432DG    BFSAIBF 005500360039
BI00B32DG    RP2053         202204287289-3342-30             HOUSING FEMALE ASS'Y     CCN000007200000007200FN00000000020220501000007200NNM   20220304153056    1N0N  00000240000000686400000901432DG    BFSAIBF 005500360039
BI00B32DG    RP2054         202205057289-3342-30             HOUSING FEMALE ASS'Y     CCN000004800000004800FN00000000020220501000004800NNM   20220304153056    1N0N  00000240000000686400000901432DG    BFSAIBF 005500360039
BI00B32DG    RP2051         202204077158-3009-60             RUBBER STOPPER           CCN000140000000140000FN00000000020220501000140000NNM   20220304153056    1C0C  00002000000000338000000386232DG    BFSAIBF 002700430014
BI00B32DG    RP2052         202204217158-3009-60             RUBBER STOPPER           CCN000080000000080000FN00000000020220501000080000NNM   20220304153056    1C0C  00002000000000338000000386232DG    BFSAIBF 002700430014
BI00B32DG    RP2053         202204287158-3009-60             RUBBER STOPPER           CCN000080000000080000FN00000000020220501000080000NNM   20220304153056    1C0C  00002000000000338000000386232DG    BFSAIBF 002700430014
BI00B32DG    RP2054         202205057158-3009-60             RUBBER STOPPER           CCN000040000000040000FN00000000020220501000040000NNM   20220304153056    1C0C  00002000000000338000000386232DG    BFSAIBF 002700430014
BI00B32DG    RP2051         202204077283-4576                HOUSING FEMALE ASS'Y     CCN000004800000004800FN00000000020220501000004800NNM   20220304153056    4N0N  00000480000000651300000871332DG    BFSAIBF 005500360039
BI00B32DG    RP2052         202204217283-4576                HOUSING FEMALE ASS'Y     CCN000004800000004800FN00000000020220501000004800NNM   20220304153056    4N0N  00000480000000651300000871332DG    BFSAIBF 005500360039
BI00B32DG    RP2051         202204077116-4415-02             TERMINAL                 CCN000228000000228000FN00000000020220501000228000NNM   20220304153056    4P0P  00003800000000596600000925732DG    BFSAIBF 006400630017
BI00B32DG    RP2052         202204217116-4415-02             TERMINAL                 CCN000114000000114000FN00000000020220501000114000NNM   20220304153056    4P0P  00003800000000596600000925732DG    BFSAIBF 006400630017
BI00B32DG    RP2053         202204287116-4415-02             TERMINAL                 CCN000114000000114000FN00000000020220501000114000NNM   20220304153056    4P0P  00003800000000596600000925732DG    BFSAIBF 006400630017
BI00B32DG    RP2054         202205057116-4415-02             TERMINAL                 CCN000076000000076000FN00000000020220501000076000NNM   20220304153056    4P0P  00003800000000596600000925732DG    BFSAIBF 006400630017
BI00B32DG    RP2051         202204077282-4576                HOUSING MALE ASS'Y       CCN000002400000002400FN00000000020220501000002400NNM   20220304153056    4N0N  00000240000000808800001028832DG    BFSAIBF 005500360039
BI00B32DG    RP2051         202204077282-4577                HOUSING MALE ASS'Y       CCN000009600000009600FN00000000020220501000009600NNM   20220304153056    4N0N  00000240000000964800001174832DG    BFSAIBF 005500360039
BI00B32DG    RP2052         202204217282-4577                HOUSING MALE ASS'Y       CCN000004800000004800FN00000000020220501000004800NNM   20220304153056    4N0N  00000240000000964800001174832DG    BFSAIBF 005500360039
BI00B32DG    RP2053         202204287282-4577                HOUSING MALE ASS'Y       CCN000004800000004800FN00000000020220501000004800NNM   20220304153056    4N0N  00000240000000964800001174832DG    BFSAIBF 005500360039
BI00B32DG    RP2054         202205057282-4577                HOUSING MALE ASS'Y       CCN000002400000002400FN00000000020220501000002400NNM   20220304153056    4N0N  00000240000000964800001174832DG    BFSAIBF 005500360039
BI00B32DG    RP2051         202204077288-3339-30             HOUSING MALE             CCN000001500000001500FN00000000020220501000001500NNM   20220304153056    4N0N  00000150000000867000001012032DG    BFSAIBF 005400370024
BI00B32DG    RP2052         202204217288-3339-30             HOUSING MALE             CCN000001500000001500FN00000000020220501000001500NNM   20220304153056    4N0N  00000150000000867000001012032DG    BFSAIBF 005400370024
BI00B32DG    RP2051         202204077116-3154-08             TERMINAL                 CCN000054000000054000FN00000000020220501000054000NNM   20220304153056    4P0P  00002700000000475200000760432DG    BFSAIBF 006400630015
BI00B32DG    RP2052         202204217116-3154-08             TERMINAL                 CCN000027000000027000FN00000000020220501000027000NNM   20220304153056    4P0P  00002700000000475200000760432DG    BFSAIBF 006400630015
BI00B32DG    RP2051         202204077116-5752-02             TERMINAL                 CCN000021000000021000FN00000000020220501000021000NNM   20220304153056    4P0P  00002100000000571200000856432DG    BFSAIBF 006400630015
BI00B32DG    RP2052         202204217116-5752-02             TERMINAL                 CCN000021000000021000FN00000000020220501000021000NNM   20220304153056    4P0P  00002100000000571200000856432DG    BFSAIBF 006400630015
BI00B32DG    RP2051         202204077282-4578                HOUSING MALE ASS'Y       CCN000001200000001200FN00000000020220501000001200NNM   20220304153056    4N0N  00000120000000782600000992632DG    BFSAIBF 005500360039
BI00B32DG    RP2052         202204217282-4578                HOUSING MALE ASS'Y       CCN000001200000001200FN00000000020220501000001200NNM   20220304153056    4N0N  00000120000000782600000992632DG    BFSAIBF 005500360039
BI00B32DG    RP2051         202204077286-1915                CONNECTOR SUB ASSY       CCN000001600000001600FN00000000020220501000001600NNM   20220304153056    4N0N  00000160000000965600001165632DG    BFSAIBF 005500360039
BI00B32DG    RP2052         202204217286-1915                CONNECTOR SUB ASSY       CCN000001600000001600FN00000000020220501000001600NNM   20220304153056    4N0N  00000160000000965600001165632DG    BFSAIBF 005500360039
BI00B32DG    RP2051         202204077158-3070-80             RUBBER STOPPER           CCN000120000000120000FN00000000020220501000120000NNM   20220304153056    1C0C  00004000000000276000000333332DG    BFSAIBF 002700430014
BI00B32DG    RP2052         202204217158-3070-80             RUBBER STOPPER           CCN000080000000080000FN00000000020220501000080000NNM   20220304153056    1C0C  00004000000000276000000333332DG    BFSAIBF 002700430014
BI00B32DG    RP2053         202204287158-3070-80             RUBBER STOPPER           CCN000080000000080000FN00000000020220501000080000NNM   20220304153056    1C0C  00004000000000276000000333332DG    BFSAIBF 002700430014
BI00B32DG    RP2051         202204077287-1917                CONNECTOR FEMALE         CCN000004800000004800FN00000000020220501000004800NNM   20220304153056    4N0N  00000240000001060800001312532DG    BFSAIBF 005500360039
BI00B32DG    RP2052         202204217287-1917                CONNECTOR FEMALE         CCN000002400000002400FN00000000020220501000002400NNM   20220304153056    4N0N  00000240000001060800001312532DG    BFSAIBF 005500360039
BI00B32DG    RP2053         202204287287-1917                CONNECTOR FEMALE         CCN000002400000002400FN00000000020220501000002400NNM   20220304153056    4N0N  00000240000001060800001312532DG    BFSAIBF 005500360039
BI00B32DG    RP2051         202204077116-5043-02             TERMINAL FEMALE          CCN000060000000060000FN00000000020220501000060000NNM   20220304153056    4P0P  00001200000000559200000844432DG    BFSAIBF 006400630015
BI00B32DG    RP2052         202204217116-5043-02             TERMINAL FEMALE          CCN000036000000036000FN00000000020220501000036000NNM   20220304153056    4P0P  00001200000000559200000844432DG    BFSAIBF 006400630015
BI00B32DG    RP2053         202204287116-5043-02             TERMINAL FEMALE          CCN000036000000036000FN00000000020220501000036000NNM   20220304153056    4P0P  00001200000000559200000844432DG    BFSAIBF 006400630015
BI00B32DG    RP2051         202204077116-3153-02             TERMINAL FEMALE          CCN000756000000756000FN00000000020220501000756000NNM   20220304153056    4P0P  00002700000000459000000744232DG    BFSAIBF 006400630015
BI00B32DG    RP2052         202204217116-3153-02             TERMINAL FEMALE          CCN000378000000378000FN00000000020220501000378000NNM   20220304153056    4P0P  00002700000000459000000744232DG    BFSAIBF 006400630015
BI00B32DG    RP2053         202204287116-3153-02             TERMINAL FEMALE          CCN000378000000378000FN00000000020220501000378000NNM   20220304153056    4P0P  00002700000000459000000744232DG    BFSAIBF 006400630015
BI00B32DG    RP2054         202205057116-3153-02             TERMINAL FEMALE          CCN000324000000324000FN00000000020220501000324000NNM   20220304153056    4P0P  00002700000000459000000744232DG    BFSAIBF 006400630015
BI00B32DG    RP2051         202204077116-3154-02             TERMINAL FEMALE          CCN000351000000351000FN00000000020220501000351000NNM   20220304153056    4P0P  00002700000000469800000755032DG    BFSAIBF 006400630015
BI00B32DG    RP2052         202204217116-3154-02             TERMINAL FEMALE          CCN000189000000189000FN00000000020220501000189000NNM   20220304153056    4P0P  00002700000000469800000755032DG    BFSAIBF 006400630015
BI00B32DG    RP2053         202204287116-3154-02             TERMINAL FEMALE          CCN000189000000189000FN00000000020220501000189000NNM   20220304153056    4P0P  00002700000000469800000755032DG    BFSAIBF 006400630015
BI00B32DG    RP2054         202205057116-3154-02             TERMINAL FEMALE          CCN000135000000135000FN00000000020220501000135000NNM   20220304153056    4P0P  00002700000000469800000755032DG    BFSAIBF 006400630015
BI00B32DG    RP2051         202204077116-4416-02             TERMINAL                 CCN000064000000064000FN00000000020220501000064000NNM   20220304153056    4P0P  00003200000000518400000847132DG    BFSAIBF 006400630017
BI00B32DG    RP2052         202204217116-4416-02             TERMINAL                 CCN000032000000032000FN00000000020220501000032000NNM   20220304153056    4P0P  00003200000000518400000847132DG    BFSAIBF 006400630017
BI00B32DG    RP2053         202204287116-4416-02             TERMINAL                 CCN000032000000032000FN00000000020220501000032000NNM   20220304153056    4P0P  00003200000000518400000847132DG    BFSAIBF 006400630017
BI00B32DG    RP2054         202205057116-4416-02             TERMINAL                 CCN000032000000032000FN00000000020220501000032000NNM   20220304153056    4P0P  00003200000000518400000847132DG    BFSAIBF 006400630017
BI00B32DG    RP2051         202204077114-6041                TERMINAL                 CCN000007200000007200FN00000000020220501000007200NNM   20220304153056    4P0P  00000360000000580700000824232DG    BFSAIBF 006400630015
BI00B32DG    RP2052         202204217114-6041                TERMINAL                 CCN000003600000003600FN00000000020220501000003600NNM   20220304153056    4P0P  00000360000000580700000824232DG    BFSAIBF 006400630015
BI00B32DG    RP2051         202204077286-4097                CONNECTOR MALE ASS'Y     CCN000001600000001600FN00000000020220501000001600NNM   20220304153056    1N0N  00000160000000768000000978032DG    BFSAIBF 005500360039
BI00B32DG    RP2051         202204077288-3340-30             HOUSING MALE             CCN000009000000009000FN00000000020220501000009000NNM   20220304153056    4N0N  00000150000000861500001006432DG    BFSAIBF 005400370024
BI00B32DG    RP2052         202204217288-3340-30             HOUSING MALE             CCN000004500000004500FN00000000020220501000004500NNM   20220304153056    4N0N  00000150000000861500001006432DG    BFSAIBF 005400370024
BI00B32DG    RP2053         202204287288-3340-30             HOUSING MALE             CCN000004500000004500FN00000000020220501000004500NNM   20220304153056    4N0N  00000150000000861500001006432DG    BFSAIBF 005400370024
BI00B32DG    RP2054         202205057288-3340-30             HOUSING MALE             CCN000003000000003000FN00000000020220501000003000NNM   20220304153056    4N0N  00000150000000861500001006432DG    BFSAIBF 005400370024
BI00B32DG    RP2051         202204077283-1289                CONNECTOR HOUSING        CCN000010800000010800FN00000000020220501000010800NNM   20220304153056    1N0N  00000060000000676200000817632DG    BFSAIBF 005400370024
BI00B32DG    RP2052         202204217283-1289                CONNECTOR HOUSING        CCN000005400000005400FN00000000020220501000005400NNM   20220304153056    1N0N  00000060000000676200000817632DG    BFSAIBF 005400370024
BI00B32DG    RP2053         202204287283-1289                CONNECTOR HOUSING        CCN000005400000005400FN00000000020220501000005400NNM   20220304153056    1N0N  00000060000000676200000817632DG    BFSAIBF 005400370024
BI00B32DG    RP2054         202205057283-1289                CONNECTOR HOUSING        CCN000004800000004800FN00000000020220501000004800NNM   20220304153056    1N0N  00000060000000676200000817632DG    BFSAIBF 005400370024
BI00B32DG    RP2051         202204077116-2641                TERMINAL                 CCN000018000000018000FN00000000020220501000018000NNM   20220304153056    4P0P  00001800000001161000001344632DG    BFSAIBF 005100280028
BI00B32DG    RP2051         202204077116-4114-02             TERMINAL                 CCN000021000000021000FN00000000020220501000021000NNM   20220304153056    4P0P  00001050000000693000000981232DG    BFSAIBF 006400630015
BI00B32DG    RP2052         202204217116-4114-02             TERMINAL                 CCN000010500000010500FN00000000020220501000010500NNM   20220304153056    4P0P  00001050000000693000000981232DG    BFSAIBF 006400630015
BI00B32DG    RP2053         202204287116-4114-02             TERMINAL                 CCN000010500000010500FN00000000020220501000010500NNM   20220304153056    4P0P  00001050000000693000000981232DG    BFSAIBF 006400630015
BI00B32DG    RP2051         202204077116-4115-02             TERMINAL                 CCN000008400000008400FN00000000020220501000008400NNM   20220304153056    4P0P  00000840000000593000000881232DG    BFSAIBF 006400630015
BI00B32DG    RP2051         202204077126-8853-02             TERMINAL                 CCN000007500000007500FN00000000020220501000007500NNM   20220304153056    4P0P  00000750000000562500000847732DG    BFSAIBF 006400630015
BI00B32DG    RP2051         202204077126-8854-02             TERMINAL                 CCN000007500000007500FN00000000020220501000007500NNM   20220304153056    4P0P  00000750000000604500000889732DG    BFSAIBF 006400630015
BI00B32DG    RP2051         202204077116-6041                TERMINAL                 CCN000004500000004500FN00000000020220501000004500NNM   20220304153056    4P0P  00000450000000716000001009632DG    BFSAIBF 006400630015
BI00B32DG    @RP2051        202204077283-1100                CONNECTOR ASS'Y          CCN000003200000003200FN00000000020220501000003200NNM   20220304153051    3N0N  00000160000000566500000799632DG    BFSAIBF 005500360039
BI00B32DG    @RP2052        202204217283-1100                CONNECTOR ASS'Y          CCN000001600000001600FN00000000020220501000001600NNM   20220304153051    3N0N  00000160000000566500000799632DG    BFSAIBF 005500360039
BI00B32DG    @RP2053        202204287283-1100                CONNECTOR ASS'Y          CCN000001600000001600FN00000000020220501000001600NNM   20220304153051    3N0N  00000160000000566500000799632DG    BFSAIBF 005500360039
BI00B32DG    @RP2051        202204077283-1556                CONNECTOR ASS'Y          CCN000081600000081600FN00000000020220501000081600NNM   20220304153051    3N0N  00000240000000755000001014032DG    BFSAIBF 005500360039
BI00B32DG    @RP2052        202204217283-1556                CONNECTOR ASS'Y          CCN000040800000040800FN00000000020220501000040800NNM   20220304153051    3N0N  00000240000000755000001014032DG    BFSAIBF 005500360039
BI00B32DG    @RP2053        202204287283-1556                CONNECTOR ASS'Y          CCN000040800000040800FN00000000020220501000040800NNM   20220304153051    3N0N  00000240000000755000001014032DG    BFSAIBF 005500360039
BI00B32DG    @RP2054        202205057283-1556                CONNECTOR ASS'Y          CCN000038400000038400FN00000000020220501000038400NNM   20220304153051    3N0N  00000240000000755000001014032DG    BFSAIBF 005500360039
BI00B32DG    @RP2051        202204077282-1025                HOUSING SUB ASSEMBLY     CCN000002400000002400FN00000000020220501000002400NNM   20220304153051    3N0N  00000240000001143800001390032DG    BFSAIBF 005500360039
BI00B32DG    @RP2052        202204217282-1025                HOUSING SUB ASSEMBLY     CCN000002400000002400FN00000000020220501000002400NNM   20220304153051    3N0N  00000240000001143800001390032DG    BFSAIBF 005500360039
BI00B32DG    @RP2051        202204077287-6634                HOUSING FEMALE ASS'Y     CCN000002400000002400FN00000000020220501000002400NNM   20220304153051    3N0N  00000240000001088400001337032DG    BFSAIBF 005500360039
BI00B32DG    @RP2051        202204077183-8049-30             CONNECTOR HOUSING        CCN000004000000004000FN00000000020220501000004000NNM   20220304153051    3F0F  00000400000000588800000714432DG    BFSAIBF 005400370024
BI00A32D1    DFTC2216       202203087289-6547                HOUSING FEMALE ASS'Y     CCN000012000000012000FN00000000020220401000012000NNM00020220304121949    1N0N  00000240000001152000001362032D1    TOYOT-K 005500360039
BI00A32D1    DFTC2217       202203087289-6547                HOUSING FEMALE ASS'Y     CCN000002400000002400FN00000000020220401000002400NNM00020220304121949    1N0N  00000240000001152000001362032D1    TOYOT-K 005500360039
BI00B32D2    DGTC2212       202203087289-3342-40             HOUSING FEMALE ASS'Y     CCN000043200000009600FN00000000020220301000009600NNM00020220304171109    1N0N  00000240000000686400000901432D2    TGYOT-G 005500360039
BI00B32D2    DGTC2216       202203087327-6801-3W             BATTERY FUSE             CCN000003168000001248FN00000000020220401000001248NNM00020220304171147    4N0N  00000009600000928400001143432D2    TGYOT-G 005500360039
BI00B32D2    DGTC2216       202203087327-6806                MULTI FUSE               CCN000003360000001120FN00000000020220401000001120NNM00020220304171205    4N0N  00000056000000851500001063932D2    TGYOT-G 005400370024
BI00A32E1    NC203D         202203167158-3006-90             RUBBER STOPPER           CCN000020000000020000FN00000000020220301000020000NNED0720220304160843    1C0C  00002000000000330600000386032E1    SPYSE   002700430014
BI00B32E1    NC205A         202203167116-1685-02             TERMINAL                 CCN000024000000024000FN00000000020220501000024000NNED0720220304161018    4P0P  00002400000000897600001065232E1    SPYSE   005100280028
BI00B32E1    NC205A         202203167116-5045-02             TERMINAL                 CCN000016000000016000FN00000000020220501000016000NNED0720220304161018    4P0P  00001600000000678400001007132E1    SPYSE   006400630017
BI00B32E1    NC205A         202203167158-3006-90             RUBBER STOPPER           CCN000020000000020000FN00000000020220501000020000NNED0720220304161018    1C0C  00002000000000330600000386032E1    SPYSE   002700430014
BI00A32E2    NY203D         202203157116-1685-02             TERMINAL                 CCN000024000000024000FN00000000020220301000024000NNED0720220304160621    4P0P  00002400000000897600001065232E2    SPYSE   005100280028
BI00A32E2    #NY203D        202203167158-3015-10             RUBBER STOPPER           CCN000010000000010000FN00000000020220301000010000NNED0720220304160605    2C0C  00001000000000419500000474032E2    SPYSE   002700430014
BI00A32E2    #NY203D        202203167158-3121-80             WIRE SEAL                CCN000160000000160000FN00000000020220301000160000NNED0720220304160605    2C0C  00002000000000118000000187332E2    SPYSE   002700430014
BI00B32E2    NY205A         202203167116-5045-02             TERMINAL                 CCN000016000000016000FN00000000020220501000016000NNED0720220304161153    4P0P  00001600000000678400001007132E2    SPYSE   006400630017
BI00B32E2    NY205A         202203167126-8851-02             TERMINAL                 CCN000009000000009000FN00000000020220501000009000NNED0720220304161153    1P0P  00000900000000739800001025032E2    SPYSE   006400630015
BI00B32E2    NY205A         202203167158-3168-80             SEALED                   CCN000020000000020000FN00000000020220501000020000NNED0720220304161153    1C0C  00002000000000044000000092132E2    SPYSE   004300260014
BI00B32E2    NY205A         202203167286-4097-40             CONNECTOR MALE ASS'Y     CCN000001600000001600FN00000000020220501000001600NNED0720220304161153    1N0N  00000160000000768000000978032E2    SPYSE   005500360039
BI00B32E2    #NY205A        202203167158-3017                RUBBER STOPPER           CCN000010000000010000FN00000000020220501000010000NNED0720220304161130    2C0C  00001000000000375500000435032E2    SPYSE   002700430014
BI00B32G0    TZ22062EMW     202204267283-4855                CONNECTOR HOUSING        CCN000014400000014400FN00000000020220601000014400NNMD0020220304162501    4N0N  00000240000001188400001400032G0    TTTJY   005500360039
BI00B32G0    TZ22061EMW     202204197288-6547                CONNECTOR MALE ASS'Y     CCN000017250000017250FN00000000020220601000017250NNMD0020220304162235    4N0N  00000075000001205300001340332G0    TTTJY   005400370024
BI00B32G0    TZ22062EMW     202204267288-6547                CONNECTOR MALE ASS'Y     CCN000016500000016500FN00000000020220601000016500NNMD0020220304162501    4N0N  00000075000001205300001340332G0    TTTJY   005400370024
BI00B32G0    TZ22061EMW     202204197289-6597-70             HOUSING FEMALE ASS'Y     CCN000021600000021600FN00000000020220601000021600NNMD0020220304162346    4N0N  00000216000001289500001539532G0    TTTJY   005500360039
BI00B32G0    TZ22062EMW     202204267289-6597-70             HOUSING FEMALE ASS'Y     CCN000010800000010800FN00000000020220601000010800NNMD0020220304162501    4N0N  00000216000001289500001539532G0    TTTJY   005500360039
BI00B32G0    TZ22063EMW     202205037289-6597-70             HOUSING FEMALE ASS'Y     CCN000008640000008640FN00000000020220601000008640NNMD0020220304162531    4N0N  00000216000001289500001539532G0    TTTJY   005500360039
BI00B32G0    TZ22061EMW     202205037289-6597-70             HOUSING FEMALE ASS'Y     CCN000010800000000000FY00000000020220601000000000NNMQ0020220304162346    4N0N  00000216000001289500001539532G0    TTTJY   005500360039
BI00B32G2    SA22041JMW     202203237282-9391                HOUSING MALE ASS'Y       CCN000008400000008400FN00000000020220401000008400NNMD0420220304121949    4N0N  00000120000001017600001237632G2    AISUAI  005500360039
BI00B32G2    SA22042JMW     202203307282-9391                HOUSING MALE ASS'Y       CCN000006000000006000FN00000000020220401000006000NNMD0420220304121949    4N0N  00000120000001017600001237632G2    AISUAI  005500360039
BI00B32G2    SA22043JMW     202204067282-9391                HOUSING MALE ASS'Y       CCN000004800000004800FN00000000020220401000004800NNMD0420220304121949    4N0N  00000120000001017600001237632G2    AISUAI  005500360039
BI00B32G9    TY22051TMW     202204017114-6041                TERMINAL                 CCN000003600000003600FN00000000020220501000003600NNM   20220304153340    4P0P  00000360000000580700000824232G9    TYTYC   006400630015
BI00B32G9    TY22051TMW     202204017116-4031                TERMINAL                 CCN000007500000007500FN00000000020220501000007500NNM   20220304153340    4P0P  00000750000000619500000904732G9    TYTYC   006400630015
BI00B32G9    TY22051TMW     202204017116-4032                TERMINAL                 CCN000006000000006000FN00000000020220501000006000NNM   20220304153340    4P0P  00000600000000532800000818032G9    TYTYC   006400630015
BI00B32G9    TY22051TMW     202204017116-4037                TERMINAL                 CCN000006000000006000FN00000000020220501000006000NNM   20220304153340    4P0P  00000600000000600000000894232G9    TYTYC   006400630015
BI00B32G9    TY22051TMW     202204017116-6041                TERMINAL                 CCN000004500000004500FN00000000020220501000004500NNM   20220304153340    4P0P  00000450000000716000001009632G9    TYTYC   006400630015
BI00B32G9    TY22051TMW     202204017116-6042                TERMINAL                 CCN000003000000003000FN00000000020220501000003000NNM   20220304153340    4P0P  00000300000000523800000856132G9    TYTYC   006400630015
BI00B32G9    TY22051TMW     202204017126-8853-02             TERMINAL                 CCN000007500000007500FN00000000020220501000007500NNM   20220304153340    4P0P  00000750000000562500000847732G9    TYTYC   006400630015
BI00B32G9    TY22051TMW     202204017126-8855-02             TERMINAL                 CCN000006000000006000FN00000000020220501000006000NNM   20220304153340    4P0P  00000600000000510600000795832G9    TYTYC   006400630015
BI00B32G9    TY22051TMW     202204017158-3006-90             RUBBER STOPPER           CCN000020000000020000FN00000000020220501000020000NNM   20220304153340    1C0C  00002000000000330600000386032G9    TYTYC   002700430014
BI00B32G9    TY22051TMW     202204017158-3009-60             RUBBER STOPPER           CCN000020000000020000FN00000000020220501000020000NNM   20220304153340    1C0C  00002000000000338000000386232G9    TYTYC   002700430014
BI00B32G9    TY22051TMW     202204017158-3070-80             RUBBER STOPPER           CCN000040000000040000FN00000000020220501000040000NNM   20220304153340    1C0C  00004000000000276000000333332G9    TYTYC   002700430014
BI00B32G9    TY22051TMW     202204017196-1103-02             TERMINAL                 CCN000022500000022500FN00000000020220501000022500NNM   20220304153340    4P0P  00002250000000429800000715032G9    TYTYC   006400630015
BI00B32G9    TY22051TMW     202204017196-1104-02             TERMINAL                 CCN000022500000022500FN00000000020220501000022500NNM   20220304153340    4P0P  00002250000000441000000726232G9    TYTYC   006400630015
BI00B32G9    TY22052TMW     202204087196-1104-02             TERMINAL                 CCN000022500000022500FN00000000020220501000022500NNM   20220304153340    4P0P  00002250000000441000000726232G9    TYTYC   006400630015
BI00B32G9    TY22051TMW     202204017283-1928-80             CONNECTOR                CCN000002000000002000FN00000000020220501000002000NNM   20220304153340    4N0N  00000200000001180000001358332G9    TYTYC   005500360039
BI00B32G9    TY22051TMW     202204017288-6547                CONNECTOR MALE ASS'Y     CCN000001500000001500FN00000000020220501000001500NNM   20220304153340    4N0N  00000075000001205300001340332G9    TYTYC   005400370024
BI00B32G9    TY22051TMW     202204017289-3342                HOUSING FEMALE ASS'Y     CCN000002400000002400FN00000000020220501000002400NNM   20220304153340    1N0N  00000240000000686400000901432G9    TYTYC   005500360039
BI00B32G9    TY22051TMW     202204017289-3342-30             HOUSING FEMALE ASS'Y     CCN000002400000002400FN00000000020220501000002400NNM   20220304153340    1N0N  00000240000000686400000901432G9    TYTYC   005500360039
BI00B32G9    TY22052TMW     202204087289-3342-30             HOUSING FEMALE ASS'Y     CCN000002400000002400FN00000000020220501000002400NNM   20220304153340    1N0N  00000240000000686400000901432G9    TYTYC   005500360039
BI00B32G9    TY22051TMW     202204017289-3342-40             HOUSING FEMALE ASS'Y     CCN000002400000002400FN00000000020220501000002400NNM   20220304153340    1N0N  00000240000000686400000901432G9    TYTYC   005500360039
BI00B32G9    TY22051TMW     202204017289-6547                HOUSING FEMALE ASS'Y     CCN000002400000002400FN00000000020220501000002400NNM   20220304153340    1N0N  00000240000001152000001362032G9    TYTYC   005500360039
BI00B32G9    TY22051TMW     202204017295-0785-02             TERMINAL ALUMINIUM       CCN000025500000025500FN00000000020220501000025500NNM   20220304153340    4P0P  00002550000000510000000803632G9    TYTYC   006400630015
BI00B32G9    TY22051TMW     202204017296-0784-02             TERMINAL ALUMINIUM       CCN000024000000024000FN00000000020220501000024000NNM   20220304153340    4P0P  00002400000000480000000765232G9    TYTYC   006400630015
BI00B32G9    TY22051TMW     202204017327-6627-3W             BATTERY FUSE             CCN000000288000000288FN00000000020220501000000288NNM   20220304153340    4N0N  00000009600001332300001534632G9    TYTYC   005500360039
BI00B32G9    TY22052TMW     202204087327-6627-3W             BATTERY FUSE             CCN000000288000000288FN00000000020220501000000288NNM   20220304153340    4N0N  00000009600001332300001534632G9    TYTYC   005500360039
BI00B32G9    TY22051TMW     202204017327-6731-3W             BATTERY FUSE             CCN000000128000000128FN00000000020220501000000128NNM   20220304153340    4N0N  00000006400000697600000843032G9    TYTYC   005400370024
BI00B32G9    TY22051TMW     202204017388-2978-30             HOUSING MALE ASS'Y       CCN000000480000000480FN00000000020220501000000480NNM   20220304153340    1N0N  00000048000000742000001122032G9    TYTYC   005500360039
BI00B32G9    #TY22051TMW    202204017158-3003-90             RUBBER STOPPER           CCN000020000000020000FN00000000020220501000020000NNM   20220304153258    2C0C  00002000000000250000000306032G9    TYTYC   002700430014
BI00B32G9    #TY22051TMW    202204017158-3007-10             RUBBER STOPPER           CCN000020000000020000FN00000000020220501000020000NNM   20220304153258    2H0H  00002000000000308000000362732G9    TYTYC   002700430014
BI00B32G9    #TY22051TMW    202204017158-3015-10             RUBBER STOPPER           CCN000010000000010000FN00000000020220501000010000NNM   20220304153258    2C0C  00001000000000419500000474032G9    TYTYC   002700430014
BI00B32G9    #TY22051TMW    202204017158-3017                RUBBER STOPPER           CCN000010000000010000FN00000000020220501000010000NNM   20220304153258    2C0C  00001000000000375500000435032G9    TYTYC   002700430014
BI00B32G9    #TY22051TMW    202204017172-5628-80             DUMMY PLUG               CCN000020000000020000FN00000000020220501000020000NNM   20220304153258    2H0H  00002000000000110600000162032G9    TYTYC   004300270014
BI00B32G9    #TY22051TMW    202204017172-5629-80             RUBBER STOPPER           CCN000020000000020000FN00000000020220501000020000NNM   20220304153258    2H0H  00002000000000060000000111132G9    TYTYC   004300270014
BI00B32G9    #TY22052TMW    202204087172-5629-80             RUBBER STOPPER           CCN000020000000020000FN00000000020220501000020000NNM   20220304153258    2H0H  00002000000000060000000111132G9    TYTYC   004300270014
BI00B32G9    #TY22051TMW    202204017172-5630-40             RUBBER STOPPER           CCN000020000000020000FN00000000020220501000020000NNM   20220304153258    2H0H  00002000000000044000000095132G9    TYTYC   004300270014
BI00B32G9    #TY22051TMW    202204017172-5631-60             RUBBER STOPPER           CCN000020000000020000FN00000000020220501000020000NNM   20220304153258    2H0H  00002000000000042000000093132G9    TYTYC   004300270014
BI00B32G9    #TY22052TMW    202204087172-5631-60             RUBBER STOPPER           CCN000020000000020000FN00000000020220501000020000NNM   20220304153258    2H0H  00002000000000042000000093132G9    TYTYC   004300270014
BI00B32G9    #TY22051TMW    202204017172-5632-10             DUMMY PLUG               CCN000020000000020000FN00000000020220501000020000NNM   20220304153258    2H0H  00002000000000080400000131832G9    TYTYC   004300270014
BI00B32G9    #TY22051TMW    202204017189-2978-30             HOUSING FEMALE           CCN000001500000001500FN00000000020220501000001500NNM   20220304153258    2F0F  00000150000000966900001096932G9    TYTYC   005400370024
BI00B32G9    #TY22051TMW    202204017189-3032-30             HOUSING FEMALE           CCN000001600000001600FN00000000020220501000001600NNM   20220304153258    2F0F  00000160000000801600001021632G9    TYTYC   005500360039
BI00B32G9    #TY22051TMW    202204017189-3033                HOUSING FEMALE           CCN000001600000001600FN00000000020220501000001600NNM   20220304153258    2F0F  00000160000001211200001431232G9    TYTYC   005500360039
BI00B32G9    #TY22051TMW    202204017289-3622-30             HOUSING FEMALE ASS'Y     CCN000000432000000432FN00000000020220501000000432NNM   20220304153258    2N0N  00000043200000839400001038432G9    TYTYC   005400370024
BI00B32G9    #TY22052TMW    202204087289-3622-30             HOUSING FEMALE ASS'Y     CCN000000432000000432FN00000000020220501000000432NNM   20220304153258    2N0N  00000043200000839400001038432G9    TYTYC   005400370024
BI00B32H7    FS2203DDMW     202204207288-6547                CONNECTOR MALE ASS'Y     CCN000022500000022500FN00000000020220301000022500NNEM0020220304164732    4N0N  00000075000001205300001340332H7    FYFSY   005400370024
BI00B32H8    #TY22041KMW    202203117172-5630-40             RUBBER STOPPER           CCN000040000000040000FN00000000020220401000040000NNM00020220304171313    2H0H  00002000000000044000000095132H8    TYTYC   004300270014
BI00B32H8    TY22051 MW     202204017017-1180-02             TERMINAL                 CCN000048000000072000FN00000000020220501000072000NNM   20220304153435    4P0P  00007200000001065600001229032H8    TYTYC   005100280028
BI00B32H8    TY22052 MW     202204087017-1180-02             TERMINAL                 CCN000048000000072000FN00000000020220501000072000NNM   20220304153435    4P0P  00007200000001065600001229032H8    TYTYC   005100280028
BI00B32H8    TY22053 MW     202204087017-1180-02             TERMINAL                 CCN000048000000072000FN00000000020220501000072000NNM   20220304153435    4P0P  00007200000001065600001229032H8    TYTYC   005100280028
BI00B32H8    TY22051 MW     202204017017-1183-02             TERMINAL                 CCN000009000000027000FN00000000020220501000027000NNM   20220304153435    4P0P  00002700000001139400001307432H8    TYTYC   005100280028
BI00B32H8    TY22052 MW     202204087114-1470                TERMINAL                 CCN000066000000066000FN00000000020220501000066000NNM   20220304153435    4P0P  00001650000000544500000838732H8    TYTYC   006400630015
BI00B32H8    TY22052 MW     202204087114-4031                TERMINAL                 CCN000010500000010500FN00000000020220501000010500NNM   20220304153435    4P0P  00001050000000966000001294632H8    TYTYC   006400630017
BI00B32H8    TY22052 MW     202204087114-4032                TERMINAL                 CCN000015000000015000FN00000000020220501000015000NNM   20220304153435    4P0P  00000750000000735000001063632H8    TYTYC   006400630017
BI00B32H8    TY22053 MW     202204087114-4032                TERMINAL                 CCN000007500000007500FN00000000020220501000007500NNM   20220304153435    4P0P  00000750000000735000001063632H8    TYTYC   006400630017
BI00B32H8    TY22052 MW     202204087114-4231-02             TERMINAL                 CCN000036000000036000FN00000000020220501000036000NNM   20220304153435    4P0P  00001800000000554400000848032H8    TYTYC   006400630015
BI00B32H8    TY22053 MW     202204087114-4231-02             TERMINAL                 CCN000054000000054000FN00000000020220501000054000NNM   20220304153435    4P0P  00001800000000554400000848032H8    TYTYC   006400630015
BI00B32H8    TY22052 MW     202204087116-1180                TERMINAL                 CCN000039000000039000FN00000000020220501000039000NNM   20220304153435    1P0P  00001950000000618200000903432H8    TYTYC   006400630015
BI00B32H8    TY22053 MW     202204087116-1180                TERMINAL                 CCN000019500000019500FN00000000020220501000019500NNM   20220304153435    1P0P  00001950000000618200000903432H8    TYTYC   006400630015
BI00B32H8    TY22051 MW     202204017116-1257-02             TERMINAL                 CCN000024000000024000FN00000000020220501000024000NNM   20220304153435    1P0P  00002400000000518400000847132H8    TYTYC   006400630017
BI00B32H8    TY22053 MW     202204087116-1257-02             TERMINAL                 CCN000024000000024000FN00000000020220501000024000NNM   20220304153435    1P0P  00002400000000518400000847132H8    TYTYC   006400630017
BI00B32H8    TY22052 MW     202204087116-1301                TERMINAL                 CCN000015000000015000FN00000000020220501000015000NNM   20220304153435    4P0P  00001500000000487500000772732H8    TYTYC   006400630015
BI00B32H8    TY22052 MW     202204087116-1471                TERMINAL                 CCN000090000000090000FN00000000020220501000090000NNM   20220304153435    4P0P  00001500000000579000000867232H8    TYTYC   006400630015
BI00B32H8    TY22053 MW     202204087116-1471                TERMINAL                 CCN000090000000090000FN00000000020220501000090000NNM   20220304153435    4P0P  00001500000000579000000867232H8    TYTYC   006400630015
BI00B32H8    TY22052 MW     202204087116-1473                TERMINAL                 CCN000054000000054000FN00000000020220501000054000NNM   20220304153435    4P0P  00001350000000523800000809032H8    TYTYC   006400630015
BI00B32H8    TY22053 MW     202204087116-1473                TERMINAL                 CCN000054000000054000FN00000000020220501000054000NNM   20220304153435    4P0P  00001350000000523800000809032H8    TYTYC   006400630015
BI00B32H8    TY22051 MW     202204017116-1486-02             TERMINAL                 CCN000016500000016500FN00000000020220501000016500NNM   20220304153435    4P0P  00001650000000655100000940332H8    TYTYC   006400630015
BI00B32H8    TY22052 MW     202204087116-1486-02             TERMINAL                 CCN000016500000016500FN00000000020220501000016500NNM   20220304153435    4P0P  00001650000000655100000940332H8    TYTYC   006400630015
BI00B32H8    TY22053 MW     202204087116-1486-02             TERMINAL                 CCN000016500000016500FN00000000020220501000016500NNM   20220304153435    4P0P  00001650000000655100000940332H8    TYTYC   006400630015
BI00B32H8    TY22052 MW     202204087116-1685                TERMINAL                 CCN000024000000024000FN00000000020220501000024000NNM   20220304153435    4P0P  00002400000000892800001067232H8    TYTYC   005100280028
BI00B32H8    TY22051 MW     202204017116-1685-02             TERMINAL                 CCN000024000000024000FN00000000020220501000024000NNM   20220304153435    4P0P  00002400000000897600001065232H8    TYTYC   005100280028
BI00B32H8    TY22053 MW     202204087116-1685-02             TERMINAL                 CCN000024000000024000FN00000000020220501000024000NNM   20220304153435    4P0P  00002400000000897600001065232H8    TYTYC   005100280028
BI00B32H8    TY22051 MW     202204017116-2641                TERMINAL                 CCN000018000000018000FN00000000020220501000018000NNM   20220304153435    4P0P  00001800000001161000001344632H8    TYTYC   005100280028
BI00B32H8    TY22053 MW     202204087116-2641                TERMINAL                 CCN000018000000018000FN00000000020220501000018000NNM   20220304153435    4P0P  00001800000001161000001344632H8    TYTYC   005100280028
BI00B32H8    TY22052 MW     202204087116-2870                TERMINAL                 CCN000012000000012000FN00000000020220501000012000NNM   20220304153435    1P0P  00001200000000783600001020232H8    TYTYC   005100280028
BI00B32H8    TY22053 MW     202204087116-2870                TERMINAL                 CCN000012000000012000FN00000000020220501000012000NNM   20220304153435    1P0P  00001200000000783600001020232H8    TYTYC   005100280028
BI00B32H8    TY22051 MW     202204017116-2871                TERMINAL                 CCN000024000000024000FN00000000020220501000024000NNM   20220304153435    1P0P  00001200000000842400001072632H8    TYTYC   005100280028
BI00B32H8    TY22052 MW     202204087116-2871                TERMINAL                 CCN000036000000036000FN00000000020220501000036000NNM   20220304153435    1P0P  00001200000000842400001072632H8    TYTYC   005100280028
BI00B32H8    TY22053 MW     202204087116-2871                TERMINAL                 CCN000036000000036000FN00000000020220501000036000NNM   20220304153435    1P0P  00001200000000842400001072632H8    TYTYC   005100280028
BI00B32H8    TY22052 MW     202204087116-4022                TERMINAL                 CCN000027000000027000FN00000000020220501000027000NNM   20220304153435    4P0P  00001350000000618300000903532H8    TYTYC   006400630015
BI00B32H8    TY22053 MW     202204087116-4022                TERMINAL                 CCN000013500000013500FN00000000020220501000013500NNM   20220304153435    4P0P  00001350000000618300000903532H8    TYTYC   006400630015
BI00B32H8    TY22052 MW     202204087116-4025                TERMINAL                 CCN000096000000096000FN00000000020220501000096000NNM   20220304153435    4P0P  00001600000000644800000975132H8    TYTYC   006400630017
BI00B32H8    TY22053 MW     202204087116-4025                TERMINAL                 CCN000096000000096000FN00000000020220501000096000NNM   20220304153435    4P0P  00001600000000644800000975132H8    TYTYC   006400630017
BI00B32H8    TY22052 MW     202204087116-4026                TERMINAL                 CCN000016000000016000FN00000000020220501000016000NNM   20220304153435    4P0P  00001600000000664000000994332H8    TYTYC   006400630017
BI00B32H8    TY22053 MW     202204087116-4026                TERMINAL                 CCN000016000000016000FN00000000020220501000016000NNM   20220304153435    4P0P  00001600000000664000000994332H8    TYTYC   006400630017
BI00B32H8    TY22051 MW     202204017116-4031                TERMINAL                 CCN000007500000007500FN00000000020220501000007500NNM   20220304153435    4P0P  00000750000000619500000904732H8    TYTYC   006400630015
BI00B32H8    TY22052 MW     202204087116-4031                TERMINAL                 CCN000015000000015000FN00000000020220501000015000NNM   20220304153435    4P0P  00000750000000619500000904732H8    TYTYC   006400630015
BI00B32H8    TY22053 MW     202204087116-4031                TERMINAL                 CCN000007500000007500FN00000000020220501000007500NNM   20220304153435    4P0P  00000750000000619500000904732H8    TYTYC   006400630015
BI00B32H8    TY22052 MW     202204087116-4032                TERMINAL                 CCN000012000000012000FN00000000020220501000012000NNM   20220304153435    4P0P  00000600000000532800000818032H8    TYTYC   006400630015
BI00B32H8    TY22051 MW     202204017116-4037                TERMINAL                 CCN000030000000030000FN00000000020220501000030000NNM   20220304153435    4P0P  00000600000000600000000894232H8    TYTYC   006400630015
BI00B32H8    TY22052 MW     202204087116-4037                TERMINAL                 CCN000030000000030000FN00000000020220501000030000NNM   20220304153435    4P0P  00000600000000600000000894232H8    TYTYC   006400630015
BI00B32H8    TY22053 MW     202204087116-4037                TERMINAL                 CCN000030000000030000FN00000000020220501000030000NNM   20220304153435    4P0P  00000600000000600000000894232H8    TYTYC   006400630015
BI00B32H8    TY22052 MW     202204087116-4231-02             TERMINAL                 CCN000156000000156000FN00000000020220501000156000NNM   20220304153435    4P0P  00002600000000683800001012532H8    TYTYC   006400630017
BI00B32H8    TY22053 MW     202204087116-4231-02             TERMINAL                 CCN000182000000182000FN00000000020220501000182000NNM   20220304153435    4P0P  00002600000000683800001012532H8    TYTYC   006400630017
BI00B32H8    TY22052 MW     202204087116-4416-02             TERMINAL                 CCN000064000000064000FN00000000020220501000064000NNM   20220304153435    4P0P  00003200000000518400000847132H8    TYTYC   006400630017
BI00B32H8    TY22053 MW     202204087116-4416-02             TERMINAL                 CCN000064000000064000FN00000000020220501000064000NNM   20220304153435    4P0P  00003200000000518400000847132H8    TYTYC   006400630017
BI00B32H8    TY22051 MW     202204017116-6041                TERMINAL                 CCN000009000000009000FN00000000020220501000009000NNM   20220304153435    4P0P  00000450000000716000001009632H8    TYTYC   006400630015
BI00B32H8    TY22052 MW     202204087116-6041                TERMINAL                 CCN000013500000013500FN00000000020220501000013500NNM   20220304153435    4P0P  00000450000000716000001009632H8    TYTYC   006400630015
BI00B32H8    TY22053 MW     202204087116-6041                TERMINAL                 CCN000018000000018000FN00000000020220501000018000NNM   20220304153435    4P0P  00000450000000716000001009632H8    TYTYC   006400630015
BI00B32H8    TY22052 MW     202204087116-6042                TERMINAL                 CCN000012000000012000FN00000000020220501000012000NNM   20220304153435    4P0P  00000300000000523800000856132H8    TYTYC   006400630015
BI00B32H8    TY22053 MW     202204087116-6042                TERMINAL                 CCN000009000000009000FN00000000020220501000009000NNM   20220304153435    4P0P  00000300000000523800000856132H8    TYTYC   006400630015
BI00B32H8    TY22051 MW     202204017123-7500                CONNECTOR                CCN000000800000000800FN00000000020220501000000800NNM   20220304153435    1F0F  00000080000000710000000896732H8    TYTYC   005500360039
BI00B32H8    TY22052 MW     202204087123-7500                CONNECTOR                CCN000000800000000800FN00000000020220501000000800NNM   20220304153435    1F0F  00000080000000710000000896732H8    TYTYC   005500360039
BI00B32H8    TY22053 MW     202204087123-7500                CONNECTOR                CCN000000800000000800FN00000000020220501000000800NNM   20220304153435    1F0F  00000080000000710000000896732H8    TYTYC   005500360039
BI00B32H8    TY22054 MW     202204227123-7500                CONNECTOR                CCN000000800000000800FN00000000020220501000000800NNM   20220304153435    1F0F  00000080000000710000000896732H8    TYTYC   005500360039
BI00B32H8    TY22051 MW     202204017126-8853-02             TERMINAL                 CCN000030000000030000FN00000000020220501000030000NNM   20220304153435    4P0P  00000750000000562500000847732H8    TYTYC   006400630015
BI00B32H8    TY22052 MW     202204087126-8853-02             TERMINAL                 CCN000045000000045000FN00000000020220501000045000NNM   20220304153435    4P0P  00000750000000562500000847732H8    TYTYC   006400630015
BI00B32H8    TY22053 MW     202204087126-8853-02             TERMINAL                 CCN000052500000052500FN00000000020220501000052500NNM   20220304153435    4P0P  00000750000000562500000847732H8    TYTYC   006400630015
BI00B32H8    TY22051 MW     202204017126-8854-02             TERMINAL                 CCN000022500000022500FN00000000020220501000022500NNM   20220304153435    4P0P  00000750000000604500000889732H8    TYTYC   006400630015
BI00B32H8    TY22052 MW     202204087126-8854-02             TERMINAL                 CCN000030000000030000FN00000000020220501000030000NNM   20220304153435    4P0P  00000750000000604500000889732H8    TYTYC   006400630015
BI00B32H8    TY22053 MW     202204087126-8854-02             TERMINAL                 CCN000045000000045000FN00000000020220501000045000NNM   20220304153435    4P0P  00000750000000604500000889732H8    TYTYC   006400630015
BI00B32H8    TY22051 MW     202204017126-8855-02             TERMINAL                 CCN000030000000030000FN00000000020220501000030000NNM   20220304153435    4P0P  00000600000000510600000795832H8    TYTYC   006400630015
BI00B32H8    TY22052 MW     202204087126-8855-02             TERMINAL                 CCN000048000000048000FN00000000020220501000048000NNM   20220304153435    4P0P  00000600000000510600000795832H8    TYTYC   006400630015
BI00B32H8    TY22053 MW     202204087126-8855-02             TERMINAL                 CCN000048000000048000FN00000000020220501000048000NNM   20220304153435    4P0P  00000600000000510600000795832H8    TYTYC   006400630015
BI00B32H8    TY22051 MW     202204017157-7915-80             REAR HOLDER              CCN000010000000010000FN00000000020220501000010000NNM   20220304153435    1F0F  00001000000001110000001364032H8    TYTYC   005500360039
BI00B32H8    TY22052 MW     202204087157-7915-80             REAR HOLDER              CCN000010000000010000FN00000000020220501000010000NNM   20220304153435    1F0F  00001000000001110000001364032H8    TYTYC   005500360039
BI00B32H8    TY22053 MW     202204087157-7915-80             REAR HOLDER              CCN000010000000010000FN00000000020220501000010000NNM   20220304153435    1F0F  00001000000001110000001364032H8    TYTYC   005500360039
BI00B32H8    TY22051 MW     202204017158-3006-90             RUBBER STOPPER           CCN000160000000160000FN00000000020220501000160000NNM   20220304153435    1C0C  00002000000000330600000386032H8    TYTYC   002700430014
