BI00B32BF    TT22061KMW     2022041918009603930              AVS 0.5 B                CCN000002000000002000FN00000000020220601000002000NNM   20220304134626    1W    00000100000000850000000000032BF    TTTJY   000000000000NK124011
BI00B32BF    TT22062KMW     2022042618009603930              AVS 0.5 B                CCN000001000000001000FN00000000020220601000001000NNM   20220304134626    1W    00000100000000850000000000032BF    TTTJY   000000000000NK224001
BI00B32BF    TT22063KMW     2022050318009603930              AVS 0.5 B                CCN000001000000001000FN00000000020220601000001000NNM   20220304134626    1W    00000100000000850000000000032BF    TTTJY   000000000000NK324001
BI00B32BF    TT22061KMW     2022041918009603950              AVS 0.5 R                CCN000002000000002000FN00000000020220601000002000NNM   20220304134626    1W    00000100000000850000000000032BF    TTTJY   000000000000NK124012
BI00B32BF    TT22062KMW     2022042618009603950              AVS 0.5 R                CCN000001000000001000FN00000000020220601000001000NNM   20220304134626    1W    00000100000000850000000000032BF    TTTJY   000000000000NK224002
BI00B32BF    TT22061KMW     2022041918009603940              AVS 0.5 W                CCN000002000000002000FN00000000020220601000002000NNM   20220304134626    1W    00000100000000850000000000032BF    TTTJY   000000000000NK124013
BI00B32BF    TT22062KMW     2022042618009603940              AVS 0.5 W                CCN000002000000002000FN00000000020220601000002000NNM   20220304134626    1W    00000100000000850000000000032BF    TTTJY   000000000000NK224003
BI00B32BF    TT22063KMW     2022050318009603940              AVS 0.5 W                CCN000001000000001000FN00000000020220601000001000NNM   20220304134626    1W    00000100000000850000000000032BF    TTTJY   000000000000NK324002
BI00B32BF    TT22061KMW     2022041918009603949              AVS 0.5 W/L              CCN000002000000002000FN00000000020220601000002000NNM   20220304134626    1W    00000100000000850000000000032BF    TTTJY   000000000000NK124014
BI00B32BF    TT22061KMW     2022041918009604050              AVS 0.85 R               CCN000003000000003000FN00000000020220601000003000NNM   20220304134626    1W    00000100000001167700000000032BF    TTTJY   000000000000NK124015
BI00B32BF    TT22062KMW     2022042618009604050              AVS 0.85 R               CCN000001000000001000FN00000000020220601000001000NNM   20220304134626    1W    00000100000001167700000000032BF    TTTJY   000000000000NK224004
BI00B32BF    TT22061KMW     2022041918009604056              AVS 0.85 R/G             CCN000004000000004000FN00000000020220601000004000NNM   20220304134626    1W    00000100000001167700000000032BF    TTTJY   000000000000NK124016
BI00B32BF    TT22062KMW     2022042618009604056              AVS 0.85 R/G             CCN000004000000004000FN00000000020220601000004000NNM   20220304134626    1W    00000100000001167700000000032BF    TTTJY   000000000000NK224005
BI00B32BF    TT22063KMW     2022050318009604056              AVS 0.85 R/G             CCN000002000000002000FN00000000020220601000002000NNM   20220304134626    1W    00000100000001167700000000032BF    TTTJY   000000000000NK324003
BI00B32BF    TT22061KMW     2022041918009604059              AVS 0.85 R/L             CCN000003000000003000FN00000000020220601000003000NNM   20220304134626    1W    00000100000001167700000000032BF    TTTJY   000000000000NK124017
BI00B32BF    TT22062KMW     2022042618009604059              AVS 0.85 R/L             CCN000002000000002000FN00000000020220601000002000NNM   20220304134626    1W    00000100000001167700000000032BF    TTTJY   000000000000NK224006
BI00B32BF    TT22061KMW     2022041918009604130              AVS 1.25 B               CCN000001600000001600FN00000000020220601000001600NNM   20220304134626    1W    00000080000001643000000000032BF    TTTJY   000000000000NK124018
BI00B32BF    TT22061KMW     2022041918007703740              AVSS 0.3F W              CCN000002000000002000FN00000000020220601000002000NNM   20220304134626    1W    00000200000000496000000000032BF    TTTJY   000000000000NK124007
BI00B32BF    TT22061KMW     2022041918007703746              AVSS 0.3F W/G            CCN000002000000002000FN00000000020220601000002000NNM   20220304134626    1W    00000200000000496000000000032BF    TTTJY   000000000000NK124008
BI00B32BF    TT22061KMW     2022041918007703749              AVSS 0.3F W/L            CCN000002000000002000FN00000000020220601000002000NNM   20220304134626    1W    00000200000000496000000000032BF    TTTJY   000000000000NK124009
BI00B32BF    TT22061KMW     2022041918007703745              AVSS 0.3F W/R            CCN000002000000002000FN00000000020220601000002000NNM   20220304134626    1W    00000200000000496000000000032BF    TTTJY   000000000000NK124010
BI00B32BF    TT22061KMW     20220419180D0203930              AVSSH 0.5F B             CCN000001500000001500FN00000000020220601000001500NNM   20220304134626    1W    00000150000000689000000000032BF    TTTJY   000000000000NK124001
BI00B32BF    TT22061KMW     20220419180D0203987              AVSSH 0.5F BR/Y          CCN000001500000001500FN00000000020220601000001500NNM   20220304134626    1W    00000150000000689000000000032BF    TTTJY   000000000000NK124002
BI00B32BF    TT22061KMW     20220419180D0203960              AVSSH 0.5F G             CCN000001500000001500FN00000000020220601000001500NNM   20220304134626    1W    00000150000000689000000000032BF    TTTJY   000000000000NK124003
BI00B32BF    TT22061KMW     20220419180D0203950              AVSSH 0.5F R             CCN000001500000001500FN00000000020220601000001500NNM   20220304134626    1W    00000150000000689000000000032BF    TTTJY   000000000000NK124004
BI00B32BF    TT22061KMW     20220419180D0204070              AVSSH 0.75F Y            CCN000001000000001000FN00000000020220601000001000NNM   20220304134626    1W    00000100000000934000000000032BF    TTTJY   000000000000NK124005
BI00B32BF    TT22061KMW     20220419180D0204140              AVSSH 1.25F W            CCN000000800000000800FN00000000020220601000000800NNM   20220304134626    1W    00000080000001458000000000032BF    TTTJY   000000000000NK124006
BI00B32BF    TT22061BMW     20220419180D0203735              AVSSH 0.3F B/R           CCN000002000000002000FN00000000020220601000002000NNM   20220304134623    1W    00000200000000515000000000032BF    TTTJY   000000000000NB124025
BI00B32BF    TT22061BMW     20220419180D0203734              AVSSH 0.3F B/W           CCN000002000000002000FN00000000020220601000002000NNM   20220304134623    1W    00000200000000515000000000032BF    TTTJY   000000000000NB124026
BI00B32BF    TT22061BMW     20220419180D0203764              AVSSH 0.3F G/W           CCN000002000000002000FN00000000020220601000002000NNM   20220304134623    1W    00000200000000515000000000032BF    TTTJY   000000000000NB124027
BI00B32BF    TT22061BMW     20220419180D0203767              AVSSH 0.3F G/Y           CCN000004000000004000FN00000000020220601000004000NNM   20220304134623    1W    00000200000000515000000000032BF    TTTJY   000000000000NB124028
BI00B32BF    TT22065BMW     20220517180D0203790              AVSSH 0.3F L             CCN000002000000002000FN00000000020220601000002000NNM   20220304134623    1W    00000200000000515000000000032BF    TTTJY   000000000000NB125002
BI00B32BF    TT22061BMW     20220419180D0203795              AVSSH 0.3F L/R           CCN000002000000002000FN00000000020220601000002000NNM   20220304134623    1W    00000200000000515000000000032BF    TTTJY   000000000000NB124029
BI00B32BF    TT22061BMW     20220419180D0203794              AVSSH 0.3F L/W           CCN000002000000002000FN00000000020220601000002000NNM   20220304134623    1W    00000200000000515000000000032BF    TTTJY   000000000000NB124030
BI00B32BF    TT22061BMW     20220419180D0203761              AVSSH 0.3F LG            CCN000002000000002000FN00000000020220601000002000NNM   20220304134623    1W    00000200000000515000000000032BF    TTTJY   000000000000NB124031
BI00B32BF    TT22061BMW     20220419180D0203792              AVSSH 0.3F V             CCN000002000000002000FN00000000020220601000002000NNM   20220304134623    1W    00000200000000515000000000032BF    TTTJY   000000000000NB124032
BI00B32BF    TT22061BMW     20220419180D0203773              AVSSH 0.3F Y/B           CCN000002000000002000FN00000000020220601000002000NNM   20220304134623    1W    00000200000000515000000000032BF    TTTJY   000000000000NB124033
BI00B32BF    TT22061BMW     20220419180D0203775              AVSSH 0.3F Y/R           CCN000002000000002000FN00000000020220601000002000NNM   20220304134623    1W    00000200000000515000000000032BF    TTTJY   000000000000NB124034
BI00B32BF    TT22061BMW     20220419180D0203930              AVSSH 0.5F B             CCN000001500000001500FN00000000020220601000001500NNM   20220304134623    1W    00000150000000689000000000032BF    TTTJY   000000000000NB124035
BI00B32BF    TT22061BMW     20220419180D0203937              AVSSH 0.5F B/Y           CCN000001500000001500FN00000000020220601000001500NNM   20220304134623    1W    00000150000000689000000000032BF    TTTJY   000000000000NB124036
BI00B32BF    TT22061BMW     20220419180D0203980              AVSSH 0.5F BR            CCN000001500000001500FN00000000020220601000001500NNM   20220304134623    1W    00000150000000689000000000032BF    TTTJY   000000000000NB124037
BI00B32BF    TT22061BMW     20220419180D0203960              AVSSH 0.5F G             CCN000001500000001500FN00000000020220601000001500NNM   20220304134623    1W    00000150000000689000000000032BF    TTTJY   000000000000NB124038
BI00B32BF    TT22061BMW     20220419180D0203964              AVSSH 0.5F G/W           CCN000001500000001500FN00000000020220601000001500NNM   20220304134623    1W    00000150000000689000000000032BF    TTTJY   000000000000NB124039
BI00B32BF    TT22061BMW     20220419180D0203941              AVSSH 0.5F GY            CCN000001500000001500FN00000000020220601000001500NNM   20220304134623    1W    00000150000000689000000000032BF    TTTJY   000000000000NB124040
BI00B32BF    TT22063BMW     20220503180D0203941              AVSSH 0.5F GY            CCN000001500000001500FN00000000020220601000001500NNM   20220304134623    1W    00000150000000689000000000032BF    TTTJY   000000000000NB324015
BI00B32BF    TT22061BMW     20220419180D0203990              AVSSH 0.5F L             CCN000001500000001500FN00000000020220601000001500NNM   20220304134623    1W    00000150000000689000000000032BF    TTTJY   000000000000NB124041
BI00B32BF    TT22061BMW     20220419180D0203995              AVSSH 0.5F L/R           CCN000001500000001500FN00000000020220601000001500NNM   20220304134623    1W    00000150000000689000000000032BF    TTTJY   000000000000NB124042
BI00B32BF    TT22061BMW     20220419180D02039G6              AVSSH 0.5F P/L           CCN000001500000001500FN00000000020220601000001500NNM   20220304134623    1W    00000150000000689000000000032BF    TTTJY   000000000000NB124043
BI00B32BF    TT22061BMW     20220419180D0203950              AVSSH 0.5F R             CCN000001500000001500FN00000000020220601000001500NNM   20220304134623    1W    00000150000000689000000000032BF    TTTJY   000000000000NB124044
BI00B32BF    TT22061BMW     20220419180D0203943              AVSSH 0.5F W/B           CCN000001500000001500FN00000000020220601000001500NNM   20220304134623    1W    00000150000000689000000000032BF    TTTJY   000000000000NB124045
BI00B32BF    TT22061BMW     20220419180D0203949              AVSSH 0.5F W/L           CCN000001500000001500FN00000000020220601000001500NNM   20220304134623    1W    00000150000000689000000000032BF    TTTJY   000000000000NB124046
BI00B32BF    TT22061BMW     20220419180D0203945              AVSSH 0.5F W/R           CCN000001500000001500FN00000000020220601000001500NNM   20220304134623    1W    00000150000000689000000000032BF    TTTJY   000000000000NB124047
BI00B32BF    TT22061BMW     20220419180D0203973              AVSSH 0.5F Y/B           CCN000001500000001500FN00000000020220601000001500NNM   20220304134623    1W    00000150000000689000000000032BF    TTTJY   000000000000NB124048
BI00B32BF    TT22061BMW     20220419180D0203976              AVSSH 0.5F Y/G           CCN000003000000003000FN00000000020220601000003000NNM   20220304134623    1W    00000150000000689000000000032BF    TTTJY   000000000000NB124049
BI00B32BF    TT22061BMW     20220419180D0204035              AVSSH 0.75F B/R          CCN000001000000001000FN00000000020220601000001000NNM   20220304134623    1W    00000100000000934000000000032BF    TTTJY   000000000000NB124050
BI00B32BF    TT22061BMW     20220419180D0204034              AVSSH 0.75F B/W          CCN000001000000001000FN00000000020220601000001000NNM   20220304134623    1W    00000100000000934000000000032BF    TTTJY   000000000000NB124051
BI00B32BF    TT22061BMW     20220419180D0204060              AVSSH 0.75F G            CCN000001000000001000FN00000000020220601000001000NNM   20220304134623    1W    00000100000000934000000000032BF    TTTJY   000000000000NB124052
BI00B32BF    TT22064BMW     20220510180D0204060              AVSSH 0.75F G            CCN000001000000001000FN00000000020220601000001000NNM   20220304134623    1W    00000100000000934000000000032BF    TTTJY   000000000000NB424002
BI00B32BF    TT22065BMW     20220517180D0204060              AVSSH 0.75F G            CCN000001000000001000FN00000000020220601000001000NNM   20220304134623    1W    00000100000000934000000000032BF    TTTJY   000000000000NB125003
BI00B32BF    TT22061BMW     20220419180D0204050              AVSSH 0.75F R            CCN000001000000001000FN00000000020220601000001000NNM   20220304134623    1W    00000100000000934000000000032BF    TTTJY   000000000000NB124053
BI00B32BF    TT22061BMW     20220419180D0204130              AVSSH 1.25F B            CCN000000800000000800FN00000000020220601000000800NNM   20220304134623    1W    00000080000001458000000000032BF    TTTJY   000000000000NB124054
BI00B32BF    TT22062BMW     20220426180D0204130              AVSSH 1.25F B            CCN000000800000000800FN00000000020220601000000800NNM   20220304134623    1W    00000080000001458000000000032BF    TTTJY   000000000000NB224023
BI00B32BF    TT22064BMW     20220510180D0204130              AVSSH 1.25F B            CCN000000800000000800FN00000000020220601000000800NNM   20220304134623    1W    00000080000001458000000000032BF    TTTJY   000000000000NB424003
BI00B32BF    TT22061BMW     20220419180D0204134              AVSSH 1.25F B/W          CCN000000800000000800FN00000000020220601000000800NNM   20220304134623    1W    00000080000001458000000000032BF    TTTJY   000000000000NB124055
BI00B32BF    TT22061BMW     20220419180D0204180              AVSSH 1.25F BR           CCN000000800000000800FN00000000020220601000000800NNM   20220304134623    1W    00000080000001458000000000032BF    TTTJY   000000000000NB124056
BI00B32BF    TT22061BMW     20220419180D0204190              AVSSH 1.25F L            CCN000000800000000800FN00000000020220601000000800NNM   20220304134623    1W    00000080000001458000000000032BF    TTTJY   000000000000NB124057
BI00B32BF    TT22061BMW     20220419180D0204150              AVSSH 1.25F R            CCN000000800000000800FN00000000020220601000000800NNM   20220304134623    1W    00000080000001458000000000032BF    TTTJY   000000000000NB124058
BI00B32BF    TT22061BMW     20220419180D0204159              AVSSH 1.25F R/L          CCN000000800000000800FN00000000020220601000000800NNM   20220304134623    1W    00000080000001458000000000032BF    TTTJY   000000000000NB124059
BI00B32BF    TT22061BMW     20220419180D0204143              AVSSH 1.25F W/B          CCN000001600000001600FN00000000020220601000001600NNM   20220304134623    1W    00000080000001458000000000032BF    TTTJY   000000000000NB124060
BI00B32BF    TT22061BMW     20220419180D0204170              AVSSH 1.25F Y            CCN000000800000000800FN00000000020220601000000800NNM   20220304134623    1W    00000080000001458000000000032BF    TTTJY   000000000000NB124061
BI00B32BF    TT22063BMW     20220503180D0204170              AVSSH 1.25F Y            CCN000000800000000800FN00000000020220601000000800NNM   20220304134623    1W    00000080000001458000000000032BF    TTTJY   000000000000NB324016
BI00B32BF    TT22065BMW     20220517180D0204170              AVSSH 1.25F Y            CCN000000800000000800FN00000000020220601000000800NNM   20220304134623    1W    00000080000001458000000000032BF    TTTJY   000000000000NB125004
BI00B32D1    DFTW2222       2022040718000004534              AV 8 B/W                 CCN000007500000007500FN00000000020220601000007500NNM   20220304164046    1W    00000010000010466200000000032D1    TOYOT-K 000000000000KO423059
BI00B32D1    DFTW2222       2022040718000004535              AV 8 B/R                 CCN000010100000010100FN00000000020220601000010100NNM   20220304164046    1W    00000010000010466200000000032D1    TOYOT-K 000000000000KO423058
BI00B32D1    DFTW2222       2022040718000004540              AV 8 W                   CCN000012000000012000FN00000000020220601000012000NNM   20220304164046    1W    00000010000010466200000000032D1    TOYOT-K 000000000000KO423061
BI00B32D1    DFTW2222       2022040718000004543              AV 8 W/B                 CCN000012300000012300FN00000000020220601000012300NNM   20220304164046    1W    00000010000010466200000000032D1    TOYOT-K 000000000000KO423062
BI00B32D1    DFTW2222       2022040718000004550              AV 8 R                   CCN000001000000001000FN00000000020220601000001000NNM   20220304164046    1W    00000010000010466200000000032D1    TOYOT-K 000000000000KO423060
BI00B32D1    @DFTW2222      20220407181AD2002ZZ              CIVUSAS-S 0.35X2 B       CCN000017550000017550FN00000000020220601000017550NNM   20220304164045    1W    00000045000001713700000000032D1    TOYOT-K 000000000000KO423031
BI00B32D1    @DFTW2222      20220407181AD2003ZZ              CIVUSAS-S 0.35X3 B       CCN000005250000005250FN00000000020220601000005250NNM   20220304164045    1W    00000035000002172100000000032D1    TOYOT-K 000000000000KO423032
BI00B32D1    @DFTW2222      20220407181AD2004ZZ              CIVUSAS-S 0.35X4 B       CCN000032100000032100FN00000000020220601000032100NNM   20220304164045    1W    00000030000002799900000000032D1    TOYOT-K 000000000000KO423033
BI00B32D1    @DFTW2222      20220407181E48031ZZ              CAVSAS-S 0.3X2 GY        CCN000011200000011200FN00000000020220601000011200NNM   20220304164045    1W    00000035000002008700000000032D1    TOYOT-K 000000000000KO423034
BI00B32D1    @DFTW2222      20220407181E48037ZZ              CAVSAS-S 0.3X4 GY        CCN000011500000011500FN00000000020220601000011500NNM   20220304164045    1W    00000025000003262000000000032D1    TOYOT-K 000000000000KO423036
BI00B32D1    @DFTW2222      20220407181E48041ZZ              CAVSAS-S 0.3X2 GY/R      CCN000013650000013650FN00000000020220601000013650NNM   20220304164045    1W    00000035000002008700000000032D1    TOYOT-K 000000000000KO423035
BI00B32D1    @DFTW2222      20220407181E50002ZZ              AVSSCS-S 0.3FX2 DGY/G    CCN000009100000009100FN00000000020220601000009100NNM   20220304164045    1W    00000035000002165000000000032D1    TOYOT-K 000000000000KO423042
BI00B32D1    @DFTW2222      20220407181E50004ZZ              AVSSCS-S 0.5FX1 DGY      CCN000012000000012000FN00000000020220601000012000NNM   20220304164045    1W    00000040000001909700000000032D1    TOYOT-K 000000000000KO423037
BI00B32D1    @DFTW2222      20220407181E50005ZZ              AVSSCS-S 0.5FX1 DGY/W    CCN000003200000003200FN00000000020220601000003200NNM   20220304164045    1W    00000040000001909700000000032D1    TOYOT-K 000000000000KO423040
BI00B32D1    @DFTW2222      20220407181E50007ZZ              AVSSCS-S 0.5FX1 DGY/L    CCN000006800000006800FN00000000020220601000006800NNM   20220304164045    1W    00000040000001909700000000032D1    TOYOT-K 000000000000KO423038
BI00B32D1    @DFTW2222      20220407181E50014ZZ              AVSSCS-S 0.5FX1 DGY/R    CCN000000800000000800FN00000000020220601000000800NNM   20220304164045    1W    00000040000001909700000000032D1    TOYOT-K 000000000000KO423039
BI00B32D1    @DFTW2222      20220407181E50020ZZ              AVSSCS-S 0.3FX2 DGY/R    CCN000006650000006650FN00000000020220601000006650NNM   20220304164045    1W    00000035000002165000000000032D1    TOYOT-K 000000000000KO423044
BI00B32D1    @DFTW2222      20220407181E50021ZZ              AVSSCS-S 0.3FX2 DGY/P    CCN000007700000007700FN00000000020220601000007700NNM   20220304164045    1W    00000035000002165000000000032D1    TOYOT-K 000000000000KO423043
BI00B32D1    @DFTW2222      20220407181E50036ZZ              AVSSCS-S 0.3FX2 DGY      CCN000005950000005950FN00000000020220601000005950NNM   20220304164045    1W    00000035000002165000000000032D1    TOYOT-K 000000000000KO423041
BI00B32G0    TZ2204BEMW     2022032918007703730              AVSS 0.3F B              CCN000010000000010000FN00000000020220401000010000NNE   20220304103417    1W    00000200000000496000000000032G0    TTTJY   000000000000NG323042
BI00B32G0    TZ2204BEMW     2022032918007703752              AVSS 0.3F P              CCN000008000000008000FN00000000020220401000008000NNE   20220304103417    1W    00000200000000496000000000032G0    TTTJY   000000000000NG323043
BI00B32G0    TZ2204BEMW     2022032918007703750              AVSS 0.3F R              CCN000008000000008000FN00000000020220401000008000NNE   20220304103417    1W    00000200000000496000000000032G0    TTTJY   000000000000NG323044
BI00B32G0    TZ2204BEMW     2022032918007703792              AVSS 0.3F V              CCN000018000000018000FN00000000020220401000018000NNE   20220304103417    1W    00000200000000496000000000032G0    TTTJY   000000000000NG323045
BI00B32G0    TZ2204BEMW     20220329180D0203760              AVSSH 0.3F G             CCN000020000000020000FN00000000020220401000020000NNE   20220304103417    1W    00000200000000515000000000032G0    TTTJY   000000000000NG323031
BI00B32G0    TZ2204BEMW     20220329180D0203750              AVSSH 0.3F R             CCN000010000000010000FN00000000020220401000010000NNE   20220304103417    1W    00000200000000515000000000032G0    TTTJY   000000000000NG323032
BI00B32G0    TZ2204BEMW     20220329180D0203740              AVSSH 0.3F W             CCN000022000000022000FN00000000020220401000022000NNE   20220304103417    1W    00000200000000515000000000032G0    TTTJY   000000000000NG323033
BI00B32G0    TZ2204BEMW     20220329180D0203743              AVSSH 0.3F W/B           CCN000006000000006000FN00000000020220401000006000NNE   20220304103417    1W    00000200000000515000000000032G0    TTTJY   000000000000NG323034
BI00B32G0    TZ2204BEMW     20220329180D0203980              AVSSH 0.5F BR            CCN000006000000006000FN00000000020220401000006000NNE   20220304103417    1W    00000150000000689000000000032G0    TTTJY   000000000000NG323035
BI00B32G0    TZ2204BEMW     20220329180D0203990              AVSSH 0.5F L             CCN000012000000012000FN00000000020220401000012000NNE   20220304103417    1W    00000150000000689000000000032G0    TTTJY   000000000000NG323036
BI00B32G0    TZ2204BEMW     20220329180D0204030              AVSSH 0.75F B            CCN000006000000006000FN00000000020220401000006000NNE   20220304103417    1W    00000100000000934000000000032G0    TTTJY   000000000000NG323037
BI00B32G0    TZ2204BEMW     20220329180D0204043              AVSSH 0.75F W/B          CCN000005000000005000FN00000000020220401000005000NNE   20220304103417    1W    00000100000000934000000000032G0    TTTJY   000000000000NG323038
BI00B32G0    TZ2204BEMW     20220329180D0204160              AVSSH 1.25F G            CCN000015200000015200FN00000000020220401000015200NNE   20220304103417    1W    00000080000001458000000000032G0    TTTJY   000000000000NG323039
BI00B32G0    TZ2204BEMW     20220329180D0204190              AVSSH 1.25F L            CCN000006400000006400FN00000000020220401000006400NNE   20220304103417    1W    00000080000001458000000000032G0    TTTJY   000000000000NG323040
BI00B32G0    TZ2204BEMW     20220329180D0204150              AVSSH 1.25F R            CCN000012800000012800FN00000000020220401000012800NNE   20220304103417    1W    00000080000001458000000000032G0    TTTJY   000000000000NG323041
BI00B32G0    @TZ2204BEMW    20220329181E50036ZZ              AVSSCS-S 0.3FX2 DGY      CCN000011550000011550FN00000000020220401000011550NNE   20220304103417    1W    00000035000002165000000000032G0    TTTJY   000000000000NG323022
BI00B32H0    TT2204DVMW     20220329180D0203980              AVSSH 0.5F BR            CCN000004500000004500FN00000000020220401000004500NNE   20220304114255    1W    00000150000000689000000000032H0    TTTJY   000000000000NL323005
BI00B32H0    TT2204DVMW     20220329180D0203950              AVSSH 0.5F R             CCN000030000000030000FN00000000020220401000030000NNE   20220304114255    1W    00000150000000689000000000032H0    TTTJY   000000000000NL323006
BI00B32H0    TT2204DVMW     20220329180D0203992              AVSSH 0.5F V             CCN000003000000003000FN00000000020220401000003000NNE   20220304114255    1W    00000150000000689000000000032H0    TTTJY   000000000000NL323007
BI00B32H0    TT2204DVMW     20220329180D0204130              AVSSH 1.25F B            CCN000000800000000800FN00000000020220401000000800NNE   20220304114255    1W    00000080000001458000000000032H0    TTTJY   000000000000NL323008
BI00B32H0    TT2204DVMW     20220329180D0204160              AVSSH 1.25F G            CCN000001600000001600FN00000000020220401000001600NNE   20220304114255    1W    00000080000001458000000000032H0    TTTJY   000000000000NL323009
BI00B32H0    TT2204DVMW     20220329180D0204190              AVSSH 1.25F L            CCN000001600000001600FN00000000020220401000001600NNE   20220304114255    1W    00000080000001458000000000032H0    TTTJY   000000000000NL323010
BI00B32H0    TT2204DVMW     20220329180D0204192              AVSSH 1.25F V            CCN000000800000000800FN00000000020220401000000800NNE   20220304114255    1W    00000080000001458000000000032H0    TTTJY   000000000000NL323011
BI00B32H0    TT2204DVMW     20220329180D0204140              AVSSH 1.25F W            CCN000002400000002400FN00000000020220401000002400NNE   20220304114255    1W    00000080000001458000000000032H0    TTTJY   000000000000NL323012
BI00B32H0    TT2204DVMW     20220329180D0204143              AVSSH 1.25F W/B          CCN000000800000000800FN00000000020220401000000800NNE   20220304114255    1W    00000080000001458000000000032H0    TTTJY   000000000000NL323013
BI00B32H0    TT22061VMW     20220419180D0203980              AVSSH 0.5F BR            CCN000006000000006000FN00000000020220601000006000NNM   20220304134928    1W    00000150000000689000000000032H0    TTTJY   000000000000NV124009
BI00B32H0    TT22062VMW     20220426180D0203980              AVSSH 0.5F BR            CCN000001500000001500FN00000000020220601000001500NNM   20220304134928    1W    00000150000000689000000000032H0    TTTJY   000000000000NV224010
BI00B32H0    TT22061VMW     20220419180D0203950              AVSSH 0.5F R             CCN000037500000037500FN00000000020220601000037500NNM   20220304134928    1W    00000150000000689000000000032H0    TTTJY   000000000000NV124010
BI00B32H0    TT22062VMW     20220426180D0203950              AVSSH 0.5F R             CCN000093000000093000FN00000000020220601000093000NNM   20220304134928    1W    00000150000000689000000000032H0    TTTJY   000000000000NV224011
BI00B32H0    TT22063VMW     20220503180D0203950              AVSSH 0.5F R             CCN000028500000028500FN00000000020220601000028500NNM   20220304134928    1W    00000150000000689000000000032H0    TTTJY   000000000000NV324010
BI00B32H0    TT22064VMW     20220510180D0203950              AVSSH 0.5F R             CCN000046500000046500FN00000000020220601000046500NNM   20220304134928    1W    00000150000000689000000000032H0    TTTJY   000000000000NV424011
BI00B32H0    TT22061VMW     20220419180D0203992              AVSSH 0.5F V             CCN000004500000004500FN00000000020220601000004500NNM   20220304134928    1W    00000150000000689000000000032H0    TTTJY   000000000000NV124011
BI00B32H0    TT22061VMW     20220419180D0203943              AVSSH 0.5F W/B           CCN000001500000001500FN00000000020220601000001500NNM   20220304134928    1W    00000150000000689000000000032H0    TTTJY   000000000000NV124012
BI00B32H0    TT22062VMW     20220426180D0203943              AVSSH 0.5F W/B           CCN000001500000001500FN00000000020220601000001500NNM   20220304134928    1W    00000150000000689000000000032H0    TTTJY   000000000000NV224012
BI00B32H0    TT22061VMW     20220419180D0204130              AVSSH 1.25F B            CCN000001600000001600FN00000000020220601000001600NNM   20220304134928    1W    00000080000001458000000000032H0    TTTJY   000000000000NV124013
BI00B32H0    TT22062VMW     20220426180D0204130              AVSSH 1.25F B            CCN000000800000000800FN00000000020220601000000800NNM   20220304134928    1W    00000080000001458000000000032H0    TTTJY   000000000000NV224013
BI00B32H0    TT22063VMW     20220503180D0204130              AVSSH 1.25F B            CCN000000800000000800FN00000000020220601000000800NNM   20220304134928    1W    00000080000001458000000000032H0    TTTJY   000000000000NV324011
BI00B32H0    TT22061VMW     20220419180D0204160              AVSSH 1.25F G            CCN000004000000004000FN00000000020220601000004000NNM   20220304134928    1W    00000080000001458000000000032H0    TTTJY   000000000000NV124014
BI00B32H0    TT22062VMW     20220426180D0204160              AVSSH 1.25F G            CCN000001600000001600FN00000000020220601000001600NNM   20220304134928    1W    00000080000001458000000000032H0    TTTJY   000000000000NV224014
BI00B32H0    TT22063VMW     20220503180D0204160              AVSSH 1.25F G            CCN000001600000001600FN00000000020220601000001600NNM   20220304134928    1W    00000080000001458000000000032H0    TTTJY   000000000000NV324012
BI00B32H0    TT22061VMW     20220419180D0204190              AVSSH 1.25F L            CCN000002400000002400FN00000000020220601000002400NNM   20220304134928    1W    00000080000001458000000000032H0    TTTJY   000000000000NV124015
BI00B32H0    TT22061VMW     20220419180D0204192              AVSSH 1.25F V            CCN000001600000001600FN00000000020220601000001600NNM   20220304134928    1W    00000080000001458000000000032H0    TTTJY   000000000000NV124016
BI00B32H0    TT22061VMW     20220419180D0204140              AVSSH 1.25F W            CCN000002400000002400FN00000000020220601000002400NNM   20220304134928    1W    00000080000001458000000000032H0    TTTJY   000000000000NV124017
BI00B32H0    TT22061VMW     20220419180D0204143              AVSSH 1.25F W/B          CCN000001600000001600FN00000000020220601000001600NNM   20220304134928    1W    00000080000001458000000000032H0    TTTJY   000000000000NV124018
BI00B32H0    TT22062VMW     20220426180D0204143              AVSSH 1.25F W/B          CCN000000800000000800FN00000000020220601000000800NNM   20220304134928    1W    00000080000001458000000000032H0    TTTJY   000000000000NV224015
BI00B32H0    @TT22061VMW    20220419181E50036ZZ              AVSSCS-S 0.3FX2 DGY      CCN000000350000000350FN00000000020220601000000350NNM   20220304134926    1W    00000035000002165000000000032H0    TTTJY   000000000000NV124002
BI00B32H0    TT2205AVMW     2022032918007703790              AVSS 0.3F L              CCN000030000000030000FN00000000020220501000030000NNE   20220304114256    1W    00000200000000496000000000032H0    TTTJY   000000000000NN323001
BI00B32J1    @392173        20220328181AD2003ZZ              CIVUSAS-S 0.35X3 B       CCN000001050000001050FN00000000020220301000001050NNE   20220304151447    1W    00000035000002172100000000032J1    UKYEL-BL000000000000KG323001
BI00B32W4    4500189990     2022042618007703965              AVSS 0.5F G/R            CCN000001500000001500FN00000000020220401000001500NNE   20220304161836W4K81W    00000150000000674000000000032W4K8  HJYHK-J 000000000000OL224005
BI00B32W4    4500189990     2022042618007704195              AVSS 1.25F L/R           CCN000001600000001600FN00000000020220401000001600NNE   20220304161836W4K81W    00000080000001389000000000032W4K8  HJYHK-J 000000000000OL224006
BI00B32W4    4500189990     2022042618007704230              AVSS 2F B                CCN000008000000008000FN00000000020220401000008000NNE   20220304161836W4K81W    00000050000002126400000000032W4K8  HJYHK-J 000000000000OL224007
BI00B32W4    4500189990     2022042618007704287              AVSS 2F BR/Y             CCN000001000000001000FN00000000020220401000001000NNE   20220304161836W4K81W    00000050000002126400000000032W4K8  HJYHK-J 000000000000OL224008
BI00B32W4    4500189990     2022042618018403707              CAVS 0.3 P/B             CCN000008000000008000FN00000000020220401000008000NNE   20220304161836W4K81W    00000200000000471000000000032W4K8  HJYHK-J 000000000000OL224039
BI00B32W4    4500189990     2022042618018403730              CAVS 0.3 B               CCN000012000000012000FN00000000020220401000012000NNE   20220304161836W4K81W    00000200000000471000000000032W4K8  HJYHK-J 000000000000OL224035
BI00B32W4    4500189990     2022042618018403734              CAVS 0.3 B/W             CCN000006000000006000FN00000000020220401000006000NNE   20220304161836W4K81W    00000200000000471000000000032W4K8  HJYHK-J 000000000000OL224036
BI00B32W4    4500189990     2022042618018403740              CAVS 0.3 W               CCN000018000000018000FN00000000020220401000018000NNE   20220304161836W4K81W    00000200000000471000000000032W4K8  HJYHK-J 000000000000OL224042
BI00B32W4    4500189990     2022042618018403749              CAVS 0.3 W/L             CCN000008000000008000FN00000000020220401000008000NNE   20220304161836W4K81W    00000200000000471000000000032W4K8  HJYHK-J 000000000000OL224043
BI00B32W4    4500189990     2022042618018403760              CAVS 0.3 G               CCN000010000000010000FN00000000020220401000010000NNE   20220304161836W4K81W    00000200000000471000000000032W4K8  HJYHK-J 000000000000OL224037
BI00B32W4    4500189990     2022042618018403790              CAVS 0.3 L               CCN000016000000016000FN00000000020220401000016000NNE   20220304161836W4K81W    00000200000000471000000000032W4K8  HJYHK-J 000000000000OL224038
BI00B32W4    4500189990     2022042618018403792              CAVS 0.3 V               CCN000014000000014000FN00000000020220401000014000NNE   20220304161836W4K81W    00000200000000471000000000032W4K8  HJYHK-J 000000000000OL224041
BI00B32W4    4500189990     2022042618018403930              CAVS 0.5 B               CCN000030000000030000FN00000000020220401000030000NNE   20220304161836W4K81W    00000150000000677000000000032W4K8  HJYHK-J 000000000000OL224044
BI00B32W4    4500189990     2022042618018403934              CAVS 0.5 B/W             CCN000030000000030000FN00000000020220401000030000NNE   20220304161836W4K81W    00000150000000677000000000032W4K8  HJYHK-J 000000000000OL224045
BI00B32W4    4500189990     2022042618018403940              CAVS 0.5 W               CCN000037500000037500FN00000000020220401000037500NNE   20220304161836W4K81W    00000150000000677000000000032W4K8  HJYHK-J 000000000000OL224056
BI00B32W4    4500189990     2022042618018403941              CAVS 0.5 GY              CCN000036000000036000FN00000000020220401000036000NNE   20220304161836W4K81W    00000150000000677000000000032W4K8  HJYHK-J 000000000000OL224048
BI00B32W4    4500189990     2022042618018403943              CAVS 0.5 W/B             CCN000036000000036000FN00000000020220401000036000NNE   20220304161836W4K81W    00000150000000677000000000032W4K8  HJYHK-J 000000000000OL224057
BI00B32W4    4500189990     2022042618018403950              CAVS 0.5 R               CCN000025500000025500FN00000000020220401000025500NNE   20220304161836W4K81W    00000150000000677000000000032W4K8  HJYHK-J 000000000000OL224052
BI00B32W4    4500189990     2022042618018403952              CAVS 0.5 P               CCN000045000000045000FN00000000020220401000045000NNE   20220304161836W4K81W    00000150000000677000000000032W4K8  HJYHK-J 000000000000OL224051
BI00B32W4    4500189990     2022042618018403954              CAVS 0.5 R/W             CCN000030000000030000FN00000000020220401000030000NNE   20220304161836W4K81W    00000150000000677000000000032W4K8  HJYHK-J 000000000000OL224053
BI00B32W4    4500189990     2022042618018403960              CAVS 0.5 G               CCN000045000000045000FN00000000020220401000045000NNE   20220304161836W4K81W    00000150000000677000000000032W4K8  HJYHK-J 000000000000OL224046
BI00B32W4    4500189990     2022042618018403961              CAVS 0.5 LG              CCN000045000000045000FN00000000020220401000045000NNE   20220304161836W4K81W    00000150000000677000000000032W4K8  HJYHK-J 000000000000OL224050
BI00B32W4    4500189990     2022042618018403964              CAVS 0.5 G/W             CCN000012000000012000FN00000000020220401000012000NNE   20220304161836W4K81W    00000150000000677000000000032W4K8  HJYHK-J 000000000000OL224047
BI00B32W4    4500189990     2022042618018403970              CAVS 0.5 Y               CCN000025500000025500FN00000000020220401000025500NNE   20220304161836W4K81W    00000150000000677000000000032W4K8  HJYHK-J 000000000000OL224058
BI00B32W4    4500189990     2022042618018403990              CAVS 0.5 L               CCN000037500000037500FN00000000020220401000037500NNE   20220304161836W4K81W    00000150000000677000000000032W4K8  HJYHK-J 000000000000OL224049
BI00B32W4    4500189990     2022042618018403991              CAVS 0.5 SB              CCN000037500000037500FN00000000020220401000037500NNE   20220304161836W4K81W    00000150000000677000000000032W4K8  HJYHK-J 000000000000OL224054
BI00B32W4    4500189990     2022042618018403992              CAVS 0.5 V               CCN000021000000021000FN00000000020220401000021000NNE   20220304161836W4K81W    00000150000000677000000000032W4K8  HJYHK-J 000000000000OL224055
BI00B32W4    4500189990     2022042618018404043              CAVS 0.85 W/B            CCN000003000000003000FN00000000020220401000003000NNE   20220304161836W4K81W    00000100000000965000000000032W4K8  HJYHK-J 000000000000OL224063
BI00B32W4    4500189990     2022042618018404052              CAVS 0.85 P              CCN000004000000004000FN00000000020220401000004000NNE   20220304161836W4K81W    00000100000000965000000000032W4K8  HJYHK-J 000000000000OL224061
BI00B32W4    4500189990     2022042618018404061              CAVS 0.85 LG             CCN000004000000004000FN00000000020220401000004000NNE   20220304161836W4K81W    00000100000000965000000000032W4K8  HJYHK-J 000000000000OL224060
BI00B32W4    4500189990     2022042618018404090              CAVS 0.85 L              CCN000005000000005000FN00000000020220401000005000NNE   20220304161836W4K81W    00000100000000965000000000032W4K8  HJYHK-J 000000000000OL224059
BI00B32W4    4500189990     2022042618018404092              CAVS 0.85 V              CCN000005000000005000FN00000000020220401000005000NNE   20220304161836W4K81W    00000100000000965000000000032W4K8  HJYHK-J 000000000000OL224062
BI00B32W4    4500189990     2022042618018404130              CAVS 1.25 B              CCN000041600000041600FN00000000020220401000041600NNE   20220304161836W4K81W    00000080000001378000000000032W4K8  HJYHK-J 000000000000OL224064
BI00B32W4    4500189990     2022042618018404140              CAVS 1.25 W              CCN000011200000011200FN00000000020220401000011200NNE   20220304161836W4K81W    00000080000001378000000000032W4K8  HJYHK-J 000000000000OL224071
BI00B32W4    4500189990     2022042618018404141              CAVS 1.25 GY             CCN000031200000031200FN00000000020220401000031200NNE   20220304161836W4K81W    00000080000001378000000000032W4K8  HJYHK-J 000000000000OL224066
BI00B32W4    4500189990     2022042618018404143              CAVS 1.25 W/B            CCN000016000000016000FN00000000020220401000016000NNE   20220304161836W4K81W    00000080000001378000000000032W4K8  HJYHK-J 000000000000OL224072
BI00B32W4    4500189990     2022042618018404145              CAVS 1.25 W/R            CCN000016000000016000FN00000000020220401000016000NNE   20220304161836W4K81W    00000080000001378000000000032W4K8  HJYHK-J 000000000000OL224074
BI00B32W4    4500189990     2022042618018404146              CAVS 1.25 W/G            CCN000032000000032000FN00000000020220401000032000NNE   20220304161836W4K81W    00000080000001378000000000032W4K8  HJYHK-J 000000000000OL224073
BI00B32W4    4500189990     2022042618018404150              CAVS 1.25 R              CCN000008000000008000FN00000000020220401000008000NNE   20220304161836W4K81W    00000080000001378000000000032W4K8  HJYHK-J 000000000000OL224069
BI00B32W4    4500189990     2022042618018404152              CAVS 1.25 P              CCN000008000000008000FN00000000020220401000008000NNE   20220304161836W4K81W    00000080000001378000000000032W4K8  HJYHK-J 000000000000OL224068
BI00B32W4    4500189990     2022042618018404160              CAVS 1.25 G              CCN000010400000010400FN00000000020220401000010400NNE   20220304161836W4K81W    00000080000001378000000000032W4K8  HJYHK-J 000000000000OL224065
BI00B32W4    4500189990     2022042618018404161              CAVS 1.25 LG             CCN000008000000008000FN00000000020220401000008000NNE   20220304161836W4K81W    00000080000001378000000000032W4K8  HJYHK-J 000000000000OL224067
BI00B32W4    4500189990     2022042618018404192              CAVS 1.25 V              CCN000016000000016000FN00000000020220401000016000NNE   20220304161836W4K81W    00000080000001378000000000032W4K8  HJYHK-J 000000000000OL224070
BI00B32W4    4500189990     20220426180184037H2              CAVS 0.3 P/G             CCN000008000000008000FN00000000020220401000008000NNE   20220304161836W4K81W    00000200000000471000000000032W4K8  HJYHK-J 000000000000OL224040
BI00B32W4    4500189990     20220426180T8403970              ACCAVS 0.5 Y             CCN000010500000010500FN00000000020220401000010500NNE   20220304161836W4K81W    00000150000000674300000000032W4K8  HJYHK-J 000000000000OL224003
BI00B32W4    4500189990     20220426180T8403973              ACCAVS 0.5 Y/B           CCN000010500000010500FN00000000020220401000010500NNE   20220304161836W4K81W    00000150000000674300000000032W4K8  HJYHK-J 000000000000OL224004
BI00B32W4    4500189990     202204261801R703940              CIVUS 0.5 W              CCN000022000000022000FN00000000020220401000022000NNE   20220304161836W4K81W    00000220000000525000000000032W4K8  HJYHK-J 000000000000OL224015
BI00B32W4    4500189990     202204261801R703991              CIVUS 0.5 SB             CCN000022000000022000FN00000000020220401000022000NNE   20220304161836W4K81W    00000220000000525000000000032W4K8  HJYHK-J 000000000000OL224013
BI00B32W4    4500189990     202204261801R706940              CIVUS 0.35 W             CCN000063000000063000FN00000000020220401000063000NNE   20220304161836W4K81W    00000300000000386000000000032W4K8  HJYHK-J 000000000000OL224031
BI00B32W4    4500189990     202204261801R706943              CIVUS 0.35 W/B           CCN000018000000018000FN00000000020220401000018000NNE   20220304161836W4K81W    00000300000000386000000000032W4K8  HJYHK-J 000000000000OL224032
BI00B32W4    4500189990     202204261801R706930              CIVUS 0.35 B             CCN000021000000021000FN00000000020220401000021000NNE   20220304161836W4K81W    00000300000000386000000000032W4K8  HJYHK-J 000000000000OL224021
BI00B32W4    4500189990     202204261801R70695U              CIVUS 0.35 BE            CCN000012000000012000FN00000000020220401000012000NNE   20220304161836W4K81W    00000300000000386000000000032W4K8  HJYHK-J 000000000000OL224022
BI00B32W4    4500189990     202204261801R706980              CIVUS 0.35 BR            CCN000048000000048000FN00000000020220401000048000NNE   20220304161836W4K81W    00000300000000386000000000032W4K8  HJYHK-J 000000000000OL224023
BI00B32W4    4500189990     202204261801R706960              CIVUS 0.35 G             CCN000024000000024000FN00000000020220401000024000NNE   20220304161836W4K81W    00000300000000386000000000032W4K8  HJYHK-J 000000000000OL224024
BI00B32W4    4500189990     202204261801R706941              CIVUS 0.35 GY            CCN000024000000024000FN00000000020220401000024000NNE   20220304161836W4K81W    00000300000000386000000000032W4K8  HJYHK-J 000000000000OL224025
BI00B32W4    4500189990     202204261801R706990              CIVUS 0.35 L             CCN000024000000024000FN00000000020220401000024000NNE   20220304161836W4K81W    00000300000000386000000000032W4K8  HJYHK-J 000000000000OL224026
BI00B32W4    4500189990     202204261801R706952              CIVUS 0.35 P             CCN000024000000024000FN00000000020220401000024000NNE   20220304161836W4K81W    00000300000000386000000000032W4K8  HJYHK-J 000000000000OL224028
BI00B32W4    4500189990     202204261801R706991              CIVUS 0.35 SB            CCN000024000000024000FN00000000020220401000024000NNE   20220304161836W4K81W    00000300000000386000000000032W4K8  HJYHK-J 000000000000OL224030
BI00B32W4    4500189990     202204261801R704143              CIVUS 1.25 W/B           CCN000015000000015000FN00000000020220401000015000NNE   20220304161836W4K81W    00000100000001228000000000032W4K8  HJYHK-J 000000000000OL224020
BI00B32W4    4500189990     202204261801R704191              CIVUS 1.25 SB            CCN000006000000006000FN00000000020220401000006000NNE   20220304161836W4K81W    00000100000001228000000000032W4K8  HJYHK-J 000000000000OL224019
BI00B32W4    4500189990     202204261801R706961              CIVUS 0.35 LG            CCN000012000000012000FN00000000020220401000012000NNE   20220304161836W4K81W    00000300000000386000000000032W4K8  HJYHK-J 000000000000OL224027
BI00B32W4    4500189990     202204261801R703980              CIVUS 0.5 BR             CCN000033000000033000FN00000000020220401000033000NNE   20220304161836W4K81W    00000220000000525000000000032W4K8  HJYHK-J 000000000000OL224011
BI00B32W4    4500189990     202204261801R703960              CIVUS 0.5 G              CCN000013200000013200FN00000000020220401000013200NNE   20220304161836W4K81W    00000220000000525000000000032W4K8  HJYHK-J 000000000000OL224012
BI00B32W4    4500189990     202204261801R706950              CIVUS 0.35 R             CCN000030000000030000FN00000000020220401000030000NNE   20220304161836W4K81W    00000300000000386000000000032W4K8  HJYHK-J 000000000000OL224029
BI00B32W4    4500189990     202204261801R706970              CIVUS 0.35 Y             CCN000030000000030000FN00000000020220401000030000NNE   20220304161836W4K81W    00000300000000386000000000032W4K8  HJYHK-J 000000000000OL224033
BI00B32W4    4500189990     202204261801R706973              CIVUS 0.35 Y/B           CCN000030000000030000FN00000000020220401000030000NNE   20220304161836W4K81W    00000300000000386000000000032W4K8  HJYHK-J 000000000000OL224034
BI00B32W4    4500189990     202204261801R703930              CIVUS 0.5 B              CCN000022000000022000FN00000000020220401000022000NNE   20220304161836W4K81W    00000220000000525000000000032W4K8  HJYHK-J 000000000000OL224010
BI00B32W4    4500189990     202204261801R703992              CIVUS 0.5 V              CCN000008800000008800FN00000000020220401000008800NNE   20220304161836W4K81W    00000220000000525000000000032W4K8  HJYHK-J 000000000000OL224014
BI00B32W4    4500189990     202204261801R703943              CIVUS 0.5 W/B            CCN000070400000070400FN00000000020220401000070400NNE   20220304161836W4K81W    00000220000000525000000000032W4K8  HJYHK-J 000000000000OL224016
BI00B32W4    4500189990     202204261801R704030              CIVUS 0.75 B             CCN000012000000012000FN00000000020220401000012000NNE   20220304161836W4K81W    00000150000000765000000000032W4K8  HJYHK-J 000000000000OL224017
BI00B32W4    4500189990     202204261801R704130              CIVUS 1.25 B             CCN000010000000010000FN00000000020220401000010000NNE   20220304161836W4K81W    00000100000001228000000000032W4K8  HJYHK-J 000000000000OL224018
BI00B32W4    4500189990     2022042618007704243              AVSS 2F W/B              CCN000003000000003000FN00000000020220401000003000NNE   20220304161836W4K81W    00000050000002126400000000032W4K8  HJYHK-J 000000000000OL224009
BI00B32W4    @4500189990    20220426181B32116S1              AVSSCS 0.3FX2 DGY        CCN000000350000000350FN00000000020220401000000350NNE   20220304161834W4K81W    00000035000002276000000000032W4K8  HJYHK-J 000000000000OL224001
BI00B32W4    @4500189990    20220426181B32116Z6              AVSSCS 0.3FX2 DGY/V      CCN000010500000010500FN00000000020220401000010500NNE   20220304161834W4K81W    00000035000002276000000000032W4K8  HJYHK-J 000000000000OL224002
BI00A32W4    @4500189968    20220503181D6910239              AVSSHCS 0.5FX2 B/L       CCN000001200000001200FN00000000020220501000001200NNE   20220304161838W4421W    00000030000002385000000000032W442  HJYHK-J 000000000000OP324001
BI00B32W4    @4500190166    20220405181E50002ZZ              AVSSCS-S 0.3FX2 DGY/G    CCN000004550000004550FN00000000020220401000004550NNE   20220304161836W4591W    00000035000002165000000000032W459  HJYHK-J 000000000000OT423001
BI00B32W4    4500190192     2022042618018403940              CAVS 0.5 W               CCN000001500000001500FN00000000020220401000001500NNE   20220304161837W41 1W    00000150000000677000000000032W41   HJYHK-J 000000000000OF224001
BI00B32W9    4500190127     2022041218000004543              AV 8 W/B                 CCN000000100000000100FN00000000020220401000000100NNE   20220304161644W93 1W    00000010000010466200000000032W93   HKYHK   000000000000ZM523005
BI00B32W9    4500190127     2022041218000004545              AV 8 W/R                 CCN000000100000000100FN00000000020220401000000100NNE   20220304161644W93 1W    00000010000010466200000000032W93   HKYHK   000000000000ZM523006
BI00B32W9    4500190127     20220412180D0204140              AVSSH 1.25F W            CCN000000800000000800FN00000000020220401000000800NNE   20220304161644W93 1W    00000080000001458000000000032W93   HKYHK   000000000000ZM523003
BI00B32W9    4500190127     2022041218018403918              CAVS 0.5 G/O             CCN000001500000001500FN00000000020220401000001500NNE   20220304161644W93 1W    00000150000000677000000000032W93   HKYHK   000000000000ZM523048
BI00B32W9    4500190127     2022041218018403989              CAVS 0.5 BR/L            CCN000001500000001500FN00000000020220401000001500NNE   20220304161644W93 1W    00000150000000677000000000032W93   HKYHK   000000000000ZM523044
BI00B32W9    4500190127     2022041218018404052              CAVS 0.85 P              CCN000001000000001000FN00000000020220401000001000NNE   20220304161644W93 1W    00000100000000965000000000032W93   HKYHK   000000000000ZM523093
BI00B32W9    4500190127     2022041218018404118              CAVS 1.25 G/O            CCN000001600000001600FN00000000020220401000001600NNE   20220304161644W93 1W    00000080000001378000000000032W93   HKYHK   000000000000ZM523104
BI00B32W9    4500190127     2022041218009604470              AVS 5 Y                  CCN000000200000000200FN00000000020220401000000200NNE   20220304161644W93 1W    00000020000005981000000000032W93   HKYHK   000000000000ZM523029
BI00B32W9    4500190127     2022041218000004540              AV 8 W                   CCN000000100000000100FN00000000020220401000000100NNE   20220304161644W93 1W    00000010000010466200000000032W93   HKYHK   000000000000ZM523004
BI00B32W9    4500190127     2022041218009604350              AVS 3 R                  CCN000001200000001200FN00000000020220401000001200NNE   20220304161644W93 1W    00000040000003831600000000032W93   HKYHK   000000000000ZM523019
BI00B32W9    4500190127     2022041218009604357              AVS 3 R/Y                CCN000000400000000400FN00000000020220401000000400NNE   20220304161644W93 1W    00000040000003831600000000032W93   HKYHK   000000000000ZM523021
BI00B32W9    4500190127     2022041218009604450              AVS 5 R                  CCN000001200000001200FN00000000020220401000001200NNE   20220304161644W93 1W    00000020000005981000000000032W93   HKYHK   000000000000ZM523024
BI00B32W9    4500190127     2022041218009604457              AVS 5 R/Y                CCN000000400000000400FN00000000020220401000000400NNE   20220304161644W93 1W    00000020000005981000000000032W93   HKYHK   000000000000ZM523027
BI00B32W9    4500190127     2022041218009604345              AVS 3 W/R                CCN000000800000000800FN00000000020220401000000800NNE   20220304161644W93 1W    00000040000003831600000000032W93   HKYHK   000000000000ZM523022
BI00B32W9    4500190127     2022041218009604445              AVS 5 W/R                CCN000000200000000200FN00000000020220401000000200NNE   20220304161644W93 1W    00000020000005981000000000032W93   HKYHK   000000000000ZM523028
BI00B32W9    4500190127     2022041218009604354              AVS 3 R/W                CCN000000800000000800FN00000000020220401000000800NNE   20220304161644W93 1W    00000040000003831600000000032W93   HKYHK   000000000000ZM523020
BI00B32W9    4500190127     2022041218009604334              AVS 3 B/W                CCN000000800000000800FN00000000020220401000000800NNE   20220304161644W93 1W    00000040000003831600000000032W93   HKYHK   000000000000ZM523017
BI00B32W9    4500190127     2022041218018103964              AVS 0.5F G/W             CCN000001000000001000FN00000000020220401000001000NNE   20220304161644W93 1W    00000100000000807000000000032W93   HKYHK   000000000000ZM523030
BI00B32W9    4500190127     20220412180184039H2              CAVS 0.5 P/G             CCN000001500000001500FN00000000020220401000001500NNE   20220304161644W93 1W    00000150000000677000000000032W93   HKYHK   000000000000ZM523063
BI00B32W9    4500190127     20220412180184039G9              CAVS 0.5 V/G             CCN000001500000001500FN00000000020220401000001500NNE   20220304161644W93 1W    00000150000000677000000000032W93   HKYHK   000000000000ZM523072
BI00B32W9    4500190127     2022041218009604393              AVS 3 L/B                CCN000000400000000400FN00000000020220401000000400NNE   20220304161644W93 1W    00000040000003831600000000032W93   HKYHK   000000000000ZM523018
BI00B32W9    4500190127     2022041218009604375              AVS 3 Y/R                CCN000000400000000400FN00000000020220401000000400NNE   20220304161644W93 1W    00000040000003831600000000032W93   HKYHK   000000000000ZM523023
BI00B32W9    4500190127     2022041218009604453              AVS 5 R/B                CCN000000200000000200FN00000000020220401000000200NNE   20220304161644W93 1W    00000020000005981000000000032W93   HKYHK   000000000000ZM523025
BI00B32W9    4500190127     2022041218009604454              AVS 5 R/W                CCN000000200000000200FN00000000020220401000000200NNE   20220304161644W93 1W    00000020000005981000000000032W93   HKYHK   000000000000ZM523026
BI00B32W9    4500190127     2022041218007703930              AVSS 0.5F B              CCN000001500000001500FN00000000020220401000001500NNE   20220304161644W93 1W    00000150000000674000000000032W93   HKYHK   000000000000ZM523007
BI00B32W9    4500190127     2022041218007704230              AVSS 2F B                CCN000002500000002500FN00000000020220401000002500NNE   20220304161644W93 1W    00000050000002126400000000032W93   HKYHK   000000000000ZM523010
BI00B32W9    4500190127     2022041218007704254              AVSS 2F R/W              CCN000001000000001000FN00000000020220401000001000NNE   20220304161644W93 1W    00000050000002126400000000032W93   HKYHK   000000000000ZM523015
BI00B32W9    4500190127     2022041218007704130              AVSS 1.25F B             CCN000000800000000800FN00000000020220401000000800NNE   20220304161644W93 1W    00000080000001389000000000032W93   HKYHK   000000000000ZM523008
BI00B32W9    4500190127     2022041218007704150              AVSS 1.25F R             CCN000000800000000800FN00000000020220401000000800NNE   20220304161644W93 1W    00000080000001389000000000032W93   HKYHK   000000000000ZM523009
BI00B32W9    4500190127     2022041218007704270              AVSS 2F Y                CCN000000500000000500FN00000000020220401000000500NNE   20220304161644W93 1W    00000050000002126400000000032W93   HKYHK   000000000000ZM523016
BI00B32W9    4500190127     2022041218007704259              AVSS 2F R/L              CCN000000500000000500FN00000000020220401000000500NNE   20220304161644W93 1W    00000050000002126400000000032W93   HKYHK   000000000000ZM523014
BI00B32W9    4500190127     2022041218007704237              AVSS 2F B/Y              CCN000000500000000500FN00000000020220401000000500NNE   20220304161644W93 1W    00000050000002126400000000032W93   HKYHK   000000000000ZM523012
BI00B32W9    4500190127     2022041218007704251              AVSS 2F O                CCN000000500000000500FN00000000020220401000000500NNE   20220304161644W93 1W    00000050000002126400000000032W93   HKYHK   000000000000ZM523013
BI00B32W9    4500190127     2022041218007704235              AVSS 2F B/R              CCN000000500000000500FN00000000020220401000000500NNE   20220304161644W93 1W    00000050000002126400000000032W93   HKYHK   000000000000ZM523011
BI00B32W9    4500190127     20220412180D0203930              AVSSH 0.5F B             CCN000001500000001500FN00000000020220401000001500NNE   20220304161644W93 1W    00000150000000689000000000032W93   HKYHK   000000000000ZM523001
BI00B32W9    4500190127     20220412180D0203950              AVSSH 0.5F R             CCN000001500000001500FN00000000020220401000001500NNE   20220304161644W93 1W    00000150000000689000000000032W93   HKYHK   000000000000ZM523002
BI00B32W9    4500190127     2022041218018403943              CAVS 0.5 W/B             CCN000001500000001500FN00000000020220401000001500NNE   20220304161644W93 1W    00000150000000677000000000032W93   HKYHK   000000000000ZM523074
BI00B32W9    4500190127     2022041218018403980              CAVS 0.5 BR              CCN000007500000007500FN00000000020220401000007500NNE   20220304161644W93 1W    00000150000000677000000000032W93   HKYHK   000000000000ZM523041
BI00B32W9    4500190127     2022041218018403995              CAVS 0.5 L/R             CCN000001500000001500FN00000000020220401000001500NNE   20220304161644W93 1W    00000150000000677000000000032W93   HKYHK   000000000000ZM523054
BI00B32W9    4500190127     2022041218018403940              CAVS 0.5 W               CCN000003000000003000FN00000000020220401000003000NNE   20220304161644W93 1W    00000150000000677000000000032W93   HKYHK   000000000000ZM523073
BI00B32W9    4500190127     2022041218018403952              CAVS 0.5 P               CCN000004500000004500FN00000000020220401000004500NNE   20220304161644W93 1W    00000150000000677000000000032W93   HKYHK   000000000000ZM523061
BI00B32W9    4500190127     2022041218018403994              CAVS 0.5 L/W             CCN000001500000001500FN00000000020220401000001500NNE   20220304161644W93 1W    00000150000000677000000000032W93   HKYHK   000000000000ZM523055
BI00B32W9    4500190127     2022041218018403961              CAVS 0.5 LG              CCN000001500000001500FN00000000020220401000001500NNE   20220304161644W93 1W    00000150000000677000000000032W93   HKYHK   000000000000ZM523056
BI00B32W9    4500190127     2022041218018403991              CAVS 0.5 SB              CCN000001500000001500FN00000000020220401000001500NNE   20220304161644W93 1W    00000150000000677000000000032W93   HKYHK   000000000000ZM523070
BI00B32W9    4500190127     2022041218018403951              CAVS 0.5 O               CCN000001500000001500FN00000000020220401000001500NNE   20220304161644W93 1W    00000150000000677000000000032W93   HKYHK   000000000000ZM523059
BI00B32W9    4500190127     2022041218018403941              CAVS 0.5 GY              CCN000001500000001500FN00000000020220401000001500NNE   20220304161644W93 1W    00000150000000677000000000032W93   HKYHK   000000000000ZM523051
BI00B32W9    4500190127     2022041218018403930              CAVS 0.5 B               CCN000025500000025500FN00000000020220401000025500NNE   20220304161644W93 1W    00000150000000677000000000032W93   HKYHK   000000000000ZM523038
BI00B32W9    4500190127     2022041218018403964              CAVS 0.5 G/W             CCN000003000000003000FN00000000020220401000003000NNE   20220304161644W93 1W    00000150000000677000000000032W93   HKYHK   000000000000ZM523049
BI00B32W9    4500190127     2022041218018403907              CAVS 0.5 P/B             CCN000001500000001500FN00000000020220401000001500NNE   20220304161644W93 1W    00000150000000677000000000032W93   HKYHK   000000000000ZM523062
BI00B32W9    4500190127     2022041218018403960              CAVS 0.5 G               CCN000007500000007500FN00000000020220401000007500NNE   20220304161644W93 1W    00000150000000677000000000032W93   HKYHK   000000000000ZM523046
BI00B32W9    4500190127     2022041218018403953              CAVS 0.5 R/B             CCN000006000000006000FN00000000020220401000006000NNE   20220304161644W93 1W    00000150000000677000000000032W93   HKYHK   000000000000ZM523065
BI00B32W9    4500190127     2022041218018403956              CAVS 0.5 R/G             CCN000003000000003000FN00000000020220401000003000NNE   20220304161644W93 1W    00000150000000677000000000032W93   HKYHK   000000000000ZM523066
BI00B32W9    4500190127     2022041218018403959              CAVS 0.5 R/L             CCN000001500000001500FN00000000020220401000001500NNE   20220304161644W93 1W    00000150000000677000000000032W93   HKYHK   000000000000ZM523067
BI00B32W9    4500190127     2022041218018404170              CAVS 1.25 Y              CCN000001600000001600FN00000000020220401000001600NNE   20220304161644W93 1W    00000080000001378000000000032W93   HKYHK   000000000000ZM523111
BI00B32W9    4500190127     2022041218018404150              CAVS 1.25 R              CCN000003200000003200FN00000000020220401000003200NNE   20220304161644W93 1W    00000080000001378000000000032W93   HKYHK   000000000000ZM523106
BI00B32W9    4500190127     2022041218018404030              CAVS 0.85 B              CCN000006000000006000FN00000000020220401000006000NNE   20220304161644W93 1W    00000100000000965000000000032W93   HKYHK   000000000000ZM523082
BI00B32W9    4500190127     2022041218018403990              CAVS 0.5 L               CCN000007500000007500FN00000000020220401000007500NNE   20220304161644W93 1W    00000150000000677000000000032W93   HKYHK   000000000000ZM523052
BI00B32W9    4500190127     2022041218018404056              CAVS 0.85 R/G            CCN000001000000001000FN00000000020220401000001000NNE   20220304161644W93 1W    00000100000000965000000000032W93   HKYHK   000000000000ZM523097
BI00B32W9    4500190127     2022041218018403734              CAVS 0.3 B/W             CCN000002000000002000FN00000000020220401000002000NNE   20220304161644W93 1W    00000200000000471000000000032W93   HKYHK   000000000000ZM523031
BI00B32W9    4500190127     2022041218018403737              CAVS 0.3 B/Y             CCN000002000000002000FN00000000020220401000002000NNE   20220304161644W93 1W    00000200000000471000000000032W93   HKYHK   000000000000ZM523032
BI00B32W9    4500190127     2022041218018403767              CAVS 0.3 G/Y             CCN000002000000002000FN00000000020220401000002000NNE   20220304161644W93 1W    00000200000000471000000000032W93   HKYHK   000000000000ZM523033
BI00B32W9    4500190127     2022041218018403761              CAVS 0.3 LG              CCN000002000000002000FN00000000020220401000002000NNE   20220304161644W93 1W    00000200000000471000000000032W93   HKYHK   000000000000ZM523034
BI00B32W9    4500190127     2022041218018403753              CAVS 0.3 R/B             CCN000002000000002000FN00000000020220401000002000NNE   20220304161644W93 1W    00000200000000471000000000032W93   HKYHK   000000000000ZM523035
BI00B32W9    4500190127     2022041218018403935              CAVS 0.5 B/R             CCN000001500000001500FN00000000020220401000001500NNE   20220304161644W93 1W    00000150000000677000000000032W93   HKYHK   000000000000ZM523040
BI00B32W9    4500190127     2022041218018403983              CAVS 0.5 BR/B            CCN000001500000001500FN00000000020220401000001500NNE   20220304161644W93 1W    00000150000000677000000000032W93   HKYHK   000000000000ZM523042
BI00B32W9    4500190127     2022041218018403984              CAVS 0.5 BR/W            CCN000004500000004500FN00000000020220401000004500NNE   20220304161644W93 1W    00000150000000677000000000032W93   HKYHK   000000000000ZM523045
BI00B32W9    4500190127     2022041218018403963              CAVS 0.5 G/B             CCN000001500000001500FN00000000020220401000001500NNE   20220304161644W93 1W    00000150000000677000000000032W93   HKYHK   000000000000ZM523047
BI00B32W9    4500190127     2022041218018403967              CAVS 0.5 G/Y             CCN000001500000001500FN00000000020220401000001500NNE   20220304161644W93 1W    00000150000000677000000000032W93   HKYHK   000000000000ZM523050
BI00B32W9    4500190127     2022041218018403993              CAVS 0.5 L/B             CCN000003000000003000FN00000000020220401000003000NNE   20220304161644W93 1W    00000150000000677000000000032W93   HKYHK   000000000000ZM523053
BI00B32W9    4500190127     2022041218018403917              CAVS 0.5 LG/B            CCN000001500000001500FN00000000020220401000001500NNE   20220304161644W93 1W    00000150000000677000000000032W93   HKYHK   000000000000ZM523057
BI00B32W9    4500190127     2022041218018403909              CAVS 0.5 LG/R            CCN000001500000001500FN00000000020220401000001500NNE   20220304161644W93 1W    00000150000000677000000000032W93   HKYHK   000000000000ZM523058
BI00B32W9    4500190127     2022041218018403977              CAVS 0.5 O/L             CCN000001500000001500FN00000000020220401000001500NNE   20220304161644W93 1W    00000150000000677000000000032W93   HKYHK   000000000000ZM523060
BI00B32W9    4500190127     2022041218018403954              CAVS 0.5 R/W             CCN000004500000004500FN00000000020220401000004500NNE   20220304161644W93 1W    00000150000000677000000000032W93   HKYHK   000000000000ZM523068
BI00B32W9    4500190127     2022041218018403957              CAVS 0.5 R/Y             CCN000004500000004500FN00000000020220401000004500NNE   20220304161644W93 1W    00000150000000677000000000032W93   HKYHK   000000000000ZM523069
BI00B32W9    4500190127     2022041218018403992              CAVS 0.5 V               CCN000004500000004500FN00000000020220401000004500NNE   20220304161644W93 1W    00000150000000677000000000032W93   HKYHK   000000000000ZM523071
BI00B32W9    4500190127     2022041218018403946              CAVS 0.5 W/G             CCN000001500000001500FN00000000020220401000001500NNE   20220304161644W93 1W    00000150000000677000000000032W93   HKYHK   000000000000ZM523075
BI00B32W9    4500190127     2022041218018403945              CAVS 0.5 W/R             CCN000001500000001500FN00000000020220401000001500NNE   20220304161644W93 1W    00000150000000677000000000032W93   HKYHK   000000000000ZM523076
BI00B32W9    4500190127     2022041218018403970              CAVS 0.5 Y               CCN000009000000009000FN00000000020220401000009000NNE   20220304161644W93 1W    00000150000000677000000000032W93   HKYHK   000000000000ZM523077
BI00B32W9    4500190127     2022041218018403973              CAVS 0.5 Y/B             CCN000001500000001500FN00000000020220401000001500NNE   20220304161644W93 1W    00000150000000677000000000032W93   HKYHK   000000000000ZM523078
BI00B32W9    4500190127     2022041218018404050              CAVS 0.85 R              CCN000001000000001000FN00000000020220401000001000NNE   20220304161644W93 1W    00000100000000965000000000032W93   HKYHK   000000000000ZM523095
BI00B32W9    4500190127     2022041218018404040              CAVS 0.85 W              CCN000001000000001000FN00000000020220401000001000NNE   20220304161644W93 1W    00000100000000965000000000032W93   HKYHK   000000000000ZM523100
BI00B32W9    4500190127     2022041218018404130              CAVS 1.25 B              CCN000005600000005600FN00000000020220401000005600NNE   20220304161644W93 1W    00000080000001378000000000032W93   HKYHK   000000000000ZM523103
BI00B32W9    4500190127     2022041218018404145              CAVS 1.25 W/R            CCN000000800000000800FN00000000020220401000000800NNE   20220304161644W93 1W    00000080000001378000000000032W93   HKYHK   000000000000ZM523110
BI00B32W9    4500190127     20220412180184039G6              CAVS 0.5 P/L             CCN000001500000001500FN00000000020220401000001500NNE   20220304161644W93 1W    00000150000000677000000000032W93   HKYHK   000000000000ZM523064
BI00B32W9    4500190127     2022041218018403975              CAVS 0.5 Y/R             CCN000001500000001500FN00000000020220401000001500NNE   20220304161644W93 1W    00000150000000677000000000032W93   HKYHK   000000000000ZM523080
BI00B32W9    4500190127     2022041218018403754              CAVS 0.3 R/W             CCN000002000000002000FN00000000020220401000002000NNE   20220304161644W93 1W    00000200000000471000000000032W93   HKYHK   000000000000ZM523036
BI00B32W9    4500190127     2022041218018404070              CAVS 0.85 Y              CCN000001000000001000FN00000000020220401000001000NNE   20220304161644W93 1W    00000100000000965000000000032W93   HKYHK   000000000000ZM523101
BI00B32W9    4500190127     2022041218018403903              CAVS 0.5 B/O             CCN000001500000001500FN00000000020220401000001500NNE   20220304161644W93 1W    00000150000000677000000000032W93   HKYHK   000000000000ZM523039
BI00B32W9    4500190127     2022041218018404080              CAVS 0.85 BR             CCN000001000000001000FN00000000020220401000001000NNE   20220304161644W93 1W    00000100000000965000000000032W93   HKYHK   000000000000ZM523085
BI00B32W9    4500190127     2022041218018404154              CAVS 1.25 R/W            CCN000000800000000800FN00000000020220401000000800NNE   20220304161644W93 1W    00000080000001378000000000032W93   HKYHK   000000000000ZM523107
BI00B32W9    4500190127     2022041218018404075              CAVS 0.85 Y/R            CCN000001000000001000FN00000000020220401000001000NNE   20220304161644W93 1W    00000100000000965000000000032W93   HKYHK   000000000000ZM523102
BI00B32W9    4500190127     2022041218018404157              CAVS 1.25 R/Y            CCN000000800000000800FN00000000020220401000000800NNE   20220304161644W93 1W    00000080000001378000000000032W93   HKYHK   000000000000ZM523108
BI00B32W9    4500190127     2022041218018404192              CAVS 1.25 V              CCN000000800000000800FN00000000020220401000000800NNE   20220304161644W93 1W    00000080000001378000000000032W93   HKYHK   000000000000ZM523109
BI00B32W9    4500190127     2022041218018404090              CAVS 0.85 L              CCN000001000000001000FN00000000020220401000001000NNE   20220304161644W93 1W    00000100000000965000000000032W93   HKYHK   000000000000ZM523090
BI00B32W9    4500190127     2022041218018404053              CAVS 0.85 R/B            CCN000001000000001000FN00000000020220401000001000NNE   20220304161644W93 1W    00000100000000965000000000032W93   HKYHK   000000000000ZM523096
BI00B32W9    4500190127     2022041218018403979              CAVS 0.5 Y/L             CCN000001500000001500FN00000000020220401000001500NNE   20220304161644W93 1W    00000150000000677000000000032W93   HKYHK   000000000000ZM523079
BI00B32W9    4500190127     2022041218018404060              CAVS 0.85 G              CCN000001000000001000FN00000000020220401000001000NNE   20220304161644W93 1W    00000100000000965000000000032W93   HKYHK   000000000000ZM523086
BI00B32W9    4500190127     2022041218018404054              CAVS 0.85 R/W            CCN000001000000001000FN00000000020220401000001000NNE   20220304161644W93 1W    00000100000000965000000000032W93   HKYHK   000000000000ZM523099
BI00B32W9    4500190127     2022041218018404035              CAVS 0.85 B/R            CCN000001000000001000FN00000000020220401000001000NNE   20220304161644W93 1W    00000100000000965000000000032W93   HKYHK   000000000000ZM523083
BI00B32W9    4500190127     2022041218018404034              CAVS 0.85 B/W            CCN000001000000001000FN00000000020220401000001000NNE   20220304161644W93 1W    00000100000000965000000000032W93   HKYHK   000000000000ZM523084
BI00B32W9    4500190127     2022041218018404065              CAVS 0.85 G/R            CCN000002000000002000FN00000000020220401000002000NNE   20220304161644W93 1W    00000100000000965000000000032W93   HKYHK   000000000000ZM523088
BI00B32W9    4500190127     2022041218018404017              CAVS 0.85 LG/B           CCN000002000000002000FN00000000020220401000002000NNE   20220304161644W93 1W    00000100000000965000000000032W93   HKYHK   000000000000ZM523091
BI00B32W9    4500190127     2022041218018404059              CAVS 0.85 R/L            CCN000002000000002000FN00000000020220401000002000NNE   20220304161644W93 1W    00000100000000965000000000032W93   HKYHK   000000000000ZM523098
BI00B32W9    4500190127     2022041218018404041              CAVS 0.85 GY             CCN000001000000001000FN00000000020220401000001000NNE   20220304161644W93 1W    00000100000000965000000000032W93   HKYHK   000000000000ZM523089
BI00B32W9    4500190127     2022041218018404151              CAVS 1.25 O              CCN000000800000000800FN00000000020220401000000800NNE   20220304161644W93 1W    00000080000001378000000000032W93   HKYHK   000000000000ZM523105
BI00B32W9    4500190127     2022041218018404051              CAVS 0.85 O              CCN000001000000001000FN00000000020220401000001000NNE   20220304161644W93 1W    00000100000000965000000000032W93   HKYHK   000000000000ZM523092
BI00B32W9    4500190127     2022041218018403791              CAVS 0.3 SB              CCN000002000000002000FN00000000020220401000002000NNE   20220304161644W93 1W    00000200000000471000000000032W93   HKYHK   000000000000ZM523037
BI00B32W9    4500190127     20220412180184039G1              CAVS 0.5 Y/V             CCN000001500000001500FN00000000020220401000001500NNE   20220304161644W93 1W    00000150000000677000000000032W93   HKYHK   000000000000ZM523081
BI00B32W9    4500190127     2022041218018404063              CAVS 0.85 G/B            CCN000001000000001000FN00000000020220401000001000NNE   20220304161644W93 1W    00000100000000965000000000032W93   HKYHK   000000000000ZM523087
BI00B32W9    4500190127     20220412180184040G6              CAVS 0.85 P/L            CCN000002000000002000FN00000000020220401000002000NNE   20220304161644W93 1W    00000100000000965000000000032W93   HKYHK   000000000000ZM523094
BI00B32W9    4500190127     2022041218018403986              CAVS 0.5 BR/G            CCN000001500000001500FN00000000020220401000001500NNE   20220304161644W93 1W    00000150000000677000000000032W93   HKYHK   000000000000ZM523043
BI00B32W9    4500190138     2022041918000004543              AV 8 W/B                 CCN000000100000000100FN00000000020220401000000100NNE   20220304161645W93 1W    00000010000010466200000000032W93   HKYHK   000000000000ZC124008
BI00B32W9    4500190138     2022041918000004545              AV 8 W/R                 CCN000000100000000100FN00000000020220401000000100NNE   20220304161645W93 1W    00000010000010466200000000032W93   HKYHK   000000000000ZC124009
BI00B32W9    4500190138     20220419180D0204130              AVSSH 1.25F B            CCN000000800000000800FN00000000020220401000000800NNE   20220304161645W93 1W    00000080000001458000000000032W93   HKYHK   000000000000ZC124006
BI00B32W9    4500190138     2022041918018403779              CAVS 0.3 Y/L             CCN000004000000004000FN00000000020220401000004000NNE   20220304161645W93 1W    00000200000000471000000000032W93   HKYHK   000000000000ZC124053
BI00B32W9    4500190138     20220419180184037G9              CAVS 0.3 V/G             CCN000004000000004000FN00000000020220401000004000NNE   20220304161645W93 1W    00000200000000471000000000032W93   HKYHK   000000000000ZC124051
BI00B32W9    4500190138     2022041918018403989              CAVS 0.5 BR/L            CCN000001500000001500FN00000000020220401000001500NNE   20220304161645W93 1W    00000150000000677000000000032W93   HKYHK   000000000000ZC124060
BI00B32W9    4500190138     20220419180184039E7              CAVS 0.5 R/GY            CCN000003000000003000FN00000000020220401000003000NNE   20220304161645W93 1W    00000150000000677000000000032W93   HKYHK   000000000000ZC124082
BI00B32W9    4500190138     2022041918018404018              CAVS 0.85 G/O            CCN000001000000001000FN00000000020220401000001000NNE   20220304161645W93 1W    00000100000000965000000000032W93   HKYHK   000000000000ZC124107
BI00B32W9    4500190138     20220419180184040H2              CAVS 0.85 P/G            CCN000001000000001000FN00000000020220401000001000NNE   20220304161645W93 1W    00000100000000965000000000032W93   HKYHK   000000000000ZC124116
BI00B32W9    4500190138     2022041918018404117              CAVS 1.25 LG/B           CCN000000800000000800FN00000000020220401000000800NNE   20220304161645W93 1W    00000080000001378000000000032W93   HKYHK   000000000000ZC124137
BI00B32W9    4500190138     2022041918018404129              CAVS 1.25 LG/W           CCN000001600000001600FN00000000020220401000001600NNE   20220304161645W93 1W    00000080000001378000000000032W93   HKYHK   000000000000ZC124138
BI00B32W9    4500190138     20220419180184041G1              CAVS 1.25 Y/V            CCN000000800000000800FN00000000020220401000000800NNE   20220304161645W93 1W    00000080000001378000000000032W93   HKYHK   000000000000ZC124147
BI00B32W9    4500190138     2022041918009604470              AVS 5 Y                  CCN000000400000000400FN00000000020220401000000400NNE   20220304161645W93 1W    00000020000005981000000000032W93   HKYHK   000000000000ZC124041
BI00B32W9    4500190138     2022041918000004540              AV 8 W                   CCN000000100000000100FN00000000020220401000000100NNE   20220304161645W93 1W    00000010000010466200000000032W93   HKYHK   000000000000ZC124007
BI00B32W9    4500190138     2022041918009604234              AVS 2 B/W                CCN000000500000000500FN00000000020220401000000500NNE   20220304161645W93 1W    00000050000002456500000000032W93   HKYHK   000000000000ZC124020
BI00B32W9    4500190138     2022041918009604330              AVS 3 B                  CCN000002400000002400FN00000000020220401000002400NNE   20220304161645W93 1W    00000040000003831600000000032W93   HKYHK   000000000000ZC124022
BI00B32W9    4500190138     2022041918009604350              AVS 3 R                  CCN000001200000001200FN00000000020220401000001200NNE   20220304161645W93 1W    00000040000003831600000000032W93   HKYHK   000000000000ZC124027
BI00B32W9    4500190138     2022041918009604440              AVS 5 W                  CCN000000200000000200FN00000000020220401000000200NNE   20220304161645W93 1W    00000020000005981000000000032W93   HKYHK   000000000000ZC124040
BI00B32W9    4500190138     2022041918009604059              AVS 0.85 R/L             CCN000001000000001000FN00000000020220401000001000NNE   20220304161645W93 1W    00000100000001167700000000032W93   HKYHK   000000000000ZC124018
BI00B32W9    4500190138     2022041918009604357              AVS 3 R/Y                CCN000000400000000400FN00000000020220401000000400NNE   20220304161645W93 1W    00000040000003831600000000032W93   HKYHK   000000000000ZC124030
BI00B32W9    4500190138     2022041918009604430              AVS 5 B                  CCN000001200000001200FN00000000020220401000001200NNE   20220304161645W93 1W    00000020000005981000000000032W93   HKYHK   000000000000ZC124035
BI00B32W9    4500190138     2022041918009604450              AVS 5 R                  CCN000001600000001600FN00000000020220401000001600NNE   20220304161645W93 1W    00000020000005981000000000032W93   HKYHK   000000000000ZC124036
BI00B32W9    4500190138     2022041918009604457              AVS 5 R/Y                CCN000000400000000400FN00000000020220401000000400NNE   20220304161645W93 1W    00000020000005981000000000032W93   HKYHK   000000000000ZC124039
BI00B32W9    4500190138     2022041918009604250              AVS 2 R                  CCN000000500000000500FN00000000020220401000000500NNE   20220304161645W93 1W    00000050000002456500000000032W93   HKYHK   000000000000ZC124021
BI00B32W9    4500190138     2022041918009604340              AVS 3 W                  CCN000000400000000400FN00000000020220401000000400NNE   20220304161645W93 1W    00000040000003831600000000032W93   HKYHK   000000000000ZC124031
BI00B32W9    4500190138     2022041918009604345              AVS 3 W/R                CCN000001200000001200FN00000000020220401000001200NNE   20220304161645W93 1W    00000040000003831600000000032W93   HKYHK   000000000000ZC124032
BI00B32W9    4500190138     2022041918009604354              AVS 3 R/W                CCN000001200000001200FN00000000020220401000001200NNE   20220304161645W93 1W    00000040000003831600000000032W93   HKYHK   000000000000ZC124029
BI00B32W9    4500190138     2022041918009604335              AVS 3 B/R                CCN000000400000000400FN00000000020220401000000400NNE   20220304161645W93 1W    00000040000003831600000000032W93   HKYHK   000000000000ZC124023
BI00B32W9    4500190138     2022041918009604079              AVS 0.85 Y/L             CCN000001000000001000FN00000000020220401000001000NNE   20220304161645W93 1W    00000100000001167700000000032W93   HKYHK   000000000000ZC124019
BI00B32W9    4500190138     2022041918009604334              AVS 3 B/W                CCN000001200000001200FN00000000020220401000001200NNE   20220304161645W93 1W    00000040000003831600000000032W93   HKYHK   000000000000ZC124024
BI00B32W9    4500190138     20220419180184039H2              CAVS 0.5 P/G             CCN000001500000001500FN00000000020220401000001500NNE   20220304161645W93 1W    00000150000000677000000000032W93   HKYHK   000000000000ZC124079
BI00B32W9    4500190138     20220419180184039F7              CAVS 0.5 V/Y             CCN000001500000001500FN00000000020220401000001500NNE   20220304161645W93 1W    00000150000000677000000000032W93   HKYHK   000000000000ZC124089
BI00B32W9    4500190138     2022041918009604393              AVS 3 L/B                CCN000000400000000400FN00000000020220401000000400NNE   20220304161645W93 1W    00000040000003831600000000032W93   HKYHK   000000000000ZC124025
BI00B32W9    4500190138     2022041918009604397              AVS 3 L/Y                CCN000000400000000400FN00000000020220401000000400NNE   20220304161645W93 1W    00000040000003831600000000032W93   HKYHK   000000000000ZC124026
BI00B32W9    4500190138     2022041918009604359              AVS 3 R/L                CCN000000400000000400FN00000000020220401000000400NNE   20220304161645W93 1W    00000040000003831600000000032W93   HKYHK   000000000000ZC124028
BI00B32W9    4500190138     2022041918009604373              AVS 3 Y/B                CCN000000400000000400FN00000000020220401000000400NNE   20220304161645W93 1W    00000040000003831600000000032W93   HKYHK   000000000000ZC124033
BI00B32W9    4500190138     2022041918009604375              AVS 3 Y/R                CCN000000800000000800FN00000000020220401000000800NNE   20220304161645W93 1W    00000040000003831600000000032W93   HKYHK   000000000000ZC124034
BI00B32W9    4500190138     2022041918009604453              AVS 5 R/B                CCN000000200000000200FN00000000020220401000000200NNE   20220304161645W93 1W    00000020000005981000000000032W93   HKYHK   000000000000ZC124037
BI00B32W9    4500190138     2022041918009604454              AVS 5 R/W                CCN000000400000000400FN00000000020220401000000400NNE   20220304161645W93 1W    00000020000005981000000000032W93   HKYHK   000000000000ZC124038
BI00B32W9    4500190138     2022041918007703994              AVSS 0.5F L/W            CCN000001500000001500FN00000000020220401000001500NNE   20220304161645W93 1W    00000150000000674000000000032W93   HKYHK   000000000000ZC124010
BI00B32W9    4500190138     2022041918007704230              AVSS 2F B                CCN000003500000003500FN00000000020220401000003500NNE   20220304161645W93 1W    00000050000002126400000000032W93   HKYHK   000000000000ZC124013
BI00B32W9    4500190138     2022041918007704254              AVSS 2F R/W              CCN000001000000001000FN00000000020220401000001000NNE   20220304161645W93 1W    00000050000002126400000000032W93   HKYHK   000000000000ZC124017
BI00B32W9    4500190138     2022041918007704130              AVSS 1.25F B             CCN000000800000000800FN00000000020220401000000800NNE   20220304161645W93 1W    00000080000001389000000000032W93   HKYHK   000000000000ZC124011
BI00B32W9    4500190138     2022041918007704260              AVSS 2F G                CCN000000500000000500FN00000000020220401000000500NNE   20220304161645W93 1W    00000050000002126400000000032W93   HKYHK   000000000000ZC124014
BI00B32W9    4500190138     2022041918007704259              AVSS 2F R/L              CCN000001000000001000FN00000000020220401000001000NNE   20220304161645W93 1W    00000050000002126400000000032W93   HKYHK   000000000000ZC124016
BI00B32W9    4500190138     2022041918007704170              AVSS 1.25F Y             CCN000000800000000800FN00000000020220401000000800NNE   20220304161645W93 1W    00000080000001389000000000032W93   HKYHK   000000000000ZC124012
BI00B32W9    4500190138     2022041918007704251              AVSS 2F O                CCN000000500000000500FN00000000020220401000000500NNE   20220304161645W93 1W    00000050000002126400000000032W93   HKYHK   000000000000ZC124015
BI00B32W9    4500190138     20220419180D0203930              AVSSH 0.5F B             CCN000001500000001500FN00000000020220401000001500NNE   20220304161645W93 1W    00000150000000689000000000032W93   HKYHK   000000000000ZC124001
BI00B32W9    4500190138     20220419180D0203940              AVSSH 0.5F W             CCN000001500000001500FN00000000020220401000001500NNE   20220304161645W93 1W    00000150000000689000000000032W93   HKYHK   000000000000ZC124005
BI00B32W9    4500190138     20220419180D0203960              AVSSH 0.5F G             CCN000001500000001500FN00000000020220401000001500NNE   20220304161645W93 1W    00000150000000689000000000032W93   HKYHK   000000000000ZC124002
BI00B32W9    4500190138     20220419180D0203950              AVSSH 0.5F R             CCN000001500000001500FN00000000020220401000001500NNE   20220304161645W93 1W    00000150000000689000000000032W93   HKYHK   000000000000ZC124004
BI00B32W9    4500190138     20220419180D0203990              AVSSH 0.5F L             CCN000001500000001500FN00000000020220401000001500NNE   20220304161645W93 1W    00000150000000689000000000032W93   HKYHK   000000000000ZC124003
BI00B32W9    4500190138     2022041918018403943              CAVS 0.5 W/B             CCN000003000000003000FN00000000020220401000003000NNE   20220304161645W93 1W    00000150000000677000000000032W93   HKYHK   000000000000ZC124091
BI00B32W9    4500190138     2022041918018403980              CAVS 0.5 BR              CCN000007500000007500FN00000000020220401000007500NNE   20220304161645W93 1W    00000150000000677000000000032W93   HKYHK   000000000000ZC124058
BI00B32W9    4500190138     2022041918018403995              CAVS 0.5 L/R             CCN000001500000001500FN00000000020220401000001500NNE   20220304161645W93 1W    00000150000000677000000000032W93   HKYHK   000000000000ZC124072
BI00B32W9    4500190138     2022041918018403940              CAVS 0.5 W               CCN000004500000004500FN00000000020220401000004500NNE   20220304161645W93 1W    00000150000000677000000000032W93   HKYHK   000000000000ZC124090
BI00B32W9    4500190138     2022041918018403910              CAVS 0.5 GY/R            CCN000001500000001500FN00000000020220401000001500NNE   20220304161645W93 1W    00000150000000677000000000032W93   HKYHK   000000000000ZC124068
BI00B32W9    4500190138     2022041918018403952              CAVS 0.5 P               CCN000003000000003000FN00000000020220401000003000NNE   20220304161645W93 1W    00000150000000677000000000032W93   HKYHK   000000000000ZC124077
BI00B32W9    4500190138     2022041918018403937              CAVS 0.5 B/Y             CCN000003000000003000FN00000000020220401000003000NNE   20220304161645W93 1W    00000150000000677000000000032W93   HKYHK   000000000000ZC124057
BI00B32W9    4500190138     2022041918018403961              CAVS 0.5 LG              CCN000001500000001500FN00000000020220401000001500NNE   20220304161645W93 1W    00000150000000677000000000032W93   HKYHK   000000000000ZC124074
BI00B32W9    4500190138     2022041918018403991              CAVS 0.5 SB              CCN000003000000003000FN00000000020220401000003000NNE   20220304161645W93 1W    00000150000000677000000000032W93   HKYHK   000000000000ZC124086
BI00B32W9    4500190138     2022041918018403951              CAVS 0.5 O               CCN000003000000003000FN00000000020220401000003000NNE   20220304161645W93 1W    00000150000000677000000000032W93   HKYHK   000000000000ZC124075
BI00B32W9    4500190138     2022041918018403941              CAVS 0.5 GY              CCN000001500000001500FN00000000020220401000001500NNE   20220304161645W93 1W    00000150000000677000000000032W93   HKYHK   000000000000ZC124067
BI00B32W9    4500190138     2022041918018403930              CAVS 0.5 B               CCN000025500000025500FN00000000020220401000025500NNE   20220304161645W93 1W    00000150000000677000000000032W93   HKYHK   000000000000ZC124054
BI00B32W9    4500190138     2022041918018403964              CAVS 0.5 G/W             CCN000003000000003000FN00000000020220401000003000NNE   20220304161645W93 1W    00000150000000677000000000032W93   HKYHK   000000000000ZC124065
BI00B32W9    4500190138     2022041918018403997              CAVS 0.5 L/Y             CCN000001500000001500FN00000000020220401000001500NNE   20220304161645W93 1W    00000150000000677000000000032W93   HKYHK   000000000000ZC124073
BI00B32W9    4500190138     2022041918018403907              CAVS 0.5 P/B             CCN000001500000001500FN00000000020220401000001500NNE   20220304161645W93 1W    00000150000000677000000000032W93   HKYHK   000000000000ZC124078
BI00B32W9    4500190138     2022041918018403960              CAVS 0.5 G               CCN000007500000007500FN00000000020220401000007500NNE   20220304161645W93 1W    00000150000000677000000000032W93   HKYHK   000000000000ZC124062
BI00B32W9    4500190138     2022041918018403953              CAVS 0.5 R/B             CCN000006000000006000FN00000000020220401000006000NNE   20220304161645W93 1W    00000150000000677000000000032W93   HKYHK   000000000000ZC124080
BI00B32W9    4500190138     2022041918018403956              CAVS 0.5 R/G             CCN000007500000007500FN00000000020220401000007500NNE   20220304161645W93 1W    00000150000000677000000000032W93   HKYHK   000000000000ZC124081
BI00B32W9    4500190138     2022041918018403959              CAVS 0.5 R/L             CCN000004500000004500FN00000000020220401000004500NNE   20220304161645W93 1W    00000150000000677000000000032W93   HKYHK   000000000000ZC124083
BI00B32W9    4500190138     2022041918018404170              CAVS 1.25 Y              CCN000001600000001600FN00000000020220401000001600NNE   20220304161645W93 1W    00000080000001378000000000032W93   HKYHK   000000000000ZC124146
BI00B32W9    4500190138     2022041918018404150              CAVS 1.25 R              CCN000002400000002400FN00000000020220401000002400NNE   20220304161645W93 1W    00000080000001378000000000032W93   HKYHK   000000000000ZC124140
BI00B32W9    4500190138     2022041918018404030              CAVS 0.85 B              CCN000009000000009000FN00000000020220401000009000NNE   20220304161645W93 1W    00000100000000965000000000032W93   HKYHK   000000000000ZC124099
BI00B32W9    4500190138     2022041918018404180              CAVS 1.25 BR             CCN000000800000000800FN00000000020220401000000800NNE   20220304161645W93 1W    00000080000001378000000000032W93   HKYHK   000000000000ZC124130
BI00B32W9    4500190138     2022041918018404140              CAVS 1.25 W              CCN000000800000000800FN00000000020220401000000800NNE   20220304161645W93 1W    00000080000001378000000000032W93   HKYHK   000000000000ZC124145
BI00B32W9    4500190138     2022041918018404195              CAVS 1.25 L/R            CCN000000800000000800FN00000000020220401000000800NNE   20220304161645W93 1W    00000080000001378000000000032W93   HKYHK   000000000000ZC124135
BI00B32W9    4500190138     2022041918018403990              CAVS 0.5 L               CCN000007500000007500FN00000000020220401000007500NNE   20220304161645W93 1W    00000150000000677000000000032W93   HKYHK   000000000000ZC124069
BI00B32W9    4500190138     2022041918018403734              CAVS 0.3 B/W             CCN000002000000002000FN00000000020220401000002000NNE   20220304161645W93 1W    00000200000000471000000000032W93   HKYHK   000000000000ZC124042
BI00B32W9    4500190138     2022041918018403764              CAVS 0.3 G/W             CCN000002000000002000FN00000000020220401000002000NNE   20220304161645W93 1W    00000200000000471000000000032W93   HKYHK   000000000000ZC124043
BI00B32W9    4500190138     2022041918018403767              CAVS 0.3 G/Y             CCN000002000000002000FN00000000020220401000002000NNE   20220304161645W93 1W    00000200000000471000000000032W93   HKYHK   000000000000ZC124044
BI00B32W9    4500190138     2022041918018403761              CAVS 0.3 LG              CCN000002000000002000FN00000000020220401000002000NNE   20220304161645W93 1W    00000200000000471000000000032W93   HKYHK   000000000000ZC124046
BI00B32W9    4500190138     2022041918018403753              CAVS 0.3 R/B             CCN000004000000004000FN00000000020220401000004000NNE   20220304161645W93 1W    00000200000000471000000000032W93   HKYHK   000000000000ZC124048
BI00B32W9    4500190138     2022041918018403749              CAVS 0.3 W/L             CCN000002000000002000FN00000000020220401000002000NNE   20220304161645W93 1W    00000200000000471000000000032W93   HKYHK   000000000000ZC124052
BI00B32W9    4500190138     2022041918018403939              CAVS 0.5 B/L             CCN000001500000001500FN00000000020220401000001500NNE   20220304161645W93 1W    00000150000000677000000000032W93   HKYHK   000000000000ZC124055
BI00B32W9    4500190138     2022041918018403935              CAVS 0.5 B/R             CCN000001500000001500FN00000000020220401000001500NNE   20220304161645W93 1W    00000150000000677000000000032W93   HKYHK   000000000000ZC124056
BI00B32W9    4500190138     2022041918018403983              CAVS 0.5 BR/B            CCN000001500000001500FN00000000020220401000001500NNE   20220304161645W93 1W    00000150000000677000000000032W93   HKYHK   000000000000ZC124059
BI00B32W9    4500190138     2022041918018403984              CAVS 0.5 BR/W            CCN000004500000004500FN00000000020220401000004500NNE   20220304161645W93 1W    00000150000000677000000000032W93   HKYHK   000000000000ZC124061
BI00B32W9    4500190138     2022041918018403963              CAVS 0.5 G/B             CCN000001500000001500FN00000000020220401000001500NNE   20220304161645W93 1W    00000150000000677000000000032W93   HKYHK   000000000000ZC124063
BI00B32W9    4500190138     2022041918018403965              CAVS 0.5 G/R             CCN000001500000001500FN00000000020220401000001500NNE   20220304161645W93 1W    00000150000000677000000000032W93   HKYHK   000000000000ZC124064
BI00B32W9    4500190138     2022041918018403967              CAVS 0.5 G/Y             CCN000001500000001500FN00000000020220401000001500NNE   20220304161645W93 1W    00000150000000677000000000032W93   HKYHK   000000000000ZC124066
BI00B32W9    4500190138     2022041918018403993              CAVS 0.5 L/B             CCN000001500000001500FN00000000020220401000001500NNE   20220304161645W93 1W    00000150000000677000000000032W93   HKYHK   000000000000ZC124070
BI00B32W9    4500190138     2022041918018403914              CAVS 0.5 L/O             CCN000001500000001500FN00000000020220401000001500NNE   20220304161645W93 1W    00000150000000677000000000032W93   HKYHK   000000000000ZC124071
BI00B32W9    4500190138     20220419180184039M3              CAVS 0.5 O/B             CCN000001500000001500FN00000000020220401000001500NNE   20220304161645W93 1W    00000150000000677000000000032W93   HKYHK   000000000000ZC124076
BI00B32W9    4500190138     2022041918018403954              CAVS 0.5 R/W             CCN000007500000007500FN00000000020220401000007500NNE   20220304161645W93 1W    00000150000000677000000000032W93   HKYHK   000000000000ZC124084
BI00B32W9    4500190138     2022041918018403957              CAVS 0.5 R/Y             CCN000004500000004500FN00000000020220401000004500NNE   20220304161645W93 1W    00000150000000677000000000032W93   HKYHK   000000000000ZC124085
BI00B32W9    4500190138     2022041918018403992              CAVS 0.5 V               CCN000004500000004500FN00000000020220401000004500NNE   20220304161645W93 1W    00000150000000677000000000032W93   HKYHK   000000000000ZC124087
BI00B32W9    4500190138     2022041918018403946              CAVS 0.5 W/G             CCN000003000000003000FN00000000020220401000003000NNE   20220304161645W93 1W    00000150000000677000000000032W93   HKYHK   000000000000ZC124092
BI00B32W9    4500190138     2022041918018403949              CAVS 0.5 W/L             CCN000001500000001500FN00000000020220401000001500NNE   20220304161645W93 1W    00000150000000677000000000032W93   HKYHK   000000000000ZC124093
BI00B32W9    4500190138     2022041918018403945              CAVS 0.5 W/R             CCN000001500000001500FN00000000020220401000001500NNE   20220304161645W93 1W    00000150000000677000000000032W93   HKYHK   000000000000ZC124094
BI00B32W9    4500190138     2022041918018403970              CAVS 0.5 Y               CCN000007500000007500FN00000000020220401000007500NNE   20220304161645W93 1W    00000150000000677000000000032W93   HKYHK   000000000000ZC124095
BI00B32W9    4500190138     2022041918018403973              CAVS 0.5 Y/B             CCN000003000000003000FN00000000020220401000003000NNE   20220304161645W93 1W    00000150000000677000000000032W93   HKYHK   000000000000ZC124096
BI00B32W9    4500190138     2022041918018404050              CAVS 0.85 R              CCN000002000000002000FN00000000020220401000002000NNE   20220304161645W93 1W    00000100000000965000000000032W93   HKYHK   000000000000ZC124117
BI00B32W9    4500190138     2022041918018404057              CAVS 0.85 R/Y            CCN000001000000001000FN00000000020220401000001000NNE   20220304161645W93 1W    00000100000000965000000000032W93   HKYHK   000000000000ZC124121
BI00B32W9    4500190138     2022041918018404040              CAVS 0.85 W              CCN000001000000001000FN00000000020220401000001000NNE   20220304161645W93 1W    00000100000000965000000000032W93   HKYHK   000000000000ZC124123
BI00B32W9    4500190138     2022041918018404130              CAVS 1.25 B              CCN000006400000006400FN00000000020220401000006400NNE   20220304161645W93 1W    00000080000001378000000000032W93   HKYHK   000000000000ZC124128
BI00B32W9    4500190138     2022041918018404156              CAVS 1.25 R/G            CCN000001600000001600FN00000000020220401000001600NNE   20220304161645W93 1W    00000080000001378000000000032W93   HKYHK   000000000000ZC124141
BI00B32W9    4500190138     2022041918018403975              CAVS 0.5 Y/R             CCN000001500000001500FN00000000020220401000001500NNE   20220304161645W93 1W    00000150000000677000000000032W93   HKYHK   000000000000ZC124098
BI00B32W9    4500190138     2022041918018403754              CAVS 0.3 R/W             CCN000002000000002000FN00000000020220401000002000NNE   20220304161645W93 1W    00000200000000471000000000032W93   HKYHK   000000000000ZC124049
