BI00B1200    2399T52319     202204287289-0269                HOUSING SUB ASSEMBLY     CCN000024000000022400FN00000000020220501000022400NNMD0320220427141422    1N0N  0000016000000100210000123451200    YCYC    005500360039
BI00B1200    H722G50013     202207077289-9553-30             SEALED ASSY FEMALE       CCN000082320000082320FN00000000020220701000082320NNED0420220427123544    4N0N  0000029400000110900000152151200    YCYC    005500360039
BI00B1200    H722G50014     202207147289-9553-30             SEALED ASSY FEMALE       CCN000082320000082320FN00000000020220701000082320NNED0420220427123544    4N0N  0000029400000110900000152151200    YCYC    005500360039
BI00B1200    2399T52319     202205057289-0269                HOUSING SUB ASSEMBLY     CCN000001600000001600FN00000000020220501000001600NNMD0320220427141441    1N0N  0000016000000100210000123451200    YCYC    005500360039
BI00B1200    2399T52509     202206027116-4100-02             TERMINAL                 CCN000105000000105000FN00000000020220701000105000NNM   20220427152737    4P0P  0000150000000069600000099021200    YCYC    006400630015
BI00B1200    2399T52510     202206097116-4100-02             TERMINAL                 CCN000105000000105000FN00000000020220701000105000NNM   20220427152737    4P0P  0000150000000069600000099021200    YCYC    006400630015
BI00B1200    2399T52511     202206167116-4100-02             TERMINAL                 CCN000105000000105000FN00000000020220701000105000NNM   20220427152737    4P0P  0000150000000069600000099021200    YCYC    006400630015
BI00B1200    2399T52509     202206027116-4111-02             TERMINAL                 CCN000030000000030000FN00000000020220701000030000NNM   20220427152737    4P0P  0000075000000052950000081771200    YCYC    006400630015
BI00B1200    2399T52510     202206097116-4111-02             TERMINAL                 CCN000030000000030000FN00000000020220701000030000NNM   20220427152737    4P0P  0000075000000052950000081771200    YCYC    006400630015
BI00B1200    2399T52511     202206167116-4111-02             TERMINAL                 CCN000030000000030000FN00000000020220701000030000NNM   20220427152737    4P0P  0000075000000052950000081771200    YCYC    006400630015
BI00B1200    2399T52509     202206027116-4112-02             TERMINAL                 CCN000048000000048000FN00000000020220701000048000NNM   20220427152737    4P0P  0000060000000045000000073821200    YCYC    006400630015
BI00B1200    2399T52510     202206097116-4112-02             TERMINAL                 CCN000048000000048000FN00000000020220701000048000NNM   20220427152737    4P0P  0000060000000045000000073821200    YCYC    006400630015
BI00B1200    2399T52511     202206167116-4112-02             TERMINAL                 CCN000048000000048000FN00000000020220701000048000NNM   20220427152737    4P0P  0000060000000045000000073821200    YCYC    006400630015
BI00B1200    2399T52509     202206027137-3047-30             UNIT PACKING             CCN000003000000003000FN00000000020220701000003000NNM   20220427152737    1C0C  0000010000000017050000021891200    YCYC    002700430014
BI00B1200    2399T52510     202206097137-3047-30             UNIT PACKING             CCN000003000000003000FN00000000020220701000003000NNM   20220427152737    1C0C  0000010000000017050000021891200    YCYC    002700430014
BI00B1200    2399T52511     202206167137-3047-30             UNIT PACKING             CCN000003000000003000FN00000000020220701000003000NNM   20220427152737    1C0C  0000010000000017050000021891200    YCYC    002700430014
BI00B1200    2399T52509     202206027158-3022-80             RUBBER STOPPER           CCN000020000000020000FN00000000020220701000020000NNM   20220427152737    1C0C  0000050000000046750000052401200    YCYC    002700430014
BI00B1200    2399T52510     202206097158-3022-80             RUBBER STOPPER           CCN000020000000020000FN00000000020220701000020000NNM   20220427152737    1C0C  0000050000000046750000052401200    YCYC    002700430014
BI00B1200    2399T52511     202206167158-3022-80             RUBBER STOPPER           CCN000020000000020000FN00000000020220701000020000NNM   20220427152737    1C0C  0000050000000046750000052401200    YCYC    002700430014
BI00B1200    2399T52509     202206027172-5403-30             SEALED PACKING           CCN000004000000004000FN00000000020220701000004000NNM   20220427152737    1C0C  0000040000000065360000070171200    YCYC    004300270014
BI00B1200    2399T52509     202206027172-5540-80             SEALED WIRE SEAL         CCN000120000000120000FN00000000020220701000120000NNM   20220427152737    1C0C  0000200000000018600000023441200    YCYC    004300270014
BI00B1200    2399T52510     202206097172-5540-80             SEALED WIRE SEAL         CCN000100000000100000FN00000000020220701000100000NNM   20220427152737    1C0C  0000200000000018600000023441200    YCYC    004300270014
BI00B1200    2399T52511     202206167172-5540-80             SEALED WIRE SEAL         CCN000100000000100000FN00000000020220701000100000NNM   20220427152737    1C0C  0000200000000018600000023441200    YCYC    004300270014
BI00B1200    2399T52509     202206027173-3291-40             LIF LEVER                CCN000007200000007200FN00000000020220701000007200NNM   20220427152737    1F0F  0000024000000086780000106781200    YCYC    005500360039
BI00B1200    2399T52510     202206097173-3291-40             LIF LEVER                CCN000007200000007200FN00000000020220701000007200NNM   20220427152737    1F0F  0000024000000086780000106781200    YCYC    005500360039
BI00B1200    2399T52511     202206167173-3291-40             LIF LEVER                CCN000004800000004800FN00000000020220701000004800NNM   20220427152737    1F0F  0000024000000086780000106781200    YCYC    005500360039
BI00B1200    #2399T52509    202206027124-1026-30             PROTECTOR                CCN000006000000006000FN00000000020220701000006000NNM   20220427152735    2F0F  0000030000000082800000098601200    YCYC    005500360039
BI00B1200    #2399T52510    202206097124-1026-30             PROTECTOR                CCN000003000000003000FN00000000020220701000003000NNM   20220427152735    2F0F  0000030000000082800000098601200    YCYC    005500360039
BI00B1200    #2399T52511    202206167124-1026-30             PROTECTOR                CCN000003000000003000FN00000000020220701000003000NNM   20220427152735    2F0F  0000030000000082800000098601200    YCYC    005500360039
BI00B1200    #2399T52509    202206027154-5597-30             CASSETTE R/B             CCN000060000000060000FN00000000020220701000060000NNM   20220427152735    2F0F  0000008000000073600000095201200    YCYC    005500360039
BI00B1200    #2399T52510    202206097154-5597-30             CASSETTE R/B             CCN000060000000060000FN00000000020220701000060000NNM   20220427152735    2F0F  0000008000000073600000095201200    YCYC    005500360039
BI00B1200    #2399T52511    202206167154-5597-30             CASSETTE R/B             CCN000060000000060000FN00000000020220701000060000NNM   20220427152735    2F0F  0000008000000073600000095201200    YCYC    005500360039
BI00B1200    #2399T52509    202206027173-3225-10             LIF LEVER                CCN000004800000004800FN00000000020220701000004800NNM   20220427152735    2F0F  0000008000000059200000071201200    YCYC    005500360039
BI00B1200    #2399T52510    202206097173-3225-10             LIF LEVER                CCN000004000000004000FN00000000020220701000004000NNM   20220427152735    2F0F  0000008000000059200000071201200    YCYC    005500360039
BI00B1200    #2399T52511    202206167173-3225-10             LIF LEVER                CCN000004000000004000FN00000000020220701000004000NNM   20220427152735    2F0F  0000008000000059200000071201200    YCYC    005500360039
BI00B1200    #2399T52509    202206027174-1270-30             SEALED COVER             CCN000001600000001600FN00000000020220701000001600NNM   20220427152735    2F0F  0000008000000056070000067911200    YCYC    005500360039
BI00B1200    #2399T52510    202206097174-1270-30             SEALED COVER             CCN000001600000001600FN00000000020220701000001600NNM   20220427152735    2F0F  0000008000000056070000067911200    YCYC    005500360039
BI00B1200    #2399T52511    202206167174-1270-30             SEALED COVER             CCN000001600000001600FN00000000020220701000001600NNM   20220427152735    2F0F  0000008000000056070000067911200    YCYC    005500360039
BI00B1200    #2399T52509    202206027174-1271-30             SEALED COVER             CCN000001920000001920FN00000000020220701000001920NNM   20220427152735    2F0F  0000003200000038370000050211200    YCYC    005500360039
BI00B1200    #2399T52510    202206097174-1271-30             SEALED COVER             CCN000001920000001920FN00000000020220701000001920NNM   20220427152735    2F0F  0000003200000038370000050211200    YCYC    005500360039
BI00B1200    #2399T52511    202206167174-1271-30             SEALED COVER             CCN000001920000001920FN00000000020220701000001920NNM   20220427152735    2F0F  0000003200000038370000050211200    YCYC    005500360039
BI00B1200    2399T52512     202206237116-4100-02             TERMINAL                 CCN000105000000105000FN00000000020220701000105000NNM   20220427152828    4P0P  0000150000000069600000099021200    YCYC    006400630015
BI00B1200    2399T52513     202206307116-4100-02             TERMINAL                 CCN000090000000090000FN00000000020220701000090000NNM   20220427152828    4P0P  0000150000000069600000099021200    YCYC    006400630015
BI00B1200    2399T52512     202206237116-4111-02             TERMINAL                 CCN000030000000030000FN00000000020220701000030000NNM   20220427152828    4P0P  0000075000000052950000081771200    YCYC    006400630015
BI00B1200    2399T52513     202206307116-4111-02             TERMINAL                 CCN000022500000022500FN00000000020220701000022500NNM   20220427152828    4P0P  0000075000000052950000081771200    YCYC    006400630015
BI00B1200    2399T52512     202206237116-4112-02             TERMINAL                 CCN000048000000048000FN00000000020220701000048000NNM   20220427152828    4P0P  0000060000000045000000073821200    YCYC    006400630015
BI00B1200    2399T52513     202206307116-4112-02             TERMINAL                 CCN000048000000048000FN00000000020220701000048000NNM   20220427152828    4P0P  0000060000000045000000073821200    YCYC    006400630015
BI00B1200    2399T52512     202206237137-3047-30             UNIT PACKING             CCN000003000000003000FN00000000020220701000003000NNM   20220427152828    1C0C  0000010000000017050000021891200    YCYC    002700430014
BI00B1200    2399T52513     202206307137-3047-30             UNIT PACKING             CCN000002000000002000FN00000000020220701000002000NNM   20220427152828    1C0C  0000010000000017050000021891200    YCYC    002700430014
BI00B1200    2399T52512     202206237158-3022-80             RUBBER STOPPER           CCN000020000000020000FN00000000020220701000020000NNM   20220427152828    1C0C  0000050000000046750000052401200    YCYC    002700430014
BI00B1200    2399T52513     202206307158-3022-80             RUBBER STOPPER           CCN000020000000020000FN00000000020220701000020000NNM   20220427152828    1C0C  0000050000000046750000052401200    YCYC    002700430014
BI00B1200    2399T52512     202206237172-5540-80             SEALED WIRE SEAL         CCN000100000000100000FN00000000020220701000100000NNM   20220427152828    1C0C  0000200000000018600000023441200    YCYC    004300270014
BI00B1200    2399T52513     202206307172-5540-80             SEALED WIRE SEAL         CCN000100000000100000FN00000000020220701000100000NNM   20220427152828    1C0C  0000200000000018600000023441200    YCYC    004300270014
BI00B1200    2399T52512     202206237173-3291-40             LIF LEVER                CCN000004800000004800FN00000000020220701000004800NNM   20220427152828    1F0F  0000024000000086780000106781200    YCYC    005500360039
BI00B1200    2399T52513     202206307173-3291-40             LIF LEVER                CCN000004800000004800FN00000000020220701000004800NNM   20220427152828    1F0F  0000024000000086780000106781200    YCYC    005500360039
BI00B1200    #2399T52512    202206237124-1026-30             PROTECTOR                CCN000003000000003000FN00000000020220701000003000NNM   20220427152826    2F0F  0000030000000082800000098601200    YCYC    005500360039
BI00B1200    #2399T52513    202206307124-1026-30             PROTECTOR                CCN000003000000003000FN00000000020220701000003000NNM   20220427152826    2F0F  0000030000000082800000098601200    YCYC    005500360039
BI00B1200    #2399T52512    202206237154-5597-30             CASSETTE R/B             CCN000060000000060000FN00000000020220701000060000NNM   20220427152826    2F0F  0000008000000073600000095201200    YCYC    005500360039
BI00B1200    #2399T52513    202206307154-5597-30             CASSETTE R/B             CCN000060000000060000FN00000000020220701000060000NNM   20220427152826    2F0F  0000008000000073600000095201200    YCYC    005500360039
BI00B1200    #2399T52512    202206237173-3225-10             LIF LEVER                CCN000004000000004000FN00000000020220701000004000NNM   20220427152826    2F0F  0000008000000059200000071201200    YCYC    005500360039
BI00B1200    #2399T52513    202206307173-3225-10             LIF LEVER                CCN000004000000004000FN00000000020220701000004000NNM   20220427152826    2F0F  0000008000000059200000071201200    YCYC    005500360039
BI00B1200    #2399T52512    202206237174-1270-30             SEALED COVER             CCN000001600000001600FN00000000020220701000001600NNM   20220427152826    2F0F  0000008000000056070000067911200    YCYC    005500360039
BI00B1200    #2399T52513    202206307174-1270-30             SEALED COVER             CCN000001600000001600FN00000000020220701000001600NNM   20220427152826    2F0F  0000008000000056070000067911200    YCYC    005500360039
BI00B1200    #2399T52512    202206237174-1271-30             SEALED COVER             CCN000001600000001600FN00000000020220701000001600NNM   20220427152826    2F0F  0000003200000038370000050211200    YCYC    005500360039
BI00B1200    #2399T52513    202206307174-1271-30             SEALED COVER             CCN000001600000001600FN00000000020220701000001600NNM   20220427152826    2F0F  0000003200000038370000050211200    YCYC    005500360039
BI00B1200    2399T52514     202206027195-0546-02             TERMINAL ALUMINIUM       CCN000025500000025500FN00000000020220701000025500NNM   20220427152917    4P0P  0000255000000040920000074491200    YCYC    006400630015
BI00B1200    2399T52515     202206097195-0546-02             TERMINAL ALUMINIUM       CCN000025500000025500FN00000000020220701000025500NNM   20220427152917    4P0P  0000255000000040920000074491200    YCYC    006400630015
BI00B1200    2399T52516     202206167195-0546-02             TERMINAL ALUMINIUM       CCN000025500000025500FN00000000020220701000025500NNM   20220427152917    4P0P  0000255000000040920000074491200    YCYC    006400630015
BI00B1200    2399T52514     202206027195-0547-02             TERMINAL ALUMINIUM       CCN000025500000025500FN00000000020220701000025500NNM   20220427152917    4P0P  0000255000000041820000076021200    YCYC    006400630015
BI00B1200    2399T52515     202206097195-0547-02             TERMINAL ALUMINIUM       CCN000025500000025500FN00000000020220701000025500NNM   20220427152917    4P0P  0000255000000041820000076021200    YCYC    006400630015
BI00B1200    2399T52514     202206027195-0783-08             TERMINAL                 CCN000060000000060000FN00000000020220701000060000NNM   20220427152917    4P0P  0000300000000050700000080121200    YCYC    006400630015
BI00B1200    2399T52515     202206097195-0783-08             TERMINAL                 CCN000060000000060000FN00000000020220701000060000NNM   20220427152917    4P0P  0000300000000050700000080121200    YCYC    006400630015
BI00B1200    2399T52516     202206167195-0783-08             TERMINAL                 CCN000060000000060000FN00000000020220701000060000NNM   20220427152917    4P0P  0000300000000050700000080121200    YCYC    006400630015
BI00B1200    #2399T52514    202206027174-1314-30             SEALED COVER             CCN000008800000008800FN00000000020220701000008800NNM   20220427152912    2F0F  0000008000000076930000088931200    YCYC    005500360039
BI00B1200    #2399T52515    202206097174-1314-30             SEALED COVER             CCN000008800000008800FN00000000020220701000008800NNM   20220427152912    2F0F  0000008000000076930000088931200    YCYC    005500360039
BI00B1200    #2399T52516    202206167174-1314-30             SEALED COVER             CCN000008800000008800FN00000000020220701000008800NNM   20220427152912    2F0F  0000008000000076930000088931200    YCYC    005500360039
BI00B1200    #2399T52514    202206027174-1315-30             SEALED COVER             CCN000008800000008800FN00000000020220701000008800NNM   20220427152912    2F0F  0000008000000078200000090201200    YCYC    005500360039
BI00B1200    #2399T52515    202206097174-1315-30             SEALED COVER             CCN000008800000008800FN00000000020220701000008800NNM   20220427152912    2F0F  0000008000000078200000090201200    YCYC    005500360039
BI00B1200    #2399T52516    202206167174-1315-30             SEALED COVER             CCN000008000000008000FN00000000020220701000008000NNM   20220427152912    2F0F  0000008000000078200000090201200    YCYC    005500360039
BI00B1200    #2399T52514    202206027174-1515                FRONT DOOR COVER         CCN000004200000004200FN00000000020220701000004200NNM   20220427152912    2F0F  0000006000000049020000061021200    YCYC    005500360039
BI00B1200    #2399T52515    202206097174-1515                FRONT DOOR COVER         CCN000004200000004200FN00000000020220701000004200NNM   20220427152912    2F0F  0000006000000049020000061021200    YCYC    005500360039
BI00B1200    #2399T52516    202206167174-1515                FRONT DOOR COVER         CCN000004200000004200FN00000000020220701000004200NNM   20220427152912    2F0F  0000006000000049020000061021200    YCYC    005500360039
BI00B1200    #2399T52514    202206027174-1760-50             CAP                      CCN000018000000018000FN00000000020220701000018000NNM   20220427152912    2F0F  0000030000000081360000092261200    YCYC    005400370024
BI00B1200    #2399T52515    202206097174-1760-50             CAP                      CCN000018000000018000FN00000000020220701000018000NNM   20220427152912    2F0F  0000030000000081360000092261200    YCYC    005400370024
BI00B1200    #2399T52516    202206167174-1760-50             CAP                      CCN000015000000015000FN00000000020220701000015000NNM   20220427152912    2F0F  0000030000000081360000092261200    YCYC    005400370024
BI00B1200    #2399T52514    202206027183-9954                CONNECTOR HOUSING        CCN000002500000002500FN00000000020220701000002500NNM   20220427152912    2F0F  0000025000000130400000147801200    YCYC    005500360039
BI00B1200    #2399T52515    202206097183-9954                CONNECTOR HOUSING        CCN000002500000002500FN00000000020220701000002500NNM   20220427152912    2F0F  0000025000000130400000147801200    YCYC    005500360039
BI00B1200    #2399T52516    202206167183-9954                CONNECTOR HOUSING        CCN000002500000002500FN00000000020220701000002500NNM   20220427152912    2F0F  0000025000000130400000147801200    YCYC    005500360039
BI00B1200    #2399T52514    202206027189-2978-30             HOUSING FEMALE           CCN000001500000001500FN00000000020220701000001500NNM   20220427152912    2F0F  0000015000000096690000109691200    YCYC    005400370024
BI00B1200    #2399T52514    202206027189-3033                HOUSING FEMALE           CCN000017600000017600FN00000000020220701000017600NNM   20220427152912    2F0F  0000016000000121120000143121200    YCYC    005500360039
BI00B1200    #2399T52515    202206097189-3033                HOUSING FEMALE           CCN000016000000016000FN00000000020220701000016000NNM   20220427152912    2F0F  0000016000000121120000143121200    YCYC    005500360039
BI00B1200    #2399T52516    202206167189-3033                HOUSING FEMALE           CCN000016000000016000FN00000000020220701000016000NNM   20220427152912    2F0F  0000016000000121120000143121200    YCYC    005500360039
BI00B1200    #2399T52514    202206027189-3034-30             HOUSING FEMALE           CCN000012800000012800FN00000000020220701000012800NNM   20220427152912    2F0F  0000016000000097280000119281200    YCYC    005500360039
BI00B1200    #2399T52515    202206097189-3034-30             HOUSING FEMALE           CCN000012800000012800FN00000000020220701000012800NNM   20220427152912    2F0F  0000016000000097280000119281200    YCYC    005500360039
BI00B1200    #2399T52516    202206167189-3034-30             HOUSING FEMALE           CCN000012800000012800FN00000000020220701000012800NNM   20220427152912    2F0F  0000016000000097280000119281200    YCYC    005500360039
BI00B1200    #2399T52514    202206027189-3036                HOUSING FEMALE           CCN000016000000016000FN00000000020220701000016000NNM   20220427152912    2F0F  0000016000000092160000114161200    YCYC    005500360039
BI00B1200    #2399T52515    202206097189-3036                HOUSING FEMALE           CCN000016000000016000FN00000000020220701000016000NNM   20220427152912    2F0F  0000016000000092160000114161200    YCYC    005500360039
BI00B1200    #2399T52516    202206167189-3036                HOUSING FEMALE           CCN000016000000016000FN00000000020220701000016000NNM   20220427152912    2F0F  0000016000000092160000114161200    YCYC    005500360039
BI00B1200    #2399T52514    202206027189-3036-30             HOUSING FEMALE           CCN000001600000001600FN00000000020220701000001600NNM   20220427152912    2F0F  0000016000000092000000114001200    YCYC    005500360039
BI00B1200    #2399T52515    202206097189-3036-30             HOUSING FEMALE           CCN000001600000001600FN00000000020220701000001600NNM   20220427152912    2F0F  0000016000000092000000114001200    YCYC    005500360039
BI00B1200    #2399T52516    202206167189-3036-30             HOUSING FEMALE           CCN000001600000001600FN00000000020220701000001600NNM   20220427152912    2F0F  0000016000000092000000114001200    YCYC    005500360039
BI00B1200    2399T52517     202206237195-0546-02             TERMINAL ALUMINIUM       CCN000025500000025500FN00000000020220701000025500NNM   20220427153012    4P0P  0000255000000040920000074491200    YCYC    006400630015
BI00B1200    2399T52518     202206307195-0546-02             TERMINAL ALUMINIUM       CCN000025500000025500FN00000000020220701000025500NNM   20220427153012    4P0P  0000255000000040920000074491200    YCYC    006400630015
BI00B1200    #2399T52517    202206237174-1314-30             SEALED COVER             CCN000008000000008000FN00000000020220701000008000NNM   20220427153001    2F0F  0000008000000076930000088931200    YCYC    005500360039
BI00B1200    #2399T52518    202206307174-1314-30             SEALED COVER             CCN000008000000008000FN00000000020220701000008000NNM   20220427153001    2F0F  0000008000000076930000088931200    YCYC    005500360039
BI00B1200    #2399T52517    202206237174-1315-30             SEALED COVER             CCN000008000000008000FN00000000020220701000008000NNM   20220427153001    2F0F  0000008000000078200000090201200    YCYC    005500360039
BI00B1200    #2399T52518    202206307174-1315-30             SEALED COVER             CCN000008000000008000FN00000000020220701000008000NNM   20220427153001    2F0F  0000008000000078200000090201200    YCYC    005500360039
BI00B1200    #2399T52517    202206237174-1515                FRONT DOOR COVER         CCN000004200000004200FN00000000020220701000004200NNM   20220427153001    2F0F  0000006000000049020000061021200    YCYC    005500360039
BI00B1200    #2399T52518    202206307174-1515                FRONT DOOR COVER         CCN000003600000003600FN00000000020220701000003600NNM   20220427153001    2F0F  0000006000000049020000061021200    YCYC    005500360039
BI00B1200    #2399T52517    202206237174-1760-50             CAP                      CCN000015000000015000FN00000000020220701000015000NNM   20220427153001    2F0F  0000030000000081360000092261200    YCYC    005400370024
BI00B1200    #2399T52518    202206307174-1760-50             CAP                      CCN000015000000015000FN00000000020220701000015000NNM   20220427153001    2F0F  0000030000000081360000092261200    YCYC    005400370024
BI00B1200    #2399T52517    202206237189-3033                HOUSING FEMALE           CCN000016000000016000FN00000000020220701000016000NNM   20220427153001    2F0F  0000016000000121120000143121200    YCYC    005500360039
BI00B1200    #2399T52518    202206307189-3033                HOUSING FEMALE           CCN000016000000016000FN00000000020220701000016000NNM   20220427153001    2F0F  0000016000000121120000143121200    YCYC    005500360039
BI00B1200    #2399T52517    202206237189-3034-30             HOUSING FEMALE           CCN000011200000011200FN00000000020220701000011200NNM   20220427153001    2F0F  0000016000000097280000119281200    YCYC    005500360039
BI00B1200    #2399T52518    202206307189-3034-30             HOUSING FEMALE           CCN000011200000011200FN00000000020220701000011200NNM   20220427153001    2F0F  0000016000000097280000119281200    YCYC    005500360039
BI00B1200    #2399T52517    202206237189-3036                HOUSING FEMALE           CCN000016000000016000FN00000000020220701000016000NNM   20220427153001    2F0F  0000016000000092160000114161200    YCYC    005500360039
BI00B1200    #2399T52518    202206307189-3036                HOUSING FEMALE           CCN000014400000014400FN00000000020220701000014400NNM   20220427153001    2F0F  0000016000000092160000114161200    YCYC    005500360039
BI00B1200    #2399T52517    202206237189-3036-30             HOUSING FEMALE           CCN000001600000001600FN00000000020220701000001600NNM   20220427153001    2F0F  0000016000000092000000114001200    YCYC    005500360039
BI00B1200    2399T52519     202206027196-0104-02             TERMINAL                 CCN000038000000038000FN00000000020220701000038000NNM   20220427153056    4P0P  0000380000000057000000095641200    YCYC    006400630017
BI00B1200    2399T52520     202206097196-0104-02             TERMINAL                 CCN000038000000038000FN00000000020220701000038000NNM   20220427153056    4P0P  0000380000000057000000095641200    YCYC    006400630017
BI00B1200    2399T52519     202206027196-0549-02             TERMINAL ALUMINIUM       CCN000038000000038000FN00000000020220701000038000NNM   20220427153056    4P0P  0000380000000059280000097921200    YCYC    006400630017
BI00B1200    2399T52519     202206027196-0550-02             TERMINAL ALUMINIUM       CCN000032000000032000FN00000000020220701000032000NNM   20220427153056    4P0P  0000320000000051520000090161200    YCYC    006400630017
BI00B1200    2399T52519     202206027196-0551-02             TERMINAL ALUMINIUM       CCN000028000000028000FN00000000020220701000028000NNM   20220427153056    4P0P  0000280000000046480000085121200    YCYC    006400630017
BI00B1200    2399T52519     202206027196-0648-02             TERMINAL                 CCN000120000000120000FN00000000020220701000120000NNM   20220427153056    4P0P  0000150000000035550000068971200    YCYC    006400630015
BI00B1200    2399T52520     202206097196-0648-02             TERMINAL                 CCN000120000000120000FN00000000020220701000120000NNM   20220427153056    4P0P  0000150000000035550000068971200    YCYC    006400630015
BI00B1200    2399T52521     202206167196-0648-02             TERMINAL                 CCN000105000000105000FN00000000020220701000105000NNM   20220427153056    4P0P  0000150000000035550000068971200    YCYC    006400630015
BI00B1200    2399T52519     202206027196-0805-02             TERMINAL FEMALE          CCN000225000000225000FN00000000020220701000225000NNM   20220427153056    4P0P  0000225000000055800000084321200    YCYC    006400630015
BI00B1200    2399T52520     202206097196-0805-02             TERMINAL FEMALE          CCN000225000000225000FN00000000020220701000225000NNM   20220427153056    4P0P  0000225000000055800000084321200    YCYC    006400630015
BI00B1200    2399T52521     202206167196-0805-02             TERMINAL FEMALE          CCN000202500000202500FN00000000020220701000202500NNM   20220427153056    4P0P  0000225000000055800000084321200    YCYC    006400630015
BI00B1200    2399T52519     202206027282-5574-10             CONNECTOR                CCN000001600000001600FN00000000020220701000001600NNM   20220427153056    4N0N  0000008000000123500000142301200    YCYC    005600390040
BI00B1200    2399T52520     202206097282-5574-10             CONNECTOR                CCN000000800000000800FN00000000020220701000000800NNM   20220427153056    4N0N  0000008000000123500000142301200    YCYC    005600390040
BI00B1200    2399T52521     202206167282-5574-10             CONNECTOR                CCN000000800000000800FN00000000020220701000000800NNM   20220427153056    4N0N  0000008000000123500000142301200    YCYC    005600390040
BI00B1200    2399T52519     202206027287-9323                UNSEALED HOUSING SUB     CCN000004800000004800FN00000000020220701000004800NNM   20220427153056    1N0N  0000024000000053760000069001200    YCYC    005600390023
BI00B1200    2399T52520     202206097287-9323                UNSEALED HOUSING SUB     CCN000004800000004800FN00000000020220701000004800NNM   20220427153056    1N0N  0000024000000053760000069001200    YCYC    005600390023
BI00B1200    2399T52521     202206167287-9323                UNSEALED HOUSING SUB     CCN000004800000004800FN00000000020220701000004800NNM   20220427153056    1N0N  0000024000000053760000069001200    YCYC    005600390023
BI00B1200    2399T52519     202206027287-9323-30             UNSEALED HOUSING SUB     CCN000002400000002400FN00000000020220701000002400NNM   20220427153056    1N0N  0000024000000053760000069001200    YCYC    005600390023
BI00B1200    2399T52520     202206097287-9323-30             UNSEALED HOUSING SUB     CCN000002400000002400FN00000000020220701000002400NNM   20220427153056    1N0N  0000024000000053760000069001200    YCYC    005600390023
BI00B1200    2399T52519     202206027288-3334-30             HOUSING MALE             CCN000001500000001500FN00000000020220701000001500NNM   20220427153056    4N0N  0000015000000086700000101201200    YCYC    005400370024
BI00B1200    2399T52520     202206097288-3334-30             HOUSING MALE             CCN000001500000001500FN00000000020220701000001500NNM   20220427153056    4N0N  0000015000000086700000101201200    YCYC    005400370024
BI00B1200    2399T52521     202206167288-3334-30             HOUSING MALE             CCN000001500000001500FN00000000020220701000001500NNM   20220427153056    4N0N  0000015000000086700000101201200    YCYC    005400370024
BI00B1200    2399T52519     202206027288-6598-70             HOUSING MALE ASS'Y       CCN000036000000036000FN00000000020220701000036000NNM   20220427153056    4N0N  0000014400000107420000142921200    YCYC    005500360039
BI00B1200    2399T52520     202206097288-6598-70             HOUSING MALE ASS'Y       CCN000036000000036000FN00000000020220701000036000NNM   20220427153056    4N0N  0000014400000107420000142921200    YCYC    005500360039
BI00B1200    2399T52521     202206167288-6598-70             HOUSING MALE ASS'Y       CCN000036000000036000FN00000000020220701000036000NNM   20220427153056    4N0N  0000014400000107420000142921200    YCYC    005500360039
BI00B1200    2399T52519     202206027288-7969                HYBRID MALE ASS'Y        CCN000006400000006400FN00000000020220701000006400NNM   20220427153056    1N0N  0000003200000087620000110171200    YCYC    005400370024
BI00B1200    2399T52520     202206097288-7969                HYBRID MALE ASS'Y        CCN000006080000006080FN00000000020220701000006080NNM   20220427153056    1N0N  0000003200000087620000110171200    YCYC    005400370024
BI00B1200    2399T52521     202206167288-7969                HYBRID MALE ASS'Y        CCN000006080000006080FN00000000020220701000006080NNM   20220427153056    1N0N  0000003200000087620000110171200    YCYC    005400370024
BI00B1200    2399T52519     202206027289-0269                HOUSING SUB ASSEMBLY     CCN000016000000016000FN00000000020220701000016000NNM   20220427153056    1N0N  0000016000000100210000123451200    YCYC    005500360039
BI00B1200    2399T52520     202206097289-0269                HOUSING SUB ASSEMBLY     CCN000016000000016000FN00000000020220701000016000NNM   20220427153056    1N0N  0000016000000100210000123451200    YCYC    005500360039
BI00B1200    2399T52521     202206167289-0269                HOUSING SUB ASSEMBLY     CCN000016000000016000FN00000000020220701000016000NNM   20220427153056    1N0N  0000016000000100210000123451200    YCYC    005500360039
BI00B1200    2399T52519     202206027289-3342                HOUSING FEMALE ASS'Y     CCN000002400000002400FN00000000020220701000002400NNM   20220427153056    1N0N  0000024000000068640000090141200    YCYC    005500360039
BI00B1200    2399T52520     202206097289-3342                HOUSING FEMALE ASS'Y     CCN000002400000002400FN00000000020220701000002400NNM   20220427153056    1N0N  0000024000000068640000090141200    YCYC    005500360039
BI00B1200    2399T52521     202206167289-3342                HOUSING FEMALE ASS'Y     CCN000002400000002400FN00000000020220701000002400NNM   20220427153056    1N0N  0000024000000068640000090141200    YCYC    005500360039
BI00B1200    #2399T52519    202206027198-1371-60             HOUSING FEMALE           CCN000002000000002000FN00000000020220701000002000NNM   20220427153054    2F0F  0000020000000059780000072121200    YCYC    005400370024
BI00B1200    #2399T52519    202206027198-1373-60             HOUSING FEMALE           CCN000008000000008000FN00000000020220701000008000NNM   20220427153054    2F0F  0000020000000081940000094741200    YCYC    005400370024
BI00B1200    #2399T52520    202206097198-1373-60             HOUSING FEMALE           CCN000006000000006000FN00000000020220701000006000NNM   20220427153054    2F0F  0000020000000081940000094741200    YCYC    005400370024
BI00B1200    #2399T52521    202206167198-1373-60             HOUSING FEMALE           CCN000006000000006000FN00000000020220701000006000NNM   20220427153054    2F0F  0000020000000081940000094741200    YCYC    005400370024
BI00B1200    #2399T52519    202206027289-2912-40             HOUSING FEMALE ASS'Y     CCN000022000000022000FN00000000020220701000022000NNM   20220427153054    2N0N  0000020000000080400000093101200    YCYC    005400370024
BI00B1200    #2399T52520    202206097289-2912-40             HOUSING FEMALE ASS'Y     CCN000022000000022000FN00000000020220701000022000NNM   20220427153054    2N0N  0000020000000080400000093101200    YCYC    005400370024
BI00B1200    #2399T52521    202206167289-2912-40             HOUSING FEMALE ASS'Y     CCN000022000000022000FN00000000020220701000022000NNM   20220427153054    2N0N  0000020000000080400000093101200    YCYC    005400370024
BI00B1200    #2399T52519    202206027289-2913-30             HOUSING FEMALE ASS'Y     CCN000007500000007500FN00000000020220701000007500NNM   20220427153054    2N0N  0000015000000090750000103451200    YCYC    005400370024
BI00B1200    #2399T52520    202206097289-2913-30             HOUSING FEMALE ASS'Y     CCN000007500000007500FN00000000020220701000007500NNM   20220427153054    2N0N  0000015000000090750000103451200    YCYC    005400370024
BI00B1200    #2399T52521    202206167289-2913-30             HOUSING FEMALE ASS'Y     CCN000007500000007500FN00000000020220701000007500NNM   20220427153054    2N0N  0000015000000090750000103451200    YCYC    005400370024
BI00B1200    2399T52522     202206237195-0783-08             TERMINAL                 CCN000030000000030000FN00000000020220701000030000NNM   20220427153140    4P0P  0000300000000050700000080121200    YCYC    006400630015
BI00B1200    2399T52523     202206307195-0783-08             TERMINAL                 CCN000030000000030000FN00000000020220701000030000NNM   20220427153140    4P0P  0000300000000050700000080121200    YCYC    006400630015
BI00B1200    2399T52522     202206237196-0648-02             TERMINAL                 CCN000105000000105000FN00000000020220701000105000NNM   20220427153140    4P0P  0000150000000035550000068971200    YCYC    006400630015
BI00B1200    2399T52523     202206307196-0648-02             TERMINAL                 CCN000105000000105000FN00000000020220701000105000NNM   20220427153140    4P0P  0000150000000035550000068971200    YCYC    006400630015
BI00B1200    2399T52522     202206237196-0805-02             TERMINAL FEMALE          CCN000202500000202500FN00000000020220701000202500NNM   20220427153140    4P0P  0000225000000055800000084321200    YCYC    006400630015
BI00B1200    2399T52523     202206307196-0805-02             TERMINAL FEMALE          CCN000202500000202500FN00000000020220701000202500NNM   20220427153140    4P0P  0000225000000055800000084321200    YCYC    006400630015
BI00B1200    2399T52522     202206237282-5574-10             CONNECTOR                CCN000000800000000800FN00000000020220701000000800NNM   20220427153140    4N0N  0000008000000123500000142301200    YCYC    005600390040
BI00B1200    2399T52523     202206307282-5574-10             CONNECTOR                CCN000000800000000800FN00000000020220701000000800NNM   20220427153140    4N0N  0000008000000123500000142301200    YCYC    005600390040
BI00B1200    2399T52522     202206237287-9323                UNSEALED HOUSING SUB     CCN000004800000004800FN00000000020220701000004800NNM   20220427153140    1N0N  0000024000000053760000069001200    YCYC    005600390023
BI00B1200    2399T52523     202206307287-9323                UNSEALED HOUSING SUB     CCN000002400000002400FN00000000020220701000002400NNM   20220427153140    1N0N  0000024000000053760000069001200    YCYC    005600390023
BI00B1200    2399T52522     202206237288-3334-30             HOUSING MALE             CCN000001500000001500FN00000000020220701000001500NNM   20220427153140    4N0N  0000015000000086700000101201200    YCYC    005400370024
BI00B1200    2399T52522     202206237288-6598-70             HOUSING MALE ASS'Y       CCN000036000000036000FN00000000020220701000036000NNM   20220427153140    4N0N  0000014400000107420000142921200    YCYC    005500360039
BI00B1200    2399T52523     202206307288-6598-70             HOUSING MALE ASS'Y       CCN000036000000036000FN00000000020220701000036000NNM   20220427153140    4N0N  0000014400000107420000142921200    YCYC    005500360039
BI00B1200    2399T52522     202206237288-7969                HYBRID MALE ASS'Y        CCN000006080000006080FN00000000020220701000006080NNM   20220427153140    1N0N  0000003200000087620000110171200    YCYC    005400370024
BI00B1200    2399T52523     202206307288-7969                HYBRID MALE ASS'Y        CCN000006080000006080FN00000000020220701000006080NNM   20220427153140    1N0N  0000003200000087620000110171200    YCYC    005400370024
BI00B1200    2399T52522     202206237289-0269                HOUSING SUB ASSEMBLY     CCN000016000000016000FN00000000020220701000016000NNM   20220427153140    1N0N  0000016000000100210000123451200    YCYC    005500360039
BI00B1200    2399T52523     202206307289-0269                HOUSING SUB ASSEMBLY     CCN000014400000014400FN00000000020220701000014400NNM   20220427153140    1N0N  0000016000000100210000123451200    YCYC    005500360039
BI00B1200    2399T52522     202206237289-3342                HOUSING FEMALE ASS'Y     CCN000002400000002400FN00000000020220701000002400NNM   20220427153140    1N0N  0000024000000068640000090141200    YCYC    005500360039
BI00B1200    2399T52523     202206307289-3342                HOUSING FEMALE ASS'Y     CCN000002400000002400FN00000000020220701000002400NNM   20220427153140    1N0N  0000024000000068640000090141200    YCYC    005500360039
BI00B1200    #2399T52522    202206237198-1373-60             HOUSING FEMALE           CCN000006000000006000FN00000000020220701000006000NNM   20220427153136    2F0F  0000020000000081940000094741200    YCYC    005400370024
BI00B1200    #2399T52523    202206307198-1373-60             HOUSING FEMALE           CCN000006000000006000FN00000000020220701000006000NNM   20220427153136    2F0F  0000020000000081940000094741200    YCYC    005400370024
BI00B1200    #2399T52522    202206237289-2912-40             HOUSING FEMALE ASS'Y     CCN000022000000022000FN00000000020220701000022000NNM   20220427153136    2N0N  0000020000000080400000093101200    YCYC    005400370024
BI00B1200    #2399T52523    202206307289-2912-40             HOUSING FEMALE ASS'Y     CCN000022000000022000FN00000000020220701000022000NNM   20220427153136    2N0N  0000020000000080400000093101200    YCYC    005400370024
BI00B1200    #2399T52522    202206237289-2913-30             HOUSING FEMALE ASS'Y     CCN000007500000007500FN00000000020220701000007500NNM   20220427153136    2N0N  0000015000000090750000103451200    YCYC    005400370024
BI00B1200    #2399T52523    202206307289-2913-30             HOUSING FEMALE ASS'Y     CCN000007500000007500FN00000000020220701000007500NNM   20220427153136    2N0N  0000015000000090750000103451200    YCYC    005400370024
BI00B1200    2399T52524     202206027289-3342-30             HOUSING FEMALE ASS'Y     CCN000002400000002400FN00000000020220701000002400NNM   20220427153227    1N0N  0000024000000068640000090141200    YCYC    005500360039
BI00B1200    2399T52525     202206097289-3342-30             HOUSING FEMALE ASS'Y     CCN000002400000002400FN00000000020220701000002400NNM   20220427153227    1N0N  0000024000000068640000090141200    YCYC    005500360039
BI00B1200    2399T52526     202206167289-3342-30             HOUSING FEMALE ASS'Y     CCN000002400000002400FN00000000020220701000002400NNM   20220427153227    1N0N  0000024000000068640000090141200    YCYC    005500360039
BI00B1200    2399T52524     202206027289-4212-80             SEALED HOUSING ASS'Y     CCN000012000000012000FN00000000020220701000012000NNM   20220427153227    4N0N  0000020000000084860000097861200    YCYC    005400370024
BI00B1200    2399T52525     202206097289-4212-80             SEALED HOUSING ASS'Y     CCN000010000000010000FN00000000020220701000010000NNM   20220427153227    4N0N  0000020000000084860000097861200    YCYC    005400370024
BI00B1200    2399T52526     202206167289-4212-80             SEALED HOUSING ASS'Y     CCN000010000000010000FN00000000020220701000010000NNM   20220427153227    4N0N  0000020000000084860000097861200    YCYC    005400370024
BI00B1200    2399T52527     202206237289-4212-80             SEALED HOUSING ASS'Y     CCN000010000000010000FN00000000020220701000010000NNM   20220427153227    4N0N  0000020000000084860000097861200    YCYC    005400370024
BI00B1200    2399T52524     202206027289-5979-30             HOUSING FEMALE ASS'Y     CCN000001260000001260FN00000000020220701000001260NNM   20220427153227    1N0N  0000002520000085470000106471200    YCYC    005400370024
BI00B1200    2399T52525     202206097289-5979-30             HOUSING FEMALE ASS'Y     CCN000001260000001260FN00000000020220701000001260NNM   20220427153227    1N0N  0000002520000085470000106471200    YCYC    005400370024
BI00B1200    2399T52526     202206167289-5979-30             HOUSING FEMALE ASS'Y     CCN000001008000001008FN00000000020220701000001008NNM   20220427153227    1N0N  0000002520000085470000106471200    YCYC    005400370024
BI00B1200    2399T52527     202206237289-5979-30             HOUSING FEMALE ASS'Y     CCN000001008000001008FN00000000020220701000001008NNM   20220427153227    1N0N  0000002520000085470000106471200    YCYC    005400370024
BI00B1200    2399T52524     202206027289-6159-30             HOUSING FEMALE ASS'Y     CCN000000960000000960FN00000000020220701000000960NNM   20220427153227    4N0N  0000002400000109500000137501200    YCYC    005500360039
BI00B1200    2399T52525     202206097289-6159-30             HOUSING FEMALE ASS'Y     CCN000000960000000960FN00000000020220701000000960NNM   20220427153227    4N0N  0000002400000109500000137501200    YCYC    005500360039
BI00B1200    2399T52526     202206167289-6159-30             HOUSING FEMALE ASS'Y     CCN000000960000000960FN00000000020220701000000960NNM   20220427153227    4N0N  0000002400000109500000137501200    YCYC    005500360039
BI00B1200    2399T52527     202206237289-6159-30             HOUSING FEMALE ASS'Y     CCN000000960000000960FN00000000020220701000000960NNM   20220427153227    4N0N  0000002400000109500000137501200    YCYC    005500360039
BI00B1200    2399T52524     202206027289-6160-30             HOUSING FEMALE ASS'Y     CCN000001920000001920FN00000000020220701000001920NNM   20220427153227    4N0N  0000001600000103740000132041200    YCYC    005500360039
BI00B1200    2399T52525     202206097289-6160-30             HOUSING FEMALE ASS'Y     CCN000001920000001920FN00000000020220701000001920NNM   20220427153227    4N0N  0000001600000103740000132041200    YCYC    005500360039
BI00B1200    2399T52526     202206167289-6160-30             HOUSING FEMALE ASS'Y     CCN000001920000001920FN00000000020220701000001920NNM   20220427153227    4N0N  0000001600000103740000132041200    YCYC    005500360039
BI00B1200    2399T52527     202206237289-6160-30             HOUSING FEMALE ASS'Y     CCN000001920000001920FN00000000020220701000001920NNM   20220427153227    4N0N  0000001600000103740000132041200    YCYC    005500360039
BI00B1200    2399T52524     202206027289-6518-30             HOUSING FEMALE ASS'Y     CCN000004800000004800FN00000000020220701000004800NNM   20220427153227    1N0N  0000012000000082920000104921200    YCYC    005500360039
BI00B1200    2399T52525     202206097289-6518-30             HOUSING FEMALE ASS'Y     CCN000003600000003600FN00000000020220701000003600NNM   20220427153227    1N0N  0000012000000082920000104921200    YCYC    005500360039
BI00B1200    2399T52526     202206167289-6518-30             HOUSING FEMALE ASS'Y     CCN000003600000003600FN00000000020220701000003600NNM   20220427153227    1N0N  0000012000000082920000104921200    YCYC    005500360039
BI00B1200    2399T52527     202206237289-6518-30             HOUSING FEMALE ASS'Y     CCN000003600000003600FN00000000020220701000003600NNM   20220427153227    1N0N  0000012000000082920000104921200    YCYC    005500360039
BI00B1200    2399T52524     202206027289-6597-70             HOUSING FEMALE ASS'Y     CCN000012960000012960FN00000000020220701000012960NNM   20220427153227    4N0N  0000021600000128950000153951200    YCYC    005500360039
BI00B1200    2399T52525     202206097289-6597-70             HOUSING FEMALE ASS'Y     CCN000012960000012960FN00000000020220701000012960NNM   20220427153227    4N0N  0000021600000128950000153951200    YCYC    005500360039
BI00B1200    2399T52526     202206167289-6597-70             HOUSING FEMALE ASS'Y     CCN000012960000012960FN00000000020220701000012960NNM   20220427153227    4N0N  0000021600000128950000153951200    YCYC    005500360039
BI00B1200    2399T52527     202206237289-6597-70             HOUSING FEMALE ASS'Y     CCN000010800000010800FN00000000020220701000010800NNM   20220427153227    4N0N  0000021600000128950000153951200    YCYC    005500360039
BI00B1200    2399T52524     202206027289-6868-30             SEALED ASSY FEMALE       CCN000040320000040320FN00000000020220701000040320NNM   20220427153227    4N0N  0000025200000083920000111921200    YCYC    005500360039
BI00B1200    2399T52525     202206097289-6868-30             SEALED ASSY FEMALE       CCN000040320000040320FN00000000020220701000040320NNM   20220427153227    4N0N  0000025200000083920000111921200    YCYC    005500360039
BI00B1200    2399T52526     202206167289-6868-30             SEALED ASSY FEMALE       CCN000040320000040320FN00000000020220701000040320NNM   20220427153227    4N0N  0000025200000083920000111921200    YCYC    005500360039
BI00B1200    2399T52527     202206237289-6868-30             SEALED ASSY FEMALE       CCN000040320000040320FN00000000020220701000040320NNM   20220427153227    4N0N  0000025200000083920000111921200    YCYC    005500360039
BI00B1200    2399T52524     202206027289-7212-30             HOUSING FEMALE ASS'Y     CCN000003840000003840FN00000000020220701000003840NNM   20220427153227    4N0N  0000002400000138840000159341200    YCYC    005500360039
BI00B1200    2399T52525     202206097289-7212-30             HOUSING FEMALE ASS'Y     CCN000003840000003840FN00000000020220701000003840NNM   20220427153227    4N0N  0000002400000138840000159341200    YCYC    005500360039
BI00B1200    2399T52526     202206167289-7212-30             HOUSING FEMALE ASS'Y     CCN000003840000003840FN00000000020220701000003840NNM   20220427153227    4N0N  0000002400000138840000159341200    YCYC    005500360039
BI00B1200    2399T52527     202206237289-7212-30             HOUSING FEMALE ASS'Y     CCN000003840000003840FN00000000020220701000003840NNM   20220427153227    4N0N  0000002400000138840000159341200    YCYC    005500360039
BI00B1200    2399T52524     202206027289-9553-30             SEALED ASSY FEMALE       CCN000014700000014700FN00000000020220701000014700NNM   20220427153227    4N0N  0000029400000110900000152151200    YCYC    005500360039
BI00B1200    2399T52525     202206097289-9553-30             SEALED ASSY FEMALE       CCN000014700000014700FN00000000020220701000014700NNM   20220427153227    4N0N  0000029400000110900000152151200    YCYC    005500360039
BI00B1200    2399T52526     202206167289-9553-30             SEALED ASSY FEMALE       CCN000011760000011760FN00000000020220701000011760NNM   20220427153227    4N0N  0000029400000110900000152151200    YCYC    005500360039
BI00B1200    2399T52527     202206237289-9553-30             SEALED ASSY FEMALE       CCN000011760000011760FN00000000020220701000011760NNM   20220427153227    4N0N  0000029400000110900000152151200    YCYC    005500360039
BI00B1200    2399T52524     202206027289-9553-50             SEALED ASSY FEMALE       CCN000011760000011760FN00000000020220701000011760NNM   20220427153227    4N0N  0000029400000110810000152061200    YCYC    005500360039
BI00B1200    2399T52525     202206097289-9553-50             SEALED ASSY FEMALE       CCN000011760000011760FN00000000020220701000011760NNM   20220427153227    4N0N  0000029400000110810000152061200    YCYC    005500360039
BI00B1200    2399T52526     202206167289-9553-50             SEALED ASSY FEMALE       CCN000011760000011760FN00000000020220701000011760NNM   20220427153227    4N0N  0000029400000110810000152061200    YCYC    005500360039
BI00B1200    2399T52527     202206237289-9553-50             SEALED ASSY FEMALE       CCN000008820000008820FN00000000020220701000008820NNM   20220427153227    4N0N  0000029400000110810000152061200    YCYC    005500360039
BI00B1200    2399T52524     202206027289-9612-30             HOUSING FEMALE ASS'Y     CCN000000720000000720FN00000000020220701000000720NNM   20220427153227    4N0N  0000002400000134880000166881200    YCYC    005500360039
BI00B1200    2399T52525     202206097289-9612-30             HOUSING FEMALE ASS'Y     CCN000000720000000720FN00000000020220701000000720NNM   20220427153227    4N0N  0000002400000134880000166881200    YCYC    005500360039
BI00B1200    2399T52526     202206167289-9612-30             HOUSING FEMALE ASS'Y     CCN000000720000000720FN00000000020220701000000720NNM   20220427153227    4N0N  0000002400000134880000166881200    YCYC    005500360039
BI00B1200    2399T52527     202206237289-9612-30             HOUSING FEMALE ASS'Y     CCN000000480000000480FN00000000020220701000000480NNM   20220427153227    4N0N  0000002400000134880000166881200    YCYC    005500360039
BI00B1200    2399T52524     202206027289-9613-30             HOUSING FEMALE ASS'Y     CCN000001680000001680FN00000000020220701000001680NNM   20220427153227    4N0N  0000002400000126990000154371200    YCYC    005500360039
BI00B1200    2399T52525     202206097289-9613-30             HOUSING FEMALE ASS'Y     CCN000001680000001680FN00000000020220701000001680NNM   20220427153227    4N0N  0000002400000126990000154371200    YCYC    005500360039
BI00B1200    2399T52526     202206167289-9613-30             HOUSING FEMALE ASS'Y     CCN000001680000001680FN00000000020220701000001680NNM   20220427153227    4N0N  0000002400000126990000154371200    YCYC    005500360039
BI00B1200    2399T52527     202206237289-9613-30             HOUSING FEMALE ASS'Y     CCN000001680000001680FN00000000020220701000001680NNM   20220427153227    4N0N  0000002400000126990000154371200    YCYC    005500360039
BI00B1200    2399T52524     202206027298-2853-30             HOUSING FEMALE ASS'Y     CCN000000240000000240FN00000000020220701000000240NNM   20220427153227    4N0N  0000002400000109490000136091200    YCYC    005500360039
BI00B1200    2399T52525     202206097298-2853-30             HOUSING FEMALE ASS'Y     CCN000000240000000240FN00000000020220701000000240NNM   20220427153227    4N0N  0000002400000109490000136091200    YCYC    005500360039
BI00B1200    2399T52526     202206167298-2853-30             HOUSING FEMALE ASS'Y     CCN000000240000000240FN00000000020220701000000240NNM   20220427153227    4N0N  0000002400000109490000136091200    YCYC    005500360039
BI00B1200    2399T52527     202206237298-2853-30             HOUSING FEMALE ASS'Y     CCN000000240000000240FN00000000020220701000000240NNM   20220427153227    4N0N  0000002400000109490000136091200    YCYC    005500360039
BI00B1200    2399T52524     202206027298-3990-30             HOUSING FEMALE ASS'Y     CCN000003840000003840FN00000000020220701000003840NNM   20220427153227    4NON  0000002400000120890000157391200    YCYC    005500360039
BI00B1200    2399T52525     202206097298-3990-30             HOUSING FEMALE ASS'Y     CCN000003840000003840FN00000000020220701000003840NNM   20220427153227    4NON  0000002400000120890000157391200    YCYC    005500360039
BI00B1200    2399T52526     202206167298-3990-30             HOUSING FEMALE ASS'Y     CCN000003600000003600FN00000000020220701000003600NNM   20220427153227    4NON  0000002400000120890000157391200    YCYC    005500360039
BI00B1200    2399T52527     202206237298-3990-30             HOUSING FEMALE ASS'Y     CCN000003600000003600FN00000000020220701000003600NNM   20220427153227    4NON  0000002400000120890000157391200    YCYC    005500360039
BI00B1200    2399T52524     202206027298-4094-10             HOUSING FEMALE ASS'Y     CCN000027040000027040FN00000000020220701000027040NNM   20220427153227    4N0N  0000033800000109740000135871200    YCYC    005400370024
BI00B1200    2399T52525     202206097298-4094-10             HOUSING FEMALE ASS'Y     CCN000027040000027040FN00000000020220701000027040NNM   20220427153227    4N0N  0000033800000109740000135871200    YCYC    005400370024
BI00B1200    2399T52526     202206167298-4094-10             HOUSING FEMALE ASS'Y     CCN000027040000027040FN00000000020220701000027040NNM   20220427153227    4N0N  0000033800000109740000135871200    YCYC    005400370024
BI00B1200    2399T52527     202206237298-4094-10             HOUSING FEMALE ASS'Y     CCN000027040000027040FN00000000020220701000027040NNM   20220427153227    4N0N  0000033800000109740000135871200    YCYC    005400370024
BI00B1200    #2399T52524    202206027289-3622-30             HOUSING FEMALE ASS'Y     CCN000003024000003024FN00000000020220701000003024NNM   20220427153225    2N0N  0000004320000083940000103841200    YCYC    005400370024
BI00B1200    #2399T52525    202206097289-3622-30             HOUSING FEMALE ASS'Y     CCN000003024000003024FN00000000020220701000003024NNM   20220427153225    2N0N  0000004320000083940000103841200    YCYC    005400370024
BI00B1200    #2399T52526    202206167289-3622-30             HOUSING FEMALE ASS'Y     CCN000003024000003024FN00000000020220701000003024NNM   20220427153225    2N0N  0000004320000083940000103841200    YCYC    005400370024
BI00B1200    #2399T52527    202206237289-3622-30             HOUSING FEMALE ASS'Y     CCN000003024000003024FN00000000020220701000003024NNM   20220427153225    2N0N  0000004320000083940000103841200    YCYC    005400370024
BI00B1200    #2399T52528    202206307289-3622-30             HOUSING FEMALE ASS'Y     CCN000003024000003024FN00000000020220701000003024NNM   20220427153225    2N0N  0000004320000083940000103841200    YCYC    005400370024
BI00B1200    #2399T52524    202206027289-4200-30             HOUSING FEMALE ASS'Y     CCN000040000000040000FN00000000020220701000040000NNM   20220427153225    2N0N  0000020000000092600000102101200    YCYC    005400370024
BI00B1200    #2399T52525    202206097289-4200-30             HOUSING FEMALE ASS'Y     CCN000040000000040000FN00000000020220701000040000NNM   20220427153225    2N0N  0000020000000092600000102101200    YCYC    005400370024
BI00B1200    #2399T52526    202206167289-4200-30             HOUSING FEMALE ASS'Y     CCN000040000000040000FN00000000020220701000040000NNM   20220427153225    2N0N  0000020000000092600000102101200    YCYC    005400370024
BI00B1200    #2399T52527    202206237289-4200-30             HOUSING FEMALE ASS'Y     CCN000038000000038000FN00000000020220701000038000NNM   20220427153225    2N0N  0000020000000092600000102101200    YCYC    005400370024
BI00B1200    2399T52529     202206307289-4212-80             SEALED HOUSING ASS'Y     CCN000010000000010000FN00000000020220801000010000NNM   20220427153333    4N0N  0000020000000084860000097861200    YCYC    005400370024
BI00B1200    2399T52529     202206307289-5979-30             HOUSING FEMALE ASS'Y     CCN000001008000001008FN00000000020220801000001008NNM   20220427153333    1N0N  0000002520000085470000106471200    YCYC    005400370024
BI00B1200    2399T52529     202206307289-6159-30             HOUSING FEMALE ASS'Y     CCN000000720000000720FN00000000020220801000000720NNM   20220427153333    4N0N  0000002400000109500000137501200    YCYC    005500360039
BI00B1200    2399T52529     202206307289-6160-30             HOUSING FEMALE ASS'Y     CCN000001760000001760FN00000000020220801000001760NNM   20220427153333    4N0N  0000001600000103740000132041200    YCYC    005500360039
BI00B1200    2399T52529     202206307289-6518-30             HOUSING FEMALE ASS'Y     CCN000003600000003600FN00000000020220801000003600NNM   20220427153333    1N0N  0000012000000082920000104921200    YCYC    005500360039
BI00B1200    2399T52529     202206307289-6597-70             HOUSING FEMALE ASS'Y     CCN000010800000010800FN00000000020220801000010800NNM   20220427153333    4N0N  0000021600000128950000153951200    YCYC    005500360039
BI00B1200    2399T52529     202206307289-6868-30             SEALED ASSY FEMALE       CCN000040320000040320FN00000000020220801000040320NNM   20220427153333    4N0N  0000025200000083920000111921200    YCYC    005500360039
BI00B1200    2399T52529     202206307289-7212-30             HOUSING FEMALE ASS'Y     CCN000003600000003600FN00000000020220801000003600NNM   20220427153333    4N0N  0000002400000138840000159341200    YCYC    005500360039
BI00B1200    2399T52529     202206307289-9553-30             SEALED ASSY FEMALE       CCN000011760000011760FN00000000020220801000011760NNM   20220427153333    4N0N  0000029400000110900000152151200    YCYC    005500360039
BI00B1200    2399T52529     202206307289-9553-50             SEALED ASSY FEMALE       CCN000008820000008820FN00000000020220801000008820NNM   20220427153333    4N0N  0000029400000110810000152061200    YCYC    005500360039
BI00B1200    2399T52529     202206307289-9612-30             HOUSING FEMALE ASS'Y     CCN000000480000000480FN00000000020220801000000480NNM   20220427153333    4N0N  0000002400000134880000166881200    YCYC    005500360039
BI00B1200    2399T52529     202206307289-9613-30             HOUSING FEMALE ASS'Y     CCN000001440000001440FN00000000020220801000001440NNM   20220427153333    4N0N  0000002400000126990000154371200    YCYC    005500360039
BI00B1200    2399T52529     202206307298-3990-30             HOUSING FEMALE ASS'Y     CCN000003600000003600FN00000000020220801000003600NNM   20220427153333    4NON  0000002400000120890000157391200    YCYC    005500360039
BI00B1200    2399T52529     202206307298-4094-10             HOUSING FEMALE ASS'Y     CCN000027040000027040FN00000000020220801000027040NNM   20220427153333    4N0N  0000033800000109740000135871200    YCYC    005400370024
BI00B1200    #2399T52529    202206307289-4200-30             HOUSING FEMALE ASS'Y     CCN000038000000038000FN00000000020220801000038000NNM   20220427153331    2N0N  0000020000000092600000102101200    YCYC    005400370024
BI00B1200    7242T52501     202206027158-3022-80             RUBBER STOPPER           CCN000005000000005000FN00000000020220701000005000NNM   20220427153506    1C0C  0000050000000046750000052401200    YCYC    002700430014
BI00B1200    7242T52505     202206307158-3022-80             RUBBER STOPPER           CCN000005000000005000FN00000000020220701000005000NNM   20220427153506    1C0C  0000050000000046750000052401200    YCYC    002700430014
BI00B1200    7242T52502     202206097289-4696-30             HOUSING FEMALE ASS'Y     CCN000002000000002000FN00000000020220701000002000NNM   20220427153506    4N0N  0000020000000091340000105541200    YCYC    005400370024
BI00B1200    #7242T52501    202206027172-5632-10             DUMMY PLUG               CCN000040000000040000FN00000000020220701000040000NNM   20220427153459    2H0H  0000200000000008040000013181200    YCYC    004300270014
BI00B1200    #7242T52502    202206097172-5632-10             DUMMY PLUG               CCN000040000000040000FN00000000020220701000040000NNM   20220427153459    2H0H  0000200000000008040000013181200    YCYC    004300270014
BI00B1200    #7242T52503    202206167172-5632-10             DUMMY PLUG               CCN000020000000020000FN00000000020220701000020000NNM   20220427153459    2H0H  0000200000000008040000013181200    YCYC    004300270014
BI00B1200    #7242T52505    202206307172-5632-10             DUMMY PLUG               CCN000020000000020000FN00000000020220701000020000NNM   20220427153459    2H0H  0000200000000008040000013181200    YCYC    004300270014
BI00B1200    #7242T52501    202206027187-3356                JOINT CONNECTOR          CCN000007200000007200FN00000000020220701000007200NNM   20220427153459    2F0F  0000012000000075960000102441200    YCYC    005600390040
BI00B1200    #7242T52502    202206097187-3356                JOINT CONNECTOR          CCN000008400000008400FN00000000020220701000008400NNM   20220427153459    2F0F  0000012000000075960000102441200    YCYC    005600390040
BI00B1200    #7242T52503    202206167187-3356                JOINT CONNECTOR          CCN000008400000008400FN00000000020220701000008400NNM   20220427153459    2F0F  0000012000000075960000102441200    YCYC    005600390040
BI00B1200    #7242T52504    202206237187-3356                JOINT CONNECTOR          CCN000006000000006000FN00000000020220701000006000NNM   20220427153459    2F0F  0000012000000075960000102441200    YCYC    005600390040
BI00B1200    #7242T52505    202206307187-3356                JOINT CONNECTOR          CCN000006000000006000FN00000000020220701000006000NNM   20220427153459    2F0F  0000012000000075960000102441200    YCYC    005600390040
BI00B1200    #7242T52501    202206027187-3359-60             JOINT CONNECTOR          CCN000004800000004800FN00000000020220701000004800NNM   20220427153459    2F0F  0000012000000076320000103041200    YCYC    005600390040
BI00B1200    #7242T52502    202206097187-3359-60             JOINT CONNECTOR          CCN000006000000006000FN00000000020220701000006000NNM   20220427153459    2F0F  0000012000000076320000103041200    YCYC    005600390040
BI00B1200    #7242T52503    202206167187-3359-60             JOINT CONNECTOR          CCN000006000000006000FN00000000020220701000006000NNM   20220427153459    2F0F  0000012000000076320000103041200    YCYC    005600390040
BI00B1200    #7242T52504    202206237187-3359-60             JOINT CONNECTOR          CCN000002400000002400FN00000000020220701000002400NNM   20220427153459    2F0F  0000012000000076320000103041200    YCYC    005600390040
BI00B1200    #7242T52505    202206307187-3359-60             JOINT CONNECTOR          CCN000006000000006000FN00000000020220701000006000NNM   20220427153459    2F0F  0000012000000076320000103041200    YCYC    005600390040
BI00B1200    #7242T52501    202206027187-3360                JOINT CONNECTOR          CCN000003600000003600FN00000000020220701000003600NNM   20220427153459    2F0F  0000012000000075960000102681200    YCYC    005600390040
BI00B1200    #7242T52502    202206097187-3360                JOINT CONNECTOR          CCN000003600000003600FN00000000020220701000003600NNM   20220427153459    2F0F  0000012000000075960000102681200    YCYC    005600390040
BI00B1200    #7242T52503    202206167187-3360                JOINT CONNECTOR          CCN000002400000002400FN00000000020220701000002400NNM   20220427153459    2F0F  0000012000000075960000102681200    YCYC    005600390040
BI00B1200    #7242T52505    202206307187-3360                JOINT CONNECTOR          CCN000001200000001200FN00000000020220701000001200NNM   20220427153459    2F0F  0000012000000075960000102681200    YCYC    005600390040
BI00B1200    #7242T52501    202206027187-3361-40             JOINT CONNECTOR          CCN000001200000001200FN00000000020220701000001200NNM   20220427153459    2F0F  0000012000000067680000094401200    YCYC    005600390040
BI00B1200    #7242T52502    202206097187-3361-40             JOINT CONNECTOR          CCN000002400000002400FN00000000020220701000002400NNM   20220427153459    2F0F  0000012000000067680000094401200    YCYC    005600390040
BI00B1200    #7242T52503    202206167187-3361-40             JOINT CONNECTOR          CCN000002400000002400FN00000000020220701000002400NNM   20220427153459    2F0F  0000012000000067680000094401200    YCYC    005600390040
BI00B1200    #7242T52505    202206307187-3361-40             JOINT CONNECTOR          CCN000001200000001200FN00000000020220701000001200NNM   20220427153459    2F0F  0000012000000067680000094401200    YCYC    005600390040
BI00B1200    #7242T52502    202206097187-3358-30             JOINT CONNECTOR          CCN000002400000002400FN00000000020220701000002400NNM   20220427153459    2F0F  0000012000000067320000094041200    YCYC    005600390040
BI00B1200    #7242T52503    202206167187-3358-30             JOINT CONNECTOR          CCN000003600000003600FN00000000020220701000003600NNM   20220427153459    2F0F  0000012000000067320000094041200    YCYC    005600390040
BI00B1200    #7242T52504    202206237187-3358-30             JOINT CONNECTOR          CCN000002400000002400FN00000000020220701000002400NNM   20220427153459    2F0F  0000012000000067320000094041200    YCYC    005600390040
BI00B1200    #7242T52505    202206307187-3358-30             JOINT CONNECTOR          CCN000002400000002400FN00000000020220701000002400NNM   20220427153459    2F0F  0000012000000067320000094041200    YCYC    005600390040
BI00B1200    #7242T52502    202206097289-2274-60             JOINT CONNECTOR          CCN000001200000001200FN00000000020220701000001200NNM   20220427153459    2N0N  0000012000000068280000094991200    YCYC    005600390040
BI00B1200    #7242T52503    202206167187-3357-40             JOINT CONNECTOR          CCN000001200000001200FN00000000020220701000001200NNM   20220427153459    2F0F  0000012000000076200000102921200    YCYC    005600390040
BI00B1200    #7242T52505    202206307187-3357-40             JOINT CONNECTOR          CCN000001200000001200FN00000000020220701000001200NNM   20220427153459    2F0F  0000012000000076200000102921200    YCYC    005600390040
BI00B1200    7360T52501     202206027195-0783-08             TERMINAL                 CCN000030000000030000FN00000000020220701000030000NNM   20220427153626    4P0P  0000300000000050700000080121200    YCYC    006400630015
BI00B1200    7360T52502     202206097195-0783-08             TERMINAL                 CCN000030000000030000FN00000000020220701000030000NNM   20220427153626    4P0P  0000300000000050700000080121200    YCYC    006400630015
BI00B1200    7360T52503     202206167195-0783-08             TERMINAL                 CCN000030000000030000FN00000000020220701000030000NNM   20220427153626    4P0P  0000300000000050700000080121200    YCYC    006400630015
BI00B1200    7360T52501     202206027196-1104-02             TERMINAL                 CCN000067500000067500FN00000000020220701000067500NNM   20220427153626    4P0P  0000225000000044100000072621200    YCYC    006400630015
BI00B1200    7360T52502     202206097196-1104-02             TERMINAL                 CCN000067500000067500FN00000000020220701000067500NNM   20220427153626    4P0P  0000225000000044100000072621200    YCYC    006400630015
BI00B1200    7360T52503     202206167196-1104-02             TERMINAL                 CCN000067500000067500FN00000000020220701000067500NNM   20220427153626    4P0P  0000225000000044100000072621200    YCYC    006400630015
BI00B1200    7360T52501     202206027288-3329-30             HOUSING MALE             CCN000004500000004500FN00000000020220701000004500NNM   20220427153626    4N0N  0000015000000086610000101111200    YCYC    005400370024
BI00B1200    7360T52502     202206097288-3329-30             HOUSING MALE             CCN000004500000004500FN00000000020220701000004500NNM   20220427153626    4N0N  0000015000000086610000101111200    YCYC    005400370024
BI00B1200    7360T52503     202206167288-3329-30             HOUSING MALE             CCN000004500000004500FN00000000020220701000004500NNM   20220427153626    4N0N  0000015000000086610000101111200    YCYC    005400370024
BI00B1200    7360T52501     202206027288-3334-30             HOUSING MALE             CCN000004500000004500FN00000000020220701000004500NNM   20220427153626    4N0N  0000015000000086700000101201200    YCYC    005400370024
BI00B1200    7360T52502     202206097288-3334-30             HOUSING MALE             CCN000003000000003000FN00000000020220701000003000NNM   20220427153626    4N0N  0000015000000086700000101201200    YCYC    005400370024
BI00B1200    7360T52503     202206167288-3334-30             HOUSING MALE             CCN000003000000003000FN00000000020220701000003000NNM   20220427153626    4N0N  0000015000000086700000101201200    YCYC    005400370024
BI00B1200    7360T52501     202206027288-3335-30             HOUSING MALE             CCN000004500000004500FN00000000020220701000004500NNM   20220427153626    4N0N  0000015000000086700000101201200    YCYC    005400370024
BI00B1200    7360T52502     202206097288-3335-30             HOUSING MALE             CCN000004500000004500FN00000000020220701000004500NNM   20220427153626    4N0N  0000015000000086700000101201200    YCYC    005400370024
BI00B1200    7360T52503     202206167288-3335-30             HOUSING MALE             CCN000003000000003000FN00000000020220701000003000NNM   20220427153626    4N0N  0000015000000086700000101201200    YCYC    005400370024
BI00B1200    7360T52501     202206027288-6598-70             HOUSING MALE ASS'Y       CCN000005760000005760FN00000000020220701000005760NNM   20220427153626    4N0N  0000014400000107420000142921200    YCYC    005500360039
BI00B1200    7360T52502     202206097288-6598-70             HOUSING MALE ASS'Y       CCN000005760000005760FN00000000020220701000005760NNM   20220427153626    4N0N  0000014400000107420000142921200    YCYC    005500360039
BI00B1200    7360T52503     202206167288-6598-70             HOUSING MALE ASS'Y       CCN000004320000004320FN00000000020220701000004320NNM   20220427153626    4N0N  0000014400000107420000142921200    YCYC    005500360039
BI00B1200    7360T52501     202206027289-3342                HOUSING FEMALE ASS'Y     CCN000004800000004800FN00000000020220701000004800NNM   20220427153626    1N0N  0000024000000068640000090141200    YCYC    005500360039
BI00B1200    7360T52502     202206097289-3342                HOUSING FEMALE ASS'Y     CCN000002400000002400FN00000000020220701000002400NNM   20220427153626    1N0N  0000024000000068640000090141200    YCYC    005500360039
BI00B1200    7360T52503     202206167289-3342                HOUSING FEMALE ASS'Y     CCN000002400000002400FN00000000020220701000002400NNM   20220427153626    1N0N  0000024000000068640000090141200    YCYC    005500360039
BI00B1200    7360T52501     202206027289-6518-30             HOUSING FEMALE ASS'Y     CCN000001200000001200FN00000000020220701000001200NNM   20220427153626    1N0N  0000012000000082920000104921200    YCYC    005500360039
BI00B1200    7360T52501     202206027327-6809                MULTI FUSE               CCN000000560000000560FN00000000020220701000000560NNM   20220427153626    4N0N  0000005600000084930000106171200    YCYC    005400370024
BI00B1200    7360T52502     202206097327-6809                MULTI FUSE               CCN000000560000000560FN00000000020220701000000560NNM   20220427153626    4N0N  0000005600000084930000106171200    YCYC    005400370024
BI00B1200    7360T52501     202206027388-2978-30             HOUSING MALE ASS'Y       CCN000002880000002880FN00000000020220701000002880NNM   20220427153626    1N0N  0000004800000074200000112201200    YCYC    005500360039
BI00B1200    7360T52502     202206097388-2978-30             HOUSING MALE ASS'Y       CCN000002400000002400FN00000000020220701000002400NNM   20220427153626    1N0N  0000004800000074200000112201200    YCYC    005500360039
BI00B1200    7360T52503     202206167388-2978-30             HOUSING MALE ASS'Y       CCN000002400000002400FN00000000020220701000002400NNM   20220427153626    1N0N  0000004800000074200000112201200    YCYC    005500360039
BI00B1200    #7360T52501    202206027172-5625-90             RUBBER STOPPER           CCN000020000000020000FN00000000020220701000020000NNM   20220427153624    2H0H  0000200000000008240000013381200    YCYC    004300270014
BI00B1200    #7360T52501    202206027172-5626-90             RUBBER STOPPER           CCN000020000000020000FN00000000020220701000020000NNM   20220427153624    2H0H  0000200000000007640000012781200    YCYC    004300270014
BI00B1200    #7360T52501    202206027172-5627-60             RUBBER STOPPER           CCN000040000000040000FN00000000020220701000040000NNM   20220427153624    2H0H  0000200000000007040000012181200    YCYC    004300270014
BI00B1200    #7360T52502    202206097172-5627-60             RUBBER STOPPER           CCN000020000000020000FN00000000020220701000020000NNM   20220427153624    2H0H  0000200000000007040000012181200    YCYC    004300270014
BI00B1200    #7360T52503    202206167172-5627-60             RUBBER STOPPER           CCN000020000000020000FN00000000020220701000020000NNM   20220427153624    2H0H  0000200000000007040000012181200    YCYC    004300270014
BI00B1200    #7360T52501    202206027172-5628-80             DUMMY PLUG               CCN000020000000020000FN00000000020220701000020000NNM   20220427153624    2H0H  0000200000000011060000016201200    YCYC    004300270014
BI00B1200    #7360T52502    202206097172-5628-80             DUMMY PLUG               CCN000020000000020000FN00000000020220701000020000NNM   20220427153624    2H0H  0000200000000011060000016201200    YCYC    004300270014
BI00B1200    #7360T52503    202206167172-5628-80             DUMMY PLUG               CCN000020000000020000FN00000000020220701000020000NNM   20220427153624    2H0H  0000200000000011060000016201200    YCYC    004300270014
BI00B1200    #7360T52501    202206027172-5630-40             RUBBER STOPPER           CCN000120000000120000FN00000000020220701000120000NNM   20220427153624    2H0H  0000200000000004400000009511200    YCYC    004300270014
BI00B1200    #7360T52502    202206097172-5630-40             RUBBER STOPPER           CCN000120000000120000FN00000000020220701000120000NNM   20220427153624    2H0H  0000200000000004400000009511200    YCYC    004300270014
BI00B1200    #7360T52503    202206167172-5630-40             RUBBER STOPPER           CCN000100000000100000FN00000000020220701000100000NNM   20220427153624    2H0H  0000200000000004400000009511200    YCYC    004300270014
BI00B1200    #7360T52501    202206027172-5632-10             DUMMY PLUG               CCN000240000000240000FN00000000020220701000240000NNM   20220427153624    2H0H  0000200000000008040000013181200    YCYC    004300270014
BI00B1200    #7360T52502    202206097172-5632-10             DUMMY PLUG               CCN000220000000220000FN00000000020220701000220000NNM   20220427153624    2H0H  0000200000000008040000013181200    YCYC    004300270014
BI00B1200    #7360T52503    202206167172-5632-10             DUMMY PLUG               CCN000220000000220000FN00000000020220701000220000NNM   20220427153624    2H0H  0000200000000008040000013181200    YCYC    004300270014
BI00B1200    #7360T52501    202206027188-3035                HOUSING MALE             CCN000002400000002400FN00000000020220701000002400NNM   20220427153624    2F0F  0000024000000069360000091361200    YCYC    005500360039
BI00B1200    #7360T52502    202206097188-3035                HOUSING MALE             CCN000002400000002400FN00000000020220701000002400NNM   20220427153624    2F0F  0000024000000069360000091361200    YCYC    005500360039
BI00B1200    #7360T52501    202206027189-2978-30             HOUSING FEMALE           CCN000003000000003000FN00000000020220701000003000NNM   20220427153624    2F0F  0000015000000096690000109691200    YCYC    005400370024
BI00B1200    #7360T52502    202206097189-2978-30             HOUSING FEMALE           CCN000003000000003000FN00000000020220701000003000NNM   20220427153624    2F0F  0000015000000096690000109691200    YCYC    005400370024
BI00B1200    #7360T52503    202206167189-2978-30             HOUSING FEMALE           CCN000001500000001500FN00000000020220701000001500NNM   20220427153624    2F0F  0000015000000096690000109691200    YCYC    005400370024
BI00B1200    #7360T52501    202206027189-3031                HOUSING FEMALE           CCN000002400000002400FN00000000020220701000002400NNM   20220427153624    2F0F  0000024000000092880000136581200    YCYC    005500360039
BI00B1200    #7360T52501    202206027189-3032-30             HOUSING FEMALE           CCN000001600000001600FN00000000020220701000001600NNM   20220427153624    2F0F  0000016000000080160000102161200    YCYC    005500360039
BI00B1200    #7360T52501    202206027289-2912-30             HOUSING FEMALE ASS'Y     CCN000002000000002000FN00000000020220701000002000NNM   20220427153624    2N0N  0000020000000080400000092901200    YCYC    005400370024
BI00B1200    #7360T52501    202206027289-2913-30             HOUSING FEMALE ASS'Y     CCN000001500000001500FN00000000020220701000001500NNM   20220427153624    2N0N  0000015000000090750000103451200    YCYC    005400370024
BI00B1200    #7360T52502    202206097289-2913-30             HOUSING FEMALE ASS'Y     CCN000001500000001500FN00000000020220701000001500NNM   20220427153624    2N0N  0000015000000090750000103451200    YCYC    005400370024
BI00B1200    #7360T52501    202206027289-2914-40             HOUSING FEMALE ASS'Y     CCN000001500000001500FN00000000020220701000001500NNM   20220427153624    2N0N  0000015000000090450000103151200    YCYC    005400370024
BI00B1200    #7360T52502    202206097289-2914-40             HOUSING FEMALE ASS'Y     CCN000001500000001500FN00000000020220701000001500NNM   20220427153624    2N0N  0000015000000090450000103151200    YCYC    005400370024
BI00B1200    #7360T52503    202206167289-2914-40             HOUSING FEMALE ASS'Y     CCN000001500000001500FN00000000020220701000001500NNM   20220427153624    2N0N  0000015000000090450000103151200    YCYC    005400370024
BI00B1200    #7360T52501    202206027289-2915-30             HOUSING FEMALE ASS'Y     CCN000001500000001500FN00000000020220701000001500NNM   20220427153624    2N0N  0000015000000096450000109151200    YCYC    005400370024
BI00B1200    #7360T52502    202206097289-2915-30             HOUSING FEMALE ASS'Y     CCN000001500000001500FN00000000020220701000001500NNM   20220427153624    2N0N  0000015000000096450000109151200    YCYC    005400370024
BI00B1200    #7360T52501    202206027289-2917-30             HOUSING FEMALE ASS'Y     CCN000001000000001000FN00000000020220701000001000NNM   20220427153624    2N0N  0000010000000096400000109101200    YCYC    005400370024
BI00B1200    #7360T52501    202206027289-3622-30             HOUSING FEMALE ASS'Y     CCN000000864000000864FN00000000020220701000000864NNM   20220427153624    2N0N  0000004320000083940000103841200    YCYC    005400370024
BI00B1200    #7360T52502    202206097289-3622-30             HOUSING FEMALE ASS'Y     CCN000000864000000864FN00000000020220701000000864NNM   20220427153624    2N0N  0000004320000083940000103841200    YCYC    005400370024
BI00B1200    #7360T52503    202206167289-3622-30             HOUSING FEMALE ASS'Y     CCN000000864000000864FN00000000020220701000000864NNM   20220427153624    2N0N  0000004320000083940000103841200    YCYC    005400370024
BI00B1200    7360T52504     202205267288-3337-30             HOUSING MALE             CCN000018000000018000FN00000000020220601000018000NNE   20220427153703    4N0N  0000015000000086700000101201200    YCYC    005400370024
BI00B1200    7360T52504     202205267288-6598-70             HOUSING MALE ASS'Y       CCN000001440000001440FN00000000020220601000001440NNE   20220427153703    4N0N  0000014400000107420000142921200    YCYC    005500360039
BI00B1200    7360T52504     202205267289-6597-70             HOUSING FEMALE ASS'Y     CCN000002160000002160FN00000000020220601000002160NNE   20220427153703    4N0N  0000021600000128950000153951200    YCYC    005500360039
BI00B1200    7360T52504     202205267388-2978-30             HOUSING MALE ASS'Y       CCN000000960000000960FN00000000020220601000000960NNE   20220427153703    1N0N  0000004800000074200000112201200    YCYC    005500360039
BI00B1200    #7360T52504    202205267172-5626-90             RUBBER STOPPER           CCN000020000000020000FN00000000020220601000020000NNE   20220427153656    2H0H  0000200000000007640000012781200    YCYC    004300270014
BI00B1200    #7360T52504    202205267172-5628-80             DUMMY PLUG               CCN000020000000020000FN00000000020220601000020000NNE   20220427153656    2H0H  0000200000000011060000016201200    YCYC    004300270014
BI00B1200    #7360T52504    202205267172-5630-40             RUBBER STOPPER           CCN000040000000040000FN00000000020220601000040000NNE   20220427153656    2H0H  0000200000000004400000009511200    YCYC    004300270014
BI00B1200    7860T52501     202206027158-3022-80             RUBBER STOPPER           CCN000015000000015000FN00000000020220701000015000NNM   20220427153816    1C0C  0000050000000046750000052401200    YCYC    002700430014
BI00B1200    7860T52505     202206307289-3342-30             HOUSING FEMALE ASS'Y     CCN000002400000002400FN00000000020220701000002400NNM   20220427153816    1N0N  0000024000000068640000090141200    YCYC    005500360039
BI00B1200    #7860T52501    202206027172-5632-10             DUMMY PLUG               CCN000020000000020000FN00000000020220701000020000NNM   20220427153814    2H0H  0000200000000008040000013181200    YCYC    004300270014
BI00B1200    #7860T52502    202206097172-5632-10             DUMMY PLUG               CCN000040000000040000FN00000000020220701000040000NNM   20220427153814    2H0H  0000200000000008040000013181200    YCYC    004300270014
BI00B1200    #7860T52503    202206167172-5632-10             DUMMY PLUG               CCN000040000000040000FN00000000020220701000040000NNM   20220427153814    2H0H  0000200000000008040000013181200    YCYC    004300270014
BI00B1200    #7860T52504    202206237172-5632-10             DUMMY PLUG               CCN000040000000040000FN00000000020220701000040000NNM   20220427153814    2H0H  0000200000000008040000013181200    YCYC    004300270014
BI00B1200    #7860T52501    202206027189-3031                HOUSING FEMALE           CCN000002400000002400FN00000000020220701000002400NNM   20220427153814    2F0F  0000024000000092880000136581200    YCYC    005500360039
BI00B1200    #7860T52502    202206097189-3031                HOUSING FEMALE           CCN000002400000002400FN00000000020220701000002400NNM   20220427153814    2F0F  0000024000000092880000136581200    YCYC    005500360039
BI00B1200    #7860T52503    202206167189-3031                HOUSING FEMALE           CCN000002400000002400FN00000000020220701000002400NNM   20220427153814    2F0F  0000024000000092880000136581200    YCYC    005500360039
BI00B1200    #7860T52504    202206237189-3031                HOUSING FEMALE           CCN000002400000002400FN00000000020220701000002400NNM   20220427153814    2F0F  0000024000000092880000136581200    YCYC    005500360039
BI00B1200    8100T52501     202206237289-9553-30             SEALED ASSY FEMALE       CCN000002940000002940FN00000000020220701000002940NNM   20220427153915    4N0N  0000029400000110900000152151200    YCYC    005500360039
BI00B1200    #8100T52502    202206097174-1760-50             CAP                      CCN000003000000003000FN00000000020220701000003000NNM   20220427153950    2F0F  0000030000000081360000092261200    YCYC    005400370024
BI00B1200    #8100T52503    202206167174-1760-50             CAP                      CCN000003000000003000FN00000000020220701000003000NNM   20220427154041    2F0F  0000030000000081360000092261200    YCYC    005400370024
BI00B1200    #8100T52504    202206237174-1760-50             CAP                      CCN000003000000003000FN00000000020220701000003000NNM   20220427154104    2F0F  0000030000000081360000092261200    YCYC    005400370024
BI00B1200    8100T52505     202206027288-3331-30             HOUSING MALE             CCN000001500000001500FN00000000020220701000001500NNM   20220427154136    4N0N  0000015000000086600000101091200    YCYC    005400370024
BI00B1200    8100T52505     202206027288-3333-30             HOUSING MALE             CCN000001500000001500FN00000000020220701000001500NNM   20220427154136    4N0N  0000015000000086700000101201200    YCYC    005400370024
BI00B1200    8100T52505     202206027288-3334-30             HOUSING MALE             CCN000001500000001500FN00000000020220701000001500NNM   20220427154136    4N0N  0000015000000086700000101201200    YCYC    005400370024
BI00B1200    8100T52505     202206027288-3335-30             HOUSING MALE             CCN000001500000001500FN00000000020220701000001500NNM   20220427154136    4N0N  0000015000000086700000101201200    YCYC    005400370024
BI00B1200    8100T52505     202206027288-3338-30             HOUSING MALE             CCN000001500000001500FN00000000020220701000001500NNM   20220427154136    4N0N  0000015000000086610000101201200    YCYC    005400370024
BI00B1200    8100T52505     202206027288-3339-30             HOUSING MALE             CCN000003000000003000FN00000000020220701000003000NNM   20220427154136    4N0N  0000015000000086700000101201200    YCYC    005400370024
BI00B1200    8100T52505     202206027288-3340-30             HOUSING MALE             CCN000001500000001500FN00000000020220701000001500NNM   20220427154136    4N0N  0000015000000086150000100641200    YCYC    005400370024
BI00B1200    8100T52505     202206027288-6547                CONNECTOR MALE ASS'Y     CCN000001500000001500FN00000000020220701000001500NNM   20220427154136    4N0N  0000007500000120530000134031200    YCYC    005400370024
BI00B1200    8100T52505     202206027289-3342-30             HOUSING FEMALE ASS'Y     CCN000004800000004800FN00000000020220701000004800NNM   20220427154136    1N0N  0000024000000068640000090141200    YCYC    005500360039
BI00B1200    8100T52505     202206027388-2978-30             HOUSING MALE ASS'Y       CCN000001920000001920FN00000000020220701000001920NNM   20220427154136    1N0N  0000004800000074200000112201200    YCYC    005500360039
BI00B1200    #8100T52505    202206027189-2978-30             HOUSING FEMALE           CCN000001500000001500FN00000000020220701000001500NNM   20220427154134    2F0F  0000015000000096690000109691200    YCYC    005400370024
BI00B1200    #8100T52505    202206027289-3622-30             HOUSING FEMALE ASS'Y     CCN000000864000000864FN00000000020220701000000864NNM   20220427154134    2N0N  0000004320000083940000103841200    YCYC    005400370024
BI00B1200    8100T52506     202206027137-3047-30             UNIT PACKING             CCN000001000000001000FN00000000020220701000001000NNM   20220427154244    1C0C  0000010000000017050000021891200    YCYC    002700430014
BI00B1200    8100T52506     202206027196-1103-02             TERMINAL                 CCN000022500000022500FN00000000020220701000022500NNM   20220427154244    4P0P  0000225000000042980000071501200    YCYC    006400630015
BI00B1200    8100T52507     202206097196-1103-02             TERMINAL                 CCN000022500000022500FN00000000020220701000022500NNM   20220427154244    4P0P  0000225000000042980000071501200    YCYC    006400630015
BI00B1200    #8100T52506    202206027154-5597-30             CASSETTE R/B             CCN000001600000001600FN00000000020220701000001600NNM   20220427154242    2F0F  0000008000000073600000095201200    YCYC    005500360039
BI00B1200    #8100T52507    202206097154-5597-30             CASSETTE R/B             CCN000001600000001600FN00000000020220701000001600NNM   20220427154242    2F0F  0000008000000073600000095201200    YCYC    005500360039
BI00B1200    #8100T52508    202206167154-5597-30             CASSETTE R/B             CCN000002400000002400FN00000000020220701000002400NNM   20220427154242    2F0F  0000008000000073600000095201200    YCYC    005500360039
BI00B1200    #8100T52506    202206027172-5629-80             RUBBER STOPPER           CCN000020000000020000FN00000000020220701000020000NNM   20220427154242    2H0H  0000200000000006000000011111200    YCYC    004300270014
BI00B1200    #8100T52507    202206097172-5629-80             RUBBER STOPPER           CCN000020000000020000FN00000000020220701000020000NNM   20220427154242    2H0H  0000200000000006000000011111200    YCYC    004300270014
BI00B1200    #8100T52506    202206027172-5632-10             DUMMY PLUG               CCN000060000000060000FN00000000020220701000060000NNM   20220427154242    2H0H  0000200000000008040000013181200    YCYC    004300270014
BI00B1200    #8100T52507    202206097172-5632-10             DUMMY PLUG               CCN000060000000060000FN00000000020220701000060000NNM   20220427154242    2H0H  0000200000000008040000013181200    YCYC    004300270014
BI00B32AG    XG22084CMW     202207297B96-0805-02             TERMINAL FEMALE          CCN000022500000022500FN00000000020220801000022500NNM   20220427143054    4P0P  00002250000000558000000843232AG    XGXGY   006400630015
BI00B32AG    XG22084CMW     202207297C89-6868-30             SEALED ASSY FEMALE       CCN000007560000007560FN00000000020220801000007560NNM   20220427143054    4N0N  00000252000000839200001119232AG    XGXGY   005500360039
BI00B32AG    XG22084CMW     202207297116-1685-02             TERMINAL                 CCN000024000000024000FN00000000020220801000024000NNM   20220427143054    4P0P  00002400000000897600001065232AG    XGXGY   005100280028
BI00B32AG    XG22084CMW     202207297116-4032                TERMINAL                 CCN000012000000012000FN00000000020220801000012000NNM   20220427143054    4P0P  00000600000000532800000818032AG    XGXGY   006400630015
BI00B32AG    XG22084CMW     202207297116-6041                TERMINAL                 CCN000036000000036000FN00000000020220801000036000NNM   20220427143054    4P0P  00000450000000716000001009632AG    XGXGY   006400630015
BI00B32AG    XG22083CMW     202207227172-5540-80             SEALED WIRE SEAL         CCN000020000000020000FN00000000020220801000020000NNM   20220427143054    1C0C  00002000000000186000000234432AG    XGXGY   004300270014
BI00B32AG    XG22084CMW     202207297172-5540-80             SEALED WIRE SEAL         CCN000020000000020000FN00000000020220801000020000NNM   20220427143054    1C0C  00002000000000186000000234432AG    XGXGY   004300270014
BI00B32AG    XG22084CMW     202207297196-0805-02             TERMINAL FEMALE          CCN000022500000022500FN00000000020220801000022500NNM   20220427143054    4P0P  00002250000000558000000843232AG    XGXGY   006400630015
BI00B32AG    XG22084CMW     202207297298-3822-70             HOUSING FEMALE ASS'Y     CCN000007560000007560FN00000000020220801000007560NNM   20220427143054    4N0N  00000252000000776200001077032AG    XGXGY   005500360039
BI00B32AG    XG22084CMW     202207297327-6832-60             MAIN FUSE                CCN000002400000002400FN00000000020220801000002400NNM   20220427143054    4N0N  00000060000000729200000930732AG    XGXGY   005400370024
BI00B32AG    XG22082CMW     202207157327-6908                MAIN FUSE                CCN000000600000000600FN00000000020220801000000600NNM   20220427143054    4N0N  00000060000000730400000915432AG    XGXGY   005400370024
BI00B32AG    XG22083CMW     202207227327-6908                MAIN FUSE                CCN000000600000000600FN00000000020220801000000600NNM   20220427143054    4N0N  00000060000000730400000915432AG    XGXGY   005400370024
BI00B32AG    XG22084CMW     202207297327-6908                MAIN FUSE                CCN000001200000001200FN00000000020220801000001200NNM   20220427143054    4N0N  00000060000000730400000915432AG    XGXGY   005400370024
BI00B32AG    XG22084CMW     202207297388-0316-80             CONNECTOR ASS'Y          CCN000002400000002400FN00000000020220801000002400NNM   20220427143054    4N0N  00000120000001002500001132532AG    XGXGY   005400370024
BI00B32AG    #XG22084CMW    202207297157-3821                RUBBER STOPPER           CCN000020000000020000FN00000000020220801000020000NNM   20220427143051    2C0C  00002000000000176000000238032AG    XGXGY   002700430014
BI00B32AG    #XG22084CMW    202207297198-1371-60             HOUSING FEMALE           CCN000006000000006000FN00000000020220801000006000NNM   20220427143051    2F0F  00000200000000597800000721232AG    XGXGY   005400370024
BI00B32AG    #XG22084CMW    202207297198-1372                HOUSING FEMALE           CCN000004000000004000FN00000000020220801000004000NNM   20220427143051    2F0F  00000200000000857200000982232AG    XGXGY   005400370024
BI00B32AG    #XG22084CMW    202207297198-1373-60             HOUSING FEMALE           CCN000004000000004000FN00000000020220801000004000NNM   20220427143051    2F0F  00000200000000819400000947432AG    XGXGY   005400370024
BI00B32AG    #XG22084CMW    202207297198-2458                HOUSING FEMALE           CCN000003520000003520FN00000000020220801000003520NNM   20220427143051    2F0F  00000176000000869100001160532AG    XGXGY   005400370024
BI00B32AG    #XG22084CMW    202207297298-2459-60             LIF FEMALE ASSEMBLY      CCN000004536000004536FN00000000020220801000004536NNM   20220427143051    2N0N  00000016800000534000000729632AG    XGXGY   005400370024
BI00B32AG    #XG22084IMW    202207297189-3031-30             HOUSING FEMALE           CCN000002400000002400FN00000000020220801000002400NNM   20220427143127    2F0F  00000240000000928800001365832AG    XGXGY   005500360039
BI00B32AG    XG22081KMW     202207017196-0104-02             TERMINAL                 CCN000038000000038000FN00000000020220801000038000NNM   20220427143201    4P0P  00003800000000570000000956432AG    XGXGY   006400630017
BI00B32AG    XG22084KMW     202207297289-0269                HOUSING SUB ASSEMBLY     CCN000001600000001600FN00000000020220801000001600NNM   20220427143201    1N0N  00000160000001002100001234532AG    XGXGY   005500360039
BI00B32AG    XG22081KMW     202207017327-6469-3W             BATTERY FUSE             CCN000000096000000096FN00000000020220801000000096NNM   20220427143201    4N0N  00000009600000832300001012332AG    XGXGY   005400370024
BI00B32AG    XG22082KMW     202207157327-6469-3W             BATTERY FUSE             CCN000000480000000480FN00000000020220801000000480NNM   20220427143201    4N0N  00000009600000832300001012332AG    XGXGY   005400370024
BI00B32AG    XG22083KMW     202207227327-6469-3W             BATTERY FUSE             CCN000000480000000480FN00000000020220801000000480NNM   20220427143201    4N0N  00000009600000832300001012332AG    XGXGY   005400370024
BI00B32AG    XG22084KMW     202207297327-6469-3W             BATTERY FUSE             CCN000000288000000288FN00000000020220801000000288NNM   20220427143201    4N0N  00000009600000832300001012332AG    XGXGY   005400370024
BI00B32AG    @XG22083KMW    202207227283-1223-30             HOUSING SUB ASSEMBLY     CCN000004800000004800FN00000000020220801000004800NNM   20220427143157    3N0N  00000480000000749300000998032AG    XGXGY   005500360039
BI00B32AG    XG22084LMW     202207297116-4025                TERMINAL                 CCN000064000000064000FN00000000020220801000064000NNM   20220427143227    4P0P  00001600000000644800000975132AG    XGXGY   006400630017
BI00B32AG    XG22084LMW     202207297172-1372-10             FRONT HOLDER             CCN000003900000003900FN00000000020220801000003900NNM   20220427143227    4F0F  00000390000000655200000955232AG    XGXGY   005500360039
BI00B32AG    XG22081LMW     202207017283-1968-30             CONNECTOR                CCN000000900000000900FN00000000020220801000000900NNM   20220427143227    1N0N  00000090000001140000001318332AG    XGXGY   005600390040
BI00B32AG    XG22084LMW     202207297283-1968-30             CONNECTOR                CCN000000900000000900FN00000000020220801000000900NNM   20220427143227    1N0N  00000090000001140000001318332AG    XGXGY   005600390040
BI00B32AG    XG22083LMW     202207227283-5843                CONNECTOR                CCN000001500000001500FN00000000020220801000001500NNM   20220427143227    1N0N  00000150000000889000001132032AG    XGXGY   005600390040
BI00B32AG    XG22084LMW     202207297289-4696-30             HOUSING FEMALE ASS'Y     CCN000002000000002000FN00000000020220801000002000NNM   20220427143227    4N0N  00000200000000913400001055432AG    XGXGY   005400370024
BI00B32AG    XG22084LMW     202207297289-7615-30             HOUSING FEMALE ASS'Y     CCN000001600000001600FN00000000020220801000001600NNM   20220427143227    4N0N  00000032000000738000000948032AG    XGXGY   005400370024
BI00B32AG    XG22081LMW     202207017388-0314                CONNECTOR ASS'Y          CCN000001200000001200FN00000000020220801000001200NNM   20220427143227    4N0N  00000120000001038000001132332AG    XGXGY   005400370024
BI00B32AG    XG22083LMW     202207227388-0314                CONNECTOR ASS'Y          CCN000001200000001200FN00000000020220801000001200NNM   20220427143227    4N0N  00000120000001038000001132332AG    XGXGY   005400370024
BI00B32AG    #XG22084LMW    202207297157-3992-90             CONNECTOR SEALED         CCN000040000000040000FN00000000020220801000040000NNM   20220427143225    2C0C  00004000000000300000000363332AG    XGXGY   002700430014
BI00B32AG    #XG22084LMW    202207297158-3003-90             RUBBER STOPPER           CCN000020000000020000FN00000000020220801000020000NNM   20220427143225    2C0C  00002000000000250000000306032AG    XGXGY   002700430014
BI00B32AG    #XG22082LMW    202207157158-3007-10             RUBBER STOPPER           CCN000020000000020000FN00000000020220801000020000NNM   20220427143225    2H0H  00002000000000308000000362732AG    XGXGY   002700430014
BI00B32AG    #XG22084LMW    202207297158-3008-80             RUBBER STOPPER           CCN000020000000020000FN00000000020220801000020000NNM   20220427143225    2C0C  00002000000000288000000343032AG    XGXGY   004300270014
BI00B32AG    #XG22083LMW    202207227158-3120-90             CONNECTOR WIRE SEAL      CCN000020000000020000FN00000000020220801000020000NNM   20220427143225    2C0C  00002000000000136000000194032AG    XGXGY   002700430014
BI00B32AG    #XG22084LMW    202207297158-3120-90             CONNECTOR WIRE SEAL      CCN000060000000060000FN00000000020220801000060000NNM   20220427143225    2C0C  00002000000000136000000194032AG    XGXGY   002700430014
