BI00A32G0    TZ2206AEMW     2022052018000004530              AV 8 B                   CCN000000500000000500FN00000000020220601000000500NNE   20220427121823    1W    00000010000010466200000000032G0    TTTJY   000000000000NI424001
BI00A32G0    TZ2206AEMW     2022052018000004534              AV 8 B/W                 CCN000032400000032400FN00000000020220601000032400NNE   20220427121823    1W    00000010000010466200000000032G0    TTTJY   000000000000NI424002
BI00A32G0    TZ2206AEMW     2022052018000004550              AV 8 R                   CCN000001000000001000FN00000000020220601000001000NNE   20220427121823    1W    00000010000010466200000000032G0    TTTJY   000000000000NI424003
BI00A32G0    TZ2206AEMW     2022052018000004540              AV 8 W                   CCN000021200000021200FN00000000020220601000021200NNE   20220427121823    1W    00000010000010466200000000032G0    TTTJY   000000000000NI424004
BI00A32G0    TZ2206AEMW     2022052018000004543              AV 8 W/B                 CCN000017500000017500FN00000000020220601000017500NNE   20220427121823    1W    00000010000010466200000000032G0    TTTJY   000000000000NI424005
BI00A32G0    TZ2206AEMW     2022052018009604330              AVS 3 B                  CCN000084000000084000FN00000000020220601000084000NNE   20220427121823    1W    00000040000003831600000000032G0    TTTJY   000000000000NI424018
BI00A32G0    TZ2206AEMW     2022052018009604360              AVS 3 G                  CCN000000800000000800FN00000000020220601000000800NNE   20220427121823    1W    00000040000003831600000000032G0    TTTJY   000000000000NI424019
BI00A32G0    TZ2206AEMW     2022052018009604390              AVS 3 L                  CCN000080400000080400FN00000000020220601000080400NNE   20220427121823    1W    00000040000003831600000000032G0    TTTJY   000000000000NI424020
BI00A32G0    TZ2206AEMW     2022052018009604350              AVS 3 R                  CCN000034800000034800FN00000000020220601000034800NNE   20220427121823    1W    00000040000003831600000000032G0    TTTJY   000000000000NI424021
BI00A32G0    TZ2206AEMW     2022052018009604340              AVS 3 W                  CCN000010800000010800FN00000000020220601000010800NNE   20220427121823    1W    00000040000003831600000000032G0    TTTJY   000000000000NI424022
BI00A32G0    TZ2206AEMW     2022052018009604343              AVS 3 W/B                CCN000168400000168400FN00000000020220601000168400NNE   20220427121823    1W    00000040000003831600000000032G0    TTTJY   000000000000NI424023
BI00A32G0    TZ2206AEMW     2022052018009604430              AVS 5 B                  CCN000030400000030400FN00000000020220601000030400NNE   20220427121823    1W    00000020000005981000000000032G0    TTTJY   000000000000NI424024
BI00A32G0    TZ2206AEMW     2022052018009604450              AVS 5 R                  CCN000005800000005800FN00000000020220601000005800NNE   20220427121823    1W    00000020000005981000000000032G0    TTTJY   000000000000NI424025
BI00A32G0    TZ2206AEMW     2022052018009604440              AVS 5 W                  CCN000001200000001200FN00000000020220601000001200NNE   20220427121823    1W    00000020000005981000000000032G0    TTTJY   000000000000NI424026
BI00A32G0    TZ2206AEMW     2022052018007704230              AVSS 2F B                CCN000068500000068500FN00000000020220601000068500NNE   20220427121823    1W    00000050000002126400000000032G0    TTTJY   000000000000NI424006
BI00A32G0    TZ2206AEMW     202205201800770425U              AVSS 2F BE               CCN000001500000001500FN00000000020220601000001500NNE   20220427121823    1W    00000050000002126400000000032G0    TTTJY   000000000000NI424007
BI00A32G0    TZ2206AEMW     2022052018007704260              AVSS 2F G                CCN000048000000048000FN00000000020220601000048000NNE   20220427121823    1W    00000050000002126400000000032G0    TTTJY   000000000000NI424008
BI00A32G0    TZ2206AEMW     2022052018007704241              AVSS 2F GY               CCN000011000000011000FN00000000020220601000011000NNE   20220427121823    1W    00000050000002126400000000032G0    TTTJY   000000000000NI424009
BI00A32G0    TZ2206AEMW     2022052018007704290              AVSS 2F L                CCN000067500000067500FN00000000020220601000067500NNE   20220427121823    1W    00000050000002126400000000032G0    TTTJY   000000000000NI424010
BI00A32G0    TZ2206AEMW     2022052018007704261              AVSS 2F LG               CCN000029500000029500FN00000000020220601000029500NNE   20220427121823    1W    00000050000002126400000000032G0    TTTJY   000000000000NI424011
BI00A32G0    TZ2206AEMW     2022052018007704252              AVSS 2F P                CCN000006500000006500FN00000000020220601000006500NNE   20220427121823    1W    00000050000002126400000000032G0    TTTJY   000000000000NI424012
BI00A32G0    TZ2206AEMW     2022052018007704250              AVSS 2F R                CCN000028500000028500FN00000000020220601000028500NNE   20220427121823    1W    00000050000002126400000000032G0    TTTJY   000000000000NI424013
BI00A32G0    TZ2206AEMW     2022052018007704292              AVSS 2F V                CCN000020000000020000FN00000000020220601000020000NNE   20220427121823    1W    00000050000002126400000000032G0    TTTJY   000000000000NI424014
BI00A32G0    TZ2206AEMW     2022052018007704240              AVSS 2F W                CCN000025000000025000FN00000000020220601000025000NNE   20220427121823    1W    00000050000002126400000000032G0    TTTJY   000000000000NI424015
BI00A32G0    TZ2206AEMW     2022052018007704243              AVSS 2F W/B              CCN000110000000110000FN00000000020220601000110000NNE   20220427121823    1W    00000050000002126400000000032G0    TTTJY   000000000000NI424016
BI00A32G0    TZ2206AEMW     2022052018007704270              AVSS 2F Y                CCN000009000000009000FN00000000020220601000009000NNE   20220427121823    1W    00000050000002126400000000032G0    TTTJY   000000000000NI424017
BI00A32G0    TZ2206AEMW     202205201801W006930              IVSSH 0.35F B            CCN000090000000090000FN00000000020220601000090000NNE   20220427121823    1W    00000250000000452000000000032G0    TTTJY   000000000000NI424039
BI00A32G0    TZ2206AEMW     202205201801W00695U              IVSSH 0.35F BE           CCN000007500000007500FN00000000020220601000007500NNE   20220427121823    1W    00000250000000452000000000032G0    TTTJY   000000000000NI424040
BI00A32G0    TZ2206AEMW     202205201801W006980              IVSSH 0.35F BR           CCN000032500000032500FN00000000020220601000032500NNE   20220427121823    1W    00000250000000452000000000032G0    TTTJY   000000000000NI424041
BI00A32G0    TZ2206AEMW     202205201801W006960              IVSSH 0.35F G            CCN000110000000110000FN00000000020220601000110000NNE   20220427121823    1W    00000250000000452000000000032G0    TTTJY   000000000000NI424042
BI00A32G0    TZ2206AEMW     202205201801W006941              IVSSH 0.35F GY           CCN000052500000052500FN00000000020220601000052500NNE   20220427121823    1W    00000250000000452000000000032G0    TTTJY   000000000000NI424043
BI00A32G0    TZ2206AEMW     202205201801W006990              IVSSH 0.35F L            CCN000032500000032500FN00000000020220601000032500NNE   20220427121823    1W    00000250000000452000000000032G0    TTTJY   000000000000NI424044
BI00A32G0    TZ2206AEMW     202205201801W006961              IVSSH 0.35F LG           CCN000077500000077500FN00000000020220601000077500NNE   20220427121823    1W    00000250000000452000000000032G0    TTTJY   000000000000NI424045
BI00A32G0    TZ2206AEMW     202205201801W006952              IVSSH 0.35F P            CCN000117500000117500FN00000000020220601000117500NNE   20220427121823    1W    00000250000000452000000000032G0    TTTJY   000000000000NI424046
BI00A32G0    TZ2206AEMW     202205201801W006950              IVSSH 0.35F R            CCN000115000000115000FN00000000020220601000115000NNE   20220427121823    1W    00000250000000452000000000032G0    TTTJY   000000000000NI424047
BI00A32G0    TZ2206AEMW     202205201801W006991              IVSSH 0.35F SB           CCN000110000000110000FN00000000020220601000110000NNE   20220427121823    1W    00000250000000452000000000032G0    TTTJY   000000000000NI424048
BI00A32G0    TZ2206AEMW     202205201801W006992              IVSSH 0.35F V            CCN000045000000045000FN00000000020220601000045000NNE   20220427121823    1W    00000250000000452000000000032G0    TTTJY   000000000000NI424049
BI00A32G0    TZ2206AEMW     202205201801W006940              IVSSH 0.35F W            CCN000080000000080000FN00000000020220601000080000NNE   20220427121823    1W    00000250000000452000000000032G0    TTTJY   000000000000NI424050
BI00A32G0    TZ2206AEMW     202205201801W006943              IVSSH 0.35F W/B          CCN000035000000035000FN00000000020220601000035000NNE   20220427121823    1W    00000250000000452000000000032G0    TTTJY   000000000000NI424051
BI00A32G0    TZ2206AEMW     202205201801W006970              IVSSH 0.35F Y            CCN000030000000030000FN00000000020220601000030000NNE   20220427121823    1W    00000250000000452000000000032G0    TTTJY   000000000000NI424052
BI00A32G0    TZ2206AEMW     202205201801W003930              IVSSH 0.5F B             CCN000005400000005400FN00000000020220601000005400NNE   20220427121823    1W    00000180000000625000000000032G0    TTTJY   000000000000NI424027
BI00A32G0    TZ2206AEMW     202205201801W003960              IVSSH 0.5F G             CCN000014400000014400FN00000000020220601000014400NNE   20220427121823    1W    00000180000000625000000000032G0    TTTJY   000000000000NI424028
BI00A32G0    TZ2206AEMW     202205201801W003941              IVSSH 0.5F GY            CCN000012600000012600FN00000000020220601000012600NNE   20220427121823    1W    00000180000000625000000000032G0    TTTJY   000000000000NI424029
BI00A32G0    TZ2206AEMW     202205201801W003990              IVSSH 0.5F L             CCN000010800000010800FN00000000020220601000010800NNE   20220427121823    1W    00000180000000625000000000032G0    TTTJY   000000000000NI424030
BI00A32G0    TZ2206AEMW     202205201801W003952              IVSSH 0.5F P             CCN000010800000010800FN00000000020220601000010800NNE   20220427121823    1W    00000180000000625000000000032G0    TTTJY   000000000000NI424031
BI00A32G0    TZ2206AEMW     202205201801W003950              IVSSH 0.5F R             CCN000030600000030600FN00000000020220601000030600NNE   20220427121823    1W    00000180000000625000000000032G0    TTTJY   000000000000NI424032
BI00A32G0    TZ2206AEMW     202205201801W003991              IVSSH 0.5F SB            CCN000012600000012600FN00000000020220601000012600NNE   20220427121823    1W    00000180000000625000000000032G0    TTTJY   000000000000NI424033
BI00A32G0    TZ2206AEMW     202205201801W003992              IVSSH 0.5F V             CCN000045000000045000FN00000000020220601000045000NNE   20220427121823    1W    00000180000000625000000000032G0    TTTJY   000000000000NI424034
BI00A32G0    TZ2206AEMW     202205201801W003940              IVSSH 0.5F W             CCN000012600000012600FN00000000020220601000012600NNE   20220427121823    1W    00000180000000625000000000032G0    TTTJY   000000000000NI424035
BI00A32G0    TZ2206AEMW     202205201801W003943              IVSSH 0.5F W/B           CCN000018000000018000FN00000000020220601000018000NNE   20220427121823    1W    00000180000000625000000000032G0    TTTJY   000000000000NI424036
BI00A32G0    TZ2206AEMW     202205201801W003970              IVSSH 0.5F Y             CCN000012600000012600FN00000000020220601000012600NNE   20220427121823    1W    00000180000000625000000000032G0    TTTJY   000000000000NI424037
BI00A32G0    TZ2206AEMW     202205201801W004030              IVSSH 0.75F B            CCN000018200000018200FN00000000020220601000018200NNE   20220427121823    1W    00000130000000882000000000032G0    TTTJY   000000000000NI424038
BI00B32H0    TT2206BVMW     2022051018007704230              AVSS 2F B                CCN000044500000044500FN00000000020220601000044500NNE   20220427165228    1W    00000050000002126400000000032H0    TTTJY   000000000000NQ424026
BI00B32H0    TT2206BVMW     2022051018007704260              AVSS 2F G                CCN000012000000012000FN00000000020220601000012000NNE   20220427165228    1W    00000050000002126400000000032H0    TTTJY   000000000000NQ424027
BI00B32H0    TT2206BVMW     2022051018007704241              AVSS 2F GY               CCN000001000000001000FN00000000020220601000001000NNE   20220427165228    1W    00000050000002126400000000032H0    TTTJY   000000000000NQ424028
BI00B32H0    TT2206BVMW     2022051018007704290              AVSS 2F L                CCN000025500000025500FN00000000020220601000025500NNE   20220427165228    1W    00000050000002126400000000032H0    TTTJY   000000000000NQ424029
BI00B32H0    TT2206BVMW     2022051018007704261              AVSS 2F LG               CCN000003000000003000FN00000000020220601000003000NNE   20220427165228    1W    00000050000002126400000000032H0    TTTJY   000000000000NQ424030
BI00B32H0    TT2206BVMW     2022051018007704252              AVSS 2F P                CCN000003000000003000FN00000000020220601000003000NNE   20220427165228    1W    00000050000002126400000000032H0    TTTJY   000000000000NQ424031
BI00B32H0    TT2206BVMW     2022051018007704250              AVSS 2F R                CCN000024500000024500FN00000000020220601000024500NNE   20220427165228    1W    00000050000002126400000000032H0    TTTJY   000000000000NQ424032
BI00B32H0    TT2206BVMW     2022051018007704292              AVSS 2F V                CCN000001000000001000FN00000000020220601000001000NNE   20220427165228    1W    00000050000002126400000000032H0    TTTJY   000000000000NQ424033
BI00B32H0    TT2206BVMW     2022051018007704240              AVSS 2F W                CCN000016500000016500FN00000000020220601000016500NNE   20220427165228    1W    00000050000002126400000000032H0    TTTJY   000000000000NQ424034
BI00B32H0    TT2206BVMW     2022051018007704243              AVSS 2F W/B              CCN000036500000036500FN00000000020220601000036500NNE   20220427165228    1W    00000050000002126400000000032H0    TTTJY   000000000000NQ424035
BI00B32H0    TT2206BVMW     202205101801R706930              CIVUS 0.35 B             CCN000063000000063000FN00000000020220601000063000NNE   20220427165228    1W    00000300000000386000000000032H0    TTTJY   000000000000NQ424062
BI00B32H0    TT2206BVMW     202205101801R70695U              CIVUS 0.35 BE            CCN000048000000048000FN00000000020220601000048000NNE   20220427165228    1W    00000300000000386000000000032H0    TTTJY   000000000000NQ424063
BI00B32H0    TT2206BVMW     202205101801R706960              CIVUS 0.35 G             CCN000126000000126000FN00000000020220601000126000NNE   20220427165228    1W    00000300000000386000000000032H0    TTTJY   000000000000NQ424064
BI00B32H0    TT2206BVMW     202205101801R706941              CIVUS 0.35 GY            CCN000114000000114000FN00000000020220601000114000NNE   20220427165228    1W    00000300000000386000000000032H0    TTTJY   000000000000NQ424065
BI00B32H0    TT2206BVMW     202205101801R706990              CIVUS 0.35 L             CCN000048000000048000FN00000000020220601000048000NNE   20220427165228    1W    00000300000000386000000000032H0    TTTJY   000000000000NQ424066
BI00B32H0    TT2206BVMW     202205101801R706961              CIVUS 0.35 LG            CCN000186000000186000FN00000000020220601000186000NNE   20220427165228    1W    00000300000000386000000000032H0    TTTJY   000000000000NQ424067
BI00B32H0    TT2206BVMW     202205101801R706952              CIVUS 0.35 P             CCN000045000000045000FN00000000020220601000045000NNE   20220427165228    1W    00000300000000386000000000032H0    TTTJY   000000000000NQ424068
BI00B32H0    TT2206BVMW     202205101801R706950              CIVUS 0.35 R             CCN000162000000162000FN00000000020220601000162000NNE   20220427165228    1W    00000300000000386000000000032H0    TTTJY   000000000000NQ424069
BI00B32H0    TT2206BVMW     202205101801R706991              CIVUS 0.35 SB            CCN000105000000105000FN00000000020220601000105000NNE   20220427165228    1W    00000300000000386000000000032H0    TTTJY   000000000000NQ424070
BI00B32H0    TT2206BVMW     202205101801R706992              CIVUS 0.35 V             CCN000147000000147000FN00000000020220601000147000NNE   20220427165228    1W    00000300000000386000000000032H0    TTTJY   000000000000NQ424071
BI00B32H0    TT2206BVMW     202205101801R706940              CIVUS 0.35 W             CCN000087000000087000FN00000000020220601000087000NNE   20220427165228    1W    00000300000000386000000000032H0    TTTJY   000000000000NQ424072
BI00B32H0    TT2206BVMW     202205101801R703930              CIVUS 0.5 B              CCN000242000000242000FN00000000020220601000242000NNE   20220427165228    1W    00000220000000525000000000032H0    TTTJY   000000000000NQ424036
BI00B32H0    TT2206BVMW     202205101801R70395U              CIVUS 0.5 BE             CCN000030800000030800FN00000000020220601000030800NNE   20220427165228    1W    00000220000000525000000000032H0    TTTJY   000000000000NQ424037
BI00B32H0    TT2206BVMW     202205101801R703960              CIVUS 0.5 G              CCN000200200000200200FN00000000020220601000200200NNE   20220427165228    1W    00000220000000525000000000032H0    TTTJY   000000000000NQ424038
BI00B32H0    TT2206BVMW     202205101801R703941              CIVUS 0.5 GY             CCN000037400000037400FN00000000020220601000037400NNE   20220427165228    1W    00000220000000525000000000032H0    TTTJY   000000000000NQ424039
BI00B32H0    TT2206BVMW     202205101801R703990              CIVUS 0.5 L              CCN000070400000070400FN00000000020220601000070400NNE   20220427165228    1W    00000220000000525000000000032H0    TTTJY   000000000000NQ424040
BI00B32H0    TT2206BVMW     202205101801R703961              CIVUS 0.5 LG             CCN000077000000077000FN00000000020220601000077000NNE   20220427165228    1W    00000220000000525000000000032H0    TTTJY   000000000000NQ424041
BI00B32H0    TT2206BVMW     202205101801R703950              CIVUS 0.5 R              CCN000101200000101200FN00000000020220601000101200NNE   20220427165228    1W    00000220000000525000000000032H0    TTTJY   000000000000NQ424042
BI00B32H0    TT2206BVMW     202205101801R703991              CIVUS 0.5 SB             CCN000028600000028600FN00000000020220601000028600NNE   20220427165228    1W    00000220000000525000000000032H0    TTTJY   000000000000NQ424043
BI00B32H0    TT2206BVMW     202205101801R703992              CIVUS 0.5 V              CCN000068200000068200FN00000000020220601000068200NNE   20220427165228    1W    00000220000000525000000000032H0    TTTJY   000000000000NQ424044
BI00B32H0    TT2206BVMW     202205101801R703940              CIVUS 0.5 W              CCN000099000000099000FN00000000020220601000099000NNE   20220427165228    1W    00000220000000525000000000032H0    TTTJY   000000000000NQ424045
BI00B32H0    TT2206BVMW     202205101801R703943              CIVUS 0.5 W/B            CCN000105600000105600FN00000000020220601000105600NNE   20220427165228    1W    00000220000000525000000000032H0    TTTJY   000000000000NQ424046
BI00B32H0    TT2206BVMW     202205101801R704060              CIVUS 0.75 G             CCN000024000000024000FN00000000020220601000024000NNE   20220427165228    1W    00000150000000765000000000032H0    TTTJY   000000000000NQ424047
BI00B32H0    TT2206BVMW     202205101801R704090              CIVUS 0.75 L             CCN000013500000013500FN00000000020220601000013500NNE   20220427165228    1W    00000150000000765000000000032H0    TTTJY   000000000000NQ424048
BI00B32H0    TT2206BVMW     202205101801R704040              CIVUS 0.75 W             CCN000030000000030000FN00000000020220601000030000NNE   20220427165228    1W    00000150000000765000000000032H0    TTTJY   000000000000NQ424049
BI00B32H0    TT2206BVMW     202205101801R704043              CIVUS 0.75 W/B           CCN000007500000007500FN00000000020220601000007500NNE   20220427165228    1W    00000150000000765000000000032H0    TTTJY   000000000000NQ424050
BI00B32H0    TT2206BVMW     202205101801R706061              CIVUS 1 LG               CCN000002400000002400FN00000000020220601000002400NNE   20220427165228    1W    00000120000001016000000000032H0    TTTJY   000000000000NQ424059
BI00B32H0    TT2206BVMW     202205101801R706040              CIVUS 1 W                CCN000003600000003600FN00000000020220601000003600NNE   20220427165228    1W    00000120000001016000000000032H0    TTTJY   000000000000NQ424060
BI00B32H0    TT2206BVMW     202205101801R706043              CIVUS 1 W/B              CCN000002400000002400FN00000000020220601000002400NNE   20220427165228    1W    00000120000001016000000000032H0    TTTJY   000000000000NQ424061
BI00B32H0    TT2206BVMW     202205101801R704130              CIVUS 1.25 B             CCN000030000000030000FN00000000020220601000030000NNE   20220427165228    1W    00000100000001228000000000032H0    TTTJY   000000000000NQ424051
BI00B32H0    TT2206BVMW     202205101801R70415U              CIVUS 1.25 BE            CCN000005000000005000FN00000000020220601000005000NNE   20220427165228    1W    00000100000001228000000000032H0    TTTJY   000000000000NQ424052
BI00B32H0    TT2206BVMW     202205101801R704160              CIVUS 1.25 G             CCN000007000000007000FN00000000020220601000007000NNE   20220427165228    1W    00000100000001228000000000032H0    TTTJY   000000000000NQ424053
BI00B32H0    TT2206BVMW     202205101801R704190              CIVUS 1.25 L             CCN000002000000002000FN00000000020220601000002000NNE   20220427165228    1W    00000100000001228000000000032H0    TTTJY   000000000000NQ424054
BI00B32H0    TT2206BVMW     202205101801R704150              CIVUS 1.25 R             CCN000045000000045000FN00000000020220601000045000NNE   20220427165228    1W    00000100000001228000000000032H0    TTTJY   000000000000NQ424055
BI00B32H0    TT2206BVMW     202205101801R704192              CIVUS 1.25 V             CCN000002000000002000FN00000000020220601000002000NNE   20220427165228    1W    00000100000001228000000000032H0    TTTJY   000000000000NQ424056
BI00B32H0    TT2206BVMW     202205101801R704140              CIVUS 1.25 W             CCN000002000000002000FN00000000020220601000002000NNE   20220427165228    1W    00000100000001228000000000032H0    TTTJY   000000000000NQ424057
BI00B32H0    TT2206BVMW     202205101801R704143              CIVUS 1.25 W/B           CCN000055000000055000FN00000000020220601000055000NNE   20220427165228    1W    00000100000001228000000000032H0    TTTJY   000000000000NQ424058
BI00B32H0    TT2206BVMW     202205101801W003961              IVSSH 0.5F LG            CCN000001800000001800FN00000000020220601000001800NNE   20220427165228    1W    00000180000000625000000000032H0    TTTJY   000000000000NQ424073
BI00B32H0    TT2206BVMW     202205101801W003992              IVSSH 0.5F V             CCN000001800000001800FN00000000020220601000001800NNE   20220427165228    1W    00000180000000625000000000032H0    TTTJY   000000000000NQ424074
BI00B32W4    4500192489     2022053118018403752              CAVS 0.3 P               CCN000006000000000000FY00000000020220501000000000NNE10 20220427085001W41 1W    00000200000000471000000000032W41   HJYHK-J 000000000000OU325003
BI00B32W4    4500192489     2022053118018403770              CAVS 0.3 Y               CCN000002000000000000FY00000000020220501000000000NNE10 20220427085001W41 1W    00000200000000471000000000032W41   HJYHK-J 000000000000OU325004
BI00B32W4    4500192489     2022053118018403991              CAVS 0.5 SB              CCN000004500000000000FY00000000020220501000000000NNE10 20220427085001W41 1W    00000150000000677000000000032W41   HJYHK-J 000000000000OU325005
BI00B32W4    4500192489     2022053118018404141              CAVS 1.25 GY             CCN000001600000000000FY00000000020220501000000000NNE10 20220427085001W41 1W    00000080000001378000000000032W41   HJYHK-J 000000000000OU325006
BI00B32W4    4500192489     2022053118018403739              CAVS 0.3 B/L             CCN000002000000000000FY00000000020220501000000000NNE10 20220427085001W41 1W    00000200000000471000000000032W41   HJYHK-J 000000000000OU325002
BI00B32W4    @4500192489    20220531181B09116K2              CAVSAS 0.3X2 GY/V        CCN000003500000000000FY00000000020220501000000000NNE10 20220427085022W41 1W    00000035000002254000000000032W41   HJYHK-J 000000000000OU325001
BI00A32W6    AW220501-1     202204291801R703930              CIVUS 0.5 B              CCN000110000000110000FN00000000020220501000110000NNE   20220427162501    1W    00000220000000525000000000032W6    SYSYA-WJ000000000000WS424049
BI00A32W6    AW220501-1     202204291801R703970              CIVUS 0.5 Y              CCN000099000000099000FN00000000020220501000099000NNE   20220427162501    1W    00000220000000525000000000032W6    SYSYA-WJ000000000000WS424051
BI00A32W6    AW220501-1     202204291801R703992              CIVUS 0.5 V              CCN000099000000099000FN00000000020220501000099000NNE   20220427162501    1W    00000220000000525000000000032W6    SYSYA-WJ000000000000WS424050
BI00A32W6    AW220501-1     202204291801R704050              CIVUS 0.75 R             CCN000060000000060000FN00000000020220501000060000NNE   20220427162501    1W    00000150000000765000000000032W6    SYSYA-WJ000000000000WS424052
BI00A32W6    AW220501-1     202204291801R704130              CIVUS 1.25 B             CCN000080000000080000FN00000000020220501000080000NNE   20220427162501    1W    00000100000001228000000000032W6    SYSYA-WJ000000000000WS424053
BI00A32W6    AW220501-1     202204291801R704141              CIVUS 1.25 GY            CCN000025000000025000FN00000000020220501000025000NNE   20220427162501    1W    00000100000001228000000000032W6    SYSYA-WJ000000000000WS424054
BI00A32W6    AW220501-1     202204291801R704150              CIVUS 1.25 R             CCN000045000000045000FN00000000020220501000045000NNE   20220427162501    1W    00000100000001228000000000032W6    SYSYA-WJ000000000000WS424056
BI00A32W6    AW220501-1     202204291801R704152              CIVUS 1.25 P             CCN000020000000020000FN00000000020220501000020000NNE   20220427162501    1W    00000100000001228000000000032W6    SYSYA-WJ000000000000WS424055
BI00A32W6    AW220501-1     202204291801R706930              CIVUS 0.35 B             CCN000135000000135000FN00000000020220501000135000NNE   20220427162501    1W    00000300000000386000000000032W6    SYSYA-WJ000000000000WS424057
BI00A32W6    AW220501-1     202204291801R70695U              CIVUS 0.35 BE            CCN000060000000060000FN00000000020220501000060000NNE   20220427162501    1W    00000300000000386000000000032W6    SYSYA-WJ000000000000WS424058
BI00A32W6    AW220501-1     202204291801R706980              CIVUS 0.35 BR            CCN000075000000075000FN00000000020220501000075000NNE   20220427162501    1W    00000300000000386000000000032W6    SYSYA-WJ000000000000WS424059
BI00A32W6    AW220501-1     202204291801R706990              CIVUS 0.35 L             CCN000180000000180000FN00000000020220501000180000NNE   20220427162501    1W    00000300000000386000000000032W6    SYSYA-WJ000000000000WS424060
BI00A32W6    AW220501-1     202204291801R706992              CIVUS 0.35 V             CCN000120000000120000FN00000000020220501000120000NNE   20220427162501    1W    00000300000000386000000000032W6    SYSYA-WJ000000000000WS424061
BI00B32W9    4500191820     2022050318009604394              AVS 3 L/W                CCN000000400000000400FN00000000020220501000000400NNE20 20220427193227W93 1W    00000040000003831600000000032W93   HKYHK   000000000000ZC125012
BI00B32W9    4500191829     2022051018018404153              CAVS 1.25 R/B            CCN000000800000000800FN00000000020220501000000800NNE20 20220427130442W93 1W    00000080000001378000000000032W93   HKYHK   000000000000ZH225045
