BI00A1200    2399T51923     202202187288-6547                CONNECTOR MALE ASS'Y     PCN000127500000127500FN00000000020211101000127500NNM00020220217161504    4N0N  0000007500000120530000134031200    YCYC    005400370024
BI00B1200    7800T52206     202203247195-1934-02             TERMINAL MALE            CCN000024000000024000FN00000000020220401000024000NNE   20220217121746    4P0P  0000240000000080160000109521200    YCYC    006400630015
BI00B1200    7800T52206     202203247195-1936-02             TERMINAL MALE            CCN000015000000015000FN00000000020220401000015000NNE   20220217121746    4P0P  0000150000000058950000088311200    YCYC    006400630015
BI00B1200    7800T52206     202203247195-1937-02             TERMINAL MALE            CCN000015000000015000FN00000000020220401000015000NNE   20220217121746    4P0P  0000150000000059400000088761200    YCYC    006400630015
BI00B1200    7800T52206     202203247196-1482-02             TERMINAL FEMALE          CCN000024000000024000FN00000000020220401000024000NNE   20220217121746    4P0P  0000240000000042480000071001200    YCYC    006400630015
BI00B1200    7800T52206     202203247196-1937-02             TERMINAL FEMALE          CCN000013500000013500FN00000000020220401000013500NNE   20220217121746    4P0P  0000135000000044690000073211200    YCYC    006400630015
BI00B1200    7800T52206     202203247196-1940-02             TERMINAL FEMALE          CCN000013500000013500FN00000000020220401000013500NNE   20220217121746    4P0P  0000135000000052920000081741200    YCYC    006400630015
BI00B1200    7800T52206     202203247196-1941-02             TERMINAL FEMALE          CCN000011400000011400FN00000000020220401000011400NNE   20220217121746    4P0P  0000114000000050620000079441200    YCYC    006400630015
BI00B1200    H722E50006     202204217297-1861-30             HOUSING MALE ASS'Y       CCN000009000000009000FN00000000020220501000009000NNE   20220217121746    4N0N  0000015000000070220000082731200    YCYC    005400370024
BI00B1200    H722E50007     202204287297-1861-30             HOUSING MALE ASS'Y       CCN000031500000031500FN00000000020220501000031500NNE   20220217121746    4N0N  0000015000000070220000082731200    YCYC    005400370024
BI00B1200    O022D50393     202204077116-4100-02             TERMINAL                 CCN000030000000030000FN00000000020220501000030000NNE   20220217121746    4P0P  0000150000000069600000099021200    YCYC    006400630015
BI00B1200    Y022C53559     202203037298-2508-30             HOUSING FEMALE ASS'Y     CCN000001200000001200FN00000000020220301000001200NNM   20220217121746    4N0N  0000012000000082200000100501200    YCYC    005500360039
BI00B32AF    JTB2041        202203117289-3342-30             HOUSING FEMALE ASS'Y     CCN000060000000030000FN00000000020220401000030000NNMQ0420220217134659    1N0N  00000240000000686400000901432AF    HBYHVTB 005500360039
BI00B32AF    JTB2042        202203257289-3342-30             HOUSING FEMALE ASS'Y     CCN000040800000040800FN00000000020220401000040800NNMD0420220217134723    1N0N  00000240000000686400000901432AF    HBYHVTB 005500360039
BI00B32AF    JTB2043        202204017289-3342-30             HOUSING FEMALE ASS'Y     CCN000060000000060000FN00000000020220401000060000NNMD0420220217134743    1N0N  00000240000000686400000901432AF    HBYHVTB 005500360039
BI00B32AF    JTB2044        202204087289-3342-30             HOUSING FEMALE ASS'Y     CCN000036000000036000FN00000000020220401000036000NNMD0420220217134757    1N0N  00000240000000686400000901432AF    HBYHVTB 005500360039
BI00B32AF    JTB2041        202203187289-3342-30             HOUSING FEMALE ASS'Y     CCN000030000000030000FN00000000020220401000030000NNMD0420220217134659    1N0N  00000240000000686400000901432AF    HBYHVTB 005500360039
BI00B32AG    XG22041LMW     202202257172-1372-10             FRONT HOLDER             CCN000007800000007800FN00000000020220401000007800NNMD0020220217170106    4F0F  00000390000000655200000955232AG    XGXGY   005500360039
BI00B32AG    XG22051LMW     202203187172-1372-10             FRONT HOLDER             CCN000007800000007800FN00000000020220501000007800NNMD0020220217170128    4F0F  00000390000000655200000955232AG    XGXGY   005500360039
BI00B32AG    XG22055LMW     202204227172-1372-10             FRONT HOLDER             CCN000007800000007800FN00000000020220501000007800NNMD0020220217170143    4F0F  00000390000000655200000955232AG    XGXGY   005500360039
BI00B32A7    ZZ22033BMW     202202217172-5402-30             SEAL RUBBER              CCN000048000000048000FN00000000020220301000048000NNM00020220217161534    1C0C  00000800000000457600000506032A7    ZZZZY   004300270014
BI00B32A7    ZZ22031BMW     202202217172-5403-30             SEALED PACKING           CCN000136000000068000FN00000000020220301000068000NNM00020220217121746    1C0C  00000400000000653600000701732A7    ZZZZY   004300270014
BI00B32A7    ZZ22033LMW     202202217172-5402-30             SEAL RUBBER              CCN000008000000008000FN00000000020220301000008000NNM00020220217121746    1C0C  00000800000000457600000506032A7    ZZZZY   004300270014
BI00B32A7    ZZ22031LMW     202202187327-6769-3W             BATTERY FUSE             CCN000007008000007008FN00000000020220301000007008NNM00020220217161638    4N0N  00000009600000933300001133332A7    ZZZZY   005500360039
BI00B32BG    YY2203AGMW     202202247116-4112-02             TERMINAL                 CCN000066000000066000FN00000000020220301000066000NNE   20220217121746    4P0P  00000600000000450000000738232BG    YGYYA   006400630015
BI00B32BG    YY22052GMW     202203247114-4110-02             TERMINAL                 CCN000045000000045000FN00000000020220501000045000NNM   20220217121746    4P0P  00001500000000901500001230132BG    YGYYA   006400630017
BI00B32BG    YY22053GMW     202203317114-4110-02             TERMINAL                 CCN000045000000045000FN00000000020220501000045000NNM   20220217121746    4P0P  00001500000000901500001230132BG    YGYYA   006400630017
BI00B32BG    YY22052GMW     202203247114-4112-02             TERMINAL                 CCN000072000000072000FN00000000020220501000072000NNM   20220217121746    4P0P  00000900000000598500000927132BG    YGYYA   006400630017
BI00B32BG    YY22053GMW     202203317114-4112-02             TERMINAL                 CCN000072000000072000FN00000000020220501000072000NNM   20220217121746    4P0P  00000900000000598500000927132BG    YGYYA   006400630017
BI00B32BG    YY22052GMW     202203247116-4100-02             TERMINAL                 CCN000045000000045000FN00000000020220501000045000NNM   20220217121746    4P0P  00001500000000696000000990232BG    YGYYA   006400630015
BI00B32BG    YY22053GMW     202203317116-4100-02             TERMINAL                 CCN000045000000045000FN00000000020220501000045000NNM   20220217121746    4P0P  00001500000000696000000990232BG    YGYYA   006400630015
BI00B32BG    YY22052GMW     202203247116-4110-02             TERMINAL                 CCN000018000000018000FN00000000020220501000018000NNM   20220217121746    4P0P  00000900000000594000000882232BG    YGYYA   006400630015
BI00B32BG    YY22053GMW     202203317116-4110-02             TERMINAL                 CCN000018000000018000FN00000000020220501000018000NNM   20220217121746    4P0P  00000900000000594000000882232BG    YGYYA   006400630015
BI00B32BG    YY22051GMW     202203177116-4111-02             TERMINAL                 CCN000030000000030000FN00000000020220501000030000NNM   20220217121746    4P0P  00000750000000529500000817732BG    YGYYA   006400630015
BI00B32BG    YY22053GMW     202203317116-4111-02             TERMINAL                 CCN000045000000045000FN00000000020220501000045000NNM   20220217121746    4P0P  00000750000000529500000817732BG    YGYYA   006400630015
BI00B32BG    YY22051GMW     202203177116-4112-02             TERMINAL                 CCN000060000000060000FN00000000020220501000060000NNM   20220217121746    4P0P  00000600000000450000000738232BG    YGYYA   006400630015
BI00B32BG    YY22052GMW     202203247116-4112-02             TERMINAL                 CCN000060000000060000FN00000000020220501000060000NNM   20220217121746    4P0P  00000600000000450000000738232BG    YGYYA   006400630015
BI00B32BG    YY22053GMW     202203317116-4112-02             TERMINAL                 CCN000030000000030000FN00000000020220501000030000NNM   20220217121746    4P0P  00000600000000450000000738232BG    YGYYA   006400630015
BI00B32BG    YY22051GMW     202203177116-4120-02             TERMINAL                 CCN000006000000006000FN00000000020220501000006000NNM   20220217121746    4P0P  00000600000000780000001073632BG    YGYYA   006400630015
BI00B32BG    YY22052GMW     202203247116-4120-02             TERMINAL                 CCN000006000000006000FN00000000020220501000006000NNM   20220217121746    4P0P  00000600000000780000001073632BG    YGYYA   006400630015
BI00B32BG    YY22053GMW     202203317116-4120-02             TERMINAL                 CCN000006000000006000FN00000000020220501000006000NNM   20220217121746    4P0P  00000600000000780000001073632BG    YGYYA   006400630015
BI00B32BG    YY22052GMW     202203247116-4121-02             TERMINAL                 CCN000045000000045000FN00000000020220501000045000NNM   20220217121746    4P0P  00000450000000618800000912432BG    YGYYA   006400630015
BI00B32BG    #YY22051GMW    202203177158-3008-80             RUBBER STOPPER           CCN000020000000020000FN00000000020220501000020000NNM   20220217121746    2C0C  00002000000000288000000343032BG    YGYYA   004300270014
BI00B32BG    #YY22053GMW    202203317158-3374-90             CONNECTOR WIRE SEAL      CCN000020000000020000FN00000000020220501000020000NNM   20220217121746    2H0H  00002000000000172000000229332BG    YGYYA   002700430014
BI00B32BG    YY22051NMW     202203177158-3165-90             WIRE SEAL                CCN000040000000040000FN00000000020220501000040000NNM   20220217121746    1C0C  00004000000000124000000172432BG    YGYYA   004300270014
BI00B32BG    YY22053NMW     202203317158-3165-90             WIRE SEAL                CCN000040000000040000FN00000000020220501000040000NNM   20220217121746    1C0C  00004000000000124000000172432BG    YGYYA   004300270014
BI00B32BG    YY22053NMW     202203317158-3166-60             WIRE SEAL                CCN000030000000040000FN00000000020220501000040000NNM   20220217121746    1C0C  00004000000000104000000152432BG    YGYYA   002700430014
BI00B32BG    YY22053NMW     202203317158-3168-80             SEALED                   CCN000020000000020000FN00000000020220501000020000NNM   20220217121746    1C0C  00002000000000044000000092132BG    YGYYA   004300260014
BI00B32BG    #YY22053NMW    202203317158-3120-90             CONNECTOR WIRE SEAL      CCN000020000000020000FN00000000020220501000020000NNM   20220217121746    2C0C  00002000000000136000000194032BG    YGYYA   002700430014
BI00A32B6    TAPP13C1E      202203027195-1465-02             TERMINAL MALE            CCN000021000000021000FN00000000020220201000021000NNED0720220217121746B6  4P0P  00002100000000359100000644332B6    AXARNE-M006400630015
BI00A32B6    TAPP13C1E      202203027327-6994-3W             BATTERY FUSE             CCN000000500000000504FN00000000020220201000000504NNED0720220217121746B6  4N0N  00000007200001215100001430132B6    AXARNE-M005500360039
BI00B32CA    PTA32084       202204287196-0510-02             TERMINAL                 CCN000048000000048000FN00000000020220801000048000NNE   20220217121746    4P0P  00002400000000871200001034632CA    YPYPY   002800510028
BI00B32CA    PTA32084       202204287287-9323                UNSEALED HOUSING SUB     CCN000004800000004800FN00000000020220801000004800NNE   20220217121746    1N0N  00000240000000537600000690032CA    YPYPY   005600390023
BI00B32CA    PTA32084       202204287289-3342                HOUSING FEMALE ASS'Y     CCN000012000000012000FN00000000020220801000012000NNE   20220217121746    1N0N  00000240000000686400000901432CA    YPYPY   005500360039
BI00B32CA    PTA32084       202204287289-3342-30             HOUSING FEMALE ASS'Y     CCN000012000000012000FN00000000020220801000012000NNE   20220217121746    1N0N  00000240000000686400000901432CA    YPYPY   005500360039
BI00B32CA    PTA32084       202204287289-3342-90             HOUSING FEMALE ASS'Y     CCN000012000000012000FN00000000020220801000012000NNE   20220217121746    1N0N  00000240000000686400000901432CA    YPYPY   005500360039
BI00B32CA    #PTA32084      202204287154-5597-30             CASSETTE R/B             CCN000003200000003200FN00000000020220801000003200NNE   20220217121746    2F0F  00000080000000736000000952032CA    YPYPY   005500360039
BI00B32CA    #PTA32084      202204287189-3032-30             HOUSING FEMALE           CCN000001600000001600FN00000000020220801000001600NNE   20220217121746    2F0F  00000160000000801600001021632CA    YPYPY   005500360039
BI00B32CA    #PTA32084      202204287189-3034-30             HOUSING FEMALE           CCN000003200000003200FN00000000020220801000003200NNE   20220217121746    2F0F  00000160000000972800001192832CA    YPYPY   005500360039
BI00B32CC    CTA32053       202203037158-3070-80             RUBBER STOPPER           CCN000040000000040000FN00000000020220601000040000NNE00020220217151653    1C0C  00004000000000276000000333332CC    BIYABCBU002700430014
BI00B32CC    #CTA32053      202203037283-8226-30             CONNECTOR                CCN000050000000050000FN00000000020220601000050000NNE00020220217151557    2N0N  00000200000000820000001008032CC    BIYABCBU005400370024
BI00B32CC    #CTA32053      202203037157-7812                SEAL RUBBER              CCN000020000000020000FN00000000020220601000020000NNE00020220217151620    2C0C  00001000000000137000000202032CC    BIYABCBU002700430014
BI00B32CC    CTA32054       202203037158-3167-80             WIRE SEAL                CCN000020000000020000FN00000000020220601000020000NNE00020220217151721    1C0C  00002000000000048000000109032CC    BIYABCBU002700430014
BI00B32CG    S220216-S      202204277283-9457-3W             CONNECTOR                CCN000001680000001680FN00000000020220401000001680NNE   20220217155136    4N0N  00000012000000515000001067032CG    ASASIACO005600390023
BI00B32CG    S220216-S      202204277283-9458-30             CONNECTOR                CCN000001000000001000FN00000000020220401000001000NNE   20220217155136    4N0N  00000020000000792000000984332CG    ASASIACO005600390023
BI00B32CG    S220216-S      202204277116-4025                TERMINAL                 CCN000016000000016000FN00000000020220401000016000NNE   20220217155136    4P0P  00001600000000644800000975132CG    ASASIACO006400630017
BI00B32CG    S220216-M      202204277116-4120-02             TERMINAL                 CCN000006000000006000FN00000000020220401000006000NNE   20220217155300    4P0P  00000600000000780000001073632CG    ASASIACO006400630015
BI00B32CH    SJ22022HMW     202202247327-6884-30             MULTI FUSE               CCN000002304000002304FN00000000020220201000002304NNM00020220217152717    4N0N  00000028800000988900001154832CH    SJSAMIJF005400370024
BI00B32CH    #SJ22034 MW    202202247158-3007-10             RUBBER STOPPER           CCN000040000000040000FN00000000020220301000040000NNM00020220217152839    2H0H  00002000000000308000000362732CH    SJSAMIJF002700430014
BI00A32CH    #SJ22034HMW    202202187286-8859                HOUSING MALE ASS'Y       CCN000005600000005600FN00000000020220301000005600NNM00020220217152802    2N0N  00000080000000573100000733132CH    SJSAMIJF005400370024
BI00B32CJ    JQN2041        202204017327-6987-3W             BATTERY FUSE             CCN000002000000002016FN00000000020220401000002016NNMD0120220217160139    4N0N  00000007200000000000000000032CJ    QNYHVQN 000000000000
BI00B32DA    SBT2204C       202203107114-4020                TERMINAL                 CCN000105000000105000FN00000000020220401000105000NNM   20220217121746    4P0P  00002100000000875700001169332DA    GBYIPLGB006400630015
BI00B32DA    SBT2204C       202203107114-4021                TERMINAL                 CCN000210000000210000FN00000000020220401000210000NNM   20220217121746    4P0P  00001500000000670500000964132DA    GBYIPLGB006400630015
BI00B32DA    SBT2204C       202203107114-4032                TERMINAL                 CCN000022500000022500FN00000000020220401000022500NNM   20220217121746    4P0P  00000750000000735000001063632DA    GBYIPLGB006400630017
BI00B32DA    SBT2204C       202203107116-1301                TERMINAL                 CCN000015000000015000FN00000000020220401000015000NNM   20220217121746    4P0P  00001500000000487500000772732DA    GBYIPLGB006400630015
BI00B32DA    SBT2204C       202203107116-4020                TERMINAL                 CCN000108000000108000FN00000000020220401000108000NNM   20220217121746    4P0P  00001350000000513000000798232DA    GBYIPLGB006400630015
BI00B32DA    SBT2204C       202203107116-4022                TERMINAL                 CCN000054000000054000FN00000000020220401000054000NNM   20220217121746    4P0P  00001350000000618300000903532DA    GBYIPLGB006400630015
BI00B32DA    SBT2204C       202203107116-4025                TERMINAL                 CCN000400000000400000FN00000000020220401000400000NNM   20220217121746    4P0P  00001600000000644800000975132DA    GBYIPLGB006400630017
BI00B32DA    SBT2204C       202203107116-4026                TERMINAL                 CCN000224000000224000FN00000000020220401000224000NNM   20220217121746    4P0P  00001600000000664000000994332DA    GBYIPLGB006400630017
BI00B32DA    SBT2204C       202203107116-4032                TERMINAL                 CCN000120000000120000FN00000000020220401000120000NNM   20220217121746    4P0P  00000600000000532800000818032DA    GBYIPLGB006400630015
BI00B32DA    SBT2204C       202203107116-4037                TERMINAL                 CCN000090000000090000FN00000000020220401000090000NNM   20220217121746    4P0P  00000600000000600000000894232DA    GBYIPLGB006400630015
BI00B32DA    SBT2204C       202203107116-6042                TERMINAL                 CCN000051000000051000FN00000000020220401000051000NNM   20220217121746    4P0P  00000300000000523800000856132DA    GBYIPLGB006400630015
BI00B32DA    SBT2204C       202203107283-5830                CONNECTOR                CCN000030000000030000FN00000000020220401000030000NNM   20220217121746    1N47  00000600000000954000001104032DA    GBYIPLGB005500360039
BI00B32DA    SBT2204C       202203107283-5845                CONNECTOR HOUSING        CCN000018000000018000FN00000000020220401000018000NNM   20220217121746    1N0N  00000600000000444000000606332DA    GBYIPLGB005400370024
BI00B32DA    SBT2204C       202203107287-9234                JOINT CONNECTOR          CCN000067200000067200FN00000000020220401000067200NNM   20220217121746    4N0N  00000960000000893800001184832DA    GBYIPLGB005500360039
BI00B32DA    SBT2204C       202203107017-1180-02             TERMINAL                 CCN000072000000072000FN00000000020220401000072000NNM   20220217121746    4P0P  00007200000001065600001229032DA    GBYIPLGB005100280028
BI00B32DA    SBT2204C       202203107114-4624-02             TERMINAL                 CCN000024000000024000FN00000000020220401000024000NNM   20220217121746    4P0P  00002400000000895200001188832DA    GBYIPLGB006400630015
BI00B32DA    SBT2204C       202203107114-4728-02             TERMINAL                 CCN001260000001260000FN00000000020220401001260000NNM   20220217121746    4P0P  00003000000000510000000804232DA    GBYIPLGB006400630015
BI00B32DA    SBT2204C       202203107114-4729-02             TERMINAL                 CCN000180000000180000FN00000000020220401000180000NNM   20220217121746    4P0P  00003000000000516000000810232DA    GBYIPLGB006400630015
BI00B32DA    SBT2204C       202203107114-5746-02             TERMINAL                 CCN000168000000168000FN00000000020220401000168000NNM   20220217121746    4P0P  00002100000000695100000988732DA    GBYIPLGB006400630015
BI00B32DA    SBT2204C       202203107114-5747-02             TERMINAL                 CCN000234000000234000FN00000000020220401000234000NNM   20220217121746    4P0P  00001800000000626400000920032DA    GBYIPLGB006400630015
BI00B32DA    SBT2204C       202203107114-5748-02             TERMINAL                 CCN000240000000240000FN00000000020220401000240000NNM   20220217121746    4P0P  00001200000000444000000737632DA    GBYIPLGB006400630015
BI00B32DA    SBT2204C       202203107114-5753-02             TERMINAL                 CCN000189000000189000FN00000000020220401000189000NNM   20220217121746    4P0P  00002700000000847800001141432DA    GBYIPLGB006400630015
BI00B32DA    SBT2204C       202203107116-1257-02             TERMINAL                 CCN000024000000024000FN00000000020220401000024000NNM   20220217121746    1P0P  00002400000000518400000847132DA    GBYIPLGB006400630017
BI00B32DA    SBT2204C       202203107116-4415-02             TERMINAL                 CCN000114000000114000FN00000000020220401000114000NNM   20220217121746    4P0P  00003800000000596600000925732DA    GBYIPLGB006400630017
BI00B32DA    SBT2204C       202203107116-4486-02             TERMINAL                 CCN000504000000504000FN00000000020220401000504000NNM   20220217121746    4P0P  00002800000000666400000995132DA    GBYIPLGB006400630017
BI00B32DA    SBT2204C       202203107116-5045-02             TERMINAL                 CCN000016000000016000FN00000000020220401000016000NNM   20220217121746    4P0P  00001600000000678400001007132DA    GBYIPLGB006400630017
BI00B32DA    SBT2204C       202203107116-5751-02             TERMINAL                 CCN000036000000036000FN00000000020220401000036000NNM   20220217121746    4P0P  00001200000000379200000664432DA    GBYIPLGB006400630015
BI00B32DA    SBT2204C       202203107116-5752-02             TERMINAL                 CCN000189000000189000FN00000000020220401000189000NNM   20220217121746    4P0P  00002100000000571200000856432DA    GBYIPLGB006400630015
BI00B32DA    SBT2204C       202203107158-3006-90             RUBBER STOPPER           CCN000160000000160000FN00000000020220401000160000NNM   20220217121746    1C0C  00002000000000330600000386032DA    GBYIPLGB002700430014
BI00B32DA    SBT2204C       202203107158-3009-60             RUBBER STOPPER           CCN000140000000140000FN00000000020220401000140000NNM   20220217121746    1C0C  00002000000000338000000386232DA    GBYIPLGB002700430014
BI00B32DA    SBT2204C       202203107158-3166-60             WIRE SEAL                CCN000080000000080000FN00000000020220401000080000NNM   20220217121746    1C0C  00004000000000104000000152432DA    GBYIPLGB002700430014
BI00B32DA    SBT2204C       202203107172-5540-80             SEALED WIRE SEAL         CCN000020000000020000FN00000000020220401000020000NNM   20220217121746    1C0C  00002000000000186000000234432DA    GBYIPLGB004300270014
BI00B32DA    SBT2204C       202203107196-0805-02             TERMINAL FEMALE          CCN000045000000045000FN00000000020220401000045000NNM   20220217121746    4P0P  00002250000000558000000843232DA    GBYIPLGB006400630015
BI00B32DA    SBT2204C       202203107283-5830-30             CONNECTOR                CCN000012000000012000FN00000000020220401000012000NNM   20220217121746    1N0N  00000600000000954000001104032DA    GBYIPLGB005500360039
BI00B32DA    SBT2204C       202203107288-3329-30             HOUSING MALE             CCN000012000000012000FN00000000020220401000012000NNM   20220217121746    4N0N  00000150000000866100001011132DA    GBYIPLGB005400370024
BI00B32DA    SBT2204C       202203107288-3331-30             HOUSING MALE             CCN000013500000013500FN00000000020220401000013500NNM   20220217121746    4N0N  00000150000000866000001010932DA    GBYIPLGB005400370024
BI00B32DA    SBT2204C       202203107288-3336-30             HOUSING MALE             CCN000010500000010500FN00000000020220401000010500NNM   20220217121746    4N0N  00000150000000867000001012032DA    GBYIPLGB005400370024
BI00B32DA    SBT2204C       202203107288-3337-30             HOUSING MALE             CCN000010500000010500FN00000000020220401000010500NNM   20220217121746    4N0N  00000150000000867000001012032DA    GBYIPLGB005400370024
BI00B32DA    SBT2204C       202203107289-3342-30             HOUSING FEMALE ASS'Y     CCN000021600000021600FN00000000020220401000021600NNM   20220217121746    1N0N  00000240000000686400000901432DA    GBYIPLGB005500360039
BI00B32DA    SBT2204C       202203107286-3885-40             CONNECTOR MALE ASS'Y     CCN000013050000013200FN00000000020220401000013200NNM   20220217121746    1N0N  00000120000000910600001130632DA    GBYIPLGB005500360039
BI00B32DA    SBT2204C       202203107114-4415-02             TERMINAL MALE            CCN000027000000027000FN00000000020220401000027000NNM   20220217121746    4P0P  00002700000000429300000717532DA    GBYIPLGB006400630015
BI00B32DA    SBT2204C       202203107158-3169-40             SEALING PLUG             CCN000040000000040000FN00000000020220401000040000NNM   20220217121746    1C0C  00004000000000156000000204132DA    GBYIPLGB004300260014
BI00B32DA    #SBT2204C      202203107116-4021                TERMINAL                 CCN000013500000013500FN00000000020220401000013500NNM   20220217121746    2F0P  00001350000000534600000868832DA    GBYIPLGB006400630015
BI00B32DA    #SBT2204C      202203107189-3037                HOUSING FEMALE           CCN000004800000004800FN00000000020220401000004800NNM   20220217121746    2F0F  00000480000000806400001066432DA    GBYIPLGB005500360039
BI00B32DA    #SBT2204C      202203107183-2414-40             CONNECTOR HOUSING        CCN000004800000004800FN00000000020220401000004800NNM   20220217121746    2F0F  00000480000000777600000963632DA    GBYIPLGB005500360039
BI00B32DE    #TCT2032       202202247172-5629-80             RUBBER STOPPER           CCN000020000000020000FN00000000020220301000020000NNM00020220217161733    2H0H  00002000000000060000000111132DE    TVYEV-TV004300270014
BI00B32DE    TCT204A        202203107116-4031                TERMINAL                 CCN000007500000007500FN00000000020220401000007500NNE   20220217121746    4P0P  00000750000000619500000904732DE    TVYEV-TV006400630015
BI00B32DE    TCT204A        202203107116-5044-02             TERMINAL                 CCN000064000000064000FN00000000020220401000064000NNE   20220217121746    4P0P  00001600000000641600000986332DE    TVYEV-TV006400630017
BI00B32DE    TCT204A        202203107116-5045-02             TERMINAL                 CCN000144000000144000FN00000000020220401000144000NNE   20220217121746    4P0P  00001600000000678400001007132DE    TVYEV-TV006400630017
BI00B32DE    TCT204A        202203107116-5046-02             TERMINAL                 CCN000012000000012000FN00000000020220401000012000NNE   20220217121746    4P0P  00001200000000544800000873532DE    TVYEV-TV006400630017
BI00B32DE    TCT204A        202203107116-5752-02             TERMINAL                 CCN000021000000021000FN00000000020220401000021000NNE   20220217121746    4P0P  00002100000000571200000856432DE    TVYEV-TV006400630015
BI00B32DE    TCT204A        202203107158-3006-90             RUBBER STOPPER           CCN000340000000340000FN00000000020220401000340000NNE   20220217121746    1C0C  00002000000000330600000386032DE    TVYEV-TV002700430014
BI00B32DE    TCT204A        202203107283-1057-30             CONNECTOR HOUSING        CCN000000960000000960FN00000000020220401000000960NNE   20220217121746    4N0N  00000096000000925400001075432DE    TVYEV-TV005500360039
BI00B32DE    TCT204A        202203107283-1288-10             CONNECTOR HOUSING        CCN000002400000002400FN00000000020220401000002400NNE   20220217121746    4N0N  00000120000001381000001637032DE    TVYEV-TV005600390040
BI00B32DE    TCT204A        202203107283-6120                CONNECTOR HOUSING        CCN000004500000004500FN00000000020220401000004500NNE   20220217121746    1N0N  00000150000000914000001143032DE    TVYEV-TV005600390040
BI00B32DE    TCT204A        202203107283-7449-30             HOUSING FEMALE ASS'Y     CCN000014400000014400FN00000000020220401000014400NNE   20220217121746    4N0N  00000240000001200000001410032DE    TVYEV-TV005500360039
BI00B32DE    TCT204A        202203107283-7449-40             HOUSING FEMALE ASS'Y     CCN000009600000009600FN00000000020220401000009600NNE   20220217121746    4N0N  00000240000001200000001410032DE    TVYEV-TV005500360039
BI00B32DE    TCT204A        202203107283-7526-40             CONNECTOR HOUSING        CCN000001960000001960FN00000000020220401000001960NNE   20220217121746    4N0N  00000196000000989800001248632DE    TVYEV-TV005500360039
BI00B32DE    TCT204A        202203107287-1915-90             CONNECTOR ASS'Y          CCN000002400000002400FN00000000020220401000002400NNE   20220217121746    4N0N  00000240000000666500000923132DE    TVYEV-TV005500360039
BI00B32DE    TCT204A        202203107287-7599-10             HOUSING FEMALE ASS'Y     CCN000001600000001600FN00000000020220401000001600NNE   20220217121746    4N0N  00000160000001233600001445632DE    TVYEV-TV005500360039
BI00B32DE    TCT204A        202203107288-3335-30             HOUSING MALE             CCN000001500000001500FN00000000020220401000001500NNE   20220217121746    4N0N  00000150000000867000001012032DE    TVYEV-TV005400370024
BI00B32DE    TCT204A        202203107382-1481-10             CONNECTOR                CCN000002400000002400FN00000000020220401000002400NNE   20220217121746    4N0N  00000080000001025000001183032DE    TVYEV-TV005600390040
BI00A32DE    QA-22-S005     202202217158-3006-90             RUBBER STOPPER           PNN000220000000220000FN00000000020220201000220000NNED0020220217140305    1C0C  00002000000000330600000386032DE    TVYEV-TV002700430014
BI00B32DE    QA-22-S005     202202247158-3006-90             RUBBER STOPPER           PNN000240000000240000FN00000000020220201000240000NNED0020220217121746    1C0C  00002000000000330600000386032DE    TVYEV-TV002700430014
BI00B32DE    #TCTL204B      202203247158-3003-90             RUBBER STOPPER           CCN000120000000120000FN00000000020220401000120000NNE   20220217154708    2C0C  00002000000000250000000306032DE    TVYEV-TV002700430014
BI00B32DE    #TCTL204A      202203107158-3005-80             RUBBER STOPPER           CCN000020000000020000FN00000000020220401000020000NNE   20220217154708    2H0H  00002000000000210000000268732DE    TVYEV-TV002700430014
BI00B32DE    #TCTL204B      202203247158-3005-80             RUBBER STOPPER           CCN000020000000020000FN00000000020220401000020000NNE   20220217154708    2H0H  00002000000000210000000268732DE    TVYEV-TV002700430014
BI00B32DE    #TCTL204B      202203247158-3007-10             RUBBER STOPPER           CCN000040000000040000FN00000000020220401000040000NNE   20220217154708    2H0H  00002000000000308000000362732DE    TVYEV-TV002700430014
BI00B32DE    #TCTL204B      202203247283-1065                CONNECTOR                CCN000002500000002500FN00000000020220401000002500NNE   20220217154708    2N0N  00000250000001152500001310432DE    TVYEV-TV005500360039
BI00B32DG    #RL2032        202202247158-3007-10             RUBBER STOPPER           CCN000060000000060000FN00000000020210301000060000NNM00020220217161811    2H0H  00002000000000308000000362732DG    BFSAIBF 002700430014
BI00B32D1    #DFTC2214      202202227172-5629-80             RUBBER STOPPER           CCN000200000000200000FN00000000020220401000200000NNM00020220217155119    2H0H  00002000000000060000000111132D1    TOYOT-K 004300270014
BI00A32D1    DFTC2216       202202247289-3342-40             HOUSING FEMALE ASS'Y     CCN000012000000012000FN00000000020220401000012000NNMD0020220217140847    1N0N  00000240000000686400000901432D1    TOYOT-K 005500360039
BI00B32D1    DFTC2217       202203037288-6547                CONNECTOR MALE ASS'Y     CCN000003000000003000FN00000000020220401000003000NNMD0020220217121746    4N0N  00000075000001205300001340332D1    TOYOT-K 005400370024
BI00B32D1    DFTC2217       202203037289-3342                HOUSING FEMALE ASS'Y     CCN000004800000004800FN00000000020220401000004800NNMD0020220217121746    1N0N  00000240000000686400000901432D1    TOYOT-K 005500360039
BI00B32D1    DFTC2217       202203037289-3342-40             HOUSING FEMALE ASS'Y     CCN000002400000002400FN00000000020220401000002400NNMD0020220217121746    1N0N  00000240000000686400000901432D1    TOYOT-K 005500360039
BI00B32D1    DFTC2217       202203037289-3342-90             HOUSING FEMALE ASS'Y     CCN000002400000002400FN00000000020220401000002400NNMD0020220217121746    1N0N  00000240000000686400000901432D1    TOYOT-K 005500360039
BI00B32D2    DGTC2212       202202227289-3342-30             HOUSING FEMALE ASS'Y     CCN000045600000045600FN00000000020220301000045600NNM00020220217155250    1N0N  00000240000000686400000901432D2    TGYOT-G 005500360039
BI00B32D2    DGTC2220       202203247114-7842-02             TERMINAL MALE            CCN000012000000012000FN00000000020220501000012000NNM   20220217121746    4P0P  00001200000000460800000754432D2    TGYOT-G 006400630015
BI00B32D2    DGTC2220       202203247116-4486-02             TERMINAL                 CCN000084000000084000FN00000000020220501000084000NNM   20220217121746    4P0P  00002800000000666400000995132D2    TGYOT-G 006400630017
BI00B32D2    DGTC2220       202203247196-1325-02             TERMINAL FEMALE          CCN000240000000240000FN00000000020220501000240000NNM   20220217121746    4P0P  00006000000000450000000778732D2    TGYOT-G 006400630017
BI00B32D2    DGTC2220       202203247196-1326-02             TERMINAL FEMALE          CCN000660000000660000FN00000000020220501000660000NNM   20220217121746    4P0P  00006000000000456000000784732D2    TGYOT-G 006400630017
BI00B32D2    DGTC2220       202203247196-1327-02             TERMINAL FEMALE          CCN000052000000052000FN00000000020220501000052000NNM   20220217121746    4P0P  00005200000000336000000739532D2    TGYOT-G 006400630017
BI00B32D2    DGTC2220       202203247196-1481-02             TERMINAL FEMALE          CCN000024000000024000FN00000000020220501000024000NNM   20220217121746    4P0P  00002400000000422400000707632D2    TGYOT-G 006400630015
BI00B32D2    DGTC2220       202203247283-1156                CONNECTOR                CCN000000800000000800FN00000000020220501000000800NNM   20220217121746    4N0N  00000080000000877600001078032D2    TGYOT-G 005600390040
BI00B32D2    DGTC2220       202203247283-6388-40             CONNECTOR                CCN000002000000002000FN00000000020220501000002000NNM   20220217121746    4N0N  00000200000001029000001173532D2    TGYOT-G 005500360039
BI00B32D2    DGTC2220       202203247288-6547                CONNECTOR MALE ASS'Y     CCN000012000000012000FN00000000020220501000012000NNM   20220217121746    4N0N  00000075000001205300001340332D2    TGYOT-G 005400370024
BI00B32D2    DGTC2220       202203247289-3342                HOUSING FEMALE ASS'Y     CCN000079200000079200FN00000000020220501000079200NNM   20220217121746    1N0N  00000240000000686400000901432D2    TGYOT-G 005500360039
BI00B32D2    DGTC2220       202203247289-3342-30             HOUSING FEMALE ASS'Y     CCN000019200000019200FN00000000020220501000019200NNM   20220217121746    1N0N  00000240000000686400000901432D2    TGYOT-G 005500360039
BI00B32D2    DGTC2220       202203247289-3342-40             HOUSING FEMALE ASS'Y     CCN000033600000033600FN00000000020220501000033600NNM   20220217121746    1N0N  00000240000000686400000901432D2    TGYOT-G 005500360039
BI00B32D2    DGTC2220       202203247289-3342-90             HOUSING FEMALE ASS'Y     CCN000033600000033600FN00000000020220501000033600NNM   20220217121746    1N0N  00000240000000686400000901432D2    TGYOT-G 005500360039
BI00B32D2    DGTC2220       202203247289-6547                HOUSING FEMALE ASS'Y     CCN000012000000012000FN00000000020220501000012000NNM   20220217121746    1N0N  00000240000001152000001362032D2    TGYOT-G 005500360039
BI00B32D2    DGTC2220       202203247296-0784-02             TERMINAL ALUMINIUM       CCN000072000000072000FN00000000020220501000072000NNM   20220217121746    4P0P  00002400000000480000000765232D2    TGYOT-G 006400630015
BI00B32D2    DGTC2220       202203247327-6801-3W             BATTERY FUSE             CCN000002784000002784FN00000000020220501000002784NNM   20220217121746    4N0N  00000009600000928400001143432D2    TGYOT-G 005500360039
BI00B32D2    DGTC2220       202203247327-6803                MULTI FUSE               CCN000001680000001680FN00000000020220501000001680NNM   20220217121746    4N0N  00000056000000854600001067032D2    TGYOT-G 005400370024
BI00B32D2    DGTC2220       202203247327-6806                MULTI FUSE               CCN000002800000002800FN00000000020220501000002800NNM   20220217121746    4N0N  00000056000000851500001063932D2    TGYOT-G 005400370024
BI00B32D2    DGTC2220       202203247327-6930                MULTI FUSE               CCN000001120000001120FN00000000020220501000001120NNM   20220217121746    4N0N  00000056000000848900001031932D2    TGYOT-G 005400370024
BI00B32D2    #DGTC2220      202203247189-3036                HOUSING FEMALE           CCN000001600000001600FN00000000020220501000001600NNM   20220217121746    2F0F  00000160000000921600001141632D2    TGYOT-G 005500360039
BI00B32D2    #DGTC2220      202203247198-5394                HOUSING FEMALE           CCN000004800000004800FN00000000020220501000004800NNM   20220217121746    2F0F  00000480000000489700000688832D2    TGYOT-G 005500360039
BI00B32D2    #DGTC2220      202203247283-8226-30             CONNECTOR                CCN000004000000004000FN00000000020220501000004000NNM   20220217121746    2N0N  00000200000000820000001008032D2    TGYOT-G 005400370024
BI00B32D4    4513144932     202202187116-4415-02             TERMINAL                 CCN000038000000038000FN00000000020220201000038000NNE00020220217161917    4P0P  00003800000000596600000925732D4    YRYRL   006400630017
BI00B32D9    #I21203        202202247158-3007-10             RUBBER STOPPER           CCN000040000000040000FN00000000020220301000040000NNM00020220217162002    2H0H  00002000000000308000000362732D9    UEHESTO 002700430014
BI00B32D9    #I21203        202202247172-5630-40             RUBBER STOPPER           CCN000020000000020000FN00000000020220301000020000NNM00020220217162024    2H0H  00002000000000044000000095132D9    UEHESTO 004300270014
BI00B32EJ    T220121P03     202203107B58-3070-80             RUBBER STOPPER           CCN000040000000040000FN00000000020220301000040000NNED0320220217140600EJ  1C0C  00004000000000276000000333032EJ    EJYKBO  004300270014
BI00B32EJ    T220126P01     202203107158-3167-80             WIRE SEAL                CCN000780000000780000FN00000000020220301000780000NNED0020220217140652EJ  1C0C  00002000000000048000000109032EJ    EJYKBO  002700430014
BI00B32EJ    T220126P01     202203107B58-3070-80             RUBBER STOPPER           CCN000040000000040000FN00000000020220301000040000NNED0320220217140626EJ  1C0C  00004000000000276000000333032EJ    EJYKBO  004300270014
BI00B32EJ    T220210P01     202203247158-3167-80             WIRE SEAL                CCN000360000000360000FN00000000020220301000360000NNED0220220217121746EJ  1C0C  00002000000000048000000109032EJ    EJYKBO  002700430014
BI00B32EJ    T220211P01     202203247158-3167-80             WIRE SEAL                CCN000120000000120000FN00000000020220301000120000NNED0220220217121746EJ  1C0C  00002000000000048000000109032EJ    EJYKBO  002700430014
BI00B32EJ    T220211P02     202203247283-5843                CONNECTOR                CCN000018000000009000FN00000000020220301000009000NNED0220220217121746EJ  1N0N  00000150000000889000001132032EJ    EJYKBO  005600390040
BI00B32EJ    T220214P03     202204077158-3167-80             WIRE SEAL                CCN000860000000860000FN00000000020220301000860000NNED0220220217121746EJ  1C0C  00002000000000048000000109032EJ    EJYKBO  002700430014
BI00B32EJ    T220215P01     202203177116-4102-02             TERMINAL                 CCN000012000000012000FN00000000020220301000012000NNE   20220217121746EJ  4P0P  00001200000000553200000841432EJ    EJYKBO  006400630015
BI00B32EJ    T220211P02     202203317283-5843                CONNECTOR                CCN000009000000009000FN00000000020220301000009000NNED0220220217121746EJ  1N0N  00000150000000889000001132032EJ    EJYKBO  005600390040
BI00B32G7    JJ22034 MW     202203177158-3006-90             RUBBER STOPPER           CCN000120000000120000FN00000000020220301000120000NNMD0020220217151434    1C0C  00002000000000330600000386032G7    JIJAI   002700430014
BI00B32G7    JJ22034 MW     202203177158-3009-60             RUBBER STOPPER           CCN000200000000200000FN00000000020220301000200000NNMD0020220217151356    1C0C  00002000000000338000000386232G7    JIJAI   002700430014
BI00B32G7    JJ22034 MW     202203177158-3070-80             RUBBER STOPPER           CCN000080000000080000FN00000000020220301000080000NNMD0020220217151621    1C0C  00004000000000276000000333332G7    JIJAI   002700430014
BI00B32G7    JJ22034 MW     202203177282-4854                HOUSING MALE ASS'Y       CCN000001200000001200FN00000000020220301000001200NNMD0020220217140037    4N0N  00000120000000698900000908832G7    JIJAI   005500360039
BI00B32G7    JJ22034 MW     202203177283-1289-40             CONNECTOR HOUSING        CCN000000600000000600FN00000000020220301000000600NNMD0020220217135917    1N0N  00000060000000679800000824832G7    JIJAI   005400370024
BI00B32G7    JJ22034 MW     202203177286-1915                CONNECTOR SUB ASSY       CCN000008000000008000FN00000000020220301000008000NNMD0020220217135825    4N0N  00000160000000965600001165632G7    JIJAI   005500360039
BI00B32G7    JJ22034 MW     202203177287-1915                CONNECTOR ASS'Y          CCN000016800000016800FN00000000020220301000016800NNMD0020220217135236    4N0N  00000240000000666500000923132G7    JIJAI   005500360039
BI00B32G7    JJ22034 MW     202203177288-3331-30             HOUSING MALE             CCN000004500000004500FN00000000020220301000004500NNMD0020220217140059    4N0N  00000150000000866000001010932G7    JIJAI   005400370024
BI00B32G7    JJ22034 MW     202203177288-3334-30             HOUSING MALE             CCN000001500000001500FN00000000020220301000001500NNMD0020220217140118    4N0N  00000150000000867000001012032G7    JIJAI   005400370024
BI00B32G7    JJ22034 MW     202203177288-3335-30             HOUSING MALE             CCN000009000000009000FN00000000020220301000009000NNMD0020220217140130    4N0N  00000150000000867000001012032G7    JIJAI   005400370024
BI00B32G7    JJ22034 MW     202203177288-3340-30             HOUSING MALE             CCN000006000000006000FN00000000020220301000006000NNMD0020220217140157    4N0N  00000150000000861500001006432G7    JIJAI   005400370024
BI00B32G7    #JJ22034 MW    202203177123-6347                CONNECTOR HOUSING        CCN000003200000003200FN00000000020220301000003200NNMD0020220217134157    2F0F  00000160000000647000000904832G7    JIJAI   005500360039
BI00B32G7    #JJ22034 MW    202203177158-3004-40             RUBBER STOPPER           CCN000120000000120000FN00000000020220301000120000NNMD0020220217150354    2C0C  00002000000000234000000306332G7    JIJAI   002700430014
BI00B32G7    #JJ22032 MW    202202247158-3007-10             RUBBER STOPPER           CCN000120000000120000FN00000000020220301000120000NNM00020220217162056    2H0H  00002000000000308000000362732G7    JIJAI   002700430014
BI00B32G7    #JJ22034 MW    202203177158-3007-10             RUBBER STOPPER           CCN000220000000220000FN00000000020220301000220000NNMD0020220217150417    2H0H  00002000000000308000000362732G7    JIJAI   002700430014
BI00B32G7    JJ22034KMW     202203107158-3169-40             SEALING PLUG             CCN000040000000040000FN00000000020220301000040000NNMD0020220217151818    1C0C  00004000000000156000000204132G7    JIJAI   004300260014
BI00B32G7    JJ22034KMW     202203177298-2507-30             HOUSING FEMALE ASS'Y     CCN000002100000002400FN00000000020220301000002400NNMD0020220217135850    4N0N  00000120000000713200000914532G7    JIJAI   005500360039
BI00B32G7    #JJ22034KMW    202203177158-3654-80             WIRE TUBE                CCN000040000000040000FN00000000020220301000040000NNMD0020220217150444    2H0H  00004000000000104000000152232G7    JIJAI   004300270014
BI00B32G7    #JJ22034KMW    202203177182-9631-40             JOINT CONNECTOR          CCN000003000000003000FN00000000020220301000003000NNMD0020220217154243    2F0F  00000300000001182000001307432G7    JIJAI   005400370024
BI00B32G7    @JJ22034KMW    202203177123-4312-30             HOUSING                  CCN000001600000001600FN00000000020220301000001600NNMD0020220217133905    3F0F  00000080000000641900000793232G7    JIJAI   005500360039
BI00B32G7    #JJ22034LMW    202203177183-2414                CONNECTOR HOUSING        CCN000009600000009600FN00000000020220301000009600NNMD0020220217134224    2F0F  00000480000000779200001061032G7    JIJAI   005500360039
BI00B32G7    #JJ22034LMW    202203177189-0149                HLC HOUSING FEMALE       CCN000012000000012000FN00000000020220301000012000NNMD0020220217165912    2F0F  00000200000000970000001078532G7    JIJAI   005400370024
BI00B32G7    @JJ22034LMW    202203177183-8049                CONNECTOR HOUSING        CCN000012000000012000FN00000000020220301000012000NNMD0020220217133941    3F0F  00000400000000583600000740032G7    JIJAI   005400370024
BI00B32G7    JJ22034MMW     202203177158-3022-80             RUBBER STOPPER           CCN000005000000005000FN00000000020220301000005000NNMD0020220217151853    1C0C  00000500000000467500000524032G7    JIJAI   002700430014
BI00B32G7    JJ22034MMW     202203037196-0396-02             TERMINAL                 CCN000015000000015000FN00000000020220301000015000NNM00020220217150229    4P0P  00001500000000949500001112932G7    JIJAI   002800510028
BI00B32G7    JJ22034MMW     202203177283-1289                CONNECTOR HOUSING        CCN000001800000001800FN00000000020220301000001800NNMD0020220217140002    1N0N  00000060000000676200000817632G7    JIJAI   005400370024
BI00B32G7    JJ22034MMW     202203177287-1915-40             CONNECTOR ASS'Y          CCN000002400000002400FN00000000020220301000002400NNMD0020220217135258    4N0N  00000240000000666500000923132G7    JIJAI   005500360039
BI00B32G7    JJ22034MMW     202203177287-1915-90             CONNECTOR ASS'Y          CCN000004800000004800FN00000000020220301000004800NNMD0020220217135314    4N0N  00000240000000666500000923132G7    JIJAI   005500360039
BI00B32G7    JJ22034MMW     202203177288-3330-30             HOUSING MALE             CCN000001500000001500FN00000000020220301000001500NNMD0020220217140232    4N0N  00000150000000866300001011232G7    JIJAI   005400370024
BI00B32G7    JJ22034MMW     202203177288-3332-30             HOUSING MALE             CCN000006000000006000FN00000000020220301000006000NNMD0020220217140255    4N0N  00000150000000860700001005732G7    JIJAI   005400370024
BI00B32G7    JJ22034MMW     202203177288-3338-30             HOUSING MALE             CCN000007500000007500FN00000000020220301000007500NNMD0020220217140311    4N0N  00000150000000866100001012032G7    JIJAI   005400370024
BI00B32G7    JJ22034MMW     202203177288-3339-30             HOUSING MALE             CCN000003000000003000FN00000000020220301000003000NNMD0020220217140329    4N0N  00000150000000867000001012032G7    JIJAI   005400370024
BI00B32G7    JJ22034MMW     202203177289-3342                HOUSING FEMALE ASS'Y     CCN000007200000007200FN00000000020220301000007200NNMD0020220217140347    1N0N  00000240000000686400000901432G7    JIJAI   005500360039
BI00B32G7    JJ22034MMW     202203177327-6627-3W             BATTERY FUSE             CCN000002840000002880FN00000000020220301000002880NNMD0020220217151025    4N0N  00000009600001332300001534632G7    JIJAI   005500360039
BI00B32G7    JJ22034MMW     202203177327-6731-3W             BATTERY FUSE             CCN000004736000004736FN00000000020220301000004736NNMD0020220217151114    4N0N  00000006400000697600000843032G7    JIJAI   005400370024
BI00B32G7    JJ22034MMW     202203177388-2978-30             HOUSING MALE ASS'Y       CCN000018720000018720FN00000000020220301000018720NNMD0020220217151050    1N0N  00000048000000742000001122032G7    JIJAI   005500360039
BI00B32G7    #JJ22034MMW    202203177158-3005-80             RUBBER STOPPER           CCN000060000000060000FN00000000020220301000060000NNMD0020220217150636    2H0H  00002000000000210000000268732G7    JIJAI   002700430014
BI00B32G7    #JJ22032MMW    202202247172-5629-80             RUBBER STOPPER           CCN000280000000280000FN00000000020220301000280000NNM00020220217162139    2H0H  00002000000000060000000111132G7    JIJAI   004300270014
BI00B32G7    #JJ22034MMW    202203177172-5629-80             RUBBER STOPPER           CCN000260000000260000FN00000000020220301000260000NNMD0020220217150745    2H0H  00002000000000060000000111132G7    JIJAI   004300270014
BI00B32G7    #JJ22034MMW    202203177172-5630-40             RUBBER STOPPER           CCN000320000000320000FN00000000020220301000320000NNMD0020220217150810    2H0H  00002000000000044000000095132G7    JIJAI   004300270014
BI00B32G7    #JJ22034MMW    202203177172-5631-60             RUBBER STOPPER           CCN000080000000080000FN00000000020220301000080000NNMD0020220217150825    2H0H  00002000000000042000000093132G7    JIJAI   004300270014
BI00B32G7    #JJ22034MMW    202203177189-2978-30             HOUSING FEMALE           CCN000018000000018000FN00000000020220301000018000NNMD0020220217150240    2F0F  00000150000000966900001096932G7    JIJAI   005400370024
BI00B32G7    #JJ22034MMW    202203177189-3033                HOUSING FEMALE           CCN000006400000006400FN00000000020220301000006400NNMD0020220217134248    2F0F  00000160000001211200001431232G7    JIJAI   005500360039
BI00B32G7    #JJ22034MMW    202203177289-3622-30             HOUSING FEMALE ASS'Y     CCN000003888000003888FN00000000020220301000003888NNMD0020220217150512    2N0N  00000043200000839400001038432G7    JIJAI   005400370024
BI00B32G7    @JJ22034MMW    202203177187-1769                HOUSING FEMALE           CCN000004000000004000FN00000000020220301000004000NNMD0020220217134005    3F0F  00000200000001035800001182032G7    JIJAI   005500360039
BI00B32G7    @JJ22034MMW    202203177287-4098                CONNECTOR FEMALE         CCN000004500000004800FN00000000020220301000004800NNMD0020220217134026    3N0N  00000240000000668600000908032G7    JIJAI   005500360039
BI00B32G7    @JJ22034MMW    202203177287-4098-40             CONNECTOR FEMALE         CCN000004800000004800FN00000000020220301000004800NNMD0020220217134057    3N0N  00000240000000672500000908032G7    JIJAI   005500360039
BI00B32G7    JJ2204ALMW     202203247116-4114-02             TERMINAL                 CCN000010500000010500FN00000000020220401000010500NNE   20220217121746    4P0P  00001050000000693000000981232G7    JIJAI   006400630015
BI00B32G7    #JJ2204ALMW    202203247189-0149                HLC HOUSING FEMALE       CCN000002000000002000FN00000000020220401000002000NNE   20220217121746    2F0F  00000200000000970000001078532G7    JIJAI   005400370024
BI00B32G7    JJ2204B MW     202203247116-4028-08             TERMINAL FEMALE          CCN000064000000064000FN00000000020220401000064000NNE   20220217121746    4P0P  00001600000000652800000981532G7    JIJAI   006400630017
BI00B32G7    JJ2204B MW     202203247116-4416-02             TERMINAL                 CCN000032000000032000FN00000000020220401000032000NNE   20220217121746    4P0P  00003200000000518400000847132G7    JIJAI   006400630017
BI00B32G7    JJ2204B MW     202203247116-4780-02             TERMINAL FEMALE          CCN000015000000015000FN00000000020220401000015000NNE   20220217121746    4P0P  00001500000000691500000985732G7    JIJAI   006400630015
BI00B32G7    #JJ2204BMMW    202203247172-5627-60             RUBBER STOPPER           CCN000020000000020000FN00000000020220401000020000NNE   20220217121746    2H0H  00002000000000070400000121832G7    JIJAI   004300270014
BI00A32G7    JJ2202F MW     202202187114-4031                TERMINAL                 CCN000010500000010500FN00000000020220201000010500NNE   20220217143143    4P0P  00001050000000966000001294632G7    JIJAI   006400630017
BI00B32H2    TIJ204A        202203257470-5304                J/B COMPLETE ASS'Y       CCN000000300000000300FN00000000020220401000000300NNED0220220217152313    4J0J  00000001000000494000000661032H2    HVYHV   005400370024
BI00B32H2    TIJ204B        202204017470-5304                J/B COMPLETE ASS'Y       CCN000000300000000300FN00000000020220401000000300NNED0220220217152335    4J0J  00000001000000494000000661032H2    HVYHV   005400370024
BI00B32H7    #FS22033DMW    202202187158-3007-10             RUBBER STOPPER           CCN000100000000100000FN00000000020220301000100000NNM00020220217161210    2H0H  00002000000000308000000362732H7    FYFSY   002700430014
BI00B32H7    #FS22033DMW    202202237172-5629-80             RUBBER STOPPER           CCN000260000000260000FN00000000020220301000260000NNM00020220217161220    2H0H  00002000000000060000000111132H7    FYFSY   004300270014
BI00A32H8    #TY22031KMW    202202237172-5630-40             RUBBER STOPPER           PCN000040000000040000FN00000000020220301000040000NNM00020220217150956    2H0H  00002000000000044000000095132H8    TYTYC   004300270014
BI00A32J1    391054         202202287298-1869-30             HOUSING FEMALE ASS'Y     CCN000006000000006000FN00000000020220201000006000NNE00020220217162502    4N0N  00000120000000737000000939832J1    UKYEL-BL005500360039
BI00A32J1    #391561        202203147297-1911-30             HOUSING MALE ASS'Y       CCN000007000000007000FN00000000020211201000007000NNED0720220217121746    2N0N  00000100000000486900000600132J1    UKYEL-BL005400370024
BI00B32M1    TCV2034        202203177282-1119-30             HOUSING MALE ASS'Y       CCN000005472000005472FN00000000020220301000005472NNMD0620220217141303    4N0N  00000028800000821700001008032M1    VNYEV   005400370024
BI00B32M1    TCV2041        202203247282-1119-30             HOUSING MALE ASS'Y       CCN000005760000005760FN00000000020220401000005760NNMD0620220217141335    4N0N  00000028800000821700001008032M1    VNYEV   005400370024
BI00B32M1    TCV2042        202203317282-1119-30             HOUSING MALE ASS'Y       CCN000005472000005472FN00000000020220401000005472NNMD0220220217141651    4N0N  00000028800000821700001008032M1    VNYEV   005400370024
BI00B32M1    TCV2044        202204077282-4576                HOUSING MALE ASS'Y       CCN000021600000021600FN00000000020220401000021600NNMD0620220217141822    4N0N  00000240000000808800001028832M1    VNYEV   005500360039
BI00B32M4    #TL2032        202202247158-3007-10             RUBBER STOPPER           CCN000020000000020000FN00000000020220301000020000NNM00020220217162231    2H0H  00002000000000308000000362732M4    SISAI   002700430014
BI00B32N1    #NST2115A-1    202202187158-3007-10             RUBBER STOPPER           CCN000020000000020000FN00000000020220301000020000NNM00020220217144729    2H0H  00002000000000308000000362732N1    TAYIPL  002700430014
BI00B32N1    #NST2115A-2    202202187283-5831                CONNECTOR                CCN000000700000003000FN00000000020220301000003000NNM00020220217144756    2N0N  00000300000000750000000880032N1    TAYIPL  005400370024
BI00B32N2    2152103809     202203247158-3167-80             WIRE SEAL                CCN002100000002100000FN00000000020220401002100000NNMD0220220217121746    1C0C  00002000000000048000000109032N2    YWYIPLTC002700430014
BI00B32N3    #NBT204 B      202202187158-3017                RUBBER STOPPER           CCN000020000000020000FN00000000020220401000020000NNE00020220217144651    2C0C  00001000000000375500000435032N3    ABYIPL-B002700430014
BI00B32N3    #NBT204 B      202202187187-1616                HOUSING FEMALE           CCN000004000000004000FN00000000020220401000004000NNE00020220217144639    2F0F  00000400000001152000001262032N3    ABYIPL-B005500360039
BI00B32Q8    #EU22033 MW    202202237158-3007-10             RUBBER STOPPER           CCN000120000000120000FN00000000020220301000120000NNM00020220217162307    2H0H  00002000000000308000000362732Q8    EMEMI   002700430014
BI00B32Q8    EU2204B MW     202203097017-1180-02             TERMINAL                 CCN000072000000072000FN00000000020220401000072000NNE   20220217152124    4P0P  00007200000001065600001229032Q8    EMEMI   005100280028
BI00B32Q8    EU2204B MW     202203097017-1182-02             TERMINAL                 CCN000045000000045000FN00000000020220401000045000NNE   20220217152124    4P0P  00004500000001165500001318632Q8    EMEMI   005100280028
BI00B32Q8    EU2204B MW     202203097114-4032                TERMINAL                 CCN000030000000030000FN00000000020220401000030000NNE   20220217152124    4P0P  00000750000000735000001063632Q8    EMEMI   006400630017
BI00B32Q8    EU2204B MW     202203097116-2891-02             TERMINAL                 CCN000030000000030000FN00000000020220401000030000NNE   20220217152124    4P0P  00001500000000982500001145932Q8    EMEMI   005100280028
BI00B32Q8    EU2204B MW     202203097116-4416-02             TERMINAL                 CCN000128000000128000FN00000000020220401000128000NNE   20220217152124    4P0P  00003200000000518400000847132Q8    EMEMI   006400630017
BI00B32Q8    EU2204B MW     202203097116-5751-02             TERMINAL                 CCN000312000000312000FN00000000020220401000312000NNE   20220217152124    4P0P  00001200000000379200000664432Q8    EMEMI   006400630015
BI00B32Q8    EU2204B MW     202203097126-8853-02             TERMINAL                 CCN000052500000052500FN00000000020220401000052500NNE   20220217152124    4P0P  00000750000000562500000847732Q8    EMEMI   006400630015
BI00B32Q8    EU2204B MW     202203097283-5843                CONNECTOR                CCN000001500000001500FN00000000020220401000001500NNE   20220217152124    1N0N  00000150000000889000001132032Q8    EMEMI   005600390040
BI00B32Q8    EU2204B MW     202203097283-6120                CONNECTOR HOUSING        CCN000001500000001500FN00000000020220401000001500NNE   20220217152124    1N0N  00000150000000914000001143032Q8    EMEMI   005600390040
BI00B32Q8    #EU2204B MW    202203097283-8398-40             CONNECTOR                CCN000001540000001540FN00000000020220401000001540NNE   20220217152116    2N0N  00000154000001007000001171332Q8    EMEMI   005600390023
BI00B32Q8    EU2204BDMW     202203097C89-6868-30             SEALED ASSY FEMALE       CCN000002520000002520FN00000000020220401000002520NNE   20220217152145    4N0N  00000252000000839200001119232Q8    EMEMI   005500360039
BI00B32Q8    EU2204BNMW     202203097283-7526-60             CONNECTOR HOUSING        CCN000001960000001960FN00000000020220401000001960NNE   20220217152207    4N0N  00000196000000989800001248632Q8    EMEMI   005500360039
BI00B32Q8    EU2204BNMW     202203097298-1866-40             HOUSING FEMALE ASS'Y     CCN000002400000002400FN00000000020220401000002400NNE   20220217152207    4N0N  00000240000001003000001217932Q8    EMEMI   005500360039
BI00B32Q8    EU2204BNMW     202203097298-2279-40             HOUSING FEMALE ASS'Y     CCN000002400000002400FN00000000020220401000002400NNE   20220217152207    4N0N  00000240000001095800001310732Q8    EMEMI   005500360039
BI00B32Q8    EU2204DTMW     202203097114-5096-02             TERMINAL                 CCN000030000000030000FN00000000020220401000030000NNE   20220217152249    4P0P  00003000000000498000000792232Q8    EMEMI   006400630015
BI00B32Q8    EU2204DTMW     202203097116-5750-02             TERMINAL                 CCN000090000000090000FN00000000020220401000090000NNE   20220217152249    4P0P  00001500000000457500000742732Q8    EMEMI   006400630015
BI00B32Q8    EU2204DTMW     202203097196-1064-02             TERMINAL FEMALE          CCN000006000000006000FN00000000020220401000006000NNE   20220217152249    4P0P  00000600000000570000000855232Q8    EMEMI   006400630015
BI00B32Q8    EU2204DTMW     202203097196-1103-02             TERMINAL                 CCN001080000001080000FN00000000020220401001080000NNE   20220217152249    4P0P  00002250000000429800000715032Q8    EMEMI   006400630015
BI00B32Q8    EU2204DTMW     202203097287-1917-30             CONNECTOR FEMALE         CCN000002400000002400FN00000000020220401000002400NNE   20220217152249    4N0N  00000240000001060800001312532Q8    EMEMI   005500360039
BI00B32Q8    EU2204DTMW     202203097288-6547                CONNECTOR MALE ASS'Y     CCN000000750000000750FN00000000020220401000000750NNE   20220217152249    4N0N  00000075000001205300001340332Q8    EMEMI   005400370024
BI00B32Q8    EU2204DTMW     202203097327-6949-30             MULTI FUSE               CCN000000864000000864FN00000000020220401000000864NNE   20220217152249    4N00  00000028800000886700001052632Q8    EMEMI   005400370024
BI00B32Q8    #EU2204DTMW    202203097154-5597-30             CASSETTE R/B             CCN000000800000000800FN00000000020220401000000800NNE   20220217152221    2F0F  00000080000000736000000952032Q8    EMEMI   005500360039
BI00B32Q8    EU22052 MW     202204127017-1180-02             TERMINAL                 CCN000288000000288000FN00000000020220501000288000NNM   20220217152355    4P0P  00007200000001065600001229032Q8    EMEMI   005100280028
BI00B32Q8    EU22053 MW     202204207017-1180-02             TERMINAL                 CCN000216000000216000FN00000000020220501000216000NNM   20220217152355    4P0P  00007200000001065600001229032Q8    EMEMI   005100280028
BI00B32Q8    EU22054 MW     202204277017-1180-02             TERMINAL                 CCN000288000000288000FN00000000020220501000288000NNM   20220217152355    4P0P  00007200000001065600001229032Q8    EMEMI   005100280028
BI00B32Q8    EU22051 MW     202204067017-1181-02             TERMINAL                 CCN000189000000189000FN00000000020220501000189000NNM   20220217152355    4P0P  00006300000001089900001266832Q8    EMEMI   005100280028
BI00B32Q8    EU22052 MW     202204127017-1181-02             TERMINAL                 CCN000252000000252000FN00000000020220501000252000NNM   20220217152355    4P0P  00006300000001089900001266832Q8    EMEMI   005100280028
BI00B32Q8    EU22053 MW     202204207017-1181-02             TERMINAL                 CCN000252000000252000FN00000000020220501000252000NNM   20220217152355    4P0P  00006300000001089900001266832Q8    EMEMI   005100280028
BI00B32Q8    EU22054 MW     202204277017-1181-02             TERMINAL                 CCN000252000000252000FN00000000020220501000252000NNM   20220217152355    4P0P  00006300000001089900001266832Q8    EMEMI   005100280028
BI00B32Q8    EU22052 MW     202204127017-1182-02             TERMINAL                 CCN000090000000090000FN00000000020220501000090000NNM   20220217152355    4P0P  00004500000001165500001318632Q8    EMEMI   005100280028
BI00B32Q8    EU22053 MW     202204207017-1182-02             TERMINAL                 CCN000135000000135000FN00000000020220501000135000NNM   20220217152355    4P0P  00004500000001165500001318632Q8    EMEMI   005100280028
BI00B32Q8    EU22054 MW     202204277017-1182-02             TERMINAL                 CCN000135000000135000FN00000000020220501000135000NNM   20220217152355    4P0P  00004500000001165500001318632Q8    EMEMI   005100280028
BI00B32Q8    EU22051 MW     202204067017-1183-02             TERMINAL                 CCN000027000000027000FN00000000020220501000027000NNM   20220217152355    4P0P  00002700000001139400001307432Q8    EMEMI   005100280028
BI00B32Q8    EU22052 MW     202204127017-1183-02             TERMINAL                 CCN000027000000027000FN00000000020220501000027000NNM   20220217152355    4P0P  00002700000001139400001307432Q8    EMEMI   005100280028
BI00B32Q8    EU22053 MW     202204207017-1183-02             TERMINAL                 CCN000027000000027000FN00000000020220501000027000NNM   20220217152355    4P0P  00002700000001139400001307432Q8    EMEMI   005100280028
BI00B32Q8    EU22054 MW     202204277017-1183-02             TERMINAL                 CCN000027000000027000FN00000000020220501000027000NNM   20220217152355    4P0P  00002700000001139400001307432Q8    EMEMI   005100280028
BI00B32Q8    EU22051 MW     202204067114-4020                TERMINAL                 CCN000021000000021000FN00000000020220501000021000NNM   20220217152355    4P0P  00002100000000875700001169332Q8    EMEMI   006400630015
BI00B32Q8    EU22052 MW     202204127114-4020                TERMINAL                 CCN000042000000042000FN00000000020220501000042000NNM   20220217152355    4P0P  00002100000000875700001169332Q8    EMEMI   006400630015
BI00B32Q8    EU22053 MW     202204207114-4020                TERMINAL                 CCN000021000000021000FN00000000020220501000021000NNM   20220217152355    4P0P  00002100000000875700001169332Q8    EMEMI   006400630015
BI00B32Q8    EU22054 MW     202204277114-4020                TERMINAL                 CCN000042000000042000FN00000000020220501000042000NNM   20220217152355    4P0P  00002100000000875700001169332Q8    EMEMI   006400630015
BI00B32Q8    EU22052 MW     202204127114-4021                TERMINAL                 CCN000030000000030000FN00000000020220501000030000NNM   20220217152355    4P0P  00001500000000670500000964132Q8    EMEMI   006400630015
BI00B32Q8    EU22053 MW     202204207114-4021                TERMINAL                 CCN000045000000045000FN00000000020220501000045000NNM   20220217152355    4P0P  00001500000000670500000964132Q8    EMEMI   006400630015
BI00B32Q8    EU22054 MW     202204277114-4021                TERMINAL                 CCN000045000000045000FN00000000020220501000045000NNM   20220217152355    4P0P  00001500000000670500000964132Q8    EMEMI   006400630015
BI00B32Q8    EU22053 MW     202204207114-4032                TERMINAL                 CCN000022500000022500FN00000000020220501000022500NNM   20220217152355    4P0P  00000750000000735000001063632Q8    EMEMI   006400630017
BI00B32Q8    EU22054 MW     202204277114-4032                TERMINAL                 CCN000022500000022500FN00000000020220501000022500NNM   20220217152355    4P0P  00000750000000735000001063632Q8    EMEMI   006400630017
BI00B32Q8    EU22051 MW     202204067114-4100-02             TERMINAL                 CCN000108000000108000FN00000000020220501000108000NNM   20220217152355    4P0P  00001800000000748800001077432Q8    EMEMI   006400630017
BI00B32Q8    EU22052 MW     202204127114-4100-02             TERMINAL                 CCN000108000000108000FN00000000020220501000108000NNM   20220217152355    4P0P  00001800000000748800001077432Q8    EMEMI   006400630017
BI00B32Q8    EU22053 MW     202204207114-4100-02             TERMINAL                 CCN000036000000036000FN00000000020220501000036000NNM   20220217152355    4P0P  00001800000000748800001077432Q8    EMEMI   006400630017
BI00B32Q8    EU22054 MW     202204277114-4100-02             TERMINAL                 CCN000054000000054000FN00000000020220501000054000NNM   20220217152355    4P0P  00001800000000748800001077432Q8    EMEMI   006400630017
BI00B32Q8    EU22054 MW     202204277114-4110-02             TERMINAL                 CCN000015000000015000FN00000000020220501000015000NNM   20220217152355    4P0P  00001500000000901500001230132Q8    EMEMI   006400630017
BI00B32Q8    EU22051 MW     202204067114-4111-02             TERMINAL                 CCN000072000000072000FN00000000020220501000072000NNM   20220217152355    4P0P  00001200000000758400001087032Q8    EMEMI   006400630017
BI00B32Q8    EU22052 MW     202204127114-4111-02             TERMINAL                 CCN000012000000012000FN00000000020220501000012000NNM   20220217152355    4P0P  00001200000000758400001087032Q8    EMEMI   006400630017
BI00B32Q8    EU22053 MW     202204207114-4111-02             TERMINAL                 CCN000024000000024000FN00000000020220501000024000NNM   20220217152355    4P0P  00001200000000758400001087032Q8    EMEMI   006400630017
BI00B32Q8    EU22054 MW     202204277114-4111-02             TERMINAL                 CCN000024000000024000FN00000000020220501000024000NNM   20220217152355    4P0P  00001200000000758400001087032Q8    EMEMI   006400630017
BI00B32Q8    EU22051 MW     202204067114-4112-02             TERMINAL                 CCN000054000000054000FN00000000020220501000054000NNM   20220217152355    4P0P  00000900000000598500000927132Q8    EMEMI   006400630017
BI00B32Q8    EU22052 MW     202204127114-4112-02             TERMINAL                 CCN000009000000009000FN00000000020220501000009000NNM   20220217152355    4P0P  00000900000000598500000927132Q8    EMEMI   006400630017
BI00B32Q8    EU22053 MW     202204207114-4112-02             TERMINAL                 CCN000009000000009000FN00000000020220501000009000NNM   20220217152355    4P0P  00000900000000598500000927132Q8    EMEMI   006400630017
BI00B32Q8    EU22054 MW     202204277114-4112-02             TERMINAL                 CCN000018000000018000FN00000000020220501000018000NNM   20220217152355    4P0P  00000900000000598500000927132Q8    EMEMI   006400630017
BI00B32Q8    EU22054 MW     202204277114-4415-02             TERMINAL MALE            CCN000027000000027000FN00000000020220501000027000NNM   20220217152355    4P0P  00002700000000429300000717532Q8    EMEMI   006400630015
BI00B32Q8    EU22052 MW     202204127114-4416-02             TERMINAL MALE            CCN000054000000054000FN00000000020220501000054000NNM   20220217152355    4P0P  00002700000000442800000731032Q8    EMEMI   006400630015
BI00B32Q8    EU22053 MW     202204207114-4416-02             TERMINAL MALE            CCN000054000000054000FN00000000020220501000054000NNM   20220217152355    4P0P  00002700000000442800000731032Q8    EMEMI   006400630015
BI00B32Q8    EU22054 MW     202204277114-4416-02             TERMINAL MALE            CCN000081000000081000FN00000000020220501000081000NNM   20220217152355    4P0P  00002700000000442800000731032Q8    EMEMI   006400630015
BI00B32Q8    EU22053 MW     202204207114-6041                TERMINAL                 CCN000003600000003600FN00000000020220501000003600NNM   20220217152355    4P0P  00000360000000580700000824232Q8    EMEMI   006400630015
BI00B32Q8    EU22054 MW     202204277114-6041                TERMINAL                 CCN000003600000003600FN00000000020220501000003600NNM   20220217152355    4P0P  00000360000000580700000824232Q8    EMEMI   006400630015
BI00B32Q8    EU22053 MW     202204207116-2891-02             TERMINAL                 CCN000015000000015000FN00000000020220501000015000NNM   20220217152355    4P0P  00001500000000982500001145932Q8    EMEMI   005100280028
BI00B32Q8    EU22054 MW     202204277116-2891-02             TERMINAL                 CCN000060000000060000FN00000000020220501000060000NNM   20220217152355    4P0P  00001500000000982500001145932Q8    EMEMI   005100280028
BI00B32Q8    EU22054 MW     202204277116-2892-02             TERMINAL                 CCN000036000000036000FN00000000020220501000036000NNM   20220217152355    4P0P  00001200000000818400000981832Q8    EMEMI   005100280028
BI00B32Q8    EU22054 MW     202204277116-2893-02             TERMINAL                 CCN000060000000060000FN00000000020220501000060000NNM   20220217152355    4P0P  00001200000000895200001058632Q8    EMEMI   005100280028
BI00B32Q8    EU22053 MW     202204207116-3154-08             TERMINAL                 CCN000027000000027000FN00000000020220501000027000NNM   20220217152355    4P0P  00002700000000475200000760432Q8    EMEMI   006400630015
BI00B32Q8    EU22054 MW     202204277116-3154-08             TERMINAL                 CCN000027000000027000FN00000000020220501000027000NNM   20220217152355    4P0P  00002700000000475200000760432Q8    EMEMI   006400630015
BI00B32Q8    EU22051 MW     202204067116-4025                TERMINAL                 CCN000064000000064000FN00000000020220501000064000NNM   20220217152355    4P0P  00001600000000644800000975132Q8    EMEMI   006400630017
BI00B32Q8    EU22052 MW     202204127116-4025                TERMINAL                 CCN000192000000192000FN00000000020220501000192000NNM   20220217152355    4P0P  00001600000000644800000975132Q8    EMEMI   006400630017
BI00B32Q8    EU22053 MW     202204207116-4025                TERMINAL                 CCN000176000000176000FN00000000020220501000176000NNM   20220217152355    4P0P  00001600000000644800000975132Q8    EMEMI   006400630017
BI00B32Q8    EU22054 MW     202204277116-4025                TERMINAL                 CCN000192000000192000FN00000000020220501000192000NNM   20220217152355    4P0P  00001600000000644800000975132Q8    EMEMI   006400630017
BI00B32Q8    EU22051 MW     202204067116-4026                TERMINAL                 CCN000160000000160000FN00000000020220501000160000NNM   20220217152355    4P0P  00001600000000664000000994332Q8    EMEMI   006400630017
BI00B32Q8    EU22052 MW     202204127116-4026                TERMINAL                 CCN000096000000096000FN00000000020220501000096000NNM   20220217152355    4P0P  00001600000000664000000994332Q8    EMEMI   006400630017
BI00B32Q8    EU22053 MW     202204207116-4026                TERMINAL                 CCN000048000000048000FN00000000020220501000048000NNM   20220217152355    4P0P  00001600000000664000000994332Q8    EMEMI   006400630017
BI00B32Q8    EU22054 MW     202204277116-4026                TERMINAL                 CCN000064000000064000FN00000000020220501000064000NNM   20220217152355    4P0P  00001600000000664000000994332Q8    EMEMI   006400630017
BI00B32Q8    EU22051 MW     202204067116-4028-08             TERMINAL FEMALE          CCN000192000000192000FN00000000020220501000192000NNM   20220217152355    4P0P  00001600000000652800000981532Q8    EMEMI   006400630017
BI00B32Q8    EU22052 MW     202204127116-4028-08             TERMINAL FEMALE          CCN000304000000304000FN00000000020220501000304000NNM   20220217152355    4P0P  00001600000000652800000981532Q8    EMEMI   006400630017
BI00B32Q8    EU22053 MW     202204207116-4028-08             TERMINAL FEMALE          CCN000288000000288000FN00000000020220501000288000NNM   20220217152355    4P0P  00001600000000652800000981532Q8    EMEMI   006400630017
BI00B32Q8    EU22054 MW     202204277116-4028-08             TERMINAL FEMALE          CCN000288000000288000FN00000000020220501000288000NNM   20220217152355    4P0P  00001600000000652800000981532Q8    EMEMI   006400630017
BI00B32Q8    EU22054 MW     202204277116-4031                TERMINAL                 CCN000007500000007500FN00000000020220501000007500NNM   20220217152355    4P0P  00000750000000619500000904732Q8    EMEMI   006400630015
BI00B32Q8    EU22051 MW     202204067116-4032                TERMINAL                 CCN000006000000006000FN00000000020220501000006000NNM   20220217152355    4P0P  00000600000000532800000818032Q8    EMEMI   006400630015
BI00B32Q8    EU22052 MW     202204127116-4032                TERMINAL                 CCN000054000000054000FN00000000020220501000054000NNM   20220217152355    4P0P  00000600000000532800000818032Q8    EMEMI   006400630015
BI00B32Q8    EU22053 MW     202204207116-4032                TERMINAL                 CCN000060000000060000FN00000000020220501000060000NNM   20220217152355    4P0P  00000600000000532800000818032Q8    EMEMI   006400630015
BI00B32Q8    EU22054 MW     202204277116-4032                TERMINAL                 CCN000054000000054000FN00000000020220501000054000NNM   20220217152355    4P0P  00000600000000532800000818032Q8    EMEMI   006400630015
BI00B32Q8    EU22053 MW     202204207116-4102-02             TERMINAL                 CCN000024000000024000FN00000000020220501000024000NNM   20220217152355    4P0P  00001200000000553200000841432Q8    EMEMI   006400630015
BI00B32Q8    EU22054 MW     202204277116-4102-02             TERMINAL                 CCN000024000000024000FN00000000020220501000024000NNM   20220217152355    4P0P  00001200000000553200000841432Q8    EMEMI   006400630015
BI00B32Q8    EU22052 MW     202204127116-4121-02             TERMINAL                 CCN000009000000009000FN00000000020220501000009000NNM   20220217152355    4P0P  00000450000000618800000912432Q8    EMEMI   006400630015
BI00B32Q8    EU22053 MW     202204207116-4121-02             TERMINAL                 CCN000018000000018000FN00000000020220501000018000NNM   20220217152355    4P0P  00000450000000618800000912432Q8    EMEMI   006400630015
BI00B32Q8    EU22054 MW     202204277116-4121-02             TERMINAL                 CCN000022500000022500FN00000000020220501000022500NNM   20220217152355    4P0P  00000450000000618800000912432Q8    EMEMI   006400630015
BI00B32Q8    EU22054 MW     202204277116-4122-02             TERMINAL                 CCN000009000000009000FN00000000020220501000009000NNM   20220217152355    4P0P  00000450000000656600000950232Q8    EMEMI   006400630015
BI00B32Q8    EU22052 MW     202204127116-4231-02             TERMINAL                 CCN000104000000104000FN00000000020220501000104000NNM   20220217152355    4P0P  00002600000000683800001012532Q8    EMEMI   006400630017
BI00B32Q8    EU22053 MW     202204207116-4231-02             TERMINAL                 CCN000078000000078000FN00000000020220501000078000NNM   20220217152355    4P0P  00002600000000683800001012532Q8    EMEMI   006400630017
BI00B32Q8    EU22054 MW     202204277116-4231-02             TERMINAL                 CCN000078000000078000FN00000000020220501000078000NNM   20220217152355    4P0P  00002600000000683800001012532Q8    EMEMI   006400630017
BI00B32Q8    EU22051 MW     202204067116-4415-02             TERMINAL                 CCN000152000000152000FN00000000020220501000152000NNM   20220217152355    4P0P  00003800000000596600000925732Q8    EMEMI   006400630017
BI00B32Q8    EU22052 MW     202204127116-4415-02             TERMINAL                 CCN000266000000266000FN00000000020220501000266000NNM   20220217152355    4P0P  00003800000000596600000925732Q8    EMEMI   006400630017
BI00B32Q8    EU22053 MW     202204207116-4415-02             TERMINAL                 CCN000266000000266000FN00000000020220501000266000NNM   20220217152355    4P0P  00003800000000596600000925732Q8    EMEMI   006400630017
BI00B32Q8    EU22054 MW     202204277116-4415-02             TERMINAL                 CCN000304000000304000FN00000000020220501000304000NNM   20220217152355    4P0P  00003800000000596600000925732Q8    EMEMI   006400630017
BI00B32Q8    EU22052 MW     202204127116-4416-02             TERMINAL                 CCN000192000000192000FN00000000020220501000192000NNM   20220217152355    4P0P  00003200000000518400000847132Q8    EMEMI   006400630017
BI00B32Q8    EU22053 MW     202204207116-4416-02             TERMINAL                 CCN000256000000256000FN00000000020220501000256000NNM   20220217152355    4P0P  00003200000000518400000847132Q8    EMEMI   006400630017
BI00B32Q8    EU22054 MW     202204277116-4416-02             TERMINAL                 CCN000256000000256000FN00000000020220501000256000NNM   20220217152355    4P0P  00003200000000518400000847132Q8    EMEMI   006400630017
BI00B32Q8    EU22051 MW     202204067116-5045-02             TERMINAL                 CCN000448000000448000FN00000000020220501000448000NNM   20220217152355    4P0P  00001600000000678400001007132Q8    EMEMI   006400630017
BI00B32Q8    EU22052 MW     202204127116-5045-02             TERMINAL                 CCN000608000000608000FN00000000020220501000608000NNM   20220217152355    4P0P  00001600000000678400001007132Q8    EMEMI   006400630017
BI00B32Q8    EU22053 MW     202204207116-5045-02             TERMINAL                 CCN000592000000592000FN00000000020220501000592000NNM   20220217152355    4P0P  00001600000000678400001007132Q8    EMEMI   006400630017
BI00B32Q8    EU22054 MW     202204277116-5045-02             TERMINAL                 CCN000576000000576000FN00000000020220501000576000NNM   20220217152355    4P0P  00001600000000678400001007132Q8    EMEMI   006400630017
BI00B32Q8    EU22053 MW     202204207116-5751-02             TERMINAL                 CCN000036000000036000FN00000000020220501000036000NNM   20220217152355    4P0P  00001200000000379200000664432Q8    EMEMI   006400630015
BI00B32Q8    EU22054 MW     202204277116-5751-02             TERMINAL                 CCN000240000000240000FN00000000020220501000240000NNM   20220217152355    4P0P  00001200000000379200000664432Q8    EMEMI   006400630015
BI00B32Q8    EU22054 MW     202204277116-6042                TERMINAL                 CCN000018000000018000FN00000000020220501000018000NNM   20220217152355    4P0P  00000300000000523800000856132Q8    EMEMI   006400630015
BI00B32Q8    EU22053 MW     202204207126-8853-02             TERMINAL                 CCN000030000000030000FN00000000020220501000030000NNM   20220217152355    4P0P  00000750000000562500000847732Q8    EMEMI   006400630015
BI00B32Q8    EU22054 MW     202204277126-8853-02             TERMINAL                 CCN000112500000112500FN00000000020220501000112500NNM   20220217152355    4P0P  00000750000000562500000847732Q8    EMEMI   006400630015
BI00B32Q8    EU22052 MW     202204127158-3006-90             RUBBER STOPPER           CCN000060000000060000FN00000000020220501000060000NNM   20220217152355    1C0C  00002000000000330600000386032Q8    EMEMI   002700430014
BI00B32Q8    EU22053 MW     202204207158-3006-90             RUBBER STOPPER           CCN000940000000940000FN00000000020220501000940000NNM   20220217152355    1C0C  00002000000000330600000386032Q8    EMEMI   002700430014
BI00B32Q8    EU22054 MW     202204277158-3006-90             RUBBER STOPPER           CCN000860000000860000FN00000000020220501000860000NNM   20220217152355    1C0C  00002000000000330600000386032Q8    EMEMI   002700430014
BI00B32Q8    EU22054 MW     202204277158-3009-60             RUBBER STOPPER           CCN000640000000640000FN00000000020220501000640000NNM   20220217152355    1C0C  00002000000000338000000386232Q8    EMEMI   002700430014
BI00B32Q8    EU22054 MW     202204277158-3022-80             RUBBER STOPPER           CCN000005000000005000FN00000000020220501000005000NNM   20220217152355    1C0C  00000500000000467500000524032Q8    EMEMI   002700430014
BI00B32Q8    EU22052 MW     202204127158-3165-90             WIRE SEAL                CCN000040000000040000FN00000000020220501000040000NNM   20220217152355    1C0C  00004000000000124000000172432Q8    EMEMI   004300270014
BI00B32Q8    EU22053 MW     202204207158-3165-90             WIRE SEAL                CCN000040000000040000FN00000000020220501000040000NNM   20220217152355    1C0C  00004000000000124000000172432Q8    EMEMI   004300270014
BI00B32Q8    EU22054 MW     202204277158-3165-90             WIRE SEAL                CCN000040000000040000FN00000000020220501000040000NNM   20220217152355    1C0C  00004000000000124000000172432Q8    EMEMI   004300270014
BI00B32Q8    EU22054 MW     202204277158-3166-60             WIRE SEAL                CCN001160000001160000FN00000000020220501001160000NNM   20220217152355    1C0C  00004000000000104000000152432Q8    EMEMI   002700430014
BI00B32Q8    EU22053 MW     202204207158-3167-80             WIRE SEAL                CCN000420000000420000FN00000000020220501000420000NNM   20220217152355    1C0C  00002000000000048000000109032Q8    EMEMI   002700430014
BI00B32Q8    EU22054 MW     202204277158-3167-80             WIRE SEAL                CCN000760000000760000FN00000000020220501000760000NNM   20220217152355    1C0C  00002000000000048000000109032Q8    EMEMI   002700430014
BI00B32Q8    EU22051 MW     202204067158-3168-80             SEALED                   CCN000040000000040000FN00000000020220501000040000NNM   20220217152355    1C0C  00002000000000044000000092132Q8    EMEMI   004300260014
BI00B32Q8    EU22052 MW     202204127158-3168-80             SEALED                   CCN000060000000060000FN00000000020220501000060000NNM   20220217152355    1C0C  00002000000000044000000092132Q8    EMEMI   004300260014
BI00B32Q8    EU22053 MW     202204207158-3168-80             SEALED                   CCN000040000000040000FN00000000020220501000040000NNM   20220217152355    1C0C  00002000000000044000000092132Q8    EMEMI   004300260014
BI00B32Q8    EU22054 MW     202204277158-3168-80             SEALED                   CCN000060000000060000FN00000000020220501000060000NNM   20220217152355    1C0C  00002000000000044000000092132Q8    EMEMI   004300260014
BI00B32Q8    EU22051 MW     202204067158-3169-40             SEALING PLUG             CCN000800000000800000FN00000000020220501000800000NNM   20220217152355    1C0C  00004000000000156000000204132Q8    EMEMI   004300260014
BI00B32Q8    EU22052 MW     202204127158-3169-40             SEALING PLUG             CCN000360000000360000FN00000000020220501000360000NNM   20220217152355    1C0C  00004000000000156000000204132Q8    EMEMI   004300260014
BI00B32Q8    EU22053 MW     202204207158-3169-40             SEALING PLUG             CCN000320000000320000FN00000000020220501000320000NNM   20220217152355    1C0C  00004000000000156000000204132Q8    EMEMI   004300260014
BI00B32Q8    EU22054 MW     202204277158-3169-40             SEALING PLUG             CCN000360000000360000FN00000000020220501000360000NNM   20220217152355    1C0C  00004000000000156000000204132Q8    EMEMI   004300260014
BI00B32Q8    EU22052 MW     202204127183-2417-30             CONNECTOR HOUSING        CCN000002400000002400FN00000000020220501000002400NNM   20220217152355    4F0F  00000240000001137600001297932Q8    EMEMI   005500360039
BI00B32Q8    EU22054 MW     202204277283-6120                CONNECTOR HOUSING        CCN000001500000001500FN00000000020220501000001500NNM   20220217152355    1N0N  00000150000000914000001143032Q8    EMEMI   005600390040
BI00B32Q8    EU22051 MW     202204067283-7526-30             CONNECTOR HOUSING        CCN000001960000001960FN00000000020220501000001960NNM   20220217152355    4N0N  00000196000000989800001248632Q8    EMEMI   005500360039
BI00B32Q8    EU22052 MW     202204127283-7526-30             CONNECTOR HOUSING        CCN000003920000003920FN00000000020220501000003920NNM   20220217152355    4N0N  00000196000000989800001248632Q8    EMEMI   005500360039
BI00B32Q8    EU22053 MW     202204207283-7526-30             CONNECTOR HOUSING        CCN000001960000001960FN00000000020220501000001960NNM   20220217152355    4N0N  00000196000000989800001248632Q8    EMEMI   005500360039
BI00B32Q8    EU22054 MW     202204277283-7526-30             CONNECTOR HOUSING        CCN000001960000001960FN00000000020220501000001960NNM   20220217152355    4N0N  00000196000000989800001248632Q8    EMEMI   005500360039
BI00B32Q8    EU22054 MW     202204277283-7526-40             CONNECTOR HOUSING        CCN000001960000001960FN00000000020220501000001960NNM   20220217152355    4N0N  00000196000000989800001248632Q8    EMEMI   005500360039
BI00B32Q8    #EU22052 MW    202204127114-4022                TERMINAL                 CCN000030000000030000FN00000000020220501000030000NNM   20220217152344    2F0P  00001500000000708000001120632Q8    EMEMI   006400630015
BI00B32Q8    #EU22053 MW    202204207114-4022                TERMINAL                 CCN000060000000060000FN00000000020220501000060000NNM   20220217152344    2F0P  00001500000000708000001120632Q8    EMEMI   006400630015
BI00B32Q8    #EU22054 MW    202204277114-4022                TERMINAL                 CCN000045000000045000FN00000000020220501000045000NNM   20220217152344    2F0P  00001500000000708000001120632Q8    EMEMI   006400630015
BI00B32Q8    #EU22051 MW    202204067123-6347                CONNECTOR HOUSING        CCN000001600000001600FN00000000020220501000001600NNM   20220217152344    2F0F  00000160000000647000000904832Q8    EMEMI   005500360039
BI00B32Q8    #EU22052 MW    202204127123-6347                CONNECTOR HOUSING        CCN000001600000001600FN00000000020220501000001600NNM   20220217152344    2F0F  00000160000000647000000904832Q8    EMEMI   005500360039
BI00B32Q8    #EU22053 MW    202204207123-6423-30             CONNECTOR                CCN000010000000010000FN00000000020220501000010000NNM   20220217152344    2F0F  00000200000001002000001167632Q8    EMEMI   005600390023
BI00B32Q8    #EU22054 MW    202204277123-6423-30             CONNECTOR                CCN000014000000014000FN00000000020220501000014000NNM   20220217152344    2F0F  00000200000001002000001167632Q8    EMEMI   005600390023
BI00B32Q8    #EU22052 MW    202204127157-3950-80             SEAL RUBBER              CCN000040000000040000FN00000000020220501000040000NNM   20220217152344    2C0C  00004000000000154000000440332Q8    EMEMI   002700430014
BI00B32Q8    #EU22053 MW    202204207157-3950-80             SEAL RUBBER              CCN000040000000040000FN00000000020220501000040000NNM   20220217152344    2C0C  00004000000000154000000440332Q8    EMEMI   002700430014
BI00B32Q8    #EU22054 MW    202204277157-3950-80             SEAL RUBBER              CCN000040000000040000FN00000000020220501000040000NNM   20220217152344    2C0C  00004000000000154000000440332Q8    EMEMI   002700430014
BI00B32Q8    #EU22053 MW    202204207157-3952-80             RUBBER STOPPER           CCN000010000000010000FN00000000020220501000010000NNM   20220217152344    2C0C  00001000000000117000000175032Q8    EMEMI   002700430014
BI00B32Q8    #EU22054 MW    202204277157-3952-80             RUBBER STOPPER           CCN000020000000020000FN00000000020220501000020000NNM   20220217152344    2C0C  00001000000000117000000175032Q8    EMEMI   002700430014
BI00B32Q8    #EU22051 MW    202204067157-7897-60             SEAL RUBBER              CCN000010000000010000FN00000000020220501000010000NNM   20220217152344    2C0C  00001000000000132000000214732Q8    EMEMI   002700430014
BI00B32Q8    #EU22052 MW    202204127157-7897-60             SEAL RUBBER              CCN000030000000030000FN00000000020220501000030000NNM   20220217152344    2C0C  00001000000000132000000214732Q8    EMEMI   002700430014
BI00B32Q8    #EU22053 MW    202204207157-7897-60             SEAL RUBBER              CCN000030000000030000FN00000000020220501000030000NNM   20220217152344    2C0C  00001000000000132000000214732Q8    EMEMI   002700430014
BI00B32Q8    #EU22054 MW    202204277157-7897-60             SEAL RUBBER              CCN000030000000030000FN00000000020220501000030000NNM   20220217152344    2C0C  00001000000000132000000214732Q8    EMEMI   002700430014
BI00B32Q8    #EU22052 MW    202204127158-3003-90             RUBBER STOPPER           CCN000120000000120000FN00000000020220501000120000NNM   20220217152344    2C0C  00002000000000250000000306032Q8    EMEMI   002700430014
BI00B32Q8    #EU22053 MW    202204207158-3003-90             RUBBER STOPPER           CCN000560000000560000FN00000000020220501000560000NNM   20220217152344    2C0C  00002000000000250000000306032Q8    EMEMI   002700430014
BI00B32Q8    #EU22054 MW    202204277158-3003-90             RUBBER STOPPER           CCN000580000000580000FN00000000020220501000580000NNM   20220217152344    2C0C  00002000000000250000000306032Q8    EMEMI   002700430014
BI00B32Q8    #EU22052 MW    202204127158-3004-40             RUBBER STOPPER           CCN000040000000040000FN00000000020220501000040000NNM   20220217152344    2C0C  00002000000000234000000306332Q8    EMEMI   002700430014
BI00B32Q8    #EU22053 MW    202204207158-3004-40             RUBBER STOPPER           CCN000100000000100000FN00000000020220501000100000NNM   20220217152344    2C0C  00002000000000234000000306332Q8    EMEMI   002700430014
BI00B32Q8    #EU22054 MW    202204277158-3004-40             RUBBER STOPPER           CCN000080000000080000FN00000000020220501000080000NNM   20220217152344    2C0C  00002000000000234000000306332Q8    EMEMI   002700430014
BI00B32Q8    #EU22053 MW    202204207158-3007-10             RUBBER STOPPER           CCN000140000000140000FN00000000020220501000140000NNM   20220217152344    2H0H  00002000000000308000000362732Q8    EMEMI   002700430014
BI00B32Q8    #EU22054 MW    202204277158-3007-10             RUBBER STOPPER           CCN000280000000280000FN00000000020220501000280000NNM   20220217152344    2H0H  00002000000000308000000362732Q8    EMEMI   002700430014
BI00B32Q8    #EU22053 MW    202204207158-3008-80             RUBBER STOPPER           CCN000160000000160000FN00000000020220501000160000NNM   20220217152344    2C0C  00002000000000288000000343032Q8    EMEMI   004300270014
BI00B32Q8    #EU22054 MW    202204277158-3008-80             RUBBER STOPPER           CCN000300000000300000FN00000000020220501000300000NNM   20220217152344    2C0C  00002000000000288000000343032Q8    EMEMI   004300270014
BI00B32Q8    #EU22053 MW    202204207158-3120-90             CONNECTOR WIRE SEAL      CCN000140000000140000FN00000000020220501000140000NNM   20220217152344    2C0C  00002000000000136000000194032Q8    EMEMI   002700430014
BI00B32Q8    #EU22054 MW    202204277158-3120-90             CONNECTOR WIRE SEAL      CCN000180000000180000FN00000000020220501000180000NNM   20220217152344    2C0C  00002000000000136000000194032Q8    EMEMI   002700430014
BI00B32Q8    #EU22051 MW    202204067158-3121-80             WIRE SEAL                CCN000020000000020000FN00000000020220501000020000NNM   20220217152344    2C0C  00002000000000118000000187332Q8    EMEMI   002700430014
BI00B32Q8    #EU22052 MW    202204127158-3121-80             WIRE SEAL                CCN000020000000020000FN00000000020220501000020000NNM   20220217152344    2C0C  00002000000000118000000187332Q8    EMEMI   002700430014
BI00B32Q8    #EU22053 MW    202204207158-3121-80             WIRE SEAL                CCN000020000000020000FN00000000020220501000020000NNM   20220217152344    2C0C  00002000000000118000000187332Q8    EMEMI   002700430014
BI00B32Q8    #EU22054 MW    202204277158-3121-80             WIRE SEAL                CCN000020000000020000FN00000000020220501000020000NNM   20220217152344    2C0C  00002000000000118000000187332Q8    EMEMI   002700430014
BI00B32Q8    #EU22054 MW    202204277183-2412                HOUSING                  CCN000003200000003200FN00000000020220501000003200NNM   20220217152344    2F0F  00000160000001059200001245632Q8    EMEMI   005500360039
BI00B32Q8    #EU22051 MW    202204067183-2412-30             HOUSING                  CCN000003200000003200FN00000000020220501000003200NNM   20220217152344    2F0F  00000160000001059700001059732Q8    EMEMI   005500360039
BI00B32Q8    #EU22052 MW    202204127183-2412-30             HOUSING                  CCN000001600000001600FN00000000020220501000001600NNM   20220217152344    2F0F  00000160000001059700001059732Q8    EMEMI   005500360039
BI00B32Q8    #EU22053 MW    202204207183-2412-30             HOUSING                  CCN000001600000001600FN00000000020220501000001600NNM   20220217152344    2F0F  00000160000001059700001059732Q8    EMEMI   005500360039
BI00B32Q8    #EU22054 MW    202204277183-2412-30             HOUSING                  CCN000001600000001600FN00000000020220501000001600NNM   20220217152344    2F0F  00000160000001059700001059732Q8    EMEMI   005500360039
BI00B32Q8    #EU22054 MW    202204277183-6320                HOUSING                  CCN000004800000004800FN00000000020220501000004800NNM   20220217152344    2F0F  00000480000000820800001103632Q8    EMEMI   005500360039
BI00B32Q8    #EU22054 MW    202204277283-1065                CONNECTOR                CCN000002500000002500FN00000000020220501000002500NNM   20220217152344    2N0N  00000250000001152500001310432Q8    EMEMI   005500360039
BI00B32Q8    #EU22051 MW    202204067283-5834-30             CONNECTOR ASS'Y          CCN000003240000003240FN00000000020220501000003240NNM   20220217152344    2N0N  00000324000001296000001853432Q8    EMEMI   005600390040
BI00B32Q8    #EU22052 MW    202204127283-5834-30             CONNECTOR ASS'Y          CCN000006480000006480FN00000000020220501000006480NNM   20220217152344    2N0N  00000324000001296000001853432Q8    EMEMI   005600390040
BI00B32Q8    #EU22053 MW    202204207283-5834-30             CONNECTOR ASS'Y          CCN000003240000003240FN00000000020220501000003240NNM   20220217152344    2N0N  00000324000001296000001853432Q8    EMEMI   005600390040
BI00B32Q8    #EU22054 MW    202204277283-5834-30             CONNECTOR ASS'Y          CCN000003240000003240FN00000000020220501000003240NNM   20220217152344    2N0N  00000324000001296000001853432Q8    EMEMI   005600390040
BI00B32Q8    #EU22052 MW    202204127283-8398-40             CONNECTOR                CCN000001540000001540FN00000000020220501000001540NNM   20220217152344    2N0N  00000154000001007000001171332Q8    EMEMI   005600390023
BI00B32Q8    #EU22053 MW    202204207283-8398-40             CONNECTOR                CCN000001540000001540FN00000000020220501000001540NNM   20220217152344    2N0N  00000154000001007000001171332Q8    EMEMI   005600390023
BI00B32Q8    #EU22054 MW    202204277283-8398-40             CONNECTOR                CCN000001540000001540FN00000000020220501000001540NNM   20220217152344    2N0N  00000154000001007000001171332Q8    EMEMI   005600390023
BI00B32Q8    EU22053DMW     202204207B72-5540-80             SEALED WIRE SEAL         CCN000020000000020000FN00000000020220501000020000NNM   20220217152428    1C0C  00002000000000186000000234432Q8    EMEMI   004300270014
BI00B32Q8    EU22054DMW     202204277B96-0805-02             TERMINAL FEMALE          CCN000022500000022500FN00000000020220501000022500NNM   20220217152428    4P0P  00002250000000558000000843232Q8    EMEMI   006400630015
BI00B32Q8    EU22054DMW     202204277C98-1145-4W             SQUIB SUB ASS'Y          CCN000010000000010000FN00000000020220501000010000NNM   20220217152428    4N0N  00001000000000787900000944932Q8    EMEMI   005400370024
BI00B32Q8    #EU22052DMW    202204127183-8251-40             HOUSING                  CCN000002400000002400FN00000000020220501000002400NNM   20220217152419    2F0F  00000240000000357600000640032Q8    EMEMI   005500360039
BI00B32Q8    #EU22053DMW    202204207183-8251-40             HOUSING                  CCN000002400000002400FN00000000020220501000002400NNM   20220217152419    2F0F  00000240000000357600000640032Q8    EMEMI   005500360039
BI00B32Q8    #EU22054DMW    202204277183-8251-40             HOUSING                  CCN000002400000002400FN00000000020220501000002400NNM   20220217152419    2F0F  00000240000000357600000640032Q8    EMEMI   005500360039
BI00B32Q8    #EU22051DMW    202204067287-8860                HOUSING FEMALE ASS'Y     CCN000001600000001600FN00000000020220501000001600NNM   20220217152419    2N0N  00000160000000693400000853432Q8    EMEMI   005400370024
BI00B32Q8    #EU22052DMW    202204127287-8860                HOUSING FEMALE ASS'Y     CCN000003200000003200FN00000000020220501000003200NNM   20220217152419    2N0N  00000160000000693400000853432Q8    EMEMI   005400370024
BI00B32Q8    #EU22053DMW    202204207287-8860                HOUSING FEMALE ASS'Y     CCN000003200000003200FN00000000020220501000003200NNM   20220217152419    2N0N  00000160000000693400000853432Q8    EMEMI   005400370024
BI00B32Q8    #EU22054DMW    202204277287-8860                HOUSING FEMALE ASS'Y     CCN000001600000001600FN00000000020220501000001600NNM   20220217152419    2N0N  00000160000000693400000853432Q8    EMEMI   005400370024
BI00B32Q8    EU22052NMW     202204127158-3166-10             WIRE SEAL                CCN000080000000080000FN00000000020220501000080000NNM   20220217152457    1C0C  00004000000000096000000144432Q8    EMEMI   004300270014
BI00B32Q8    EU22053NMW     202204207158-3166-10             WIRE SEAL                CCN000080000000080000FN00000000020220501000080000NNM   20220217152457    1C0C  00004000000000096000000144432Q8    EMEMI   004300270014
BI00B32Q8    EU22054NMW     202204277158-3166-10             WIRE SEAL                CCN000080000000080000FN00000000020220501000080000NNM   20220217152457    1C0C  00004000000000096000000144432Q8    EMEMI   004300270014
BI00B32Q8    EU22054NMW     202204277158-3167-61             WIRE SEAL                CCN000120000000120000FN00000000020220501000120000NNM   20220217152457    1C0C  00002000000000048000000096432Q8    EMEMI   004300270014
