BI00B32AG    @XG22051LMW    20220330181E48031ZZ              CAVSAS-S 0.3X2 GY        CCN000008400000008400FN00000000020220501000008400NNM   20220213175033    1W    00000035000002008700000000032AG    XGXGY   000000000000XY323001
BI00B32AG    @XG22052LMW    20220406181E48031ZZ              CAVSAS-S 0.3X2 GY        CCN000007700000007700FN00000000020220501000007700NNM   20220213175033    1W    00000035000002008700000000032AG    XGXGY   000000000000XY423001
BI00B32AG    @XG22054LMW    20220420181E48031ZZ              CAVSAS-S 0.3X2 GY        CCN000003500000003500FN00000000020220501000003500NNM   20220213175033    1W    00000035000002008700000000032AG    XGXGY   000000000000XY124002
BI00B32AG    @XG22055LMW    20220427181E48031ZZ              CAVSAS-S 0.3X2 GY        CCN000005250000005250FN00000000020220501000005250NNM   20220213175033    1W    00000035000002008700000000032AG    XGXGY   000000000000XY224002
BI00B32AG    @XG22054LMW    20220420181E48022ZZ              CAVSAS-S 0.5X2 GY        CCN000000300000000300FN00000000020220501000000300NNM   20220213175033    1W    00000030000002561000000000032AG    XGXGY   000000000000XY124001
BI00B32AG    @XG22055LMW    20220427181E48022ZZ              CAVSAS-S 0.5X2 GY        CCN000000300000000300FN00000000020220501000000300NNM   20220213175033    1W    00000030000002561000000000032AG    XGXGY   000000000000XY224001
BI00B32A7    @ZZ2204ALMW    20220309181E48017ZZ              CAVSAS-S 0.5X1 GY/G      CCN000004400000004400FN00000000020220401000004400NNE   20220213185439    1W    00000040000001900600000000032A7    ZZZZY   000000000000ZV422001
BI00B32A7    @ZZ2204ALMW    20220309181E48019ZZ              CAVSAS-S 0.5X1 GY/W      CCN000004000000004000FN00000000020220401000004000NNE   20220213185439    1W    00000040000001900600000000032A7    ZZZZY   000000000000ZV422002
BI00B32A7    @ZZ2204ALMW    20220309181E48040ZZ              CAVSAS-S 0.3X2 GY/V      CCN000003850000003850FN00000000020220401000003850NNE   20220213185439    1W    00000035000002008700000000032A7    ZZZZY   000000000000ZV422003
BI00B32DE    TT2043         2022032418000004530              AV 8 B                   CCN000012600000012600FN00000000020220401000012600NNM   20220213180410    1W    00000010000010466200000000032DE    TVYEV-TV000000000000VT223052
BI00B32DE    TT2044         2022033118000004530              AV 8 B                   CCN000005400000005400FN00000000020220401000005400NNM   20220213180410    1W    00000010000010466200000000032DE    TVYEV-TV000000000000VT323044
BI00B32DE    TT2044         2022033118000004540              AV 8 W                   CCN000001800000001800FN00000000020220401000001800NNM   20220213180410    1W    00000010000010466200000000032DE    TVYEV-TV000000000000VT323045
BI00B32DE    TT2043         2022032418007703960              AVSS 0.5F G              CCN000003000000003000FN00000000020220401000003000NNM   20220213180410    1W    00000150000000674000000000032DE    TVYEV-TV000000000000VT223053
BI00B32DE    TT2044         2022033118007703960              AVSS 0.5F G              CCN000001500000001500FN00000000020220401000001500NNM   20220213180410    1W    00000150000000674000000000032DE    TVYEV-TV000000000000VT323046
BI00B32DE    TT2042         2022031718007703941              AVSS 0.5F GY             CCN000001500000001500FN00000000020220401000001500NNM   20220213180410    1W    00000150000000674000000000032DE    TVYEV-TV000000000000VT123031
BI00B32DE    TT2043         2022032418007703941              AVSS 0.5F GY             CCN000003000000003000FN00000000020220401000003000NNM   20220213180410    1W    00000150000000674000000000032DE    TVYEV-TV000000000000VT223054
BI00B32DE    TT2044         2022033118007703941              AVSS 0.5F GY             CCN000001500000001500FN00000000020220401000001500NNM   20220213180410    1W    00000150000000674000000000032DE    TVYEV-TV000000000000VT323047
BI00B32DE    TT2042         2022031718007703990              AVSS 0.5F L              CCN000001500000001500FN00000000020220401000001500NNM   20220213180410    1W    00000150000000674000000000032DE    TVYEV-TV000000000000VT123032
BI00B32DE    TT2043         2022032418007703990              AVSS 0.5F L              CCN000003000000003000FN00000000020220401000003000NNM   20220213180410    1W    00000150000000674000000000032DE    TVYEV-TV000000000000VT223055
BI00B32DE    TT2044         2022033118007703990              AVSS 0.5F L              CCN000001500000001500FN00000000020220401000001500NNM   20220213180410    1W    00000150000000674000000000032DE    TVYEV-TV000000000000VT323048
BI00B32DE    TT2041         2022031018007703952              AVSS 0.5F P              CCN000001500000001500FN00000000020220401000001500NNM   20220213180410    1W    00000150000000674000000000032DE    TVYEV-TV000000000000VT422007
BI00B32DE    TT2043         2022032418007703940              AVSS 0.5F W              CCN000004500000004500FN00000000020220401000004500NNM   20220213180410    1W    00000150000000674000000000032DE    TVYEV-TV000000000000VT223056
BI00B32DE    TT2044         2022033118007703940              AVSS 0.5F W              CCN000001500000001500FN00000000020220401000001500NNM   20220213180410    1W    00000150000000674000000000032DE    TVYEV-TV000000000000VT323049
BI00B32DE    TT2041         2022031018007704130              AVSS 1.25F B             CCN000000800000000800FN00000000020220401000000800NNM   20220213180410    1W    00000080000001389000000000032DE    TVYEV-TV000000000000VT422008
BI00B32DE    TT2043         2022032418007704130              AVSS 1.25F B             CCN000000800000000800FN00000000020220401000000800NNM   20220213180410    1W    00000080000001389000000000032DE    TVYEV-TV000000000000VT223057
BI00B32DE    TT2042         20220317180D0203735              AVSSH 0.3F B/R           CCN000002000000002000FN00000000020220401000002000NNM   20220213180410    1W    00000200000000515000000000032DE    TVYEV-TV000000000000VT123018
BI00B32DE    TT2041         20220310180D0203780              AVSSH 0.3F BR            CCN000002000000002000FN00000000020220401000002000NNM   20220213180410    1W    00000200000000515000000000032DE    TVYEV-TV000000000000VT422005
BI00B32DE    TT2042         20220317180D0203780              AVSSH 0.3F BR            CCN000002000000002000FN00000000020220401000002000NNM   20220213180410    1W    00000200000000515000000000032DE    TVYEV-TV000000000000VT123019
BI00B32DE    TT2043         20220324180D0203780              AVSSH 0.3F BR            CCN000002000000002000FN00000000020220401000002000NNM   20220213180410    1W    00000200000000515000000000032DE    TVYEV-TV000000000000VT223024
BI00B32DE    TT2043         20220324180D0203760              AVSSH 0.3F G             CCN000002000000002000FN00000000020220401000002000NNM   20220213180410    1W    00000200000000515000000000032DE    TVYEV-TV000000000000VT223025
BI00B32DE    TT2042         20220317180D0203764              AVSSH 0.3F G/W           CCN000002000000002000FN00000000020220401000002000NNM   20220213180410    1W    00000200000000515000000000032DE    TVYEV-TV000000000000VT123020
BI00B32DE    TT2043         20220324180D0203764              AVSSH 0.3F G/W           CCN000002000000002000FN00000000020220401000002000NNM   20220213180410    1W    00000200000000515000000000032DE    TVYEV-TV000000000000VT223026
BI00B32DE    TT2042         20220317180D0203790              AVSSH 0.3F L             CCN000004000000004000FN00000000020220401000004000NNM   20220213180410    1W    00000200000000515000000000032DE    TVYEV-TV000000000000VT123021
BI00B32DE    TT2043         20220324180D0203790              AVSSH 0.3F L             CCN000002000000002000FN00000000020220401000002000NNM   20220213180410    1W    00000200000000515000000000032DE    TVYEV-TV000000000000VT223027
BI00B32DE    TT2044         20220331180D0203790              AVSSH 0.3F L             CCN000002000000002000FN00000000020220401000002000NNM   20220213180410    1W    00000200000000515000000000032DE    TVYEV-TV000000000000VT323025
BI00B32DE    TT2043         20220324180D0203793              AVSSH 0.3F L/B           CCN000002000000002000FN00000000020220401000002000NNM   20220213180410    1W    00000200000000515000000000032DE    TVYEV-TV000000000000VT223028
BI00B32DE    TT2041         20220310180D0203795              AVSSH 0.3F L/R           CCN000002000000002000FN00000000020220401000002000NNM   20220213180410    1W    00000200000000515000000000032DE    TVYEV-TV000000000000VT422006
BI00B32DE    TT2043         20220324180D0203795              AVSSH 0.3F L/R           CCN000002000000002000FN00000000020220401000002000NNM   20220213180410    1W    00000200000000515000000000032DE    TVYEV-TV000000000000VT223029
BI00B32DE    TT2044         20220331180D0203750              AVSSH 0.3F R             CCN000002000000002000FN00000000020220401000002000NNM   20220213180410    1W    00000200000000515000000000032DE    TVYEV-TV000000000000VT323026
BI00B32DE    TT2043         20220324180D0203753              AVSSH 0.3F R/B           CCN000002000000002000FN00000000020220401000002000NNM   20220213180410    1W    00000200000000515000000000032DE    TVYEV-TV000000000000VT223030
BI00B32DE    TT2043         20220324180D0203757              AVSSH 0.3F R/Y           CCN000002000000002000FN00000000020220401000002000NNM   20220213180410    1W    00000200000000515000000000032DE    TVYEV-TV000000000000VT223031
BI00B32DE    TT2043         20220324180D0203792              AVSSH 0.3F V             CCN000002000000002000FN00000000020220401000002000NNM   20220213180410    1W    00000200000000515000000000032DE    TVYEV-TV000000000000VT223032
BI00B32DE    TT2043         20220324180D0203773              AVSSH 0.3F Y/B           CCN000002000000002000FN00000000020220401000002000NNM   20220213180410    1W    00000200000000515000000000032DE    TVYEV-TV000000000000VT223033
BI00B32DE    TT2044         20220331180D0203773              AVSSH 0.3F Y/B           CCN000002000000002000FN00000000020220401000002000NNM   20220213180410    1W    00000200000000515000000000032DE    TVYEV-TV000000000000VT323027
BI00B32DE    TT2043         20220324180D0203930              AVSSH 0.5F B             CCN000001500000001500FN00000000020220401000001500NNM   20220213180410    1W    00000150000000689000000000032DE    TVYEV-TV000000000000VT223034
BI00B32DE    TT2044         20220331180D0203930              AVSSH 0.5F B             CCN000006000000006000FN00000000020220401000006000NNM   20220213180410    1W    00000150000000689000000000032DE    TVYEV-TV000000000000VT323028
BI00B32DE    TT2042         20220317180D0203960              AVSSH 0.5F G             CCN000009000000009000FN00000000020220401000009000NNM   20220213180410    1W    00000150000000689000000000032DE    TVYEV-TV000000000000VT123022
BI00B32DE    TT2043         20220324180D0203960              AVSSH 0.5F G             CCN000028500000028500FN00000000020220401000028500NNM   20220213180410    1W    00000150000000689000000000032DE    TVYEV-TV000000000000VT223035
BI00B32DE    TT2044         20220331180D0203960              AVSSH 0.5F G             CCN000009000000009000FN00000000020220401000009000NNM   20220213180410    1W    00000150000000689000000000032DE    TVYEV-TV000000000000VT323029
BI00B32DE    TT2043         20220324180D0203941              AVSSH 0.5F GY            CCN000009000000009000FN00000000020220401000009000NNM   20220213180410    1W    00000150000000689000000000032DE    TVYEV-TV000000000000VT223036
BI00B32DE    TT2044         20220331180D0203941              AVSSH 0.5F GY            CCN000012000000012000FN00000000020220401000012000NNM   20220213180410    1W    00000150000000689000000000032DE    TVYEV-TV000000000000VT323030
BI00B32DE    TT2042         20220317180D0203993              AVSSH 0.5F L/B           CCN000001500000001500FN00000000020220401000001500NNM   20220213180410    1W    00000150000000689000000000032DE    TVYEV-TV000000000000VT123023
BI00B32DE    TT2043         20220324180D0203961              AVSSH 0.5F LG            CCN000007500000007500FN00000000020220401000007500NNM   20220213180410    1W    00000150000000689000000000032DE    TVYEV-TV000000000000VT223037
BI00B32DE    TT2044         20220331180D0203961              AVSSH 0.5F LG            CCN000012000000012000FN00000000020220401000012000NNM   20220213180410    1W    00000150000000689000000000032DE    TVYEV-TV000000000000VT323031
BI00B32DE    TT2042         20220317180D0203952              AVSSH 0.5F P             CCN000013500000013500FN00000000020220401000013500NNM   20220213180410    1W    00000150000000689000000000032DE    TVYEV-TV000000000000VT123024
BI00B32DE    TT2043         20220324180D0203952              AVSSH 0.5F P             CCN000027000000027000FN00000000020220401000027000NNM   20220213180410    1W    00000150000000689000000000032DE    TVYEV-TV000000000000VT223038
BI00B32DE    TT2044         20220331180D0203952              AVSSH 0.5F P             CCN000010500000010500FN00000000020220401000010500NNM   20220213180410    1W    00000150000000689000000000032DE    TVYEV-TV000000000000VT323032
BI00B32DE    TT2044         20220331180D0203992              AVSSH 0.5F V             CCN000004500000004500FN00000000020220401000004500NNM   20220213180410    1W    00000150000000689000000000032DE    TVYEV-TV000000000000VT323033
BI00B32DE    TT2043         20220324180D0203940              AVSSH 0.5F W             CCN000030000000030000FN00000000020220401000030000NNM   20220213180410    1W    00000150000000689000000000032DE    TVYEV-TV000000000000VT223039
BI00B32DE    TT2044         20220331180D0203940              AVSSH 0.5F W             CCN000012000000012000FN00000000020220401000012000NNM   20220213180410    1W    00000150000000689000000000032DE    TVYEV-TV000000000000VT323034
BI00B32DE    TT2042         20220317180D0204080              AVSSH 0.75F BR           CCN000003000000003000FN00000000020220401000003000NNM   20220213180410    1W    00000100000000934000000000032DE    TVYEV-TV000000000000VT123025
BI00B32DE    TT2043         20220324180D0204080              AVSSH 0.75F BR           CCN000013000000013000FN00000000020220401000013000NNM   20220213180410    1W    00000100000000934000000000032DE    TVYEV-TV000000000000VT223040
BI00B32DE    TT2044         20220331180D0204080              AVSSH 0.75F BR           CCN000005000000005000FN00000000020220401000005000NNM   20220213180410    1W    00000100000000934000000000032DE    TVYEV-TV000000000000VT323035
BI00B32DE    TT2043         20220324180D0204092              AVSSH 0.75F V            CCN000001000000001000FN00000000020220401000001000NNM   20220213180410    1W    00000100000000934000000000032DE    TVYEV-TV000000000000VT223041
BI00B32DE    TT2043         20220324180D0204043              AVSSH 0.75F W/B          CCN000001000000001000FN00000000020220401000001000NNM   20220213180410    1W    00000100000000934000000000032DE    TVYEV-TV000000000000VT223042
BI00B32DE    TT2044         20220331180D0204043              AVSSH 0.75F W/B          CCN000002000000002000FN00000000020220401000002000NNM   20220213180410    1W    00000100000000934000000000032DE    TVYEV-TV000000000000VT323036
BI00B32DE    TT2043         20220324180D0204130              AVSSH 1.25F B            CCN000004800000004800FN00000000020220401000004800NNM   20220213180410    1W    00000080000001458000000000032DE    TVYEV-TV000000000000VT223043
BI00B32DE    TT2044         20220331180D0204130              AVSSH 1.25F B            CCN000004800000004800FN00000000020220401000004800NNM   20220213180410    1W    00000080000001458000000000032DE    TVYEV-TV000000000000VT323037
BI00B32DE    TT2042         20220317180D0204135              AVSSH 1.25F B/R          CCN000000800000000800FN00000000020220401000000800NNM   20220213180410    1W    00000080000001458000000000032DE    TVYEV-TV000000000000VT123026
BI00B32DE    TT2043         20220324180D0204135              AVSSH 1.25F B/R          CCN000002400000002400FN00000000020220401000002400NNM   20220213180410    1W    00000080000001458000000000032DE    TVYEV-TV000000000000VT223044
BI00B32DE    TT2044         20220331180D0204135              AVSSH 1.25F B/R          CCN000000800000000800FN00000000020220401000000800NNM   20220213180410    1W    00000080000001458000000000032DE    TVYEV-TV000000000000VT323038
BI00B32DE    TT2042         20220317180D0204134              AVSSH 1.25F B/W          CCN000000800000000800FN00000000020220401000000800NNM   20220213180410    1W    00000080000001458000000000032DE    TVYEV-TV000000000000VT123027
BI00B32DE    TT2043         20220324180D0204134              AVSSH 1.25F B/W          CCN000001600000001600FN00000000020220401000001600NNM   20220213180410    1W    00000080000001458000000000032DE    TVYEV-TV000000000000VT223045
BI00B32DE    TT2043         20220324180D0204180              AVSSH 1.25F BR           CCN000018400000018400FN00000000020220401000018400NNM   20220213180410    1W    00000080000001458000000000032DE    TVYEV-TV000000000000VT223046
BI00B32DE    TT2044         20220331180D0204180              AVSSH 1.25F BR           CCN000006400000006400FN00000000020220401000006400NNM   20220213180410    1W    00000080000001458000000000032DE    TVYEV-TV000000000000VT323039
BI00B32DE    TT2042         20220317180D0204160              AVSSH 1.25F G            CCN000000800000000800FN00000000020220401000000800NNM   20220213180410    1W    00000080000001458000000000032DE    TVYEV-TV000000000000VT123028
BI00B32DE    TT2043         20220324180D0204160              AVSSH 1.25F G            CCN000001600000001600FN00000000020220401000001600NNM   20220213180410    1W    00000080000001458000000000032DE    TVYEV-TV000000000000VT223047
BI00B32DE    TT2044         20220331180D0204160              AVSSH 1.25F G            CCN000000800000000800FN00000000020220401000000800NNM   20220213180410    1W    00000080000001458000000000032DE    TVYEV-TV000000000000VT323040
BI00B32DE    TT2044         20220331180D0204190              AVSSH 1.25F L            CCN000001600000001600FN00000000020220401000001600NNM   20220213180410    1W    00000080000001458000000000032DE    TVYEV-TV000000000000VT323041
BI00B32DE    TT2043         20220324180D0204195              AVSSH 1.25F L/R          CCN000000800000000800FN00000000020220401000000800NNM   20220213180410    1W    00000080000001458000000000032DE    TVYEV-TV000000000000VT223048
BI00B32DE    TT2042         20220317180D0204150              AVSSH 1.25F R            CCN000000800000000800FN00000000020220401000000800NNM   20220213180410    1W    00000080000001458000000000032DE    TVYEV-TV000000000000VT123029
BI00B32DE    TT2043         20220324180D0204150              AVSSH 1.25F R            CCN000005600000005600FN00000000020220401000005600NNM   20220213180410    1W    00000080000001458000000000032DE    TVYEV-TV000000000000VT223049
BI00B32DE    TT2044         20220331180D0204150              AVSSH 1.25F R            CCN000001600000001600FN00000000020220401000001600NNM   20220213180410    1W    00000080000001458000000000032DE    TVYEV-TV000000000000VT323042
BI00B32DE    TT2042         20220317180D0204159              AVSSH 1.25F R/L          CCN000000800000000800FN00000000020220401000000800NNM   20220213180410    1W    00000080000001458000000000032DE    TVYEV-TV000000000000VT123030
BI00B32DE    TT2043         20220324180D0204159              AVSSH 1.25F R/L          CCN000000800000000800FN00000000020220401000000800NNM   20220213180410    1W    00000080000001458000000000032DE    TVYEV-TV000000000000VT223050
BI00B32DE    TT2043         20220324180D0204170              AVSSH 1.25F Y            CCN000000800000000800FN00000000020220401000000800NNM   20220213180410    1W    00000080000001458000000000032DE    TVYEV-TV000000000000VT223051
BI00B32DE    TT2044         20220331180D0204170              AVSSH 1.25F Y            CCN000000800000000800FN00000000020220401000000800NNM   20220213180410    1W    00000080000001458000000000032DE    TVYEV-TV000000000000VT323043
BI00B32D1    DFTW2219       2022031718000004534              AV 8 B/W                 CCN000001200000001200FN00000000020220501000001200NNE   20220213185744    1W    00000010000010466200000000032D1    TOYOT-K 000000000000KO123052
BI00B32D1    DFTW2219       2022031718000004535              AV 8 B/R                 CCN000003900000003900FN00000000020220501000003900NNE   20220213185744    1W    00000010000010466200000000032D1    TOYOT-K 000000000000KO123051
BI00B32D1    DFTW2219       2022031718000004540              AV 8 W                   CCN000004400000004400FN00000000020220501000004400NNE   20220213185744    1W    00000010000010466200000000032D1    TOYOT-K 000000000000KO123054
BI00B32D1    DFTW2219       2022031718000004543              AV 8 W/B                 CCN000002000000002000FN00000000020220501000002000NNE   20220213185744    1W    00000010000010466200000000032D1    TOYOT-K 000000000000KO123055
BI00B32D1    DFTW2219       2022031718000004550              AV 8 R                   CCN000003000000003000FN00000000020220501000003000NNE   20220213185744    1W    00000010000010466200000000032D1    TOYOT-K 000000000000KO123053
BI00B32D1    @DFTW2219      20220317181AD2002ZZ              CIVUSAS-S 0.35X2 B       CCN000001800000001800FN00000000020220501000001800NNE   20220213185742    1W    00000045000001713700000000032D1    TOYOT-K 000000000000KO123024
BI00B32D1    @DFTW2219      20220317181AD2003ZZ              CIVUSAS-S 0.35X3 B       CCN000002800000002800FN00000000020220501000002800NNE   20220213185742    1W    00000035000002172100000000032D1    TOYOT-K 000000000000KO123025
BI00B32D1    @DFTW2219      20220317181AD2004ZZ              CIVUSAS-S 0.35X4 B       CCN000010500000010500FN00000000020220501000010500NNE   20220213185742    1W    00000030000002799900000000032D1    TOYOT-K 000000000000KO123026
BI00B32D1    @DFTW2219      20220317181E48031ZZ              CAVSAS-S 0.3X2 GY        CCN000005950000005950FN00000000020220501000005950NNE   20220213185742    1W    00000035000002008700000000032D1    TOYOT-K 000000000000KO123027
BI00B32D1    @DFTW2219      20220317181E48037ZZ              CAVSAS-S 0.3X4 GY        CCN000006750000006750FN00000000020220501000006750NNE   20220213185742    1W    00000025000003262000000000032D1    TOYOT-K 000000000000KO123029
BI00B32D1    @DFTW2219      20220317181E48041ZZ              CAVSAS-S 0.3X2 GY/R      CCN000005950000005950FN00000000020220501000005950NNE   20220213185742    1W    00000035000002008700000000032D1    TOYOT-K 000000000000KO123028
BI00B32D1    @DFTW2219      20220317181E50002ZZ              AVSSCS-S 0.3FX2 DGY/G    CCN000006650000006650FN00000000020220501000006650NNE   20220213185742    1W    00000035000002165000000000032D1    TOYOT-K 000000000000KO123035
BI00B32D1    @DFTW2219      20220317181E50004ZZ              AVSSCS-S 0.5FX1 DGY      CCN000008400000008400FN00000000020220501000008400NNE   20220213185742    1W    00000040000001909700000000032D1    TOYOT-K 000000000000KO123030
BI00B32D1    @DFTW2219      20220317181E50005ZZ              AVSSCS-S 0.5FX1 DGY/W    CCN000002800000002800FN00000000020220501000002800NNE   20220213185742    1W    00000040000001909700000000032D1    TOYOT-K 000000000000KO123033
BI00B32D1    @DFTW2219      20220317181E50007ZZ              AVSSCS-S 0.5FX1 DGY/L    CCN000004000000004000FN00000000020220501000004000NNE   20220213185742    1W    00000040000001909700000000032D1    TOYOT-K 000000000000KO123031
BI00B32D1    @DFTW2219      20220317181E50014ZZ              AVSSCS-S 0.5FX1 DGY/R    CCN000000400000000400FN00000000020220501000000400NNE   20220213185742    1W    00000040000001909700000000032D1    TOYOT-K 000000000000KO123032
BI00B32D1    @DFTW2219      20220317181E50020ZZ              AVSSCS-S 0.3FX2 DGY/R    CCN000004550000004550FN00000000020220501000004550NNE   20220213185742    1W    00000035000002165000000000032D1    TOYOT-K 000000000000KO123037
BI00B32D1    @DFTW2219      20220317181E50021ZZ              AVSSCS-S 0.3FX2 DGY/P    CCN000004900000004900FN00000000020220501000004900NNE   20220213185742    1W    00000035000002165000000000032D1    TOYOT-K 000000000000KO123036
BI00B32D1    @DFTW2219      20220317181E50036ZZ              AVSSCS-S 0.3FX2 DGY      CCN000005250000005250FN00000000020220501000005250NNE   20220213185742    1W    00000035000002165000000000032D1    TOYOT-K 000000000000KO123034
BI00B32D2    DGTW2219       2022031718000004530              AV 8 B                   CCN000031600000031600FN00000000020220501000031600NNE   20220213190008    1W    00000010000010466200000000032D2    TGYOT-G 000000000000KR123045
BI00B32D2    DGTW2219       2022031718000004540              AV 8 W                   CCN000014700000014700FN00000000020220501000014700NNE   20220213190008    1W    00000010000010466200000000032D2    TGYOT-G 000000000000KR123047
BI00B32D2    DGTW2219       2022031718000004543              AV 8 W/B                 CCN000005800000005800FN00000000020220501000005800NNE   20220213190008    1W    00000010000010466200000000032D2    TGYOT-G 000000000000KR123048
BI00B32D2    DGTW2219       2022031718000004590              AV 8 L                   CCN000006800000006800FN00000000020220501000006800NNE   20220213190008    1W    00000010000010466200000000032D2    TGYOT-G 000000000000KR123046
BI00B32D2    @DGTW2219      20220317181AD2002ZZ              CIVUSAS-S 0.35X2 B       CCN000017100000017100FN00000000020220501000017100NNE   20220213190007    1W    00000045000001713700000000032D2    TGYOT-G 000000000000KR123020
BI00B32D2    @DGTW2219      20220317181AD2003ZZ              CIVUSAS-S 0.35X3 B       CCN000011900000011900FN00000000020220501000011900NNE   20220213190007    1W    00000035000002172100000000032D2    TGYOT-G 000000000000KR123021
BI00B32D2    @DGTW2219      20220317181AD2004ZZ              CIVUSAS-S 0.35X4 B       CCN000012600000012600FN00000000020220501000012600NNE   20220213190007    1W    00000030000002799900000000032D2    TGYOT-G 000000000000KR123022
BI00B32D2    @DGTW2219      20220317181E48037ZZ              CAVSAS-S 0.3X4 GY        CCN000007500000007500FN00000000020220501000007500NNE   20220213190007    1W    00000025000003262000000000032D2    TGYOT-G 000000000000KR123023
BI00B32D2    @DGTW2219      20220317181E50004ZZ              AVSSCS-S 0.5FX1 DGY      CCN000011200000011200FN00000000020220501000011200NNE   20220213190007    1W    00000040000001909700000000032D2    TGYOT-G 000000000000KR123024
BI00B32D2    @DGTW2219      20220317181E50005ZZ              AVSSCS-S 0.5FX1 DGY/W    CCN000008000000008000FN00000000020220501000008000NNE   20220213190007    1W    00000040000001909700000000032D2    TGYOT-G 000000000000KR123026
BI00B32D2    @DGTW2219      20220317181E50007ZZ              AVSSCS-S 0.5FX1 DGY/L    CCN000002800000002800FN00000000020220501000002800NNE   20220213190007    1W    00000040000001909700000000032D2    TGYOT-G 000000000000KR123025
BI00B32D2    @DGTW2219      20220317181E50016ZZ              AVSSCS-S 0.5FX2 DGY/R    CCN000003000000003000FN00000000020220501000003000NNE   20220213190007    1W    00000030000003096000000000032D2    TGYOT-G 000000000000KR123027
BI00B32D2    @DGTW2219      20220317181E50036ZZ              AVSSCS-S 0.3FX2 DGY      CCN000003500000003500FN00000000020220501000003500NNE   20220213190007    1W    00000035000002165000000000032D2    TGYOT-G 000000000000KR123028
BI00B32D2    @DGTW2219      20220317181F21014ZZ              AVSSHCS-S 0.5FX2 B/L     CCN000005400000005400FN00000000020220501000005400NNE   20220213190007    1W    00000030000002531400000000032D2    TGYOT-G 000000000000KR123030
BI00B32D2    @DGTW2219      20220317181F21016ZZ              AVSSHCS-S 0.5FX2 B/BR    CCN000002400000002400FN00000000020220501000002400NNE   20220213190007    1W    00000030000002531400000000032D2    TGYOT-G 000000000000KR123029
BI00B32D2    @DGTW2219      20220317181F21031ZZ              AVSSHCS-S 1.25FX2 B/P    CCN000002800000002800FN00000000020220501000002800NNE   20220213190007    1W    00000020000004267300000000032D2    TGYOT-G 000000000000KR123031
BI00B32G7    JW22043 MW     2022032418007703930              AVSS 0.5F B              CCN000001500000001500FN00000000020220401000001500NNM   20220213180750    1W    00000150000000674000000000032G7    JIJAI   000000000000JA223020
BI00B32G7    JW22044 MW     2022033118007703930              AVSS 0.5F B              CCN000003000000003000FN00000000020220401000003000NNM   20220213180750    1W    00000150000000674000000000032G7    JIJAI   000000000000JA323022
BI00B32G7    JW22041 MW     2022031018007703990              AVSS 0.5F L              CCN000003000000003000FN00000000020220401000003000NNM   20220213180750    1W    00000150000000674000000000032G7    JIJAI   000000000000JA422014
BI00B32G7    JW22042 MW     2022031718007703990              AVSS 0.5F L              CCN000001500000001500FN00000000020220401000001500NNM   20220213180750    1W    00000150000000674000000000032G7    JIJAI   000000000000JA123017
BI00B32G7    JW22043 MW     2022032418007703990              AVSS 0.5F L              CCN000001500000001500FN00000000020220401000001500NNM   20220213180750    1W    00000150000000674000000000032G7    JIJAI   000000000000JA223021
BI00B32G7    JW22044 MW     2022033118007703990              AVSS 0.5F L              CCN000001500000001500FN00000000020220401000001500NNM   20220213180750    1W    00000150000000674000000000032G7    JIJAI   000000000000JA323023
BI00B32G7    JW22043 MW     2022032418007703992              AVSS 0.5F V              CCN000001500000001500FN00000000020220401000001500NNM   20220213180750    1W    00000150000000674000000000032G7    JIJAI   000000000000JA223022
BI00B32G7    JW22044 MW     2022033118007703992              AVSS 0.5F V              CCN000003000000003000FN00000000020220401000003000NNM   20220213180750    1W    00000150000000674000000000032G7    JIJAI   000000000000JA323024
BI00B32G7    JW22043MMW     202203241801W003930              IVSSH 0.5F B             CCN000001800000001800FN00000000020220401000001800NNM   20220213180751    1W    00000180000000625000000000032G7    JIJAI   000000000000JM223002
BI00B32G7    JW22044MMW     202203311801W003930              IVSSH 0.5F B             CCN000003600000003600FN00000000020220401000003600NNM   20220213180751    1W    00000180000000625000000000032G7    JIJAI   000000000000JM323003
BI00B32G7    JW22042MMW     202203171801W003940              IVSSH 0.5F W             CCN000001800000001800FN00000000020220401000001800NNM   20220213180751    1W    00000180000000625000000000032G7    JIJAI   000000000000JM123001
BI00B32G7    JW22043MMW     202203241801W003940              IVSSH 0.5F W             CCN000001800000001800FN00000000020220401000001800NNM   20220213180751    1W    00000180000000625000000000032G7    JIJAI   000000000000JM223006
BI00B32G7    JW22044MMW     202203311801W003940              IVSSH 0.5F W             CCN000001800000001800FN00000000020220401000001800NNM   20220213180751    1W    00000180000000625000000000032G7    JIJAI   000000000000JM323008
BI00B32G7    JW22043MMW     202203241801W003943              IVSSH 0.5F W/B           CCN000001800000001800FN00000000020220401000001800NNM   20220213180751    1W    00000180000000625000000000032G7    JIJAI   000000000000JM223007
BI00B32G7    JW22043MMW     202203241801W003950              IVSSH 0.5F R             CCN000005400000005400FN00000000020220401000005400NNM   20220213180751    1W    00000180000000625000000000032G7    JIJAI   000000000000JM223005
BI00B32G7    JW22044MMW     202203311801W003950              IVSSH 0.5F R             CCN000005400000005400FN00000000020220401000005400NNM   20220213180751    1W    00000180000000625000000000032G7    JIJAI   000000000000JM323007
BI00B32G7    JW22044MMW     202203311801W003952              IVSSH 0.5F P             CCN000001800000001800FN00000000020220401000001800NNM   20220213180751    1W    00000180000000625000000000032G7    JIJAI   000000000000JM323006
BI00B32G7    JW22043MMW     202203241801W003960              IVSSH 0.5F G             CCN000001800000001800FN00000000020220401000001800NNM   20220213180751    1W    00000180000000625000000000032G7    JIJAI   000000000000JM223003
BI00B32G7    JW22044MMW     202203311801W003960              IVSSH 0.5F G             CCN000003600000003600FN00000000020220401000003600NNM   20220213180751    1W    00000180000000625000000000032G7    JIJAI   000000000000JM323004
BI00B32G7    JW22043MMW     202203241801W003990              IVSSH 0.5F L             CCN000019800000019800FN00000000020220401000019800NNM   20220213180751    1W    00000180000000625000000000032G7    JIJAI   000000000000JM223004
BI00B32G7    JW22044MMW     202203311801W003990              IVSSH 0.5F L             CCN000025200000025200FN00000000020220401000025200NNM   20220213180751    1W    00000180000000625000000000032G7    JIJAI   000000000000JM323005
BI00B32G7    JW22042MMW     202203171801W004030              IVSSH 0.75F B            CCN000001300000001300FN00000000020220401000001300NNM   20220213180751    1W    00000130000000882000000000032G7    JIJAI   000000000000JM123002
BI00B32G7    JW22043MMW     202203241801W004030              IVSSH 0.75F B            CCN000003900000003900FN00000000020220401000003900NNM   20220213180751    1W    00000130000000882000000000032G7    JIJAI   000000000000JM223008
BI00B32G7    JW22044MMW     202203311801W004030              IVSSH 0.75F B            CCN000003900000003900FN00000000020220401000003900NNM   20220213180751    1W    00000130000000882000000000032G7    JIJAI   000000000000JM323009
BI00B32G7    JW22042MMW     202203171801W004050              IVSSH 0.75F R            CCN000001300000001300FN00000000020220401000001300NNM   20220213180751    1W    00000130000000882000000000032G7    JIJAI   000000000000JM123003
BI00B32G7    JW22043MMW     202203241801W004050              IVSSH 0.75F R            CCN000003900000003900FN00000000020220401000003900NNM   20220213180751    1W    00000130000000882000000000032G7    JIJAI   000000000000JM223009
BI00B32G7    JW22044MMW     202203311801W004050              IVSSH 0.75F R            CCN000003900000003900FN00000000020220401000003900NNM   20220213180751    1W    00000130000000882000000000032G7    JIJAI   000000000000JM323010
BI00B32G7    JW22042MMW     202203171801W004070              IVSSH 0.75F Y            CCN000002600000002600FN00000000020220401000002600NNM   20220213180751    1W    00000130000000882000000000032G7    JIJAI   000000000000JM123004
BI00B32G7    JW22043MMW     202203241801W004070              IVSSH 0.75F Y            CCN000003900000003900FN00000000020220401000003900NNM   20220213180751    1W    00000130000000882000000000032G7    JIJAI   000000000000JM223010
BI00B32G7    JW22044MMW     202203311801W004070              IVSSH 0.75F Y            CCN000003900000003900FN00000000020220401000003900NNM   20220213180751    1W    00000130000000882000000000032G7    JIJAI   000000000000JM323011
BI00B32G7    JW22043MMW     202203241801W006930              IVSSH 0.35F B            CCN000007500000007500FN00000000020220401000007500NNM   20220213180751    1W    00000250000000452000000000032G7    JIJAI   000000000000JM223011
BI00B32G7    JW22044MMW     202203311801W006930              IVSSH 0.35F B            CCN000010000000010000FN00000000020220401000010000NNM   20220213180751    1W    00000250000000452000000000032G7    JIJAI   000000000000JM323012
BI00B32G7    JW22043MMW     202203241801W006940              IVSSH 0.35F W            CCN000002500000002500FN00000000020220401000002500NNM   20220213180751    1W    00000250000000452000000000032G7    JIJAI   000000000000JM223016
BI00B32G7    JW22044MMW     202203311801W006940              IVSSH 0.35F W            CCN000012500000012500FN00000000020220401000012500NNM   20220213180751    1W    00000250000000452000000000032G7    JIJAI   000000000000JM323019
BI00B32G7    JW22044MMW     202203311801W006941              IVSSH 0.35F GY           CCN000002500000002500FN00000000020220401000002500NNM   20220213180751    1W    00000250000000452000000000032G7    JIJAI   000000000000JM323014
BI00B32G7    JW22043MMW     202203241801W006950              IVSSH 0.35F R            CCN000002500000002500FN00000000020220401000002500NNM   20220213180751    1W    00000250000000452000000000032G7    JIJAI   000000000000JM223014
BI00B32G7    JW22041MMW     202203101801W006952              IVSSH 0.35F P            CCN000007500000007500FN00000000020220401000007500NNM   20220213180751    1W    00000250000000452000000000032G7    JIJAI   000000000000JM422002
BI00B32G7    JW22042MMW     202203171801W006952              IVSSH 0.35F P            CCN000007500000007500FN00000000020220401000007500NNM   20220213180751    1W    00000250000000452000000000032G7    JIJAI   000000000000JM123006
BI00B32G7    JW22043MMW     202203241801W006952              IVSSH 0.35F P            CCN000007500000007500FN00000000020220401000007500NNM   20220213180751    1W    00000250000000452000000000032G7    JIJAI   000000000000JM223013
BI00B32G7    JW22044MMW     202203311801W006952              IVSSH 0.35F P            CCN000007500000007500FN00000000020220401000007500NNM   20220213180751    1W    00000250000000452000000000032G7    JIJAI   000000000000JM323016
BI00B32G7    JW22041MMW     202203101801W006960              IVSSH 0.35F G            CCN000005000000005000FN00000000020220401000005000NNM   20220213180751    1W    00000250000000452000000000032G7    JIJAI   000000000000JM422001
BI00B32G7    JW22042MMW     202203171801W006960              IVSSH 0.35F G            CCN000007500000007500FN00000000020220401000007500NNM   20220213180751    1W    00000250000000452000000000032G7    JIJAI   000000000000JM123005
BI00B32G7    JW22043MMW     202203241801W006960              IVSSH 0.35F G            CCN000007500000007500FN00000000020220401000007500NNM   20220213180751    1W    00000250000000452000000000032G7    JIJAI   000000000000JM223012
BI00B32G7    JW22044MMW     202203311801W006960              IVSSH 0.35F G            CCN000010000000010000FN00000000020220401000010000NNM   20220213180751    1W    00000250000000452000000000032G7    JIJAI   000000000000JM323013
BI00B32G7    JW22043MMW     202203241801W006970              IVSSH 0.35F Y            CCN000007500000007500FN00000000020220401000007500NNM   20220213180751    1W    00000250000000452000000000032G7    JIJAI   000000000000JM223017
BI00B32G7    JW22044MMW     202203311801W006970              IVSSH 0.35F Y            CCN000015000000015000FN00000000020220401000015000NNM   20220213180751    1W    00000250000000452000000000032G7    JIJAI   000000000000JM323020
BI00B32G7    JW22044MMW     202203311801W006990              IVSSH 0.35F L            CCN000017500000017500FN00000000020220401000017500NNM   20220213180751    1W    00000250000000452000000000032G7    JIJAI   000000000000JM323015
BI00B32G7    JW22044MMW     202203311801W006991              IVSSH 0.35F SB           CCN000002500000002500FN00000000020220401000002500NNM   20220213180751    1W    00000250000000452000000000032G7    JIJAI   000000000000JM323017
BI00B32G7    JW22043MMW     202203241801W006992              IVSSH 0.35F V            CCN000012500000012500FN00000000020220401000012500NNM   20220213180751    1W    00000250000000452000000000032G7    JIJAI   000000000000JM223015
BI00B32G7    JW22044MMW     202203311801W006992              IVSSH 0.35F V            CCN000017500000017500FN00000000020220401000017500NNM   20220213180751    1W    00000250000000452000000000032G7    JIJAI   000000000000JM323018
BI00B32G7    @JW2204A MW    20220317181E48040ZZ              CAVSAS-S 0.3X2 GY/V      CCN000001050000001050FN00000000020220401000001050NNE   20220213191525    1W    00000035000002008700000000032G7    JIJAI   000000000000JB123001
BI00B32G7    JW2204AMMW     202203171801W003950              IVSSH 0.5F R             CCN000001800000001800FN00000000020220401000001800NNE   20220213191527    1W    00000180000000625000000000032G7    JIJAI   000000000000JC123001
BI00B32G7    JW2204AMMW     202203171801W004050              IVSSH 0.75F R            CCN000001300000001300FN00000000020220401000001300NNE   20220213191527    1W    00000130000000882000000000032G7    JIJAI   000000000000JC123002
BI00B32G7    JW2204AMMW     202203171801W006990              IVSSH 0.35F L            CCN000007500000007500FN00000000020220401000007500NNE   20220213191527    1W    00000250000000452000000000032G7    JIJAI   000000000000JC123003
BI00B32H8    2203B MW       2022030418007704037              AVSS 0.75F B/Y           CCN000005000000005000FN00000000020220301000005000NNE   20220213192150    1W    00000100000000943000000000032H8    TYTYC   000000000000LG322001
BI00B32H8    2203B MW       2022030418007704060              AVSS 0.75F G             CCN000002000000002000FN00000000020220301000002000NNE   20220213192150    1W    00000100000000943000000000032H8    TYTYC   000000000000LG322002
BI00B32J1    @391370        20220307181AD2002ZZ              CIVUSAS-S 0.35X2 B       CCN000050400000050400FN00000000020220301000050400NNM   20220213092745    1W    00000045000001713700000000032J1    UKYEL-BL000000000000KG422001
BI00B32J1    @391370        20220307181E48012ZZ              CAVSAS-S 0.3X1 GY        CCN000002500000002500FN00000000020220301000002500NNM   20220213092745    1W    00000050000001529500000000032J1    UKYEL-BL000000000000KG422002
BI00B32J1    @391370        20220307181E48031ZZ              CAVSAS-S 0.3X2 GY        CCN000003850000003850FN00000000020220301000003850NNM   20220213092745    1W    00000035000002008700000000032J1    UKYEL-BL000000000000KG422005
BI00B32J1    @391370        20220307181E48035ZZ              CAVSAS-S 0.5X3 GY        CCN000002600000002600FN00000000020220301000002600NNM   20220213092745    1W    00000020000003795300000000032J1    UKYEL-BL000000000000KG422003
BI00B32J1    @391370        20220307181E48065ZZ              CAVSAS-S 0.5X4 GY/W      CCN000001800000001800FN00000000020220301000001800NNM   20220213092745    1W    00000020000003995000000000032J1    UKYEL-BL000000000000KG422004
BI00B32P8    TAPAW-2051     2022033018000004530              AV 8 B                   CCN000016000000016000FN00000000020220501000016000NNM   20220213181115    1W    00000010000010466200000000032P8    YIYTM   000000000000YT323074
BI00B32P8    TAPAW-2052     2022040618000004530              AV 8 B                   CCN000015900000015900FN00000000020220501000015900NNM   20220213181115    1W    00000010000010466200000000032P8    YIYTM   000000000000YT423112
BI00B32P8    TAPAW-2053     2022041218000004530              AV 8 B                   CCN000015800000015800FN00000000020220501000015800NNM   20220213181115    1W    00000010000010466200000000032P8    YIYTM   000000000000YT523123
BI00B32P8    TAPAW-2054     2022042018000004530              AV 8 B                   CCN000015900000015900FN00000000020220501000015900NNM   20220213181115    1W    00000010000010466200000000032P8    YIYTM   000000000000YT124138
BI00B32P8    TAPAW-2055     2022042718000004530              AV 8 B                   CCN000015900000015900FN00000000020220501000015900NNM   20220213181115    1W    00000010000010466200000000032P8    YIYTM   000000000000YT224146
BI00B32P8    TAPAW-2054     2022042018000004560              AV 8 G                   CCN000012300000012300FN00000000020220501000012300NNM   20220213181115    1W    00000010000010466200000000032P8    YIYTM   000000000000YT124140
BI00B32P8    TAPAW-2055     2022042718000004560              AV 8 G                   CCN000012800000012800FN00000000020220501000012800NNM   20220213181115    1W    00000010000010466200000000032P8    YIYTM   000000000000YT224148
BI00B32P8    TAPAW-2051     2022033018000004550              AV 8 R                   CCN000001800000001800FN00000000020220501000001800NNM   20220213181115    1W    00000010000010466200000000032P8    YIYTM   000000000000YT323075
BI00B32P8    TAPAW-2052     2022040618000004550              AV 8 R                   CCN000014200000014200FN00000000020220501000014200NNM   20220213181115    1W    00000010000010466200000000032P8    YIYTM   000000000000YT423114
BI00B32P8    TAPAW-2053     2022041218000004550              AV 8 R                   CCN000014300000014300FN00000000020220501000014300NNM   20220213181115    1W    00000010000010466200000000032P8    YIYTM   000000000000YT523125
BI00B32P8    TAPAW-2054     2022042018000004550              AV 8 R                   CCN000014200000014200FN00000000020220501000014200NNM   20220213181115    1W    00000010000010466200000000032P8    YIYTM   000000000000YT124142
BI00B32P8    TAPAW-2055     2022042718000004550              AV 8 R                   CCN000014200000014200FN00000000020220501000014200NNM   20220213181115    1W    00000010000010466200000000032P8    YIYTM   000000000000YT224150
BI00B32P8    TAPAW-2051     2022033018000004540              AV 8 W                   CCN000002000000002000FN00000000020220501000002000NNM   20220213181115    1W    00000010000010466200000000032P8    YIYTM   000000000000YT323076
BI00B32P8    TAPAW-2052     2022040618000004540              AV 8 W                   CCN000016700000016700FN00000000020220501000016700NNM   20220213181115    1W    00000010000010466200000000032P8    YIYTM   000000000000YT423115
BI00B32P8    TAPAW-2053     2022041218000004540              AV 8 W                   CCN000016800000016800FN00000000020220501000016800NNM   20220213181115    1W    00000010000010466200000000032P8    YIYTM   000000000000YT523126
BI00B32P8    TAPAW-2054     2022042018000004540              AV 8 W                   CCN000016600000016600FN00000000020220501000016600NNM   20220213181115    1W    00000010000010466200000000032P8    YIYTM   000000000000YT124143
BI00B32P8    TAPAW-2055     2022042718000004540              AV 8 W                   CCN000016700000016700FN00000000020220501000016700NNM   20220213181115    1W    00000010000010466200000000032P8    YIYTM   000000000000YT224151
BI00B32P8    TAPAW-2051     2022033018000004543              AV 8 W/B                 CCN000002700000002700FN00000000020220501000002700NNM   20220213181115    1W    00000010000010466200000000032P8    YIYTM   000000000000YT323077
BI00B32P8    TAPAW-2052     2022040618000004543              AV 8 W/B                 CCN000004700000004700FN00000000020220501000004700NNM   20220213181115    1W    00000010000010466200000000032P8    YIYTM   000000000000YT423116
BI00B32P8    TAPAW-2053     2022041218000004543              AV 8 W/B                 CCN000004700000004700FN00000000020220501000004700NNM   20220213181115    1W    00000010000010466200000000032P8    YIYTM   000000000000YT523127
BI00B32P8    TAPAW-2054     2022042018000004543              AV 8 W/B                 CCN000004700000004700FN00000000020220501000004700NNM   20220213181115    1W    00000010000010466200000000032P8    YIYTM   000000000000YT124144
BI00B32P8    TAPAW-2055     2022042718000004543              AV 8 W/B                 CCN000004700000004700FN00000000020220501000004700NNM   20220213181115    1W    00000010000010466200000000032P8    YIYTM   000000000000YT224152
BI00B32P8    TAPAW-2052     2022040618009604030              AVS 0.85 B               CCN000001000000001000FN00000000020220501000001000NNM   20220213181115    1W    00000100000001167700000000032P8    YIYTM   000000000000YT423249
BI00B32P8    TAPAW-2051     2022033018009604034              AVS 0.85 B/W             CCN000001000000001000FN00000000020220501000001000NNM   20220213181115    1W    00000100000001167700000000032P8    YIYTM   000000000000YT323185
BI00B32P8    TAPAW-2052     2022040618009604034              AVS 0.85 B/W             CCN000002000000002000FN00000000020220501000002000NNM   20220213181115    1W    00000100000001167700000000032P8    YIYTM   000000000000YT423250
BI00B32P8    TAPAW-2053     2022041218009604034              AVS 0.85 B/W             CCN000001000000001000FN00000000020220501000001000NNM   20220213181115    1W    00000100000001167700000000032P8    YIYTM   000000000000YT523260
BI00B32P8    TAPAW-2054     2022042018009604034              AVS 0.85 B/W             CCN000002000000002000FN00000000020220501000002000NNM   20220213181115    1W    00000100000001167700000000032P8    YIYTM   000000000000YT124280
BI00B32P8    TAPAW-2055     2022042718009604034              AVS 0.85 B/W             CCN000001000000001000FN00000000020220501000001000NNM   20220213181115    1W    00000100000001167700000000032P8    YIYTM   000000000000YT224286
BI00B32P8    TAPAW-2052     2022040618009604037              AVS 0.85 B/Y             CCN000001000000001000FN00000000020220501000001000NNM   20220213181115    1W    00000100000001167700000000032P8    YIYTM   000000000000YT423251
BI00B32P8    TAPAW-2053     2022041218009604037              AVS 0.85 B/Y             CCN000001000000001000FN00000000020220501000001000NNM   20220213181115    1W    00000100000001167700000000032P8    YIYTM   000000000000YT523261
BI00B32P8    TAPAW-2054     2022042018009604037              AVS 0.85 B/Y             CCN000001000000001000FN00000000020220501000001000NNM   20220213181115    1W    00000100000001167700000000032P8    YIYTM   000000000000YT124281
BI00B32P8    TAPAW-2055     2022042718009604037              AVS 0.85 B/Y             CCN000001000000001000FN00000000020220501000001000NNM   20220213181115    1W    00000100000001167700000000032P8    YIYTM   000000000000YT224287
BI00B32P8    TAPAW-2051     20220330180096040F0              AVS 0.85 GY/B            CCN000001000000001000FN00000000020220501000001000NNM   20220213181115    1W    00000100000001167700000000032P8    YIYTM   000000000000YT323186
BI00B32P8    TAPAW-2053     20220412180096040F0              AVS 0.85 GY/B            CCN000001000000001000FN00000000020220501000001000NNM   20220213181115    1W    00000100000001167700000000032P8    YIYTM   000000000000YT523262
BI00B32P8    TAPAW-2055     20220427180096040F0              AVS 0.85 GY/B            CCN000001000000001000FN00000000020220501000001000NNM   20220213181115    1W    00000100000001167700000000032P8    YIYTM   000000000000YT224288
BI00B32P8    TAPAW-2051     2022033018007703730              AVSS 0.3F B              CCN000006000000006000FN00000000020220501000006000NNM   20220213181115    1W    00000200000000496000000000032P8    YIYTM   000000000000YT323079
BI00B32P8    TAPAW-2052     2022040618007703730              AVSS 0.3F B              CCN000004000000004000FN00000000020220501000004000NNM   20220213181115    1W    00000200000000496000000000032P8    YIYTM   000000000000YT423118
BI00B32P8    TAPAW-2053     2022041218007703730              AVSS 0.3F B              CCN000004000000004000FN00000000020220501000004000NNM   20220213181115    1W    00000200000000496000000000032P8    YIYTM   000000000000YT523129
BI00B32P8    TAPAW-2054     2022042018007703730              AVSS 0.3F B              CCN000006000000006000FN00000000020220501000006000NNM   20220213181115    1W    00000200000000496000000000032P8    YIYTM   000000000000YT124146
BI00B32P8    TAPAW-2055     2022042718007703730              AVSS 0.3F B              CCN000004000000004000FN00000000020220501000004000NNM   20220213181115    1W    00000200000000496000000000032P8    YIYTM   000000000000YT224154
BI00B32P8    TAPAW-2055     2022042718007703739              AVSS 0.3F B/L            CCN000002000000002000FN00000000020220501000002000NNM   20220213181115    1W    00000200000000496000000000032P8    YIYTM   000000000000YT224155
BI00B32P8    TAPAW-2051     2022033018007703735              AVSS 0.3F B/R            CCN000002000000002000FN00000000020220501000002000NNM   20220213181115    1W    00000200000000496000000000032P8    YIYTM   000000000000YT323080
BI00B32P8    TAPAW-2053     2022041218007703735              AVSS 0.3F B/R            CCN000002000000002000FN00000000020220501000002000NNM   20220213181115    1W    00000200000000496000000000032P8    YIYTM   000000000000YT523130
BI00B32P8    TAPAW-2052     2022040618007703734              AVSS 0.3F B/W            CCN000002000000002000FN00000000020220501000002000NNM   20220213181115    1W    00000200000000496000000000032P8    YIYTM   000000000000YT423119
BI00B32P8    TAPAW-2054     2022042018007703737              AVSS 0.3F B/Y            CCN000002000000002000FN00000000020220501000002000NNM   20220213181115    1W    00000200000000496000000000032P8    YIYTM   000000000000YT124147
BI00B32P8    TAPAW-2051     2022033018007703760              AVSS 0.3F G              CCN000006000000006000FN00000000020220501000006000NNM   20220213181115    1W    00000200000000496000000000032P8    YIYTM   000000000000YT323081
BI00B32P8    TAPAW-2052     2022040618007703760              AVSS 0.3F G              CCN000002000000002000FN00000000020220501000002000NNM   20220213181115    1W    00000200000000496000000000032P8    YIYTM   000000000000YT423120
BI00B32P8    TAPAW-2053     2022041218007703760              AVSS 0.3F G              CCN000004000000004000FN00000000020220501000004000NNM   20220213181115    1W    00000200000000496000000000032P8    YIYTM   000000000000YT523131
BI00B32P8    TAPAW-2054     2022042018007703760              AVSS 0.3F G              CCN000002000000002000FN00000000020220501000002000NNM   20220213181115    1W    00000200000000496000000000032P8    YIYTM   000000000000YT124148
BI00B32P8    TAPAW-2055     2022042718007703760              AVSS 0.3F G              CCN000004000000004000FN00000000020220501000004000NNM   20220213181115    1W    00000200000000496000000000032P8    YIYTM   000000000000YT224156
BI00B32P8    TAPAW-2053     2022041218007703765              AVSS 0.3F G/R            CCN000002000000002000FN00000000020220501000002000NNM   20220213181115    1W    00000200000000496000000000032P8    YIYTM   000000000000YT523132
BI00B32P8    TAPAW-2054     2022042018007703765              AVSS 0.3F G/R            CCN000004000000004000FN00000000020220501000004000NNM   20220213181115    1W    00000200000000496000000000032P8    YIYTM   000000000000YT124149
BI00B32P8    TAPAW-2055     2022042718007703765              AVSS 0.3F G/R            CCN000002000000002000FN00000000020220501000002000NNM   20220213181115    1W    00000200000000496000000000032P8    YIYTM   000000000000YT224157
BI00B32P8    TAPAW-2052     2022040618007703764              AVSS 0.3F G/W            CCN000002000000002000FN00000000020220501000002000NNM   20220213181115    1W    00000200000000496000000000032P8    YIYTM   000000000000YT423121
BI00B32P8    TAPAW-2053     2022041218007703764              AVSS 0.3F G/W            CCN000002000000002000FN00000000020220501000002000NNM   20220213181115    1W    00000200000000496000000000032P8    YIYTM   000000000000YT523133
BI00B32P8    TAPAW-2054     2022042018007703764              AVSS 0.3F G/W            CCN000002000000002000FN00000000020220501000002000NNM   20220213181115    1W    00000200000000496000000000032P8    YIYTM   000000000000YT124150
BI00B32P8    TAPAW-2055     2022042718007703764              AVSS 0.3F G/W            CCN000002000000002000FN00000000020220501000002000NNM   20220213181115    1W    00000200000000496000000000032P8    YIYTM   000000000000YT224158
BI00B32P8    TAPAW-2051     2022033018007703767              AVSS 0.3F G/Y            CCN000006000000006000FN00000000020220501000006000NNM   20220213181115    1W    00000200000000496000000000032P8    YIYTM   000000000000YT323082
BI00B32P8    TAPAW-2052     2022040618007703767              AVSS 0.3F G/Y            CCN000006000000006000FN00000000020220501000006000NNM   20220213181115    1W    00000200000000496000000000032P8    YIYTM   000000000000YT423122
BI00B32P8    TAPAW-2053     2022041218007703767              AVSS 0.3F G/Y            CCN000008000000008000FN00000000020220501000008000NNM   20220213181115    1W    00000200000000496000000000032P8    YIYTM   000000000000YT523134
BI00B32P8    TAPAW-2054     2022042018007703767              AVSS 0.3F G/Y            CCN000006000000006000FN00000000020220501000006000NNM   20220213181115    1W    00000200000000496000000000032P8    YIYTM   000000000000YT124151
BI00B32P8    TAPAW-2055     2022042718007703767              AVSS 0.3F G/Y            CCN000008000000008000FN00000000020220501000008000NNM   20220213181115    1W    00000200000000496000000000032P8    YIYTM   000000000000YT224159
BI00B32P8    TAPAW-2051     2022033018007703790              AVSS 0.3F L              CCN000002000000002000FN00000000020220501000002000NNM   20220213181115    1W    00000200000000496000000000032P8    YIYTM   000000000000YT323083
BI00B32P8    TAPAW-2054     2022042018007703790              AVSS 0.3F L              CCN000002000000002000FN00000000020220501000002000NNM   20220213181115    1W    00000200000000496000000000032P8    YIYTM   000000000000YT124152
BI00B32P8    TAPAW-2051     2022033018007703793              AVSS 0.3F L/B            CCN000002000000002000FN00000000020220501000002000NNM   20220213181115    1W    00000200000000496000000000032P8    YIYTM   000000000000YT323084
BI00B32P8    TAPAW-2053     2022041218007703793              AVSS 0.3F L/B            CCN000002000000002000FN00000000020220501000002000NNM   20220213181115    1W    00000200000000496000000000032P8    YIYTM   000000000000YT523135
BI00B32P8    TAPAW-2055     2022042718007703793              AVSS 0.3F L/B            CCN000002000000002000FN00000000020220501000002000NNM   20220213181115    1W    00000200000000496000000000032P8    YIYTM   000000000000YT224160
BI00B32P8    TAPAW-2053     2022041218007703795              AVSS 0.3F L/R            CCN000002000000002000FN00000000020220501000002000NNM   20220213181115    1W    00000200000000496000000000032P8    YIYTM   000000000000YT523136
BI00B32P8    TAPAW-2052     2022040618007703794              AVSS 0.3F L/W            CCN000002000000002000FN00000000020220501000002000NNM   20220213181115    1W    00000200000000496000000000032P8    YIYTM   000000000000YT423123
BI00B32P8    TAPAW-2053     2022041218007703794              AVSS 0.3F L/W            CCN000002000000002000FN00000000020220501000002000NNM   20220213181115    1W    00000200000000496000000000032P8    YIYTM   000000000000YT523137
BI00B32P8    TAPAW-2054     2022042018007703794              AVSS 0.3F L/W            CCN000002000000002000FN00000000020220501000002000NNM   20220213181115    1W    00000200000000496000000000032P8    YIYTM   000000000000YT124153
BI00B32P8    TAPAW-2055     2022042718007703794              AVSS 0.3F L/W            CCN000002000000002000FN00000000020220501000002000NNM   20220213181115    1W    00000200000000496000000000032P8    YIYTM   000000000000YT224161
BI00B32P8    TAPAW-2053     2022041218007703751              AVSS 0.3F O              CCN000002000000002000FN00000000020220501000002000NNM   20220213181115    1W    00000200000000496000000000032P8    YIYTM   000000000000YT523138
BI00B32P8    TAPAW-2051     2022033018007703740              AVSS 0.3F W              CCN000002000000002000FN00000000020220501000002000NNM   20220213181115    1W    00000200000000496000000000032P8    YIYTM   000000000000YT323085
BI00B32P8    TAPAW-2053     2022041218007703740              AVSS 0.3F W              CCN000002000000002000FN00000000020220501000002000NNM   20220213181115    1W    00000200000000496000000000032P8    YIYTM   000000000000YT523139
BI00B32P8    TAPAW-2055     2022042718007703743              AVSS 0.3F W/B            CCN000002000000002000FN00000000020220501000002000NNM   20220213181115    1W    00000200000000496000000000032P8    YIYTM   000000000000YT224162
BI00B32P8    TAPAW-2053     2022041218007703770              AVSS 0.3F Y              CCN000002000000002000FN00000000020220501000002000NNM   20220213181115    1W    00000200000000496000000000032P8    YIYTM   000000000000YT523140
BI00B32P8    TAPAW-2053     2022041218007703773              AVSS 0.3F Y/B            CCN000002000000002000FN00000000020220501000002000NNM   20220213181115    1W    00000200000000496000000000032P8    YIYTM   000000000000YT523141
BI00B32P8    TAPAW-2052     2022040618007703776              AVSS 0.3F Y/G            CCN000002000000002000FN00000000020220501000002000NNM   20220213181115    1W    00000200000000496000000000032P8    YIYTM   000000000000YT423124
BI00B32P8    TAPAW-2054     2022042018007703776              AVSS 0.3F Y/G            CCN000002000000002000FN00000000020220501000002000NNM   20220213181115    1W    00000200000000496000000000032P8    YIYTM   000000000000YT124154
BI00B32P8    TAPAW-2051     2022033018007703779              AVSS 0.3F Y/L            CCN000002000000002000FN00000000020220501000002000NNM   20220213181115    1W    00000200000000496000000000032P8    YIYTM   000000000000YT323086
BI00B32P8    TAPAW-2052     2022040618007703779              AVSS 0.3F Y/L            CCN000002000000002000FN00000000020220501000002000NNM   20220213181115    1W    00000200000000496000000000032P8    YIYTM   000000000000YT423125
BI00B32P8    TAPAW-2054     2022042018007703779              AVSS 0.3F Y/L            CCN000002000000002000FN00000000020220501000002000NNM   20220213181115    1W    00000200000000496000000000032P8    YIYTM   000000000000YT124155
BI00B32P8    TAPAW-2055     2022042718007703779              AVSS 0.3F Y/L            CCN000002000000002000FN00000000020220501000002000NNM   20220213181115    1W    00000200000000496000000000032P8    YIYTM   000000000000YT224163
BI00B32P8    TAPAW-2053     2022041218007703775              AVSS 0.3F Y/R            CCN000002000000002000FN00000000020220501000002000NNM   20220213181115    1W    00000200000000496000000000032P8    YIYTM   000000000000YT523142
BI00B32P8    TAPAW-2055     2022042718007703775              AVSS 0.3F Y/R            CCN000002000000002000FN00000000020220501000002000NNM   20220213181115    1W    00000200000000496000000000032P8    YIYTM   000000000000YT224164
BI00B32P8    TAPAW-2051     2022033018007703930              AVSS 0.5F B              CCN000018000000018000FN00000000020220501000018000NNM   20220213181115    1W    00000150000000674000000000032P8    YIYTM   000000000000YT323087
BI00B32P8    TAPAW-2052     2022040618007703930              AVSS 0.5F B              CCN000031500000031500FN00000000020220501000031500NNM   20220213181115    1W    00000150000000674000000000032P8    YIYTM   000000000000YT423126
BI00B32P8    TAPAW-2053     2022041218007703930              AVSS 0.5F B              CCN000031500000031500FN00000000020220501000031500NNM   20220213181115    1W    00000150000000674000000000032P8    YIYTM   000000000000YT523143
BI00B32P8    TAPAW-2054     2022042018007703930              AVSS 0.5F B              CCN000031500000031500FN00000000020220501000031500NNM   20220213181115    1W    00000150000000674000000000032P8    YIYTM   000000000000YT124156
BI00B32P8    TAPAW-2055     2022042718007703930              AVSS 0.5F B              CCN000030000000030000FN00000000020220501000030000NNM   20220213181115    1W    00000150000000674000000000032P8    YIYTM   000000000000YT224165
BI00B32P8    TAPAW-2051     2022033018007703936              AVSS 0.5F B/G            CCN000006000000006000FN00000000020220501000006000NNM   20220213181115    1W    00000150000000674000000000032P8    YIYTM   000000000000YT323088
BI00B32P8    TAPAW-2052     2022040618007703936              AVSS 0.5F B/G            CCN000006000000006000FN00000000020220501000006000NNM   20220213181115    1W    00000150000000674000000000032P8    YIYTM   000000000000YT423127
BI00B32P8    TAPAW-2053     2022041218007703936              AVSS 0.5F B/G            CCN000004500000004500FN00000000020220501000004500NNM   20220213181115    1W    00000150000000674000000000032P8    YIYTM   000000000000YT523144
BI00B32P8    TAPAW-2054     2022042018007703936              AVSS 0.5F B/G            CCN000004500000004500FN00000000020220501000004500NNM   20220213181115    1W    00000150000000674000000000032P8    YIYTM   000000000000YT124157
BI00B32P8    TAPAW-2055     2022042718007703936              AVSS 0.5F B/G            CCN000006000000006000FN00000000020220501000006000NNM   20220213181115    1W    00000150000000674000000000032P8    YIYTM   000000000000YT224166
BI00B32P8    TAPAW-2051     2022033018007703939              AVSS 0.5F B/L            CCN000006000000006000FN00000000020220501000006000NNM   20220213181115    1W    00000150000000674000000000032P8    YIYTM   000000000000YT323089
BI00B32P8    TAPAW-2052     2022040618007703939              AVSS 0.5F B/L            CCN000009000000009000FN00000000020220501000009000NNM   20220213181115    1W    00000150000000674000000000032P8    YIYTM   000000000000YT423128
BI00B32P8    TAPAW-2053     2022041218007703939              AVSS 0.5F B/L            CCN000010500000010500FN00000000020220501000010500NNM   20220213181115    1W    00000150000000674000000000032P8    YIYTM   000000000000YT523145
BI00B32P8    TAPAW-2054     2022042018007703939              AVSS 0.5F B/L            CCN000009000000009000FN00000000020220501000009000NNM   20220213181115    1W    00000150000000674000000000032P8    YIYTM   000000000000YT124158
BI00B32P8    TAPAW-2055     2022042718007703939              AVSS 0.5F B/L            CCN000009000000009000FN00000000020220501000009000NNM   20220213181115    1W    00000150000000674000000000032P8    YIYTM   000000000000YT224167
BI00B32P8    TAPAW-2051     20220330180077039A8              AVSS 0.5F B/P            CCN000021000000021000FN00000000020220501000021000NNM   20220213181115    1W    00000150000000674000000000032P8    YIYTM   000000000000YT323090
BI00B32P8    TAPAW-2052     20220406180077039A8              AVSS 0.5F B/P            CCN000028500000028500FN00000000020220501000028500NNM   20220213181115    1W    00000150000000674000000000032P8    YIYTM   000000000000YT423129
BI00B32P8    TAPAW-2053     20220412180077039A8              AVSS 0.5F B/P            CCN000030000000030000FN00000000020220501000030000NNM   20220213181115    1W    00000150000000674000000000032P8    YIYTM   000000000000YT523146
BI00B32P8    TAPAW-2054     20220420180077039A8              AVSS 0.5F B/P            CCN000028500000028500FN00000000020220501000028500NNM   20220213181115    1W    00000150000000674000000000032P8    YIYTM   000000000000YT124159
BI00B32P8    TAPAW-2055     20220427180077039A8              AVSS 0.5F B/P            CCN000030000000030000FN00000000020220501000030000NNM   20220213181115    1W    00000150000000674000000000032P8    YIYTM   000000000000YT224168
BI00B32P8    TAPAW-2051     2022033018007703935              AVSS 0.5F B/R            CCN000010500000010500FN00000000020220501000010500NNM   20220213181115    1W    00000150000000674000000000032P8    YIYTM   000000000000YT323091
BI00B32P8    TAPAW-2052     2022040618007703935              AVSS 0.5F B/R            CCN000007500000007500FN00000000020220501000007500NNM   20220213181115    1W    00000150000000674000000000032P8    YIYTM   000000000000YT423130
BI00B32P8    TAPAW-2053     2022041218007703935              AVSS 0.5F B/R            CCN000007500000007500FN00000000020220501000007500NNM   20220213181115    1W    00000150000000674000000000032P8    YIYTM   000000000000YT523147
BI00B32P8    TAPAW-2054     2022042018007703935              AVSS 0.5F B/R            CCN000006000000006000FN00000000020220501000006000NNM   20220213181115    1W    00000150000000674000000000032P8    YIYTM   000000000000YT124160
BI00B32P8    TAPAW-2055     2022042718007703935              AVSS 0.5F B/R            CCN000007500000007500FN00000000020220501000007500NNM   20220213181115    1W    00000150000000674000000000032P8    YIYTM   000000000000YT224169
BI00B32P8    TAPAW-2051     2022033018007703934              AVSS 0.5F B/W            CCN000004500000004500FN00000000020220501000004500NNM   20220213181115    1W    00000150000000674000000000032P8    YIYTM   000000000000YT323092
BI00B32P8    TAPAW-2052     2022040618007703934              AVSS 0.5F B/W            CCN000010500000010500FN00000000020220501000010500NNM   20220213181115    1W    00000150000000674000000000032P8    YIYTM   000000000000YT423131
BI00B32P8    TAPAW-2053     2022041218007703934              AVSS 0.5F B/W            CCN000009000000009000FN00000000020220501000009000NNM   20220213181115    1W    00000150000000674000000000032P8    YIYTM   000000000000YT523148
BI00B32P8    TAPAW-2054     2022042018007703934              AVSS 0.5F B/W            CCN000009000000009000FN00000000020220501000009000NNM   20220213181115    1W    00000150000000674000000000032P8    YIYTM   000000000000YT124161
BI00B32P8    TAPAW-2055     2022042718007703934              AVSS 0.5F B/W            CCN000010500000010500FN00000000020220501000010500NNM   20220213181115    1W    00000150000000674000000000032P8    YIYTM   000000000000YT224170
BI00B32P8    TAPAW-2051     2022033018007703937              AVSS 0.5F B/Y            CCN000010500000010500FN00000000020220501000010500NNM   20220213181115    1W    00000150000000674000000000032P8    YIYTM   000000000000YT323093
BI00B32P8    TAPAW-2052     2022040618007703937              AVSS 0.5F B/Y            CCN000009000000009000FN00000000020220501000009000NNM   20220213181115    1W    00000150000000674000000000032P8    YIYTM   000000000000YT423132
BI00B32P8    TAPAW-2053     2022041218007703937              AVSS 0.5F B/Y            CCN000009000000009000FN00000000020220501000009000NNM   20220213181115    1W    00000150000000674000000000032P8    YIYTM   000000000000YT523149
BI00B32P8    TAPAW-2054     2022042018007703937              AVSS 0.5F B/Y            CCN000009000000009000FN00000000020220501000009000NNM   20220213181115    1W    00000150000000674000000000032P8    YIYTM   000000000000YT124162
BI00B32P8    TAPAW-2055     2022042718007703937              AVSS 0.5F B/Y            CCN000009000000009000FN00000000020220501000009000NNM   20220213181115    1W    00000150000000674000000000032P8    YIYTM   000000000000YT224171
BI00B32P8    TAPAW-2051     2022033018007703980              AVSS 0.5F BR             CCN000001500000001500FN00000000020220501000001500NNM   20220213181115    1W    00000150000000674000000000032P8    YIYTM   000000000000YT323094
BI00B32P8    TAPAW-2052     2022040618007703980              AVSS 0.5F BR             CCN000003000000003000FN00000000020220501000003000NNM   20220213181115    1W    00000150000000674000000000032P8    YIYTM   000000000000YT423133
BI00B32P8    TAPAW-2053     2022041218007703980              AVSS 0.5F BR             CCN000003000000003000FN00000000020220501000003000NNM   20220213181115    1W    00000150000000674000000000032P8    YIYTM   000000000000YT523150
BI00B32P8    TAPAW-2054     2022042018007703980              AVSS 0.5F BR             CCN000001500000001500FN00000000020220501000001500NNM   20220213181115    1W    00000150000000674000000000032P8    YIYTM   000000000000YT124163
BI00B32P8    TAPAW-2055     2022042718007703980              AVSS 0.5F BR             CCN000003000000003000FN00000000020220501000003000NNM   20220213181115    1W    00000150000000674000000000032P8    YIYTM   000000000000YT224172
BI00B32P8    TAPAW-2055     2022042718007703985              AVSS 0.5F BR/R           CCN000001500000001500FN00000000020220501000001500NNM   20220213181115    1W    00000150000000674000000000032P8    YIYTM   000000000000YT224173
BI00B32P8    TAPAW-2052     2022040618007703984              AVSS 0.5F BR/W           CCN000001500000001500FN00000000020220501000001500NNM   20220213181115    1W    00000150000000674000000000032P8    YIYTM   000000000000YT423134
BI00B32P8    TAPAW-2053     2022041218007703984              AVSS 0.5F BR/W           CCN000001500000001500FN00000000020220501000001500NNM   20220213181115    1W    00000150000000674000000000032P8    YIYTM   000000000000YT523151
BI00B32P8    TAPAW-2054     2022042018007703984              AVSS 0.5F BR/W           CCN000001500000001500FN00000000020220501000001500NNM   20220213181115    1W    00000150000000674000000000032P8    YIYTM   000000000000YT124164
BI00B32P8    TAPAW-2055     2022042718007703984              AVSS 0.5F BR/W           CCN000001500000001500FN00000000020220501000001500NNM   20220213181115    1W    00000150000000674000000000032P8    YIYTM   000000000000YT224174
BI00B32P8    TAPAW-2052     2022040618007703987              AVSS 0.5F BR/Y           CCN000003000000003000FN00000000020220501000003000NNM   20220213181115    1W    00000150000000674000000000032P8    YIYTM   000000000000YT423135
BI00B32P8    TAPAW-2053     2022041218007703987              AVSS 0.5F BR/Y           CCN000001500000001500FN00000000020220501000001500NNM   20220213181115    1W    00000150000000674000000000032P8    YIYTM   000000000000YT523152
BI00B32P8    TAPAW-2054     2022042018007703987              AVSS 0.5F BR/Y           CCN000003000000003000FN00000000020220501000003000NNM   20220213181115    1W    00000150000000674000000000032P8    YIYTM   000000000000YT124165
BI00B32P8    TAPAW-2055     2022042718007703987              AVSS 0.5F BR/Y           CCN000003000000003000FN00000000020220501000003000NNM   20220213181115    1W    00000150000000674000000000032P8    YIYTM   000000000000YT224175
BI00B32P8    TAPAW-2051     2022033018007703960              AVSS 0.5F G              CCN000003000000003000FN00000000020220501000003000NNM   20220213181115    1W    00000150000000674000000000032P8    YIYTM   000000000000YT323095
BI00B32P8    TAPAW-2052     2022040618007703960              AVSS 0.5F G              CCN000010500000010500FN00000000020220501000010500NNM   20220213181115    1W    00000150000000674000000000032P8    YIYTM   000000000000YT423136
BI00B32P8    TAPAW-2053     2022041218007703960              AVSS 0.5F G              CCN000012000000012000FN00000000020220501000012000NNM   20220213181115    1W    00000150000000674000000000032P8    YIYTM   000000000000YT523153
BI00B32P8    TAPAW-2054     2022042018007703960              AVSS 0.5F G              CCN000012000000012000FN00000000020220501000012000NNM   20220213181115    1W    00000150000000674000000000032P8    YIYTM   000000000000YT124166
BI00B32P8    TAPAW-2055     2022042718007703960              AVSS 0.5F G              CCN000010500000010500FN00000000020220501000010500NNM   20220213181115    1W    00000150000000674000000000032P8    YIYTM   000000000000YT224176
BI00B32P8    TAPAW-2051     2022033018007703963              AVSS 0.5F G/B            CCN000003000000003000FN00000000020220501000003000NNM   20220213181115    1W    00000150000000674000000000032P8    YIYTM   000000000000YT323096
BI00B32P8    TAPAW-2052     2022040618007703963              AVSS 0.5F G/B            CCN000001500000001500FN00000000020220501000001500NNM   20220213181115    1W    00000150000000674000000000032P8    YIYTM   000000000000YT423137
BI00B32P8    TAPAW-2053     2022041218007703963              AVSS 0.5F G/B            CCN000001500000001500FN00000000020220501000001500NNM   20220213181115    1W    00000150000000674000000000032P8    YIYTM   000000000000YT523154
BI00B32P8    TAPAW-2055     2022042718007703963              AVSS 0.5F G/B            CCN000001500000001500FN00000000020220501000001500NNM   20220213181115    1W    00000150000000674000000000032P8    YIYTM   000000000000YT224177
BI00B32P8    TAPAW-2052     2022040618007703918              AVSS 0.5F G/O            CCN000001500000001500FN00000000020220501000001500NNM   20220213181115    1W    00000150000000674000000000032P8    YIYTM   000000000000YT423138
BI00B32P8    TAPAW-2054     2022042018007703918              AVSS 0.5F G/O            CCN000001500000001500FN00000000020220501000001500NNM   20220213181115    1W    00000150000000674000000000032P8    YIYTM   000000000000YT124167
BI00B32P8    TAPAW-2051     2022033018007703965              AVSS 0.5F G/R            CCN000015000000015000FN00000000020220501000015000NNM   20220213181115    1W    00000150000000674000000000032P8    YIYTM   000000000000YT323097
BI00B32P8    TAPAW-2052     2022040618007703965              AVSS 0.5F G/R            CCN000007500000007500FN00000000020220501000007500NNM   20220213181115    1W    00000150000000674000000000032P8    YIYTM   000000000000YT423139
BI00B32P8    TAPAW-2053     2022041218007703965              AVSS 0.5F G/R            CCN000007500000007500FN00000000020220501000007500NNM   20220213181115    1W    00000150000000674000000000032P8    YIYTM   000000000000YT523155
BI00B32P8    TAPAW-2054     2022042018007703965              AVSS 0.5F G/R            CCN000007500000007500FN00000000020220501000007500NNM   20220213181115    1W    00000150000000674000000000032P8    YIYTM   000000000000YT124168
BI00B32P8    TAPAW-2055     2022042718007703965              AVSS 0.5F G/R            CCN000007500000007500FN00000000020220501000007500NNM   20220213181115    1W    00000150000000674000000000032P8    YIYTM   000000000000YT224178
BI00B32P8    TAPAW-2051     2022033018007703964              AVSS 0.5F G/W            CCN000006000000006000FN00000000020220501000006000NNM   20220213181115    1W    00000150000000674000000000032P8    YIYTM   000000000000YT323098
BI00B32P8    TAPAW-2052     2022040618007703964              AVSS 0.5F G/W            CCN000009000000009000FN00000000020220501000009000NNM   20220213181115    1W    00000150000000674000000000032P8    YIYTM   000000000000YT423140
BI00B32P8    TAPAW-2053     2022041218007703964              AVSS 0.5F G/W            CCN000009000000009000FN00000000020220501000009000NNM   20220213181115    1W    00000150000000674000000000032P8    YIYTM   000000000000YT523156
BI00B32P8    TAPAW-2054     2022042018007703964              AVSS 0.5F G/W            CCN000009000000009000FN00000000020220501000009000NNM   20220213181115    1W    00000150000000674000000000032P8    YIYTM   000000000000YT124169
BI00B32P8    TAPAW-2055     2022042718007703964              AVSS 0.5F G/W            CCN000009000000009000FN00000000020220501000009000NNM   20220213181115    1W    00000150000000674000000000032P8    YIYTM   000000000000YT224179
BI00B32P8    TAPAW-2051     2022033018007703967              AVSS 0.5F G/Y            CCN000004500000004500FN00000000020220501000004500NNM   20220213181115    1W    00000150000000674000000000032P8    YIYTM   000000000000YT323099
BI00B32P8    TAPAW-2052     2022040618007703967              AVSS 0.5F G/Y            CCN000003000000003000FN00000000020220501000003000NNM   20220213181115    1W    00000150000000674000000000032P8    YIYTM   000000000000YT423141
BI00B32P8    TAPAW-2053     2022041218007703967              AVSS 0.5F G/Y            CCN000004500000004500FN00000000020220501000004500NNM   20220213181115    1W    00000150000000674000000000032P8    YIYTM   000000000000YT523157
BI00B32P8    TAPAW-2054     2022042018007703967              AVSS 0.5F G/Y            CCN000003000000003000FN00000000020220501000003000NNM   20220213181115    1W    00000150000000674000000000032P8    YIYTM   000000000000YT124170
BI00B32P8    TAPAW-2055     2022042718007703967              AVSS 0.5F G/Y            CCN000004500000004500FN00000000020220501000004500NNM   20220213181115    1W    00000150000000674000000000032P8    YIYTM   000000000000YT224180
BI00B32P8    TAPAW-2052     2022040618007703941              AVSS 0.5F GY             CCN000001500000001500FN00000000020220501000001500NNM   20220213181115    1W    00000150000000674000000000032P8    YIYTM   000000000000YT423142
BI00B32P8    TAPAW-2053     2022041218007703941              AVSS 0.5F GY             CCN000004500000004500FN00000000020220501000004500NNM   20220213181115    1W    00000150000000674000000000032P8    YIYTM   000000000000YT523158
BI00B32P8    TAPAW-2054     2022042018007703941              AVSS 0.5F GY             CCN000004500000004500FN00000000020220501000004500NNM   20220213181115    1W    00000150000000674000000000032P8    YIYTM   000000000000YT124171
BI00B32P8    TAPAW-2055     2022042718007703941              AVSS 0.5F GY             CCN000004500000004500FN00000000020220501000004500NNM   20220213181115    1W    00000150000000674000000000032P8    YIYTM   000000000000YT224181
BI00B32P8    TAPAW-2052     20220406180077039F0              AVSS 0.5F GY/B           CCN000003000000003000FN00000000020220501000003000NNM   20220213181115    1W    00000150000000674000000000032P8    YIYTM   000000000000YT423143
BI00B32P8    TAPAW-2053     20220412180077039F0              AVSS 0.5F GY/B           CCN000003000000003000FN00000000020220501000003000NNM   20220213181115    1W    00000150000000674000000000032P8    YIYTM   000000000000YT523159
BI00B32P8    TAPAW-2054     20220420180077039F0              AVSS 0.5F GY/B           CCN000003000000003000FN00000000020220501000003000NNM   20220213181115    1W    00000150000000674000000000032P8    YIYTM   000000000000YT124172
BI00B32P8    TAPAW-2055     20220427180077039F0              AVSS 0.5F GY/B           CCN000003000000003000FN00000000020220501000003000NNM   20220213181115    1W    00000150000000674000000000032P8    YIYTM   000000000000YT224182
BI00B32P8    TAPAW-2052     20220406180077039H1              AVSS 0.5F GY/G           CCN000001500000001500FN00000000020220501000001500NNM   20220213181115    1W    00000150000000674000000000032P8    YIYTM   000000000000YT423144
BI00B32P8    TAPAW-2053     20220412180077039H1              AVSS 0.5F GY/G           CCN000001500000001500FN00000000020220501000001500NNM   20220213181115    1W    00000150000000674000000000032P8    YIYTM   000000000000YT523160
BI00B32P8    TAPAW-2054     20220420180077039H1              AVSS 0.5F GY/G           CCN000001500000001500FN00000000020220501000001500NNM   20220213181115    1W    00000150000000674000000000032P8    YIYTM   000000000000YT124173
BI00B32P8    TAPAW-2055     20220427180077039H1              AVSS 0.5F GY/G           CCN000001500000001500FN00000000020220501000001500NNM   20220213181115    1W    00000150000000674000000000032P8    YIYTM   000000000000YT224183
BI00B32P8    TAPAW-2053     2022041218007703911              AVSS 0.5F GY/L           CCN000001500000001500FN00000000020220501000001500NNM   20220213181115    1W    00000150000000674000000000032P8    YIYTM   000000000000YT523161
BI00B32P8    TAPAW-2054     2022042018007703911              AVSS 0.5F GY/L           CCN000001500000001500FN00000000020220501000001500NNM   20220213181115    1W    00000150000000674000000000032P8    YIYTM   000000000000YT124174
BI00B32P8    TAPAW-2055     2022042718007703911              AVSS 0.5F GY/L           CCN000001500000001500FN00000000020220501000001500NNM   20220213181115    1W    00000150000000674000000000032P8    YIYTM   000000000000YT224184
BI00B32P8    TAPAW-2051     2022033018007703910              AVSS 0.5F GY/R           CCN000003000000003000FN00000000020220501000003000NNM   20220213181115    1W    00000150000000674000000000032P8    YIYTM   000000000000YT323100
BI00B32P8    TAPAW-2052     2022040618007703910              AVSS 0.5F GY/R           CCN000001500000001500FN00000000020220501000001500NNM   20220213181115    1W    00000150000000674000000000032P8    YIYTM   000000000000YT423145
BI00B32P8    TAPAW-2053     2022041218007703910              AVSS 0.5F GY/R           CCN000001500000001500FN00000000020220501000001500NNM   20220213181115    1W    00000150000000674000000000032P8    YIYTM   000000000000YT523162
BI00B32P8    TAPAW-2054     2022042018007703910              AVSS 0.5F GY/R           CCN000001500000001500FN00000000020220501000001500NNM   20220213181115    1W    00000150000000674000000000032P8    YIYTM   000000000000YT124175
BI00B32P8    TAPAW-2055     2022042718007703910              AVSS 0.5F GY/R           CCN000003000000003000FN00000000020220501000003000NNM   20220213181115    1W    00000150000000674000000000032P8    YIYTM   000000000000YT224185
BI00B32P8    TAPAW-2051     20220330180077039H7              AVSS 0.5F GY/W           CCN000001500000001500FN00000000020220501000001500NNM   20220213181115    1W    00000150000000674000000000032P8    YIYTM   000000000000YT323101
BI00B32P8    TAPAW-2052     20220406180077039H7              AVSS 0.5F GY/W           CCN000001500000001500FN00000000020220501000001500NNM   20220213181115    1W    00000150000000674000000000032P8    YIYTM   000000000000YT423146
BI00B32P8    TAPAW-2053     20220412180077039H7              AVSS 0.5F GY/W           CCN000001500000001500FN00000000020220501000001500NNM   20220213181115    1W    00000150000000674000000000032P8    YIYTM   000000000000YT523163
BI00B32P8    TAPAW-2054     20220420180077039H7              AVSS 0.5F GY/W           CCN000001500000001500FN00000000020220501000001500NNM   20220213181115    1W    00000150000000674000000000032P8    YIYTM   000000000000YT124176
BI00B32P8    TAPAW-2055     20220427180077039H7              AVSS 0.5F GY/W           CCN000001500000001500FN00000000020220501000001500NNM   20220213181115    1W    00000150000000674000000000032P8    YIYTM   000000000000YT224186
BI00B32P8    TAPAW-2051     2022033018007703990              AVSS 0.5F L              CCN000031500000031500FN00000000020220501000031500NNM   20220213181115    1W    00000150000000674000000000032P8    YIYTM   000000000000YT323102
BI00B32P8    TAPAW-2052     2022040618007703990              AVSS 0.5F L              CCN000027000000027000FN00000000020220501000027000NNM   20220213181115    1W    00000150000000674000000000032P8    YIYTM   000000000000YT423147
BI00B32P8    TAPAW-2053     2022041218007703990              AVSS 0.5F L              CCN000025500000025500FN00000000020220501000025500NNM   20220213181115    1W    00000150000000674000000000032P8    YIYTM   000000000000YT523164
BI00B32P8    TAPAW-2054     2022042018007703990              AVSS 0.5F L              CCN000025500000025500FN00000000020220501000025500NNM   20220213181115    1W    00000150000000674000000000032P8    YIYTM   000000000000YT124177
BI00B32P8    TAPAW-2055     2022042718007703990              AVSS 0.5F L              CCN000027000000027000FN00000000020220501000027000NNM   20220213181115    1W    00000150000000674000000000032P8    YIYTM   000000000000YT224187
BI00B32P8    TAPAW-2055     2022042718007703993              AVSS 0.5F L/B            CCN000001500000001500FN00000000020220501000001500NNM   20220213181115    1W    00000150000000674000000000032P8    YIYTM   000000000000YT224188
BI00B32P8    TAPAW-2051     2022033018007703995              AVSS 0.5F L/R            CCN000003000000003000FN00000000020220501000003000NNM   20220213181115    1W    00000150000000674000000000032P8    YIYTM   000000000000YT323103
BI00B32P8    TAPAW-2052     2022040618007703995              AVSS 0.5F L/R            CCN000003000000003000FN00000000020220501000003000NNM   20220213181115    1W    00000150000000674000000000032P8    YIYTM   000000000000YT423148
BI00B32P8    TAPAW-2053     2022041218007703995              AVSS 0.5F L/R            CCN000003000000003000FN00000000020220501000003000NNM   20220213181115    1W    00000150000000674000000000032P8    YIYTM   000000000000YT523165
BI00B32P8    TAPAW-2054     2022042018007703995              AVSS 0.5F L/R            CCN000003000000003000FN00000000020220501000003000NNM   20220213181115    1W    00000150000000674000000000032P8    YIYTM   000000000000YT124178
BI00B32P8    TAPAW-2055     2022042718007703995              AVSS 0.5F L/R            CCN000001500000001500FN00000000020220501000001500NNM   20220213181115    1W    00000150000000674000000000032P8    YIYTM   000000000000YT224189
BI00B32P8    TAPAW-2051     2022033018007703994              AVSS 0.5F L/W            CCN000019500000019500FN00000000020220501000019500NNM   20220213181115    1W    00000150000000674000000000032P8    YIYTM   000000000000YT323104
BI00B32P8    TAPAW-2052     2022040618007703994              AVSS 0.5F L/W            CCN000009000000009000FN00000000020220501000009000NNM   20220213181115    1W    00000150000000674000000000032P8    YIYTM   000000000000YT423149
BI00B32P8    TAPAW-2053     2022041218007703994              AVSS 0.5F L/W            CCN000009000000009000FN00000000020220501000009000NNM   20220213181115    1W    00000150000000674000000000032P8    YIYTM   000000000000YT523166
BI00B32P8    TAPAW-2054     2022042018007703994              AVSS 0.5F L/W            CCN000009000000009000FN00000000020220501000009000NNM   20220213181115    1W    00000150000000674000000000032P8    YIYTM   000000000000YT124179
BI00B32P8    TAPAW-2055     2022042718007703994              AVSS 0.5F L/W            CCN000009000000009000FN00000000020220501000009000NNM   20220213181115    1W    00000150000000674000000000032P8    YIYTM   000000000000YT224190
BI00B32P8    TAPAW-2052     2022040618007703997              AVSS 0.5F L/Y            CCN000001500000001500FN00000000020220501000001500NNM   20220213181115    1W    00000150000000674000000000032P8    YIYTM   000000000000YT423150
BI00B32P8    TAPAW-2053     2022041218007703997              AVSS 0.5F L/Y            CCN000001500000001500FN00000000020220501000001500NNM   20220213181115    1W    00000150000000674000000000032P8    YIYTM   000000000000YT523167
BI00B32P8    TAPAW-2054     2022042018007703997              AVSS 0.5F L/Y            CCN000001500000001500FN00000000020220501000001500NNM   20220213181115    1W    00000150000000674000000000032P8    YIYTM   000000000000YT124180
BI00B32P8    TAPAW-2055     2022042718007703997              AVSS 0.5F L/Y            CCN000001500000001500FN00000000020220501000001500NNM   20220213181115    1W    00000150000000674000000000032P8    YIYTM   000000000000YT224191
BI00B32P8    TAPAW-2051     2022033018007703951              AVSS 0.5F O              CCN000042000000042000FN00000000020220501000042000NNM   20220213181115    1W    00000150000000674000000000032P8    YIYTM   000000000000YT323105
BI00B32P8    TAPAW-2052     2022040618007703951              AVSS 0.5F O              CCN000031500000031500FN00000000020220501000031500NNM   20220213181115    1W    00000150000000674000000000032P8    YIYTM   000000000000YT423151
BI00B32P8    TAPAW-2053     2022041218007703951              AVSS 0.5F O              CCN000031500000031500FN00000000020220501000031500NNM   20220213181115    1W    00000150000000674000000000032P8    YIYTM   000000000000YT523168
BI00B32P8    TAPAW-2054     2022042018007703951              AVSS 0.5F O              CCN000031500000031500FN00000000020220501000031500NNM   20220213181115    1W    00000150000000674000000000032P8    YIYTM   000000000000YT124181
BI00B32P8    TAPAW-2055     2022042718007703951              AVSS 0.5F O              CCN000031500000031500FN00000000020220501000031500NNM   20220213181115    1W    00000150000000674000000000032P8    YIYTM   000000000000YT224192
BI00B32P8    TAPAW-2051     2022033018007703907              AVSS 0.5F P/B            CCN000004500000004500FN00000000020220501000004500NNM   20220213181115    1W    00000150000000674000000000032P8    YIYTM   000000000000YT323106
BI00B32P8    TAPAW-2052     2022040618007703907              AVSS 0.5F P/B            CCN000001500000001500FN00000000020220501000001500NNM   20220213181115    1W    00000150000000674000000000032P8    YIYTM   000000000000YT423152
BI00B32P8    TAPAW-2053     2022041218007703907              AVSS 0.5F P/B            CCN000001500000001500FN00000000020220501000001500NNM   20220213181115    1W    00000150000000674000000000032P8    YIYTM   000000000000YT523169
BI00B32P8    TAPAW-2054     2022042018007703907              AVSS 0.5F P/B            CCN000003000000003000FN00000000020220501000003000NNM   20220213181115    1W    00000150000000674000000000032P8    YIYTM   000000000000YT124182
BI00B32P8    TAPAW-2055     2022042718007703907              AVSS 0.5F P/B            CCN000001500000001500FN00000000020220501000001500NNM   20220213181115    1W    00000150000000674000000000032P8    YIYTM   000000000000YT224193
BI00B32P8    TAPAW-2052     2022040618007703950              AVSS 0.5F R              CCN000018000000018000FN00000000020220501000018000NNM   20220213181115    1W    00000150000000674000000000032P8    YIYTM   000000000000YT423153
BI00B32P8    TAPAW-2053     2022041218007703950              AVSS 0.5F R              CCN000018000000018000FN00000000020220501000018000NNM   20220213181115    1W    00000150000000674000000000032P8    YIYTM   000000000000YT523170
BI00B32P8    TAPAW-2054     2022042018007703950              AVSS 0.5F R              CCN000018000000018000FN00000000020220501000018000NNM   20220213181115    1W    00000150000000674000000000032P8    YIYTM   000000000000YT124183
BI00B32P8    TAPAW-2055     2022042718007703950              AVSS 0.5F R              CCN000018000000018000FN00000000020220501000018000NNM   20220213181115    1W    00000150000000674000000000032P8    YIYTM   000000000000YT224194
BI00B32P8    TAPAW-2051     2022033018007703953              AVSS 0.5F R/B            CCN000003000000003000FN00000000020220501000003000NNM   20220213181115    1W    00000150000000674000000000032P8    YIYTM   000000000000YT323107
BI00B32P8    TAPAW-2052     2022040618007703953              AVSS 0.5F R/B            CCN000003000000003000FN00000000020220501000003000NNM   20220213181115    1W    00000150000000674000000000032P8    YIYTM   000000000000YT423154
BI00B32P8    TAPAW-2053     2022041218007703953              AVSS 0.5F R/B            CCN000001500000001500FN00000000020220501000001500NNM   20220213181115    1W    00000150000000674000000000032P8    YIYTM   000000000000YT523171
BI00B32P8    TAPAW-2054     2022042018007703953              AVSS 0.5F R/B            CCN000001500000001500FN00000000020220501000001500NNM   20220213181115    1W    00000150000000674000000000032P8    YIYTM   000000000000YT124184
BI00B32P8    TAPAW-2055     2022042718007703953              AVSS 0.5F R/B            CCN000001500000001500FN00000000020220501000001500NNM   20220213181115    1W    00000150000000674000000000032P8    YIYTM   000000000000YT224195
BI00B32P8    TAPAW-2051     2022033018007703956              AVSS 0.5F R/G            CCN000003000000003000FN00000000020220501000003000NNM   20220213181115    1W    00000150000000674000000000032P8    YIYTM   000000000000YT323108
BI00B32P8    TAPAW-2052     2022040618007703956              AVSS 0.5F R/G            CCN000001500000001500FN00000000020220501000001500NNM   20220213181115    1W    00000150000000674000000000032P8    YIYTM   000000000000YT423155
BI00B32P8    TAPAW-2053     2022041218007703956              AVSS 0.5F R/G            CCN000001500000001500FN00000000020220501000001500NNM   20220213181115    1W    00000150000000674000000000032P8    YIYTM   000000000000YT523172
BI00B32P8    TAPAW-2054     2022042018007703956              AVSS 0.5F R/G            CCN000003000000003000FN00000000020220501000003000NNM   20220213181115    1W    00000150000000674000000000032P8    YIYTM   000000000000YT124185
BI00B32P8    TAPAW-2055     2022042718007703956              AVSS 0.5F R/G            CCN000001500000001500FN00000000020220501000001500NNM   20220213181115    1W    00000150000000674000000000032P8    YIYTM   000000000000YT224196
BI00B32P8    TAPAW-2051     2022033018007703959              AVSS 0.5F R/L            CCN000006000000006000FN00000000020220501000006000NNM   20220213181115    1W    00000150000000674000000000032P8    YIYTM   000000000000YT323109
BI00B32P8    TAPAW-2052     2022040618007703959              AVSS 0.5F R/L            CCN000003000000003000FN00000000020220501000003000NNM   20220213181115    1W    00000150000000674000000000032P8    YIYTM   000000000000YT423156
BI00B32P8    TAPAW-2053     2022041218007703959              AVSS 0.5F R/L            CCN000003000000003000FN00000000020220501000003000NNM   20220213181115    1W    00000150000000674000000000032P8    YIYTM   000000000000YT523173
BI00B32P8    TAPAW-2054     2022042018007703959              AVSS 0.5F R/L            CCN000003000000003000FN00000000020220501000003000NNM   20220213181115    1W    00000150000000674000000000032P8    YIYTM   000000000000YT124186
BI00B32P8    TAPAW-2055     2022042718007703959              AVSS 0.5F R/L            CCN000003000000003000FN00000000020220501000003000NNM   20220213181115    1W    00000150000000674000000000032P8    YIYTM   000000000000YT224197
BI00B32P8    TAPAW-2051     2022033018007703954              AVSS 0.5F R/W            CCN000006000000006000FN00000000020220501000006000NNM   20220213181115    1W    00000150000000674000000000032P8    YIYTM   000000000000YT323110
BI00B32P8    TAPAW-2052     2022040618007703954              AVSS 0.5F R/W            CCN000006000000006000FN00000000020220501000006000NNM   20220213181115    1W    00000150000000674000000000032P8    YIYTM   000000000000YT423157
BI00B32P8    TAPAW-2053     2022041218007703954              AVSS 0.5F R/W            CCN000004500000004500FN00000000020220501000004500NNM   20220213181115    1W    00000150000000674000000000032P8    YIYTM   000000000000YT523174
BI00B32P8    TAPAW-2054     2022042018007703954              AVSS 0.5F R/W            CCN000004500000004500FN00000000020220501000004500NNM   20220213181115    1W    00000150000000674000000000032P8    YIYTM   000000000000YT124187
BI00B32P8    TAPAW-2055     2022042718007703954              AVSS 0.5F R/W            CCN000004500000004500FN00000000020220501000004500NNM   20220213181115    1W    00000150000000674000000000032P8    YIYTM   000000000000YT224198
BI00B32P8    TAPAW-2051     2022033018007703957              AVSS 0.5F R/Y            CCN000007500000007500FN00000000020220501000007500NNM   20220213181115    1W    00000150000000674000000000032P8    YIYTM   000000000000YT323111
BI00B32P8    TAPAW-2052     2022040618007703957              AVSS 0.5F R/Y            CCN000006000000006000FN00000000020220501000006000NNM   20220213181115    1W    00000150000000674000000000032P8    YIYTM   000000000000YT423158
BI00B32P8    TAPAW-2053     2022041218007703957              AVSS 0.5F R/Y            CCN000004500000004500FN00000000020220501000004500NNM   20220213181115    1W    00000150000000674000000000032P8    YIYTM   000000000000YT523175
BI00B32P8    TAPAW-2054     2022042018007703957              AVSS 0.5F R/Y            CCN000006000000006000FN00000000020220501000006000NNM   20220213181115    1W    00000150000000674000000000032P8    YIYTM   000000000000YT124188
BI00B32P8    TAPAW-2055     2022042718007703957              AVSS 0.5F R/Y            CCN000004500000004500FN00000000020220501000004500NNM   20220213181115    1W    00000150000000674000000000032P8    YIYTM   000000000000YT224199
BI00B32P8    TAPAW-2051     2022033018007703992              AVSS 0.5F V              CCN000001500000001500FN00000000020220501000001500NNM   20220213181115    1W    00000150000000674000000000032P8    YIYTM   000000000000YT323112
BI00B32P8    TAPAW-2052     2022040618007703992              AVSS 0.5F V              CCN000003000000003000FN00000000020220501000003000NNM   20220213181115    1W    00000150000000674000000000032P8    YIYTM   000000000000YT423159
BI00B32P8    TAPAW-2053     2022041218007703992              AVSS 0.5F V              CCN000004500000004500FN00000000020220501000004500NNM   20220213181115    1W    00000150000000674000000000032P8    YIYTM   000000000000YT523176
BI00B32P8    TAPAW-2054     2022042018007703992              AVSS 0.5F V              CCN000003000000003000FN00000000020220501000003000NNM   20220213181115    1W    00000150000000674000000000032P8    YIYTM   000000000000YT124189
BI00B32P8    TAPAW-2055     2022042718007703992              AVSS 0.5F V              CCN000004500000004500FN00000000020220501000004500NNM   20220213181115    1W    00000150000000674000000000032P8    YIYTM   000000000000YT224200
BI00B32P8    TAPAW-2051     2022033018007703940              AVSS 0.5F W              CCN000013500000013500FN00000000020220501000013500NNM   20220213181115    1W    00000150000000674000000000032P8    YIYTM   000000000000YT323114
BI00B32P8    TAPAW-2052     2022040618007703940              AVSS 0.5F W              CCN000015000000015000FN00000000020220501000015000NNM   20220213181115    1W    00000150000000674000000000032P8    YIYTM   000000000000YT423161
BI00B32P8    TAPAW-2053     2022041218007703940              AVSS 0.5F W              CCN000013500000013500FN00000000020220501000013500NNM   20220213181115    1W    00000150000000674000000000032P8    YIYTM   000000000000YT523178
