BI00B32AF    TTB2044        2022040118007704150              AVSS 1.25F R             CCN000006400000003200FN00000000020220401000003200NNM00 20220301110606    1W    00000080000001389000000000032AF    HBYHVTB 000000000000UZ323037
BI00B32AF    TTB2044        2022041518007704140              AVSS 1.25F W             CCN000006400000006400FN00000000020220401000006400NNM20 20220301110533    1W    00000080000001389000000000032AF    HBYHVTB 000000000000UZ323038
BI00B32AF    @TTB2044       20220401181B0911741              CAVSAS 0.3X3 GY          CCN000004000000002000FN00000000020220401000002000NNM00 20220301110721    1W    00000025000002843000000000032AF    HBYHVTB 000000000000UZ323036
BI00B32AF    @TTB2044       20220401181AD2003ZZ              CIVUSAS-S 0.35X3 B       CCN000060200000049000FN00000000020220401000049000NNM00 20220301110758    1W    00000035000002172100000000032AF    HBYHVTB 000000000000UZ323034
BI00B32AF    @TTB2044       20220401181AD2004ZZ              CIVUSAS-S 0.35X4 B       CCN000021900000012900FN00000000020220401000012900NNM00 20220301110834    1W    00000030000002799900000000032AF    HBYHVTB 000000000000UZ323035
BI00B32AF    @TTB2044       20220415181AD2010ZZ              CIVUSAS-S 0.5X4 B        CCN000004750000004750FN00000000020220401000004750NNM20 20220301110857    1W    00000025000003214000000000032AF    HBYHVTB 000000000000UZ323032
BI00B32AF    TTB2044        2022041518007704150              AVSS 1.25F R             CCN000003200000003200FN00000000020220401000003200NNM20 20220301110606    1W    00000080000001389000000000032AF    HBYHVTB 000000000000UZ323037
BI00B32AF    @TTB2044       20220415181B0911741              CAVSAS 0.3X3 GY          CCN000002000000002000FN00000000020220401000002000NNM20 20220301110721    1W    00000025000002843000000000032AF    HBYHVTB 000000000000UZ323036
BI00B32AF    @TTB2044       20220415181AD2003ZZ              CIVUSAS-S 0.35X3 B       CCN000011200000011200FN00000000020220401000011200NNM20 20220301110758    1W    00000035000002172100000000032AF    HBYHVTB 000000000000UZ323034
BI00B32AF    @TTB2044       20220415181AD2004ZZ              CIVUSAS-S 0.35X4 B       CCN000009000000009000FN00000000020220401000009000NNM20 20220301110834    1W    00000030000002799900000000032AF    HBYHVTB 000000000000UZ323035
BI00B32CH    SJ2204ADMW     202203241801W006941              IVSSH 0.35F GY           CCN000002500000002500FN00000000020220401000002500NNE   20220301140544    1W    00000250000000452000000000032CH    SJSAMIJF000000000000QR223003
BI00B32CH    SJ2204ADMW     202203241801W003980              IVSSH 0.5F BR            CCN000003600000003600FN00000000020220401000003600NNE   20220301140544    1W    00000180000000625000000000032CH    SJSAMIJF000000000000QR223001
BI00B32CH    SJ2204ADMW     202203241801W003992              IVSSH 0.5F V             CCN000001800000001800FN00000000020220401000001800NNE   20220301140544    1W    00000180000000625000000000032CH    SJSAMIJF000000000000QR223002
BI00B32DE    @TT204A        20220303181F21031ZZ              AVSSHCS-S 1.25FX2 B/P    CCN000000200000000200FN00000000020220401000000200NNE21 20220301093427    1W    00000020000004267300000000032DE    TVYEV-TV000000000000VR123002
BI00B32DE    @TT204C        20220303181F21031ZZ              AVSSHCS-S 1.25FX2 B/P    CCN000000200000000200FN00000000020220401000000200NNE21 20220301093512    1W    00000020000004267300000000032DE    TVYEV-TV000000000000VX223004
BI00B32DE    TT204E         2022032418000004540              AV 8 W                   CCN000001800000001800FN00000000020220401000001800NNE   20220301142205    1W    00000010000010466200000000032DE    TVYEV-TV000000000000VW223001
BI00B32DE    @TT204E        20220317181F21031ZZ              AVSSHCS-S 1.25FX2 B/P    CCN000000200000000200FN00000000020220401000000200NNE   20220301142208    1W    00000020000004267300000000032DE    TVYEV-TV000000000000VV123001
BI00B32DE    TT204F         2022032418000004540              AV 8 W                   CCN000003600000003600FN00000000020220401000003600NNE   20220301142203    1W    00000010000010466200000000032DE    TVYEV-TV000000000000VY223003
BI00B32DE    TT204F         20220324180D0204143              AVSSH 1.25F W/B          CCN000007200000007200FN00000000020220401000007200NNE   20220301142203    1W    00000080000001458000000000032DE    TVYEV-TV000000000000VY223002
BI00B32DE    @TT204F        20220324181E50028ZZ              AVSSCS-S 0.5FX3 DGY      CCN000003750000003750FN00000000020220401000003750NNE   20220301142207    1W    00000025000003265000000000032DE    TVYEV-TV000000000000VY223001
BI00B32H2    TAW204C        20220325180D0203930              AVSSH 0.5F B             CCN000004500000004500FN00000000020220401000004500NNE   20220301142009    1W    00000150000000689000000000032H2    HVYHV   000000000000UC223001
BI00B32H2    @TAW204C       20220311181E48018ZZ              CAVSAS-S 0.5X2 GY/SB     CCN000000900000000900FN00000000020220401000000900NNE   20220301140850    1W    00000030000002561000000000032H2    HVYHV   000000000000UI422002
BI00B32H2    @TAW204C       20220311181E48022ZZ              CAVSAS-S 0.5X2 GY        CCN000000900000000900FN00000000020220401000000900NNE   20220301140850    1W    00000030000002561000000000032H2    HVYHV   000000000000UI422001
BI00B32H2    TAW204D        20220325180D0203930              AVSSH 0.5F B             CCN000003000000003000FN00000000020220401000003000NNE   20220301142010    1W    00000150000000689000000000032H2    HVYHV   000000000000UD223001
BI00B32H2    @TAW204D       20220311181E48018ZZ              CAVSAS-S 0.5X2 GY/SB     CCN000000900000000900FN00000000020220401000000900NNE   20220301140851    1W    00000030000002561000000000032H2    HVYHV   000000000000UF422002
BI00B32H2    @TAW204D       20220311181E48022ZZ              CAVSAS-S 0.5X2 GY        CCN000000900000000900FN00000000020220401000000900NNE   20220301140851    1W    00000030000002561000000000032H2    HVYHV   000000000000UF422001
BI00A32M1    @TV203C        20220308181AD2022ZZ              CIVUSAS-S 0.35X2 B(R,G)  CCN000000900000000900FN00000000020220301000000900NNE   20220301130612    1W    00000045000001714000000000032M1    VNYEV   000000000000VC422001
BI00B32N2    2152103865     2022031018007703929              AVSS 0.5F LG/W           CCN000001500000001500FN00000000020220301000001500NNE   20220301151826    1W    00000150000000674000000000032N2    YWYIPLTC000000000000KV422012
BI00B32N2    2152103865     2022031018007703930              AVSS 0.5F B              CCN000003000000003000FN00000000020220301000003000NNE   20220301151826    1W    00000150000000674000000000032N2    YWYIPLTC000000000000KV422006
BI00A32N2    2152103865     2022030218007703935              AVSS 0.5F B/R            CCN000001500000001500FN00000000020220301000001500NNE20 20220301160408    1W    00000150000000674000000000032N2    YWYIPLTC000000000000KV422007
BI00B32N2    2152103865     2022031018007703940              AVSS 0.5F W              CCN000001500000001500FN00000000020220301000001500NNE   20220301151826    1W    00000150000000674000000000032N2    YWYIPLTC000000000000KV422017
BI00B32N2    2152103865     2022031018007703941              AVSS 0.5F GY             CCN000001500000001500FN00000000020220301000001500NNE   20220301151826    1W    00000150000000674000000000032N2    YWYIPLTC000000000000KV422010
BI00B32N2    2152103865     2022031018007703950              AVSS 0.5F R              CCN000001500000001500FN00000000020220301000001500NNE   20220301151826    1W    00000150000000674000000000032N2    YWYIPLTC000000000000KV422015
BI00B32N2    2152103865     2022031018007703951              AVSS 0.5F O              CCN000003000000003000FN00000000020220301000003000NNE   20220301151826    1W    00000150000000674000000000032N2    YWYIPLTC000000000000KV422013
BI00B32N2    2152103865     2022031018007703959              AVSS 0.5F R/L            CCN000003000000003000FN00000000020220301000003000NNE   20220301151826    1W    00000150000000674000000000032N2    YWYIPLTC000000000000KV422016
BI00B32N2    2152103865     2022031018007703960              AVSS 0.5F G              CCN000001500000001500FN00000000020220301000001500NNE   20220301151826    1W    00000150000000674000000000032N2    YWYIPLTC000000000000KV422008
BI00B32N2    2152103865     2022031018007703963              AVSS 0.5F G/B            CCN000001500000001500FN00000000020220301000001500NNE   20220301151826    1W    00000150000000674000000000032N2    YWYIPLTC000000000000KV422009
BI00B32N2    2152103865     2022031018007703970              AVSS 0.5F Y              CCN000004500000004500FN00000000020220301000004500NNE   20220301151826    1W    00000150000000674000000000032N2    YWYIPLTC000000000000KV422018
BI00B32N2    2152103865     2022031018007703975              AVSS 0.5F Y/R            CCN000001500000001500FN00000000020220301000001500NNE   20220301151826    1W    00000150000000674000000000032N2    YWYIPLTC000000000000KV422019
BI00B32N2    2152103865     2022031018007703977              AVSS 0.5F O/L            CCN000001500000001500FN00000000020220301000001500NNE   20220301151826    1W    00000150000000674000000000032N2    YWYIPLTC000000000000KV422014
BI00B32N2    2152103865     2022031018007703990              AVSS 0.5F L              CCN000003000000003000FN00000000020220301000003000NNE   20220301151826    1W    00000150000000674000000000032N2    YWYIPLTC000000000000KV422011
BI00B32N2    2152103865     2022031018007704190              AVSS 1.25F L             CCN000002400000002400FN00000000020220301000002400NNE   20220301151826    1W    00000080000001389000000000032N2    YWYIPLTC000000000000KV422020
BI00B32N2    2152103865     2022031018007704194              AVSS 1.25F L/W           CCN000001600000001600FN00000000020220301000001600NNE   20220301151826    1W    00000080000001389000000000032N2    YWYIPLTC000000000000KV422022
BI00B32N2    2152103865     2022031018007704195              AVSS 1.25F L/R           CCN000003200000003200FN00000000020220301000003200NNE   20220301151826    1W    00000080000001389000000000032N2    YWYIPLTC000000000000KV422021
BI00B32N2    2152103865     20220310180D0203959              AVSSH 0.5F R/L           CCN000001500000001500FN00000000020220301000001500NNE   20220301151826    1W    00000150000000689000000000032N2    YWYIPLTC000000000000KV422001
BI00A32N2    2152103865     20220302180D0204030              AVSSH 0.75F B            CCN000001000000001000FN00000000020220301000001000NNE20 20220301160408    1W    00000100000000934000000000032N2    YWYIPLTC000000000000KV422002
BI00B32N2    2152103865     20220310180D0204040              AVSSH 0.75F W            CCN000001000000001000FN00000000020220301000001000NNE   20220301151826    1W    00000100000000934000000000032N2    YWYIPLTC000000000000KV422004
BI00A32N2    2152103865     20220302180D0204059              AVSSH 0.75F R/L          CCN000001000000001000FN00000000020220301000001000NNE20 20220301160408    1W    00000100000000934000000000032N2    YWYIPLTC000000000000KV422003
BI00B32N2    2152103865     20220310180D0204070              AVSSH 0.75F Y            CCN000001000000001000FN00000000020220301000001000NNE   20220301151826    1W    00000100000000934000000000032N2    YWYIPLTC000000000000KV422005
BI00A32P8    TAPAW-202C     2022030418007703763              AVSS 0.3F G/B            CCN000004000000004000FN00000000020220301000004000NNE   20220301151852    1W    00000200000000496000000000032P8    YIYTM   000000000000YM422001
BI00A32P8    TAPAW-202C     2022030418007703797              AVSS 0.3F L/Y            CCN000004000000004000FN00000000020220301000004000NNE   20220301151852    1W    00000200000000496000000000032P8    YIYTM   000000000000YM422002
BI00A32P8    TAPAW-202C     2022030418007703777              AVSS 0.3F O/L            CCN000004000000004000FN00000000020220301000004000NNE   20220301151852    1W    00000200000000496000000000032P8    YIYTM   000000000000YM422003
BI00A32P8    TAPAW-202C     2022030418007703750              AVSS 0.3F R              CCN000004000000004000FN00000000020220301000004000NNE   20220301151852    1W    00000200000000496000000000032P8    YIYTM   000000000000YM422004
BI00A32P8    TAPAW-202C     2022030418007703753              AVSS 0.3F R/B            CCN000004000000004000FN00000000020220301000004000NNE   20220301151852    1W    00000200000000496000000000032P8    YIYTM   000000000000YM422005
BI00A32P8    TAPAW-202C     2022030418007703756              AVSS 0.3F R/G            CCN000004000000004000FN00000000020220301000004000NNE   20220301151852    1W    00000200000000496000000000032P8    YIYTM   000000000000YM422006
BI00A32P8    TAPAW-202C     2022030418007703754              AVSS 0.3F R/W            CCN000004000000004000FN00000000020220301000004000NNE   20220301151852    1W    00000200000000496000000000032P8    YIYTM   000000000000YM422007
BI00A32P8    TAPAW-202C     2022030418007703903              AVSS 0.5F B/O            CCN000001500000001500FN00000000020220301000001500NNE   20220301151852    1W    00000150000000674000000000032P8    YIYTM   000000000000YM422008
BI00A32P8    TAPAW-202C     2022030418007703961              AVSS 0.5F LG             CCN000003000000003000FN00000000020220301000003000NNE   20220301151852    1W    00000150000000674000000000032P8    YIYTM   000000000000YM422009
BI00A32P8    TAPAW-202C     2022030418007703909              AVSS 0.5F LG/R           CCN000003000000003000FN00000000020220301000003000NNE   20220301151852    1W    00000150000000674000000000032P8    YIYTM   000000000000YM422010
BI00A32P8    TAPAW-202C     20220304180077039M3              AVSS 0.5F O/B            CCN000003000000003000FN00000000020220301000003000NNE   20220301151852    1W    00000150000000674000000000032P8    YIYTM   000000000000YM422011
BI00A32P8    TAPAW-202C     2022030418007703977              AVSS 0.5F O/L            CCN000003000000003000FN00000000020220301000003000NNE   20220301151852    1W    00000150000000674000000000032P8    YIYTM   000000000000YM422012
BI00A32P8    TAPAW-202C     20220304180077039G6              AVSS 0.5F P/L            CCN000003000000003000FN00000000020220301000003000NNE   20220301151852    1W    00000150000000674000000000032P8    YIYTM   000000000000YM422013
BI00B32R7    R-TAP220084    2022031718018403930              CAVS 0.5 B               CCN000003000000003000FN00000000020220301000003000NNE   20220301142558    1W    00000150000000677000000000032R7    IVYCIC  000000000000SF123001
BI00B32R7    R-TAP220084    2022031718018403950              CAVS 0.5 R               CCN000003000000003000FN00000000020220301000003000NNE   20220301142558    1W    00000150000000677000000000032R7    IVYCIC  000000000000SF123002
BI00B32R7    R-TAP220085    2022040718018403930              CAVS 0.5 B               CCN000001500000001500FN00000000020220401000001500NNE   20220301142559    1W    00000150000000677000000000032R7    IVYCIC  000000000000SR423001
BI00B32R7    R-TAP220085    2022040718018403950              CAVS 0.5 R               CCN000001500000001500FN00000000020220401000001500NNE   20220301142559    1W    00000150000000677000000000032R7    IVYCIC  000000000000SR423002
BI00B32R7    R-TAP220088    2022031718018403930              CAVS 0.5 B               CCN000009000000009000FN00000000020220401000009000NNE   20220301142559    1W    00000150000000677000000000032R7    IVYCIC  000000000000SG123001
BI00B32R7    R-TAP220088    2022031718018403940              CAVS 0.5 W               CCN000007500000007500FN00000000020220401000007500NNE   20220301142559    1W    00000150000000677000000000032R7    IVYCIC  000000000000SG123007
BI00B32R7    R-TAP220088    2022031718018403950              CAVS 0.5 R               CCN000001500000001500FN00000000020220401000001500NNE   20220301142559    1W    00000150000000677000000000032R7    IVYCIC  000000000000SG123006
BI00B32R7    R-TAP220088    2022031718018403951              CAVS 0.5 O               CCN000009000000009000FN00000000020220401000009000NNE   20220301142559    1W    00000150000000677000000000032R7    IVYCIC  000000000000SG123005
BI00B32R7    R-TAP220088    2022031718018403960              CAVS 0.5 G               CCN000003000000003000FN00000000020220401000003000NNE   20220301142559    1W    00000150000000677000000000032R7    IVYCIC  000000000000SG123003
BI00B32R7    R-TAP220088    2022031718018403970              CAVS 0.5 Y               CCN000015000000015000FN00000000020220401000015000NNE   20220301142559    1W    00000150000000677000000000032R7    IVYCIC  000000000000SG123008
BI00B32R7    R-TAP220088    2022031718018403980              CAVS 0.5 BR              CCN000003000000003000FN00000000020220401000003000NNE   20220301142559    1W    00000150000000677000000000032R7    IVYCIC  000000000000SG123002
BI00B32R7    R-TAP220088    2022031718018403990              CAVS 0.5 L               CCN000013500000013500FN00000000020220401000013500NNE   20220301142559    1W    00000150000000677000000000032R7    IVYCIC  000000000000SG123004
BI00B32W2    HN2204BWMW     2022032218000004540              AV 8 W                   CCN000000800000000800FN00000000020220401000000800NNE   20220301142659    1W    00000010000010466200000000032W2    HNHNY   000000000000HD223001
BI00B32W2    HN2204CWMW     2022032218000004540              AV 8 W                   CCN000001200000001200FN00000000020220401000001200NNE   20220301142700    1W    00000010000010466200000000032W2    HNHNY   000000000000HC223001
