BI00B1200    7360T52505     202205057196-1937-02             TERMINAL FEMALE          CCN000013500000013500FN00000000020220501000013500NNED0720220428121351    4P0P  0000135000000044690000073211200    YCYC    006400630015
BI00B1200    #7960T52501    202206097172-5630-40             RUBBER STOPPER           CCN000080000000080000FN00000000020220701000080000NNE   20220428121351    2H0H  0000200000000004400000009511200    YCYC    004300270014
BI00B1200    #7960T52502    202206097172-5626-90             RUBBER STOPPER           CCN000040000000040000FN00000000020220701000040000NNE   20220428121351    2H0H  0000200000000007640000012781200    YCYC    004300270014
BI00B1200    8670T52501     202207147137-3047-30             UNIT PACKING             CCN000004000000004000FN00000000020220801000004000NNE   20220428121351    1C0C  0000010000000017050000021891200    YCYC    002700430014
BI00B1200    8670T52501     202207147172-5402-30             SEAL RUBBER              CCN000008000000008000FN00000000020220801000008000NNE   20220428121351    1C0C  0000080000000045760000050601200    YCYC    004300270014
BI00B1200    8670T52501     202207147172-5403-30             SEALED PACKING           CCN000008000000008000FN00000000020220801000008000NNE   20220428121351    1C0C  0000040000000065360000070171200    YCYC    004300270014
BI00B1200    8670T52501     202207147288-6547                CONNECTOR MALE ASS'Y     CCN000000750000000750FN00000000020220801000000750NNE   20220428121351    4N0N  0000007500000120530000134031200    YCYC    005400370024
BI00B1200    #8670T52501    202207147289-2919-30             HOUSING FEMALE ASS'Y     CCN000001500000001500FN00000000020220801000001500NNE   20220428121351    2N0N  0000015000000090750000103451200    YCYC    005400370024
BI00A1200    HIB22042801    202205047196-0805-02             TERMINAL FEMALE          CCN000000003000022500FN00000000020220601000022500NNE   20220428121351    4P0P  0000225000000055800000084321200    YCYC    006400630015
BI00A1200    HIB22042801    202205107196-0549-08             TERMINAL ALUMINIUM       CCN000000003000038000FN00000000020220601000038000NNED0620220428121351    4P0P  0000380000000060040000092911200    YCYC    006400630017
BI00A1200    OSK-05-01      202205127195-0547-08             TERMINAL MALE            CCN000025500000025500FN00000000020220501000025500NNED0720220428152645    4P0P  0000255000000000000000000001200    YCYC    000000000000
BI00A1200    CE22-MN-0061   202205067298-1867-10             HOUSING FEMALE ASS'Y     CCN000002400000002400FN00000000020220501000002400NNE   20220428153706    4N0N  0000024000000102860000000001200    YCYC    005500360039
BI00B32AF    JTB206B        202205137116-1301                TERMINAL                 CCN000015000000015000FN00000000020220601000015000NNE   20220428121351    4P0P  00001500000000487500000772732AF    HBYHVTB 006400630015
BI00B32AF    JTB207A        202206247195-1933-02             TERMINAL MALE            CCN000021000000024000FN00000000020220701000024000NNE   20220428151241    4P0P  00002400000000777600001071232AF    HBYHVTB 006400630015
BI00B32AF    JTB207A        202206247196-1933-02             TERMINAL FEMALE          CCN000021000000021000FN00000000020220701000021000NNE   20220428151241    4P0P  00002100000000590100000875332AF    HBYHVTB 006400630015
BI00B32AF    JTB207A        202206247196-1938-02             TERMINAL FEMALE          CCN000013500000013500FN00000000020220701000013500NNE   20220428151241    4P0P  00001350000000507600000795832AF    HBYHVTB 006400630015
BI00B32BF    TT22083BMW     202207057114-4032                TERMINAL                 CCN000007500000007500FN00000000020220801000007500NNM   20220428121351    4P0P  00000750000000735000001063632BF    TTTJYCD 006400630017
BI00B32BF    TT22081BMW     202206217116-1257-02             TERMINAL                 CCN000024000000024000FN00000000020220801000024000NNM   20220428121351    1P0P  00002400000000518400000847132BF    TTTJYCD 006400630017
BI00B32BF    TT22083BMW     202207057116-4028-08             TERMINAL FEMALE          CCN000016000000016000FN00000000020220801000016000NNM   20220428121351    4P0P  00001600000000652800000981532BF    TTTJYCD 006400630017
BI00B32BF    TT22081BMW     202206217116-6042                TERMINAL                 CCN000003000000003000FN00000000020220801000003000NNM   20220428121351    4P0P  00000300000000523800000856132BF    TTTJYCD 006400630015
BI00B32BF    TT22081BMW     202206217126-8850-02             TERMINAL                 CCN000009000000009000FN00000000020220801000009000NNM   20220428121351    1P0P  00000900000000672300000957532BF    TTTJYCD 006400630015
BI00B32BF    TT22083BMW     202207057126-8853-02             TERMINAL                 CCN000007500000007500FN00000000020220801000007500NNM   20220428121351    4P0P  00000750000000562500000847732BF    TTTJYCD 006400630015
BI00B32BF    TT22082BMW     202206287283-1222-30             CONNECTOR HOUSING        CCN000001200000001200FN00000000020220801000001200NNM   20220428121351    4N0N  00000120000000855000001013032BF    TTTJYCD 005500360039
BI00B32BF    #TT22081BMW    202206217283-5833-90             CONNECTOR HOUSING        CCN000003640000003640FN00000000020220801000003640NNM   20220428121351    2N0N  00000364000001379000001815032BF    TTTJYCD 005500360039
BI00B32B1    A22029         202206247114-4032                TERMINAL                 CCN000015000000015000FN00000000020220901000015000NNM   20220428162739B1  4P0P  00000750000000735000001063632B1    AXARNE-M006400630017
BI00B32B1    A22029         202206247282-5553-30             CONNECTOR                CCN000002000000002000FN00000000020220901000002000NNM   20220428162739B1  4N0N  00000100000001010000001187332B1    AXARNE-M005500360039
BI00B32B1    #A22029        202206247158-3376-50             CONNECTOR WIRE SEAL      CCN000120000000120000FN00000000020220901000120000NNM   20220428162736B1  2C0C  00002000000000184000000240732B1    AXARNE-M002700430014
BI00B32B1    #A22029        202206247282-8395-40             CONNECTOR                CCN000002000000002000FN00000000020220901000002000NNM   20220428162736B1  2N0N  00000100000001009000001188032B1    AXARNE-M005500360039
BI00B32B1    #A22029        202206247283-8226-30             CONNECTOR                CCN000006000000006000FN00000000020220901000006000NNM   20220428162736B1  2N0N  00000200000000820000001008032B1    AXARNE-M005400370024
BI00B32B1    #A22029        202206247283-8397-40             CONNECTOR                CCN000001540000001540FN00000000020220901000001540NNM   20220428162736B1  2N0N  00000154000001007000001222732B1    AXARNE-M005600390023
BI00B32B6    A72029         202206247116-4037                TERMINAL                 CCN000006000000006000FN00000000020220901000006000NNM   20220428162840B6  4P0P  00000600000000600000000894232B6    AXARNE-M006400630015
BI00B32B6    A72029         202206247017-1181-02             TERMINAL                 CCN000063000000063000FN00000000020220901000063000NNM   20220428162840B6  4P0P  00006300000001089900001266832B6    AXARNE-M005100280028
BI00B32B6    A72029         202206247017-1182-02             TERMINAL                 CCN000045000000045000FN00000000020220901000045000NNM   20220428162840B6  4P0P  00004500000001165500001318632B6    AXARNE-M005100280028
BI00B32B6    A72029         202206247116-5045-02             TERMINAL                 CCN000032000000032000FN00000000020220901000032000NNM   20220428162840B6  4P0P  00001600000000678400001007132B6    AXARNE-M006400630017
BI00B32B6    A72029         202206247116-5046-02             TERMINAL                 CCN000012000000012000FN00000000020220901000012000NNM   20220428162840B6  4P0P  00001200000000544800000873532B6    AXARNE-M006400630017
BI00B32B6    A72029         202206247158-3165-90             WIRE SEAL                CCN000320000000320000FN00000000020220901000320000NNM   20220428162840B6  1C0C  00004000000000124000000172432B6    AXARNE-M004300270014
BI00B32B6    A72029         202206247158-3166-60             WIRE SEAL                CCN000160000000160000FN00000000020220901000160000NNM   20220428162840B6  1C0C  00004000000000104000000152432B6    AXARNE-M002700430014
BI00B32B6    A72029         202206247158-3167-80             WIRE SEAL                CCN000140000000140000FN00000000020220901000140000NNM   20220428162840B6  1C0C  00002000000000048000000109032B6    AXARNE-M002700430014
BI00B32B6    A72029         202206247158-3168-80             SEALED                   CCN000020000000020000FN00000000020220901000020000NNM   20220428162840B6  1C0C  00002000000000044000000092132B6    AXARNE-M004300260014
BI00B32B6    A72029         202206247158-3169-40             SEALING PLUG             CCN000040000000040000FN00000000020220901000040000NNM   20220428162840B6  1C0C  00004000000000156000000204132B6    AXARNE-M004300260014
BI00B32B6    A72029         202206247288-3339-30             HOUSING MALE             CCN000001500000001500FN00000000020220901000001500NNM   20220428162840B6  4N0N  00000150000000867000001012032B6    AXARNE-M005400370024
BI00B32B6    A72029         202206247289-3342-30             HOUSING FEMALE ASS'Y     CCN000002400000002400FN00000000020220901000002400NNM   20220428162840B6  1N0N  00000240000000686400000901432B6    AXARNE-M005500360039
BI00B32B6    #A72029        202206247158-3015-10             RUBBER STOPPER           CCN000010000000010000FN00000000020220901000010000NNM   20220428162835B6  2C0C  00001000000000419500000474032B6    AXARNE-M002700430014
BI00B32B7    A82029         202206247158-3167-80             WIRE SEAL                CCN000140000000140000FN00000000020220901000140000NNM   20220428162939B7  1C0C  00002000000000048000000109032B7    AXARNE-M002700430014
BI00B32B7    A82029         202206247158-3169-40             SEALING PLUG             CCN000040000000040000FN00000000020220901000040000NNM   20220428162939B7  1C0C  00004000000000156000000204132B7    AXARNE-M004300260014
BI00B32B7    #A82029        202206247158-3376-50             CONNECTOR WIRE SEAL      CCN000060000000060000FN00000000020220901000060000NNM   20220428162934B7  2C0C  00002000000000184000000240732B7    AXARNE-M002700430014
BI00B32B7    #A82029        202206247283-8397-40             CONNECTOR                CCN000009240000009240FN00000000020220901000009240NNM   20220428162934B7  2N0N  00000154000001007000001222732B7    AXARNE-M005600390023
BI00B32CC    CTA32091       202206027283-4855                CONNECTOR HOUSING        CCN000014400000014400FN00000000020220901000014400NNE   20220428121351    4N0N  00000240000001188400001400032CC    BIYABCBU005500360039
BI00B32CC    CTA32091       202206027289-3342                HOUSING FEMALE ASS'Y     CCN000012000000012000FN00000000020220901000012000NNE   20220428121351    1N0N  00000240000000686400000901432CC    BIYABCBU005500360039
BI00B32CC    CTA32091       202206027289-3342-30             HOUSING FEMALE ASS'Y     CCN000012000000012000FN00000000020220901000012000NNE   20220428121351    1N0N  00000240000000686400000901432CC    BIYABCBU005500360039
BI00B32CC    CTA32091       202206027289-6868-30             SEALED ASSY FEMALE       CCN000005040000005040FN00000000020220901000005040NNE   20220428121351    4N0N  00000252000000839200001119232CC    BIYABCBU005500360039
BI00B32CC    #CTA32091      202206027283-8226-30             CONNECTOR                CCN000030000000030000FN00000000020220901000030000NNE   20220428121351    2N0N  00000200000000820000001008032CC    BIYABCBU005400370024
BI00B32CC    #CTA32091      202206027183-7725-40             HOUSING                  CCN000006000000006000FN00000000020220901000006000NNE   20220428121351    2F0F  00000600000000840000001040032CC    BIYABCBU005600390040
BI00B32CC    #CTA32091      202206027282-6446-40             CONNECTOR                CCN000003000000003000FN00000000020220901000003000NNE   20220428121351    2N0N  00000150000001185000001368032CC    BIYABCBU005500360039
BI00B32CC    #CTA32091      202206027282-6457-40             CONNECTOR                CCN000001600000001600FN00000000020220901000001600NNE   20220428121351    2N0N  00000080000001137000001421332CC    BIYABCBU005600390040
BI00B32CC    CTA32092       202206027158-3167-80             WIRE SEAL                CCN000060000000060000FN00000000020220901000060000NNE   20220428121351    1C0C  00002000000000048000000109032CC    BIYABCBU002700430014
BI00B32CJ    JQN2061        202205137327-6987-3W             BATTERY FUSE             CCN000001368000001368FN00000000020220601000001368NNMD0020220428160229    4N0N  00000007200000511300000711532CJ    QNYHVQN 005500360039
BI00B32DE    TCT205D        202204297283-4855-40             CONNECTOR HOUSING        CCN000002400000002400FN00000000020220501000002400NNE00020220428161250    4N0N  00000240000001188400001400032DE    TVYEV-TV005600360039
BI00B32DG    #RL2071        202206097283-8123-40             CONNECTOR HOUSING        CCN000008000000008000FN00000000020220701000008000NNM   20220428121351    2N0N  00000400000000380000000530032DG    BFSAIBF 005600390023
BI00B32DG    #RL2072        202206167283-8123-40             CONNECTOR HOUSING        CCN000004000000004000FN00000000020220701000004000NNM   20220428121351    2N0N  00000400000000380000000530032DG    BFSAIBF 005600390023
BI00B32DG    #RL2073        202206237283-8123-40             CONNECTOR HOUSING        CCN000004000000004000FN00000000020220701000004000NNM   20220428121351    2N0N  00000400000000380000000530032DG    BFSAIBF 005600390023
BI00B32DG    #RL2071        202206097035-5731                GROMMET                  CCN000001000000001000FN00000000020220701000001000NNM   20220428121351    2H0H  00000050000000808000000918032DG    BFSAIBF 005600390040
BI00B32DG    #RL2072        202206167035-5731                GROMMET                  CCN000000500000000500FN00000000020220701000000500NNM   20220428121351    2H0H  00000050000000808000000918032DG    BFSAIBF 005600390040
BI00B32DG    #RL2071        202206097158-3004-40             RUBBER STOPPER           CCN000020000000020000FN00000000020220701000020000NNM   20220428121351    2C0C  00002000000000234000000306332DG    BFSAIBF 002700430014
BI00B32DG    #RL2071        202206097183-6320                HOUSING                  CCN000009600000009600FN00000000020220701000009600NNM   20220428121351    2F0F  00000480000000820800001103632DG    BFSAIBF 005500360039
BI00B32DG    #RL2072        202206167183-6320                HOUSING                  CCN000004800000004800FN00000000020220701000004800NNM   20220428121351    2F0F  00000480000000820800001103632DG    BFSAIBF 005500360039
BI00B32DG    #RL2071        202206097183-1615                HOUSING                  CCN000009600000009600FN00000000020220701000009600NNM   20220428121351    2F0F  00000480000000757000001042032DG    BFSAIBF 005500360039
BI00B32DG    #RL2072        202206167183-1615                HOUSING                  CCN000004800000004800FN00000000020220701000004800NNM   20220428121351    2F0F  00000480000000757000001042032DG    BFSAIBF 005500360039
BI00B32DG    #RL2071        202206097183-2415                CONNECTOR HOUSING        CCN000009600000009600FN00000000020220701000009600NNM   20220428121351    2F0F  00000480000000798200001091432DG    BFSAIBF 005500360039
BI00B32DG    #RL2072        202206167183-2415                CONNECTOR HOUSING        CCN000004800000004800FN00000000020220701000004800NNM   20220428121351    2F0F  00000480000000798200001091432DG    BFSAIBF 005500360039
BI00B32DG    #RL2071        202206097183-2413-30             CONNECTOR HOUSING        CCN000004800000004800FN00000000020220701000004800NNM   20220428121351    2F0F  00000480000000477600000759532DG    BFSAIBF 005500360039
BI00B32DG    #RL2071        202206097114-4022                TERMINAL                 CCN000015000000015000FN00000000020220701000015000NNM   20220428121351    2F0P  00001500000000708000001120632DG    BFSAIBF 006400630015
BI00B32DG    #RL2071        202206097158-3008-80             RUBBER STOPPER           CCN000040000000040000FN00000000020220701000040000NNM   20220428121351    2C0C  00002000000000288000000343032DG    BFSAIBF 004300270014
BI00B32DG    #RL2072        202206167158-3008-80             RUBBER STOPPER           CCN000020000000020000FN00000000020220701000020000NNM   20220428121351    2C0C  00002000000000288000000343032DG    BFSAIBF 004300270014
BI00B32DG    #RL2073        202206237158-3008-80             RUBBER STOPPER           CCN000020000000020000FN00000000020220701000020000NNM   20220428121351    2C0C  00002000000000288000000343032DG    BFSAIBF 004300270014
BI00B32DG    #RL2074        202206307158-3008-80             RUBBER STOPPER           CCN000020000000020000FN00000000020220701000020000NNM   20220428121351    2C0C  00002000000000288000000343032DG    BFSAIBF 004300270014
BI00B32DG    #RL2071        202206097158-3007-10             RUBBER STOPPER           CCN000040000000040000FN00000000020220701000040000NNM   20220428121351    2H0H  00002000000000308000000362732DG    BFSAIBF 002700430014
BI00B32DG    #RL2072        202206167158-3007-10             RUBBER STOPPER           CCN000020000000020000FN00000000020220701000020000NNM   20220428121351    2H0H  00002000000000308000000362732DG    BFSAIBF 002700430014
BI00B32DG    #RL2073        202206237158-3007-10             RUBBER STOPPER           CCN000020000000020000FN00000000020220701000020000NNM   20220428121351    2H0H  00002000000000308000000362732DG    BFSAIBF 002700430014
BI00B32DG    #RL2074        202206307158-3007-10             RUBBER STOPPER           CCN000020000000020000FN00000000020220701000020000NNM   20220428121351    2H0H  00002000000000308000000362732DG    BFSAIBF 002700430014
BI00B32DG    #RL2071        202206097189-3031                HOUSING FEMALE           CCN000002400000002400FN00000000020220701000002400NNM   20220428121351    2F0F  00000240000000928800001365832DG    BFSAIBF 005500360039
BI00B32DG    #RL2071        202206097282-5845-30             HOUSING MALE ASS'Y       CCN000004000000004000FN00000000020220701000004000NNM   20220428121351    2N0N  00000400000001068000001178032DG    BFSAIBF 005400370024
BI00B32DG    #RL2071        202206097282-1026                CONNECTOR HOUSING        CCN000004000000004000FN00000000020220701000004000NNM   20220428121351    2N0N  00000200000000696000000808532DG    BFSAIBF 005400370024
BI00B32DG    #RL2072        202206167282-1026                CONNECTOR HOUSING        CCN000002000000002000FN00000000020220701000002000NNM   20220428121351    2N0N  00000200000000696000000808532DG    BFSAIBF 005400370024
BI00B32DG    #RL2073        202206237282-1026                CONNECTOR HOUSING        CCN000002000000002000FN00000000020220701000002000NNM   20220428121351    2N0N  00000200000000696000000808532DG    BFSAIBF 005400370024
BI00B32DG    #RL2074        202206307282-1026                CONNECTOR HOUSING        CCN000002000000002000FN00000000020220701000002000NNM   20220428121351    2N0N  00000200000000696000000808532DG    BFSAIBF 005400370024
BI00B32DG    #RL2071        202206097158-3003-90             RUBBER STOPPER           CCN000020000000020000FN00000000020220701000020000NNM   20220428121351    2C0C  00002000000000250000000306032DG    BFSAIBF 002700430014
BI00B32DG    #RL2071        202206097282-3020                CONNECTOR                CCN000001000000001000FN00000000020220701000001000NNM   20220428121351    2N0N  00000100000000984000001145432DG    BFSAIBF 005500360039
BI00B32DG    #RL2071        202206097183-1616                CONNECTOR HOUSING        CCN000009600000009600FN00000000020220701000009600NNM   20220428121351    2F0F  00000240000000557500000823332DG    BFSAIBF 005500360039
BI00B32DG    #RL2072        202206167183-1616                CONNECTOR HOUSING        CCN000004800000004800FN00000000020220701000004800NNM   20220428121351    2F0F  00000240000000557500000823332DG    BFSAIBF 005500360039
BI00B32DG    #RL2073        202206237183-1616                CONNECTOR HOUSING        CCN000004800000004800FN00000000020220701000004800NNM   20220428121351    2F0F  00000240000000557500000823332DG    BFSAIBF 005500360039
BI00B32DG    #RL2074        202206307183-1616                CONNECTOR HOUSING        CCN000002400000002400FN00000000020220701000002400NNM   20220428121351    2F0F  00000240000000557500000823332DG    BFSAIBF 005500360039
BI00B32DG    #RL2071        202206097172-5632-10             DUMMY PLUG               CCN000040000000040000FN00000000020220701000040000NNM   20220428121351    2H0H  00002000000000080400000131832DG    BFSAIBF 004300270014
BI00B32DG    #RL2072        202206167172-5632-10             DUMMY PLUG               CCN000020000000020000FN00000000020220701000020000NNM   20220428121351    2H0H  00002000000000080400000131832DG    BFSAIBF 004300270014
BI00B32DG    #RL2071        202206097183-2418                CONNECTOR HOUSING        CCN000004800000004800FN00000000020220701000004800NNM   20220428121351    2F0F  00000480000000917000001477032DG    BFSAIBF 005500360039
BI00B32DG    RP2071         202206097114-4020                TERMINAL                 CCN000021000000021000FN00000000020220701000021000NNM   20220428121351    4P0P  00002100000000875700001169332DG    BFSAIBF 006400630015
BI00B32DG    RP2071         202206097114-4021                TERMINAL                 CCN000030000000030000FN00000000020220701000030000NNM   20220428121351    4P0P  00001500000000670500000964132DG    BFSAIBF 006400630015
BI00B32DG    RP2072         202206167114-4021                TERMINAL                 CCN000015000000015000FN00000000020220701000015000NNM   20220428121351    4P0P  00001500000000670500000964132DG    BFSAIBF 006400630015
BI00B32DG    RP2073         202206237114-4021                TERMINAL                 CCN000015000000015000FN00000000020220701000015000NNM   20220428121351    4P0P  00001500000000670500000964132DG    BFSAIBF 006400630015
BI00B32DG    RP2071         202206097114-4032                TERMINAL                 CCN000007500000007500FN00000000020220701000007500NNM   20220428121351    4P0P  00000750000000735000001063632DG    BFSAIBF 006400630017
BI00B32DG    RP2072         202206167114-4032                TERMINAL                 CCN000007500000007500FN00000000020220701000007500NNM   20220428121351    4P0P  00000750000000735000001063632DG    BFSAIBF 006400630017
BI00B32DG    RP2071         202206097114-4231-02             TERMINAL                 CCN000018000000018000FN00000000020220701000018000NNM   20220428121351    4P0P  00001800000000554400000848032DG    BFSAIBF 006400630015
BI00B32DG    RP2071         202206097114-4486-02             TERMINAL                 CCN000024000000024000FN00000000020220701000024000NNM   20220428121351    4P0P  00002400000000662400000956032DG    BFSAIBF 006400630015
BI00B32DG    RP2071         202206097114-4624-02             TERMINAL                 CCN000024000000024000FN00000000020220701000024000NNM   20220428121351    4P0P  00002400000000895200001188832DG    BFSAIBF 006400630015
BI00B32DG    RP2072         202206167114-4624-02             TERMINAL                 CCN000024000000024000FN00000000020220701000024000NNM   20220428121351    4P0P  00002400000000895200001188832DG    BFSAIBF 006400630015
BI00B32DG    RP2071         202206097114-4728-02             TERMINAL                 CCN000330000000330000FN00000000020220701000330000NNM   20220428121351    4P0P  00003000000000510000000804232DG    BFSAIBF 006400630015
BI00B32DG    RP2072         202206167114-4728-02             TERMINAL                 CCN000180000000180000FN00000000020220701000180000NNM   20220428121351    4P0P  00003000000000510000000804232DG    BFSAIBF 006400630015
BI00B32DG    RP2073         202206237114-4728-02             TERMINAL                 CCN000180000000180000FN00000000020220701000180000NNM   20220428121351    4P0P  00003000000000510000000804232DG    BFSAIBF 006400630015
BI00B32DG    RP2074         202206307114-4728-02             TERMINAL                 CCN000090000000090000FN00000000020220701000090000NNM   20220428121351    4P0P  00003000000000510000000804232DG    BFSAIBF 006400630015
BI00B32DG    RP2071         202206097114-4729-02             TERMINAL                 CCN000090000000090000FN00000000020220701000090000NNM   20220428121351    4P0P  00003000000000516000000810232DG    BFSAIBF 006400630015
BI00B32DG    RP2072         202206167114-4729-02             TERMINAL                 CCN000060000000060000FN00000000020220701000060000NNM   20220428121351    4P0P  00003000000000516000000810232DG    BFSAIBF 006400630015
BI00B32DG    RP2073         202206237114-4729-02             TERMINAL                 CCN000030000000030000FN00000000020220701000030000NNM   20220428121351    4P0P  00003000000000516000000810232DG    BFSAIBF 006400630015
BI00B32DG    RP2071         202206097114-5746-02             TERMINAL                 CCN000042000000042000FN00000000020220701000042000NNM   20220428121351    4P0P  00002100000000695100000988732DG    BFSAIBF 006400630015
BI00B32DG    RP2072         202206167114-5746-02             TERMINAL                 CCN000021000000021000FN00000000020220701000021000NNM   20220428121351    4P0P  00002100000000695100000988732DG    BFSAIBF 006400630015
BI00B32DG    RP2073         202206237114-5746-02             TERMINAL                 CCN000021000000021000FN00000000020220701000021000NNM   20220428121351    4P0P  00002100000000695100000988732DG    BFSAIBF 006400630015
BI00B32DG    RP2071         202206097114-5747-02             TERMINAL                 CCN000126000000126000FN00000000020220701000126000NNM   20220428121351    4P0P  00001800000000626400000920032DG    BFSAIBF 006400630015
BI00B32DG    RP2072         202206167114-5747-02             TERMINAL                 CCN000072000000072000FN00000000020220701000072000NNM   20220428121351    4P0P  00001800000000626400000920032DG    BFSAIBF 006400630015
BI00B32DG    RP2073         202206237114-5747-02             TERMINAL                 CCN000072000000072000FN00000000020220701000072000NNM   20220428121351    4P0P  00001800000000626400000920032DG    BFSAIBF 006400630015
BI00B32DG    RP2074         202206307114-5747-02             TERMINAL                 CCN000036000000036000FN00000000020220701000036000NNM   20220428121351    4P0P  00001800000000626400000920032DG    BFSAIBF 006400630015
BI00B32DG    RP2071         202206097114-5748-02             TERMINAL                 CCN000024000000024000FN00000000020220701000024000NNM   20220428121351    4P0P  00001200000000444000000737632DG    BFSAIBF 006400630015
BI00B32DG    RP2072         202206167114-5748-02             TERMINAL                 CCN000012000000012000FN00000000020220701000012000NNM   20220428121351    4P0P  00001200000000444000000737632DG    BFSAIBF 006400630015
BI00B32DG    RP2073         202206237114-5748-02             TERMINAL                 CCN000012000000012000FN00000000020220701000012000NNM   20220428121351    4P0P  00001200000000444000000737632DG    BFSAIBF 006400630015
BI00B32DG    RP2074         202206307114-5748-02             TERMINAL                 CCN000012000000012000FN00000000020220701000012000NNM   20220428121351    4P0P  00001200000000444000000737632DG    BFSAIBF 006400630015
BI00B32DG    RP2071         202206097114-5753-02             TERMINAL                 CCN000108000000108000FN00000000020220701000108000NNM   20220428121351    4P0P  00002700000000847800001141432DG    BFSAIBF 006400630015
BI00B32DG    RP2072         202206167114-5753-02             TERMINAL                 CCN000054000000054000FN00000000020220701000054000NNM   20220428121351    4P0P  00002700000000847800001141432DG    BFSAIBF 006400630015
BI00B32DG    RP2073         202206237114-5753-02             TERMINAL                 CCN000054000000054000FN00000000020220701000054000NNM   20220428121351    4P0P  00002700000000847800001141432DG    BFSAIBF 006400630015
BI00B32DG    RP2071         202206097116-4032                TERMINAL                 CCN000024000000024000FN00000000020220701000024000NNM   20220428121351    4P0P  00000600000000532800000818032DG    BFSAIBF 006400630015
BI00B32DG    RP2072         202206167116-4032                TERMINAL                 CCN000012000000012000FN00000000020220701000012000NNM   20220428121351    4P0P  00000600000000532800000818032DG    BFSAIBF 006400630015
BI00B32DG    RP2073         202206237116-4032                TERMINAL                 CCN000012000000012000FN00000000020220701000012000NNM   20220428121351    4P0P  00000600000000532800000818032DG    BFSAIBF 006400630015
BI00B32DG    RP2074         202206307116-4032                TERMINAL                 CCN000012000000012000FN00000000020220701000012000NNM   20220428121351    4P0P  00000600000000532800000818032DG    BFSAIBF 006400630015
BI00B32DG    RP2071         202206097116-4231-02             TERMINAL                 CCN000026000000026000FN00000000020220701000026000NNM   20220428121351    4P0P  00002600000000683800001012532DG    BFSAIBF 006400630017
BI00B32DG    RP2072         202206167116-4231-02             TERMINAL                 CCN000026000000026000FN00000000020220701000026000NNM   20220428121351    4P0P  00002600000000683800001012532DG    BFSAIBF 006400630017
BI00B32DG    RP2071         202206097116-4486-02             TERMINAL                 CCN000336000000336000FN00000000020220701000336000NNM   20220428121351    4P0P  00002800000000666400000995132DG    BFSAIBF 006400630017
BI00B32DG    RP2072         202206167116-4486-02             TERMINAL                 CCN000168000000168000FN00000000020220701000168000NNM   20220428121351    4P0P  00002800000000666400000995132DG    BFSAIBF 006400630017
BI00B32DG    RP2073         202206237116-4486-02             TERMINAL                 CCN000168000000168000FN00000000020220701000168000NNM   20220428121351    4P0P  00002800000000666400000995132DG    BFSAIBF 006400630017
BI00B32DG    RP2074         202206307116-4486-02             TERMINAL                 CCN000112000000112000FN00000000020220701000112000NNM   20220428121351    4P0P  00002800000000666400000995132DG    BFSAIBF 006400630017
BI00B32DG    RP2071         202206097116-5035-02             TERMINAL                 CCN000075000000075000FN00000000020220701000075000NNM   20220428121351    4P0P  00001500000000543000000828232DG    BFSAIBF 006400630015
BI00B32DG    RP2072         202206167116-5035-02             TERMINAL                 CCN000045000000045000FN00000000020220701000045000NNM   20220428121351    4P0P  00001500000000543000000828232DG    BFSAIBF 006400630015
BI00B32DG    RP2073         202206237116-5035-02             TERMINAL                 CCN000045000000045000FN00000000020220701000045000NNM   20220428121351    4P0P  00001500000000543000000828232DG    BFSAIBF 006400630015
BI00B32DG    RP2071         202206097116-5036-02             TERMINAL                 CCN000013500000013500FN00000000020220701000013500NNM   20220428121351    4P0P  00001350000000618300001042232DG    BFSAIBF 006400630015
BI00B32DG    RP2071         202206097116-5041-02             TERMINAL                 CCN000015000000015000FN00000000020220701000015000NNM   20220428121351    4P0P  00001500000000583500000868732DG    BFSAIBF 006400630015
BI00B32DG    RP2072         202206167116-5041-02             TERMINAL                 CCN000015000000015000FN00000000020220701000015000NNM   20220428121351    4P0P  00001500000000583500000868732DG    BFSAIBF 006400630015
BI00B32DG    RP2071         202206097116-5042-02             TERMINAL                 CCN000148500000148500FN00000000020220701000148500NNM   20220428121351    4P0P  00001350000000560300000845532DG    BFSAIBF 006400630015
BI00B32DG    RP2072         202206167116-5042-02             TERMINAL                 CCN000081000000081000FN00000000020220701000081000NNM   20220428121351    4P0P  00001350000000560300000845532DG    BFSAIBF 006400630015
BI00B32DG    RP2073         202206237116-5042-02             TERMINAL                 CCN000081000000081000FN00000000020220701000081000NNM   20220428121351    4P0P  00001350000000560300000845532DG    BFSAIBF 006400630015
BI00B32DG    RP2074         202206307116-5042-02             TERMINAL                 CCN000040500000040500FN00000000020220701000040500NNM   20220428121351    4P0P  00001350000000560300000845532DG    BFSAIBF 006400630015
BI00B32DG    RP2071         202206097116-5044-02             TERMINAL                 CCN000144000000144000FN00000000020220701000144000NNM   20220428121351    4P0P  00001600000000641600000986332DG    BFSAIBF 006400630017
BI00B32DG    RP2072         202206167116-5044-02             TERMINAL                 CCN000080000000080000FN00000000020220701000080000NNM   20220428121351    4P0P  00001600000000641600000986332DG    BFSAIBF 006400630017
BI00B32DG    RP2073         202206237116-5044-02             TERMINAL                 CCN000080000000080000FN00000000020220701000080000NNM   20220428121351    4P0P  00001600000000641600000986332DG    BFSAIBF 006400630017
BI00B32DG    RP2074         202206307116-5044-02             TERMINAL                 CCN000032000000032000FN00000000020220701000032000NNM   20220428121351    4P0P  00001600000000641600000986332DG    BFSAIBF 006400630017
BI00B32DG    RP2071         202206097116-5045-02             TERMINAL                 CCN000080000000080000FN00000000020220701000080000NNM   20220428121351    4P0P  00001600000000678400001007132DG    BFSAIBF 006400630017
BI00B32DG    RP2072         202206167116-5045-02             TERMINAL                 CCN000048000000048000FN00000000020220701000048000NNM   20220428121351    4P0P  00001600000000678400001007132DG    BFSAIBF 006400630017
BI00B32DG    RP2073         202206237116-5045-02             TERMINAL                 CCN000048000000048000FN00000000020220701000048000NNM   20220428121351    4P0P  00001600000000678400001007132DG    BFSAIBF 006400630017
BI00B32DG    RP2074         202206307116-5045-02             TERMINAL                 CCN000016000000016000FN00000000020220701000016000NNM   20220428121351    4P0P  00001600000000678400001007132DG    BFSAIBF 006400630017
BI00B32DG    RP2071         202206097116-5046-02             TERMINAL                 CCN000036000000036000FN00000000020220701000036000NNM   20220428121351    4P0P  00001200000000544800000873532DG    BFSAIBF 006400630017
BI00B32DG    RP2072         202206167116-5046-02             TERMINAL                 CCN000024000000024000FN00000000020220701000024000NNM   20220428121351    4P0P  00001200000000544800000873532DG    BFSAIBF 006400630017
BI00B32DG    RP2073         202206237116-5046-02             TERMINAL                 CCN000012000000012000FN00000000020220701000012000NNM   20220428121351    4P0P  00001200000000544800000873532DG    BFSAIBF 006400630017
BI00B32DG    RP2071         202206097158-3006-90             RUBBER STOPPER           CCN000080000000080000FN00000000020220701000080000NNM   20220428121351    1C0C  00002000000000330600000386032DG    BFSAIBF 002700430014
BI00B32DG    RP2072         202206167158-3006-90             RUBBER STOPPER           CCN000040000000040000FN00000000020220701000040000NNM   20220428121351    1C0C  00002000000000330600000386032DG    BFSAIBF 002700430014
BI00B32DG    RP2073         202206237158-3006-90             RUBBER STOPPER           CCN000040000000040000FN00000000020220701000040000NNM   20220428121351    1C0C  00002000000000330600000386032DG    BFSAIBF 002700430014
BI00B32DG    RP2074         202206307158-3006-90             RUBBER STOPPER           CCN000020000000020000FN00000000020220701000020000NNM   20220428121351    1C0C  00002000000000330600000386032DG    BFSAIBF 002700430014
BI00B32DG    RP2071         202206097116-5750-02             TERMINAL                 CCN000105000000105000FN00000000020220701000105000NNM   20220428121351    4P0P  00001500000000457500000742732DG    BFSAIBF 006400630015
BI00B32DG    RP2072         202206167116-5750-02             TERMINAL                 CCN000060000000060000FN00000000020220701000060000NNM   20220428121351    4P0P  00001500000000457500000742732DG    BFSAIBF 006400630015
BI00B32DG    RP2073         202206237116-5750-02             TERMINAL                 CCN000060000000060000FN00000000020220701000060000NNM   20220428121351    4P0P  00001500000000457500000742732DG    BFSAIBF 006400630015
BI00B32DG    RP2074         202206307116-5750-02             TERMINAL                 CCN000030000000030000FN00000000020220701000030000NNM   20220428121351    4P0P  00001500000000457500000742732DG    BFSAIBF 006400630015
BI00B32DG    RP2071         202206097116-5751-02             TERMINAL                 CCN000060000000060000FN00000000020220701000060000NNM   20220428121351    4P0P  00001200000000379200000664432DG    BFSAIBF 006400630015
BI00B32DG    RP2072         202206167116-5751-02             TERMINAL                 CCN000036000000036000FN00000000020220701000036000NNM   20220428121351    4P0P  00001200000000379200000664432DG    BFSAIBF 006400630015
BI00B32DG    RP2073         202206237116-5751-02             TERMINAL                 CCN000036000000036000FN00000000020220701000036000NNM   20220428121351    4P0P  00001200000000379200000664432DG    BFSAIBF 006400630015
BI00B32DG    RP2071         202206097283-1156                CONNECTOR                CCN000000800000000800FN00000000020220701000000800NNM   20220428121351    4N0N  00000080000000877600001078032DG    BFSAIBF 005600390040
BI00B32DG    RP2072         202206167283-1156                CONNECTOR                CCN000000800000000800FN00000000020220701000000800NNM   20220428121351    4N0N  00000080000000877600001078032DG    BFSAIBF 005600390040
BI00B32DG    RP2071         202206097287-9234                JOINT CONNECTOR          CCN000019200000019200FN00000000020220701000019200NNM   20220428121351    4N0N  00000960000000893800001184832DG    BFSAIBF 005500360039
BI00B32DG    RP2072         202206167287-9234                JOINT CONNECTOR          CCN000009600000009600FN00000000020220701000009600NNM   20220428121351    4N0N  00000960000000893800001184832DG    BFSAIBF 005500360039
BI00B32DG    RP2071         202206097114-5096-02             TERMINAL                 CCN000030000000030000FN00000000020220701000030000NNM   20220428121351    4P0P  00003000000000498000000792232DG    BFSAIBF 006400630015
BI00B32DG    RP2071         202206097289-3342-30             HOUSING FEMALE ASS'Y     CCN000004800000004800FN00000000020220701000004800NNM   20220428121351    1N0N  00000240000000686400000901432DG    BFSAIBF 005500360039
BI00B32DG    RP2072         202206167289-3342-30             HOUSING FEMALE ASS'Y     CCN000002400000002400FN00000000020220701000002400NNM   20220428121351    1N0N  00000240000000686400000901432DG    BFSAIBF 005500360039
BI00B32DG    RP2073         202206237289-3342-30             HOUSING FEMALE ASS'Y     CCN000002400000002400FN00000000020220701000002400NNM   20220428121351    1N0N  00000240000000686400000901432DG    BFSAIBF 005500360039
BI00B32DG    RP2074         202206307289-3342-30             HOUSING FEMALE ASS'Y     CCN000002400000002400FN00000000020220701000002400NNM   20220428121351    1N0N  00000240000000686400000901432DG    BFSAIBF 005500360039
BI00B32DG    RP2071         202206097158-3009-60             RUBBER STOPPER           CCN000080000000080000FN00000000020220701000080000NNM   20220428121351    1C0C  00002000000000338000000386232DG    BFSAIBF 002700430014
BI00B32DG    RP2072         202206167158-3009-60             RUBBER STOPPER           CCN000040000000040000FN00000000020220701000040000NNM   20220428121351    1C0C  00002000000000338000000386232DG    BFSAIBF 002700430014
BI00B32DG    RP2073         202206237158-3009-60             RUBBER STOPPER           CCN000040000000040000FN00000000020220701000040000NNM   20220428121351    1C0C  00002000000000338000000386232DG    BFSAIBF 002700430014
BI00B32DG    RP2071         202206097283-4576                HOUSING FEMALE ASS'Y     CCN000004800000004800FN00000000020220701000004800NNM   20220428121351    4N0N  00000480000000651300000871332DG    BFSAIBF 005500360039
BI00B32DG    RP2071         202206097116-4415-02             TERMINAL                 CCN000076000000076000FN00000000020220701000076000NNM   20220428121351    4P0P  00003800000000596600000925732DG    BFSAIBF 006400630017
BI00B32DG    RP2072         202206167116-4415-02             TERMINAL                 CCN000038000000038000FN00000000020220701000038000NNM   20220428121351    4P0P  00003800000000596600000925732DG    BFSAIBF 006400630017
BI00B32DG    RP2073         202206237116-4415-02             TERMINAL                 CCN000038000000038000FN00000000020220701000038000NNM   20220428121351    4P0P  00003800000000596600000925732DG    BFSAIBF 006400630017
BI00B32DG    RP2074         202206307116-4415-02             TERMINAL                 CCN000038000000038000FN00000000020220701000038000NNM   20220428121351    4P0P  00003800000000596600000925732DG    BFSAIBF 006400630017
BI00B32DG    RP2071         202206097283-5845-40             CONNECTOR HOUSING        CCN000006000000006000FN00000000020220701000006000NNM   20220428121351    1N0N  00000600000000444000000606332DG    BFSAIBF 005400370024
BI00B32DG    RP2071         202206097282-4577                HOUSING MALE ASS'Y       CCN000009600000009600FN00000000020220701000009600NNM   20220428121351    4N0N  00000240000000964800001174832DG    BFSAIBF 005500360039
BI00B32DG    RP2072         202206167282-4577                HOUSING MALE ASS'Y       CCN000004800000004800FN00000000020220701000004800NNM   20220428121351    4N0N  00000240000000964800001174832DG    BFSAIBF 005500360039
BI00B32DG    RP2073         202206237282-4577                HOUSING MALE ASS'Y       CCN000004800000004800FN00000000020220701000004800NNM   20220428121351    4N0N  00000240000000964800001174832DG    BFSAIBF 005500360039
BI00B32DG    RP2071         202206097288-3339-30             HOUSING MALE             CCN000001500000001500FN00000000020220701000001500NNM   20220428121351    4N0N  00000150000000867000001012032DG    BFSAIBF 005400370024
BI00B32DG    RP2071         202206097114-4729-08             TERMINAL                 CCN000030000000030000FN00000000020220701000030000NNM   20220428121351    4P0P  00003000000000522000000816232DG    BFSAIBF 006400630015
BI00B32DG    RP2071         202206097116-3154-08             TERMINAL                 CCN000027000000027000FN00000000020220701000027000NNM   20220428121351    4P0P  00002700000000475200000760432DG    BFSAIBF 006400630015
BI00B32DG    RP2072         202206167116-3154-08             TERMINAL                 CCN000027000000027000FN00000000020220701000027000NNM   20220428121351    4P0P  00002700000000475200000760432DG    BFSAIBF 006400630015
BI00B32DG    RP2071         202206097116-5752-02             TERMINAL                 CCN000021000000021000FN00000000020220701000021000NNM   20220428121351    4P0P  00002100000000571200000856432DG    BFSAIBF 006400630015
BI00B32DG    RP2072         202206167116-5752-02             TERMINAL                 CCN000021000000021000FN00000000020220701000021000NNM   20220428121351    4P0P  00002100000000571200000856432DG    BFSAIBF 006400630015
BI00B32DG    RP2071         202206097282-4578                HOUSING MALE ASS'Y       CCN000001200000001200FN00000000020220701000001200NNM   20220428121351    4N0N  00000120000000782600000992632DG    BFSAIBF 005500360039
BI00B32DG    RP2071         202206097158-3070-80             RUBBER STOPPER           CCN000080000000080000FN00000000020220701000080000NNM   20220428121351    1C0C  00004000000000276000000333332DG    BFSAIBF 002700430014
BI00B32DG    RP2072         202206167158-3070-80             RUBBER STOPPER           CCN000040000000040000FN00000000020220701000040000NNM   20220428121351    1C0C  00004000000000276000000333332DG    BFSAIBF 002700430014
BI00B32DG    RP2073         202206237158-3070-80             RUBBER STOPPER           CCN000040000000040000FN00000000020220701000040000NNM   20220428121351    1C0C  00004000000000276000000333332DG    BFSAIBF 002700430014
BI00B32DG    RP2071         202206097287-1917                CONNECTOR FEMALE         CCN000007200000007200FN00000000020220701000007200NNM   20220428121351    4N0N  00000240000001060800001312532DG    BFSAIBF 005500360039
BI00B32DG    RP2072         202206167287-1917                CONNECTOR FEMALE         CCN000004800000004800FN00000000020220701000004800NNM   20220428121351    4N0N  00000240000001060800001312532DG    BFSAIBF 005500360039
BI00B32DG    RP2073         202206237287-1917                CONNECTOR FEMALE         CCN000002400000002400FN00000000020220701000002400NNM   20220428121351    4N0N  00000240000001060800001312532DG    BFSAIBF 005500360039
BI00B32DG    RP2071         202206097116-5043-02             TERMINAL FEMALE          CCN000048000000048000FN00000000020220701000048000NNM   20220428121351    4P0P  00001200000000559200000844432DG    BFSAIBF 006400630015
BI00B32DG    RP2072         202206167116-5043-02             TERMINAL FEMALE          CCN000024000000024000FN00000000020220701000024000NNM   20220428121351    4P0P  00001200000000559200000844432DG    BFSAIBF 006400630015
BI00B32DG    RP2073         202206237116-5043-02             TERMINAL FEMALE          CCN000024000000024000FN00000000020220701000024000NNM   20220428121351    4P0P  00001200000000559200000844432DG    BFSAIBF 006400630015
BI00B32DG    RP2074         202206307116-5043-02             TERMINAL FEMALE          CCN000024000000024000FN00000000020220701000024000NNM   20220428121351    4P0P  00001200000000559200000844432DG    BFSAIBF 006400630015
BI00B32DG    RP2071         202206097116-3153-02             TERMINAL FEMALE          CCN000918000000918000FN00000000020220701000918000NNM   20220428121351    4P0P  00002700000000459000000744232DG    BFSAIBF 006400630015
BI00B32DG    RP2072         202206167116-3153-02             TERMINAL FEMALE          CCN000459000000459000FN00000000020220701000459000NNM   20220428121351    4P0P  00002700000000459000000744232DG    BFSAIBF 006400630015
BI00B32DG    RP2073         202206237116-3153-02             TERMINAL FEMALE          CCN000459000000459000FN00000000020220701000459000NNM   20220428121351    4P0P  00002700000000459000000744232DG    BFSAIBF 006400630015
BI00B32DG    RP2074         202206307116-3153-02             TERMINAL FEMALE          CCN000459000000459000FN00000000020220701000459000NNM   20220428121351    4P0P  00002700000000459000000744232DG    BFSAIBF 006400630015
BI00B32DG    RP2071         202206097116-3154-02             TERMINAL FEMALE          CCN000189000000189000FN00000000020220701000189000NNM   20220428121351    4P0P  00002700000000469800000755032DG    BFSAIBF 006400630015
BI00B32DG    RP2072         202206167116-3154-02             TERMINAL FEMALE          CCN000108000000108000FN00000000020220701000108000NNM   20220428121351    4P0P  00002700000000469800000755032DG    BFSAIBF 006400630015
BI00B32DG    RP2073         202206237116-3154-02             TERMINAL FEMALE          CCN000108000000108000FN00000000020220701000108000NNM   20220428121351    4P0P  00002700000000469800000755032DG    BFSAIBF 006400630015
BI00B32DG    RP2074         202206307116-3154-02             TERMINAL FEMALE          CCN000054000000054000FN00000000020220701000054000NNM   20220428121351    4P0P  00002700000000469800000755032DG    BFSAIBF 006400630015
BI00B32DG    RP2071         202206097116-4416-02             TERMINAL                 CCN000064000000064000FN00000000020220701000064000NNM   20220428121351    4P0P  00003200000000518400000847132DG    BFSAIBF 006400630017
BI00B32DG    RP2072         202206167116-4416-02             TERMINAL                 CCN000032000000032000FN00000000020220701000032000NNM   20220428121351    4P0P  00003200000000518400000847132DG    BFSAIBF 006400630017
BI00B32DG    RP2071         202206097114-6041                TERMINAL                 CCN000003600000003600FN00000000020220701000003600NNM   20220428121351    4P0P  00000360000000580700000824232DG    BFSAIBF 006400630015
BI00B32DG    RP2072         202206167114-6041                TERMINAL                 CCN000003600000003600FN00000000020220701000003600NNM   20220428121351    4P0P  00000360000000580700000824232DG    BFSAIBF 006400630015
BI00B32DG    RP2071         202206097286-4097                CONNECTOR MALE ASS'Y     CCN000001600000001600FN00000000020220701000001600NNM   20220428121351    1N0N  00000160000000768000000978032DG    BFSAIBF 005500360039
BI00B32DG    RP2071         202206097288-3340-30             HOUSING MALE             CCN000006000000006000FN00000000020220701000006000NNM   20220428121351    4N0N  00000150000000861500001006432DG    BFSAIBF 005400370024
BI00B32DG    RP2072         202206167288-3340-30             HOUSING MALE             CCN000003000000003000FN00000000020220701000003000NNM   20220428121351    4N0N  00000150000000861500001006432DG    BFSAIBF 005400370024
BI00B32DG    RP2073         202206237288-3340-30             HOUSING MALE             CCN000003000000003000FN00000000020220701000003000NNM   20220428121351    4N0N  00000150000000861500001006432DG    BFSAIBF 005400370024
BI00B32DG    RP2074         202206307288-3340-30             HOUSING MALE             CCN000001500000001500FN00000000020220701000001500NNM   20220428121351    4N0N  00000150000000861500001006432DG    BFSAIBF 005400370024
BI00B32DG    RP2071         202206097283-1289                CONNECTOR HOUSING        CCN000004800000004800FN00000000020220701000004800NNM   20220428121351    1N0N  00000060000000676200000817632DG    BFSAIBF 005400370024
BI00B32DG    RP2072         202206167283-1289                CONNECTOR HOUSING        CCN000002400000002400FN00000000020220701000002400NNM   20220428121351    1N0N  00000060000000676200000817632DG    BFSAIBF 005400370024
BI00B32DG    RP2073         202206237283-1289                CONNECTOR HOUSING        CCN000002400000002400FN00000000020220701000002400NNM   20220428121351    1N0N  00000060000000676200000817632DG    BFSAIBF 005400370024
BI00B32DG    RP2074         202206307283-1289                CONNECTOR HOUSING        CCN000002400000002400FN00000000020220701000002400NNM   20220428121351    1N0N  00000060000000676200000817632DG    BFSAIBF 005400370024
BI00B32DG    RP2071         202206097116-2640                TERMINAL                 CCN000018000000018000FN00000000020220701000018000NNM   20220428121351    4P0P  00001800000001018800001196632DG    BFSAIBF 005100280028
BI00B32DG    RP2071         202206097116-2641                TERMINAL                 CCN000018000000018000FN00000000020220701000018000NNM   20220428121351    4P0P  00001800000001161000001344632DG    BFSAIBF 005100280028
BI00B32DG    RP2071         202206097116-4114-02             TERMINAL                 CCN000021000000021000FN00000000020220701000021000NNM   20220428121351    4P0P  00001050000000693000000981232DG    BFSAIBF 006400630015
BI00B32DG    RP2072         202206167116-4114-02             TERMINAL                 CCN000010500000010500FN00000000020220701000010500NNM   20220428121351    4P0P  00001050000000693000000981232DG    BFSAIBF 006400630015
BI00B32DG    RP2073         202206237116-4114-02             TERMINAL                 CCN000010500000010500FN00000000020220701000010500NNM   20220428121351    4P0P  00001050000000693000000981232DG    BFSAIBF 006400630015
BI00B32DG    RP2071         202206097116-4115-02             TERMINAL                 CCN000008400000008400FN00000000020220701000008400NNM   20220428121351    4P0P  00000840000000593000000881232DG    BFSAIBF 006400630015
BI00B32DG    RP2072         202206167116-4115-02             TERMINAL                 CCN000008400000008400FN00000000020220701000008400NNM   20220428121351    4P0P  00000840000000593000000881232DG    BFSAIBF 006400630015
BI00B32DG    RP2071         202206097126-8853-02             TERMINAL                 CCN000015000000015000FN00000000020220701000015000NNM   20220428121351    4P0P  00000750000000562500000847732DG    BFSAIBF 006400630015
BI00B32DG    RP2072         202206167126-8853-02             TERMINAL                 CCN000007500000007500FN00000000020220701000007500NNM   20220428121351    4P0P  00000750000000562500000847732DG    BFSAIBF 006400630015
BI00B32DG    RP2071         202206097126-8854-02             TERMINAL                 CCN000007500000007500FN00000000020220701000007500NNM   20220428121351    4P0P  00000750000000604500000889732DG    BFSAIBF 006400630015
BI00B32DG    RP2072         202206167126-8854-02             TERMINAL                 CCN000007500000007500FN00000000020220701000007500NNM   20220428121351    4P0P  00000750000000604500000889732DG    BFSAIBF 006400630015
BI00B32DG    RP2071         202206097126-8855-02             TERMINAL                 CCN000006000000006000FN00000000020220701000006000NNM   20220428121351    4P0P  00000600000000510600000795832DG    BFSAIBF 006400630015
BI00B32DG    RP2072         202206167126-8855-02             TERMINAL                 CCN000006000000006000FN00000000020220701000006000NNM   20220428121351    4P0P  00000600000000510600000795832DG    BFSAIBF 006400630015
BI00B32DG    RP2071         202206097116-6041                TERMINAL                 CCN000004500000004500FN00000000020220701000004500NNM   20220428121351    4P0P  00000450000000716000001009632DG    BFSAIBF 006400630015
BI00B32DG    RP2071         202206097158-3166-60             WIRE SEAL                CCN000040000000040000FN00000000020220701000040000NNM   20220428121351    1C0C  00004000000000104000000152432DG    BFSAIBF 002700430014
BI00B32DG    RP2071         202206097288-3337-30             HOUSING MALE             CCN000001500000001500FN00000000020220701000001500NNM   20220428121351    4N0N  00000150000000867000001012032DG    BFSAIBF 005400370024
BI00B32DG    @RP2071        202206097283-1556                CONNECTOR ASS'Y          CCN000033600000033600FN00000000020220701000033600NNM   20220428121351    3N0N  00000240000000755000001014032DG    BFSAIBF 005500360039
BI00B32DG    @RP2072        202206167283-1556                CONNECTOR ASS'Y          CCN000016800000016800FN00000000020220701000016800NNM   20220428121351    3N0N  00000240000000755000001014032DG    BFSAIBF 005500360039
BI00B32DG    @RP2073        202206237283-1556                CONNECTOR ASS'Y          CCN000016800000016800FN00000000020220701000016800NNM   20220428121351    3N0N  00000240000000755000001014032DG    BFSAIBF 005500360039
BI00B32DG    @RP2074        202206307283-1556                CONNECTOR ASS'Y          CCN000014400000014400FN00000000020220701000014400NNM   20220428121351    3N0N  00000240000000755000001014032DG    BFSAIBF 005500360039
BI00B32DG    @RP2071        202206097282-1025                HOUSING SUB ASSEMBLY     CCN000004800000004800FN00000000020220701000004800NNM   20220428121351    3N0N  00000240000001143800001390032DG    BFSAIBF 005500360039
BI00B32DG    @RP2072        202206167282-1025                HOUSING SUB ASSEMBLY     CCN000002400000002400FN00000000020220701000002400NNM   20220428121351    3N0N  00000240000001143800001390032DG    BFSAIBF 005500360039
BI00B32DG    @RP2071        202206097183-8049-30             CONNECTOR HOUSING        CCN000004000000004000FN00000000020220701000004000NNM   20220428121351    3F0F  00000400000000588800000714432DG    BFSAIBF 005400370024
BI00B32D1    DFTC2229       202205267289-3342                HOUSING FEMALE ASS'Y     CCN000021600000021600FN00000000020220701000021600NNMD0020220428134652    1N0N  00000240000000686400000901432D1    TOYOT-K 005500360039
BI00B32D2    DGTC2229       202205267289-3342                HOUSING FEMALE ASS'Y     CCN000057600000057600FN00000000020220701000057600NNMD0020220428134857    1N0N  00000240000000686400000901432D2    TGYOT-G 005500360039
BI00B32D2    DGTC2230       202206027114-4032                TERMINAL                 CCN000015000000015000FN00000000020220701000015000NNM   20220428121351    4P0P  00000750000000735000001063632D2    TGYOT-G 006400630017
BI00B32D2    DGTC2230       202206027114-5748-02             TERMINAL                 CCN000024000000024000FN00000000020220701000024000NNM   20220428121351    4P0P  00001200000000444000000737632D2    TGYOT-G 006400630015
BI00B32D2    DGTC2230       202206027114-5753-02             TERMINAL                 CCN000054000000054000FN00000000020220701000054000NNM   20220428121351    4P0P  00002700000000847800001141432D2    TGYOT-G 006400630015
BI00B32D2    DGTC2230       202206027116-2891-02             TERMINAL                 CCN000015000000015000FN00000000020220701000015000NNM   20220428121351    4P0P  00001500000000982500001145932D2    TGYOT-G 005100280028
BI00B32D2    DGTC2230       202206027116-4486-02             TERMINAL                 CCN000056000000056000FN00000000020220701000056000NNM   20220428121351    4P0P  00002800000000666400000995132D2    TGYOT-G 006400630017
BI00B32D2    DGTC2230       202206027116-5045-02             TERMINAL                 CCN000016000000016000FN00000000020220701000016000NNM   20220428121351    4P0P  00001600000000678400001007132D2    TGYOT-G 006400630017
BI00B32D2    DGTC2230       202206027116-5046-02             TERMINAL                 CCN000048000000048000FN00000000020220701000048000NNM   20220428121351    4P0P  00001200000000544800000873532D2    TGYOT-G 006400630017
BI00B32D2    DGTC2230       202206027116-6042                TERMINAL                 CCN000027000000027000FN00000000020220701000027000NNM   20220428121351    4P0P  00000300000000523800000856132D2    TGYOT-G 006400630015
BI00B32D2    DGTC2230       202206027126-8853-02             TERMINAL                 CCN000060000000060000FN00000000020220701000060000NNM   20220428121351    4P0P  00000750000000562500000847732D2    TGYOT-G 006400630015
BI00B32D2    DGTC2230       202206027126-8854-02             TERMINAL                 CCN000037500000037500FN00000000020220701000037500NNM   20220428121351    4P0P  00000750000000604500000889732D2    TGYOT-G 006400630015
BI00B32D2    DGTC2230       202206027126-8855-02             TERMINAL                 CCN000066000000066000FN00000000020220701000066000NNM   20220428121351    4P0P  00000600000000510600000795832D2    TGYOT-G 006400630015
BI00B32D2    DGTC2230       202206027158-3070-80             RUBBER STOPPER           CCN000040000000040000FN00000000020220701000040000NNM   20220428121351    1C0C  00004000000000276000000333332D2    TGYOT-G 002700430014
BI00B32D2    DGTC2230       202206027158-3167-80             WIRE SEAL                CCN000060000000060000FN00000000020220701000060000NNM   20220428121351    1C0C  00002000000000048000000109032D2    TGYOT-G 002700430014
BI00B32D2    DGTC2230       202206027173-3291-40             LIF LEVER                CCN000007200000007200FN00000000020220701000007200NNM   20220428121351    1F0F  00000240000000867800001067832D2    TGYOT-G 005500360039
BI00B32D2    DGTC2230       202206027196-0396-02             TERMINAL                 CCN000015000000015000FN00000000020220701000015000NNM   20220428121351    4P0P  00001500000000949500001112932D2    TGYOT-G 002800510028
BI00B32D2    DGTC2230       202206027196-1325-02             TERMINAL FEMALE          CCN000180000000180000FN00000000020220701000180000NNM   20220428121351    4P0P  00006000000000450000000778732D2    TGYOT-G 006400630017
BI00B32D2    DGTC2230       202206027196-1326-02             TERMINAL FEMALE          CCN000360000000360000FN00000000020220701000360000NNM   20220428121351    4P0P  00006000000000456000000784732D2    TGYOT-G 006400630017
BI00B32D2    DGTC2230       202206027196-1327-02             TERMINAL FEMALE          CCN000052000000052000FN00000000020220701000052000NNM   20220428121351    4P0P  00005200000000336000000739532D2    TGYOT-G 006400630017
BI00B32D2    DGTC2230       202206027283-1156                CONNECTOR                CCN000000800000000800FN00000000020220701000000800NNM   20220428121351    4N0N  00000080000000877600001078032D2    TGYOT-G 005600390040
BI00B32D2    DGTC2230       202206027288-6547                CONNECTOR MALE ASS'Y     CCN000001500000001500FN00000000020220701000001500NNM   20220428121351    4N0N  00000075000001205300001340332D2    TGYOT-G 005400370024
BI00B32D2    DGTC2230       202206027289-3342                HOUSING FEMALE ASS'Y     CCN000028800000028800FN00000000020220701000028800NNM   20220428121351    1N0N  00000240000000686400000901432D2    TGYOT-G 005500360039
BI00B32D2    DGTC2230       202206027289-3342-30             HOUSING FEMALE ASS'Y     CCN000016800000016800FN00000000020220701000016800NNM   20220428121351    1N0N  00000240000000686400000901432D2    TGYOT-G 005500360039
BI00B32D2    DGTC2230       202206027289-3342-40             HOUSING FEMALE ASS'Y     CCN000016800000016800FN00000000020220701000016800NNM   20220428121351    1N0N  00000240000000686400000901432D2    TGYOT-G 005500360039
BI00B32D2    DGTC2230       202206027289-3342-90             HOUSING FEMALE ASS'Y     CCN000019200000019200FN00000000020220701000019200NNM   20220428121351    1N0N  00000240000000686400000901432D2    TGYOT-G 005500360039
BI00B32D2    DGTC2230       202206027289-6518-30             HOUSING FEMALE ASS'Y     CCN000006000000006000FN00000000020220701000006000NNM   20220428121351    1N0N  00000120000000829200001049232D2    TGYOT-G 005500360039
BI00B32D2    DGTC2230       202206027296-0784-02             TERMINAL ALUMINIUM       CCN000024000000024000FN00000000020220701000024000NNM   20220428121351    4P0P  00002400000000480000000765232D2    TGYOT-G 006400630015
BI00B32D2    DGTC2230       202206027296-1024-02             TERMINAL ALUMINIUM       CCN000018000000018000FN00000000020220701000018000NNM   20220428121351    4P0P  00001800000000698400000983632D2    TGYOT-G 006400630015
BI00B32D2    DGTC2230       202206027327-6803                MULTI FUSE               CCN000000560000000560FN00000000020220701000000560NNM   20220428121351    4N0N  00000056000000854600001067032D2    TGYOT-G 005400370024
BI00B32D2    DGTC2230       202206027327-6806                MULTI FUSE               CCN000001120000001120FN00000000020220701000001120NNM   20220428121351    4N0N  00000056000000851500001063932D2    TGYOT-G 005400370024
BI00B32D2    DGTC2230       202206027327-6809                MULTI FUSE               CCN000002800000002800FN00000000020220701000002800NNM   20220428121351    4N0N  00000056000000849300001061732D2    TGYOT-G 005400370024
BI00B32D2    DGTC2230       202206027327-6930                MULTI FUSE               CCN000000560000000560FN00000000020220701000000560NNM   20220428121351    4N0N  00000056000000848900001031932D2    TGYOT-G 005400370024
BI00B32D2    DGTC2230       202206027388-2978-30             HOUSING MALE ASS'Y       CCN000010560000010560FN00000000020220701000010560NNM   20220428121351    1N0N  00000048000000742000001122032D2    TGYOT-G 005500360039
BI00B32D2    #DGTC2230      202206027158-3003-90             RUBBER STOPPER           CCN000100000000100000FN00000000020220701000100000NNM   20220428121351    2C0C  00002000000000250000000306032D2    TGYOT-G 002700430014
BI00B32D2    #DGTC2230      202206027158-3005-80             RUBBER STOPPER           CCN000020000000020000FN00000000020220701000020000NNM   20220428121351    2H0H  00002000000000210000000268732D2    TGYOT-G 002700430014
BI00B32D2    #DGTC2230      202206027158-3008-80             RUBBER STOPPER           CCN000040000000040000FN00000000020220701000040000NNM   20220428121351    2C0C  00002000000000288000000343032D2    TGYOT-G 004300270014
BI00B32D2    #DGTC2230      202206027158-3015-10             RUBBER STOPPER           CCN000020000000020000FN00000000020220701000020000NNM   20220428121351    2C0C  00001000000000419500000474032D2    TGYOT-G 002700430014
BI00B32D2    #DGTC2230      202206027158-3017                RUBBER STOPPER           CCN000010000000010000FN00000000020220701000010000NNM   20220428121351    2C0C  00001000000000375500000435032D2    TGYOT-G 002700430014
BI00B32D2    #DGTC2230      202206027172-5625-90             RUBBER STOPPER           CCN000020000000020000FN00000000020220701000020000NNM   20220428121351    2H0H  00002000000000082400000133832D2    TGYOT-G 004300270014
BI00B32D2    #DGTC2230      202206027172-5629-80             RUBBER STOPPER           CCN000200000000200000FN00000000020220701000200000NNM   20220428121351    2H0H  00002000000000060000000111132D2    TGYOT-G 004300270014
BI00B32D2    #DGTC2230      202206027172-5630-40             RUBBER STOPPER           CCN000140000000140000FN00000000020220701000140000NNM   20220428121351    2H0H  00002000000000044000000095132D2    TGYOT-G 004300270014
BI00B32D2    #DGTC2230      202206027172-5631-60             RUBBER STOPPER           CCN000060000000060000FN00000000020220701000060000NNM   20220428121351    2H0H  00002000000000042000000093132D2    TGYOT-G 004300270014
BI00B32D2    #DGTC2230      202206027172-5632-10             DUMMY PLUG               CCN000080000000080000FN00000000020220701000080000NNM   20220428121351    2H0H  00002000000000080400000131832D2    TGYOT-G 004300270014
BI00B32D2    #DGTC2230      202206027189-2978-30             HOUSING FEMALE           CCN000010500000010500FN00000000020220701000010500NNM   20220428121351    2F0F  00000150000000966900001096932D2    TGYOT-G 005400370024
BI00B32D2    #DGTC2230      202206027283-8226-30             CONNECTOR                CCN000002000000002000FN00000000020220701000002000NNM   20220428121351    2N0N  00000200000000820000001008032D2    TGYOT-G 005400370024
BI00B32D2    #DGTC2230      202206027289-2912-40             HOUSING FEMALE ASS'Y     CCN000002000000002000FN00000000020220701000002000NNM   20220428121351    2N0N  00000200000000804000000931032D2    TGYOT-G 005400370024
BI00B32D2    #DGTC2230      202206027289-3622-30             HOUSING FEMALE ASS'Y     CCN000000864000000864FN00000000020220701000000864NNM   20220428121351    2N0N  00000043200000839400001038432D2    TGYOT-G 005400370024
BI00B32D2    DGTC2230B      202205267114-4032                TERMINAL                 CCN000022500000022500FN00000000020220701000022500NNE   20220428121351    4P0P  00000750000000735000001063632D2    TGYOT-G 006400630017
BI00B32D2    DGTC2230B      202205267114-5748-02             TERMINAL                 CCN000012000000012000FN00000000020220701000012000NNE   20220428121351    4P0P  00001200000000444000000737632D2    TGYOT-G 006400630015
BI00B32D2    DGTC2230B      202205267114-5753-02             TERMINAL                 CCN000054000000054000FN00000000020220701000054000NNE   20220428121351    4P0P  00002700000000847800001141432D2    TGYOT-G 006400630015
BI00B32D2    DGTC2230B      202205267116-2891-02             TERMINAL                 CCN000030000000030000FN00000000020220701000030000NNE   20220428121351    4P0P  00001500000000982500001145932D2    TGYOT-G 005100280028
BI00B32D2    DGTC2230B      202205267116-4486-02             TERMINAL                 CCN000028000000028000FN00000000020220701000028000NNE   20220428121351    4P0P  00002800000000666400000995132D2    TGYOT-G 006400630017
BI00B32D2    DGTC2230B      202205267116-5045-02             TERMINAL                 CCN000032000000032000FN00000000020220701000032000NNE   20220428121351    4P0P  00001600000000678400001007132D2    TGYOT-G 006400630017
BI00B32D2    DGTC2230B      202205267116-5046-02             TERMINAL                 CCN000036000000036000FN00000000020220701000036000NNE   20220428121351    4P0P  00001200000000544800000873532D2    TGYOT-G 006400630017
BI00B32D2    DGTC2230B      202205267116-6042                TERMINAL                 CCN000036000000036000FN00000000020220701000036000NNE   20220428121351    4P0P  00000300000000523800000856132D2    TGYOT-G 006400630015
BI00B32D2    DGTC2230B      202205267126-8853-02             TERMINAL                 CCN000060000000060000FN00000000020220701000060000NNE   20220428121351    4P0P  00000750000000562500000847732D2    TGYOT-G 006400630015
BI00B32D2    DGTC2230B      202205267126-8854-02             TERMINAL                 CCN000045000000045000FN00000000020220701000045000NNE   20220428121351    4P0P  00000750000000604500000889732D2    TGYOT-G 006400630015
BI00B32D2    DGTC2230B      202205267126-8855-02             TERMINAL                 CCN000072000000072000FN00000000020220701000072000NNE   20220428121351    4P0P  00000600000000510600000795832D2    TGYOT-G 006400630015
BI00B32D2    DGTC2230B      202205267158-3070-80             RUBBER STOPPER           CCN000040000000040000FN00000000020220701000040000NNE   20220428121351    1C0C  00004000000000276000000333332D2    TGYOT-G 002700430014
BI00B32D2    DGTC2230B      202205267158-3167-80             WIRE SEAL                CCN000060000000060000FN00000000020220701000060000NNE   20220428121351    1C0C  00002000000000048000000109032D2    TGYOT-G 002700430014
BI00B32D2    DGTC2230B      202205267173-3291-40             LIF LEVER                CCN000004800000004800FN00000000020220701000004800NNE   20220428121351    1F0F  00000240000000867800001067832D2    TGYOT-G 005500360039
BI00B32D2    DGTC2230B      202205267196-1325-02             TERMINAL FEMALE          CCN000240000000240000FN00000000020220701000240000NNE   20220428121351    4P0P  00006000000000450000000778732D2    TGYOT-G 006400630017
BI00B32D2    DGTC2230B      202205267196-1326-02             TERMINAL FEMALE          CCN000600000000600000FN00000000020220701000600000NNE   20220428121351    4P0P  00006000000000456000000784732D2    TGYOT-G 006400630017
BI00B32D2    DGTC2230B      202205267196-1327-02             TERMINAL FEMALE          CCN000052000000052000FN00000000020220701000052000NNE   20220428121351    4P0P  00005200000000336000000739532D2    TGYOT-G 006400630017
BI00B32D2    DGTC2230B      202205267288-6547                CONNECTOR MALE ASS'Y     CCN000003000000003000FN00000000020220701000003000NNE   20220428121351    4N0N  00000075000001205300001340332D2    TGYOT-G 005400370024
BI00B32D2    DGTC2230B      202205267289-3342                HOUSING FEMALE ASS'Y     CCN000024000000024000FN00000000020220701000024000NNE   20220428121351    1N0N  00000240000000686400000901432D2    TGYOT-G 005500360039
BI00B32D2    DGTC2230B      202205267289-6518-30             HOUSING FEMALE ASS'Y     CCN000006000000006000FN00000000020220701000006000NNE   20220428121351    1N0N  00000120000000829200001049232D2    TGYOT-G 005500360039
BI00B32D2    DGTC2230B      202205267296-0784-02             TERMINAL ALUMINIUM       CCN000048000000048000FN00000000020220701000048000NNE   20220428121351    4P0P  00002400000000480000000765232D2    TGYOT-G 006400630015
BI00B32D2    DGTC2230B      202205267327-6806                MULTI FUSE               CCN000000560000000560FN00000000020220701000000560NNE   20220428121351    4N0N  00000056000000851500001063932D2    TGYOT-G 005400370024
BI00B32D2    DGTC2230B      202205267327-6809                MULTI FUSE               CCN000005600000005600FN00000000020220701000005600NNE   20220428121351    4N0N  00000056000000849300001061732D2    TGYOT-G 005400370024
BI00B32D2    DGTC2230B      202205267327-6930                MULTI FUSE               CCN000000560000000560FN00000000020220701000000560NNE   20220428121351    4N0N  00000056000000848900001031932D2    TGYOT-G 005400370024
BI00B32D2    DGTC2230B      202205267388-2978-30             HOUSING MALE ASS'Y       CCN000011520000011520FN00000000020220701000011520NNE   20220428121351    1N0N  00000048000000742000001122032D2    TGYOT-G 005500360039
BI00B32D2    #DGTC2230B     202205267158-3003-90             RUBBER STOPPER           CCN000120000000120000FN00000000020220701000120000NNE   20220428121351    2C0C  00002000000000250000000306032D2    TGYOT-G 002700430014
BI00B32D2    #DGTC2230B     202205267158-3008-80             RUBBER STOPPER           CCN000040000000040000FN00000000020220701000040000NNE   20220428121351    2C0C  00002000000000288000000343032D2    TGYOT-G 004300270014
BI00B32D2    #DGTC2230B     202205267158-3017                RUBBER STOPPER           CCN000010000000010000FN00000000020220701000010000NNE   20220428121351    2C0C  00001000000000375500000435032D2    TGYOT-G 002700430014
BI00B32D2    #DGTC2230B     202205267172-5629-80             RUBBER STOPPER           CCN000140000000140000FN00000000020220701000140000NNE   20220428121351    2H0H  00002000000000060000000111132D2    TGYOT-G 004300270014
BI00B32D2    #DGTC2230B     202205267172-5630-40             RUBBER STOPPER           CCN000140000000140000FN00000000020220701000140000NNE   20220428121351    2H0H  00002000000000044000000095132D2    TGYOT-G 004300270014
BI00B32D2    #DGTC2230B     202205267172-5631-60             RUBBER STOPPER           CCN000060000000060000FN00000000020220701000060000NNE   20220428121351    2H0H  00002000000000042000000093132D2    TGYOT-G 004300270014
BI00B32D2    #DGTC2230B     202205267172-5632-10             DUMMY PLUG               CCN000120000000120000FN00000000020220701000120000NNE   20220428121351    2H0H  00002000000000080400000131832D2    TGYOT-G 004300270014
BI00B32D2    #DGTC2230B     202205267189-2978-30             HOUSING FEMALE           CCN000010500000010500FN00000000020220701000010500NNE   20220428121351    2F0F  00000150000000966900001096932D2    TGYOT-G 005400370024
BI00B32D2    #DGTC2230B     202205267283-8226-30             CONNECTOR                CCN000002000000002000FN00000000020220701000002000NNE   20220428121351    2N0N  00000200000000820000001008032D2    TGYOT-G 005400370024
BI00B32D9    I22106         202205057183-2417                CONNECTOR HOUSING        CCN000002400000002400FN00000000020220501000002400NNM00020220428160857    4F0F  00000240000001137400001297732D9    UEHESTO 005500360039
BI00B32D9    I22106         202205057235-8662                DOOR GROMMET             CCN000000640000000640FN00000000020220501000000640NNM00020220428160857    4N0N  00000016000000844000001010032D9    UEHESTO 005500360039
BI00B32D9    I22106         202205057282-5574-10             CONNECTOR                CCN000000800000000800FN00000000020220501000000800NNM00020220428160857    4N0N  00000080000001235000001423032D9    UEHESTO 005600390040
BI00B32D9    I22106         202205057283-1156                CONNECTOR                CCN000007200000007200FN00000000020220501000007200NNM00020220428160857    4N0N  00000080000000877600001078032D9    UEHESTO 005600390040
BI00B32D9    I22106         202205057283-1288-40             CONNECTOR HOUSING        CCN000003600000003600FN00000000020220501000003600NNM00020220428160857    1N0N  00000120000001382000001640732D9    UEHESTO 005600390040
BI00B32D9    I22106         202205057283-8228-40             CONNECTOR                CCN000003000000003000FN00000000020220501000003000NNM00020220428160857    4N0N  00000300000001215000001361032D9    UEHESTO 005600390040
BI00B32D9    I22106         202205057287-1915-90             CONNECTOR ASS'Y          CCN000002400000002400FN00000000020220501000002400NNM00020220428160857    4N0N  00000240000000666500000923132D9    UEHESTO 005500360039
BI00B32D9    I22106         202205057288-6547                CONNECTOR MALE ASS'Y     CCN000000750000000750FN00000000020220501000000750NNM00020220428160857    4N0N  00000075000001205300001340332D9    UEHESTO 005400370024
BI00B32D9    I22106         202205057327-6731-3W             BATTERY FUSE             CCN000000512000000512FN00000000020220501000000512NNM00020220428160942    4N0N  00000006400000697600000843032D9    UEHESTO 005400370024
BI00B32D9    I22106         202205057388-0313-30             CONNECTOR ASS'Y          CCN000001200000001200FN00000000020220501000001200NNM00020220428161008    4N0N  00000120000000995000001125032D9    UEHESTO 005400370024
BI00B32EJ    T220413P01     202205127158-3006-90             RUBBER STOPPER           CCN000020000000000000FY00000000020220501000000000NNEQ0820220428115013EJ  1C0C  00002000000000330600000386032EJ    EJYKBO  002700430014
BI00B32E1    #NC207A        202205187158-3003-90             RUBBER STOPPER           CCN000040000000040000FN00000000020220701000040000NNED0720220428121351    2C0C  00002000000000250000000306032E1    SPYSE   002700430014
BI00B32G2    SA22071 MW     202207067254-5840-30             ENG R/B SUB ASS'Y        CCN000000264000000264FN00000000020220701000000264NNMD0220220428153625    4J0J  00000002400000732000000952032G2    AISUAI  005600390040
BI00B32G2    SA22072 MW     202207207254-5840-30             ENG R/B SUB ASS'Y        CCN000000216000000216FN00000000020220701000000216NNMD0220220428153644    4J0J  00000002400000732000000952032G2    AISUAI  005600390040
BI00B32G2    SA22073 MW     202207207254-5840-30             ENG R/B SUB ASS'Y        CCN000000168000000168FN00000000020220701000000168NNMD0220220428153706    4J0J  00000002400000732000000952032G2    AISUAI  005600390040
BI00B32G2    SA22074 MW     202207277254-5840-30             ENG R/B SUB ASS'Y        CCN000000144000000144FN00000000020220701000000144NNMD0220220428153721    4J0J  00000002400000732000000952032G2    AISUAI  005600390040
BI00A32H2    TIJ205N        202205047282-4578                HOUSING MALE ASS'Y       CCN000006000000000000FY00000000020220501000000000NNEQ0820220428144749    4N0N  00000120000000782600000992632H2    HVYHV   005500360039
BI00B32H2    TIJ205N        202206107283-4855                CONNECTOR HOUSING        CCN000009600000009600FN00000000020220501000009600NNEM0020220428144537    4N0N  00000240000001188400001400032H2    HVYHV   005500360039
BI00B32H2    TIJ205V        202205137470-5304                J/B COMPLETE ASS'Y       CCN000000500000000500FN00000000020220501000000500NNED0720220428121351    4J0J  00000001000000494000000661032H2    HVYHV   005400370024
BI00B32H2    TIJ206E        202205277470-5304                J/B COMPLETE ASS'Y       CCN000000400000000400FN00000000020220601000000400NNED0220220428121351    4J0J  00000001000000494000000661032H2    HVYHV   005400370024
BI00B32J1    394029         202206137116-2952-02             TERMINAL                 CCN000005400000005400FN00000000020220601000005400NNE   20220428132828    4P0P  00000540000000765200001148832J1    UKYEL-BL006400630015
BI00B32J1    #394029        202206137183-7725-40             HOUSING                  CCN000012000000012000FN00000000020220601000012000NNE   20220428132825    2F0F  00000600000000840000001040032J1    UKYEL-BL005600390040
BI00B32J1    #394029        202206137282-5545-30             CONNECTOR                CCN000000800000000800FN00000000020220601000000800NNE   20220428132825    2N0N  00000080000001309000001488032J1    UKYEL-BL005500360039
BI00B32K8    #K1220010826   202205207137-2719-50             SEALED CONNECTOR         CCN000015000000015000FN00000000020220601000015000NNM00020220428130624    2C0C  00000100000000120700000185732K8    ELELCOM 002700430014
BI00B32M1    TCV2054        202204297116-5045-02             TERMINAL                 CCN000224000000224000FN00000000020220501000224000NNM00020220428121351    4P0P  00001600000000678400001007132M1    VNYEV   006400630017
BI00B32M1    TCV2054        202204297116-5046-02             TERMINAL                 CCN000180000000180000FN00000000020220501000180000NNM00020220428121351    4P0P  00001200000000544800000873532M1    VNYEV   006400630017
BI00B32M1    TCV2054        202204297116-5097-02             TERMINAL                 CCN000045000000045000FN00000000020220501000045000NNM00020220428121351    4P0P  00002250000000531000000816232M1    VNYEV   006400630015
BI00B32M1    TCV2054        202204297116-5750-02             TERMINAL                 CCN000300000000300000FN00000000020220501000300000NNM00020220428121351    4P0P  00001500000000457500000742732M1    VNYEV   006400630015
BI00B32M1    TCV2054        202204297116-5751-02             TERMINAL                 CCN000396000000396000FN00000000020220501000396000NNM00020220428121351    4P0P  00001200000000379200000664432M1    VNYEV   006400630015
BI00B32M1    TCV2054        202204297116-5752-02             TERMINAL                 CCN000420000000420000FN00000000020220501000420000NNM00020220428121351    4P0P  00002100000000571200000856432M1    VNYEV   006400630015
BI00B32M1    TCV2054        202204297116-6041                TERMINAL                 CCN000013500000013500FN00000000020220501000013500NNM00020220428121351    4P0P  00000450000000716000001009632M1    VNYEV   006400630015
BI00B32M1    TCV2054        202204297116-6042                TERMINAL                 CCN000039000000039000FN00000000020220501000039000NNM00020220428121351    4P0P  00000300000000523800000856132M1    VNYEV   006400630015
BI00B32M1    TCV2061        202204297282-1119-30             HOUSING MALE ASS'Y       CCN000007776000002880FN00000000020220601000002880NNM00020220428121351    4N0N  00000028800000821700001008032M1    VNYEV   005400370024
BI00B32M1    TCV2061        202204297286-1900                CONNECTOR HOUSING        CCN000009600000009600FN00000000020220601000009600NNM00020220428121351    4N0N  00000480000001161600001376632M1    VNYEV   005500360039
BI00B32M1    TCV2061        202204297126-8855-02             TERMINAL                 CCN000120000000120000FN00000000020220601000120000NNM00020220428121351    4P0P  00000600000000510600000795832M1    VNYEV   006400630015
BI00B32M4    #TL2064A       202206027114-4022                TERMINAL                 CCN000015000000015000FN00000000020220601000015000NNE   20220428121351    2F0P  00001500000000708000001120632M4    SISAI   006400630015
BI00B32M4    #TL2064A       202206027158-7585-30             BLOCK LIF                CCN000000800000000800FN00000000020220601000000800NNE   20220428121351    2F0F  00000080000000617400000771532M4    SISAI   005500360039
BI00B32M4    #TL2064A       202206027157-8991-80             RUBBER STOPPER           CCN000020000000020000FN00000000020220601000020000NNE   20220428121351    2C0C  00002000000000214000000271032M4    SISAI   002700430014
BI00B32M4    TP2064C        202206027017-1180-02             TERMINAL                 CCN000072000000072000FN00000000020220601000072000NNE   20220428121351    4P0P  00007200000001065600001229032M4    SISAI   005100280028
BI00B32M4    TP2064C        202206027283-1927-30             CONNECTOR                CCN000002000000002000FN00000000020220601000002000NNE   20220428121351    4N0N  00000200000001190000001368032M4    SISAI   005500360039
BI00B32M4    TP2064C        202206027283-7476                CONNECTOR                CCN000001500000001500FN00000000020220601000001500NNE   20220428121351    1N0N  00000150000000915000001132032M4    SISAI   005600390040
BI00B32M4    TP2064C        202206027283-8692                CONNECTOR HOUSING        CCN000001500000001500FN00000000020220601000001500NNE   20220428121351    1N0N  00000150000000795000001012032M4    SISAI   005600390040
BI00B32M4    TP2064C        202206027196-0511-02             TERMINAL                 CCN000024000000024000FN00000000020220601000024000NNE   20220428121351    4P0P  00002400000000916800001080232M4    SISAI   002800510028
BI00B32M4    TP2064C        202206027296-0784-02             TERMINAL ALUMINIUM       CCN000024000000024000FN00000000020220601000024000NNE   20220428121351    4P0P  00002400000000480000000765232M4    SISAI   006400630015
BI00B32M4    #TL2071        202206097125-3236                HEAD LAMP CONNECTOR      CCN000002800000002800FN00000000020220701000002800NNM   20220428121351    2F0F  00000280000000935200001075432M4    SISAI   005500360039
BI00B32M4    #TL2072        202206167125-3236                HEAD LAMP CONNECTOR      CCN000002800000002800FN00000000020220701000002800NNM   20220428121351    2F0F  00000280000000935200001075432M4    SISAI   005500360039
BI00B32M4    #TL2071        202206097157-6826-80             REAR HOLDER              CCN000015000000015000FN00000000020220701000015000NNM   20220428121351    2F0F  00001500000001234500001394132M4    SISAI   005600390040
BI00B32M4    #TL2071        202206097158-3075-10             SEALED CONNECTOR         CCN000040000000040000FN00000000020220701000040000NNM   20220428121351    2C0C  00004000000000376000000429732M4    SISAI   002700430014
BI00B32M4    #TL2071        202206097283-5834                CONNECTOR ASS'Y          CCN000009720000009720FN00000000020220701000009720NNM   20220428121351    2N0N  00000324000001296000001849732M4    SISAI   005600390040
BI00B32M4    #TL2072        202206167283-5834                CONNECTOR ASS'Y          CCN000006480000006480FN00000000020220701000006480NNM   20220428121351    2N0N  00000324000001296000001849732M4    SISAI   005600390040
BI00B32M4    #TL2073        202206237283-5834                CONNECTOR ASS'Y          CCN000006480000006480FN00000000020220701000006480NNM   20220428121351    2N0N  00000324000001296000001849732M4    SISAI   005600390040
BI00B32M4    #TL2071        202206097283-5834-30             CONNECTOR ASS'Y          CCN000006480000006480FN00000000020220701000006480NNM   20220428121351    2N0N  00000324000001296000001853432M4    SISAI   005600390040
BI00B32M4    #TL2072        202206167283-5834-30             CONNECTOR ASS'Y          CCN000003240000003240FN00000000020220701000003240NNM   20220428121351    2N0N  00000324000001296000001853432M4    SISAI   005600390040
BI00B32M4    #TL2073        202206237283-5834-30             CONNECTOR ASS'Y          CCN000003240000003240FN00000000020220701000003240NNM   20220428121351    2N0N  00000324000001296000001853432M4    SISAI   005600390040
BI00B32M4    #TL2071        202206097183-6320                HOUSING                  CCN000004800000004800FN00000000020220701000004800NNM   20220428121351    2F0F  00000480000000820800001103632M4    SISAI   005500360039
BI00B32M4    #TL2072        202206167183-6320                HOUSING                  CCN000004800000004800FN00000000020220701000004800NNM   20220428121351    2F0F  00000480000000820800001103632M4    SISAI   005500360039
BI00B32M4    #TL2071        202206097183-1615                HOUSING                  CCN000009600000009600FN00000000020220701000009600NNM   20220428121351    2F0F  00000480000000757000001042032M4    SISAI   005500360039
BI00B32M4    #TL2072        202206167183-1615                HOUSING                  CCN000004800000004800FN00000000020220701000004800NNM   20220428121351    2F0F  00000480000000757000001042032M4    SISAI   005500360039
BI00B32M4    #TL2073        202206237183-1615                HOUSING                  CCN000004800000004800FN00000000020220701000004800NNM   20220428121351    2F0F  00000480000000757000001042032M4    SISAI   005500360039
BI00B32M4    #TL2071        202206097183-2415-30             CONNECTOR HOUSING        CCN000004800000004800FN00000000020220701000004800NNM   20220428121351    2F0F  00000480000000798200001091432M4    SISAI   005500360039
BI00B32M4    #TL2071        202206097183-2413-30             CONNECTOR HOUSING        CCN000004800000004800FN00000000020220701000004800NNM   20220428121351    2F0F  00000480000000477600000759532M4    SISAI   005500360039
BI00B32M4    #TL2072        202206167183-2413-30             CONNECTOR HOUSING        CCN000004800000004800FN00000000020220701000004800NNM   20220428121351    2F0F  00000480000000477600000759532M4    SISAI   005500360039
BI00B32M4    #TL2071        202206097114-4022                TERMINAL                 CCN000015000000015000FN00000000020220701000015000NNM   20220428121351    2F0P  00001500000000708000001120632M4    SISAI   006400630015
BI00B32M4    #TL2071        202206097158-3008-80             RUBBER STOPPER           CCN000180000000180000FN00000000020220701000180000NNM   20220428121351    2C0C  00002000000000288000000343032M4    SISAI   004300270014
BI00B32M4    #TL2072        202206167158-3008-80             RUBBER STOPPER           CCN000100000000100000FN00000000020220701000100000NNM   20220428121351    2C0C  00002000000000288000000343032M4    SISAI   004300270014
BI00B32M4    #TL2073        202206237158-3008-80             RUBBER STOPPER           CCN000100000000100000FN00000000020220701000100000NNM   20220428121351    2C0C  00002000000000288000000343032M4    SISAI   004300270014
BI00B32M4    #TL2074        202206307158-3008-80             RUBBER STOPPER           CCN000060000000060000FN00000000020220701000060000NNM   20220428121351    2C0C  00002000000000288000000343032M4    SISAI   004300270014
BI00B32M4    #TL2071        202206097158-3015-10             RUBBER STOPPER           CCN000070000000070000FN00000000020220701000070000NNM   20220428121351    2C0C  00001000000000419500000474032M4    SISAI   002700430014
BI00B32M4    #TL2072        202206167158-3015-10             RUBBER STOPPER           CCN000040000000040000FN00000000020220701000040000NNM   20220428121351    2C0C  00001000000000419500000474032M4    SISAI   002700430014
BI00B32M4    #TL2073        202206237158-3015-10             RUBBER STOPPER           CCN000040000000040000FN00000000020220701000040000NNM   20220428121351    2C0C  00001000000000419500000474032M4    SISAI   002700430014
BI00B32M4    #TL2074        202206307158-3015-10             RUBBER STOPPER           CCN000020000000020000FN00000000020220701000020000NNM   20220428121351    2C0C  00001000000000419500000474032M4    SISAI   002700430014
BI00B32M4    #TL2071        202206097158-3017                RUBBER STOPPER           CCN000060000000060000FN00000000020220701000060000NNM   20220428121351    2C0C  00001000000000375500000435032M4    SISAI   002700430014
BI00B32M4    #TL2072        202206167158-3017                RUBBER STOPPER           CCN000030000000030000FN00000000020220701000030000NNM   20220428121351    2C0C  00001000000000375500000435032M4    SISAI   002700430014
BI00B32M4    #TL2073        202206237158-3017                RUBBER STOPPER           CCN000030000000030000FN00000000020220701000030000NNM   20220428121351    2C0C  00001000000000375500000435032M4    SISAI   002700430014
BI00B32M4    #TL2074        202206307158-3017                RUBBER STOPPER           CCN000010000000010000FN00000000020220701000010000NNM   20220428121351    2C0C  00001000000000375500000435032M4    SISAI   002700430014
BI00B32M4    #TL2071        202206097158-7585-30             BLOCK LIF                CCN000000800000000800FN00000000020220701000000800NNM   20220428121351    2F0F  00000080000000617400000771532M4    SISAI   005500360039
BI00B32M4    #TL2071        202206097158-7586-30             BLOCK LIF                CCN000000800000000800FN00000000020220701000000800NNM   20220428121351    2F0F  00000080000000617400000844232M4    SISAI   005500360039
BI00B32M4    #TL2071        202206097183-2414                CONNECTOR HOUSING        CCN000004800000004800FN00000000020220701000004800NNM   20220428121351    2F0F  00000480000000779200001061032M4    SISAI   005500360039
BI00B32M4    #TL2071        202206097173-3225-10             LIF LEVER                CCN000000800000000800FN00000000020220701000000800NNM   20220428121351    2F0F  00000080000000592000000712032M4    SISAI   005500360039
BI00B32M4    #TL2072        202206167173-3225-10             LIF LEVER                CCN000000800000000800FN00000000020220701000000800NNM   20220428121351    2F0F  00000080000000592000000712032M4    SISAI   005500360039
BI00B32M4    #TL2071        202206097158-3005-80             RUBBER STOPPER           CCN000080000000080000FN00000000020220701000080000NNM   20220428121351    2H0H  00002000000000210000000268732M4    SISAI   002700430014
BI00B32M4    #TL2072        202206167158-3005-80             RUBBER STOPPER           CCN000040000000040000FN00000000020220701000040000NNM   20220428121351    2H0H  00002000000000210000000268732M4    SISAI   002700430014
BI00B32M4    #TL2073        202206237158-3005-80             RUBBER STOPPER           CCN000040000000040000FN00000000020220701000040000NNM   20220428121351    2H0H  00002000000000210000000268732M4    SISAI   002700430014
BI00B32M4    #TL2074        202206307158-3005-80             RUBBER STOPPER           CCN000040000000040000FN00000000020220701000040000NNM   20220428121351    2H0H  00002000000000210000000268732M4    SISAI   002700430014
BI00B32M4    #TL2071        202206097189-3033                HOUSING FEMALE           CCN000011200000011200FN00000000020220701000011200NNM   20220428121351    2F0F  00000160000001211200001431232M4    SISAI   005500360039
BI00B32M4    #TL2072        202206167189-3033                HOUSING FEMALE           CCN000006400000006400FN00000000020220701000006400NNM   20220428121351    2F0F  00000160000001211200001431232M4    SISAI   005500360039
BI00B32M4    #TL2073        202206237189-3033                HOUSING FEMALE           CCN000006400000006400FN00000000020220701000006400NNM   20220428121351    2F0F  00000160000001211200001431232M4    SISAI   005500360039
BI00B32M4    #TL2074        202206307189-3033                HOUSING FEMALE           CCN000003200000003200FN00000000020220701000003200NNM   20220428121351    2F0F  00000160000001211200001431232M4    SISAI   005500360039
BI00B32M4    #TL2071        202206097189-3036-30             HOUSING FEMALE           CCN000001600000001600FN00000000020220701000001600NNM   20220428121351    2F0F  00000160000000920000001140032M4    SISAI   005500360039
BI00B32M4    #TL2071        202206097158-8627                GROMMET INNER            CCN000006000000006000FN00000000020220701000006000NNM   20220428121351    2F0F  00000200000000656200000840032M4    SISAI   005600390040
BI00B32M4    #TL2072        202206167158-8627                GROMMET INNER            CCN000004000000004000FN00000000020220701000004000NNM   20220428121351    2F0F  00000200000000656200000840032M4    SISAI   005600390040
BI00B32M4    #TL2073        202206237158-8627                GROMMET INNER            CCN000004000000004000FN00000000020220701000004000NNM   20220428121351    2F0F  00000200000000656200000840032M4    SISAI   005600390040
BI00B32M4    #TL2071        202206097172-5625-90             RUBBER STOPPER           CCN000280000000280000FN00000000020220701000280000NNM   20220428121351    2H0H  00002000000000082400000133832M4    SISAI   004300270014
BI00B32M4    #TL2072        202206167172-5625-90             RUBBER STOPPER           CCN000140000000140000FN00000000020220701000140000NNM   20220428121351    2H0H  00002000000000082400000133832M4    SISAI   004300270014
BI00B32M4    #TL2073        202206237172-5625-90             RUBBER STOPPER           CCN000140000000140000FN00000000020220701000140000NNM   20220428121351    2H0H  00002000000000082400000133832M4    SISAI   004300270014
BI00B32M4    #TL2074        202206307172-5625-90             RUBBER STOPPER           CCN000100000000100000FN00000000020220701000100000NNM   20220428121351    2H0H  00002000000000082400000133832M4    SISAI   004300270014
BI00B32M4    #TL2071        202206097172-5628-80             DUMMY PLUG               CCN000160000000160000FN00000000020220701000160000NNM   20220428121351    2H0H  00002000000000110600000162032M4    SISAI   004300270014
BI00B32M4    #TL2072        202206167172-5628-80             DUMMY PLUG               CCN000080000000080000FN00000000020220701000080000NNM   20220428121351    2H0H  00002000000000110600000162032M4    SISAI   004300270014
BI00B32M4    #TL2073        202206237172-5628-80             DUMMY PLUG               CCN000080000000080000FN00000000020220701000080000NNM   20220428121351    2H0H  00002000000000110600000162032M4    SISAI   004300270014
BI00B32M4    #TL2074        202206307172-5628-80             DUMMY PLUG               CCN000040000000040000FN00000000020220701000040000NNM   20220428121351    2H0H  00002000000000110600000162032M4    SISAI   004300270014
BI00B32M4    #TL2071        202206097172-5629-80             RUBBER STOPPER           CCN000380000000380000FN00000000020220701000380000NNM   20220428121351    2H0H  00002000000000060000000111132M4    SISAI   004300270014
BI00B32M4    #TL2072        202206167172-5629-80             RUBBER STOPPER           CCN000200000000200000FN00000000020220701000200000NNM   20220428121351    2H0H  00002000000000060000000111132M4    SISAI   004300270014
BI00B32M4    #TL2073        202206237172-5629-80             RUBBER STOPPER           CCN000200000000200000FN00000000020220701000200000NNM   20220428121351    2H0H  00002000000000060000000111132M4    SISAI   004300270014
BI00B32M4    #TL2074        202206307172-5629-80             RUBBER STOPPER           CCN000160000000160000FN00000000020220701000160000NNM   20220428121351    2H0H  00002000000000060000000111132M4    SISAI   004300270014
BI00B32M4    #TL2071        202206097172-5630-40             RUBBER STOPPER           CCN000200000000200000FN00000000020220701000200000NNM   20220428121351    2H0H  00002000000000044000000095132M4    SISAI   004300270014
BI00B32M4    #TL2072        202206167172-5630-40             RUBBER STOPPER           CCN000100000000100000FN00000000020220701000100000NNM   20220428121351    2H0H  00002000000000044000000095132M4    SISAI   004300270014
BI00B32M4    #TL2073        202206237172-5630-40             RUBBER STOPPER           CCN000100000000100000FN00000000020220701000100000NNM   20220428121351    2H0H  00002000000000044000000095132M4    SISAI   004300270014
BI00B32M4    #TL2074        202206307172-5630-40             RUBBER STOPPER           CCN000080000000080000FN00000000020220701000080000NNM   20220428121351    2H0H  00002000000000044000000095132M4    SISAI   004300270014
BI00B32M4    #TL2071        202206097172-5631-60             RUBBER STOPPER           CCN000080000000080000FN00000000020220701000080000NNM   20220428121351    2H0H  00002000000000042000000093132M4    SISAI   004300270014
BI00B32M4    #TL2072        202206167172-5631-60             RUBBER STOPPER           CCN000040000000040000FN00000000020220701000040000NNM   20220428121351    2H0H  00002000000000042000000093132M4    SISAI   004300270014
BI00B32M4    #TL2073        202206237172-5631-60             RUBBER STOPPER           CCN000040000000040000FN00000000020220701000040000NNM   20220428121351    2H0H  00002000000000042000000093132M4    SISAI   004300270014
BI00B32M4    #TL2074        202206307172-5631-60             RUBBER STOPPER           CCN000040000000040000FN00000000020220701000040000NNM   20220428121351    2H0H  00002000000000042000000093132M4    SISAI   004300270014
BI00B32M4    #TL2071        202206097172-5632-10             DUMMY PLUG               CCN000160000000160000FN00000000020220701000160000NNM   20220428121351    2H0H  00002000000000080400000131832M4    SISAI   004300270014
BI00B32M4    #TL2072        202206167172-5632-10             DUMMY PLUG               CCN000080000000080000FN00000000020220701000080000NNM   20220428121351    2H0H  00002000000000080400000131832M4    SISAI   004300270014
BI00B32M4    #TL2073        202206237172-5632-10             DUMMY PLUG               CCN000080000000080000FN00000000020220701000080000NNM   20220428121351    2H0H  00002000000000080400000131832M4    SISAI   004300270014
BI00B32M4    #TL2074        202206307172-5632-10             DUMMY PLUG               CCN000060000000060000FN00000000020220701000060000NNM   20220428121351    2H0H  00002000000000080400000131832M4    SISAI   004300270014
BI00B32M4    #TL2071        202206097172-5627-60             RUBBER STOPPER           CCN000020000000020000FN00000000020220701000020000NNM   20220428121351    2H0H  00002000000000070400000121832M4    SISAI   004300270014
BI00B32M4    #TL2072        202206167172-5627-60             RUBBER STOPPER           CCN000020000000020000FN00000000020220701000020000NNM   20220428121351    2H0H  00002000000000070400000121832M4    SISAI   004300270014
BI00B32M4    #TL2071        202206097282-7040-10             HOUSING MALE ASS'Y       CCN000002400000002400FN00000000020220701000002400NNM   20220428121351    2N0N  00000120000000620400000731932M4    SISAI   005400370024
BI00B32M4    #TL2072        202206167282-7040-10             HOUSING MALE ASS'Y       CCN000001200000001200FN00000000020220701000001200NNM   20220428121351    2N0N  00000120000000620400000731932M4    SISAI   005400370024
