BI00B32BF    TT2112CBMW     20220222180D0203764              AVSSH 0.3F G/W           CCN000002000000002000FN00000000020211201000002000NNE20 20220209174309    1W    00000200000000515000000000032BF    TTTJY   000000000000NC222011
BI00B32BF    TT2112CBMW     20220222180D0203992              AVSSH 0.5F V             CCN000001500000001500FN00000000020211201000001500NNE20 20220209174309    1W    00000150000000689000000000032BF    TTTJY   000000000000NC222012
BI00B32BF    TT2112CBMW     20220222180D0204034              AVSSH 0.75F B/W          CCN000001000000001000FN00000000020211201000001000NNE20 20220209174309    1W    00000100000000934000000000032BF    TTTJY   000000000000NC222013
BI00B32BF    TT2112CBMW     20220222180D0204060              AVSSH 0.75F G            CCN000002000000002000FN00000000020211201000002000NNE20 20220209174309    1W    00000100000000934000000000032BF    TTTJY   000000000000NC222014
BI00B32BF    TT2112CBMW     20220222180D0204043              AVSSH 0.75F W/B          CCN000001000000001000FN00000000020211201000001000NNE20 20220209174309    1W    00000100000000934000000000032BF    TTTJY   000000000000NC222015
BI00B32BF    TT2112CBMW     20220222180D0204159              AVSSH 1.25F R/L          CCN000000800000000800FN00000000020211201000000800NNE20 20220209174309    1W    00000080000001458000000000032BF    TTTJY   000000000000NC222016
BI00B32DE    @TT2041        20220310181E50000ZZ              AVSSCS-S 0.5FX1 DGY/BR   CCN000000800000000800FN00000000020220401000000800NNM   20220209174309    1W    00000040000001909700000000032DE    TVYEV-TV000000000000VT422001
BI00B32DE    @TT2042        20220317181E50000ZZ              AVSSCS-S 0.5FX1 DGY/BR   CCN000002800000002800FN00000000020220401000002800NNM   20220209174309    1W    00000040000001909700000000032DE    TVYEV-TV000000000000VT123001
BI00B32DE    @TT2043        20220324181E50000ZZ              AVSSCS-S 0.5FX1 DGY/BR   CCN000002400000002400FN00000000020220401000002400NNM   20220209174309    1W    00000040000001909700000000032DE    TVYEV-TV000000000000VT223001
BI00B32DE    @TT2044        20220331181E50000ZZ              AVSSCS-S 0.5FX1 DGY/BR   CCN000001200000001200FN00000000020220401000001200NNM   20220209174309    1W    00000040000001909700000000032DE    TVYEV-TV000000000000VT323001
BI00B32DE    @TT2042        20220317181E50003ZZ              AVSSCS-S 0.3FX2 DGY/BR   CCN000003150000003150FN00000000020220401000003150NNM   20220209174309    1W    00000035000002165000000000032DE    TVYEV-TV000000000000VT123006
BI00B32DE    @TT2043        20220324181E50003ZZ              AVSSCS-S 0.3FX2 DGY/BR   CCN000029750000029750FN00000000020220401000029750NNM   20220209174309    1W    00000035000002165000000000032DE    TVYEV-TV000000000000VT223008
BI00B32DE    @TT2044        20220331181E50003ZZ              AVSSCS-S 0.3FX2 DGY/BR   CCN000010150000010150FN00000000020220401000010150NNM   20220209174309    1W    00000035000002165000000000032DE    TVYEV-TV000000000000VT323008
BI00B32DE    @TT2042        20220317181E50005ZZ              AVSSCS-S 0.5FX1 DGY/W    CCN000002000000002000FN00000000020220401000002000NNM   20220209174309    1W    00000040000001909700000000032DE    TVYEV-TV000000000000VT123003
BI00B32DE    @TT2043        20220324181E50005ZZ              AVSSCS-S 0.5FX1 DGY/W    CCN000003600000003600FN00000000020220401000003600NNM   20220209174309    1W    00000040000001909700000000032DE    TVYEV-TV000000000000VT223003
BI00B32DE    @TT2044        20220331181E50005ZZ              AVSSCS-S 0.5FX1 DGY/W    CCN000001200000001200FN00000000020220401000001200NNM   20220209174309    1W    00000040000001909700000000032DE    TVYEV-TV000000000000VT323003
BI00B32DE    @TT2041        20220310181E50006ZZ              AVSSCS-S 0.5FX1 DGY/Y    CCN000000800000000800FN00000000020220401000000800NNM   20220209174309    1W    00000040000001909700000000032DE    TVYEV-TV000000000000VT422003
BI00B32DE    @TT2042        20220317181E50006ZZ              AVSSCS-S 0.5FX1 DGY/Y    CCN000003200000003200FN00000000020220401000003200NNM   20220209174309    1W    00000040000001909700000000032DE    TVYEV-TV000000000000VT123004
BI00B32DE    @TT2043        20220324181E50006ZZ              AVSSCS-S 0.5FX1 DGY/Y    CCN000002400000002400FN00000000020220401000002400NNM   20220209174309    1W    00000040000001909700000000032DE    TVYEV-TV000000000000VT223004
BI00B32DE    @TT2044        20220331181E50006ZZ              AVSSCS-S 0.5FX1 DGY/Y    CCN000001200000001200FN00000000020220401000001200NNM   20220209174309    1W    00000040000001909700000000032DE    TVYEV-TV000000000000VT323004
BI00B32DE    @TT2041        20220310181E50007ZZ              AVSSCS-S 0.5FX1 DGY/L    CCN000000800000000800FN00000000020220401000000800NNM   20220209174309    1W    00000040000001909700000000032DE    TVYEV-TV000000000000VT422002
BI00B32DE    @TT2042        20220317181E50007ZZ              AVSSCS-S 0.5FX1 DGY/L    CCN000002800000002800FN00000000020220401000002800NNM   20220209174309    1W    00000040000001909700000000032DE    TVYEV-TV000000000000VT123002
BI00B32DE    @TT2043        20220324181E50007ZZ              AVSSCS-S 0.5FX1 DGY/L    CCN000002000000002000FN00000000020220401000002000NNM   20220209174309    1W    00000040000001909700000000032DE    TVYEV-TV000000000000VT223002
BI00B32DE    @TT2044        20220331181E50007ZZ              AVSSCS-S 0.5FX1 DGY/L    CCN000000800000000800FN00000000020220401000000800NNM   20220209174309    1W    00000040000001909700000000032DE    TVYEV-TV000000000000VT323002
BI00B32DE    @TT2043        20220324181E50010ZZ              AVSSCS-S 0.5FX2 DGY/P    CCN000004200000004200FN00000000020220401000004200NNM   20220209174309    1W    00000030000003096000000000032DE    TVYEV-TV000000000000VT223005
BI00B32DE    @TT2044        20220331181E50010ZZ              AVSSCS-S 0.5FX2 DGY/P    CCN000002100000002100FN00000000020220401000002100NNM   20220209174309    1W    00000030000003096000000000032DE    TVYEV-TV000000000000VT323005
BI00B32DE    @TT2042        20220317181E50027ZZ              AVSSCS-S 0.5FX3 DGY/G    CCN000008750000008750FN00000000020220401000008750NNM   20220209174309    1W    00000025000003265000000000032DE    TVYEV-TV000000000000VT123005
BI00B32DE    @TT2043        20220324181E50027ZZ              AVSSCS-S 0.5FX3 DGY/G    CCN000008000000008000FN00000000020220401000008000NNM   20220209174309    1W    00000025000003265000000000032DE    TVYEV-TV000000000000VT223007
BI00B32DE    @TT2044        20220331181E50027ZZ              AVSSCS-S 0.5FX3 DGY/G    CCN000002750000002750FN00000000020220401000002750NNM   20220209174309    1W    00000025000003265000000000032DE    TVYEV-TV000000000000VT323007
BI00B32DE    @TT2043        20220324181E50028ZZ              AVSSCS-S 0.5FX3 DGY      CCN000002750000002750FN00000000020220401000002750NNM   20220209174309    1W    00000025000003265000000000032DE    TVYEV-TV000000000000VT223006
BI00B32DE    @TT2044        20220331181E50028ZZ              AVSSCS-S 0.5FX3 DGY      CCN000003000000003000FN00000000020220401000003000NNM   20220209174309    1W    00000025000003265000000000032DE    TVYEV-TV000000000000VT323006
BI00B32DE    @TT2044        20220331181F21002ZZ              AVSSHCS-S 0.5FX1 B       CCN000000800000000800FN00000000020220401000000800NNM   20220209174309    1W    00000040000001908400000000032DE    TVYEV-TV000000000000VT323009
BI00B32DE    @TT2044        20220331181F21009ZZ              AVSSHCS-S 0.5FX2 B       CCN000002400000002400FN00000000020220401000002400NNM   20220209174309    1W    00000030000002531400000000032DE    TVYEV-TV000000000000VT323010
BI00B32DE    @TT2041        20220310181F21015ZZ              AVSSHCS-S 0.5FX2 B/P     CCN000000300000000300FN00000000020220401000000300NNM   20220209174309    1W    00000030000002531400000000032DE    TVYEV-TV000000000000VT422004
BI00B32DE    @TT2042        20220317181F21015ZZ              AVSSHCS-S 0.5FX2 B/P     CCN000000900000000900FN00000000020220401000000900NNM   20220209174309    1W    00000030000002531400000000032DE    TVYEV-TV000000000000VT123007
BI00B32DE    @TT2043        20220324181F21015ZZ              AVSSHCS-S 0.5FX2 B/P     CCN000000900000000900FN00000000020220401000000900NNM   20220209174309    1W    00000030000002531400000000032DE    TVYEV-TV000000000000VT223009
BI00B32DE    @TT2044        20220331181F21015ZZ              AVSSHCS-S 0.5FX2 B/P     CCN000000300000000300FN00000000020220401000000300NNM   20220209174309    1W    00000030000002531400000000032DE    TVYEV-TV000000000000VT323011
BI00B32DE    @TT2042        20220317181F21027ZZ              AVSSHCS-S 1.25FX2 B      CCN000001600000001600FN00000000020220401000001600NNM   20220209174309    1W    00000020000004267300000000032DE    TVYEV-TV000000000000VT123008
BI00B32DE    @TT2043        20220324181F21027ZZ              AVSSHCS-S 1.25FX2 B      CCN000003200000003200FN00000000020220401000003200NNM   20220209174309    1W    00000020000004267300000000032DE    TVYEV-TV000000000000VT223010
BI00B32DE    @TT2044        20220331181F21027ZZ              AVSSHCS-S 1.25FX2 B      CCN000001200000001200FN00000000020220401000001200NNM   20220209174309    1W    00000020000004267300000000032DE    TVYEV-TV000000000000VT323012
BI00B32DG    @RH2034A       20220310181E48048ZZ              CAVSAS-S 0.3X2 GY/O      CCN000001400000001400FN00000000020220301000001400NNE   20220209174309    1W    00000035000002008700000000032DG    BFSAIBF 000000000000GU422001
BI00B32DG    RW2034A        202203031801W006970              IVSSH 0.35F Y            CCN000002500000002500FN00000000020220301000002500NNE   20220209174309    1W    00000250000000452000000000032DG    BFSAIBF 000000000000GT322007
BI00B32DG    RW2034A        202203031801W003943              IVSSH 0.5F W/B           CCN000001800000001800FN00000000020220301000001800NNE   20220209174309    1W    00000180000000625000000000032DG    BFSAIBF 000000000000GT322006
BI00B32DG    RW2034A        202203031801W003961              IVSSH 0.5F LG            CCN000005400000005400FN00000000020220301000005400NNE   20220209174309    1W    00000180000000625000000000032DG    BFSAIBF 000000000000GT322005
BI00B32E1    WC2061         2022030918000004530              AV 8 B                   CCN000001700000001700FN00000000020220501000001700NNM   20220209174309    1W    00000010000010466200000000032E1    SPYSE   000000000000KC422001
BI00B32E1    WC2062         2022031618000004530              AV 8 B                   CCN000001000000001000FN00000000020220501000001000NNM   20220209174309    1W    00000010000010466200000000032E1    SPYSE   000000000000KC123001
BI00B32E1    WC2063         2022032318000004530              AV 8 B                   CCN000000900000000900FN00000000020220501000000900NNM   20220209174309    1W    00000010000010466200000000032E1    SPYSE   000000000000KC223001
BI00B32E1    WC2061         2022030918000004540              AV 8 W                   CCN000000100000000100FN00000000020220501000000100NNM   20220209174309    1W    00000010000010466200000000032E1    SPYSE   000000000000KC422003
BI00B32E1    WC2061         2022030918000004550              AV 8 R                   CCN000000100000000100FN00000000020220501000000100NNM   20220209174309    1W    00000010000010466200000000032E1    SPYSE   000000000000KC422002
BI00B32E1    WC2061         2022030918000004570              AV 8 Y                   CCN000001500000001500FN00000000020220501000001500NNM   20220209174309    1W    00000010000010466200000000032E1    SPYSE   000000000000KC422004
BI00B32E1    WC2062         2022031618000004570              AV 8 Y                   CCN000000700000000700FN00000000020220501000000700NNM   20220209174309    1W    00000010000010466200000000032E1    SPYSE   000000000000KC123002
BI00B32E1    WC2063         2022032318000004570              AV 8 Y                   CCN000000600000000600FN00000000020220501000000600NNM   20220209174309    1W    00000010000010466200000000032E1    SPYSE   000000000000KC223002
BI00B32E1    WC2064         2022033018000004570              AV 8 Y                   CCN000000500000000500FN00000000020220501000000500NNM   20220209174309    1W    00000010000010466200000000032E1    SPYSE   000000000000KC323001
BI00B32G7    @JW22041 MW    20220310181AD2002ZZ              CIVUSAS-S 0.35X2 B       CCN000024300000024300FN00000000020220401000024300NNM   20220209174309    1W    00000045000001713700000000032G7    JIJAI   000000000000JA422002
BI00B32G7    @JW22042 MW    20220317181AD2002ZZ              CIVUSAS-S 0.35X2 B       CCN000022050000022050FN00000000020220401000022050NNM   20220209174309    1W    00000045000001713700000000032G7    JIJAI   000000000000JA123002
BI00B32G7    @JW22043 MW    20220324181AD2002ZZ              CIVUSAS-S 0.35X2 B       CCN000022050000022050FN00000000020220401000022050NNM   20220209174309    1W    00000045000001713700000000032G7    JIJAI   000000000000JA223002
BI00B32G7    @JW22044 MW    20220331181AD2002ZZ              CIVUSAS-S 0.35X2 B       CCN000022950000022950FN00000000020220401000022950NNM   20220209174309    1W    00000045000001713700000000032G7    JIJAI   000000000000JA323002
BI00B32G7    @JW22041 MW    20220310181AD2008ZZ              CIVUSAS-S 0.5X2 B        CCN000009200000009200FN00000000020220401000009200NNM   20220209174309    1W    00000040000002028000000000032G7    JIJAI   000000000000JA422001
BI00B32G7    @JW22042 MW    20220317181AD2008ZZ              CIVUSAS-S 0.5X2 B        CCN000007600000007600FN00000000020220401000007600NNM   20220209174309    1W    00000040000002028000000000032G7    JIJAI   000000000000JA123001
BI00B32G7    @JW22043 MW    20220324181AD2008ZZ              CIVUSAS-S 0.5X2 B        CCN000007600000007600FN00000000020220401000007600NNM   20220209174309    1W    00000040000002028000000000032G7    JIJAI   000000000000JA223001
BI00B32G7    @JW22044 MW    20220331181AD2008ZZ              CIVUSAS-S 0.5X2 B        CCN000008400000008400FN00000000020220401000008400NNM   20220209174309    1W    00000040000002028000000000032G7    JIJAI   000000000000JA323001
BI00B32G7    @JW22041 MW    20220310181E48022ZZ              CAVSAS-S 0.5X2 GY        CCN000003600000003600FN00000000020220401000003600NNM   20220209174309    1W    00000030000002561000000000032G7    JIJAI   000000000000JA422003
BI00B32G7    @JW22042 MW    20220317181E48022ZZ              CAVSAS-S 0.5X2 GY        CCN000003300000003300FN00000000020220401000003300NNM   20220209174309    1W    00000030000002561000000000032G7    JIJAI   000000000000JA123003
BI00B32G7    @JW22043 MW    20220324181E48022ZZ              CAVSAS-S 0.5X2 GY        CCN000003300000003300FN00000000020220401000003300NNM   20220209174309    1W    00000030000002561000000000032G7    JIJAI   000000000000JA223003
BI00B32G7    @JW22044 MW    20220331181E48022ZZ              CAVSAS-S 0.5X2 GY        CCN000003300000003300FN00000000020220401000003300NNM   20220209174309    1W    00000030000002561000000000032G7    JIJAI   000000000000JA323003
BI00B32G7    @JW22041 MW    20220310181E48024ZZ              CAVSAS-S 0.5X2 GY/R      CCN000003000000003000FN00000000020220401000003000NNM   20220209174309    1W    00000030000002561000000000032G7    JIJAI   000000000000JA422004
BI00B32G7    @JW22042 MW    20220317181E48024ZZ              CAVSAS-S 0.5X2 GY/R      CCN000002400000002400FN00000000020220401000002400NNM   20220209174309    1W    00000030000002561000000000032G7    JIJAI   000000000000JA123004
BI00B32G7    @JW22043 MW    20220324181E48024ZZ              CAVSAS-S 0.5X2 GY/R      CCN000002400000002400FN00000000020220401000002400NNM   20220209174309    1W    00000030000002561000000000032G7    JIJAI   000000000000JA223004
BI00B32G7    @JW22044 MW    20220331181E48024ZZ              CAVSAS-S 0.5X2 GY/R      CCN000002400000002400FN00000000020220401000002400NNM   20220209174309    1W    00000030000002561000000000032G7    JIJAI   000000000000JA323004
BI00B32G7    @JW22041 MW    20220310181E48032ZZ              CAVSAS-S 0.3X2 GY/P      CCN000001400000001400FN00000000020220401000001400NNM   20220209174309    1W    00000035000002008700000000032G7    JIJAI   000000000000JA422006
BI00B32G7    @JW22042 MW    20220317181E48032ZZ              CAVSAS-S 0.3X2 GY/P      CCN000001400000001400FN00000000020220401000001400NNM   20220209174309    1W    00000035000002008700000000032G7    JIJAI   000000000000JA123006
BI00B32G7    @JW22043 MW    20220324181E48032ZZ              CAVSAS-S 0.3X2 GY/P      CCN000001400000001400FN00000000020220401000001400NNM   20220209174309    1W    00000035000002008700000000032G7    JIJAI   000000000000JA223006
BI00B32G7    @JW22044 MW    20220331181E48032ZZ              CAVSAS-S 0.3X2 GY/P      CCN000001400000001400FN00000000020220401000001400NNM   20220209174309    1W    00000035000002008700000000032G7    JIJAI   000000000000JA323006
BI00B32G7    @JW22041 MW    20220310181E48040ZZ              CAVSAS-S 0.3X2 GY/V      CCN000010150000010150FN00000000020220401000010150NNM   20220209174309    1W    00000035000002008700000000032G7    JIJAI   000000000000JA422007
BI00B32G7    @JW22042 MW    20220317181E48040ZZ              CAVSAS-S 0.3X2 GY/V      CCN000009100000009100FN00000000020220401000009100NNM   20220209174309    1W    00000035000002008700000000032G7    JIJAI   000000000000JA123007
BI00B32G7    @JW22043 MW    20220324181E48040ZZ              CAVSAS-S 0.3X2 GY/V      CCN000009100000009100FN00000000020220401000009100NNM   20220209174309    1W    00000035000002008700000000032G7    JIJAI   000000000000JA223007
BI00B32G7    @JW22044 MW    20220331181E48040ZZ              CAVSAS-S 0.3X2 GY/V      CCN000009100000009100FN00000000020220401000009100NNM   20220209174309    1W    00000035000002008700000000032G7    JIJAI   000000000000JA323007
BI00B32G7    @JW22041 MW    20220310181E48060ZZ              CAVSAS-S 0.5X2 GY/V      CCN000004200000004200FN00000000020220401000004200NNM   20220209174309    1W    00000030000002561000000000032G7    JIJAI   000000000000JA422005
BI00B32G7    @JW22042 MW    20220317181E48060ZZ              CAVSAS-S 0.5X2 GY/V      CCN000002700000002700FN00000000020220401000002700NNM   20220209174309    1W    00000030000002561000000000032G7    JIJAI   000000000000JA123005
BI00B32G7    @JW22043 MW    20220324181E48060ZZ              CAVSAS-S 0.5X2 GY/V      CCN000002400000002400FN00000000020220401000002400NNM   20220209174309    1W    00000030000002561000000000032G7    JIJAI   000000000000JA223005
BI00B32G7    @JW22044 MW    20220331181E48060ZZ              CAVSAS-S 0.5X2 GY/V      CCN000002700000002700FN00000000020220401000002700NNM   20220209174309    1W    00000030000002561000000000032G7    JIJAI   000000000000JA323005
BI00B32G7    @JW22041LMW    20220310181AD2020ZZ              CIVUSAS-S 0.5X2 B(R,G)   CCN000002400000002400FN00000000020220401000002400NNM   20220209174309    1W    00000040000002028000000000032G7    JIJAI   000000000000JL422001
BI00B32G7    @JW22042LMW    20220317181AD2020ZZ              CIVUSAS-S 0.5X2 B(R,G)   CCN000001200000001200FN00000000020220401000001200NNM   20220209174309    1W    00000040000002028000000000032G7    JIJAI   000000000000JL123001
BI00B32G7    @JW22043LMW    20220324181AD2020ZZ              CIVUSAS-S 0.5X2 B(R,G)   CCN000001600000001600FN00000000020220401000001600NNM   20220209174309    1W    00000040000002028000000000032G7    JIJAI   000000000000JL223001
BI00B32G7    @JW22044LMW    20220331181AD2020ZZ              CIVUSAS-S 0.5X2 B(R,G)   CCN000001200000001200FN00000000020220401000001200NNM   20220209174309    1W    00000040000002028000000000032G7    JIJAI   000000000000JL323001
BI00B32G7    @JW22041LMW    20220310181AD2021ZZ              CIVUSAS-S 0.35X2 B(L,GY) CCN000004500000004500FN00000000020220401000004500NNM   20220209174309    1W    00000045000001714000000000032G7    JIJAI   000000000000JL422002
BI00B32G7    @JW22042LMW    20220317181AD2021ZZ              CIVUSAS-S 0.35X2 B(L,GY) CCN000002700000002700FN00000000020220401000002700NNM   20220209174309    1W    00000045000001714000000000032G7    JIJAI   000000000000JL123002
BI00B32G7    @JW22043LMW    20220324181AD2021ZZ              CIVUSAS-S 0.35X2 B(L,GY) CCN000002700000002700FN00000000020220401000002700NNM   20220209174309    1W    00000045000001714000000000032G7    JIJAI   000000000000JL223002
BI00B32G7    @JW22044LMW    20220331181AD2021ZZ              CIVUSAS-S 0.35X2 B(L,GY) CCN000002700000002700FN00000000020220401000002700NNM   20220209174309    1W    00000045000001714000000000032G7    JIJAI   000000000000JL323002
BI00B32G7    @JW22041LMW    20220310181AD2022ZZ              CIVUSAS-S 0.35X2 B(R,G)  CCN000001350000001350FN00000000020220401000001350NNM   20220209174309    1W    00000045000001714000000000032G7    JIJAI   000000000000JL422003
BI00B32G7    @JW22042LMW    20220317181AD2022ZZ              CIVUSAS-S 0.35X2 B(R,G)  CCN000000900000000900FN00000000020220401000000900NNM   20220209174309    1W    00000045000001714000000000032G7    JIJAI   000000000000JL123003
BI00B32G7    @JW22043LMW    20220324181AD2022ZZ              CIVUSAS-S 0.35X2 B(R,G)  CCN000000900000000900FN00000000020220401000000900NNM   20220209174309    1W    00000045000001714000000000032G7    JIJAI   000000000000JL223003
BI00B32G7    @JW22044LMW    20220331181AD2022ZZ              CIVUSAS-S 0.35X2 B(R,G)  CCN000000900000000900FN00000000020220401000000900NNM   20220209174309    1W    00000045000001714000000000032G7    JIJAI   000000000000JL323003
BI00B32M4    @TH2034B       20220310181CQ7003ZZ              IVSSHCS-S 0.5FX2 B(B,W)  CCN000004200000004200FN00000000020220301000004200NNE   20220209174309    1W    00000030000002350200000000032M4    SISAI   000000000000GN422001
BI00B32M4    TW2034B        202203031801W006990              IVSSH 0.35F L            CCN000002500000002500FN00000000020220301000002500NNE   20220209174309    1W    00000250000000452000000000032M4    SISAI   000000000000GG322006
BI00B32M4    TW2034B        202203031801W003960              IVSSH 0.5F G             CCN000001800000001800FN00000000020220301000001800NNE   20220209174309    1W    00000180000000625000000000032M4    SISAI   000000000000GG322001
BI00B32M4    TW2034B        202203031801W003952              IVSSH 0.5F P             CCN000005400000005400FN00000000020220301000005400NNE   20220209174309    1W    00000180000000625000000000032M4    SISAI   000000000000GG322002
BI00B32M4    TW2034B        202203031801W004040              IVSSH 0.75F W            CCN000001300000001300FN00000000020220301000001300NNE   20220209174309    1W    00000130000000882000000000032M4    SISAI   000000000000GG322005
BI00B32M4    TW2034B        202203031801W004061              IVSSH 0.75F LG           CCN000001300000001300FN00000000020220301000001300NNE   20220209174309    1W    00000130000000882000000000032M4    SISAI   000000000000GG322003
BI00B32M4    TW2034B        202203031801W004092              IVSSH 0.75F V            CCN000002600000002600FN00000000020220301000002600NNE   20220209174309    1W    00000130000000882000000000032M4    SISAI   000000000000GG322004
BI00B32W2    HN22044NMW     2022032918000004530              AV 8 B                   CCN000000200000000200FN00000000020220401000000200NNM   20220209174309    1W    00000010000010466200000000032W2    HNHNY   000000000000HN323004
BI00B32W2    HN22041NMW     2022030818000004560              AV 8 G                   CCN000000700000000700FN00000000020220401000000700NNM   20220209174309    1W    00000010000010466200000000032W2    HNHNY   000000000000HN422004
BI00B32W2    HN22042NMW     2022031518000004560              AV 8 G                   CCN000000700000000700FN00000000020220401000000700NNM   20220209174309    1W    00000010000010466200000000032W2    HNHNY   000000000000HN123004
BI00B32W2    HN22043NMW     2022032218000004560              AV 8 G                   CCN000000700000000700FN00000000020220401000000700NNM   20220209174309    1W    00000010000010466200000000032W2    HNHNY   000000000000HN223004
BI00B32W2    HN22044NMW     2022032918000004560              AV 8 G                   CCN000000700000000700FN00000000020220401000000700NNM   20220209174309    1W    00000010000010466200000000032W2    HNHNY   000000000000HN323005
BI00B32W2    @HN22041NMW    20220308181B32116Y9              AVSSCS 0.3FX2 DGY/P      CCN000000350000000350FN00000000020220401000000350NNM   20220209174309    1W    00000035000002276000000000032W2    HNHNY   000000000000HN422003
BI00B32W2    @HN22042NMW    20220315181B32116Y9              AVSSCS 0.3FX2 DGY/P      CCN000000700000000700FN00000000020220401000000700NNM   20220209174309    1W    00000035000002276000000000032W2    HNHNY   000000000000HN123003
BI00B32W2    @HN22043NMW    20220322181B32116Y9              AVSSCS 0.3FX2 DGY/P      CCN000000700000000700FN00000000020220401000000700NNM   20220209174309    1W    00000035000002276000000000032W2    HNHNY   000000000000HN223003
BI00B32W2    @HN22044NMW    20220329181B32116Y9              AVSSCS 0.3FX2 DGY/P      CCN000000700000000700FN00000000020220401000000700NNM   20220209174309    1W    00000035000002276000000000032W2    HNHNY   000000000000HN323003
BI00B32W2    @HN22041NMW    20220308181B32102S1              AVSSCS 0.5FX2 DGY        CCN000000600000000600FN00000000020220401000000600NNM   20220209174309    1W    00000030000002903000000000032W2    HNHNY   000000000000HN422001
BI00B32W2    @HN22042NMW    20220315181B32102S1              AVSSCS 0.5FX2 DGY        CCN000000600000000600FN00000000020220401000000600NNM   20220209174309    1W    00000030000002903000000000032W2    HNHNY   000000000000HN123001
BI00B32W2    @HN22043NMW    20220322181B32102S1              AVSSCS 0.5FX2 DGY        CCN000000600000000600FN00000000020220401000000600NNM   20220209174309    1W    00000030000002903000000000032W2    HNHNY   000000000000HN223001
BI00B32W2    @HN22044NMW    20220329181B32102S1              AVSSCS 0.5FX2 DGY        CCN000000600000000600FN00000000020220401000000600NNM   20220209174309    1W    00000030000002903000000000032W2    HNHNY   000000000000HN323001
BI00B32W2    @HN22041NMW    20220308181B32102Y6              AVSSCS 0.5FX2 DGY/G      CCN000000600000000600FN00000000020220401000000600NNM   20220209174309    1W    00000030000002903000000000032W2    HNHNY   000000000000HN422002
BI00B32W2    @HN22042NMW    20220315181B32102Y6              AVSSCS 0.5FX2 DGY/G      CCN000000600000000600FN00000000020220401000000600NNM   20220209174309    1W    00000030000002903000000000032W2    HNHNY   000000000000HN123002
BI00B32W2    @HN22043NMW    20220322181B32102Y6              AVSSCS 0.5FX2 DGY/G      CCN000000600000000600FN00000000020220401000000600NNM   20220209174309    1W    00000030000002903000000000032W2    HNHNY   000000000000HN223002
BI00B32W2    @HN22044NMW    20220329181B32102Y6              AVSSCS 0.5FX2 DGY/G      CCN000000600000000600FN00000000020220401000000600NNM   20220209174309    1W    00000030000002903000000000032W2    HNHNY   000000000000HN323002
BI00B32W2    HN22041WMW     2022030818000004530              AV 8 B                   CCN000003000000003000FN00000000020220401000003000NNM   20220209174309    1W    00000010000010466200000000032W2    HNHNY   000000000000HW422002
BI00B32W2    HN22042WMW     2022031518000004530              AV 8 B                   CCN000003000000003000FN00000000020220401000003000NNM   20220209174309    1W    00000010000010466200000000032W2    HNHNY   000000000000HW123001
BI00B32W2    HN22043WMW     2022032218000004530              AV 8 B                   CCN000003000000003000FN00000000020220401000003000NNM   20220209174309    1W    00000010000010466200000000032W2    HNHNY   000000000000HW223001
BI00B32W2    HN22044WMW     2022032918000004530              AV 8 B                   CCN000002000000002000FN00000000020220401000002000NNM   20220209174309    1W    00000010000010466200000000032W2    HNHNY   000000000000HW323001
BI00B32W2    HN22041WMW     2022030818000004560              AV 8 G                   CCN000000800000000800FN00000000020220401000000800NNM   20220209174309    1W    00000010000010466200000000032W2    HNHNY   000000000000HW422003
BI00B32W2    HN22041WMW     2022030818000004590              AV 8 L                   CCN000000100000000100FN00000000020220401000000100NNM   20220209174309    1W    00000010000010466200000000032W2    HNHNY   000000000000HW422004
BI00B32W2    HN22041WMW     2022030818000004550              AV 8 R                   CCN000006600000006600FN00000000020220401000006600NNM   20220209174309    1W    00000010000010466200000000032W2    HNHNY   000000000000HW422005
BI00B32W2    HN22042WMW     2022031518000004550              AV 8 R                   CCN000006600000006600FN00000000020220401000006600NNM   20220209174309    1W    00000010000010466200000000032W2    HNHNY   000000000000HW123002
BI00B32W2    HN22043WMW     2022032218000004550              AV 8 R                   CCN000006000000006000FN00000000020220401000006000NNM   20220209174309    1W    00000010000010466200000000032W2    HNHNY   000000000000HW223002
BI00B32W2    HN22044WMW     2022032918000004550              AV 8 R                   CCN000006000000006000FN00000000020220401000006000NNM   20220209174309    1W    00000010000010466200000000032W2    HNHNY   000000000000HW323002
BI00B32W2    HN22041WMW     2022030818000004540              AV 8 W                   CCN000000800000000800FN00000000020220401000000800NNM   20220209174309    1W    00000010000010466200000000032W2    HNHNY   000000000000HW422006
BI00B32W2    HN22042WMW     2022031518000004540              AV 8 W                   CCN000000500000000500FN00000000020220401000000500NNM   20220209174309    1W    00000010000010466200000000032W2    HNHNY   000000000000HW123003
BI00B32W2    HN22043WMW     2022032218000004540              AV 8 W                   CCN000000400000000400FN00000000020220401000000400NNM   20220209174309    1W    00000010000010466200000000032W2    HNHNY   000000000000HW223003
BI00B32W2    HN22044WMW     2022032918000004540              AV 8 W                   CCN000000500000000500FN00000000020220401000000500NNM   20220209174309    1W    00000010000010466200000000032W2    HNHNY   000000000000HW323003
BI00B32W2    @HN22041WMW    20220308181B32116Z5              AVSSCS 0.3FX2 DGY/L      CCN000000350000000350FN00000000020220401000000350NNM   20220209174309    1W    00000035000002276000000000032W2    HNHNY   000000000000HW422001
BI00B32W4    4500188982     2022030118018404140              CAVS 1.25 W              CCN000003200000003200FN00000000020220301000003200NNE   20220209174309W41 1W    00000080000001378000000000032W41   HJYHK-J 000000000000OJ322009
BI00B32W4    4500188982     2022030118018404170              CAVS 1.25 Y              CCN000004000000004000FN00000000020220301000004000NNE   20220209174309W41 1W    00000080000001378000000000032W41   HJYHK-J 000000000000OJ322010
BI00B32W4    4500188982     2022030118018404130              CAVS 1.25 B              CCN000002400000002400FN00000000020220301000002400NNE   20220209174309W41 1W    00000080000001378000000000032W41   HJYHK-J 000000000000OJ322001
BI00B32W4    4500188982     2022030118018404141              CAVS 1.25 GY             CCN000001600000001600FN00000000020220301000001600NNE   20220209174309W41 1W    00000080000001378000000000032W41   HJYHK-J 000000000000OJ322003
BI00B32W4    4500188982     2022030118018404151              CAVS 1.25 O              CCN000002400000002400FN00000000020220301000002400NNE   20220209174309W41 1W    00000080000001378000000000032W41   HJYHK-J 000000000000OJ322005
BI00B32W4    4500188982     2022030118018404152              CAVS 1.25 P              CCN000003200000003200FN00000000020220301000003200NNE   20220209174309W41 1W    00000080000001378000000000032W41   HJYHK-J 000000000000OJ322006
BI00B32W4    4500188982     2022030118018404160              CAVS 1.25 G              CCN000004000000004000FN00000000020220301000004000NNE   20220209174309W41 1W    00000080000001378000000000032W41   HJYHK-J 000000000000OJ322002
BI00B32W4    4500188982     2022030118018404150              CAVS 1.25 R              CCN000001600000001600FN00000000020220301000001600NNE   20220209174309W41 1W    00000080000001378000000000032W41   HJYHK-J 000000000000OJ322007
BI00B32W4    4500188982     2022030118018404190              CAVS 1.25 L              CCN000004800000004800FN00000000020220301000004800NNE   20220209174309W41 1W    00000080000001378000000000032W41   HJYHK-J 000000000000OJ322004
BI00B32W4    4500188982     2022030118018404192              CAVS 1.25 V              CCN000003200000003200FN00000000020220301000003200NNE   20220209174309W41 1W    00000080000001378000000000032W41   HJYHK-J 000000000000OJ322008
BI00B32W6    SW22041QMW     2022030218000004560              AV 8 G                   CCN000015000000015000FN00000000020220401000015000NNM   20220209174309    1W    00000010000010466200000000032W6    SYSYA-WJ000000000000WA322038
BI00B32W6    SW22042QMW     2022030918000004560              AV 8 G                   CCN000008700000008700FN00000000020220401000008700NNM   20220209174309    1W    00000010000010466200000000032W6    SYSYA-WJ000000000000WA422041
BI00B32W6    SW22043QMW     2022031618000004560              AV 8 G                   CCN000007700000007700FN00000000020220401000007700NNM   20220209174309    1W    00000010000010466200000000032W6    SYSYA-WJ000000000000WA123046
BI00B32W6    SW22044QMW     2022032318000004560              AV 8 G                   CCN000008500000008500FN00000000020220401000008500NNM   20220209174309    1W    00000010000010466200000000032W6    SYSYA-WJ000000000000WA223040
BI00B32W6    SW22041QMW     2022030218000004550              AV 8 R                   CCN000005000000005000FN00000000020220401000005000NNM   20220209174309    1W    00000010000010466200000000032W6    SYSYA-WJ000000000000WA322039
BI00B32W6    SW22042QMW     2022030918000004550              AV 8 R                   CCN000003400000003400FN00000000020220401000003400NNM   20220209174309    1W    00000010000010466200000000032W6    SYSYA-WJ000000000000WA422042
BI00B32W6    SW22043QMW     2022031618000004550              AV 8 R                   CCN000002900000002900FN00000000020220401000002900NNM   20220209174309    1W    00000010000010466200000000032W6    SYSYA-WJ000000000000WA123047
BI00B32W6    SW22044QMW     2022032318000004550              AV 8 R                   CCN000003300000003300FN00000000020220401000003300NNM   20220209174309    1W    00000010000010466200000000032W6    SYSYA-WJ000000000000WA223041
BI00B32W6    @SW22043QMW    20220316181E48015ZZ              CAVSAS-S 0.5X1 GY        CCN000000400000000400FN00000000020220401000000400NNM   20220209174309    1W    00000040000001900600000000032W6    SYSYA-WJ000000000000WA123031
BI00B32W6    @SW22044QMW    20220323181E48015ZZ              CAVSAS-S 0.5X1 GY        CCN000001200000001200FN00000000020220401000001200NNM   20220209174309    1W    00000040000001900600000000032W6    SYSYA-WJ000000000000WA223025
BI00B32W6    @SW22041QMW    20220302181E48019ZZ              CAVSAS-S 0.5X1 GY/W      CCN000000400000000400FN00000000020220401000000400NNM   20220209174309    1W    00000040000001900600000000032W6    SYSYA-WJ000000000000WA322025
BI00B32W6    @SW22042QMW    20220309181E48019ZZ              CAVSAS-S 0.5X1 GY/W      CCN000000400000000400FN00000000020220401000000400NNM   20220209174309    1W    00000040000001900600000000032W6    SYSYA-WJ000000000000WA422027
BI00B32W6    @SW22043QMW    20220316181E48019ZZ              CAVSAS-S 0.5X1 GY/W      CCN000000800000000800FN00000000020220401000000800NNM   20220209174309    1W    00000040000001900600000000032W6    SYSYA-WJ000000000000WA123032
BI00B32W6    @SW22044QMW    20220323181E48019ZZ              CAVSAS-S 0.5X1 GY/W      CCN000000800000000800FN00000000020220401000000800NNM   20220209174309    1W    00000040000001900600000000032W6    SYSYA-WJ000000000000WA223026
BI00B32W6    @SW22041QMW    20220302181AD2017ZZ              CIVUSAS-S 0.22X3 B       CCN000001290000001290FN00000000020220401000001290NNM   20220209174309    1W    00000043000001678200000000032W6    SYSYA-WJ000000000000WA322024
BI00B32W6    @SW22042QMW    20220309181AD2017ZZ              CIVUSAS-S 0.22X3 B       CCN000001290000001290FN00000000020220401000001290NNM   20220209174309    1W    00000043000001678200000000032W6    SYSYA-WJ000000000000WA422026
BI00B32W6    @SW22043QMW    20220316181AD2017ZZ              CIVUSAS-S 0.22X3 B       CCN000001290000001290FN00000000020220401000001290NNM   20220209174309    1W    00000043000001678200000000032W6    SYSYA-WJ000000000000WA123030
BI00B32W6    @SW22044QMW    20220323181AD2017ZZ              CIVUSAS-S 0.22X3 B       CCN000000430000000430FN00000000020220401000000430NNM   20220209174309    1W    00000043000001678200000000032W6    SYSYA-WJ000000000000WA223024
BI00B32W7    SC22041JMW     2022030218000004530              AV 8 B                   CCN000003600000003600FN00000000020220401000003600NNM   20220209174309    1W    00000010000010466200000000032W7    SYSYA-CH000000000000WJ322007
BI00B32W7    SC22042JMW     2022030918000004530              AV 8 B                   CCN000003100000003100FN00000000020220401000003100NNM   20220209174309    1W    00000010000010466200000000032W7    SYSYA-CH000000000000WJ422007
BI00B32W7    SC22041JMW     2022030218000004580              AV 8 BR                  CCN000000200000000200FN00000000020220401000000200NNM   20220209174309    1W    00000010000010466200000000032W7    SYSYA-CH000000000000WJ322008
BI00B32W7    SC22042JMW     2022030918000004580              AV 8 BR                  CCN000000200000000200FN00000000020220401000000200NNM   20220209174309    1W    00000010000010466200000000032W7    SYSYA-CH000000000000WJ422008
BI00B32W7    SC22043JMW     2022031618000004580              AV 8 BR                  CCN000000200000000200FN00000000020220401000000200NNM   20220209174309    1W    00000010000010466200000000032W7    SYSYA-CH000000000000WJ123006
BI00B32W7    SC22041JMW     2022030218000004560              AV 8 G                   CCN000001400000001400FN00000000020220401000001400NNM   20220209174309    1W    00000010000010466200000000032W7    SYSYA-CH000000000000WJ322009
BI00B32W7    SC22042JMW     2022030918000004560              AV 8 G                   CCN000001300000001300FN00000000020220401000001300NNM   20220209174309    1W    00000010000010466200000000032W7    SYSYA-CH000000000000WJ422009
BI00B32W7    SC22043JMW     2022031618000004560              AV 8 G                   CCN000001200000001200FN00000000020220401000001200NNM   20220209174309    1W    00000010000010466200000000032W7    SYSYA-CH000000000000WJ123007
BI00B32W7    SC22044JMW     2022032318000004560              AV 8 G                   CCN000000600000000600FN00000000020220401000000600NNM   20220209174309    1W    00000010000010466200000000032W7    SYSYA-CH000000000000WJ223006
BI00B32W7    SC22041JMW     2022030218000004590              AV 8 L                   CCN000002400000002400FN00000000020220401000002400NNM   20220209174309    1W    00000010000010466200000000032W7    SYSYA-CH000000000000WJ322010
BI00B32W7    SC22042JMW     2022030918000004590              AV 8 L                   CCN000005000000005000FN00000000020220401000005000NNM   20220209174309    1W    00000010000010466200000000032W7    SYSYA-CH000000000000WJ422010
BI00B32W7    SC22043JMW     2022031618000004590              AV 8 L                   CCN000004300000004300FN00000000020220401000004300NNM   20220209174309    1W    00000010000010466200000000032W7    SYSYA-CH000000000000WJ123008
BI00B32W7    SC22044JMW     2022032318000004590              AV 8 L                   CCN000002400000002400FN00000000020220401000002400NNM   20220209174309    1W    00000010000010466200000000032W7    SYSYA-CH000000000000WJ223007
BI00B32W7    SC22041JMW     2022030218000004550              AV 8 R                   CCN000010100000010100FN00000000020220401000010100NNM   20220209174309    1W    00000010000010466200000000032W7    SYSYA-CH000000000000WJ322011
BI00B32W7    SC22042JMW     2022030918000004550              AV 8 R                   CCN000007100000007100FN00000000020220401000007100NNM   20220209174309    1W    00000010000010466200000000032W7    SYSYA-CH000000000000WJ422011
BI00B32W7    SC22043JMW     2022031618000004550              AV 8 R                   CCN000007500000007500FN00000000020220401000007500NNM   20220209174309    1W    00000010000010466200000000032W7    SYSYA-CH000000000000WJ123009
BI00B32W7    SC22044JMW     2022032318000004550              AV 8 R                   CCN000007500000007500FN00000000020220401000007500NNM   20220209174309    1W    00000010000010466200000000032W7    SYSYA-CH000000000000WJ223008
BI00B32W7    SC22041JMW     2022030218000004540              AV 8 W                   CCN000004800000004800FN00000000020220401000004800NNM   20220209174309    1W    00000010000010466200000000032W7    SYSYA-CH000000000000WJ322012
BI00B32W7    SC22042JMW     2022030918000004540              AV 8 W                   CCN000004000000004000FN00000000020220401000004000NNM   20220209174309    1W    00000010000010466200000000032W7    SYSYA-CH000000000000WJ422012
BI00B32W7    SC22043JMW     2022031618000004540              AV 8 W                   CCN000003600000003600FN00000000020220401000003600NNM   20220209174309    1W    00000010000010466200000000032W7    SYSYA-CH000000000000WJ123010
BI00B32W7    SC22044JMW     2022032318000004540              AV 8 W                   CCN000001900000001900FN00000000020220401000001900NNM   20220209174309    1W    00000010000010466200000000032W7    SYSYA-CH000000000000WJ223009
BI00B32W7    SC22041JMW     2022030218000004570              AV 8 Y                   CCN000001100000001100FN00000000020220401000001100NNM   20220209174309    1W    00000010000010466200000000032W7    SYSYA-CH000000000000WJ322013
BI00B32W7    SC22042JMW     2022030918000004570              AV 8 Y                   CCN000001100000001100FN00000000020220401000001100NNM   20220209174309    1W    00000010000010466200000000032W7    SYSYA-CH000000000000WJ422013
BI00B32W7    SC22043JMW     2022031618000004570              AV 8 Y                   CCN000001100000001100FN00000000020220401000001100NNM   20220209174309    1W    00000010000010466200000000032W7    SYSYA-CH000000000000WJ123011
BI00B32W7    SC22044JMW     2022032318000004570              AV 8 Y                   CCN000001100000001100FN00000000020220401000001100NNM   20220209174309    1W    00000010000010466200000000032W7    SYSYA-CH000000000000WJ223010
BI00B32W7    @SC22041JMW    20220302181B32013ZZ              AVSSCS 0.3FX1 DGY/O      CCN000004500000004500FN00000000020220401000004500NNM   20220209174309    1W    00000050000001780000000000032W7    SYSYA-CH000000000000WJ322001
BI00B32W7    @SC22042JMW    20220309181B32013ZZ              AVSSCS 0.3FX1 DGY/O      CCN000004500000004500FN00000000020220401000004500NNM   20220209174309    1W    00000050000001780000000000032W7    SYSYA-CH000000000000WJ422001
BI00B32W7    @SC22041JMW    20220302181B32037Y5              AVSSCS 0.3FX1 DGY/W      CCN000002000000002000FN00000000020220401000002000NNM   20220209174309    1W    00000050000001780000000000032W7    SYSYA-CH000000000000WJ322002
BI00B32W7    @SC22042JMW    20220309181B32037Y5              AVSSCS 0.3FX1 DGY/W      CCN000002000000002000FN00000000020220401000002000NNM   20220209174309    1W    00000050000001780000000000032W7    SYSYA-CH000000000000WJ422002
BI00B32W7    @SC22043JMW    20220316181B32037Y5              AVSSCS 0.3FX1 DGY/W      CCN000002000000002000FN00000000020220401000002000NNM   20220209174309    1W    00000050000001780000000000032W7    SYSYA-CH000000000000WJ123001
BI00B32W7    @SC22044JMW    20220323181B32037Y5              AVSSCS 0.3FX1 DGY/W      CCN000002000000002000FN00000000020220401000002000NNM   20220209174309    1W    00000050000001780000000000032W7    SYSYA-CH000000000000WJ223001
BI00B32W7    @SC22041JMW    20220302181B32116Y9              AVSSCS 0.3FX2 DGY/P      CCN000003850000003850FN00000000020220401000003850NNM   20220209174309    1W    00000035000002276000000000032W7    SYSYA-CH000000000000WJ322003
BI00B32W7    @SC22042JMW    20220309181B32116Y9              AVSSCS 0.3FX2 DGY/P      CCN000003850000003850FN00000000020220401000003850NNM   20220209174309    1W    00000035000002276000000000032W7    SYSYA-CH000000000000WJ422003
BI00B32W7    @SC22043JMW    20220316181B32116Y9              AVSSCS 0.3FX2 DGY/P      CCN000005250000005250FN00000000020220401000005250NNM   20220209174309    1W    00000035000002276000000000032W7    SYSYA-CH000000000000WJ123002
BI00B32W7    @SC22044JMW    20220323181B32116Y9              AVSSCS 0.3FX2 DGY/P      CCN000003850000003850FN00000000020220401000003850NNM   20220209174309    1W    00000035000002276000000000032W7    SYSYA-CH000000000000WJ223002
BI00B32W7    @SC22041JMW    20220302181B32116Y8              AVSSCS 0.3FX2 DGY/R      CCN000002800000002800FN00000000020220401000002800NNM   20220209174309    1W    00000035000002276000000000032W7    SYSYA-CH000000000000WJ322004
BI00B32W7    @SC22042JMW    20220309181B32116Y8              AVSSCS 0.3FX2 DGY/R      CCN000002800000002800FN00000000020220401000002800NNM   20220209174309    1W    00000035000002276000000000032W7    SYSYA-CH000000000000WJ422004
BI00B32W7    @SC22043JMW    20220316181B32116Y8              AVSSCS 0.3FX2 DGY/R      CCN000002800000002800FN00000000020220401000002800NNM   20220209174309    1W    00000035000002276000000000032W7    SYSYA-CH000000000000WJ123003
BI00B32W7    @SC22044JMW    20220323181B32116Y8              AVSSCS 0.3FX2 DGY/R      CCN000002800000002800FN00000000020220401000002800NNM   20220209174309    1W    00000035000002276000000000032W7    SYSYA-CH000000000000WJ223003
BI00B32W7    @SC22041JMW    20220302181E48022ZZ              CAVSAS-S 0.5X2 GY        CCN000004500000004500FN00000000020220401000004500NNM   20220209174309    1W    00000030000002561000000000032W7    SYSYA-CH000000000000WJ322005
BI00B32W7    @SC22042JMW    20220309181E48022ZZ              CAVSAS-S 0.5X2 GY        CCN000004500000004500FN00000000020220401000004500NNM   20220209174309    1W    00000030000002561000000000032W7    SYSYA-CH000000000000WJ422005
BI00B32W7    @SC22043JMW    20220316181E48022ZZ              CAVSAS-S 0.5X2 GY        CCN000004200000004200FN00000000020220401000004200NNM   20220209174309    1W    00000030000002561000000000032W7    SYSYA-CH000000000000WJ123004
BI00B32W7    @SC22044JMW    20220323181E48022ZZ              CAVSAS-S 0.5X2 GY        CCN000004500000004500FN00000000020220401000004500NNM   20220209174309    1W    00000030000002561000000000032W7    SYSYA-CH000000000000WJ223004
BI00B32W7    @SC22041JMW    20220302181E48031ZZ              CAVSAS-S 0.3X2 GY        CCN000000350000000350FN00000000020220401000000350NNM   20220209174309    1W    00000035000002008700000000032W7    SYSYA-CH000000000000WJ322006
BI00B32W7    @SC22042JMW    20220309181E48031ZZ              CAVSAS-S 0.3X2 GY        CCN000000350000000350FN00000000020220401000000350NNM   20220209174309    1W    00000035000002008700000000032W7    SYSYA-CH000000000000WJ422006
BI00B32W7    @SC22043JMW    20220316181E48031ZZ              CAVSAS-S 0.3X2 GY        CCN000000350000000350FN00000000020220401000000350NNM   20220209174309    1W    00000035000002008700000000032W7    SYSYA-CH000000000000WJ123005
BI00B32W7    @SC22044JMW    20220323181E48031ZZ              CAVSAS-S 0.3X2 GY        CCN000000350000000350FN00000000020220401000000350NNM   20220209174309    1W    00000035000002008700000000032W7    SYSYA-CH000000000000WJ223005
BI00B32W7    SC2202BJMW     2022030218000004580              AV 8 BR                  CCN000000600000000600FN00000000020220201000000600NNE   20220209174309    1W    00000010000010466200000000032W7    SYSYA-CH000000000000WK322001
BI00B32W7    SC2202BJMW     2022030218000004590              AV 8 L                   CCN000006100000006100FN00000000020220201000006100NNE   20220209174309    1W    00000010000010466200000000032W7    SYSYA-CH000000000000WK322002
BI00B32W7    SC2202BJMW     2022030218000004550              AV 8 R                   CCN000004800000004800FN00000000020220201000004800NNE   20220209174309    1W    00000010000010466200000000032W7    SYSYA-CH000000000000WK322003
BI00B32W7    SC2202BJMW     2022030218000004540              AV 8 W                   CCN000002200000002200FN00000000020220201000002200NNE   20220209174309    1W    00000010000010466200000000032W7    SYSYA-CH000000000000WK322004
BI00B32W7    SC2202BJMW     2022030218000004570              AV 8 Y                   CCN000001100000001100FN00000000020220201000001100NNE   20220209174309    1W    00000010000010466200000000032W7    SYSYA-CH000000000000WK322005
