BI00A1200    2399T51923     202202147288-6547                CONNECTOR MALE ASS'Y     PCN000216000000089250FN00000000020211101000089250NNMM0020220209150939    4N0N  0000007500000120530000134031200    YCYC    005400370024
BI00A1200    2399T51A16     202202227288-6547                CONNECTOR MALE ASS'Y     PCN000078750000093000FN00000000020211201000093000NNMM0020220209164911    4N0N  0000007500000120530000134031200    YCYC    005400370024
BI00B1200    8670T51C04     202202117196-1103-02             TERMINAL                 CCN000022500000022500FN00000000020220301000022500NNED0020220209130013    4P0P  0000225000000042980000071501200    YCYC    006400630015
BI00B1200    8670T51C05     202202117196-1103-02             TERMINAL                 CCN000022500000022500FN00000000020220301000022500NNED0020220209130013    4P0P  0000225000000042980000071501200    YCYC    006400630015
BI00B1200    8670T51C05     202202117196-1104-02             TERMINAL                 CCN000022500000022500FN00000000020220301000022500NNED0020220209130013    4P0P  0000225000000044100000072621200    YCYC    006400630015
BI00B1200    H322C50026     202202117116-4112-02             TERMINAL                 CCN000006000000006000FN00000000020220301000006000NNED0020220209130013    4P0P  0000060000000045000000073821200    YCYC    006400630015
BI00B1200    O022C50036     202202117116-4100-02             TERMINAL                 CCN000060000000060000FN00000000020220301000060000NNED0020220209130013    4P0P  0000150000000069600000099021200    YCYC    006400630015
BI00B1200    O022C50037     202202117116-4100-02             TERMINAL                 CCN000060000000060000FN00000000020220301000060000NNED0020220209130013    4P0P  0000150000000069600000099021200    YCYC    006400630015
BI00B1200    Y022C50044     202202117196-0648-02             TERMINAL                 CCN000030000000030000FN00000000020220301000030000NNMD0020220209130013    4P0P  0000150000000035550000068971200    YCYC    006400630015
BI00B1200    H322D50007     202202117116-4110-02             TERMINAL                 CCN000009000000009000FN00000000020220301000009000NNED0020220209130013    4P0P  0000090000000059400000088221200    YCYC    006400630015
BI00B1200    8670T52102     202202117196-1103-02             TERMINAL                 CCN000045000000045000FN00000000020220401000045000NNED0020220209130013    4P0P  0000225000000042980000071501200    YCYC    006400630015
BI00B1200    2399T52107     202202117116-4100-02             TERMINAL                 CCN000090000000090000FN00000000020220301000090000NNMD0020220209130013    4P0P  0000150000000069600000099021200    YCYC    006400630015
BI00B1200    2399T52108     202202117116-4100-02             TERMINAL                 CCN000075000000075000FN00000000020220301000075000NNMD0020220209130013    4P0P  0000150000000069600000099021200    YCYC    006400630015
BI00B1200    2399T52111     202202117196-0648-02             TERMINAL                 CCN000120000000120000FN00000000020220301000120000NNMD0020220209130013    4P0P  0000150000000035550000068971200    YCYC    006400630015
BI00B1200    2399T52111     202202117196-0805-02             TERMINAL FEMALE          CCN000045000000045000FN00000000020220301000045000NNMD0020220209130013    4P0P  0000225000000055800000084321200    YCYC    006400630015
BI00B1200    2399T52112     202202117196-0648-02             TERMINAL                 CCN000120000000120000FN00000000020220301000120000NNMD0020220209130013    4P0P  0000150000000035550000068971200    YCYC    006400630015
BI00B1200    2399T52112     202202117196-0805-02             TERMINAL FEMALE          CCN000045000000045000FN00000000020220301000045000NNMD0020220209130013    4P0P  0000225000000055800000084321200    YCYC    006400630015
BI00B1200    7360T52104     202202117196-1103-02             TERMINAL                 CCN000157500000157500FN00000000020220301000157500NNMD0020220209130013    4P0P  0000225000000042980000071501200    YCYC    006400630015
BI00B1200    H322D50010     202202117116-4111-02             TERMINAL                 CCN000015000000015000FN00000000020220401000015000NNED0020220209130013    4P0P  0000075000000052950000081771200    YCYC    006400630015
BI00B1200    H322D50014     202202117116-4111-02             TERMINAL                 CCN000007500000007500FN00000000020220401000007500NNED0020220209130013    4P0P  0000075000000052950000081771200    YCYC    006400630015
BI00B1200    CE22-MN-0020   202202117196-1461-06             TERMINAL FEMALE          CCN000024000000024000FN00000000020220201000024000NNED0020220209130013    4P0P  0000240000000038640000069291200    YCYC    006400630015
BI00B1200    7504T52204     202202117116-4120-02             TERMINAL                 CCN000060000000060000FN00000000020220201000060000NNMD0020220209130013    4P0P  0000060000000078000000107361200    YCYC    006400630015
BI00B1200    7504T52205     202202117116-4120-02             TERMINAL                 CCN000060000000060000FN00000000020220201000060000NNMD0020220209130013    4P0P  0000060000000078000000107361200    YCYC    006400630015
BI00B1200    7504T52204     202202117116-4122-02             TERMINAL                 CCN000153000000153000FN00000000020220201000153000NNMD0020220209130013    4P0P  0000045000000065660000095021200    YCYC    006400630015
BI00B1200    2399T52203     202202117116-4100-02             TERMINAL                 CCN000255000000255000FN00000000020220401000255000NNMD0020220209130013    4P0P  0000150000000069600000099021200    YCYC    006400630015
BI00B1200    2399T52204     202202117116-4100-02             TERMINAL                 CCN000255000000255000FN00000000020220401000255000NNMD0020220209130013    4P0P  0000150000000069600000099021200    YCYC    006400630015
BI00B1200    2399T52205     202202117116-4100-02             TERMINAL                 CCN000255000000255000FN00000000020220401000255000NNMD0020220209130013    4P0P  0000150000000069600000099021200    YCYC    006400630015
BI00B1200    2399T52203     202202117116-4111-02             TERMINAL                 CCN000015000000015000FN00000000020220401000015000NNMD0020220209130013    4P0P  0000075000000052950000081771200    YCYC    006400630015
BI00B1200    2399T52204     202202117116-4111-02             TERMINAL                 CCN000015000000015000FN00000000020220401000015000NNMD0020220209130013    4P0P  0000075000000052950000081771200    YCYC    006400630015
BI00B1200    2399T52205     202202117116-4111-02             TERMINAL                 CCN000015000000015000FN00000000020220401000015000NNMD0020220209130013    4P0P  0000075000000052950000081771200    YCYC    006400630015
BI00B1200    2399T52209     202202117196-0648-02             TERMINAL                 CCN000150000000150000FN00000000020220401000150000NNMD0020220209130013    4P0P  0000150000000035550000068971200    YCYC    006400630015
BI00B1200    2399T52210     202202117196-0648-02             TERMINAL                 CCN000150000000150000FN00000000020220401000150000NNMD0020220209130013    4P0P  0000150000000035550000068971200    YCYC    006400630015
BI00B1200    7360T52201     202202117196-1103-02             TERMINAL                 CCN000450000000450000FN00000000020220401000450000NNMD0020220209130013    4P0P  0000225000000042980000071501200    YCYC    006400630015
BI00B1200    7360T52202     202202117196-1103-02             TERMINAL                 CCN000405000000405000FN00000000020220401000405000NNMD0020220209130013    4P0P  0000225000000042980000071501200    YCYC    006400630015
BI00A1200    MKH2022-021    202202107196-2032-02             TERMINAL FEMALE          CCN000015000000015000FN00000000020220201000015000NNED0020220209122944    4P0P  0000150000000107100000123441200    YCYC    005100280028
BI00B32AG    XG22032CMW     202202117327-6880-30             MULTI FUSE               CCN000002592000000000FY00000000020220301000000000NNMQ0820220209161658    4N0N  00000028800001012600001178532AG    XGXGY   005400370024
BI00B32AG    XG22033CMW     202202117327-6880-30             MULTI FUSE               CCN000002592000000000FY00000000020220301000000000NNMQ0820220209161740    4N0N  00000028800001012600001178532AG    XGXGY   005400370024
BI00B32AG    XG22034CMW     202202187327-6880-30             MULTI FUSE               CCN000000576000000000FY00000000020220301000000000NNMQ0820220209161802    4N0N  00000028800001012600001178532AG    XGXGY   005400370024
BI00B32AG    XG22035CMW     202202257327-6880-30             MULTI FUSE               CCN000002880000000000FY00000000020220301000000000NNMQ0820220209161822    4N0N  00000028800001012600001178532AG    XGXGY   005400370024
BI00B32AG    XG2202ACMW     202203047327-6880-30             MULTI FUSE               CCN000004320000000000FY00000000020220201000000000NNEQ0820220209161842    4N0N  00000028800001012600001178532AG    XGXGY   005400370024
BI00B32A7    ZZ22023BMW     202202117172-5403-30             SEALED PACKING           CCN000060000000060000FN00000000020220201000060000NNM00020220209122944    1C0C  00000400000000653600000701732A7    ZZZZY   004300270014
BI00B32A7    ZZ22023LMW     202202117172-5403-30             SEALED PACKING           CCN000036000000036000FN00000000020220201000036000NNM00020220209122944    1C0C  00000400000000653600000701732A7    ZZZZY   004300270014
BI00B32A7    ZZ22033BMW     202202157137-3047-30             UNIT PACKING             CCN000023000000023000FN00000000020220301000023000NNMD0320220209122944    1C0C  00000100000000170500000218932A7    ZZZZY   002700430014
BI00B32A7    ZZ22031LMW     202202117327-6769-3W             BATTERY FUSE             CCN000014016000007008FN00000000020220301000007008NNMD0420220209122944    4N0N  00000009600000933300001133332A7    ZZZZY   005500360039
BI00B32A7    ZZ22031LMW     202202117289-4696-30             HOUSING FEMALE ASS'Y     CCN000032000000032000FN00000000020220301000032000NNMD0420220209122944    4N0N  00000200000000913400001055432A7    ZZZZY   005400370024
BI00B32BF    TT22041BMW     202202157114-6041                TERMINAL                 CCN000003600000003600FN00000000020220401000003600NNMD0020220209122944    4P0P  00000360000000580700000824232BF    TTTJYCD 006400630015
BI00B32BF    TT22041BMW     202202157196-0396-02             TERMINAL                 CCN000015000000015000FN00000000020220401000015000NNMD0020220209122944    4P0P  00001500000000949500001112932BF    TTTJYCD 002800510028
BI00B32BF    TT22041BMW     202202157196-0510-02             TERMINAL                 CCN000096000000096000FN00000000020220401000096000NNMD0020220209122944    4P0P  00002400000000871200001034632BF    TTTJYCD 002800510028
BI00B32BF    TT22041KMW     202202157116-1471                TERMINAL                 CCN000015000000015000FN00000000020220401000015000NNMD0020220209155113    4P0P  00001500000000579000000867232BF    TTTJYCD 006400630015
BI00B32BF    TT22041KMW     202202157116-4025                TERMINAL                 CCN000032000000032000FN00000000020220401000032000NNMD0020220209155113    4P0P  00001600000000644800000975132BF    TTTJYCD 006400630017
BI00B32CA    PTA32082       202204287158-3167-80             WIRE SEAL                CCN000040000000040000FN00000000020220801000040000NNE   20220209122944    1C0C  00002000000000048000000109032CA    YPYPY   002700430014
BI00B32CA    PTA32082       202204287287-9323                UNSEALED HOUSING SUB     CCN000004800000004800FN00000000020220801000004800NNE   20220209122944    1N0N  00000240000000537600000690032CA    YPYPY   005600390023
BI00B32CA    PTA32082       202204287289-3342                HOUSING FEMALE ASS'Y     CCN000004800000004800FN00000000020220801000004800NNE   20220209122944    1N0N  00000240000000686400000901432CA    YPYPY   005500360039
BI00B32CA    PTA32082       202204287289-3342-30             HOUSING FEMALE ASS'Y     CCN000007200000007200FN00000000020220801000007200NNE   20220209122944    1N0N  00000240000000686400000901432CA    YPYPY   005500360039
BI00B32CA    PTA32082       202204287289-3342-90             HOUSING FEMALE ASS'Y     CCN000002400000002400FN00000000020220801000002400NNE   20220209122944    1N0N  00000240000000686400000901432CA    YPYPY   005500360039
BI00B32CA    #PTA32082      202204287154-5597-30             CASSETTE R/B             CCN000000800000000800FN00000000020220801000000800NNE   20220209122944    2F0F  00000080000000736000000952032CA    YPYPY   005500360039
BI00B32CA    #PTA32082      202204287183-2414-30             CONNECTOR HOUSING        CCN000003750000004800FN00000000020220801000004800NNE   20220209122944    2F0F  00000480000000779500001061532CA    YPYPY   005500360039
BI00B32CA    #PTA32082      202204287189-3033                HOUSING FEMALE           CCN000001600000001600FN00000000020220801000001600NNE   20220209122944    2F0F  00000160000001211200001431232CA    YPYPY   005500360039
BI00B32CA    #PTA32082      202204287189-3034-30             HOUSING FEMALE           CCN000001600000001600FN00000000020220801000001600NNE   20220209122944    2F0F  00000160000000972800001192832CA    YPYPY   005500360039
BI00B32CA    #PTA32082      202204287189-3036                HOUSING FEMALE           CCN000001600000001600FN00000000020220801000001600NNE   20220209122944    2F0F  00000160000000921600001141632CA    YPYPY   005500360039
BI00B32CH    SJ22034HMW     202202177327-6884-30             MULTI FUSE               CCN000020448000005472FN00000000020220301000005472NNMD0020220209122944    4N0N  00000028800000988900001154832CH    SJSAMIJF005400370024
BI00A32CH    SJ22034HMW     202202177327-6884-30             MULTI FUSE               CCN000014976000014976FN00000000020220301000014976NNMM0020220209143108    4N0N  00000028800000988900001154832CH    SJSAMIJF005400370024
BI00A32DJ    GHT2202B 2     202202117C89-6868-30             SEALED ASSY FEMALE       CCN000007560000007560FN00000000020220201000007560NNMM0020220209133510    4N0N  00000252000000839200001119232DJ    RBYIPLRB005500360039
BI00B32DJ    GHT2203B 1     202202117172-5540-80             SEALED WIRE SEAL         CCN000240000000200000FN00000000020220201000200000NNM00020220209132238    1C0C  00002000000000186000000234432DJ    RBYIPLRB004300270014
BI00A32DJ    GHT2203B 1     202202117172-5540-80             SEALED WIRE SEAL         CCN000040000000040000FN00000000020220201000040000NNMM0020220209133413    1C0C  00002000000000186000000234432DJ    RBYIPLRB004300270014
BI00A32D1    DFTC2150       202202107289-3342-40             HOUSING FEMALE ASS'Y     CCN000016800000016800FN00000000020211201000016800NNM00020220209151314    1N0N  00000240000000686400000901432D1    TOYOT-K 005500360039
BI00B32D1    DFTC2213       202202087114-5748-02             TERMINAL                 CCN000060000000060000FY00006000020220401000000000NNM00020220209150727    4P0P  00001200000000444000000737632D1    TOYOT-K 006400630015
BI00B32D1    DFTC2213       202202087114-5753-02             TERMINAL                 CCN000135000000135000FY00013500020220401000000000NNM00020220209150727    4P0P  00002700000000847800001141432D1    TOYOT-K 006400630015
BI00B32D1    DFTC2213       202202087116-1685-02             TERMINAL                 CCN000048000000048000FY00004800020220401000000000NNM00020220209150727    4P0P  00002400000000897600001065232D1    TOYOT-K 005100280028
BI00B32D1    DFTC2213       202202087116-2891-02             TERMINAL                 CCN000045000000045000FY00004500020220401000000000NNM00020220209150727    4P0P  00001500000000982500001145932D1    TOYOT-K 005100280028
BI00B32D1    DFTC2213       202202087116-4100-02             TERMINAL                 CCN000015000000015000FY00001500020220401000000000NNM00020220209150727    4P0P  00001500000000696000000990232D1    TOYOT-K 006400630015
BI00B32D1    DFTC2213       202202087116-4101-02             TERMINAL                 CCN000012000000012000FY00001200020220401000000000NNM00020220209150727    4P0P  00001200000000582000000876232D1    TOYOT-K 006400630015
BI00B32D1    DFTC2213       202202087116-4110-02             TERMINAL                 CCN000036000000036000FY00003600020220401000000000NNM00020220209150727    4P0P  00000900000000594000000882232D1    TOYOT-K 006400630015
BI00B32D1    DFTC2213       202202087116-4111-02             TERMINAL                 CCN000022500000022500FY00002250020220401000000000NNM00020220209150727    4P0P  00000750000000529500000817732D1    TOYOT-K 006400630015
BI00B32D1    DFTC2213       202202087116-4112-02             TERMINAL                 CCN000042000000042000FY00004200020220401000000000NNM00020220209150727    4P0P  00000600000000450000000738232D1    TOYOT-K 006400630015
BI00B32D1    DFTC2213       202202087116-4486-02             TERMINAL                 CCN000084000000084000FY00008400020220401000000000NNM00020220209150727    4P0P  00002800000000666400000995132D1    TOYOT-K 006400630017
BI00B32D1    DFTC2213       202202087116-5045-02             TERMINAL                 CCN000032000000032000FY00003200020220401000000000NNM00020220209150727    4P0P  00001600000000678400001007132D1    TOYOT-K 006400630017
BI00B32D1    DFTC2213       202202087126-8853-02             TERMINAL                 CCN000030000000030000FY00003000020220401000000000NNM00020220209150727    4P0P  00000750000000562500000847732D1    TOYOT-K 006400630015
BI00B32D1    DFTC2213       202202087126-8854-02             TERMINAL                 CCN000037500000037500FY00003750020220401000000000NNM00020220209150727    4P0P  00000750000000604500000889732D1    TOYOT-K 006400630015
BI00B32D1    DFTC2213       202202087126-8855-02             TERMINAL                 CCN000018000000018000FY00001800020220401000000000NNM00020220209150727    4P0P  00000600000000510600000795832D1    TOYOT-K 006400630015
BI00B32D1    DFTC2213       202202087196-0396-02             TERMINAL                 CCN000015000000015000FY00001500020220401000000000NNM00020220209150727    4P0P  00001500000000949500001112932D1    TOYOT-K 002800510028
BI00B32D1    DFTC2213       202202087196-0510-02             TERMINAL                 CCN000024000000024000FY00002400020220401000000000NNM00020220209150727    4P0P  00002400000000871200001034632D1    TOYOT-K 002800510028
BI00B32D1    DFTC2213       202202087282-4576                HOUSING MALE ASS'Y       CCN000002400000002400FY00000240020220401000000000NNM00020220209150727    4N0N  00000240000000808800001028832D1    TOYOT-K 005500360039
BI00B32D1    DFTC2213       202202087283-1156                CONNECTOR                CCN000001600000001600FY00000160020220401000000000NNM00020220209150727    4N0N  00000080000000877600001078032D1    TOYOT-K 005600390040
BI00B32D1    DFTC2213       202202087288-6547                CONNECTOR MALE ASS'Y     CCN000004500000004500FY00000450020220401000000000NNM00020220209150727    4N0N  00000075000001205300001340332D1    TOYOT-K 005400370024
BI00B32D1    DFTC2213       202202087327-6731-3W             BATTERY FUSE             CCN000000640000000640FY00000064020220401000000000NNM00020220209150727    4N0N  00000006400000697600000843032D1    TOYOT-K 005400370024
BI00B32D1    DFTC2219       202203177114-4032                TERMINAL                 CCN000007500000007500FN00000000020220501000007500NNM   20220209122944    4P0P  00000750000000735000001063632D1    TOYOT-K 006400630017
BI00B32D1    DFTC2219       202203177114-5748-02             TERMINAL                 CCN000048000000048000FN00000000020220501000048000NNM   20220209122944    4P0P  00001200000000444000000737632D1    TOYOT-K 006400630015
BI00B32D1    DFTC2219       202203177114-5753-02             TERMINAL                 CCN000162000000162000FN00000000020220501000162000NNM   20220209122944    4P0P  00002700000000847800001141432D1    TOYOT-K 006400630015
BI00B32D1    DFTC2219       202203177116-2891-02             TERMINAL                 CCN000075000000075000FN00000000020220501000075000NNM   20220209122944    4P0P  00001500000000982500001145932D1    TOYOT-K 005100280028
BI00B32D1    DFTC2219       202203177116-4100-02             TERMINAL                 CCN000015000000015000FN00000000020220501000015000NNM   20220209122944    4P0P  00001500000000696000000990232D1    TOYOT-K 006400630015
BI00B32D1    DFTC2219       202203177116-4110-02             TERMINAL                 CCN000018000000018000FN00000000020220501000018000NNM   20220209122944    4P0P  00000900000000594000000882232D1    TOYOT-K 006400630015
BI00B32D1    DFTC2219       202203177116-4111-02             TERMINAL                 CCN000022500000022500FN00000000020220501000022500NNM   20220209122944    4P0P  00000750000000529500000817732D1    TOYOT-K 006400630015
BI00B32D1    DFTC2219       202203177116-4112-02             TERMINAL                 CCN000060000000060000FN00000000020220501000060000NNM   20220209122944    4P0P  00000600000000450000000738232D1    TOYOT-K 006400630015
BI00B32D1    DFTC2219       202203177116-4486-02             TERMINAL                 CCN000112000000112000FN00000000020220501000112000NNM   20220209122944    4P0P  00002800000000666400000995132D1    TOYOT-K 006400630017
BI00B32D1    DFTC2219       202203177116-5045-02             TERMINAL                 CCN000080000000080000FN00000000020220501000080000NNM   20220209122944    4P0P  00001600000000678400001007132D1    TOYOT-K 006400630017
BI00B32D1    DFTC2219       202203177126-8853-02             TERMINAL                 CCN000037500000037500FN00000000020220501000037500NNM   20220209122944    4P0P  00000750000000562500000847732D1    TOYOT-K 006400630015
BI00B32D1    DFTC2219       202203177126-8854-02             TERMINAL                 CCN000067500000067500FN00000000020220501000067500NNM   20220209122944    4P0P  00000750000000604500000889732D1    TOYOT-K 006400630015
BI00B32D1    DFTC2219       202203177126-8855-02             TERMINAL                 CCN000054000000054000FN00000000020220501000054000NNM   20220209122944    4P0P  00000600000000510600000795832D1    TOYOT-K 006400630015
BI00B32D1    DFTC2219       202203177158-3070-80             RUBBER STOPPER           CCN000040000000040000FN00000000020220501000040000NNM   20220209122944    1C0C  00004000000000276000000333332D1    TOYOT-K 002700430014
BI00B32D1    DFTC2219       202203177196-0510-02             TERMINAL                 CCN000024000000024000FN00000000020220501000024000NNM   20220209122944    4P0P  00002400000000871200001034632D1    TOYOT-K 002800510028
BI00B32D1    DFTC2219       202203177282-4576                HOUSING MALE ASS'Y       CCN000002400000002400FN00000000020220501000002400NNM   20220209122944    4N0N  00000240000000808800001028832D1    TOYOT-K 005500360039
BI00B32D1    DFTC2219       202203177283-1156                CONNECTOR                CCN000000800000000800FN00000000020220501000000800NNM   20220209122944    4N0N  00000080000000877600001078032D1    TOYOT-K 005600390040
BI00B32D1    DFTC2219       202203177288-6547                CONNECTOR MALE ASS'Y     CCN000009000000009000FN00000000020220501000009000NNM   20220209122944    4N0N  00000075000001205300001340332D1    TOYOT-K 005400370024
BI00B32D1    DFTC2219       202203177289-3342                HOUSING FEMALE ASS'Y     CCN000028800000028800FN00000000020220501000028800NNM   20220209122944    1N0N  00000240000000686400000901432D1    TOYOT-K 005500360039
BI00B32D1    DFTC2219       202203177289-3342-30             HOUSING FEMALE ASS'Y     CCN000052800000052800FN00000000020220501000052800NNM   20220209122944    1N0N  00000240000000686400000901432D1    TOYOT-K 005500360039
BI00B32D1    DFTC2219       202203177289-3342-40             HOUSING FEMALE ASS'Y     CCN000009600000009600FN00000000020220501000009600NNM   20220209122944    1N0N  00000240000000686400000901432D1    TOYOT-K 005500360039
BI00B32D1    DFTC2219       202203177289-3342-90             HOUSING FEMALE ASS'Y     CCN000004800000004800FN00000000020220501000004800NNM   20220209122944    1N0N  00000240000000686400000901432D1    TOYOT-K 005500360039
BI00B32D1    DFTC2219       202203177289-6547                HOUSING FEMALE ASS'Y     CCN000009600000009600FN00000000020220501000009600NNM   20220209122944    1N0N  00000240000001152000001362032D1    TOYOT-K 005500360039
BI00B32D1    DFTC2219       202203177296-0784-02             TERMINAL ALUMINIUM       CCN000024000000024000FN00000000020220501000024000NNM   20220209122944    4P0P  00002400000000480000000765232D1    TOYOT-K 006400630015
BI00B32D1    DFTC2219       202203177296-1025-02             TERMINAL ALUMINIUM       CCN000018000000018000FN00000000020220501000018000NNM   20220209122944    4P0P  00001800000000635400000920632D1    TOYOT-K 006400630015
BI00B32D1    DFTC2219       202203177327-6731-3W             BATTERY FUSE             CCN000000128000000128FN00000000020220501000000128NNM   20220209122944    4N0N  00000006400000697600000843032D1    TOYOT-K 005400370024
BI00B32D1    DFTC2219       202203177388-2978-30             HOUSING MALE ASS'Y       CCN000008640000008640FN00000000020220501000008640NNM   20220209122944    1N0N  00000048000000742000001122032D1    TOYOT-K 005500360039
BI00B32D1    #DFTC2219      202203177158-3003-90             RUBBER STOPPER           CCN000060000000060000FN00000000020220501000060000NNM   20220209122944    2C0C  00002000000000250000000306032D1    TOYOT-K 002700430014
BI00B32D1    #DFTC2219      202203177158-3004-40             RUBBER STOPPER           CCN000020000000020000FN00000000020220501000020000NNM   20220209122944    2C0C  00002000000000234000000306332D1    TOYOT-K 002700430014
BI00B32D1    #DFTC2219      202203177158-3005-80             RUBBER STOPPER           CCN000040000000040000FN00000000020220501000040000NNM   20220209122944    2H0H  00002000000000210000000268732D1    TOYOT-K 002700430014
BI00B32D1    #DFTC2219      202203177158-3008-80             RUBBER STOPPER           CCN000020000000020000FN00000000020220501000020000NNM   20220209122944    2C0C  00002000000000288000000343032D1    TOYOT-K 004300270014
BI00B32D1    #DFTC2219      202203177158-3015-10             RUBBER STOPPER           CCN000020000000020000FN00000000020220501000020000NNM   20220209122944    2C0C  00001000000000419500000474032D1    TOYOT-K 002700430014
BI00B32D1    #DFTC2219      202203177158-3017                RUBBER STOPPER           CCN000030000000030000FN00000000020220501000030000NNM   20220209122944    2C0C  00001000000000375500000435032D1    TOYOT-K 002700430014
BI00B32D1    #DFTC2219      202203177172-5629-80             RUBBER STOPPER           CCN000020000000020000FN00000000020220501000020000NNM   20220209122944    2H0H  00002000000000060000000111132D1    TOYOT-K 004300270014
BI00B32D1    #DFTC2219      202203177172-5631-60             RUBBER STOPPER           CCN000020000000020000FN00000000020220501000020000NNM   20220209122944    2H0H  00002000000000042000000093132D1    TOYOT-K 004300270014
BI00B32D1    #DFTC2219      202203177172-5632-10             DUMMY PLUG               CCN000020000000020000FN00000000020220501000020000NNM   20220209122944    2H0H  00002000000000080400000131832D1    TOYOT-K 004300270014
BI00B32D1    #DFTC2219      202203177183-2418-30             CONNECTOR HOUSING        CCN000004800000004800FN00000000020220501000004800NNM   20220209122944    2F0F  00000480000000917000001235332D1    TOYOT-K 005500360039
BI00B32D1    #DFTC2219      202203177183-7725-40             HOUSING                  CCN000006000000006000FN00000000020220501000006000NNM   20220209122944    2F0F  00000600000000840000001040032D1    TOYOT-K 005600390040
BI00B32D1    #DFTC2219      202203177189-2978-30             HOUSING FEMALE           CCN000009000000009000FN00000000020220501000009000NNM   20220209122944    2F0F  00000150000000966900001096932D1    TOYOT-K 005400370024
BI00B32D1    #DFTC2219      202203177189-3033                HOUSING FEMALE           CCN000006400000006400FN00000000020220501000006400NNM   20220209122944    2F0F  00000160000001211200001431232D1    TOYOT-K 005500360039
BI00B32D1    #DFTC2219      202203177189-3036                HOUSING FEMALE           CCN000001600000001600FN00000000020220501000001600NNM   20220209122944    2F0F  00000160000000921600001141632D1    TOYOT-K 005500360039
BI00B32D1    #DFTC2219      202203177282-1641                CONNECTOR                CCN000002000000002000FN00000000020220501000002000NNM   20220209122944    2N0N  00000200000000813000000986032D1    TOYOT-K 005500360039
BI00B32D1    #DFTC2219      202203177289-2912-40             HOUSING FEMALE ASS'Y     CCN000002000000002000FN00000000020220501000002000NNM   20220209122944    2N0N  00000200000000804000000931032D1    TOYOT-K 005400370024
BI00B32D1    #DFTC2219      202203177289-3622-30             HOUSING FEMALE ASS'Y     CCN000004752000004752FN00000000020220501000004752NNM   20220209122944    2N0N  00000043200000839400001038432D1    TOYOT-K 005400370024
BI00B32D1    #DFTC2219      202203177289-4200-30             HOUSING FEMALE ASS'Y     CCN000002000000002000FN00000000020220501000002000NNM   20220209122944    2N0N  00000200000000926000001021032D1    TOYOT-K 005400370024
BI00B32D2    DGTC2207       202202087289-3342                HOUSING FEMALE ASS'Y     CCN000045600000045600FY00004560020220201000000000NNM00020220209150236    1N0N  00000240000000686400000901432D2    TGYOT-G 005500360039
BI00B32D2    DGTC2207       202202087289-3342-40             HOUSING FEMALE ASS'Y     CCN000016800000016800FY00001680020220201000000000NNM00020220209150307    1N0N  00000240000000686400000901432D2    TGYOT-G 005500360039
BI00B32D2    DGTC2212       202202087017-1180-02             TERMINAL                 CCN000072000000072000FY00007200020220301000000000NNM00020220209150552    4P0P  00007200000001065600001229032D2    TGYOT-G 005100280028
BI00B32D2    DGTC2212       202202087114-4032                TERMINAL                 CCN000075000000075000FY00007500020220301000000000NNM00020220209150552    4P0P  00000750000000735000001063632D2    TGYOT-G 006400630017
BI00B32D2    DGTC2212       202202087114-5753-02             TERMINAL                 CCN000297000000297000FY00029700020220301000000000NNM00020220209150552    4P0P  00002700000000847800001141432D2    TGYOT-G 006400630015
BI00B32D2    DGTC2212       202202087116-2891-02             TERMINAL                 CCN000045000000045000FY00004500020220301000000000NNM00020220209150552    4P0P  00001500000000982500001145932D2    TGYOT-G 005100280028
BI00B32D2    DGTC2212       202202087116-4104-02             TERMINAL                 CCN000012000000012000FY00001200020220301000000000NNM00020220209150552    4P0P  00001200000000580800000972432D2    TGYOT-G 006400630015
BI00B32D2    DGTC2212       202202087116-4486-02             TERMINAL                 CCN000308000000308000FY00030800020220301000000000NNM00020220209150552    4P0P  00002800000000666400000995132D2    TGYOT-G 006400630017
BI00B32D2    DGTC2212       202202087116-5045-02             TERMINAL                 CCN000112000000112000FY00011200020220301000000000NNM00020220209150552    4P0P  00001600000000678400001007132D2    TGYOT-G 006400630017
BI00B32D2    DGTC2212       202202087116-5046-02             TERMINAL                 CCN000216000000216000FY00021600020220301000000000NNM00020220209150552    4P0P  00001200000000544800000873532D2    TGYOT-G 006400630017
BI00B32D2    DGTC2212       202202087116-6042                TERMINAL                 CCN000133000000135000FY00013500020220301000000000NNM00020220209150552    4P0P  00000300000000523800000856132D2    TGYOT-G 006400630015
BI00B32D2    DGTC2212       202202087126-8853-02             TERMINAL                 CCN000268000000270000FY00027000020220301000000000NNM00020220209150552    4P0P  00000750000000562500000847732D2    TGYOT-G 006400630015
BI00B32D2    DGTC2212       202202087126-8854-02             TERMINAL                 CCN000192000000195000FY00019500020220301000000000NNM00020220209150552    4P0P  00000750000000604500000889732D2    TGYOT-G 006400630015
BI00B32D2    DGTC2212       202202087126-8855-02             TERMINAL                 CCN000283200000288000FY00028800020220301000000000NNM00020220209150552    4P0P  00000600000000510600000795832D2    TGYOT-G 006400630015
BI00B32D2    DGTC2212       202202087158-3070-80             RUBBER STOPPER           CCN000040000000040000FY00004000020220301000000000NNM00020220209150552    1C0C  00004000000000276000000333332D2    TGYOT-G 002700430014
BI00B32D2    DGTC2212       202202087158-3166-60             WIRE SEAL                CCN000130000000160000FY00016000020220301000000000NNM00020220209150552    1C0C  00004000000000104000000152432D2    TGYOT-G 002700430014
BI00B32D2    DGTC2212       202202087158-3167-80             WIRE SEAL                CCN000036000000040000FY00004000020220301000000000NNM00020220209150552    1C0C  00002000000000048000000109032D2    TGYOT-G 002700430014
BI00B32D2    DGTC2212       202202087173-3291-40             LIF LEVER                CCN000028800000028800FY00002880020220301000000000NNM00020220209150552    1F0F  00000240000000867800001067832D2    TGYOT-G 005500360039
BI00B32D2    DGTC2212       202202087196-0396-02             TERMINAL                 CCN000030000000030000FY00003000020220301000000000NNM00020220209150552    4P0P  00001500000000949500001112932D2    TGYOT-G 002800510028
BI00B32D2    DGTC2212       202202087196-1325-02             TERMINAL FEMALE          CCN000960000000960000FY00096000020220301000000000NNM00020220209150552    4P0P  00006000000000450000000778732D2    TGYOT-G 006400630017
BI00B32D2    DGTC2212       202202087196-1326-02             TERMINAL FEMALE          CCN001980000001980000FY00198000020220301000000000NNM00020220209150552    4P0P  00006000000000456000000784732D2    TGYOT-G 006400630017
BI00B32D2    DGTC2212       202202087196-1327-02             TERMINAL FEMALE          CCN000156000000156000FY00015600020220301000000000NNM00020220209150552    4P0P  00005200000000336000000739532D2    TGYOT-G 006400630017
BI00B32D2    DGTC2212       202202087283-6388-40             CONNECTOR                CCN000004000000004000FY00000400020220301000000000NNM00020220209150552    4N0N  00000200000001029000001173532D2    TGYOT-G 005500360039
BI00B32D2    DGTC2212       202202107289-3342-30             HOUSING FEMALE ASS'Y     CCN000045600000045600FN00000000020220301000045600NNM00020220209142033    1N0N  00000240000000686400000901432D2    TGYOT-G 005500360039
BI00B32D2    DGTC2212       202202087289-6518-30             HOUSING FEMALE ASS'Y     CCN000026400000026400FY00002640020220301000000000NNM00020220209150552    1N0N  00000120000000829200001049232D2    TGYOT-G 005500360039
BI00B32D2    DGTC2212       202202087296-0784-02             TERMINAL ALUMINIUM       CCN000160000000168000FY00016800020220301000000000NNM00020220209150552    4P0P  00002400000000480000000765232D2    TGYOT-G 006400630015
BI00B32D2    DGTC2212       202202087296-1020-02             TERMINAL ALUMINIUM       CCN000022500000022500FY00002250020220301000000000NNM00020220209150552    4P0P  00002250000000699800000985032D2    TGYOT-G 006400630015
BI00B32D2    DGTC2212       202202087296-1024-02             TERMINAL ALUMINIUM       CCN000054000000054000FY00005400020220301000000000NNM00020220209150552    4P0P  00001800000000698400000983632D2    TGYOT-G 006400630015
BI00B32D2    DGTC2212       202202087296-1025-02             TERMINAL ALUMINIUM       CCN000036000000036000FY00003600020220301000000000NNM00020220209150552    4P0P  00001800000000635400000920632D2    TGYOT-G 006400630015
BI00B32D2    DGTC2212       202202087327-6801-3W             BATTERY FUSE             CCN000005568000005568FY00000556820220301000000000NNM00020220209150552    4N0N  00000009600000928400001143432D2    TGYOT-G 005500360039
BI00B32D2    DGTC2212       202202087327-6803                MULTI FUSE               CCN000001120000001120FY00000112020220301000000000NNM00020220209150552    4N0N  00000056000000854600001067032D2    TGYOT-G 005400370024
BI00B32D2    DGTC2212       202202087327-6806                MULTI FUSE               CCN000005600000005600FY00000560020220301000000000NNM00020220209150552    4N0N  00000056000000851500001063932D2    TGYOT-G 005400370024
BI00B32D2    DGTC2212       202202087327-6809                MULTI FUSE               CCN000014560000014560FY00001456020220301000000000NNM00020220209150552    4N0N  00000056000000849300001061732D2    TGYOT-G 005400370024
BI00B32D2    DGTC2212       202202087327-6930                MULTI FUSE               CCN000003920000003920FY00000392020220301000000000NNM00020220209150552    4N0N  00000056000000848900001031932D2    TGYOT-G 005400370024
BI00B32D2    DGTC2212       202202087388-2978-30             HOUSING MALE ASS'Y       CCN000033600000033600FY00003360020220301000000000NNM00020220209150552    1N0N  00000048000000742000001122032D2    TGYOT-G 005500360039
BI00B32D2    DGTC2214       202202107289-3342-30             HOUSING FEMALE ASS'Y     CCN000014400000014400FN00000000020220401000014400NNM00020220209142039    1N0N  00000240000000686400000901432D2    TGYOT-G 005500360039
BI00B32D2    DGTC2214       202202107289-3342-40             HOUSING FEMALE ASS'Y     CCN000007200000007200FN00000000020220401000007200NNM00020220209142311    1N0N  00000240000000686400000901432D2    TGYOT-G 005500360039
BI00B32D2    DGTC2214       202202107388-2978-30             HOUSING MALE ASS'Y       CCN000055680000055680FN00000000020220401000055680NNM00020220209142714    1N0N  00000048000000742000001122032D2    TGYOT-G 005500360039
BI00A32D9    I20401         202202157289-3342-90             HOUSING FEMALE ASS'Y     CCN000028800000028800FN00000000020220101000028800NNMM0020220209122944    1N0N  00000240000000686400000901432D9    UEHESTO 005500360039
BI00A32EJ    T211223P02     202202047114-4100-02             TERMINAL                 CCN000018000000018000FY00001800020220201000000000NNE00020220209150122EJ  4P0P  00001800000000748800001077432EJ    EJYKBO  006400630017
BI00A32EJ    T211223P02     202202047116-2951-02             TERMINAL                 CCN000005400000005400FY00000540020220201000000000NNE00020220209150131EJ  4P0P  00000540000000817600001111832EJ    EJYKBO  006400630015
BI00A32EJ    T220208P01     202203037116-4231-02             TERMINAL                 CCN000052000000052000FN00000000020220301000052000NNE   20220209122944EJ  4P0P  00002600000000683800001012532EJ    EJYKBO  006400630017
BI00B32EJ    T220208P02     202203037158-3165-90             WIRE SEAL                CCN000080000000080000FN00000000020220301000080000NNE   20220209122944EJ  1C0C  00004000000000124000000172432EJ    EJYKBO  004300270014
BI00B32EJ    T220208P03     202203037158-3165-90             WIRE SEAL                CCN000080000000080000FN00000000020220301000080000NNE   20220209122944EJ  1C0C  00004000000000124000000172432EJ    EJYKBO  004300270014
BI00B32EJ    T220208P03     202203037116-4022                TERMINAL                 CCN000013500000013500FN00000000020220301000013500NNE   20220209122944EJ  4P0P  00001350000000618300000903532EJ    EJYKBO  006400630015
BI00B32EJ    #T220208P03    202203037158-3374-90             CONNECTOR WIRE SEAL      CCN000020000000020000FN00000000020220301000020000NNE   20220209122944EJ  2H0H  00002000000000172000000229332EJ    EJYKBO  002700430014
BI00B32G0    TZ22041EMW     202202157114-5748-02             TERMINAL                 CCN000072000000072000FN00000000020220401000072000NNMD0020220209122944    4P0P  00001200000000444000000737632G0    TTTJY   006400630015
BI00B32G0    TZ22041EMW     202202157116-1685-02             TERMINAL                 CCN000072000000072000FN00000000020220401000072000NNMD0020220209122944    4P0P  00002400000000897600001065232G0    TTTJY   005100280028
BI00B32G0    TZ22041EMW     202202157116-1686-02             TERMINAL                 CCN000021000000021000FN00000000020220401000021000NNMD0020220209122944    4P0P  00002100000000869400001021632G0    TTTJY   005100280028
BI00B32G0    TZ22041EMW     202202157196-0396-02             TERMINAL                 CCN000030000000030000FN00000000020220401000030000NNMD0020220209122944    4P0P  00001500000000949500001112932G0    TTTJY   002800510028
BI00B32G0    TZ22041EMW     202202157196-0510-02             TERMINAL                 CCN000120000000120000FN00000000020220401000120000NNMD0020220209122944    4P0P  00002400000000871200001034632G0    TTTJY   002800510028
BI00B32G0    TZ22041EMW     202202157196-0805-02             TERMINAL FEMALE          CCN000022500000022500FN00000000020220401000022500NNMD0020220209122944    4P0P  00002250000000558000000843232G0    TTTJY   006400630015
BI00B32G0    TZ22041EMW     202202157196-1326-02             TERMINAL FEMALE          CCN000060000000060000FN00000000020220401000060000NNMD0020220209122944    4P0P  00006000000000456000000784732G0    TTTJY   006400630017
BI00B32G0    TZ22041EMW     202202157296-0784-02             TERMINAL ALUMINIUM       CCN000072000000072000FN00000000020220401000072000NNMD0020220209122944    4P0P  00002400000000480000000765232G0    TTTJY   006400630015
BI00B32H0    TT22041VMW     202202157114-5748-02             TERMINAL                 CCN000048000000048000FN00000000020220401000048000NNMD0020220209155222    4P0P  00001200000000444000000737632H0    TTTJY   006400630015
BI00B32H0    TT22041VMW     202202157116-5045-02             TERMINAL                 CCN000096000000096000FN00000000020220401000096000NNMD0020220209155222    4P0P  00001600000000678400001007132H0    TTTJY   006400630017
BI00B32H0    TT22041VMW     202202157116-5046-02             TERMINAL                 CCN000132000000132000FN00000000020220401000132000NNMD0020220209155222    4P0P  00001200000000544800000873532H0    TTTJY   006400630017
BI00B32H0    TT22041VMW     202202157196-0396-02             TERMINAL                 CCN000075000000075000FN00000000020220401000075000NNMD0020220209155222    4P0P  00001500000000949500001112932H0    TTTJY   002800510028
BI00B32H0    TT22041VMW     202202157196-0510-02             TERMINAL                 CCN000048000000048000FN00000000020220401000048000NNMD0020220209155222    4P0P  00002400000000871200001034632H0    TTTJY   002800510028
BI00B32H0    TT22041VMW     202202157196-1325-02             TERMINAL FEMALE          CCN000060000000060000FN00000000020220401000060000NNMD0020220209155222    4P0P  00006000000000450000000778732H0    TTTJY   006400630017
BI00B32H0    TT22041VMW     202202157196-1326-02             TERMINAL FEMALE          CCN000120000000120000FN00000000020220401000120000NNMD0020220209155222    4P0P  00006000000000456000000784732H0    TTTJY   006400630017
BI00B32H0    TT22041VMW     202202157196-1327-02             TERMINAL FEMALE          CCN000052000000052000FN00000000020220401000052000NNMD0020220209155222    4P0P  00005200000000336000000739532H0    TTTJY   006400630017
BI00B32H2    TIJ2033        202202187114-4728-02             TERMINAL                 CCN001380000001380000FN00000000020220301001380000NNMD0020220209134203    4P0P  00003000000000510000000804232H2    HVYHV   006400630015
BI00B32H7    #FS22031DMW    202202147172-5629-80             RUBBER STOPPER           CCN000240000000240000FN00000000020220301000240000NNM00020220209122944    2H0H  00002000000000060000000111132H7    FYFSY   004300270014
BI00B32N1    #NST2116A      202202247283-8226-30             CONNECTOR                CCN000054000000054000FN00000000020220301000054000NNMD0720220209133731    2N0N  00000200000000820000001008032N1    TAYIPL  005400370024
BI00A32N1    #NST2116A      202202117282-4190-30             CONNECTOR                CCN000001440000001440FN00000000020220301000001440NNMM0020220209133840    2N0N  00000024000000801000001071332N1    TAYIPL  005600390040
BI00B32N1    NST2117ECU     202202247114-1301                TERMINAL                 CCN000019500000019500FN00000000020220301000019500NNE   20220209145548    4P0P  00001950000000614300000907932N1    TAYIPL  006400630015
BI00B32N1    NST2117ECU     202202247114-4416-02             TERMINAL MALE            CCN000378000000378000FN00000000020220301000378000NNE   20220209145548    4P0P  00002700000000442800000731032N1    TAYIPL  006400630015
BI00B32N1    NST2117ECU     202202247116-1180                TERMINAL                 CCN001014000001014000FN00000000020220301001014000NNE   20220209145548    1P0P  00001950000000618200000903432N1    TAYIPL  006400630015
BI00B32N1    NST2117ECU     202202247116-1301                TERMINAL                 CCN000015000000015000FN00000000020220301000015000NNE   20220209145548    4P0P  00001500000000487500000772732N1    TAYIPL  006400630015
BI00B32N1    NST2117ECU     202202247116-4020                TERMINAL                 CCN000040500000040500FN00000000020220301000040500NNE   20220209145548    4P0P  00001350000000513000000798232N1    TAYIPL  006400630015
BI00B32N1    NST2117ECU     202202247116-4103-02             TERMINAL                 CCN000072000000072000FN00000000020220301000072000NNE   20220209145548    4P0P  00001200000000571200000859432N1    TAYIPL  006400630015
BI00B32N1    NST2117ECU     202202247116-4415-02             TERMINAL                 CCN000760000000760000FN00000000020220301000760000NNE   20220209145548    4P0P  00003800000000596600000925732N1    TAYIPL  006400630017
BI00B32N1    NST2117ECU     202202247116-5750-02             TERMINAL                 CCN000015000000015000FN00000000020220301000015000NNE   20220209145548    4P0P  00001500000000457500000742732N1    TAYIPL  006400630015
BI00B32N1    NST2117ECU     202202247157-6287-70             SPACER                   CCN000070000000070000FN00000000020220301000070000NNE   20220209145548    1F0F  00007000000000700000000963032N1    TAYIPL  005500360039
BI00B32N1    NST2117ECU     202202247158-3006-90             RUBBER STOPPER           CCN000600000000600000FN00000000020220301000600000NNE   20220209145548    1C0C  00002000000000330600000386032N1    TAYIPL  002700430014
BI00B32N1    NST2117ECU     202202247158-3023                RUBBER STOPPER           CCN000005000000005000FN00000000020220301000005000NNE   20220209145548    1C0C  00000500000000443500000502032N1    TAYIPL  002700430014
BI00B32N1    NST2117ECU     202202247158-3070-80             RUBBER STOPPER           CCN000320000000320000FN00000000020220301000320000NNE   20220209145548    1C0C  00004000000000276000000333332N1    TAYIPL  002700430014
BI00B32N1    NST2117ECU     202202247158-3166-60             WIRE SEAL                CCN000480000000480000FN00000000020220301000480000NNE   20220209145548    1C0C  00004000000000104000000152432N1    TAYIPL  002700430014
BI00B32N1    NST2117ECU     202202247158-3167-80             WIRE SEAL                CCN000760000000760000FN00000000020220301000760000NNE   20220209145548    1C0C  00002000000000048000000109032N1    TAYIPL  002700430014
BI00B32N1    NST2117ECU     202202247283-5845                CONNECTOR HOUSING        CCN000024000000024000FN00000000020220301000024000NNE   20220209145548    1N0N  00000600000000444000000606332N1    TAYIPL  005400370024
BI00B32N1    NST2117ECU     202202247B58-3070-80             RUBBER STOPPER           CCN000280000000280000FN00000000020220301000280000NNE   20220209145548    1C0C  00004000000000276000000333032N1    TAYIPL  004300270014
BI00B32N1    #NST2117ECU    202202247116-4021                TERMINAL                 CCN000108000000108000FN00000000020220301000108000NNE   20220209145544    2F0P  00001350000000534600000868832N1    TAYIPL  006400630015
BI00B32N1    #NST2117ECU    202202247157-3790-90             WIRE SEAL                CCN000020000000020000FN00000000020220301000020000NNE   20220209145544    2C0C  00002000000000176000000232732N1    TAYIPL  002700430014
BI00B32N1    #NST2117ECU    202202247157-3950-80             SEAL RUBBER              CCN000280000000280000FN00000000020220301000280000NNE   20220209145544    2C0C  00004000000000154000000440332N1    TAYIPL  002700430014
BI00B32N1    #NST2117ECU    202202247157-3952-80             RUBBER STOPPER           CCN000030000000030000FN00000000020220301000030000NNE   20220209145544    2C0C  00001000000000117000000175032N1    TAYIPL  002700430014
BI00B32N1    #NST2117ECU    202202247157-7812                SEAL RUBBER              CCN000020000000020000FN00000000020220301000020000NNE   20220209145544    2C0C  00001000000000137000000202032N1    TAYIPL  002700430014
BI00B32N1    #NST2117ECU    202202247158-3008-80             RUBBER STOPPER           CCN000120000000120000FN00000000020220301000120000NNE   20220209145544    2C0C  00002000000000288000000343032N1    TAYIPL  004300270014
BI00B32N1    #NST2117ECU    202202247158-3120-90             CONNECTOR WIRE SEAL      CCN000500000000500000FN00000000020220301000500000NNE   20220209145544    2C0C  00002000000000136000000194032N1    TAYIPL  002700430014
BI00B32N1    #NST2117ECU    202202247158-3121-80             WIRE SEAL                CCN000020000000020000FN00000000020220301000020000NNE   20220209145544    2C0C  00002000000000118000000187332N1    TAYIPL  002700430014
BI00B32N1    #NST2117ECU    202202247183-7725-40             HOUSING                  CCN000006000000006000FN00000000020220301000006000NNE   20220209145544    2F0F  00000600000000840000001040032N1    TAYIPL  005600390040
BI00B32N1    #NST2117ECU    202202247282-6446-40             CONNECTOR                CCN000003000000003000FN00000000020220301000003000NNE   20220209145544    2N0N  00000150000001185000001368032N1    TAYIPL  005500360039
BI00B32P8    TAPI-205A1     202203027114-1475                TERMINAL                 CCN000013500000013500FN00000000020220501000013500NNM   20220209155733    4P0P  00001350000000480600000774232P8    YIYTM   006400630015
BI00B32P8    TAPI-205A1     202203027114-4111-02             TERMINAL                 CCN000072000000072000FN00000000020220501000072000NNM   20220209155733    4P0P  00001200000000758400001087032P8    YIYTM   006400630017
BI00B32P8    TAPI-205A1     202203027114-4231-02             TERMINAL                 CCN000378000000378000FN00000000020220501000378000NNM   20220209155733    4P0P  00001800000000554400000848032P8    YIYTM   006400630015
BI00B32P8    TAPI-205A1     202203027114-4416-02             TERMINAL MALE            CCN000162000000162000FN00000000020220501000162000NNM   20220209155733    4P0P  00002700000000442800000731032P8    YIYTM   006400630015
BI00B32P8    TAPI-205A1     202203027114-5096-02             TERMINAL                 CCN000060000000060000FN00000000020220501000060000NNM   20220209155733    4P0P  00003000000000498000000792232P8    YIYTM   006400630015
BI00B32P8    TAPI-205A1     202203027116-2951-02             TERMINAL                 CCN000059400000059400FN00000000020220501000059400NNM   20220209155733    4P0P  00000540000000817600001111832P8    YIYTM   006400630015
BI00B32P8    TAPI-205A1     202203027116-3154-08             TERMINAL                 CCN000054000000054000FN00000000020220501000054000NNM   20220209155733    4P0P  00002700000000475200000760432P8    YIYTM   006400630015
BI00B32P8    TAPI-205A1     202203027116-4020                TERMINAL                 CCN000634500000634500FN00000000020220501000634500NNM   20220209155733    4P0P  00001350000000513000000798232P8    YIYTM   006400630015
BI00B32P8    TAPI-205A1     202203027116-4029-08             TERMINAL FEMALE          CCN000032000000032000FN00000000020220501000032000NNM   20220209155733    4P0P  00001600000000670400000999132P8    YIYTM   006400630017
BI00B32P8    TAPI-205A1     202203027116-4120-02             TERMINAL                 CCN000072000000072000FN00000000020220501000072000NNM   20220209155733    4P0P  00000600000000780000001073632P8    YIYTM   006400630015
BI00B32P8    TAPI-205A1     202203027116-4121-02             TERMINAL                 CCN000090000000090000FN00000000020220501000090000NNM   20220209155733    4P0P  00000450000000618800000912432P8    YIYTM   006400630015
BI00B32P8    TAPI-205A1     202203027116-5044-02             TERMINAL                 CCN000928000000928000FN00000000020220501000928000NNM   20220209155733    4P0P  00001600000000641600000986332P8    YIYTM   006400630017
BI00B32P8    TAPI-205A1     202203027116-5752-02             TERMINAL                 CCN000042000000042000FN00000000020220501000042000NNM   20220209155733    4P0P  00002100000000571200000856432P8    YIYTM   006400630015
BI00B32P8    TAPI-205A1     202203027126-8855-02             TERMINAL                 CCN000042000000042000FN00000000020220501000042000NNM   20220209155733    4P0P  00000600000000510600000795832P8    YIYTM   006400630015
BI00B32P8    TAPI-205A1     202203027196-0510-02             TERMINAL                 CCN000072000000072000FN00000000020220501000072000NNM   20220209155733    4P0P  00002400000000871200001034632P8    YIYTM   002800510028
BI00B32P8    TAPI-205A1     202203027196-1102-02             TERMINAL                 CCN000090000000090000FN00000000020220501000090000NNM   20220209155733    4P0P  00002250000000405000000690232P8    YIYTM   006400630015
BI00B32P8    TAPI-205A1     202203027196-1103-02             TERMINAL                 CCN001215000001215000FN00000000020220501001215000NNM   20220209155733    4P0P  00002250000000429800000715032P8    YIYTM   006400630015
BI00B32P8    TAPI-205A1     202203027283-1222                CONNECTOR                CCN000001200000001200FN00000000020220501000001200NNM   20220209155733    4N0N  00000120000000852000001011032P8    YIYTM   005500360039
BI00B32P8    TAPI-205A1     202203027283-4855                CONNECTOR HOUSING        CCN000009600000009600FN00000000020220501000009600NNM   20220209155733    4N0N  00000240000001188400001400032P8    YIYTM   005500360039
BI00B32P8    TAPI-205A1     202203027283-7029-40             CONNECTOR                CCN000006000000006000FN00000000020220501000006000NNM   20220209155733    1N0N  00000600000001026000001200032P8    YIYTM   005600390023
BI00B32P8    #TAPI-205A1    202203027172-5629-80             RUBBER STOPPER           CCN000900000000900000FN00000000020220501000900000NNM   20220209155729    2H0H  00002000000000060000000111132P8    YIYTM   004300270014
BI00B32P8    #TAPI-205A1    202203027183-1615                HOUSING                  CCN000004800000004800FN00000000020220501000004800NNM   20220209155729    2F0F  00000480000000757000001042032P8    YIYTM   005500360039
BI00B32P8    #TAPI-205A1    202203027223-3615                CONNECTOR                CCN000002000000002000FN00000000020220501000002000NNM   20220209155729    2N0N  00000200000001118000001304132P8    YIYTM   005500360039
BI00B32P8    #TAPI-205A1    202203027287-1918-40             HOUSING FEMALE ASS'Y     CCN000007920000007920FN00000000020220501000007920NNM   20220209155729    2N0N  00000198000001015500001212032P8    YIYTM   005400370024
BI00B32P8    #TAPI-205A1    202203027172-5626-90             RUBBER STOPPER           CCN000140000000140000FN00000000020220501000140000NNM   20220209155729    2H0H  00002000000000076400000127832P8    YIYTM   004300270014
BI00B32P8    #TAPI-205A1    202203027172-5632-10             DUMMY PLUG               CCN000546000000560000FN00000000020220501000560000NNM   20220209155729    2H0H  00002000000000080400000131832P8    YIYTM   004300270014
BI00B32P8    @TAPI-205A1    202203027282-1160                CONNECTOR MALE ASS'Y     CCN000004200000004800FN00000000020220501000004800NNM   20220209155731    3N0N  00000080000000910400001129032P8    YIYTM   005500360039
BI00B32P8    TAPI-2051      202203307158-3169-40             SEALING PLUG             CCN000080000000080000FN00000000020220501000080000NNM   20220209160413    1C0C  00004000000000156000000204132P8    YIYTM   004300260014
BI00B32P8    TAPI-2052      202204067158-3169-40             SEALING PLUG             CCN000160000000160000FN00000000020220501000160000NNM   20220209160413    1C0C  00004000000000156000000204132P8    YIYTM   004300260014
BI00B32P8    TAPI-2053      202204137158-3169-40             SEALING PLUG             CCN000160000000160000FN00000000020220501000160000NNM   20220209160413    1C0C  00004000000000156000000204132P8    YIYTM   004300260014
BI00B32P8    TAPI-2054      202204207158-3169-40             SEALING PLUG             CCN000160000000160000FN00000000020220501000160000NNM   20220209160413    1C0C  00004000000000156000000204132P8    YIYTM   004300260014
BI00B32P8    TAPI-2055      202204277158-3169-40             SEALING PLUG             CCN000160000000160000FN00000000020220501000160000NNM   20220209160413    1C0C  00004000000000156000000204132P8    YIYTM   004300260014
BI00B32P8    TAPI-2051      202203307157-7915-80             REAR HOLDER              CCN000010000000010000FN00000000020220501000010000NNM   20220209160413    1F0F  00001000000001110000001364032P8    YIYTM   005500360039
BI00B32P8    TAPI-2052      202204067157-7915-80             REAR HOLDER              CCN000020000000020000FN00000000020220501000020000NNM   20220209160413    1F0F  00001000000001110000001364032P8    YIYTM   005500360039
BI00B32P8    TAPI-2053      202204137157-7915-80             REAR HOLDER              CCN000010000000010000FN00000000020220501000010000NNM   20220209160413    1F0F  00001000000001110000001364032P8    YIYTM   005500360039
BI00B32P8    TAPI-2054      202204207157-7915-80             REAR HOLDER              CCN000010000000010000FN00000000020220501000010000NNM   20220209160413    1F0F  00001000000001110000001364032P8    YIYTM   005500360039
BI00B32P8    TAPI-2055      202204277157-7915-80             REAR HOLDER              CCN000020000000020000FN00000000020220501000020000NNM   20220209160413    1F0F  00001000000001110000001364032P8    YIYTM   005500360039
BI00B32P8    TAPI-2051      202203307158-3006-90             RUBBER STOPPER           CCN000320000000320000FN00000000020220501000320000NNM   20220209160413    1C0C  00002000000000330600000386032P8    YIYTM   002700430014
BI00B32P8    TAPI-2052      202204067158-3006-90             RUBBER STOPPER           CCN000480000000480000FN00000000020220501000480000NNM   20220209160413    1C0C  00002000000000330600000386032P8    YIYTM   002700430014
BI00B32P8    TAPI-2053      202204137158-3006-90             RUBBER STOPPER           CCN000460000000460000FN00000000020220501000460000NNM   20220209160413    1C0C  00002000000000330600000386032P8    YIYTM   002700430014
BI00B32P8    TAPI-2054      202204207158-3006-90             RUBBER STOPPER           CCN000480000000480000FN00000000020220501000480000NNM   20220209160413    1C0C  00002000000000330600000386032P8    YIYTM   002700430014
BI00B32P8    TAPI-2055      202204277158-3006-90             RUBBER STOPPER           CCN000460000000460000FN00000000020220501000460000NNM   20220209160413    1C0C  00002000000000330600000386032P8    YIYTM   002700430014
BI00B32P8    TAPI-2051      202203307158-3009-60             RUBBER STOPPER           CCN000080000000080000FN00000000020220501000080000NNM   20220209160413    1C0C  00002000000000338000000386232P8    YIYTM   002700430014
BI00B32P8    TAPI-2052      202204067158-3009-60             RUBBER STOPPER           CCN000260000000260000FN00000000020220501000260000NNM   20220209160413    1C0C  00002000000000338000000386232P8    YIYTM   002700430014
BI00B32P8    TAPI-2053      202204137158-3009-60             RUBBER STOPPER           CCN000240000000240000FN00000000020220501000240000NNM   20220209160413    1C0C  00002000000000338000000386232P8    YIYTM   002700430014
BI00B32P8    TAPI-2054      202204207158-3009-60             RUBBER STOPPER           CCN000260000000260000FN00000000020220501000260000NNM   20220209160413    1C0C  00002000000000338000000386232P8    YIYTM   002700430014
BI00B32P8    TAPI-2055      202204277158-3009-60             RUBBER STOPPER           CCN000240000000240000FN00000000020220501000240000NNM   20220209160413    1C0C  00002000000000338000000386232P8    YIYTM   002700430014
BI00B32P8    TAPI-2052      202204067158-3070-80             RUBBER STOPPER           CCN000040000000040000FN00000000020220501000040000NNM   20220209160413    1C0C  00004000000000276000000333332P8    YIYTM   002700430014
BI00B32P8    TAPI-2055      202204277158-3070-80             RUBBER STOPPER           CCN000040000000040000FN00000000020220501000040000NNM   20220209160413    1C0C  00004000000000276000000333332P8    YIYTM   002700430014
BI00B32P8    TAPI-2051      202203307158-3165-90             WIRE SEAL                CCN000280000000280000FN00000000020220501000280000NNM   20220209160413    1C0C  00004000000000124000000172432P8    YIYTM   004300270014
BI00B32P8    TAPI-2052      202204067158-3165-90             WIRE SEAL                CCN000240000000240000FN00000000020220501000240000NNM   20220209160413    1C0C  00004000000000124000000172432P8    YIYTM   004300270014
BI00B32P8    TAPI-2053      202204137158-3165-90             WIRE SEAL                CCN000240000000240000FN00000000020220501000240000NNM   20220209160413    1C0C  00004000000000124000000172432P8    YIYTM   004300270014
BI00B32P8    TAPI-2054      202204207158-3165-90             WIRE SEAL                CCN000280000000280000FN00000000020220501000280000NNM   20220209160413    1C0C  00004000000000124000000172432P8    YIYTM   004300270014
BI00B32P8    TAPI-2055      202204277158-3165-90             WIRE SEAL                CCN000240000000240000FN00000000020220501000240000NNM   20220209160413    1C0C  00004000000000124000000172432P8    YIYTM   004300270014
BI00B32P8    TAPI-2051      202203307158-3166-60             WIRE SEAL                CCN000200000000200000FN00000000020220501000200000NNM   20220209160413    1C0C  00004000000000104000000152432P8    YIYTM   002700430014
BI00B32P8    TAPI-2052      202204067158-3166-60             WIRE SEAL                CCN000280000000280000FN00000000020220501000280000NNM   20220209160413    1C0C  00004000000000104000000152432P8    YIYTM   002700430014
BI00B32P8    TAPI-2053      202204137158-3166-60             WIRE SEAL                CCN000240000000240000FN00000000020220501000240000NNM   20220209160413    1C0C  00004000000000104000000152432P8    YIYTM   002700430014
BI00B32P8    TAPI-2054      202204207158-3166-60             WIRE SEAL                CCN000240000000240000FN00000000020220501000240000NNM   20220209160413    1C0C  00004000000000104000000152432P8    YIYTM   002700430014
BI00B32P8    TAPI-2055      202204277158-3166-60             WIRE SEAL                CCN000280000000280000FN00000000020220501000280000NNM   20220209160413    1C0C  00004000000000104000000152432P8    YIYTM   002700430014
BI00B32P8    TAPI-2051      202203307158-3167-80             WIRE SEAL                CCN000220000000220000FN00000000020220501000220000NNM   20220209160413    1C0C  00002000000000048000000109032P8    YIYTM   002700430014
BI00B32P8    TAPI-2052      202204067158-3167-80             WIRE SEAL                CCN000240000000240000FN00000000020220501000240000NNM   20220209160413    1C0C  00002000000000048000000109032P8    YIYTM   002700430014
BI00B32P8    TAPI-2053      202204137158-3167-80             WIRE SEAL                CCN000240000000240000FN00000000020220501000240000NNM   20220209160413    1C0C  00002000000000048000000109032P8    YIYTM   002700430014
BI00B32P8    TAPI-2054      202204207158-3167-80             WIRE SEAL                CCN000260000000260000FN00000000020220501000260000NNM   20220209160413    1C0C  00002000000000048000000109032P8    YIYTM   002700430014
BI00B32P8    TAPI-2055      202204277158-3167-80             WIRE SEAL                CCN000240000000240000FN00000000020220501000240000NNM   20220209160413    1C0C  00002000000000048000000109032P8    YIYTM   002700430014
BI00B32P8    TAPI-2054      202204207158-3168-80             SEALED                   CCN000040000000040000FN00000000020220501000040000NNM   20220209160413    1C0C  00002000000000044000000092132P8    YIYTM   004300260014
BI00B32P8    TAPI-2055      202204277158-3168-80             SEALED                   CCN000040000000040000FN00000000020220501000040000NNM   20220209160413    1C0C  00002000000000044000000092132P8    YIYTM   004300260014
BI00B32P8    TAPI-2052      202204067114-1470                TERMINAL                 CCN000082500000082500FN00000000020220501000082500NNM   20220209160413    4P0P  00001650000000544500000838732P8    YIYTM   006400630015
BI00B32P8    TAPI-2053      202204137114-1470                TERMINAL                 CCN000082500000082500FN00000000020220501000082500NNM   20220209160413    4P0P  00001650000000544500000838732P8    YIYTM   006400630015
BI00B32P8    TAPI-2054      202204207114-1470                TERMINAL                 CCN000099000000099000FN00000000020220501000099000NNM   20220209160413    4P0P  00001650000000544500000838732P8    YIYTM   006400630015
BI00B32P8    TAPI-2055      202204277114-1470                TERMINAL                 CCN000099000000099000FN00000000020220501000099000NNM   20220209160413    4P0P  00001650000000544500000838732P8    YIYTM   006400630015
BI00B32P8    TAPI-2051      202203307114-1475                TERMINAL                 CCN000013500000013500FN00000000020220501000013500NNM   20220209160413    4P0P  00001350000000480600000774232P8    YIYTM   006400630015
BI00B32P8    TAPI-2053      202204137114-1475                TERMINAL                 CCN000013500000013500FN00000000020220501000013500NNM   20220209160413    4P0P  00001350000000480600000774232P8    YIYTM   006400630015
BI00B32P8    TAPI-2051      202203307114-1670-02             TERMINAL                 CCN000024000000024000FN00000000020220501000024000NNM   20220209160413    1P0P  00002400000000357600000645832P8    YIYTM   006400630015
BI00B32P8    TAPI-2054      202204207114-1670-02             TERMINAL                 CCN000024000000024000FN00000000020220501000024000NNM   20220209160413    1P0P  00002400000000357600000645832P8    YIYTM   006400630015
BI00B32P8    TAPI-2051      202203307114-4020                TERMINAL                 CCN000126000000126000FN00000000020220501000126000NNM   20220209160413    4P0P  00002100000000875700001169332P8    YIYTM   006400630015
BI00B32P8    TAPI-2052      202204067114-4020                TERMINAL                 CCN000126000000126000FN00000000020220501000126000NNM   20220209160413    4P0P  00002100000000875700001169332P8    YIYTM   006400630015
BI00B32P8    TAPI-2053      202204137114-4020                TERMINAL                 CCN000126000000126000FN00000000020220501000126000NNM   20220209160413    4P0P  00002100000000875700001169332P8    YIYTM   006400630015
BI00B32P8    TAPI-2054      202204207114-4020                TERMINAL                 CCN000126000000126000FN00000000020220501000126000NNM   20220209160413    4P0P  00002100000000875700001169332P8    YIYTM   006400630015
BI00B32P8    TAPI-2055      202204277114-4020                TERMINAL                 CCN000126000000126000FN00000000020220501000126000NNM   20220209160413    4P0P  00002100000000875700001169332P8    YIYTM   006400630015
BI00B32P8    TAPI-2051      202203307114-4021                TERMINAL                 CCN000075000000075000FN00000000020220501000075000NNM   20220209160413    4P0P  00001500000000670500000964132P8    YIYTM   006400630015
BI00B32P8    TAPI-2052      202204067114-4021                TERMINAL                 CCN000075000000075000FN00000000020220501000075000NNM   20220209160413    4P0P  00001500000000670500000964132P8    YIYTM   006400630015
BI00B32P8    TAPI-2053      202204137114-4021                TERMINAL                 CCN000090000000090000FN00000000020220501000090000NNM   20220209160413    4P0P  00001500000000670500000964132P8    YIYTM   006400630015
BI00B32P8    TAPI-2054      202204207114-4021                TERMINAL                 CCN000075000000075000FN00000000020220501000075000NNM   20220209160413    4P0P  00001500000000670500000964132P8    YIYTM   006400630015
BI00B32P8    TAPI-2055      202204277114-4021                TERMINAL                 CCN000090000000090000FN00000000020220501000090000NNM   20220209160413    4P0P  00001500000000670500000964132P8    YIYTM   006400630015
BI00B32P8    TAPI-2051      202203307114-4032                TERMINAL                 CCN000007500000007500FN00000000020220501000007500NNM   20220209160413    4P0P  00000750000000735000001063632P8    YIYTM   006400630017
BI00B32P8    TAPI-2052      202204067114-4032                TERMINAL                 CCN000007500000007500FN00000000020220501000007500NNM   20220209160413    4P0P  00000750000000735000001063632P8    YIYTM   006400630017
BI00B32P8    TAPI-2055      202204277114-4032                TERMINAL                 CCN000007500000007500FN00000000020220501000007500NNM   20220209160413    4P0P  00000750000000735000001063632P8    YIYTM   006400630017
BI00B32P8    TAPI-2054      202204207114-4100-02             TERMINAL                 CCN000018000000018000FN00000000020220501000018000NNM   20220209160413    4P0P  00001800000000748800001077432P8    YIYTM   006400630017
BI00B32P8    TAPI-2055      202204277114-4100-02             TERMINAL                 CCN000072000000072000FN00000000020220501000072000NNM   20220209160413    4P0P  00001800000000748800001077432P8    YIYTM   006400630017
BI00B32P8    TAPI-2051      202203307114-4101-02             TERMINAL                 CCN000015000000015000FN00000000020220501000015000NNM   20220209160413    4P0P  00001500000000675000001003632P8    YIYTM   006400630017
BI00B32P8    TAPI-2052      202204067114-4101-02             TERMINAL                 CCN000015000000015000FN00000000020220501000015000NNM   20220209160413    4P0P  00001500000000675000001003632P8    YIYTM   006400630017
BI00B32P8    TAPI-2053      202204137114-4101-02             TERMINAL                 CCN000015000000015000FN00000000020220501000015000NNM   20220209160413    4P0P  00001500000000675000001003632P8    YIYTM   006400630017
BI00B32P8    TAPI-2054      202204207114-4101-02             TERMINAL                 CCN000015000000015000FN00000000020220501000015000NNM   20220209160413    4P0P  00001500000000675000001003632P8    YIYTM   006400630017
BI00B32P8    TAPI-2055      202204277114-4101-02             TERMINAL                 CCN000015000000015000FN00000000020220501000015000NNM   20220209160413    4P0P  00001500000000675000001003632P8    YIYTM   006400630017
BI00B32P8    TAPI-2051      202203307114-4110-02             TERMINAL                 CCN000090000000090000FN00000000020220501000090000NNM   20220209160413    4P0P  00001500000000901500001230132P8    YIYTM   006400630017
BI00B32P8    TAPI-2052      202204067114-4110-02             TERMINAL                 CCN000045000000045000FN00000000020220501000045000NNM   20220209160413    4P0P  00001500000000901500001230132P8    YIYTM   006400630017
BI00B32P8    TAPI-2053      202204137114-4110-02             TERMINAL                 CCN000060000000060000FN00000000020220501000060000NNM   20220209160413    4P0P  00001500000000901500001230132P8    YIYTM   006400630017
BI00B32P8    TAPI-2054      202204207114-4110-02             TERMINAL                 CCN000060000000060000FN00000000020220501000060000NNM   20220209160413    4P0P  00001500000000901500001230132P8    YIYTM   006400630017
BI00B32P8    TAPI-2055      202204277114-4110-02             TERMINAL                 CCN000060000000060000FN00000000020220501000060000NNM   20220209160413    4P0P  00001500000000901500001230132P8    YIYTM   006400630017
BI00B32P8    TAPI-2052      202204067114-4111-02             TERMINAL                 CCN000024000000024000FN00000000020220501000024000NNM   20220209160413    4P0P  00001200000000758400001087032P8    YIYTM   006400630017
BI00B32P8    TAPI-2053      202204137114-4111-02             TERMINAL                 CCN000012000000012000FN00000000020220501000012000NNM   20220209160413    4P0P  00001200000000758400001087032P8    YIYTM   006400630017
BI00B32P8    TAPI-2054      202204207114-4111-02             TERMINAL                 CCN000024000000024000FN00000000020220501000024000NNM   20220209160413    4P0P  00001200000000758400001087032P8    YIYTM   006400630017
BI00B32P8    TAPI-2055      202204277114-4111-02             TERMINAL                 CCN000024000000024000FN00000000020220501000024000NNM   20220209160413    4P0P  00001200000000758400001087032P8    YIYTM   006400630017
BI00B32P8    TAPI-2053      202204137114-4112-02             TERMINAL                 CCN000018000000018000FN00000000020220501000018000NNM   20220209160413    4P0P  00000900000000598500000927132P8    YIYTM   006400630017
BI00B32P8    TAPI-2054      202204207114-4112-02             TERMINAL                 CCN000027000000027000FN00000000020220501000027000NNM   20220209160413    4P0P  00000900000000598500000927132P8    YIYTM   006400630017
BI00B32P8    TAPI-2055      202204277114-4112-02             TERMINAL                 CCN000018000000018000FN00000000020220501000018000NNM   20220209160413    4P0P  00000900000000598500000927132P8    YIYTM   006400630017
BI00B32P8    TAPI-2052      202204067114-4231-02             TERMINAL                 CCN000144000000144000FN00000000020220501000144000NNM   20220209160413    4P0P  00001800000000554400000848032P8    YIYTM   006400630015
BI00B32P8    TAPI-2053      202204137114-4231-02             TERMINAL                 CCN000162000000162000FN00000000020220501000162000NNM   20220209160413    4P0P  00001800000000554400000848032P8    YIYTM   006400630015
BI00B32P8    TAPI-2054      202204207114-4231-02             TERMINAL                 CCN000162000000162000FN00000000020220501000162000NNM   20220209160413    4P0P  00001800000000554400000848032P8    YIYTM   006400630015
BI00B32P8    TAPI-2055      202204277114-4231-02             TERMINAL                 CCN000162000000162000FN00000000020220501000162000NNM   20220209160413    4P0P  00001800000000554400000848032P8    YIYTM   006400630015
BI00B32P8    TAPI-2051      202203307114-4415-02             TERMINAL MALE            CCN000027000000027000FN00000000020220501000027000NNM   20220209160413    4P0P  00002700000000429300000717532P8    YIYTM   006400630015
BI00B32P8    TAPI-2052      202204067114-4415-02             TERMINAL MALE            CCN000081000000081000FN00000000020220501000081000NNM   20220209160413    4P0P  00002700000000429300000717532P8    YIYTM   006400630015
BI00B32P8    TAPI-2053      202204137114-4415-02             TERMINAL MALE            CCN000081000000081000FN00000000020220501000081000NNM   20220209160413    4P0P  00002700000000429300000717532P8    YIYTM   006400630015
BI00B32P8    TAPI-2054      202204207114-4415-02             TERMINAL MALE            CCN000081000000081000FN00000000020220501000081000NNM   20220209160413    4P0P  00002700000000429300000717532P8    YIYTM   006400630015
BI00B32P8    TAPI-2055      202204277114-4415-02             TERMINAL MALE            CCN000081000000081000FN00000000020220501000081000NNM   20220209160413    4P0P  00002700000000429300000717532P8    YIYTM   006400630015
BI00B32P8    TAPI-2052      202204067114-4416-02             TERMINAL MALE            CCN000054000000054000FN00000000020220501000054000NNM   20220209160413    4P0P  00002700000000442800000731032P8    YIYTM   006400630015
BI00B32P8    TAPI-2053      202204137114-4416-02             TERMINAL MALE            CCN000054000000054000FN00000000020220501000054000NNM   20220209160413    4P0P  00002700000000442800000731032P8    YIYTM   006400630015
BI00B32P8    TAPI-2054      202204207114-4416-02             TERMINAL MALE            CCN000027000000027000FN00000000020220501000027000NNM   20220209160413    4P0P  00002700000000442800000731032P8    YIYTM   006400630015
BI00B32P8    TAPI-2055      202204277114-4416-02             TERMINAL MALE            CCN000054000000054000FN00000000020220501000054000NNM   20220209160413    4P0P  00002700000000442800000731032P8    YIYTM   006400630015
BI00B32P8    TAPI-2051      202203307114-4728-02             TERMINAL                 CCN000090000000090000FN00000000020220501000090000NNM   20220209160413    4P0P  00003000000000510000000804232P8    YIYTM   006400630015
BI00B32P8    TAPI-2052      202204067114-4728-02             TERMINAL                 CCN000060000000060000FN00000000020220501000060000NNM   20220209160413    4P0P  00003000000000510000000804232P8    YIYTM   006400630015
BI00B32P8    TAPI-2053      202204137114-4728-02             TERMINAL                 CCN000030000000030000FN00000000020220501000030000NNM   20220209160413    4P0P  00003000000000510000000804232P8    YIYTM   006400630015
BI00B32P8    TAPI-2054      202204207114-4728-02             TERMINAL                 CCN000060000000060000FN00000000020220501000060000NNM   20220209160413    4P0P  00003000000000510000000804232P8    YIYTM   006400630015
BI00B32P8    TAPI-2055      202204277114-4728-02             TERMINAL                 CCN000060000000060000FN00000000020220501000060000NNM   20220209160413    4P0P  00003000000000510000000804232P8    YIYTM   006400630015
BI00B32P8    TAPI-2051      202203307114-4729-02             TERMINAL                 CCN000090000000090000FN00000000020220501000090000NNM   20220209160413    4P0P  00003000000000516000000810232P8    YIYTM   006400630015
BI00B32P8    TAPI-2052      202204067114-4729-02             TERMINAL                 CCN000030000000030000FN00000000020220501000030000NNM   20220209160413    4P0P  00003000000000516000000810232P8    YIYTM   006400630015
BI00B32P8    TAPI-2053      202204137114-4729-02             TERMINAL                 CCN000060000000060000FN00000000020220501000060000NNM   20220209160413    4P0P  00003000000000516000000810232P8    YIYTM   006400630015
BI00B32P8    TAPI-2054      202204207114-4729-02             TERMINAL                 CCN000060000000060000FN00000000020220501000060000NNM   20220209160413    4P0P  00003000000000516000000810232P8    YIYTM   006400630015
BI00B32P8    TAPI-2055      202204277114-4729-02             TERMINAL                 CCN000030000000030000FN00000000020220501000030000NNM   20220209160413    4P0P  00003000000000516000000810232P8    YIYTM   006400630015
BI00B32P8    TAPI-2051      202203307114-5746-02             TERMINAL                 CCN000021000000021000FN00000000020220501000021000NNM   20220209160413    4P0P  00002100000000695100000988732P8    YIYTM   006400630015
BI00B32P8    TAPI-2054      202204207114-5746-02             TERMINAL                 CCN000021000000021000FN00000000020220501000021000NNM   20220209160413    4P0P  00002100000000695100000988732P8    YIYTM   006400630015
BI00B32P8    TAPI-2054      202204207114-5747-02             TERMINAL                 CCN000018000000018000FN00000000020220501000018000NNM   20220209160413    4P0P  00001800000000626400000920032P8    YIYTM   006400630015
BI00B32P8    TAPI-2051      202203307114-5753-02             TERMINAL                 CCN000027000000027000FN00000000020220501000027000NNM   20220209160413    4P0P  00002700000000847800001141432P8    YIYTM   006400630015
BI00B32P8    TAPI-2052      202204067114-6041                TERMINAL                 CCN000003600000003600FN00000000020220501000003600NNM   20220209160413    4P0P  00000360000000580700000824232P8    YIYTM   006400630015
BI00B32P8    TAPI-2055      202204277114-6041                TERMINAL                 CCN000003600000003600FN00000000020220501000003600NNM   20220209160413    4P0P  00000360000000580700000824232P8    YIYTM   006400630015
BI00B32P8    TAPI-2052      202204067116-1180                TERMINAL                 CCN000019500000019500FN00000000020220501000019500NNM   20220209160413    1P0P  00001950000000618200000903432P8    YIYTM   006400630015
BI00B32P8    TAPI-2053      202204137116-1180                TERMINAL                 CCN000019500000019500FN00000000020220501000019500NNM   20220209160413    1P0P  00001950000000618200000903432P8    YIYTM   006400630015
BI00B32P8    TAPI-2055      202204277116-1180                TERMINAL                 CCN000019500000019500FN00000000020220501000019500NNM   20220209160413    1P0P  00001950000000618200000903432P8    YIYTM   006400630015
BI00B32P8    TAPI-2051      202203307116-1471                TERMINAL                 CCN000120000000120000FN00000000020220501000120000NNM   20220209160413    4P0P  00001500000000579000000867232P8    YIYTM   006400630015
BI00B32P8    TAPI-2052      202204067116-1471                TERMINAL                 CCN000195000000195000FN00000000020220501000195000NNM   20220209160413    4P0P  00001500000000579000000867232P8    YIYTM   006400630015
BI00B32P8    TAPI-2053      202204137116-1471                TERMINAL                 CCN000210000000210000FN00000000020220501000210000NNM   20220209160413    4P0P  00001500000000579000000867232P8    YIYTM   006400630015
BI00B32P8    TAPI-2054      202204207116-1471                TERMINAL                 CCN000210000000210000FN00000000020220501000210000NNM   20220209160413    4P0P  00001500000000579000000867232P8    YIYTM   006400630015
BI00B32P8    TAPI-2055      202204277116-1471                TERMINAL                 CCN000210000000210000FN00000000020220501000210000NNM   20220209160413    4P0P  00001500000000579000000867232P8    YIYTM   006400630015
BI00B32P8    TAPI-2051      202203307116-1486-02             TERMINAL                 CCN000066000000066000FN00000000020220501000066000NNM   20220209160413    4P0P  00001650000000655100000940332P8    YIYTM   006400630015
BI00B32P8    TAPI-2052      202204067116-1486-02             TERMINAL                 CCN000181500000181500FN00000000020220501000181500NNM   20220209160413    4P0P  00001650000000655100000940332P8    YIYTM   006400630015
BI00B32P8    TAPI-2053      202204137116-1486-02             TERMINAL                 CCN000165000000165000FN00000000020220501000165000NNM   20220209160413    4P0P  00001650000000655100000940332P8    YIYTM   006400630015
BI00B32P8    TAPI-2054      202204207116-1486-02             TERMINAL                 CCN000165000000165000FN00000000020220501000165000NNM   20220209160413    4P0P  00001650000000655100000940332P8    YIYTM   006400630015
BI00B32P8    TAPI-2055      202204277116-1486-02             TERMINAL                 CCN000165000000165000FN00000000020220501000165000NNM   20220209160413    4P0P  00001650000000655100000940332P8    YIYTM   006400630015
BI00B32P8    TAPI-2052      202204067116-1685-02             TERMINAL                 CCN000024000000024000FN00000000020220501000024000NNM   20220209160413    4P0P  00002400000000897600001065232P8    YIYTM   005100280028
BI00B32P8    TAPI-2053      202204137116-1685-02             TERMINAL                 CCN000048000000048000FN00000000020220501000048000NNM   20220209160413    4P0P  00002400000000897600001065232P8    YIYTM   005100280028
BI00B32P8    TAPI-2054      202204207116-1685-02             TERMINAL                 CCN000048000000048000FN00000000020220501000048000NNM   20220209160413    4P0P  00002400000000897600001065232P8    YIYTM   005100280028
BI00B32P8    TAPI-2055      202204277116-1685-02             TERMINAL                 CCN000048000000048000FN00000000020220501000048000NNM   20220209160413    4P0P  00002400000000897600001065232P8    YIYTM   005100280028
BI00B32P8    TAPI-2052      202204067116-1686-02             TERMINAL                 CCN000021000000021000FN00000000020220501000021000NNM   20220209160413    4P0P  00002100000000869400001021632P8    YIYTM   005100280028
BI00B32P8    TAPI-2051      202203307116-1687-02             TERMINAL FEMALE          CCN000072000000072000FN00000000020220501000072000NNM   20220209160413    4P0P  00002400000000303200000909632P8    YIYTM   005100280028
BI00B32P8    TAPI-2052      202204067116-1687-02             TERMINAL FEMALE          CCN000048000000048000FN00000000020220501000048000NNM   20220209160413    4P0P  00002400000000303200000909632P8    YIYTM   005100280028
BI00B32P8    TAPI-2053      202204137116-1687-02             TERMINAL FEMALE          CCN000024000000024000FN00000000020220501000024000NNM   20220209160413    4P0P  00002400000000303200000909632P8    YIYTM   005100280028
BI00B32P8    TAPI-2054      202204207116-1687-02             TERMINAL FEMALE          CCN000024000000024000FN00000000020220501000024000NNM   20220209160413    4P0P  00002400000000303200000909632P8    YIYTM   005100280028
BI00B32P8    TAPI-2055      202204277116-1687-02             TERMINAL FEMALE          CCN000048000000048000FN00000000020220501000048000NNM   20220209160413    4P0P  00002400000000303200000909632P8    YIYTM   005100280028
BI00B32P8    TAPI-2051      202203307116-2640                TERMINAL                 CCN000090000000090000FN00000000020220501000090000NNM   20220209160413    4P0P  00001800000001018800001196632P8    YIYTM   005100280028
BI00B32P8    TAPI-2052      202204067116-2640                TERMINAL                 CCN000072000000072000FN00000000020220501000072000NNM   20220209160413    4P0P  00001800000001018800001196632P8    YIYTM   005100280028
BI00B32P8    TAPI-2053      202204137116-2640                TERMINAL                 CCN000072000000072000FN00000000020220501000072000NNM   20220209160413    4P0P  00001800000001018800001196632P8    YIYTM   005100280028
BI00B32P8    TAPI-2054      202204207116-2640                TERMINAL                 CCN000072000000072000FN00000000020220501000072000NNM   20220209160413    4P0P  00001800000001018800001196632P8    YIYTM   005100280028
BI00B32P8    TAPI-2055      202204277116-2640                TERMINAL                 CCN000054000000054000FN00000000020220501000054000NNM   20220209160413    4P0P  00001800000001018800001196632P8    YIYTM   005100280028
BI00B32P8    TAPI-2051      202203307116-2641                TERMINAL                 CCN000036000000036000FN00000000020220501000036000NNM   20220209160413    4P0P  00001800000001161000001344632P8    YIYTM   005100280028
BI00B32P8    TAPI-2052      202204067116-2641                TERMINAL                 CCN000036000000036000FN00000000020220501000036000NNM   20220209160413    4P0P  00001800000001161000001344632P8    YIYTM   005100280028
BI00B32P8    TAPI-2053      202204137116-2641                TERMINAL                 CCN000018000000018000FN00000000020220501000018000NNM   20220209160413    4P0P  00001800000001161000001344632P8    YIYTM   005100280028
BI00B32P8    TAPI-2054      202204207116-2641                TERMINAL                 CCN000036000000036000FN00000000020220501000036000NNM   20220209160413    4P0P  00001800000001161000001344632P8    YIYTM   005100280028
BI00B32P8    TAPI-2055      202204277116-2641                TERMINAL                 CCN000018000000018000FN00000000020220501000018000NNM   20220209160413    4P0P  00001800000001161000001344632P8    YIYTM   005100280028
BI00B32P8    TAPI-2051      202203307116-2870                TERMINAL                 CCN000024000000024000FN00000000020220501000024000NNM   20220209160413    1P0P  00001200000000783600001020232P8    YIYTM   005100280028
BI00B32P8    TAPI-2052      202204067116-2870                TERMINAL                 CCN000012000000012000FN00000000020220501000012000NNM   20220209160413    1P0P  00001200000000783600001020232P8    YIYTM   005100280028
BI00B32P8    TAPI-2053      202204137116-2870                TERMINAL                 CCN000012000000012000FN00000000020220501000012000NNM   20220209160413    1P0P  00001200000000783600001020232P8    YIYTM   005100280028
BI00B32P8    TAPI-2054      202204207116-2870                TERMINAL                 CCN000012000000012000FN00000000020220501000012000NNM   20220209160413    1P0P  00001200000000783600001020232P8    YIYTM   005100280028
BI00B32P8    TAPI-2055      202204277116-2870                TERMINAL                 CCN000012000000012000FN00000000020220501000012000NNM   20220209160413    1P0P  00001200000000783600001020232P8    YIYTM   005100280028
BI00B32P8    TAPI-2052      202204067116-2871                TERMINAL                 CCN000024000000024000FN00000000020220501000024000NNM   20220209160413    1P0P  00001200000000842400001072632P8    YIYTM   005100280028
BI00B32P8    TAPI-2053      202204137116-2871                TERMINAL                 CCN000012000000012000FN00000000020220501000012000NNM   20220209160413    1P0P  00001200000000842400001072632P8    YIYTM   005100280028
BI00B32P8    TAPI-2054      202204207116-2871                TERMINAL                 CCN000024000000024000FN00000000020220501000024000NNM   20220209160413    1P0P  00001200000000842400001072632P8    YIYTM   005100280028
BI00B32P8    TAPI-2055      202204277116-2871                TERMINAL                 CCN000012000000012000FN00000000020220501000012000NNM   20220209160413    1P0P  00001200000000842400001072632P8    YIYTM   005100280028
BI00B32P8    TAPI-2051      202203307116-2891-02             TERMINAL                 CCN000030000000030000FN00000000020220501000030000NNM   20220209160413    4P0P  00001500000000982500001145932P8    YIYTM   005100280028
BI00B32P8    TAPI-2052      202204067116-2891-02             TERMINAL                 CCN000030000000030000FN00000000020220501000030000NNM   20220209160413    4P0P  00001500000000982500001145932P8    YIYTM   005100280028
BI00B32P8    TAPI-2053      202204137116-2891-02             TERMINAL                 CCN000030000000030000FN00000000020220501000030000NNM   20220209160413    4P0P  00001500000000982500001145932P8    YIYTM   005100280028
BI00B32P8    TAPI-2054      202204207116-2891-02             TERMINAL                 CCN000015000000015000FN00000000020220501000015000NNM   20220209160413    4P0P  00001500000000982500001145932P8    YIYTM   005100280028
BI00B32P8    TAPI-2055      202204277116-2891-02             TERMINAL                 CCN000030000000030000FN00000000020220501000030000NNM   20220209160413    4P0P  00001500000000982500001145932P8    YIYTM   005100280028
BI00B32P8    TAPI-2051      202203307116-2892-02             TERMINAL                 CCN000012000000012000FN00000000020220501000012000NNM   20220209160413    4P0P  00001200000000818400000981832P8    YIYTM   005100280028
BI00B32P8    TAPI-2052      202204067116-2892-02             TERMINAL                 CCN000012000000012000FN00000000020220501000012000NNM   20220209160413    4P0P  00001200000000818400000981832P8    YIYTM   005100280028
BI00B32P8    TAPI-2054      202204207116-2892-02             TERMINAL                 CCN000012000000012000FN00000000020220501000012000NNM   20220209160413    4P0P  00001200000000818400000981832P8    YIYTM   005100280028
BI00B32P8    TAPI-2055      202204277116-2892-02             TERMINAL                 CCN000012000000012000FN00000000020220501000012000NNM   20220209160413    4P0P  00001200000000818400000981832P8    YIYTM   005100280028
BI00B32P8    TAPI-2051      202203307116-2893-02             TERMINAL                 CCN000024000000024000FN00000000020220501000024000NNM   20220209160413    4P0P  00001200000000895200001058632P8    YIYTM   005100280028
BI00B32P8    TAPI-2052      202204067116-2893-02             TERMINAL                 CCN000012000000012000FN00000000020220501000012000NNM   20220209160413    4P0P  00001200000000895200001058632P8    YIYTM   005100280028
BI00B32P8    TAPI-2053      202204137116-2893-02             TERMINAL                 CCN000012000000012000FN00000000020220501000012000NNM   20220209160413    4P0P  00001200000000895200001058632P8    YIYTM   005100280028
BI00B32P8    TAPI-2054      202204207116-2893-02             TERMINAL                 CCN000024000000024000FN00000000020220501000024000NNM   20220209160413    4P0P  00001200000000895200001058632P8    YIYTM   005100280028
BI00B32P8    TAPI-2055      202204277116-2893-02             TERMINAL                 CCN000012000000012000FN00000000020220501000012000NNM   20220209160413    4P0P  00001200000000895200001058632P8    YIYTM   005100280028
BI00B32P8    TAPI-2051      202203307116-2951                TERMINAL                 CCN000005400000005400FN00000000020220501000005400NNM   20220209160413    4P0P  00000540000000815900001110132P8    YIYTM   006400630015
BI00B32P8    TAPI-2052      202204067116-2951                TERMINAL                 CCN000010800000010800FN00000000020220501000010800NNM   20220209160413    4P0P  00000540000000815900001110132P8    YIYTM   006400630015
BI00B32P8    TAPI-2053      202204137116-2951                TERMINAL                 CCN000005400000005400FN00000000020220501000005400NNM   20220209160413    4P0P  00000540000000815900001110132P8    YIYTM   006400630015
BI00B32P8    TAPI-2054      202204207116-2951                TERMINAL                 CCN000005400000005400FN00000000020220501000005400NNM   20220209160413    4P0P  00000540000000815900001110132P8    YIYTM   006400630015
BI00B32P8    TAPI-2055      202204277116-2951                TERMINAL                 CCN000005400000005400FN00000000020220501000005400NNM   20220209160413    4P0P  00000540000000815900001110132P8    YIYTM   006400630015
BI00B32P8    TAPI-2052      202204067116-2951-02             TERMINAL                 CCN000005400000005400FN00000000020220501000005400NNM   20220209160413    4P0P  00000540000000817600001111832P8    YIYTM   006400630015
BI00B32P8    TAPI-2053      202204137116-2951-02             TERMINAL                 CCN000010800000010800FN00000000020220501000010800NNM   20220209160413    4P0P  00000540000000817600001111832P8    YIYTM   006400630015
BI00B32P8    TAPI-2054      202204207116-2951-02             TERMINAL                 CCN000016200000016200FN00000000020220501000016200NNM   20220209160413    4P0P  00000540000000817600001111832P8    YIYTM   006400630015
BI00B32P8    TAPI-2055      202204277116-2951-02             TERMINAL                 CCN000010800000010800FN00000000020220501000010800NNM   20220209160413    4P0P  00000540000000817600001111832P8    YIYTM   006400630015
BI00B32P8    TAPI-2051      202203307116-3153-08             TERMINAL                 CCN000054000000054000FN00000000020220501000054000NNM   20220209160413    4P0P  00002700000000461700000746932P8    YIYTM   006400630015
BI00B32P8    TAPI-2052      202204067116-3153-08             TERMINAL                 CCN000027000000027000FN00000000020220501000027000NNM   20220209160413    4P0P  00002700000000461700000746932P8    YIYTM   006400630015
BI00B32P8    TAPI-2053      202204137116-3153-08             TERMINAL                 CCN000027000000027000FN00000000020220501000027000NNM   20220209160413    4P0P  00002700000000461700000746932P8    YIYTM   006400630015
BI00B32P8    TAPI-2054      202204207116-3153-08             TERMINAL                 CCN000027000000027000FN00000000020220501000027000NNM   20220209160413    4P0P  00002700000000461700000746932P8    YIYTM   006400630015
BI00B32P8    TAPI-2055      202204277116-3153-08             TERMINAL                 CCN000054000000054000FN00000000020220501000054000NNM   20220209160413    4P0P  00002700000000461700000746932P8    YIYTM   006400630015
BI00B32P8    TAPI-2053      202204137116-3154-08             TERMINAL                 CCN000027000000027000FN00000000020220501000027000NNM   20220209160413    4P0P  00002700000000475200000760432P8    YIYTM   006400630015
BI00B32P8    TAPI-2055      202204277116-3154-08             TERMINAL                 CCN000027000000027000FN00000000020220501000027000NNM   20220209160413    4P0P  00002700000000475200000760432P8    YIYTM   006400630015
BI00B32P8    TAPI-2052      202204067116-4020                TERMINAL                 CCN000310500000310500FN00000000020220501000310500NNM   20220209160413    4P0P  00001350000000513000000798232P8    YIYTM   006400630015
BI00B32P8    TAPI-2053      202204137116-4020                TERMINAL                 CCN000310500000310500FN00000000020220501000310500NNM   20220209160413    4P0P  00001350000000513000000798232P8    YIYTM   006400630015
BI00B32P8    TAPI-2054      202204207116-4020                TERMINAL                 CCN000310500000310500FN00000000020220501000310500NNM   20220209160413    4P0P  00001350000000513000000798232P8    YIYTM   006400630015
BI00B32P8    TAPI-2055      202204277116-4020                TERMINAL                 CCN000310500000310500FN00000000020220501000310500NNM   20220209160413    4P0P  00001350000000513000000798232P8    YIYTM   006400630015
BI00B32P8    TAPI-2051      202203307116-4022                TERMINAL                 CCN000067500000067500FN00000000020220501000067500NNM   20220209160413    4P0P  00001350000000618300000903532P8    YIYTM   006400630015
BI00B32P8    TAPI-2052      202204067116-4022                TERMINAL                 CCN000040500000040500FN00000000020220501000040500NNM   20220209160413    4P0P  00001350000000618300000903532P8    YIYTM   006400630015
BI00B32P8    TAPI-2053      202204137116-4022                TERMINAL                 CCN000040500000040500FN00000000020220501000040500NNM   20220209160413    4P0P  00001350000000618300000903532P8    YIYTM   006400630015
BI00B32P8    TAPI-2054      202204207116-4022                TERMINAL                 CCN000040500000040500FN00000000020220501000040500NNM   20220209160413    4P0P  00001350000000618300000903532P8    YIYTM   006400630015
BI00B32P8    TAPI-2055      202204277116-4022                TERMINAL                 CCN000027000000027000FN00000000020220501000027000NNM   20220209160413    4P0P  00001350000000618300000903532P8    YIYTM   006400630015
BI00B32P8    TAPI-2051      202203307116-4025                TERMINAL                 CCN000160000000160000FN00000000020220501000160000NNM   20220209160413    4P0P  00001600000000644800000975132P8    YIYTM   006400630017
BI00B32P8    TAPI-2052      202204067116-4025                TERMINAL                 CCN000128000000128000FN00000000020220501000128000NNM   20220209160413    4P0P  00001600000000644800000975132P8    YIYTM   006400630017
BI00B32P8    TAPI-2053      202204137116-4025                TERMINAL                 CCN000144000000144000FN00000000020220501000144000NNM   20220209160413    4P0P  00001600000000644800000975132P8    YIYTM   006400630017
BI00B32P8    TAPI-2054      202204207116-4025                TERMINAL                 CCN000128000000128000FN00000000020220501000128000NNM   20220209160413    4P0P  00001600000000644800000975132P8    YIYTM   006400630017
BI00B32P8    TAPI-2055      202204277116-4025                TERMINAL                 CCN000144000000144000FN00000000020220501000144000NNM   20220209160413    4P0P  00001600000000644800000975132P8    YIYTM   006400630017
BI00B32P8    TAPI-2051      202203307116-4026                TERMINAL                 CCN000112000000112000FN00000000020220501000112000NNM   20220209160413    4P0P  00001600000000664000000994332P8    YIYTM   006400630017
BI00B32P8    TAPI-2052      202204067116-4026                TERMINAL                 CCN000048000000048000FN00000000020220501000048000NNM   20220209160413    4P0P  00001600000000664000000994332P8    YIYTM   006400630017
BI00B32P8    TAPI-2053      202204137116-4026                TERMINAL                 CCN000064000000064000FN00000000020220501000064000NNM   20220209160413    4P0P  00001600000000664000000994332P8    YIYTM   006400630017
BI00B32P8    TAPI-2054      202204207116-4026                TERMINAL                 CCN000048000000048000FN00000000020220501000048000NNM   20220209160413    4P0P  00001600000000664000000994332P8    YIYTM   006400630017
BI00B32P8    TAPI-2055      202204277116-4026                TERMINAL                 CCN000048000000048000FN00000000020220501000048000NNM   20220209160413    4P0P  00001600000000664000000994332P8    YIYTM   006400630017
BI00B32P8    TAPI-2051      202203307116-4028-08             TERMINAL FEMALE          CCN000336000000336000FN00000000020220501000336000NNM   20220209160413    4P0P  00001600000000652800000981532P8    YIYTM   006400630017
BI00B32P8    TAPI-2052      202204067116-4028-08             TERMINAL FEMALE          CCN000208000000208000FN00000000020220501000208000NNM   20220209160413    4P0P  00001600000000652800000981532P8    YIYTM   006400630017
BI00B32P8    TAPI-2053      202204137116-4028-08             TERMINAL FEMALE          CCN000192000000192000FN00000000020220501000192000NNM   20220209160413    4P0P  00001600000000652800000981532P8    YIYTM   006400630017
