BI00B1200    #2399T51A14    202111257173-3225-10             LIF LEVER                CCN000023200000023200FN00000000020211201000023200NNM00020211122122608    2F0F  0000008000000059200000071201200    YCYC    005500360039
BI00B1200    BY02569B       202205267289-3342-30             HOUSING FEMALE ASS'Y     CCN000002400000000000FY00000000020220101000000000NNEQ0820211122133032    1N0N  0000024000000068640000090141200    YCYC    005500360039
BI00A1200    BUHAN-11-01    202112027298-5993-30             SEALED ASSY FEMALE       CCN000002184000002184FN00000000020211101000002184NNEM0020211122183855    4N0N  0000021840000098150000129001200    YCYC    005500360039
BI00B1200    Y021L52041     202201207116-4112-02             TERMINAL                 CCN000360000000360000FN00000000020220201000360000NNE   20211122122608    4P0P  0000060000000045000000073821200    YCYC    006400630015
BI00B32AF    JTB1123        202111267158-3009-60             RUBBER STOPPER           CCN000040000000040000FN00000000020211201000040000NNM00020211122151145    1C0C  00002000000000338000000386232AF    HBYHVTB 002700430014
BI00B32AF    JTB1123        202111267196-1461-02             TERMINAL FEMALE          CCN000024000000024000FN00000000020211201000024000NNM00020211122151157    4P0P  00002400000000386400000671632AF    HBYHVTB 006400630015
BI00B32AF    JTB112C        202111267158-3006-90             RUBBER STOPPER           CCN000020000000020000FN00000000020211201000020000NNE00020211122151238    1C0C  00002000000000330600000386032AF    HBYHVTB 002700430014
BI00B32BF    #TT2201AKMW    202112077154-8349-30             COVER                    CCN000000240000000240FN00000000020220101000000240NNED0720211122140457    2F0F  00000008000000561000000691032BF    TTTJYCD 005600390040
BI00B32B1    A22006         202201077114-4032                TERMINAL                 CCN000022500000022500FN00000000020220301000022500NNM   20211122122608B1  4P0P  00000750000000735000001063632B1    AXARNE-M006400630017
BI00B32B1    A22006         202201077158-3166-60             WIRE SEAL                CCN000040000000040000FN00000000020220301000040000NNM   20211122122608B1  1C0C  00004000000000104000000152432B1    AXARNE-M002700430014
BI00B32B1    A22006         202201077282-5553-30             CONNECTOR                CCN000004000000004000FN00000000020220301000004000NNM   20211122122608B1  4N0N  00000100000001010000001187332B1    AXARNE-M005500360039
BI00B32B1    A22006         202201077282-5574-10             CONNECTOR                CCN000000800000000800FN00000000020220301000000800NNM   20211122122608B1  4N0N  00000080000001235000001423032B1    AXARNE-M005600390040
BI00B32B1    A22006         202201077282-6448-40             CONNECTOR                CCN000003200000003200FN00000000020220301000003200NNM   20211122122608B1  4N0N  00000080000000887000001152732B1    AXARNE-M005600390040
BI00B32B1    #A22006        202201077157-3891                RUBBER STOPPER           CCN000020000000020000FN00000000020220301000020000NNM   20211122122608B1  2H0H  00001000000000145000000241732B1    AXARNE-M004300270014
BI00B32B1    #A22006        202201077158-3376-50             CONNECTOR WIRE SEAL      CCN000160000000160000FN00000000020220301000160000NNM   20211122122608B1  2C0C  00002000000000184000000240732B1    AXARNE-M002700430014
BI00B32B1    #A22006        202201077283-8226-30             CONNECTOR                CCN000006000000006000FN00000000020220301000006000NNM   20211122122608B1  2N0N  00000200000000820000001008032B1    AXARNE-M005400370024
BI00B32B6    A72006         202201077116-4037                TERMINAL                 CCN000006000000006000FN00000000020220401000006000NNM   20211122122608B6  4P0P  00000600000000600000000894232B6    AXARNE-M006400630015
BI00B32B6    A72006         202201077288-5000                HOUSING MALE ASS'Y       CCN000014448000014448FN00000000020220401000014448NNM   20211122122608B6  1N0N  00000033600000825200001035232B6    AXARNE-M005400370024
BI00B32B6    A72006         202201077289-5000                HOUSING FEMALE ASS'Y     CCN000013680000013680FN00000000020220401000013680NNM   20211122122608B6  1N0N  00000030400000549000000759032B6    AXARNE-M005400370024
BI00B32B6    A72006         202201077017-1183-02             TERMINAL                 CCN000027000000027000FN00000000020220401000027000NNM   20211122122608B6  4P0P  00002700000001139400001307432B6    AXARNE-M005100280028
BI00B32B6    A72006         202201077287-0192-40             SEALED HOUSING ASS'Y     CCN000000960000000960FN00000000020220401000000960NNM   20211122122608B6  4N0N  00000048000001092000001322032B6    AXARNE-M005600390040
BI00B32B7    A82006         202201077158-3167-80             WIRE SEAL                CCN000020000000020000FN00000000020220401000020000NNM   20211122122608B7  1C0C  00002000000000048000000109032B7    AXARNE-M002700430014
BI00B32B7    A82006         202201077282-6448-40             CONNECTOR                CCN000008800000008800FN00000000020220401000008800NNM   20211122122608B7  4N0N  00000080000000887000001152732B7    AXARNE-M005600390040
BI00B32B7    #A82006        202201077135-7031                GROMMET                  CCN000004000000004000FN00000000020220401000004000NNM   20211122122608B7  2H0H  00000010000000634200000744232B7    AXARNE-M005400370024
BI00B32CA    PTA32052       202201277116-3153-02             TERMINAL FEMALE          CCN000990000000999000FN00000000020220501000999000NNE   20211122122608    4P0P  00002700000000459000000744232CA    YPYPY   006400630015
BI00B32CA    PTA32052       202201277116-3154-02             TERMINAL FEMALE          CCN000264000000270000FN00000000020220501000270000NNE   20211122122608    4P0P  00002700000000469800000755032CA    YPYPY   006400630015
BI00B32CA    PTA32052       202201277196-0510-02             TERMINAL                 CCN000072000000072000FN00000000020220501000072000NNE   20211122122608    4P0P  00002400000000871200001034632CA    YPYPY   002800510028
BI00B32CA    PTA32052       202201277196-0511-02             TERMINAL                 CCN000005000000024000FN00000000020220501000024000NNE   20211122122608    4P0P  00002400000000916800001080232CA    YPYPY   002800510028
BI00B32CA    PTA32052       202201277289-3342                HOUSING FEMALE ASS'Y     CCN000021600000021600FN00000000020220501000021600NNE   20211122122608    1N0N  00000240000000686400000901432CA    YPYPY   005500360039
BI00B32CA    PTA32052       202201277289-3342-30             HOUSING FEMALE ASS'Y     CCN000040800000040800FN00000000020220501000040800NNE   20211122122608    1N0N  00000240000000686400000901432CA    YPYPY   005500360039
BI00B32CA    PTA32052       202201277289-3342-90             HOUSING FEMALE ASS'Y     CCN000016800000016800FN00000000020220501000016800NNE   20211122122608    1N0N  00000240000000686400000901432CA    YPYPY   005500360039
BI00B32CA    #PTA32052      202201277154-5597-30             CASSETTE R/B             CCN000004000000004000FN00000000020220501000004000NNE   20211122122608    2F0F  00000080000000736000000952032CA    YPYPY   005500360039
BI00B32CA    #PTA32052      202201277189-3032-30             HOUSING FEMALE           CCN000003200000003200FN00000000020220501000003200NNE   20211122122608    2F0F  00000160000000801600001021632CA    YPYPY   005500360039
BI00B32CH    SJ21122 MW     202111257158-3006-90             RUBBER STOPPER           CCN000400000000400000FN00000000020211201000400000NNM00020211122122608    1C0C  00002000000000330600000386032CH    SJSAMIJF002700430014
BI00B32CJ    JQN1123        202111267158-3006-90             RUBBER STOPPER           CCN000060000000060000FN00000000020211201000060000NNM00020211122151519    1C0C  00002000000000330600000386032CJ    QNYHVQN 002700430014
BI00B32CJ    JQN1123        202111267196-1103-02             TERMINAL                 CCN000022500000022500FN00000000020211201000022500NNM00020211122151603    4P0P  00002250000000429800000715032CJ    QNYHVQN 006400630015
BI00B32CJ    JQN201B        202112097116-4486-02             TERMINAL                 CCN000084000000084000FN00000000020220101000084000NNE   20211122122608    4P0P  00002800000000666400000995132CJ    QNYHVQN 006400630017
BI00B32CJ    #JQN201B       202112097047-5654-30             CLIP                     CCN000010000000010000FN00000000020220101000010000NNE   20211122122608    2F0F  00000500000000657000000825332CJ    QNYHVQN 005500360039
BI00B32CJ    #JQN201B       202112097157-3992-90             CONNECTOR SEALED         CCN000040000000040000FN00000000020220101000040000NNE   20211122122608    2C0C  00004000000000300000000363332CJ    QNYHVQN 002700430014
BI00B32CJ    #JQN201B       202112097158-3120-90             CONNECTOR WIRE SEAL      CCN000040000000040000FN00000000020220101000040000NNE   20211122122608    2C0C  00002000000000136000000194032CJ    QNYHVQN 002700430014
BI00B32CJ    #JQN201B       202112097287-1669                HOUSING FEMALE ASS'Y     CCN000010000000010000FN00000000020220101000010000NNE   20211122122608    2N0N  00000200000000788800000980832CJ    QNYHVQN 005400370024
BI00B32CJ    #JQN201B       202112097287-1670                HOUSING FEMALE ASS'Y     CCN000008400000008400FN00000000020220101000008400NNE   20211122122608    2N0N  00000280000000953100001145132CJ    QNYHVQN 005400370024
BI00B32CJ    #JQN201B       202112097287-1671                HOUSING FEMALE ASS'Y     CCN000010000000010000FN00000000020220101000010000NNE   20211122122608    2N0N  00000200000000782600000974632CJ    QNYHVQN 005400370024
BI00B32CJ    #JQN201B       202112097287-1674                HYBRID FEMALE ASS'Y      CCN000010000000010000FN00000000020220101000010000NNE   20211122122608    2N0N  00000200000000810800001002832CJ    QNYHVQN 005400370024
BI00B32DE    TCT1114        202111197287-9234                JOINT CONNECTOR          CCN000096000000096000FY00009600020211101000000000NNMD0020211122115237    4N0N  00000960000000893800001184832DE    TVYEV-TV005500360039
BI00B32DE    TCT1122        202111257196-1103-02             TERMINAL                 CCN000022500000022500FN00000000020211201000022500NNM00020211122122608    4P0P  00002250000000429800000715032DE    TVYEV-TV006400630015
BI00B32DE    TCT112A        202112027116-1688-02             TERMINAL FEMALE          CCN000021000000021000FN00000000020211201000021000NNE   20211122122608    4P0P  00002100000000299600000898832DE    TVYEV-TV005100280028
BI00B32DE    TCT112A        202112027287-1915-90             CONNECTOR ASS'Y          CCN000002400000002400FN00000000020211201000002400NNE   20211122122608    4N0N  00000240000000666500000923132DE    TVYEV-TV005500360039
BI00B32DE    #TCT112A       202112027172-5630-40             RUBBER STOPPER           CCN000020000000020000FN00000000020211201000020000NNE   20211122122608    2H0H  00002000000000044000000095132DE    TVYEV-TV004300270014
BI00B32DG    RP2013A        202112237116-4025                TERMINAL                 CCN000016000000016000FN00000000020210101000016000NNE   20211122153056    4P0P  00001600000000644800000975132DG    BFSAIBF 006400630017
BI00B32DG    RP2013A        202112237283-1156                CONNECTOR                CCN000000800000000800FN00000000020210101000000800NNE   20211122153056    4N0N  00000080000000877600001078032DG    BFSAIBF 005600390040
BI00B32DG    #RL2013A       202112237035-5731                GROMMET                  CCN000000500000000500FN00000000020220101000000500NNE   20211122153104    2H0H  00000050000000808000000918032DG    BFSAIBF 005600390040
BI00A32D1    DFTC2145       202111207289-6547                HOUSING FEMALE ASS'Y     PCN000009600000009600FY00000960020211101000000000NNM00020211122112505    1N0N  00000240000001152000001362032D1    TOYOT-K 005500360039
BI00B32D1    DFTC2207       202202247288-6547                CONNECTOR MALE ASS'Y     CCN000020250000010500FN00000000020220201000010500NNMD0420211122122608    4N0N  00000075000001205300001340332D1    TOYOT-K 005400370024
BI00B32D1    DFTC2207       202202037289-3342                HOUSING FEMALE ASS'Y     CCN000062400000062400FN00000000020220201000062400NNMD0420211122122608    1N0N  00000240000000686400000901432D1    TOYOT-K 005500360039
BI00B32D1    DFTC2207       202112237289-3342-30             HOUSING FEMALE ASS'Y     CCN000172800000086400FN00000000020220201000086400NNMQ0420211122122608    1N0N  00000240000000686400000901432D1    TOYOT-K 005500360039
BI00B32D1    DFTC2207       202203037289-3342-40             HOUSING FEMALE ASS'Y     CCN000019200000019200FN00000000020220201000019200NNMD0420211122122608    1N0N  00000240000000686400000901432D1    TOYOT-K 005500360039
BI00B32D1    DFTC2207       202203107289-3342-90             HOUSING FEMALE ASS'Y     CCN000016800000016800FN00000000020220201000016800NNMD0420211122122608    1N0N  00000240000000686400000901432D1    TOYOT-K 005500360039
BI00B32D1    DFTC2207       202203107288-6547                CONNECTOR MALE ASS'Y     CCN000009750000009750FN00000000020220201000009750NNMD0420211122122608    4N0N  00000075000001205300001340332D1    TOYOT-K 005400370024
BI00B32D1    DFTC2207       202201137289-3342-30             HOUSING FEMALE ASS'Y     CCN000086400000086400FN00000000020220201000086400NNMD0420211122122608    1N0N  00000240000000686400000901432D1    TOYOT-K 005500360039
BI00B32D2    DGTC2207       202112237114-4032                TERMINAL                 CCN000060000000060000FN00000000020220201000060000NNM   20211122122608    4P0P  00000750000000735000001063632D2    TGYOT-G 006400630017
BI00B32D2    DGTC2207       202112237114-5748-02             TERMINAL                 CCN000108000000108000FN00000000020220201000108000NNM   20211122122608    4P0P  00001200000000444000000737632D2    TGYOT-G 006400630015
BI00B32D2    DGTC2207       202112237114-5753-02             TERMINAL                 CCN000297000000297000FN00000000020220201000297000NNM   20211122122608    4P0P  00002700000000847800001141432D2    TGYOT-G 006400630015
BI00B32D2    DGTC2207       202112237116-4486-02             TERMINAL                 CCN000280000000280000FN00000000020220201000280000NNM   20211122122608    4P0P  00002800000000666400000995132D2    TGYOT-G 006400630017
BI00B32D2    DGTC2207       202112237116-5045-02             TERMINAL                 CCN000128000000128000FN00000000020220201000128000NNM   20211122122608    4P0P  00001600000000678400001007132D2    TGYOT-G 006400630017
BI00B32D2    DGTC2207       202112237116-5046-02             TERMINAL                 CCN000180000000180000FN00000000020220201000180000NNM   20211122122608    4P0P  00001200000000544800000873532D2    TGYOT-G 006400630017
BI00B32D2    DGTC2207       202112237116-6042                TERMINAL                 CCN000105000000105000FN00000000020220201000105000NNM   20211122122608    4P0P  00000300000000523800000856132D2    TGYOT-G 006400630015
BI00B32D2    DGTC2207       202112237126-8853-02             TERMINAL                 CCN000234000000240000FN00000000020220201000240000NNM   20211122122608    4P0P  00000750000000562500000847732D2    TGYOT-G 006400630015
BI00B32D2    DGTC2207       202112237126-8854-02             TERMINAL                 CCN000144000000150000FN00000000020220201000150000NNM   20211122122608    4P0P  00000750000000604500000889732D2    TGYOT-G 006400630015
BI00B32D2    DGTC2207       202112237126-8855-02             TERMINAL                 CCN000240000000240000FN00000000020220201000240000NNM   20211122122608    4P0P  00000600000000510600000795832D2    TGYOT-G 006400630015
BI00B32D2    DGTC2207       202112237158-3070-80             RUBBER STOPPER           CCN000080000000080000FN00000000020220201000080000NNM   20211122122608    1C0C  00004000000000276000000333332D2    TGYOT-G 002700430014
BI00B32D2    DGTC2207       202112237158-3166-60             WIRE SEAL                CCN000120000000120000FN00000000020220201000120000NNM   20211122122608    1C0C  00004000000000104000000152432D2    TGYOT-G 002700430014
BI00B32D2    DGTC2207       202112237158-3167-80             WIRE SEAL                CCN000140000000140000FN00000000020220201000140000NNM   20211122122608    1C0C  00002000000000048000000109032D2    TGYOT-G 002700430014
BI00B32D2    DGTC2207       202112237173-3291-40             LIF LEVER                CCN000019200000019200FN00000000020220201000019200NNM   20211122122608    1F0F  00000240000000867800001067832D2    TGYOT-G 005500360039
BI00B32D2    DGTC2207       202112237196-0396-02             TERMINAL                 CCN000030000000030000FN00000000020220201000030000NNM   20211122122608    4P0P  00001500000000949500001112932D2    TGYOT-G 002800510028
BI00B32D2    DGTC2207       202112237196-1325-02             TERMINAL FEMALE          CCN000960000000960000FN00000000020220201000960000NNM   20211122122608    4P0P  00006000000000450000000778732D2    TGYOT-G 006400630017
BI00B32D2    DGTC2207       202112237196-1326-02             TERMINAL FEMALE          CCN002040000002040000FN00000000020220201002040000NNM   20211122122608    4P0P  00006000000000456000000784732D2    TGYOT-G 006400630017
BI00B32D2    DGTC2207       202112237196-1327-02             TERMINAL FEMALE          CCN000208000000208000FN00000000020220201000208000NNM   20211122122608    4P0P  00005200000000336000000739532D2    TGYOT-G 006400630017
BI00B32D2    DGTC2207       202112237288-6547                CONNECTOR MALE ASS'Y     CCN000024000000024000FN00000000020220201000024000NNM   20211122122608    4N0N  00000075000001205300001340332D2    TGYOT-G 005400370024
BI00B32D2    DGTC2207       202112237289-3342                HOUSING FEMALE ASS'Y     CCN000132000000132000FN00000000020220201000132000NNM   20211122122608    1N0N  00000240000000686400000901432D2    TGYOT-G 005500360039
BI00B32D2    DGTC2207       202112237289-3342-30             HOUSING FEMALE ASS'Y     CCN000043200000043200FN00000000020220201000043200NNM   20211122122608    1N0N  00000240000000686400000901432D2    TGYOT-G 005500360039
BI00B32D2    DGTC2207       202112237289-3342-40             HOUSING FEMALE ASS'Y     CCN000048000000048000FN00000000020220201000048000NNM   20211122122608    1N0N  00000240000000686400000901432D2    TGYOT-G 005500360039
BI00B32D2    DGTC2207       202112237289-3342-90             HOUSING FEMALE ASS'Y     CCN000055200000055200FN00000000020220201000055200NNM   20211122122608    1N0N  00000240000000686400000901432D2    TGYOT-G 005500360039
BI00B32D2    DGTC2207       202112237289-6518-30             HOUSING FEMALE ASS'Y     CCN000019200000019200FN00000000020220201000019200NNM   20211122122608    1N0N  00000120000000829200001049232D2    TGYOT-G 005500360039
BI00B32D2    DGTC2207       202112237289-6547                HOUSING FEMALE ASS'Y     CCN000021600000021600FN00000000020220201000021600NNM   20211122122608    1N0N  00000240000001152000001362032D2    TGYOT-G 005500360039
BI00B32D2    DGTC2207       202112237296-0784-02             TERMINAL ALUMINIUM       CCN000096000000096000FN00000000020220201000096000NNM   20211122122608    4P0P  00002400000000480000000765232D2    TGYOT-G 006400630015
BI00B32D2    DGTC2207       202112237296-1024-02             TERMINAL ALUMINIUM       CCN000036000000036000FN00000000020220201000036000NNM   20211122122608    4P0P  00001800000000698400000983632D2    TGYOT-G 006400630015
BI00B32D2    DGTC2207       202112237327-6809                MULTI FUSE               CCN000013440000013440FN00000000020220201000013440NNM   20211122122608    4N0N  00000056000000849300001061732D2    TGYOT-G 005400370024
BI00B32D2    DGTC2207       202112237388-2978-30             HOUSING MALE ASS'Y       CCN000040800000040800FN00000000020220201000040800NNM   20211122122608    1N0N  00000048000000742000001122032D2    TGYOT-G 005500360039
BI00B32D2    #DGTC2207      202112237158-3003-90             RUBBER STOPPER           CCN000420000000420000FN00000000020220201000420000NNM   20211122122608    2C0C  00002000000000250000000306032D2    TGYOT-G 002700430014
BI00B32D2    #DGTC2207      202112237158-3005-80             RUBBER STOPPER           CCN000060000000060000FN00000000020220201000060000NNM   20211122122608    2H0H  00002000000000210000000268732D2    TGYOT-G 002700430014
BI00B32D2    #DGTC2207      202112237158-3008-80             RUBBER STOPPER           CCN000120000000120000FN00000000020220201000120000NNM   20211122122608    2C0C  00002000000000288000000343032D2    TGYOT-G 004300270014
BI00B32D2    #DGTC2207      202112237158-3015-10             RUBBER STOPPER           CCN000060000000060000FN00000000020220201000060000NNM   20211122122608    2C0C  00001000000000419500000474032D2    TGYOT-G 002700430014
BI00B32D2    #DGTC2207      202112237158-3017                RUBBER STOPPER           CCN000040000000040000FN00000000020220201000040000NNM   20211122122608    2C0C  00001000000000375500000435032D2    TGYOT-G 002700430014
BI00B32D2    #DGTC2207      202112237158-3374-90             CONNECTOR WIRE SEAL      CCN000060000000060000FN00000000020220201000060000NNM   20211122122608    2H0H  00002000000000172000000229332D2    TGYOT-G 002700430014
BI00B32D2    #DGTC2207      202112237172-5625-90             RUBBER STOPPER           CCN000040000000040000FN00000000020220201000040000NNM   20211122122608    2H0H  00002000000000082400000133832D2    TGYOT-G 004300270014
BI00B32D2    #DGTC2207      202112237172-5627-60             RUBBER STOPPER           CCN000040000000040000FN00000000020220201000040000NNM   20211122122608    2H0H  00002000000000070400000121832D2    TGYOT-G 004300270014
BI00B32D2    #DGTC2207      202112237172-5628-80             DUMMY PLUG               CCN000020000000020000FN00000000020220201000020000NNM   20211122122608    2H0H  00002000000000110600000162032D2    TGYOT-G 004300270014
BI00B32D2    #DGTC2207      202112237172-5629-80             RUBBER STOPPER           CCN000760000000760000FN00000000020220201000760000NNM   20211122122608    2H0H  00002000000000060000000111132D2    TGYOT-G 004300270014
BI00B32D2    #DGTC2207      202112237172-5630-40             RUBBER STOPPER           CCN000540000000540000FN00000000020220201000540000NNM   20211122122608    2H0H  00002000000000044000000095132D2    TGYOT-G 004300270014
BI00B32D2    #DGTC2207      202112237172-5631-60             RUBBER STOPPER           CCN000320000000320000FN00000000020220201000320000NNM   20211122122608    2H0H  00002000000000042000000093132D2    TGYOT-G 004300270014
BI00B32D2    #DGTC2207      202112237172-5632-10             DUMMY PLUG               CCN000400000000400000FN00000000020220201000400000NNM   20211122122608    2H0H  00002000000000080400000131832D2    TGYOT-G 004300270014
BI00B32D2    #DGTC2207      202112237189-2978-30             HOUSING FEMALE           CCN000123000000123000FN00000000020220201000123000NNM   20211122122608    2F0F  00000150000000966900001096932D2    TGYOT-G 005400370024
BI00B32D2    #DGTC2207      202112237189-3033                HOUSING FEMALE           CCN000019200000019200FN00000000020220201000019200NNM   20211122122608    2F0F  00000160000001211200001431232D2    TGYOT-G 005500360039
BI00B32D2    #DGTC2207      202112237189-3036                HOUSING FEMALE           CCN000006400000006400FN00000000020220201000006400NNM   20211122122608    2F0F  00000160000000921600001141632D2    TGYOT-G 005500360039
BI00B32D2    #DGTC2207      202112237289-2912-40             HOUSING FEMALE ASS'Y     CCN000004000000004000FN00000000020220201000004000NNM   20211122122608    2N0N  00000200000000804000000931032D2    TGYOT-G 005400370024
BI00B32D2    #DGTC2207      202112237289-3622-30             HOUSING FEMALE ASS'Y     CCN000003888000003888FN00000000020220201000003888NNM   20211122122608    2N0N  00000043200000839400001038432D2    TGYOT-G 005400370024
BI00B32EJ    4500184384     202112027116-4122-02             TERMINAL                 CCN000027000000027000FN00000000020211201000027000NNE   20211122122608EJ  4P0P  00000450000000656600000950232EJ    EJYKBO  006400630015
BI00B32EJ    4500184384     202112027158-3006-90             RUBBER STOPPER           CCN000020000000020000FN00000000020211201000020000NNE   20211122122608EJ  1C0C  00002000000000330600000386032EJ    EJYKBO  002700430014
BI00B32EJ    4500184384     202112027283-1020                CONNECTOR                CCN000030000000030000FN00000000020211201000030000NNE   20211122122608EJ  4N0N  00000600000000840000001049332EJ    EJYKBO  005600390040
BI00B32EJ    #4500184384    202112027123-6423-30             CONNECTOR                CCN000014000000014000FN00000000020211201000014000NNE   20211122122608EJ  2F0F  00000200000001002000001167632EJ    EJYKBO  005600390023
BI00B32EJ    #4500184384    202112027157-3821                RUBBER STOPPER           CCN000040000000040000FN00000000020211201000040000NNE   20211122122608EJ  2C0C  00002000000000176000000238032EJ    EJYKBO  002700430014
BI00B32EJ    #4500184384    202112027283-8398-40             CONNECTOR                CCN000009240000009240FN00000000020211201000009240NNE   20211122122608EJ  2N0N  00000154000001007000001171332EJ    EJYKBO  005600390023
BI00B32EJ    4500184385     202112027158-3169-40             SEALING PLUG             CCN000120000000120000FN00000000020211201000120000NNE   20211122122608EJ  1C0C  00004000000000156000000204132EJ    EJYKBO  004300260014
BI00B32EJ    4500184383     202112167116-4022                TERMINAL                 CCN000013500000013500FN00000000020220101000013500NNE   20211122122608EJ  4P0P  00001350000000618300000903532EJ    EJYKBO  006400630015
BI00B32EJ    4500184383     202112167283-5843                CONNECTOR                CCN000009000000009000FN00000000020220101000009000NNE   20211122122608EJ  1N0N  00000150000000889000001132032EJ    EJYKBO  005600390040
BI00B32EJ    4500184383     202112167114-4111-02             TERMINAL                 CCN000096000000096000FN00000000020220101000096000NNE   20211122122608EJ  4P0P  00001200000000758400001087032EJ    EJYKBO  006400630017
BI00B32EJ    4500184383     202112167114-4101-02             TERMINAL                 CCN000150000000150000FN00000000020220101000150000NNE   20211122122608EJ  4P0P  00001500000000675000001003632EJ    EJYKBO  006400630017
BI00B32G2    SA21121 MW     202111197114-4728-02             TERMINAL                 CCN000600000000600000FY00060000020211201000000000NNM00020211122113523    4P0P  00003000000000510000000804232G2    AISUAI  006400630015
BI00B32G2    SA21121 MW     202111197114-5746-02             TERMINAL                 CCN000084000000084000FY00008400020211201000000000NNM00020211122113532    4P0P  00002100000000695100000988732G2    AISUAI  006400630015
BI00B32G2    SA21121 MW     202111197116-5045-02             TERMINAL                 CCN000080000000080000FY00008000020211201000000000NNM00020211122113548    4P0P  00001600000000678400001007132G2    AISUAI  006400630017
BI00B32G2    SA21123 MW     202111227158-3009-60             RUBBER STOPPER           CCN000100000000100000FN00000000020211201000100000NNM00020211122183303    1C0C  00002000000000338000000386232G2    AISUAI  002700430014
BI00B32G2    SA21123 MW     202111247283-4855                CONNECTOR HOUSING        CCN000002400000002400FN00000000020211201000002400NNM00020211122122608    4N0N  00000240000001188400001400032G2    AISUAI  005500360039
BI00B32G2    SA21123 MW     202111227289-3342-30             HOUSING FEMALE ASS'Y     CCN000026400000026400FN00000000020211201000026400NNM00020211122122608    1N0N  00000240000000686400000901432G2    AISUAI  005500360039
BI00B32G7    JJ2201B MW     202201137289-3342-30             HOUSING FEMALE ASS'Y     CCN000002400000002400FN00000000020220101000002400NNED0420211122122608    1N0N  00000240000000686400000901432G7    JIJAI   005500360039
BI00A32H0    TT22021VMW     202111247386-9155                CONNECTOR MALE ASS'Y     CCN000002400000002400FN00000000020220201000002400NNMM0020211122185130    4N0N  00000060000001244400001369932H0    TTTJY   005400370024
BI00A32H0    TT2112DVMW     202111247288-6547                CONNECTOR MALE ASS'Y     PCN000000750000000750FN00000000020211201000000750NNED0720211122185220    4N0N  00000075000001205300001340332H0    TTTJY   005400370024
BI00A32H0    TT2112DVMW     202111247289-6547                HOUSING FEMALE ASS'Y     PCN000007200000007200FN00000000020211201000007200NNED0020211122175925    1N0N  00000240000001152000001362032H0    TTTJY   005500360039
BI00B32J1    388447         202112207158-3166-60             WIRE SEAL                CCN002160000002160000FN00000000020211201002160000NNMD0420211122122608    1C0C  00004000000000104000000152432J1    UKYEL-BL002700430014
BI00B32J1    388447         202201047158-3167-80             WIRE SEAL                CCN002640000002640000FN00000000020211201002640000NNMD0420211122122608    1C0C  00002000000000048000000109032J1    UKYEL-BL002700430014
BI00B32M1    TCV1122        202111257196-1104-02             TERMINAL                 CCN000022500000022500FN00000000020211201000022500NNM00020211122122608    4P0P  00002250000000441000000726232M1    VNYEV   006400630015
BI00B32M1    TCV1122        202111257283-1288-40             CONNECTOR HOUSING        CCN000004800000004800FN00000000020211201000004800NNM00020211122122608    4N0N  00000120000001382000001640732M1    VNYEV   005600390040
BI00B32M3    SM21122 MW     202111187282-4577                HOUSING MALE ASS'Y       CCN000004800000004800FY00000480020211201000000000NNM00020211122114506    4N0N  00000240000000964800001174832M3    SASAMI  005500360039
BI00B32M4    #TL2013A       202112237283-5834                CONNECTOR ASS'Y          CCN000006480000006480FN00000000020220101000006480NNE   20211122153114    2N0N  00000324000001296000001849732M4    SISAI   005600390040
BI00B32M4    #TL2013A       202112237283-5834-30             CONNECTOR ASS'Y          CCN000003240000003240FN00000000020220101000003240NNE   20211122153114    2N0N  00000324000001296000001853432M4    SISAI   005600390040
BI00B32M4    #TL2013A       202112237114-4022                TERMINAL                 CCN000015000000015000FN00000000020220101000015000NNE   20211122153114    2F0P  00001500000000708000001120632M4    SISAI   006400630015
BI00B32M4    #TL2013A       202112237189-3038                HOUSING FEMALE           CCN000001600000001600FN00000000020220101000001600NNE   20211122153114    2F0F  00000160000000817600000850132M4    SISAI   005500360039
BI00B32M4    TP2013E        202112237017-1181-02             TERMINAL                 CCN000063000000063000FN00000000020220101000063000NNE   20211122153122    4P0P  00006300000001089900001266832M4    SISAI   005100280028
BI00B32M4    TP2013E        202112237116-5042-02             TERMINAL                 CCN000081000000081000FN00000000020220101000081000NNE   20211122153122    4P0P  00001350000000560300000845532M4    SISAI   006400630015
BI00B32M4    TP2013E        202112237295-0785-02             TERMINAL ALUMINIUM       CCN000025500000025500FN00000000020220101000025500NNE   20211122153122    4P0P  00002550000000510000000803632M4    SISAI   006400630015
BI00B32M8    PM21114 MW     202111197114-4728-02             TERMINAL                 CCN000270000000270000FY00027000020211101000000000NNM00020211122112307    4P0P  00003000000000510000000804232M8    PMPEMI  006400630015
BI00B32M8    PM21114 MW     202111197114-5746-02             TERMINAL                 CCN000042000000042000FY00004200020211101000000000NNM00020211122112316    4P0P  00002100000000695100000988732M8    PMPEMI  006400630015
BI00B32M8    PM21114 MW     202111197114-5748-02             TERMINAL                 CCN000060000000060000FY00006000020211101000000000NNM00020211122112333    4P0P  00001200000000444000000737632M8    PMPEMI  006400630015
BI00B32M8    PM21114 MW     202111197116-3153-02             TERMINAL FEMALE          CCN001071000001080000FY00108000020211101000000000NNM00020211122112237    4P0P  00002700000000459000000744232M8    PMPEMI  006400630015
BI00B32M8    PM21114 MW     202111247116-3154-02             TERMINAL FEMALE          CCN000648000000648000FN00000000020211101000648000NNM00020211122122608    4P0P  00002700000000469800000755032M8    PMPEMI  006400630015
BI00B32M8    PM21114 MW     202111197116-5045-02             TERMINAL                 CCN000208000000208000FY00020800020211101000000000NNM00020211122112246    4P0P  00001600000000678400001007132M8    PMPEMI  006400630017
BI00B32M8    PM21114 MW     202111197283-1288                CONNECTOR HOUSING        CCN000001200000001200FY00000120020211101000000000NNM00020211122112256    4N0N  00000120000001381000001637032M8    PMPEMI  005600390040
BI00B32M8    PM21122 MW     202111197116-1257-02             TERMINAL                 CCN000024000000024000FY00002400020211201000000000NNM00020211122112827    1P0P  00002400000000518400000847132M8    PMPEMI  006400630017
BI00B32M8    PM21122 MW     202111197126-8851-02             TERMINAL                 CCN000009000000009000FY00000900020211201000000000NNM00020211122112857    1P0P  00000900000000739800001025032M8    PMPEMI  006400630015
BI00B32M8    PM21122 MW     202111197126-8852-02             TERMINAL                 CCN000007500000007500FY00000750020211201000000000NNM00020211122112857    1P0P  00000750000000648000000933232M8    PMPEMI  006400630015
BI00B32M8    PM21122 MW     202111197158-3022-80             RUBBER STOPPER           CCN000005000000005000FY00000500020211201000000000NNM00020211122113112    1C0C  00000500000000467500000524032M8    PMPEMI  002700430014
BI00B32M8    PM21122 MW     202111197158-3023                RUBBER STOPPER           CCN000005000000005000FY00000500020211201000000000NNM00020211122113112    1C0C  00000500000000443500000502032M8    PMPEMI  002700430014
BI00B32M8    PM21122 MW     202111197158-3070-80             RUBBER STOPPER           CCN000040000000040000FY00004000020211201000000000NNM00020211122113112    1C0C  00004000000000276000000333332M8    PMPEMI  002700430014
BI00B32M8    PM21122 MW     202111197158-3166-60             WIRE SEAL                CCN000040000000040000FY00004000020211201000000000NNM00020211122113112    1C0C  00004000000000104000000152432M8    PMPEMI  002700430014
BI00B32M8    PM21122 MW     202111197158-3167-80             WIRE SEAL                CCN000020000000020000FY00002000020211201000000000NNM00020211122113112    1C0C  00002000000000048000000109032M8    PMPEMI  002700430014
BI00B32M8    PM21122 MW     202111197183-7665-30             HOUSING                  CCN000001200000001200FY00000120020211201000000000NNM00020211122113112    1F0F  00000120000001103300001247832M8    PMPEMI  005500360039
BI00B32M8    PM21122 MW     202111197282-1248                HOUSING SUB ASSEMBLY     CCN000000600000000600FY00000060020211201000000000NNM00020211122113112    1N0N  00000060000001167000001372032M8    PMPEMI  005500360039
BI00B32M8    PM21122 MW     202111197283-1289                CONNECTOR HOUSING        CCN000000600000000600FY00000060020211201000000000NNM00020211122113112    1N0N  00000060000000676200000817632M8    PMPEMI  005400370024
BI00B32M8    PM21122 MW     202111197283-1289-30             CONNECTOR HOUSING        CCN000001200000001200FY00000120020211201000000000NNM00020211122113112    1N0N  00000060000000675600000820632M8    PMPEMI  005400370024
BI00B32M8    PM21122 MW     202111197283-5832-30             CONNECTOR HOUSING        CCN000002400000002400FY00000240020211201000000000NNM00020211122113112    1N0N  00000240000000723800000873832M8    PMPEMI  005500360039
BI00B32M8    PM21122 MW     202111197283-5845                CONNECTOR HOUSING        CCN000006000000006000FY00000600020211201000000000NNM00020211122113112    1N0N  00000600000000444000000606332M8    PMPEMI  005400370024
BI00B32M8    PM21122 MW     202111197283-7029-30             CONNECTOR                CCN000006000000006000FY00000600020211201000000000NNM00020211122113112    1N0N  00000600000001032000001206032M8    PMPEMI  005600390023
BI00B32M8    PM21122 MW     202111197283-7029-40             CONNECTOR                CCN000006000000006000FY00000600020211201000000000NNM00020211122113112    1N0N  00000600000001026000001200032M8    PMPEMI  005600390023
BI00B32M8    PM21122 MW     202111197283-7623                CONNECTOR                CCN000010000000010000FY00001000020211201000000000NNM00020211122113112    1N0N  00001000000000720000000840032M8    PMPEMI  005600390040
BI00B32M8    PM21122 MW     202111197286-3885-30             CONNECTOR MALE ASS'Y     CCN000002400000002400FY00000240020211201000000000NNM00020211122113112    1N0N  00000120000000910600001130632M8    PMPEMI  005500360039
BI00B32M8    PM21122TMW     202111197282-7028-30             CONNECTOR                CCN000002000000002000FY00000200020211201000000000NNM00020211122113147    1N0N  00000200000001124000001212532M8    PMPEMI  005600390040
BI00B32M8    PM21122TMW     202111197287-3885-40             HYBRID FEMALE ASS'Y      CCN000002400000002400FY00000240020211201000000000NNM00020211122113147    1N0N  00000240000001029600001249632M8    PMPEMI  005500360039
BI00B32M8    PM21122TMW     202111197388-2978-30             HOUSING MALE ASS'Y       CCN000000480000000480FY00000048020211201000000000NNM00020211122113147    1N0N  00000048000000742000001122032M8    PMPEMI  005500360039
BI00B32M8    PM2112A MW     202111197283-1968-30             CONNECTOR                CCN000000900000000900FY00000090020211201000000000NNE00020211122113700    1N0N  00000090000001140000001318332M8    PMPEMI  005600390040
BI00B32M8    PM2112A MW     202111197283-7623                CONNECTOR                CCN000010000000010000FY00001000020211201000000000NNE00020211122113711    1N0N  00001000000000720000000840032M8    PMPEMI  005600390040
BI00B32N1    NST2114FCU-REV 202202247289-3342-30             HOUSING FEMALE ASS'Y     CCN000007200000007200FN00000000020220101000007200NNED0420211122122608    1N0N  00000240000000686400000901432N1    TAYIPL  005500360039
BI00A32N3    NBT2201 A1     202111177470-6016                J/B COMPLETE ASS'Y       CCN000000370000000170FY00000017020220101000000000NNMM0020211122112544    4J0J  00000001000000494000000661032N3    ABYIPL-B005400360024
BI00A32N3    NBT2201 A1     202111207470-6015                J/B COMPLETE ASS'Y       CCN000000220000000320FY00000032020220101000000000NNMM0020211122112717    4J0J  00000001000000494000000661032N3    ABYIPL-B005400360024
BI00A32N3    NBT2201 A2     202111207470-6016                J/B COMPLETE ASS'Y       CCN000000130000000300FY00000030020220101000000000NNMM0020211122112752    4J0J  00000001000000494000000661032N3    ABYIPL-B005400360024
BI00A32N3    NBT2201 A1     202111207470-5403                J/B COMPLETE ASS'Y       CCN000000020000000020FY00000002020220101000000000NNMM0020211122112651    4J0J  00000001000000247000000318032N3    ABYIPL-B005400370024
BI00A32N3    NBT2201 A2     202111207470-6015                J/B COMPLETE ASS'Y       CCN000000180000000180FY00000018020220101000000000NNMM0020211122112752    4J0J  00000001000000494000000661032N3    ABYIPL-B005400360024
BI00A32P8    TAPI-1113      202111237196-1103-02             TERMINAL                 PCN000270000000270000FN00000000020211101000270000NNMD0020211122145854    4P0P  00002250000000429800000715032P8    YIYTM   006400630015
BI00A32P8    TAPI-1113      202111237196-1104-02             TERMINAL                 PCN000157500000157500FN00000000020211101000157500NNMD0020211122145854    4P0P  00002250000000441000000726232P8    YIYTM   006400630015
BI00A32P8    TAPI-1113      202111237196-1461-02             TERMINAL FEMALE          PCN000072000000072000FN00000000020211101000072000NNMM0020211122145854    4P0P  00002400000000386400000671632P8    YIYTM   006400630015
BI00A32P8    #TAPI-1122     202111297289-4200-30             HOUSING FEMALE ASS'Y     PCN000006000000006000FN00000600020211201000000000NNM00020211122132430    2N0N  00000200000000926000001021032P8    YIYTM   005400370024
BI00B32Q8    QA-21-P35      202112017196-1104-02             TERMINAL                 PNY000007500000007500FN00000000020211201000007500NNE   20211122150308    4P0P  00002250000000441000000726232Q8    EMEMI   006400630015
BI00B32R7    R-TAP210572    202112027116-1471                TERMINAL                 CCN000120000000120000FN00000000020211201000120000NNE   20211122190024    4P0P  00001500000000579000000867232R7    IVYCIC  006400630015
BI00B32R7    R-TAP210572    202112027126-8851-02             TERMINAL                 CCN000054000000054000FN00000000020211201000054000NNE   20211122185902    1P0P  00000900000000739800001025032R7    IVYCIC  006400630015
BI00B32R7    R-TAP210573    202112097116-4121-02             TERMINAL                 CCN000013500000013500FN00000000020211201000013500NNED0720211122122608    4P0P  00000450000000618800000912432R7    IVYCIC  006400630015
BI00B32R7    #R-TAP210574   202112097282-5545-10             CONNECTOR                CCN000006400000006400FN00000000020211201000006400NNED0720211122130335    2N0N  00000080000001293600001465332R7    IVYCIC  005500360039
BI00B32R7    R-TAP210571    202112167116-1486-02             TERMINAL                 CCN000016500000016500FN00000000020220101000016500NNE   20211122122608    4P0P  00001650000000655100000940332R7    IVYCIC  006400630015
BI00B32R7    R-TAP210571    202112167116-1685-02             TERMINAL                 CCN000024000000024000FN00000000020220101000024000NNE   20211122122608    4P0P  00002400000000897600001065232R7    IVYCIC  005100280028
BI00B32R8    TT22031AMW     202201187116-6041                TERMINAL                 CCN000004500000004500FN00000000020220301000004500NNM   20211122122608    4P0P  00000450000000716000001009632R8    TTTJY   006400630015
BI00B32R8    TT22031AMW     202201187158-3006-90             RUBBER STOPPER           CCN000040000000040000FN00000000020220301000040000NNM   20211122122608    1C0C  00002000000000330600000386032R8    TTTJY   002700430014
BI00B32R8    TT22031AMW     202201187283-1140                CONNECTOR HOUSING        CCN000001500000001500FN00000000020220301000001500NNM   20211122122608    4N0N  00000150000000669000000932732R8    TTTJY   005600390040
BI00B32R8    TT22031AMW     202201187283-1156                CONNECTOR                CCN000000800000000800FN00000000020220301000000800NNM   20211122122608    4N0N  00000080000000877600001078032R8    TTTJY   005600390040
BI00B32R8    #TT22031AMW    202201187158-3003-90             RUBBER STOPPER           CCN000020000000020000FN00000000020220301000020000NNM   20211122122608    2C0C  00002000000000250000000306032R8    TTTJY   002700430014
BI00B32R8    #TT22031AMW    202201187189-3034-30             HOUSING FEMALE           CCN000001600000001600FN00000000020220301000001600NNM   20211122122608    2F0F  00000160000000972800001192832R8    TTTJY   005500360039
BI00B32R8    @TT22031AMW    202201187282-1064-30             CONNECTOR ASS'Y          CCN000000800000000800FN00000000020220301000000800NNM   20211122122608    3N0N  00000080000000907300001140132R8    TTTJY   005500360039
BI00A32U5    #DI1051        202111197172-5631-60             RUBBER STOPPER           CCN000220000000220000FY00022000020220201000000000NNM00020211122112128U5  2H0H  00002000000000042000000093132U5    AMAMSD  004300270014
BI00B32U5    DI2006         202201077116-4037                TERMINAL                 CCN000036000000036000FN00000000020220301000036000NNM   20211122122608U5  4P0P  00000600000000600000000894232U5    AMAMSD  006400630015
BI00B32U5    DI2006         202201077289-3342                HOUSING FEMALE ASS'Y     CCN000016800000016800FN00000000020220301000016800NNM   20211122122608U5  1N0N  00000240000000686400000901432U5    AMAMSD  005500360039
BI00B32U5    DI2006         202201077017-1180-02             TERMINAL                 CCN000216000000216000FN00000000020220301000216000NNM   20211122122608U5  4P0P  00007200000001065600001229032U5    AMAMSD  005100280028
BI00B32U5    DI2006         202201077017-1182-02             TERMINAL                 CCN000045000000045000FN00000000020220301000045000NNM   20211122122608U5  4P0P  00004500000001165500001318632U5    AMAMSD  005100280028
BI00B32U5    DI2006         202201077114-4624-02             TERMINAL                 CCN000072000000072000FN00000000020220301000072000NNM   20211122122608U5  4P0P  00002400000000895200001188832U5    AMAMSD  006400630015
BI00B32U5    DI2006         202201077116-1685-02             TERMINAL                 CCN000216000000216000FN00000000020220301000216000NNM   20211122122608U5  4P0P  00002400000000897600001065232U5    AMAMSD  005100280028
BI00B32U5    DI2006         202201077116-4486-02             TERMINAL                 CCN000168000000168000FN00000000020220301000168000NNM   20211122122608U5  4P0P  00002800000000666400000995132U5    AMAMSD  006400630017
BI00B32U5    DI2006         202201077116-5045-02             TERMINAL                 CCN000144000000144000FN00000000020220301000144000NNM   20211122122608U5  4P0P  00001600000000678400001007132U5    AMAMSD  006400630017
BI00B32U5    DI2006         202201077116-5046-02             TERMINAL                 CCN000084000000084000FN00000000020220301000084000NNM   20211122122608U5  4P0P  00001200000000544800000873532U5    AMAMSD  006400630017
BI00B32U5    DI2006         202201077158-3167-80             WIRE SEAL                CCN000020000000020000FN00000000020220301000020000NNM   20211122122608U5  1C0C  00002000000000048000000109032U5    AMAMSD  002700430014
BI00B32U5    DI2006         202201077158-3168-80             SEALED                   CCN000020000000020000FN00000000020220301000020000NNM   20211122122608U5  1C0C  00002000000000044000000092132U5    AMAMSD  004300260014
BI00B32U5    DI2006         202201077287-1915-40             CONNECTOR ASS'Y          CCN000002400000002400FN00000000020220301000002400NNM   20211122122608U5  4N0N  00000240000000666500000923132U5    AMAMSD  005500360039
BI00B32U5    DI2006         202201077288-3330-30             HOUSING MALE             CCN000004500000004500FN00000000020220301000004500NNM   20211122122608U5  4N0N  00000150000000866300001011232U5    AMAMSD  005400370024
BI00B32U5    DI2006         202201077288-3339-30             HOUSING MALE             CCN000001500000001500FN00000000020220301000001500NNM   20211122122608U5  4N0N  00000150000000867000001012032U5    AMAMSD  005400370024
BI00B32U5    DI2006         202201077289-3342-30             HOUSING FEMALE ASS'Y     CCN000028800000028800FN00000000020220301000028800NNM   20211122122608U5  1N0N  00000240000000686400000901432U5    AMAMSD  005500360039
BI00B32U5    DI2006         202201077388-2978-30             HOUSING MALE ASS'Y       CCN000005280000005280FN00000000020220301000005280NNM   20211122122608U5  1N0N  00000048000000742000001122032U5    AMAMSD  005500360039
BI00B32U5    DI2006         202201077327-6731-3W             BATTERY FUSE             CCN000001344000001344FN00000000020220301000001344NNM   20211122122608U5  4N0N  00000006400000697600000843032U5    AMAMSD  005400370024
BI00B32U5    DI2006         202201077C89-6868-30             SEALED ASSY FEMALE       CCN000012600000012600FN00000000020220301000012600NNM   20211122122608U5  4N0N  00000252000000839200001119232U5    AMAMSD  005500360039
BI00B32U5    #DI2006        202201077158-3017                RUBBER STOPPER           CCN000020000000020000FN00000000020220301000020000NNM   20211122122608U5  2C0C  00001000000000375500000435032U5    AMAMSD  002700430014
BI00B32U5    #DI2006        202201077287-7859                HYBRID FEMALE ASS'Y      CCN000001200000001200FN00000000020220301000001200NNM   20211122122608U5  2N0N  00000120000000461600000671632U5    AMAMSD  005500360039
BI00B32U5    #DI2006        202201077158-3003-90             RUBBER STOPPER           CCN000200000000200000FN00000000020220301000200000NNM   20211122122608U5  2C0C  00002000000000250000000306032U5    AMAMSD  002700430014
BI00B32U5    #DI2006        202201077158-3004-40             RUBBER STOPPER           CCN000020000000020000FN00000000020220301000020000NNM   20211122122608U5  2C0C  00002000000000234000000306332U5    AMAMSD  002700430014
BI00B32U5    #DI2006        202201077158-3008-80             RUBBER STOPPER           CCN000020000000020000FN00000000020220301000020000NNM   20211122122608U5  2C0C  00002000000000288000000343032U5    AMAMSD  004300270014
BI00B32U5    #DI2006        202201077172-5626-90             RUBBER STOPPER           CCN000280000000280000FN00000000020220301000280000NNM   20211122122608U5  2H0H  00002000000000076400000127832U5    AMAMSD  004300270014
BI00B32U5    #DI2006        202201077172-5627-60             RUBBER STOPPER           CCN000180000000180000FN00000000020220301000180000NNM   20211122122608U5  2H0H  00002000000000070400000121832U5    AMAMSD  004300270014
BI00B32U5    #DI2006        202201077172-5628-80             DUMMY PLUG               CCN000060000000060000FN00000000020220301000060000NNM   20211122122608U5  2H0H  00002000000000110600000162032U5    AMAMSD  004300270014
BI00B32U5    #DI2006        202201077172-5629-80             RUBBER STOPPER           CCN000200000000200000FN00000000020220301000200000NNM   20211122122608U5  2H0H  00002000000000060000000111132U5    AMAMSD  004300270014
BI00B32U5    #DI2006        202201077172-5630-40             RUBBER STOPPER           CCN000380000000380000FN00000000020220301000380000NNM   20211122122608U5  2H0H  00002000000000044000000095132U5    AMAMSD  004300270014
BI00B32U5    #DI2006        202201077172-5631-60             RUBBER STOPPER           CCN000140000000140000FN00000000020220301000140000NNM   20211122122608U5  2H0H  00002000000000042000000093132U5    AMAMSD  004300270014
BI00B32U5    #DI2006        202201077172-5632-10             DUMMY PLUG               CCN000220000000220000FN00000000020220301000220000NNM   20211122122608U5  2H0H  00002000000000080400000131832U5    AMAMSD  004300270014
BI00B32U5    #DI2006        202201077182-8253-40             HOUSING                  CCN000001200000001200FN00000000020220301000001200NNM   20211122122608U5  2F0F  00000120000000573000000864032U5    AMAMSD  005600390040
BI00B32U5    #DI2006        202201077189-2978-30             HOUSING FEMALE           CCN000004500000004500FN00000000020220301000004500NNM   20211122122608U5  2F0F  00000150000000966900001096932U5    AMAMSD  005400370024
BI00B32U5    #DI2006        202201077289-4200-30             HOUSING FEMALE ASS'Y     CCN000004000000004000FN00000000020220301000004000NNM   20211122122608U5  2N0N  00000200000000926000001021032U5    AMAMSD  005400370024
BI00B32U9    TP0377S        202112167158-3168-80             SEALED                   CCN000080000000080000FN00000000020220101000080000NNE   20211122122608U9  1C0C  00002000000000044000000092132U9    YNYNA-E 004300260014
BI00B32U9    TPA203         202112167116-2951-02             TERMINAL                 CCN000081000000081000FN00000000020220101000081000NNM   20211122122608U9  4P0P  00000540000000817600001111832U9    YNYNA-E 006400630015
BI00B32U9    TPA203         202112167116-4060-02             TERMINAL                 CCN000024000000024000FN00000000020220101000024000NNM   20211122122608U9  1P0P  00002400000000511200000984232U9    YNYNA-E 006400630017
BI00B32U9    TPA203         202112167158-3165-90             WIRE SEAL                CCN000360000000360000FN00000000020220101000360000NNM   20211122122608U9  1C0C  00004000000000124000000172432U9    YNYNA-E 004300270014
BI00B32U9    TPA203         202112167158-3167-80             WIRE SEAL                CCN000160000000160000FN00000000020220101000160000NNM   20211122122608U9  1C0C  00002000000000048000000109032U9    YNYNA-E 002700430014
BI00B32U9    TPA203         202112167158-3168-80             SEALED                   CCN000200000000200000FN00000000020220101000200000NNM   20211122122608U9  1C0C  00002000000000044000000092132U9    YNYNA-E 004300260014
BI00B32U9    TPA203         202112167158-3169-40             SEALING PLUG             CCN000280000000280000FN00000000020220101000280000NNM   20211122122608U9  1C0C  00004000000000156000000204132U9    YNYNA-E 004300260014
BI00B32U9    TPA203         202112167172-5540-80             SEALED WIRE SEAL         CCN000080000000080000FN00000000020220101000080000NNM   20211122122608U9  1C0C  00002000000000186000000234432U9    YNYNA-E 004300270014
BI00B32U9    TPA203         202112167196-0805-02             TERMINAL FEMALE          CCN000045000000045000FN00000000020220101000045000NNM   20211122122608U9  4P0P  00002250000000558000000843232U9    YNYNA-E 006400630015
BI00B32U9    TPA203         202112167222-6244-40             CONNECTOR                CCN000000800000000800FN00000000020220101000000800NNM   20211122122608U9  4N0N  00000080000001239200001422032U9    YNYNA-E 005600390040
BI00B32U9    TPA203         202112167282-5574-10             CONNECTOR                CCN000005600000005600FN00000000020220101000005600NNM   20211122122608U9  4N0N  00000080000001235000001423032U9    YNYNA-E 005600390040
BI00B32U9    TPA203         202112167283-5623-60             CONNECTOR                CCN000004800000004800FN00000000020220101000004800NNM   20211122122608U9  1N0N  00000160000001546000001846332U9    YNYNA-E 005600390040
BI00B32U9    TPA203         202112167283-8599-30             CONNECTOR                CCN000001540000001540FN00000000020220101000001540NNM   20211122122608U9  4N0N  00000154000000947100001157032U9    YNYNA-E 005600390023
BI00B32U9    TPA203         202112167283-9458-30             CONNECTOR                CCN000000800000000800FN00000000020220101000000800NNM   20211122122608U9  4N0N  00000020000000792000000984332U9    YNYNA-E 005600390023
BI00B32U9    TPA203         202112167289-6868-30             SEALED ASSY FEMALE       CCN000020160000020160FN00000000020220101000020160NNM   20211122122608U9  4N0N  00000252000000839200001119232U9    YNYNA-E 005500360039
BI00B32U9    TPA203         202112167289-7615-30             HOUSING FEMALE ASS'Y     CCN000003200000003200FN00000000020220101000003200NNM   20211122122608U9  4N0N  00000032000000738000000948032U9    YNYNA-E 005400370024
BI00B32U9    TPA203         202112167298-1186-40             SQUIB SUB ASS'Y          CCN000010000000010000FN00000000020220101000010000NNM   20211122122608U9  4N0N  00001000000000650000000774532U9    YNYNA-E 005400370024
BI00B32U9    TPA203         202112167298-1187-30             SHUNT RING ASSEMBLY      CCN000010000000010000FN00000000020220101000010000NNM   20211122122608U9  4N0N  00001000000000647000000769532U9    YNYNA-E 005400370024
BI00B32U9    TPA203         202112167283-9457-3W             CONNECTOR                CCN000000120000000120FN00000000020220101000000120NNM   20211122122608U9  4N0N  00000012000000515000001067032U9    YNYNA-E 005600390023
BI00B32U9    TPA203         202112167B58-3070-80             RUBBER STOPPER           CCN000120000000120000FN00000000020220101000120000NNM   20211122122608U9  1C0C  00004000000000276000000333032U9    YNYNA-E 004300270014
BI00B32U9    #TPA203        202112167147-9094                RETAINER                 CCN000003000000003000FN00000000020220101000003000NNM   20211122122608U9  2F0F  00000300000000717000000872932U9    YNYNA-E 005500360039
BI00B32U9    #TPA203        202112167047-1611-30             CLIP                     CCN000002000000002000FN00000000020220101000002000NNM   20211122122608U9  2F0F  00000200000001600000001739032U9    YNYNA-E 005600390040
BI00B32U9    #TPA203        202112167158-3376-50             CONNECTOR WIRE SEAL      CCN000220000000220000FN00000000020220101000220000NNM   20211122122608U9  2C0C  00002000000000184000000240732U9    YNYNA-E 002700430014
BI00B32U9    #TPA203        202112167282-6446-40             CONNECTOR                CCN000010500000010500FN00000000020220101000010500NNM   20211122122608U9  2N0N  00000150000001185000001368032U9    YNYNA-E 005500360039
BI00B32U9    #TPA203        202112167282-8395-40             CONNECTOR                CCN000022000000022000FN00000000020220101000022000NNM   20211122122608U9  2N0N  00000100000001009000001188032U9    YNYNA-E 005500360039
BI00B32U9    #TPA203        202112167283-8397-40             CONNECTOR                CCN000003080000003080FN00000000020220101000003080NNM   20211122122608U9  2N0N  00000154000001007000001222732U9    YNYNA-E 005600390023
BI00B32W2    HN2112AWMW     202112077116-4037                TERMINAL                 CCN000006000000006000FN00000000020211201000006000NNED0720211122122608    4P0P  00000600000000600000000894232W2    HNHNY   006400630015
BI00B32W2    HN2112AWMW     202112077116-4415-02             TERMINAL                 CCN000038000000038000FN00000000020211201000038000NNED0720211122122608    4P0P  00003800000000596600000925732W2    HNHNY   006400630017
BI00B32W2    HN2112AWMW     202112077158-3167-80             WIRE SEAL                CCN000020000000020000FN00000000020211201000020000NNED0720211122122608    1C0C  00002000000000048000000109032W2    HNHNY   002700430014
BI00B32W2    #HN2112ENMW    202112077158-3121-80             WIRE SEAL                CCN000020000000020000FN00000000020211201000020000NNED0720211122122608    2C0C  00002000000000118000000187332W2    HNHNY   002700430014
BI00B32W2    #HN2112ENMW    202112077183-2413                CONNECTOR HOUSING        CCN000004800000004800FN00000000020211201000004800NNED0720211122122608    2F0F  00000480000000478100000760032W2    HNHNY   005500360039
BI00B32W4    4500184172     202204217288-6547                CONNECTOR MALE ASS'Y     CCN000000750000000750FN00000000020220101000000750NNED0420211122122608W4D44N0N  00000075000001205300001340332W4D4  HJYHK-J 005400370024
BI00B32W4    4500184172     202201137289-3342                HOUSING FEMALE ASS'Y     CCN000002400000002400FN00000000020220101000002400NNED0420211122122608W4D41N0N  00000240000000686400000901432W4D4  HJYHK-J 005500360039
BI00B32W4    4500184172     202201207289-3342-90             HOUSING FEMALE ASS'Y     CCN000002400000002400FN00000000020220101000002400NNED0420211122122608W4D41N0N  00000240000000686400000901432W4D4  HJYHK-J 005500360039
BI00B32W4    4500184172     202201277289-3342-30             HOUSING FEMALE ASS'Y     CCN000009600000009600FN00000000020220101000009600NNED0420211122122608W4D41N0N  00000240000000686400000901432W4D4  HJYHK-J 005500360039
BI00A32W4    4500184382     202111267116-4110-02             TERMINAL                 CCN000009000000009000FN00000000020211101000009000NNE   20211122190208W4174P0P  00000900000000594000000882232W417  HJYHK   006400630015
BI00B32W4    #4500184354    202112097157-7811-80             SEAL RUBBER              CCN000010000000010000FN00000000020211201000010000NNE   20211122122608W42 2C0C  00001000000000105000000182732W42   HJYHK   002700430014
BI00B32W4    #4500184354    202112097157-7812                SEAL RUBBER              CCN000020000000020000FN00000000020211201000020000NNE   20211122122608W42 2C0C  00001000000000137000000202032W42   HJYHK   002700430014
BI00B32W4    4500184339     202201137116-4122-02             TERMINAL                 CCN000004500000004500FN00000000020220101000004500NNE   20211122122608W46 4P0P  00000450000000656600000950232W46   HJYHK   006400630015
BI00A32W4    4500184348     202201277126-8855-02             TERMINAL                 CCN000006000000006000FN00000000020220101000006000NNE   20211122122608W4804P0P  00000600000000510600000795832W480  HJYHK-J 006400630015
BI00A32W4    #4500184348    202201277047-5344                RETAINER                 CCN000010000000010000FN00000000020220101000010000NNE   20211122122608W4802F0F  00001000000000870000001016032W480  HJYHK-J 005600390023
BI00B32W4    4500184350     202201067158-3166-60             WIRE SEAL                CCN000040000000040000FN00000000020220101000040000NNE   20211122122608W41 1C0C  00004000000000104000000152432W41   HJYHK   002700430014
BI00B32W6    SW21122QMW     202111257114-5748-02             TERMINAL                 CCN000072000000072000FN00000000020211201000072000NNM00020211122122608    4P0P  00001200000000444000000737632W6    SYSYA-WJ006400630015
BI00B32W6    SW21122QMW     202111257116-5045-02             TERMINAL                 CCN000048000000048000FN00000000020211201000048000NNM00020211122122608    4P0P  00001600000000678400001007132W6    SYSYA-WJ006400630017
BI00B32W6    SW21122QMW     202111257116-5750-02             TERMINAL                 CCN000045000000045000FN00000000020211201000045000NNM00020211122122608    4P0P  00001500000000457500000742732W6    SYSYA-WJ006400630015
BI00B32W6    SW21122QMW     202111257126-8853-02             TERMINAL                 CCN000067500000067500FN00000000020211201000067500NNM00020211122122608    4P0P  00000750000000562500000847732W6    SYSYA-WJ006400630015
BI00B32W6    SW21122QMW     202111257158-3006-90             RUBBER STOPPER           CCN000020000000020000FN00000000020211201000020000NNM00020211122122608    1C0C  00002000000000330600000386032W6    SYSYA-WJ002700430014
BI00B32W6    SW21122QMW     202111257158-3009-60             RUBBER STOPPER           CCN000080000000080000FN00000000020211201000080000NNM00020211122122608    1C0C  00002000000000338000000386232W6    SYSYA-WJ002700430014
BI00B32W6    SW21122QMW     202111247283-4855                CONNECTOR HOUSING        CCN000007200000007200FN00000000020211201000007200NNM00020211122122608    4N0N  00000240000001188400001400032W6    SYSYA-WJ005500360039
BI00B32W6    SW21122QMW     202111257288-6547                CONNECTOR MALE ASS'Y     CCN000006750000006750FN00000000020211201000006750NNM00020211122122608    4N0N  00000075000001205300001340332W6    SYSYA-WJ005400370024
BI00B32W6    SW21122QMW     202111257289-3342                HOUSING FEMALE ASS'Y     CCN000019200000019200FN00000000020211201000019200NNM00020211122122608    1N0N  00000240000000686400000901432W6    SYSYA-WJ005500360039
BI00B32W6    SW21122QMW     202111257289-3342-30             HOUSING FEMALE ASS'Y     CCN000019200000019200FN00000000020211201000019200NNM00020211122122608    1N0N  00000240000000686400000901432W6    SYSYA-WJ005500360039
BI00B32W6    SW21122QMW     202111257289-3342-90             HOUSING FEMALE ASS'Y     CCN000004800000004800FN00000000020211201000004800NNM00020211122122608    1N0N  00000240000000686400000901432W6    SYSYA-WJ005500360039
BI00B32W6    SW21122QMW     202111257289-6547                HOUSING FEMALE ASS'Y     CCN000007200000007200FN00000000020211201000007200NNM00020211122122608    1N0N  00000240000001152000001362032W6    SYSYA-WJ005500360039
BI00B32W6    SW21122QMW     202111257327-6870-30             MULTI FUSE               CCN000006912000006912FN00000000020211201000006912NNM00020211122122608    4N0N  00000028800001015200001181132W6    SYSYA-WJ005400370024
BI00B32W6    SW21122QMW     202111257327-6874-30             MULTI FUSE               CCN000006912000006912FN00000000020211201000006912NNM00020211122122608    4N0N  00000028800000991400001157332W6    SYSYA-WJ005400370024
BI00B32W6    SW21122QMW     202111257327-6880-30             MULTI FUSE               CCN000006912000006912FN00000000020211201000006912NNM00020211122122608    4N0N  00000028800001012600001178532W6    SYSYA-WJ005400370024
BI00B32W6    SW21122QMW     202111257327-6884-30             MULTI FUSE               CCN000006912000006912FN00000000020211201000006912NNM00020211122122608    4N0N  00000028800000988900001154832W6    SYSYA-WJ005400370024
BI00B32W6    SW2112AQMW     202111257288-3331-30             HOUSING MALE             CCN000001500000001500FN00000000020211201000001500NNE00020211122122608    4N0N  00000150000000866000001010932W6    SYSYA-WJ005400370024
BI00B32W6    SW2112AQMW     202111257288-3333-30             HOUSING MALE             CCN000001500000001500FN00000000020211201000001500NNE00020211122122608    4N0N  00000150000000867000001012032W6    SYSYA-WJ005400370024
BI00B32W6    SW2112BQMW     202112017196-1940-02             TERMINAL FEMALE          CCN000013500000000000FY00000000020211201000000000NNEQ0820211122130631    4P0P  00001350000000529200000817432W6    SYSYA-WJ006400630015
BI00B32W6    SW2112BQMW     202112017196-1941-02             TERMINAL FEMALE          CCN000011400000000000FY00000000020211201000000000NNEQ0820211122130727    4P0P  00001140000000506200000794432W6    SYSYA-WJ006400630015
BI00B32W7    SC21122JMW     202111257126-8853-02             TERMINAL                 CCN000198000000202500FN00000000020211201000202500NNM00020211122122608    4P0P  00000750000000562500000847732W7    SYSYA-CH006400630015
BI00B32W9    #4500179561    202111107157-7812                SEAL RUBBER              CCN000500000000300000FN00000000020210901000300000NNE00020211122131017W9  2C0C  00001000000000137000000202032W9    HKYHK   002700430014
BI00A32W9    #4500179561    202111247157-7812                SEAL RUBBER              PCN000200000000200000FN00000000020210901000200000NNE00020211122135016W9  2C0C  00001000000000137000000202032W9    HKYHK   002700430014
BI00B32X5    TIB1045A       202111267196-1104-02             TERMINAL                 CCN000090000000090000FN00000000020211201000090000NNE00020211122154503X5  4P0P  00002250000000441000000726232X5    EPYNA-E 006400630015
BI00B32X5    TIB1049        202111267196-1104-02             TERMINAL                 CCN000135000000135000FN00000000020220101000135000NNM00020211122154604X5  4P0P  00002250000000441000000726232X5    EPYNA-E 006400630015
BI00B32X5    TIB2006        202201077116-4037                TERMINAL                 CCN000030000000030000FN00000000020220301000030000NNM   20211122122608X5  4P0P  00000600000000600000000894232X5    EPYNA-E 006400630015
BI00B32X5    TIB2006        202201077287-8072                HOUSING FEMALE ASS'Y     CCN000002400000002400FN00000000020220301000002400NNM   20211122122608X5  1N0N  00000240000001221600001441632X5    EPYNA-E 005500360039
BI00B32X5    TIB2006        202201077288-6547                CONNECTOR MALE ASS'Y     CCN000021750000021750FN00000000020220301000021750NNM   20211122122608X5  4N0N  00000075000001205300001340332X5    EPYNA-E 005400370024
BI00B32X5    TIB2006        202201077289-6547                HOUSING FEMALE ASS'Y     CCN000024000000024000FN00000000020220301000024000NNM   20211122122608X5  1N0N  00000240000001152000001362032X5    EPYNA-E 005500360039
BI00B32X5    TIB2006        202201077017-1180-02             TERMINAL                 CCN000432000000432000FN00000000020220301000432000NNM   20211122122608X5  4P0P  00007200000001065600001229032X5    EPYNA-E 005100280028
BI00B32X5    TIB2006        202201077114-4486-02             TERMINAL                 CCN000048000000048000FN00000000020220301000048000NNM   20211122122608X5  4P0P  00002400000000662400000956032X5    EPYNA-E 006400630015
BI00B32X5    TIB2006        202201077116-1257-02             TERMINAL                 CCN000024000000024000FN00000000020220301000024000NNM   20211122122608X5  1P0P  00002400000000518400000847132X5    EPYNA-E 006400630017
BI00B32X5    TIB2006        202201077116-1685-02             TERMINAL                 CCN000072000000072000FN00000000020220301000072000NNM   20211122122608X5  4P0P  00002400000000897600001065232X5    EPYNA-E 005100280028
BI00B32X5    TIB2006        202201077116-4486-02             TERMINAL                 CCN000112000000112000FN00000000020220301000112000NNM   20211122122608X5  4P0P  00002800000000666400000995132X5    EPYNA-E 006400630017
BI00B32X5    TIB2006        202201077116-5045-02             TERMINAL                 CCN000192000000192000FN00000000020220301000192000NNM   20211122122608X5  4P0P  00001600000000678400001007132X5    EPYNA-E 006400630017
BI00B32X5    TIB2006        202201077116-5046-02             TERMINAL                 CCN000072000000072000FN00000000020220301000072000NNM   20211122122608X5  4P0P  00001200000000544800000873532X5    EPYNA-E 006400630017
BI00B32X5    TIB2006        202201077137-3047-30             UNIT PACKING             CCN000010000000010000FN00000000020220301000010000NNM   20211122122608X5  1C0C  00000100000000170500000218932X5    EPYNA-E 002700430014
BI00B32X5    TIB2006        202201077172-5402-30             SEAL RUBBER              CCN000024000000024000FN00000000020220301000024000NNM   20211122122608X5  1C0C  00000800000000457600000506032X5    EPYNA-E 004300270014
BI00B32X5    TIB2006        202201077172-5403-30             SEALED PACKING           CCN000020000000020000FN00000000020220301000020000NNM   20211122122608X5  1C0C  00000400000000653600000701732X5    EPYNA-E 004300270014
BI00B32X5    TIB2006        202201077173-3291-40             LIF LEVER                CCN000002400000002400FN00000000020220301000002400NNM   20211122122608X5  1F0F  00000240000000867800001067832X5    EPYNA-E 005500360039
BI00B32X5    TIB2006        202201077196-0396-02             TERMINAL                 CCN000015000000015000FN00000000020220301000015000NNM   20211122122608X5  4P0P  00001500000000949500001112932X5    EPYNA-E 002800510028
BI00B32X5    TIB2006        202201077196-1104-02             TERMINAL                 CCN000180000000180000FN00000000020220301000180000NNM   20211122122608X5  4P0P  00002250000000441000000726232X5    EPYNA-E 006400630015
BI00B32X5    TIB2006        202201077196-1325-02             TERMINAL FEMALE          CCN000300000000300000FN00000000020220301000300000NNM   20211122122608X5  4P0P  00006000000000450000000778732X5    EPYNA-E 006400630017
BI00B32X5    TIB2006        202201077196-1326-02             TERMINAL FEMALE          CCN000360000000360000FN00000000020220301000360000NNM   20211122122608X5  4P0P  00006000000000456000000784732X5    EPYNA-E 006400630017
BI00B32X5    TIB2006        202201077282-4576-90             HOUSING MALE ASS'Y       CCN000002400000002400FN00000000020220301000002400NNM   20211122122608X5  4N0N  00000240000000808800001028832X5    EPYNA-E 005500360039
BI00B32X5    TIB2006        202201077282-5574-10             CONNECTOR                CCN000003200000003200FN00000000020220301000003200NNM   20211122122608X5  4N0N  00000080000001235000001423032X5    EPYNA-E 005600390040
BI00B32X5    TIB2006        202201077283-4855-40             CONNECTOR HOUSING        CCN000002400000002400FN00000000020220301000002400NNM   20211122122608X5  4N0N  00000240000001188400001400032X5    EPYNA-E 005600360039
BI00B32X5    TIB2006        202201077283-6568-40             CONNECTOR                CCN000002000000002000FN00000000020220301000002000NNM   20211122122608X5  4N0N  00000200000001090000001263032X5    EPYNA-E 005500360039
BI00B32X5    TIB2006        202201077289-3342-30             HOUSING FEMALE ASS'Y     CCN000093600000093600FN00000000020220301000093600NNM   20211122122608X5  1N0N  00000240000000686400000901432X5    EPYNA-E 005500360039
BI00B32X5    TIB2006        202201077289-5979-30             HOUSING FEMALE ASS'Y     CCN000002772000002772FN00000000020220301000002772NNM   20211122122608X5  1N0N  00000025200000854700001064732X5    EPYNA-E 005400370024
BI00B32X5    TIB2006        202201077289-6518-30             HOUSING FEMALE ASS'Y     CCN000002400000002400FN00000000020220301000002400NNM   20211122122608X5  1N0N  00000120000000829200001049232X5    EPYNA-E 005500360039
BI00B32X5    TIB2006        202201077295-0785-02             TERMINAL ALUMINIUM       CCN000051000000051000FN00000000020220301000051000NNM   20211122122608X5  4P0P  00002550000000510000000803632X5    EPYNA-E 006400630015
BI00B32X5    TIB2006        202201077296-0784-02             TERMINAL ALUMINIUM       CCN000072000000072000FN00000000020220301000072000NNM   20211122122608X5  4P0P  00002400000000480000000765232X5    EPYNA-E 006400630015
BI00B32X5    TIB2006        202201077327-6731-3W             BATTERY FUSE             CCN000001664000001664FN00000000020220301000001664NNM   20211122122608X5  4N0N  00000006400000697600000843032X5    EPYNA-E 005400370024
BI00B32X5    #TIB2006       202201077158-3017                RUBBER STOPPER           CCN000020000000020000FN00000000020220301000020000NNM   20211122122608X5  2C0C  00001000000000375500000435032X5    EPYNA-E 002700430014
BI00B32X5    #TIB2006       202201077189-3033                HOUSING FEMALE           CCN000003200000003200FN00000000020220301000003200NNM   20211122122608X5  2F0F  00000160000001211200001431232X5    EPYNA-E 005500360039
BI00B32X5    #TIB2006       202201077287-7859                HYBRID FEMALE ASS'Y      CCN000010800000010800FN00000000020220301000010800NNM   20211122122608X5  2N0N  00000120000000461600000671632X5    EPYNA-E 005500360039
BI00B32X5    #TIB2006       202201077287-9155                HOUSING FEMALE ASS'Y     CCN000005760000005760FN00000000020220301000005760NNM   20211122122608X5  2N0N  00000096000000853700001045232X5    EPYNA-E 005400370024
BI00B32X5    #TIB2006       202201077158-3003-90             RUBBER STOPPER           CCN000160000000160000FN00000000020220301000160000NNM   20211122122608X5  2C0C  00002000000000250000000306032X5    EPYNA-E 002700430014
BI00B32X5    #TIB2006       202201077158-3004-40             RUBBER STOPPER           CCN000140000000140000FN00000000020220301000140000NNM   20211122122608X5  2C0C  00002000000000234000000306332X5    EPYNA-E 002700430014
BI00B32X5    #TIB2006       202201077158-3005-80             RUBBER STOPPER           CCN000040000000040000FN00000000020220301000040000NNM   20211122122608X5  2H0H  00002000000000210000000268732X5    EPYNA-E 002700430014
BI00B32X5    #TIB2006       202201077158-3007-10             RUBBER STOPPER           CCN000200000000200000FN00000000020220301000200000NNM   20211122122608X5  2H0H  00002000000000308000000362732X5    EPYNA-E 002700430014
BI00B32X5    #TIB2006       202201077158-3008-80             RUBBER STOPPER           CCN000040000000040000FN00000000020220301000040000NNM   20211122122608X5  2C0C  00002000000000288000000343032X5    EPYNA-E 004300270014
BI00B32X5    #TIB2006       202201077158-3610-80             RUBBER STOPPER           CCN000003000000003000FN00000000020220301000003000NNM   20211122122608X5  2H0H  00000300000000396900000438932X5    EPYNA-E 004300270014
BI00B32X5    #TIB2006       202201077172-5626-90             RUBBER STOPPER           CCN000040000000040000FN00000000020220301000040000NNM   20211122122608X5  2H0H  00002000000000076400000127832X5    EPYNA-E 004300270014
BI00B32X5    #TIB2006       202201077172-5627-60             RUBBER STOPPER           CCN000020000000020000FN00000000020220301000020000NNM   20211122122608X5  2H0H  00002000000000070400000121832X5    EPYNA-E 004300270014
BI00B32X5    #TIB2006       202201077172-5629-80             RUBBER STOPPER           CCN000420000000420000FN00000000020220301000420000NNM   20211122122608X5  2H0H  00002000000000060000000111132X5    EPYNA-E 004300270014
BI00B32X5    #TIB2006       202201077172-5630-40             RUBBER STOPPER           CCN000240000000240000FN00000000020220301000240000NNM   20211122122608X5  2H0H  00002000000000044000000095132X5    EPYNA-E 004300270014
BI00B32X5    #TIB2006       202201077172-5631-60             RUBBER STOPPER           CCN000060000000060000FN00000000020220301000060000NNM   20211122122608X5  2H0H  00002000000000042000000093132X5    EPYNA-E 004300270014
BI00B32X5    #TIB2006       202201077172-5632-10             DUMMY PLUG               CCN000160000000160000FN00000000020220301000160000NNM   20211122122608X5  2H0H  00002000000000080400000131832X5    EPYNA-E 004300270014
BI00B32X5    #TIB2006       202201077173-3225-10             LIF LEVER                CCN000002400000002400FN00000000020220301000002400NNM   20211122122608X5  2F0F  00000080000000592000000712032X5    EPYNA-E 005500360039
BI00B32X5    #TIB2006       202201077183-8253-40             HOUSING                  CCN000007200000007200FN00000000020220301000007200NNM   20211122122608X5  2F0F  00000240000000528000000805032X5    EPYNA-E 005500360039
BI00B32X5    #TIB2006       202201077189-2978-30             HOUSING FEMALE           CCN000009000000009000FN00000000020220301000009000NNM   20211122122608X5  2F0F  00000150000000966900001096932X5    EPYNA-E 005400370024
BI00B32X5    #TIB2006       202201077189-3034-30             HOUSING FEMALE           CCN000001600000001600FN00000000020220301000001600NNM   20211122122608X5  2F0F  00000160000000972800001192832X5    EPYNA-E 005500360039
BI00B32X5    @TIB2006       202201077286-4098                CONNECTOR MALE ASS'Y     CCN000028800000028800FN00000000020220301000028800NNM   20211122122608X5  3N0N  00000160000000949100001163032X5    EPYNA-E 005500360039
BI00B32Y2    TAU1153        202112237288-3206                HOUSING MALE ASS'Y       CCN000012240000012240FN00000000020220401000012240NNED0420211122122608    1N0N  00000102000000387600000787632Y2    YUYUY   005500360039
BI00B32Y6    STAP31121      202111197158-3166-60             WIRE SEAL                CCN000280000000280000FY00028000020211001000000000NNM00020211122113755    1C0C  00004000000000104000000152432Y6    BSYBL-S 002700430014
BI00B32Y6    STAP32011      202111197287-3885-40             HYBRID FEMALE ASS'Y      CCN000004800000004800FY00000480020211101000000000NNM00020211122114010    1N0N  00000240000001029600001249632Y6    BSYBL-S 005500360039
BI00B32Y6    STAP32011      202111197388-2978-30             HOUSING MALE ASS'Y       CCN000022560000022560FY00002256020211101000000000NNM00020211122114027    1N0N  00000048000000742000001122032Y6    BSYBL-S 005500360039
BI00B32Y6    STAP32021      202111197B72-5540-80             SEALED WIRE SEAL         CCN000040000000040000FY00004000020220101000000000NNM00020211122114305    1C0C  00002000000000186000000234432Y6    BSYBL-S 004300270014
BI00B32Y6    STAP32021      202111197B74-1849-70             COVER                    CCN000025000000025000FY00002500020220101000000000NNM00020211122114305    1F0F  00002500000000622500000761932Y6    BSYBL-S 005400370024
BI00B32Y6    STAP32021      202111197158-3022-80             RUBBER STOPPER           CCN000005000000005000FY00000500020220101000000000NNM00020211122114305    1C0C  00000500000000467500000524032Y6    BSYBL-S 002700430014
BI00B32Y6    STAP32021      202111197158-3165-90             WIRE SEAL                CCN000120000000120000FY00012000020220101000000000NNM00020211122114305    1C0C  00004000000000124000000172432Y6    BSYBL-S 004300270014
BI00B32Y6    STAP32021      202111197158-3166-60             WIRE SEAL                CCN000160000000160000FY00016000020220101000000000NNM00020211122114305    1C0C  00004000000000104000000152432Y6    BSYBL-S 002700430014
BI00B32Y6    STAP32021      202111197158-3169-40             SEALING PLUG             CCN000040000000040000FY00004000020220101000000000NNM00020211122114305    1C0C  00004000000000156000000204132Y6    BSYBL-S 004300260014
BI00B32Y6    STAP32021      202111197287-3885-40             HYBRID FEMALE ASS'Y      CCN000004800000004800FY00000480020220101000000000NNM00020211122114305    1N0N  00000240000001029600001249632Y6    BSYBL-S 005500360039
BI00B32Y6    STAP32021      202111197289-3342                HOUSING FEMALE ASS'Y     CCN000021600000021600FY00002160020220101000000000NNM00020211122114327    1N0N  00000240000000686400000901432Y6    BSYBL-S 005500360039
BI00B32Y6    STAP32021      202111197388-2978-30             HOUSING MALE ASS'Y       CCN000023040000023040FY00002304020220101000000000NNM00020211122114305    1N0N  00000048000000742000001122032Y6    BSYBL-S 005500360039
BI00A32Y8    TAIM21112      202201057370-0310                J/B ASS'Y                CCN000000430000000430FN00000000020220401000000430NNED0420211122122608Y8  1J0J  00000001000000559000000809032Y8    CLYCL   005500360039
