BI00B32DG    @RH1121        20211223181E48031ZZ              CAVSAS-S 0.3X2 GY        CCN000003150000001400FN00000000020211201000001400NNM20 20211217142142    1W    00000035000001998600000000032DG    BFSAIBF 000000000000GX41A001
BI00B32DG    @RH1121        20211223181E48048ZZ              CAVSAS-S 0.3X2 GY/O      CCN000007700000003850FN00000000020211201000003850NNM20 20211217142309    1W    00000035000001998600000000032DG    BFSAIBF 000000000000GX41A002
BI00B32DG    @RH1121        20211223181E50016ZZ              AVSSCS-S 0.5FX2 DGY/R    CCN000003000000001500FN00000000020211201000001500NNM20 20211217142522    1W    00000030000002072000000000032DG    BFSAIBF 000000000000GX41A003
BI00B32DG    @RH1121        20211223181E50011ZZ              AVSSCS-S 0.5FX2 DGY/Y    CCN000006900000003600FN00000000020211201000003600NNM20 20211217142424    1W    00000030000002072000000000032DG    BFSAIBF 000000000000GX41A004
BI00A32DG    @RH1121        20211220181E48031ZZ              CAVSAS-S 0.3X2 GY        PCN000001750000001750FN00000000020211201000001750NNM21 20211217151945    1W    00000035000001998600000000032DG    BFSAIBF 000000000000GX41A001
BI00A32DG    @RH1121        20211220181E48048ZZ              CAVSAS-S 0.3X2 GY/O      PCN000003850000003850FN00000000020211201000003850NNM21 20211217151945    1W    00000035000001998600000000032DG    BFSAIBF 000000000000GX41A002
BI00A32DG    @RH1121        20211220181E50011ZZ              AVSSCS-S 0.5FX2 DGY/Y    PCN000003300000003300FN00000000020211201000003300NNM21 20211217151945    1W    00000030000002072000000000032DG    BFSAIBF 000000000000GX41A004
BI00A32DG    @RH1121        20211220181E50016ZZ              AVSSCS-S 0.5FX2 DGY/R    PCN000001500000001500FN00000000020211201000001500NNM21 20211217151945    1W    00000030000002072000000000032DG    BFSAIBF 000000000000GX41A003
BI00B32H8    2202A MW       2022011418007703930              AVSS 0.5F B              CCN000003000000003000FN00000000020220201000003000NNE   20211217102401    1W    00000150000000674000000000032H8    TYTYC   000000000000LO41C002
BI00B32H8    2202A MW       2022011418007703935              AVSS 0.5F B/R            CCN000001500000001500FN00000000020220201000001500NNE   20211217102401    1W    00000150000000674000000000032H8    TYTYC   000000000000LO41C004
BI00B32H8    2202A MW       2022011418007703937              AVSS 0.5F B/Y            CCN000006000000006000FN00000000020220201000006000NNE   20211217102401    1W    00000150000000674000000000032H8    TYTYC   000000000000LO41C005
BI00B32H8    2202A MW       2022011418007703939              AVSS 0.5F B/L            CCN000001500000001500FN00000000020220201000001500NNE   20211217102401    1W    00000150000000674000000000032H8    TYTYC   000000000000LO41C003
BI00B32H8    2202A MW       2022011418007703943              AVSS 0.5F W/B            CCN000001500000001500FN00000000020220201000001500NNE   20211217102401    1W    00000150000000674000000000032H8    TYTYC   000000000000LO41C010
BI00B32H8    2202A MW       2022011418007703946              AVSS 0.5F W/G            CCN000001500000001500FN00000000020220201000001500NNE   20211217102401    1W    00000150000000674000000000032H8    TYTYC   000000000000LO41C011
BI00B32H8    2202A MW       2022011418007703949              AVSS 0.5F W/L            CCN000003000000003000FN00000000020220201000003000NNE   20211217102401    1W    00000150000000674000000000032H8    TYTYC   000000000000LO41C012
BI00B32H8    2202A MW       2022011418007703960              AVSS 0.5F G              CCN000003000000003000FN00000000020220201000003000NNE   20211217102401    1W    00000150000000674000000000032H8    TYTYC   000000000000LO41C006
BI00B32H8    2202A MW       2022011418007703964              AVSS 0.5F G/W            CCN000003000000003000FN00000000020220201000003000NNE   20211217102401    1W    00000150000000674000000000032H8    TYTYC   000000000000LO41C007
BI00B32H8    2202A MW       2022011418007703970              AVSS 0.5F Y              CCN000003000000003000FN00000000020220201000003000NNE   20211217102401    1W    00000150000000674000000000032H8    TYTYC   000000000000LO41C013
BI00B32H8    2202A MW       2022011418007703973              AVSS 0.5F Y/B            CCN000003000000003000FN00000000020220201000003000NNE   20211217102401    1W    00000150000000674000000000032H8    TYTYC   000000000000LO41C014
BI00B32H8    2202A MW       2022011418007703975              AVSS 0.5F Y/R            CCN000003000000003000FN00000000020220201000003000NNE   20211217102401    1W    00000150000000674000000000032H8    TYTYC   000000000000LO41C015
BI00B32H8    2202A MW       2022011418007703990              AVSS 0.5F L              CCN000001500000001500FN00000000020220201000001500NNE   20211217102401    1W    00000150000000674000000000032H8    TYTYC   000000000000LO41C008
BI00B32H8    2202A MW       2022011418007703994              AVSS 0.5F L/W            CCN000001500000001500FN00000000020220201000001500NNE   20211217102401    1W    00000150000000674000000000032H8    TYTYC   000000000000LO41C009
BI00B32H8    2202A MW       2022011418007704037              AVSS 0.75F B/Y           CCN000009000000009000FN00000000020220201000009000NNE   20211217102401    1W    00000100000000943000000000032H8    TYTYC   000000000000LO41C016
BI00B32H8    2202A MW       2022011418007704060              AVSS 0.75F G             CCN000003000000003000FN00000000020220201000003000NNE   20211217102401    1W    00000100000000943000000000032H8    TYTYC   000000000000LO41C017
BI00B32H8    2202A MW       2022011418007704063              AVSS 0.75F G/B           CCN000001000000001000FN00000000020220201000001000NNE   20211217102401    1W    00000100000000943000000000032H8    TYTYC   000000000000LO41C018
BI00B32H8    @2202A MW      20220114181B32102S1              AVSSCS 0.5FX2 DGY        CCN000006000000006000FN00000000020220201000006000NNE   20211217102358    1W    00000030000002779000000000032H8    TYTYC   000000000000LO41C001
BI00B32H8    @2202AIMW      20220114181B32037Y5              AVSSCS 0.3FX1 DGY/W      CCN000003000000003000FN00000000020220201000003000NNE   20211217102359    1W    00000050000001780000000000032H8    TYTYC   000000000000LP41C001
BI00B32H8    @2202AIMW      20220114181B32039Y5              AVSSCS 0.5FX1 DGY/W      CCN000002400000002400FN00000000020220201000002400NNE   20211217102359    1W    00000040000002262000000000032H8    TYTYC   000000000000LP41C003
BI00B32H8    @2202AIMW      20220114181B32039Y6              AVSSCS 0.5FX1 DGY/G      CCN000001200000001200FN00000000020220201000001200NNE   20211217102359    1W    00000040000002262000000000032H8    TYTYC   000000000000LP41C002
BI00B32H8    2202BKMW       2022011418007704052              AVSS 0.75F P             CCN000001000000001000FN00000000020220201000001000NNE   20211217102402    1W    00000100000000943000000000032H8    TYTYC   000000000000LR41C002
BI00B32H8    @2202BKMW      20220114181B32039Y8              AVSSCS 0.5FX1 DGY/R      CCN000000400000000400FN00000000020220201000000400NNE   20211217102400    1W    00000040000002262000000000032H8    TYTYC   000000000000LR41C001
BI00B32N2    2152103721     2022010518007703941              AVSS 0.5F GY             CCN000001500000001500FN00000000020220101000001500NNE   20211217102626    1W    00000150000000674000000000032N2    YWYIPLTC000000000000KU31C001
BI00B32N2    2152103721     2022010518007703975              AVSS 0.5F Y/R            CCN000001500000001500FN00000000020220101000001500NNE   20211217102626    1W    00000150000000674000000000032N2    YWYIPLTC000000000000KU31C002
BI00B32N2    2152103721     2022010518007704184              AVSS 1.25F BR/W          CCN000000800000000800FN00000000020220101000000800NNE   20211217102626    1W    00000080000001389000000000032N2    YWYIPLTC000000000000KU31C003
BI00B32N2    2152103721     2022010518007704195              AVSS 1.25F L/R           CCN000000800000000800FN00000000020220101000000800NNE   20211217102626    1W    00000080000001389000000000032N2    YWYIPLTC000000000000KU31C004
BI00B32P8    TAPAW-201A1    2022020918009604030              AVS 0.85 B               CCN000002000000002000FN00000000020220101000002000NNE   20211217163120    1W    00000100000001148000000000032P8    YIYTM   000000000000YN421028
BI00B32P8    TAPAW-201A1    20220209180096040F0              AVS 0.85 GY/B            CCN000003000000003000FN00000000020220101000003000NNE   20211217163120    1W    00000100000001148000000000032P8    YIYTM   000000000000YN421029
BI00B32P8    TAPAW-201A1    2022020918007703952              AVSS 0.5F P              CCN000003000000003000FN00000000020220101000003000NNE   20211217163120    1W    00000150000000674000000000032P8    YIYTM   000000000000YN421015
BI00B32P8    TAPAW-201A1    2022020918007703950              AVSS 0.5F R              CCN000052500000052500FN00000000020220101000052500NNE   20211217163120    1W    00000150000000674000000000032P8    YIYTM   000000000000YN421016
BI00B32P8    TAPAW-201A1    2022020918007703974              AVSS 0.5F Y/W            CCN000003000000003000FN00000000020220101000003000NNE   20211217163120    1W    00000150000000674000000000032P8    YIYTM   000000000000YN421017
BI00B32P8    TAPAW-201A1    2022020918007704080              AVSS 0.75F BR            CCN000007000000007000FN00000000020220101000007000NNE   20211217163120    1W    00000100000000943000000000032P8    YIYTM   000000000000YN421018
BI00B32P8    TAPAW-201A1    2022020918007704084              AVSS 0.75F BR/W          CCN000002000000002000FN00000000020220101000002000NNE   20211217163120    1W    00000100000000943000000000032P8    YIYTM   000000000000YN421019
BI00B32P8    TAPAW-201A1    2022020918007704087              AVSS 0.75F BR/Y          CCN000006000000006000FN00000000020220101000006000NNE   20211217163120    1W    00000100000000943000000000032P8    YIYTM   000000000000YN421020
BI00B32P8    TAPAW-201A1    2022020918007704063              AVSS 0.75F G/B           CCN000005000000005000FN00000000020220101000005000NNE   20211217163120    1W    00000100000000943000000000032P8    YIYTM   000000000000YN421021
BI00B32P8    TAPAW-201A1    2022020918007704041              AVSS 0.75F GY            CCN000015000000015000FN00000000020220101000015000NNE   20211217163120    1W    00000100000000943000000000032P8    YIYTM   000000000000YN421022
BI00B32P8    TAPAW-201A1    2022020918007704152              AVSS 1.25F P             CCN000003200000003200FN00000000020220101000003200NNE   20211217163120    1W    00000080000001389000000000032P8    YIYTM   000000000000YN421024
BI00B32P8    TAPAW-201A1    2022020918007704143              AVSS 1.25F W/B           CCN000012800000012800FN00000000020220101000012800NNE   20211217163120    1W    00000080000001389000000000032P8    YIYTM   000000000000YN421025
BI00B32P8    TAPAW-201A1    2022020918007704145              AVSS 1.25F W/R           CCN000000800000000800FN00000000020220101000000800NNE   20211217163120    1W    00000080000001389000000000032P8    YIYTM   000000000000YN421026
BI00B32P8    TAPAW-201A1    20220209180D0203730              AVSSH 0.3F B             CCN000092000000092000FN00000000020220101000092000NNE   20211217163120    1W    00000200000000515000000000032P8    YIYTM   000000000000YN421001
BI00B32P8    TAPAW-201A1    20220209180D0203780              AVSSH 0.3F BR            CCN000052000000052000FN00000000020220101000052000NNE   20211217163120    1W    00000200000000515000000000032P8    YIYTM   000000000000YN421002
BI00B32P8    TAPAW-201A1    20220209180D0203790              AVSSH 0.3F L             CCN000052000000052000FN00000000020220101000052000NNE   20211217163120    1W    00000200000000515000000000032P8    YIYTM   000000000000YN421003
BI00B32P8    TAPAW-201A1    20220209180D0203752              AVSSH 0.3F P             CCN000048000000048000FN00000000020220101000048000NNE   20211217163120    1W    00000200000000515000000000032P8    YIYTM   000000000000YN421004
BI00B32P8    TAPAW-201A1    20220209180D0203750              AVSSH 0.3F R             CCN000040000000040000FN00000000020220101000040000NNE   20211217163120    1W    00000200000000515000000000032P8    YIYTM   000000000000YN421005
BI00B32P8    TAPAW-201A1    20220209180D0203792              AVSSH 0.3F V             CCN000038000000038000FN00000000020220101000038000NNE   20211217163120    1W    00000200000000515000000000032P8    YIYTM   000000000000YN421006
BI00B32P8    TAPAW-201A1    20220209180D0203960              AVSSH 0.5F G             CCN000022500000022500FN00000000020220101000022500NNE   20211217163120    1W    00000150000000689000000000032P8    YIYTM   000000000000YN421007
BI00B32P8    TAPAW-201A1    20220209180D0203994              AVSSH 0.5F L/W           CCN000007500000007500FN00000000020220101000007500NNE   20211217163120    1W    00000150000000689000000000032P8    YIYTM   000000000000YN421008
BI00B32P8    TAPAW-201A1    20220209180D0203951              AVSSH 0.5F O             CCN000001500000001500FN00000000020220101000001500NNE   20211217163120    1W    00000150000000689000000000032P8    YIYTM   000000000000YN421009
BI00B32P8    TAPAW-201A1    20220209180D0203943              AVSSH 0.5F W/B           CCN000067500000067500FN00000000020220101000067500NNE   20211217163120    1W    00000150000000689000000000032P8    YIYTM   000000000000YN421010
BI00B32P8    TAPAW-201A1    20220209180D0203949              AVSSH 0.5F W/L           CCN000001500000001500FN00000000020220101000001500NNE   20211217163120    1W    00000150000000689000000000032P8    YIYTM   000000000000YN421011
BI00B32P8    TAPAW-201A1    20220209180D0204090              AVSSH 0.75F L            CCN000003000000003000FN00000000020220101000003000NNE   20211217163120    1W    00000100000000968000000000032P8    YIYTM   000000000000YN421012
BI00B32P8    TAPAW-201A1    20220209180D0204054              AVSSH 0.75F R/W          CCN000005000000005000FN00000000020220101000005000NNE   20211217163120    1W    00000100000000968000000000032P8    YIYTM   000000000000YN421013
BI00B32P8    TAPAW-201A1    20220209180D0204140              AVSSH 1.25F W            CCN000028000000028000FN00000000020220101000028000NNE   20211217163120    1W    00000080000001458000000000032P8    YIYTM   000000000000YN421014
BI00B32P8    TAPAW-201A1    202202091801W003960              IVSSH 0.5F G             CCN000120600000120600FN00000000020220101000120600NNE   20211217163120    1W    00000180000000625000000000032P8    YIYTM   000000000000YN421030
BI00B32P8    TAPAW-201A1    202202091801W003990              IVSSH 0.5F L             CCN000088200000088200FN00000000020220101000088200NNE   20211217163120    1W    00000180000000625000000000032P8    YIYTM   000000000000YN421031
BI00B32P8    TAPAW-201A1    202202091801W003950              IVSSH 0.5F R             CCN000046800000046800FN00000000020220101000046800NNE   20211217163120    1W    00000180000000625000000000032P8    YIYTM   000000000000YN421032
BI00B32P8    TAPAW-201A1    202202091801W003992              IVSSH 0.5F V             CCN000028800000028800FN00000000020220101000028800NNE   20211217163120    1W    00000180000000625000000000032P8    YIYTM   000000000000YN421034
BI00B32P8    TAPAW-201A1    202202091801W003943              IVSSH 0.5F W/B           CCN000050400000050400FN00000000020220101000050400NNE   20211217163120    1W    00000180000000625000000000032P8    YIYTM   000000000000YN421036
BI00B32P8    TAPAW-201A1    20220209180077040H1              AVSS 0.75F GY/G          CCN000005000000005000FN00000000020220101000005000NNE   20211217163120    1W    00000100000000943000000000032P8    YIYTM   000000000000YN421023
BI00B32P8    TAPAW-201A1    2022020918007704174              AVSS 1.25F Y/W           CCN000004800000004800FN00000000020220101000004800NNE   20211217163120    1W    00000080000001389000000000032P8    YIYTM   000000000000YN421027
BI00B32P8    TAPAW-201A1    202202091801W006930              IVSSH 0.35F B            CCN000120000000120000FN00000000020220101000120000NNE   20211217163120    1W    00000250000000452000000000032P8    YIYTM   000000000000YN421038
BI00B32P8    TAPAW-201A1    202202091801W006960              IVSSH 0.35F G            CCN000135000000135000FN00000000020220101000135000NNE   20211217163120    1W    00000250000000452000000000032P8    YIYTM   000000000000YN421039
BI00B32P8    TAPAW-201A1    202202091801W006941              IVSSH 0.35F GY           CCN000042500000042500FN00000000020220101000042500NNE   20211217163120    1W    00000250000000452000000000032P8    YIYTM   000000000000YN421040
BI00B32P8    TAPAW-201A1    202202091801W006990              IVSSH 0.35F L            CCN000125000000125000FN00000000020220101000125000NNE   20211217163120    1W    00000250000000452000000000032P8    YIYTM   000000000000YN421041
BI00B32P8    TAPAW-201A1    202202091801W006961              IVSSH 0.35F LG           CCN000015000000015000FN00000000020220101000015000NNE   20211217163120    1W    00000250000000452000000000032P8    YIYTM   000000000000YN421042
BI00B32P8    TAPAW-201A1    202202091801W006940              IVSSH 0.35F W            CCN000082500000082500FN00000000020220101000082500NNE   20211217163120    1W    00000250000000452000000000032P8    YIYTM   000000000000YN421043
BI00B32P8    TAPAW-201A1    202202091801W006943              IVSSH 0.35F W/B          CCN000020000000020000FN00000000020220101000020000NNE   20211217163120    1W    00000250000000452000000000032P8    YIYTM   000000000000YN421044
BI00B32P8    TAPAW-201A1    202202091801W003991              IVSSH 0.5F SB            CCN000039600000039600FN00000000020220101000039600NNE   20211217163120    1W    00000180000000625000000000032P8    YIYTM   000000000000YN421033
BI00B32P8    TAPAW-201A1    202202091801W003940              IVSSH 0.5F W             CCN000036000000036000FN00000000020220101000036000NNE   20211217163120    1W    00000180000000625000000000032P8    YIYTM   000000000000YN421035
BI00B32P8    TAPAW-201A1    202202091801W004030              IVSSH 0.75F B            CCN000013000000013000FN00000000020220101000013000NNE   20211217163120    1W    00000130000000882000000000032P8    YIYTM   000000000000YN421037
BI00B32P8    @TAPAW-201A1   20220202181B32039Y5              AVSSCS 0.5FX1 DGY/W      CCN000009600000009600FN00000000020220101000009600NNE   20211217163119    1W    00000040000002262000000000032P8    YIYTM   000000000000YN321002
BI00B32P8    @TAPAW-201A1   20220202181B32102Y7              AVSSCS 0.5FX2 DGY/Y      CCN000003000000003000FN00000000020220101000003000NNE   20211217163119    1W    00000030000002779000000000032P8    YIYTM   000000000000YN321003
BI00B32P8    @TAPAW-201A1   20220202181E50004ZZ              AVSSCS-S 0.5FX1 DGY      CCN000014800000014800FN00000000020220101000014800NNE   20211217163119    1W    00000040000001817000000000032P8    YIYTM   000000000000YN321009
BI00B32P8    @TAPAW-201A1   20220202181E50007ZZ              AVSSCS-S 0.5FX1 DGY/L    CCN000012800000012800FN00000000020220101000012800NNE   20211217163119    1W    00000040000001817000000000032P8    YIYTM   000000000000YN321010
BI00B32P8    @TAPAW-201A1   20220202181E50005ZZ              AVSSCS-S 0.5FX1 DGY/W    CCN000013200000013200FN00000000020220101000013200NNE   20211217163119    1W    00000040000001817000000000032P8    YIYTM   000000000000YN321011
BI00B32P8    @TAPAW-201A1   20220202181E50016ZZ              AVSSCS-S 0.5FX2 DGY/R    CCN000029700000029700FN00000000020220101000029700NNE   20211217163119    1W    00000030000002072000000000032P8    YIYTM   000000000000YN321012
BI00B32P8    @TAPAW-201A1   20220202181F21016ZZ              AVSSHCS-S 0.5FX2 B/BR    CCN000023100000023100FN00000000020220101000023100NNE   20211217163119    1W    00000030000002505800000000032P8    YIYTM   000000000000YN321013
BI00B32P8    @TAPAW-201A1   20220202181F21011ZZ              AVSSHCS-S 0.5FX2 B/R     CCN000003900000003900FN00000000020220101000003900NNE   20211217163119    1W    00000030000002505800000000032P8    YIYTM   000000000000YN321014
BI00B32P8    @TAPAW-201A1   20220202181F21031ZZ              AVSSHCS-S 1.25FX2 B/P    CCN000026200000026200FN00000000020220101000026200NNE   20211217163119    1W    00000020000004262000000000032P8    YIYTM   000000000000YN321015
BI00B32P8    @TAPAW-201A1   20220202181F21029ZZ              AVSSHCS-S 1.25FX2 B/Y    CCN000000600000000600FN00000000020220101000000600NNE   20211217163119    1W    00000020000004262000000000032P8    YIYTM   000000000000YN321016
BI00B32P8    @TAPAW-201A1   20220202181E48029ZZ              CAVSAS-S 0.5X4 GY        CCN000012400000012400FN00000000020220101000012400NNE   20211217163119    1W    00000020000004425000000000032P8    YIYTM   000000000000YN321007
BI00B32P8    @TAPAW-201A1   20220202181E48065ZZ              CAVSAS-S 0.5X4 GY/W      CCN000004800000004800FN00000000020220101000004800NNE   20211217163119    1W    00000020000004425000000000032P8    YIYTM   000000000000YN321008
BI00B32P8    @TAPAW-201A1   20220202181E48015ZZ              CAVSAS-S 0.5X1 GY        CCN000009200000009200FN00000000020220101000009200NNE   20211217163119    1W    00000040000001932600000000032P8    YIYTM   000000000000YN321005
BI00B32P8    @TAPAW-201A1   20220202181E48033ZZ              CAVSAS-S 0.5X3 GY/B      CCN000004800000004800FN00000000020220101000004800NNE   20211217163119    1W    00000020000003218200000000032P8    YIYTM   000000000000YN321006
BI00B32P8    @TAPAW-201A1   20220202181AD2009ZZ              CIVUSAS-S 0.5X3 B        CCN000014100000014100FN00000000020220101000014100NNE   20211217163119    1W    00000030000002778500000000032P8    YIYTM   000000000000YN321001
BI00B32P8    @TAPAW-201A1   20220202181CQ7003ZZ              IVSSHCS-S 0.5FX2 B(B,W)  CCN000008000000008100FN00000000020220101000008100NNE   20211217163119    1W    00000030000002333100000000032P8    YIYTM   000000000000YN321004
BI00B32P8    TAPAW-2034     2022022318000004550              AV 8 R                   CCN000007100000007100FN00000000020220301000007100NNM   20211217163248    1W    00000010000009148000000000032P8    YIYTM   000000000000YT222069
BI00B32P8    TAPAW-2031     2022020218000004540              AV 8 W                   CCN000020600000020600FN00000000020220301000020600NNM   20211217163248    1W    00000010000009148000000000032P8    YIYTM   000000000000YT321068
BI00B32P8    TAPAW-2032     2022020918000004540              AV 8 W                   CCN000015600000015600FN00000000020220301000015600NNM   20211217163248    1W    00000010000009148000000000032P8    YIYTM   000000000000YT421064
BI00B32P8    TAPAW-2033     2022021518000004540              AV 8 W                   CCN000015600000015600FN00000000020220301000015600NNM   20211217163248    1W    00000010000009148000000000032P8    YIYTM   000000000000YT122087
BI00B32P8    TAPAW-2034     2022022318000004540              AV 8 W                   CCN000015600000015600FN00000000020220301000015600NNM   20211217163248    1W    00000010000009148000000000032P8    YIYTM   000000000000YT222070
BI00B32P8    TAPAW-2031     2022020218000004543              AV 8 W/B                 CCN000001600000001600FN00000000020220301000001600NNM   20211217163248    1W    00000010000009148000000000032P8    YIYTM   000000000000YT321069
BI00B32P8    TAPAW-2032     2022020918000004543              AV 8 W/B                 CCN000003200000003200FN00000000020220301000003200NNM   20211217163248    1W    00000010000009148000000000032P8    YIYTM   000000000000YT421065
BI00B32P8    TAPAW-2033     2022021518000004543              AV 8 W/B                 CCN000003200000003200FN00000000020220301000003200NNM   20211217163248    1W    00000010000009148000000000032P8    YIYTM   000000000000YT122088
BI00B32P8    TAPAW-2034     2022022318000004543              AV 8 W/B                 CCN000003200000003200FN00000000020220301000003200NNM   20211217163248    1W    00000010000009148000000000032P8    YIYTM   000000000000YT222071
BI00B32P8    TAPAW-2032     2022020918009604030              AVS 0.85 B               CCN000001000000001000FN00000000020220301000001000NNM   20211217163248    1W    00000100000001148000000000032P8    YIYTM   000000000000YT421163
BI00B32P8    TAPAW-2031     2022020218009604034              AVS 0.85 B/W             CCN000001000000001000FN00000000020220301000001000NNM   20211217163248    1W    00000100000001148000000000032P8    YIYTM   000000000000YT321124
BI00B32P8    TAPAW-2032     2022020918009604034              AVS 0.85 B/W             CCN000001000000001000FN00000000020220301000001000NNM   20211217163248    1W    00000100000001148000000000032P8    YIYTM   000000000000YT421164
BI00B32P8    TAPAW-2033     2022021518009604034              AVS 0.85 B/W             CCN000001000000001000FN00000000020220301000001000NNM   20211217163248    1W    00000100000001148000000000032P8    YIYTM   000000000000YT122205
BI00B32P8    TAPAW-2034     2022022318009604034              AVS 0.85 B/W             CCN000001000000001000FN00000000020220301000001000NNM   20211217163248    1W    00000100000001148000000000032P8    YIYTM   000000000000YT222188
BI00B32P8    TAPAW-2032     2022020918009604037              AVS 0.85 B/Y             CCN000001000000001000FN00000000020220301000001000NNM   20211217163248    1W    00000100000001148000000000032P8    YIYTM   000000000000YT421165
BI00B32P8    TAPAW-2034     2022022318009604037              AVS 0.85 B/Y             CCN000001000000001000FN00000000020220301000001000NNM   20211217163248    1W    00000100000001148000000000032P8    YIYTM   000000000000YT222189
BI00B32P8    TAPAW-2034     20220223180096040F0              AVS 0.85 GY/B            CCN000001000000001000FN00000000020220301000001000NNM   20211217163248    1W    00000100000001148000000000032P8    YIYTM   000000000000YT222190
BI00B32P8    TAPAW-2031     2022020218007703730              AVSS 0.3F B              CCN000002000000002000FN00000000020220301000002000NNM   20211217163248    1W    00000200000000496000000000032P8    YIYTM   000000000000YT321070
BI00B32P8    TAPAW-2032     2022020918007703730              AVSS 0.3F B              CCN000002000000002000FN00000000020220301000002000NNM   20211217163248    1W    00000200000000496000000000032P8    YIYTM   000000000000YT421066
BI00B32P8    TAPAW-2033     2022021518007703730              AVSS 0.3F B              CCN000004000000004000FN00000000020220301000004000NNM   20211217163248    1W    00000200000000496000000000032P8    YIYTM   000000000000YT122089
BI00B32P8    TAPAW-2034     2022022318007703730              AVSS 0.3F B              CCN000002000000002000FN00000000020220301000002000NNM   20211217163248    1W    00000200000000496000000000032P8    YIYTM   000000000000YT222073
BI00B32P8    TAPAW-2031     2022020218007703737              AVSS 0.3F B/Y            CCN000002000000002000FN00000000020220301000002000NNM   20211217163248    1W    00000200000000496000000000032P8    YIYTM   000000000000YT321071
BI00B32P8    TAPAW-2031     2022020218007703760              AVSS 0.3F G              CCN000002000000002000FN00000000020220301000002000NNM   20211217163248    1W    00000200000000496000000000032P8    YIYTM   000000000000YT321072
BI00B32P8    TAPAW-2032     2022020918007703760              AVSS 0.3F G              CCN000002000000002000FN00000000020220301000002000NNM   20211217163248    1W    00000200000000496000000000032P8    YIYTM   000000000000YT421067
BI00B32P8    TAPAW-2033     2022021518007703760              AVSS 0.3F G              CCN000002000000002000FN00000000020220301000002000NNM   20211217163248    1W    00000200000000496000000000032P8    YIYTM   000000000000YT122090
BI00B32P8    TAPAW-2034     2022022318007703760              AVSS 0.3F G              CCN000002000000002000FN00000000020220301000002000NNM   20211217163248    1W    00000200000000496000000000032P8    YIYTM   000000000000YT222074
BI00B32P8    TAPAW-2032     2022020918007703765              AVSS 0.3F G/R            CCN000002000000002000FN00000000020220301000002000NNM   20211217163248    1W    00000200000000496000000000032P8    YIYTM   000000000000YT421068
BI00B32P8    TAPAW-2034     2022022318007703765              AVSS 0.3F G/R            CCN000002000000002000FN00000000020220301000002000NNM   20211217163248    1W    00000200000000496000000000032P8    YIYTM   000000000000YT222075
BI00B32P8    TAPAW-2032     2022020918007703764              AVSS 0.3F G/W            CCN000002000000002000FN00000000020220301000002000NNM   20211217163248    1W    00000200000000496000000000032P8    YIYTM   000000000000YT421069
BI00B32P8    TAPAW-2033     2022021518007703764              AVSS 0.3F G/W            CCN000002000000002000FN00000000020220301000002000NNM   20211217163248    1W    00000200000000496000000000032P8    YIYTM   000000000000YT122091
BI00B32P8    TAPAW-2034     2022022318007703767              AVSS 0.3F G/Y            CCN000004000000004000FN00000000020220301000004000NNM   20211217163248    1W    00000200000000496000000000032P8    YIYTM   000000000000YT222076
BI00B32P8    TAPAW-2032     2022020918007703790              AVSS 0.3F L              CCN000002000000002000FN00000000020220301000002000NNM   20211217163248    1W    00000200000000496000000000032P8    YIYTM   000000000000YT421070
BI00B32P8    TAPAW-2033     2022021518007703793              AVSS 0.3F L/B            CCN000002000000002000FN00000000020220301000002000NNM   20211217163248    1W    00000200000000496000000000032P8    YIYTM   000000000000YT122092
BI00B32P8    TAPAW-2031     2022020218007703795              AVSS 0.3F L/R            CCN000002000000002000FN00000000020220301000002000NNM   20211217163248    1W    00000200000000496000000000032P8    YIYTM   000000000000YT321073
BI00B32P8    TAPAW-2031     2022020218007703794              AVSS 0.3F L/W            CCN000002000000002000FN00000000020220301000002000NNM   20211217163248    1W    00000200000000496000000000032P8    YIYTM   000000000000YT321074
BI00B32P8    TAPAW-2033     2022021518007703794              AVSS 0.3F L/W            CCN000002000000002000FN00000000020220301000002000NNM   20211217163248    1W    00000200000000496000000000032P8    YIYTM   000000000000YT122093
BI00B32P8    TAPAW-2033     2022021518007703740              AVSS 0.3F W              CCN000002000000002000FN00000000020220301000002000NNM   20211217163248    1W    00000200000000496000000000032P8    YIYTM   000000000000YT122094
BI00B32P8    TAPAW-2034     2022022318007703779              AVSS 0.3F Y/L            CCN000002000000002000FN00000000020220301000002000NNM   20211217163248    1W    00000200000000496000000000032P8    YIYTM   000000000000YT222077
BI00B32P8    TAPAW-2032     2022020918007703775              AVSS 0.3F Y/R            CCN000002000000002000FN00000000020220301000002000NNM   20211217163248    1W    00000200000000496000000000032P8    YIYTM   000000000000YT421071
BI00B32P8    TAPAW-2034     2022022318007703775              AVSS 0.3F Y/R            CCN000002000000002000FN00000000020220301000002000NNM   20211217163248    1W    00000200000000496000000000032P8    YIYTM   000000000000YT222078
BI00B32P8    TAPAW-2032     2022020918007703930              AVSS 0.5F B              CCN000019500000019500FN00000000020220301000019500NNM   20211217163248    1W    00000150000000674000000000032P8    YIYTM   000000000000YT421072
BI00B32P8    TAPAW-2033     2022021518007703930              AVSS 0.5F B              CCN000021000000021000FN00000000020220301000021000NNM   20211217163248    1W    00000150000000674000000000032P8    YIYTM   000000000000YT122095
BI00B32P8    TAPAW-2034     2022022318007703930              AVSS 0.5F B              CCN000021000000021000FN00000000020220301000021000NNM   20211217163248    1W    00000150000000674000000000032P8    YIYTM   000000000000YT222079
BI00B32P8    TAPAW-2031     2022020218007703936              AVSS 0.5F B/G            CCN000003000000003000FN00000000020220301000003000NNM   20211217163248    1W    00000150000000674000000000032P8    YIYTM   000000000000YT321075
BI00B32P8    TAPAW-2032     2022020918007703936              AVSS 0.5F B/G            CCN000004500000004500FN00000000020220301000004500NNM   20211217163248    1W    00000150000000674000000000032P8    YIYTM   000000000000YT421073
BI00B32P8    TAPAW-2033     2022021518007703936              AVSS 0.5F B/G            CCN000003000000003000FN00000000020220301000003000NNM   20211217163248    1W    00000150000000674000000000032P8    YIYTM   000000000000YT122096
BI00B32P8    TAPAW-2034     2022022318007703936              AVSS 0.5F B/G            CCN000003000000003000FN00000000020220301000003000NNM   20211217163248    1W    00000150000000674000000000032P8    YIYTM   000000000000YT222080
BI00B32P8    TAPAW-2032     2022020918007703939              AVSS 0.5F B/L            CCN000007500000007500FN00000000020220301000007500NNM   20211217163248    1W    00000150000000674000000000032P8    YIYTM   000000000000YT421074
BI00B32P8    TAPAW-2033     2022021518007703939              AVSS 0.5F B/L            CCN000006000000006000FN00000000020220301000006000NNM   20211217163248    1W    00000150000000674000000000032P8    YIYTM   000000000000YT122097
BI00B32P8    TAPAW-2034     2022022318007703939              AVSS 0.5F B/L            CCN000006000000006000FN00000000020220301000006000NNM   20211217163248    1W    00000150000000674000000000032P8    YIYTM   000000000000YT222081
BI00B32P8    TAPAW-2032     20220209180077039A8              AVSS 0.5F B/P            CCN000015000000015000FN00000000020220301000015000NNM   20211217163248    1W    00000150000000674000000000032P8    YIYTM   000000000000YT421075
BI00B32P8    TAPAW-2033     20220215180077039A8              AVSS 0.5F B/P            CCN000019500000019500FN00000000020220301000019500NNM   20211217163248    1W    00000150000000674000000000032P8    YIYTM   000000000000YT122098
BI00B32P8    TAPAW-2034     20220223180077039A8              AVSS 0.5F B/P            CCN000018000000018000FN00000000020220301000018000NNM   20211217163248    1W    00000150000000674000000000032P8    YIYTM   000000000000YT222082
BI00B32P8    TAPAW-2031     2022020218007703935              AVSS 0.5F B/R            CCN000004500000004500FN00000000020220301000004500NNM   20211217163248    1W    00000150000000674000000000032P8    YIYTM   000000000000YT321076
BI00B32P8    TAPAW-2032     2022020918007703935              AVSS 0.5F B/R            CCN000004500000004500FN00000000020220301000004500NNM   20211217163248    1W    00000150000000674000000000032P8    YIYTM   000000000000YT421076
BI00B32P8    TAPAW-2033     2022021518007703935              AVSS 0.5F B/R            CCN000004500000004500FN00000000020220301000004500NNM   20211217163248    1W    00000150000000674000000000032P8    YIYTM   000000000000YT122099
BI00B32P8    TAPAW-2034     2022022318007703935              AVSS 0.5F B/R            CCN000004500000004500FN00000000020220301000004500NNM   20211217163248    1W    00000150000000674000000000032P8    YIYTM   000000000000YT222083
BI00B32P8    TAPAW-2032     2022020918007703934              AVSS 0.5F B/W            CCN000003000000003000FN00000000020220301000003000NNM   20211217163248    1W    00000150000000674000000000032P8    YIYTM   000000000000YT421077
BI00B32P8    TAPAW-2033     2022021518007703934              AVSS 0.5F B/W            CCN000006000000006000FN00000000020220301000006000NNM   20211217163248    1W    00000150000000674000000000032P8    YIYTM   000000000000YT122100
BI00B32P8    TAPAW-2034     2022022318007703934              AVSS 0.5F B/W            CCN000007500000007500FN00000000020220301000007500NNM   20211217163248    1W    00000150000000674000000000032P8    YIYTM   000000000000YT222084
BI00B32P8    TAPAW-2034     2022022318007703937              AVSS 0.5F B/Y            CCN000006000000006000FN00000000020220301000006000NNM   20211217163248    1W    00000150000000674000000000032P8    YIYTM   000000000000YT222085
BI00B32P8    TAPAW-2031     2022020218007703980              AVSS 0.5F BR             CCN000003000000003000FN00000000020220301000003000NNM   20211217163248    1W    00000150000000674000000000032P8    YIYTM   000000000000YT321077
BI00B32P8    TAPAW-2032     2022020918007703980              AVSS 0.5F BR             CCN000001500000001500FN00000000020220301000001500NNM   20211217163248    1W    00000150000000674000000000032P8    YIYTM   000000000000YT421078
BI00B32P8    TAPAW-2033     2022021518007703980              AVSS 0.5F BR             CCN000001500000001500FN00000000020220301000001500NNM   20211217163248    1W    00000150000000674000000000032P8    YIYTM   000000000000YT122101
BI00B32P8    TAPAW-2034     2022022318007703980              AVSS 0.5F BR             CCN000001500000001500FN00000000020220301000001500NNM   20211217163248    1W    00000150000000674000000000032P8    YIYTM   000000000000YT222086
BI00B32P8    TAPAW-2033     2022021518007703984              AVSS 0.5F BR/W           CCN000001500000001500FN00000000020220301000001500NNM   20211217163248    1W    00000150000000674000000000032P8    YIYTM   000000000000YT122102
BI00B32P8    TAPAW-2034     2022022318007703984              AVSS 0.5F BR/W           CCN000001500000001500FN00000000020220301000001500NNM   20211217163248    1W    00000150000000674000000000032P8    YIYTM   000000000000YT222087
BI00B32P8    TAPAW-2032     2022020918007703987              AVSS 0.5F BR/Y           CCN000003000000003000FN00000000020220301000003000NNM   20211217163248    1W    00000150000000674000000000032P8    YIYTM   000000000000YT421079
BI00B32P8    TAPAW-2033     2022021518007703987              AVSS 0.5F BR/Y           CCN000001500000001500FN00000000020220301000001500NNM   20211217163248    1W    00000150000000674000000000032P8    YIYTM   000000000000YT122103
BI00B32P8    TAPAW-2034     2022022318007703987              AVSS 0.5F BR/Y           CCN000001500000001500FN00000000020220301000001500NNM   20211217163248    1W    00000150000000674000000000032P8    YIYTM   000000000000YT222088
BI00B32P8    TAPAW-2031     2022020218007703960              AVSS 0.5F G              CCN000001500000001500FN00000000020220301000001500NNM   20211217163248    1W    00000150000000674000000000032P8    YIYTM   000000000000YT321078
BI00B32P8    TAPAW-2032     2022020918007703960              AVSS 0.5F G              CCN000007500000007500FN00000000020220301000007500NNM   20211217163248    1W    00000150000000674000000000032P8    YIYTM   000000000000YT421080
BI00B32P8    TAPAW-2033     2022021518007703960              AVSS 0.5F G              CCN000007500000007500FN00000000020220301000007500NNM   20211217163248    1W    00000150000000674000000000032P8    YIYTM   000000000000YT122104
BI00B32P8    TAPAW-2034     2022022318007703960              AVSS 0.5F G              CCN000007500000007500FN00000000020220301000007500NNM   20211217163248    1W    00000150000000674000000000032P8    YIYTM   000000000000YT222089
BI00B32P8    TAPAW-2033     2022021518007703963              AVSS 0.5F G/B            CCN000001500000001500FN00000000020220301000001500NNM   20211217163248    1W    00000150000000674000000000032P8    YIYTM   000000000000YT122105
BI00B32P8    TAPAW-2031     2022020218007703965              AVSS 0.5F G/R            CCN000003000000003000FN00000000020220301000003000NNM   20211217163248    1W    00000150000000674000000000032P8    YIYTM   000000000000YT321079
BI00B32P8    TAPAW-2032     2022020918007703965              AVSS 0.5F G/R            CCN000004500000004500FN00000000020220301000004500NNM   20211217163248    1W    00000150000000674000000000032P8    YIYTM   000000000000YT421081
BI00B32P8    TAPAW-2033     2022021518007703965              AVSS 0.5F G/R            CCN000006000000006000FN00000000020220301000006000NNM   20211217163248    1W    00000150000000674000000000032P8    YIYTM   000000000000YT122106
BI00B32P8    TAPAW-2034     2022022318007703965              AVSS 0.5F G/R            CCN000004500000004500FN00000000020220301000004500NNM   20211217163248    1W    00000150000000674000000000032P8    YIYTM   000000000000YT222090
BI00B32P8    TAPAW-2033     2022021518007703964              AVSS 0.5F G/W            CCN000004500000004500FN00000000020220301000004500NNM   20211217163248    1W    00000150000000674000000000032P8    YIYTM   000000000000YT122107
BI00B32P8    TAPAW-2034     2022022318007703964              AVSS 0.5F G/W            CCN000006000000006000FN00000000020220301000006000NNM   20211217163248    1W    00000150000000674000000000032P8    YIYTM   000000000000YT222091
BI00B32P8    TAPAW-2033     2022021518007703967              AVSS 0.5F G/Y            CCN000001500000001500FN00000000020220301000001500NNM   20211217163248    1W    00000150000000674000000000032P8    YIYTM   000000000000YT122108
BI00B32P8    TAPAW-2034     2022022318007703967              AVSS 0.5F G/Y            CCN000003000000003000FN00000000020220301000003000NNM   20211217163248    1W    00000150000000674000000000032P8    YIYTM   000000000000YT222092
BI00B32P8    TAPAW-2031     2022020218007703941              AVSS 0.5F GY             CCN000003000000003000FN00000000020220301000003000NNM   20211217163248    1W    00000150000000674000000000032P8    YIYTM   000000000000YT321080
BI00B32P8    TAPAW-2032     2022020918007703941              AVSS 0.5F GY             CCN000003000000003000FN00000000020220301000003000NNM   20211217163248    1W    00000150000000674000000000032P8    YIYTM   000000000000YT421082
BI00B32P8    TAPAW-2033     2022021518007703941              AVSS 0.5F GY             CCN000003000000003000FN00000000020220301000003000NNM   20211217163248    1W    00000150000000674000000000032P8    YIYTM   000000000000YT122109
BI00B32P8    TAPAW-2034     2022022318007703941              AVSS 0.5F GY             CCN000003000000003000FN00000000020220301000003000NNM   20211217163248    1W    00000150000000674000000000032P8    YIYTM   000000000000YT222093
BI00B32P8    TAPAW-2033     20220215180077039F0              AVSS 0.5F GY/B           CCN000003000000003000FN00000000020220301000003000NNM   20211217163248    1W    00000150000000674000000000032P8    YIYTM   000000000000YT122110
BI00B32P8    TAPAW-2034     20220223180077039F0              AVSS 0.5F GY/B           CCN000001500000001500FN00000000020220301000001500NNM   20211217163248    1W    00000150000000674000000000032P8    YIYTM   000000000000YT222094
BI00B32P8    TAPAW-2032     20220209180077039H1              AVSS 0.5F GY/G           CCN000001500000001500FN00000000020220301000001500NNM   20211217163248    1W    00000150000000674000000000032P8    YIYTM   000000000000YT421083
BI00B32P8    TAPAW-2033     20220215180077039H1              AVSS 0.5F GY/G           CCN000001500000001500FN00000000020220301000001500NNM   20211217163248    1W    00000150000000674000000000032P8    YIYTM   000000000000YT122111
BI00B32P8    TAPAW-2033     2022021518007703911              AVSS 0.5F GY/L           CCN000001500000001500FN00000000020220301000001500NNM   20211217163248    1W    00000150000000674000000000032P8    YIYTM   000000000000YT122112
BI00B32P8    TAPAW-2031     2022020218007703910              AVSS 0.5F GY/R           CCN000001500000001500FN00000000020220301000001500NNM   20211217163248    1W    00000150000000674000000000032P8    YIYTM   000000000000YT321081
BI00B32P8    TAPAW-2032     2022020918007703910              AVSS 0.5F GY/R           CCN000001500000001500FN00000000020220301000001500NNM   20211217163248    1W    00000150000000674000000000032P8    YIYTM   000000000000YT421084
BI00B32P8    TAPAW-2034     2022022318007703910              AVSS 0.5F GY/R           CCN000001500000001500FN00000000020220301000001500NNM   20211217163248    1W    00000150000000674000000000032P8    YIYTM   000000000000YT222095
BI00B32P8    TAPAW-2033     20220215180077039H7              AVSS 0.5F GY/W           CCN000001500000001500FN00000000020220301000001500NNM   20211217163248    1W    00000150000000674000000000032P8    YIYTM   000000000000YT122113
BI00B32P8    TAPAW-2032     2022020918007703990              AVSS 0.5F L              CCN000006000000006000FN00000000020220301000006000NNM   20211217163248    1W    00000150000000674000000000032P8    YIYTM   000000000000YT421085
BI00B32P8    TAPAW-2033     2022021518007703990              AVSS 0.5F L              CCN000018000000018000FN00000000020220301000018000NNM   20211217163248    1W    00000150000000674000000000032P8    YIYTM   000000000000YT122114
BI00B32P8    TAPAW-2034     2022022318007703990              AVSS 0.5F L              CCN000019500000019500FN00000000020220301000019500NNM   20211217163248    1W    00000150000000674000000000032P8    YIYTM   000000000000YT222096
BI00B32P8    TAPAW-2032     2022020918007703995              AVSS 0.5F L/R            CCN000003000000003000FN00000000020220301000003000NNM   20211217163248    1W    00000150000000674000000000032P8    YIYTM   000000000000YT421086
BI00B32P8    TAPAW-2033     2022021518007703995              AVSS 0.5F L/R            CCN000001500000001500FN00000000020220301000001500NNM   20211217163248    1W    00000150000000674000000000032P8    YIYTM   000000000000YT122115
BI00B32P8    TAPAW-2034     2022022318007703995              AVSS 0.5F L/R            CCN000001500000001500FN00000000020220301000001500NNM   20211217163248    1W    00000150000000674000000000032P8    YIYTM   000000000000YT222097
BI00B32P8    TAPAW-2031     2022020218007703994              AVSS 0.5F L/W            CCN000006000000006000FN00000000020220301000006000NNM   20211217163248    1W    00000150000000674000000000032P8    YIYTM   000000000000YT321082
BI00B32P8    TAPAW-2032     2022020918007703994              AVSS 0.5F L/W            CCN000006000000006000FN00000000020220301000006000NNM   20211217163248    1W    00000150000000674000000000032P8    YIYTM   000000000000YT421087
BI00B32P8    TAPAW-2033     2022021518007703994              AVSS 0.5F L/W            CCN000006000000006000FN00000000020220301000006000NNM   20211217163248    1W    00000150000000674000000000032P8    YIYTM   000000000000YT122116
BI00B32P8    TAPAW-2034     2022022318007703994              AVSS 0.5F L/W            CCN000006000000006000FN00000000020220301000006000NNM   20211217163248    1W    00000150000000674000000000032P8    YIYTM   000000000000YT222098
BI00B32P8    TAPAW-2033     2022021518007703997              AVSS 0.5F L/Y            CCN000001500000001500FN00000000020220301000001500NNM   20211217163248    1W    00000150000000674000000000032P8    YIYTM   000000000000YT122117
BI00B32P8    TAPAW-2031     2022020218007703951              AVSS 0.5F O              CCN000001500000001500FN00000000020220301000001500NNM   20211217163248    1W    00000150000000674000000000032P8    YIYTM   000000000000YT321083
BI00B32P8    TAPAW-2032     2022020918007703951              AVSS 0.5F O              CCN000022500000022500FN00000000020220301000022500NNM   20211217163248    1W    00000150000000674000000000032P8    YIYTM   000000000000YT421088
BI00B32P8    TAPAW-2033     2022021518007703951              AVSS 0.5F O              CCN000021000000021000FN00000000020220301000021000NNM   20211217163248    1W    00000150000000674000000000032P8    YIYTM   000000000000YT122118
BI00B32P8    TAPAW-2034     2022022318007703951              AVSS 0.5F O              CCN000022500000022500FN00000000020220301000022500NNM   20211217163248    1W    00000150000000674000000000032P8    YIYTM   000000000000YT222099
BI00B32P8    TAPAW-2032     2022020918007703907              AVSS 0.5F P/B            CCN000001500000001500FN00000000020220301000001500NNM   20211217163248    1W    00000150000000674000000000032P8    YIYTM   000000000000YT421089
BI00B32P8    TAPAW-2034     2022022318007703907              AVSS 0.5F P/B            CCN000001500000001500FN00000000020220301000001500NNM   20211217163248    1W    00000150000000674000000000032P8    YIYTM   000000000000YT222100
BI00B32P8    TAPAW-2032     2022020918007703950              AVSS 0.5F R              CCN000013500000013500FN00000000020220301000013500NNM   20211217163248    1W    00000150000000674000000000032P8    YIYTM   000000000000YT421090
BI00B32P8    TAPAW-2033     2022021518007703950              AVSS 0.5F R              CCN000012000000012000FN00000000020220301000012000NNM   20211217163248    1W    00000150000000674000000000032P8    YIYTM   000000000000YT122119
BI00B32P8    TAPAW-2034     2022022318007703950              AVSS 0.5F R              CCN000013500000013500FN00000000020220301000013500NNM   20211217163248    1W    00000150000000674000000000032P8    YIYTM   000000000000YT222101
BI00B32P8    TAPAW-2033     2022021518007703953              AVSS 0.5F R/B            CCN000001500000001500FN00000000020220301000001500NNM   20211217163248    1W    00000150000000674000000000032P8    YIYTM   000000000000YT122120
BI00B32P8    TAPAW-2032     2022020918007703959              AVSS 0.5F R/L            CCN000003000000003000FN00000000020220301000003000NNM   20211217163248    1W    00000150000000674000000000032P8    YIYTM   000000000000YT421091
BI00B32P8    TAPAW-2033     2022021518007703959              AVSS 0.5F R/L            CCN000001500000001500FN00000000020220301000001500NNM   20211217163248    1W    00000150000000674000000000032P8    YIYTM   000000000000YT122121
BI00B32P8    TAPAW-2034     2022022318007703959              AVSS 0.5F R/L            CCN000001500000001500FN00000000020220301000001500NNM   20211217163248    1W    00000150000000674000000000032P8    YIYTM   000000000000YT222102
BI00B32P8    TAPAW-2031     2022020218007703954              AVSS 0.5F R/W            CCN000003000000003000FN00000000020220301000003000NNM   20211217163248    1W    00000150000000674000000000032P8    YIYTM   000000000000YT321084
BI00B32P8    TAPAW-2032     2022020918007703954              AVSS 0.5F R/W            CCN000003000000003000FN00000000020220301000003000NNM   20211217163248    1W    00000150000000674000000000032P8    YIYTM   000000000000YT421092
BI00B32P8    TAPAW-2033     2022021518007703954              AVSS 0.5F R/W            CCN000003000000003000FN00000000020220301000003000NNM   20211217163248    1W    00000150000000674000000000032P8    YIYTM   000000000000YT122122
BI00B32P8    TAPAW-2034     2022022318007703954              AVSS 0.5F R/W            CCN000004500000004500FN00000000020220301000004500NNM   20211217163248    1W    00000150000000674000000000032P8    YIYTM   000000000000YT222103
BI00B32P8    TAPAW-2032     2022020918007703957              AVSS 0.5F R/Y            CCN000001500000001500FN00000000020220301000001500NNM   20211217163248    1W    00000150000000674000000000032P8    YIYTM   000000000000YT421093
BI00B32P8    TAPAW-2033     2022021518007703957              AVSS 0.5F R/Y            CCN000003000000003000FN00000000020220301000003000NNM   20211217163248    1W    00000150000000674000000000032P8    YIYTM   000000000000YT122123
BI00B32P8    TAPAW-2034     2022022318007703957              AVSS 0.5F R/Y            CCN000003000000003000FN00000000020220301000003000NNM   20211217163248    1W    00000150000000674000000000032P8    YIYTM   000000000000YT222104
BI00B32P8    TAPAW-2031     2022020218007703992              AVSS 0.5F V              CCN000006000000006000FN00000000020220301000006000NNM   20211217163248    1W    00000150000000674000000000032P8    YIYTM   000000000000YT321085
BI00B32P8    TAPAW-2032     2022020918007703992              AVSS 0.5F V              CCN000004500000004500FN00000000020220301000004500NNM   20211217163248    1W    00000150000000674000000000032P8    YIYTM   000000000000YT421094
BI00B32P8    TAPAW-2033     2022021518007703992              AVSS 0.5F V              CCN000003000000003000FN00000000020220301000003000NNM   20211217163248    1W    00000150000000674000000000032P8    YIYTM   000000000000YT122124
BI00B32P8    TAPAW-2034     2022022318007703992              AVSS 0.5F V              CCN000004500000004500FN00000000020220301000004500NNM   20211217163248    1W    00000150000000674000000000032P8    YIYTM   000000000000YT222105
BI00B32P8    TAPAW-2032     2022020918007703940              AVSS 0.5F W              CCN000006000000006000FN00000000020220301000006000NNM   20211217163248    1W    00000150000000674000000000032P8    YIYTM   000000000000YT421096
BI00B32P8    TAPAW-2033     2022021518007703940              AVSS 0.5F W              CCN000009000000009000FN00000000020220301000009000NNM   20211217163248    1W    00000150000000674000000000032P8    YIYTM   000000000000YT122126
BI00B32P8    TAPAW-2034     2022022318007703940              AVSS 0.5F W              CCN000010500000010500FN00000000020220301000010500NNM   20211217163248    1W    00000150000000674000000000032P8    YIYTM   000000000000YT222106
BI00B32P8    TAPAW-2032     2022020918007703943              AVSS 0.5F W/B            CCN000001500000001500FN00000000020220301000001500NNM   20211217163248    1W    00000150000000674000000000032P8    YIYTM   000000000000YT421097
BI00B32P8    TAPAW-2033     2022021518007703943              AVSS 0.5F W/B            CCN000003000000003000FN00000000020220301000003000NNM   20211217163248    1W    00000150000000674000000000032P8    YIYTM   000000000000YT122127
BI00B32P8    TAPAW-2034     2022022318007703943              AVSS 0.5F W/B            CCN000003000000003000FN00000000020220301000003000NNM   20211217163248    1W    00000150000000674000000000032P8    YIYTM   000000000000YT222107
BI00B32P8    TAPAW-2034     2022022318007703946              AVSS 0.5F W/G            CCN000001500000001500FN00000000020220301000001500NNM   20211217163248    1W    00000150000000674000000000032P8    YIYTM   000000000000YT222108
BI00B32P8    TAPAW-2031     2022020218007703949              AVSS 0.5F W/L            CCN000003000000003000FN00000000020220301000003000NNM   20211217163248    1W    00000150000000674000000000032P8    YIYTM   000000000000YT321086
BI00B32P8    TAPAW-2032     2022020918007703949              AVSS 0.5F W/L            CCN000003000000003000FN00000000020220301000003000NNM   20211217163248    1W    00000150000000674000000000032P8    YIYTM   000000000000YT421098
BI00B32P8    TAPAW-2033     2022021518007703949              AVSS 0.5F W/L            CCN000004500000004500FN00000000020220301000004500NNM   20211217163248    1W    00000150000000674000000000032P8    YIYTM   000000000000YT122128
BI00B32P8    TAPAW-2034     2022022318007703949              AVSS 0.5F W/L            CCN000003000000003000FN00000000020220301000003000NNM   20211217163248    1W    00000150000000674000000000032P8    YIYTM   000000000000YT222109
BI00B32P8    TAPAW-2031     2022020218007703945              AVSS 0.5F W/R            CCN000003000000003000FN00000000020220301000003000NNM   20211217163248    1W    00000150000000674000000000032P8    YIYTM   000000000000YT321087
BI00B32P8    TAPAW-2032     2022020918007703945              AVSS 0.5F W/R            CCN000004500000004500FN00000000020220301000004500NNM   20211217163248    1W    00000150000000674000000000032P8    YIYTM   000000000000YT421099
BI00B32P8    TAPAW-2033     2022021518007703945              AVSS 0.5F W/R            CCN000003000000003000FN00000000020220301000003000NNM   20211217163248    1W    00000150000000674000000000032P8    YIYTM   000000000000YT122129
BI00B32P8    TAPAW-2034     2022022318007703945              AVSS 0.5F W/R            CCN000004500000004500FN00000000020220301000004500NNM   20211217163248    1W    00000150000000674000000000032P8    YIYTM   000000000000YT222110
BI00B32P8    TAPAW-2031     2022020218007703970              AVSS 0.5F Y              CCN000001500000001500FN00000000020220301000001500NNM   20211217163248    1W    00000150000000674000000000032P8    YIYTM   000000000000YT321088
BI00B32P8    TAPAW-2032     2022020918007703970              AVSS 0.5F Y              CCN000006000000006000FN00000000020220301000006000NNM   20211217163248    1W    00000150000000674000000000032P8    YIYTM   000000000000YT421100
BI00B32P8    TAPAW-2033     2022021518007703970              AVSS 0.5F Y              CCN000007500000007500FN00000000020220301000007500NNM   20211217163248    1W    00000150000000674000000000032P8    YIYTM   000000000000YT122130
BI00B32P8    TAPAW-2034     2022022318007703970              AVSS 0.5F Y              CCN000006000000006000FN00000000020220301000006000NNM   20211217163248    1W    00000150000000674000000000032P8    YIYTM   000000000000YT222111
BI00B32P8    TAPAW-2032     2022020918007703973              AVSS 0.5F Y/B            CCN000001500000001500FN00000000020220301000001500NNM   20211217163248    1W    00000150000000674000000000032P8    YIYTM   000000000000YT421101
BI00B32P8    TAPAW-2033     2022021518007703973              AVSS 0.5F Y/B            CCN000006000000006000FN00000000020220301000006000NNM   20211217163248    1W    00000150000000674000000000032P8    YIYTM   000000000000YT122131
BI00B32P8    TAPAW-2034     2022022318007703973              AVSS 0.5F Y/B            CCN000006000000006000FN00000000020220301000006000NNM   20211217163248    1W    00000150000000674000000000032P8    YIYTM   000000000000YT222112
BI00B32P8    TAPAW-2031     2022020218007703976              AVSS 0.5F Y/G            CCN000003000000003000FN00000000020220301000003000NNM   20211217163248    1W    00000150000000674000000000032P8    YIYTM   000000000000YT321089
BI00B32P8    TAPAW-2032     2022020918007703976              AVSS 0.5F Y/G            CCN000001500000001500FN00000000020220301000001500NNM   20211217163248    1W    00000150000000674000000000032P8    YIYTM   000000000000YT421102
BI00B32P8    TAPAW-2033     2022021518007703976              AVSS 0.5F Y/G            CCN000001500000001500FN00000000020220301000001500NNM   20211217163248    1W    00000150000000674000000000032P8    YIYTM   000000000000YT122132
BI00B32P8    TAPAW-2034     2022022318007703976              AVSS 0.5F Y/G            CCN000001500000001500FN00000000020220301000001500NNM   20211217163248    1W    00000150000000674000000000032P8    YIYTM   000000000000YT222113
BI00B32P8    TAPAW-2032     2022020918007703979              AVSS 0.5F Y/L            CCN000001500000001500FN00000000020220301000001500NNM   20211217163248    1W    00000150000000674000000000032P8    YIYTM   000000000000YT421103
BI00B32P8    TAPAW-2033     2022021518007703979              AVSS 0.5F Y/L            CCN000003000000003000FN00000000020220301000003000NNM   20211217163248    1W    00000150000000674000000000032P8    YIYTM   000000000000YT122133
BI00B32P8    TAPAW-2034     2022022318007703979              AVSS 0.5F Y/L            CCN000001500000001500FN00000000020220301000001500NNM   20211217163248    1W    00000150000000674000000000032P8    YIYTM   000000000000YT222114
BI00B32P8    TAPAW-2032     2022020918007703975              AVSS 0.5F Y/R            CCN000004500000004500FN00000000020220301000004500NNM   20211217163248    1W    00000150000000674000000000032P8    YIYTM   000000000000YT421104
BI00B32P8    TAPAW-2033     2022021518007703975              AVSS 0.5F Y/R            CCN000009000000009000FN00000000020220301000009000NNM   20211217163248    1W    00000150000000674000000000032P8    YIYTM   000000000000YT122134
BI00B32P8    TAPAW-2034     2022022318007703975              AVSS 0.5F Y/R            CCN000007500000007500FN00000000020220301000007500NNM   20211217163248    1W    00000150000000674000000000032P8    YIYTM   000000000000YT222115
BI00B32P8    TAPAW-2034     2022022318007703974              AVSS 0.5F Y/W            CCN000001500000001500FN00000000020220301000001500NNM   20211217163248    1W    00000150000000674000000000032P8    YIYTM   000000000000YT222116
BI00B32P8    TAPAW-2031     2022020218007704030              AVSS 0.75F B             CCN000012000000012000FN00000000020220301000012000NNM   20211217163248    1W    00000100000000943000000000032P8    YIYTM   000000000000YT321090
BI00B32P8    TAPAW-2032     2022020918007704030              AVSS 0.75F B             CCN000032000000032000FN00000000020220301000032000NNM   20211217163248    1W    00000100000000943000000000032P8    YIYTM   000000000000YT421105
BI00B32P8    TAPAW-2033     2022021518007704030              AVSS 0.75F B             CCN000032000000032000FN00000000020220301000032000NNM   20211217163248    1W    00000100000000943000000000032P8    YIYTM   000000000000YT122135
BI00B32P8    TAPAW-2034     2022022318007704030              AVSS 0.75F B             CCN000032000000032000FN00000000020220301000032000NNM   20211217163248    1W    00000100000000943000000000032P8    YIYTM   000000000000YT222117
BI00B32P8    TAPAW-2033     2022021518007704036              AVSS 0.75F B/G           CCN000014000000014000FN00000000020220301000014000NNM   20211217163248    1W    00000100000000943000000000032P8    YIYTM   000000000000YT122136
BI00B32P8    TAPAW-2034     2022022318007704036              AVSS 0.75F B/G           CCN000015000000015000FN00000000020220301000015000NNM   20211217163248    1W    00000100000000943000000000032P8    YIYTM   000000000000YT222118
BI00B32P8    TAPAW-2031     2022020218007704039              AVSS 0.75F B/L           CCN000004000000004000FN00000000020220301000004000NNM   20211217163248    1W    00000100000000943000000000032P8    YIYTM   000000000000YT321091
BI00B32P8    TAPAW-2032     2022020918007704039              AVSS 0.75F B/L           CCN000004000000004000FN00000000020220301000004000NNM   20211217163248    1W    00000100000000943000000000032P8    YIYTM   000000000000YT421106
BI00B32P8    TAPAW-2033     2022021518007704039              AVSS 0.75F B/L           CCN000005000000005000FN00000000020220301000005000NNM   20211217163248    1W    00000100000000943000000000032P8    YIYTM   000000000000YT122137
BI00B32P8    TAPAW-2034     2022022318007704039              AVSS 0.75F B/L           CCN000004000000004000FN00000000020220301000004000NNM   20211217163248    1W    00000100000000943000000000032P8    YIYTM   000000000000YT222119
BI00B32P8    TAPAW-2031     2022020218007704035              AVSS 0.75F B/R           CCN000004000000004000FN00000000020220301000004000NNM   20211217163248    1W    00000100000000943000000000032P8    YIYTM   000000000000YT321093
BI00B32P8    TAPAW-2032     2022020918007704035              AVSS 0.75F B/R           CCN000013000000013000FN00000000020220301000013000NNM   20211217163248    1W    00000100000000943000000000032P8    YIYTM   000000000000YT421108
BI00B32P8    TAPAW-2033     2022021518007704035              AVSS 0.75F B/R           CCN000014000000014000FN00000000020220301000014000NNM   20211217163248    1W    00000100000000943000000000032P8    YIYTM   000000000000YT122139
BI00B32P8    TAPAW-2034     2022022318007704035              AVSS 0.75F B/R           CCN000013000000013000FN00000000020220301000013000NNM   20211217163248    1W    00000100000000943000000000032P8    YIYTM   000000000000YT222121
BI00B32P8    TAPAW-2032     2022020918007704034              AVSS 0.75F B/W           CCN000016000000016000FN00000000020220301000016000NNM   20211217163248    1W    00000100000000943000000000032P8    YIYTM   000000000000YT421109
BI00B32P8    TAPAW-2033     2022021518007704034              AVSS 0.75F B/W           CCN000018000000018000FN00000000020220301000018000NNM   20211217163248    1W    00000100000000943000000000032P8    YIYTM   000000000000YT122140
BI00B32P8    TAPAW-2034     2022022318007704034              AVSS 0.75F B/W           CCN000019000000019000FN00000000020220301000019000NNM   20211217163248    1W    00000100000000943000000000032P8    YIYTM   000000000000YT222122
BI00B32P8    TAPAW-2032     2022020918007704037              AVSS 0.75F B/Y           CCN000006000000006000FN00000000020220301000006000NNM   20211217163248    1W    00000100000000943000000000032P8    YIYTM   000000000000YT421110
BI00B32P8    TAPAW-2033     2022021518007704037              AVSS 0.75F B/Y           CCN000016000000016000FN00000000020220301000016000NNM   20211217163248    1W    00000100000000943000000000032P8    YIYTM   000000000000YT122141
BI00B32P8    TAPAW-2034     2022022318007704037              AVSS 0.75F B/Y           CCN000016000000016000FN00000000020220301000016000NNM   20211217163248    1W    00000100000000943000000000032P8    YIYTM   000000000000YT222123
BI00B32P8    TAPAW-2032     2022020918007704080              AVSS 0.75F BR            CCN000002000000002000FN00000000020220301000002000NNM   20211217163248    1W    00000100000000943000000000032P8    YIYTM   000000000000YT421111
BI00B32P8    TAPAW-2033     2022021518007704080              AVSS 0.75F BR            CCN000002000000002000FN00000000020220301000002000NNM   20211217163248    1W    00000100000000943000000000032P8    YIYTM   000000000000YT122142
BI00B32P8    TAPAW-2034     2022022318007704080              AVSS 0.75F BR            CCN000002000000002000FN00000000020220301000002000NNM   20211217163248    1W    00000100000000943000000000032P8    YIYTM   000000000000YT222124
BI00B32P8    TAPAW-2032     2022020918007704084              AVSS 0.75F BR/W          CCN000001000000001000FN00000000020220301000001000NNM   20211217163248    1W    00000100000000943000000000032P8    YIYTM   000000000000YT421112
BI00B32P8    TAPAW-2033     2022021518007704084              AVSS 0.75F BR/W          CCN000001000000001000FN00000000020220301000001000NNM   20211217163248    1W    00000100000000943000000000032P8    YIYTM   000000000000YT122143
BI00B32P8    TAPAW-2032     2022020918007704087              AVSS 0.75F BR/Y          CCN000001000000001000FN00000000020220301000001000NNM   20211217163248    1W    00000100000000943000000000032P8    YIYTM   000000000000YT421113
BI00B32P8    TAPAW-2033     2022021518007704087              AVSS 0.75F BR/Y          CCN000002000000002000FN00000000020220301000002000NNM   20211217163248    1W    00000100000000943000000000032P8    YIYTM   000000000000YT122144
BI00B32P8    TAPAW-2034     2022022318007704087              AVSS 0.75F BR/Y          CCN000001000000001000FN00000000020220301000001000NNM   20211217163248    1W    00000100000000943000000000032P8    YIYTM   000000000000YT222125
BI00B32P8    TAPAW-2031     2022020218007704060              AVSS 0.75F G             CCN000013000000013000FN00000000020220301000013000NNM   20211217163248    1W    00000100000000943000000000032P8    YIYTM   000000000000YT321094
BI00B32P8    TAPAW-2032     2022020918007704060              AVSS 0.75F G             CCN000017000000017000FN00000000020220301000017000NNM   20211217163248    1W    00000100000000943000000000032P8    YIYTM   000000000000YT421114
BI00B32P8    TAPAW-2033     2022021518007704060              AVSS 0.75F G             CCN000017000000017000FN00000000020220301000017000NNM   20211217163248    1W    00000100000000943000000000032P8    YIYTM   000000000000YT122145
BI00B32P8    TAPAW-2034     2022022318007704060              AVSS 0.75F G             CCN000016000000016000FN00000000020220301000016000NNM   20211217163248    1W    00000100000000943000000000032P8    YIYTM   000000000000YT222126
BI00B32P8    TAPAW-2032     2022020918007704063              AVSS 0.75F G/B           CCN000002000000002000FN00000000020220301000002000NNM   20211217163248    1W    00000100000000943000000000032P8    YIYTM   000000000000YT421115
BI00B32P8    TAPAW-2033     2022021518007704063              AVSS 0.75F G/B           CCN000003000000003000FN00000000020220301000003000NNM   20211217163248    1W    00000100000000943000000000032P8    YIYTM   000000000000YT122146
BI00B32P8    TAPAW-2034     2022022318007704063              AVSS 0.75F G/B           CCN000002000000002000FN00000000020220301000002000NNM   20211217163248    1W    00000100000000943000000000032P8    YIYTM   000000000000YT222127
BI00B32P8    TAPAW-2031     2022020218007704065              AVSS 0.75F G/R           CCN000007000000007000FN00000000020220301000007000NNM   20211217163248    1W    00000100000000943000000000032P8    YIYTM   000000000000YT321095
BI00B32P8    TAPAW-2032     2022020918007704065              AVSS 0.75F G/R           CCN000007000000007000FN00000000020220301000007000NNM   20211217163248    1W    00000100000000943000000000032P8    YIYTM   000000000000YT421116
BI00B32P8    TAPAW-2033     2022021518007704065              AVSS 0.75F G/R           CCN000007000000007000FN00000000020220301000007000NNM   20211217163248    1W    00000100000000943000000000032P8    YIYTM   000000000000YT122147
BI00B32P8    TAPAW-2034     2022022318007704065              AVSS 0.75F G/R           CCN000007000000007000FN00000000020220301000007000NNM   20211217163248    1W    00000100000000943000000000032P8    YIYTM   000000000000YT222128
BI00B32P8    TAPAW-2031     2022020218007704064              AVSS 0.75F G/W           CCN000003000000003000FN00000000020220301000003000NNM   20211217163248    1W    00000100000000943000000000032P8    YIYTM   000000000000YT321096
BI00B32P8    TAPAW-2032     2022020918007704064              AVSS 0.75F G/W           CCN000007000000007000FN00000000020220301000007000NNM   20211217163248    1W    00000100000000943000000000032P8    YIYTM   000000000000YT421117
BI00B32P8    TAPAW-2033     2022021518007704064              AVSS 0.75F G/W           CCN000008000000008000FN00000000020220301000008000NNM   20211217163248    1W    00000100000000943000000000032P8    YIYTM   000000000000YT122148
BI00B32P8    TAPAW-2034     2022022318007704064              AVSS 0.75F G/W           CCN000007000000007000FN00000000020220301000007000NNM   20211217163248    1W    00000100000000943000000000032P8    YIYTM   000000000000YT222129
BI00B32P8    TAPAW-2031     2022020218007704067              AVSS 0.75F G/Y           CCN000004000000004000FN00000000020220301000004000NNM   20211217163248    1W    00000100000000943000000000032P8    YIYTM   000000000000YT321097
BI00B32P8    TAPAW-2032     2022020918007704067              AVSS 0.75F G/Y           CCN000009000000009000FN00000000020220301000009000NNM   20211217163248    1W    00000100000000943000000000032P8    YIYTM   000000000000YT421118
BI00B32P8    TAPAW-2033     2022021518007704067              AVSS 0.75F G/Y           CCN000009000000009000FN00000000020220301000009000NNM   20211217163248    1W    00000100000000943000000000032P8    YIYTM   000000000000YT122149
BI00B32P8    TAPAW-2034     2022022318007704067              AVSS 0.75F G/Y           CCN000009000000009000FN00000000020220301000009000NNM   20211217163248    1W    00000100000000943000000000032P8    YIYTM   000000000000YT222130
BI00B32P8    TAPAW-2032     2022020918007704041              AVSS 0.75F GY            CCN000007000000007000FN00000000020220301000007000NNM   20211217163248    1W    00000100000000943000000000032P8    YIYTM   000000000000YT421119
BI00B32P8    TAPAW-2033     2022021518007704041              AVSS 0.75F GY            CCN000007000000007000FN00000000020220301000007000NNM   20211217163248    1W    00000100000000943000000000032P8    YIYTM   000000000000YT122150
BI00B32P8    TAPAW-2034     2022022318007704041              AVSS 0.75F GY            CCN000006000000006000FN00000000020220301000006000NNM   20211217163248    1W    00000100000000943000000000032P8    YIYTM   000000000000YT222131
BI00B32P8    TAPAW-2031     2022020218007704011              AVSS 0.75F GY/L          CCN000007000000007000FN00000000020220301000007000NNM   20211217163248    1W    00000100000000943000000000032P8    YIYTM   000000000000YT321098
BI00B32P8    TAPAW-2032     2022020918007704011              AVSS 0.75F GY/L          CCN000006000000006000FN00000000020220301000006000NNM   20211217163248    1W    00000100000000943000000000032P8    YIYTM   000000000000YT421122
BI00B32P8    TAPAW-2033     2022021518007704011              AVSS 0.75F GY/L          CCN000007000000007000FN00000000020220301000007000NNM   20211217163248    1W    00000100000000943000000000032P8    YIYTM   000000000000YT122153
BI00B32P8    TAPAW-2034     2022022318007704011              AVSS 0.75F GY/L          CCN000006000000006000FN00000000020220301000006000NNM   20211217163248    1W    00000100000000943000000000032P8    YIYTM   000000000000YT222134
BI00B32P8    TAPAW-2031     2022020218007704090              AVSS 0.75F L             CCN000016000000016000FN00000000020220301000016000NNM   20211217163248    1W    00000100000000943000000000032P8    YIYTM   000000000000YT321100
BI00B32P8    TAPAW-2032     2022020918007704090              AVSS 0.75F L             CCN000013000000013000FN00000000020220301000013000NNM   20211217163248    1W    00000100000000943000000000032P8    YIYTM   000000000000YT421124
BI00B32P8    TAPAW-2033     2022021518007704090              AVSS 0.75F L             CCN000013000000013000FN00000000020220301000013000NNM   20211217163248    1W    00000100000000943000000000032P8    YIYTM   000000000000YT122155
BI00B32P8    TAPAW-2034     2022022318007704090              AVSS 0.75F L             CCN000012000000012000FN00000000020220301000012000NNM   20211217163248    1W    00000100000000943000000000032P8    YIYTM   000000000000YT222136
BI00B32P8    TAPAW-2031     2022020218007704093              AVSS 0.75F L/B           CCN000008000000008000FN00000000020220301000008000NNM   20211217163248    1W    00000100000000943000000000032P8    YIYTM   000000000000YT321101
BI00B32P8    TAPAW-2032     2022020918007704093              AVSS 0.75F L/B           CCN000005000000005000FN00000000020220301000005000NNM   20211217163248    1W    00000100000000943000000000032P8    YIYTM   000000000000YT421125
BI00B32P8    TAPAW-2033     2022021518007704093              AVSS 0.75F L/B           CCN000005000000005000FN00000000020220301000005000NNM   20211217163248    1W    00000100000000943000000000032P8    YIYTM   000000000000YT122156
BI00B32P8    TAPAW-2034     2022022318007704093              AVSS 0.75F L/B           CCN000006000000006000FN00000000020220301000006000NNM   20211217163248    1W    00000100000000943000000000032P8    YIYTM   000000000000YT222137
BI00B32P8    TAPAW-2033     2022021518007704096              AVSS 0.75F L/G           CCN000001000000001000FN00000000020220301000001000NNM   20211217163248    1W    00000100000000943000000000032P8    YIYTM   000000000000YT122157
BI00B32P8    TAPAW-2031     2022020218007704095              AVSS 0.75F L/R           CCN000001000000001000FN00000000020220301000001000NNM   20211217163248    1W    00000100000000943000000000032P8    YIYTM   000000000000YT321102
BI00B32P8    TAPAW-2032     2022020918007704095              AVSS 0.75F L/R           CCN000002000000002000FN00000000020220301000002000NNM   20211217163248    1W    00000100000000943000000000032P8    YIYTM   000000000000YT421126
BI00B32P8    TAPAW-2033     2022021518007704095              AVSS 0.75F L/R           CCN000003000000003000FN00000000020220301000003000NNM   20211217163248    1W    00000100000000943000000000032P8    YIYTM   000000000000YT122158
BI00B32P8    TAPAW-2034     2022022318007704095              AVSS 0.75F L/R           CCN000003000000003000FN00000000020220301000003000NNM   20211217163248    1W    00000100000000943000000000032P8    YIYTM   000000000000YT222138
BI00B32P8    TAPAW-2031     2022020218007704094              AVSS 0.75F L/W           CCN000002000000002000FN00000000020220301000002000NNM   20211217163248    1W    00000100000000943000000000032P8    YIYTM   000000000000YT321103
BI00B32P8    TAPAW-2032     2022020918007704094              AVSS 0.75F L/W           CCN000006000000006000FN00000000020220301000006000NNM   20211217163248    1W    00000100000000943000000000032P8    YIYTM   000000000000YT421127
BI00B32P8    TAPAW-2033     2022021518007704094              AVSS 0.75F L/W           CCN000006000000006000FN00000000020220301000006000NNM   20211217163248    1W    00000100000000943000000000032P8    YIYTM   000000000000YT122159
BI00B32P8    TAPAW-2034     2022022318007704094              AVSS 0.75F L/W           CCN000005000000005000FN00000000020220301000005000NNM   20211217163248    1W    00000100000000943000000000032P8    YIYTM   000000000000YT222139
BI00B32P8    TAPAW-2031     2022020218007704097              AVSS 0.75F L/Y           CCN000015000000015000FN00000000020220301000015000NNM   20211217163248    1W    00000100000000943000000000032P8    YIYTM   000000000000YT321104
BI00B32P8    TAPAW-2032     2022020918007704097              AVSS 0.75F L/Y           CCN000009000000009000FN00000000020220301000009000NNM   20211217163248    1W    00000100000000943000000000032P8    YIYTM   000000000000YT421128
BI00B32P8    TAPAW-2033     2022021518007704097              AVSS 0.75F L/Y           CCN000010000000010000FN00000000020220301000010000NNM   20211217163248    1W    00000100000000943000000000032P8    YIYTM   000000000000YT122160
BI00B32P8    TAPAW-2034     2022022318007704097              AVSS 0.75F L/Y           CCN000009000000009000FN00000000020220301000009000NNM   20211217163248    1W    00000100000000943000000000032P8    YIYTM   000000000000YT222140
BI00B32P8    TAPAW-2031     2022020218007704061              AVSS 0.75F LG            CCN000003000000003000FN00000000020220301000003000NNM   20211217163248    1W    00000100000000943000000000032P8    YIYTM   000000000000YT321105
BI00B32P8    TAPAW-2032     2022020918007704061              AVSS 0.75F LG            CCN000002000000002000FN00000000020220301000002000NNM   20211217163248    1W    00000100000000943000000000032P8    YIYTM   000000000000YT421129
BI00B32P8    TAPAW-2033     2022021518007704061              AVSS 0.75F LG            CCN000002000000002000FN00000000020220301000002000NNM   20211217163248    1W    00000100000000943000000000032P8    YIYTM   000000000000YT122161
BI00B32P8    TAPAW-2034     2022022318007704061              AVSS 0.75F LG            CCN000002000000002000FN00000000020220301000002000NNM   20211217163248    1W    00000100000000943000000000032P8    YIYTM   000000000000YT222141
BI00B32P8    TAPAW-2032     2022020918007704052              AVSS 0.75F P             CCN000001000000001000FN00000000020220301000001000NNM   20211217163248    1W    00000100000000943000000000032P8    YIYTM   000000000000YT421130
BI00B32P8    TAPAW-2033     2022021518007704052              AVSS 0.75F P             CCN000001000000001000FN00000000020220301000001000NNM   20211217163248    1W    00000100000000943000000000032P8    YIYTM   000000000000YT122162
BI00B32P8    TAPAW-2034     2022022318007704052              AVSS 0.75F P             CCN000001000000001000FN00000000020220301000001000NNM   20211217163248    1W    00000100000000943000000000032P8    YIYTM   000000000000YT222143
BI00B32P8    TAPAW-2034     20220223180077040H2              AVSS 0.75F P/G           CCN000002000000002000FN00000000020220301000002000NNM   20211217163248    1W    00000100000000943000000000032P8    YIYTM   000000000000YT222144
BI00B32P8    TAPAW-2031     2022020218007704050              AVSS 0.75F R             CCN000003000000003000FN00000000020220301000003000NNM   20211217163248    1W    00000100000000943000000000032P8    YIYTM   000000000000YT321106
BI00B32P8    TAPAW-2032     2022020918007704050              AVSS 0.75F R             CCN000012000000012000FN00000000020220301000012000NNM   20211217163248    1W    00000100000000943000000000032P8    YIYTM   000000000000YT421131
BI00B32P8    TAPAW-2033     2022021518007704050              AVSS 0.75F R             CCN000012000000012000FN00000000020220301000012000NNM   20211217163248    1W    00000100000000943000000000032P8    YIYTM   000000000000YT122163
BI00B32P8    TAPAW-2034     2022022318007704050              AVSS 0.75F R             CCN000012000000012000FN00000000020220301000012000NNM   20211217163248    1W    00000100000000943000000000032P8    YIYTM   000000000000YT222145
BI00B32P8    TAPAW-2032     2022020918007704053              AVSS 0.75F R/B           CCN000002000000002000FN00000000020220301000002000NNM   20211217163248    1W    00000100000000943000000000032P8    YIYTM   000000000000YT421132
BI00B32P8    TAPAW-2033     2022021518007704053              AVSS 0.75F R/B           CCN000002000000002000FN00000000020220301000002000NNM   20211217163248    1W    00000100000000943000000000032P8    YIYTM   000000000000YT122164
BI00B32P8    TAPAW-2034     2022022318007704053              AVSS 0.75F R/B           CCN000002000000002000FN00000000020220301000002000NNM   20211217163248    1W    00000100000000943000000000032P8    YIYTM   000000000000YT222146
BI00B32P8    TAPAW-2031     2022020218007704056              AVSS 0.75F R/G           CCN000006000000006000FN00000000020220301000006000NNM   20211217163248    1W    00000100000000943000000000032P8    YIYTM   000000000000YT321107
BI00B32P8    TAPAW-2032     2022020918007704056              AVSS 0.75F R/G           CCN000004000000004000FN00000000020220301000004000NNM   20211217163248    1W    00000100000000943000000000032P8    YIYTM   000000000000YT421133
BI00B32P8    TAPAW-2033     2022021518007704056              AVSS 0.75F R/G           CCN000005000000005000FN00000000020220301000005000NNM   20211217163248    1W    00000100000000943000000000032P8    YIYTM   000000000000YT122165
BI00B32P8    TAPAW-2034     2022022318007704056              AVSS 0.75F R/G           CCN000004000000004000FN00000000020220301000004000NNM   20211217163248    1W    00000100000000943000000000032P8    YIYTM   000000000000YT222147
BI00B32P8    TAPAW-2033     2022021518007704059              AVSS 0.75F R/L           CCN000001000000001000FN00000000020220301000001000NNM   20211217163248    1W    00000100000000943000000000032P8    YIYTM   000000000000YT122166
BI00B32P8    TAPAW-2034     2022022318007704059              AVSS 0.75F R/L           CCN000004000000004000FN00000000020220301000004000NNM   20211217163248    1W    00000100000000943000000000032P8    YIYTM   000000000000YT222148
BI00B32P8    TAPAW-2032     2022020918007704054              AVSS 0.75F R/W           CCN000003000000003000FN00000000020220301000003000NNM   20211217163248    1W    00000100000000943000000000032P8    YIYTM   000000000000YT421134
BI00B32P8    TAPAW-2033     2022021518007704054              AVSS 0.75F R/W           CCN000006000000006000FN00000000020220301000006000NNM   20211217163248    1W    00000100000000943000000000032P8    YIYTM   000000000000YT122167
BI00B32P8    TAPAW-2034     2022022318007704054              AVSS 0.75F R/W           CCN000006000000006000FN00000000020220301000006000NNM   20211217163248    1W    00000100000000943000000000032P8    YIYTM   000000000000YT222149
BI00B32P8    TAPAW-2031     2022020218007704057              AVSS 0.75F R/Y           CCN000014000000014000FN00000000020220301000014000NNM   20211217163248    1W    00000100000000943000000000032P8    YIYTM   000000000000YT321108
BI00B32P8    TAPAW-2032     2022020918007704057              AVSS 0.75F R/Y           CCN000008000000008000FN00000000020220301000008000NNM   20211217163248    1W    00000100000000943000000000032P8    YIYTM   000000000000YT421135
BI00B32P8    TAPAW-2033     2022021518007704057              AVSS 0.75F R/Y           CCN000009000000009000FN00000000020220301000009000NNM   20211217163248    1W    00000100000000943000000000032P8    YIYTM   000000000000YT122168
BI00B32P8    TAPAW-2034     2022022318007704057              AVSS 0.75F R/Y           CCN000008000000008000FN00000000020220301000008000NNM   20211217163248    1W    00000100000000943000000000032P8    YIYTM   000000000000YT222150
BI00B32P8    TAPAW-2033     2022021518007704092              AVSS 0.75F V             CCN000005000000005000FN00000000020220301000005000NNM   20211217163248    1W    00000100000000943000000000032P8    YIYTM   000000000000YT122169
BI00B32P8    TAPAW-2034     2022022318007704092              AVSS 0.75F V             CCN000005000000005000FN00000000020220301000005000NNM   20211217163248    1W    00000100000000943000000000032P8    YIYTM   000000000000YT222151
BI00B32P8    TAPAW-2032     2022020918007704040              AVSS 0.75F W             CCN000008000000008000FN00000000020220301000008000NNM   20211217163248    1W    00000100000000943000000000032P8    YIYTM   000000000000YT421138
BI00B32P8    TAPAW-2033     2022021518007704040              AVSS 0.75F W             CCN000009000000009000FN00000000020220301000009000NNM   20211217163248    1W    00000100000000943000000000032P8    YIYTM   000000000000YT122172
BI00B32P8    TAPAW-2034     2022022318007704040              AVSS 0.75F W             CCN000008000000008000FN00000000020220301000008000NNM   20211217163248    1W    00000100000000943000000000032P8    YIYTM   000000000000YT222155
BI00B32P8    TAPAW-2033     2022021518007704046              AVSS 0.75F W/G           CCN000002000000002000FN00000000020220301000002000NNM   20211217163248    1W    00000100000000943000000000032P8    YIYTM   000000000000YT122173
BI00B32P8    TAPAW-2034     2022022318007704046              AVSS 0.75F W/G           CCN000003000000003000FN00000000020220301000003000NNM   20211217163248    1W    00000100000000943000000000032P8    YIYTM   000000000000YT222156
BI00B32P8    TAPAW-2032     2022020918007704049              AVSS 0.75F W/L           CCN000003000000003000FN00000000020220301000003000NNM   20211217163248    1W    00000100000000943000000000032P8    YIYTM   000000000000YT421139
BI00B32P8    TAPAW-2033     2022021518007704049              AVSS 0.75F W/L           CCN000006000000006000FN00000000020220301000006000NNM   20211217163248    1W    00000100000000943000000000032P8    YIYTM   000000000000YT122174
BI00B32P8    TAPAW-2034     2022022318007704049              AVSS 0.75F W/L           CCN000005000000005000FN00000000020220301000005000NNM   20211217163248    1W    00000100000000943000000000032P8    YIYTM   000000000000YT222157
BI00B32P8    TAPAW-2031     2022020218007704045              AVSS 0.75F W/R           CCN000009000000009000FN00000000020220301000009000NNM   20211217163248    1W    00000100000000943000000000032P8    YIYTM   000000000000YT321111
BI00B32P8    TAPAW-2032     2022020918007704045              AVSS 0.75F W/R           CCN000004000000004000FN00000000020220301000004000NNM   20211217163248    1W    00000100000000943000000000032P8    YIYTM   000000000000YT421140
BI00B32P8    TAPAW-2033     2022021518007704045              AVSS 0.75F W/R           CCN000005000000005000FN00000000020220301000005000NNM   20211217163248    1W    00000100000000943000000000032P8    YIYTM   000000000000YT122175
BI00B32P8    TAPAW-2034     2022022318007704045              AVSS 0.75F W/R           CCN000004000000004000FN00000000020220301000004000NNM   20211217163248    1W    00000100000000943000000000032P8    YIYTM   000000000000YT222158
BI00B32P8    TAPAW-2032     2022020918007704070              AVSS 0.75F Y             CCN000002000000002000FN00000000020220301000002000NNM   20211217163248    1W    00000100000000943000000000032P8    YIYTM   000000000000YT421141
BI00B32P8    TAPAW-2033     2022021518007704070              AVSS 0.75F Y             CCN000005000000005000FN00000000020220301000005000NNM   20211217163248    1W    00000100000000943000000000032P8    YIYTM   000000000000YT122176
BI00B32P8    TAPAW-2034     2022022318007704070              AVSS 0.75F Y             CCN000004000000004000FN00000000020220301000004000NNM   20211217163248    1W    00000100000000943000000000032P8    YIYTM   000000000000YT222159
BI00B32P8    TAPAW-2031     2022020218007704073              AVSS 0.75F Y/B           CCN000007000000007000FN00000000020220301000007000NNM   20211217163248    1W    00000100000000943000000000032P8    YIYTM   000000000000YT321112
BI00B32P8    TAPAW-2032     2022020918007704073              AVSS 0.75F Y/B           CCN000003000000003000FN00000000020220301000003000NNM   20211217163248    1W    00000100000000943000000000032P8    YIYTM   000000000000YT421142
BI00B32P8    TAPAW-2033     2022021518007704073              AVSS 0.75F Y/B           CCN000004000000004000FN00000000020220301000004000NNM   20211217163248    1W    00000100000000943000000000032P8    YIYTM   000000000000YT122177
BI00B32P8    TAPAW-2034     2022022318007704073              AVSS 0.75F Y/B           CCN000003000000003000FN00000000020220301000003000NNM   20211217163248    1W    00000100000000943000000000032P8    YIYTM   000000000000YT222160
BI00B32P8    TAPAW-2031     2022020218007704075              AVSS 0.75F Y/R           CCN000009000000009000FN00000000020220301000009000NNM   20211217163248    1W    00000100000000943000000000032P8    YIYTM   000000000000YT321114
BI00B32P8    TAPAW-2032     2022020918007704075              AVSS 0.75F Y/R           CCN000010000000010000FN00000000020220301000010000NNM   20211217163248    1W    00000100000000943000000000032P8    YIYTM   000000000000YT421144
BI00B32P8    TAPAW-2033     2022021518007704075              AVSS 0.75F Y/R           CCN000010000000010000FN00000000020220301000010000NNM   20211217163248    1W    00000100000000943000000000032P8    YIYTM   000000000000YT122179
BI00B32P8    TAPAW-2034     2022022318007704075              AVSS 0.75F Y/R           CCN000010000000010000FN00000000020220301000010000NNM   20211217163248    1W    00000100000000943000000000032P8    YIYTM   000000000000YT222162
BI00B32P8    TAPAW-2031     2022020218007704130              AVSS 1.25F B             CCN000018400000018400FN00000000020220301000018400NNM   20211217163248    1W    00000080000001389000000000032P8    YIYTM   000000000000YT321115
BI00B32P8    TAPAW-2032     2022020918007704130              AVSS 1.25F B             CCN000020000000020000FN00000000020220301000020000NNM   20211217163248    1W    00000080000001389000000000032P8    YIYTM   000000000000YT421145
BI00B32P8    TAPAW-2033     2022021518007704130              AVSS 1.25F B             CCN000019200000019200FN00000000020220301000019200NNM   20211217163248    1W    00000080000001389000000000032P8    YIYTM   000000000000YT122180
BI00B32P8    TAPAW-2034     2022022318007704130              AVSS 1.25F B             CCN000019200000019200FN00000000020220301000019200NNM   20211217163248    1W    00000080000001389000000000032P8    YIYTM   000000000000YT222163
BI00B32P8    TAPAW-2031     2022020218007704135              AVSS 1.25F B/R           CCN000001600000001600FN00000000020220301000001600NNM   20211217163248    1W    00000080000001389000000000032P8    YIYTM   000000000000YT321116
BI00B32P8    TAPAW-2032     2022020918007704135              AVSS 1.25F B/R           CCN000001600000001600FN00000000020220301000001600NNM   20211217163248    1W    00000080000001389000000000032P8    YIYTM   000000000000YT421146
BI00B32P8    TAPAW-2033     2022021518007704135              AVSS 1.25F B/R           CCN000001600000001600FN00000000020220301000001600NNM   20211217163248    1W    00000080000001389000000000032P8    YIYTM   000000000000YT122182
BI00B32P8    TAPAW-2034     2022022318007704135              AVSS 1.25F B/R           CCN000001600000001600FN00000000020220301000001600NNM   20211217163248    1W    00000080000001389000000000032P8    YIYTM   000000000000YT222164
BI00B32P8    TAPAW-2031     2022020218007704134              AVSS 1.25F B/W           CCN000007200000007200FN00000000020220301000007200NNM   20211217163248    1W    00000080000001389000000000032P8    YIYTM   000000000000YT321117
BI00B32P8    TAPAW-2032     2022020918007704134              AVSS 1.25F B/W           CCN000006400000006400FN00000000020220301000006400NNM   20211217163248    1W    00000080000001389000000000032P8    YIYTM   000000000000YT421147
BI00B32P8    TAPAW-2033     2022021518007704134              AVSS 1.25F B/W           CCN000005600000005600FN00000000020220301000005600NNM   20211217163248    1W    00000080000001389000000000032P8    YIYTM   000000000000YT122183
BI00B32P8    TAPAW-2034     2022022318007704134              AVSS 1.25F B/W           CCN000006400000006400FN00000000020220301000006400NNM   20211217163248    1W    00000080000001389000000000032P8    YIYTM   000000000000YT222165
BI00B32P8    TAPAW-2032     2022020918007704180              AVSS 1.25F BR            CCN000000800000000800FN00000000020220301000000800NNM   20211217163248    1W    00000080000001389000000000032P8    YIYTM   000000000000YT421148
BI00B32P8    TAPAW-2033     2022021518007704180              AVSS 1.25F BR            CCN000000800000000800FN00000000020220301000000800NNM   20211217163248    1W    00000080000001389000000000032P8    YIYTM   000000000000YT122184
BI00B32P8    TAPAW-2034     2022022318007704180              AVSS 1.25F BR            CCN000001600000001600FN00000000020220301000001600NNM   20211217163248    1W    00000080000001389000000000032P8    YIYTM   000000000000YT222166
BI00B32P8    TAPAW-2032     2022020918007704184              AVSS 1.25F BR/W          CCN000000800000000800FN00000000020220301000000800NNM   20211217163248    1W    00000080000001389000000000032P8    YIYTM   000000000000YT421149
BI00B32P8    TAPAW-2033     2022021518007704184              AVSS 1.25F BR/W          CCN000000800000000800FN00000000020220301000000800NNM   20211217163248    1W    00000080000001389000000000032P8    YIYTM   000000000000YT122185
BI00B32P8    TAPAW-2032     2022020918007704160              AVSS 1.25F G             CCN000003200000003200FN00000000020220301000003200NNM   20211217163248    1W    00000080000001389000000000032P8    YIYTM   000000000000YT421150
BI00B32P8    TAPAW-2033     2022021518007704160              AVSS 1.25F G             CCN000003200000003200FN00000000020220301000003200NNM   20211217163248    1W    00000080000001389000000000032P8    YIYTM   000000000000YT122186
BI00B32P8    TAPAW-2034     2022022318007704160              AVSS 1.25F G             CCN000004000000004000FN00000000020220301000004000NNM   20211217163248    1W    00000080000001389000000000032P8    YIYTM   000000000000YT222167
BI00B32P8    TAPAW-2031     2022020218007704165              AVSS 1.25F G/R           CCN000003200000003200FN00000000020220301000003200NNM   20211217163248    1W    00000080000001389000000000032P8    YIYTM   000000000000YT321118
BI00B32P8    TAPAW-2032     2022020918007704165              AVSS 1.25F G/R           CCN000002400000002400FN00000000020220301000002400NNM   20211217163248    1W    00000080000001389000000000032P8    YIYTM   000000000000YT421151
BI00B32P8    TAPAW-2033     2022021518007704165              AVSS 1.25F G/R           CCN000002400000002400FN00000000020220301000002400NNM   20211217163248    1W    00000080000001389000000000032P8    YIYTM   000000000000YT122188
BI00B32P8    TAPAW-2034     2022022318007704165              AVSS 1.25F G/R           CCN000003200000003200FN00000000020220301000003200NNM   20211217163248    1W    00000080000001389000000000032P8    YIYTM   000000000000YT222168
BI00B32P8    TAPAW-2031     2022020218007704141              AVSS 1.25F GY            CCN000005600000005600FN00000000020220301000005600NNM   20211217163248    1W    00000080000001389000000000032P8    YIYTM   000000000000YT321119
BI00B32P8    TAPAW-2032     2022020918007704141              AVSS 1.25F GY            CCN000004000000004000FN00000000020220301000004000NNM   20211217163248    1W    00000080000001389000000000032P8    YIYTM   000000000000YT421152
BI00B32P8    TAPAW-2033     2022021518007704141              AVSS 1.25F GY            CCN000004000000004000FN00000000020220301000004000NNM   20211217163248    1W    00000080000001389000000000032P8    YIYTM   000000000000YT122189
BI00B32P8    TAPAW-2034     2022022318007704141              AVSS 1.25F GY            CCN000004000000004000FN00000000020220301000004000NNM   20211217163248    1W    00000080000001389000000000032P8    YIYTM   000000000000YT222169
BI00B32P8    TAPAW-2033     2022021518007704190              AVSS 1.25F L             CCN000001600000001600FN00000000020220301000001600NNM   20211217163248    1W    00000080000001389000000000032P8    YIYTM   000000000000YT122190
BI00B32P8    TAPAW-2034     2022022318007704190              AVSS 1.25F L             CCN000004000000004000FN00000000020220301000004000NNM   20211217163248    1W    00000080000001389000000000032P8    YIYTM   000000000000YT222170
BI00B32P8    TAPAW-2032     2022020918007704193              AVSS 1.25F L/B           CCN000001600000001600FN00000000020220301000001600NNM   20211217163248    1W    00000080000001389000000000032P8    YIYTM   000000000000YT421153
BI00B32P8    TAPAW-2033     2022021518007704193              AVSS 1.25F L/B           CCN000001600000001600FN00000000020220301000001600NNM   20211217163248    1W    00000080000001389000000000032P8    YIYTM   000000000000YT122191
BI00B32P8    TAPAW-2034     2022022318007704193              AVSS 1.25F L/B           CCN000001600000001600FN00000000020220301000001600NNM   20211217163248    1W    00000080000001389000000000032P8    YIYTM   000000000000YT222171
BI00B32P8    TAPAW-2033     2022021518007704197              AVSS 1.25F L/Y           CCN000003200000003200FN00000000020220301000003200NNM   20211217163248    1W    00000080000001389000000000032P8    YIYTM   000000000000YT122192
BI00B32P8    TAPAW-2034     2022022318007704197              AVSS 1.25F L/Y           CCN000004000000004000FN00000000020220301000004000NNM   20211217163248    1W    00000080000001389000000000032P8    YIYTM   000000000000YT222172
BI00B32P8    TAPAW-2034     2022022318007704152              AVSS 1.25F P             CCN000000800000000800FN00000000020220301000000800NNM   20211217163248    1W    00000080000001389000000000032P8    YIYTM   000000000000YT222173
BI00B32P8    TAPAW-2033     2022021518007704150              AVSS 1.25F R             CCN000001600000001600FN00000000020220301000001600NNM   20211217163248    1W    00000080000001389000000000032P8    YIYTM   000000000000YT122193
BI00B32P8    TAPAW-2034     2022022318007704150              AVSS 1.25F R             CCN000007200000007200FN00000000020220301000007200NNM   20211217163248    1W    00000080000001389000000000032P8    YIYTM   000000000000YT222174
BI00B32P8    TAPAW-2033     2022021518007704159              AVSS 1.25F R/L           CCN000003200000003200FN00000000020220301000003200NNM   20211217163248    1W    00000080000001389000000000032P8    YIYTM   000000000000YT122195
BI00B32P8    TAPAW-2034     2022022318007704159              AVSS 1.25F R/L           CCN000003200000003200FN00000000020220301000003200NNM   20211217163248    1W    00000080000001389000000000032P8    YIYTM   000000000000YT222176
BI00B32P8    TAPAW-2031     2022020218007704154              AVSS 1.25F R/W           CCN000001600000001600FN00000000020220301000001600NNM   20211217163248    1W    00000080000001389000000000032P8    YIYTM   000000000000YT321121
BI00B32P8    TAPAW-2032     2022020918007704154              AVSS 1.25F R/W           CCN000002400000002400FN00000000020220301000002400NNM   20211217163248    1W    00000080000001389000000000032P8    YIYTM   000000000000YT421155
BI00B32P8    TAPAW-2033     2022021518007704154              AVSS 1.25F R/W           CCN000003200000003200FN00000000020220301000003200NNM   20211217163248    1W    00000080000001389000000000032P8    YIYTM   000000000000YT122196
BI00B32P8    TAPAW-2034     2022022318007704154              AVSS 1.25F R/W           CCN000002400000002400FN00000000020220301000002400NNM   20211217163248    1W    00000080000001389000000000032P8    YIYTM   000000000000YT222177
BI00B32P8    TAPAW-2032     2022020918007704157              AVSS 1.25F R/Y           CCN000004800000004800FN00000000020220301000004800NNM   20211217163248    1W    00000080000001389000000000032P8    YIYTM   000000000000YT421156
BI00B32P8    TAPAW-2033     2022021518007704157              AVSS 1.25F R/Y           CCN000004800000004800FN00000000020220301000004800NNM   20211217163248    1W    00000080000001389000000000032P8    YIYTM   000000000000YT122197
BI00B32P8    TAPAW-2034     2022022318007704157              AVSS 1.25F R/Y           CCN000004800000004800FN00000000020220301000004800NNM   20211217163248    1W    00000080000001389000000000032P8    YIYTM   000000000000YT222178
BI00B32P8    TAPAW-2032     2022020918007704140              AVSS 1.25F W             CCN000005600000005600FN00000000020220301000005600NNM   20211217163248    1W    00000080000001389000000000032P8    YIYTM   000000000000YT421157
BI00B32P8    TAPAW-2033     2022021518007704140              AVSS 1.25F W             CCN000012000000012000FN00000000020220301000012000NNM   20211217163248    1W    00000080000001389000000000032P8    YIYTM   000000000000YT122198
