BI00A1200    7360T51816     202112137289-3342                HOUSING FEMALE ASS'Y     CCN000009600000009600FY00000960020210901000000000NNED0420211217113919    1N0N  0000024000000068640000090141200    YCYC    005500360039
BI00A1200    7360T51815     202112157289-3342-90             HOUSING FEMALE ASS'Y     CCN000002400000002400FY00000240020210901000000000NNED0420211217114014    1N0N  0000024000000068640000090141200    YCYC    005500360039
BI00A1200    #2399T51920    202112157289-4200-30             HOUSING FEMALE ASS'Y     PCN000082000000040000FY00004000020211101000000000NNM00 20211217102525    2N0N  0000020000000092600000102101200    YCYC    005400370024
BI00A1200    #2399T51921    202112207289-4200-30             HOUSING FEMALE ASS'Y     PCN000082000000040000FY00004000020211101000000000NNMD0020211217103527    2N0N  0000020000000092600000102101200    YCYC    005400370024
BI00B1200    #2399T51920    202112287289-4200-30             HOUSING FEMALE ASS'Y     CCN000042000000042000FN00000000020211101000042000NNMD0420211217121642    2N0N  0000020000000092600000102101200    YCYC    005400370024
BI00A1200    #2399T51921    202201077289-4200-30             HOUSING FEMALE ASS'Y     PCN000042000000042000FN00000000020211101000042000NNMD0020211217121642    2N0N  0000020000000092600000102101200    YCYC    005400370024
BI00A1200    2399T51B20     202112237289-9553-50             SEALED ASSY FEMALE       CCN000020580000020580FN00000000020220101000020580NNMM0020211217170938    4N0N  0000029400000110810000152061200    YCYC    005500360039
BI00A1200    2399T51730     202112297288-6547                CONNECTOR MALE ASS'Y     PCN000150000000068250FN00000000020210901000068250NNMD0420211217165934    4N0N  0000007500000120530000134031200    YCYC    005400370024
BI00B1200    2399T51C21     202201067289-9612-30             HOUSING FEMALE ASS'Y     CCN000000720000000720FN00000000020220101000000720NNMM0020211217144938    4N0N  0000002400000134880000166881200    YCYC    005500360039
BI00B1200    CE21-MN-0157   202112247196-2024-02             TERMINAL FEMALE          CCN000024000000024000FN00000000020201201000024000NNED0020211217121642    4P0P  0000240000000091920000108261200    YCYC    005100280028
BI00B1200    CE21-MN-0157   202112247196-2027-02             TERMINAL FEMALE          CCN000024000000024000FN00000000020201201000024000NNED0020211217121642    4P0P  0000240000000104400000120741200    YCYC    005100280028
BI00B1200    CE21-MN-0157   202112247196-2030-02             TERMINAL FEMALE          CCN000015000000015000FN00000000020201201000015000NNED0020211217121642    4P0P  0000150000000100200000116541200    YCYC    005100280028
BI00B1200    CE21-MN-0157   202112247196-2032-02             TERMINAL FEMALE          CCN000015000000015000FN00000000020201201000015000NNED0020211217121642    4P0P  0000150000000107100000123441200    YCYC    005100280028
BI00B1200    2399T51C30     202202177289-6868-30             SEALED ASSY FEMALE       CCN000005040000005040FN00000000020220201000005040NNED0420211217121642    4N0N  0000025200000083920000111921200    YCYC    005500360039
BI00A1200    2399T51730     202112277288-6547                CONNECTOR MALE ASS'Y     PCN000050250000050250FN00000000020210901000050250NNMD0420211217165934    4N0N  0000007500000120530000134031200    YCYC    005400370024
BI00B1200    #BY02622       202202037154-5597-30             CASSETTE R/B             CCN000000800000000800FN00000000020220301000000800NNE   20211217121642    2F0F  0000008000000073600000095201200    YCYC    005500360039
BI00B32AF    JTB1124        202112207289-3342-30             HOUSING FEMALE ASS'Y     CCN000040800000040800FN00000000020211201000040800NNM00020211217121642    1N0N  00000240000000686400000901432AF    HBYHVTB 005500360039
BI00B32AF    JTB2011        202112207289-3342-30             HOUSING FEMALE ASS'Y     CCN000086400000086400FN00000000020220101000086400NNM00020211217121642    1N0N  00000240000000686400000901432AF    HBYHVTB 005500360039
BI00B32AF    JTB2012        202112207289-3342-30             HOUSING FEMALE ASS'Y     CCN000055200000055200FN00000000020220101000055200NNM00020211217121642    1N0N  00000240000000686400000901432AF    HBYHVTB 005500360039
BI00B32AG    XG2202CCMW     202202047C89-6868-30             SEALED ASSY FEMALE       CCN000005040000005040FN00000000020220201000005040NNED0420211217121642    4N0N  00000252000000839200001119232AG    XGXGY   005500360039
BI00B32AG    XG2202CCMW     202202047298-3822-70             HOUSING FEMALE ASS'Y     CCN000007560000007560FN00000000020220201000007560NNED0420211217121642    4N0N  00000252000000776200001077032AG    XGXGY   005500360039
BI00A32B1    #A22007        202112217157-3891                RUBBER STOPPER           CCN000010000000010000FN00000000020220401000010000NNMM0020211217153840B1  2H0H  00001000000000145000000241732B1    AXARNE-M004300270014
BI00B32CA    PTA32032       202112167289-3342-90             HOUSING FEMALE ASS'Y     CCN000007200000007200FY00000720020220101000000000NNMD0720211217114341    1N0N  00000240000000686400000901432CA    YPYPY   005500360039
BI00B32CA    PTA32034       202112167289-3342                HOUSING FEMALE ASS'Y     CCN000057600000057600FY00005760020220101000000000NNMD0720211217114419    1N0N  00000240000000686400000901432CA    YPYPY   005500360039
BI00B32CG    S211216-S      202202237116-4025                TERMINAL                 CCN000016000000016000FN00000000020220201000016000NNE   20211217150804    4P0P  00001600000000644800000975132CG    ASASIACO006400630017
BI00B32CG    S211216-S      202202237116-4120-02             TERMINAL                 CCN000006000000006000FN00000000020220201000006000NNE   20211217150804    4P0P  00000600000000780000001073632CG    ASASIACO006400630015
BI00B32CG    S211216-S      202202237116-4121-02             TERMINAL                 CCN000013500000013500FN00000000020220201000013500NNE   20211217150804    4P0P  00000450000000618800000912432CG    ASASIACO006400630015
BI00B32CG    #S211217-S     202202237158-3121-80             WIRE SEAL                CCN000080000000080000FN00000000020220201000080000NNE   20211217150915    2C0C  00002000000000118000000187332CG    ASASIACO002700430014
BI00B32DE    TCT1114        202112307283-1289-40             CONNECTOR HOUSING        CCN000005400000005400FN00000000020211101000005400NNMD0020211217133023    1N0N  00000060000000679800000824832DE    TVYEV-TV005400370024
BI00B32DE    TCT1114        202112307283-8228-40             CONNECTOR                CCN000003000000003000FN00000000020211101000003000NNMD0020211217133753    4N0N  00000300000001215000001361032DE    TVYEV-TV005600390040
BI00B32DE    TCT2012        202112307283-1288-10             CONNECTOR HOUSING        CCN000002400000002400FN00000000020220101000002400NNMD0020211217134021    4N0N  00000120000001381000001637032DE    TVYEV-TV005600390040
BI00B32DE    TCT2013        202112307283-1288-10             CONNECTOR HOUSING        CCN000046800000046800FN00000000020220101000046800NNMD0020211217134207    4N0N  00000120000001381000001637032DE    TVYEV-TV005600390040
BI00B32DE    TCT2013        202112307283-1289-30             CONNECTOR HOUSING        CCN000001800000001800FN00000000020220101000001800NNMD0020211217134101    1N0N  00000060000000675600000820632DE    TVYEV-TV005400370024
BI00B32DE    TCT2013        202112307283-3013-30             CONNECTOR                CCN000004000000004000FN00000000020220101000004000NNMD0020211217134226    4N0N  00000200000001138000001284032DE    TVYEV-TV005600390040
BI00B32DJ    GHT2202B 2     202202037C89-6868-30             SEALED ASSY FEMALE       CCN000007560000007560FN00000000020220201000007560NNMD0420211217121642    4N0N  00000252000000839200001119232DJ    RBYIPLRB005500360039
BI00B32DJ    GHT2202B 2     202202037C98-1145-4W             SQUIB SUB ASS'Y          CCN000010000000010000FN00000000020220201000010000NNMD0420211217121642    4N0N  00001000000000787900000944932DJ    RBYIPLRB005400370024
BI00B32D1    DFTC2203       202112157388-2978-30             HOUSING MALE ASS'Y       CCN000016320000016320FY00001632020220101000000000NNMD0720211217114526    1N0N  00000048000000742000001122032D1    TOYOT-K 005500360039
BI00B32D1    DFTC2205       202112237288-6547                CONNECTOR MALE ASS'Y     CCN000011250000011250FN00000000020220201000011250NNM00020211217121642    4N0N  00000075000001205300001340332D1    TOYOT-K 005400370024
BI00B32D1    DFTC2205       202112237289-3342-30             HOUSING FEMALE ASS'Y     CCN000084000000084000FN00000000020220201000084000NNM00020211217121642    1N0N  00000240000000686400000901432D1    TOYOT-K 005500360039
BI00B32D1    DFTC2205       202112237289-6547                HOUSING FEMALE ASS'Y     CCN000012000000012000FN00000000020220201000012000NNM00020211217121642    1N0N  00000240000001152000001362032D1    TOYOT-K 005500360039
BI00B32D1    DFTC2205       202112237327-6731-3W             BATTERY FUSE             CCN000000768000000768FN00000000020220201000000768NNM00020211217121642    4N0N  00000006400000697600000843032D1    TOYOT-K 005400370024
BI00B32D2    #DGTC2152      202112167172-5631-60             RUBBER STOPPER           CCN000200000000200000FY00020000020211201000000000NNMD0720211217114451    2H0H  00002000000000042000000093132D2    TGYOT-G 004300270014
BI00B32D2    DGTC2152       202112237289-3342                HOUSING FEMALE ASS'Y     CCN000033600000033600FN00000000020211201000033600NNMD0420211217161257    1N0N  00000240000000686400000901432D2    TGYOT-G 005500360039
BI00B32G7    JJ2202ALMW     202201137116-4116-02             TERMINAL                 CCN000034500000034500FN00000000020220201000034500NNE   20211217121642    4P0P  00000690000000517500000805732G7    JIJAI   006400630015
BI00B32G7    JJ2202B MW     202201137017-1181-02             TERMINAL                 CCN000063000000063000FN00000000020220201000063000NNE   20211217121642    4P0P  00006300000001089900001266832G7    JIJAI   005100280028
BI00B32G7    JJ2202B MW     202201137116-2891-02             TERMINAL                 CCN000015000000015000FN00000000020220201000015000NNE   20211217121642    4P0P  00001500000000982500001145932G7    JIJAI   005100280028
BI00B32G7    JJ2202B MW     202201137116-2892-02             TERMINAL                 CCN000012000000012000FN00000000020220201000012000NNE   20211217121642    4P0P  00001200000000818400000981832G7    JIJAI   005100280028
BI00B32G7    JJ2202B MW     202201137116-4028-08             TERMINAL FEMALE          CCN000176000000176000FN00000000020220201000176000NNE   20211217121642    4P0P  00001600000000652800000981532G7    JIJAI   006400630017
BI00B32G7    JJ2202B MW     202201137116-5045-02             TERMINAL                 CCN000128000000128000FN00000000020220201000128000NNE   20211217121642    4P0P  00001600000000678400001007132G7    JIJAI   006400630017
BI00B32G7    JJ2202B MW     202201137116-5751-02             TERMINAL                 CCN000012000000012000FN00000000020220201000012000NNE   20211217121642    4P0P  00001200000000379200000664432G7    JIJAI   006400630015
BI00B32G7    JJ2202B MW     202201137126-8853-02             TERMINAL                 CCN000015000000015000FN00000000020220201000015000NNE   20211217121642    4P0P  00000750000000562500000847732G7    JIJAI   006400630015
BI00B32G7    JJ2202B MW     202201137126-8855-02             TERMINAL                 CCN000024000000024000FN00000000020220201000024000NNE   20211217121642    4P0P  00000600000000510600000795832G7    JIJAI   006400630015
BI00B32G7    JJ2202B MW     202201137158-3006-90             RUBBER STOPPER           CCN000040000000040000FN00000000020220201000040000NNE   20211217121642    1C0C  00002000000000330600000386032G7    JIJAI   002700430014
BI00B32G7    JJ2202B MW     202201137158-3009-60             RUBBER STOPPER           CCN000020000000020000FN00000000020220201000020000NNE   20211217121642    1C0C  00002000000000338000000386232G7    JIJAI   002700430014
BI00B32G7    JJ2202B MW     202201137158-3070-80             RUBBER STOPPER           CCN000040000000040000FN00000000020220201000040000NNE   20211217121642    1C0C  00004000000000276000000333332G7    JIJAI   002700430014
BI00B32G7    JJ2202B MW     202201137289-3342-30             HOUSING FEMALE ASS'Y     CCN000069600000069600FN00000000020220201000069600NNE   20211217121642    1N0N  00000240000000686400000901432G7    JIJAI   005500360039
BI00B32G7    #JJ2202B MW    202201137158-3003-90             RUBBER STOPPER           CCN000200000000200000FN00000000020220201000200000NNE   20211217121642    2C0C  00002000000000250000000306032G7    JIJAI   002700430014
BI00B32G7    #JJ2202B MW    202201137158-3004-40             RUBBER STOPPER           CCN000100000000100000FN00000000020220201000100000NNE   20211217121642    2C0C  00002000000000234000000306332G7    JIJAI   002700430014
BI00B32G7    #JJ2202B MW    202201137158-3007-10             RUBBER STOPPER           CCN000100000000100000FN00000000020220201000100000NNE   20211217121642    2H0H  00002000000000308000000362732G7    JIJAI   002700430014
BI00B32G7    @JJ2202B MW    202201137282-1040                HOUSING SUB ASSEMBLY     CCN000002400000002400FN00000000020220201000002400NNE   20211217121642    3N0N  00000240000001014400001256032G7    JIJAI   005500360039
BI00B32G7    JJ2202BMMW     202201137158-3022-80             RUBBER STOPPER           CCN000005000000005000FN00000000020220201000005000NNE   20211217121642    1C0C  00000500000000467500000524032G7    JIJAI   002700430014
BI00B32G7    JJ2202BMMW     202201137196-1104-02             TERMINAL                 CCN000022500000022500FN00000000020220201000022500NNE   20211217121642    4P0P  00002250000000441000000726232G7    JIJAI   006400630015
BI00B32G7    JJ2202BMMW     202201137289-3342                HOUSING FEMALE ASS'Y     CCN000009600000009600FN00000000020220201000009600NNE   20211217121642    1N0N  00000240000000686400000901432G7    JIJAI   005500360039
BI00B32G7    JJ2202BMMW     202201137296-0784-02             TERMINAL ALUMINIUM       CCN000024000000024000FN00000000020220201000024000NNE   20211217121642    4P0P  00002400000000480000000765232G7    JIJAI   006400630015
BI00B32G7    #JJ2202BMMW    202201137158-3005-80             RUBBER STOPPER           CCN000040000000040000FN00000000020220201000040000NNE   20211217121642    2H0H  00002000000000210000000268732G7    JIJAI   002700430014
BI00B32G7    #JJ2202BMMW    202201137172-5627-60             RUBBER STOPPER           CCN000020000000020000FN00000000020220201000020000NNE   20211217121642    2H0H  00002000000000070400000121832G7    JIJAI   004300270014
BI00B32G7    #JJ2202BMMW    202201137172-5629-80             RUBBER STOPPER           CCN000020000000020000FN00000000020220201000020000NNE   20211217121642    2H0H  00002000000000060000000111132G7    JIJAI   004300270014
BI00B32G7    #JJ2202BMMW    202201137172-5632-10             DUMMY PLUG               CCN000020000000020000FN00000000020220201000020000NNE   20211217121642    2H0H  00002000000000080400000131832G7    JIJAI   004300270014
BI00B32G8    PATA2021       202201127017-1180-02             TERMINAL                 CCN000189000000000000FY00000000020220201000000000NNMQ0820211217165209    4P0P  00007200000001065600001229032G8    PSPASI  005100280028
BI00B32G8    PATA2021       202201127017-1181-02             TERMINAL                 CCN000189000000189000FN00000000020220201000189000NNMP0020211217165243    4P0P  00006300000001089900001266832G8    PSPASI  005100280028
BI00B32G9    TY22012TMW     202112247288-6547                CONNECTOR MALE ASS'Y     CCN000000750000000750FN00000000020220101000000750NNM00020211217142120    4N0N  00000075000001205300001340332G9    TYTYC   005400370024
BI00B32G9    TY22012TMW     202112247289-3342-30             HOUSING FEMALE ASS'Y     CCN000004800000004800FN00000000020220101000004800NNM00020211217142111    1N0N  00000240000000686400000901432G9    TYTYC   005500360039
BI00B32H0    TT2202BVMW     202201047289-6547                HOUSING FEMALE ASS'Y     CCN000002400000002400FN00000000020220201000002400NNED0020211217121642    1N0N  00000240000001152000001362032H0    TTTJY   005500360039
BI00B32H2    TIJ112B        202112167287-1915-40             CONNECTOR ASS'Y          CCN000009600000009600FY00000960020211201000000000NNE00020211217112756    4N0N  00000240000000666500000923132H2    HVYHV   005500360039
BI00B32H2    TIJ2012        202112247288-6547                CONNECTOR MALE ASS'Y     CCN000013500000013500FN00000000020220101000013500NNM00020211217121642    4N0N  00000075000001205300001340332H2    HVYHV   005400370024
BI00B32H2    TIJ2012        202112207289-3342-30             HOUSING FEMALE ASS'Y     CCN000120000000120000FN00000000020220101000120000NNM00020211217121642    1N0N  00000240000000686400000901432H2    HVYHV   005500360039
BI00B32H2    TIJ2011        202112167289-6547                HOUSING FEMALE ASS'Y     CCN000009600000009600FY00000960020220101000000000NNM00020211217113207    1N0N  00000240000001152000001362032H2    HVYHV   005500360039
BI00B32H2    TIJ2012        202112207289-6547                HOUSING FEMALE ASS'Y     CCN000009600000009600FN00000000020220101000009600NNM00020211217121642    1N0N  00000240000001152000001362032H2    HVYHV   005500360039
BI00B32H2    TIJ2012        202112207289-6597-70             HOUSING FEMALE ASS'Y     CCN000002160000002160FN00000000020220101000002160NNM00020211217121642    4N0N  00000216000001289500001539532H2    HVYHV   005500360039
BI00B32J1    389442         202201247126-8850-02             TERMINAL                 CCN000009000000009000FN00000000020220101000009000NNE   20211217121642    1P0P  00000900000000672300000957532J1    UKYEL-BL006400630015
BI00B32J1    389442         202201247126-8852-02             TERMINAL                 CCN000007500000007500FN00000000020220101000007500NNE   20211217121642    1P0P  00000750000000648000000933232J1    UKYEL-BL006400630015
BI00B32J1    389442         202201247235-8662                DOOR GROMMET             CCN000003040000003040FN00000000020220101000003040NNE   20211217121642    4N0N  00000016000000844000001010032J1    UKYEL-BL005500360039
BI00B32J1    389442         202201247283-1968-30             CONNECTOR                CCN000000900000000900FN00000000020220101000000900NNE   20211217121642    1N0N  00000090000001140000001318332J1    UKYEL-BL005600390040
BI00B32J1    389442         202201247370-0309                J/B ASS'Y                CCN000001440000001440FN00000000020220101000001440NNE   20211217121642    1J0J  00000001600000870400001260032J1    UKYEL-BL005500360039
BI00B32J1    #389442        202201247186-3971                CONNECTOR HOUSING        CCN000002400000002400FN00000000020220101000002400NNE   20211217121642    2F0F  00000240000001002200001191432J1    UKYEL-BL005500360039
BI00B32J1    #389442        202201247186-3975-80             CONNECTOR HOUSING        CCN000002400000002400FN00000000020220101000002400NNE   20211217121642    2F0F  00000240000001065100001236332J1    UKYEL-BL005500360039
BI00B32J1    #389442        202201247186-3976-60             CONNECTOR HOUSING        CCN000002400000002400FN00000000020220101000002400NNE   20211217121642    2F0F  00000240000001065100001236332J1    UKYEL-BL005500360039
BI00B32J1    #389442        202201247187-3356                JOINT CONNECTOR          CCN000002400000002400FN00000000020220101000002400NNE   20211217121642    2F0F  00000120000000759600001024432J1    UKYEL-BL005600390040
BI00B32J1    #389442        202201247187-3971                CONNECTOR HOUSING        CCN000002400000002400FN00000000020220101000002400NNE   20211217121642    2F0F  00000240000000928300001099532J1    UKYEL-BL005500360039
BI00B32J1    #389442        202201247187-3975-80             CONNECTOR HOUSING        CCN000002400000002400FN00000000020220101000002400NNE   20211217121642    2F0F  00000240000000915800001087032J1    UKYEL-BL005500360039
BI00B32J1    #389442        202201247187-3976-60             CONNECTOR HOUSING        CCN000002400000002400FN00000000020220101000002400NNE   20211217121642    2F0F  00000240000000902200001073332J1    UKYEL-BL005500360039
BI00B32J1    389443         202201317114-4032                TERMINAL                 CCN000007500000007500FN00000000020220101000007500NNE   20211217121642    4P0P  00000750000000735000001063632J1    UKYEL-BL006400630017
BI00B32J1    389443         202201317116-4020                TERMINAL                 CCN000013500000013500FN00000000020220101000013500NNE   20211217121642    4P0P  00001350000000513000000798232J1    UKYEL-BL006400630015
BI00B32J1    389443         202201317158-3165-90             WIRE SEAL                CCN000080000000080000FN00000000020220101000080000NNE   20211217121642    1C0C  00004000000000124000000172432J1    UKYEL-BL004300270014
BI00B32J1    389443         202201317282-6568-40             CONNECTOR                CCN000007000000007000FN00000000020220101000007000NNE   20211217121642    4N0N  00000100000001206000001370732J1    UKYEL-BL005500360039
BI00A32J1    389449         202201047114-4030                TERMINAL                 CCN000010500000010500FN00000000020211201000010500NNED0720211217121642    4P0P  00001050000000926100001254732J1    UKYEL-BL006400630017
BI00B32J1    389544         202201107B58-3070-80             RUBBER STOPPER           CCN000040000000040000FN00000000020220101000040000NNM   20211217121642    1C0C  00004000000000276000000333032J1    UKYEL-BL004300270014
BI00B32J1    389544         202201107017-1180-02             TERMINAL                 CCN000072000000072000FN00000000020220101000072000NNM   20211217121642    4P0P  00007200000001065600001229032J1    UKYEL-BL005100280028
BI00B32J1    389544         202201107114-1475                TERMINAL                 CCN000121500000121500FN00000000020220101000121500NNM   20211217121642    4P0P  00001350000000480600000774232J1    UKYEL-BL006400630015
BI00B32J1    389544         202201107116-1180                TERMINAL                 CCN000019500000019500FN00000000020220101000019500NNM   20211217121642    1P0P  00001950000000618200000903432J1    UKYEL-BL006400630015
BI00B32J1    389544         202201107116-4020                TERMINAL                 CCN000283500000283500FN00000000020220101000283500NNM   20211217121642    4P0P  00001350000000513000000798232J1    UKYEL-BL006400630015
BI00B32J1    389544         202201107116-5045-02             TERMINAL                 CCN000050000000064000FN00000000020220101000064000NNM   20211217121642    4P0P  00001600000000678400001007132J1    UKYEL-BL006400630017
BI00B32J1    389544         202201107116-6042                TERMINAL                 CCN000009000000009000FN00000000020220101000009000NNM   20211217121642    4P0P  00000300000000523800000856132J1    UKYEL-BL006400630015
BI00B32J1    389544         202201107126-8851-02             TERMINAL                 CCN000009000000009000FN00000000020220101000009000NNM   20211217121642    1P0P  00000900000000739800001025032J1    UKYEL-BL006400630015
BI00B32J1    389544         202201107158-3006-90             RUBBER STOPPER           CCN000060000000060000FN00000000020220101000060000NNM   20211217121642    1C0C  00002000000000330600000386032J1    UKYEL-BL002700430014
BI00B32J1    389544         202201107158-3070-80             RUBBER STOPPER           CCN000040000000040000FN00000000020220101000040000NNM   20211217121642    1C0C  00004000000000276000000333332J1    UKYEL-BL002700430014
BI00B32J1    389544         202201107158-3165-90             WIRE SEAL                CCN000120000000120000FN00000000020220101000120000NNM   20211217121642    1C0C  00004000000000124000000172432J1    UKYEL-BL004300270014
BI00B32J1    389544         202201107158-3166-60             WIRE SEAL                CCN002160000002160000FN00000000020220101002160000NNM   20211217121642    1C0C  00004000000000104000000152432J1    UKYEL-BL002700430014
BI00B32J1    389544         202201107158-3167-61             WIRE SEAL                CCN000060000000060000FN00000000020220101000060000NNM   20211217121642    1C0C  00002000000000048000000096432J1    UKYEL-BL004300270014
BI00B32J1    389544         202201107158-3167-80             WIRE SEAL                CCN002640000002640000FN00000000020220101002640000NNM   20211217121642    1C0C  00002000000000048000000109032J1    UKYEL-BL002700430014
BI00B32J1    389544         202201107158-3168-80             SEALED                   CCN000900000000900000FN00000000020220101000900000NNM   20211217121642    1C0C  00002000000000044000000092132J1    UKYEL-BL004300260014
BI00B32J1    389544         202201107196-1461-06             TERMINAL FEMALE          CCN000144000000144000FN00000000020220101000144000NNM   20211217121642    4P0P  00002400000000386400000692932J1    UKYEL-BL006400630015
BI00B32J1    389544         202201107282-6568-40             CONNECTOR                CCN000010000000010000FN00000000020220101000010000NNM   20211217121642    4N0N  00000100000001206000001370732J1    UKYEL-BL005500360039
BI00B32J1    389544         202201107283-1040                CONNECTOR                CCN000012000000012000FN00000000020220101000012000NNM   20211217121642    4N0N  00000200000000396000000670032J1    UKYEL-BL005600390040
BI00B32J1    389544         202201107283-1968-30             CONNECTOR                CCN000018000000018000FN00000000020220101000018000NNM   20211217121642    1N0N  00000090000001140000001318332J1    UKYEL-BL005600390040
BI00B32J1    389544         202201107283-5545-10             CONNECTOR                CCN000002400000002400FN00000000020220101000002400NNM   20211217121642    4N0N  00000060000001279000001409232J1    UKYEL-BL005600390040
BI00B32J1    389544         202201107283-5830                CONNECTOR                CCN000072000000072000FN00000000020220101000072000NNM   20211217121642    1N47  00000600000000954000001104032J1    UKYEL-BL005500360039
BI00B32J1    389544         202201107283-6388-40             CONNECTOR                CCN000004000000004000FN00000000020220101000004000NNM   20211217121642    4N0N  00000200000001029000001173532J1    UKYEL-BL005500360039
BI00B32J1    389544         202201107283-6448-40             CONNECTOR                CCN000012000000012000FN00000000020220101000012000NNM   20211217121642    4N0N  00000150000001087000001329032J1    UKYEL-BL005600390040
BI00B32J1    389544         202201107298-1869-30             HOUSING FEMALE ASS'Y     CCN000026400000026400FN00000000020220101000026400NNM   20211217121642    4N0N  00000120000000737000000939832J1    UKYEL-BL005500360039
BI00B32J1    389544         202201107327-6890-3W             BATTERY FUSE             CCN000000144000000144FN00000000020220101000000144NNM   20211217121642    4N0N  00000007200001140800001355632J1    UKYEL-BL005500360039
BI00B32J1    #389544        202201107047-5344                RETAINER                 CCN000040000000040000FN00000000020220101000040000NNM   20211217121642    2F0F  00001000000000870000001016032J1    UKYEL-BL005600390023
BI00B32J1    #389544        202201107147-8717-30             CLIP                     CCN000010000000010000FN00000000020220101000010000NNM   20211217121642    2F0F  00000500000000660000000875032J1    UKYEL-BL005600390040
BI00B32J1    #389544        202201107157-3821                RUBBER STOPPER           CCN000020000000020000FN00000000020220101000020000NNM   20211217121642    2C0C  00002000000000176000000238032J1    UKYEL-BL002700430014
BI00B32J1    #389544        202201107157-3950-80             SEAL RUBBER              CCN000080000000080000FN00000000020220101000080000NNM   20211217121642    2C0C  00004000000000154000000440332J1    UKYEL-BL002700430014
BI00B32J1    #389544        202201107158-3003-90             RUBBER STOPPER           CCN000160000000160000FN00000000020220101000160000NNM   20211217121642    2C0C  00002000000000250000000306032J1    UKYEL-BL002700430014
BI00B32J1    #389544        202201107158-3004-40             RUBBER STOPPER           CCN000060000000060000FN00000000020220101000060000NNM   20211217121642    2C0C  00002000000000234000000306332J1    UKYEL-BL002700430014
BI00B32J1    #389544        202201107158-3120-90             CONNECTOR WIRE SEAL      CCN000200000000200000FN00000000020220101000200000NNM   20211217121642    2C0C  00002000000000136000000194032J1    UKYEL-BL002700430014
BI00B32J1    #389544        202201107158-3121-80             WIRE SEAL                CCN000040000000040000FN00000000020220101000040000NNM   20211217121642    2C0C  00002000000000118000000187332J1    UKYEL-BL002700430014
BI00B32J1    #389544        202201107158-3374-90             CONNECTOR WIRE SEAL      CCN000040000000040000FN00000000020220101000040000NNM   20211217121642    2H0H  00002000000000172000000229332J1    UKYEL-BL002700430014
BI00B32J1    #389544        202201107183-7725-40             HOUSING                  CCN000006000000006000FN00000000020220101000006000NNM   20211217121642    2F0F  00000600000000840000001040032J1    UKYEL-BL005600390040
BI00B32J1    #389544        202201107282-3243-40             CONNECTOR                CCN000008800000008800FN00000000020220101000008800NNM   20211217121642    2N0N  00000080000001006000001282332J1    UKYEL-BL005600390040
BI00B32J1    #389544        202201107282-4192-40             CONNECTOR                CCN000002880000002880FN00000000020220101000002880NNM   20211217121642    2N0N  00000024000000801000001083732J1    UKYEL-BL005600390040
BI00B32J1    #389544        202201107282-5545-10             CONNECTOR                CCN000001600000001600FN00000000020220101000001600NNM   20211217121642    2N0N  00000080000001293600001465332J1    UKYEL-BL005500360039
BI00B32J1    #389544        202201107282-6446-40             CONNECTOR                CCN000003000000003000FN00000000020220101000003000NNM   20211217121642    2N0N  00000150000001185000001368032J1    UKYEL-BL005500360039
BI00B32J1    #389544        202201107282-6457-40             CONNECTOR                CCN000005600000005600FN00000000020220101000005600NNM   20211217121642    2N0N  00000080000001137000001421332J1    UKYEL-BL005600390040
BI00B32J1    #389544        202201107282-8395-40             CONNECTOR                CCN000005000000005000FN00000000020220101000005000NNM   20211217121642    2N0N  00000100000001009000001188032J1    UKYEL-BL005500360039
BI00B32J1    #389544        202201107283-8226-30             CONNECTOR                CCN000010000000010000FN00000000020220101000010000NNM   20211217121642    2N0N  00000200000000820000001008032J1    UKYEL-BL005400370024
BI00B32J1    #389544        202201107283-8397-40             CONNECTOR                CCN000006160000006160FN00000000020220101000006160NNM   20211217121642    2N0N  00000154000001007000001222732J1    UKYEL-BL005600390023
BI00B32M1    TCV2013        202112307288-6547                CONNECTOR MALE ASS'Y     CCN000019500000019500FN00000000020220101000019500NNMD0020211217135143    4N0N  00000075000001205300001340332M1    VNYEV   005400370024
BI00B32M1    TCV2013        202112307289-3342                HOUSING FEMALE ASS'Y     CCN000048000000048000FN00000000020220101000048000NNMD0020211217135108    1N0N  00000240000000686400000901432M1    VNYEV   005500360039
BI00B32M1    TCV2013        202112307289-3342-30             HOUSING FEMALE ASS'Y     CCN000012000000012000FN00000000020220101000012000NNMD0020211217135040    1N0N  00000240000000686400000901432M1    VNYEV   005500360039
BI00B32M1    TCV2013        202112307289-3342-40             HOUSING FEMALE ASS'Y     CCN000024000000024000FN00000000020220101000024000NNMD0020211217135021    1N0N  00000240000000686400000901432M1    VNYEV   005500360039
BI00B32M1    TCV2013        202112307289-3342-90             HOUSING FEMALE ASS'Y     CCN000024000000024000FN00000000020220101000024000NNMD0020211217134505    1N0N  00000240000000686400000901432M1    VNYEV   005500360039
BI00B32M1    TCV2013        202112307289-6547                HOUSING FEMALE ASS'Y     CCN000026400000026400FN00000000020220101000026400NNMD0020211217134532    1N0N  00000240000001152000001362032M1    VNYEV   005500360039
BI00B32M1    TCV112B        202112307287-1915-30             CONNECTOR ASS'Y          CCN000007200000007200FN00000000020211201000007200NNED0020211217134422    4N0N  00000240000000666500000923132M1    VNYEV   005500360039
BI00B32M3    SM22013 MW     202112167158-3165-90             WIRE SEAL                CCN000200000000200000FY00020000020220101000000000NNMD0720211217112132    1C0C  00004000000000124000000172432M3    SASAMI  004300270014
BI00B32M3    SM22013 MW     202112167283-1968-30             CONNECTOR                CCN000000900000000900FY00000090020220101000000000NNMD0720211217112145    1N0N  00000090000001140000001318332M3    SASAMI  005600390040
BI00B32M3    SM22013 MW     202112167286-3885                CONNECTOR MALE ASS'Y     CCN000007200000007200FY00000720020220101000000000NNMD0720211217112159    1N0N  00000120000000910600001130632M3    SASAMI  005500360039
BI00B32M3    SM22013 MW     202112167286-3885-40             CONNECTOR MALE ASS'Y     CCN000001200000001200FY00000120020220101000000000NNMD0720211217112159    1N0N  00000120000000910600001130632M3    SASAMI  005500360039
BI00B32M3    SM22013DMW     202112167137-3047-30             UNIT PACKING             CCN000025000000025000FY00002500020220101000000000NNMD0720211217112241    1C0C  00000100000000170500000218932M3    SASAMI  002700430014
BI00B32M3    SM22013DMW     202112167172-5402-30             SEAL RUBBER              CCN000048000000048000FY00004800020220101000000000NNMD0720211217112241    1C0C  00000800000000457600000506032M3    SASAMI  004300270014
BI00B32M3    SM22013DMW     202112167287-3885                HYBRID FEMALE ASS'Y      CCN000002400000002400FY00000240020220101000000000NNMD0720211217112259    1N0N  00000240000001029600001249632M3    SASAMI  005500360039
BI00B32M3    SM22013DMW     202112167287-3885-40             HYBRID FEMALE ASS'Y      CCN000002400000002400FY00000240020220101000000000NNMD0720211217112259    1N0N  00000240000001029600001249632M3    SASAMI  005500360039
BI00B32M3    SM22013HMW     202112167B72-5540-80             SEALED WIRE SEAL         CCN000040000000040000FY00004000020220101000000000NNMD0720211217112343    1C0C  00002000000000186000000234432M3    SASAMI  004300270014
BI00B32M3    SM22013HMW     202112167158-3168-80             SEALED                   CCN000020000000020000FY00002000020220101000000000NNMD0720211217112343    1C0C  00002000000000044000000092132M3    SASAMI  004300260014
BI00B32M3    SM22013HMW     202112167158-3169-40             SEALING PLUG             CCN000040000000040000FY00004000020220101000000000NNMD0720211217112343    1C0C  00004000000000156000000204132M3    SASAMI  004300260014
BI00B32M3    SM2201A MW     202112167286-3885                CONNECTOR MALE ASS'Y     CCN000004800000004800FY00000480020220101000000000NNED0720211217112621    1N0N  00000120000000910600001130632M3    SASAMI  005500360039
BI00B32M4    TP2012         202112167158-3006-90             RUBBER STOPPER           CCN000160000000160000FY00016000020220101000000000NNMD0720211217112547    1C0C  00002000000000330600000386032M4    SISAI   002700430014
BI00B32M4    TP2012         202112167158-3070-80             RUBBER STOPPER           CCN000080000000080000FY00008000020220101000000000NNMD0720211217112547    1C0C  00004000000000276000000333332M4    SISAI   002700430014
BI00B32M4    TP2012         202112167283-7476                CONNECTOR                CCN000001500000001500FY00000150020220101000000000NNMD0720211217112547    1N0N  00000150000000915000001132032M4    SISAI   005600390040
BI00B32M4    TP2012         202112167158-3009-60             RUBBER STOPPER           CCN000340000000340000FY00034000020220101000000000NNMD0720211217112547    1C0C  00002000000000338000000386232M4    SISAI   002700430014
BI00B32M4    TP2012         202112167287-9000                HOUSING FEMALE ASS'Y     CCN000004800000004800FY00000480020220101000000000NNMD0720211217112547    1N0N  00000480000001228800001448832M4    SISAI   005500360039
BI00B32M4    TP2012         202112167388-2978-30             HOUSING MALE ASS'Y       CCN000024000000024000FY00002400020220101000000000NNMD0720211217112547    1N0N  00000048000000742000001122032M4    SISAI   005500360039
BI00B32M4    TP2012         202112167382-1481-10             CONNECTOR                CCN000000800000000800FY00000080020220101000000000NNMD0720211217112547    4N0N  00000080000001025000001183032M4    SISAI   005600390040
BI00B32M4    TP2012         202112167289-5979-30             HOUSING FEMALE ASS'Y     CCN000000756000000756FY00000075620220101000000000NNMD0720211217112547    1N0N  00000025200000854700001064732M4    SISAI   005400370024
BI00B32M4    TP2012         202112167289-6518-30             HOUSING FEMALE ASS'Y     CCN000001200000001200FY00000120020220101000000000NNMD0720211217112547    1N0N  00000120000000829200001049232M4    SISAI   005500360039
BI00B32M4    TP2012         202112167289-3342                HOUSING FEMALE ASS'Y     CCN000009600000009600FY00000960020220101000000000NNMD0720211217112547    1N0N  00000240000000686400000901432M4    SISAI   005500360039
BI00B32M4    TP2012         202112167287-3885                HYBRID FEMALE ASS'Y      CCN000002400000002400FY00000240020220101000000000NNMD0720211217112547    1N0N  00000240000001029600001249632M4    SISAI   005500360039
BI00B32M4    TP2012         202112167287-3885-30             HYBRID FEMALE ASS'Y      CCN000007200000007200FY00000720020220101000000000NNMD0720211217112547    1N0N  00000240000001029600001249632M4    SISAI   005500360039
BI00B32M4    TP2012         202112167158-3166-60             WIRE SEAL                CCN000040000000040000FY00004000020220101000000000NNMD0720211217112547    1C0C  00004000000000104000000152432M4    SISAI   002700430014
BI00B32M4    TP2012         202112167287-8072                HOUSING FEMALE ASS'Y     CCN000004800000004800FY00000480020220101000000000NNMD0720211217112547    1N0N  00000240000001221600001441632M4    SISAI   005500360039
BI00B32M4    TP2012         202112167283-1289-40             CONNECTOR HOUSING        CCN000001200000001200FY00000120020220101000000000NNMD0720211217112547    1N0N  00000060000000679800000824832M4    SISAI   005400370024
BI00B32M4    TP2012         202112167289-3342-90             HOUSING FEMALE ASS'Y     CCN000004800000004800FY00000480020220101000000000NNMD0720211217112547    1N0N  00000240000000686400000901432M4    SISAI   005500360039
BI00B32M4    TP2022         202202037283-6039                CONNECTOR                CCN000001600000001600FN00000000020220201000001600NNMD0220211217154456    1N0N  00000160000000624000000881532M4    SISAI   005500360039
BI00B32M4    TP2021         202201067289-3342-30             HOUSING FEMALE ASS'Y     CCN000038400000038400FN00000000020220201000038400NNMD0420211217153940    1N0N  00000240000000686400000901432M4    SISAI   005500360039
BI00B32M4    TP2022         202201137289-3342-30             HOUSING FEMALE ASS'Y     CCN000038400000038400FN00000000020220201000038400NNMD0420211217154210    1N0N  00000240000000686400000901432M4    SISAI   005500360039
BI00B32M4    TP2023         202201207289-3342-30             HOUSING FEMALE ASS'Y     CCN000031200000031200FN00000000020220201000031200NNMD0420211217154614    1N0N  00000240000000686400000901432M4    SISAI   005500360039
BI00B32M4    TP2024         202201277289-3342-30             HOUSING FEMALE ASS'Y     CCN000024000000024000FN00000000020220201000024000NNMD0420211217154749    1N0N  00000240000000686400000901432M4    SISAI   005500360039
BI00B32M4    TP2025         202202037289-3342-30             HOUSING FEMALE ASS'Y     CCN000021600000021600FN00000000020220201000021600NNMD0420211217154839    1N0N  00000240000000686400000901432M4    SISAI   005500360039
BI00B32M4    TP2021         202201067283-4577                CONNECTOR HOUSING        CCN000009600000009600FN00000000020220201000009600NNMD0420211217153928    4N0N  00000480000000916800001136832M4    SISAI   005500360039
BI00B32M4    TP2021         202201067388-2978-30             HOUSING MALE ASS'Y       CCN000038400000038400FN00000000020220201000038400NNMD0420211217154000    1N0N  00000048000000742000001122032M4    SISAI   005500360039
BI00B32M4    TP2022         202201137388-2978-30             HOUSING MALE ASS'Y       CCN000038400000038400FN00000000020220201000038400NNMD0420211217154210    1N0N  00000048000000742000001122032M4    SISAI   005500360039
BI00B32M4    TP2023         202201207388-2978-30             HOUSING MALE ASS'Y       CCN000030720000030720FN00000000020220201000030720NNMD0420211217154614    1N0N  00000048000000742000001122032M4    SISAI   005500360039
BI00B32M4    TP2024         202201277388-2978-30             HOUSING MALE ASS'Y       CCN000023040000023040FN00000000020220201000023040NNMD0420211217154749    1N0N  00000048000000742000001122032M4    SISAI   005500360039
BI00B32M4    TP2025         202202037388-2978-30             HOUSING MALE ASS'Y       CCN000022560000022560FN00000000020220201000022560NNMD0420211217154839    1N0N  00000048000000742000001122032M4    SISAI   005500360039
BI00B32M4    TP2021         202201067327-6731-3W             BATTERY FUSE             CCN000003072000003072FN00000000020220201000003072NNMD0420211217153953    4N0N  00000006400000697600000843032M4    SISAI   005400370024
BI00B32M4    TP2022         202201137327-6731-3W             BATTERY FUSE             CCN000003072000003072FN00000000020220201000003072NNMD0420211217154210    4N0N  00000006400000697600000843032M4    SISAI   005400370024
BI00B32M4    TP2023         202201207327-6731-3W             BATTERY FUSE             CCN000002496000002496FN00000000020220201000002496NNMD0420211217154614    4N0N  00000006400000697600000843032M4    SISAI   005400370024
BI00B32M4    TP2024         202201277327-6731-3W             BATTERY FUSE             CCN000001856000001856FN00000000020220201000001856NNMD0420211217154749    4N0N  00000006400000697600000843032M4    SISAI   005400370024
BI00B32M4    TP2025         202202037327-6731-3W             BATTERY FUSE             CCN000001792000001792FN00000000020220201000001792NNMD0420211217154839    4N0N  00000006400000697600000843032M4    SISAI   005400370024
BI00B32M4    TP2021         202201067288-6598-70             HOUSING MALE ASS'Y       CCN000001440000001440FN00000000020220201000001440NNMD0420211217153940    4N0N  00000144000001074200001429232M4    SISAI   005500360039
BI00B32M4    TP2022         202201137288-6598-70             HOUSING MALE ASS'Y       CCN000001440000001440FN00000000020220201000001440NNMD0420211217154210    4N0N  00000144000001074200001429232M4    SISAI   005500360039
BI00B32M4    TP2023         202201207288-6598-70             HOUSING MALE ASS'Y       CCN000001440000001440FN00000000020220201000001440NNMD0420211217154614    4N0N  00000144000001074200001429232M4    SISAI   005500360039
BI00B32M4    TP2024         202201277288-6598-70             HOUSING MALE ASS'Y       CCN000001440000001440FN00000000020220201000001440NNMD0420211217154749    4N0N  00000144000001074200001429232M4    SISAI   005500360039
BI00B32M4    TP2021         202201067283-4855                CONNECTOR HOUSING        CCN000002400000002400FN00000000020220201000002400NNMD0420211217153928    4N0N  00000240000001188400001400032M4    SISAI   005500360039
BI00B32M4    TP2022         202201137283-4855                CONNECTOR HOUSING        CCN000002400000002400FN00000000020220201000002400NNMD0420211217154210    4N0N  00000240000001188400001400032M4    SISAI   005500360039
BI00B32M4    TP2023         202201207283-4855                CONNECTOR HOUSING        CCN000002400000002400FN00000000020220201000002400NNMD0420211217154614    4N0N  00000240000001188400001400032M4    SISAI   005500360039
BI00B32M8    @PM22013JMW    202112227282-1064-30             CONNECTOR ASS'Y          CCN000001600000001600FN00000000020220101000001600NNMD0020211217121642    3N0N  00000080000000907300001140132M8    PMPEMI  005500360039
BI00B32M8    PM2201ATMW     202201127298-4899-70             SEALED HOUSING ASS'Y     CCN000002310000002310FN00000000020220101000002310NNED0420211217121642    4N0N  00000231000000766900001036932M8    PMPEMI  005500360039
BI00B32N1    SBT2112        202112237289-3342-30             HOUSING FEMALE ASS'Y     CCN000021600000021600FN00000000020211201000021600NNMD0020211217121642    1N0N  00000240000000686400000901432N1    TAYIPL  005500360039
BI00B32N1    #NST2113B-2    202112157282-8395-40             CONNECTOR                CCN000007000000004000FY00000400020220101000000000NNED0720211217114741    2N0N  00000100000001009000001188032N1    TAYIPL  005500360039
BI00B32N1    NST2115FCU     202201137114-1301                TERMINAL                 CCN000019500000019500FN00000000020220201000019500NNE   20211217121642    4P0P  00001950000000614300000907932N1    TAYIPL  006400630015
BI00B32N1    NST2115FCU     202201137114-1470                TERMINAL                 CCN000166500000181500FN00000000020220201000181500NNE   20211217121642    4P0P  00001650000000544500000838732N1    TAYIPL  006400630015
BI00B32N1    NST2115FCU     202201137116-1473                TERMINAL                 CCN000018480000027000FN00000000020220201000027000NNE   20211217121642    4P0P  00001350000000523800000809032N1    TAYIPL  006400630015
BI00B32N1    NST2115FCU     202201137116-6042                TERMINAL                 CCN000003000000003000FN00000000020220201000003000NNE   20211217121642    4P0P  00000300000000523800000856132N1    TAYIPL  006400630015
BI00B32N1    NST2115FCU     202201137116-1486-02             TERMINAL                 CCN000132000000132000FN00000000020220201000132000NNE   20211217121642    4P0P  00001650000000655100000940332N1    TAYIPL  006400630015
BI00B32N1    NST2115FCU     202201137116-1685-02             TERMINAL                 CCN000336000000336000FN00000000020220201000336000NNE   20211217121642    4P0P  00002400000000897600001065232N1    TAYIPL  005100280028
BI00B32N1    NST2115FCU     202201137116-4103-02             TERMINAL                 CCN000024000000024000FN00000000020220201000024000NNE   20211217121642    4P0P  00001200000000571200000859432N1    TAYIPL  006400630015
BI00B32N1    NST2115FCU     202201137116-5750-02             TERMINAL                 CCN000030000000030000FN00000000020220201000030000NNE   20211217121642    4P0P  00001500000000457500000742732N1    TAYIPL  006400630015
BI00B32N1    NST2115FCU     202201137158-3006-90             RUBBER STOPPER           CCN000200000000200000FN00000000020220201000200000NNE   20211217121642    1C0C  00002000000000330600000386032N1    TAYIPL  002700430014
BI00B32N1    NST2115FCU     202201137158-3070-80             RUBBER STOPPER           CCN002800000002800000FN00000000020220201002800000NNE   20211217121642    1C0C  00004000000000276000000333332N1    TAYIPL  002700430014
BI00B32N1    NST2115FCU     202201137196-0805-02             TERMINAL FEMALE          CCN000045000000045000FN00000000020220201000045000NNE   20211217121642    4P0P  00002250000000558000000843232N1    TAYIPL  006400630015
BI00B32N1    NST2115FCU     202201137222-7564-40             CONNECTOR                CCN000001000000001000FN00000000020220201000001000NNE   20211217121642    1N0N  00000050000000967000001097032N1    TAYIPL  005500360039
BI00B32N1    NST2115FCU     202201137289-4212-80             SEALED HOUSING ASS'Y     CCN000004000000004000FN00000000020220201000004000NNE   20211217121642    4N0N  00000200000000848600000978632N1    TAYIPL  005400370024
BI00B32N1    NST2115FCU     202201137158-3166-60             WIRE SEAL                CCN000280000000280000FN00000000020220201000280000NNE   20211217121642    1C0C  00004000000000104000000152432N1    TAYIPL  002700430014
BI00B32N1    NST2115FCU     202201137158-3167-80             WIRE SEAL                CCN002000000002000000FN00000000020220201002000000NNE   20211217121642    1C0C  00002000000000048000000109032N1    TAYIPL  002700430014
BI00B32N1    #NST2115FCU    202201137116-4021                TERMINAL                 CCN000108000000108000FN00000000020220201000108000NNE   20211217121642    2F0P  00001350000000534600000868832N1    TAYIPL  006400630015
BI00B32N1    #NST2115FCU    202201137282-3020                CONNECTOR                CCN000001000000001000FN00000000020220201000001000NNE   20211217121642    2N0N  00000100000000984000001145432N1    TAYIPL  005500360039
BI00B32N1    #NST2115FCU    202201137157-3950-80             SEAL RUBBER              CCN000200000000200000FN00000000020220201000200000NNE   20211217121642    2C0C  00004000000000154000000440332N1    TAYIPL  002700430014
BI00B32N1    #NST2115FCU    202201137157-3952-80             RUBBER STOPPER           CCN000020000000020000FN00000000020220201000020000NNE   20211217121642    2C0C  00001000000000117000000175032N1    TAYIPL  002700430014
BI00B32N1    #NST2115FCU    202201137158-3003-90             RUBBER STOPPER           CCN000020000000020000FN00000000020220201000020000NNE   20211217121642    2C0C  00002000000000250000000306032N1    TAYIPL  002700430014
BI00B32N1    #NST2115FCU    202201137158-3120-90             CONNECTOR WIRE SEAL      CCN000240000000240000FN00000000020220201000240000NNE   20211217121642    2C0C  00002000000000136000000194032N1    TAYIPL  002700430014
BI00B32N1    #NST2115FCU    202201137158-3121-80             WIRE SEAL                CCN000120000000120000FN00000000020220201000120000NNE   20211217121642    2C0C  00002000000000118000000187332N1    TAYIPL  002700430014
BI00B32N1    #NST2115FCU    202201137183-2414-40             CONNECTOR HOUSING        CCN000004800000004800FN00000000020220201000004800NNE   20211217121642    2F0F  00000480000000777600000963632N1    TAYIPL  005500360039
BI00B32N1    #NST2115FCU    202201137183-7725-40             HOUSING                  CCN000024000000024000FN00000000020220201000024000NNE   20211217121642    2F0F  00000600000000840000001040032N1    TAYIPL  005600390040
BI00B32N1    #NST2115FCU    202201137283-8730-30             HOUSING FEMALE ASS'Y     CCN000001000000002000FN00000000020220201000002000NNE   20211217121642    2N0N  00000200000000794000000906532N1    TAYIPL  005400370024
BI00B32N1    @NST2115FCU    202201267283-3030-30             HOUSING FEMALE ASS'Y     CCN000003200000003200FN00000000020220201000003200NNED0720211217170936    3N0N  00000160000001062000001309032N1    TAYIPL  005500360039
BI00B32N2    2152103733     202201137116-1687-02             TERMINAL FEMALE          CCN000008000000024000FN00000000020220201000024000NNE   20211217160910    4P0P  00002400000000303200000909632N2    YWYIPLTC005100280028
BI00B32N2    #2152103733    202201137282-6458-40             CONNECTOR                CCN000001000000001000FN00000000020220201000001000NNE   20211217160907    2N0N  00000100000001206000001350532N2    YWYIPLTC005500360039
BI00B32Q8    #EU22013 MW    202112217283-8123                CONNECTOR HOUSING        CCN000004000000004000FN00000000020220101000004000NNMD0020211217125957    2N0N  00000400000000380000000531732Q8    EMEMI   005600390023
BI00A32Q8    EU2201A MW     202112177283-5845                CONNECTOR HOUSING        CCN000006000000006000FY00000600020220101000000000NNEM0020211217162642    1N0N  00000600000000444000000606332Q8    EMEMI   005400370024
BI00A32Q8    #EU22021DMW    202112207287-8860                HOUSING FEMALE ASS'Y     CCN000006400000006400FN00000000020220201000006400NNMM0020211217121642    2N0N  00000160000000693400000853432Q8    EMEMI   005400370024
BI00B32Q8    EU2201FTMW     202202237327-6950-30             MULTI FUSE               CCN000001152000001152FN00000000020220101000001152NNED0420211217121642    4N00  00000028800000888700001054632Q8    EMEMI   005400370024
BI00B32Q8    EU2201FTMW     202202237327-6954-30             MULTI FUSE               CCN000001200000001200FN00000000020220101000001200NNED0420211217121642    4N00  00000060000000751600000954332Q8    EMEMI   005400370024
BI00B32Q8    EU2202ADMW     202202097C89-6868-30             SEALED ASSY FEMALE       CCN000015120000015120FN00000000020220201000015120NNED0420211217121642    4N0N  00000252000000839200001119232Q8    EMEMI   005500360039
BI00B32Q8    EU2202ADMW     202202097C98-1145-4W             SQUIB SUB ASS'Y          CCN000010000000010000FN00000000020220201000010000NNED0420211217121642    4N0N  00001000000000787900000944932Q8    EMEMI   005400370024
BI00B32Q8    #EU2202ADMW    202201057287-8861                HOUSING FEMALE ASS'Y     CCN000003200000001600FN00000000020220201000001600NNEQ0020211217121642    2N0N  00000160000000769000000929032Q8    EMEMI   005400370024
BI00B32Q8    EU2202ETMW     202202237327-6950-30             MULTI FUSE               CCN000000864000000864FN00000000020220201000000864NNED0420211217121642    4N00  00000028800000888700001054632Q8    EMEMI   005400370024
BI00B32Q8    EU2202ETMW     202202237327-6952-30             MULTI FUSE               CCN000000560000000560FN00000000020220201000000560NNED0420211217121642    4N0N  00000056000000848500001031532Q8    EMEMI   005400370024
BI00B32Q8    EU2202ETMW     202202237327-6954-30             MULTI FUSE               CCN000000600000000600FN00000000020220201000000600NNED0420211217121642    4N00  00000060000000751600000954332Q8    EMEMI   005400370024
BI00B32Q8    EU2202FTMW     202202237327-6949-30             MULTI FUSE               CCN000000864000000864FN00000000020220201000000864NNED0420211217121642    4N00  00000028800000886700001052632Q8    EMEMI   005400370024
BI00B32Q8    EU2202FTMW     202202237327-6950-30             MULTI FUSE               CCN000000288000000288FN00000000020220201000000288NNED0420211217121642    4N00  00000028800000888700001054632Q8    EMEMI   005400370024
BI00B32Q8    EU2202FTMW     202202237327-6952-30             MULTI FUSE               CCN000001120000001120FN00000000020220201000001120NNED0420211217121642    4N0N  00000056000000848500001031532Q8    EMEMI   005400370024
BI00B32Q8    EU2202FTMW     202202237327-6954-30             MULTI FUSE               CCN000000600000000600FN00000000020220201000000600NNED0420211217121642    4N00  00000060000000751600000954332Q8    EMEMI   005400370024
BI00B32Q8    EU2202GTMW     202202237327-6949-30             MULTI FUSE               CCN000000288000000288FN00000000020220201000000288NNED0420211217121642    4N00  00000028800000886700001052632Q8    EMEMI   005400370024
BI00B32Q8    EU2202GTMW     202202237327-6950-30             MULTI FUSE               CCN000000576000000576FN00000000020220201000000576NNED0420211217121642    4N00  00000028800000888700001054632Q8    EMEMI   005400370024
BI00B32Q8    EU2202GTMW     202202237327-6952-30             MULTI FUSE               CCN000000560000000560FN00000000020220201000000560NNED0420211217121642    4N0N  00000056000000848500001031532Q8    EMEMI   005400370024
BI00B32Q8    EU2202GTMW     202202237327-6954-30             MULTI FUSE               CCN000000600000000600FN00000000020220201000000600NNED0420211217121642    4N00  00000060000000751600000954332Q8    EMEMI   005400370024
BI00B32Q8    EU2202HTMW     202203027327-6949-30             MULTI FUSE               CCN000000576000000576FN00000000020220201000000576NNED0420211217121642    4N00  00000028800000886700001052632Q8    EMEMI   005400370024
BI00B32Q8    EU2202HTMW     202203027327-6950-30             MULTI FUSE               CCN000001728000001728FN00000000020220201000001728NNED0420211217121642    4N00  00000028800000888700001054632Q8    EMEMI   005400370024
BI00B32Q8    EU2202HTMW     202203027327-6952-30             MULTI FUSE               CCN000001120000001120FN00000000020220201000001120NNED0420211217121642    4N0N  00000056000000848500001031532Q8    EMEMI   005400370024
BI00B32Q8    EU2202HTMW     202203027327-6954-30             MULTI FUSE               CCN000001200000001200FN00000000020220201000001200NNED0420211217121642    4N00  00000060000000751600000954332Q8    EMEMI   005400370024
BI00B32Q8    EU22031DMW     202203097C89-6868-30             SEALED ASSY FEMALE       CCN000005040000005040FN00000000020220301000005040NNMD0420211217121642    4N0N  00000252000000839200001119232Q8    EMEMI   005500360039
BI00B32Q8    EU22032DMW     202203167C89-6868-30             SEALED ASSY FEMALE       CCN000005040000005040FN00000000020220301000005040NNMD0420211217121642    4N0N  00000252000000839200001119232Q8    EMEMI   005500360039
BI00B32Q8    EU22033DMW     202203237C89-6868-30             SEALED ASSY FEMALE       CCN000005040000005040FN00000000020220301000005040NNMD0420211217121642    4N0N  00000252000000839200001119232Q8    EMEMI   005500360039
BI00B32Q8    EU22034DMW     202203307C89-6868-30             SEALED ASSY FEMALE       CCN000005040000005040FN00000000020220301000005040NNMD0420211217121642    4N0N  00000252000000839200001119232Q8    EMEMI   005500360039
BI00B32Q8    EU22031DMW     202203097C98-1145-4W             SQUIB SUB ASS'Y          CCN000010000000010000FN00000000020220301000010000NNMD0420211217121642    4N0N  00001000000000787900000944932Q8    EMEMI   005400370024
BI00B32Q8    EU22032DMW     202203167C98-1145-4W             SQUIB SUB ASS'Y          CCN000010000000010000FN00000000020220301000010000NNMD0420211217121642    4N0N  00001000000000787900000944932Q8    EMEMI   005400370024
BI00B32Q8    EU22034DMW     202203307C98-1145-4W             SQUIB SUB ASS'Y          CCN000010000000010000FN00000000020220301000010000NNMD0420211217121642    4N0N  00001000000000787900000944932Q8    EMEMI   005400370024
BI00B32Q8    EU22031TMW     202203167327-6949-30             MULTI FUSE               CCN000000576000000576FN00000000020220301000000576NNMD0420211217121642    4N00  00000028800000886700001052632Q8    EMEMI   005400370024
BI00B32Q8    EU22032TMW     202203237327-6949-30             MULTI FUSE               CCN000000288000000288FN00000000020220301000000288NNMD0420211217121642    4N00  00000028800000886700001052632Q8    EMEMI   005400370024
BI00B32Q8    EU22034TMW     202204067327-6949-30             MULTI FUSE               CCN000000576000000576FN00000000020220301000000576NNMD0420211217121642    4N00  00000028800000886700001052632Q8    EMEMI   005400370024
BI00B32Q8    EU22031TMW     202203167327-6950-30             MULTI FUSE               CCN000001440000001440FN00000000020220301000001440NNMD0420211217121642    4N00  00000028800000888700001054632Q8    EMEMI   005400370024
BI00B32Q8    EU22032TMW     202203237327-6950-30             MULTI FUSE               CCN000000288000000288FN00000000020220301000000288NNMD0420211217121642    4N00  00000028800000888700001054632Q8    EMEMI   005400370024
BI00B32Q8    EU22033TMW     202203307327-6950-30             MULTI FUSE               CCN000000576000000576FN00000000020220301000000576NNMD0420211217121642    4N00  00000028800000888700001054632Q8    EMEMI   005400370024
BI00B32Q8    EU22034TMW     202204067327-6950-30             MULTI FUSE               CCN000001440000001440FN00000000020220301000001440NNMD0420211217121642    4N00  00000028800000888700001054632Q8    EMEMI   005400370024
BI00B32Q8    EU22031TMW     202203167327-6952-30             MULTI FUSE               CCN000001680000001680FN00000000020220301000001680NNMD0420211217121642    4N0N  00000056000000848500001031532Q8    EMEMI   005400370024
BI00B32Q8    EU22032TMW     202203237327-6952-30             MULTI FUSE               CCN000001120000001120FN00000000020220301000001120NNMD0420211217121642    4N0N  00000056000000848500001031532Q8    EMEMI   005400370024
BI00B32Q8    EU22033TMW     202203307327-6952-30             MULTI FUSE               CCN000000560000000560FN00000000020220301000000560NNMD0420211217121642    4N0N  00000056000000848500001031532Q8    EMEMI   005400370024
BI00B32Q8    EU22034TMW     202204067327-6952-30             MULTI FUSE               CCN000001680000001680FN00000000020220301000001680NNMD0420211217121642    4N0N  00000056000000848500001031532Q8    EMEMI   005400370024
BI00B32Q8    EU22031TMW     202203167327-6954-30             MULTI FUSE               CCN000001800000001800FN00000000020220301000001800NNMD0420211217121642    4N00  00000060000000751600000954332Q8    EMEMI   005400370024
BI00B32Q8    EU22032TMW     202203237327-6954-30             MULTI FUSE               CCN000000600000000600FN00000000020220301000000600NNMD0420211217121642    4N00  00000060000000751600000954332Q8    EMEMI   005400370024
BI00B32Q8    EU22033TMW     202203307327-6954-30             MULTI FUSE               CCN000000600000000600FN00000000020220301000000600NNMD0420211217121642    4N00  00000060000000751600000954332Q8    EMEMI   005400370024
BI00B32Q8    EU22034TMW     202204067327-6954-30             MULTI FUSE               CCN000001200000001200FN00000000020220301000001200NNMD0420211217121642    4N00  00000060000000751600000954332Q8    EMEMI   005400370024
BI00B32Q8    #EU22031TMW    202202027172-5629-80             RUBBER STOPPER           CCN000680000000320000FN00000000020220301000320000NNMQ0020211217121642    2H0H  00002000000000060000000111132Q8    EMEMI   004300270014
BI00B32Q8    @EU2203B MW    202202167282-1040                HOUSING SUB ASSEMBLY     CCN000005000000007200FN00000000020220301000007200NNE   20211217121642    3N0N  00000240000001014400001256032Q8    EMEMI   005500360039
BI00A32Q8    #EU22031TMW    202112207172-5629-80             RUBBER STOPPER           CCN000320000000360000FN00000000020220301000360000NNMM0020211217125907    2H0H  00002000000000060000000111132Q8    EMEMI   004300270014
BI00A32Q8    #EU2202ADMW    202112207287-8861                HOUSING FEMALE ASS'Y     CCN000001600000001600FN00000000020220201000001600NNEM0020211217121642    2N0N  00000160000000769000000929032Q8    EMEMI   005400370024
BI00B32R7    R-TAP210621    202201067116-4121-02             TERMINAL                 CCN000004500000004500FN00000000020220101000004500NNE   20211217121642    4P0P  00000450000000618800000912432R7    IVYCIC  006400630015
BI00A32R8    TT22031TMW     202112207158-3009-60             RUBBER STOPPER           CCN000020000000020000FN00000000020220301000020000NNMM0020211217165248    1C0C  00002000000000338000000386232R8    TTTJY   002700430014
BI00A32R8    TT22032TMW     202112207158-3009-60             RUBBER STOPPER           CCN000020000000020000FN00000000020220301000020000NNMM0020211217165248    1C0C  00002000000000338000000386232R8    TTTJY   002700430014
BI00A32R8    TT22032TMW     202112207327-6809                MULTI FUSE               CCN000000560000000560FN00000000020220301000000560NNMM0020211217170802    4N0N  00000056000000849300001061732R8    TTTJY   005400370024
BI00B32U5    DI2009         202202257C89-6868-30             SEALED ASSY FEMALE       CCN000012600000012600FN00000000020220401000012600NNMD0420211217121642U5  4N0N  00000252000000839200001119232U5    AMAMSD  005500360039
BI00B32U9    TPA206         202202037289-6868-30             SEALED ASSY FEMALE       CCN000010080000010080FN00000000020220201000010080NNMD0420211217121642U9  4N0N  00000252000000839200001119232U9    YNYNA-E 005500360039
BI00B32W4    4500182309     202112157158-3166-60             WIRE SEAL                CCN000280000000280000FY00028000020211201000000000NNED0420211217113536W41 1C0C  00004000000000104000000152432W41   HJYHK   002700430014
BI00B32W4    4500183480     202112157283-8630                CONNECTOR ASS'Y          CCN000006000000006000FY00000600020211201000000000NNE00020211217113559W41 4N0N  00000600000000540000000701332W41   HJYHK   005400370024
BI00B32W4    4500186082     202203107116-4122-02             TERMINAL                 CCN000004500000004500FN00000000020220301000004500NNE   20211217121642W46 4P0P  00000450000000656600000950232W46   HJYHK   006400630015
BI00B32W4    4500186083     202201137114-4112-02             TERMINAL                 CCN000009000000009000FN00000000020220101000009000NNE   20211217121642W46 4P0P  00000900000000598500000927132W46   HJYHK   006400630017
BI00B32W4    4500186083     202201137114-4100-02             TERMINAL                 CCN000018000000018000FN00000000020220101000018000NNE   20211217121642W46 4P0P  00001800000000748800001077432W46   HJYHK   006400630017
BI00B32W4    4500186084     202202037116-4121-02             TERMINAL                 CCN000027000000027000FN00000000020220201000027000NNE   20211217121642W46 4P0P  00000450000000618800000912432W46   HJYHK   006400630015
BI00A32W4    4500186093     202201277114-4112-02             TERMINAL                 CCN000045000000045000FN00000000020220101000045000NNE   20211217121642W4524P0P  00000900000000598500000927132W452  HJYHK   006400630017
BI00A32W4    4500186093     202201277158-3165-90             WIRE SEAL                CCN000040000000040000FN00000000020220101000040000NNE   20211217121642W4521C0C  00004000000000124000000172432W452  HJYHK   004300270014
BI00A32W4    4500186093     202201277116-4111-02             TERMINAL                 CCN000030000000030000FN00000000020220101000030000NNE   20211217121642W4524P0P  00000750000000529500000817732W452  HJYHK   006400630015
BI00B32W4    4500186096     202202247116-4120-02             TERMINAL                 CCN000006000000006000FN00000000020220201000006000NNE   20211217121642W4N84P0P  00000600000000780000001073632W4N8  HJYHK-J 006400630015
BI00B32W4    4500186096     202202247116-4111-02             TERMINAL                 CCN000015000000015000FN00000000020220201000015000NNE   20211217121642W4N84P0P  00000750000000529500000817732W4N8  HJYHK-J 006400630015
BI00B32W4    4500186098     202202177116-4111-02             TERMINAL                 CCN000030000000030000FN00000000020220201000030000NNE   20211217121642W4N84P0P  00000750000000529500000817732W4N8  HJYHK-J 006400630015
BI00B32W4    4500186103     202202107282-8120-40             CONNECTOR HOUSING        CCN000003000000003000FN00000000020220201000003000NNE   20211217121642W4171N0N  00000300000001356000001520032W417  HJYHK   005500360039
BI00B32W4    4500186104     202202177283-5843                CONNECTOR                CCN000001500000001500FN00000000020220201000001500NNE   20211217121642W4171N0N  00000150000000889000001132032W417  HJYHK   005600390040
BI00B32W4    4500186104     202202177114-6041                TERMINAL                 CCN000003600000003600FN00000000020220201000003600NNE   20211217121642W4174P0P  00000360000000580700000824232W417  HJYHK   006400630015
BI00B32W4    #4500186104    202202177183-8927                HOUSING                  CCN000004000000004000FN00000000020220201000004000NNE   20211217121642W4172F0F  00000400000000714000000912732W417  HJYHK   005500360039
BI00B32W4    #4500186104    202202177282-3020                CONNECTOR                CCN000003000000003000FN00000000020220201000003000NNE   20211217121642W4172N0N  00000100000000984000001145432W417  HJYHK   005500360039
BI00B32W4    #4500186106    202203037147-3642-30             CLIP                     CCN000075000000075000FN00000000020220301000075000NNE   20211217121642W4172F0F  00000300000000542000000721332W417  HJYHK   005600390040
BI00A32W4    4500186124     202203107116-4124-02             TERMINAL                 CCN000003000000003000FN00000000020220301000003000NNE   20211217121642W4804P0P  00000300000000459900000753532W480  HJYHK-J 006400630015
BI00A32W4    4500186128     202203037116-4103-02             TERMINAL                 CCN000012000000012000FN00000000020220301000012000NNE   20211217121642W4804P0P  00001200000000571200000859432W480  HJYHK-J 006400630015
BI00A32W4    #4500186128    202203037047-5344                RETAINER                 CCN000010000000010000FN00000000020220301000010000NNE   20211217121642W4802F0F  00001000000000870000001016032W480  HJYHK-J 005600390023
BI00A32W4    #4500186128    202203037283-8398-40             CONNECTOR                CCN000004620000004620FN00000000020220301000004620NNE   20211217121642W4802N0N  00000154000001007000001171332W480  HJYHK-J 005600390023
BI00B32W4    4500186131     202201207116-4022                TERMINAL                 CCN000337500000337500FN00000000020220101000337500NNE   20211217121642W4514P0P  00001350000000618300000903532W451  HJ32W9  006400630015
BI00B32W4    4500186131     202201207116-4026                TERMINAL                 CCN000048000000048000FN00000000020220101000048000NNE   20211217121642W4514P0P  00001600000000664000000994332W451  HJ32W9  006400630017
BI00B32W4    4500186131     202201207116-4231-02             TERMINAL                 CCN000754000000754000FN00000000020220101000754000NNE   20211217121642W4514P0P  00002600000000683800001012532W451  HJ32W9  006400630017
BI00B32W4    4500186131     202201207116-5045-02             TERMINAL                 CCN000016000000016000FN00000000020220101000016000NNE   20211217121642W4514P0P  00001600000000678400001007132W451  HJ32W9  006400630017
BI00B32W4    4500186131     202201207116-6041                TERMINAL                 CCN000081000000081000FN00000000020220101000081000NNE   20211217121642W4514P0P  00000450000000716000001009632W451  HJ32W9  006400630015
BI00B32W4    4500186131     202201207282-1065                CONNECTOR                CCN000001500000001500FN00000000020220101000001500NNE   20211217121642W4511N0N  00000150000000795000001012032W451  HJ32W9  005600390040
BI00B32W4    4500186131     202201207283-1020                CONNECTOR                CCN000150000000150000FN00000000020220101000150000NNE   20211217121642W4514N0N  00000600000000840000001049332W451  HJ32W9  005600390040
BI00B32W4    4500186131     202201207283-1968-30             CONNECTOR                CCN000005400000005400FN00000000020220101000005400NNE   20211217121642W4511N0N  00000090000001140000001318332W451  HJ32W9  005600390040
BI00B32W4    4500186131     202201207283-7028-30             CONNECTOR                CCN000060000000060000FN00000000020220101000060000NNE   20211217121642W4514N0N  00000300000001452000001681332W451  HJ32W9  005600390040
BI00B32W4    #4500186131    202201207047-5344                RETAINER                 CCN000010000000010000FN00000000020220101000010000NNE   20211217121642W4512F0F  00001000000000870000001016032W451  HJ32W9  005600390023
BI00B32W4    #4500186131    202201207186-8845                HOUSING MALE             CCN000012000000012000FN00000000020220101000012000NNE   20211217121642W4512F0F  00000300000000690000000801532W451  HJ32W9  005400370024
BI00B32W4    #4500186131    202201207283-4190-30             CONNECTOR                CCN000003120000003120FN00000000020220101000003120NNE   20211217121642W4512N0N  00000024000000846000001115532W451  HJ32W9  005600390040
BI00B32W4    @4500186131    202201207183-8049                CONNECTOR HOUSING        CCN000028000000028000FN00000000020220101000028000NNE   20211217121642W4513F0F  00000400000000583600000740032W451  HJ32W9  005400370024
BI00B32W4    @4500186131    202201207283-3030                HOUSING FEMALE ASS'Y     CCN000016000000016000FN00000000020220101000016000NNE   20211217121642W4513N0N  00000160000001056300001303032W451  HJ32W9  005500360039
BI00A32W4    #4500186149    202204047157-3821                RUBBER STOPPER           CCN000020000000020000FN00000000020220401000020000NNE   20211217121642W43 2C0C  00002000000000176000000238032W43   HJYHK   002700430014
BI00A32W4    #4500186154    202201037183-1615                HOUSING                  CCN000004800000004800FN00000000020220101000004800NNE   20211217121642W4162F0F  00000480000000757000001042032W416  HJYHK   005500360039
BI00A32W4    4500186156     202201147116-4124-02             TERMINAL                 CCN000198000000198000FN00000000020211201000198000NNED0720211217121642W4654P0P  00000300000000459900000753532W465  HJYHK   006400630015
BI00B32W9    4500168359     202112217289-6868-30             SEALED ASSY FEMALE       CCN000010080000010080FN00000000020210401000010080NNE00020211217121642W9  4N0N  00000252000000839200001119232W9    HKYHK   005500360039
BI00B32W9    4500168359     202112157289-6868-30             SEALED ASSY FEMALE       CCN000010080000010080FY00001008020210401000000000NNED0520211217113340W9  4N0N  00000252000000839200001119232W9    HKYHK   005500360039
BI00B32W9    4500182074     202112157287-7975-4W             SQUIB SUB ASS'Y          CCN000050000000050000FY00005000020211101000000000NNED0420211217113508W9  4N0N  00001000000000837000001017032W9    HKYHK   005400370024
BI00B32W9    4500182074     202112157298-1145-4W             SQUIB SUB ASS'Y          CCN000100000000100000FY00010000020211101000000000NNED0420211217113443W9  4N0N  00001000000000787900000944932W9    HKYHK   005400370024
BI00B32W9    4500185706     202203017298-1145-4W             SQUIB SUB ASS'Y          CCN000050000000050000FN00000000020220201000050000NNED0420211217121642W9  4N0N  00001000000000787900000944932W9    HKYHK   005400370024
BI00B32W9    4500186079     202202087114-4100-02             TERMINAL                 CCN000018000000018000FN00000000020220201000018000NNE   20211217121642W9  4P0P  00001800000000748800001077432W9    HKYHK   006400630017
BI00B32W9    @4500186134    202201047283-1061                CONNECTOR SUB ASSY       CCN000004800000004800FN00000000020211201000004800NNED0720211217121642W9  3N0N  00000240000000829700001065032W9    HKYHK   005500360039
BI00B32W9    4500186139     202201187283-1968-30             CONNECTOR                CCN000000900000000900FN00000000020220101000000900NNE   20211217121642W9  1N0N  00000090000001140000001318332W9    HKYHK   005600390040
BI00B32W9    #4500186139    202201187283-8398-40             CONNECTOR                CCN000004620000004620FN00000000020220101000004620NNE   20211217121642W9  2N0N  00000154000001007000001171332W9    HKYHK   005600390023
BI00B32X5    TIB1044        202112247289-3342-30             HOUSING FEMALE ASS'Y     CCN000129600000129600FN00000000020211201000129600NNM00020211217155918X5  1N0N  00000240000000686400000901432X5    EPYNA-E 005500360039
BI00A32X5    TIB1045        202112147172-5403-30             SEALED PACKING           PCN000008000000008000FY00000800020211201000000000NNMD0720211217112726X5  1C0C  00000400000000653600000701732X5    EPYNA-E 004300270014
BI00A32X5    TIB2006        202112217289-6518-30             HOUSING FEMALE ASS'Y     CCN000002400000002400FN00000000020220301000002400NNMM0020211217142436X5  1N0N  00000120000000829200001049232X5    EPYNA-E 005500360039
BI00A32X5    TIB2007        202112217114-6041                TERMINAL                 CCN000003600000003600FN00000000020220401000003600NNMM0020211217170852X5  4P0P  00000360000000580700000824232X5    EPYNA-E 006400630015
BI00A32X5    TIB2007        202112217283-6568-40             CONNECTOR                CCN000004000000004000FN00000000020220401000004000NNMM0020211217170852X5  4N0N  00000200000001090000001263032X5    EPYNA-E 005500360039
BI00A32X5    TIB2007        202112217289-6518-30             HOUSING FEMALE ASS'Y     CCN000002400000002400FN00000000020220401000002400NNMM0020211217165329X5  1N0N  00000120000000829200001049232X5    EPYNA-E 005500360039
BI00B32X5    #TIB2007       202201147172-5626-90             RUBBER STOPPER           CCN000040000000020000FN00000000020220401000020000NNMQ0020211217152004X5  2H0H  00002000000000076400000127832X5    EPYNA-E 004300270014
BI00B32X5    #TIB2007       202201147172-5628-80             DUMMY PLUG               CCN000040000000020000FN00000000020220401000020000NNMQ0020211217152134X5  2H0H  00002000000000110600000162032X5    EPYNA-E 004300270014
BI00B32X5    TIB2009        202202257288-6598-70             HOUSING MALE ASS'Y       CCN000004320000004320FN00000000020220401000004320NNMD0420211217121642X5  4N0N  00000144000001074200001429232X5    EPYNA-E 005500360039
BI00A32X5    #TIB2007       202112217172-5626-90             RUBBER STOPPER           CCN000020000000020000FN00000000020220401000020000NNMM0020211217153940X5  2H0H  00002000000000076400000127832X5    EPYNA-E 004300270014
BI00A32X5    #TIB2007       202112217172-5628-80             DUMMY PLUG               CCN000020000000020000FN00000000020220401000020000NNMM0020211217153940X5  2H0H  00002000000000110600000162032X5    EPYNA-E 004300270014
BI00B32Y2    TAU1151        202112167288-3206                HOUSING MALE ASS'Y       CCN000024480000008160FY00000816020220201000000000NNED0720211217113802    1N0N  00000102000000387600000787632Y2    YUYUY   005500360039
BI00B32Y8    TAIM2110A      202112167158-3006-90             RUBBER STOPPER           CCN000040000000040000FY00004000020211201000000000NNM00020211217113631Y8  1C0C  00002000000000330600000386032Y8    CLYCL   002700430014
BI00A32Y8    TAIM21101      202112167286-3970                CONNECTOR HOUSING        CCN000000330000000330FY00000033020220301000000000NNE00020211217113713Y8  1N0N  00000011000000977300001164032Y8    CLYCL   005500360039
BI00A32Y8    TAIM21101      202112167370-0309                J/B ASS'Y                CCN000000352000000352FY00000035220220301000000000NNE00020211217113713Y8  1J0J  00000001600000870400001260032Y8    CLYCL   005500360039
BI00A32Y8    TAIM21101      202112167370-0310                J/B ASS'Y                CCN000000500000000500FY00000050020220301000000000NNE00020211217113719Y8  1J0J  00000001000000559000000809032Y8    CLYCL   005500360039
BI00A32Y8    TAIM21101      202112167140-1977-30             UPPER COVER              CCN000000050000000050FY00000005020220301000000000NNE00020211217113713Y8  1F0F  00000001000000099500000249532Y8    CLYCL   005600390040
BI00A32Y8    TAIM21101      202112167283-1968-30             CONNECTOR                CCN000000900000000900FY00000090020220301000000000NNE00020211217113713Y8  1N0N  00000090000001140000001318332Y8    CLYCL   005600390040
BI00A32Y8    TAIM21114      202112167289-3342-30             HOUSING FEMALE ASS'Y     CCN000004800000004800FY00000480020220401000000000NNED0420211217115013Y8  1N0N  00000240000000686400000901432Y8    CLYCL   005500360039
BI00A32Y8    #TAIM21114     202112167157-7812                SEAL RUBBER              CCN000040000000040000FY00004000020220401000000000NNED0020211217113841Y8  2C0C  00001000000000137000000202032Y8    CLYCL   002700430014
