BI00B32AG    XG2201ACMW     2022010718000004590              AV 8 L                   CCN000000300000000300FN00000000020220101000000300NNE   20211215165419    1W    00000010000009148000000000032AG    XGXGY   000000000000XU31C001
BI00B32CJ    TTQ1104        20211217180D0203741              AVSSH 0.3F GY            CCN000002000000002000FN00000000020211001000002000NNM30 20211215100833    1W    00000200000000515000000000032CJ    QNYHVQN 000000000000UQ41A034
BI00B32DG    RW1121         202112231801W006930              IVSSH 0.35F B            CCN000055000000055000FN00000000020211201000055000NNM20 20211215150609    1W    00000250000000452000000000032DG    BFSAIBF 000000000000GV41A027
BI00B32DG    RW1121         202112231801W00695U              IVSSH 0.35F BE           CCN000045000000045000FN00000000020211201000045000NNM20 20211215150609    1W    00000250000000452000000000032DG    BFSAIBF 000000000000GV41A028
BI00B32DG    RW1121         202112231801W006960              IVSSH 0.35F G            CCN000037500000037500FN00000000020211201000037500NNM20 20211215150609    1W    00000250000000452000000000032DG    BFSAIBF 000000000000GV41A029
BI00B32DG    RW1121         202112231801W006941              IVSSH 0.35F GY           CCN000015000000015000FN00000000020211201000015000NNM20 20211215150609    1W    00000250000000452000000000032DG    BFSAIBF 000000000000GV41A030
BI00B32DG    RW1121         202112231801W006990              IVSSH 0.35F L            CCN000020000000020000FN00000000020211201000020000NNM20 20211215150609    1W    00000250000000452000000000032DG    BFSAIBF 000000000000GV41A031
BI00B32DG    RW1121         202112231801W006961              IVSSH 0.35F LG           CCN000035000000035000FN00000000020211201000035000NNM20 20211215150609    1W    00000250000000452000000000032DG    BFSAIBF 000000000000GV41A032
BI00B32DG    RW1121         202112231801W006952              IVSSH 0.35F P            CCN000035000000035000FN00000000020211201000035000NNM20 20211215150609    1W    00000250000000452000000000032DG    BFSAIBF 000000000000GV41A033
BI00B32DG    RW1121         202112231801W006950              IVSSH 0.35F R            CCN000070000000070000FN00000000020211201000070000NNM20 20211215150609    1W    00000250000000452000000000032DG    BFSAIBF 000000000000GV41A034
BI00B32DG    RW1121         202112231801W006991              IVSSH 0.35F SB           CCN000040000000040000FN00000000020211201000040000NNM20 20211215150609    1W    00000250000000452000000000032DG    BFSAIBF 000000000000GV41A035
BI00B32DG    RW1121         202112231801W006992              IVSSH 0.35F V            CCN000067500000067500FN00000000020211201000067500NNM20 20211215150609    1W    00000250000000452000000000032DG    BFSAIBF 000000000000GV41A036
BI00B32DG    RW1121         202112231801W006940              IVSSH 0.35F W            CCN000072500000072500FN00000000020211201000072500NNM20 20211215150609    1W    00000250000000452000000000032DG    BFSAIBF 000000000000GV41A037
BI00B32DG    RW1121         202112231801W006943              IVSSH 0.35F W/B          CCN000050000000050000FN00000000020211201000050000NNM20 20211215150609    1W    00000250000000452000000000032DG    BFSAIBF 000000000000GV41A038
BI00B32DG    RW1121         202112231801W006970              IVSSH 0.35F Y            CCN000002500000002500FN00000000020211201000002500NNM20 20211215150609    1W    00000250000000452000000000032DG    BFSAIBF 000000000000GV41A039
BI00B32DG    RW1121         202112231801W003960              IVSSH 0.5F G             CCN000070200000070200FN00000000020211201000070200NNM20 20211215150609    1W    00000180000000625000000000032DG    BFSAIBF 000000000000GV41A018
BI00B32DG    RW1121         202112231801W003941              IVSSH 0.5F GY            CCN000036000000036000FN00000000020211201000036000NNM20 20211215150609    1W    00000180000000625000000000032DG    BFSAIBF 000000000000GV41A019
BI00B32DG    RW1121         202112231801W003990              IVSSH 0.5F L             CCN000041400000041400FN00000000020211201000041400NNM20 20211215150609    1W    00000180000000625000000000032DG    BFSAIBF 000000000000GV41A020
BI00B32DG    RW1121         202112231801W003952              IVSSH 0.5F P             CCN000018000000018000FN00000000020211201000018000NNM20 20211215150609    1W    00000180000000625000000000032DG    BFSAIBF 000000000000GV41A021
BI00B32DG    RW1121         202112231801W003992              IVSSH 0.5F V             CCN000027000000027000FN00000000020211201000027000NNM20 20211215150609    1W    00000180000000625000000000032DG    BFSAIBF 000000000000GV41A023
BI00B32DG    RW1121         202112231801W003940              IVSSH 0.5F W             CCN000036000000036000FN00000000020211201000036000NNM20 20211215150609    1W    00000180000000625000000000032DG    BFSAIBF 000000000000GV41A024
BI00B32DG    RW1121         202112231801W003970              IVSSH 0.5F Y             CCN000023400000023400FN00000000020211201000023400NNM20 20211215150609    1W    00000180000000625000000000032DG    BFSAIBF 000000000000GV41A026
BI00B32DG    RW1121         202112231801W00395U              IVSSH 0.5F BE            CCN000027000000027000FN00000000020211201000027000NNM20 20211215150609    1W    00000180000000625000000000032DG    BFSAIBF 000000000000GV41A016
BI00B32DG    RW1121         202112231801W003950              IVSSH 0.5F R             CCN000012600000012600FN00000000020211201000012600NNM20 20211215150609    1W    00000180000000625000000000032DG    BFSAIBF 000000000000GV41A022
BI00B32DG    RW1121         202112231801W003943              IVSSH 0.5F W/B           CCN000012600000012600FN00000000020211201000012600NNM20 20211215150609    1W    00000180000000625000000000032DG    BFSAIBF 000000000000GV41A025
BI00B32DG    RW1121         202112231801W003980              IVSSH 0.5F BR            CCN000027000000027000FN00000000020211201000027000NNM20 20211215150609    1W    00000180000000625000000000032DG    BFSAIBF 000000000000GV41A017
BI00B32E1    WC2041         2022012718000004530              AV 8 B                   CCN000002100000002100FN00000000020220301000002100NNM   20211215082107    1W    00000010000009148000000000032E1    SPYSE   000000000000KC221001
BI00B32E1    WC2042         2022020318000004530              AV 8 B                   CCN000001400000001400FN00000000020220301000001400NNM   20211215082107    1W    00000010000009148000000000032E1    SPYSE   000000000000KC321001
BI00B32E1    WC2043         2022021018000004530              AV 8 B                   CCN000001100000001100FN00000000020220301000001100NNM   20211215082107    1W    00000010000009148000000000032E1    SPYSE   000000000000KC421001
BI00B32E1    WC2044         2022021718000004530              AV 8 B                   CCN000001100000001100FN00000000020220301000001100NNM   20211215082107    1W    00000010000009148000000000032E1    SPYSE   000000000000KC122001
BI00B32E1    WC2041         2022012718000004570              AV 8 Y                   CCN000002100000002100FN00000000020220301000002100NNM   20211215082107    1W    00000010000009148000000000032E1    SPYSE   000000000000KC221002
BI00B32E1    WC2042         2022020318000004570              AV 8 Y                   CCN000002400000002400FN00000000020220301000002400NNM   20211215082107    1W    00000010000009148000000000032E1    SPYSE   000000000000KC321002
BI00B32E1    WC2043         2022021018000004570              AV 8 Y                   CCN000001100000001100FN00000000020220301000001100NNM   20211215082107    1W    00000010000009148000000000032E1    SPYSE   000000000000KC421002
BI00B32E1    WC2044         2022021718000004570              AV 8 Y                   CCN000001100000001100FN00000000020220301000001100NNM   20211215082107    1W    00000010000009148000000000032E1    SPYSE   000000000000KC122002
BI00B32H2    @TAW1102       20211217181AD2004ZZ              CIVUSAS-S 0.35X4 B       CCN000000300000000300FN00000000020211001000000300NNM30 20211215100330    1W    00000030000002784000000000032H2    HVYHV   000000000000UH21A027
BI00B32M4    @TH2014        20211230181CQ7003ZZ              IVSSHCS-S 0.5FX2 B(B,W)  CCN000001200000000900FN00000000020220101000000900NNM00 20211215161725    1W    00000030000002333100000000032M4    SISAI   000000000000GH21C003
BI00A32M4    TW2021         202112171801W004080              IVSSH 0.75F BR           CCN000001300000001300FN00000000020220201000001300NNM20 20211215185458    1W    00000130000000882000000000032M4    SISAI   000000000000GW31C037
BI00A32M4    TW2021         202112171801W004092              IVSSH 0.75F V            CCN000001300000001300FN00000000020220201000001300NNM20 20211215185458    1W    00000130000000882000000000032M4    SISAI   000000000000GW31C041
BI00A32M4    @TH2014        20211217181CQ7003ZZ              IVSSHCS-S 0.5FX2 B(B,W)  CCN000000300000000300FN00000000020220101000000300NNM20 20211215185458    1W    00000030000002333100000000032M4    SISAI   000000000000GH21C003
BI00A32M8    PM21094TMW     202112161801W004092              IVSSH 0.75F V            PCN000002600000002600FN00000000020210901000002600NNM22 20211215133027    1W    00000130000000882000000000032M8    PMPEMI  000000000000IT218025
BI00A32M8    PM21104 MW     202112171801W004043              IVSSH 0.75F W/B          PCN000003900000003900FN00000000020211001000003900NNM22 20211215141646    1W    00000130000000882000000000032M8    PMPEMI  000000000000IM41A042
BI00A32M8    PM21104 MW     2021121718007704040              AVSS 0.75F W             PCN000001000000001000FN00000000020211001000001000NNM22 20211215141646    1W    00000100000000943000000000032M8    PMPEMI  000000000000IM41A039
BI00A32M8    PM21104 MW     2022010518007704050              AVSS 0.75F R             PCN000001000000001000FN00000000020211001000001000NNM23 20211215084728    1W    00000100000000943000000000032M8    PMPEMI  000000000000IM41A038
BI00A32M8    @PM21104 MW    20211217181B32037Z5              AVSSCS 0.3FX1 DGY/L      PCN000003500000003500FN00000000020211001000003500NNM25 20211215141646    1W    00000050000001780000000000032M8    PMPEMI  000000000000IM41A005
BI00A32M8    @PM21104 MW    20220105181B32102G0              AVSSCS 0.5FX2 DGY/BR     PCN000000600000000600FN00000000020211001000000600NNM27 20211215084859    1W    00000030000002779000000000032M8    PMPEMI  000000000000IM41A007
BI00A32M8    @PM21104 MW    20220105181B32102S1              AVSSCS 0.5FX2 DGY        PCN000003900000003900FN00000000020211001000003900NNM27 20211215084859    1W    00000030000002779000000000032M8    PMPEMI  000000000000IM41A006
BI00A32M8    @PM21104 MW    20211217181D6910235              AVSSHCS 0.5FX2 B/R       PCN000000900000000900FN00000000020211001000000900NNM25 20211215141646    1W    00000030000002792600000000032M8    PMPEMI  000000000000IM41A011
BI00A32M8    @PM21104 MW    20220104181F21008ZZ              AVSSHCS-S 0.5FX1 B/V     PCN000004000000004000FN00000000020211001000004000NNM26 20211215084619    1W    00000040000001847000000000032M8    PMPEMI  000000000000IM41A012
BI00A32M8    @PM21104 MW    20220104181F21011ZZ              AVSSHCS-S 0.5FX2 B/R     PCN000001200000001200FN00000000020211001000001200NNM26 20211215084631    1W    00000030000002505800000000032M8    PMPEMI  000000000000IM41A014
BI00A32M8    PM2111A MW     2022010518007703940              AVSS 0.5F W              PCN000004500000004500FN00000000020211101000004500NNE22 20211215084939    1W    00000150000000674000000000032M8    PMPEMI  000000000000IC41A012
BI00A32M8    PM2112ETMW     202112171801W003950              IVSSH 0.5F R             CCN000010800000010800FN00000000020211201000010800NNE21 20211215143005    1W    00000180000000625000000000032M8    PMPEMI  000000000000IE31C009
BI00A32M8    PM2112ETMW     202112171801W003930              IVSSH 0.5F B             CCN000009000000009000FN00000000020211201000009000NNE21 20211215143005    1W    00000180000000625000000000032M8    PMPEMI  000000000000IE31C001
BI00B32Q8    @EW2202A MW    20220112181D6910230              AVSSHCS 0.5FX2 B         CCN000004800000004800FN00000000020220201000004800NNE   20211215105924    1W    00000030000002792600000000032Q8    EMEMI   000000000000MR41C001
BI00B32Q8    @EW2202A MW    20220112181D6910235              AVSSHCS 0.5FX2 B/R       CCN000001800000001800FN00000000020220201000001800NNE   20211215105924    1W    00000030000002792600000000032Q8    EMEMI   000000000000MR41C002
BI00B32Q8    @EW2202A MW    20220112181E48022ZZ              CAVSAS-S 0.5X2 GY        CCN000002100000002100FN00000000020220201000002100NNE   20211215105924    1W    00000030000002493000000000032Q8    EMEMI   000000000000MR41C003
BI00B32Q8    @EW2202A MW    20220112181E48027ZZ              CAVSAS-S 0.5X2 GY/P      CCN000001800000001800FN00000000020220201000001800NNE   20211215105924    1W    00000030000002493000000000032Q8    EMEMI   000000000000MR41C004
BI00A32Q8    @EW2202A MW    20211216181E48037ZZ              CAVSAS-S 0.3X4 GY        CCN000000250000000250FN00000000020220201000000250NNE20 20211215114609    1W    00000025000003340000000000032Q8    EMEMI   000000000000MR41C005
BI00B32W2    HN2201ANMW     2022010418000004560              AV 8 G                   CCN000000400000000400FN00000000020220101000000400NNE   20211215081744    1W    00000010000009148000000000032W2    HNHNY   000000000000HC31C001
BI00B32W2    @HN2201ANMW    20211221181B32116Y9              AVSSCS 0.3FX2 DGY/P      CCN000000350000000350FN00000000020220101000000350NNE   20211215084221    1W    00000035000002241000000000032W2    HNHNY   000000000000HA11C001
BI00B32W2    HN2201BNMW     2022010418000004560              AV 8 G                   CCN000000400000000400FN00000000020220101000000400NNE   20211215081745    1W    00000010000009148000000000032W2    HNHNY   000000000000HD31C001
BI00B32W2    @HN2201BNMW    20211221181B32116Y9              AVSSCS 0.3FX2 DGY/P      CCN000000700000000700FN00000000020220101000000700NNE   20211215084222    1W    00000035000002241000000000032W2    HNHNY   000000000000HB11C001
BI00B32W2    HN2201BWMW     2022010418000004530              AV 8 B                   CCN000009000000009000FN00000000020220101000009000NNE   20211215081746    1W    00000010000009148000000000032W2    HNHNY   000000000000HF31C001
BI00B32W4    4500185421     2022010418018403714              CAVS 0.3 L/O             CCN000002000000002000FN00000000020211201000002000NNE   20211215092306W41 1W    00000200000000471000000000032W41   HJYHK-J 000000000000ON31C001
BI00B32W4    4500185538     2022010418007703930              AVSS 0.5F B              CCN000001500000001500FN00000000020211201000001500NNE   20211215092307W42 1W    00000150000000674000000000032W42   HJYHK-J 000000000000OR31C001
BI00B32W4    4500185538     2022010418007703941              AVSS 0.5F GY             CCN000024000000024000FN00000000020211201000024000NNE   20211215092307W42 1W    00000150000000674000000000032W42   HJYHK-J 000000000000OR31C004
BI00B32W4    4500185538     2022010418007703960              AVSS 0.5F G              CCN000016500000016500FN00000000020211201000016500NNE   20211215092307W42 1W    00000150000000674000000000032W42   HJYHK-J 000000000000OR31C002
BI00B32W4    4500185538     2022010418007703965              AVSS 0.5F G/R            CCN000001500000001500FN00000000020211201000001500NNE   20211215092307W42 1W    00000150000000674000000000032W42   HJYHK-J 000000000000OR31C003
BI00B32W4    4500185538     2022010418007703970              AVSS 0.5F Y              CCN000001500000001500FN00000000020211201000001500NNE   20211215092307W42 1W    00000150000000674000000000032W42   HJYHK-J 000000000000OR31C008
BI00B32W4    4500185538     2022010418007703990              AVSS 0.5F L              CCN000007500000007500FN00000000020211201000007500NNE   20211215092307W42 1W    00000150000000674000000000032W42   HJYHK-J 000000000000OR31C005
BI00B32W4    4500185538     2022010418007703995              AVSS 0.5F L/R            CCN000001500000001500FN00000000020211201000001500NNE   20211215092307W42 1W    00000150000000674000000000032W42   HJYHK-J 000000000000OR31C006
BI00B32W4    4500185538     2022010418007703997              AVSS 0.5F L/Y            CCN000001500000001500FN00000000020211201000001500NNE   20211215092307W42 1W    00000150000000674000000000032W42   HJYHK-J 000000000000OR31C007
BI00B32W4    4500185538     2022010418007704130              AVSS 1.25F B             CCN000003200000003200FN00000000020211201000003200NNE   20211215092307W42 1W    00000080000001389000000000032W42   HJYHK-J 000000000000OR31C009
BI00B32W4    4500185538     2022010418007704150              AVSS 1.25F R             CCN000000800000000800FN00000000020211201000000800NNE   20211215092307W42 1W    00000080000001389000000000032W42   HJYHK-J 000000000000OR31C012
BI00B32W4    4500185538     2022010418007704151              AVSS 1.25F O             CCN000000800000000800FN00000000020211201000000800NNE   20211215092307W42 1W    00000080000001389000000000032W42   HJYHK-J 000000000000OR31C011
BI00B32W4    4500185538     2022010418007704160              AVSS 1.25F G             CCN000000800000000800FN00000000020211201000000800NNE   20211215092307W42 1W    00000080000001389000000000032W42   HJYHK-J 000000000000OR31C010
BI00B32W4    4500185538     2022010418007704230              AVSS 2F B                CCN000000500000000500FN00000000020211201000000500NNE   20211215092307W42 1W    00000050000002126400000000032W42   HJYHK-J 000000000000OR31C013
BI00B32W4    4500185538     2022010418007704250              AVSS 2F R                CCN000001500000001500FN00000000020211201000001500NNE   20211215092307W42 1W    00000050000002126400000000032W42   HJYHK-J 000000000000OR31C014
BI00B32W4    4500185538     2022010418009603930              AVS 0.5 B                CCN000001000000001000FN00000000020211201000001000NNE   20211215092307W42 1W    00000100000000850000000000032W42   HJYHK-J 000000000000OR31C015
BI00B32W4    4500185538     2022010418009603950              AVS 0.5 R                CCN000001000000001000FN00000000020211201000001000NNE   20211215092307W42 1W    00000100000000850000000000032W42   HJYHK-J 000000000000OR31C020
BI00B32W4    4500185538     2022010418009603960              AVS 0.5 G                CCN000003000000003000FN00000000020211201000003000NNE   20211215092307W42 1W    00000100000000850000000000032W42   HJYHK-J 000000000000OR31C017
BI00B32W4    4500185538     2022010418009604030              AVS 0.85 B               CCN000004000000004000FN00000000020211201000004000NNE   20211215092307W42 1W    00000100000001148000000000032W42   HJYHK-J 000000000000OR31C022
BI00B32W4    4500185538     2022010418009604060              AVS 0.85 G               CCN000005000000005000FN00000000020211201000005000NNE   20211215092307W42 1W    00000100000001148000000000032W42   HJYHK-J 000000000000OR31C023
BI00B32W4    4500185538     2022010418009604130              AVS 1.25 B               CCN000001600000001600FN00000000020211201000001600NNE   20211215092307W42 1W    00000080000001620000000000032W42   HJYHK-J 000000000000OR31C031
BI00B32W4    4500185538     2022010418009604150              AVS 1.25 R               CCN000014400000014400FN00000000020211201000014400NNE   20211215092307W42 1W    00000080000001620000000000032W42   HJYHK-J 000000000000OR31C032
BI00B32W4    4500185538     2022010418009604330              AVS 3 B                  CCN000001600000001600FN00000000020211201000001600NNE   20211215092307W42 1W    00000040000003777500000000032W42   HJYHK-J 000000000000OR31C035
BI00B32W4    4500185538     2022010418009604354              AVS 3 R/W                CCN000003600000003600FN00000000020211201000003600NNE   20211215092307W42 1W    00000040000003777500000000032W42   HJYHK-J 000000000000OR31C036
BI00B32W4    4500185538     2022010418009604357              AVS 3 R/Y                CCN000006000000006000FN00000000020211201000006000NNE   20211215092307W42 1W    00000040000003777500000000032W42   HJYHK-J 000000000000OR31C037
BI00B32W4    4500185538     2022010418018403707              CAVS 0.3 P/B             CCN000002000000002000FN00000000020211201000002000NNE   20211215092307W42 1W    00000200000000471000000000032W42   HJYHK-J 000000000000OR31C050
BI00B32W4    4500185538     2022010418018403717              CAVS 0.3 LG/B            CCN000004000000004000FN00000000020211201000004000NNE   20211215092307W42 1W    00000200000000471000000000032W42   HJYHK-J 000000000000OR31C047
BI00B32W4    4500185538     2022010418018403730              CAVS 0.3 B               CCN000002000000002000FN00000000020211201000002000NNE   20211215092307W42 1W    00000200000000471000000000032W42   HJYHK-J 000000000000OR31C038
BI00B32W4    4500185538     2022010418018403734              CAVS 0.3 B/W             CCN000002000000002000FN00000000020211201000002000NNE   20211215092307W42 1W    00000200000000471000000000032W42   HJYHK-J 000000000000OR31C041
BI00B32W4    4500185538     2022010418018403735              CAVS 0.3 B/R             CCN000002000000002000FN00000000020211201000002000NNE   20211215092307W42 1W    00000200000000471000000000032W42   HJYHK-J 000000000000OR31C040
BI00B32W4    4500185538     2022010418018403739              CAVS 0.3 B/L             CCN000002000000002000FN00000000020211201000002000NNE   20211215092307W42 1W    00000200000000471000000000032W42   HJYHK-J 000000000000OR31C039
BI00B32W4    4500185538     2022010418018403740              CAVS 0.3 W               CCN000004000000004000FN00000000020211201000004000NNE   20211215092307W42 1W    00000200000000471000000000032W42   HJYHK-J 000000000000OR31C055
BI00B32W4    4500185538     2022010418018403745              CAVS 0.3 W/R             CCN000002000000002000FN00000000020211201000002000NNE   20211215092307W42 1W    00000200000000471000000000032W42   HJYHK-J 000000000000OR31C056
BI00B32W4    4500185538     2022010418018403751              CAVS 0.3 O               CCN000002000000002000FN00000000020211201000002000NNE   20211215092307W42 1W    00000200000000471000000000032W42   HJYHK-J 000000000000OR31C048
BI00B32W4    4500185538     2022010418018403752              CAVS 0.3 P               CCN000002000000002000FN00000000020211201000002000NNE   20211215092307W42 1W    00000200000000471000000000032W42   HJYHK-J 000000000000OR31C049
BI00B32W4    4500185538     2022010418018403754              CAVS 0.3 R/W             CCN000002000000002000FN00000000020211201000002000NNE   20211215092307W42 1W    00000200000000471000000000032W42   HJYHK-J 000000000000OR31C052
BI00B32W4    4500185538     2022010418018403756              CAVS 0.3 R/G             CCN000002000000002000FN00000000020211201000002000NNE   20211215092307W42 1W    00000200000000471000000000032W42   HJYHK-J 000000000000OR31C051
BI00B32W4    4500185538     2022010418018403757              CAVS 0.3 R/Y             CCN000002000000002000FN00000000020211201000002000NNE   20211215092307W42 1W    00000200000000471000000000032W42   HJYHK-J 000000000000OR31C053
BI00B32W4    4500185538     2022010418018403760              CAVS 0.3 G               CCN000006000000006000FN00000000020211201000006000NNE   20211215092307W42 1W    00000200000000471000000000032W42   HJYHK-J 000000000000OR31C042
BI00B32W4    4500185538     2022010418018403763              CAVS 0.3 G/B             CCN000002000000002000FN00000000020211201000002000NNE   20211215092307W42 1W    00000200000000471000000000032W42   HJYHK-J 000000000000OR31C043
BI00B32W4    4500185538     2022010418018403767              CAVS 0.3 G/Y             CCN000002000000002000FN00000000020211201000002000NNE   20211215092307W42 1W    00000200000000471000000000032W42   HJYHK-J 000000000000OR31C044
BI00B32W4    4500185538     2022010418018403770              CAVS 0.3 Y               CCN000004000000004000FN00000000020211201000004000NNE   20211215092307W42 1W    00000200000000471000000000032W42   HJYHK-J 000000000000OR31C057
BI00B32W4    4500185538     2022010418018403790              CAVS 0.3 L               CCN000002000000002000FN00000000020211201000002000NNE   20211215092307W42 1W    00000200000000471000000000032W42   HJYHK-J 000000000000OR31C045
BI00B32W4    4500185538     2022010418018403792              CAVS 0.3 V               CCN000024000000024000FN00000000020211201000024000NNE   20211215092307W42 1W    00000200000000471000000000032W42   HJYHK-J 000000000000OR31C054
BI00B32W4    4500185538     2022010418018403795              CAVS 0.3 L/R             CCN000016000000016000FN00000000020211201000016000NNE   20211215092307W42 1W    00000200000000471000000000032W42   HJYHK-J 000000000000OR31C046
BI00B32W4    4500185538     2022010418018403930              CAVS 0.5 B               CCN000001500000001500FN00000000020211201000001500NNE   20211215092307W42 1W    00000150000000677000000000032W42   HJYHK-J 000000000000OR31C058
BI00B32W4    4500185538     2022010418018403934              CAVS 0.5 B/W             CCN000001500000001500FN00000000020211201000001500NNE   20211215092307W42 1W    00000150000000677000000000032W42   HJYHK-J 000000000000OR31C062
BI00B32W4    4500185538     2022010418018403935              CAVS 0.5 B/R             CCN000007500000007500FN00000000020211201000007500NNE   20211215092307W42 1W    00000150000000677000000000032W42   HJYHK-J 000000000000OR31C061
BI00B32W4    4500185538     2022010418018403936              CAVS 0.5 B/G             CCN000001500000001500FN00000000020211201000001500NNE   20211215092307W42 1W    00000150000000677000000000032W42   HJYHK-J 000000000000OR31C059
BI00B32W4    4500185538     2022010418018403939              CAVS 0.5 B/L             CCN000001500000001500FN00000000020211201000001500NNE   20211215092307W42 1W    00000150000000677000000000032W42   HJYHK-J 000000000000OR31C060
BI00B32W4    4500185538     2022010418018403940              CAVS 0.5 W               CCN000003000000003000FN00000000020211201000003000NNE   20211215092307W42 1W    00000150000000677000000000032W42   HJYHK-J 000000000000OR31C081
BI00B32W4    4500185538     2022010418018403943              CAVS 0.5 W/B             CCN000001500000001500FN00000000020211201000001500NNE   20211215092307W42 1W    00000150000000677000000000032W42   HJYHK-J 000000000000OR31C082
BI00B32W4    4500185538     2022010418018403945              CAVS 0.5 W/R             CCN000001500000001500FN00000000020211201000001500NNE   20211215092307W42 1W    00000150000000677000000000032W42   HJYHK-J 000000000000OR31C084
BI00B32W4    4500185538     2022010418018403949              CAVS 0.5 W/L             CCN000001500000001500FN00000000020211201000001500NNE   20211215092307W42 1W    00000150000000677000000000032W42   HJYHK-J 000000000000OR31C083
BI00B32W4    4500185538     2022010418018403950              CAVS 0.5 R               CCN000001500000001500FN00000000020211201000001500NNE   20211215092307W42 1W    00000150000000677000000000032W42   HJYHK-J 000000000000OR31C076
BI00B32W4    4500185538     2022010418018403951              CAVS 0.5 O               CCN000001500000001500FN00000000020211201000001500NNE   20211215092307W42 1W    00000150000000677000000000032W42   HJYHK-J 000000000000OR31C074
BI00B32W4    4500185538     2022010418018403952              CAVS 0.5 P               CCN000001500000001500FN00000000020211201000001500NNE   20211215092307W42 1W    00000150000000677000000000032W42   HJYHK-J 000000000000OR31C075
BI00B32W4    4500185538     2022010418018403954              CAVS 0.5 R/W             CCN000001500000001500FN00000000020211201000001500NNE   20211215092307W42 1W    00000150000000677000000000032W42   HJYHK-J 000000000000OR31C078
BI00B32W4    4500185538     2022010418018403956              CAVS 0.5 R/G             CCN000003000000003000FN00000000020211201000003000NNE   20211215092307W42 1W    00000150000000677000000000032W42   HJYHK-J 000000000000OR31C077
BI00B32W4    4500185538     2022010418018403957              CAVS 0.5 R/Y             CCN000004500000004500FN00000000020211201000004500NNE   20211215092307W42 1W    00000150000000677000000000032W42   HJYHK-J 000000000000OR31C079
BI00B32W4    4500185538     2022010418018403960              CAVS 0.5 G               CCN000004500000004500FN00000000020211201000004500NNE   20211215092307W42 1W    00000150000000677000000000032W42   HJYHK-J 000000000000OR31C066
BI00B32W4    4500185538     2022010418018403961              CAVS 0.5 LG              CCN000001500000001500FN00000000020211201000001500NNE   20211215092307W42 1W    00000150000000677000000000032W42   HJYHK-J 000000000000OR31C073
BI00B32W4    4500185538     2022010418018403964              CAVS 0.5 G/W             CCN000015000000015000FN00000000020211201000015000NNE   20211215092307W42 1W    00000150000000677000000000032W42   HJYHK-J 000000000000OR31C068
BI00B32W4    4500185538     2022010418018403965              CAVS 0.5 G/R             CCN000003000000003000FN00000000020211201000003000NNE   20211215092307W42 1W    00000150000000677000000000032W42   HJYHK-J 000000000000OR31C067
BI00B32W4    4500185538     2022010418018403970              CAVS 0.5 Y               CCN000004500000004500FN00000000020211201000004500NNE   20211215092307W42 1W    00000150000000677000000000032W42   HJYHK-J 000000000000OR31C085
BI00B32W4    4500185538     2022010418018403975              CAVS 0.5 Y/R             CCN000006000000006000FN00000000020211201000006000NNE   20211215092307W42 1W    00000150000000677000000000032W42   HJYHK-J 000000000000OR31C086
BI00B32W4    4500185538     2022010418018403980              CAVS 0.5 BR              CCN000001500000001500FN00000000020211201000001500NNE   20211215092307W42 1W    00000150000000677000000000032W42   HJYHK-J 000000000000OR31C063
BI00B32W4    4500185538     2022010418018403984              CAVS 0.5 BR/W            CCN000003000000003000FN00000000020211201000003000NNE   20211215092307W42 1W    00000150000000677000000000032W42   HJYHK-J 000000000000OR31C064
BI00B32W4    4500185538     2022010418018403987              CAVS 0.5 BR/Y            CCN000001500000001500FN00000000020211201000001500NNE   20211215092307W42 1W    00000150000000677000000000032W42   HJYHK-J 000000000000OR31C065
BI00B32W4    4500185538     2022010418018403990              CAVS 0.5 L               CCN000001500000001500FN00000000020211201000001500NNE   20211215092307W42 1W    00000150000000677000000000032W42   HJYHK-J 000000000000OR31C069
BI00B32W4    4500185538     2022010418018403992              CAVS 0.5 V               CCN000001500000001500FN00000000020211201000001500NNE   20211215092307W42 1W    00000150000000677000000000032W42   HJYHK-J 000000000000OR31C080
BI00B32W4    4500185538     2022010418018403994              CAVS 0.5 L/W             CCN000003000000003000FN00000000020211201000003000NNE   20211215092307W42 1W    00000150000000677000000000032W42   HJYHK-J 000000000000OR31C071
BI00B32W4    4500185538     2022010418018403995              CAVS 0.5 L/R             CCN000003000000003000FN00000000020211201000003000NNE   20211215092307W42 1W    00000150000000677000000000032W42   HJYHK-J 000000000000OR31C070
BI00B32W4    4500185538     2022010418018403997              CAVS 0.5 L/Y             CCN000001500000001500FN00000000020211201000001500NNE   20211215092307W42 1W    00000150000000677000000000032W42   HJYHK-J 000000000000OR31C072
BI00B32W4    4500185538     2022010418018404030              CAVS 0.85 B              CCN000002000000002000FN00000000020211201000002000NNE   20211215092307W42 1W    00000100000000965000000000032W42   HJYHK-J 000000000000OR31C087
BI00B32W4    4500185538     2022010418018404130              CAVS 1.25 B              CCN000001600000001600FN00000000020211201000001600NNE   20211215092307W42 1W    00000080000001378000000000032W42   HJYHK-J 000000000000OR31C088
BI00B32W4    4500185538     2022010418018404140              CAVS 1.25 W              CCN000001600000001600FN00000000020211201000001600NNE   20211215092307W42 1W    00000080000001378000000000032W42   HJYHK-J 000000000000OR31C091
BI00B32W4    4500185538     2022010418018404150              CAVS 1.25 R              CCN000002400000002400FN00000000020211201000002400NNE   20211215092307W42 1W    00000080000001378000000000032W42   HJYHK-J 000000000000OR31C090
BI00B32W4    4500185538     2022010418018404190              CAVS 1.25 L              CCN000000800000000800FN00000000020211201000000800NNE   20211215092307W42 1W    00000080000001378000000000032W42   HJYHK-J 000000000000OR31C089
BI00B32W4    4500185538     2022010418009603980              AVS 0.5 BR               CCN000006000000006000FN00000000020211201000006000NNE   20211215092307W42 1W    00000100000000850000000000032W42   HJYHK-J 000000000000OR31C016
BI00B32W4    4500185538     2022010418009603964              AVS 0.5 G/W              CCN000001000000001000FN00000000020211201000001000NNE   20211215092307W42 1W    00000100000000850000000000032W42   HJYHK-J 000000000000OR31C018
BI00B32W4    4500185538     2022010418009603990              AVS 0.5 L                CCN000002000000002000FN00000000020211201000002000NNE   20211215092307W42 1W    00000100000000850000000000032W42   HJYHK-J 000000000000OR31C019
BI00B32W4    4500185538     2022010418009603940              AVS 0.5 W                CCN000003000000003000FN00000000020211201000003000NNE   20211215092307W42 1W    00000100000000850000000000032W42   HJYHK-J 000000000000OR31C021
BI00B32W4    4500185538     2022010418009604041              AVS 0.85 GY              CCN000001000000001000FN00000000020211201000001000NNE   20211215092307W42 1W    00000100000001148000000000032W42   HJYHK-J 000000000000OR31C024
BI00B32W4    4500185538     2022010418009604090              AVS 0.85 L               CCN000001000000001000FN00000000020211201000001000NNE   20211215092307W42 1W    00000100000001148000000000032W42   HJYHK-J 000000000000OR31C025
BI00B32W4    4500185538     2022010418009604094              AVS 0.85 L/W             CCN000015000000015000FN00000000020211201000015000NNE   20211215092307W42 1W    00000100000001148000000000032W42   HJYHK-J 000000000000OR31C026
BI00B32W4    4500185538     2022010418009604052              AVS 0.85 P               CCN000002000000002000FN00000000020211201000002000NNE   20211215092307W42 1W    00000100000001148000000000032W42   HJYHK-J 000000000000OR31C027
BI00B32W4    4500185538     2022010418009604050              AVS 0.85 R               CCN000004000000004000FN00000000020211201000004000NNE   20211215092307W42 1W    00000100000001148000000000032W42   HJYHK-J 000000000000OR31C028
BI00B32W4    4500185538     2022010418009604040              AVS 0.85 W               CCN000006000000006000FN00000000020211201000006000NNE   20211215092307W42 1W    00000100000001148000000000032W42   HJYHK-J 000000000000OR31C029
BI00B32W4    4500185538     2022010418009604070              AVS 0.85 Y               CCN000002000000002000FN00000000020211201000002000NNE   20211215092307W42 1W    00000100000001148000000000032W42   HJYHK-J 000000000000OR31C030
BI00B32W4    4500185538     2022010418009604230              AVS 2 B                  CCN000002500000002500FN00000000020211201000002500NNE   20211215092307W42 1W    00000050000002447000000000032W42   HJYHK-J 000000000000OR31C033
BI00B32W4    4500185538     2022010418009604250              AVS 2 R                  CCN000000500000000500FN00000000020211201000000500NNE   20211215092307W42 1W    00000050000002447000000000032W42   HJYHK-J 000000000000OR31C034
