BI00A1200    7360T51816     202112227288-3329-30             HOUSING MALE             CCN000036000000015000FN00000000020210901000015000NNED0420211215151737    4N0N  0000015000000086610000101111200    YCYC    005400370024
BI00A1200    7360T51816     202201067288-3329-30             HOUSING MALE             CCN000004500000000000FY00000000020210901000000000NNEQ0020211215144625    4N0N  0000015000000086610000101111200    YCYC    005400370024
BI00A1200    7360T51816     202201137288-3329-30             HOUSING MALE             CCN000004500000000000FY00000000020210901000000000NNEQ0020211215144625    4N0N  0000015000000086610000101111200    YCYC    005400370024
BI00A1200    7360T51816     202201207288-3329-30             HOUSING MALE             CCN000004500000000000FY00000000020210901000000000NNEQ0020211215144625    4N0N  0000015000000086610000101111200    YCYC    005400370024
BI00A1200    7360T51816     202201077288-3329-30             HOUSING MALE             CCN000004500000021000FN00000000020210901000021000NNED0420211215144737    4N0N  0000015000000086610000101111200    YCYC    005400370024
BI00A1200    7360T51816     202202037288-3329-30             HOUSING MALE             CCN000004500000000000FY00000000020210901000000000NNEQ0020211215144737    4N0N  0000015000000086610000101111200    YCYC    005400370024
BI00A1200    7360T51816     202202107288-3329-30             HOUSING MALE             CCN000004500000000000FY00000000020210901000000000NNEQ0020211215144737    4N0N  0000015000000086610000101111200    YCYC    005400370024
BI00A1200    7360T51816     202202177288-3329-30             HOUSING MALE             CCN000004500000000000FY00000000020210901000000000NNEQ0020211215144737    4N0N  0000015000000086610000101111200    YCYC    005400370024
BI00A1200    7360T51816     202202247288-3329-30             HOUSING MALE             CCN000004500000000000FY00000000020210901000000000NNEQ0020211215144737    4N0N  0000015000000086610000101111200    YCYC    005400370024
BI00A1200    7360T51A01     202112227288-3337-30             HOUSING MALE             CCN000013500000013500FN00000000020211201000013500NNMM0020211215145419    4N0N  0000015000000086700000101201200    YCYC    005400370024
BI00A1200    7360T51A02     202112227288-3337-30             HOUSING MALE             CCN000010500000010500FN00000000020211201000010500NNMM0020211215145525    4N0N  0000015000000086700000101201200    YCYC    005400370024
BI00B1200    7360T51A01     202205267288-3337-30             HOUSING MALE             CCN000007500000000000FY00000000020211201000000000NNMQ0020211215145419    4N0N  0000015000000086700000101201200    YCYC    005400370024
BI00B1200    7360T51A02     202206097288-3337-30             HOUSING MALE             CCN000006000000000000FY00000000020211201000000000NNMQ0020211215145525    4N0N  0000015000000086700000101201200    YCYC    005400370024
BI00A1200    7360T51B02     202201047288-3335-30             HOUSING MALE             CCN000007500000007500FN00000000020220101000007500NNMM0020211215145918    4N0N  0000015000000086700000101201200    YCYC    005400370024
BI00A1200    7360T51B05     202201187288-3335-30             HOUSING MALE             CCN000027000000027000FN00000000020211201000027000NNED0420211215145024    4N0N  0000015000000086700000101201200    YCYC    005400370024
BI00A1200    7360T51B05     202201207288-3335-30             HOUSING MALE             CCN000009000000000000FY00000000020211201000000000NNEQ0020211215145024    4N0N  0000015000000086700000101201200    YCYC    005400370024
BI00A1200    7360T51B05     202201277288-3335-30             HOUSING MALE             CCN000009000000000000FY00000000020211201000000000NNEQ0020211215145024    4N0N  0000015000000086700000101201200    YCYC    005400370024
BI00A1200    H722B50002     202112217282-5553-10             CONNECTOR                CCN000001000000001000FN00000000020220201000001000NNEM0020211215161058    4N0N  0000010000000101800000118301200    YCYC    005500360039
BI00A1200    #2399T51C26    202203177173-3225-10             LIF LEVER                CCN000046400000000000FY00000000020211201000000000NNEQ0820211215151239    2F0F  0000008000000059200000071201200    YCYC    005500360039
BI00A1200    QA-21-C136     202112147289-6524-30             HOUSING FEMALE ASS'Y     PNY000002880000002880FY00000288020211201000000000NNE00020211215161833    4N0N  0000002400000135120000166621200    YCYC    005500360039
BI00B1200    H322C50026     202202177116-4112-02             TERMINAL                 CCN000006000000006000FN00000000020220301000006000NNE   20211215121456    4P0P  0000060000000045000000073821200    YCYC    006400630015
BI00B1200    #Y121L001      202201137154-3405                REAR HOLDER              CCN000008000000008000FN00000000020220201000008000NNE   20211215121456    2F0F  0000040000000064000000077001200    YCYC    005600390039
BI00B1200    #Y121L001A     202203177154-3405                REAR HOLDER              CCN000008000000008000FN00000000020220401000008000NNE   20211215121456    2F0F  0000040000000064000000077001200    YCYC    005600390039
BI00A1200    QA-21-C136     202112157289-6524-30             HOUSING FEMALE ASS'Y     PNY000003120000003120FY00000312020211201000000000NNE00020211215161833    4N0N  0000002400000135120000166621200    YCYC    005500360039
BI00A1200    2399T51B19     202112167289-6524-30             HOUSING FEMALE ASS'Y     CCN000012000000012000FN00000000020220101000012000NNMQ0020211215165024    4N0N  0000002400000135120000166621200    YCYC    005500360039
BI00A1200    2399T51B19     202112167289-7212-30             HOUSING FEMALE ASS'Y     CCN000008640000008640FN00000000020220101000008640NNMQ0020211215165105    4N0N  0000002400000138840000159341200    YCYC    005500360039
BI00A1200    2399T51B19     202112167289-9612-30             HOUSING FEMALE ASS'Y     CCN000006480000006480FN00000000020220101000006480NNMQ0020211215165138    4N0N  0000002400000134880000166881200    YCYC    005500360039
BI00B32AG    XG22031CMW     202201287C89-6868-30             SEALED ASSY FEMALE       CCN000005040000005040FN00000000020220301000005040NNMD0420211215172047    4N0N  00000252000000839200001119232AG    XGXGY   005500360039
BI00B32AG    XG22032CMW     202202047C89-6868-30             SEALED ASSY FEMALE       CCN000005040000005040FN00000000020220301000005040NNMD0420211215172138    4N0N  00000252000000839200001119232AG    XGXGY   005500360039
BI00B32AG    XG22033CMW     202202117C89-6868-30             SEALED ASSY FEMALE       CCN000005040000005040FN00000000020220301000005040NNMD0420211215172245    4N0N  00000252000000839200001119232AG    XGXGY   005500360039
BI00B32AG    XG22034CMW     202202187C89-6868-30             SEALED ASSY FEMALE       CCN000007560000007560FN00000000020220301000007560NNMD0420211215172330    4N0N  00000252000000839200001119232AG    XGXGY   005500360039
BI00B32AG    XG22035CMW     202202257C89-6868-30             SEALED ASSY FEMALE       CCN000005040000005040FN00000000020220301000005040NNMD0420211215172415    4N0N  00000252000000839200001119232AG    XGXGY   005500360039
BI00B32AG    XG22031CMW     202201287298-3822-70             HOUSING FEMALE ASS'Y     CCN000005040000005040FN00000000020220301000005040NNMD0420211215172107    4N0N  00000252000000776200001077032AG    XGXGY   005500360039
BI00B32AG    XG22032CMW     202202047298-3822-70             HOUSING FEMALE ASS'Y     CCN000002520000002520FN00000000020220301000002520NNMD0420211215172138    4N0N  00000252000000776200001077032AG    XGXGY   005500360039
BI00B32AG    XG22033CMW     202202117298-3822-70             HOUSING FEMALE ASS'Y     CCN000007560000007560FN00000000020220301000007560NNMD0420211215172245    4N0N  00000252000000776200001077032AG    XGXGY   005500360039
BI00B32AG    XG22034CMW     202202187298-3822-70             HOUSING FEMALE ASS'Y     CCN000005040000005040FN00000000020220301000005040NNMD0420211215172330    4N0N  00000252000000776200001077032AG    XGXGY   005500360039
BI00B32AG    XG22035CMW     202202257298-3822-70             HOUSING FEMALE ASS'Y     CCN000005040000005040FN00000000020220301000005040NNMD0420211215172415    4N0N  00000252000000776200001077032AG    XGXGY   005500360039
BI00B32AG    XG22031CMW     202201287327-6832-60             MAIN FUSE                CCN000001800000001800FN00000000020220301000001800NNMD0420211215172107    4N0N  00000060000000729200000930732AG    XGXGY   005400370024
BI00B32AG    XG22032CMW     202202047327-6832-60             MAIN FUSE                CCN000002400000002400FN00000000020220301000002400NNMD0420211215172138    4N0N  00000060000000729200000930732AG    XGXGY   005400370024
BI00B32AG    XG22033CMW     202202117327-6832-60             MAIN FUSE                CCN000002400000002400FN00000000020220301000002400NNMD0420211215172245    4N0N  00000060000000729200000930732AG    XGXGY   005400370024
BI00B32AG    XG22034CMW     202202187327-6832-60             MAIN FUSE                CCN000003600000003600FN00000000020220301000003600NNMD0420211215172330    4N0N  00000060000000729200000930732AG    XGXGY   005400370024
BI00B32AG    XG22035CMW     202202257327-6832-60             MAIN FUSE                CCN000003000000003000FN00000000020220301000003000NNMD0420211215172415    4N0N  00000060000000729200000930732AG    XGXGY   005400370024
BI00B32AG    XG22031CMW     202201287327-6870-30             MULTI FUSE               CCN000006912000006912FN00000000020220301000006912NNMD0420211215172107    4N0N  00000028800001015200001181132AG    XGXGY   005400370024
BI00B32AG    XG22032CMW     202202047327-6870-30             MULTI FUSE               CCN000002592000002592FN00000000020220301000002592NNMD0420211215172157    4N0N  00000028800001015200001181132AG    XGXGY   005400370024
BI00B32AG    XG22033CMW     202202117327-6870-30             MULTI FUSE               CCN000002592000002592FN00000000020220301000002592NNMD0420211215172245    4N0N  00000028800001015200001181132AG    XGXGY   005400370024
BI00B32AG    XG22034CMW     202202187327-6870-30             MULTI FUSE               CCN000000576000000576FN00000000020220301000000576NNMD0420211215172330    4N0N  00000028800001015200001181132AG    XGXGY   005400370024
BI00B32AG    XG22035CMW     202202257327-6870-30             MULTI FUSE               CCN000002880000002880FN00000000020220301000002880NNMD0420211215172415    4N0N  00000028800001015200001181132AG    XGXGY   005400370024
BI00B32AG    XG22031CMW     202201287327-6874-30             MULTI FUSE               CCN000006912000006912FN00000000020220301000006912NNMD0420211215172107    4N0N  00000028800000991400001157332AG    XGXGY   005400370024
BI00B32AG    XG22032CMW     202202047327-6874-30             MULTI FUSE               CCN000002880000002880FN00000000020220301000002880NNMD0420211215172157    4N0N  00000028800000991400001157332AG    XGXGY   005400370024
BI00B32AG    XG22033CMW     202202117327-6874-30             MULTI FUSE               CCN000002304000002304FN00000000020220301000002304NNMD0420211215172245    4N0N  00000028800000991400001157332AG    XGXGY   005400370024
BI00B32AG    XG22034CMW     202202187327-6874-30             MULTI FUSE               CCN000000576000000576FN00000000020220301000000576NNMD0420211215172330    4N0N  00000028800000991400001157332AG    XGXGY   005400370024
BI00B32AG    XG22035CMW     202202257327-6874-30             MULTI FUSE               CCN000002880000002880FN00000000020220301000002880NNMD0420211215172415    4N0N  00000028800000991400001157332AG    XGXGY   005400370024
BI00B32AG    XG22031CMW     202201287327-6880-30             MULTI FUSE               CCN000006912000006912FN00000000020220301000006912NNMD0420211215172115    4N0N  00000028800001012600001178532AG    XGXGY   005400370024
BI00B32AG    XG22032CMW     202202047327-6880-30             MULTI FUSE               CCN000002592000002592FN00000000020220301000002592NNMD0420211215172157    4N0N  00000028800001012600001178532AG    XGXGY   005400370024
BI00B32AG    XG22033CMW     202202117327-6880-30             MULTI FUSE               CCN000002592000002592FN00000000020220301000002592NNMD0420211215172245    4N0N  00000028800001012600001178532AG    XGXGY   005400370024
BI00B32AG    XG22034CMW     202202187327-6880-30             MULTI FUSE               CCN000000576000000576FN00000000020220301000000576NNMD0420211215172330    4N0N  00000028800001012600001178532AG    XGXGY   005400370024
BI00B32AG    XG22035CMW     202202257327-6880-30             MULTI FUSE               CCN000002880000002880FN00000000020220301000002880NNMD0420211215172415    4N0N  00000028800001012600001178532AG    XGXGY   005400370024
BI00B32AG    XG22031CMW     202201287327-6884-30             MULTI FUSE               CCN000006912000006912FN00000000020220301000006912NNMD0420211215172120    4N0N  00000028800000988900001154832AG    XGXGY   005400370024
BI00B32AG    XG22032CMW     202202047327-6884-30             MULTI FUSE               CCN000002592000002592FN00000000020220301000002592NNMD0420211215172157    4N0N  00000028800000988900001154832AG    XGXGY   005400370024
BI00B32AG    XG22033CMW     202202117327-6884-30             MULTI FUSE               CCN000002592000002592FN00000000020220301000002592NNMD0420211215172245    4N0N  00000028800000988900001154832AG    XGXGY   005400370024
BI00B32AG    XG22034CMW     202202187327-6884-30             MULTI FUSE               CCN000000576000000576FN00000000020220301000000576NNMD0420211215172330    4N0N  00000028800000988900001154832AG    XGXGY   005400370024
BI00B32AG    XG22035CMW     202202257327-6884-30             MULTI FUSE               CCN000002880000002880FN00000000020220301000002880NNMD0420211215172415    4N0N  00000028800000988900001154832AG    XGXGY   005400370024
BI00A32A7    ZZ21124LMW     202112287289-3342-30             HOUSING FEMALE ASS'Y     PCN000002400000002400FN00000000020211201000002400NNMM0020211215184510    1N0N  00000240000000686400000901432A7    ZZZZY   005500360039
BI00B32CA    PTA32033       202112147116-3153-02             TERMINAL FEMALE          CCN001518000001539000FY00153900020220201000000000NNM00020211215103035    4P0P  00002700000000459000000744232CA    YPYPY   006400630015
BI00B32CA    PTA32033       202112147116-3154-02             TERMINAL FEMALE          CCN000462000000486000FY00048600020220201000000000NNM00020211215103035    4P0P  00002700000000469800000755032CA    YPYPY   006400630015
BI00B32CA    PTA32033       202112147158-3166-60             WIRE SEAL                CCN000040000000040000FY00004000020220201000000000NNM00020211215102852    1C0C  00004000000000104000000152432CA    YPYPY   002700430014
BI00B32CA    PTA32033       202112147158-3167-80             WIRE SEAL                CCN000040000000040000FY00004000020220201000000000NNM00020211215102852    1C0C  00002000000000048000000109032CA    YPYPY   002700430014
BI00B32CA    PTA32033       202112147196-0510-02             TERMINAL                 CCN000096000000096000FY00009600020220201000000000NNM00020211215102852    4P0P  00002400000000871200001034632CA    YPYPY   002800510028
BI00B32CA    PTA32033       202112147287-9323                UNSEALED HOUSING SUB     CCN000002400000002400FY00000240020220201000000000NNM00020211215102852    1N0N  00000240000000537600000690032CA    YPYPY   005600390023
BI00B32CA    PTA32033       202112147289-3342                HOUSING FEMALE ASS'Y     CCN000028800000028800FY00002880020220201000000000NNM00020211215102852    1N0N  00000240000000686400000901432CA    YPYPY   005500360039
BI00B32CA    PTA32033       202112237289-3342-30             HOUSING FEMALE ASS'Y     CCN000033600000033600FN00000000020220201000033600NNM00020211215121456    1N0N  00000240000000686400000901432CA    YPYPY   005500360039
BI00B32CJ    JQN1122        202112147114-4728-02             TERMINAL                 CCN000300000000300000FY00030000020211201000000000NNM00020211215103144    4P0P  00003000000000510000000804232CJ    QNYHVQN 006400630015
BI00B32CJ    JQN1123        202112147114-4729-02             TERMINAL                 CCN000090000000090000FY00009000020211201000000000NNM00020211215103253    4P0P  00003000000000516000000810232CJ    QNYHVQN 006400630015
BI00B32CJ    JQN1123        202112147114-5746-02             TERMINAL                 CCN000021000000021000FY00002100020211201000000000NNM00020211215103253    4P0P  00002100000000695100000988732CJ    QNYHVQN 006400630015
BI00B32CJ    JQN1123        202112147114-5747-02             TERMINAL                 CCN000090000000090000FY00009000020211201000000000NNM00020211215103253    4P0P  00001800000000626400000920032CJ    QNYHVQN 006400630015
BI00B32CJ    JQN1123        202112147158-3009-60             RUBBER STOPPER           CCN000060000000060000FY00006000020211201000000000NNM00020211215103310    1C0C  00002000000000338000000386232CJ    QNYHVQN 002700430014
BI00B32CJ    JQN1124        202112147283-5845                CONNECTOR HOUSING        CCN000006000000006000FY00000600020211201000000000NNM00020211215103333    1N0N  00000600000000444000000606332CJ    QNYHVQN 005400370024
BI00B32CJ    JQN1124        202112147289-3342-40             HOUSING FEMALE ASS'Y     CCN000004800000004800FY00000480020211201000000000NNM00020211215103351    1N0N  00000240000000686400000901432CJ    QNYHVQN 005500360039
BI00B32CJ    JQN1124        202112147289-3342-90             HOUSING FEMALE ASS'Y     CCN000002400000002400FY00000240020211201000000000NNM00020211215103351    1N0N  00000240000000686400000901432CJ    QNYHVQN 005500360039
BI00B32CJ    JQN1122        202112147282-4578                HOUSING MALE ASS'Y       CCN000004800000004800FY00000480020211201000000000NNM00020211215103200    4N0N  00000120000000782600000992632CJ    QNYHVQN 005500360039
BI00B32CJ    JQN1124        202112147283-4576                HOUSING FEMALE ASS'Y     CCN000014400000014400FY00001440020211201000000000NNM00020211215103406    4N0N  00000480000000651300000871332CJ    QNYHVQN 005500360039
BI00A32CJ    JQN1121        202112137289-3342-30             HOUSING FEMALE ASS'Y     PCN000004800000004800FY00000480020211201000000000NNM00020211215091518    1N0N  00000240000000686400000901432CJ    QNYHVQN 005500360039
BI00A32CJ    JQN1121        202112167289-3342-30             HOUSING FEMALE ASS'Y     PCN000004800000009600FN00000000020211201000009600NNM00020211215121456    1N0N  00000240000000686400000901432CJ    QNYHVQN 005500360039
BI00A32CJ    JQN1121        202112227289-3342-30             HOUSING FEMALE ASS'Y     PCN000004800000000000FY00000000020211201000000000NNM00020211215091222    1N0N  00000240000000686400000901432CJ    QNYHVQN 005500360039
BI00B32CJ    JQN1121        202112177289-3342-30             HOUSING FEMALE ASS'Y     CCN000004800000009600FN00000000020211201000009600NNMD0420211215121456    1N0N  00000240000000686400000901432CJ    QNYHVQN 005500360039
BI00B32CJ    JQN1121        202112247289-3342-30             HOUSING FEMALE ASS'Y     CCN000004800000000000FY00000000020211201000000000NNMD0420211215091222    1N0N  00000240000000686400000901432CJ    QNYHVQN 005500360039
BI00B32CJ    JQN2012        202112177114-4728-02             TERMINAL                 CCN000240000000240000FN00000000020220101000240000NNM00020211215121456    4P0P  00003000000000510000000804232CJ    QNYHVQN 006400630015
BI00B32CJ    JQN2012        202112177114-4729-02             TERMINAL                 CCN000030000000030000FN00000000020220101000030000NNM00020211215121456    4P0P  00003000000000516000000810232CJ    QNYHVQN 006400630015
BI00B32CJ    JQN2012        202112177114-5746-02             TERMINAL                 CCN000042000000042000FN00000000020220101000042000NNM00020211215121456    4P0P  00002100000000695100000988732CJ    QNYHVQN 006400630015
BI00B32CJ    JQN2012        202112177114-5747-02             TERMINAL                 CCN000108000000108000FN00000000020220101000108000NNM00020211215121456    4P0P  00001800000000626400000920032CJ    QNYHVQN 006400630015
BI00B32CJ    JQN2012        202112177114-5748-02             TERMINAL                 CCN000048000000048000FN00000000020220101000048000NNM00020211215121456    4P0P  00001200000000444000000737632CJ    QNYHVQN 006400630015
BI00B32CJ    JQN2012        202112177158-3009-60             RUBBER STOPPER           CCN000200000000200000FN00000000020220101000200000NNM00020211215121456    1C0C  00002000000000338000000386232CJ    QNYHVQN 002700430014
BI00B32CJ    JQN2012        202112177283-4576                HOUSING FEMALE ASS'Y     CCN000028800000028800FN00000000020220101000028800NNM00020211215121456    4N0N  00000480000000651300000871332CJ    QNYHVQN 005500360039
BI00B32CJ    JQN2012        202112177283-5845                CONNECTOR HOUSING        CCN000006000000006000FN00000000020220101000006000NNM00020211215121456    1N0N  00000600000000444000000606332CJ    QNYHVQN 005400370024
BI00B32CJ    JQN2011        202112177289-3342                HOUSING FEMALE ASS'Y     CCN000002400000002400FN00000000020220101000002400NNM00020211215121456    1N0N  00000240000000686400000901432CJ    QNYHVQN 005500360039
BI00B32CJ    JQN201A        202112147116-5046-02             TERMINAL                 CCN000012000000012000FY00001200020220101000000000NNE00020211215103830    4P0P  00001200000000544800000873532CJ    QNYHVQN 006400630017
BI00B32CJ    JQN201A        202112147116-6041                TERMINAL                 CCN000004500000004500FY00000450020220101000000000NNE00020211215103830    4P0P  00000450000000716000001009632CJ    QNYHVQN 006400630015
BI00B32CJ    JQN201B        202112147116-4486-02             TERMINAL                 CCN000084000000084000FY00008400020220101000000000NNE00020211215103851    4P0P  00002800000000666400000995132CJ    QNYHVQN 006400630017
BI00B32CJ    JQN201D        202112247114-4728-08             TERMINAL                 CCN000030000000030000FN00000000020220101000030000NNED0020211215121456    4P0P  00003000000000507000000801232CJ    QNYHVQN 006400630015
BI00B32CJ    JQN201D        202112247114-6041                TERMINAL                 CCN000018000000018000FN00000000020220101000018000NNED0020211215121456    4P0P  00000360000000580700000824232CJ    QNYHVQN 006400630015
BI00B32CJ    JQN201D        202112247116-1685-02             TERMINAL                 CCN000072000000072000FN00000000020220101000072000NNED0020211215121456    4P0P  00002400000000897600001065232CJ    QNYHVQN 005100280028
BI00B32CJ    JQN201D        202112247116-4020                TERMINAL                 CCN000027000000027000FN00000000020220101000027000NNED0020211215121456    4P0P  00001350000000513000000798232CJ    QNYHVQN 006400630015
BI00B32CJ    JQN201D        202112247196-1103-02             TERMINAL                 CCN000022500000022500FN00000000020220101000022500NNED0020211215121456    4P0P  00002250000000429800000715032CJ    QNYHVQN 006400630015
BI00B32CJ    JQN201D        202201067287-1915                CONNECTOR ASS'Y          CCN000004800000004800FN00000000020220101000004800NNED0720211215121456    4N0N  00000240000000666500000923132CJ    QNYHVQN 005500360039
BI00B32CJ    #JQN201D       202201067187-8856-60             HLC HOUSING FEMALE       CCN000020000000020000FN00000000020220101000020000NNE   20211215121456    2F0F  00000200000000820000000931532CJ    QNYHVQN 005400370024
BI00B32CJ    #JQN201D       202201067282-5528-70             HOUSING MALE ASS'Y       CCN000005000000005000FN00000000020220101000005000NNE   20211215121456    2N0N  00000100000000230000000339032CJ    QNYHVQN 005400370024
BI00B32CJ    #JQN201D       202201067286-8859                HOUSING MALE ASS'Y       CCN000008000000008000FN00000000020220101000008000NNE   20211215121456    2N0N  00000080000000573100000733132CJ    QNYHVQN 005400370024
BI00T32DE    @ICT201B       202201037183-3190                JOINT CONNECTOR          CCN000014400000014400FN00000000020220101000014400NNE   20211215121456    3F0F  00000360000000457600000667832DE    TVYEV-TV005500360039
BI00B32DJ    GHT2112B 1     202111307289-3342-30             HOUSING FEMALE ASS'Y     CCN000060000000000000FY00000000020211201000000000NNM00020211215194343    1N0N  00000240000000686400000901432DJ    RBYIPLRB005500360039
BI00B32DJ    GHT2112B 1     202111307289-3342-30             HOUSING FEMALE ASS'Y     CCN000004800000000000FY00000000020211201000000000NNM00020211215194343    1N0N  00000240000000686400000901432DJ    RBYIPLRB005500360039
BI00B32DJ    GHT2112B 1     202112097289-3342-30             HOUSING FEMALE ASS'Y     CCN000004800000000000FY00000000020211201000000000NNM00020211215194343    1N0N  00000240000000686400000901432DJ    RBYIPLRB005500360039
BI00B32DJ    GHT2112B 1     202112097289-3342-30             HOUSING FEMALE ASS'Y     CCN000004800000000000FY00000000020211201000000000NNMD0420211215194343    1N0N  00000240000000686400000901432DJ    RBYIPLRB005500360039
BI00B32DJ    GHT2112B 1     202112167289-3342-30             HOUSING FEMALE ASS'Y     CCN000004800000000000FY00000000020211201000000000NNMD0420211215194343    1N0N  00000240000000686400000901432DJ    RBYIPLRB005500360039
BI00B32DJ    GHT2112B 1     202112237289-3342-30             HOUSING FEMALE ASS'Y     CCN000004800000028800FN00000000020211201000028800NNMD0420211215194343    1N0N  00000240000000686400000901432DJ    RBYIPLRB005500360039
BI00A32DJ    GHT2112B 1     202112207289-3342-30             HOUSING FEMALE ASS'Y     PCN000004800000004800FN00000000020211201000004800NNMD0420211215194343    1N0N  00000240000000686400000901432DJ    RBYIPLRB005500360039
BI00B32DJ    GHT2202B 1     202201067283-5830-30             CONNECTOR                CCN000012000000006000FN00000000020220201000006000NNMQ0220211215154339    1N0N  00000600000000954000001104032DJ    RBYIPLRB005500360039
BI00B32DJ    GHT2202B 1     202201137283-5830-30             CONNECTOR                CCN000006000000006000FN00000000020220201000006000NNMD0220211215154346    1N0N  00000600000000954000001104032DJ    RBYIPLRB005500360039
BI00B32D1    DFTC2211       202201207017-1180-02             TERMINAL                 CCN000072000000072000FN00000000020220301000072000NNM   20211215121456    4P0P  00007200000001065600001229032D1    TOYOT-K 005100280028
BI00B32D1    DFTC2211       202201207114-4032                TERMINAL                 CCN000007500000007500FN00000000020220301000007500NNM   20211215121456    4P0P  00000750000000735000001063632D1    TOYOT-K 006400630017
BI00B32D1    DFTC2211       202201207114-5748-02             TERMINAL                 CCN000048000000048000FN00000000020220301000048000NNM   20211215121456    4P0P  00001200000000444000000737632D1    TOYOT-K 006400630015
BI00B32D1    DFTC2211       202201207114-5753-02             TERMINAL                 CCN000216000000216000FN00000000020220301000216000NNM   20211215121456    4P0P  00002700000000847800001141432D1    TOYOT-K 006400630015
BI00B32D1    DFTC2211       202201207116-1685-02             TERMINAL                 CCN000072000000072000FN00000000020220301000072000NNM   20211215121456    4P0P  00002400000000897600001065232D1    TOYOT-K 005100280028
BI00B32D1    DFTC2211       202201207116-2891-02             TERMINAL                 CCN000075000000075000FN00000000020220301000075000NNM   20211215121456    4P0P  00001500000000982500001145932D1    TOYOT-K 005100280028
BI00B32D1    DFTC2211       202201207116-4100-02             TERMINAL                 CCN000015000000015000FN00000000020220301000015000NNM   20211215121456    4P0P  00001500000000696000000990232D1    TOYOT-K 006400630015
BI00B32D1    DFTC2211       202201207116-4101-02             TERMINAL                 CCN000012000000012000FN00000000020220301000012000NNM   20211215121456    4P0P  00001200000000582000000876232D1    TOYOT-K 006400630015
BI00B32D1    DFTC2211       202201207116-4110-02             TERMINAL                 CCN000036000000036000FN00000000020220301000036000NNM   20211215121456    4P0P  00000900000000594000000882232D1    TOYOT-K 006400630015
BI00B32D1    DFTC2211       202201207116-4111-02             TERMINAL                 CCN000030000000030000FN00000000020220301000030000NNM   20211215121456    4P0P  00000750000000529500000817732D1    TOYOT-K 006400630015
BI00B32D1    DFTC2211       202201207116-4112-02             TERMINAL                 CCN000060000000060000FN00000000020220301000060000NNM   20211215121456    4P0P  00000600000000450000000738232D1    TOYOT-K 006400630015
BI00B32D1    DFTC2211       202201207116-4486-02             TERMINAL                 CCN000084000000084000FN00000000020220301000084000NNM   20211215121456    4P0P  00002800000000666400000995132D1    TOYOT-K 006400630017
BI00B32D1    DFTC2211       202201207116-5045-02             TERMINAL                 CCN000080000000080000FN00000000020220301000080000NNM   20211215121456    4P0P  00001600000000678400001007132D1    TOYOT-K 006400630017
BI00B32D1    DFTC2211       202201207126-8853-02             TERMINAL                 CCN000052500000052500FN00000000020220301000052500NNM   20211215121456    4P0P  00000750000000562500000847732D1    TOYOT-K 006400630015
BI00B32D1    DFTC2211       202201207126-8854-02             TERMINAL                 CCN000060000000060000FN00000000020220301000060000NNM   20211215121456    4P0P  00000750000000604500000889732D1    TOYOT-K 006400630015
BI00B32D1    DFTC2211       202201207126-8855-02             TERMINAL                 CCN000036000000036000FN00000000020220301000036000NNM   20211215121456    4P0P  00000600000000510600000795832D1    TOYOT-K 006400630015
BI00B32D1    DFTC2211       202201207158-3070-80             RUBBER STOPPER           CCN000040000000040000FN00000000020220301000040000NNM   20211215121456    1C0C  00004000000000276000000333332D1    TOYOT-K 002700430014
BI00B32D1    DFTC2211       202201207158-3167-80             WIRE SEAL                CCN000020000000020000FN00000000020220301000020000NNM   20211215121456    1C0C  00002000000000048000000109032D1    TOYOT-K 002700430014
BI00B32D1    DFTC2211       202201207196-0396-02             TERMINAL                 CCN000015000000015000FN00000000020220301000015000NNM   20211215121456    4P0P  00001500000000949500001112932D1    TOYOT-K 002800510028
BI00B32D1    DFTC2211       202201207196-0510-02             TERMINAL                 CCN000024000000024000FN00000000020220301000024000NNM   20211215121456    4P0P  00002400000000871200001034632D1    TOYOT-K 002800510028
BI00B32D1    DFTC2211       202201207282-4576                HOUSING MALE ASS'Y       CCN000004800000004800FN00000000020220301000004800NNM   20211215121456    4N0N  00000240000000808800001028832D1    TOYOT-K 005500360039
BI00B32D1    DFTC2211       202201207283-1156                CONNECTOR                CCN000004000000004000FN00000000020220301000004000NNM   20211215121456    4N0N  00000080000000877600001078032D1    TOYOT-K 005600390040
BI00B32D1    DFTC2211       202201207283-5830                CONNECTOR                CCN000006000000006000FN00000000020220301000006000NNM   20211215121456    1N47  00000600000000954000001104032D1    TOYOT-K 005500360039
BI00B32D1    DFTC2211       202201207288-6547                CONNECTOR MALE ASS'Y     CCN000006750000006750FN00000000020220301000006750NNM   20211215121456    4N0N  00000075000001205300001340332D1    TOYOT-K 005400370024
BI00B32D1    DFTC2211       202201207289-3342                HOUSING FEMALE ASS'Y     CCN000009600000009600FN00000000020220301000009600NNM   20211215121456    1N0N  00000240000000686400000901432D1    TOYOT-K 005500360039
BI00B32D1    DFTC2211       202201207289-3342-30             HOUSING FEMALE ASS'Y     CCN000067200000067200FN00000000020220301000067200NNM   20211215121456    1N0N  00000240000000686400000901432D1    TOYOT-K 005500360039
BI00B32D1    DFTC2211       202201207289-3342-40             HOUSING FEMALE ASS'Y     CCN000004800000004800FN00000000020220301000004800NNM   20211215121456    1N0N  00000240000000686400000901432D1    TOYOT-K 005500360039
BI00B32D1    DFTC2211       202201207289-3342-90             HOUSING FEMALE ASS'Y     CCN000002400000002400FN00000000020220301000002400NNM   20211215121456    1N0N  00000240000000686400000901432D1    TOYOT-K 005500360039
BI00B32D1    DFTC2211       202201207289-6547                HOUSING FEMALE ASS'Y     CCN000004800000004800FN00000000020220301000004800NNM   20211215121456    1N0N  00000240000001152000001362032D1    TOYOT-K 005500360039
BI00B32D1    DFTC2211       202201207296-0784-02             TERMINAL ALUMINIUM       CCN000024000000024000FN00000000020220301000024000NNM   20211215121456    4P0P  00002400000000480000000765232D1    TOYOT-K 006400630015
BI00B32D1    DFTC2211       202201207388-2978-30             HOUSING MALE ASS'Y       CCN000006720000006720FN00000000020220301000006720NNM   20211215121456    1N0N  00000048000000742000001122032D1    TOYOT-K 005500360039
BI00B32D1    #DFTC2211      202201207047-5344                RETAINER                 CCN000010000000010000FN00000000020220301000010000NNM   20211215121456    2F0F  00001000000000870000001016032D1    TOYOT-K 005600390023
BI00B32D1    #DFTC2211      202201207158-3003-90             RUBBER STOPPER           CCN000040000000040000FN00000000020220301000040000NNM   20211215121456    2C0C  00002000000000250000000306032D1    TOYOT-K 002700430014
BI00B32D1    #DFTC2211      202201207158-3005-80             RUBBER STOPPER           CCN000040000000040000FN00000000020220301000040000NNM   20211215121456    2H0H  00002000000000210000000268732D1    TOYOT-K 002700430014
BI00B32D1    #DFTC2211      202201207158-3008-80             RUBBER STOPPER           CCN000040000000040000FN00000000020220301000040000NNM   20211215121456    2C0C  00002000000000288000000343032D1    TOYOT-K 004300270014
BI00B32D1    #DFTC2211      202201207158-3015-10             RUBBER STOPPER           CCN000020000000020000FN00000000020220301000020000NNM   20211215121456    2C0C  00001000000000419500000474032D1    TOYOT-K 002700430014
BI00B32D1    #DFTC2211      202201207158-3017                RUBBER STOPPER           CCN000020000000020000FN00000000020220301000020000NNM   20211215121456    2C0C  00001000000000375500000435032D1    TOYOT-K 002700430014
BI00B32D1    #DFTC2211      202201207172-5625-90             RUBBER STOPPER           CCN000020000000020000FN00000000020220301000020000NNM   20211215121456    2H0H  00002000000000082400000133832D1    TOYOT-K 004300270014
BI00B32D1    #DFTC2211      202201207172-5627-60             RUBBER STOPPER           CCN000020000000020000FN00000000020220301000020000NNM   20211215121456    2H0H  00002000000000070400000121832D1    TOYOT-K 004300270014
BI00B32D1    #DFTC2211      202201207172-5628-80             DUMMY PLUG               CCN000020000000020000FN00000000020220301000020000NNM   20211215121456    2H0H  00002000000000110600000162032D1    TOYOT-K 004300270014
BI00B32D1    #DFTC2211      202201207172-5629-80             RUBBER STOPPER           CCN000040000000040000FN00000000020220301000040000NNM   20211215121456    2H0H  00002000000000060000000111132D1    TOYOT-K 004300270014
BI00B32D1    #DFTC2211      202201207172-5631-60             RUBBER STOPPER           CCN000060000000060000FN00000000020220301000060000NNM   20211215121456    2H0H  00002000000000042000000093132D1    TOYOT-K 004300270014
BI00B32D1    #DFTC2211      202201207183-2415-90             CONNECTOR HOUSING        CCN000004800000004800FN00000000020220301000004800NNM   20211215121456    2F0F  00000480000000798200001091432D1    TOYOT-K 005500360039
BI00B32D1    #DFTC2211      202201207183-2418-30             CONNECTOR HOUSING        CCN000004800000004800FN00000000020220301000004800NNM   20211215121456    2F0F  00000480000000917000001235332D1    TOYOT-K 005500360039
BI00B32D1    #DFTC2211      202201207189-2978-30             HOUSING FEMALE           CCN000006000000006000FN00000000020220301000006000NNM   20211215121456    2F0F  00000150000000966900001096932D1    TOYOT-K 005400370024
BI00B32D1    #DFTC2211      202201207189-3033                HOUSING FEMALE           CCN000006400000006400FN00000000020220301000006400NNM   20211215121456    2F0F  00000160000001211200001431232D1    TOYOT-K 005500360039
BI00B32D1    #DFTC2211      202201207189-3036                HOUSING FEMALE           CCN000003200000003200FN00000000020220301000003200NNM   20211215121456    2F0F  00000160000000921600001141632D1    TOYOT-K 005500360039
BI00B32D1    #DFTC2211      202201207289-2912-40             HOUSING FEMALE ASS'Y     CCN000002000000002000FN00000000020220301000002000NNM   20211215121456    2N0N  00000200000000804000000931032D1    TOYOT-K 005400370024
BI00B32D1    #DFTC2211      202201207289-3622-30             HOUSING FEMALE ASS'Y     CCN000004320000004320FN00000000020220301000004320NNM   20211215121456    2N0N  00000043200000839400001038432D1    TOYOT-K 005400370024
BI00B32D1    #DFTC2211      202201207289-4200-30             HOUSING FEMALE ASS'Y     CCN000002000000002000FN00000000020220301000002000NNM   20211215121456    2N0N  00000200000000926000001021032D1    TOYOT-K 005400370024
BI00A32EJ    4500174466     202201267288-6547                CONNECTOR MALE ASS'Y     CCN000050250000010500FN00000000020211001000010500NNED0420211215121456EJ  4N0N  00000075000001205300001340332EJ    EJYKBO  005400370024
BI00A32EJ    4500174465     202112207288-6547                CONNECTOR MALE ASS'Y     CCN000025500000010500FN00000000020210901000010500NNED0220211215121456EJ  4N0N  00000075000001205300001340332EJ    EJYKBO  005400370024
BI00A32EJ    4500174466     202202097288-6547                CONNECTOR MALE ASS'Y     CCN000025500000010500FN00000000020211001000010500NNED0220211215121456EJ  4N0N  00000075000001205300001340332EJ    EJYKBO  005400370024
BI00A32EJ    4500174465     202112277288-6547                CONNECTOR MALE ASS'Y     CCN000007500000010500FN00000000020210901000010500NNED0220211215121456EJ  4N0N  00000075000001205300001340332EJ    EJYKBO  005400370024
BI00A32EJ    4500174465     202201057288-6547                CONNECTOR MALE ASS'Y     CCN000007500000010500FN00000000020210901000010500NNED0220211215121456EJ  4N0N  00000075000001205300001340332EJ    EJYKBO  005400370024
BI00A32EJ    4500174465     202201127288-6547                CONNECTOR MALE ASS'Y     CCN000007500000010500FN00000000020210901000010500NNED0220211215121456EJ  4N0N  00000075000001205300001340332EJ    EJYKBO  005400370024
BI00A32EJ    4500174465     202201197288-6547                CONNECTOR MALE ASS'Y     CCN000007500000010500FN00000000020210901000010500NNED0220211215121456EJ  4N0N  00000075000001205300001340332EJ    EJYKBO  005400370024
BI00A32EJ    4500174465     202202037288-6547                CONNECTOR MALE ASS'Y     CCN000007500000010500FN00000000020210901000010500NNED0220211215121456EJ  4N0N  00000075000001205300001340332EJ    EJYKBO  005400370024
BI00A32EJ    4500174465     202112167288-6547                CONNECTOR MALE ASS'Y     CCN000007500000006750FN00000000020210901000006750NNED0220211215121456EJ  4N0N  00000075000001205300001340332EJ    EJYKBO  005400370024
BI00A32EJ    4500174466     202202167288-6547                CONNECTOR MALE ASS'Y     CCN000007500000006000FN00000000020211001000006000NNED0220211215121456EJ  4N0N  00000075000001205300001340332EJ    EJYKBO  005400370024
BI00A32EJ    4500174466     202202287288-6547                CONNECTOR MALE ASS'Y     CCN000007500000000000FY00000000020211001000000000NNED0220211215110949EJ  4N0N  00000075000001205300001340332EJ    EJYKBO  005400370024
BI00A32EJ    4500174466     202203077288-6547                CONNECTOR MALE ASS'Y     CCN000007500000000000FY00000000020211001000000000NNED0220211215110949EJ  4N0N  00000075000001205300001340332EJ    EJYKBO  005400370024
BI00A32EJ    4500174466     202203147288-6547                CONNECTOR MALE ASS'Y     CCN000007500000000000FY00000000020211001000000000NNED0220211215110949EJ  4N0N  00000075000001205300001340332EJ    EJYKBO  005400370024
BI00A32EJ    4500174466     202203217288-6547                CONNECTOR MALE ASS'Y     CCN000007500000000000FY00000000020211001000000000NNED0220211215110949EJ  4N0N  00000075000001205300001340332EJ    EJYKBO  005400370024
BI00B32EJ    4500185729     202202037283-5843                CONNECTOR                CCN000006000000006000FN00000000020220101000006000NNED0220211215121456EJ  1N0N  00000150000000889000001132032EJ    EJYKBO  005600390040
BI00B32E1    NC2024         202112227289-3342-30             HOUSING FEMALE ASS'Y     CCN000002400000002400FN00000000020220101000002400NNM00020211215133748    1N0N  00000240000000686400000901432E1    SPYSE   005500360039
BI00B32G2    SA22021JMW     202201057289-3342-90             HOUSING FEMALE ASS'Y     CCN000004800000004800FN00000000020220201000004800NNMD0420211215121456    1N0N  00000240000000686400000901432G2    AISUAI  005500360039
BI00B32G2    SA22022JMW     202201127289-3342-90             HOUSING FEMALE ASS'Y     CCN000002400000002400FN00000000020220201000002400NNMD0420211215121456    1N0N  00000240000000686400000901432G2    AISUAI  005500360039
BI00B32G2    SA22023JMW     202201197289-3342-90             HOUSING FEMALE ASS'Y     CCN000002400000002400FN00000000020220201000002400NNMD0420211215121456    1N0N  00000240000000686400000901432G2    AISUAI  005500360039
BI00B32G2    SA22024JMW     202201267289-3342-90             HOUSING FEMALE ASS'Y     CCN000002400000002400FN00000000020220201000002400NNMD0420211215121456    1N0N  00000240000000686400000901432G2    AISUAI  005500360039
BI00B32G2    SA22021 MW     202201057283-4577                CONNECTOR HOUSING        CCN000033600000033600FN00000000020220201000033600NNMD0420211215121456    4N0N  00000480000000916800001136832G2    AISUAI  005500360039
BI00B32G2    SA22022 MW     202201127283-4577                CONNECTOR HOUSING        CCN000024000000024000FN00000000020220201000024000NNMD0420211215121456    4N0N  00000480000000916800001136832G2    AISUAI  005500360039
BI00B32G2    SA22023 MW     202201197283-4577                CONNECTOR HOUSING        CCN000014400000014400FN00000000020220201000014400NNMD0420211215121456    4N0N  00000480000000916800001136832G2    AISUAI  005500360039
BI00B32G2    SA22024 MW     202201267283-4577                CONNECTOR HOUSING        CCN000009600000009600FN00000000020220201000009600NNMD0420211215121456    4N0N  00000480000000916800001136832G2    AISUAI  005500360039
BI00B32G2    SA22021 MW     202201057283-4855                CONNECTOR HOUSING        CCN000012000000012000FN00000000020220201000012000NNMD0420211215121456    4N0N  00000240000001188400001400032G2    AISUAI  005500360039
BI00B32G2    SA22022 MW     202201127283-4855                CONNECTOR HOUSING        CCN000007200000007200FN00000000020220201000007200NNMD0420211215121456    4N0N  00000240000001188400001400032G2    AISUAI  005500360039
BI00B32G2    SA22023 MW     202201197283-4855                CONNECTOR HOUSING        CCN000007200000007200FN00000000020220201000007200NNMD0420211215121456    4N0N  00000240000001188400001400032G2    AISUAI  005500360039
BI00B32G2    SA22024 MW     202201267283-4855                CONNECTOR HOUSING        CCN000004800000004800FN00000000020220201000004800NNMD0420211215121456    4N0N  00000240000001188400001400032G2    AISUAI  005500360039
BI00B32G2    SA22021 MW     202201057289-3342                HOUSING FEMALE ASS'Y     CCN000014400000014400FN00000000020220201000014400NNMD0420211215121456    1N0N  00000240000000686400000901432G2    AISUAI  005500360039
BI00B32G2    SA22022 MW     202201127289-3342                HOUSING FEMALE ASS'Y     CCN000009600000009600FN00000000020220201000009600NNMD0420211215121456    1N0N  00000240000000686400000901432G2    AISUAI  005500360039
BI00B32G2    SA22023 MW     202201197289-3342                HOUSING FEMALE ASS'Y     CCN000009600000009600FN00000000020220201000009600NNMD0420211215121456    1N0N  00000240000000686400000901432G2    AISUAI  005500360039
BI00B32G2    SA22024 MW     202201267289-3342                HOUSING FEMALE ASS'Y     CCN000004800000004800FN00000000020220201000004800NNMD0420211215121456    1N0N  00000240000000686400000901432G2    AISUAI  005500360039
BI00B32G2    SA22021 MW     202201057289-3342-30             HOUSING FEMALE ASS'Y     CCN000048000000048000FN00000000020220201000048000NNMD0420211215121456    1N0N  00000240000000686400000901432G2    AISUAI  005500360039
BI00B32G2    SA22022 MW     202201127289-3342-30             HOUSING FEMALE ASS'Y     CCN000043200000043200FN00000000020220201000043200NNMD0420211215121456    1N0N  00000240000000686400000901432G2    AISUAI  005500360039
BI00B32G2    SA22023 MW     202201197289-3342-30             HOUSING FEMALE ASS'Y     CCN000040800000040800FN00000000020220201000040800NNMD0420211215121456    1N0N  00000240000000686400000901432G2    AISUAI  005500360039
BI00B32G2    SA22024 MW     202201267289-3342-30             HOUSING FEMALE ASS'Y     CCN000031200000031200FN00000000020220201000031200NNMD0420211215121456    1N0N  00000240000000686400000901432G2    AISUAI  005500360039
BI00B32G2    SA22021 MW     202201057289-3342-40             HOUSING FEMALE ASS'Y     CCN000004800000004800FN00000000020220201000004800NNMD0420211215121456    1N0N  00000240000000686400000901432G2    AISUAI  005500360039
BI00B32G2    SA22022 MW     202201127289-3342-40             HOUSING FEMALE ASS'Y     CCN000004800000004800FN00000000020220201000004800NNMD0420211215121456    1N0N  00000240000000686400000901432G2    AISUAI  005500360039
BI00B32G2    SA22023 MW     202201197289-3342-40             HOUSING FEMALE ASS'Y     CCN000004800000004800FN00000000020220201000004800NNMD0420211215121456    1N0N  00000240000000686400000901432G2    AISUAI  005500360039
BI00B32G2    SA22024 MW     202201267289-3342-40             HOUSING FEMALE ASS'Y     CCN000002400000002400FN00000000020220201000002400NNMD0420211215121456    1N0N  00000240000000686400000901432G2    AISUAI  005500360039
BI00B32G7    #JJ22013MMW    202112227189-2978-30             HOUSING FEMALE           CCN000010500000010500FN00000000020220101000010500NNMD0020211215121456    2F0F  00000150000000966900001096932G7    JIJAI   005400370024
BI00B32G7    JJ22021 MW     202201137289-3342-30             HOUSING FEMALE ASS'Y     CCN000043200000043200FN00000000020220201000043200NNMD0420211215170222    1N0N  00000240000000686400000901432G7    JIJAI   005500360039
BI00B32G7    JJ22022 MW     202201207289-3342-30             HOUSING FEMALE ASS'Y     CCN000026400000026400FN00000000020220201000026400NNMD0420211215170238    1N0N  00000240000000686400000901432G7    JIJAI   005500360039
BI00B32G7    JJ22023 MW     202201277289-3342-30             HOUSING FEMALE ASS'Y     CCN000024000000024000FN00000000020220201000024000NNMD0420211215170256    1N0N  00000240000000686400000901432G7    JIJAI   005500360039
BI00B32G7    JJ22024 MW     202202037289-3342-30             HOUSING FEMALE ASS'Y     CCN000026400000026400FN00000000020220201000026400NNMD0420211215170310    1N0N  00000240000000686400000901432G7    JIJAI   005500360039
BI00B32G7    JJ22021MMW     202201137289-3342                HOUSING FEMALE ASS'Y     CCN000007200000007200FN00000000020220201000007200NNMD0420211215170351    1N0N  00000240000000686400000901432G7    JIJAI   005500360039
BI00B32G7    JJ22022MMW     202201207289-3342                HOUSING FEMALE ASS'Y     CCN000009600000009600FN00000000020220201000009600NNMD0420211215170404    1N0N  00000240000000686400000901432G7    JIJAI   005500360039
BI00B32G7    JJ22023MMW     202201277289-3342                HOUSING FEMALE ASS'Y     CCN000007200000007200FN00000000020220201000007200NNMD0420211215170416    1N0N  00000240000000686400000901432G7    JIJAI   005500360039
BI00B32G7    JJ22024MMW     202202037289-3342                HOUSING FEMALE ASS'Y     CCN000007200000007200FN00000000020220201000007200NNMD0420211215170434    1N0N  00000240000000686400000901432G7    JIJAI   005500360039
BI00B32H0    TT2202CVMW     202201047114-5096-08             TERMINAL                 CCN000030000000030000FN00000000020220201000030000NNE   20211215121456    4P0P  00003000000000498000000792232H0    TTTJY   006400630015
BI00B32H0    TT2202CVMW     202201047283-4855                CONNECTOR HOUSING        CCN000002400000002400FN00000000020220201000002400NNE   20211215121456    4N0N  00000240000001188400001400032H0    TTTJY   005500360039
BI00B32H0    #TT2202CVMW    202201047158-3005-80             RUBBER STOPPER           CCN000020000000020000FN00000000020220201000020000NNE   20211215121456    2H0H  00002000000000210000000268732H0    TTTJY   002700430014
BI00B32H0    #TT2202CVMW    202201047172-5625-90             RUBBER STOPPER           CCN000020000000020000FN00000000020220201000020000NNE   20211215121456    2H0H  00002000000000082400000133832H0    TTTJY   004300270014
BI00B32H0    #TT2202CVMW    202201047172-5628-80             DUMMY PLUG               CCN000020000000020000FN00000000020220201000020000NNE   20211215121456    2H0H  00002000000000110600000162032H0    TTTJY   004300270014
BI00B32K8    #K1210013270   202201077137-2718-50             SEALED CONNECTOR         CCN000011000000011000FN00000000020220201000011000NNM   20211215121456    2C0C  00000100000000118300000236632K8    ELELCOM 002700430014
BI00A32M4    #QA-21-C122    202112167282-5845-30             HOUSING MALE ASS'Y       PNN000008000000008000FN00000000020211201000008000NNEM0020211215135734    2N0N  00000400000001068000001178032M4    SISAI   005400370024
BI00A32M4    #QA-21-C122    202112217282-5845                HOUSING MALE ASS'Y       PNN000008000000008000FN00000000020211201000008000NNE00020211215151607    2N0N  00000400000001068000001178032M4    SISAI   005400370024
BI00A32M8    #PM21124 MW    202112237158-3007-10             RUBBER STOPPER           PCN000060000000060000FN00000000020211201000060000NNMM0020211215185610    2H0H  00002000000000308000000362732M8    PMPEMI  002700430014
BI00B32M8    #PM22013 MW    202112227183-2413                CONNECTOR HOUSING        CCN000019200000019200FN00000000020220101000019200NNMD0020211215121456    2F0F  00000480000000478100000760032M8    PMPEMI  005500360039
BI00B32M8    #PM22013 MW    202112227183-2413-30             CONNECTOR HOUSING        CCN000004800000004800FN00000000020220101000004800NNMD0020211215121456    2F0F  00000480000000477600000759532M8    PMPEMI  005500360039
BI00B32M8    #PM22013 MW    202112227183-2419                HOUSING                  CCN000004800000004800FN00000000020220101000004800NNMD0020211215121456    2F0F  00000480000001065600001352732M8    PMPEMI  005500360039
BI00B32M8    #PM22013JMW    202112227183-2419-40             CONNECTOR HOUSING        CCN000004800000004800FN00000000020220101000004800NNMD0020211215121456    2F0F  00000480000001066600001353732M8    PMPEMI  005500360039
BI00B32M8    PM22011TMW     202112227288-6547                CONNECTOR MALE ASS'Y     CCN000000750000000750FN00000000020220101000000750NNM00020211215133935    4N0N  00000075000001205300001340332M8    PMPEMI  005400370024
BI00B32M8    PM22021 MW     202201127289-3342-30             HOUSING FEMALE ASS'Y     CCN000004800000004800FN00000000020220201000004800NNMD0420211215171250    1N0N  00000240000000686400000901432M8    PMPEMI  005500360039
BI00B32M8    PM22022 MW     202201197289-3342-30             HOUSING FEMALE ASS'Y     CCN000009600000009600FN00000000020220201000009600NNMD0420211215171300    1N0N  00000240000000686400000901432M8    PMPEMI  005500360039
BI00B32M8    PM22023 MW     202201267289-3342-30             HOUSING FEMALE ASS'Y     CCN000009600000009600FN00000000020220201000009600NNMD0420211215171311    1N0N  00000240000000686400000901432M8    PMPEMI  005500360039
BI00B32M8    PM22024 MW     202202027289-3342-30             HOUSING FEMALE ASS'Y     CCN000002400000002400FN00000000020220201000002400NNMD0420211215171320    1N0N  00000240000000686400000901432M8    PMPEMI  005500360039
BI00B32M8    PM22021TMW     202201127288-6547                CONNECTOR MALE ASS'Y     CCN000003000000003000FN00000000020220201000003000NNMD0420211215171338    4N0N  00000075000001205300001340332M8    PMPEMI  005400370024
BI00B32M8    PM22022TMW     202201197288-6547                CONNECTOR MALE ASS'Y     CCN000003000000003000FN00000000020220201000003000NNMD0420211215171344    4N0N  00000075000001205300001340332M8    PMPEMI  005400370024
BI00B32M8    PM22023TMW     202201267288-6547                CONNECTOR MALE ASS'Y     CCN000003000000003000FN00000000020220201000003000NNMD0420211215171352    4N0N  00000075000001205300001340332M8    PMPEMI  005400370024
BI00B32M8    PM22024TMW     202202027288-6547                CONNECTOR MALE ASS'Y     CCN000002250000002250FN00000000020220201000002250NNMD0420211215171404    4N0N  00000075000001205300001340332M8    PMPEMI  005400370024
BI00A32N1    #QA-21-C122    202112177282-5845-30             HOUSING MALE ASS'Y       PNN000004000000004000FN00000000020211201000004000NNE00020211215135712    2N0N  00000400000001068000001178032N1    TAYIPL  005400370024
BI00A32N1    #QA-21-C122    202112237282-5845                HOUSING MALE ASS'Y       PNN000004000000004000FN00000000020211201000004000NNE00020211215151650    2N0N  00000400000001068000001178032N1    TAYIPL  005400370024
BI00B32N1    NST2115ECU     202201207283-5830                CONNECTOR                CCN000007530000012000FN00000000020220201000012000NNED0420211215154615    1N47  00000600000000954000001104032N1    TAYIPL  005500360039
BI00B32N1    NST2114B-1     202201067282-4855                HOUSING MALE ASS'Y       CCN000002000000002400FN00000000020220101000002400NNED0220211215154946    4N0N  00000120000001063200001283232N1    TAYIPL  005500360039
BI00A32N3    NBT112 A1      202112177289-3342-30             HOUSING FEMALE ASS'Y     PCN000019200000019200FN00000000020211201000019200NNM00020211215191333    1N0N  00000240000000686400000901432N3    ABYIPL-B005500360039
BI00A32N3    NBT112 A2      202112217289-3342-30             HOUSING FEMALE ASS'Y     PCN000026400000026400FN00000000020211201000026400NNM00020211215193532    1N0N  00000240000000686400000901432N3    ABYIPL-B005500360039
BI00A32N3    NBT112 A3      202112277289-3342-30             HOUSING FEMALE ASS'Y     PCN000031200000031200FN00000000020211201000031200NNMD0420211215193545    1N0N  00000240000000686400000901432N3    ABYIPL-B005500360039
BI00A32P8    #TAPI-1124     202112247172-5629-80             RUBBER STOPPER           PCN000160000000160000FN00000000020211201000160000NNMM0020211215181531    2H0H  00002000000000060000000111132P8    YIYTM   004300270014
BI00A32P8    #TAPI-1124     202112247289-4200-30             HOUSING FEMALE ASS'Y     PCN000006000000006000FN00000000020211201000006000NNMM0020211215181531    2N0N  00000200000000926000001021032P8    YIYTM   005400370024
BI00A32P8    #TAPI-1124     202112247172-5630-40             RUBBER STOPPER           PCN000140000000140000FN00000000020211201000140000NNMM0020211215181531    2H0H  00002000000000044000000095132P8    YIYTM   004300270014
BI00B32P8    #TAPI-2015     202112227183-2419                HOUSING                  CCN000009600000009600FN00000000020220101000009600NNMD0020211215121456    2F0F  00000480000001065600001352732P8    YIYTM   005500360039
BI00B32P8    TAPI-201A1     202201057158-3070-80             RUBBER STOPPER           CCN000040000000040000FN00000000020220101000040000NNMP0820211215121456    1C0C  00004000000000276000000333332P8    YIYTM   002700430014
BI00B32P8    TAPI-201A1     202201057114-4101-02             TERMINAL                 CCN000135000000135000FN00000000020220101000135000NNMP0820211215121456    4P0P  00001500000000675000001003632P8    YIYTM   006400630017
BI00B32P8    TAPI-201A1     202201057114-4417-02             TERMINAL MALE            CCN000022500000022500FN00000000020220101000022500NNMP0820211215121456    4P0P  00002250000000380300000668532P8    YIYTM   006400630015
BI00B32P8    TAPI-201A1     202201057116-1230                TERMINAL                 CCN000013500000013500FN00000000020220101000013500NNMP0820211215121456    4P0P  00001350000000664200000952432P8    YIYTM   006400630015
BI00B32P8    TAPI-201A1     202201057116-6041                TERMINAL                 CCN000013500000013500FN00000000020220101000013500NNMP0820211215121456    4P0P  00000450000000716000001009632P8    YIYTM   006400630015
BI00B32P8    TAPI-201A1     202201057196-1104-02             TERMINAL                 CCN000517500000517500FN00000000020220101000517500NNMP0820211215121456    4P0P  00002250000000441000000726232P8    YIYTM   006400630015
BI00B32P8    #TAPI-201A1    202201057172-5629-80             RUBBER STOPPER           CCN000780000000780000FN00000000020220101000780000NNMP0820211215121456    2H0H  00002000000000060000000111132P8    YIYTM   004300270014
BI00B32P8    #TAPI-201A1    202201057172-5631-60             RUBBER STOPPER           CCN000660000000660000FN00000000020220101000660000NNMP0820211215121456    2H0H  00002000000000042000000093132P8    YIYTM   004300270014
BI00B32P8    #TAPI-201A1    202201057123-7564-40             CONNECTOR                CCN000003000000003000FN00000000020220101000003000NNMP0820211215121456    2F0F  00000100000001301000001479032P8    YIYTM   005600390040
BI00B32P8    #TAPI-201A1    202201057182-9633-40             JOINT CONNECTOR          CCN000009000000009000FN00000000020220101000009000NNMP0820211215121456    2F0F  00000300000001335000001460532P8    YIYTM   005400370024
BI00B32P8    #TAPI-201A1    202201057282-7040-30             HOUSING MALE ASS'Y       CCN000006600000007200FN00000000020220101000007200NNMP0820211215121456    2N0N  00000120000000620400000731932P8    YIYTM   005400370024
BI00B32P8    #TAPI-201A1    202201057289-2915-30             HOUSING FEMALE ASS'Y     CCN000001500000001500FN00000000020220101000001500NNMP0820211215121456    2N0N  00000150000000964500001091532P8    YIYTM   005400360024
BI00B32P8    #TAPI-201A1    202201057172-5632-10             DUMMY PLUG               CCN000586000000600000FN00000000020220101000600000NNMP0820211215121456    2H0H  00002000000000080400000131832P8    YIYTM   004300270014
BI00B32P8    @TAPI-201A1    202201057123-4312-30             HOUSING                  CCN000011200000011200FN00000000020220101000011200NNMP0820211215121456    3F0F  00000080000000641900000793232P8    YIYTM   005500360039
BI00B32P8    TAPI-2032      202202097158-3169-40             SEALING PLUG             CCN000160000000160000FN00000000020220301000160000NNM   20211215121456    1C0C  00004000000000156000000204132P8    YIYTM   004300260014
BI00B32P8    TAPI-2033      202202167158-3169-40             SEALING PLUG             CCN000080000000080000FN00000000020220301000080000NNM   20211215121456    1C0C  00004000000000156000000204132P8    YIYTM   004300260014
BI00B32P8    TAPI-2034      202202237158-3169-40             SEALING PLUG             CCN000080000000080000FN00000000020220301000080000NNM   20211215121456    1C0C  00004000000000156000000204132P8    YIYTM   004300260014
BI00B32P8    TAPI-2033      202202167157-6240-30             REAR HOLDER              CCN000005000000005000FN00000000020220301000005000NNM   20211215121456    1F0F  00000500000000545000000716032P8    YIYTM   005500360039
BI00B32P8    TAPI-2032      202202097157-7915-80             REAR HOLDER              CCN000010000000010000FN00000000020220301000010000NNM   20211215121456    1F0F  00001000000001110000001364032P8    YIYTM   005500360039
BI00B32P8    TAPI-2034      202202237157-7915-80             REAR HOLDER              CCN000010000000010000FN00000000020220301000010000NNM   20211215121456    1F0F  00001000000001110000001364032P8    YIYTM   005500360039
BI00B32P8    TAPI-2031      202202027158-3006-90             RUBBER STOPPER           CCN000440000000440000FN00000000020220301000440000NNM   20211215121456    1C0C  00002000000000330600000386032P8    YIYTM   002700430014
BI00B32P8    TAPI-2032      202202097158-3006-90             RUBBER STOPPER           CCN000460000000460000FN00000000020220301000460000NNM   20211215121456    1C0C  00002000000000330600000386032P8    YIYTM   002700430014
BI00B32P8    TAPI-2033      202202167158-3006-90             RUBBER STOPPER           CCN000480000000480000FN00000000020220301000480000NNM   20211215121456    1C0C  00002000000000330600000386032P8    YIYTM   002700430014
BI00B32P8    TAPI-2034      202202237158-3006-90             RUBBER STOPPER           CCN000460000000460000FN00000000020220301000460000NNM   20211215121456    1C0C  00002000000000330600000386032P8    YIYTM   002700430014
BI00B32P8    TAPI-2031      202202027158-3009-60             RUBBER STOPPER           CCN000200000000200000FN00000000020220301000200000NNM   20211215121456    1C0C  00002000000000338000000386232P8    YIYTM   002700430014
BI00B32P8    TAPI-2032      202202097158-3009-60             RUBBER STOPPER           CCN000240000000240000FN00000000020220301000240000NNM   20211215121456    1C0C  00002000000000338000000386232P8    YIYTM   002700430014
BI00B32P8    TAPI-2033      202202167158-3009-60             RUBBER STOPPER           CCN000240000000240000FN00000000020220301000240000NNM   20211215121456    1C0C  00002000000000338000000386232P8    YIYTM   002700430014
BI00B32P8    TAPI-2034      202202237158-3009-60             RUBBER STOPPER           CCN000260000000260000FN00000000020220301000260000NNM   20211215121456    1C0C  00002000000000338000000386232P8    YIYTM   002700430014
BI00B32P8    TAPI-2031      202202027158-3070-80             RUBBER STOPPER           CCN000040000000040000FN00000000020220301000040000NNM   20211215121456    1C0C  00004000000000276000000333332P8    YIYTM   002700430014
BI00B32P8    TAPI-2031      202202027158-3165-90             WIRE SEAL                CCN000240000000240000FN00000000020220301000240000NNM   20211215121456    1C0C  00004000000000124000000172432P8    YIYTM   004300270014
BI00B32P8    TAPI-2033      202202167158-3165-90             WIRE SEAL                CCN000280000000280000FN00000000020220301000280000NNM   20211215121456    1C0C  00004000000000124000000172432P8    YIYTM   004300270014
BI00B32P8    TAPI-2034      202202237158-3165-90             WIRE SEAL                CCN000240000000240000FN00000000020220301000240000NNM   20211215121456    1C0C  00004000000000124000000172432P8    YIYTM   004300270014
BI00B32P8    TAPI-2032      202202097158-3166-60             WIRE SEAL                CCN000200000000200000FN00000000020220301000200000NNM   20211215121456    1C0C  00004000000000104000000152432P8    YIYTM   002700430014
BI00B32P8    TAPI-2034      202202237158-3166-60             WIRE SEAL                CCN000200000000200000FN00000000020220301000200000NNM   20211215121456    1C0C  00004000000000104000000152432P8    YIYTM   002700430014
BI00B32P8    TAPI-2031      202202027158-3167-80             WIRE SEAL                CCN000360000000360000FN00000000020220301000360000NNM   20211215121456    1C0C  00002000000000048000000109032P8    YIYTM   002700430014
BI00B32P8    TAPI-2032      202202097158-3167-80             WIRE SEAL                CCN000220000000220000FN00000000020220301000220000NNM   20211215121456    1C0C  00002000000000048000000109032P8    YIYTM   002700430014
BI00B32P8    TAPI-2033      202202167158-3167-80             WIRE SEAL                CCN000220000000220000FN00000000020220301000220000NNM   20211215121456    1C0C  00002000000000048000000109032P8    YIYTM   002700430014
BI00B32P8    TAPI-2034      202202237158-3167-80             WIRE SEAL                CCN000200000000200000FN00000000020220301000200000NNM   20211215121456    1C0C  00002000000000048000000109032P8    YIYTM   002700430014
BI00B32P8    TAPI-2031      202202027158-3168-80             SEALED                   CCN000040000000040000FN00000000020220301000040000NNM   20211215121456    1C0C  00002000000000044000000092132P8    YIYTM   004300260014
BI00B32P8    TAPI-2033      202202167158-3168-80             SEALED                   CCN000040000000040000FN00000000020220301000040000NNM   20211215121456    1C0C  00002000000000044000000092132P8    YIYTM   004300260014
BI00B32P8    TAPI-2034      202202237114-1470                TERMINAL                 CCN000066000000066000FN00000000020220301000066000NNM   20211215121456    4P0P  00001650000000544500000838732P8    YIYTM   006400630015
BI00B32P8    TAPI-2031      202202027114-1475                TERMINAL                 CCN000013500000013500FN00000000020220301000013500NNM   20211215121456    4P0P  00001350000000480600000774232P8    YIYTM   006400630015
BI00B32P8    TAPI-2031      202202027114-1670-02             TERMINAL                 CCN000024000000024000FN00000000020220301000024000NNM   20211215121456    1P0P  00002400000000357600000645832P8    YIYTM   006400630015
BI00B32P8    TAPI-2033      202202167114-1670-02             TERMINAL                 CCN000024000000024000FN00000000020220301000024000NNM   20211215121456    1P0P  00002400000000357600000645832P8    YIYTM   006400630015
BI00B32P8    TAPI-2031      202202027114-4020                TERMINAL                 CCN000105000000105000FN00000000020220301000105000NNM   20211215121456    4P0P  00002100000000875700001169332P8    YIYTM   006400630015
BI00B32P8    TAPI-2032      202202097114-4020                TERMINAL                 CCN000105000000105000FN00000000020220301000105000NNM   20211215121456    4P0P  00002100000000875700001169332P8    YIYTM   006400630015
BI00B32P8    TAPI-2033      202202167114-4020                TERMINAL                 CCN000084000000084000FN00000000020220301000084000NNM   20211215121456    4P0P  00002100000000875700001169332P8    YIYTM   006400630015
BI00B32P8    TAPI-2034      202202237114-4020                TERMINAL                 CCN000042000000042000FN00000000020220301000042000NNM   20211215121456    4P0P  00002100000000875700001169332P8    YIYTM   006400630015
BI00B32P8    TAPI-2031      202202027114-4021                TERMINAL                 CCN000060000000060000FN00000000020220301000060000NNM   20211215121456    4P0P  00001500000000670500000964132P8    YIYTM   006400630015
BI00B32P8    TAPI-2032      202202097114-4021                TERMINAL                 CCN000075000000075000FN00000000020220301000075000NNM   20211215121456    4P0P  00001500000000670500000964132P8    YIYTM   006400630015
BI00B32P8    TAPI-2033      202202167114-4021                TERMINAL                 CCN000060000000060000FN00000000020220301000060000NNM   20211215121456    4P0P  00001500000000670500000964132P8    YIYTM   006400630015
BI00B32P8    TAPI-2031      202202027114-4032                TERMINAL                 CCN000007500000007500FN00000000020220301000007500NNM   20211215121456    4P0P  00000750000000735000001063632P8    YIYTM   006400630017
BI00B32P8    TAPI-2033      202202167114-4032                TERMINAL                 CCN000007500000007500FN00000000020220301000007500NNM   20211215121456    4P0P  00000750000000735000001063632P8    YIYTM   006400630017
BI00B32P8    TAPI-2031      202202027114-4101-02             TERMINAL                 CCN000015000000015000FN00000000020220301000015000NNM   20211215121456    4P0P  00001500000000675000001003632P8    YIYTM   006400630017
BI00B32P8    TAPI-2032      202202097114-4101-02             TERMINAL                 CCN000015000000015000FN00000000020220301000015000NNM   20211215121456    4P0P  00001500000000675000001003632P8    YIYTM   006400630017
BI00B32P8    TAPI-2034      202202237114-4101-02             TERMINAL                 CCN000015000000015000FN00000000020220301000015000NNM   20211215121456    4P0P  00001500000000675000001003632P8    YIYTM   006400630017
BI00B32P8    TAPI-2031      202202027114-4110-02             TERMINAL                 CCN000060000000060000FN00000000020220301000060000NNM   20211215121456    4P0P  00001500000000901500001230132P8    YIYTM   006400630017
BI00B32P8    TAPI-2032      202202097114-4110-02             TERMINAL                 CCN000045000000045000FN00000000020220301000045000NNM   20211215121456    4P0P  00001500000000901500001230132P8    YIYTM   006400630017
BI00B32P8    TAPI-2033      202202167114-4110-02             TERMINAL                 CCN000045000000045000FN00000000020220301000045000NNM   20211215121456    4P0P  00001500000000901500001230132P8    YIYTM   006400630017
BI00B32P8    TAPI-2031      202202027114-4111-02             TERMINAL                 CCN000048000000048000FN00000000020220301000048000NNM   20211215121456    4P0P  00001200000000758400001087032P8    YIYTM   006400630017
BI00B32P8    TAPI-2032      202202097114-4111-02             TERMINAL                 CCN000024000000024000FN00000000020220301000024000NNM   20211215121456    4P0P  00001200000000758400001087032P8    YIYTM   006400630017
BI00B32P8    TAPI-2033      202202167114-4111-02             TERMINAL                 CCN000048000000048000FN00000000020220301000048000NNM   20211215121456    4P0P  00001200000000758400001087032P8    YIYTM   006400630017
BI00B32P8    TAPI-2031      202202027114-4231-02             TERMINAL                 CCN000198000000198000FN00000000020220301000198000NNM   20211215121456    4P0P  00001800000000554400000848032P8    YIYTM   006400630015
BI00B32P8    TAPI-2032      202202097114-4231-02             TERMINAL                 CCN000126000000126000FN00000000020220301000126000NNM   20211215121456    4P0P  00001800000000554400000848032P8    YIYTM   006400630015
BI00B32P8    TAPI-2033      202202167114-4231-02             TERMINAL                 CCN000144000000144000FN00000000020220301000144000NNM   20211215121456    4P0P  00001800000000554400000848032P8    YIYTM   006400630015
BI00B32P8    TAPI-2034      202202237114-4231-02             TERMINAL                 CCN000126000000126000FN00000000020220301000126000NNM   20211215121456    4P0P  00001800000000554400000848032P8    YIYTM   006400630015
BI00B32P8    TAPI-2031      202202027114-4415-02             TERMINAL MALE            CCN000027000000027000FN00000000020220301000027000NNM   20211215121456    4P0P  00002700000000429300000717532P8    YIYTM   006400630015
BI00B32P8    TAPI-2032      202202097114-4415-02             TERMINAL MALE            CCN000108000000108000FN00000000020220301000108000NNM   20211215121456    4P0P  00002700000000429300000717532P8    YIYTM   006400630015
BI00B32P8    TAPI-2033      202202167114-4415-02             TERMINAL MALE            CCN000081000000081000FN00000000020220301000081000NNM   20211215121456    4P0P  00002700000000429300000717532P8    YIYTM   006400630015
BI00B32P8    TAPI-2031      202202027114-4416-02             TERMINAL MALE            CCN000108000000108000FN00000000020220301000108000NNM   20211215121456    4P0P  00002700000000442800000731032P8    YIYTM   006400630015
BI00B32P8    TAPI-2032      202202097114-4416-02             TERMINAL MALE            CCN000027000000027000FN00000000020220301000027000NNM   20211215121456    4P0P  00002700000000442800000731032P8    YIYTM   006400630015
BI00B32P8    TAPI-2033      202202167114-4416-02             TERMINAL MALE            CCN000054000000054000FN00000000020220301000054000NNM   20211215121456    4P0P  00002700000000442800000731032P8    YIYTM   006400630015
BI00B32P8    TAPI-2034      202202237114-4416-02             TERMINAL MALE            CCN000054000000054000FN00000000020220301000054000NNM   20211215121456    4P0P  00002700000000442800000731032P8    YIYTM   006400630015
BI00B32P8    TAPI-2031      202202027114-4728-02             TERMINAL                 CCN000030000000030000FN00000000020220301000030000NNM   20211215121456    4P0P  00003000000000510000000804232P8    YIYTM   006400630015
BI00B32P8    TAPI-2032      202202097114-4728-02             TERMINAL                 CCN000030000000030000FN00000000020220301000030000NNM   20211215121456    4P0P  00003000000000510000000804232P8    YIYTM   006400630015
BI00B32P8    TAPI-2033      202202167114-4728-02             TERMINAL                 CCN000030000000030000FN00000000020220301000030000NNM   20211215121456    4P0P  00003000000000510000000804232P8    YIYTM   006400630015
BI00B32P8    TAPI-2034      202202237114-4728-02             TERMINAL                 CCN000030000000030000FN00000000020220301000030000NNM   20211215121456    4P0P  00003000000000510000000804232P8    YIYTM   006400630015
BI00B32P8    TAPI-2031      202202027114-4729-02             TERMINAL                 CCN000060000000060000FN00000000020220301000060000NNM   20211215121456    4P0P  00003000000000516000000810232P8    YIYTM   006400630015
BI00B32P8    TAPI-2032      202202097114-4729-02             TERMINAL                 CCN000060000000060000FN00000000020220301000060000NNM   20211215121456    4P0P  00003000000000516000000810232P8    YIYTM   006400630015
BI00B32P8    TAPI-2033      202202167114-4729-02             TERMINAL                 CCN000030000000030000FN00000000020220301000030000NNM   20211215121456    4P0P  00003000000000516000000810232P8    YIYTM   006400630015
BI00B32P8    TAPI-2034      202202237114-4729-02             TERMINAL                 CCN000030000000030000FN00000000020220301000030000NNM   20211215121456    4P0P  00003000000000516000000810232P8    YIYTM   006400630015
BI00B32P8    TAPI-2031      202202027114-5096-02             TERMINAL                 CCN000030000000030000FN00000000020220301000030000NNM   20211215121456    4P0P  00003000000000498000000792232P8    YIYTM   006400630015
BI00B32P8    TAPI-2031      202202027114-5746-02             TERMINAL                 CCN000021000000021000FN00000000020220301000021000NNM   20211215121456    4P0P  00002100000000695100000988732P8    YIYTM   006400630015
BI00B32P8    TAPI-2032      202202097116-1180                TERMINAL                 CCN000019500000019500FN00000000020220301000019500NNM   20211215121456    1P0P  00001950000000618200000903432P8    YIYTM   006400630015
BI00B32P8    TAPI-2031      202202027116-1231                TERMINAL                 CCN000012000000012000FN00000000020220301000012000NNM   20211215121456    4P0P  00001200000000633600000921832P8    YIYTM   006400630015
BI00B32P8    TAPI-2032      202202097116-1471                TERMINAL                 CCN000135000000135000FN00000000020220301000135000NNM   20211215121456    4P0P  00001500000000579000000867232P8    YIYTM   006400630015
BI00B32P8    TAPI-2033      202202167116-1471                TERMINAL                 CCN000090000000090000FN00000000020220301000090000NNM   20211215121456    4P0P  00001500000000579000000867232P8    YIYTM   006400630015
BI00B32P8    TAPI-2032      202202097116-1486-02             TERMINAL                 CCN000099000000099000FN00000000020220301000099000NNM   20211215121456    4P0P  00001650000000655100000940332P8    YIYTM   006400630015
BI00B32P8    TAPI-2032      202202097116-1685-02             TERMINAL                 CCN000024000000024000FN00000000020220301000024000NNM   20211215121456    4P0P  00002400000000897600001065232P8    YIYTM   005100280028
BI00B32P8    TAPI-2031      202202027116-1686-02             TERMINAL                 CCN000021000000021000FN00000000020220301000021000NNM   20211215121456    4P0P  00002100000000869400001021632P8    YIYTM   005100280028
BI00B32P8    TAPI-2031      202202027116-1687-02             TERMINAL FEMALE          CCN000024000000024000FN00000000020220301000024000NNM   20211215121456    4P0P  00002400000000303200000909632P8    YIYTM   005100280028
BI00B32P8    TAPI-2032      202202097116-1687-02             TERMINAL FEMALE          CCN000024000000024000FN00000000020220301000024000NNM   20211215121456    4P0P  00002400000000303200000909632P8    YIYTM   005100280028
BI00B32P8    TAPI-2034      202202237116-1687-02             TERMINAL FEMALE          CCN000024000000024000FN00000000020220301000024000NNM   20211215121456    4P0P  00002400000000303200000909632P8    YIYTM   005100280028
BI00B32P8    TAPI-2031      202202027116-2640                TERMINAL                 CCN000072000000072000FN00000000020220301000072000NNM   20211215121456    4P0P  00001800000001018800001196632P8    YIYTM   005100280028
BI00B32P8    TAPI-2032      202202097116-2640                TERMINAL                 CCN000018000000018000FN00000000020220301000018000NNM   20211215121456    4P0P  00001800000001018800001196632P8    YIYTM   005100280028
BI00B32P8    TAPI-2034      202202237116-2640                TERMINAL                 CCN000054000000054000FN00000000020220301000054000NNM   20211215121456    4P0P  00001800000001018800001196632P8    YIYTM   005100280028
BI00B32P8    TAPI-2031      202202027116-2641                TERMINAL                 CCN000036000000036000FN00000000020220301000036000NNM   20211215121456    4P0P  00001800000001161000001344632P8    YIYTM   005100280028
BI00B32P8    TAPI-2032      202202097116-2641                TERMINAL                 CCN000036000000036000FN00000000020220301000036000NNM   20211215121456    4P0P  00001800000001161000001344632P8    YIYTM   005100280028
BI00B32P8    TAPI-2033      202202167116-2641                TERMINAL                 CCN000018000000018000FN00000000020220301000018000NNM   20211215121456    4P0P  00001800000001161000001344632P8    YIYTM   005100280028
BI00B32P8    TAPI-2034      202202237116-2641                TERMINAL                 CCN000018000000018000FN00000000020220301000018000NNM   20211215121456    4P0P  00001800000001161000001344632P8    YIYTM   005100280028
BI00B32P8    TAPI-2032      202202097116-2870                TERMINAL                 CCN000012000000012000FN00000000020220301000012000NNM   20211215121456    1P0P  00001200000000783600001020232P8    YIYTM   005100280028
BI00B32P8    TAPI-2034      202202237116-2870                TERMINAL                 CCN000012000000012000FN00000000020220301000012000NNM   20211215121456    1P0P  00001200000000783600001020232P8    YIYTM   005100280028
BI00B32P8    TAPI-2031      202202027116-2891-02             TERMINAL                 CCN000030000000030000FN00000000020220301000030000NNM   20211215121456    4P0P  00001500000000982500001145932P8    YIYTM   005100280028
BI00B32P8    TAPI-2032      202202097116-2891-02             TERMINAL                 CCN000015000000015000FN00000000020220301000015000NNM   20211215121456    4P0P  00001500000000982500001145932P8    YIYTM   005100280028
BI00B32P8    TAPI-2033      202202167116-2891-02             TERMINAL                 CCN000015000000015000FN00000000020220301000015000NNM   20211215121456    4P0P  00001500000000982500001145932P8    YIYTM   005100280028
BI00B32P8    TAPI-2032      202202097116-2892-02             TERMINAL                 CCN000012000000012000FN00000000020220301000012000NNM   20211215121456    4P0P  00001200000000818400000981832P8    YIYTM   005100280028
BI00B32P8    TAPI-2033      202202167116-2892-02             TERMINAL                 CCN000012000000012000FN00000000020220301000012000NNM   20211215121456    4P0P  00001200000000818400000981832P8    YIYTM   005100280028
BI00B32P8    TAPI-2031      202202027116-2893-02             TERMINAL                 CCN000012000000012000FN00000000020220301000012000NNM   20211215121456    4P0P  00001200000000895200001058632P8    YIYTM   005100280028
BI00B32P8    TAPI-2033      202202167116-2893-02             TERMINAL                 CCN000012000000012000FN00000000020220301000012000NNM   20211215121456    4P0P  00001200000000895200001058632P8    YIYTM   005100280028
BI00B32P8    TAPI-2031      202202027116-2951                TERMINAL                 CCN000005400000005400FN00000000020220301000005400NNM   20211215121456    4P0P  00000540000000815900001110132P8    YIYTM   006400630015
BI00B32P8    TAPI-2032      202202097116-2951                TERMINAL                 CCN000005400000005400FN00000000020220301000005400NNM   20211215121456    4P0P  00000540000000815900001110132P8    YIYTM   006400630015
BI00B32P8    TAPI-2033      202202167116-2951                TERMINAL                 CCN000005400000005400FN00000000020220301000005400NNM   20211215121456    4P0P  00000540000000815900001110132P8    YIYTM   006400630015
BI00B32P8    TAPI-2031      202202027116-2951-02             TERMINAL                 CCN000021600000021600FN00000000020220301000021600NNM   20211215121456    4P0P  00000540000000817600001111832P8    YIYTM   006400630015
BI00B32P8    TAPI-2032      202202097116-2951-02             TERMINAL                 CCN000010800000010800FN00000000020220301000010800NNM   20211215121456    4P0P  00000540000000817600001111832P8    YIYTM   006400630015
BI00B32P8    TAPI-2033      202202167116-2951-02             TERMINAL                 CCN000016200000016200FN00000000020220301000016200NNM   20211215121456    4P0P  00000540000000817600001111832P8    YIYTM   006400630015
BI00B32P8    TAPI-2034      202202237116-2951-02             TERMINAL                 CCN000010800000010800FN00000000020220301000010800NNM   20211215121456    4P0P  00000540000000817600001111832P8    YIYTM   006400630015
BI00B32P8    TAPI-2031      202202027116-3153-08             TERMINAL                 CCN000054000000054000FN00000000020220301000054000NNM   20211215121456    4P0P  00002700000000461700000746932P8    YIYTM   006400630015
BI00B32P8    TAPI-2032      202202097116-3153-08             TERMINAL                 CCN000054000000054000FN00000000020220301000054000NNM   20211215121456    4P0P  00002700000000461700000746932P8    YIYTM   006400630015
BI00B32P8    TAPI-2033      202202167116-3153-08             TERMINAL                 CCN000027000000027000FN00000000020220301000027000NNM   20211215121456    4P0P  00002700000000461700000746932P8    YIYTM   006400630015
BI00B32P8    TAPI-2034      202202237116-3153-08             TERMINAL                 CCN000027000000027000FN00000000020220301000027000NNM   20211215121456    4P0P  00002700000000461700000746932P8    YIYTM   006400630015
BI00B32P8    TAPI-2031      202202027116-3154-08             TERMINAL                 CCN000027000000027000FN00000000020220301000027000NNM   20211215121456    4P0P  00002700000000475200000760432P8    YIYTM   006400630015
BI00B32P8    TAPI-2032      202202097116-3154-08             TERMINAL                 CCN000027000000027000FN00000000020220301000027000NNM   20211215121456    4P0P  00002700000000475200000760432P8    YIYTM   006400630015
BI00B32P8    TAPI-2031      202202027116-4020                TERMINAL                 CCN000324000000324000FN00000000020220301000324000NNM   20211215121456    4P0P  00001350000000513000000798232P8    YIYTM   006400630015
BI00B32P8    TAPI-2032      202202097116-4020                TERMINAL                 CCN000270000000270000FN00000000020220301000270000NNM   20211215121456    4P0P  00001350000000513000000798232P8    YIYTM   006400630015
BI00B32P8    TAPI-2033      202202167116-4020                TERMINAL                 CCN000270000000270000FN00000000020220301000270000NNM   20211215121456    4P0P  00001350000000513000000798232P8    YIYTM   006400630015
BI00B32P8    TAPI-2034      202202237116-4020                TERMINAL                 CCN000270000000270000FN00000000020220301000270000NNM   20211215121456    4P0P  00001350000000513000000798232P8    YIYTM   006400630015
BI00B32P8    TAPI-2031      202202027116-4022                TERMINAL                 CCN000040500000040500FN00000000020220301000040500NNM   20211215121456    4P0P  00001350000000618300000903532P8    YIYTM   006400630015
BI00B32P8    TAPI-2032      202202097116-4022                TERMINAL                 CCN000027000000027000FN00000000020220301000027000NNM   20211215121456    4P0P  00001350000000618300000903532P8    YIYTM   006400630015
BI00B32P8    TAPI-2033      202202167116-4022                TERMINAL                 CCN000040500000040500FN00000000020220301000040500NNM   20211215121456    4P0P  00001350000000618300000903532P8    YIYTM   006400630015
BI00B32P8    TAPI-2034      202202237116-4022                TERMINAL                 CCN000027000000027000FN00000000020220301000027000NNM   20211215121456    4P0P  00001350000000618300000903532P8    YIYTM   006400630015
BI00B32P8    TAPI-2031      202202027116-4025                TERMINAL                 CCN000064000000064000FN00000000020220301000064000NNM   20211215121456    4P0P  00001600000000644800000975132P8    YIYTM   006400630017
BI00B32P8    TAPI-2032      202202097116-4025                TERMINAL                 CCN000128000000128000FN00000000020220301000128000NNM   20211215121456    4P0P  00001600000000644800000975132P8    YIYTM   006400630017
BI00B32P8    TAPI-2033      202202167116-4025                TERMINAL                 CCN000128000000128000FN00000000020220301000128000NNM   20211215121456    4P0P  00001600000000644800000975132P8    YIYTM   006400630017
BI00B32P8    TAPI-2034      202202237116-4025                TERMINAL                 CCN000112000000112000FN00000000020220301000112000NNM   20211215121456    4P0P  00001600000000644800000975132P8    YIYTM   006400630017
BI00B32P8    TAPI-2031      202202027116-4026                TERMINAL                 CCN000048000000048000FN00000000020220301000048000NNM   20211215121456    4P0P  00001600000000664000000994332P8    YIYTM   006400630017
BI00B32P8    TAPI-2032      202202097116-4026                TERMINAL                 CCN000048000000048000FN00000000020220301000048000NNM   20211215121456    4P0P  00001600000000664000000994332P8    YIYTM   006400630017
BI00B32P8    TAPI-2033      202202167116-4026                TERMINAL                 CCN000048000000048000FN00000000020220301000048000NNM   20211215121456    4P0P  00001600000000664000000994332P8    YIYTM   006400630017
BI00B32P8    TAPI-2034      202202237116-4026                TERMINAL                 CCN000048000000048000FN00000000020220301000048000NNM   20211215121456    4P0P  00001600000000664000000994332P8    YIYTM   006400630017
BI00B32P8    TAPI-2031      202202027116-4028-08             TERMINAL FEMALE          CCN000352000000352000FN00000000020220301000352000NNM   20211215121456    4P0P  00001600000000652800000981532P8    YIYTM   006400630017
BI00B32P8    TAPI-2032      202202097116-4028-08             TERMINAL FEMALE          CCN000208000000208000FN00000000020220301000208000NNM   20211215121456    4P0P  00001600000000652800000981532P8    YIYTM   006400630017
BI00B32P8    TAPI-2033      202202167116-4028-08             TERMINAL FEMALE          CCN000208000000208000FN00000000020220301000208000NNM   20211215121456    4P0P  00001600000000652800000981532P8    YIYTM   006400630017
BI00B32P8    TAPI-2034      202202237116-4028-08             TERMINAL FEMALE          CCN000208000000208000FN00000000020220301000208000NNM   20211215121456    4P0P  00001600000000652800000981532P8    YIYTM   006400630017
BI00B32P8    TAPI-2031      202202027116-4029-08             TERMINAL FEMALE          CCN000032000000032000FN00000000020220301000032000NNM   20211215121456    4P0P  00001600000000670400000999132P8    YIYTM   006400630017
BI00B32P8    TAPI-2033      202202167116-4029-08             TERMINAL FEMALE          CCN000032000000032000FN00000000020220301000032000NNM   20211215121456    4P0P  00001600000000670400000999132P8    YIYTM   006400630017
BI00B32P8    TAPI-2031      202202027116-4031                TERMINAL                 CCN000007500000007500FN00000000020220301000007500NNM   20211215121456    4P0P  00000750000000619500000904732P8    YIYTM   006400630015
BI00B32P8    TAPI-2032      202202097116-4031                TERMINAL                 CCN000007500000007500FN00000000020220301000007500NNM   20211215121456    4P0P  00000750000000619500000904732P8    YIYTM   006400630015
BI00B32P8    TAPI-2031      202202027116-4032                TERMINAL                 CCN000018000000018000FN00000000020220301000018000NNM   20211215121456    4P0P  00000600000000532800000818032P8    YIYTM   006400630015
BI00B32P8    TAPI-2034      202202237116-4032                TERMINAL                 CCN000024000000024000FN00000000020220301000024000NNM   20211215121456    4P0P  00000600000000532800000818032P8    YIYTM   006400630015
BI00B32P8    TAPI-2031      202202027116-4037                TERMINAL                 CCN000006000000006000FN00000000020220301000006000NNM   20211215121456    4P0P  00000600000000600000000894232P8    YIYTM   006400630015
BI00B32P8    TAPI-2033      202202167116-4037                TERMINAL                 CCN000024000000024000FN00000000020220301000024000NNM   20211215121456    4P0P  00000600000000600000000894232P8    YIYTM   006400630015
BI00B32P8    TAPI-2034      202202237116-4037                TERMINAL                 CCN000018000000018000FN00000000020220301000018000NNM   20211215121456    4P0P  00000600000000600000000894232P8    YIYTM   006400630015
BI00B32P8    TAPI-2032      202202097116-4100-02             TERMINAL                 CCN000075000000075000FN00000000020220301000075000NNM   20211215121456    4P0P  00001500000000696000000990232P8    YIYTM   006400630015
BI00B32P8    TAPI-2033      202202167116-4100-02             TERMINAL                 CCN000030000000030000FN00000000020220301000030000NNM   20211215121456    4P0P  00001500000000696000000990232P8    YIYTM   006400630015
BI00B32P8    TAPI-2034      202202237116-4101-02             TERMINAL                 CCN000012000000012000FN00000000020220301000012000NNM   20211215121456    4P0P  00001200000000582000000876232P8    YIYTM   006400630015
BI00B32P8    TAPI-2031      202202027116-4110-02             TERMINAL                 CCN000009000000009000FN00000000020220301000009000NNM   20211215121456    4P0P  00000900000000594000000882232P8    YIYTM   006400630015
BI00B32P8    TAPI-2032      202202097116-4110-02             TERMINAL                 CCN000036000000036000FN00000000020220301000036000NNM   20211215121456    4P0P  00000900000000594000000882232P8    YIYTM   006400630015
BI00B32P8    TAPI-2033      202202167116-4110-02             TERMINAL                 CCN000027000000027000FN00000000020220301000027000NNM   20211215121456    4P0P  00000900000000594000000882232P8    YIYTM   006400630015
BI00B32P8    TAPI-2034      202202237116-4110-02             TERMINAL                 CCN000027000000027000FN00000000020220301000027000NNM   20211215121456    4P0P  00000900000000594000000882232P8    YIYTM   006400630015
BI00B32P8    TAPI-2033      202202167116-4111-02             TERMINAL                 CCN000022500000022500FN00000000020220301000022500NNM   20211215121456    4P0P  00000750000000529500000817732P8    YIYTM   006400630015
BI00B32P8    TAPI-2034      202202237116-4111-02             TERMINAL                 CCN000015000000015000FN00000000020220301000015000NNM   20211215121456    4P0P  00000750000000529500000817732P8    YIYTM   006400630015
BI00B32P8    TAPI-2031      202202027116-4112-02             TERMINAL                 CCN000090000000090000FN00000000020220301000090000NNM   20211215121456    4P0P  00000600000000450000000738232P8    YIYTM   006400630015
BI00B32P8    TAPI-2032      202202097116-4112-02             TERMINAL                 CCN000042000000042000FN00000000020220301000042000NNM   20211215121456    4P0P  00000600000000450000000738232P8    YIYTM   006400630015
BI00B32P8    TAPI-2034      202202237116-4112-02             TERMINAL                 CCN000090000000090000FN00000000020220301000090000NNM   20211215121456    4P0P  00000600000000450000000738232P8    YIYTM   006400630015
BI00B32P8    TAPI-2031      202202027116-4116-02             TERMINAL                 CCN000013800000013800FN00000000020220301000013800NNM   20211215121456    4P0P  00000690000000517500000805732P8    YIYTM   006400630015
BI00B32P8    TAPI-2032      202202097116-4116-02             TERMINAL                 CCN000013800000013800FN00000000020220301000013800NNM   20211215121456    4P0P  00000690000000517500000805732P8    YIYTM   006400630015
BI00B32P8    TAPI-2033      202202167116-4116-02             TERMINAL                 CCN000013800000013800FN00000000020220301000013800NNM   20211215121456    4P0P  00000690000000517500000805732P8    YIYTM   006400630015
BI00B32P8    TAPI-2034      202202237116-4116-02             TERMINAL                 CCN000013800000013800FN00000000020220301000013800NNM   20211215121456    4P0P  00000690000000517500000805732P8    YIYTM   006400630015
BI00B32P8    TAPI-2031      202202027116-4120-02             TERMINAL                 CCN000036000000036000FN00000000020220301000036000NNM   20211215121456    4P0P  00000600000000780000001073632P8    YIYTM   006400630015
BI00B32P8    TAPI-2032      202202097116-4120-02             TERMINAL                 CCN000024000000024000FN00000000020220301000024000NNM   20211215121456    4P0P  00000600000000780000001073632P8    YIYTM   006400630015
BI00B32P8    TAPI-2033      202202167116-4120-02             TERMINAL                 CCN000030000000030000FN00000000020220301000030000NNM   20211215121456    4P0P  00000600000000780000001073632P8    YIYTM   006400630015
BI00B32P8    TAPI-2034      202202237116-4120-02             TERMINAL                 CCN000024000000024000FN00000000020220301000024000NNM   20211215121456    4P0P  00000600000000780000001073632P8    YIYTM   006400630015
BI00B32P8    TAPI-2031      202202027116-4121-02             TERMINAL                 CCN000063000000063000FN00000000020220301000063000NNM   20211215121456    4P0P  00000450000000618800000912432P8    YIYTM   006400630015
BI00B32P8    TAPI-2033      202202167116-4121-02             TERMINAL                 CCN000036000000036000FN00000000020220301000036000NNM   20211215121456    4P0P  00000450000000618800000912432P8    YIYTM   006400630015
BI00B32P8    TAPI-2031      202202027116-4122-02             TERMINAL                 CCN000139500000139500FN00000000020220301000139500NNM   20211215121456    4P0P  00000450000000656600000950232P8    YIYTM   006400630015
BI00B32P8    TAPI-2032      202202097116-4122-02             TERMINAL                 CCN000085500000085500FN00000000020220301000085500NNM   20211215121456    4P0P  00000450000000656600000950232P8    YIYTM   006400630015
BI00B32P8    TAPI-2034      202202237116-4122-02             TERMINAL                 CCN000139500000139500FN00000000020220301000139500NNM   20211215121456    4P0P  00000450000000656600000950232P8    YIYTM   006400630015
BI00B32P8    TAPI-2031      202202027116-4231-02             TERMINAL                 CCN000078000000078000FN00000000020220301000078000NNM   20211215121456    4P0P  00002600000000683800001012532P8    YIYTM   006400630017
BI00B32P8    TAPI-2032      202202097116-4231-02             TERMINAL                 CCN000312000000312000FN00000000020220301000312000NNM   20211215121456    4P0P  00002600000000683800001012532P8    YIYTM   006400630017
BI00B32P8    TAPI-2033      202202167116-4231-02             TERMINAL                 CCN000286000000286000FN00000000020220301000286000NNM   20211215121456    4P0P  00002600000000683800001012532P8    YIYTM   006400630017
BI00B32P8    TAPI-2034      202202237116-4231-02             TERMINAL                 CCN000312000000312000FN00000000020220301000312000NNM   20211215121456    4P0P  00002600000000683800001012532P8    YIYTM   006400630017
BI00B32P8    TAPI-2031      202202027116-4415-02             TERMINAL                 CCN000304000000304000FN00000000020220301000304000NNM   20211215121456    4P0P  00003800000000596600000925732P8    YIYTM   006400630017
BI00B32P8    TAPI-2032      202202097116-4415-02             TERMINAL                 CCN000228000000228000FN00000000020220301000228000NNM   20211215121456    4P0P  00003800000000596600000925732P8    YIYTM   006400630017
BI00B32P8    TAPI-2033      202202167116-4415-02             TERMINAL                 CCN000228000000228000FN00000000020220301000228000NNM   20211215121456    4P0P  00003800000000596600000925732P8    YIYTM   006400630017
BI00B32P8    TAPI-2034      202202237116-4415-02             TERMINAL                 CCN000190000000190000FN00000000020220301000190000NNM   20211215121456    4P0P  00003800000000596600000925732P8    YIYTM   006400630017
BI00B32P8    TAPI-2031      202202027116-4416-02             TERMINAL                 CCN000384000000384000FN00000000020220301000384000NNM   20211215121456    4P0P  00003200000000518400000847132P8    YIYTM   006400630017
BI00B32P8    TAPI-2032      202202097116-4416-02             TERMINAL                 CCN000320000000320000FN00000000020220301000320000NNM   20211215121456    4P0P  00003200000000518400000847132P8    YIYTM   006400630017
BI00B32P8    TAPI-2033      202202167116-4416-02             TERMINAL                 CCN000288000000288000FN00000000020220301000288000NNM   20211215121456    4P0P  00003200000000518400000847132P8    YIYTM   006400630017
BI00B32P8    TAPI-2034      202202237116-4416-02             TERMINAL                 CCN000320000000320000FN00000000020220301000320000NNM   20211215121456    4P0P  00003200000000518400000847132P8    YIYTM   006400630017
BI00B32P8    TAPI-2031      202202027116-4780-02             TERMINAL FEMALE          CCN000135000000135000FN00000000020220301000135000NNM   20211215121456    4P0P  00001500000000691500000985732P8    YIYTM   006400630015
BI00B32P8    TAPI-2032      202202097116-4780-02             TERMINAL FEMALE          CCN000195000000195000FN00000000020220301000195000NNM   20211215121456    4P0P  00001500000000691500000985732P8    YIYTM   006400630015
BI00B32P8    TAPI-2033      202202167116-4780-02             TERMINAL FEMALE          CCN000195000000195000FN00000000020220301000195000NNM   20211215121456    4P0P  00001500000000691500000985732P8    YIYTM   006400630015
BI00B32P8    TAPI-2034      202202237116-4780-02             TERMINAL FEMALE          CCN000195000000195000FN00000000020220301000195000NNM   20211215121456    4P0P  00001500000000691500000985732P8    YIYTM   006400630015
BI00B32P8    TAPI-2032      202202097116-5041-02             TERMINAL                 CCN000015000000015000FN00000000020220301000015000NNM   20211215121456    4P0P  00001500000000583500000868732P8    YIYTM   006400630015
BI00B32P8    TAPI-2032      202202097116-5042-02             TERMINAL                 CCN000040500000040500FN00000000020220301000040500NNM   20211215121456    4P0P  00001350000000560300000845532P8    YIYTM   006400630015
BI00B32P8    TAPI-2033      202202167116-5042-02             TERMINAL                 CCN000027000000027000FN00000000020220301000027000NNM   20211215121456    4P0P  00001350000000560300000845532P8    YIYTM   006400630015
BI00B32P8    TAPI-2034      202202237116-5042-02             TERMINAL                 CCN000013500000013500FN00000000020220301000013500NNM   20211215121456    4P0P  00001350000000560300000845532P8    YIYTM   006400630015
BI00B32P8    TAPI-2032      202202097116-5043-02             TERMINAL FEMALE          CCN000036000000036000FN00000000020220301000036000NNM   20211215121456    4P0P  00001200000000559200000844432P8    YIYTM   006400630015
BI00B32P8    TAPI-2033      202202167116-5043-02             TERMINAL FEMALE          CCN000036000000036000FN00000000020220301000036000NNM   20211215121456    4P0P  00001200000000559200000844432P8    YIYTM   006400630015
BI00B32P8    TAPI-2031      202202027116-5044-02             TERMINAL                 CCN000592000000592000FN00000000020220301000592000NNM   20211215121456    4P0P  00001600000000641600000986332P8    YIYTM   006400630017
BI00B32P8    TAPI-2032      202202097116-5044-02             TERMINAL                 CCN000464000000464000FN00000000020220301000464000NNM   20211215121456    4P0P  00001600000000641600000986332P8    YIYTM   006400630017
BI00B32P8    TAPI-2033      202202167116-5044-02             TERMINAL                 CCN000464000000464000FN00000000020220301000464000NNM   20211215121456    4P0P  00001600000000641600000986332P8    YIYTM   006400630017
BI00B32P8    TAPI-2034      202202237116-5044-02             TERMINAL                 CCN000464000000464000FN00000000020220301000464000NNM   20211215121456    4P0P  00001600000000641600000986332P8    YIYTM   006400630017
BI00B32P8    TAPI-2031      202202027116-5045-02             TERMINAL                 CCN000096000000096000FN00000000020220301000096000NNM   20211215121456    4P0P  00001600000000678400001007132P8    YIYTM   006400630017
