BI00B32CJ    @TTQ203B       20220318181E48027ZZ              CAVSAS-S 0.5X2 GY/P      CCN000002100000002100FN00000000020220301000002100NNE   20220219172405    1W    00000030000002561000000000032CJ    QNYHVQN 000000000000UL123001
BI00B32CJ    @TTQ203B       20220318181E48029ZZ              CAVSAS-S 0.5X4 GY        CCN000002200000002200FN00000000020220301000002200NNE   20220219172405    1W    00000020000003995000000000032CJ    QNYHVQN 000000000000UL123002
BI00B32CJ    @TTQ203C       20220318181E48027ZZ              CAVSAS-S 0.5X2 GY/P      CCN000001800000001800FN00000000020220301000001800NNE   20220219172407    1W    00000030000002561000000000032CJ    QNYHVQN 000000000000UM123001
BI00B32CJ    @TTQ203C       20220318181E48029ZZ              CAVSAS-S 0.5X4 GY        CCN000001600000001600FN00000000020220301000001600NNE   20220219172407    1W    00000020000003995000000000032CJ    QNYHVQN 000000000000UM123002
BI00B32CJ    TTQ204A        2022032518000004530              AV 8 B                   CCN000001400000001400FN00000000020220401000001400NNE   20220219172410    1W    00000010000010466200000000032CJ    QNYHVQN 000000000000UO223002
BI00B32CJ    @TTQ204A       20220325181B32012ZZ              AVSSCS 0.3FX2 DGY/BR     CCN000000350000000350FN00000000020220401000000350NNE   20220219172409    1W    00000035000002276000000000032CJ    QNYHVQN 000000000000UO223001
BI00B32DE    TT204A         20220310180D0204150              AVSSH 1.25F R            CCN000006400000006400FN00000000020220401000006400NNE   20220219173734    1W    00000080000001458000000000032DE    TVYEV-TV000000000000VY422001
BI00B32DE    @TT204A        20220317181F21027ZZ              AVSSHCS-S 1.25FX2 B      CCN000005600000005600FN00000000020220401000005600NNE   20220219173729    1W    00000020000004267300000000032DE    TVYEV-TV000000000000VR123001
BI00B32DE    @TT204A        20220317181F21031ZZ              AVSSHCS-S 1.25FX2 B/P    CCN000000200000000200FN00000000020220401000000200NNE   20220219173729    1W    00000020000004267300000000032DE    TVYEV-TV000000000000VR123002
BI00B32DE    TT204B         2022031718007703960              AVSS 0.5F G              CCN000003000000003000FN00000000020220401000003000NNE   20220219173735    1W    00000150000000674000000000032DE    TVYEV-TV000000000000VS123006
BI00B32DE    TT204B         2022031718007703941              AVSS 0.5F GY             CCN000001500000001500FN00000000020220401000001500NNE   20220219173735    1W    00000150000000674000000000032DE    TVYEV-TV000000000000VS123007
BI00B32DE    TT204B         2022031718007703990              AVSS 0.5F L              CCN000001500000001500FN00000000020220401000001500NNE   20220219173735    1W    00000150000000674000000000032DE    TVYEV-TV000000000000VS123008
BI00B32DE    TT204B         20220317180D0204043              AVSSH 0.75F W/B          CCN000005000000005000FN00000000020220401000005000NNE   20220219173735    1W    00000100000000934000000000032DE    TVYEV-TV000000000000VS123003
BI00B32DE    TT204B         20220317180D0204130              AVSSH 1.25F B            CCN000006400000006400FN00000000020220401000006400NNE   20220219173735    1W    00000080000001458000000000032DE    TVYEV-TV000000000000VS123004
BI00B32DE    TT204B         20220317180D0204180              AVSSH 1.25F BR           CCN000004800000004800FN00000000020220401000004800NNE   20220219173735    1W    00000080000001458000000000032DE    TVYEV-TV000000000000VS123005
BI00B32DE    @TT204B        20220317181F21009ZZ              AVSSHCS-S 0.5FX2 B       CCN000001800000001800FN00000000020220401000001800NNE   20220219173730    1W    00000030000002531400000000032DE    TVYEV-TV000000000000VS123001
BI00B32DE    @TT204B        20220317181F21016ZZ              AVSSHCS-S 0.5FX2 B/BR    CCN000001800000001800FN00000000020220401000001800NNE   20220219173730    1W    00000030000002531400000000032DE    TVYEV-TV000000000000VS123002
BI00B32DE    TT204C         2022032418007704152              AVSS 1.25F P             CCN000000800000000800FN00000000020220401000000800NNE   20220219173740    1W    00000080000001389000000000032DE    TVYEV-TV000000000000VX223014
BI00B32DE    TT204C         20220324180D0203930              AVSSH 0.5F B             CCN000010500000010500FN00000000020220401000010500NNE   20220219173740    1W    00000150000000689000000000032DE    TVYEV-TV000000000000VX223006
BI00B32DE    TT204C         20220324180D0203961              AVSSH 0.5F LG            CCN000009000000009000FN00000000020220401000009000NNE   20220219173740    1W    00000150000000689000000000032DE    TVYEV-TV000000000000VX223007
BI00B32DE    TT204C         20220324180D0203992              AVSSH 0.5F V             CCN000001500000001500FN00000000020220401000001500NNE   20220219173740    1W    00000150000000689000000000032DE    TVYEV-TV000000000000VX223008
BI00B32DE    TT204C         20220324180D0203940              AVSSH 0.5F W             CCN000001500000001500FN00000000020220401000001500NNE   20220219173740    1W    00000150000000689000000000032DE    TVYEV-TV000000000000VX223009
BI00B32DE    TT204C         20220324180D0204130              AVSSH 1.25F B            CCN000005600000005600FN00000000020220401000005600NNE   20220219173740    1W    00000080000001458000000000032DE    TVYEV-TV000000000000VX223010
BI00B32DE    TT204C         20220324180D0204180              AVSSH 1.25F BR           CCN000004000000004000FN00000000020220401000004000NNE   20220219173740    1W    00000080000001458000000000032DE    TVYEV-TV000000000000VX223011
BI00B32DE    TT204C         20220324180D0204190              AVSSH 1.25F L            CCN000004800000004800FN00000000020220401000004800NNE   20220219173740    1W    00000080000001458000000000032DE    TVYEV-TV000000000000VX223012
BI00B32DE    TT204C         20220324180D0204195              AVSSH 1.25F L/R          CCN000000800000000800FN00000000020220401000000800NNE   20220219173740    1W    00000080000001458000000000032DE    TVYEV-TV000000000000VX223013
BI00B32DE    @TT204C        20220324181F21009ZZ              AVSSHCS-S 0.5FX2 B       CCN000003000000003000FN00000000020220401000003000NNE   20220219173731    1W    00000030000002531400000000032DE    TVYEV-TV000000000000VX223001
BI00B32DE    @TT204C        20220324181F21014ZZ              AVSSHCS-S 0.5FX2 B/L     CCN000002400000002400FN00000000020220401000002400NNE   20220219173731    1W    00000030000002531400000000032DE    TVYEV-TV000000000000VX223003
BI00B32DE    @TT204C        20220324181F21016ZZ              AVSSHCS-S 0.5FX2 B/BR    CCN000002100000002100FN00000000020220401000002100NNE   20220219173731    1W    00000030000002531400000000032DE    TVYEV-TV000000000000VX223002
BI00B32DE    @TT204C        20220324181F21028ZZ              AVSSHCS-S 1.25FX2 B/R    CCN000000600000000600FN00000000020220401000000600NNE   20220219173731    1W    00000020000004267300000000032DE    TVYEV-TV000000000000VX223005
BI00B32DE    @TT204C        20220324181F21031ZZ              AVSSHCS-S 1.25FX2 B/P    CCN000000200000000200FN00000000020220401000000200NNE   20220219173731    1W    00000020000004267300000000032DE    TVYEV-TV000000000000VX223004
BI00B32D1    DFTW2220       2022032418000004534              AV 8 B/W                 CCN000000600000000600FN00000000020220501000000600NNE   20220219175328    1W    00000010000010466200000000032D1    TOYOT-K 000000000000KO223050
BI00B32D1    DFTW2220       2022032418000004535              AV 8 B/R                 CCN000001300000001300FN00000000020220501000001300NNE   20220219175328    1W    00000010000010466200000000032D1    TOYOT-K 000000000000KO223049
BI00B32D1    DFTW2220       2022032418000004540              AV 8 W                   CCN000001000000001000FN00000000020220501000001000NNE   20220219175328    1W    00000010000010466200000000032D1    TOYOT-K 000000000000KO223052
BI00B32D1    DFTW2220       2022032418000004543              AV 8 W/B                 CCN000000200000000200FN00000000020220501000000200NNE   20220219175328    1W    00000010000010466200000000032D1    TOYOT-K 000000000000KO223053
BI00B32D1    DFTW2220       2022032418000004550              AV 8 R                   CCN000001400000001400FN00000000020220501000001400NNE   20220219175328    1W    00000010000010466200000000032D1    TOYOT-K 000000000000KO223051
BI00B32D1    @DFTW2220      20220324181AD2002ZZ              CIVUSAS-S 0.35X2 B       CCN000000900000000900FN00000000020220501000000900NNE   20220219175325    1W    00000045000001713700000000032D1    TOYOT-K 000000000000KO223023
BI00B32D1    @DFTW2220      20220324181AD2003ZZ              CIVUSAS-S 0.35X3 B       CCN000001750000001750FN00000000020220501000001750NNE   20220219175325    1W    00000035000002172100000000032D1    TOYOT-K 000000000000KO223024
BI00B32D1    @DFTW2220      20220324181AD2004ZZ              CIVUSAS-S 0.35X4 B       CCN000003900000003900FN00000000020220501000003900NNE   20220219175325    1W    00000030000002799900000000032D1    TOYOT-K 000000000000KO223025
BI00B32D1    @DFTW2220      20220324181E48031ZZ              CAVSAS-S 0.3X2 GY        CCN000001750000001750FN00000000020220501000001750NNE   20220219175325    1W    00000035000002008700000000032D1    TOYOT-K 000000000000KO223026
BI00B32D1    @DFTW2220      20220324181E48037ZZ              CAVSAS-S 0.3X4 GY        CCN000001500000001500FN00000000020220501000001500NNE   20220219175325    1W    00000025000003262000000000032D1    TOYOT-K 000000000000KO223028
BI00B32D1    @DFTW2220      20220324181E48041ZZ              CAVSAS-S 0.3X2 GY/R      CCN000003500000003500FN00000000020220501000003500NNE   20220219175325    1W    00000035000002008700000000032D1    TOYOT-K 000000000000KO223027
BI00B32D1    @DFTW2220      20220324181E50002ZZ              AVSSCS-S 0.3FX2 DGY/G    CCN000001750000001750FN00000000020220501000001750NNE   20220219175325    1W    00000035000002165000000000032D1    TOYOT-K 000000000000KO223033
BI00B32D1    @DFTW2220      20220324181E50004ZZ              AVSSCS-S 0.5FX1 DGY      CCN000000800000000800FN00000000020220501000000800NNE   20220219175325    1W    00000040000001909700000000032D1    TOYOT-K 000000000000KO223029
BI00B32D1    @DFTW2220      20220324181E50005ZZ              AVSSCS-S 0.5FX1 DGY/W    CCN000000400000000400FN00000000020220501000000400NNE   20220219175325    1W    00000040000001909700000000032D1    TOYOT-K 000000000000KO223031
BI00B32D1    @DFTW2220      20220324181E50007ZZ              AVSSCS-S 0.5FX1 DGY/L    CCN000000400000000400FN00000000020220501000000400NNE   20220219175325    1W    00000040000001909700000000032D1    TOYOT-K 000000000000KO223030
BI00B32D1    @DFTW2220      20220324181E50020ZZ              AVSSCS-S 0.3FX2 DGY/R    CCN000001050000001050FN00000000020220501000001050NNE   20220219175325    1W    00000035000002165000000000032D1    TOYOT-K 000000000000KO223035
BI00B32D1    @DFTW2220      20220324181E50021ZZ              AVSSCS-S 0.3FX2 DGY/P    CCN000001050000001050FN00000000020220501000001050NNE   20220219175325    1W    00000035000002165000000000032D1    TOYOT-K 000000000000KO223034
BI00B32D1    @DFTW2220      20220324181E50036ZZ              AVSSCS-S 0.3FX2 DGY      CCN000001400000001400FN00000000020220501000001400NNE   20220219175325    1W    00000035000002165000000000032D1    TOYOT-K 000000000000KO223032
BI00B32D2    DGTW2220       2022032418000004543              AV 8 W/B                 CCN000008200000008200FN00000000020220501000008200NNE   20220219175052    1W    00000010000010466200000000032D2    TGYOT-G 000000000000KR223015
BI00B32D2    @DGTW2220      20220324181AD2003ZZ              CIVUSAS-S 0.35X3 B       CCN000008400000008400FN00000000020220501000008400NNE   20220219175050    1W    00000035000002172100000000032D2    TGYOT-G 000000000000KR223009
BI00B32D2    @DGTW2220      20220324181E48037ZZ              CAVSAS-S 0.3X4 GY        CCN000000250000000250FN00000000020220501000000250NNE   20220219175050    1W    00000025000003262000000000032D2    TGYOT-G 000000000000KR223010
BI00B32D2    @DGTW2220      20220324181E50016ZZ              AVSSCS-S 0.5FX2 DGY/R    CCN000000600000000600FN00000000020220501000000600NNE   20220219175050    1W    00000030000003096000000000032D2    TGYOT-G 000000000000KR223011
BI00B32D2    @DGTW2220      20220324181F21014ZZ              AVSSHCS-S 0.5FX2 B/L     CCN000001200000001200FN00000000020220501000001200NNE   20220219175050    1W    00000030000002531400000000032D2    TGYOT-G 000000000000KR223013
BI00B32D2    @DGTW2220      20220324181F21016ZZ              AVSSHCS-S 0.5FX2 B/BR    CCN000000600000000600FN00000000020220501000000600NNE   20220219175050    1W    00000030000002531400000000032D2    TGYOT-G 000000000000KR223012
BI00B32D2    @DGTW2220      20220324181F21031ZZ              AVSSHCS-S 1.25FX2 B/P    CCN000000600000000600FN00000000020220501000000600NNE   20220219175050    1W    00000020000004267300000000032D2    TGYOT-G 000000000000KR223014
BI00B32E2    @WY204B        20220302181B09116K3              CAVSAS 0.3X2 GY/P        CCN000002450000002450FN00000000020220401000002450NNE   20220219171700    1W    00000035000002254000000000032E2    SPYSE   000000000000KY322001
BI00B32G2    @SA2203BJMW    20220309181B0910241              CAVSAS 0.5X2 GY          CCN000000300000000300FN00000000020220301000000300NNE   20220219185141    1W    00000030000002680000000000032G2    AISUAI  000000000000IV422001
BI00B32H0    TT2204CVMW     20220315180D0204143              AVSSH 1.25F W/B          CCN000000800000000800FN00000000020220401000000800NNE   20220219185441    1W    00000080000001458000000000032H0    TTTJY   000000000000NL123001
BI00B32H2    TAW204A        2022031118007704130              AVSS 1.25F B             CCN000000800000000800FN00000000020220401000000800NNE   20220219174723    1W    00000080000001389000000000032H2    HVYHV   000000000000UJ422003
BI00B32H2    TAW204A        20220311180D0203930              AVSSH 0.5F B             CCN000004500000004500FN00000000020220401000004500NNE   20220219174723    1W    00000150000000689000000000032H2    HVYHV   000000000000UJ422001
BI00B32H2    TAW204A        20220311180D0204143              AVSSH 1.25F W/B          CCN000000800000000800FN00000000020220401000000800NNE   20220219174723    1W    00000080000001458000000000032H2    HVYHV   000000000000UJ422002
BI00B32H2    @TAW204A       20220318181E48018ZZ              CAVSAS-S 0.5X2 GY/SB     CCN000000900000000900FN00000000020220401000000900NNE   20220219174722    1W    00000030000002561000000000032H2    HVYHV   000000000000UA123002
BI00B32H2    @TAW204A       20220318181E48022ZZ              CAVSAS-S 0.5X2 GY        CCN000000900000000900FN00000000020220401000000900NNE   20220219174722    1W    00000030000002561000000000032H2    HVYHV   000000000000UA123001
BI00B32H2    TAW204B        20220311180D0203930              AVSSH 0.5F B             CCN000003000000003000FN00000000020220401000003000NNE   20220219174724    1W    00000150000000689000000000032H2    HVYHV   000000000000UK422001
BI00B32H2    @TAW204B       20220318181E48018ZZ              CAVSAS-S 0.5X2 GY/SB     CCN000000900000000900FN00000000020220401000000900NNE   20220219174723    1W    00000030000002561000000000032H2    HVYHV   000000000000UB123002
BI00B32H2    @TAW204B       20220318181E48022ZZ              CAVSAS-S 0.5X2 GY        CCN000000900000000900FN00000000020220401000000900NNE   20220219174723    1W    00000030000002561000000000032H2    HVYHV   000000000000UB123001
BI00B32J1    @391610        20220314181E48012ZZ              CAVSAS-S 0.3X1 GY        CCN000002000000002000FN00000000020220301000002000NNE   20220219172053    1W    00000050000001529500000000032J1    UKYEL-BL000000000000KG123001
BI00B32J1    @391610        20220314181E48013ZZ              CAVSAS-S 0.3X3 GY        CCN000000250000000250FN00000000020220301000000250NNE   20220219172053    1W    00000025000002778200000000032J1    UKYEL-BL000000000000KG123006
BI00B32J1    @391610        20220314181E48022ZZ              CAVSAS-S 0.5X2 GY        CCN000019800000019800FN00000000020220301000019800NNE   20220219172053    1W    00000030000002561000000000032J1    UKYEL-BL000000000000KG123002
BI00B32J1    @391610        20220314181E48029ZZ              CAVSAS-S 0.5X4 GY        CCN000003600000003600FN00000000020220301000003600NNE   20220219172053    1W    00000020000003995000000000032J1    UKYEL-BL000000000000KG123003
BI00B32J1    @391610        20220314181E48031ZZ              CAVSAS-S 0.3X2 GY        CCN000003500000003500FN00000000020220301000003500NNE   20220219172053    1W    00000035000002008700000000032J1    UKYEL-BL000000000000KG123005
BI00B32J1    @391610        20220314181E48065ZZ              CAVSAS-S 0.5X4 GY/W      CCN000001800000001800FN00000000020220301000001800NNE   20220219172053    1W    00000020000003995000000000032J1    UKYEL-BL000000000000KG123004
BI00B32M3    SM2203B MW     20220310180D0204092              AVSSH 0.75F V            CCN000001000000001000FN00000000020220301000001000NNE   20220219185308    1W    00000100000000934000000000032M3    SASAMI  000000000000QL422002
BI00B32N1    @NST2116E      20220310181D6910239              AVSSHCS 0.5FX2 B/L       CCN000016800000016800FN00000000020220201000016800NNE   20220219141420    1W    00000030000002385000000000032N1    TAYIPL  000000000000XO422001
BI00B32Q8    @EW2204BDMW    20220316181AD2017ZZ              CIVUSAS-S 0.22X3 B       CCN000002580000002580FN00000000020220401000002580NNE   20220219190059    1W    00000043000001678200000000032Q8    EMEMI   000000000000ML123001
BI00B32Q8    EW2204BNMW     2022031618007703791              AVSS 0.3F SB             CCN000066000000066000FN00000000020220401000066000NNE   20220219190100    1W    00000200000000496000000000032Q8    EMEMI   000000000000MO123001
BI00B32Q8    EW2204E MW     2022032318009604443              AVS 5 W/B                CCN000002600000002600FN00000000020220401000002600NNE   20220219190101    1W    00000020000005981000000000032Q8    EMEMI   000000000000MP223004
BI00B32Q8    EW2204E MW     20220323180D0204180              AVSSH 1.25F BR           CCN000014400000014400FN00000000020220401000014400NNE   20220219190101    1W    00000080000001458000000000032Q8    EMEMI   000000000000MP223001
BI00B32Q8    EW2204E MW     20220323180D0204160              AVSSH 1.25F G            CCN000122400000122400FN00000000020220401000122400NNE   20220219190101    1W    00000080000001458000000000032Q8    EMEMI   000000000000MP223002
BI00B32Q8    EW2204E MW     20220323180D0204190              AVSSH 1.25F L            CCN000119200000119200FN00000000020220401000119200NNE   20220219190101    1W    00000080000001458000000000032Q8    EMEMI   000000000000MP223003
BI00B32Q8    EW2204E MW     202203231801R704190              CIVUS 1.25 L             CCN000005000000005000FN00000000020220401000005000NNE   20220219190101    1W    00000100000001228000000000032Q8    EMEMI   000000000000MP223005
BI00B32Q8    EW2204ETMW     2022032318007704192              AVSS 1.25F V             CCN000017600000017600FN00000000020220401000017600NNE   20220219190102    1W    00000080000001389000000000032Q8    EMEMI   000000000000MR223002
BI00B32Q8    EW2204ETMW     202203231801W00395U              IVSSH 0.5F BE            CCN000001800000001800FN00000000020220401000001800NNE   20220219190102    1W    00000180000000625000000000032Q8    EMEMI   000000000000MR223003
BI00B32Q8    EW2204ETMW     202203231801W003980              IVSSH 0.5F BR            CCN000021600000021600FN00000000020220401000021600NNE   20220219190102    1W    00000180000000625000000000032Q8    EMEMI   000000000000MR223004
BI00B32Q8    EW2204ETMW     202203231801W003941              IVSSH 0.5F GY            CCN000001800000001800FN00000000020220401000001800NNE   20220219190102    1W    00000180000000625000000000032Q8    EMEMI   000000000000MR223005
BI00B32Q8    EW22054 MW     2022042018000004590              AV 8 L                   CCN000001700000001700FN00000000020220501000001700NNM   20220219192038    1W    00000010000010466200000000032Q8    EMEMI   000000000000MI124030
BI00B32Q8    EW22051 MW     2022032318009604430              AVS 5 B                  CCN000000800000000800FN00000000020220501000000800NNM   20220219192038    1W    00000020000005981000000000032Q8    EMEMI   000000000000MI223016
BI00B32Q8    EW22052 MW     2022033018009604430              AVS 5 B                  CCN000023200000023200FN00000000020220501000023200NNM   20220219192038    1W    00000020000005981000000000032Q8    EMEMI   000000000000MI323029
BI00B32Q8    EW22053 MW     2022040618009604430              AVS 5 B                  CCN000023200000023200FN00000000020220501000023200NNM   20220219192038    1W    00000020000005981000000000032Q8    EMEMI   000000000000MI423042
BI00B32Q8    EW22054 MW     2022042018009604430              AVS 5 B                  CCN000024000000024000FN00000000020220501000024000NNM   20220219192038    1W    00000020000005981000000000032Q8    EMEMI   000000000000MI124050
BI00B32Q8    EW22051 MW     2022032318009604460              AVS 5 G                  CCN000008600000008600FN00000000020220501000008600NNM   20220219192038    1W    00000020000005981000000000032Q8    EMEMI   000000000000MI223017
BI00B32Q8    EW22052 MW     2022033018009604460              AVS 5 G                  CCN000006800000006800FN00000000020220501000006800NNM   20220219192038    1W    00000020000005981000000000032Q8    EMEMI   000000000000MI323030
BI00B32Q8    EW22053 MW     2022040618009604460              AVS 5 G                  CCN000007000000007000FN00000000020220501000007000NNM   20220219192038    1W    00000020000005981000000000032Q8    EMEMI   000000000000MI423043
BI00B32Q8    EW22054 MW     2022042018009604460              AVS 5 G                  CCN000007600000007600FN00000000020220501000007600NNM   20220219192038    1W    00000020000005981000000000032Q8    EMEMI   000000000000MI124051
BI00B32Q8    EW22051 MW     2022032318009604450              AVS 5 R                  CCN000029200000029200FN00000000020220501000029200NNM   20220219192038    1W    00000020000005981000000000032Q8    EMEMI   000000000000MI223018
BI00B32Q8    EW22052 MW     2022033018009604450              AVS 5 R                  CCN000011200000011200FN00000000020220501000011200NNM   20220219192038    1W    00000020000005981000000000032Q8    EMEMI   000000000000MI323031
BI00B32Q8    EW22053 MW     2022040618009604450              AVS 5 R                  CCN000011200000011200FN00000000020220501000011200NNM   20220219192038    1W    00000020000005981000000000032Q8    EMEMI   000000000000MI423044
BI00B32Q8    EW22054 MW     2022042018009604450              AVS 5 R                  CCN000012000000012000FN00000000020220501000012000NNM   20220219192038    1W    00000020000005981000000000032Q8    EMEMI   000000000000MI124052
BI00B32Q8    EW22054 MW     2022042018009604440              AVS 5 W                  CCN000001600000001600FN00000000020220501000001600NNM   20220219192038    1W    00000020000005981000000000032Q8    EMEMI   000000000000MI124053
BI00B32Q8    EW22052 MW     2022033018009604443              AVS 5 W/B                CCN000007400000007400FN00000000020220501000007400NNM   20220219192038    1W    00000020000005981000000000032Q8    EMEMI   000000000000MI323032
BI00B32Q8    EW22053 MW     2022040618009604443              AVS 5 W/B                CCN000010200000010200FN00000000020220501000010200NNM   20220219192038    1W    00000020000005981000000000032Q8    EMEMI   000000000000MI423045
BI00B32Q8    EW22054 MW     2022042018009604443              AVS 5 W/B                CCN000011000000011000FN00000000020220501000011000NNM   20220219192038    1W    00000020000005981000000000032Q8    EMEMI   000000000000MI124054
BI00B32Q8    EW22051 MW     2022032318007703730              AVSS 0.3F B              CCN000078000000078000FN00000000020220501000078000NNM   20220219192038    1W    00000200000000496000000000032Q8    EMEMI   000000000000MI223011
BI00B32Q8    EW22052 MW     2022033018007703730              AVSS 0.3F B              CCN000104000000104000FN00000000020220501000104000NNM   20220219192038    1W    00000200000000496000000000032Q8    EMEMI   000000000000MI323018
BI00B32Q8    EW22053 MW     2022040618007703730              AVSS 0.3F B              CCN000106000000106000FN00000000020220501000106000NNM   20220219192038    1W    00000200000000496000000000032Q8    EMEMI   000000000000MI423026
BI00B32Q8    EW22054 MW     2022042018007703730              AVSS 0.3F B              CCN000102000000102000FN00000000020220501000102000NNM   20220219192038    1W    00000200000000496000000000032Q8    EMEMI   000000000000MI124031
BI00B32Q8    EW22054 MW     2022042018007703780              AVSS 0.3F BR             CCN000088000000088000FN00000000020220501000088000NNM   20220219192038    1W    00000200000000496000000000032Q8    EMEMI   000000000000MI124032
BI00B32Q8    EW22051 MW     2022032318007703760              AVSS 0.3F G              CCN000056000000056000FN00000000020220501000056000NNM   20220219192038    1W    00000200000000496000000000032Q8    EMEMI   000000000000MI223012
BI00B32Q8    EW22052 MW     2022033018007703760              AVSS 0.3F G              CCN000074000000074000FN00000000020220501000074000NNM   20220219192038    1W    00000200000000496000000000032Q8    EMEMI   000000000000MI323019
BI00B32Q8    EW22053 MW     2022040618007703760              AVSS 0.3F G              CCN000072000000072000FN00000000020220501000072000NNM   20220219192038    1W    00000200000000496000000000032Q8    EMEMI   000000000000MI423027
BI00B32Q8    EW22054 MW     2022042018007703760              AVSS 0.3F G              CCN000076000000076000FN00000000020220501000076000NNM   20220219192038    1W    00000200000000496000000000032Q8    EMEMI   000000000000MI124033
BI00B32Q8    EW22054 MW     2022042018007703741              AVSS 0.3F GY             CCN000050000000050000FN00000000020220501000050000NNM   20220219192038    1W    00000200000000496000000000032Q8    EMEMI   000000000000MI124034
BI00B32Q8    EW22051 MW     2022032318007703790              AVSS 0.3F L              CCN000108000000108000FN00000000020220501000108000NNM   20220219192038    1W    00000200000000496000000000032Q8    EMEMI   000000000000MI223013
BI00B32Q8    EW22052 MW     2022033018007703790              AVSS 0.3F L              CCN000112000000112000FN00000000020220501000112000NNM   20220219192038    1W    00000200000000496000000000032Q8    EMEMI   000000000000MI323020
BI00B32Q8    EW22053 MW     2022040618007703790              AVSS 0.3F L              CCN000110000000110000FN00000000020220501000110000NNM   20220219192038    1W    00000200000000496000000000032Q8    EMEMI   000000000000MI423028
BI00B32Q8    EW22054 MW     2022042018007703790              AVSS 0.3F L              CCN000116000000116000FN00000000020220501000116000NNM   20220219192038    1W    00000200000000496000000000032Q8    EMEMI   000000000000MI124035
BI00B32Q8    EW22052 MW     2022033018007703752              AVSS 0.3F P              CCN000024000000024000FN00000000020220501000024000NNM   20220219192038    1W    00000200000000496000000000032Q8    EMEMI   000000000000MI323021
BI00B32Q8    EW22053 MW     2022040618007703752              AVSS 0.3F P              CCN000056000000056000FN00000000020220501000056000NNM   20220219192038    1W    00000200000000496000000000032Q8    EMEMI   000000000000MI423029
BI00B32Q8    EW22054 MW     2022042018007703752              AVSS 0.3F P              CCN000054000000054000FN00000000020220501000054000NNM   20220219192038    1W    00000200000000496000000000032Q8    EMEMI   000000000000MI124036
BI00B32Q8    EW22052 MW     2022033018007703750              AVSS 0.3F R              CCN000030000000030000FN00000000020220501000030000NNM   20220219192038    1W    00000200000000496000000000032Q8    EMEMI   000000000000MI323022
BI00B32Q8    EW22053 MW     2022040618007703750              AVSS 0.3F R              CCN000074000000074000FN00000000020220501000074000NNM   20220219192038    1W    00000200000000496000000000032Q8    EMEMI   000000000000MI423030
BI00B32Q8    EW22054 MW     2022042018007703750              AVSS 0.3F R              CCN000080000000080000FN00000000020220501000080000NNM   20220219192038    1W    00000200000000496000000000032Q8    EMEMI   000000000000MI124037
BI00B32Q8    EW22052 MW     2022033018007703792              AVSS 0.3F V              CCN000140000000140000FN00000000020220501000140000NNM   20220219192038    1W    00000200000000496000000000032Q8    EMEMI   000000000000MI323023
BI00B32Q8    EW22053 MW     2022040618007703792              AVSS 0.3F V              CCN000154000000154000FN00000000020220501000154000NNM   20220219192038    1W    00000200000000496000000000032Q8    EMEMI   000000000000MI423031
BI00B32Q8    EW22054 MW     2022042018007703792              AVSS 0.3F V              CCN000154000000154000FN00000000020220501000154000NNM   20220219192038    1W    00000200000000496000000000032Q8    EMEMI   000000000000MI124038
BI00B32Q8    EW22053 MW     2022040618007703740              AVSS 0.3F W              CCN000016000000016000FN00000000020220501000016000NNM   20220219192038    1W    00000200000000496000000000032Q8    EMEMI   000000000000MI423032
BI00B32Q8    EW22054 MW     2022042018007703740              AVSS 0.3F W              CCN000064000000064000FN00000000020220501000064000NNM   20220219192038    1W    00000200000000496000000000032Q8    EMEMI   000000000000MI124039
BI00B32Q8    EW22054 MW     2022042018007703770              AVSS 0.3F Y              CCN000082000000082000FN00000000020220501000082000NNM   20220219192038    1W    00000200000000496000000000032Q8    EMEMI   000000000000MI124040
BI00B32Q8    EW22051 MW     2022032318007703930              AVSS 0.5F B              CCN000016500000016500FN00000000020220501000016500NNM   20220219192038    1W    00000150000000674000000000032Q8    EMEMI   000000000000MI223014
BI00B32Q8    EW22052 MW     2022033018007703930              AVSS 0.5F B              CCN000019500000019500FN00000000020220501000019500NNM   20220219192038    1W    00000150000000674000000000032Q8    EMEMI   000000000000MI323024
BI00B32Q8    EW22053 MW     2022040618007703930              AVSS 0.5F B              CCN000019500000019500FN00000000020220501000019500NNM   20220219192038    1W    00000150000000674000000000032Q8    EMEMI   000000000000MI423033
BI00B32Q8    EW22054 MW     2022042018007703930              AVSS 0.5F B              CCN000018000000018000FN00000000020220501000018000NNM   20220219192038    1W    00000150000000674000000000032Q8    EMEMI   000000000000MI124041
BI00B32Q8    EW22052 MW     2022033018007703941              AVSS 0.5F GY             CCN000018000000018000FN00000000020220501000018000NNM   20220219192038    1W    00000150000000674000000000032Q8    EMEMI   000000000000MI323025
BI00B32Q8    EW22053 MW     2022040618007703941              AVSS 0.5F GY             CCN000037500000037500FN00000000020220501000037500NNM   20220219192038    1W    00000150000000674000000000032Q8    EMEMI   000000000000MI423034
BI00B32Q8    EW22054 MW     2022042018007703941              AVSS 0.5F GY             CCN000034500000034500FN00000000020220501000034500NNM   20220219192038    1W    00000150000000674000000000032Q8    EMEMI   000000000000MI124042
BI00B32Q8    EW22053 MW     2022040618007703990              AVSS 0.5F L              CCN000016500000016500FN00000000020220501000016500NNM   20220219192038    1W    00000150000000674000000000032Q8    EMEMI   000000000000MI423035
BI00B32Q8    EW22054 MW     2022042018007703990              AVSS 0.5F L              CCN000018000000018000FN00000000020220501000018000NNM   20220219192038    1W    00000150000000674000000000032Q8    EMEMI   000000000000MI124043
BI00B32Q8    EW22053 MW     2022040618007704180              AVSS 1.25F BR            CCN000027200000027200FN00000000020220501000027200NNM   20220219192038    1W    00000080000001389000000000032Q8    EMEMI   000000000000MI423036
BI00B32Q8    EW22054 MW     2022042018007704180              AVSS 1.25F BR            CCN000031200000031200FN00000000020220501000031200NNM   20220219192038    1W    00000080000001389000000000032Q8    EMEMI   000000000000MI124044
BI00B32Q8    EW22051 MW     2022032318007704160              AVSS 1.25F G             CCN000025600000025600FN00000000020220501000025600NNM   20220219192038    1W    00000080000001389000000000032Q8    EMEMI   000000000000MI223015
BI00B32Q8    EW22052 MW     2022033018007704160              AVSS 1.25F G             CCN000036000000036000FN00000000020220501000036000NNM   20220219192038    1W    00000080000001389000000000032Q8    EMEMI   000000000000MI323026
BI00B32Q8    EW22053 MW     2022040618007704160              AVSS 1.25F G             CCN000035200000035200FN00000000020220501000035200NNM   20220219192038    1W    00000080000001389000000000032Q8    EMEMI   000000000000MI423037
BI00B32Q8    EW22054 MW     2022042018007704160              AVSS 1.25F G             CCN000031200000031200FN00000000020220501000031200NNM   20220219192038    1W    00000080000001389000000000032Q8    EMEMI   000000000000MI124045
BI00B32Q8    EW22053 MW     2022040618007704190              AVSS 1.25F L             CCN000018400000018400FN00000000020220501000018400NNM   20220219192038    1W    00000080000001389000000000032Q8    EMEMI   000000000000MI423038
BI00B32Q8    EW22054 MW     2022042018007704190              AVSS 1.25F L             CCN000031200000031200FN00000000020220501000031200NNM   20220219192038    1W    00000080000001389000000000032Q8    EMEMI   000000000000MI124046
BI00B32Q8    EW22053 MW     2022040618007704152              AVSS 1.25F P             CCN000020800000020800FN00000000020220501000020800NNM   20220219192038    1W    00000080000001389000000000032Q8    EMEMI   000000000000MI423039
BI00B32Q8    EW22054 MW     2022042018007704152              AVSS 1.25F P             CCN000032000000032000FN00000000020220501000032000NNM   20220219192038    1W    00000080000001389000000000032Q8    EMEMI   000000000000MI124047
BI00B32Q8    EW22052 MW     2022033018007704150              AVSS 1.25F R             CCN000032800000032800FN00000000020220501000032800NNM   20220219192038    1W    00000080000001389000000000032Q8    EMEMI   000000000000MI323027
BI00B32Q8    EW22053 MW     2022040618007704150              AVSS 1.25F R             CCN000035200000035200FN00000000020220501000035200NNM   20220219192038    1W    00000080000001389000000000032Q8    EMEMI   000000000000MI423040
BI00B32Q8    EW22054 MW     2022042018007704150              AVSS 1.25F R             CCN000032000000032000FN00000000020220501000032000NNM   20220219192038    1W    00000080000001389000000000032Q8    EMEMI   000000000000MI124048
BI00B32Q8    EW22052 MW     2022033018007704140              AVSS 1.25F W             CCN000047200000047200FN00000000020220501000047200NNM   20220219192038    1W    00000080000001389000000000032Q8    EMEMI   000000000000MI323028
BI00B32Q8    EW22053 MW     2022040618007704140              AVSS 1.25F W             CCN000070400000070400FN00000000020220501000070400NNM   20220219192038    1W    00000080000001389000000000032Q8    EMEMI   000000000000MI423041
BI00B32Q8    EW22054 MW     2022042018007704140              AVSS 1.25F W             CCN000062400000062400FN00000000020220501000062400NNM   20220219192038    1W    00000080000001389000000000032Q8    EMEMI   000000000000MI124049
BI00B32Q8    EW22051 MW     20220323180D0203790              AVSSH 0.3F L             CCN000004000000004000FN00000000020220501000004000NNM   20220219192038    1W    00000200000000515000000000032Q8    EMEMI   000000000000MI223005
BI00B32Q8    EW22052 MW     20220330180D0203790              AVSSH 0.3F L             CCN000004000000004000FN00000000020220501000004000NNM   20220219192038    1W    00000200000000515000000000032Q8    EMEMI   000000000000MI323007
BI00B32Q8    EW22053 MW     20220406180D0203790              AVSSH 0.3F L             CCN000004000000004000FN00000000020220501000004000NNM   20220219192038    1W    00000200000000515000000000032Q8    EMEMI   000000000000MI423009
BI00B32Q8    EW22054 MW     20220420180D0203790              AVSSH 0.3F L             CCN000004000000004000FN00000000020220501000004000NNM   20220219192038    1W    00000200000000515000000000032Q8    EMEMI   000000000000MI124011
BI00B32Q8    EW22053 MW     20220406180D0203752              AVSSH 0.3F P             CCN000002000000002000FN00000000020220501000002000NNM   20220219192038    1W    00000200000000515000000000032Q8    EMEMI   000000000000MI423010
BI00B32Q8    EW22054 MW     20220420180D0203752              AVSSH 0.3F P             CCN000004000000004000FN00000000020220501000004000NNM   20220219192038    1W    00000200000000515000000000032Q8    EMEMI   000000000000MI124012
BI00B32Q8    EW22053 MW     20220406180D0203740              AVSSH 0.3F W             CCN000038000000038000FN00000000020220501000038000NNM   20220219192038    1W    00000200000000515000000000032Q8    EMEMI   000000000000MI423011
BI00B32Q8    EW22054 MW     20220420180D0203740              AVSSH 0.3F W             CCN000076000000076000FN00000000020220501000076000NNM   20220219192038    1W    00000200000000515000000000032Q8    EMEMI   000000000000MI124013
BI00B32Q8    EW22051 MW     20220323180D0203937              AVSSH 0.5F B/Y           CCN000001500000001500FN00000000020220501000001500NNM   20220219192038    1W    00000150000000689000000000032Q8    EMEMI   000000000000MI223006
BI00B32Q8    EW22052 MW     20220330180D0203937              AVSSH 0.5F B/Y           CCN000003000000003000FN00000000020220501000003000NNM   20220219192038    1W    00000150000000689000000000032Q8    EMEMI   000000000000MI323008
BI00B32Q8    EW22053 MW     20220406180D0203937              AVSSH 0.5F B/Y           CCN000001500000001500FN00000000020220501000001500NNM   20220219192038    1W    00000150000000689000000000032Q8    EMEMI   000000000000MI423012
BI00B32Q8    EW22054 MW     20220420180D0203937              AVSSH 0.5F B/Y           CCN000003000000003000FN00000000020220501000003000NNM   20220219192038    1W    00000150000000689000000000032Q8    EMEMI   000000000000MI124014
BI00B32Q8    EW22052 MW     20220330180D0203980              AVSSH 0.5F BR            CCN000007500000007500FN00000000020220501000007500NNM   20220219192038    1W    00000150000000689000000000032Q8    EMEMI   000000000000MI323009
BI00B32Q8    EW22053 MW     20220406180D0203980              AVSSH 0.5F BR            CCN000022500000022500FN00000000020220501000022500NNM   20220219192038    1W    00000150000000689000000000032Q8    EMEMI   000000000000MI423013
BI00B32Q8    EW22054 MW     20220420180D0203980              AVSSH 0.5F BR            CCN000021000000021000FN00000000020220501000021000NNM   20220219192038    1W    00000150000000689000000000032Q8    EMEMI   000000000000MI124015
BI00B32Q8    EW22053 MW     20220406180D0203960              AVSSH 0.5F G             CCN000001500000001500FN00000000020220501000001500NNM   20220219192038    1W    00000150000000689000000000032Q8    EMEMI   000000000000MI423014
BI00B32Q8    EW22054 MW     20220420180D0203960              AVSSH 0.5F G             CCN000001500000001500FN00000000020220501000001500NNM   20220219192038    1W    00000150000000689000000000032Q8    EMEMI   000000000000MI124016
BI00B32Q8    EW22051 MW     20220323180D0203952              AVSSH 0.5F P             CCN000001500000001500FN00000000020220501000001500NNM   20220219192038    1W    00000150000000689000000000032Q8    EMEMI   000000000000MI223007
BI00B32Q8    EW22052 MW     20220330180D0203952              AVSSH 0.5F P             CCN000015000000015000FN00000000020220501000015000NNM   20220219192038    1W    00000150000000689000000000032Q8    EMEMI   000000000000MI323010
BI00B32Q8    EW22053 MW     20220406180D0203952              AVSSH 0.5F P             CCN000015000000015000FN00000000020220501000015000NNM   20220219192038    1W    00000150000000689000000000032Q8    EMEMI   000000000000MI423015
BI00B32Q8    EW22054 MW     20220420180D0203952              AVSSH 0.5F P             CCN000015000000015000FN00000000020220501000015000NNM   20220219192038    1W    00000150000000689000000000032Q8    EMEMI   000000000000MI124017
BI00B32Q8    EW22054 MW     20220420180D0203950              AVSSH 0.5F R             CCN000016500000016500FN00000000020220501000016500NNM   20220219192038    1W    00000150000000689000000000032Q8    EMEMI   000000000000MI124018
BI00B32Q8    EW22052 MW     20220330180D0203992              AVSSH 0.5F V             CCN000004500000004500FN00000000020220501000004500NNM   20220219192038    1W    00000150000000689000000000032Q8    EMEMI   000000000000MI323011
BI00B32Q8    EW22053 MW     20220406180D0203992              AVSSH 0.5F V             CCN000019500000019500FN00000000020220501000019500NNM   20220219192038    1W    00000150000000689000000000032Q8    EMEMI   000000000000MI423016
BI00B32Q8    EW22054 MW     20220420180D0203992              AVSSH 0.5F V             CCN000019500000019500FN00000000020220501000019500NNM   20220219192038    1W    00000150000000689000000000032Q8    EMEMI   000000000000MI124019
BI00B32Q8    EW22052 MW     20220330180D0203940              AVSSH 0.5F W             CCN000010500000010500FN00000000020220501000010500NNM   20220219192038    1W    00000150000000689000000000032Q8    EMEMI   000000000000MI323012
BI00B32Q8    EW22053 MW     20220406180D0203940              AVSSH 0.5F W             CCN000025500000025500FN00000000020220501000025500NNM   20220219192038    1W    00000150000000689000000000032Q8    EMEMI   000000000000MI423017
BI00B32Q8    EW22054 MW     20220420180D0203940              AVSSH 0.5F W             CCN000028500000028500FN00000000020220501000028500NNM   20220219192038    1W    00000150000000689000000000032Q8    EMEMI   000000000000MI124020
BI00B32Q8    EW22052 MW     20220330180D0203943              AVSSH 0.5F W/B           CCN000007500000007500FN00000000020220501000007500NNM   20220219192038    1W    00000150000000689000000000032Q8    EMEMI   000000000000MI323013
BI00B32Q8    EW22053 MW     20220406180D0203943              AVSSH 0.5F W/B           CCN000027000000027000FN00000000020220501000027000NNM   20220219192038    1W    00000150000000689000000000032Q8    EMEMI   000000000000MI423018
BI00B32Q8    EW22054 MW     20220420180D0203943              AVSSH 0.5F W/B           CCN000027000000027000FN00000000020220501000027000NNM   20220219192038    1W    00000150000000689000000000032Q8    EMEMI   000000000000MI124021
BI00B32Q8    EW22054 MW     20220420180D0203970              AVSSH 0.5F Y             CCN000003000000003000FN00000000020220501000003000NNM   20220219192038    1W    00000150000000689000000000032Q8    EMEMI   000000000000MI124022
BI00B32Q8    EW22051 MW     20220323180D0204130              AVSSH 1.25F B            CCN000005600000005600FN00000000020220501000005600NNM   20220219192038    1W    00000080000001458000000000032Q8    EMEMI   000000000000MI223008
BI00B32Q8    EW22052 MW     20220330180D0204130              AVSSH 1.25F B            CCN000032000000032000FN00000000020220501000032000NNM   20220219192038    1W    00000080000001458000000000032Q8    EMEMI   000000000000MI323014
BI00B32Q8    EW22053 MW     20220406180D0204130              AVSSH 1.25F B            CCN000032800000032800FN00000000020220501000032800NNM   20220219192038    1W    00000080000001458000000000032Q8    EMEMI   000000000000MI423019
BI00B32Q8    EW22054 MW     20220420180D0204130              AVSSH 1.25F B            CCN000032800000032800FN00000000020220501000032800NNM   20220219192038    1W    00000080000001458000000000032Q8    EMEMI   000000000000MI124023
BI00B32Q8    EW22053 MW     20220406180D0204180              AVSSH 1.25F BR           CCN000004000000004000FN00000000020220501000004000NNM   20220219192038    1W    00000080000001458000000000032Q8    EMEMI   000000000000MI423020
BI00B32Q8    EW22054 MW     20220420180D0204180              AVSSH 1.25F BR           CCN000008800000008800FN00000000020220501000008800NNM   20220219192038    1W    00000080000001458000000000032Q8    EMEMI   000000000000MI124024
BI00B32Q8    EW22052 MW     20220330180D0204160              AVSSH 1.25F G            CCN000059200000059200FN00000000020220501000059200NNM   20220219192038    1W    00000080000001458000000000032Q8    EMEMI   000000000000MI323015
BI00B32Q8    EW22053 MW     20220406180D0204160              AVSSH 1.25F G            CCN000099200000099200FN00000000020220501000099200NNM   20220219192038    1W    00000080000001458000000000032Q8    EMEMI   000000000000MI423021
BI00B32Q8    EW22054 MW     20220420180D0204160              AVSSH 1.25F G            CCN000093600000093600FN00000000020220501000093600NNM   20220219192038    1W    00000080000001458000000000032Q8    EMEMI   000000000000MI124025
BI00B32Q8    EW22053 MW     20220406180D0204190              AVSSH 1.25F L            CCN000045600000045600FN00000000020220501000045600NNM   20220219192038    1W    00000080000001458000000000032Q8    EMEMI   000000000000MI423022
BI00B32Q8    EW22054 MW     20220420180D0204190              AVSSH 1.25F L            CCN000056800000056800FN00000000020220501000056800NNM   20220219192038    1W    00000080000001458000000000032Q8    EMEMI   000000000000MI124026
BI00B32Q8    EW22053 MW     20220406180D0204150              AVSSH 1.25F R            CCN000060800000060800FN00000000020220501000060800NNM   20220219192038    1W    00000080000001458000000000032Q8    EMEMI   000000000000MI423023
BI00B32Q8    EW22054 MW     20220420180D0204150              AVSSH 1.25F R            CCN000060000000060000FN00000000020220501000060000NNM   20220219192038    1W    00000080000001458000000000032Q8    EMEMI   000000000000MI124027
BI00B32Q8    EW22051 MW     20220323180D0204140              AVSSH 1.25F W            CCN000025600000025600FN00000000020220501000025600NNM   20220219192038    1W    00000080000001458000000000032Q8    EMEMI   000000000000MI223009
BI00B32Q8    EW22052 MW     20220330180D0204140              AVSSH 1.25F W            CCN000031200000031200FN00000000020220501000031200NNM   20220219192038    1W    00000080000001458000000000032Q8    EMEMI   000000000000MI323016
BI00B32Q8    EW22053 MW     20220406180D0204140              AVSSH 1.25F W            CCN000032000000032000FN00000000020220501000032000NNM   20220219192038    1W    00000080000001458000000000032Q8    EMEMI   000000000000MI423024
BI00B32Q8    EW22054 MW     20220420180D0204140              AVSSH 1.25F W            CCN000030400000030400FN00000000020220501000030400NNM   20220219192038    1W    00000080000001458000000000032Q8    EMEMI   000000000000MI124028
BI00B32Q8    EW22051 MW     20220323180D0204170              AVSSH 1.25F Y            CCN000001600000001600FN00000000020220501000001600NNM   20220219192038    1W    00000080000001458000000000032Q8    EMEMI   000000000000MI223010
BI00B32Q8    EW22052 MW     20220330180D0204170              AVSSH 1.25F Y            CCN000004800000004800FN00000000020220501000004800NNM   20220219192038    1W    00000080000001458000000000032Q8    EMEMI   000000000000MI323017
BI00B32Q8    EW22053 MW     20220406180D0204170              AVSSH 1.25F Y            CCN000004800000004800FN00000000020220501000004800NNM   20220219192038    1W    00000080000001458000000000032Q8    EMEMI   000000000000MI423025
BI00B32Q8    EW22054 MW     20220420180D0204170              AVSSH 1.25F Y            CCN000004000000004000FN00000000020220501000004000NNM   20220219192038    1W    00000080000001458000000000032Q8    EMEMI   000000000000MI124029
BI00B32Q8    EW22054 MW     202204201801R704180              CIVUS 1.25 BR            CCN000021000000021000FN00000000020220501000021000NNM   20220219192038    1W    00000100000001228000000000032Q8    EMEMI   000000000000MI124055
BI00B32Q8    EW22054 MW     202204201801R704190              CIVUS 1.25 L             CCN000012000000012000FN00000000020220501000012000NNM   20220219192038    1W    00000100000001228000000000032Q8    EMEMI   000000000000MI124056
BI00B32Q8    EW22051 MW     202203231801R704161              CIVUS 1.25 LG            CCN000006000000006000FN00000000020220501000006000NNM   20220219192038    1W    00000100000001228000000000032Q8    EMEMI   000000000000MI223019
BI00B32Q8    EW22052 MW     202203301801R704161              CIVUS 1.25 LG            CCN000013000000013000FN00000000020220501000013000NNM   20220219192038    1W    00000100000001228000000000032Q8    EMEMI   000000000000MI323033
BI00B32Q8    EW22053 MW     202204061801R704161              CIVUS 1.25 LG            CCN000014000000014000FN00000000020220501000014000NNM   20220219192038    1W    00000100000001228000000000032Q8    EMEMI   000000000000MI423046
BI00B32Q8    EW22054 MW     202204201801R704161              CIVUS 1.25 LG            CCN000015000000015000FN00000000020220501000015000NNM   20220219192038    1W    00000100000001228000000000032Q8    EMEMI   000000000000MI124057
BI00B32Q8    EW22054 MW     202204201801R704150              CIVUS 1.25 R             CCN000037000000037000FN00000000020220501000037000NNM   20220219192038    1W    00000100000001228000000000032Q8    EMEMI   000000000000MI124058
BI00B32Q8    EW22053 MW     202204061801R704192              CIVUS 1.25 V             CCN000008000000008000FN00000000020220501000008000NNM   20220219192038    1W    00000100000001228000000000032Q8    EMEMI   000000000000MI423047
BI00B32Q8    EW22054 MW     202204201801R704192              CIVUS 1.25 V             CCN000021000000021000FN00000000020220501000021000NNM   20220219192038    1W    00000100000001228000000000032Q8    EMEMI   000000000000MI124059
BI00B32Q8    EW22053 MW     202204061801R704170              CIVUS 1.25 Y             CCN000020000000020000FN00000000020220501000020000NNM   20220219192038    1W    00000100000001228000000000032Q8    EMEMI   000000000000MI423048
BI00B32Q8    EW22054 MW     202204201801R704170              CIVUS 1.25 Y             CCN000035000000035000FN00000000020220501000035000NNM   20220219192038    1W    00000100000001228000000000032Q8    EMEMI   000000000000MI124060
BI00B32Q8    @EW22054 MW    20220420181D6903930              AVSSHCS 0.5FX1 B         CCN000001200000001200FN00000000020220501000001200NNM   20220219192030    1W    00000040000002285000000000032Q8    EMEMI   000000000000MI124001
BI00B32Q8    @EW22051 MW    20220323181D6910235              AVSSHCS 0.5FX2 B/R       CCN000001800000001800FN00000000020220501000001800NNM   20220219192030    1W    00000030000002385000000000032Q8    EMEMI   000000000000MI223001
BI00B32Q8    @EW22052 MW    20220330181D6910235              AVSSHCS 0.5FX2 B/R       CCN000001500000001500FN00000000020220501000001500NNM   20220219192030    1W    00000030000002385000000000032Q8    EMEMI   000000000000MI323001
BI00B32Q8    @EW22053 MW    20220406181D6910235              AVSSHCS 0.5FX2 B/R       CCN000001500000001500FN00000000020220501000001500NNM   20220219192030    1W    00000030000002385000000000032Q8    EMEMI   000000000000MI423001
BI00B32Q8    @EW22054 MW    20220420181D6910235              AVSSHCS 0.5FX2 B/R       CCN000002100000002100FN00000000020220501000002100NNM   20220219192030    1W    00000030000002385000000000032Q8    EMEMI   000000000000MI124002
BI00B32Q8    @EW22054 MW    20220420181D6910237              AVSSHCS 0.5FX2 B/Y       CCN000000600000000600FN00000000020220501000000600NNM   20220219192030    1W    00000030000002385000000000032Q8    EMEMI   000000000000MI124003
BI00B32Q8    @EW22052 MW    20220330181F21009ZZ              AVSSHCS-S 0.5FX2 B       CCN000006000000006000FN00000000020220501000006000NNM   20220219192030    1W    00000030000002531400000000032Q8    EMEMI   000000000000MI323006
BI00B32Q8    @EW22053 MW    20220406181F21009ZZ              AVSSHCS-S 0.5FX2 B       CCN000006000000006000FN00000000020220501000006000NNM   20220219192030    1W    00000030000002531400000000032Q8    EMEMI   000000000000MI423008
BI00B32Q8    @EW22054 MW    20220420181F21009ZZ              AVSSHCS-S 0.5FX2 B       CCN000006000000006000FN00000000020220501000006000NNM   20220219192030    1W    00000030000002531400000000032Q8    EMEMI   000000000000MI124010
BI00B32Q8    @EW22053 MW    20220406181E48013ZZ              CAVSAS-S 0.3X3 GY        CCN000000750000000750FN00000000020220501000000750NNM   20220219192030    1W    00000025000002778200000000032Q8    EMEMI   000000000000MI423007
BI00B32Q8    @EW22054 MW    20220420181E48013ZZ              CAVSAS-S 0.3X3 GY        CCN000003250000003250FN00000000020220501000003250NNM   20220219192030    1W    00000025000002778200000000032Q8    EMEMI   000000000000MI124009
BI00B32Q8    @EW22051 MW    20220323181E48018ZZ              CAVSAS-S 0.5X2 GY/SB     CCN000002400000002400FN00000000020220501000002400NNM   20220219192030    1W    00000030000002561000000000032Q8    EMEMI   000000000000MI223003
BI00B32Q8    @EW22052 MW    20220330181E48018ZZ              CAVSAS-S 0.5X2 GY/SB     CCN000003000000003000FN00000000020220501000003000NNM   20220219192030    1W    00000030000002561000000000032Q8    EMEMI   000000000000MI323004
BI00B32Q8    @EW22053 MW    20220406181E48018ZZ              CAVSAS-S 0.5X2 GY/SB     CCN000003000000003000FN00000000020220501000003000NNM   20220219192030    1W    00000030000002561000000000032Q8    EMEMI   000000000000MI423004
BI00B32Q8    @EW22054 MW    20220420181E48018ZZ              CAVSAS-S 0.5X2 GY/SB     CCN000002700000002700FN00000000020220501000002700NNM   20220219192030    1W    00000030000002561000000000032Q8    EMEMI   000000000000MI124006
BI00B32Q8    @EW22052 MW    20220330181E48022ZZ              CAVSAS-S 0.5X2 GY        CCN000003000000003000FN00000000020220501000003000NNM   20220219192030    1W    00000030000002561000000000032Q8    EMEMI   000000000000MI323002
BI00B32Q8    @EW22053 MW    20220406181E48022ZZ              CAVSAS-S 0.5X2 GY        CCN000003900000003900FN00000000020220501000003900NNM   20220219192030    1W    00000030000002561000000000032Q8    EMEMI   000000000000MI423002
BI00B32Q8    @EW22054 MW    20220420181E48022ZZ              CAVSAS-S 0.5X2 GY        CCN000003900000003900FN00000000020220501000003900NNM   20220219192030    1W    00000030000002561000000000032Q8    EMEMI   000000000000MI124004
BI00B32Q8    @EW22051 MW    20220323181E48027ZZ              CAVSAS-S 0.5X2 GY/P      CCN000003000000003000FN00000000020220501000003000NNM   20220219192030    1W    00000030000002561000000000032Q8    EMEMI   000000000000MI223002
BI00B32Q8    @EW22052 MW    20220330181E48027ZZ              CAVSAS-S 0.5X2 GY/P      CCN000003000000003000FN00000000020220501000003000NNM   20220219192030    1W    00000030000002561000000000032Q8    EMEMI   000000000000MI323003
BI00B32Q8    @EW22053 MW    20220406181E48027ZZ              CAVSAS-S 0.5X2 GY/P      CCN000003000000003000FN00000000020220501000003000NNM   20220219192030    1W    00000030000002561000000000032Q8    EMEMI   000000000000MI423003
BI00B32Q8    @EW22054 MW    20220420181E48027ZZ              CAVSAS-S 0.5X2 GY/P      CCN000002700000002700FN00000000020220501000002700NNM   20220219192030    1W    00000030000002561000000000032Q8    EMEMI   000000000000MI124005
BI00B32Q8    @EW22053 MW    20220406181E48029ZZ              CAVSAS-S 0.5X4 GY        CCN000000600000000600FN00000000020220501000000600NNM   20220219192030    1W    00000020000003995000000000032Q8    EMEMI   000000000000MI423005
BI00B32Q8    @EW22054 MW    20220420181E48029ZZ              CAVSAS-S 0.5X4 GY        CCN000000600000000600FN00000000020220501000000600NNM   20220219192030    1W    00000020000003995000000000032Q8    EMEMI   000000000000MI124007
BI00B32Q8    @EW22051 MW    20220323181E48041ZZ              CAVSAS-S 0.3X2 GY/R      CCN000002100000002100FN00000000020220501000002100NNM   20220219192030    1W    00000035000002008700000000032Q8    EMEMI   000000000000MI223004
BI00B32Q8    @EW22052 MW    20220330181E48041ZZ              CAVSAS-S 0.3X2 GY/R      CCN000003500000003500FN00000000020220501000003500NNM   20220219192030    1W    00000035000002008700000000032Q8    EMEMI   000000000000MI323005
BI00B32Q8    @EW22053 MW    20220406181E48041ZZ              CAVSAS-S 0.3X2 GY/R      CCN000003150000003150FN00000000020220501000003150NNM   20220219192030    1W    00000035000002008700000000032Q8    EMEMI   000000000000MI423006
BI00B32Q8    @EW22054 MW    20220420181E48041ZZ              CAVSAS-S 0.3X2 GY/R      CCN000003500000003500FN00000000020220501000003500NNM   20220219192030    1W    00000035000002008700000000032Q8    EMEMI   000000000000MI124008
BI00B32Q8    @EW22053DMW    20220406181B32116Y9              AVSSCS 0.3FX2 DGY/P      CCN000001400000001400FN00000000020220501000001400NNM   20220219192033    1W    00000035000002276000000000032Q8    EMEMI   000000000000MD423002
BI00B32Q8    @EW22054DMW    20220420181B32116Y9              AVSSCS 0.3FX2 DGY/P      CCN000002100000002100FN00000000020220501000002100NNM   20220219192033    1W    00000035000002276000000000032Q8    EMEMI   000000000000MD124002
BI00B32Q8    @EW22052DMW    20220330181AD2017ZZ              CIVUSAS-S 0.22X3 B       CCN000002580000002580FN00000000020220501000002580NNM   20220219192033    1W    00000043000001678200000000032Q8    EMEMI   000000000000MD323001
BI00B32Q8    @EW22053DMW    20220406181AD2017ZZ              CIVUSAS-S 0.22X3 B       CCN000003010000003010FN00000000020220501000003010NNM   20220219192033    1W    00000043000001678200000000032Q8    EMEMI   000000000000MD423001
BI00B32Q8    @EW22054DMW    20220420181AD2017ZZ              CIVUSAS-S 0.22X3 B       CCN000002580000002580FN00000000020220501000002580NNM   20220219192033    1W    00000043000001678200000000032Q8    EMEMI   000000000000MD124001
BI00B32Q8    EW22052NMW     2022033018007703791              AVSS 0.3F SB             CCN000062000000062000FN00000000020220501000062000NNM   20220219192041    1W    00000200000000496000000000032Q8    EMEMI   000000000000MN323001
BI00B32Q8    EW22053NMW     2022040618007703791              AVSS 0.3F SB             CCN000084000000084000FN00000000020220501000084000NNM   20220219192041    1W    00000200000000496000000000032Q8    EMEMI   000000000000MN423002
BI00B32Q8    EW22054NMW     2022042018007703791              AVSS 0.3F SB             CCN000088000000088000FN00000000020220501000088000NNM   20220219192041    1W    00000200000000496000000000032Q8    EMEMI   000000000000MN124001
BI00B32Q8    @EW22053NMW    20220406181E48025ZZ              CAVSAS-S 0.5X2 GY/G      CCN000000300000000300FN00000000020220501000000300NNM   20220219192035    1W    00000030000002561000000000032Q8    EMEMI   000000000000MN423001
BI00B32Q8    EW22051TMW     2022032318007704192              AVSS 1.25F V             CCN000010400000010400FN00000000020220501000010400NNM   20220219192043    1W    00000080000001389000000000032Q8    EMEMI   000000000000MT223005
BI00B32Q8    EW22052TMW     2022033018007704192              AVSS 1.25F V             CCN000035200000035200FN00000000020220501000035200NNM   20220219192043    1W    00000080000001389000000000032Q8    EMEMI   000000000000MT323008
BI00B32Q8    EW22053TMW     2022040618007704192              AVSS 1.25F V             CCN000035200000035200FN00000000020220501000035200NNM   20220219192043    1W    00000080000001389000000000032Q8    EMEMI   000000000000MT423013
BI00B32Q8    EW22054TMW     2022042018007704192              AVSS 1.25F V             CCN000032000000032000FN00000000020220501000032000NNM   20220219192043    1W    00000080000001389000000000032Q8    EMEMI   000000000000MT124015
BI00B32Q8    EW22053TMW     20220406180D0203760              AVSSH 0.3F G             CCN000006000000006000FN00000000020220501000006000NNM   20220219192043    1W    00000200000000515000000000032Q8    EMEMI   000000000000MT423008
BI00B32Q8    EW22054TMW     20220420180D0203760              AVSSH 0.3F G             CCN000064000000064000FN00000000020220501000064000NNM   20220219192043    1W    00000200000000515000000000032Q8    EMEMI   000000000000MT124010
BI00B32Q8    EW22053TMW     20220406180D0203750              AVSSH 0.3F R             CCN000004000000004000FN00000000020220501000004000NNM   20220219192043    1W    00000200000000515000000000032Q8    EMEMI   000000000000MT423009
BI00B32Q8    EW22054TMW     20220420180D0203750              AVSSH 0.3F R             CCN000002000000002000FN00000000020220501000002000NNM   20220219192043    1W    00000200000000515000000000032Q8    EMEMI   000000000000MT124011
BI00B32Q8    EW22051TMW     20220323180D0204043              AVSSH 0.75F W/B          CCN000007000000007000FN00000000020220501000007000NNM   20220219192043    1W    00000100000000934000000000032Q8    EMEMI   000000000000MT223004
BI00B32Q8    EW22052TMW     20220330180D0204043              AVSSH 0.75F W/B          CCN000010000000010000FN00000000020220501000010000NNM   20220219192043    1W    00000100000000934000000000032Q8    EMEMI   000000000000MT323005
BI00B32Q8    EW22053TMW     20220406180D0204043              AVSSH 0.75F W/B          CCN000009000000009000FN00000000020220501000009000NNM   20220219192043    1W    00000100000000934000000000032Q8    EMEMI   000000000000MT423010
BI00B32Q8    EW22054TMW     20220420180D0204043              AVSSH 0.75F W/B          CCN000010000000010000FN00000000020220501000010000NNM   20220219192043    1W    00000100000000934000000000032Q8    EMEMI   000000000000MT124012
BI00B32Q8    EW22052TMW     20220330180D0204192              AVSSH 1.25F V            CCN000002400000002400FN00000000020220501000002400NNM   20220219192043    1W    00000080000001458000000000032Q8    EMEMI   000000000000MT323006
BI00B32Q8    EW22053TMW     20220406180D0204192              AVSSH 1.25F V            CCN000003200000003200FN00000000020220501000003200NNM   20220219192043    1W    00000080000001458000000000032Q8    EMEMI   000000000000MT423011
BI00B32Q8    EW22054TMW     20220420180D0204192              AVSSH 1.25F V            CCN000004000000004000FN00000000020220501000004000NNM   20220219192043    1W    00000080000001458000000000032Q8    EMEMI   000000000000MT124013
BI00B32Q8    EW22052TMW     20220330180D0204143              AVSSH 1.25F W/B          CCN000042400000042400FN00000000020220501000042400NNM   20220219192043    1W    00000080000001458000000000032Q8    EMEMI   000000000000MT323007
BI00B32Q8    EW22053TMW     20220406180D0204143              AVSSH 1.25F W/B          CCN000048000000048000FN00000000020220501000048000NNM   20220219192043    1W    00000080000001458000000000032Q8    EMEMI   000000000000MT423012
BI00B32Q8    EW22054TMW     20220420180D0204143              AVSSH 1.25F W/B          CCN000043200000043200FN00000000020220501000043200NNM   20220219192043    1W    00000080000001458000000000032Q8    EMEMI   000000000000MT124014
BI00B32Q8    EW22051TMW     202203231801R704143              CIVUS 1.25 W/B           CCN000005000000005000FN00000000020220501000005000NNM   20220219192043    1W    00000100000001228000000000032Q8    EMEMI   000000000000MT223006
BI00B32Q8    EW22052TMW     202203301801R704143              CIVUS 1.25 W/B           CCN000027000000027000FN00000000020220501000027000NNM   20220219192043    1W    00000100000001228000000000032Q8    EMEMI   000000000000MT323009
BI00B32Q8    EW22053TMW     202204061801R704143              CIVUS 1.25 W/B           CCN000028000000028000FN00000000020220501000028000NNM   20220219192043    1W    00000100000001228000000000032Q8    EMEMI   000000000000MT423014
BI00B32Q8    EW22054TMW     202204201801R704143              CIVUS 1.25 W/B           CCN000026000000026000FN00000000020220501000026000NNM   20220219192043    1W    00000100000001228000000000032Q8    EMEMI   000000000000MT124016
BI00B32Q8    EW22051TMW     202203231801W006930              IVSSH 0.35F B            CCN000937500000937500FN00000000020220501000937500NNM   20220219192043    1W    00000250000000452000000000032Q8    EMEMI   000000000000MT223022
BI00B32Q8    EW22052TMW     202203301801W006930              IVSSH 0.35F B            CCN000477500000477500FN00000000020220501000477500NNM   20220219192043    1W    00000250000000452000000000032Q8    EMEMI   000000000000MT323028
BI00B32Q8    EW22053TMW     202204061801W006930              IVSSH 0.35F B            CCN000477500000477500FN00000000020220501000477500NNM   20220219192043    1W    00000250000000452000000000032Q8    EMEMI   000000000000MT423038
BI00B32Q8    EW22054TMW     202204201801W006930              IVSSH 0.35F B            CCN000475000000475000FN00000000020220501000475000NNM   20220219192043    1W    00000250000000452000000000032Q8    EMEMI   000000000000MT124040
BI00B32Q8    EW22052TMW     202203301801W00695U              IVSSH 0.35F BE           CCN000030000000030000FN00000000020220501000030000NNM   20220219192043    1W    00000250000000452000000000032Q8    EMEMI   000000000000MT323029
BI00B32Q8    EW22053TMW     202204061801W00695U              IVSSH 0.35F BE           CCN000032500000032500FN00000000020220501000032500NNM   20220219192043    1W    00000250000000452000000000032Q8    EMEMI   000000000000MT423039
BI00B32Q8    EW22054TMW     202204201801W00695U              IVSSH 0.35F BE           CCN000032500000032500FN00000000020220501000032500NNM   20220219192043    1W    00000250000000452000000000032Q8    EMEMI   000000000000MT124041
BI00B32Q8    EW22053TMW     202204061801W006980              IVSSH 0.35F BR           CCN000015000000015000FN00000000020220501000015000NNM   20220219192043    1W    00000250000000452000000000032Q8    EMEMI   000000000000MT423040
BI00B32Q8    EW22054TMW     202204201801W006980              IVSSH 0.35F BR           CCN000042500000042500FN00000000020220501000042500NNM   20220219192043    1W    00000250000000452000000000032Q8    EMEMI   000000000000MT124042
BI00B32Q8    EW22051TMW     202203231801W006960              IVSSH 0.35F G            CCN000410000000410000FN00000000020220501000410000NNM   20220219192043    1W    00000250000000452000000000032Q8    EMEMI   000000000000MT223023
BI00B32Q8    EW22052TMW     202203301801W006960              IVSSH 0.35F G            CCN000380000000380000FN00000000020220501000380000NNM   20220219192043    1W    00000250000000452000000000032Q8    EMEMI   000000000000MT323030
BI00B32Q8    EW22053TMW     202204061801W006960              IVSSH 0.35F G            CCN000380000000380000FN00000000020220501000380000NNM   20220219192043    1W    00000250000000452000000000032Q8    EMEMI   000000000000MT423041
BI00B32Q8    EW22054TMW     202204201801W006960              IVSSH 0.35F G            CCN000382500000382500FN00000000020220501000382500NNM   20220219192043    1W    00000250000000452000000000032Q8    EMEMI   000000000000MT124043
BI00B32Q8    EW22051TMW     202203231801W006941              IVSSH 0.35F GY           CCN000202500000202500FN00000000020220501000202500NNM   20220219192043    1W    00000250000000452000000000032Q8    EMEMI   000000000000MT223024
BI00B32Q8    EW22052TMW     202203301801W006941              IVSSH 0.35F GY           CCN000115000000115000FN00000000020220501000115000NNM   20220219192043    1W    00000250000000452000000000032Q8    EMEMI   000000000000MT323031
BI00B32Q8    EW22053TMW     202204061801W006941              IVSSH 0.35F GY           CCN000112500000112500FN00000000020220501000112500NNM   20220219192043    1W    00000250000000452000000000032Q8    EMEMI   000000000000MT423042
BI00B32Q8    EW22054TMW     202204201801W006941              IVSSH 0.35F GY           CCN000130000000130000FN00000000020220501000130000NNM   20220219192043    1W    00000250000000452000000000032Q8    EMEMI   000000000000MT124044
BI00B32Q8    EW22052TMW     202203301801W006990              IVSSH 0.35F L            CCN000432500000432500FN00000000020220501000432500NNM   20220219192043    1W    00000250000000452000000000032Q8    EMEMI   000000000000MT323032
BI00B32Q8    EW22053TMW     202204061801W006990              IVSSH 0.35F L            CCN000470000000470000FN00000000020220501000470000NNM   20220219192043    1W    00000250000000452000000000032Q8    EMEMI   000000000000MT423043
BI00B32Q8    EW22054TMW     202204201801W006990              IVSSH 0.35F L            CCN000470000000470000FN00000000020220501000470000NNM   20220219192043    1W    00000250000000452000000000032Q8    EMEMI   000000000000MT124045
BI00B32Q8    EW22051TMW     202203231801W006961              IVSSH 0.35F LG           CCN000245000000245000FN00000000020220501000245000NNM   20220219192043    1W    00000250000000452000000000032Q8    EMEMI   000000000000MT223025
BI00B32Q8    EW22052TMW     202203301801W006961              IVSSH 0.35F LG           CCN000230000000230000FN00000000020220501000230000NNM   20220219192043    1W    00000250000000452000000000032Q8    EMEMI   000000000000MT323033
BI00B32Q8    EW22053TMW     202204061801W006961              IVSSH 0.35F LG           CCN000227500000227500FN00000000020220501000227500NNM   20220219192043    1W    00000250000000452000000000032Q8    EMEMI   000000000000MT423044
BI00B32Q8    EW22054TMW     202204201801W006961              IVSSH 0.35F LG           CCN000217500000217500FN00000000020220501000217500NNM   20220219192043    1W    00000250000000452000000000032Q8    EMEMI   000000000000MT124046
BI00B32Q8    EW22051TMW     202203231801W006952              IVSSH 0.35F P            CCN001002500001002500FN00000000020220501001002500NNM   20220219192043    1W    00000250000000452000000000032Q8    EMEMI   000000000000MT223026
BI00B32Q8    EW22052TMW     202203301801W006952              IVSSH 0.35F P            CCN000365000000365000FN00000000020220501000365000NNM   20220219192043    1W    00000250000000452000000000032Q8    EMEMI   000000000000MT323034
BI00B32Q8    EW22053TMW     202204061801W006952              IVSSH 0.35F P            CCN000362500000362500FN00000000020220501000362500NNM   20220219192043    1W    00000250000000452000000000032Q8    EMEMI   000000000000MT423045
BI00B32Q8    EW22054TMW     202204201801W006952              IVSSH 0.35F P            CCN000362500000362500FN00000000020220501000362500NNM   20220219192043    1W    00000250000000452000000000032Q8    EMEMI   000000000000MT124047
BI00B32Q8    EW22051TMW     202203231801W006950              IVSSH 0.35F R            CCN000590000000590000FN00000000020220501000590000NNM   20220219192043    1W    00000250000000452000000000032Q8    EMEMI   000000000000MT223027
BI00B32Q8    EW22052TMW     202203301801W006950              IVSSH 0.35F R            CCN000377500000377500FN00000000020220501000377500NNM   20220219192043    1W    00000250000000452000000000032Q8    EMEMI   000000000000MT323035
BI00B32Q8    EW22053TMW     202204061801W006950              IVSSH 0.35F R            CCN000377500000377500FN00000000020220501000377500NNM   20220219192043    1W    00000250000000452000000000032Q8    EMEMI   000000000000MT423046
BI00B32Q8    EW22054TMW     202204201801W006950              IVSSH 0.35F R            CCN000395000000395000FN00000000020220501000395000NNM   20220219192043    1W    00000250000000452000000000032Q8    EMEMI   000000000000MT124048
BI00B32Q8    EW22052TMW     202203301801W006991              IVSSH 0.35F SB           CCN000032500000032500FN00000000020220501000032500NNM   20220219192043    1W    00000250000000452000000000032Q8    EMEMI   000000000000MT323036
BI00B32Q8    EW22053TMW     202204061801W006991              IVSSH 0.35F SB           CCN000087500000087500FN00000000020220501000087500NNM   20220219192043    1W    00000250000000452000000000032Q8    EMEMI   000000000000MT423047
BI00B32Q8    EW22054TMW     202204201801W006991              IVSSH 0.35F SB           CCN000097500000097500FN00000000020220501000097500NNM   20220219192043    1W    00000250000000452000000000032Q8    EMEMI   000000000000MT124049
BI00B32Q8    EW22051TMW     202203231801W006992              IVSSH 0.35F V            CCN000600000000600000FN00000000020220501000600000NNM   20220219192043    1W    00000250000000452000000000032Q8    EMEMI   000000000000MT223028
BI00B32Q8    EW22052TMW     202203301801W006992              IVSSH 0.35F V            CCN000310000000310000FN00000000020220501000310000NNM   20220219192043    1W    00000250000000452000000000032Q8    EMEMI   000000000000MT323037
BI00B32Q8    EW22053TMW     202204061801W006992              IVSSH 0.35F V            CCN000307500000307500FN00000000020220501000307500NNM   20220219192043    1W    00000250000000452000000000032Q8    EMEMI   000000000000MT423048
BI00B32Q8    EW22054TMW     202204201801W006992              IVSSH 0.35F V            CCN000295000000295000FN00000000020220501000295000NNM   20220219192043    1W    00000250000000452000000000032Q8    EMEMI   000000000000MT124050
BI00B32Q8    EW22051TMW     202203231801W006940              IVSSH 0.35F W            CCN000530000000530000FN00000000020220501000530000NNM   20220219192043    1W    00000250000000452000000000032Q8    EMEMI   000000000000MT223029
BI00B32Q8    EW22052TMW     202203301801W006940              IVSSH 0.35F W            CCN000422500000422500FN00000000020220501000422500NNM   20220219192043    1W    00000250000000452000000000032Q8    EMEMI   000000000000MT323038
BI00B32Q8    EW22053TMW     202204061801W006940              IVSSH 0.35F W            CCN000425000000425000FN00000000020220501000425000NNM   20220219192043    1W    00000250000000452000000000032Q8    EMEMI   000000000000MT423049
BI00B32Q8    EW22054TMW     202204201801W006940              IVSSH 0.35F W            CCN000417500000417500FN00000000020220501000417500NNM   20220219192043    1W    00000250000000452000000000032Q8    EMEMI   000000000000MT124051
BI00B32Q8    EW22052TMW     202203301801W006943              IVSSH 0.35F W/B          CCN000050000000050000FN00000000020220501000050000NNM   20220219192043    1W    00000250000000452000000000032Q8    EMEMI   000000000000MT323039
BI00B32Q8    EW22053TMW     202204061801W006943              IVSSH 0.35F W/B          CCN000055000000055000FN00000000020220501000055000NNM   20220219192043    1W    00000250000000452000000000032Q8    EMEMI   000000000000MT423050
BI00B32Q8    EW22054TMW     202204201801W006943              IVSSH 0.35F W/B          CCN000050000000050000FN00000000020220501000050000NNM   20220219192043    1W    00000250000000452000000000032Q8    EMEMI   000000000000MT124052
BI00B32Q8    EW22051TMW     202203231801W006970              IVSSH 0.35F Y            CCN000102500000102500FN00000000020220501000102500NNM   20220219192043    1W    00000250000000452000000000032Q8    EMEMI   000000000000MT223030
BI00B32Q8    EW22052TMW     202203301801W006970              IVSSH 0.35F Y            CCN000092500000092500FN00000000020220501000092500NNM   20220219192043    1W    00000250000000452000000000032Q8    EMEMI   000000000000MT323040
BI00B32Q8    EW22053TMW     202204061801W006970              IVSSH 0.35F Y            CCN000092500000092500FN00000000020220501000092500NNM   20220219192043    1W    00000250000000452000000000032Q8    EMEMI   000000000000MT423051
BI00B32Q8    EW22054TMW     202204201801W006970              IVSSH 0.35F Y            CCN000090000000090000FN00000000020220501000090000NNM   20220219192043    1W    00000250000000452000000000032Q8    EMEMI   000000000000MT124053
BI00B32Q8    EW22051TMW     202203231801W003930              IVSSH 0.5F B             CCN000063000000063000FN00000000020220501000063000NNM   20220219192043    1W    00000180000000625000000000032Q8    EMEMI   000000000000MT223007
BI00B32Q8    EW22052TMW     202203301801W003930              IVSSH 0.5F B             CCN000153000000153000FN00000000020220501000153000NNM   20220219192043    1W    00000180000000625000000000032Q8    EMEMI   000000000000MT323010
BI00B32Q8    EW22053TMW     202204061801W003930              IVSSH 0.5F B             CCN000154800000154800FN00000000020220501000154800NNM   20220219192043    1W    00000180000000625000000000032Q8    EMEMI   000000000000MT423015
BI00B32Q8    EW22054TMW     202204201801W003930              IVSSH 0.5F B             CCN000153000000153000FN00000000020220501000153000NNM   20220219192043    1W    00000180000000625000000000032Q8    EMEMI   000000000000MT124017
BI00B32Q8    EW22051TMW     202203231801W00395U              IVSSH 0.5F BE            CCN000005400000005400FN00000000020220501000005400NNM   20220219192043    1W    00000180000000625000000000032Q8    EMEMI   000000000000MT223008
BI00B32Q8    EW22052TMW     202203301801W00395U              IVSSH 0.5F BE            CCN000010800000010800FN00000000020220501000010800NNM   20220219192043    1W    00000180000000625000000000032Q8    EMEMI   000000000000MT323011
BI00B32Q8    EW22053TMW     202204061801W00395U              IVSSH 0.5F BE            CCN000009000000009000FN00000000020220501000009000NNM   20220219192043    1W    00000180000000625000000000032Q8    EMEMI   000000000000MT423016
BI00B32Q8    EW22054TMW     202204201801W00395U              IVSSH 0.5F BE            CCN000009000000009000FN00000000020220501000009000NNM   20220219192043    1W    00000180000000625000000000032Q8    EMEMI   000000000000MT124018
BI00B32Q8    EW22052TMW     202203301801W003980              IVSSH 0.5F BR            CCN000010800000010800FN00000000020220501000010800NNM   20220219192043    1W    00000180000000625000000000032Q8    EMEMI   000000000000MT323012
BI00B32Q8    EW22053TMW     202204061801W003980              IVSSH 0.5F BR            CCN000018000000018000FN00000000020220501000018000NNM   20220219192043    1W    00000180000000625000000000032Q8    EMEMI   000000000000MT423017
BI00B32Q8    EW22054TMW     202204201801W003980              IVSSH 0.5F BR            CCN000019800000019800FN00000000020220501000019800NNM   20220219192043    1W    00000180000000625000000000032Q8    EMEMI   000000000000MT124019
BI00B32Q8    EW22051TMW     202203231801W003960              IVSSH 0.5F G             CCN000444600000444600FN00000000020220501000444600NNM   20220219192043    1W    00000180000000625000000000032Q8    EMEMI   000000000000MT223009
BI00B32Q8    EW22052TMW     202203301801W003960              IVSSH 0.5F G             CCN000154800000154800FN00000000020220501000154800NNM   20220219192043    1W    00000180000000625000000000032Q8    EMEMI   000000000000MT323013
BI00B32Q8    EW22053TMW     202204061801W003960              IVSSH 0.5F G             CCN000154800000154800FN00000000020220501000154800NNM   20220219192043    1W    00000180000000625000000000032Q8    EMEMI   000000000000MT423018
BI00B32Q8    EW22054TMW     202204201801W003960              IVSSH 0.5F G             CCN000147600000147600FN00000000020220501000147600NNM   20220219192043    1W    00000180000000625000000000032Q8    EMEMI   000000000000MT124020
BI00B32Q8    EW22051TMW     202203231801W003941              IVSSH 0.5F GY            CCN000021600000021600FN00000000020220501000021600NNM   20220219192043    1W    00000180000000625000000000032Q8    EMEMI   000000000000MT223010
BI00B32Q8    EW22052TMW     202203301801W003941              IVSSH 0.5F GY            CCN000028800000028800FN00000000020220501000028800NNM   20220219192043    1W    00000180000000625000000000032Q8    EMEMI   000000000000MT323014
BI00B32Q8    EW22053TMW     202204061801W003941              IVSSH 0.5F GY            CCN000028800000028800FN00000000020220501000028800NNM   20220219192043    1W    00000180000000625000000000032Q8    EMEMI   000000000000MT423019
BI00B32Q8    EW22054TMW     202204201801W003941              IVSSH 0.5F GY            CCN000027000000027000FN00000000020220501000027000NNM   20220219192043    1W    00000180000000625000000000032Q8    EMEMI   000000000000MT124021
BI00B32Q8    EW22051TMW     202203231801W003990              IVSSH 0.5F L             CCN000475200000475200FN00000000020220501000475200NNM   20220219192043    1W    00000180000000625000000000032Q8    EMEMI   000000000000MT223011
BI00B32Q8    EW22052TMW     202203301801W003990              IVSSH 0.5F L             CCN000208800000208800FN00000000020220501000208800NNM   20220219192043    1W    00000180000000625000000000032Q8    EMEMI   000000000000MT323015
BI00B32Q8    EW22053TMW     202204061801W003990              IVSSH 0.5F L             CCN000208800000208800FN00000000020220501000208800NNM   20220219192043    1W    00000180000000625000000000032Q8    EMEMI   000000000000MT423020
BI00B32Q8    EW22054TMW     202204201801W003990              IVSSH 0.5F L             CCN000199800000199800FN00000000020220501000199800NNM   20220219192043    1W    00000180000000625000000000032Q8    EMEMI   000000000000MT124022
BI00B32Q8    EW22051TMW     202203231801W003961              IVSSH 0.5F LG            CCN000007200000007200FN00000000020220501000007200NNM   20220219192043    1W    00000180000000625000000000032Q8    EMEMI   000000000000MT223012
BI00B32Q8    EW22052TMW     202203301801W003961              IVSSH 0.5F LG            CCN000021600000021600FN00000000020220501000021600NNM   20220219192043    1W    00000180000000625000000000032Q8    EMEMI   000000000000MT323016
BI00B32Q8    EW22053TMW     202204061801W003961              IVSSH 0.5F LG            CCN000021600000021600FN00000000020220501000021600NNM   20220219192043    1W    00000180000000625000000000032Q8    EMEMI   000000000000MT423021
BI00B32Q8    EW22054TMW     202204201801W003961              IVSSH 0.5F LG            CCN000019800000019800FN00000000020220501000019800NNM   20220219192043    1W    00000180000000625000000000032Q8    EMEMI   000000000000MT124023
BI00B32Q8    EW22051TMW     202203231801W003952              IVSSH 0.5F P             CCN000241200000241200FN00000000020220501000241200NNM   20220219192043    1W    00000180000000625000000000032Q8    EMEMI   000000000000MT223013
BI00B32Q8    EW22052TMW     202203301801W003952              IVSSH 0.5F P             CCN000235800000235800FN00000000020220501000235800NNM   20220219192043    1W    00000180000000625000000000032Q8    EMEMI   000000000000MT323017
BI00B32Q8    EW22053TMW     202204061801W003952              IVSSH 0.5F P             CCN000235800000235800FN00000000020220501000235800NNM   20220219192043    1W    00000180000000625000000000032Q8    EMEMI   000000000000MT423022
BI00B32Q8    EW22054TMW     202204201801W003952              IVSSH 0.5F P             CCN000208800000208800FN00000000020220501000208800NNM   20220219192043    1W    00000180000000625000000000032Q8    EMEMI   000000000000MT124024
BI00B32Q8    EW22051TMW     202203231801W003950              IVSSH 0.5F R             CCN000120600000120600FN00000000020220501000120600NNM   20220219192043    1W    00000180000000625000000000032Q8    EMEMI   000000000000MT223014
BI00B32Q8    EW22052TMW     202203301801W003950              IVSSH 0.5F R             CCN000174600000174600FN00000000020220501000174600NNM   20220219192043    1W    00000180000000625000000000032Q8    EMEMI   000000000000MT323018
BI00B32Q8    EW22053TMW     202204061801W003950              IVSSH 0.5F R             CCN000174600000174600FN00000000020220501000174600NNM   20220219192043    1W    00000180000000625000000000032Q8    EMEMI   000000000000MT423023
BI00B32Q8    EW22054TMW     202204201801W003950              IVSSH 0.5F R             CCN000183600000183600FN00000000020220501000183600NNM   20220219192043    1W    00000180000000625000000000032Q8    EMEMI   000000000000MT124025
BI00B32Q8    EW22053TMW     202204061801W003991              IVSSH 0.5F SB            CCN000009000000009000FN00000000020220501000009000NNM   20220219192043    1W    00000180000000625000000000032Q8    EMEMI   000000000000MT423024
BI00B32Q8    EW22054TMW     202204201801W003991              IVSSH 0.5F SB            CCN000007200000007200FN00000000020220501000007200NNM   20220219192043    1W    00000180000000625000000000032Q8    EMEMI   000000000000MT124026
BI00B32Q8    EW22052TMW     202203301801W003992              IVSSH 0.5F V             CCN000019800000019800FN00000000020220501000019800NNM   20220219192043    1W    00000180000000625000000000032Q8    EMEMI   000000000000MT323019
BI00B32Q8    EW22053TMW     202204061801W003992              IVSSH 0.5F V             CCN000072000000072000FN00000000020220501000072000NNM   20220219192043    1W    00000180000000625000000000032Q8    EMEMI   000000000000MT423025
BI00B32Q8    EW22054TMW     202204201801W003992              IVSSH 0.5F V             CCN000082800000082800FN00000000020220501000082800NNM   20220219192043    1W    00000180000000625000000000032Q8    EMEMI   000000000000MT124027
BI00B32Q8    EW22051TMW     202203231801W003940              IVSSH 0.5F W             CCN000019800000019800FN00000000020220501000019800NNM   20220219192043    1W    00000180000000625000000000032Q8    EMEMI   000000000000MT223015
BI00B32Q8    EW22052TMW     202203301801W003940              IVSSH 0.5F W             CCN000084600000084600FN00000000020220501000084600NNM   20220219192043    1W    00000180000000625000000000032Q8    EMEMI   000000000000MT323020
BI00B32Q8    EW22053TMW     202204061801W003940              IVSSH 0.5F W             CCN000082800000082800FN00000000020220501000082800NNM   20220219192043    1W    00000180000000625000000000032Q8    EMEMI   000000000000MT423026
BI00B32Q8    EW22054TMW     202204201801W003940              IVSSH 0.5F W             CCN000081000000081000FN00000000020220501000081000NNM   20220219192043    1W    00000180000000625000000000032Q8    EMEMI   000000000000MT124028
BI00B32Q8    EW22051TMW     202203231801W003943              IVSSH 0.5F W/B           CCN000194400000194400FN00000000020220501000194400NNM   20220219192043    1W    00000180000000625000000000032Q8    EMEMI   000000000000MT223016
BI00B32Q8    EW22052TMW     202203301801W003943              IVSSH 0.5F W/B           CCN000079200000079200FN00000000020220501000079200NNM   20220219192043    1W    00000180000000625000000000032Q8    EMEMI   000000000000MT323021
BI00B32Q8    EW22053TMW     202204061801W003943              IVSSH 0.5F W/B           CCN000079200000079200FN00000000020220501000079200NNM   20220219192043    1W    00000180000000625000000000032Q8    EMEMI   000000000000MT423027
BI00B32Q8    EW22054TMW     202204201801W003943              IVSSH 0.5F W/B           CCN000084600000084600FN00000000020220501000084600NNM   20220219192043    1W    00000180000000625000000000032Q8    EMEMI   000000000000MT124029
BI00B32Q8    EW22051TMW     202203231801W003970              IVSSH 0.5F Y             CCN000027000000027000FN00000000020220501000027000NNM   20220219192043    1W    00000180000000625000000000032Q8    EMEMI   000000000000MT223017
BI00B32Q8    EW22052TMW     202203301801W003970              IVSSH 0.5F Y             CCN000064800000064800FN00000000020220501000064800NNM   20220219192043    1W    00000180000000625000000000032Q8    EMEMI   000000000000MT323022
BI00B32Q8    EW22053TMW     202204061801W003970              IVSSH 0.5F Y             CCN000066600000066600FN00000000020220501000066600NNM   20220219192043    1W    00000180000000625000000000032Q8    EMEMI   000000000000MT423028
BI00B32Q8    EW22054TMW     202204201801W003970              IVSSH 0.5F Y             CCN000079200000079200FN00000000020220501000079200NNM   20220219192043    1W    00000180000000625000000000032Q8    EMEMI   000000000000MT124030
BI00B32Q8    EW22052TMW     202203301801W004030              IVSSH 0.75F B            CCN000001300000001300FN00000000020220501000001300NNM   20220219192043    1W    00000130000000882000000000032Q8    EMEMI   000000000000MT323023
BI00B32Q8    EW22053TMW     202204061801W004030              IVSSH 0.75F B            CCN000026000000026000FN00000000020220501000026000NNM   20220219192043    1W    00000130000000882000000000032Q8    EMEMI   000000000000MT423029
BI00B32Q8    EW22054TMW     202204201801W004030              IVSSH 0.75F B            CCN000023400000023400FN00000000020220501000023400NNM   20220219192043    1W    00000130000000882000000000032Q8    EMEMI   000000000000MT124031
BI00B32Q8    EW22053TMW     202204061801W004080              IVSSH 0.75F BR           CCN000001300000001300FN00000000020220501000001300NNM   20220219192043    1W    00000130000000882000000000032Q8    EMEMI   000000000000MT423030
BI00B32Q8    EW22054TMW     202204201801W004080              IVSSH 0.75F BR           CCN000003900000003900FN00000000020220501000003900NNM   20220219192043    1W    00000130000000882000000000032Q8    EMEMI   000000000000MT124032
BI00B32Q8    EW22051TMW     202203231801W004060              IVSSH 0.75F G            CCN000007800000007800FN00000000020220501000007800NNM   20220219192043    1W    00000130000000882000000000032Q8    EMEMI   000000000000MT223018
BI00B32Q8    EW22052TMW     202203301801W004060              IVSSH 0.75F G            CCN000011700000011700FN00000000020220501000011700NNM   20220219192043    1W    00000130000000882000000000032Q8    EMEMI   000000000000MT323024
BI00B32Q8    EW22053TMW     202204061801W004060              IVSSH 0.75F G            CCN000011700000011700FN00000000020220501000011700NNM   20220219192043    1W    00000130000000882000000000032Q8    EMEMI   000000000000MT423031
BI00B32Q8    EW22054TMW     202204201801W004060              IVSSH 0.75F G            CCN000010400000010400FN00000000020220501000010400NNM   20220219192043    1W    00000130000000882000000000032Q8    EMEMI   000000000000MT124033
BI00B32Q8    EW22051TMW     202203231801W004090              IVSSH 0.75F L            CCN000074100000074100FN00000000020220501000074100NNM   20220219192043    1W    00000130000000882000000000032Q8    EMEMI   000000000000MT223019
BI00B32Q8    EW22052TMW     202203301801W004090              IVSSH 0.75F L            CCN000033800000033800FN00000000020220501000033800NNM   20220219192043    1W    00000130000000882000000000032Q8    EMEMI   000000000000MT323025
BI00B32Q8    EW22053TMW     202204061801W004090              IVSSH 0.75F L            CCN000035100000035100FN00000000020220501000035100NNM   20220219192043    1W    00000130000000882000000000032Q8    EMEMI   000000000000MT423032
BI00B32Q8    EW22054TMW     202204201801W004090              IVSSH 0.75F L            CCN000041600000041600FN00000000020220501000041600NNM   20220219192043    1W    00000130000000882000000000032Q8    EMEMI   000000000000MT124034
BI00B32Q8    EW22051TMW     202203231801W004052              IVSSH 0.75F P            CCN000009100000009100FN00000000020220501000009100NNM   20220219192043    1W    00000130000000882000000000032Q8    EMEMI   000000000000MT223020
BI00B32Q8    EW22052TMW     202203301801W004052              IVSSH 0.75F P            CCN000011700000011700FN00000000020220501000011700NNM   20220219192043    1W    00000130000000882000000000032Q8    EMEMI   000000000000MT323026
BI00B32Q8    EW22053TMW     202204061801W004052              IVSSH 0.75F P            CCN000011700000011700FN00000000020220501000011700NNM   20220219192043    1W    00000130000000882000000000032Q8    EMEMI   000000000000MT423033
BI00B32Q8    EW22054TMW     202204201801W004052              IVSSH 0.75F P            CCN000010400000010400FN00000000020220501000010400NNM   20220219192043    1W    00000130000000882000000000032Q8    EMEMI   000000000000MT124035
BI00B32Q8    EW22053TMW     202204061801W004050              IVSSH 0.75F R            CCN000050700000050700FN00000000020220501000050700NNM   20220219192043    1W    00000130000000882000000000032Q8    EMEMI   000000000000MT423034
BI00B32Q8    EW22054TMW     202204201801W004050              IVSSH 0.75F R            CCN000058500000058500FN00000000020220501000058500NNM   20220219192043    1W    00000130000000882000000000032Q8    EMEMI   000000000000MT124036
BI00B32Q8    EW22053TMW     202204061801W004092              IVSSH 0.75F V            CCN000014300000014300FN00000000020220501000014300NNM   20220219192043    1W    00000130000000882000000000032Q8    EMEMI   000000000000MT423035
BI00B32Q8    EW22054TMW     202204201801W004092              IVSSH 0.75F V            CCN000015600000015600FN00000000020220501000015600NNM   20220219192043    1W    00000130000000882000000000032Q8    EMEMI   000000000000MT124037
BI00B32Q8    EW22051TMW     202203231801W004040              IVSSH 0.75F W            CCN000014300000014300FN00000000020220501000014300NNM   20220219192043    1W    00000130000000882000000000032Q8    EMEMI   000000000000MT223021
BI00B32Q8    EW22052TMW     202203301801W004040              IVSSH 0.75F W            CCN000018200000018200FN00000000020220501000018200NNM   20220219192043    1W    00000130000000882000000000032Q8    EMEMI   000000000000MT323027
BI00B32Q8    EW22053TMW     202204061801W004040              IVSSH 0.75F W            CCN000018200000018200FN00000000020220501000018200NNM   20220219192043    1W    00000130000000882000000000032Q8    EMEMI   000000000000MT423036
BI00B32Q8    EW22054TMW     202204201801W004040              IVSSH 0.75F W            CCN000015600000015600FN00000000020220501000015600NNM   20220219192043    1W    00000130000000882000000000032Q8    EMEMI   000000000000MT124038
BI00B32Q8    EW22053TMW     202204061801W004043              IVSSH 0.75F W/B          CCN000002600000002600FN00000000020220501000002600NNM   20220219192043    1W    00000130000000882000000000032Q8    EMEMI   000000000000MT423037
BI00B32Q8    EW22054TMW     202204201801W004043              IVSSH 0.75F W/B          CCN000006500000006500FN00000000020220501000006500NNM   20220219192043    1W    00000130000000882000000000032Q8    EMEMI   000000000000MT124039
BI00B32Q8    @EW22053TMW    20220406181E50005ZZ              AVSSCS-S 0.5FX1 DGY/W    CCN000000400000000400FN00000000020220501000000400NNM   20220219192036    1W    00000040000001909700000000032Q8    EMEMI   000000000000MT423004
BI00B32Q8    @EW22054TMW    20220420181E50005ZZ              AVSSCS-S 0.5FX1 DGY/W    CCN000006400000006400FN00000000020220501000006400NNM   20220219192036    1W    00000040000001909700000000032Q8    EMEMI   000000000000MT124004
BI00B32Q8    @EW22052TMW    20220330181E50028ZZ              AVSSCS-S 0.5FX3 DGY      CCN000002250000002250FN00000000020220501000002250NNM   20220219192036    1W    00000025000003265000000000032Q8    EMEMI   000000000000MT323004
BI00B32Q8    @EW22053TMW    20220406181E50028ZZ              AVSSCS-S 0.5FX3 DGY      CCN000003500000003500FN00000000020220501000003500NNM   20220219192036    1W    00000025000003265000000000032Q8    EMEMI   000000000000MT423005
BI00B32Q8    @EW22054TMW    20220420181E50028ZZ              AVSSCS-S 0.5FX3 DGY      CCN000003750000003750FN00000000020220501000003750NNM   20220219192036    1W    00000025000003265000000000032Q8    EMEMI   000000000000MT124005
BI00B32Q8    @EW22051TMW    20220323181D69004ZZ              AVSSHCS 1.25FX2 B        CCN000001400000001400FN00000000020220501000001400NNM   20220219192036    1W    00000020000004357000000000032Q8    EMEMI   000000000000MT223003
BI00B32Q8    @EW22052TMW    20220330181D69004ZZ              AVSSHCS 1.25FX2 B        CCN000002600000002600FN00000000020220501000002600NNM   20220219192036    1W    00000020000004357000000000032Q8    EMEMI   000000000000MT323003
BI00B32Q8    @EW22053TMW    20220406181D69004ZZ              AVSSHCS 1.25FX2 B        CCN000002600000002600FN00000000020220501000002600NNM   20220219192036    1W    00000020000004357000000000032Q8    EMEMI   000000000000MT423003
BI00B32Q8    @EW22054TMW    20220420181D69004ZZ              AVSSHCS 1.25FX2 B        CCN000002800000002800FN00000000020220501000002800NNM   20220219192036    1W    00000020000004357000000000032Q8    EMEMI   000000000000MT124003
BI00B32Q8    @EW22053TMW    20220406181F21001ZZ              AVSSHCS-S 0.3FX2 B/Y     CCN000004900000004900FN00000000020220501000004900NNM   20220219192036    1W    00000035000002034300000000032Q8    EMEMI   000000000000MT423006
BI00B32Q8    @EW22054TMW    20220420181F21001ZZ              AVSSHCS-S 0.3FX2 B/Y     CCN000004550000004550FN00000000020220501000004550NNM   20220219192036    1W    00000035000002034300000000032Q8    EMEMI   000000000000MT124007
BI00B32Q8    @EW22054TMW    20220420181F21016ZZ              AVSSHCS-S 0.5FX2 B/BR    CCN000003300000003300FN00000000020220501000003300NNM   20220219192036    1W    00000030000002531400000000032Q8    EMEMI   000000000000MT124006
BI00B32Q8    @EW22054TMW    20220420181F21028ZZ              AVSSHCS-S 1.25FX2 B/R    CCN000002200000002200FN00000000020220501000002200NNM   20220219192036    1W    00000020000004267300000000032Q8    EMEMI   000000000000MT124008
BI00B32Q8    @EW22051TMW    20220323181CQ7003ZZ              IVSSHCS-S 0.5FX2 B(B,W)  CCN000121800000121800FN00000000020220501000121800NNM   20220219192036    1W    00000030000002350200000000032Q8    EMEMI   000000000000MT223001
BI00B32Q8    @EW22052TMW    20220330181CQ7003ZZ              IVSSHCS-S 0.5FX2 B(B,W)  CCN000057000000057000FN00000000020220501000057000NNM   20220219192036    1W    00000030000002350200000000032Q8    EMEMI   000000000000MT323001
BI00B32Q8    @EW22053TMW    20220406181CQ7003ZZ              IVSSHCS-S 0.5FX2 B(B,W)  CCN000057000000057000FN00000000020220501000057000NNM   20220219192036    1W    00000030000002350200000000032Q8    EMEMI   000000000000MT423001
BI00B32Q8    @EW22054TMW    20220420181CQ7003ZZ              IVSSHCS-S 0.5FX2 B(B,W)  CCN000050100000050100FN00000000020220501000050100NNM   20220219192036    1W    00000030000002350200000000032Q8    EMEMI   000000000000MT124001
BI00B32Q8    @EW22051TMW    20220323181CQ7004ZZ              IVSSHCS-S 0.5FX2 B(R,G)  CCN000015600000015600FN00000000020220501000015600NNM   20220219192036    1W    00000030000002350200000000032Q8    EMEMI   000000000000MT223002
BI00B32Q8    @EW22052TMW    20220330181CQ7004ZZ              IVSSHCS-S 0.5FX2 B(R,G)  CCN000050400000050400FN00000000020220501000050400NNM   20220219192036    1W    00000030000002350200000000032Q8    EMEMI   000000000000MT323002
BI00B32Q8    @EW22053TMW    20220406181CQ7004ZZ              IVSSHCS-S 0.5FX2 B(R,G)  CCN000050400000050400FN00000000020220501000050400NNM   20220219192036    1W    00000030000002350200000000032Q8    EMEMI   000000000000MT423002
BI00B32Q8    @EW22054TMW    20220420181CQ7004ZZ              IVSSHCS-S 0.5FX2 B(R,G)  CCN000042900000042900FN00000000020220501000042900NNM   20220219192036    1W    00000030000002350200000000032Q8    EMEMI   000000000000MT124002
BI00B32Q8    EW2204F MW     20220316180D0203752              AVSSH 0.3F P             CCN000002000000002000FN00000000020220401000002000NNE   20220219190103    1W    00000200000000515000000000032Q8    EMEMI   000000000000MS123001
BI00B32W2    HN2204AWMW     2022031518000004540              AV 8 W                   CCN000001300000001300FN00000000020220401000001300NNE   20220219192923    1W    00000010000010466200000000032W2    HNHNY   000000000000HA123001
BI00A32W4    @4500189498    20220404181D6910239              AVSSHCS 0.5FX2 B/L       CCN000015300000015300FN00000000020220401000015300NNE   20220219174522W4A21W    00000030000002385000000000032W4A2  HJYHK-J 000000000000OJ423001
BI00B32W4    @4500189513    20220503181B32037Y5              AVSSCS 0.3FX1 DGY/W      CCN000001500000001500FN00000000020220501000001500NNE   20220219174522W4171W    00000050000001780000000000032W417  HJYHK-J 000000000000ON324001
BI00B32W4    @4500189513    20220503181B32116S1              AVSSCS 0.3FX2 DGY        CCN000002800000002800FN00000000020220501000002800NNE   20220219174522W4171W    00000035000002276000000000032W417  HJYHK-J 000000000000ON324002
BI00B32W4    4500189668     2022030818009604060              AVS 0.85 G               CCN000001000000001000FN00000000020220301000001000NNE   20220219174521W42 1W    00000100000001167700000000032W42   HJYHK-J 000000000000OP422002
BI00B32W4    4500189668     2022030818009604130              AVS 1.25 B               CCN000000800000000800FN00000000020220301000000800NNE   20220219174521W42 1W    00000080000001643000000000032W42   HJYHK-J 000000000000OP422003
BI00B32W4    4500189668     2022030818009604250              AVS 2 R                  CCN000000500000000500FN00000000020220301000000500NNE   20220219174521W42 1W    00000050000002456500000000032W42   HJYHK-J 000000000000OP422004
BI00B32W4    4500189668     2022030818009604330              AVS 3 B                  CCN000005200000005200FN00000000020220301000005200NNE   20220219174521W42 1W    00000040000003831600000000032W42   HJYHK-J 000000000000OP422005
