BI00B32H2    ADD-IDEN-2001  202202257283-1289-40             CONNECTOR HOUSING        CCN000007800000007800FN00000000020220201000007800NNE   20220219134222    1N0N  00000060000000679800000824832H2    HVYHV   005400370024
BI00B32H8    ADD-IDEN-2001  202202257222-7564-30             CONNECTOR                CCN000002000000002000FN00000000020220201000002000NNE   20220219134238    1N0N  00000050000000966500001125032H8    TYTYC   005500360039
BI00B32Q8    ADD-IDEN-2001  202202247282-1065                CONNECTOR                CCN000001500000001500FN00000000020220201000001500NNE   20220219134255    1N0N  00000150000000795000001012032Q8    EMEMI   005600390040
BI00B32W4    ADD-IDEN-2001  202202247282-1024                HOUSING MALE             CCN000004000000004000FN00000000020220201000004000NNE   20220219134312    1N0N  00000100000000458000000580532W4    HJYHK   005400370024
