BI00B32M8    PM21104TMW     202112081801W003943              IVSSH 0.5F W/B           CCN000023400000019800FN00000000020211001000019800NNM20 20211130175526    1W    00000180000000625000000000032M8    PMPEMI  000000000000IT41A014
BI00B32M8    PM21104TMW     202112081801W004041              IVSSH 0.75F GY           CCN000002600000001300FN00000000020211001000001300NNM20 20211130175603    1W    00000130000000882000000000032M8    PMPEMI  000000000000IT41A018
BI00B32M8    PM21104TMW     202112081801W006940              IVSSH 0.35F W            CCN000057500000025000FN00000000020211001000025000NNM20 20211130175358    1W    00000250000000452000000000032M8    PMPEMI  000000000000IT41A034
BI00B32M8    PM21104TMW     202112081801W006992              IVSSH 0.35F V            CCN000020000000012500FN00000000020211001000012500NNM20 20211130175307    1W    00000250000000452000000000032M8    PMPEMI  000000000000IT41A033
BI00B32M8    PM2112BTMW     202112221801W003980              IVSSH 0.5F BR            CCN000034200000025200FN00000000020211201000025200NNE00 20211130180318    1W    00000180000000625000000000032M8    PMPEMI  000000000000IC51B002
BI00A32M8    PM2112BTMW     202112031801W00695U              IVSSH 0.35F BE           CCN000005000000005000FN00000000020211201000005000NNE20 20211130180330    1W    00000250000000452000000000032M8    PMPEMI  000000000000IC51B005
BI00B32M8    PM2112BTMW     202112221801W006961              IVSSH 0.35F LG           CCN000015000000005000FN00000000020211201000005000NNE00 20211130180357    1W    00000250000000452000000000032M8    PMPEMI  000000000000IC51B006
BI00B32M8    PM2112CTMW     202112221801W003950              IVSSH 0.5F R             CCN000039600000036000FN00000000020211201000036000NNE00 20211130180710    1W    00000180000000625000000000032M8    PMPEMI  000000000000IE51B006
BI00B32M8    PM2112CTMW     202112221801W003970              IVSSH 0.5F Y             CCN000073800000055800FN00000000020211201000055800NNE00 20211130180755    1W    00000180000000625000000000032M8    PMPEMI  000000000000IE51B011
BI00B32M8    PM2112CTMW     202112221801W006930              IVSSH 0.35F B            CCN000042500000017500FN00000000020211201000017500NNE00 20211130180840    1W    00000250000000452000000000032M8    PMPEMI  000000000000IE51B017
BI00B32M8    PM2112CTMW     202112221801W006941              IVSSH 0.35F GY           CCN000087500000060000FN00000000020211201000060000NNE00 20211130180926    1W    00000250000000452000000000032M8    PMPEMI  000000000000IE51B021
BI00B32M8    PM2112CTMW     202112221801W006950              IVSSH 0.35F R            CCN000035000000017500FN00000000020211201000017500NNE00 20211130181007    1W    00000250000000452000000000032M8    PMPEMI  000000000000IE51B023
BI00B32M8    PM2112CTMW     202112221801W006960              IVSSH 0.35F G            CCN000060000000050000FN00000000020211201000050000NNE00 20211130181039    1W    00000250000000452000000000032M8    PMPEMI  000000000000IE51B020
BI00B32M8    PM2112CTMW     202112221801W006970              IVSSH 0.35F Y            CCN000080000000057500FN00000000020211201000057500NNE00 20211130181118    1W    00000250000000452000000000032M8    PMPEMI  000000000000IE51B026
BI00B32M8    PM2112CTMW     202112221801W006980              IVSSH 0.35F BR           CCN000022500000015000FN00000000020211201000015000NNE00 20211130181148    1W    00000250000000452000000000032M8    PMPEMI  000000000000IE51B019
BI00A32M8    PM2112CTMW     202112031801W006990              IVSSH 0.35F L            CCN000020000000020000FN00000000020211201000020000NNE20 20211130181215    1W    00000250000000452000000000032M8    PMPEMI  000000000000IE51B022
BI00B32M8    PM2112DTMW     202112221801W006991              IVSSH 0.35F SB           CCN000027500000012500FN00000000020211201000012500NNE00 20211130180603    1W    00000250000000452000000000032M8    PMPEMI  000000000000IF51B002
BI00A32M8    PM21104TMW     202112031801W006992              IVSSH 0.35F V            PCN000007500000007500FN00000000020211001000007500NNM26 20211130175307    1W    00000250000000452000000000032M8    PMPEMI  000000000000IT41A033
BI00A32M8    PM21104TMW     202112031801W006940              IVSSH 0.35F W            PCN000032500000032500FN00000000020211001000032500NNM26 20211130175358    1W    00000250000000452000000000032M8    PMPEMI  000000000000IT41A034
BI00A32M8    PM21104TMW     202112031801W003943              IVSSH 0.5F W/B           PCN000003600000003600FN00000000020211001000003600NNM26 20211130175526    1W    00000180000000625000000000032M8    PMPEMI  000000000000IT41A014
BI00A32M8    PM21104TMW     202112031801W004041              IVSSH 0.75F GY           PCN000001300000001300FN00000000020211001000001300NNM26 20211130175603    1W    00000130000000882000000000032M8    PMPEMI  000000000000IT41A018
BI00A32M8    PM2112BTMW     202112031801W003980              IVSSH 0.5F BR            CCN000009000000009000FN00000000020211201000009000NNE20 20211130180318    1W    00000180000000625000000000032M8    PMPEMI  000000000000IC51B002
BI00A32M8    PM2112BTMW     202112031801W006961              IVSSH 0.35F LG           CCN000010000000010000FN00000000020211201000010000NNE20 20211130180357    1W    00000250000000452000000000032M8    PMPEMI  000000000000IC51B006
BI00A32M8    PM2112DTMW     202112031801W006991              IVSSH 0.35F SB           CCN000015000000015000FN00000000020211201000015000NNE20 20211130180603    1W    00000250000000452000000000032M8    PMPEMI  000000000000IF51B002
BI00A32M8    PM2112CTMW     202112031801W003950              IVSSH 0.5F R             CCN000003600000003600FN00000000020211201000003600NNE20 20211130180710    1W    00000180000000625000000000032M8    PMPEMI  000000000000IE51B006
BI00A32M8    PM2112CTMW     202112031801W003970              IVSSH 0.5F Y             CCN000018000000018000FN00000000020211201000018000NNE20 20211130180755    1W    00000180000000625000000000032M8    PMPEMI  000000000000IE51B011
BI00A32M8    PM2112CTMW     202112031801W006930              IVSSH 0.35F B            CCN000025000000025000FN00000000020211201000025000NNE20 20211130180840    1W    00000250000000452000000000032M8    PMPEMI  000000000000IE51B017
BI00A32M8    PM2112CTMW     202112031801W006941              IVSSH 0.35F GY           CCN000027500000027500FN00000000020211201000027500NNE20 20211130180926    1W    00000250000000452000000000032M8    PMPEMI  000000000000IE51B021
BI00A32M8    PM2112CTMW     202112031801W006950              IVSSH 0.35F R            CCN000017500000017500FN00000000020211201000017500NNE20 20211130181007    1W    00000250000000452000000000032M8    PMPEMI  000000000000IE51B023
BI00A32M8    PM2112CTMW     202112031801W006960              IVSSH 0.35F G            CCN000010000000010000FN00000000020211201000010000NNE20 20211130181039    1W    00000250000000452000000000032M8    PMPEMI  000000000000IE51B020
BI00A32M8    PM2112CTMW     202112031801W006970              IVSSH 0.35F Y            CCN000022500000022500FN00000000020211201000022500NNE20 20211130181118    1W    00000250000000452000000000032M8    PMPEMI  000000000000IE51B026
BI00A32M8    PM2112CTMW     202112031801W006980              IVSSH 0.35F BR           CCN000007500000007500FN00000000020211201000007500NNE20 20211130181148    1W    00000250000000452000000000032M8    PMPEMI  000000000000IE51B019
