BI00A1200    7360T51817     202112017288-6547                CONNECTOR MALE ASS'Y     CCN000004500000004500FN00000000020210901000004500NNEM0020211130133713    4N0N  0000007500000120530000134031200    YCYC    005400370024
BI00A1200    7360T51818     202112157288-6547                CONNECTOR MALE ASS'Y     CCN000015000000015000FN00000000020210901000015000NNEM0020211130122514    4N0N  0000007500000120530000134031200    YCYC    005400370024
BI00A1200    #2399T51922    202111307289-4200-30             HOUSING FEMALE ASS'Y     PNN000042000000004000FY00000400020211101000000000NNMD0420211130143948    2N0N  0000020000000092600000102101200    YCYC    005400370024
BI00B1200    8670T51C02     202203177289-6547                HOUSING FEMALE ASS'Y     CCN000002400000002400FN00000000020220201000002400NNED0420211130144442    1N0N  0000024000000115200000136201200    YCYC    005500360039
BI00B1200    Y022B50081     202201277172-5540-80             SEALED WIRE SEAL         CCN000020000000020000FN00000000020220201000020000NNM   20211130122514    1C0C  0000200000000018600000023441200    YCYC    004300270014
BI00B1200    Y022C50018     202202037116-4112-02             TERMINAL                 CCN000300000000300000FN00000000020220301000300000NNE   20211130122514    4P0P  0000060000000045000000073821200    YCYC    006400630015
BI00A32AF    JTB112H        202112177297-2287-30             HOUSING MALE ASS'Y       CCN000001200000001200FN00000000020211201000001200NNE   20211130122514    4N0N  00000120000000000000000000032AF    HBYHVTB 000000000000
BI00B32B6    A72007         202201287289-4696-30             HOUSING FEMALE ASS'Y     CCN000070000000030000FN00000000020220401000030000NNMD0420211130144542B6  4N0N  00000200000000913400001055432B6    AXARNE-M005400370024
BI00B32B6    A72007         202202047289-4696-30             HOUSING FEMALE ASS'Y     CCN000040000000040000FN00000000020220401000040000NNMD0420211130144542B6  4N0N  00000200000000913400001055432B6    AXARNE-M005400370024
BI00B32CG    S211136-S      202202027116-4025                TERMINAL                 CCN000016000000016000FN00000000020220201000016000NNE   20211130122514    4P0P  00001600000000644800000975132CG    ASASIACO006400630017
BI00B32CG    S211136-S      202202027116-4120-02             TERMINAL                 CCN000012000000012000FN00000000020220201000012000NNE   20211130122514    4P0P  00000600000000780000001073632CG    ASASIACO006400630015
BI00B32CG    #S211137-S     202202167158-3121-80             WIRE SEAL                CNN000080000000080000FN00000000020220201000080000NNE   20211130122514    2C0C  00002000000000118000000187332CG    ASASIACO002700430014
BI00A32CH    SJ21112HMW     202112087327-6872-30             MULTI FUSE               PCN000002304000002304FN00000000020211101000002304NNM00020211130152555    4N0N  00000028800000984500001150432CH    SJSAMIJF005400370024
BI00A32CH    SJ21113HMW     202112087327-6872-30             MULTI FUSE               PCN000002304000002304FN00000000020211101000002304NNM00020211130152613    4N0N  00000028800000984500001150432CH    SJSAMIJF005400370024
BI00A32CH    SJ21114HMW     202112087327-6880-30             MULTI FUSE               PCN000006624000006624FN00000000020211101000006624NNM00020211130152652    4N0N  00000028800001012600001178532CH    SJSAMIJF005400370024
BI00A32DE    #TCT2011       202112077172-5630-40             RUBBER STOPPER           CCN000020000000020000FN00000000020220101000020000NNMM0020211130164352    2H0H  00002000000000044000000095132DE    TVYEV-TV004300270014
BI00B32DE    TCT111C        202112167283-1288-10             CONNECTOR HOUSING        CCN000022800000022800FN00000000020211201000022800NNED0020211130122514    4N0N  00000120000001381000001637032DE    TVYEV-TV005600390040
BI00B32DE    #TCT112A       202111307172-5630-40             RUBBER STOPPER           CCN000020000000020000FY00002000020211201000000000NNE00020211130145341    2H0H  00002000000000044000000095132DE    TVYEV-TV004300270014
BI00B32DE    TCT112B        202112167283-4855-40             CONNECTOR HOUSING        CCN000012000000012000FN00000000020220101000012000NNE   20211130122514    4N0N  00000240000001188400001400032DE    TVYEV-TV005600360039
BI00B32DJ    GHT2112B 1     202112027158-3006-90             RUBBER STOPPER           CCN000240000000240000FN00000000020211201000240000NNM00020211130152729    1C0C  00002000000000330600000386032DJ    RBYIPLRB002700430014
BI00B32DJ    GHT2112B 2     202112027158-3006-90             RUBBER STOPPER           CCN000300000000300000FN00000000020211201000300000NNM00020211130152749    1C0C  00002000000000330600000386032DJ    RBYIPLRB002700430014
BI00B32DJ    GHT2112B 2     202112027158-3009-60             RUBBER STOPPER           CCN000240000000240000FN00000000020211201000240000NNM00020211130152816    1C0C  00002000000000338000000386232DJ    RBYIPLRB002700430014
BI00B32DJ    GHT2201B 1     202112097116-5751-02             TERMINAL                 CCN000108000000060000FN00000000020220101000060000NNMD0420211130141410    4P0P  00001200000000379200000664432DJ    RBYIPLRB006400630015
BI00A32DJ    GHT2201B 1     202112017116-5751-02             TERMINAL                 CCN000048000000048000FN00000000020220101000048000NNMD0420211130141420    4P0P  00001200000000379200000664432DJ    RBYIPLRB006400630015
BI00A32EJ    4500174469     202206067288-6547                CONNECTOR MALE ASS'Y     CCN000040500000000000FY00000000020220101000000000NNEQ0820211130151922EJ  4N0N  00000075000001205300001340332EJ    EJYKBO  005400370024
BI00A32EJ    4500174468     202205027288-6547                CONNECTOR MALE ASS'Y     CCN000040500000000000FY00000000020211201000000000NNEQ0820211130151839EJ  4N0N  00000075000001205300001340332EJ    EJYKBO  005400370024
BI00A32EJ    4500174467     202203217288-6547                CONNECTOR MALE ASS'Y     CCN000040500000000000FY00000000020211101000000000NNEQ0820211130151741EJ  4N0N  00000075000001205300001340332EJ    EJYKBO  005400370024
BI00A32EJ    4500174467     202203287288-6547                CONNECTOR MALE ASS'Y     CCN000020250000000000FY00000000020211101000000000NNED0420211130151741EJ  4N0N  00000075000001205300001340332EJ    EJYKBO  005400370024
BI00A32EJ    4500174468     202205097288-6547                CONNECTOR MALE ASS'Y     CCN000020250000000000FY00000000020211201000000000NNED0220211130151839EJ  4N0N  00000075000001205300001340332EJ    EJYKBO  005400370024
BI00A32EJ    4500174469     202206137288-6547                CONNECTOR MALE ASS'Y     CCN000020250000000000FY00000000020220101000000000NNED0220211130151922EJ  4N0N  00000075000001205300001340332EJ    EJYKBO  005400370024
BI00B32EJ    4500176668     202207187288-6547                CONNECTOR MALE ASS'Y     CCN000031500000000000FY00000000020210701000000000NNEQ0820211130152007EJ  4N0N  00000075000001205300001340332EJ    EJYKBO  005400370024
BI00A32EJ    4500174467     202204047288-6547                CONNECTOR MALE ASS'Y     CCN000007500000000000FY00000000020211101000000000NNED0420211130151741EJ  4N0N  00000075000001205300001340332EJ    EJYKBO  005400370024
BI00A32EJ    4500174467     202204117288-6547                CONNECTOR MALE ASS'Y     CCN000007500000000000FY00000000020211101000000000NNED0420211130151741EJ  4N0N  00000075000001205300001340332EJ    EJYKBO  005400370024
BI00A32EJ    4500174467     202204187288-6547                CONNECTOR MALE ASS'Y     CCN000007500000000000FY00000000020211101000000000NNED0420211130151741EJ  4N0N  00000075000001205300001340332EJ    EJYKBO  005400370024
BI00A32EJ    4500174467     202204257288-6547                CONNECTOR MALE ASS'Y     CCN000007500000000000FY00000000020211101000000000NNED0420211130151741EJ  4N0N  00000075000001205300001340332EJ    EJYKBO  005400370024
BI00A32EJ    4500174467     202205027288-6547                CONNECTOR MALE ASS'Y     CCN000002500000000000FY00000000020211101000000000NNED0420211130151741EJ  4N0N  00000075000001205300001340332EJ    EJYKBO  005400370024
BI00A32EJ    4500174468     202205167288-6547                CONNECTOR MALE ASS'Y     CCN000007500000000000FY00000000020211201000000000NNED0220211130151839EJ  4N0N  00000075000001205300001340332EJ    EJYKBO  005400370024
BI00A32EJ    4500174468     202205237288-6547                CONNECTOR MALE ASS'Y     CCN000007500000000000FY00000000020211201000000000NNED0220211130151839EJ  4N0N  00000075000001205300001340332EJ    EJYKBO  005400370024
BI00A32EJ    4500174468     202205307288-6547                CONNECTOR MALE ASS'Y     CCN000007500000000000FY00000000020211201000000000NNED0220211130151839EJ  4N0N  00000075000001205300001340332EJ    EJYKBO  005400370024
BI00A32EJ    4500174468     202206067288-6547                CONNECTOR MALE ASS'Y     CCN000004500000000000FY00000000020211201000000000NNED0220211130151839EJ  4N0N  00000075000001205300001340332EJ    EJYKBO  005400370024
BI00A32EJ    4500174469     202206207288-6547                CONNECTOR MALE ASS'Y     CCN000007500000000000FY00000000020220101000000000NNED0220211130151922EJ  4N0N  00000075000001205300001340332EJ    EJYKBO  005400370024
BI00A32EJ    4500174469     202206277288-6547                CONNECTOR MALE ASS'Y     CCN000007500000000000FY00000000020220101000000000NNED0220211130151922EJ  4N0N  00000075000001205300001340332EJ    EJYKBO  005400370024
BI00A32EJ    4500174469     202207047288-6547                CONNECTOR MALE ASS'Y     CCN000007500000000000FY00000000020220101000000000NNED0220211130151922EJ  4N0N  00000075000001205300001340332EJ    EJYKBO  005400370024
BI00A32EJ    4500174469     202207117288-6547                CONNECTOR MALE ASS'Y     CCN000007500000000000FY00000000020220101000000000NNED0220211130151922EJ  4N0N  00000075000001205300001340332EJ    EJYKBO  005400370024
BI00B32EJ    4500176668     202207257288-6547                CONNECTOR MALE ASS'Y     CCN000007500000000000FY00000000020210701000000000NNED0720211130152007EJ  4N0N  00000075000001205300001340332EJ    EJYKBO  005400370024
BI00B32EJ    4500176668     202208017288-6547                CONNECTOR MALE ASS'Y     CCN000007500000000000FY00000000020210701000000000NNED0720211130152007EJ  4N0N  00000075000001205300001340332EJ    EJYKBO  005400370024
BI00B32EJ    4500176668     202208087288-6547                CONNECTOR MALE ASS'Y     CCN000007500000000000FY00000000020210701000000000NNED0720211130152007EJ  4N0N  00000075000001205300001340332EJ    EJYKBO  005400370024
BI00B32EJ    4500176668     202208157288-6547                CONNECTOR MALE ASS'Y     CCN000001500000000000FY00000000020210701000000000NNED0720211130152007EJ  4N0N  00000075000001205300001340332EJ    EJYKBO  005400370024
BI00A32EJ    4500173646     202112077288-6547                CONNECTOR MALE ASS'Y     CCN000003750000000750FN00000000020210601000000750NNED0420211130151346EJ  4N0N  00000075000001205300001340332EJ    EJYKBO  005400370024
BI00B32EJ    4500184779     202201137283-5843                CONNECTOR                CCN000021000000010500FN00000000020220101000010500NNED0420211130144715EJ  1N0N  00000150000000889000001132032EJ    EJYKBO  005600390040
BI00B32EJ    4500184920     202201067158-3070-80             RUBBER STOPPER           CCN000040000000040000FN00000000020220101000040000NNE   20211130122514EJ  1C0C  00004000000000276000000333332EJ    EJYKBO  002700430014
BI00B32EJ    4500184921     202201067158-3070-80             RUBBER STOPPER           CCN000040000000040000FN00000000020220101000040000NNE   20211130122514EJ  1C0C  00004000000000276000000333332EJ    EJYKBO  002700430014
BI00B32EJ    4500184922     202201067B58-3070-80             RUBBER STOPPER           CCN000080000000080000FN00000000020220101000080000NNE   20211130122514EJ  1C0C  00004000000000276000000333032EJ    EJYKBO  004300270014
BI00B32EJ    4500184922     202201067116-4100-02             TERMINAL                 CCN000015000000015000FN00000000020220101000015000NNE   20211130122514EJ  4P0P  00001500000000696000000990232EJ    EJYKBO  006400630015
BI00B32EJ    4500184922     202201067158-3070-80             RUBBER STOPPER           CCN000040000000040000FN00000000020220101000040000NNE   20211130122514EJ  1C0C  00004000000000276000000333332EJ    EJYKBO  002700430014
BI00B32EJ    #4500184922    202201067157-3950-80             SEAL RUBBER              CCN000040000000040000FN00000000020220101000040000NNE   20211130122514EJ  2C0C  00004000000000154000000440332EJ    EJYKBO  002700430014
BI00B32EJ    #4500184922    202201067158-3120-90             CONNECTOR WIRE SEAL      CCN000060000000060000FN00000000020220101000060000NNE   20211130122514EJ  2C0C  00002000000000136000000194032EJ    EJYKBO  002700430014
BI00B32EJ    4500184779     202201207283-5843                CONNECTOR                CCN000010500000010500FN00000000020220101000010500NNED0420211130144722EJ  1N0N  00000150000000889000001132032EJ    EJYKBO  005600390040
BI00B32G0    #TZ22012EMW    202112077158-3007-10             RUBBER STOPPER           CCN000120000000120000FN00000000020220101000120000NNMD0020211130152907    2H0H  00002000000000308000000362732G0    TTTJY   002700430014
BI00B32G8    PATA2011       202112087470-5945                J/B COMPLETE ASS'Y       CCN000004200000002860FN00000000020220101000002860NNMD0320211130144945    4J0J  00000001000000494000000661032G8    PSPASI  005400370024
BI00B32G8    PATA2011       202112017470-5945                J/B COMPLETE ASS'Y       CCN000001340000001340FN00000000020220101000001340NNMD0320211130122514    4J0J  00000001000000494000000661032G8    PSPASI  005400370024
BI00B32H7    FS22011DMW     202111297296-1024-02             TERMINAL ALUMINIUM       CCN000054000000054000FY00005400020220101000000000NNM00020211130111109    4P0P  00001800000000698400000983632H7    FYFSY   006400630015
BI00B32J1    QA-21-C125     202112077298-1869-30             HOUSING FEMALE ASS'Y     PNN000010800000010800FN00000000020211201000010800NNE   20211130122514    4N0N  00000120000000737000000939832J1    UKYEL-BL005500360039
BI00B32K8    #K1210013070   202112247137-2718-50             SEALED CONNECTOR         CCN000002000000002000FN00000000020220201000002000NNM   20211130130432    2C0C  00000100000000118300000236632K8    ELELCOM 002700430014
BI00B32N1    NST2114GCU     202112237114-1301                TERMINAL                 CCN000019500000019500FN00000000020220101000019500NNE   20211130142032    4P0P  00001950000000614300000907932N1    TAYIPL  006400630015
BI00B32N1    NST2114GCU     202112237114-4021                TERMINAL                 CCN000015000000015000FN00000000020220101000015000NNE   20211130142032    4P0P  00001500000000670500000964132N1    TAYIPL  006400630015
BI00B32N1    NST2114GCU     202112237116-1180                TERMINAL                 CCN000156000000156000FN00000000020220101000156000NNE   20211130142032    1P0P  00001950000000618200000903432N1    TAYIPL  006400630015
BI00B32N1    NST2114GCU     202112237116-4020                TERMINAL                 CCN000013500000013500FN00000000020220101000013500NNE   20211130142032    4P0P  00001350000000513000000798232N1    TAYIPL  006400630015
BI00B32N1    NST2114GCU     202112237283-5845                CONNECTOR HOUSING        CCN000018000000018000FN00000000020220101000018000NNE   20211130142032    1N0N  00000600000000444000000606332N1    TAYIPL  005400370024
BI00B32N1    NST2114GCU     202112237114-4415-02             TERMINAL MALE            CCN002295000002295000FN00000000020220101002295000NNE   20211130142032    4P0P  00002700000000429300000717532N1    TAYIPL  006400630015
BI00B32N1    NST2114GCU     202112237114-4416-02             TERMINAL MALE            CCN000324000000324000FN00000000020220101000324000NNE   20211130142032    4P0P  00002700000000442800000731032N1    TAYIPL  006400630015
BI00B32N1    NST2114GCU     202112237116-1486-02             TERMINAL                 CCN000016500000016500FN00000000020220101000016500NNE   20211130142032    4P0P  00001650000000655100000940332N1    TAYIPL  006400630015
BI00B32N1    NST2114GCU     202112237116-1685-02             TERMINAL                 CCN000216000000216000FN00000000020220101000216000NNE   20211130142032    4P0P  00002400000000897600001065232N1    TAYIPL  005100280028
BI00B32N1    NST2114GCU     202112237116-4231-02             TERMINAL                 CCN000052000000052000FN00000000020220101000052000NNE   20211130142032    4P0P  00002600000000683800001012532N1    TAYIPL  006400630017
BI00B32N1    NST2114GCU     202112237116-4415-02             TERMINAL                 CCN001710000001710000FN00000000020220101001710000NNE   20211130142032    4P0P  00003800000000596600000925732N1    TAYIPL  006400630017
BI00B32N1    NST2114GCU     202112237116-4780-02             TERMINAL FEMALE          CCN000015000000015000FN00000000020220101000015000NNE   20211130142032    4P0P  00001500000000691500000985732N1    TAYIPL  006400630015
BI00B32N1    NST2114GCU     202112237158-3006-90             RUBBER STOPPER           CCN000060000000060000FN00000000020220101000060000NNE   20211130142032    1C0C  00002000000000330600000386032N1    TAYIPL  002700430014
BI00B32N1    NST2114GCU     202112237158-3165-90             WIRE SEAL                CCN000500000000520000FN00000000020220101000520000NNE   20211130142032    1C0C  00004000000000124000000172432N1    TAYIPL  004300270014
BI00B32N1    NST2114GCU     202112237158-3166-60             WIRE SEAL                CCN001720000001720000FN00000000020220101001720000NNE   20211130142032    1C0C  00004000000000104000000152432N1    TAYIPL  002700430014
BI00B32N1    NST2114GCU     202112237158-3167-80             WIRE SEAL                CCN000840000000840000FN00000000020220101000840000NNE   20211130142032    1C0C  00002000000000048000000109032N1    TAYIPL  002700430014
BI00B32N1    NST2114GCU     202112237158-3169-40             SEALING PLUG             CCN000200000000200000FN00000000020220101000200000NNE   20211130142032    1C0C  00004000000000156000000204132N1    TAYIPL  004300260014
BI00B32N1    NST2114GCU     202112237222-7564-40             CONNECTOR                CCN000002500000002500FN00000000020220101000002500NNE   20211130142032    1N0N  00000050000000967000001097032N1    TAYIPL  005500360039
BI00B32N1    NST2114GCU     202112237282-8120-40             CONNECTOR HOUSING        CCN000044160000045000FN00000000020220101000045000NNE   20211130142032    1N0N  00000300000001356000001520032N1    TAYIPL  005500360039
BI00B32N1    #NST2114GCU    202112237116-4021                TERMINAL                 CCN000027000000027000FN00000000020220101000027000NNE   20211130142030    2F0P  00001350000000534600000868832N1    TAYIPL  006400630015
BI00B32N1    #NST2114GCU    202112237157-3646                RUBBER STOPPER           CCN000060000000060000FN00000000020220101000060000NNE   20211130142030    2H0H  00002000000000184000000255232N1    TAYIPL  002700430014
BI00B32N1    #NST2114GCU    202112237157-7812                SEAL RUBBER              CCN000040000000040000FN00000000020220101000040000NNE   20211130142030    2C0C  00001000000000137000000202032N1    TAYIPL  002700430014
BI00B32N1    #NST2114GCU    202112237157-3950-80             SEAL RUBBER              CCN000240000000240000FN00000000020220101000240000NNE   20211130142030    2C0C  00004000000000154000000440332N1    TAYIPL  002700430014
BI00B32N1    #NST2114GCU    202112237157-3952-80             RUBBER STOPPER           CCN000040000000040000FN00000000020220101000040000NNE   20211130142030    2C0C  00001000000000117000000175032N1    TAYIPL  002700430014
BI00B32N1    #NST2114GCU    202112237158-3005-80             RUBBER STOPPER           CCN000006000000020000FN00000000020220101000020000NNE   20211130142030    2H0H  00002000000000210000000268732N1    TAYIPL  002700430014
BI00B32N1    #NST2114GCU    202112237158-3121-80             WIRE SEAL                CCN000080000000080000FN00000000020220101000080000NNE   20211130142030    2C0C  00002000000000118000000187332N1    TAYIPL  002700430014
BI00B32N1    #NST2114GCU    202112237183-7725-40             HOUSING                  CCN000006000000006000FN00000000020220101000006000NNE   20211130142030    2F0F  00000600000000840000001040032N1    TAYIPL  005600390040
BI00B32N1    #NST2114GCU    202112237283-8730-30             HOUSING FEMALE ASS'Y     CCN000001000000002000FN00000000020220101000002000NNE   20211130142030    2N0N  00000200000000794000000906532N1    TAYIPL  005400370024
BI00B32N1    NST2114ICU     202112237283-1289                CONNECTOR HOUSING        CCN000009600000004800FN00000000020220101000004800NNED0720211130183627    1N0N  00000060000000676200000817632N1    TAYIPL  005400370024
BI00B32N1    NST2114ICU     202201207283-1289                CONNECTOR HOUSING        CCN000004800000004800FN00000000020220101000004800NNED0620211130183627    1N0N  00000060000000676200000817632N1    TAYIPL  005400370024
BI00B32N2    2152103692     202112237114-4020                TERMINAL                 CCN000147000000147000FN00000000020220101000147000NNM   20211130130554    4P0P  00002100000000875700001169332N2    YWYIPLTC006400630015
BI00B32N2    2152103692     202112237114-4021                TERMINAL                 CCN000030000000030000FN00000000020220101000030000NNM   20211130130554    4P0P  00001500000000670500000964132N2    YWYIPLTC006400630015
BI00B32N2    2152103692     202112237114-4032                TERMINAL                 CCN000015000000015000FN00000000020220101000015000NNM   20211130130554    4P0P  00000750000000735000001063632N2    YWYIPLTC006400630017
BI00B32N2    2152103692     202112237116-1301                TERMINAL                 CCN000015000000015000FN00000000020220101000015000NNM   20211130130554    4P0P  00001500000000487500000772732N2    YWYIPLTC006400630015
BI00B32N2    2152103692     202112237116-1471                TERMINAL                 CCN000015000000015000FN00000000020220101000015000NNM   20211130130554    4P0P  00001500000000579000000867232N2    YWYIPLTC006400630015
BI00B32N2    2152103692     202112237116-4022                TERMINAL                 CCN000027000000027000FN00000000020220101000027000NNM   20211130130554    4P0P  00001350000000618300000903532N2    YWYIPLTC006400630015
BI00B32N2    2152103692     202112237116-4025                TERMINAL                 CCN000016000000016000FN00000000020220101000016000NNM   20211130130554    4P0P  00001600000000644800000975132N2    YWYIPLTC006400630017
BI00B32N2    2152103692     202112237116-4032                TERMINAL                 CCN000036000000036000FN00000000020220101000036000NNM   20211130130554    4P0P  00000600000000532800000818032N2    YWYIPLTC006400630015
BI00B32N2    2152103692     202112237116-6041                TERMINAL                 CCN000004500000004500FN00000000020220101000004500NNM   20211130130554    4P0P  00000450000000716000001009632N2    YWYIPLTC006400630015
BI00B32N2    2152103692     202112237183-2417                CONNECTOR HOUSING        CCN000004800000004800FN00000000020220101000004800NNM   20211130130554    4F0F  00000240000001137400001297732N2    YWYIPLTC005500360039
BI00B32N2    2152103692     202112237283-1144                CONNECTOR                CCN000002400000002400FN00000000020220101000002400NNM   20211130130554    4N0N  00000240000000602200000866132N2    YWYIPLTC005500360039
BI00B32N2    2152103692     202112237283-5846                HOUSING                  CCN000003000000003000FN00000000020220101000003000NNM   20211130130554    1N0N  00000150000000885000001102032N2    YWYIPLTC005600390040
BI00B32N2    2152103692     202112237286-3970                CONNECTOR HOUSING        CCN000002530000002530FN00000000020220101000002530NNM   20211130130554    1N0N  00000011000000977300001164032N2    YWYIPLTC005500360039
BI00B32N2    2152103692     202112237370-0309                J/B ASS'Y                CCN000002256000002256FN00000000020220101000002256NNM   20211130130554    1J0J  00000001600000870400001260032N2    YWYIPLTC005500360039
BI00B32N2    2152103692     202112237114-4231-02             TERMINAL                 CCN000108000000108000FN00000000020220101000108000NNM   20211130130554    4P0P  00001800000000554400000848032N2    YWYIPLTC006400630015
BI00B32N2    2152103692     202112237116-2891-02             TERMINAL                 CCN000015000000015000FN00000000020220101000015000NNM   20211130130554    4P0P  00001500000000982500001145932N2    YWYIPLTC005100280028
BI00B32N2    2152103692     202112237116-2893-02             TERMINAL                 CCN000024000000024000FN00000000020220101000024000NNM   20211130130554    4P0P  00001200000000895200001058632N2    YWYIPLTC005100280028
BI00B32N2    2152103692     202112237116-4231-02             TERMINAL                 CCN000182000000182000FN00000000020220101000182000NNM   20211130130554    4P0P  00002600000000683800001012532N2    YWYIPLTC006400630017
BI00B32N2    2152103692     202112237126-8853-02             TERMINAL                 CCN000015000000015000FN00000000020220101000015000NNM   20211130130554    4P0P  00000750000000562500000847732N2    YWYIPLTC006400630015
BI00B32N2    2152103692     202112237126-8854-02             TERMINAL                 CCN000007500000007500FN00000000020220101000007500NNM   20211130130554    4P0P  00000750000000604500000889732N2    YWYIPLTC006400630015
BI00B32N2    2152103692     202112237126-8855-02             TERMINAL                 CCN000006000000006000FN00000000020220101000006000NNM   20211130130554    4P0P  00000600000000510600000795832N2    YWYIPLTC006400630015
BI00B32N2    2152103692     202112237140-1977-30             UPPER COVER              CCN000001940000001940FN00000000020220101000001940NNM   20211130130554    1F0F  00000001000000099500000249532N2    YWYIPLTC005600390040
BI00B32N2    #2152103692    202112237114-4022                TERMINAL                 CCN000015000000015000FN00000000020220101000015000NNM   20211130130548    2F0P  00001500000000708000001120632N2    YWYIPLTC006400630015
BI00B32N2    #2152103692    202112237157-3646                RUBBER STOPPER           CCN000020000000020000FN00000000020220101000020000NNM   20211130130548    2H0H  00002000000000184000000255232N2    YWYIPLTC002700430014
BI00B32N2    #2152103692    202112237157-3821                RUBBER STOPPER           CCN000020000000020000FN00000000020220101000020000NNM   20211130130548    2C0C  00002000000000176000000238032N2    YWYIPLTC002700430014
BI00B32N2    #2152103692    202112237173-1070                CONNECTOR BRACKET        CCN000002400000002400FN00000000020220101000002400NNM   20211130130548    2F0F  00000120000000592400000968332N2    YWYIPLTC005500360039
BI00B32N2    #2152103692    202112237173-1071                BRACKET                  CCN000002400000002400FN00000000020220101000002400NNM   20211130130548    2F0F  00000120000001156800001388232N2    YWYIPLTC005600390040
BI00B32N2    #2152103692    202112237173-1516                SIDE BRACKET             CCN000002400000002400FN00000000020220101000002400NNM   20211130130548    2F0F  00000060000000960000001090032N2    YWYIPLTC005500360039
BI00B32N2    #2152103692    202112237174-0152                CONNECTOR                CCN000002450000002450FN00000000020220101000002450NNM   20211130130548    2F0F  00000035000000746400000918632N2    YWYIPLTC005500360039
BI00B32N2    #2152103692    202112237183-2412                HOUSING                  CCN000001600000001600FN00000000020220101000001600NNM   20211130130548    2F0F  00000160000001059200001245632N2    YWYIPLTC005500360039
BI00B32N2    #2152103692    202112237183-2414                CONNECTOR HOUSING        CCN000004800000004800FN00000000020220101000004800NNM   20211130130548    2F0F  00000480000000779200001061032N2    YWYIPLTC005500360039
BI00B32N2    #2152103692    202112237183-2511                HOUSING                  CCN000003200000003200FN00000000020220101000003200NNM   20211130130548    2F0F  00000160000000972200001242132N2    YWYIPLTC005500360039
BI00B32N2    #2152103692    202112237183-6320                HOUSING                  CCN000004800000004800FN00000000020220101000004800NNM   20211130130548    2F0F  00000480000000820800001103632N2    YWYIPLTC005500360039
BI00B32N2    #2152103692    202112237186-3971                CONNECTOR HOUSING        CCN000002400000002400FN00000000020220101000002400NNM   20211130130548    2F0F  00000240000001002200001191432N2    YWYIPLTC005500360039
BI00B32N2    #2152103692    202112237186-3973                CONNECTOR HOUSING        CCN000002400000002400FN00000000020220101000002400NNM   20211130130548    2F0F  00000240000001061800001232932N2    YWYIPLTC005500360039
BI00B32N2    #2152103692    202112237187-3356                JOINT CONNECTOR          CCN000015600000015600FN00000000020220101000015600NNM   20211130130548    2F0F  00000120000000759600001024432N2    YWYIPLTC005600390040
BI00B32N2    #2152103692    202112237187-3360                JOINT CONNECTOR          CCN000013200000013200FN00000000020220101000013200NNM   20211130130548    2F0F  00000120000000759600001026832N2    YWYIPLTC005600390040
BI00B32N2    #2152103692    202112237187-3970                CONNECTOR FLAME          CCN000001840000001840FN00000000020220101000001840NNM   20211130130548    2F0F  00000036800001414000001737332N2    YWYIPLTC005600390040
BI00B32N2    #2152103692    202112237187-3971                CONNECTOR HOUSING        CCN000002400000002400FN00000000020220101000002400NNM   20211130130548    2F0F  00000240000000928300001099532N2    YWYIPLTC005500360039
BI00B32N2    #2152103692    202112237187-3973                CONNECTOR HOUSING        CCN000002400000002400FN00000000020220101000002400NNM   20211130130548    2F0F  00000240000000901900001073132N2    YWYIPLTC005500360039
BI00B32N2    #2152103692    202112237282-3020                CONNECTOR                CCN000002000000002000FN00000000020220101000002000NNM   20211130130548    2N0N  00000100000000984000001145432N2    YWYIPLTC005500360039
BI00B32N2    #2152103692    202112237140-1978-30             LOWER COVER              CCN000001912000001912FN00000000020220101000001912NNM   20211130130548    2F0F  00000000800000207100000395132N2    YWYIPLTC005500360039
BI00B32N2    #2152103692    202112237186-3974-30             CONNECTOR HOUSING        CCN000002400000002400FN00000000020220101000002400NNM   20211130130548    2F0F  00000240000001062200001233432N2    YWYIPLTC005500360039
BI00B32N2    #2152103692    202112237186-3975-80             CONNECTOR HOUSING        CCN000002400000002400FN00000000020220101000002400NNM   20211130130548    2F0F  00000240000001065100001236332N2    YWYIPLTC005500360039
BI00B32N2    #2152103692    202112237186-3976-60             CONNECTOR HOUSING        CCN000002400000002400FN00000000020220101000002400NNM   20211130130548    2F0F  00000240000001065100001236332N2    YWYIPLTC005500360039
BI00B32N2    #2152103692    202112237186-3977-90             CONNECTOR HOUSING        CCN000002400000002400FN00000000020220101000002400NNM   20211130130548    2F0F  00000240000001068200001239432N2    YWYIPLTC005500360039
BI00B32N2    #2152103692    202112237187-3358-30             JOINT CONNECTOR          CCN000002400000002400FN00000000020220101000002400NNM   20211130130548    2F0F  00000120000000673200000940432N2    YWYIPLTC005600390040
BI00B32N2    #2152103692    202112237187-3975-80             CONNECTOR HOUSING        CCN000002400000002400FN00000000020220101000002400NNM   20211130130548    2F0F  00000240000000915800001087032N2    YWYIPLTC005500360039
BI00B32N2    #2152103692    202112237187-3976-60             CONNECTOR HOUSING        CCN000002400000002400FN00000000020220101000002400NNM   20211130130548    2F0F  00000240000000902200001073332N2    YWYIPLTC005500360039
BI00B32N2    @2152103692    202112237183-3190                JOINT CONNECTOR          CCN000018000000018000FN00000000020220101000018000NNM   20211130130550    3F0F  00000360000000457600000667832N2    YWYIPLTC005500360039
BI00B32N2    @2152103692    202112237283-1100                CONNECTOR ASS'Y          CCN000004800000004800FN00000000020220101000004800NNM   20211130130550    3N0N  00000160000000566500000799632N2    YWYIPLTC005500360039
BI00A32Q8    #EU22011 MW    202112017183-2413                CONNECTOR HOUSING        CCN000004800000004800FN00000000020220101000004800NNM00020211130122514    2F0F  00000480000000478100000760032Q8    EMEMI   005500360039
BI00A32Q8    #EU22012TMW    202112017183-2412-90             HOUSING                  CCN000001600000001600FN00000000020220101000001600NNMM0020211130122514    2F0F  00000160000001065300001224432Q8    EMEMI   005500360039
BI00A32Q8    #EU2201A MW    202112017183-2412-30             HOUSING                  CCN000001600000001600FN00000000020220101000001600NNEM0020211130122514    2F0F  00000160000001059700001059732Q8    EMEMI   005500360039
BI00A32Q8    @EU2201A MW    202112017282-1148                CONNECTOR ASS'Y          CCN000000800000000800FN00000000020220101000000800NNEM0020211130182718    3N0N  00000080000001165300001404032Q8    EMEMI   005500360039
BI00B32Q8    EU2201ATMW     202112157287-1917-30             CONNECTOR FEMALE         CCN000031200000000000FY00000000020220101000000000NNEQ0420211130084934    4N0N  00000240000001060800001312532Q8    EMEMI   005500360039
BI00B32Q8    EU2201ATMW     202112227287-1917-30             CONNECTOR FEMALE         CCN000016800000009600FN00000000020220101000009600NNED0220211130122514    4N0N  00000240000001060800001312532Q8    EMEMI   005500360039
BI00B32Q8    EU22021TMW     202201127116-5750-02             TERMINAL                 CCN000120000000045000FN00000000020220201000045000NNMD0420211130141749    4P0P  00001500000000457500000742732Q8    EMEMI   006400630015
BI00A32Q8    #EU22021TMW    202112017125-3236-30             HEAD LAMP CONNECTOR      CCN000002800000002800FN00000000020220201000002800NNMM0020211130122514    2F0F  00000280000000945000001085932Q8    EMEMI   005500360039
BI00A32Q8    EU22011TMW     202112017282-4578                HOUSING MALE ASS'Y       CCN000001200000001200FN00000000020220101000001200NNMM0020211130165531    4N0N  00000120000000782600000992632Q8    EMEMI   005500360039
BI00B32Q8    EU2201ATMW     202202027287-1917-30             CONNECTOR FEMALE         CCN000004800000004800FN00000000020220101000004800NNED0620211130122514    4N0N  00000240000001060800001312532Q8    EMEMI   005500360039
BI00B32Q8    EU2201ATMW     202202097287-1917-30             CONNECTOR FEMALE         CCN000002400000002400FN00000000020220101000002400NNED0620211130122514    4N0N  00000240000001060800001312532Q8    EMEMI   005500360039
BI00B32Q8    EU2201ATMW     202202167287-1917-30             CONNECTOR FEMALE         CCN000002400000002400FN00000000020220101000002400NNED0620211130122514    4N0N  00000240000001060800001312532Q8    EMEMI   005500360039
BI00B32Q8    EU2201ATMW     202202237287-1917-30             CONNECTOR FEMALE         CCN000002400000002400FN00000000020220101000002400NNED0620211130122514    4N0N  00000240000001060800001312532Q8    EMEMI   005500360039
BI00B32Q8    EU2201ATMW     202203027287-1917-30             CONNECTOR FEMALE         CCN000004800000004800FN00000000020220101000004800NNED0620211130122514    4N0N  00000240000001060800001312532Q8    EMEMI   005500360039
BI00B32Q8    EU2201ATMW     202203097287-1917-30             CONNECTOR FEMALE         CCN000004800000004800FN00000000020220101000004800NNED0620211130122514    4N0N  00000240000001060800001312532Q8    EMEMI   005500360039
BI00A32Q8    EU22021TMW     202112017116-5750-02             TERMINAL                 CCN000075000000075000FN00000000020220201000075000NNMM0020211130144620    4P0P  00001500000000457500000742732Q8    EMEMI   006400630015
BI00B32R7    R-TAP210591    202112167116-1471                TERMINAL                 CCN000060000000060000FN00000000020220101000060000NNE   20211130122514    4P0P  00001500000000579000000867232R7    IVYCIC  006400630015
BI00B32R7    #R-TAP210591   202112167158-3007-10             RUBBER STOPPER           CCN000020000000020000FN00000000020220101000020000NNE   20211130122514    2H0H  00002000000000308000000362732R7    IVYCIC  002700430014
BI00B32R7    R-TAP210592    202112237158-3169-40             SEALING PLUG             CCN000320000000320000FN00000000020220101000320000NNE   20211130122514    1C0C  00004000000000156000000204132R7    IVYCIC  004300260014
BI00A32U5    #DI2002        202112017172-5627-60             RUBBER STOPPER           CCN000200000000200000FN00000000020220201000200000NNM00020211130152350U5  2H0H  00002000000000070400000121832U5    AMAMSD  004300270014
BI00A32U5    #DI2002        202112017172-5631-60             RUBBER STOPPER           CCN000180000000180000FN00000000020220201000180000NNM00020211130152408U5  2H0H  00002000000000042000000093132U5    AMAMSD  004300270014
BI00A32U5    #DI2003        202112017172-5631-60             RUBBER STOPPER           CCN000220000000220000FN00000000020220301000220000NNM00020211130152430U5  2H0H  00002000000000042000000093132U5    AMAMSD  004300270014
BI00B32U5    DI2007         202201147287-1915-40             CONNECTOR ASS'Y          CCN000004800000002400FN00000000020220401000002400NNMD0420211130144825U5  4N0N  00000240000000666500000923132U5    AMAMSD  005500360039
BI00B32U5    DI2007         202201217287-1915-40             CONNECTOR ASS'Y          CCN000002400000002400FN00000000020220401000002400NNMD0420211130144831U5  4N0N  00000240000000666500000923132U5    AMAMSD  005500360039
BI00A32W4    4500183827     202112097283-6448-40             CONNECTOR                CCN000003000000003000FN00000000020220101000003000NNED0020211130131507W4464N0N  00000150000001087000001329032W446  HJYHK   005600390040
BI00B32W4    4500184693     202112167116-4111-02             TERMINAL                 CCN011925000001192500FN00000000020211201001192500NNEQ0020211130131153W46 4P0P  00000750000000529500000817732W46   HJYHK   006400630015
BI00B32W4    4500184819     202201207116-1685-02             TERMINAL                 CCN000048000000048000FN00000000020220101000048000NNE   20211130122514W4594P0P  00002400000000897600001065232W459  HJYHK   005100280028
BI00B32W4    4500184819     202201207126-8853-02             TERMINAL                 CCN000060000000060000FN00000000020220101000060000NNE   20211130122514W4594P0P  00000750000000562500000847732W459  HJYHK   006400630015
BI00B32W4    4500184819     202201207126-8854-02             TERMINAL                 CCN000037500000037500FN00000000020220101000037500NNE   20211130122514W4594P0P  00000750000000604500000889732W459  HJYHK   006400630015
BI00B32W4    4500184819     202201207116-2892-02             TERMINAL                 CCN000012000000012000FN00000000020220101000012000NNE   20211130122514W4594P0P  00001200000000818400000981832W459  HJYHK   005100280028
BI00B32W4    4500184819     202201207116-2893-02             TERMINAL                 CCN000024000000024000FN00000000020220101000024000NNE   20211130122514W4594P0P  00001200000000895200001058632W459  HJYHK   005100280028
BI00B32W4    4500184819     202201207289-9553-30             SEALED ASSY FEMALE       CCN000029400000029400FN00000000020220101000029400NNE   20211130122514W4594N0N  00000294000001109000001521532W459  HJYHK   005500360039
BI00B32W4    4500184819     202201207283-7029-40             CONNECTOR                CCN000024000000024000FN00000000020220101000024000NNE   20211130122514W4591N0N  00000600000001026000001200032W459  HJYHK   005600390023
BI00B32W4    4500184819     202201207158-3006-90             RUBBER STOPPER           CCN000080000000080000FN00000000020220101000080000NNE   20211130122514W4591C0C  00002000000000330600000386032W459  HJYHK   002700430014
BI00B32W4    #4500184819    202201207282-1030                CONNECTOR MALE ASS'Y     CCN000004000000004000FN00000000020220101000004000NNE   20211130122514W4592N0N  00000100000000365000000487532W459  HJYHK   005400370024
BI00B32W4    #4500184819    202201207157-3821                RUBBER STOPPER           CCN000060000000060000FN00000000020220101000060000NNE   20211130122514W4592C0C  00002000000000176000000238032W459  HJYHK   002700430014
BI00B32W4    #4500184820    202112237157-3821                RUBBER STOPPER           CCN000020000000020000FN00000000020211201000020000NNE   20211130122514W4592C0C  00002000000000176000000238032W459  HJYHK   002700430014
BI00B32W4    4500184821     202112237116-1685-02             TERMINAL                 CCN000072000000072000FN00000000020211201000072000NNE   20211130122514W4594P0P  00002400000000897600001065232W459  HJYHK   005100280028
BI00B32W4    4500184821     202112237126-8853-02             TERMINAL                 CCN000135000000135000FN00000000020211201000135000NNE   20211130122514W4594P0P  00000750000000562500000847732W459  HJYHK   006400630015
BI00B32W4    4500184821     202112237126-8854-02             TERMINAL                 CCN000045000000045000FN00000000020211201000045000NNE   20211130122514W4594P0P  00000750000000604500000889732W459  HJYHK   006400630015
BI00B32W4    4500184821     202112237126-8855-02             TERMINAL                 CCN000036000000036000FN00000000020211201000036000NNE   20211130122514W4594P0P  00000600000000510600000795832W459  HJYHK   006400630015
BI00B32W4    4500184821     202112237116-1686-02             TERMINAL                 CCN000063000000063000FN00000000020211201000063000NNE   20211130122514W4594P0P  00002100000000869400001021632W459  HJYHK   005100280028
BI00B32W4    4500184821     202112237116-2892-02             TERMINAL                 CCN000048000000048000FN00000000020211201000048000NNE   20211130122514W4594P0P  00001200000000818400000981832W459  HJYHK   005100280028
BI00B32W4    4500184821     202112237116-2893-02             TERMINAL                 CCN000072000000072000FN00000000020211201000072000NNE   20211130122514W4594P0P  00001200000000895200001058632W459  HJYHK   005100280028
BI00B32W4    4500184821     202112237283-7029-40             CONNECTOR                CCN000012000000012000FN00000000020211201000012000NNE   20211130122514W4591N0N  00000600000001026000001200032W459  HJYHK   005600390023
BI00B32W4    4500184884     202203107114-4112-02             TERMINAL                 CCN000018000000018000FN00000000020220301000018000NNE   20211130122514W48 4P0P  00000900000000598500000927132W48   HJYHK   006400630017
BI00B32W4    4500184884     202203107114-4111-02             TERMINAL                 CCN000012000000012000FN00000000020220301000012000NNE   20211130122514W48 4P0P  00001200000000758400001087032W48   HJYHK   006400630017
BI00B32W4    4500184885     202202107116-4104-02             TERMINAL                 CCN000012000000012000FN00000000020220201000012000NNE   20211130122514W48 4P0P  00001200000000580800000972432W48   HJYHK   006400630015
BI00B32W4    4500184886     202201277116-4120-02             TERMINAL                 CCN000006000000006000FN00000000020220101000006000NNE   20211130122514W48 4P0P  00000600000000780000001073632W48   HJYHK   006400630015
BI00B32W4    4500184886     202201277116-4121-02             TERMINAL                 CCN000013500000013500FN00000000020220101000013500NNE   20211130122514W48 4P0P  00000450000000618800000912432W48   HJYHK   006400630015
BI00B32W4    4500184886     202201277158-3166-60             WIRE SEAL                CCN000080000000080000FN00000000020220101000080000NNE   20211130122514W48 1C0C  00004000000000104000000152432W48   HJYHK   002700430014
BI00B32W4    #4500184886    202201277123-6423-30             CONNECTOR                CCN000002000000002000FN00000000020220101000002000NNE   20211130122514W48 2F0F  00000200000001002000001167632W48   HJYHK   005600390023
BI00B32W4    @4500184886    202201277123-4312-80             HOUSING                  CCN000002400000002400FN00000000020220101000002400NNE   20211130122514W48 3F0F  00000080000000644200000794032W48   HJYHK   005500360039
BI00B32W4    4500184887     202201207116-4120-02             TERMINAL                 CCN000006000000006000FN00000000020220101000006000NNE   20211130122514W48 4P0P  00000600000000780000001073632W48   HJYHK   006400630015
BI00B32W4    4500184887     202201207116-1230                TERMINAL                 CCN000013500000013500FN00000000020220101000013500NNE   20211130122514W48 4P0P  00001350000000664200000952432W48   HJYHK   006400630015
BI00B32W4    4500184887     202201207116-4122-02             TERMINAL                 CCN000004500000004500FN00000000020220101000004500NNE   20211130122514W48 4P0P  00000450000000656600000950232W48   HJYHK   006400630015
BI00B32W4    4500184887     202201207116-4025                TERMINAL                 CCN000016000000016000FN00000000020220101000016000NNE   20211130122514W48 4P0P  00001600000000644800000975132W48   HJYHK   006400630017
BI00B32W4    4500184887     202201207116-4121-02             TERMINAL                 CCN000018000000018000FN00000000020220101000018000NNE   20211130122514W48 4P0P  00000450000000618800000912432W48   HJYHK   006400630015
BI00B32W4    4500184887     202201207158-3006-90             RUBBER STOPPER           CCN000020000000020000FN00000000020220101000020000NNE   20211130122514W48 1C0C  00002000000000330600000386032W48   HJYHK   002700430014
BI00B32W4    4500184887     202201207158-3166-60             WIRE SEAL                CCN000040000000040000FN00000000020220101000040000NNE   20211130122514W48 1C0C  00004000000000104000000152432W48   HJYHK   002700430014
BI00B32W4    4500184887     202201207222-6244-40             CONNECTOR                CCN000001600000001600FN00000000020220101000001600NNE   20211130122514W48 4N0N  00000080000001239200001422032W48   HJYHK   005600390040
BI00B32W4    4500184887     202201207289-7615-30             HOUSING FEMALE ASS'Y     CCN000001600000001600FN00000000020220101000001600NNE   20211130122514W48 4N0N  00000032000000738000000948032W48   HJYHK   005400370024
BI00B32W4    4500184887     202201207283-1156                CONNECTOR                CCN000000800000000800FN00000000020220101000000800NNE   20211130122514W48 4N0N  00000080000000877600001078032W48   HJYHK   005600390040
BI00B32W4    #4500184887    202201207123-6423-30             CONNECTOR                CCN000002000000002000FN00000000020220101000002000NNE   20211130122514W48 2F0F  00000200000001002000001167632W48   HJYHK   005600390023
BI00B32W4    #4500184887    202201207183-2418                CONNECTOR HOUSING        CCN000004800000004800FN00000000020220101000004800NNE   20211130122514W48 2F0F  00000480000000917000001477032W48   HJYHK   005500360039
BI00B32W4    @4500184887    202201207123-4312-80             HOUSING                  CCN000004000000004000FN00000000020220101000004000NNE   20211130122514W48 3F0F  00000080000000644200000794032W48   HJYHK   005500360039
BI00B32W4    4500184888     202201137116-4122-02             TERMINAL                 CCN000004500000004500FN00000000020220101000004500NNE   20211130122514W48 4P0P  00000450000000656600000950232W48   HJYHK   006400630015
BI00B32W4    4500184888     202201137116-4121-02             TERMINAL                 CCN000004500000004500FN00000000020220101000004500NNE   20211130122514W48 4P0P  00000450000000618800000912432W48   HJYHK   006400630015
BI00B32W4    4500184888     202201137158-3166-60             WIRE SEAL                CCN000040000000040000FN00000000020220101000040000NNE   20211130122514W48 1C0C  00004000000000104000000152432W48   HJYHK   002700430014
BI00B32W4    4500184888     202201137222-6244-40             CONNECTOR                CCN000002400000002400FN00000000020220101000002400NNE   20211130122514W48 4N0N  00000080000001239200001422032W48   HJYHK   005600390040
BI00B32W4    4500184888     202201137289-7615-30             HOUSING FEMALE ASS'Y     CCN000001280000001280FN00000000020220101000001280NNE   20211130122514W48 4N0N  00000032000000738000000948032W48   HJYHK   005400370024
BI00B32W4    4500184888     202201137172-1372-10             FRONT HOLDER             CCN000003900000003900FN00000000020220101000003900NNE   20211130122514W48 4F0F  00000390000000655200000955232W48   HJYHK   005500360039
BI00B32W4    @4500184888    202201137123-4312-80             HOUSING                  CCN000000800000000800FN00000000020220101000000800NNE   20211130122514W48 3F0F  00000080000000644200000794032W48   HJYHK   005500360039
BI00B32W4    4500184889     202201067116-4122-02             TERMINAL                 CCN000004500000004500FN00000000020220101000004500NNE   20211130122514W48 4P0P  00000450000000656600000950232W48   HJYHK   006400630015
BI00B32W4    4500184889     202201067158-3166-60             WIRE SEAL                CCN000040000000040000FN00000000020220101000040000NNE   20211130122514W48 1C0C  00004000000000104000000152432W48   HJYHK   002700430014
BI00B32W4    4500184889     202201067222-6244-40             CONNECTOR                CCN000000800000000800FN00000000020220101000000800NNE   20211130122514W48 4N0N  00000080000001239200001422032W48   HJYHK   005600390040
BI00B32W4    #4500184890    202112237158-3003-90             RUBBER STOPPER           CCN000040000000040000FN00000000020211201000040000NNE   20211130122514W48 2C0C  00002000000000250000000306032W48   HJYHK   002700430014
BI00A32W4    4500184898     202201257158-3167-80             WIRE SEAL                CCN000080000000080000FN00000000020220101000080000NNE   20211130122514W9151C0C  00002000000000048000000109032W915  HJYHK   002700430014
BI00B32W4    4500184905     202112217158-3006-90             RUBBER STOPPER           CCN000020000000020000FN00000000020211201000020000NNE   20211130122514W42 1C0C  00002000000000330600000386032W42   HJYHK   002700430014
BI00B32W4    #4500184905    202112217157-3950-80             SEAL RUBBER              CCN000040000000040000FN00000000020211201000040000NNE   20211130122514W42 2C0C  00004000000000154000000440332W42   HJYHK   002700430014
BI00B32W4    #4500184905    202112217157-7812                SEAL RUBBER              CCN000030000000030000FN00000000020211201000030000NNE   20211130122514W42 2C0C  00001000000000137000000202032W42   HJYHK   002700430014
BI00A32W4    #4500184917    202203037157-3821                RUBBER STOPPER           CCN000020000000020000FN00000000020220301000020000NNE   20211130122514W43 2C0C  00002000000000176000000238032W43   HJYHK   002700430014
BI00B32W6    SW2112CQMW     202112087298-3822-70             HOUSING FEMALE ASS'Y     CCN000017640000017640FN00000000020211201000017640NNED0320211130122514    4N0N  00000252000000776200001077032W6    SYSYA-WJ005500360039
BI00B32W9    4500184816     202112217283-7028-30             CONNECTOR                CCN000012000000012000FN00000000020211201000012000NNE   20211130122514W9  4N0N  00000300000001452000001681332W9    HKYHK   005600390040
BI00B32W9    4500184909     202201117114-4231-02             TERMINAL                 CCN000036000000036000FN00000000020220101000036000NNE   20211130122514W9  4P0P  00001800000000554400000848032W9    HKYHK   006400630015
BI00B32W9    4500184911     202112147158-3006-90             RUBBER STOPPER           CCN000040000000040000FN00000000020211201000040000NNE   20211130122514W9  1C0C  00002000000000330600000386032W9    HKYHK   002700430014
BI00B32X5    TIB2007        202202047289-6547                HOUSING FEMALE ASS'Y     CCN000021600000021600FN00000000020220401000021600NNMD0420211130144914X5  1N0N  00000240000001152000001362032X5    EPYNA-E 005500360039
BI00B32Y5    TTA31116       202112077289-6547                HOUSING FEMALE ASS'Y     CCN000016800000016800FN00000000020211101000016800NNED0420211130151239    1N0N  00000240000001152000001362032Y5    BZYBL   005500360039
BI00B32Y5    TAT32041       202202017116-3153-02             TERMINAL FEMALE          CCN003837000003861000FN00000000020220401003861000NNM   20211130122514    4P0P  00002700000000459000000744232Y5    BZYBL   006400630015
BI00B32Y5    TAT32041       202202017116-3154-02             TERMINAL FEMALE          CCN000216000000216000FN00000000020220401000216000NNM   20211130122514    4P0P  00002700000000469800000755032Y5    BZYBL   006400630015
BI00B32Y5    TAT32041       202202017196-1325-02             TERMINAL FEMALE          CCN000200000000240000FN00000000020220401000240000NNM   20211130122514    4P0P  00006000000000450000000778732Y5    BZYBL   006400630017
BI00B32Y5    TAT32041       202202017196-1326-02             TERMINAL FEMALE          CCN000800000000840000FN00000000020220401000840000NNM   20211130122514    4P0P  00006000000000456000000784732Y5    BZYBL   006400630017
BI00B32Y5    TAT32041       202202017196-1327-02             TERMINAL FEMALE          CCN000015000000052000FN00000000020220401000052000NNM   20211130122514    4P0P  00005200000000336000000739532Y5    BZYBL   006400630017
BI00B32Y6    STAP32031      202112027270-8994                6P MODULE ASSEMBLY       CCN000010400000010400FN00000000020220301000010400NNMD0020211130122514    4J0J  00000010000001098600001298632Y6    BSYBL-S 005400370024
BI00B32Y6    STAP32041      202201067B72-5540-80             SEALED WIRE SEAL         CCN000040000000040000FN00000000020220401000040000NNM   20211130122514    1C0C  00002000000000186000000234432Y6    BSYBL-S 004300270014
BI00B32Y6    STAP32041      202201067B74-1849-70             COVER                    CCN000025000000025000FN00000000020220401000025000NNM   20211130122514    1F0F  00002500000000622500000761932Y6    BSYBL-S 005400370024
BI00B32Y6    STAP32041      202201067B96-0805-02             TERMINAL FEMALE          CCN000022500000022500FN00000000020220401000022500NNM   20211130122514    4P0P  00002250000000558000000843232Y6    BSYBL-S 006400630015
BI00B32Y6    STAP32041      202201067C98-1145-4W             SQUIB SUB ASS'Y          CCN000020000000020000FN00000000020220401000020000NNM   20211130122514    4N0N  00001000000000787900000944932Y6    BSYBL-S 005400370024
BI00B32Y6    STAP32041      202201067017-1180-02             TERMINAL                 CCN000072000000072000FN00000000020220401000072000NNM   20211130122514    4P0P  00007200000001065600001229032Y6    BSYBL-S 005100280028
BI00B32Y6    STAP32041      202201067116-1685-02             TERMINAL                 CCN000336000000336000FN00000000020220401000336000NNM   20211130122514    4P0P  00002400000000897600001065232Y6    BSYBL-S 005100280028
BI00B32Y6    STAP32041      202201067116-1686-02             TERMINAL                 CCN000063000000063000FN00000000020220401000063000NNM   20211130122514    4P0P  00002100000000869400001021632Y6    BSYBL-S 005100280028
BI00B32Y6    STAP32041      202201067116-5044-02             TERMINAL                 CCN000600000000608000FN00000000020220401000608000NNM   20211130122514    4P0P  00001600000000641600000986332Y6    BSYBL-S 006400630017
BI00B32Y6    STAP32041      202201067158-3009-60             RUBBER STOPPER           CCN000200000000200000FN00000000020220401000200000NNM   20211130122514    1C0C  00002000000000338000000386232Y6    BSYBL-S 002700430014
BI00B32Y6    STAP32041      202201067158-3022-80             RUBBER STOPPER           CCN000010000000010000FN00000000020220401000010000NNM   20211130122514    1C0C  00000500000000467500000524032Y6    BSYBL-S 002700430014
BI00B32Y6    STAP32041      202201067158-3165-90             WIRE SEAL                CCN000240000000240000FN00000000020220401000240000NNM   20211130122514    1C0C  00004000000000124000000172432Y6    BSYBL-S 004300270014
BI00B32Y6    STAP32041      202201067158-3166-60             WIRE SEAL                CCN000080000000080000FN00000000020220401000080000NNM   20211130122514    1C0C  00004000000000104000000152432Y6    BSYBL-S 002700430014
BI00B32Y6    STAP32041      202201067158-3169-40             SEALING PLUG             CCN000040000000040000FN00000000020220401000040000NNM   20211130122514    1C0C  00004000000000156000000204132Y6    BSYBL-S 004300260014
BI00B32Y6    STAP32041      202201067196-0396-02             TERMINAL                 CCN000030000000030000FN00000000020220401000030000NNM   20211130122514    4P0P  00001500000000949500001112932Y6    BSYBL-S 002800510028
BI00B32Y6    STAP32041      202201067270-8994                6P MODULE ASSEMBLY       CCN000008500000008500FN00000000020220401000008500NNM   20211130122514    4J0J  00000010000001098600001298632Y6    BSYBL-S 005400370024
BI00B32Y6    STAP32041      202201067283-1928-80             CONNECTOR                CCN000008000000008000FN00000000020220401000008000NNM   20211130122514    4N0N  00000200000001180000001358332Y6    BSYBL-S 005500360039
BI00B32Y6    STAP32041      202201067283-4854-40             CONNECTOR HOUSING        CCN000007200000007200FN00000000020220401000007200NNM   20211130122514    4N0N  00000240000000694100000914132Y6    BSYBL-S 005500360039
BI00B32Y6    STAP32041      202201067286-1915                CONNECTOR SUB ASSY       CCN000006400000006400FN00000000020220401000006400NNM   20211130122514    4N0N  00000160000000965600001165632Y6    BSYBL-S 005500360039
BI00B32Y6    STAP32041      202201067287-1915-90             CONNECTOR ASS'Y          CCN000007200000007200FN00000000020220401000007200NNM   20211130122514    4N0N  00000240000000666500000923132Y6    BSYBL-S 005500360039
BI00B32Y6    STAP32041      202201067287-9323-40             UNSEALED HOUSING SUB     CCN000007200000007200FN00000000020220401000007200NNM   20211130122514    1N0N  00000240000000537600000690032Y6    BSYBL-S 005600390023
BI00B32Y6    STAP32041      202201067289-3342                HOUSING FEMALE ASS'Y     CCN000014400000014400FN00000000020220401000014400NNM   20211130122514    1N0N  00000240000000686400000901432Y6    BSYBL-S 005500360039
BI00B32Y6    STAP32041      202201067289-3342-30             HOUSING FEMALE ASS'Y     CCN000009600000009600FN00000000020220401000009600NNM   20211130122514    1N0N  00000240000000686400000901432Y6    BSYBL-S 005500360039
BI00B32Y6    STAP32041      202201067289-6868-30             SEALED ASSY FEMALE       CCN000007560000007560FN00000000020220401000007560NNM   20211130122514    4N0N  00000252000000839200001119232Y6    BSYBL-S 005500360039
BI00B32Y6    STAP32041      202201067298-1853-10             HOUSING FEMALE ASS'Y     CCN000031200000031200FN00000000020220401000031200NNM   20211130122514    4N00  00000390000001240500001405832Y6    BSYBL-S 005400370024
BI00B32Y6    STAP32041      202201067298-4094-10             HOUSING FEMALE ASS'Y     CCN000013520000013520FN00000000020220401000013520NNM   20211130122514    4N0N  00000338000001097400001358732Y6    BSYBL-S 005400370024
BI00B32Y6    STAP32041      202201067327-6731-3W             BATTERY FUSE             CCN000008000000008000FN00000000020220401000008000NNM   20211130122514    4N0N  00000006400000697600000843032Y6    BSYBL-S 005400370024
BI00B32Y6    STAP32041      202201067388-2978-30             HOUSING MALE ASS'Y       CCN000018720000018720FN00000000020220401000018720NNM   20211130122514    1N0N  00000048000000742000001122032Y6    BSYBL-S 005500360039
BI00B32Y6    #STAP32041     202201067154-5597-30             CASSETTE R/B             CCN000005600000005600FN00000000020220401000005600NNM   20211130122514    2F0F  00000080000000736000000952032Y6    BSYBL-S 005500360039
BI00B32Y6    #STAP32041     202201067158-3003-90             RUBBER STOPPER           CCN000140000000140000FN00000000020220401000140000NNM   20211130122514    2C0C  00002000000000250000000306032Y6    BSYBL-S 002700430014
BI00B32Y6    #STAP32041     202201067158-3005-80             RUBBER STOPPER           CCN000020000000020000FN00000000020220401000020000NNM   20211130122514    2H0H  00002000000000210000000268732Y6    BSYBL-S 002700430014
BI00B32Y6    #STAP32041     202201067158-3007-10             RUBBER STOPPER           CCN000040000000040000FN00000000020220401000040000NNM   20211130122514    2H0H  00002000000000308000000362732Y6    BSYBL-S 002700430014
BI00B32Y6    #STAP32041     202201067172-5626-90             RUBBER STOPPER           CCN000180000000180000FN00000000020220401000180000NNM   20211130122514    2H0H  00002000000000076400000127832Y6    BSYBL-S 004300270014
BI00B32Y6    #STAP32041     202201067172-5627-60             RUBBER STOPPER           CCN000160000000160000FN00000000020220401000160000NNM   20211130122514    2H0H  00002000000000070400000121832Y6    BSYBL-S 004300270014
BI00B32Y6    #STAP32041     202201067172-5629-80             RUBBER STOPPER           CCN000200000000200000FN00000000020220401000200000NNM   20211130122514    2H0H  00002000000000060000000111132Y6    BSYBL-S 004300270014
BI00B32Y6    #STAP32041     202201067172-5630-40             RUBBER STOPPER           CCN000360000000360000FN00000000020220401000360000NNM   20211130122514    2H0H  00002000000000044000000095132Y6    BSYBL-S 004300270014
BI00B32Y6    #STAP32041     202201067172-5631-60             RUBBER STOPPER           CCN000140000000140000FN00000000020220401000140000NNM   20211130122514    2H0H  00002000000000042000000093132Y6    BSYBL-S 004300270014
BI00B32Y6    #STAP32041     202201067172-5632-10             DUMMY PLUG               CCN000100000000100000FN00000000020220401000100000NNM   20211130122514    2H0H  00002000000000080400000131832Y6    BSYBL-S 004300270014
BI00B32Y6    #STAP32041     202201067183-8251-40             HOUSING                  CCN000007200000007200FN00000000020220401000007200NNM   20211130122514    2F0F  00000240000000357600000640032Y6    BSYBL-S 005500360039
BI00B32Y6    #STAP32041     202201067183-8252-40             HOUSING                  CCN000012000000012000FN00000000020220401000012000NNM   20211130122514    2F0F  00000240000000454000000729032Y6    BSYBL-S 005500360039
BI00B32Y6    #STAP32041     202201067189-2978-30             HOUSING FEMALE           CCN000010500000010500FN00000000020220401000010500NNM   20211130122514    2F0F  00000150000000966900001096932Y6    BSYBL-S 005400370024
BI00B32Y6    #STAP32041     202201067189-3032-30             HOUSING FEMALE           CCN000003200000003200FN00000000020220401000003200NNM   20211130122514    2F0F  00000160000000801600001021632Y6    BSYBL-S 005500360039
BI00B32Y6    #STAP32041     202201067189-3033                HOUSING FEMALE           CCN000006400000006400FN00000000020220401000006400NNM   20211130122514    2F0F  00000160000001211200001431232Y6    BSYBL-S 005500360039
BI00B32Y6    #STAP32041     202201067189-3036                HOUSING FEMALE           CCN000003200000003200FN00000000020220401000003200NNM   20211130122514    2F0F  00000160000000921600001141632Y6    BSYBL-S 005500360039
BI00B32Y6    #STAP32041     202201067289-2919-40             HOUSING FEMALE ASS'Y     CCN000003000000003000FN00000000020220401000003000NNM   20211130122514    2N0N  00000150000000910500001037532Y6    BSYBL-S 005400360024
BI00B32Y6    #STAP32041     202201067289-4200-30             HOUSING FEMALE ASS'Y     CCN000004000000004000FN00000000020220401000004000NNM   20211130122514    2N0N  00000200000000926000001021032Y6    BSYBL-S 005400370024
BI00B32Y6    @STAP32041     202201067283-1556                CONNECTOR ASS'Y          CCN000052800000052800FN00000000020220401000052800NNM   20211130122514    3N0N  00000240000000755000001014032Y6    BSYBL-S 005500360039
