BI00B32R7    R-TAP210588    2021122318018403930              CAVS 0.5 B               CCN000003000000003000FN00000000020220101000003000NNE   20211206184906    1W    00000150000000677000000000032R7    IVYCIC  000000000000SJ11C001
BI00B32R7    R-TAP210588    2021122318018403952              CAVS 0.5 P               CCN000001500000001500FN00000000020220101000001500NNE   20211206184906    1W    00000150000000677000000000032R7    IVYCIC  000000000000SJ11C003
BI00B32R7    R-TAP210588    2021122318018403990              CAVS 0.5 L               CCN000006000000006000FN00000000020220101000006000NNE   20211206184906    1W    00000150000000677000000000032R7    IVYCIC  000000000000SJ11C002
BI00B32R7    R-TAP210593    202112231801W006930              IVSSH 0.35F B            CCN000002500000002500FN00000000020211201000002500NNE   20211206184905    1W    00000250000000452000000000032R7    IVYCIC  000000000000SG11C001
BI00B32R7    R-TAP210593    202112231801W006940              IVSSH 0.35F W            CCN000002500000002500FN00000000020211201000002500NNE   20211206184905    1W    00000250000000452000000000032R7    IVYCIC  000000000000SG11C002
BI00B32R7    R-TAP210605    2021122318018403930              CAVS 0.5 B               CCN000003000000003000FN00000000020220101000003000NNE   20211206184907    1W    00000150000000677000000000032R7    IVYCIC  000000000000SM11C001
BI00B32R7    R-TAP210605    2021122318018403950              CAVS 0.5 R               CCN000003000000003000FN00000000020220101000003000NNE   20211206184907    1W    00000150000000677000000000032R7    IVYCIC  000000000000SM11C002
BI00B32R7    R-TAP210606    2021122318018403940              CAVS 0.5 W               CCN000001500000001500FN00000000020220101000001500NNE   20211206184908    1W    00000150000000677000000000032R7    IVYCIC  000000000000SN11C003
BI00B32R7    R-TAP210606    2021122318018403952              CAVS 0.5 P               CCN000001500000001500FN00000000020220101000001500NNE   20211206184908    1W    00000150000000677000000000032R7    IVYCIC  000000000000SN11C002
BI00B32R7    R-TAP210606    2021122318018403970              CAVS 0.5 Y               CCN000009000000009000FN00000000020220101000009000NNE   20211206184908    1W    00000150000000677000000000032R7    IVYCIC  000000000000SN11C004
BI00B32R7    R-TAP210606    2021122318018403990              CAVS 0.5 L               CCN000004500000004500FN00000000020220101000004500NNE   20211206184908    1W    00000150000000677000000000032R7    IVYCIC  000000000000SN11C001
BI00B32W4    4500184963     2022011118001403960              AV 0.5F G                CCN000002000000002000FN00000000020220101000002000NNE   20211206173850W41 1W    00000100000000921000000000032W41   HJYHK-J 000000000000OS41C002
BI00B32W4    4500184963     2022011118001403964              AV 0.5F G/W              CCN000001000000001000FN00000000020220101000001000NNE   20211206173850W41 1W    00000100000000921000000000032W41   HJYHK-J 000000000000OS41C003
BI00B32W4    4500184963     2022011118001403930              AV 0.5F B                CCN000003000000003000FN00000000020220101000003000NNE   20211206173850W41 1W    00000100000000921000000000032W41   HJYHK-J 000000000000OS41C001
BI00B32W4    4500184963     2022011118001403946              AV 0.5F W/G              CCN000003000000003000FN00000000020220101000003000NNE   20211206173850W41 1W    00000100000000921000000000032W41   HJYHK-J 000000000000OS41C004
BI00A32W4    @4500185054    20220120181D6910239              AVSSHCS 0.5FX2 B/L       CCN000037500000037500FN00000000020220101000037500NNE   20211206173849W4A21W    00000030000002792600000000032W4A2  HJYHK-J 000000000000OI121001
BI00B32W4    4500185179     202201111801R706930              CIVUS 0.35 B             CCN000006000000006000FN00000000020220101000006000NNE   20211206173851W41 1W    00000300000000386000000000032W41   HJYHK-J 000000000000OZ41C001
BI00B32W4    4500185179     202201111801R706990              CIVUS 0.35 L             CCN000003000000003000FN00000000020220101000003000NNE   20211206173851W41 1W    00000300000000386000000000032W41   HJYHK-J 000000000000OZ41C002
BI00B32W4    @4500185006    20220215181B32037Y5              AVSSCS 0.3FX1 DGY/W      CCN000002000000002000FN00000000020220201000002000NNE   20211206173852W4171W    00000050000001780000000000032W417  HJYHK-J 000000000000OA122001
BI00B32W4    @4500185006    20220215181B32116S1              AVSSCS 0.3FX2 DGY        CCN000003850000003850FN00000000020220201000003850NNE   20211206173852W4171W    00000035000002241000000000032W417  HJYHK-J 000000000000OA122002
BI00A32W4    @4500185196    20220214181B09037K5              CAVSAS 0.3X1 GY/BR       CCN000006000000006000FN00000000020220201000006000NNE   20211206173852W4N21W    00000050000001699000000000032W4N2    ERROR.000000000000OB122001
BI00B32W4    4500185255     2022020118007704230              AVSS 2F B                CCN000002000000002000FN00000000020220201000002000NNE   20211206173856W41 1W    00000050000002126400000000032W41   HJYHK-J 000000000000OL321004
BI00B32W4    4500185255     2022020118007704250              AVSS 2F R                CCN000001000000001000FN00000000020220201000001000NNE   20211206173856W41 1W    00000050000002126400000000032W41   HJYHK-J 000000000000OL321005
BI00B32W4    4500185255     2022020118018403730              CAVS 0.3 B               CCN000010000000010000FN00000000020220201000010000NNE   20211206173856W41 1W    00000200000000471000000000032W41   HJYHK-J 000000000000OL321006
BI00B32W4    4500185255     2022020118018403760              CAVS 0.3 G               CCN000054000000054000FN00000000020220201000054000NNE   20211206173856W41 1W    00000200000000471000000000032W41   HJYHK-J 000000000000OL321008
BI00B32W4    4500185255     2022020118018403780              CAVS 0.3 BR              CCN000034000000034000FN00000000020220201000034000NNE   20211206173856W41 1W    00000200000000471000000000032W41   HJYHK-J 000000000000OL321007
BI00B32W4    4500185255     2022020118018403792              CAVS 0.3 V               CCN000042000000042000FN00000000020220201000042000NNE   20211206173856W41 1W    00000200000000471000000000032W41   HJYHK-J 000000000000OL321009
BI00B32W4    4500185255     2022020118018403940              CAVS 0.5 W               CCN000010500000010500FN00000000020220201000010500NNE   20211206173856W41 1W    00000150000000677000000000032W41   HJYHK-J 000000000000OL321014
BI00B32W4    4500185255     2022020118018403951              CAVS 0.5 O               CCN000039000000039000FN00000000020220201000039000NNE   20211206173856W41 1W    00000150000000677000000000032W41   HJYHK-J 000000000000OL321011
BI00B32W4    4500185255     2022020118018403952              CAVS 0.5 P               CCN000081000000081000FN00000000020220201000081000NNE   20211206173856W41 1W    00000150000000677000000000032W41   HJYHK-J 000000000000OL321012
BI00B32W4    4500185255     2022020118018403970              CAVS 0.5 Y               CCN000060000000060000FN00000000020220201000060000NNE   20211206173856W41 1W    00000150000000677000000000032W41   HJYHK-J 000000000000OL321015
BI00B32W4    4500185255     2022020118018403990              CAVS 0.5 L               CCN000090000000090000FN00000000020220201000090000NNE   20211206173856W41 1W    00000150000000677000000000032W41   HJYHK-J 000000000000OL321010
BI00B32W4    4500185255     2022020118018403992              CAVS 0.5 V               CCN000016500000016500FN00000000020220201000016500NNE   20211206173856W41 1W    00000150000000677000000000032W41   HJYHK-J 000000000000OL321013
BI00B32W4    4500185255     2022020118018404030              CAVS 0.85 B              CCN000082000000082000FN00000000020220201000082000NNE   20211206173856W41 1W    00000100000000965000000000032W41   HJYHK-J 000000000000OL321016
BI00B32W4    4500185255     2022020118018404040              CAVS 0.85 W              CCN000057000000057000FN00000000020220201000057000NNE   20211206173856W41 1W    00000100000000965000000000032W41   HJYHK-J 000000000000OL321027
BI00B32W4    4500185255     2022020118018404041              CAVS 0.85 GY             CCN000116000000116000FN00000000020220201000116000NNE   20211206173856W41 1W    00000100000000965000000000032W41   HJYHK-J 000000000000OL321019
BI00B32W4    4500185255     2022020118018404050              CAVS 0.85 R              CCN000141000000141000FN00000000020220201000141000NNE   20211206173856W41 1W    00000100000000965000000000032W41   HJYHK-J 000000000000OL321024
BI00B32W4    4500185255     2022020118018404051              CAVS 0.85 O              CCN000047000000047000FN00000000020220201000047000NNE   20211206173856W41 1W    00000100000000965000000000032W41   HJYHK-J 000000000000OL321022
BI00B32W4    4500185255     2022020118018404052              CAVS 0.85 P              CCN000043000000043000FN00000000020220201000043000NNE   20211206173856W41 1W    00000100000000965000000000032W41   HJYHK-J 000000000000OL321023
BI00B32W4    4500185255     2022020118018404060              CAVS 0.85 G              CCN000078000000078000FN00000000020220201000078000NNE   20211206173856W41 1W    00000100000000965000000000032W41   HJYHK-J 000000000000OL321018
BI00B32W4    4500185255     2022020118018404061              CAVS 0.85 LG             CCN000003000000003000FN00000000020220201000003000NNE   20211206173856W41 1W    00000100000000965000000000032W41   HJYHK-J 000000000000OL321021
BI00B32W4    4500185255     2022020118018404070              CAVS 0.85 Y              CCN000101000000101000FN00000000020220201000101000NNE   20211206173856W41 1W    00000100000000965000000000032W41   HJYHK-J 000000000000OL321028
BI00B32W4    4500185255     2022020118018404080              CAVS 0.85 BR             CCN000041000000041000FN00000000020220201000041000NNE   20211206173856W41 1W    00000100000000965000000000032W41   HJYHK-J 000000000000OL321017
BI00B32W4    4500185255     2022020118018404090              CAVS 0.85 L              CCN000002000000002000FN00000000020220201000002000NNE   20211206173856W41 1W    00000100000000965000000000032W41   HJYHK-J 000000000000OL321020
BI00B32W4    4500185255     2022020118018404091              CAVS 0.85 SB             CCN000084000000084000FN00000000020220201000084000NNE   20211206173856W41 1W    00000100000000965000000000032W41   HJYHK-J 000000000000OL321025
BI00B32W4    4500185255     2022020118018404092              CAVS 0.85 V              CCN000033000000033000FN00000000020220201000033000NNE   20211206173856W41 1W    00000100000000965000000000032W41   HJYHK-J 000000000000OL321026
BI00B32W4    4500185255     2022020118001403960              AV 0.5F G                CCN000017000000017000FN00000000020220201000017000NNE   20211206173856W41 1W    00000100000000921000000000032W41   HJYHK-J 000000000000OL321002
BI00B32W4    4500185255     2022020118001403964              AV 0.5F G/W              CCN000014000000014000FN00000000020220201000014000NNE   20211206173856W41 1W    00000100000000921000000000032W41   HJYHK-J 000000000000OL321003
BI00B32W4    @4500185255    20220201181B32116Z6              AVSSCS 0.3FX2 DGY/V      CCN000003150000003150FN00000000020220201000003150NNE   20211206173854W41 1W    00000035000002241000000000032W41   HJYHK-J 000000000000OL321001
BI00B32W4    4500185211     2022020118018403760              CAVS 0.3 G               CCN000012000000012000FN00000000020220201000012000NNE   20211206173855W41 1W    00000200000000471000000000032W41   HJYHK-J 000000000000OM321009
BI00B32W4    4500185211     2022020118018403780              CAVS 0.3 BR              CCN000002000000002000FN00000000020220201000002000NNE   20211206173855W41 1W    00000200000000471000000000032W41   HJYHK-J 000000000000OM321008
BI00B32W4    4500185211     2022020118018403792              CAVS 0.3 V               CCN000024000000024000FN00000000020220201000024000NNE   20211206173855W41 1W    00000200000000471000000000032W41   HJYHK-J 000000000000OM321010
BI00B32W4    4500185211     2022020118018403940              CAVS 0.5 W               CCN000001500000001500FN00000000020220201000001500NNE   20211206173855W41 1W    00000150000000677000000000032W41   HJYHK-J 000000000000OM321012
BI00B32W4    4500185211     2022020118018403990              CAVS 0.5 L               CCN000001500000001500FN00000000020220201000001500NNE   20211206173855W41 1W    00000150000000677000000000032W41   HJYHK-J 000000000000OM321011
BI00B32W4    4500185211     2022020118018404130              CAVS 1.25 B              CCN000003200000003200FN00000000020220201000003200NNE   20211206173855W41 1W    00000080000001378000000000032W41   HJYHK-J 000000000000OM321013
BI00B32W4    4500185211     2022020118018404160              CAVS 1.25 G              CCN000002400000002400FN00000000020220201000002400NNE   20211206173855W41 1W    00000080000001378000000000032W41   HJYHK-J 000000000000OM321014
BI00B32W4    4500185211     2022020118018404157              CAVS 1.25 R/Y            CCN000001600000001600FN00000000020220201000001600NNE   20211206173855W41 1W    00000080000001378000000000032W41   HJYHK-J 000000000000OM321016
BI00B32W4    4500185211     2022020118018404194              CAVS 1.25 L/W            CCN000002400000002400FN00000000020220201000002400NNE   20211206173855W41 1W    00000080000001378000000000032W41   HJYHK-J 000000000000OM321015
BI00B32W4    4500185211     202202011801R706940              CIVUS 0.35 W             CCN000006000000006000FN00000000020220201000006000NNE   20211206173855W41 1W    00000300000000386000000000032W41   HJYHK-J 000000000000OM321006
BI00B32W4    4500185211     202202011801R706930              CIVUS 0.35 B             CCN000006000000006000FN00000000020220201000006000NNE   20211206173855W41 1W    00000300000000386000000000032W41   HJYHK-J 000000000000OM321003
BI00B32W4    4500185211     202202011801R706970              CIVUS 0.35 Y             CCN000009000000009000FN00000000020220201000009000NNE   20211206173855W41 1W    00000300000000386000000000032W41   HJYHK-J 000000000000OM321007
BI00B32W4    4500185211     202202011801R706990              CIVUS 0.35 L             CCN000009000000009000FN00000000020220201000009000NNE   20211206173855W41 1W    00000300000000386000000000032W41   HJYHK-J 000000000000OM321005
BI00B32W4    4500185211     202202011801R706941              CIVUS 0.35 GY            CCN000003000000003000FN00000000020220201000003000NNE   20211206173855W41 1W    00000300000000386000000000032W41   HJYHK-J 000000000000OM321004
BI00B32W4    @4500185211    20220201181B09116K2              CAVSAS 0.3X2 GY/V        CCN000002100000002100FN00000000020220201000002100NNE   20211206173853W41 1W    00000035000002133000000000032W41   HJYHK-J 000000000000OM321002
BI00B32W4    @4500185211    20220201181AD2002ZZ              CIVUSAS-S 0.35X2 B       CCN000000900000000900FN00000000020220201000000900NNE   20211206173853W41 1W    00000045000001714000000000032W41   HJYHK-J 000000000000OM321001
