BI00A1200    7360T51815     202112027288-3329-30             HOUSING MALE             CCN000004500000001500FY00000150020210901000000000NNED0420211208141541    4N0N  0000015000000086610000101111200    YCYC    005400370024
BI00A1200    7360T51815     202112077288-3329-30             HOUSING MALE             CCN000004500000010500FY00001050020210901000000000NNED0420211208141634    4N0N  0000015000000086610000101111200    YCYC    005400370024
BI00A1200    7360T51815     202112077288-3329-30             HOUSING MALE             CCN000004500000001500FY00000150020210901000000000NNED0420211208141634    4N0N  0000015000000086610000101111200    YCYC    005400370024
BI00B1200    2399T51922     202112027288-7969                HYBRID MALE ASS'Y        CCN000012160000012160FY00001216020211101000000000NNM00020211208130734    1N0N  0000003200000087620000110171200    YCYC    005400370024
BI00B1200    2399T51A20     202112037196-0648-02             TERMINAL                 CCN000135000000135000FY00013500020211201000000000NNM00020211208130812    4P0P  0000150000000035550000068971200    YCYC    006400630015
BI00B1200    2399T51A23     202112037289-6868-30             SEALED ASSY FEMALE       CCN000020160000020160FY00002016020211201000000000NNM00020211208130841    4N0N  0000025200000083920000111921200    YCYC    005500360039
BI00A1200    #7960T51C02    202201117172-5625-90             RUBBER STOPPER           CCN000040000000040000FN00000000020220101000040000NNE   20211208121744    2H0H  0000200000000008240000013381200    YCYC    004300270014
BI00A1200    #7960T51C02    202201117172-5626-90             RUBBER STOPPER           CCN000040000000040000FN00000000020220101000040000NNE   20211208121744    2H0H  0000200000000007640000012781200    YCYC    004300270014
BI00A1200    #7960T51C02    202201117172-5629-80             RUBBER STOPPER           CCN000040000000040000FN00000000020220101000040000NNE   20211208121744    2H0H  0000200000000006000000011111200    YCYC    004300270014
BI00A1200    #7960T51C02    202201117172-5630-40             RUBBER STOPPER           CCN000040000000040000FN00000000020220101000040000NNE   20211208121744    2H0H  0000200000000004400000009511200    YCYC    004300270014
BI00A1200    #7960T51C02    202201117172-5631-60             RUBBER STOPPER           CCN000040000000040000FN00000000020220101000040000NNE   20211208121744    2H0H  0000200000000004200000009311200    YCYC    004300270014
BI00A32AF    #JTB1123       202112137282-5528-70             HOUSING MALE ASS'Y       PCN000007000000007000FN00000000020211201000007000NNMM0020211208153552    2N0N  00000100000000230000000339032AF    HBYHVTB 005400370024
BI00A32AF    #JTB1124       202112177282-5528-70             HOUSING MALE ASS'Y       PCN000010000000010000FN00000000020211201000010000NNM00020211208153631    2N0N  00000100000000230000000339032AF    HBYHVTB 005400370024
BI00T32AF    @JTB2021-I     202202107183-2510                HOUSING                  CCN000018000000018000FN00000000020220201000018000NNMD0020211208150313    3F0F  00000300000001063500001159032AF    HBYHVTB 005400370024
BI00B32AG    #XG22012GMW    202112147282-1140-90             HOUSING MALE ASS'Y       CCN000001000000001000FN00000000020220101000001000NNM00020211208121744    2N0N  00000050000000467500000590032AG    XGXGY   005400370024
BI00B32AG    XG2202BNMW     202201147126-8853-02             TERMINAL                 CCN000030000000030000FN00000000020220201000030000NNE   20211208141915    4P0P  00000750000000562500000847732AG    XGXGY   006400630015
BI00B32AG    XG2202BNMW     202201147126-8854-02             TERMINAL                 CCN000007500000007500FN00000000020220201000007500NNE   20211208141915    4P0P  00000750000000604500000889732AG    XGXGY   006400630015
BI00B32AG    XG2202ACMW     202201147B72-5540-80             SEALED WIRE SEAL         CCN000020000000020000FN00000000020220201000020000NNE   20211208141949    1C0C  00002000000000186000000234432AG    XGXGY   004300270014
BI00B32AG    XG2202ACMW     202201147B96-0805-02             TERMINAL FEMALE          CCN000022500000022500FN00000000020220201000022500NNE   20211208141949    4P0P  00002250000000558000000843232AG    XGXGY   006400630015
BI00B32AG    XG2202ACMW     202201147116-4032                TERMINAL                 CCN000006000000006000FN00000000020220201000006000NNE   20211208141949    4P0P  00000600000000532800000818032AG    XGXGY   006400630015
BI00B32AG    XG2202ACMW     202201147116-6041                TERMINAL                 CCN000036000000036000FN00000000020220201000036000NNE   20211208141949    4P0P  00000450000000716000001009632AG    XGXGY   006400630015
BI00B32AG    XG2202ACMW     202201147196-0805-02             TERMINAL FEMALE          CCN000022500000022500FN00000000020220201000022500NNE   20211208141949    4P0P  00002250000000558000000843232AG    XGXGY   006400630015
BI00B32AG    XG2202ACMW     202201147327-6870-30             MULTI FUSE               CCN000004320000004320FN00000000020220201000004320NNE   20211208141949    4N0N  00000028800001015200001181132AG    XGXGY   005400370024
BI00B32AG    XG2202ACMW     202201147327-6874-30             MULTI FUSE               CCN000004320000004320FN00000000020220201000004320NNE   20211208141949    4N0N  00000028800000991400001157332AG    XGXGY   005400370024
BI00B32AG    XG2202ACMW     202201147327-6880-30             MULTI FUSE               CCN000004320000004320FN00000000020220201000004320NNE   20211208141949    4N0N  00000028800001012600001178532AG    XGXGY   005400370024
BI00B32AG    XG2202ACMW     202201147327-6884-30             MULTI FUSE               CCN000004320000004320FN00000000020220201000004320NNE   20211208141949    4N0N  00000028800000988900001154832AG    XGXGY   005400370024
BI00B32AG    #XG2202ACMW    202201147198-1371-60             HOUSING FEMALE           CCN000004000000004000FN00000000020220201000004000NNE   20211208141947    2F0F  00000200000000597800000721232AG    XGXGY   005400370024
BI00B32AG    #XG2202ACMW    202201147198-1372                HOUSING FEMALE           CCN000004000000004000FN00000000020220201000004000NNE   20211208141947    2F0F  00000200000000857200000982232AG    XGXGY   005400370024
BI00B32AG    #XG2202ACMW    202201147198-1373-60             HOUSING FEMALE           CCN000004000000004000FN00000000020220201000004000NNE   20211208141947    2F0F  00000200000000819400000947432AG    XGXGY   005400370024
BI00B32AG    #XG2202ACMW    202201147198-2458                HOUSING FEMALE           CCN000003520000003520FN00000000020220201000003520NNE   20211208141947    2F0F  00000176000000869100001160532AG    XGXGY   005400370024
BI00B32AG    #XG2202ACMW    202201147298-2459-60             LIF FEMALE ASSEMBLY      CCN000003528000003528FN00000000020220201000003528NNE   20211208141947    2N0N  00000016800000534000000729632AG    XGXGY   005400370024
BI00B32AG    XG2202BCMW     202201217C89-6868-30             SEALED ASSY FEMALE       CCN000005040000005040FN00000000020220201000005040NNE   20211208142011    4N0N  00000252000000839200001119232AG    XGXGY   005500360039
BI00B32AG    XG2202BCMW     202201217298-3822-70             HOUSING FEMALE ASS'Y     CCN000005040000005040FN00000000020220201000005040NNE   20211208142011    4N0N  00000252000000776200001077032AG    XGXGY   005500360039
BI00B32AG    XG2202BCMW     202201217327-6832-60             MAIN FUSE                CCN000003600000003600FN00000000020220201000003600NNE   20211208142011    4N0N  00000060000000729200000930732AG    XGXGY   005400370024
BI00B32BG    YY22014CMW     202112077116-3153-08             TERMINAL                 CCN000081000000081000FY00008100020220101000000000NNM00020211208130932    4P0P  00002700000000461700000746932BG    YGYYA   006400630015
BI00B32BG    YY22014CMW     202112077116-6041                TERMINAL                 CCN000018000000018000FY00001800020220101000000000NNM00020211208130932    4P0P  00000450000000716000001009632BG    YGYYA   006400630015
BI00B32BG    YY22014CMW     202112077296-1025-02             TERMINAL ALUMINIUM       CCN000072000000072000FY00007200020220101000000000NNM00020211208130932    4P0P  00001800000000635400000920632BG    YGYYA   006400630015
BI00B32BG    YY22022CMW     202112237116-6041                TERMINAL                 CCN000045000000000000FY00000000020220201000000000NNMQ0820211208162208    4P0P  00000450000000716000001009632BG    YGYYA   006400630015
BI00B32BG    YY22023GMW     202112237116-4103-02             TERMINAL                 CCN000012000000000000FY00000000020220201000000000NNMQ0820211208162335    4P0P  00001200000000571200000859432BG    YGYYA   006400630015
BI00B32BG    YY22022GMW     202112237116-4104-02             TERMINAL                 CCN000096000000000000FY00000000020220201000000000NNMQ0820211208162228    4P0P  00001200000000580800000972432BG    YGYYA   006400630015
BI00B32BG    YY22023GMW     202112237116-4120-02             TERMINAL                 CCN000012000000000000FY00000000020220201000000000NNMQ0820211208162351    4P0P  00000600000000780000001073632BG    YGYYA   006400630015
BI00B32BG    YY22022GMW     202112237116-4121-02             TERMINAL                 CCN000103500000000000FY00000000020220201000000000NNMQ0820211208162247    4P0P  00000450000000618800000912432BG    YGYYA   006400630015
BI00B32BG    YY22022GMW     202112237116-4122-02             TERMINAL                 CCN000085500000000000FY00000000020220201000000000NNMQ0820211208162311    4P0P  00000450000000656600000950232BG    YGYYA   006400630015
BI00B32B6    A72001         202112037017-1180-02             TERMINAL                 CCN000072000000072000FY00007200020220201000000000NNM00020211208131226B6  4P0P  00007200000001065600001229032B6    AXARNE-M005100280028
BI00B32B6    A72001         202112037017-1183-02             TERMINAL                 CCN000027000000027000FY00002700020220201000000000NNM00020211208141014B6  4P0P  00002700000001139400001307432B6    AXARNE-M005100280028
BI00B32CA    PTA32062       202202247116-3153-02             TERMINAL FEMALE          CCN000264000000270000FN00000000020220601000270000NNE   20211208162152    4P0P  00002700000000459000000744232CA    YPYPY   006400630015
BI00B32CA    PTA32062       202202247116-3154-02             TERMINAL FEMALE          CCN000066000000081000FN00000000020220601000081000NNE   20211208162152    4P0P  00002700000000469800000755032CA    YPYPY   006400630015
BI00B32CA    PTA32062       202202247158-3166-60             WIRE SEAL                CCN000040000000040000FN00000000020220601000040000NNE   20211208162152    1C0C  00004000000000104000000152432CA    YPYPY   002700430014
BI00B32CA    PTA32062       202202247196-0510-02             TERMINAL                 CCN000024000000024000FN00000000020220601000024000NNE   20211208162152    4P0P  00002400000000871200001034632CA    YPYPY   002800510028
BI00B32CA    PTA32062       202202247196-0511-02             TERMINAL                 CCN000015000000024000FN00000000020220601000024000NNE   20211208162152    4P0P  00002400000000916800001080232CA    YPYPY   002800510028
BI00B32CA    PTA32062       202202247289-3342                HOUSING FEMALE ASS'Y     CCN000004800000004800FN00000000020220601000004800NNE   20211208162152    1N0N  00000240000000686400000901432CA    YPYPY   005500360039
BI00B32CA    PTA32062       202202247289-3342-90             HOUSING FEMALE ASS'Y     CCN000004800000004800FN00000000020220601000004800NNE   20211208162152    1N0N  00000240000000686400000901432CA    YPYPY   005500360039
BI00B32CA    #PTA32062      202202247154-5597-30             CASSETTE R/B             CCN000001600000001600FN00000000020220601000001600NNE   20211208162139    2F0F  00000080000000736000000952032CA    YPYPY   005500360039
BI00B32CA    #PTA32062      202202247183-2414-30             CONNECTOR HOUSING        CCN000003750000004800FN00000000020220601000004800NNE   20211208162139    2F0F  00000480000000779500001061532CA    YPYPY   005500360039
BI00B32CA    #PTA32062      202202247189-3032-30             HOUSING FEMALE           CCN000001600000001600FN00000000020220601000001600NNE   20211208162139    2F0F  00000160000000801600001021632CA    YPYPY   005500360039
BI00B32CA    #PTA32062      202202247189-3034-30             HOUSING FEMALE           CCN000001600000001600FN00000000020220601000001600NNE   20211208162139    2F0F  00000160000000972800001192832CA    YPYPY   005500360039
BI00A32CH    #SJ21114HMW    202112177298-2459-60             LIF FEMALE ASSEMBLY      PCN000011088000011088FN00000000020211101000011088NNMM0020211208193742    2N0N  00000016800000534000000729632CH    SJSAMIJF005400370024
BI00B32CH    SJ22012 MW     202112237158-3006-90             RUBBER STOPPER           CCN000480000000120000FN00000000020220101000120000NNMD0420211208121744    1C0C  00002000000000330600000386032CH    SJSAMIJF002700430014
BI00A32CH    SJ22012 MW     202112097158-3006-90             RUBBER STOPPER           CCN000120000000120000FN00000000020220101000120000NNMD0020211208121744    1C0C  00002000000000330600000386032CH    SJSAMIJF002700430014
BI00B32DG    RP2014A        202112237114-4231-02             TERMINAL                 CCN000036000000036000FN00000000020220101000036000NNE   20211208121744    4P0P  00001800000000554400000848032DG    BFSAIBF 006400630015
BI00B32DG    RP2014A        202112237288-3329-30             HOUSING MALE             CCN000001500000001500FN00000000020220101000001500NNE   20211208121744    4N0N  00000150000000866100001011132DG    BFSAIBF 005400370024
BI00B32DG    RP2014A        202112237289-3342-30             HOUSING FEMALE ASS'Y     CCN000004800000004800FN00000000020220101000004800NNE   20211208121744    1N0N  00000240000000686400000901432DG    BFSAIBF 005500360039
BI00B32DG    RP2014A        202112237116-2640                TERMINAL                 CCN000018000000018000FN00000000020220101000018000NNE   20211208121744    4P0P  00001800000001018800001196632DG    BFSAIBF 005100280028
BI00B32DG    @RP2014A       202112237282-1040                HOUSING SUB ASSEMBLY     CCN000007200000007200FN00000000020220101000007200NNE   20211208121744    3N0N  00000240000001014400001256032DG    BFSAIBF 005500360039
BI00A32DJ    GHT2112B 1     202112077158-3009-60             RUBBER STOPPER           PCN000300000000300000FY00030000020211201000000000NNM00020211208131009    1C0C  00002000000000338000000386232DJ    RBYIPLRB002700430014
BI00A32D1    DFTC2150       202112107289-6547                HOUSING FEMALE ASS'Y     PCN000009600000012000FN00000000020211201000012000NNMQ0020211208142805    1N0N  00000240000001152000001362032D1    TOYOT-K 005500360039
BI00B32D1    DFTC2202       202112167289-6547                HOUSING FEMALE ASS'Y     CCN000019200000019200FN00000000020220101000019200NNM00020211208154356    1N0N  00000240000001152000001362032D1    TOYOT-K 005500360039
BI00B32D1    DFTC2202       202112167327-6731-3W             BATTERY FUSE             CCN000002944000002944FN00000000020220101000002944NNM00020211208154412    4N0N  00000006400000697600000843032D1    TOYOT-K 005400370024
BI00B32D1    #DFTC2202      202112167289-3622-30             HOUSING FEMALE ASS'Y     CCN000007776000007776FN00000000020220101000007776NNM00020211208154131    2N0N  00000043200000839400001038432D1    TOYOT-K 005400370024
BI00B32D1    DFTC2204       202112167327-6731-3W             BATTERY FUSE             CCN000001536000001536FN00000000020220101000001536NNM00020211208142919    4N0N  00000006400000697600000843032D1    TOYOT-K 005400370024
BI00B32D1    DFTC2210       202201137114-4032                TERMINAL                 CCN000007500000007500FN00000000020220301000007500NNM   20211208121744    4P0P  00000750000000735000001063632D1    TOYOT-K 006400630017
BI00B32D1    DFTC2210       202201137114-4231-02             TERMINAL                 CCN000018000000018000FN00000000020220301000018000NNM   20211208121744    4P0P  00001800000000554400000848032D1    TOYOT-K 006400630015
BI00B32D1    DFTC2210       202201137114-5748-02             TERMINAL                 CCN000084000000084000FN00000000020220301000084000NNM   20211208121744    4P0P  00001200000000444000000737632D1    TOYOT-K 006400630015
BI00B32D1    DFTC2210       202201137114-5753-02             TERMINAL                 CCN000216000000216000FN00000000020220301000216000NNM   20211208121744    4P0P  00002700000000847800001141432D1    TOYOT-K 006400630015
BI00B32D1    DFTC2210       202201137116-1685-02             TERMINAL                 CCN000048000000048000FN00000000020220301000048000NNM   20211208121744    4P0P  00002400000000897600001065232D1    TOYOT-K 005100280028
BI00B32D1    DFTC2210       202201137116-2891-02             TERMINAL                 CCN000105000000105000FN00000000020220301000105000NNM   20211208121744    4P0P  00001500000000982500001145932D1    TOYOT-K 005100280028
BI00B32D1    DFTC2210       202201137116-4101-02             TERMINAL                 CCN000012000000012000FN00000000020220301000012000NNM   20211208121744    4P0P  00001200000000582000000876232D1    TOYOT-K 006400630015
BI00B32D1    DFTC2210       202201137116-4110-02             TERMINAL                 CCN000054000000054000FN00000000020220301000054000NNM   20211208121744    4P0P  00000900000000594000000882232D1    TOYOT-K 006400630015
BI00B32D1    DFTC2210       202201137116-4111-02             TERMINAL                 CCN000030000000030000FN00000000020220301000030000NNM   20211208121744    4P0P  00000750000000529500000817732D1    TOYOT-K 006400630015
BI00B32D1    DFTC2210       202201137116-4112-02             TERMINAL                 CCN000072000000072000FN00000000020220301000072000NNM   20211208121744    4P0P  00000600000000450000000738232D1    TOYOT-K 006400630015
BI00B32D1    DFTC2210       202201137116-4486-02             TERMINAL                 CCN000168000000168000FN00000000020220301000168000NNM   20211208121744    4P0P  00002800000000666400000995132D1    TOYOT-K 006400630017
BI00B32D1    DFTC2210       202201137116-5045-02             TERMINAL                 CCN000128000000128000FN00000000020220301000128000NNM   20211208121744    4P0P  00001600000000678400001007132D1    TOYOT-K 006400630017
BI00B32D1    DFTC2210       202201137126-8853-02             TERMINAL                 CCN000120000000120000FN00000000020220301000120000NNM   20211208121744    4P0P  00000750000000562500000847732D1    TOYOT-K 006400630015
BI00B32D1    DFTC2210       202201137126-8854-02             TERMINAL                 CCN000105000000105000FN00000000020220301000105000NNM   20211208121744    4P0P  00000750000000604500000889732D1    TOYOT-K 006400630015
BI00B32D1    DFTC2210       202201137126-8855-02             TERMINAL                 CCN000108000000108000FN00000000020220301000108000NNM   20211208121744    4P0P  00000600000000510600000795832D1    TOYOT-K 006400630015
BI00B32D1    DFTC2210       202201137158-3070-80             RUBBER STOPPER           CCN000080000000080000FN00000000020220301000080000NNM   20211208121744    1C0C  00004000000000276000000333332D1    TOYOT-K 002700430014
BI00B32D1    DFTC2210       202201137158-3167-80             WIRE SEAL                CCN000040000000040000FN00000000020220301000040000NNM   20211208121744    1C0C  00002000000000048000000109032D1    TOYOT-K 002700430014
BI00B32D1    DFTC2210       202201137196-0396-02             TERMINAL                 CCN000030000000030000FN00000000020220301000030000NNM   20211208121744    4P0P  00001500000000949500001112932D1    TOYOT-K 002800510028
BI00B32D1    DFTC2210       202201137196-0510-02             TERMINAL                 CCN000048000000048000FN00000000020220301000048000NNM   20211208121744    4P0P  00002400000000871200001034632D1    TOYOT-K 002800510028
BI00B32D1    DFTC2210       202201137282-4576                HOUSING MALE ASS'Y       CCN000004800000004800FN00000000020220301000004800NNM   20211208121744    4N0N  00000240000000808800001028832D1    TOYOT-K 005500360039
BI00B32D1    DFTC2210       202201137283-1156                CONNECTOR                CCN000008800000008800FN00000000020220301000008800NNM   20211208121744    4N0N  00000080000000877600001078032D1    TOYOT-K 005600390040
BI00B32D1    DFTC2210       202201137288-6547                CONNECTOR MALE ASS'Y     CCN000011250000011250FN00000000020220301000011250NNM   20211208121744    4N0N  00000075000001205300001340332D1    TOYOT-K 005400370024
BI00B32D1    DFTC2210       202201137289-3342                HOUSING FEMALE ASS'Y     CCN000033600000033600FN00000000020220301000033600NNM   20211208121744    1N0N  00000240000000686400000901432D1    TOYOT-K 005500360039
BI00B32D1    DFTC2210       202201137289-3342-30             HOUSING FEMALE ASS'Y     CCN000084000000084000FN00000000020220301000084000NNM   20211208121744    1N0N  00000240000000686400000901432D1    TOYOT-K 005500360039
BI00B32D1    DFTC2210       202201137289-3342-40             HOUSING FEMALE ASS'Y     CCN000009600000009600FN00000000020220301000009600NNM   20211208121744    1N0N  00000240000000686400000901432D1    TOYOT-K 005500360039
BI00B32D1    DFTC2210       202201137289-3342-90             HOUSING FEMALE ASS'Y     CCN000009600000009600FN00000000020220301000009600NNM   20211208121744    1N0N  00000240000000686400000901432D1    TOYOT-K 005500360039
BI00B32D1    DFTC2210       202201137289-6547                HOUSING FEMALE ASS'Y     CCN000014400000014400FN00000000020220301000014400NNM   20211208121744    1N0N  00000240000001152000001362032D1    TOYOT-K 005500360039
BI00B32D1    DFTC2210       202201137296-0784-02             TERMINAL ALUMINIUM       CCN000024000000024000FN00000000020220301000024000NNM   20211208121744    4P0P  00002400000000480000000765232D1    TOYOT-K 006400630015
BI00B32D1    DFTC2210       202201137327-6731-3W             BATTERY FUSE             CCN000001984000001984FN00000000020220301000001984NNM   20211208121744    4N0N  00000006400000697600000843032D1    TOYOT-K 005400370024
BI00B32D1    DFTC2210       202201137388-2978-30             HOUSING MALE ASS'Y       CCN000017760000017760FN00000000020220301000017760NNM   20211208121744    1N0N  00000048000000742000001122032D1    TOYOT-K 005500360039
BI00B32D1    #DFTC2210      202201137158-3003-90             RUBBER STOPPER           CCN000180000000180000FN00000000020220301000180000NNM   20211208121744    2C0C  00002000000000250000000306032D1    TOYOT-K 002700430014
BI00B32D1    #DFTC2210      202201137158-3004-40             RUBBER STOPPER           CCN000040000000040000FN00000000020220301000040000NNM   20211208121744    2C0C  00002000000000234000000306332D1    TOYOT-K 002700430014
BI00B32D1    #DFTC2210      202201137158-3005-80             RUBBER STOPPER           CCN000060000000060000FN00000000020220301000060000NNM   20211208121744    2H0H  00002000000000210000000268732D1    TOYOT-K 002700430014
BI00B32D1    #DFTC2210      202201137158-3008-80             RUBBER STOPPER           CCN000100000000100000FN00000000020220301000100000NNM   20211208121744    2C0C  00002000000000288000000343032D1    TOYOT-K 004300270014
BI00B32D1    #DFTC2210      202201137158-3015-10             RUBBER STOPPER           CCN000030000000030000FN00000000020220301000030000NNM   20211208121744    2C0C  00001000000000419500000474032D1    TOYOT-K 002700430014
BI00B32D1    #DFTC2210      202201137158-3017                RUBBER STOPPER           CCN000050000000050000FN00000000020220301000050000NNM   20211208121744    2C0C  00001000000000375500000435032D1    TOYOT-K 002700430014
BI00B32D1    #DFTC2210      202201137172-5629-80             RUBBER STOPPER           CCN000220000000220000FN00000000020220301000220000NNM   20211208121744    2H0H  00002000000000060000000111132D1    TOYOT-K 004300270014
BI00B32D1    #DFTC2210      202201137172-5630-40             RUBBER STOPPER           CCN000060000000060000FN00000000020220301000060000NNM   20211208121744    2H0H  00002000000000044000000095132D1    TOYOT-K 004300270014
BI00B32D1    #DFTC2210      202201137172-5631-60             RUBBER STOPPER           CCN000100000000100000FN00000000020220301000100000NNM   20211208121744    2H0H  00002000000000042000000093132D1    TOYOT-K 004300270014
BI00B32D1    #DFTC2210      202201137172-5632-10             DUMMY PLUG               CCN000060000000060000FN00000000020220301000060000NNM   20211208121744    2H0H  00002000000000080400000131832D1    TOYOT-K 004300270014
BI00B32D1    #DFTC2210      202201137183-2415-90             CONNECTOR HOUSING        CCN000004800000004800FN00000000020220301000004800NNM   20211208121744    2F0F  00000480000000798200001091432D1    TOYOT-K 005500360039
BI00B32D1    #DFTC2210      202201137183-2418-30             CONNECTOR HOUSING        CCN000004800000004800FN00000000020220301000004800NNM   20211208121744    2F0F  00000480000000917000001235332D1    TOYOT-K 005500360039
BI00B32D1    #DFTC2210      202201137189-2978-30             HOUSING FEMALE           CCN000018000000018000FN00000000020220301000018000NNM   20211208121744    2F0F  00000150000000966900001096932D1    TOYOT-K 005400370024
BI00B32D1    #DFTC2210      202201137189-3033                HOUSING FEMALE           CCN000009600000009600FN00000000020220301000009600NNM   20211208121744    2F0F  00000160000001211200001431232D1    TOYOT-K 005500360039
BI00B32D1    #DFTC2210      202201137189-3036                HOUSING FEMALE           CCN000004800000004800FN00000000020220301000004800NNM   20211208121744    2F0F  00000160000000921600001141632D1    TOYOT-K 005500360039
BI00B32D1    #DFTC2210      202201137282-1641                CONNECTOR                CCN000014000000014000FN00000000020220301000014000NNM   20211208121744    2N0N  00000200000000813000000986032D1    TOYOT-K 005500360039
BI00B32D1    #DFTC2210      202201137282-7424                CONNECTOR                CCN000004000000004000FN00000000020220301000004000NNM   20211208121744    2N0N  00000400000001064000001243032D1    TOYOT-K 005500360039
BI00B32D1    #DFTC2210      202201137289-2912-40             HOUSING FEMALE ASS'Y     CCN000004000000004000FN00000000020220301000004000NNM   20211208121744    2N0N  00000200000000804000000931032D1    TOYOT-K 005400370024
BI00B32D1    #DFTC2210      202201137289-3622-30             HOUSING FEMALE ASS'Y     CCN000004320000004320FN00000000020220301000004320NNM   20211208121744    2N0N  00000043200000839400001038432D1    TOYOT-K 005400370024
BI00B32D1    #DFTC2210      202201137289-4200-30             HOUSING FEMALE ASS'Y     CCN000004000000004000FN00000000020220301000004000NNM   20211208121744    2N0N  00000200000000926000001021032D1    TOYOT-K 005400370024
BI00B32D2    #DGTC2151      202112167172-5629-80             RUBBER STOPPER           CCN000120000000120000FN00000000020211201000120000NNM00020211208154233    2H0H  00002000000000060000000111132D2    TGYOT-G 004300270014
BI00B32D2    DGTC2202       202112167289-6547                HOUSING FEMALE ASS'Y     CCN000016800000016800FN00000000020220101000016800NNM00020211208154507    1N0N  00000240000001152000001362032D2    TGYOT-G 005500360039
BI00B32D2    DGTC2204       202112167289-6547                HOUSING FEMALE ASS'Y     CCN000009600000009600FN00000000020220101000009600NNM00020211208143139    1N0N  00000240000001152000001362032D2    TGYOT-G 005500360039
BI00A32D9    #I222A         202112237171-6291                HOUSING MALE             CCN000000384000000384FN00000000020211201000000384NNED0720211208162336    2F0F  00000019200001339100001489132D9    UEHESTO 005500360039
BI00A32D9    #I222A         202112237174-1749                COVER                    CCN000000294000000294FN00000000020211201000000294NNED0720211208162336    2F0F  00000029400000689600000834632D9    UEHESTO 005500360039
BI00B32EJ    4500185435     202112237116-4100-02             TERMINAL                 CCN000015000000015000FN00000000020211201000015000NNE   20211208121744EJ  4P0P  00001500000000696000000990232EJ    EJYKBO  006400630015
BI00A32G2    #SA22011HMW    202112137282-5528-70             HOUSING MALE ASS'Y       PCN000012000000012000FN00000000020220101000012000NNM00020211208153733    2N0N  00000100000000230000000339032G2    AISUAI  005400370024
BI00B32G7    JJ21122MMW     202112137327-6731-3W             BATTERY FUSE             CCN000000384000000384FN00000000020211201000000384NNM00020211208153812    4N0N  00000006400000697600000843032G7    JIJAI   005400370024
BI00B32G7    JJ2109DMMW     202112137327-6731-3W             BATTERY FUSE             CCN000004992000004992FN00000000020210901000004992NNE00020211208153739    4N0N  00000006400000697600000843032G7    JIJAI   005400370024
BI00B32G8    PATA2021A      202201127154-5559-3W             ENG R/B FRAME            CCN000000108000000108FN00000000020220201000000108NNE   20211208151326    1F0F  00000001800000454000000674432G8    PSPASI  005600390040
BI00B32H0    TT2202BVMW     202201047196-0510-02             TERMINAL                 CCN000024000000024000FN00000000020220201000024000NNE   20211208140707    4P0P  00002400000000871200001034632H0    TTTJY   002800510028
BI00B32H0    TT2202BVMW     202201047289-6547                HOUSING FEMALE ASS'Y     CCN000002400000002400FN00000000020220201000002400NNE   20211208140707    1N0N  00000240000001152000001362032H0    TTTJY   005500360039
BI00B32H0    TT2202BVMW     202201047386-9155                CONNECTOR MALE ASS'Y     CCN000000600000000600FN00000000020220201000000600NNE   20211208140707    4N0N  00000060000001244400001369932H0    TTTJY   005400370024
BI00B32H0    #TT2202BVMW    202201047172-5631-60             RUBBER STOPPER           CCN000020000000020000FN00000000020220201000020000NNE   20211208140651    2H0H  00002000000000042000000093132H0    TTTJY   004300270014
BI00B32H2    TIJ2013        202112177289-3342-40             HOUSING FEMALE ASS'Y     CCN000004800000000000FY00000000020220101000000000NNMQ0820211208085052    1N0N  00000240000000686400000901432H2    HVYHV   005500360039
BI00B32H2    TIJ2014        202112247289-3342-40             HOUSING FEMALE ASS'Y     CCN000009600000000000FY00000000020220101000000000NNMQ0820211208085108    1N0N  00000240000000686400000901432H2    HVYHV   005500360039
BI00B32H2    TIJ2013        202112177289-6597-70             HOUSING FEMALE ASS'Y     CCN000004320000000000FY00000000020220101000000000NNMQ0820211208085154    4N0N  00000216000001289500001539532H2    HVYHV   005500360039
BI00B32H2    TIJ2014        202112247289-6597-70             HOUSING FEMALE ASS'Y     CCN000004320000000000FY00000000020220101000000000NNMQ0820211208085238    4N0N  00000216000001289500001539532H2    HVYHV   005500360039
BI00A32H2    #QA-21-C122    202112087282-5845-30             HOUSING MALE ASS'Y       PNN000004000000008000FY00000800020211201000000000NNEM0020211208160711    2N0N  00000400000001068000001178032H2    HVYHV   005400370024
BI00B32K8    #K1210013172   202112247137-2718-50             SEALED CONNECTOR         CCN000007000000007000FN00000000020220201000007000NNM   20211208132001    2C0C  00000100000000118300000236632K8    ELELCOM 002700430014
BI00B32K8    #K1210013173   202112247137-2718-50             SEALED CONNECTOR         CCN000007000000007000FN00000000020220201000007000NNM   20211208132159    2C0C  00000100000000118300000236632K8    ELELCOM 002700430014
BI00B32M1    TCV1122        202112117283-1288-40             CONNECTOR HOUSING        CCN000004800000004800FN00000000020211201000004800NNM00020211208153104    4N0N  00000120000001382000001640732M1    VNYEV   005600390040
BI00B32M1    TCV1123        202112117283-1288-40             CONNECTOR HOUSING        CCN000002400000002400FN00000000020211201000002400NNM00020211208153144    4N0N  00000120000001382000001640732M1    VNYEV   005600390040
BI00B32M1    TCV1123        202112117287-1915-30             CONNECTOR ASS'Y          CCN000004800000004800FN00000000020211201000004800NNM00020211208153207    4N0N  00000240000000666500000923132M1    VNYEV   005500360039
BI00B32M1    TCV2014        202201067017-1182-02             TERMINAL                 CCN000045000000000000FY00000000020220101000000000NNMQ0820211208165620    4P0P  00004500000001165500001318632M1    VNYEV   005100280028
BI00B32M1    TCV2013        202112237114-7842-02             TERMINAL MALE            CCN000012000000000000FY00000000020220101000000000NNMQ0820211208165912    4P0P  00001200000000460800000754432M1    VNYEV   006400630015
BI00B32M1    TCV2014        202201067116-1257-02             TERMINAL                 CCN000024000000000000FY00000000020220101000000000NNMQ0820211208165640    1P0P  00002400000000518400000847132M1    VNYEV   006400630017
BI00B32M1    TCV2014        202201067116-4025                TERMINAL                 CCN000032000000000000FY00000000020220101000000000NNMQ0820211208165702    4P0P  00001600000000644800000975132M1    VNYEV   006400630017
BI00B32M1    TCV2013        202112237283-5830                CONNECTOR                CCN000006000000000000FY00000000020220101000000000NNMQ0820211208165735    1N47  00000600000000954000001104032M1    VNYEV   005500360039
BI00A32M3    #SM21124DMW    202112137282-5528-70             HOUSING MALE ASS'Y       PCN000001000000001000FN00000000020211201000001000NNMM0020211208153610    2N0N  00000100000000230000000339032M3    SASAMI  005400370024
BI00A32M3    #SM22011DMW    202112137282-5528-70             HOUSING MALE ASS'Y       PCN000002000000002000FN00000000020220101000002000NNM00020211208153708    2N0N  00000100000000230000000339032M3    SASAMI  005400370024
BI00A32M3    #SM22014HMW    202112137286-8859                HOUSING MALE ASS'Y       CCN000001600000001600FN00000000020220101000001600NNMM0020211208133833    2N0N  00000080000000573100000733132M3    SASAMI  005400370024
BI00A32M4    #TL1124        202112227172-5629-80             RUBBER STOPPER           PCN000100000000100000FN00000000020211201000100000NNMM0020211208181203    2H0H  00002000000000060000000111132M4    SISAI   004300270014
BI00B32M4    #TL2014B       202112237125-3236                HEAD LAMP CONNECTOR      CCN000002800000002800FN00000000020220101000002800NNE   20211208121744    2F0F  00000280000000935200001075432M4    SISAI   005500360039
BI00B32M4    #TL2014B       202112237283-5834                CONNECTOR ASS'Y          CCN000006480000006480FN00000000020220101000006480NNE   20211208121744    2N0N  00000324000001296000001849732M4    SISAI   005600390040
BI00B32M4    #TL2014B       202112237283-5834-30             CONNECTOR ASS'Y          CCN000003240000003240FN00000000020220101000003240NNE   20211208121744    2N0N  00000324000001296000001853432M4    SISAI   005600390040
BI00B32M4    #TL2014B       202112237183-2413-30             CONNECTOR HOUSING        CCN000004800000004800FN00000000020220101000004800NNE   20211208121744    2F0F  00000480000000477600000759532M4    SISAI   005500360039
BI00B32M4    #TL2014B       202112237172-5625-90             RUBBER STOPPER           CCN000020000000020000FN00000000020220101000020000NNE   20211208121744    2H0H  00002000000000082400000133832M4    SISAI   004300270014
BI00B32M4    #TL2014B       202112237282-7040-10             HOUSING MALE ASS'Y       CCN000001200000001200FN00000000020220101000001200NNE   20211208121744    2N0N  00000120000000620400000731932M4    SISAI   005400370024
BI00B32M4    #TL2014B       202112237158-3003-90             RUBBER STOPPER           CCN000060000000060000FN00000000020220101000060000NNE   20211208121744    2C0C  00002000000000250000000306032M4    SISAI   002700430014
BI00B32M4    TP2014H        202112237017-1180-02             TERMINAL                 CCN000072000000072000FN00000000020220101000072000NNE   20211208121744    4P0P  00007200000001065600001229032M4    SISAI   005100280028
BI00B32M4    TP2014H        202112237114-5746-02             TERMINAL                 CCN000042000000042000FN00000000020220101000042000NNE   20211208121744    4P0P  00002100000000695100000988732M4    SISAI   006400630015
BI00B32M4    TP2014H        202112237114-5748-02             TERMINAL                 CCN000060000000060000FN00000000020220101000060000NNE   20211208121744    4P0P  00001200000000444000000737632M4    SISAI   006400630015
BI00B32M4    TP2014H        202112237116-4114-02             TERMINAL                 CCN000010500000010500FN00000000020220101000010500NNE   20211208121744    4P0P  00001050000000693000000981232M4    SISAI   006400630015
BI00B32M4    TP2014H        202112237116-4231-02             TERMINAL                 CCN000208000000208000FN00000000020220101000208000NNE   20211208121744    4P0P  00002600000000683800001012532M4    SISAI   006400630017
BI00B32M4    TP2014H        202112237116-4486-02             TERMINAL                 CCN000028000000028000FN00000000020220101000028000NNE   20211208121744    4P0P  00002800000000666400000995132M4    SISAI   006400630017
BI00B32M4    TP2014H        202112237116-5042-02             TERMINAL                 CCN000094500000094500FN00000000020220101000094500NNE   20211208121744    4P0P  00001350000000560300000845532M4    SISAI   006400630015
BI00B32M4    TP2014H        202112237116-5045-02             TERMINAL                 CCN000016000000016000FN00000000020220101000016000NNE   20211208121744    4P0P  00001600000000678400001007132M4    SISAI   006400630017
BI00B32M4    TP2014H        202112237158-3006-90             RUBBER STOPPER           CCN000060000000060000FN00000000020220101000060000NNE   20211208121744    1C0C  00002000000000330600000386032M4    SISAI   002700430014
BI00B32M4    TP2014H        202112237283-1288                CONNECTOR HOUSING        CCN000001200000001200FN00000000020220101000001200NNE   20211208121744    4N0N  00000120000001381000001637032M4    SISAI   005600390040
BI00B32M4    TP2014H        202112237114-4728-08             TERMINAL                 CCN000030000000030000FN00000000020220101000030000NNE   20211208121744    4P0P  00003000000000507000000801232M4    SISAI   006400630015
BI00B32M4    TP2014H        202112237116-5750-02             TERMINAL                 CCN000030000000030000FN00000000020220101000030000NNE   20211208121744    4P0P  00001500000000457500000742732M4    SISAI   006400630015
BI00B32M4    TP2014H        202112237283-1289-40             CONNECTOR HOUSING        CCN000002400000002400FN00000000020220101000002400NNE   20211208121744    1N0N  00000060000000679800000824832M4    SISAI   005400370024
BI00B32M4    #TP2014H       202112237198-4979-30             HOUSING FEMALE           CCN000016000000016000FN00000000020220101000016000NNE   20211208121744    2F0F  00000400000000707200000876032M4    SISAI   005400370024
BI00B32M4    @TP2014H       202112237283-7443-30             HOUSING SUB ASSEMBLY     CCN000002400000002400FN00000000020220101000002400NNE   20211208121744    3N0N  00000240000000683700000908032M4    SISAI   005500360039
BI00A32N1    NST2113-1ECU   202112027288-3335-30             HOUSING MALE             CCN000004500000001500FY00000150020211201000000000NNE00020211208131047    4N0N  00000150000000867000001012032N1    TAYIPL  005400370024
BI00B32P8    #TAPI-1123     202112097172-5629-80             RUBBER STOPPER           CCN000140000000020000FN00000000020211201000020000NNMQ0020211208150316    2H0H  00002000000000060000000111132P8    YIYTM   004300270014
BI00B32P8    #TAPI-1123     202112097289-4200-30             HOUSING FEMALE ASS'Y     CCN000008000000002000FN00000000020211201000002000NNMQ0020211208150327    2N0N  00000200000000926000001021032P8    YIYTM   005400370024
BI00B32R7    R-TAP210611    202112237298-1186-40             SQUIB SUB ASS'Y          CCN000180000000180000FN00000000020220101000180000NNE   20211208121744    4N0N  00001000000000650000000774532R7    IVYCIC  005400370024
BI00B32R7    R-TAP210612    202112237298-5993-30             SEALED ASSY FEMALE       CCN000041496000041496FN00000000020220101000041496NNE   20211208152043    4N0N  00000218400000981500001290032R7    IVYCIC  005500360039
BI00A32W4    4500182898     202112237116-4104-02             TERMINAL                 CCN000024000000024000FN00000000020211201000024000NNEM0020211208131209W4464P0P  00001200000000580800000972432W446  HJYHK   006400630015
BI00A32W4    4500182910     202112237116-4101-02             TERMINAL                 CCN000036000000036000FN00000000020211201000036000NNEM0020211208131142W4464P0P  00001200000000582000000876232W446  HJYHK   006400630015
BI00B32W4    4500185280     202204077158-3167-80             WIRE SEAL                CCN002000000000500000FN00000000020220301000500000NNED0420211208121744W4561C0C  00002000000000048000000109032W456  HJYHK   002700430014
BI00B32W4    4500185280     202204217158-3167-80             WIRE SEAL                CCN000050000000500000FN00000000020220301000500000NNED0420211208121744W4561C0C  00002000000000048000000109032W456  HJYHK   002700430014
BI00B32W4    4500185280     202204287158-3167-80             WIRE SEAL                CCN000500000000500000FN00000000020220301000500000NNED0420211208121744W4561C0C  00002000000000048000000109032W456  HJYHK   002700430014
BI00B32W4    4500185280     202205057158-3167-80             WIRE SEAL                CCN000500000000500000FN00000000020220301000500000NNED0420211208121744W4561C0C  00002000000000048000000109032W456  HJYHK   002700430014
BI00B32W4    4500185374     202203037114-4100-02             TERMINAL                 CCN000018000000018000FN00000000020220301000018000NNE   20211208121744W48 4P0P  00001800000000748800001077432W48   HJYHK   006400630017
BI00B32W4    4500185375     202202247116-4104-02             TERMINAL                 CCN000012000000012000FN00000000020220201000012000NNE   20211208121744W48 4P0P  00001200000000580800000972432W48   HJYHK   006400630015
BI00B32W4    4500185376     202202037116-4120-02             TERMINAL                 CCN000006000000006000FN00000000020220201000006000NNE   20211208121744W48 4P0P  00000600000000780000001073632W48   HJYHK   006400630015
BI00B32W4    4500185376     202202037116-4025                TERMINAL                 CCN000016000000016000FN00000000020220201000016000NNE   20211208121744W48 4P0P  00001600000000644800000975132W48   HJYHK   006400630017
BI00B32W4    4500185376     202202037116-4121-02             TERMINAL                 CCN000013500000013500FN00000000020220201000013500NNE   20211208121744W48 4P0P  00000450000000618800000912432W48   HJYHK   006400630015
BI00B32W4    4500185376     202202037158-3166-60             WIRE SEAL                CCN000040000000040000FN00000000020220201000040000NNE   20211208121744W48 1C0C  00004000000000104000000152432W48   HJYHK   002700430014
BI00B32W4    #4500185376    202202037123-6423-30             CONNECTOR                CCN000004000000004000FN00000000020220201000004000NNE   20211208121744W48 2F0F  00000200000001002000001167632W48   HJYHK   005600390023
BI00B32W4    @4500185376    202202037123-4312-80             HOUSING                  CCN000002400000002400FN00000000020220201000002400NNE   20211208121744W48 3F0F  00000080000000644200000794032W48   HJYHK   005500360039
BI00B32W4    4500185377     202201277116-4120-02             TERMINAL                 CCN000006000000006000FN00000000020220101000006000NNE   20211208121744W48 4P0P  00000600000000780000001073632W48   HJYHK   006400630015
BI00B32W4    4500185377     202201277116-1230                TERMINAL                 CCN000013500000013500FN00000000020220101000013500NNE   20211208121744W48 4P0P  00001350000000664200000952432W48   HJYHK   006400630015
BI00B32W4    4500185377     202201277116-4122-02             TERMINAL                 CCN000004500000004500FN00000000020220101000004500NNE   20211208121744W48 4P0P  00000450000000656600000950232W48   HJYHK   006400630015
BI00B32W4    4500185377     202201277116-4025                TERMINAL                 CCN000016000000016000FN00000000020220101000016000NNE   20211208121744W48 4P0P  00001600000000644800000975132W48   HJYHK   006400630017
BI00B32W4    4500185377     202201277116-4121-02             TERMINAL                 CCN000018000000018000FN00000000020220101000018000NNE   20211208121744W48 4P0P  00000450000000618800000912432W48   HJYHK   006400630015
BI00B32W4    4500185377     202201277158-3165-90             WIRE SEAL                CCN000040000000040000FN00000000020220101000040000NNE   20211208121744W48 1C0C  00004000000000124000000172432W48   HJYHK   004300270014
BI00B32W4    4500185377     202201277158-3006-90             RUBBER STOPPER           CCN000020000000020000FN00000000020220101000020000NNE   20211208121744W48 1C0C  00002000000000330600000386032W48   HJYHK   002700430014
BI00B32W4    4500185377     202201277158-3166-60             WIRE SEAL                CCN000040000000040000FN00000000020220101000040000NNE   20211208121744W48 1C0C  00004000000000104000000152432W48   HJYHK   002700430014
BI00B32W4    4500185377     202201277222-6244-40             CONNECTOR                CCN000002400000002400FN00000000020220101000002400NNE   20211208121744W48 4N0N  00000080000001239200001422032W48   HJYHK   005600390040
BI00B32W4    4500185377     202201277289-7615-30             HOUSING FEMALE ASS'Y     CCN000002240000002240FN00000000020220101000002240NNE   20211208121744W48 4N0N  00000032000000738000000948032W48   HJYHK   005400370024
BI00B32W4    4500185377     202201277172-1372-10             FRONT HOLDER             CCN000003900000003900FN00000000020220101000003900NNE   20211208121744W48 4F0F  00000390000000655200000955232W48   HJYHK   005500360039
BI00B32W4    #4500185377    202201277158-3004-40             RUBBER STOPPER           CCN000020000000020000FN00000000020220101000020000NNE   20211208121744W48 2C0C  00002000000000234000000306332W48   HJYHK   002700430014
BI00B32W4    @4500185377    202201277123-4312-80             HOUSING                  CCN000003200000003200FN00000000020220101000003200NNE   20211208121744W48 3F0F  00000080000000644200000794032W48   HJYHK   005500360039
BI00B32W4    4500185378     202201207116-4121-02             TERMINAL                 CCN000009000000009000FN00000000020220101000009000NNE   20211208121744W48 4P0P  00000450000000618800000912432W48   HJYHK   006400630015
BI00B32W4    4500185378     202201207158-3165-90             WIRE SEAL                CCN000040000000040000FN00000000020220101000040000NNE   20211208121744W48 1C0C  00004000000000124000000172432W48   HJYHK   004300270014
BI00B32W4    4500185378     202201207222-6244-40             CONNECTOR                CCN000001600000001600FN00000000020220101000001600NNE   20211208121744W48 4N0N  00000080000001239200001422032W48   HJYHK   005600390040
BI00B32W4    4500185378     202201207289-7615-30             HOUSING FEMALE ASS'Y     CCN000001600000001600FN00000000020220101000001600NNE   20211208121744W48 4N0N  00000032000000738000000948032W48   HJYHK   005400370024
BI00B32W4    #4500185378    202201207158-3121-80             WIRE SEAL                CCN000040000000040000FN00000000020220101000040000NNE   20211208121744W48 2C0C  00002000000000118000000187332W48   HJYHK   002700430014
BI00B32W4    #4500185378    202201207157-3950-80             SEAL RUBBER              CCN000040000000040000FN00000000020220101000040000NNE   20211208121744W48 2C0C  00004000000000154000000440332W48   HJYHK   002700430014
BI00B32W4    #4500185378    202201207157-3952-80             RUBBER STOPPER           CCN000010000000010000FN00000000020220101000010000NNE   20211208121744W48 2C0C  00001000000000117000000175032W48   HJYHK   002700430014
BI00B32W4    @4500185378    202201207123-4312-80             HOUSING                  CCN000000800000000800FN00000000020220101000000800NNE   20211208121744W48 3F0F  00000080000000644200000794032W48   HJYHK   005500360039
BI00B32W4    4500185379     202201137222-6244-40             CONNECTOR                CCN000001600000001600FN00000000020220101000001600NNE   20211208121744W48 4N0N  00000080000001239200001422032W48   HJYHK   005600390040
BI00B32W4    4500185379     202201137289-7615-30             HOUSING FEMALE ASS'Y     CCN000000960000000960FN00000000020220101000000960NNE   20211208121744W48 4N0N  00000032000000738000000948032W48   HJYHK   005400370024
BI00B32W4    4500185379     202201137172-1372-10             FRONT HOLDER             CCN000003900000003900FN00000000020220101000003900NNE   20211208121744W48 4F0F  00000390000000655200000955232W48   HJYHK   005500360039
BI00B32W4    4500185380     202201067158-3165-90             WIRE SEAL                CCN000040000000040000FN00000000020220101000040000NNE   20211208121744W48 1C0C  00004000000000124000000172432W48   HJYHK   004300270014
BI00B32W4    #4500185380    202201067158-3003-90             RUBBER STOPPER           CCN000040000000040000FN00000000020220101000040000NNE   20211208121744W48 2C0C  00002000000000250000000306032W48   HJYHK   002700430014
BI00B32W4    #4500185381    202112237158-3003-90             RUBBER STOPPER           CCN000020000000020000FN00000000020211201000020000NNE   20211208121744W48 2C0C  00002000000000250000000306032W48   HJYHK   002700430014
BI00A32W4    #4500185420    202201277282-2090-30             CONNECTOR MALE ASS'Y     CCN000002400000002400FN00000000020220101000002400NNE   20211208121744W44 2N0N  00000240000000794000001073032W44   HJYHK   005500360039
BI00B32W4    4500185448     202202107116-4100-02             TERMINAL                 CCN000510000000510000FN00000000020220201000510000NNE   20211208121744W4664P0P  00001500000000696000000990232W466  HJYHK   006400630015
BI00B32W4    4500185448     202202107114-4112-02             TERMINAL                 CCN000099000000099000FN00000000020220201000099000NNE   20211208121744W4664P0P  00000900000000598500000927132W466  HJYHK   006400630017
BI00B32W4    4500185448     202202107116-4111-02             TERMINAL                 CCN000052500000052500FN00000000020220201000052500NNE   20211208121744W4664P0P  00000750000000529500000817732W466  HJYHK   006400630015
BI00B32W4    4500185448     202202107116-4112-02             TERMINAL                 CCN000042000000042000FN00000000020220201000042000NNE   20211208121744W4664P0P  00000600000000450000000738232W466  HJYHK   006400630015
BI00B32W4    4500185448     202202107116-4102-02             TERMINAL                 CCN000168000000168000FN00000000020220201000168000NNE   20211208121744W4664P0P  00001200000000553200000841432W466  HJYHK   006400630015
BI00B32W4    4500185448     202202107114-4100-02             TERMINAL                 CCN000288000000288000FN00000000020220201000288000NNE   20211208121744W4664P0P  00001800000000748800001077432W466  HJYHK   006400630017
BI00B32W4    4500185448     202202107116-4026                TERMINAL                 CCN000016000000016000FN00000000020220201000016000NNE   20211208121744W4664P0P  00001600000000664000000994332W466  HJYHK   006400630017
BI00B32W4    4500185448     202202107114-4111-02             TERMINAL                 CCN000036000000036000FN00000000020220201000036000NNE   20211208121744W4664P0P  00001200000000758400001087032W466  HJYHK   006400630017
BI00B32W4    4500185448     202202107283-5548-30             CONNECTOR                CCN000001500000001500FN00000000020220201000001500NNE   20211208121744W4664N0N  00000150000001109000001302032W466  HJYHK   005600390040
BI00B32W4    4500185448     202202107116-4101-02             TERMINAL                 CCN000096000000096000FN00000000020220201000096000NNE   20211208121744W4664P0P  00001200000000582000000876232W466  HJYHK   006400630015
BI00B32W4    4500185448     202202107114-4101-02             TERMINAL                 CCN000060000000060000FN00000000020220201000060000NNE   20211208121744W4664P0P  00001500000000675000001003632W466  HJYHK   006400630017
BI00B32W4    4500185448     202202107116-4104-02             TERMINAL                 CCN000060000000060000FN00000000020220201000060000NNE   20211208121744W4664P0P  00001200000000580800000972432W466  HJYHK   006400630015
BI00B32W4    4500185448     202202107114-4110-02             TERMINAL                 CCN000060000000060000FN00000000020220201000060000NNE   20211208121744W4664P0P  00001500000000901500001230132W466  HJYHK   006400630017
BI00B32W4    4500185448     202202107116-4110-02             TERMINAL                 CCN000108000000108000FN00000000020220201000108000NNE   20211208121744W4664P0P  00000900000000594000000882232W466  HJYHK   006400630015
BI00B32W4    4500185448     202202107116-4103-02             TERMINAL                 CCN000012000000012000FN00000000020220201000012000NNE   20211208121744W4664P0P  00001200000000571200000859432W466  HJYHK   006400630015
BI00B32W4    #4500185448    202202107282-4190-30             CONNECTOR                CCN000006720000006720FN00000000020220201000006720NNE   20211208121744W4662N0N  00000024000000801000001071332W466  HJYHK   005600390040
BI00B32W4    #4500185448    202202107283-4190-30             CONNECTOR                CCN000005760000005760FN00000000020220201000005760NNE   20211208121744W4662N0N  00000024000000846000001115532W466  HJYHK   005600390040
BI00B32W4    #4500185448    202202107158-3003-90             RUBBER STOPPER           CCN000020000000020000FN00000000020220201000020000NNE   20211208121744W4662C0C  00002000000000250000000306032W466  HJYHK   002700430014
BI00A32W4    4500185449     202202107158-3167-80             WIRE SEAL                CCN000160000000160000FN00000000020220201000160000NNE   20211208121744W4G91C0C  00002000000000048000000109032W4G9  HJYHK-J 002700430014
BI00A32W4    4500185449     202202107158-3168-80             SEALED                   CCN000040000000040000FN00000000020220201000040000NNE   20211208121744W4G91C0C  00002000000000044000000092132W4G9  HJYHK-J 004300260014
BI00A32W4    #4500185449    202202107158-3120-90             CONNECTOR WIRE SEAL      CCN000020000000020000FN00000000020220201000020000NNE   20211208121744W4G92C0C  00002000000000136000000194032W4G9  HJYHK-J 002700430014
BI00B32W4    4500185457     202202107158-3167-80             WIRE SEAL                CCN000600000000600000FN00000000020220201000600000NNE   20211208121744W4B71C0C  00002000000000048000000109032W4B7  HJYHK-J 002700430014
BI00B32W4    4500185457     202202107158-3168-80             SEALED                   CCN000400000000400000FN00000000020220201000400000NNE   20211208121744W4B71C0C  00002000000000044000000092132W4B7  HJYHK-J 004300260014
BI00B32W4    4500185457     202202107158-3166-60             WIRE SEAL                CCN000120000000120000FN00000000020220201000120000NNE   20211208121744W4B71C0C  00004000000000104000000152432W4B7  HJYHK-J 002700430014
BI00B32W4    4500185460     202202247158-3070-80             RUBBER STOPPER           CCN000040000000040000FN00000000020220201000040000NNE   20211208121744W46 1C0C  00004000000000276000000333332W46   HJYHK   002700430014
BI00B32W4    4500185463     202202247116-4111-02             TERMINAL                 CCN000015000000015000FN00000000020220201000015000NNE   20211208121744W4N84P0P  00000750000000529500000817732W4N8  HJYHK-J 006400630015
BI00B32W4    4500185463     202202247116-4121-02             TERMINAL                 CCN000004500000004500FN00000000020220201000004500NNE   20211208121744W4N84P0P  00000450000000618800000912432W4N8  HJYHK-J 006400630015
BI00B32W4    4500185465     202202177116-4111-02             TERMINAL                 CCN000007500000007500FN00000000020220201000007500NNE   20211208121744W4N84P0P  00000750000000529500000817732W4N8  HJYHK-J 006400630015
BI00A32W4    #4500185472    202203247158-3005-80             RUBBER STOPPER           CCN000020000000020000FN00000000020220301000020000NNE   20211208121744W4M52H0H  00002000000000210000000268732W4M5  HJYHK-J 002700430014
BI00A32W4    4500185473     202202037283-1030                CONNECTOR                CCN000006000000006000FN00000000020220201000006000NNE   20211208121744W4M54N0N  00000600000000988000001172032W4M5  HJYHK-J 005500360039
BI00A32W4    4500185474     202202107283-7028-30             CONNECTOR                CCN000003000000003000FN00000000020220201000003000NNE   20211208121744W4M54N0N  00000300000001452000001681332W4M5  HJYHK-J 005600390040
BI00A32W4    4500185474     202202107158-3166-60             WIRE SEAL                CCN000040000000040000FN00000000020220201000040000NNE   20211208121744W4M51C0C  00004000000000104000000152432W4M5  HJYHK-J 002700430014
BI00B32W4    4500185482     202202107114-4112-02             TERMINAL                 CCN000009000000009000FN00000000020220201000009000NNE   20211208121744W4464P0P  00000900000000598500000927132W446  HJYHK   006400630017
BI00B32W4    4500185482     202202107116-4102-02             TERMINAL                 CCN000024000000024000FN00000000020220201000024000NNE   20211208121744W4464P0P  00001200000000553200000841432W446  HJYHK   006400630015
BI00B32W4    4500185482     202202107158-3167-80             WIRE SEAL                CCN000020000000020000FN00000000020220201000020000NNE   20211208121744W4461C0C  00002000000000048000000109032W446  HJYHK   002700430014
BI00B32W4    4500185482     202202107116-4101-02             TERMINAL                 CCN000024000000024000FN00000000020220201000024000NNE   20211208121744W4464P0P  00001200000000582000000876232W446  HJYHK   006400630015
BI00B32W4    4500185482     202202107116-4104-02             TERMINAL                 CCN000012000000012000FN00000000020220201000012000NNE   20211208121744W4464P0P  00001200000000580800000972432W446  HJYHK   006400630015
BI00B32W4    4500185493     202201257017-1180-02             TERMINAL                 CCN000072000000072000FN00000000020220101000072000NNE   20211208121744W41 4P0P  00007200000001065600001229032W41   HJYHK   005100280028
BI00B32W4    #4500185503    202202017172-5938-80             SEALED                   CCN000005000000005000FN00000000020220201000005000NNE   20211208121744W41 2H0H  00000500000000442500000490732W41   HJYHK   004300270014
BI00A32W4    4500185511     202202107116-4102-02             TERMINAL                 CCN000012000000012000FN00000000020220201000012000NNE   20211208121744W4194P0P  00001200000000553200000841432W419  HJYHK   006400630015
BI00A32W4    4500185511     202202107116-4101-02             TERMINAL                 CCN000012000000012000FN00000000020220201000012000NNE   20211208121744W4194P0P  00001200000000582000000876232W419  HJYHK   006400630015
BI00A32W4    4500185511     202202107116-4103-02             TERMINAL                 CCN000012000000012000FN00000000020220201000012000NNE   20211208121744W4194P0P  00001200000000571200000859432W419  HJYHK   006400630015
BI00A32W4    4500185512     202202037114-4112-02             TERMINAL                 CCN000009000000009000FN00000000020220201000009000NNE   20211208121744W4194P0P  00000900000000598500000927132W419  HJYHK   006400630017
BI00A32W4    4500185512     202202037158-3167-80             WIRE SEAL                CCN000020000000020000FN00000000020220201000020000NNE   20211208121744W4191C0C  00002000000000048000000109032W419  HJYHK   002700430014
BI00B32W9    4500168359     202112097289-6868-30             SEALED ASSY FEMALE       CCN000010080000010080FN00000000020210401000010080NNE00020211208163042W9  4N0N  00000252000000839200001119232W9    HKYHK   005500360039
BI00B32W9    4500168359     202112107289-6868-30             SEALED ASSY FEMALE       CCN000010080000010080FN00000000020210401000010080NNE00020211208163042W9  4N0N  00000252000000839200001119232W9    HKYHK   005500360039
BI00B32W9    4500174314     202112097289-6868-30             SEALED ASSY FEMALE       CCN000015120000015120FN00000000020210701000015120NNE00020211208163132W9  4N0N  00000252000000839200001119232W9    HKYHK   005500360039
BI00B32W9    4500174314     202112097289-6868-30             SEALED ASSY FEMALE       CCN000012600000012600FN00000000020210701000012600NNE00020211208163132W9  4N0N  00000252000000839200001119232W9    HKYHK   005500360039
BI00B32W9    4500185450     202203297289-6868-30             SEALED ASSY FEMALE       CCN000252000000252000FN00000000020220301000252000NNE   20211208121744W9  4N0N  00000252000000839200001119232W9    HKYHK   005500360039
BI00B32W9    4500185452     202202017287-7975-4W             SQUIB SUB ASS'Y          CCN000200000000200000FN00000000020220201000200000NNE   20211208121744W9  4N0N  00001000000000837000001017032W9    HKYHK   005400370024
BI00B32W9    4500185452     202202017172-5540-80             SEALED WIRE SEAL         CCN000660000000660000FN00000000020220201000660000NNE   20211208121744W9  1C0C  00002000000000186000000234432W9    HKYHK   004300270014
BI00B32W9    4500185452     202202017196-0805-02             TERMINAL FEMALE          CCN000315000000315000FN00000000020220201000315000NNE   20211208121744W9  4P0P  00002250000000558000000843232W9    HKYHK   006400630015
BI00B32W9    4500185452     202202017289-3342-30             HOUSING FEMALE ASS'Y     CCN000009600000009600FN00000000020220201000009600NNE   20211208121744W9  1N0N  00000240000000686400000901432W9    HKYHK   005500360039
BI00B32W9    4500185452     202202017298-4094-10             HOUSING FEMALE ASS'Y     CCN000013520000013520FN00000000020220201000013520NNE   20211208121744W9  4N0N  00000338000001097400001358732W9    HKYHK   005400370024
BI00B32W9    #4500185452    202202017198-1373-60             HOUSING FEMALE           CCN000038000000038000FN00000000020220201000038000NNE   20211208121744W9  2F0F  00000200000000819400000947432W9    HKYHK   005400370024
BI00B32W9    4500185467     202202017298-5993-30             SEALED ASSY FEMALE       CCN000010920000010920FN00000000020220201000010920NNE   20211208121744W9  4N0N  00000218400000981500001290032W9    HKYHK   005500360039
BI00B32W9    4500185508     202201257114-4100-02             TERMINAL                 CCN000018000000018000FN00000000020220101000018000NNE   20211208121744W9  4P0P  00001800000000748800001077432W9    HKYHK   006400630017
BI00A32X5    TAPCOR01C      202112107289-3342-40             HOUSING FEMALE ASS'Y     CCN000007200000007200FN00000000020210801000007200NNEM0020211208144415X5  1N0N  00000240000000686400000901432X5    EPYNA-E 005500360039
BI00B32Y1    TA2021A        202201047287-9323                UNSEALED HOUSING SUB     CCN000009600000009600FN00000000020220201000009600NNM   20211208121744    1N0N  00000240000000537600000690032Y1    YAYAS   005600390023
BI00B32Y1    TA2022A        202201177287-9323                UNSEALED HOUSING SUB     CCN000007200000007200FN00000000020220201000007200NNM   20211208121744    1N0N  00000240000000537600000690032Y1    YAYAS   005600390023
BI00B32Y1    TA2021A        202201047289-3342-30             HOUSING FEMALE ASS'Y     CCN000021600000021600FN00000000020220201000021600NNM   20211208121744    1N0N  00000240000000686400000901432Y1    YAYAS   005500360039
BI00B32Y1    TA2022A        202201177289-3342-30             HOUSING FEMALE ASS'Y     CCN000021600000021600FN00000000020220201000021600NNM   20211208121744    1N0N  00000240000000686400000901432Y1    YAYAS   005500360039
BI00B32Y1    TA2021A        202201047388-2978-30             HOUSING MALE ASS'Y       CCN000015840000015840FN00000000020220201000015840NNM   20211208121744    1N0N  00000048000000742000001122032Y1    YAYAS   005500360039
BI00B32Y1    TA2022A        202201177388-2978-30             HOUSING MALE ASS'Y       CCN000015360000015360FN00000000020220201000015360NNM   20211208121744    1N0N  00000048000000742000001122032Y1    YAYAS   005500360039
BI00B32Y1    TA2021A        202201047158-3022-80             RUBBER STOPPER           CCN000005000000005000FN00000000020220201000005000NNM   20211208121744    1C0C  00000500000000467500000524032Y1    YAYAS   002700430014
BI00B32Y1    TA2021A        202201047116-4037                TERMINAL                 CCN000026400000030000FN00000000020220201000030000NNM   20211208121744    4P0P  00000600000000600000000894232Y1    YAYAS   006400630015
BI00B32Y1    TA2022A        202201177116-4037                TERMINAL                 CCN000019800000024000FN00000000020220201000024000NNM   20211208121744    4P0P  00000600000000600000000894232Y1    YAYAS   006400630015
BI00B32Y1    TA2021A        202201047114-6041                TERMINAL                 CCN000007200000007200FN00000000020220201000007200NNM   20211208121744    4P0P  00000360000000580700000824232Y1    YAYAS   006400630015
BI00B32Y1    TA2022A        202201177114-6041                TERMINAL                 CCN000007200000007200FN00000000020220201000007200NNM   20211208121744    4P0P  00000360000000580700000824232Y1    YAYAS   006400630015
BI00B32Y1    TA2021A        202201047158-3070-80             RUBBER STOPPER           CCN000040000000040000FN00000000020220201000040000NNM   20211208121744    1C0C  00004000000000276000000333332Y1    YAYAS   002700430014
BI00B32Y1    TA2022A        202201177158-3070-80             RUBBER STOPPER           CCN000040000000040000FN00000000020220201000040000NNM   20211208121744    1C0C  00004000000000276000000333332Y1    YAYAS   002700430014
BI00B32Y1    TA2021A        202201047158-3009-60             RUBBER STOPPER           CCN000200000000200000FN00000000020220201000200000NNM   20211208121744    1C0C  00002000000000338000000386232Y1    YAYAS   002700430014
BI00B32Y1    TA2022A        202201177158-3009-60             RUBBER STOPPER           CCN000200000000200000FN00000000020220201000200000NNM   20211208121744    1C0C  00002000000000338000000386232Y1    YAYAS   002700430014
BI00B32Y1    TA2021A        202201047116-5750-02             TERMINAL                 CCN000075000000075000FN00000000020220201000075000NNM   20211208121744    4P0P  00001500000000457500000742732Y1    YAYAS   006400630015
BI00B32Y1    TA2022A        202201177116-5750-02             TERMINAL                 CCN000060000000060000FN00000000020220201000060000NNM   20211208121744    4P0P  00001500000000457500000742732Y1    YAYAS   006400630015
BI00B32Y1    TA2021A        202201047196-0510-02             TERMINAL                 CCN000024000000024000FN00000000020220201000024000NNM   20211208121744    4P0P  00002400000000871200001034632Y1    YAYAS   002800510028
BI00B32Y1    TA2021A        202201047196-0512-02             TERMINAL                 CCN000021000000021000FN00000000020220201000021000NNM   20211208121744    4P0P  00002100000000871500001034932Y1    YAYAS   002800510028
BI00B32Y1    TA2021A        202201047158-3006-90             RUBBER STOPPER           CCN000400000000400000FN00000000020220201000400000NNM   20211208121744    1C0C  00002000000000330600000386032Y1    YAYAS   002700430014
BI00B32Y1    TA2022A        202201177158-3006-90             RUBBER STOPPER           CCN000400000000400000FN00000000020220201000400000NNM   20211208121744    1C0C  00002000000000330600000386032Y1    YAYAS   002700430014
BI00B32Y1    #TA2021A       202201047158-3005-80             RUBBER STOPPER           CCN000040000000040000FN00000000020220201000040000NNM   20211208121744    2H0H  00002000000000210000000268732Y1    YAYAS   002700430014
BI00B32Y1    #TA2022A       202201177158-3005-80             RUBBER STOPPER           CCN000020000000020000FN00000000020220201000020000NNM   20211208121744    2H0H  00002000000000210000000268732Y1    YAYAS   002700430014
BI00B32Y1    #TA2021A       202201047189-2978-30             HOUSING FEMALE           CCN000007500000007500FN00000000020220201000007500NNM   20211208121744    2F0F  00000150000000966900001096932Y1    YAYAS   005400370024
BI00B32Y1    #TA2022A       202201177189-2978-30             HOUSING FEMALE           CCN000007500000007500FN00000000020220201000007500NNM   20211208121744    2F0F  00000150000000966900001096932Y1    YAYAS   005400370024
BI00B32Y1    #TA2021A       202201047189-3032                HOUSING FEMALE           CCN000014400000014400FN00000000020220201000014400NNM   20211208121744    2F0F  00000160000000788400001018432Y1    YAYAS   005500360039
BI00B32Y1    #TA2022A       202201177189-3032                HOUSING FEMALE           CCN000014400000014400FN00000000020220201000014400NNM   20211208121744    2F0F  00000160000000788400001018432Y1    YAYAS   005500360039
BI00B32Y1    #TA2021A       202201047189-3037                HOUSING FEMALE           CCN000004800000004800FN00000000020220201000004800NNM   20211208121744    2F0F  00000480000000806400001066432Y1    YAYAS   005500360039
BI00B32Y1    #TA2022A       202201177189-3037                HOUSING FEMALE           CCN000004800000004800FN00000000020220201000004800NNM   20211208121744    2F0F  00000480000000806400001066432Y1    YAYAS   005500360039
BI00B32Y1    #TA2021A       202201047289-2912-30             HOUSING FEMALE ASS'Y     CCN000002000000002000FN00000000020220201000002000NNM   20211208121744    2N0N  00000200000000804000000929032Y1    YAYAS   005400370024
BI00B32Y1    #TA2022A       202201177289-2912-30             HOUSING FEMALE ASS'Y     CCN000002000000002000FN00000000020220201000002000NNM   20211208121744    2N0N  00000200000000804000000929032Y1    YAYAS   005400370024
BI00B32Y1    #TA2021A       202201047289-2914                HOUSING FEMALE ASS'Y     CCN000007500000007500FN00000000020220201000007500NNM   20211208121744    2N0N  00000150000000906000001033032Y1    YAYAS   005400370024
BI00B32Y1    #TA2022A       202201177289-2914                HOUSING FEMALE ASS'Y     CCN000006000000006000FN00000000020220201000006000NNM   20211208121744    2N0N  00000150000000906000001033032Y1    YAYAS   005400370024
BI00B32Y1    #TA2021A       202201047289-2915-30             HOUSING FEMALE ASS'Y     CCN000007500000007500FN00000000020220201000007500NNM   20211208121744    2N0N  00000150000000964500001091532Y1    YAYAS   005400360024
BI00B32Y1    #TA2022A       202201177289-2915-30             HOUSING FEMALE ASS'Y     CCN000006000000006000FN00000000020220201000006000NNM   20211208121744    2N0N  00000150000000964500001091532Y1    YAYAS   005400360024
BI00B32Y1    #TA2021A       202201047289-2916-30             HOUSING FEMALE ASS'Y     CCN000006000000006000FN00000000020220201000006000NNM   20211208121744    2N0N  00000100000000857000001084032Y1    YAYAS   005400360024
BI00B32Y1    #TA2022A       202201177289-2916-30             HOUSING FEMALE ASS'Y     CCN000006000000006000FN00000000020220201000006000NNM   20211208121744    2N0N  00000100000000857000001084032Y1    YAYAS   005400360024
BI00B32Y1    #TA2021A       202201047289-2919-30             HOUSING FEMALE ASS'Y     CCN000007500000007500FN00000000020220201000007500NNM   20211208121744    2N0N  00000150000000907500001034532Y1    YAYAS   005400360024
BI00B32Y1    #TA2022A       202201177289-2919-30             HOUSING FEMALE ASS'Y     CCN000006000000006000FN00000000020220201000006000NNM   20211208121744    2N0N  00000150000000907500001034532Y1    YAYAS   005400360024
BI00B32Y1    #TA2021A       202201047154-5597-30             CASSETTE R/B             CCN000028000000028000FN00000000020220201000028000NNM   20211208121744    2F0F  00000080000000736000000952032Y1    YAYAS   005500360039
BI00B32Y1    #TA2022A       202201177154-5597-30             CASSETTE R/B             CCN000028000000028000FN00000000020220201000028000NNM   20211208121744    2F0F  00000080000000736000000952032Y1    YAYAS   005500360039
BI00B32Y1    #TA2021A       202201047158-3008-80             RUBBER STOPPER           CCN000100000000100000FN00000000020220201000100000NNM   20211208121744    2C0C  00002000000000288000000343032Y1    YAYAS   004300270014
BI00B32Y1    #TA2022A       202201177158-3008-80             RUBBER STOPPER           CCN000100000000100000FN00000000020220201000100000NNM   20211208121744    2C0C  00002000000000288000000343032Y1    YAYAS   004300270014
BI00B32Y1    #TA2021A       202201047158-3017                RUBBER STOPPER           CCN000020000000020000FN00000000020220201000020000NNM   20211208121744    2C0C  00001000000000375500000435032Y1    YAYAS   002700430014
BI00B32Y1    #TA2022A       202201177158-3017                RUBBER STOPPER           CCN000010000000010000FN00000000020220201000010000NNM   20211208121744    2C0C  00001000000000375500000435032Y1    YAYAS   002700430014
BI00B32Y1    #TA2021A       202201047158-3003-90             RUBBER STOPPER           CCN000220000000220000FN00000000020220201000220000NNM   20211208121744    2C0C  00002000000000250000000306032Y1    YAYAS   002700430014
BI00B32Y1    #TA2022A       202201177158-3003-90             RUBBER STOPPER           CCN000200000000200000FN00000000020220201000200000NNM   20211208121744    2C0C  00002000000000250000000306032Y1    YAYAS   002700430014
BI00B32Y1    #TA2021A       202201047158-3007-10             RUBBER STOPPER           CCN000040000000040000FN00000000020220201000040000NNM   20211208121744    2H0H  00002000000000308000000362732Y1    YAYAS   002700430014
BI00B32Y1    #TA2022A       202201177158-3007-10             RUBBER STOPPER           CCN000020000000020000FN00000000020220201000020000NNM   20211208121744    2H0H  00002000000000308000000362732Y1    YAYAS   002700430014
BI00B32Y1    #TA2021A       202201047158-3015-10             RUBBER STOPPER           CCN000010000000010000FN00000000020220201000010000NNM   20211208121744    2C0C  00001000000000419500000474032Y1    YAYAS   002700430014
BI00B32Y4    CA-NAL-019     202201067288-9556-30             SEALED ASSY MALE         CCN000013920000014400FN00000000020220301000014400NNM   20211208121744    4N0N  00000072000000537900000786332Y4    BIYAB-I 005500360039
BI00B32Y5    TTA32031       202112147289-3342-90             HOUSING FEMALE ASS'Y     CCN000019200000019200FN00000000020220101000019200NNM00020211208121744    1N0N  00000240000000686400000901432Y5    BZYBL   005500360039
BI00B32Y5    TTA32051       202202017C89-3342-30             HOUSING FEMALE ASS'Y     CCN000002400000002400FN00000000020220501000002400NNM   20211208121744    1N0N  00000240000000686400000901432Y5    BZYBL   005500360039
BI00B32Y5    TTA32052       202202017C89-3342-30             HOUSING FEMALE ASS'Y     CCN000002400000002400FN00000000020220501000002400NNM   20211208121744    1N0N  00000240000000686400000901432Y5    BZYBL   005500360039
BI00B32Y5    TTA32053       202202157C89-3342-30             HOUSING FEMALE ASS'Y     CCN000002400000002400FN00000000020220501000002400NNM   20211208121744    1N0N  00000240000000686400000901432Y5    BZYBL   005500360039
BI00B32Y5    TTA32054       202202157C89-3342-30             HOUSING FEMALE ASS'Y     CCN000002400000002400FN00000000020220501000002400NNM   20211208121744    1N0N  00000240000000686400000901432Y5    BZYBL   005500360039
BI00B32Y5    TTA32051       202202017196-0510-02             TERMINAL                 CCN000024000000024000FN00000000020220501000024000NNM   20211208121744    4P0P  00002400000000871200001034632Y5    BZYBL   002800510028
BI00B32Y5    TTA32051       202202017282-4576                HOUSING MALE ASS'Y       CCN000004800000004800FN00000000020220501000004800NNM   20211208121744    4N0N  00000240000000808800001028832Y5    BZYBL   005500360039
BI00B32Y5    TTA32052       202202017282-4576                HOUSING MALE ASS'Y       CCN000002400000002400FN00000000020220501000002400NNM   20211208121744    4N0N  00000240000000808800001028832Y5    BZYBL   005500360039
BI00B32Y5    TTA32053       202202157282-4576                HOUSING MALE ASS'Y       CCN000002400000002400FN00000000020220501000002400NNM   20211208121744    4N0N  00000240000000808800001028832Y5    BZYBL   005500360039
BI00B32Y5    TTA32054       202202157282-4576                HOUSING MALE ASS'Y       CCN000002400000002400FN00000000020220501000002400NNM   20211208121744    4N0N  00000240000000808800001028832Y5    BZYBL   005500360039
BI00B32Y5    TTA32051       202202017283-5845-40             CONNECTOR HOUSING        CCN000024000000024000FN00000000020220501000024000NNM   20211208121744    1N0N  00000600000000444000000606332Y5    BZYBL   005400370024
BI00B32Y5    TTA32051       202202017288-6547                CONNECTOR MALE ASS'Y     CCN000004500000004500FN00000000020220501000004500NNM   20211208121744    4N0N  00000075000001205300001340332Y5    BZYBL   005400370024
BI00B32Y5    TTA32052       202202017288-6547                CONNECTOR MALE ASS'Y     CCN000004500000004500FN00000000020220501000004500NNM   20211208121744    4N0N  00000075000001205300001340332Y5    BZYBL   005400370024
BI00B32Y5    TTA32053       202202157288-6547                CONNECTOR MALE ASS'Y     CCN000004500000004500FN00000000020220501000004500NNM   20211208121744    4N0N  00000075000001205300001340332Y5    BZYBL   005400370024
BI00B32Y5    TTA32054       202202157288-6547                CONNECTOR MALE ASS'Y     CCN000003000000003000FN00000000020220501000003000NNM   20211208121744    4N0N  00000075000001205300001340332Y5    BZYBL   005400370024
BI00B32Y5    TTA32051       202202017289-3342                HOUSING FEMALE ASS'Y     CCN000012000000012000FN00000000020220501000012000NNM   20211208121744    1N0N  00000240000000686400000901432Y5    BZYBL   005500360039
BI00B32Y5    TTA32052       202202017289-3342                HOUSING FEMALE ASS'Y     CCN000012000000012000FN00000000020220501000012000NNM   20211208121744    1N0N  00000240000000686400000901432Y5    BZYBL   005500360039
BI00B32Y5    TTA32053       202202157289-3342                HOUSING FEMALE ASS'Y     CCN000012000000012000FN00000000020220501000012000NNM   20211208121744    1N0N  00000240000000686400000901432Y5    BZYBL   005500360039
BI00B32Y5    TTA32054       202202157289-3342                HOUSING FEMALE ASS'Y     CCN000004800000004800FN00000000020220501000004800NNM   20211208121744    1N0N  00000240000000686400000901432Y5    BZYBL   005500360039
BI00B32Y5    TTA32051       202202017289-3342-30             HOUSING FEMALE ASS'Y     CCN000004800000004800FN00000000020220501000004800NNM   20211208121744    1N0N  00000240000000686400000901432Y5    BZYBL   005500360039
BI00B32Y5    TTA32052       202202017289-3342-30             HOUSING FEMALE ASS'Y     CCN000004800000004800FN00000000020220501000004800NNM   20211208121744    1N0N  00000240000000686400000901432Y5    BZYBL   005500360039
BI00B32Y5    TTA32053       202202157289-3342-30             HOUSING FEMALE ASS'Y     CCN000004800000004800FN00000000020220501000004800NNM   20211208121744    1N0N  00000240000000686400000901432Y5    BZYBL   005500360039
BI00B32Y5    TTA32054       202202157289-3342-30             HOUSING FEMALE ASS'Y     CCN000004800000004800FN00000000020220501000004800NNM   20211208121744    1N0N  00000240000000686400000901432Y5    BZYBL   005500360039
BI00B32Y5    TTA32051       202202017289-3342-40             HOUSING FEMALE ASS'Y     CCN000009600000009600FN00000000020220501000009600NNM   20211208121744    1N0N  00000240000000686400000901432Y5    BZYBL   005500360039
BI00B32Y5    TTA32052       202202017289-3342-40             HOUSING FEMALE ASS'Y     CCN000004800000004800FN00000000020220501000004800NNM   20211208121744    1N0N  00000240000000686400000901432Y5    BZYBL   005500360039
BI00B32Y5    TTA32053       202202157289-3342-40             HOUSING FEMALE ASS'Y     CCN000004800000004800FN00000000020220501000004800NNM   20211208121744    1N0N  00000240000000686400000901432Y5    BZYBL   005500360039
BI00B32Y5    TTA32054       202202157289-3342-40             HOUSING FEMALE ASS'Y     CCN000004800000004800FN00000000020220501000004800NNM   20211208121744    1N0N  00000240000000686400000901432Y5    BZYBL   005500360039
BI00B32Y5    TTA32051       202202017289-3342-90             HOUSING FEMALE ASS'Y     CCN000004800000004800FN00000000020220501000004800NNM   20211208121744    1N0N  00000240000000686400000901432Y5    BZYBL   005500360039
BI00B32Y5    TTA32052       202202017289-3342-90             HOUSING FEMALE ASS'Y     CCN000004800000004800FN00000000020220501000004800NNM   20211208121744    1N0N  00000240000000686400000901432Y5    BZYBL   005500360039
BI00B32Y5    TTA32053       202202157289-3342-90             HOUSING FEMALE ASS'Y     CCN000004800000004800FN00000000020220501000004800NNM   20211208121744    1N0N  00000240000000686400000901432Y5    BZYBL   005500360039
BI00B32Y5    TTA32054       202202157289-3342-90             HOUSING FEMALE ASS'Y     CCN000002400000002400FN00000000020220501000002400NNM   20211208121744    1N0N  00000240000000686400000901432Y5    BZYBL   005500360039
BI00B32Y5    TTA32051       202202017289-6547                HOUSING FEMALE ASS'Y     CCN000002400000002400FN00000000020220501000002400NNM   20211208121744    1N0N  00000240000001152000001362032Y5    BZYBL   005500360039
BI00B32Y5    TTA32052       202202017289-6547                HOUSING FEMALE ASS'Y     CCN000002400000002400FN00000000020220501000002400NNM   20211208121744    1N0N  00000240000001152000001362032Y5    BZYBL   005500360039
BI00B32Y5    TTA32053       202202157289-6547                HOUSING FEMALE ASS'Y     CCN000002400000002400FN00000000020220501000002400NNM   20211208121744    1N0N  00000240000001152000001362032Y5    BZYBL   005500360039
BI00B32Y5    TTA32054       202202157289-6547                HOUSING FEMALE ASS'Y     CCN000002400000002400FN00000000020220501000002400NNM   20211208121744    1N0N  00000240000001152000001362032Y5    BZYBL   005500360039
BI00B32Y6    STAP32041      202201207C98-1145-4W             SQUIB SUB ASS'Y          CCN000020000000010000FN00000000020220401000010000NNMQ0020211208121744    4N0N  00001000000000787900000944932Y6    BSYBL-S 005400370024
BI00B32Y6    STAP32041      202201207289-3342                HOUSING FEMALE ASS'Y     CCN000014400000007200FN00000000020220401000007200NNMD0020211208121744    1N0N  00000240000000686400000901432Y6    BSYBL-S 005500360039
BI00B32Y6    STAP32041      202201207289-3342-30             HOUSING FEMALE ASS'Y     CCN000009600000004800FN00000000020220401000004800NNMD0020211208121744    1N0N  00000240000000686400000901432Y6    BSYBL-S 005500360039
BI00B32Y6    STAP32041      202201067289-6868-30             SEALED ASSY FEMALE       CCN000007560000007560FN00000000020220401000007560NNMD0020211208121744    4N0N  00000252000000839200001119232Y6    BSYBL-S 005500360039
BI00B32Y6    STAP32041      202201067327-6731-3W             BATTERY FUSE             CCN000008000000003840FN00000000020220401000003840NNMD0420211208121744    4N0N  00000006400000697600000843032Y6    BSYBL-S 005400370024
BI00B32Y6    STAP32041      202201207388-2978-30             HOUSING MALE ASS'Y       CCN000018720000009120FN00000000020220401000009120NNMD0020211208121744    1N0N  00000048000000742000001122032Y6    BSYBL-S 005500360039
BI00B32Y6    #STAP32041     202201067172-5629-80             RUBBER STOPPER           CCN000200000000100000FN00000000020220401000100000NNMQ0020211208121744    2H0H  00002000000000060000000111132Y6    BSYBL-S 004300270014
BI00B32Y6    #STAP32041     202201067172-5630-40             RUBBER STOPPER           CCN000360000000180000FN00000000020220401000180000NNMQ0020211208121744    2H0H  00002000000000044000000095132Y6    BSYBL-S 004300270014
BI00B32Y6    #STAP32041     202201067289-4200-30             HOUSING FEMALE ASS'Y     CCN000004000000004000FN00000000020220401000004000NNMD0020211208121744    2N0N  00000200000000926000001021032Y6    BSYBL-S 005400370024
BI00B32Y6    STAP32041      202201067C98-1145-4W             SQUIB SUB ASS'Y          CCN000010000000010000FN00000000020220401000010000NNMD0020211208121744    4N0N  00001000000000787900000944932Y6    BSYBL-S 005400370024
BI00B32Y6    STAP32041      202201067289-3342                HOUSING FEMALE ASS'Y     CCN000007200000007200FN00000000020220401000007200NNMQ0020211208121744    1N0N  00000240000000686400000901432Y6    BSYBL-S 005500360039
BI00B32Y6    STAP32041      202201067289-3342-30             HOUSING FEMALE ASS'Y     CCN000004800000004800FN00000000020220401000004800NNMQ0020211208121744    1N0N  00000240000000686400000901432Y6    BSYBL-S 005500360039
BI00B32Y6    STAP32041      202201067388-2978-30             HOUSING MALE ASS'Y       CCN000009600000009600FN00000000020220401000009600NNMQ0020211208121744    1N0N  00000048000000742000001122032Y6    BSYBL-S 005500360039
BI00B32Y6    #STAP32041     202201207172-5629-80             RUBBER STOPPER           CCN000100000000100000FN00000000020220401000100000NNMD0020211208121744    2H0H  00002000000000060000000111132Y6    BSYBL-S 004300270014
BI00B32Y6    #STAP32041     202201207172-5630-40             RUBBER STOPPER           CCN000180000000180000FN00000000020220401000180000NNMD0020211208121744    2H0H  00002000000000044000000095132Y6    BSYBL-S 004300270014
BI00B32Y8    TAIM2110A      202112167158-3006-90             RUBBER STOPPER           CCN000040000000040000FN00000000020211201000040000NNM00020211208121744Y8  1C0C  00002000000000330600000386032Y8    CLYCL   002700430014
BI00A32Y8    TAIM21101      202112037235-8662                DOOR GROMMET             CCN000000160000000160FY00000016020220301000000000NNE00020211208141047Y8  4N0N  00000016000000844000001010032Y8    CLYCL   005500360039
BI00B32Y8    TAIM2112A      202201127114-4021                TERMINAL                 CCN000045000000045000FN00000000020220201000045000NNM   20211208132646Y8  4P0P  00001500000000670500000964132Y8    CLYCL   006400630015
BI00B32Y8    TAIM2112A      202201127114-4032                TERMINAL                 CCN000015000000015000FN00000000020220201000015000NNM   20211208132646Y8  4P0P  00000750000000735000001063632Y8    CLYCL   006400630017
BI00B32Y8    TAIM2112A      202201127114-6041                TERMINAL                 CCN000010800000010800FN00000000020220201000010800NNM   20211208132646Y8  4P0P  00000360000000580700000824232Y8    CLYCL   006400630015
BI00B32Y8    TAIM2112A      202201127116-1473                TERMINAL                 CCN000054000000054000FN00000000020220201000054000NNM   20211208132646Y8  4P0P  00001350000000523800000809032Y8    CLYCL   006400630015
BI00B32Y8    TAIM2112A      202201127116-1686                TERMINAL                 CCN000021000000021000FN00000000020220201000021000NNM   20211208132646Y8  4P0P  00002100000000861000001045632Y8    CLYCL   005100280028
BI00B32Y8    TAIM2112A      202201127116-6041                TERMINAL                 CCN000022500000022500FN00000000020220201000022500NNM   20211208132646Y8  4P0P  00000450000000716000001009632Y8    CLYCL   006400630015
BI00B32Y8    TAIM2112A      202201127116-6042                TERMINAL                 CCN000006000000006000FN00000000020220201000006000NNM   20211208132646Y8  4P0P  00000300000000523800000856132Y8    CLYCL   006400630015
BI00B32Y8    TAIM2112A      202201127123-7500                CONNECTOR                CCN000001600000001600FN00000000020220201000001600NNM   20211208132646Y8  1F0F  00000080000000710000000896732Y8    CLYCL   005500360039
BI00B32Y8    TAIM2112A      202201127283-5845                CONNECTOR HOUSING        CCN000006000000006000FN00000000020220201000006000NNM   20211208132646Y8  1N0N  00000600000000444000000606332Y8    CLYCL   005400370024
BI00B32Y8    TAIM2112A      202201127370-0310                J/B ASS'Y                CCN000000500000000500FN00000000020220201000000500NNM   20211208132646Y8  1J0J  00000001000000559000000809032Y8    CLYCL   005500360039
BI00B32Y8    TAIM2112A      202201127017-1180-02             TERMINAL                 CCN000072000000072000FN00000000020220201000072000NNM   20211208132646Y8  4P0P  00007200000001065600001229032Y8    CLYCL   005100280028
BI00B32Y8    TAIM2112A      202201127116-4231-02             TERMINAL                 CCN000260000000260000FN00000000020220201000260000NNM   20211208132646Y8  4P0P  00002600000000683800001012532Y8    CLYCL   006400630017
BI00B32Y8    TAIM2112A      202201127116-5044-02             TERMINAL                 CCN000080000000080000FN00000000020220201000080000NNM   20211208132646Y8  4P0P  00001600000000641600000986332Y8    CLYCL   006400630017
BI00B32Y8    TAIM2112A      202201127126-8850-02             TERMINAL                 CCN000009000000009000FN00000000020220201000009000NNM   20211208132646Y8  1P0P  00000900000000672300000957532Y8    CLYCL   006400630015
BI00B32Y8    TAIM2112A      202201127140-1977-30             UPPER COVER              CCN000000510000000510FN00000000020220201000000510NNM   20211208132646Y8  1F0F  00000001000000099500000249532Y8    CLYCL   005600390040
BI00B32Y8    TAIM2112A      202201127158-3006-90             RUBBER STOPPER           CCN000120000000120000FN00000000020220201000120000NNM   20211208132646Y8  1C0C  00002000000000330600000386032Y8    CLYCL   002700430014
BI00B32Y8    TAIM2112A      202201127158-3167-80             WIRE SEAL                CCN000120000000120000FN00000000020220201000120000NNM   20211208132646Y8  1C0C  00002000000000048000000109032Y8    CLYCL   002700430014
BI00B32Y8    TAIM2112A      202201127158-3168-80             SEALED                   CCN000040000000040000FN00000000020220201000040000NNM   20211208132646Y8  1C0C  00002000000000044000000092132Y8    CLYCL   004300260014
BI00B32Y8    TAIM2112A      202201127222-7923-30             CONNECTOR                CCN000000600000000600FN00000000020220201000000600NNM   20211208132646Y8  4N0N  00000060000000937000001067032Y8    CLYCL   005500360039
BI00B32Y8    TAIM2112A      202201127283-5832-30             CONNECTOR HOUSING        CCN000002400000002400FN00000000020220201000002400NNM   20211208132646Y8  1N0N  00000240000000723800000873832Y8    CLYCL   005500360039
BI00B32Y8    TAIM2112A      202201127288-3329-30             HOUSING MALE             CCN000001500000001500FN00000000020220201000001500NNM   20211208132646Y8  4N0N  00000150000000866100001011132Y8    CLYCL   005400370024
BI00B32Y8    #TAIM2112A     202201127035-2393                GROMMET                  CCN000000900000000900FN00000000020220201000000900NNM   20211208132602Y8  2H0H  00000010000001374000001581732Y8    CLYCL   005600390040
BI00B32Y8    #TAIM2112A     202201127157-7812                SEAL RUBBER              CCN000030000000030000FN00000000020220201000030000NNM   20211208132602Y8  2C0C  00001000000000137000000202032Y8    CLYCL   002700430014
BI00B32Y8    #TAIM2112A     202201127186-3971                CONNECTOR HOUSING        CCN000002400000002400FN00000000020220201000002400NNM   20211208132602Y8  2F0F  00000240000001002200001191432Y8    CLYCL   005500360039
BI00B32Y8    #TAIM2112A     202201127187-3356                JOINT CONNECTOR          CCN000006000000006000FN00000000020220201000006000NNM   20211208132602Y8  2F0F  00000120000000759600001024432Y8    CLYCL   005600390040
BI00B32Y8    #TAIM2112A     202201127187-3360                JOINT CONNECTOR          CCN000006000000006000FN00000000020220201000006000NNM   20211208132602Y8  2F0F  00000120000000759600001026832Y8    CLYCL   005600390040
BI00B32Y8    #TAIM2112A     202201127187-3970                CONNECTOR FLAME          CCN000000736000000736FN00000000020220201000000736NNM   20211208132602Y8  2F0F  00000036800001414000001737332Y8    CLYCL   005600390040
BI00B32Y8    #TAIM2112A     202201127283-4861                CONNECTOR                CCN000001500000001500FN00000000020220201000001500NNM   20211208132602Y8  2N0N  00000150000001200000001359932Y8    CLYCL   005500360039
BI00B32Y8    #TAIM2112A     202201127283-5833                CONNECTOR HOUSING        CCN000003640000003640FN00000000020220201000003640NNM   20211208132602Y8  2N0N  00000364000001378000001686732Y8    CLYCL   005500360039
BI00B32Y8    #TAIM2112A     202201127123-7564-40             CONNECTOR                CCN000001000000001000FN00000000020220201000001000NNM   20211208132602Y8  2F0F  00000100000001301000001479032Y8    CLYCL   005600390040
BI00B32Y8    #TAIM2112A     202201127123-7923-30             CONNECTOR                CCN000001500000001500FN00000000020220201000001500NNM   20211208132602Y8  2F0F  00000150000001491000001657032Y8    CLYCL   005600390040
BI00B32Y8    #TAIM2112A     202201127140-1978-30             LOWER COVER              CCN000000488000000488FN00000000020220201000000488NNM   20211208132602Y8  2F0F  00000000800000207100000395132Y8    CLYCL   005500360039
BI00B32Y8    #TAIM2112A     202201127158-3003-90             RUBBER STOPPER           CCN000020000000020000FN00000000020220201000020000NNM   20211208132602Y8  2C0C  00002000000000250000000306032Y8    CLYCL   002700430014
BI00B32Y8    #TAIM2112A     202201127186-3975-80             CONNECTOR HOUSING        CCN000002400000002400FN00000000020220201000002400NNM   20211208132602Y8  2F0F  00000240000001065100001236332Y8    CLYCL   005500360039
BI00B32Y8    #TAIM2112A     202201127186-3976-60             CONNECTOR HOUSING        CCN000002400000002400FN00000000020220201000002400NNM   20211208132602Y8  2F0F  00000240000001065100001236332Y8    CLYCL   005500360039
BI00B32Y8    #TAIM2112A     202201127186-3977-90             CONNECTOR HOUSING        CCN000002400000002400FN00000000020220201000002400NNM   20211208132602Y8  2F0F  00000240000001068200001239432Y8    CLYCL   005500360039
BI00B32Y8    #TAIM2112A     202201127187-3358-30             JOINT CONNECTOR          CCN000001200000001200FN00000000020220201000001200NNM   20211208132602Y8  2F0F  00000120000000673200000940432Y8    CLYCL   005600390040
BI00B32Y8    #TAIM2112A     202201127187-3359-60             JOINT CONNECTOR          CCN000001200000001200FN00000000020220201000001200NNM   20211208132602Y8  2F0F  00000120000000763200001030432Y8    CLYCL   005600390040
BI00B32Y8    #TAIM2112A     202201127187-3974-30             CONNECTOR HOUSING        CCN000002400000002400FN00000000020220201000002400NNM   20211208132602Y8  2F0F  00000240000000907400001078632Y8    CLYCL   005500360039
BI00B32Y8    #TAIM2112A     202201127187-3975-80             CONNECTOR HOUSING        CCN000002400000002400FN00000000020220201000002400NNM   20211208132602Y8  2F0F  00000240000000915800001087032Y8    CLYCL   005500360039
BI00B32Y8    @TAIM2112A     202201127283-3030                HOUSING FEMALE ASS'Y     CCN000003200000003200FN00000000020220201000003200NNM   20211208132619Y8  3N0N  00000160000001056300001303032Y8    CLYCL   005500360039
