BI00B32B6    W72007         202201141801W003930              IVSSH 0.5F B             CCN000021600000021600FN00000000020220401000021600NNM   20211208133227B6  1W    00000180000000625000000000032B6    AXARNE-M000000000000AR41C012
BI00B32B6    W72007         202201141801W003940              IVSSH 0.5F W             CCN000018000000018000FN00000000020220401000018000NNM   20211208133227B6  1W    00000180000000625000000000032B6    AXARNE-M000000000000AR41C023
BI00B32B6    W72007         202201141801W003941              IVSSH 0.5F GY            CCN000003600000003600FN00000000020220401000003600NNM   20211208133227B6  1W    00000180000000625000000000032B6    AXARNE-M000000000000AR41C016
BI00B32B6    W72007         202201141801W003943              IVSSH 0.5F W/B           CCN000001800000001800FN00000000020220401000001800NNM   20211208133227B6  1W    00000180000000625000000000032B6    AXARNE-M000000000000AR41C024
BI00B32B6    W72007         202201141801W003950              IVSSH 0.5F R             CCN000021600000021600FN00000000020220401000021600NNM   20211208133227B6  1W    00000180000000625000000000032B6    AXARNE-M000000000000AR41C020
BI00B32B6    W72007         202201141801W003952              IVSSH 0.5F P             CCN000032400000032400FN00000000020220401000032400NNM   20211208133227B6  1W    00000180000000625000000000032B6    AXARNE-M000000000000AR41C019
BI00B32B6    W72007         202201141801W00395U              IVSSH 0.5F BE            CCN000043200000043200FN00000000020220401000043200NNM   20211208133227B6  1W    00000180000000625000000000032B6    AXARNE-M000000000000AR41C013
BI00B32B6    W72007         202201141801W003960              IVSSH 0.5F G             CCN000063000000063000FN00000000020220401000063000NNM   20211208133227B6  1W    00000180000000625000000000032B6    AXARNE-M000000000000AR41C015
BI00B32B6    W72007         202201141801W003961              IVSSH 0.5F LG            CCN000019800000019800FN00000000020220401000019800NNM   20211208133227B6  1W    00000180000000625000000000032B6    AXARNE-M000000000000AR41C018
BI00B32B6    W72007         202201141801W003970              IVSSH 0.5F Y             CCN000007200000007200FN00000000020220401000007200NNM   20211208133227B6  1W    00000180000000625000000000032B6    AXARNE-M000000000000AR41C025
BI00B32B6    W72007         202201141801W003980              IVSSH 0.5F BR            CCN000003600000003600FN00000000020220401000003600NNM   20211208133227B6  1W    00000180000000625000000000032B6    AXARNE-M000000000000AR41C014
BI00B32B6    W72007         202201141801W003990              IVSSH 0.5F L             CCN000021600000021600FN00000000020220401000021600NNM   20211208133227B6  1W    00000180000000625000000000032B6    AXARNE-M000000000000AR41C017
BI00B32B6    W72007         202201141801W003991              IVSSH 0.5F SB            CCN000037800000037800FN00000000020220401000037800NNM   20211208133227B6  1W    00000180000000625000000000032B6    AXARNE-M000000000000AR41C021
BI00B32B6    W72007         202201141801W003992              IVSSH 0.5F V             CCN000003600000003600FN00000000020220401000003600NNM   20211208133227B6  1W    00000180000000625000000000032B6    AXARNE-M000000000000AR41C022
BI00B32B6    W72007         202201141801W004030              IVSSH 0.75F B            CCN000003900000003900FN00000000020220401000003900NNM   20211208133227B6  1W    00000130000000882000000000032B6    AXARNE-M000000000000AR41C026
BI00B32B6    W72007         202201141801W004040              IVSSH 0.75F W            CCN000002600000002600FN00000000020220401000002600NNM   20211208133227B6  1W    00000130000000882000000000032B6    AXARNE-M000000000000AR41C032
BI00B32B6    W72007         202201141801W004052              IVSSH 0.75F P            CCN000001300000001300FN00000000020220401000001300NNM   20211208133227B6  1W    00000130000000882000000000032B6    AXARNE-M000000000000AR41C031
BI00B32B6    W72007         202201141801W00405U              IVSSH 0.75F BE           CCN000002600000002600FN00000000020220401000002600NNM   20211208133227B6  1W    00000130000000882000000000032B6    AXARNE-M000000000000AR41C027
BI00B32B6    W72007         202201141801W004060              IVSSH 0.75F G            CCN000002600000002600FN00000000020220401000002600NNM   20211208133227B6  1W    00000130000000882000000000032B6    AXARNE-M000000000000AR41C028
BI00B32B6    W72007         202201141801W004061              IVSSH 0.75F LG           CCN000002600000002600FN00000000020220401000002600NNM   20211208133227B6  1W    00000130000000882000000000032B6    AXARNE-M000000000000AR41C030
BI00B32B6    W72007         202201141801W004090              IVSSH 0.75F L            CCN000002600000002600FN00000000020220401000002600NNM   20211208133227B6  1W    00000130000000882000000000032B6    AXARNE-M000000000000AR41C029
BI00B32B6    @W72007        20220114181B09039H7              CAVSAS 0.5X1 GY/W        CCN000003200000003200FN00000000020220401000003200NNM   20211208133225B6  1W    00000040000002250400000000032B6    AXARNE-M000000000000AR41C010
BI00B32B6    @W72007        20220114181E48027ZZ              CAVSAS-S 0.5X2 GY/P      CCN000004200000004200FN00000000020220401000004200NNM   20211208133225B6  1W    00000030000002493000000000032B6    AXARNE-M000000000000AR41C011
BI00A32CH    SJ2201ADMW     202112091801W004070              IVSSH 0.75F Y            CCN000001300000001300FN00000000020220101000001300NNE20 20211208155817    1W    00000130000000882000000000032CH    SJSAMIJF000000000000QR11C002
BI00B32H0    TT2202BVMW     2021122818007703790              AVSS 0.3F L              CCN000010000000010000FN00000000020220201000010000NNE   20211208154306    1W    00000200000000496000000000032H0    TTTJY   000000000000NN21C001
BI00B32H0    TT22031VMW     20220118180D0203950              AVSSH 0.5F R             CCN000022500000022500FN00000000020220301000022500NNM   20211208154256    1W    00000150000000689000000000032H0    TTTJY   000000000000NV121014
BI00B32H0    TT22032VMW     20220125180D0203950              AVSSH 0.5F R             CCN000036000000036000FN00000000020220301000036000NNM   20211208154256    1W    00000150000000689000000000032H0    TTTJY   000000000000NV221012
BI00B32H0    TT22033VMW     20220201180D0203950              AVSSH 0.5F R             CCN000046500000046500FN00000000020220301000046500NNM   20211208154256    1W    00000150000000689000000000032H0    TTTJY   000000000000NV321012
BI00B32H0    TT22034VMW     20220208180D0203950              AVSSH 0.5F R             CCN000022500000022500FN00000000020220301000022500NNM   20211208154256    1W    00000150000000689000000000032H0    TTTJY   000000000000NV421010
BI00B32H0    @TT22031VMW    20220118181E50036ZZ              AVSSCS-S 0.3FX2 DGY      CCN000000350000000350FN00000000020220301000000350NNM   20211208154258    1W    00000035000001997000000000032H0    TTTJY   000000000000NV121001
BI00B32H0    @TT2202CVMW    20220104181E50036ZZ              AVSSCS-S 0.3FX2 DGY      CCN000000350000000350FN00000000020220201000000350NNE   20211208154304    1W    00000035000001997000000000032H0    TTTJY   000000000000NL31C001
BI00B32H2    @TAW2025       20220204181E50014ZZ              AVSSCS-S 0.5FX1 DGY/R    CCN000002000000001600FN00000000020220201000001600NNM00 20211208090657    1W    00000040000001817000000000032H2    HVYHV   000000000000UH321038
BI00B32H2    @TAW202A       20220107181F21002ZZ              AVSSHCS-S 0.5FX1 B       CCN000001600000001600FN00000000020220201000001600NNE   20211208152146    1W    00000040000001847000000000032H2    HVYHV   000000000000UA31C003
BI00B32H2    @TAW202A       20220107181E48018ZZ              CAVSAS-S 0.5X2 GY/SB     CCN000000600000000600FN00000000020220201000000600NNE   20211208152146    1W    00000030000002493000000000032H2    HVYHV   000000000000UA31C002
BI00B32H2    @TAW202A       20220107181E48022ZZ              CAVSAS-S 0.5X2 GY        CCN000000300000000300FN00000000020220201000000300NNE   20211208152146    1W    00000030000002493000000000032H2    HVYHV   000000000000UA31C001
BI00B32H2    @TAW202B       20220204181AD2001ZZ              CIVUSAS-S 0.35X1 B       CCN000001100000001100FN00000000020220201000001100NNE   20211208152147    1W    00000055000001327000000000032H2    HVYHV   000000000000UB321001
BI00B32H2    @TAW2025       20220205181E50014ZZ              AVSSCS-S 0.5FX1 DGY/R    CCN000000400000000000FY00000000020220201000000000NNM11 20211208090846    1W    00000040000001817000000000032H2    HVYHV   000000000000UH321038
BI00A32M8    PM22012 MW     2021121018007703992              AVSS 0.5F V              CCN000003000000003000FN00000000020220101000003000NNM20 20211208164849    1W    00000150000000674000000000032M8    PMPEMI  000000000000IM51B035
BI00A32M8    PM22012 MW     2021121018007703950              AVSS 0.5F R              CCN000004500000004500FN00000000020220101000004500NNM20 20211208164849    1W    00000150000000674000000000032M8    PMPEMI  000000000000IM51B034
BI00A32M8    PM22012 MW     2021121018007703952              AVSS 0.5F P              CCN000001500000001500FN00000000020220101000001500NNM20 20211208164849    1W    00000150000000674000000000032M8    PMPEMI  000000000000IM51B033
BI00A32M8    PM22012 MW     2021121018007703961              AVSS 0.5F LG             CCN000003000000003000FN00000000020220101000003000NNM20 20211208164849    1W    00000150000000674000000000032M8    PMPEMI  000000000000IM51B032
BI00A32M8    PM22012 MW     2021121018007703970              AVSS 0.5F Y              CCN000003000000003000FN00000000020220101000003000NNM20 20211208164849    1W    00000150000000674000000000032M8    PMPEMI  000000000000IM51B038
BI00A32M8    PM22012 MW     2021121018007703980              AVSS 0.5F BR             CCN000001500000001500FN00000000020220101000001500NNM20 20211208164849    1W    00000150000000674000000000032M8    PMPEMI  000000000000IM51B028
BI00B32Q8    EW21111 MW     20211215180D0203980              AVSSH 0.5F BR            CCN000027000000027000FN00000000020211101000027000NNM21 20211208164425    1W    00000150000000689000000000032Q8    EMEMI   000000000000MI11B015
BI00B32Q8    EW21111 MW     20211215180D0203961              AVSSH 0.5F LG            CCN000001500000001500FN00000000020211101000001500NNM21 20211208164425    1W    00000150000000689000000000032Q8    EMEMI   000000000000MI11B018
BI00B32Q8    EW21111 MW     20211215180D0203952              AVSSH 0.5F P             CCN000018000000018000FN00000000020211101000018000NNM21 20211208164425    1W    00000150000000689000000000032Q8    EMEMI   000000000000MI11B019
BI00B32Q8    EW21111 MW     20211020180D0203943              AVSSH 0.5F W/B           CCN000024000000012000FY00001200020211101000000000NNM00 20211208164331    1W    00000150000000689000000000032Q8    EMEMI   000000000000MI11B024
BI00A32Q8    EW21111 MW     20210910180D0204070              AVSSH 0.75F Y            CCN000001000000001000FY00000100020211101000000000NNM20 20211208164251    1W    00000100000000968000000000032Q8    EMEMI   000000000000MI11B027
BI00B32Q8    EW21111 MW     20211020180D0204140              AVSSH 1.25F W            CCN000030400000029600FY00002960020211101000000000NNM00 20211208164455    1W    00000080000001458000000000032Q8    EMEMI   000000000000MI11B033
BI00B32Q8    EW21112 MW     20211215180D0204140              AVSSH 1.25F W            CCN000004800000004800FN00000000020211101000004800NNM21 20211208164900    1W    00000080000001458000000000032Q8    EMEMI   000000000000MI21B016
BI00B32Q8    EW21112 MW     2021100818000004540              AV 8 W                   CCN000004500000002800FY00000280020211101000000000NNM20 20211208164805    1W    00000010000009148000000000032Q8    EMEMI   000000000000MI21B018
BI00B32Q8    EW21111 MW     20211215180D0203943              AVSSH 0.5F W/B           CCN000012000000012000FN00000000020211101000012000NNM21 20211208164331    1W    00000150000000689000000000032Q8    EMEMI   000000000000MI11B024
BI00B32Q8    EW21111 MW     20211215180D0204140              AVSSH 1.25F W            CCN000000800000000800FN00000000020211101000000800NNM21 20211208164455    1W    00000080000001458000000000032Q8    EMEMI   000000000000MI11B033
BI00B32R8    TT22031TMW     20220111180D0203980              AVSSH 0.5F BR            CCN000004500000004500FN00000000020220301000004500NNM   20211208163331    1W    00000150000000689000000000032R8    TTTJY   000000000000NT41C004
BI00B32R8    TT22032TMW     20220118180D0203980              AVSSH 0.5F BR            CCN000004500000004500FN00000000020220301000004500NNM   20211208163331    1W    00000150000000689000000000032R8    TTTJY   000000000000NT121002
BI00B32R8    TT22031TMW     20220111180D0203950              AVSSH 0.5F R             CCN000001500000001500FN00000000020220301000001500NNM   20211208163331    1W    00000150000000689000000000032R8    TTTJY   000000000000NT41C005
BI00B32R8    TT22031TMW     20220111180D0203992              AVSSH 0.5F V             CCN000001500000001500FN00000000020220301000001500NNM   20211208163331    1W    00000150000000689000000000032R8    TTTJY   000000000000NT41C006
BI00B32R8    TT22032TMW     20220118180D0203992              AVSSH 0.5F V             CCN000001500000001500FN00000000020220301000001500NNM   20211208163331    1W    00000150000000689000000000032R8    TTTJY   000000000000NT121003
BI00B32R8    TT22031TMW     20220111180D0204130              AVSSH 1.25F B            CCN000001600000001600FN00000000020220301000001600NNM   20211208163331    1W    00000080000001458000000000032R8    TTTJY   000000000000NT41C007
BI00B32R8    TT22032TMW     20220118180D0204130              AVSSH 1.25F B            CCN000001600000001600FN00000000020220301000001600NNM   20211208163331    1W    00000080000001458000000000032R8    TTTJY   000000000000NT121004
BI00B32R8    TT22031TMW     20220111180D0204160              AVSSH 1.25F G            CCN000003200000003200FN00000000020220301000003200NNM   20211208163331    1W    00000080000001458000000000032R8    TTTJY   000000000000NT41C008
BI00B32R8    TT22032TMW     20220118180D0204160              AVSSH 1.25F G            CCN000002400000002400FN00000000020220301000002400NNM   20211208163331    1W    00000080000001458000000000032R8    TTTJY   000000000000NT121005
BI00B32R8    TT22031TMW     20220111180D0204190              AVSSH 1.25F L            CCN000001600000001600FN00000000020220301000001600NNM   20211208163331    1W    00000080000001458000000000032R8    TTTJY   000000000000NT41C009
BI00B32R8    TT22031TMW     20220111180D0204192              AVSSH 1.25F V            CCN000001600000001600FN00000000020220301000001600NNM   20211208163331    1W    00000080000001458000000000032R8    TTTJY   000000000000NT41C010
BI00B32R8    TT22031TMW     20220111180D0204140              AVSSH 1.25F W            CCN000001600000001600FN00000000020220301000001600NNM   20211208163331    1W    00000080000001458000000000032R8    TTTJY   000000000000NT41C011
BI00B32R8    TT22031TMW     20220111180D0204143              AVSSH 1.25F W/B          CCN000001600000001600FN00000000020220301000001600NNM   20211208163331    1W    00000080000001458000000000032R8    TTTJY   000000000000NT41C012
BI00B32R8    TT22032TMW     20220118180D0204143              AVSSH 1.25F W/B          CCN000000800000000800FN00000000020220301000000800NNM   20211208163331    1W    00000080000001458000000000032R8    TTTJY   000000000000NT121006
BI00B32U5    DW2007         202201141801W003930              IVSSH 0.5F B             CCN000104400000104400FN00000000020220401000104400NNM   20211208133410U5  1W    00000180000000625000000000032U5    ASAMSD  000000000000AN41C021
BI00B32U5    DW2007         202201141801W003940              IVSSH 0.5F W             CCN000046800000046800FN00000000020220401000046800NNM   20211208133410U5  1W    00000180000000625000000000032U5    ASAMSD  000000000000AN41C029
BI00B32U5    DW2007         202201141801W003941              IVSSH 0.5F GY            CCN000012600000012600FN00000000020220401000012600NNM   20211208133410U5  1W    00000180000000625000000000032U5    ASAMSD  000000000000AN41C025
BI00B32U5    DW2007         202201141801W003950              IVSSH 0.5F R             CCN000100800000100800FN00000000020220401000100800NNM   20211208133410U5  1W    00000180000000625000000000032U5    ASAMSD  000000000000AN41C027
BI00B32U5    DW2007         202201141801W00395U              IVSSH 0.5F BE            CCN000005400000005400FN00000000020220401000005400NNM   20211208133410U5  1W    00000180000000625000000000032U5    ASAMSD  000000000000AN41C022
BI00B32U5    DW2007         202201141801W003960              IVSSH 0.5F G             CCN000075600000075600FN00000000020220401000075600NNM   20211208133410U5  1W    00000180000000625000000000032U5    ASAMSD  000000000000AN41C024
BI00B32U5    DW2007         202201141801W003970              IVSSH 0.5F Y             CCN000016200000016200FN00000000020220401000016200NNM   20211208133410U5  1W    00000180000000625000000000032U5    ASAMSD  000000000000AN41C030
BI00B32U5    DW2007         202201141801W003980              IVSSH 0.5F BR            CCN000007200000007200FN00000000020220401000007200NNM   20211208133410U5  1W    00000180000000625000000000032U5    ASAMSD  000000000000AN41C023
BI00B32U5    DW2007         202201141801W003990              IVSSH 0.5F L             CCN000100800000100800FN00000000020220401000100800NNM   20211208133410U5  1W    00000180000000625000000000032U5    ASAMSD  000000000000AN41C026
BI00B32U5    DW2007         202201141801W003992              IVSSH 0.5F V             CCN000027000000027000FN00000000020220401000027000NNM   20211208133410U5  1W    00000180000000625000000000032U5    ASAMSD  000000000000AN41C028
BI00B32U5    DW2007         202201141801W004030              IVSSH 0.75F B            CCN000013000000013000FN00000000020220401000013000NNM   20211208133410U5  1W    00000130000000882000000000032U5    ASAMSD  000000000000AN41C031
BI00B32U5    DW2007         202201141801W004040              IVSSH 0.75F W            CCN000005200000005200FN00000000020220401000005200NNM   20211208133410U5  1W    00000130000000882000000000032U5    ASAMSD  000000000000AN41C034
BI00B32U5    DW2007         202201141801W004043              IVSSH 0.75F W/B          CCN000014300000014300FN00000000020220401000014300NNM   20211208133410U5  1W    00000130000000882000000000032U5    ASAMSD  000000000000AN41C035
BI00B32U5    DW2007         202201141801W004052              IVSSH 0.75F P            CCN000005200000005200FN00000000020220401000005200NNM   20211208133410U5  1W    00000130000000882000000000032U5    ASAMSD  000000000000AN41C033
BI00B32U5    DW2007         202201141801W004060              IVSSH 0.75F G            CCN000002600000002600FN00000000020220401000002600NNM   20211208133410U5  1W    00000130000000882000000000032U5    ASAMSD  000000000000AN41C032
BI00B32U5    DW2007         202201141801W006930              IVSSH 0.35F B            CCN000117500000117500FN00000000020220401000117500NNM   20211208133410U5  1W    00000250000000452000000000032U5    ASAMSD  000000000000AN41C036
BI00B32U5    DW2007         202201141801W006940              IVSSH 0.35F W            CCN000077500000077500FN00000000020220401000077500NNM   20211208133410U5  1W    00000250000000452000000000032U5    ASAMSD  000000000000AN41C046
BI00B32U5    DW2007         202201141801W006941              IVSSH 0.35F GY           CCN000007500000007500FN00000000020220401000007500NNM   20211208133410U5  1W    00000250000000452000000000032U5    ASAMSD  000000000000AN41C040
BI00B32U5    DW2007         202201141801W006950              IVSSH 0.35F R            CCN000122500000122500FN00000000020220401000122500NNM   20211208133410U5  1W    00000250000000452000000000032U5    ASAMSD  000000000000AN41C044
BI00B32U5    DW2007         202201141801W006952              IVSSH 0.35F P            CCN000055000000055000FN00000000020220401000055000NNM   20211208133410U5  1W    00000250000000452000000000032U5    ASAMSD  000000000000AN41C043
BI00B32U5    DW2007         202201141801W00695U              IVSSH 0.35F BE           CCN000002500000002500FN00000000020220401000002500NNM   20211208133410U5  1W    00000250000000452000000000032U5    ASAMSD  000000000000AN41C037
BI00B32U5    DW2007         202201141801W006960              IVSSH 0.35F G            CCN000080000000080000FN00000000020220401000080000NNM   20211208133410U5  1W    00000250000000452000000000032U5    ASAMSD  000000000000AN41C039
BI00B32U5    DW2007         202201141801W006961              IVSSH 0.35F LG           CCN000035000000035000FN00000000020220401000035000NNM   20211208133410U5  1W    00000250000000452000000000032U5    ASAMSD  000000000000AN41C042
BI00B32U5    DW2007         202201141801W006970              IVSSH 0.35F Y            CCN000010000000010000FN00000000020220401000010000NNM   20211208133410U5  1W    00000250000000452000000000032U5    ASAMSD  000000000000AN41C047
BI00B32U5    DW2007         202201141801W006980              IVSSH 0.35F BR           CCN000037500000037500FN00000000020220401000037500NNM   20211208133410U5  1W    00000250000000452000000000032U5    ASAMSD  000000000000AN41C038
BI00B32U5    DW2007         202201141801W006990              IVSSH 0.35F L            CCN000120000000120000FN00000000020220401000120000NNM   20211208133410U5  1W    00000250000000452000000000032U5    ASAMSD  000000000000AN41C041
BI00B32U5    DW2007         202201141801W006991              IVSSH 0.35F SB           CCN000027500000027500FN00000000020220401000027500NNM   20211208133410U5  1W    00000250000000452000000000032U5    ASAMSD  000000000000AN41C045
BI00B32U5    @DW2007        20220114181AD2013ZZ              CIVUSAS-S 1.25X2 B       CCN000003300000003300FN00000000020220401000003300NNM   20211208133409U5  1W    00000022000004000000000000032U5    ASAMSD  000000000000AN41C018
BI00B32U5    @DW2007        20220114181E48011ZZ              CAVSAS-S 0.3X1 GY/W      CCN000002500000002500FN00000000020220401000002500NNM   20211208133409U5  1W    00000050000001701600000000032U5    ASAMSD  000000000000AN41C019
BI00B32U5    @DW2007        20220114181F21027ZZ              AVSSHCS-S 1.25FX2 B      CCN000000800000000800FN00000000020220401000000800NNM   20211208133409U5  1W    00000020000004262000000000032U5    ASAMSD  000000000000AN41C020
BI00B32X5    TWB2007        202201141801W003930              IVSSH 0.5F B             CCN000001800000001800FN00000000020220401000001800NNM   20211208133750X5  1W    00000180000000625000000000032X5    EPYNA-E 000000000000AH41C012
BI00B32X5    TWB2007        202201141801W004030              IVSSH 0.75F B            CCN000001300000001300FN00000000020220401000001300NNM   20211208133750X5  1W    00000130000000882000000000032X5    EPYNA-E 000000000000AH41C013
BI00B32X5    TWB2007        202201141801W004040              IVSSH 0.75F W            CCN000001300000001300FN00000000020220401000001300NNM   20211208133750X5  1W    00000130000000882000000000032X5    EPYNA-E 000000000000AH41C018
BI00B32X5    TWB2007        202201141801W004052              IVSSH 0.75F P            CCN000001300000001300FN00000000020220401000001300NNM   20211208133750X5  1W    00000130000000882000000000032X5    EPYNA-E 000000000000AH41C016
BI00B32X5    TWB2007        202201141801W004060              IVSSH 0.75F G            CCN000002600000002600FN00000000020220401000002600NNM   20211208133750X5  1W    00000130000000882000000000032X5    EPYNA-E 000000000000AH41C014
BI00B32X5    TWB2007        202201141801W004070              IVSSH 0.75F Y            CCN000001300000001300FN00000000020220401000001300NNM   20211208133750X5  1W    00000130000000882000000000032X5    EPYNA-E 000000000000AH41C019
BI00B32X5    TWB2007        202201141801W004090              IVSSH 0.75F L            CCN000001300000001300FN00000000020220401000001300NNM   20211208133750X5  1W    00000130000000882000000000032X5    EPYNA-E 000000000000AH41C015
BI00B32X5    TWB2007        202201141801W004092              IVSSH 0.75F V            CCN000002600000002600FN00000000020220401000002600NNM   20211208133750X5  1W    00000130000000882000000000032X5    EPYNA-E 000000000000AH41C017
BI00B32X5    TWB2007        202201141801W006930              IVSSH 0.35F B            CCN000027500000027500FN00000000020220401000027500NNM   20211208133750X5  1W    00000250000000452000000000032X5    EPYNA-E 000000000000AH41C020
BI00B32X5    TWB2007        202201141801W006940              IVSSH 0.35F W            CCN000035000000035000FN00000000020220401000035000NNM   20211208133750X5  1W    00000250000000452000000000032X5    EPYNA-E 000000000000AH41C024
BI00B32X5    TWB2007        202201141801W006950              IVSSH 0.35F R            CCN000022500000022500FN00000000020220401000022500NNM   20211208133750X5  1W    00000250000000452000000000032X5    EPYNA-E 000000000000AH41C022
BI00B32X5    TWB2007        202201141801W006960              IVSSH 0.35F G            CCN000027500000027500FN00000000020220401000027500NNM   20211208133750X5  1W    00000250000000452000000000032X5    EPYNA-E 000000000000AH41C021
BI00B32X5    TWB2007        202201141801W006970              IVSSH 0.35F Y            CCN000022500000022500FN00000000020220401000022500NNM   20211208133750X5  1W    00000250000000452000000000032X5    EPYNA-E 000000000000AH41C025
BI00B32X5    TWB2007        202201141801W006992              IVSSH 0.35F V            CCN000002500000002500FN00000000020220401000002500NNM   20211208133750X5  1W    00000250000000452000000000032X5    EPYNA-E 000000000000AH41C023
